{
  "contractName": "BNDESToken",
  "abi": [
    {
      "anonymous": false,
      "inputs": [
        {
          "indexed": true,
          "internalType": "address",
          "name": "owner",
          "type": "address"
        },
        {
          "indexed": true,
          "internalType": "address",
          "name": "spender",
          "type": "address"
        },
        {
          "indexed": false,
          "internalType": "uint256",
          "name": "value",
          "type": "uint256"
        }
      ],
      "name": "Approval",
      "type": "event"
    },
    {
      "anonymous": false,
      "inputs": [
        {
          "indexed": false,
          "internalType": "address",
          "name": "account",
          "type": "address"
        }
      ],
      "name": "Paused",
      "type": "event"
    },
    {
      "anonymous": false,
      "inputs": [
        {
          "indexed": true,
          "internalType": "address",
          "name": "account",
          "type": "address"
        }
      ],
      "name": "PauserAdded",
      "type": "event"
    },
    {
      "anonymous": false,
      "inputs": [
        {
          "indexed": true,
          "internalType": "address",
          "name": "account",
          "type": "address"
        }
      ],
      "name": "PauserRemoved",
      "type": "event"
    },
    {
      "anonymous": false,
      "inputs": [
        {
          "indexed": true,
          "internalType": "address",
          "name": "from",
          "type": "address"
        },
        {
          "indexed": true,
          "internalType": "address",
          "name": "to",
          "type": "address"
        },
        {
          "indexed": false,
          "internalType": "uint256",
          "name": "value",
          "type": "uint256"
        }
      ],
      "name": "Transfer",
      "type": "event"
    },
    {
      "anonymous": false,
      "inputs": [
        {
          "indexed": false,
          "internalType": "address",
          "name": "account",
          "type": "address"
        }
      ],
      "name": "Unpaused",
      "type": "event"
    },
    {
      "constant": false,
      "inputs": [
        {
          "internalType": "address",
          "name": "account",
          "type": "address"
        }
      ],
      "name": "addPauser",
      "outputs": [],
      "payable": false,
      "stateMutability": "nonpayable",
      "type": "function"
    },
    {
      "constant": true,
      "inputs": [
        {
          "internalType": "address",
          "name": "owner",
          "type": "address"
        },
        {
          "internalType": "address",
          "name": "spender",
          "type": "address"
        }
      ],
      "name": "allowance",
      "outputs": [
        {
          "internalType": "uint256",
          "name": "",
          "type": "uint256"
        }
      ],
      "payable": false,
      "stateMutability": "view",
      "type": "function"
    },
    {
      "constant": false,
      "inputs": [
        {
          "internalType": "address",
          "name": "spender",
          "type": "address"
        },
        {
          "internalType": "uint256",
          "name": "value",
          "type": "uint256"
        }
      ],
      "name": "approve",
      "outputs": [
        {
          "internalType": "bool",
          "name": "",
          "type": "bool"
        }
      ],
      "payable": false,
      "stateMutability": "nonpayable",
      "type": "function"
    },
    {
      "constant": true,
      "inputs": [
        {
          "internalType": "address",
          "name": "owner",
          "type": "address"
        }
      ],
      "name": "balanceOf",
      "outputs": [
        {
          "internalType": "uint256",
          "name": "",
          "type": "uint256"
        }
      ],
      "payable": false,
      "stateMutability": "view",
      "type": "function"
    },
    {
      "constant": true,
      "inputs": [],
      "name": "decimals",
      "outputs": [
        {
          "internalType": "uint8",
          "name": "",
          "type": "uint8"
        }
      ],
      "payable": false,
      "stateMutability": "view",
      "type": "function"
    },
    {
      "constant": false,
      "inputs": [
        {
          "internalType": "address",
          "name": "spender",
          "type": "address"
        },
        {
          "internalType": "uint256",
          "name": "subtractedValue",
          "type": "uint256"
        }
      ],
      "name": "decreaseAllowance",
      "outputs": [
        {
          "internalType": "bool",
          "name": "success",
          "type": "bool"
        }
      ],
      "payable": false,
      "stateMutability": "nonpayable",
      "type": "function"
    },
    {
      "constant": false,
      "inputs": [
        {
          "internalType": "address",
          "name": "spender",
          "type": "address"
        },
        {
          "internalType": "uint256",
          "name": "addedValue",
          "type": "uint256"
        }
      ],
      "name": "increaseAllowance",
      "outputs": [
        {
          "internalType": "bool",
          "name": "success",
          "type": "bool"
        }
      ],
      "payable": false,
      "stateMutability": "nonpayable",
      "type": "function"
    },
    {
      "constant": true,
      "inputs": [
        {
          "internalType": "address",
          "name": "account",
          "type": "address"
        }
      ],
      "name": "isPauser",
      "outputs": [
        {
          "internalType": "bool",
          "name": "",
          "type": "bool"
        }
      ],
      "payable": false,
      "stateMutability": "view",
      "type": "function"
    },
    {
      "constant": true,
      "inputs": [],
      "name": "name",
      "outputs": [
        {
          "internalType": "string",
          "name": "",
          "type": "string"
        }
      ],
      "payable": false,
      "stateMutability": "view",
      "type": "function"
    },
    {
      "constant": false,
      "inputs": [],
      "name": "pause",
      "outputs": [],
      "payable": false,
      "stateMutability": "nonpayable",
      "type": "function"
    },
    {
      "constant": true,
      "inputs": [],
      "name": "paused",
      "outputs": [
        {
          "internalType": "bool",
          "name": "",
          "type": "bool"
        }
      ],
      "payable": false,
      "stateMutability": "view",
      "type": "function"
    },
    {
      "constant": false,
      "inputs": [],
      "name": "renouncePauser",
      "outputs": [],
      "payable": false,
      "stateMutability": "nonpayable",
      "type": "function"
    },
    {
      "constant": true,
      "inputs": [],
      "name": "symbol",
      "outputs": [
        {
          "internalType": "string",
          "name": "",
          "type": "string"
        }
      ],
      "payable": false,
      "stateMutability": "view",
      "type": "function"
    },
    {
      "constant": true,
      "inputs": [],
      "name": "totalSupply",
      "outputs": [
        {
          "internalType": "uint256",
          "name": "",
          "type": "uint256"
        }
      ],
      "payable": false,
      "stateMutability": "view",
      "type": "function"
    },
    {
      "constant": false,
      "inputs": [
        {
          "internalType": "address",
          "name": "to",
          "type": "address"
        },
        {
          "internalType": "uint256",
          "name": "value",
          "type": "uint256"
        }
      ],
      "name": "transfer",
      "outputs": [
        {
          "internalType": "bool",
          "name": "",
          "type": "bool"
        }
      ],
      "payable": false,
      "stateMutability": "nonpayable",
      "type": "function"
    },
    {
      "constant": false,
      "inputs": [
        {
          "internalType": "address",
          "name": "from",
          "type": "address"
        },
        {
          "internalType": "address",
          "name": "to",
          "type": "address"
        },
        {
          "internalType": "uint256",
          "name": "value",
          "type": "uint256"
        }
      ],
      "name": "transferFrom",
      "outputs": [
        {
          "internalType": "bool",
          "name": "",
          "type": "bool"
        }
      ],
      "payable": false,
      "stateMutability": "nonpayable",
      "type": "function"
    },
    {
      "constant": false,
      "inputs": [],
      "name": "unpause",
      "outputs": [],
      "payable": false,
      "stateMutability": "nonpayable",
      "type": "function"
    }
  ],
  "bytecode": "0x60806040526040518060400160405280600a81526020017f424e444553546f6b656e000000000000000000000000000000000000000000008152506040518060400160405280600381526020017f424e44000000000000000000000000000000000000000000000000000000000081525060026200008333620000f460201b60201c565b6000600460006101000a81548160ff0219169083151502179055508260059080519060200190620000b69291906200029e565b508160069080519060200190620000cf9291906200029e565b5080600760006101000a81548160ff021916908360ff1602179055505050506200034d565b6200010f8160036200015560201b620016a41790919060201c565b8073ffffffffffffffffffffffffffffffffffffffff167f6719d08c1888103bea251a4ed56406bd0c3e69723c8a1686e017e7bbe159b6f860405160405180910390a250565b600073ffffffffffffffffffffffffffffffffffffffff168173ffffffffffffffffffffffffffffffffffffffff1614156200019057600080fd5b620001a282826200020b60201b60201c565b15620001ad57600080fd5b60018260000160008373ffffffffffffffffffffffffffffffffffffffff1673ffffffffffffffffffffffffffffffffffffffff16815260200190815260200160002060006101000a81548160ff0219169083151502179055505050565b60008073ffffffffffffffffffffffffffffffffffffffff168273ffffffffffffffffffffffffffffffffffffffff1614156200024757600080fd5b8260000160008373ffffffffffffffffffffffffffffffffffffffff1673ffffffffffffffffffffffffffffffffffffffff16815260200190815260200160002060009054906101000a900460ff16905092915050565b828054600181600116156101000203166002900490600052602060002090601f016020900481019282601f10620002e157805160ff191683800117855562000312565b8280016001018555821562000312579182015b8281111562000311578251825591602001919060010190620002f4565b5b50905062000321919062000325565b5090565b6200034a91905b80821115620003465760008160009055506001016200032c565b5090565b90565b611785806200035d6000396000f3fe608060405234801561001057600080fd5b506004361061010b5760003560e01c80635c975abb116100a25780638456cb59116100715780638456cb591461045557806395d89b411461045f578063a457c2d7146104e2578063a9059cbb14610548578063dd62ed3e146105ae5761010b565b80635c975abb1461038d5780636ef8d66d146103af57806370a08231146103b957806382dc1ec4146104115761010b565b8063313ce567116100de578063313ce5671461029d57806339509351146102c15780633f4ba83a1461032757806346fbf68e146103315761010b565b806306fdde0314610110578063095ea7b31461019357806318160ddd146101f957806323b872dd14610217575b600080fd5b610118610626565b6040518080602001828103825283818151815260200191508051906020019080838360005b8381101561015857808201518184015260208101905061013d565b50505050905090810190601f1680156101855780820380516001836020036101000a031916815260200191505b509250505060405180910390f35b6101df600480360360408110156101a957600080fd5b81019080803573ffffffffffffffffffffffffffffffffffffffff169060200190929190803590602001909291905050506106c8565b604051808215151515815260200191505060405180910390f35b6102016106f6565b6040518082815260200191505060405180910390f35b6102836004803603606081101561022d57600080fd5b81019080803573ffffffffffffffffffffffffffffffffffffffff169060200190929190803573ffffffffffffffffffffffffffffffffffffffff16906020019092919080359060200190929190505050610700565b604051808215151515815260200191505060405180910390f35b6102a5610730565b604051808260ff1660ff16815260200191505060405180910390f35b61030d600480360360408110156102d757600080fd5b81019080803573ffffffffffffffffffffffffffffffffffffffff16906020019092919080359060200190929190505050610747565b604051808215151515815260200191505060405180910390f35b61032f610775565b005b6103736004803603602081101561034757600080fd5b81019080803573ffffffffffffffffffffffffffffffffffffffff169060200190929190505050610820565b604051808215151515815260200191505060405180910390f35b61039561083d565b604051808215151515815260200191505060405180910390f35b6103b7610854565b005b6103fb600480360360208110156103cf57600080fd5b81019080803573ffffffffffffffffffffffffffffffffffffffff16906020019092919050505061085f565b6040518082815260200191505060405180910390f35b6104536004803603602081101561042757600080fd5b81019080803573ffffffffffffffffffffffffffffffffffffffff1690602001909291905050506108a7565b005b61045d6108c5565b005b610467610971565b6040518080602001828103825283818151815260200191508051906020019080838360005b838110156104a757808201518184015260208101905061048c565b50505050905090810190601f1680156104d45780820380516001836020036101000a031916815260200191505b509250505060405180910390f35b61052e600480360360408110156104f857600080fd5b81019080803573ffffffffffffffffffffffffffffffffffffffff16906020019092919080359060200190929190505050610a13565b604051808215151515815260200191505060405180910390f35b6105946004803603604081101561055e57600080fd5b81019080803573ffffffffffffffffffffffffffffffffffffffff16906020019092919080359060200190929190505050610a41565b604051808215151515815260200191505060405180910390f35b610610600480360360408110156105c457600080fd5b81019080803573ffffffffffffffffffffffffffffffffffffffff169060200190929190803573ffffffffffffffffffffffffffffffffffffffff169060200190929190505050610a6f565b6040518082815260200191505060405180910390f35b606060058054600181600116156101000203166002900480601f0160208091040260200160405190810160405280929190818152602001828054600181600116156101000203166002900480156106be5780601f10610693576101008083540402835291602001916106be565b820191906000526020600020905b8154815290600101906020018083116106a157829003601f168201915b5050505050905090565b6000600460009054906101000a900460ff16156106e457600080fd5b6106ee8383610af6565b905092915050565b6000600254905090565b6000600460009054906101000a900460ff161561071c57600080fd5b610727848484610c21565b90509392505050565b6000600760009054906101000a900460ff16905090565b6000600460009054906101000a900460ff161561076357600080fd5b61076d8383610e29565b905092915050565b61077e33610820565b61078757600080fd5b600460009054906101000a900460ff166107a057600080fd5b6000600460006101000a81548160ff0219169083151502179055507f5db9ee0a495bf2e6ff9c91a7834c1ba4fdd244a5e8aa4e537bd38aeae4b073aa33604051808273ffffffffffffffffffffffffffffffffffffffff1673ffffffffffffffffffffffffffffffffffffffff16815260200191505060405180910390a1565b600061083682600361105e90919063ffffffff16565b9050919050565b6000600460009054906101000a900460ff16905090565b61085d336110f0565b565b60008060008373ffffffffffffffffffffffffffffffffffffffff1673ffffffffffffffffffffffffffffffffffffffff168152602001908152602001600020549050919050565b6108b033610820565b6108b957600080fd5b6108c28161114a565b50565b6108ce33610820565b6108d757600080fd5b600460009054906101000a900460ff16156108f157600080fd5b6001600460006101000a81548160ff0219169083151502179055507f62e78cea01bee320cd4e420270b5ea74000d11b0c9f74754ebdbfc544b05a25833604051808273ffffffffffffffffffffffffffffffffffffffff1673ffffffffffffffffffffffffffffffffffffffff16815260200191505060405180910390a1565b606060068054600181600116156101000203166002900480601f016020809104026020016040519081016040528092919081815260200182805460018160011615610100020316600290048015610a095780601f106109de57610100808354040283529160200191610a09565b820191906000526020600020905b8154815290600101906020018083116109ec57829003601f168201915b5050505050905090565b6000600460009054906101000a900460ff1615610a2f57600080fd5b610a3983836111a4565b905092915050565b6000600460009054906101000a900460ff1615610a5d57600080fd5b610a6783836113d9565b905092915050565b6000600160008473ffffffffffffffffffffffffffffffffffffffff1673ffffffffffffffffffffffffffffffffffffffff16815260200190815260200160002060008373ffffffffffffffffffffffffffffffffffffffff1673ffffffffffffffffffffffffffffffffffffffff16815260200190815260200160002054905092915050565b60008073ffffffffffffffffffffffffffffffffffffffff168373ffffffffffffffffffffffffffffffffffffffff161415610b3157600080fd5b81600160003373ffffffffffffffffffffffffffffffffffffffff1673ffffffffffffffffffffffffffffffffffffffff16815260200190815260200160002060008573ffffffffffffffffffffffffffffffffffffffff1673ffffffffffffffffffffffffffffffffffffffff168152602001908152602001600020819055508273ffffffffffffffffffffffffffffffffffffffff163373ffffffffffffffffffffffffffffffffffffffff167f8c5be1e5ebec7d5bd14f71427d1e84f3dd0314c0f7b2291e5b200ac8c7c3b925846040518082815260200191505060405180910390a36001905092915050565b6000610cb282600160008773ffffffffffffffffffffffffffffffffffffffff1673ffffffffffffffffffffffffffffffffffffffff16815260200190815260200160002060003373ffffffffffffffffffffffffffffffffffffffff1673ffffffffffffffffffffffffffffffffffffffff168152602001908152602001600020546113f090919063ffffffff16565b600160008673ffffffffffffffffffffffffffffffffffffffff1673ffffffffffffffffffffffffffffffffffffffff16815260200190815260200160002060003373ffffffffffffffffffffffffffffffffffffffff1673ffffffffffffffffffffffffffffffffffffffff16815260200190815260200160002081905550610d3d848484611410565b3373ffffffffffffffffffffffffffffffffffffffff168473ffffffffffffffffffffffffffffffffffffffff167f8c5be1e5ebec7d5bd14f71427d1e84f3dd0314c0f7b2291e5b200ac8c7c3b925600160008873ffffffffffffffffffffffffffffffffffffffff1673ffffffffffffffffffffffffffffffffffffffff16815260200190815260200160002060003373ffffffffffffffffffffffffffffffffffffffff1673ffffffffffffffffffffffffffffffffffffffff168152602001908152602001600020546040518082815260200191505060405180910390a3600190509392505050565b60008073ffffffffffffffffffffffffffffffffffffffff168373ffffffffffffffffffffffffffffffffffffffff161415610e6457600080fd5b610ef382600160003373ffffffffffffffffffffffffffffffffffffffff1673ffffffffffffffffffffffffffffffffffffffff16815260200190815260200160002060008673ffffffffffffffffffffffffffffffffffffffff1673ffffffffffffffffffffffffffffffffffffffff168152602001908152602001600020546115da90919063ffffffff16565b600160003373ffffffffffffffffffffffffffffffffffffffff1673ffffffffffffffffffffffffffffffffffffffff16815260200190815260200160002060008573ffffffffffffffffffffffffffffffffffffffff1673ffffffffffffffffffffffffffffffffffffffff168152602001908152602001600020819055508273ffffffffffffffffffffffffffffffffffffffff163373ffffffffffffffffffffffffffffffffffffffff167f8c5be1e5ebec7d5bd14f71427d1e84f3dd0314c0f7b2291e5b200ac8c7c3b925600160003373ffffffffffffffffffffffffffffffffffffffff1673ffffffffffffffffffffffffffffffffffffffff16815260200190815260200160002060008773ffffffffffffffffffffffffffffffffffffffff1673ffffffffffffffffffffffffffffffffffffffff168152602001908152602001600020546040518082815260200191505060405180910390a36001905092915050565b60008073ffffffffffffffffffffffffffffffffffffffff168273ffffffffffffffffffffffffffffffffffffffff16141561109957600080fd5b8260000160008373ffffffffffffffffffffffffffffffffffffffff1673ffffffffffffffffffffffffffffffffffffffff16815260200190815260200160002060009054906101000a900460ff16905092915050565b6111048160036115f990919063ffffffff16565b8073ffffffffffffffffffffffffffffffffffffffff167fcd265ebaf09df2871cc7bd4133404a235ba12eff2041bb89d9c714a2621c7c7e60405160405180910390a250565b61115e8160036116a490919063ffffffff16565b8073ffffffffffffffffffffffffffffffffffffffff167f6719d08c1888103bea251a4ed56406bd0c3e69723c8a1686e017e7bbe159b6f860405160405180910390a250565b60008073ffffffffffffffffffffffffffffffffffffffff168373ffffffffffffffffffffffffffffffffffffffff1614156111df57600080fd5b61126e82600160003373ffffffffffffffffffffffffffffffffffffffff1673ffffffffffffffffffffffffffffffffffffffff16815260200190815260200160002060008673ffffffffffffffffffffffffffffffffffffffff1673ffffffffffffffffffffffffffffffffffffffff168152602001908152602001600020546113f090919063ffffffff16565b600160003373ffffffffffffffffffffffffffffffffffffffff1673ffffffffffffffffffffffffffffffffffffffff16815260200190815260200160002060008573ffffffffffffffffffffffffffffffffffffffff1673ffffffffffffffffffffffffffffffffffffffff168152602001908152602001600020819055508273ffffffffffffffffffffffffffffffffffffffff163373ffffffffffffffffffffffffffffffffffffffff167f8c5be1e5ebec7d5bd14f71427d1e84f3dd0314c0f7b2291e5b200ac8c7c3b925600160003373ffffffffffffffffffffffffffffffffffffffff1673ffffffffffffffffffffffffffffffffffffffff16815260200190815260200160002060008773ffffffffffffffffffffffffffffffffffffffff1673ffffffffffffffffffffffffffffffffffffffff168152602001908152602001600020546040518082815260200191505060405180910390a36001905092915050565b60006113e6338484611410565b6001905092915050565b6000828211156113ff57600080fd5b600082840390508091505092915050565b600073ffffffffffffffffffffffffffffffffffffffff168273ffffffffffffffffffffffffffffffffffffffff16141561144a57600080fd5b61149b816000808673ffffffffffffffffffffffffffffffffffffffff1673ffffffffffffffffffffffffffffffffffffffff168152602001908152602001600020546113f090919063ffffffff16565b6000808573ffffffffffffffffffffffffffffffffffffffff1673ffffffffffffffffffffffffffffffffffffffff1681526020019081526020016000208190555061152e816000808573ffffffffffffffffffffffffffffffffffffffff1673ffffffffffffffffffffffffffffffffffffffff168152602001908152602001600020546115da90919063ffffffff16565b6000808473ffffffffffffffffffffffffffffffffffffffff1673ffffffffffffffffffffffffffffffffffffffff168152602001908152602001600020819055508173ffffffffffffffffffffffffffffffffffffffff168373ffffffffffffffffffffffffffffffffffffffff167fddf252ad1be2c89b69c2b068fc378daa952ba7f163c4a11628f55a4df523b3ef836040518082815260200191505060405180910390a3505050565b6000808284019050838110156115ef57600080fd5b8091505092915050565b600073ffffffffffffffffffffffffffffffffffffffff168173ffffffffffffffffffffffffffffffffffffffff16141561163357600080fd5b61163d828261105e565b61164657600080fd5b60008260000160008373ffffffffffffffffffffffffffffffffffffffff1673ffffffffffffffffffffffffffffffffffffffff16815260200190815260200160002060006101000a81548160ff0219169083151502179055505050565b600073ffffffffffffffffffffffffffffffffffffffff168173ffffffffffffffffffffffffffffffffffffffff1614156116de57600080fd5b6116e8828261105e565b156116f257600080fd5b60018260000160008373ffffffffffffffffffffffffffffffffffffffff1673ffffffffffffffffffffffffffffffffffffffff16815260200190815260200160002060006101000a81548160ff021916908315150217905550505056fea265627a7a72315820ad0d2bc931d37c7ff4398d8f8882aa833736b7e8105968c08e6badcdcb6d09a664736f6c63430005100032",
  "source": "pragma solidity ^0.5.0;\n\nimport \"openzeppelin-solidity/contracts/token/ERC20/ERC20Pausable.sol\";\nimport \"openzeppelin-solidity/contracts/token/ERC20/ERC20Detailed.sol\";\nimport \"./BNDESRegistry.sol\";\n\n\ncontract BNDESToken is ERC20Pausable, ERC20Detailed(\"BNDESToken\", \"BND\", 2) {\n\n/*\n    uint private version = 20190517;\n\n    BNDESRegistry registry;\n\n    event BNDESTokenDisbursement(uint64 cnpj, uint64 idFinancialSupportAgreement, uint256 value);\n    event BNDESTokenTransfer(uint64 fromCnpj, uint64 fromIdFinancialSupportAgreement, uint64 toCnpj, uint256 value);\n    event BNDESTokenRedemption(uint64 cnpj, uint256 value);\n    event BNDESTokenRedemptionSettlement(string redemptionTransactionHash, string receiptHash);\n    event BNDESManualIntervention(string description);\n\n    /**\n     * @dev Throws if called by any account other than the owner.\n     *\n     /\n    modifier onlyOwner() {\n        require(isOwner());\n        _;\n    }\n\n    constructor (address newRegistryAddr) public {\n        registry = BNDESRegistry(newRegistryAddr);\n    }\n\n\n    function getVersion() view public returns (uint) {\n        return version;\n    }\n\n\n   /**\n    * The transfer funcion follows ERC20 token signature. \n    * Using them, it is possible to disburse money to the client, transfer from client to supplier and redeem.\n    * @param to the Ethereum address to where the money should be sent\n    * @param value how much BNDESToken the supplier wants to redeem\n    * /\n    function transfer (address to, uint256 value) public whenNotPaused returns (bool) {\n\n        address from = msg.sender;\n\n        require(from != to, \"No pode transferir token para si mesmo\");\n\n        if (registry.isResponsibleForDisbursement(from)) {\n\n            require(registry.isValidatedClient(to), \"O endereo no pertence a um cliente ou no est validada\");\n\n            _mint(to, value);\n\n            emit BNDESTokenDisbursement(registry.getCNPJ(to), registry.getIdLegalFinancialAgreement(to), value);\n\n        } else { \n\n            if (registry.isRedemptionAddress(to)) { \n\n                require(registry.isValidatedSupplier(from), \"A conta do endereo no pertence a um fornecedor ou no est validada\");\n\n                _burn(from, value);\n\n                emit BNDESTokenRedemption(registry.getCNPJ(from), value);\n\n            } else {\n\n                // Se nem from nem to so o Banco, eh transferencia normal\n\n                require(registry.isValidatedClient(from), \"O endereo no pertence a um cliente ou no est validada\");\n                require(registry.isValidatedSupplier(to), \"A conta do endereo no pertence a um fornecedor ou no est validada\");\n                require( ( registry.getCNPJ(from) != registry.getCNPJ(to) ) , \"Um mesmo CNPJ no pode transferir token para si mesmo, ainda que em papis distintos (Cliente/Fornecedor)\" );\n\n                _transfer(msg.sender, to, value);\n\n                emit BNDESTokenTransfer(registry.getCNPJ(from), registry.getIdLegalFinancialAgreement(from), \n                                registry.getCNPJ(to), value);\n  \n            }\n        }\n\n        return true;\n    }\n\n   /**\n    * When redeeming, the supplier indicated to the Resposible for Settlement that he wants to receive \n    * the FIAT money.\n    * @param value - how much BNDESToken the supplier wants to redeem\n    * /\n    function redeem (uint256 value) public whenNotPaused returns (bool) {\n        return transfer(registry.getRedemptionAddress(), value);\n    }\n\n   /**\n    * Using this function, the Responsible for Settlement indicates that he has made the FIAT money transfer.\n    * @param redemptionTransactionHash hash of the redeem transaction in which the FIAT money settlement occurred.\n    * @param receiptHash hash that proof the FIAT money transfer\n    * /\n    function notifyRedemptionSettlement(string memory redemptionTransactionHash, string memory receiptHash) \n        public whenNotPaused {\n        require (registry.isResponsibleForSettlement(msg.sender), \"A liquidao s no pode ser realizada pelo endereo que submeteu a transao\"); \n        require (registry.isValidHash(receiptHash), \"O hash do recibo  invlido\");\n        emit BNDESTokenRedemptionSettlement(redemptionTransactionHash, receiptHash);\n    }\n\n\n    function registryLegalEntity(uint64 cnpj, uint64 idFinancialSupportAgreement, uint32 salic, string memory idProofHash) \n        public whenNotPaused { \n        registry.registryLegalEntity(cnpj,  idFinancialSupportAgreement, salic, msg.sender, idProofHash);\n    }\n\n   /**\n    * Changes the original link between CNPJ and Ethereum account. \n    * The new link still needs to be validated by BNDES.\n    * IMPORTANT: The BNDESTOKENs are transfered from the original to the new Ethereum address \n    * @param cnpj Brazilian identifier to legal entities\n    * @param idFinancialSupportAgreement contract number of financial contract with BNDES. It assumes 0 if it is a supplier.\n    * @param salic contract number of financial contract with ANCINE. It assumes 0 if it is a supplier.\n    * @param idProofHash The legal entities have to send BNDES a PDF where it assumes as responsible for an Ethereum account. \n    *                   This PDF is signed with eCNPJ and send to BNDES. \n    * /\n    function changeAccountLegalEntity(uint64 cnpj, uint64 idFinancialSupportAgreement, uint32 salic, string memory idProofHash) \n        public whenNotPaused {\n        \n        address oldAddr = registry.getBlockchainAccount(cnpj, idFinancialSupportAgreement);\n        address newAddr = msg.sender;\n        \n        registry.changeAccountLegalEntity(cnpj, idFinancialSupportAgreement, salic, msg.sender, idProofHash);\n\n        // Se h saldo no enderecoAntigo, precisa transferir\n        if (balanceOf(oldAddr) > 0) {\n            _transfer(oldAddr, newAddr, balanceOf(oldAddr));\n        }\n\n    }\n\n    //These methods may be necessary to solve incidents.\n    function burn(address from, uint256 value, string memory description) public onlyOwner {\n        _burn(from, value);\n        emit BNDESManualIntervention(description);        \n    }\n\n    //These methods may be necessary to solve incidents.\n    function mint(address to, uint256 value, string memory description) public onlyOwner {\n        _mint(to, value);\n        emit BNDESManualIntervention(description);        \n    }\n\n    function isOwner() public view returns (bool) {\n        return registry.owner() == msg.sender;\n    } \n\n    //Unsupported methods - created to avoid call the lib functions by overriding them\n    function transferFrom(address from, address to, uint256 value) public whenNotPaused returns (bool) {\n        require(false, \"Unsupported method - transferFrom\");\n    }\n\n    //Unsupported methods - created to avoid call the lib functions by overriding them\n    function approve(address spender, uint256 value) public whenNotPaused returns (bool) {\n        require(false, \"Unsupported method - approve\");\n    }\n\n    //Unsupported methods - created to avoid call the lib functions by overriding them\n    function increaseAllowance(address spender, uint addedValue) public whenNotPaused returns (bool success) {\n        require(false, \"Unsupported method - increaseAllowance\");\n    }\n\n    //Unsupported methods - created to avoid call the lib functions by overriding them\n    function decreaseAllowance(address spender, uint subtractedValue) public whenNotPaused returns (bool success) {\n        require(false, \"Unsupported method - decreaseAllowance\");\n    }\n\n*/\n\n}",
  "sourcePath": "/Users/suzana.moreno/workspace/identifiedToken/Back-Blockchain/contracts/BNDESToken.sol",
  "compiler": {
    "name": "solc",
    "version": "0.5.16+commit.9c3226ce.Emscripten.clang"
  },
  "schemaVersion": "3.0.23",
  "updatedAt": "2020-06-24T19:01:35.179Z",
  "devdoc": {
    "methods": {
      "allowance(address,address)": {
        "details": "Function to check the amount of tokens that an owner allowed to a spender.",
        "params": {
          "owner": "address The address which owns the funds.",
          "spender": "address The address which will spend the funds."
        },
        "return": "A uint256 specifying the amount of tokens still available for the spender."
      },
      "balanceOf(address)": {
        "details": "Gets the balance of the specified address.",
        "params": {
          "owner": "The address to query the balance of."
        },
        "return": "An uint256 representing the amount owned by the passed address."
      },
      "decimals()": {
        "return": "the number of decimals of the token."
      },
      "name()": {
        "return": "the name of the token."
      },
      "pause()": {
        "details": "called by the owner to pause, triggers stopped state"
      },
      "paused()": {
        "return": "true if the contract is paused, false otherwise."
      },
      "symbol()": {
        "return": "the symbol of the token."
      },
      "totalSupply()": {
        "details": "Total number of tokens in existence"
      },
      "unpause()": {
        "details": "called by the owner to unpause, returns to normal state"
      }
    }
  },
  "userdoc": {
    "methods": {}
  }
}