{
  "contractName": "BusinessContractRegistry",
  "abi": [
    {
      "anonymous": false,
      "inputs": [
        {
          "indexed": false,
          "internalType": "uint256",
          "name": "id",
          "type": "uint256"
        },
        {
          "indexed": false,
          "internalType": "uint256",
          "name": "ownerId",
          "type": "uint256"
        },
        {
          "indexed": false,
          "internalType": "address",
          "name": "addr",
          "type": "address"
        }
      ],
      "name": "BusinessContractRegistration",
      "type": "event"
    },
    {
      "anonymous": false,
      "inputs": [
        {
          "indexed": false,
          "internalType": "uint256",
          "name": "id",
          "type": "uint256"
        },
        {
          "indexed": false,
          "internalType": "bool",
          "name": "state",
          "type": "bool"
        }
      ],
      "name": "BusinessContractStateChange",
      "type": "event"
    },
    {
      "anonymous": false,
      "inputs": [
        {
          "indexed": true,
          "internalType": "address",
          "name": "previousOwner",
          "type": "address"
        },
        {
          "indexed": true,
          "internalType": "address",
          "name": "newOwner",
          "type": "address"
        }
      ],
      "name": "OwnershipTransferred",
      "type": "event"
    },
    {
      "constant": true,
      "inputs": [
        {
          "internalType": "address",
          "name": "",
          "type": "address"
        }
      ],
      "name": "businessContractsRegistry",
      "outputs": [
        {
          "internalType": "uint256",
          "name": "id",
          "type": "uint256"
        },
        {
          "internalType": "uint256",
          "name": "ownerId",
          "type": "uint256"
        },
        {
          "internalType": "bool",
          "name": "isActive",
          "type": "bool"
        }
      ],
      "payable": false,
      "stateMutability": "view",
      "type": "function"
    },
    {
      "constant": true,
      "inputs": [],
      "name": "idCount",
      "outputs": [
        {
          "internalType": "uint256",
          "name": "",
          "type": "uint256"
        }
      ],
      "payable": false,
      "stateMutability": "view",
      "type": "function"
    },
    {
      "constant": true,
      "inputs": [],
      "name": "isOwner",
      "outputs": [
        {
          "internalType": "bool",
          "name": "",
          "type": "bool"
        }
      ],
      "payable": false,
      "stateMutability": "view",
      "type": "function"
    },
    {
      "constant": true,
      "inputs": [],
      "name": "owner",
      "outputs": [
        {
          "internalType": "address",
          "name": "",
          "type": "address"
        }
      ],
      "payable": false,
      "stateMutability": "view",
      "type": "function"
    },
    {
      "constant": false,
      "inputs": [],
      "name": "renounceOwnership",
      "outputs": [],
      "payable": false,
      "stateMutability": "nonpayable",
      "type": "function"
    },
    {
      "constant": false,
      "inputs": [
        {
          "internalType": "address",
          "name": "newOwner",
          "type": "address"
        }
      ],
      "name": "transferOwnership",
      "outputs": [],
      "payable": false,
      "stateMutability": "nonpayable",
      "type": "function"
    },
    {
      "constant": false,
      "inputs": [
        {
          "internalType": "address",
          "name": "addr",
          "type": "address"
        },
        {
          "internalType": "uint256",
          "name": "ownerId",
          "type": "uint256"
        }
      ],
      "name": "registerBusinessContract",
      "outputs": [
        {
          "internalType": "uint256",
          "name": "",
          "type": "uint256"
        }
      ],
      "payable": false,
      "stateMutability": "nonpayable",
      "type": "function"
    },
    {
      "constant": true,
      "inputs": [
        {
          "internalType": "address",
          "name": "addr",
          "type": "address"
        }
      ],
      "name": "getBusinessContractId",
      "outputs": [
        {
          "internalType": "uint256",
          "name": "",
          "type": "uint256"
        }
      ],
      "payable": false,
      "stateMutability": "view",
      "type": "function"
    },
    {
      "constant": true,
      "inputs": [
        {
          "internalType": "address",
          "name": "addr",
          "type": "address"
        }
      ],
      "name": "getBusinessContractIdAndOwnerId",
      "outputs": [
        {
          "internalType": "uint256",
          "name": "",
          "type": "uint256"
        },
        {
          "internalType": "uint256",
          "name": "",
          "type": "uint256"
        }
      ],
      "payable": false,
      "stateMutability": "view",
      "type": "function"
    },
    {
      "constant": true,
      "inputs": [
        {
          "internalType": "address",
          "name": "addr",
          "type": "address"
        }
      ],
      "name": "containsBusinessContract",
      "outputs": [
        {
          "internalType": "bool",
          "name": "",
          "type": "bool"
        }
      ],
      "payable": false,
      "stateMutability": "view",
      "type": "function"
    },
    {
      "constant": true,
      "inputs": [
        {
          "internalType": "address",
          "name": "addr",
          "type": "address"
        }
      ],
      "name": "isBusinessContractActive",
      "outputs": [
        {
          "internalType": "bool",
          "name": "",
          "type": "bool"
        }
      ],
      "payable": false,
      "stateMutability": "view",
      "type": "function"
    },
    {
      "constant": false,
      "inputs": [
        {
          "internalType": "address",
          "name": "addr",
          "type": "address"
        },
        {
          "internalType": "bool",
          "name": "status",
          "type": "bool"
        }
      ],
      "name": "setStatus",
      "outputs": [
        {
          "internalType": "bool",
          "name": "",
          "type": "bool"
        }
      ],
      "payable": false,
      "stateMutability": "nonpayable",
      "type": "function"
    }
  ],
  "bytecode": "0x60806040526001805560006100186100bb60201b60201c565b9050806000806101000a81548173ffffffffffffffffffffffffffffffffffffffff021916908373ffffffffffffffffffffffffffffffffffffffff1602179055508073ffffffffffffffffffffffffffffffffffffffff16600073ffffffffffffffffffffffffffffffffffffffff167f8be0079c531659141344cd1fd0a4f28419497f9722a3daafe3b4186f6b6457e060405160405180910390a3506100c3565b600033905090565b6110cb806100d26000396000f3fe608060405234801561001057600080fd5b50600436106100b45760003560e01c8063b304f21c11610071578063b304f21c14610190578063c5b2f6a9146101c0578063d508636d146101f2578063e0a08b7314610222578063e6e4623814610252578063f2fde38b14610270576100b4565b806353d5f7cf146100b9578063715018a6146100e957806388431f7a146100f35780638b214c00146101235780638da5cb5b146101545780638f32d59b14610172575b600080fd5b6100d360048036036100ce9190810190610c3f565b61028c565b6040516100e09190610e74565b60405180910390f35b6100f1610366565b005b61010d60048036036101089190810190610c3f565b61046c565b60405161011a9190610e74565b60405180910390f35b61013d60048036036101389190810190610c3f565b610512565b60405161014b929190610f53565b60405180910390f35b61015c6105f4565b6040516101699190610e59565b60405180910390f35b61017a61061d565b6040516101879190610e74565b60405180910390f35b6101aa60048036036101a59190810190610c68565b61067b565b6040516101b79190610e74565b60405180910390f35b6101da60048036036101d59190810190610c3f565b6107c0565b6040516101e993929190610fb3565b60405180910390f35b61020c60048036036102079190810190610ca4565b6107f7565b6040516102199190610f0f565b60405180910390f35b61023c60048036036102379190810190610c3f565b610974565b6040516102499190610f0f565b60405180910390f35b61025a610a4e565b6040516102679190610f0f565b60405180910390f35b61028a60048036036102859190810190610c3f565b610a54565b005b60006102978261046c565b6102d6576040517f08c379a00000000000000000000000000000000000000000000000000000000081526004016102cd90610ecf565b60405180910390fd5b6102de610bdd565b600260008473ffffffffffffffffffffffffffffffffffffffff1673ffffffffffffffffffffffffffffffffffffffff16815260200190815260200160002060405180606001604052908160008201548152602001600182015481526020016002820160009054906101000a900460ff16151515158152505090508060400151915050919050565b61036e61061d565b6103ad576040517f08c379a00000000000000000000000000000000000000000000000000000000081526004016103a490610eef565b60405180910390fd5b600073ffffffffffffffffffffffffffffffffffffffff166000809054906101000a900473ffffffffffffffffffffffffffffffffffffffff1673ffffffffffffffffffffffffffffffffffffffff167f8be0079c531659141344cd1fd0a4f28419497f9722a3daafe3b4186f6b6457e060405160405180910390a360008060006101000a81548173ffffffffffffffffffffffffffffffffffffffff021916908373ffffffffffffffffffffffffffffffffffffffff160217905550565b6000610476610bdd565b600260008473ffffffffffffffffffffffffffffffffffffffff1673ffffffffffffffffffffffffffffffffffffffff16815260200190815260200160002060405180606001604052908160008201548152602001600182015481526020016002820160009054906101000a900460ff1615151515815250509050600081600001511461050757600191505061050d565b60009150505b919050565b60008061051e8361046c565b61055d576040517f08c379a000000000000000000000000000000000000000000000000000000000815260040161055490610ecf565b60405180910390fd5b610565610bdd565b600260008573ffffffffffffffffffffffffffffffffffffffff1673ffffffffffffffffffffffffffffffffffffffff16815260200190815260200160002060405180606001604052908160008201548152602001600182015481526020016002820160009054906101000a900460ff1615151515815250509050806000015181602001519250925050915091565b60008060009054906101000a900473ffffffffffffffffffffffffffffffffffffffff16905090565b60008060009054906101000a900473ffffffffffffffffffffffffffffffffffffffff1673ffffffffffffffffffffffffffffffffffffffff1661065f610aa7565b73ffffffffffffffffffffffffffffffffffffffff1614905090565b600061068561061d565b6106c4576040517f08c379a00000000000000000000000000000000000000000000000000000000081526004016106bb90610eef565b60405180910390fd5b6106cd8361046c565b61070c576040517f08c379a000000000000000000000000000000000000000000000000000000000815260040161070390610ecf565b60405180910390fd5b6000600260008573ffffffffffffffffffffffffffffffffffffffff1673ffffffffffffffffffffffffffffffffffffffff1681526020019081526020016000209050828160020160006101000a81548160ff0219169083151502179055507f28a61818d188a7856821431ff0deb7650c2cc34ee4b7b97616a415fa0a3dfeff81600001548260020160009054906101000a900460ff166040516107b1929190610f2a565b60405180910390a15092915050565b60026020528060005260406000206000915090508060000154908060010154908060020160009054906101000a900460ff16905083565b600061080161061d565b610840576040517f08c379a000000000000000000000000000000000000000000000000000000000815260040161083790610eef565b60405180910390fd5b6108498361046c565b15610889576040517f08c379a000000000000000000000000000000000000000000000000000000000815260040161088090610eaf565b60405180910390fd5b6040518060600160405280600154815260200183815260200160011515815250600260008573ffffffffffffffffffffffffffffffffffffffff1673ffffffffffffffffffffffffffffffffffffffff168152602001908152602001600020600082015181600001556020820151816001015560408201518160020160006101000a81548160ff0219169083151502179055509050507f20837d6e0b7236235210e8dcb5168dc3712b7652ca9b5f328e9aaecdd6f386cd600154838560405161095493929190610f7c565b60405180910390a160016000815480929190600101919050555092915050565b600061097f8261046c565b6109be576040517f08c379a00000000000000000000000000000000000000000000000000000000081526004016109b590610ecf565b60405180910390fd5b6109c6610bdd565b600260008473ffffffffffffffffffffffffffffffffffffffff1673ffffffffffffffffffffffffffffffffffffffff16815260200190815260200160002060405180606001604052908160008201548152602001600182015481526020016002820160009054906101000a900460ff16151515158152505090508060000151915050919050565b60015481565b610a5c61061d565b610a9b576040517f08c379a0000000000000000000000000000000000000000000000000000000008152600401610a9290610eef565b60405180910390fd5b610aa481610aaf565b50565b600033905090565b600073ffffffffffffffffffffffffffffffffffffffff168173ffffffffffffffffffffffffffffffffffffffff161415610b1f576040517f08c379a0000000000000000000000000000000000000000000000000000000008152600401610b1690610e8f565b60405180910390fd5b8073ffffffffffffffffffffffffffffffffffffffff166000809054906101000a900473ffffffffffffffffffffffffffffffffffffffff1673ffffffffffffffffffffffffffffffffffffffff167f8be0079c531659141344cd1fd0a4f28419497f9722a3daafe3b4186f6b6457e060405160405180910390a3806000806101000a81548173ffffffffffffffffffffffffffffffffffffffff021916908373ffffffffffffffffffffffffffffffffffffffff16021790555050565b604051806060016040528060008152602001600081526020016000151581525090565b600081359050610c0f81611043565b92915050565b600081359050610c248161105a565b92915050565b600081359050610c3981611071565b92915050565b600060208284031215610c5157600080fd5b6000610c5f84828501610c00565b91505092915050565b60008060408385031215610c7b57600080fd5b6000610c8985828601610c00565b9250506020610c9a85828601610c15565b9150509250929050565b60008060408385031215610cb757600080fd5b6000610cc585828601610c00565b9250506020610cd685828601610c2a565b9150509250929050565b610ce981610ffb565b82525050565b610cf88161100d565b82525050565b6000610d0b602683610fea565b91507f4f776e61626c653a206e6577206f776e657220697320746865207a65726f206160008301527f64647265737300000000000000000000000000000000000000000000000000006020830152604082019050919050565b6000610d71601783610fea565b91507f436f6e747261746f206ac3a1207265676973747261646f0000000000000000006000830152602082019050919050565b6000610db1602283610fea565b91507f436f6e747261746f206465206e65676f63696f206e616f20726567697374726160008301527f646f0000000000000000000000000000000000000000000000000000000000006020830152604082019050919050565b6000610e17602083610fea565b91507f4f776e61626c653a2063616c6c6572206973206e6f7420746865206f776e65726000830152602082019050919050565b610e5381611039565b82525050565b6000602082019050610e6e6000830184610ce0565b92915050565b6000602082019050610e896000830184610cef565b92915050565b60006020820190508181036000830152610ea881610cfe565b9050919050565b60006020820190508181036000830152610ec881610d64565b9050919050565b60006020820190508181036000830152610ee881610da4565b9050919050565b60006020820190508181036000830152610f0881610e0a565b9050919050565b6000602082019050610f246000830184610e4a565b92915050565b6000604082019050610f3f6000830185610e4a565b610f4c6020830184610cef565b9392505050565b6000604082019050610f686000830185610e4a565b610f756020830184610e4a565b9392505050565b6000606082019050610f916000830186610e4a565b610f9e6020830185610e4a565b610fab6040830184610ce0565b949350505050565b6000606082019050610fc86000830186610e4a565b610fd56020830185610e4a565b610fe26040830184610cef565b949350505050565b600082825260208201905092915050565b600061100682611019565b9050919050565b60008115159050919050565b600073ffffffffffffffffffffffffffffffffffffffff82169050919050565b6000819050919050565b61104c81610ffb565b811461105757600080fd5b50565b6110638161100d565b811461106e57600080fd5b50565b61107a81611039565b811461108557600080fd5b5056fea365627a7a723158200cd294fdac7def058c12abf118aebf18afa884307dd32e619fb0f4c7742a5f676c6578706572696d656e74616cf564736f6c63430005100040",
  "source": "pragma solidity ^0.5.0;\npragma experimental ABIEncoderV2;\n\n\nimport \"./RBBLib.sol\";\nimport \"./RBBRegistry.sol\";\nimport \"./SpecificRBBToken.sol\";\nimport \"@openzeppelin/contracts/ownership/Ownable.sol\";\nimport \"@openzeppelin/contracts/lifecycle/Pausable.sol\";\nimport \"@openzeppelin/contracts/math/SafeMath.sol\";\n\n//todo: decidir usar id or addr para os contratos especificos\n//TODO: framework de mudanca e gestao descentralizada de mints e burns\ncontract BusinessContractRegistry is Ownable {\n\n    //It starts with 1, because 0 is the id value returned when the item is not found in the businessContractsRegistry\n    uint public idCount = 1;\n\n    struct BusinessContractInfo {\n        uint id;\n        uint ownerId;\n        bool isActive;\n    }\n\n    event BusinessContractRegistration (uint id, uint ownerId, address addr);\n    event BusinessContractStateChange (uint id, bool state);\n\n    //indexado pelo address pq serah a forma mais usada para consulta.\n    mapping (address => BusinessContractInfo) public businessContractsRegistry;\n\n    modifier onlyByRegisteredAndActiveContracts {\n        require(containsBusinessContract(msg.sender), \"Método só pode ser chamado por contrato de negócio previamente cadastrado\");\n        require(isBusinessContractActive(msg.sender), \"Método só pode ser chamado por contrato de negócio ativo\");\n        _;\n    }\n\n//TODO: adicionar como ponto positivo do contrato genérico no PPT. nao eh possivel mudar o uint do owner sem mudar o contrato\n    function registerBusinessContract (address addr, uint ownerId) public onlyOwner returns (uint)  {\n        require (!containsBusinessContract(addr), \"Contrato já registrado\");\n        businessContractsRegistry[addr] = BusinessContractInfo(idCount, ownerId, true);\n        emit BusinessContractRegistration (idCount, ownerId, addr);\n        idCount++;\n    }\n\n    function getBusinessContractId (address addr) public view returns (uint) {\n        require (containsBusinessContract(addr), \"Contrato de negocio nao registrado\");\n        BusinessContractInfo memory info = businessContractsRegistry[addr];\n        return info.id;\n    }\n\n    function getBusinessContractIdAndOwnerId (address addr) public view returns (uint, uint) {\n        require (containsBusinessContract(addr), \"Contrato de negocio nao registrado\");\n        BusinessContractInfo memory info = businessContractsRegistry[addr];\n        return (info.id, info.ownerId);\n    }\n    \n    function containsBusinessContract(address addr) public view returns (bool) {\n        BusinessContractInfo memory info = businessContractsRegistry[addr];\n        if (info.id!=0) return true;\n        else return false;\n    }\n\n    function isBusinessContractActive(address addr) public view returns (bool) {\n        require (containsBusinessContract(addr), \"Contrato de negocio nao registrado\");\n        BusinessContractInfo memory info = businessContractsRegistry[addr];\n        return info.isActive;\n    }\n\n    function setStatus(address addr, bool status) public onlyOwner returns (bool) {\n        require (containsBusinessContract(addr), \"Contrato de negocio nao registrado\");\n        BusinessContractInfo storage info = businessContractsRegistry[addr];\n        info.isActive = status;\n        emit BusinessContractStateChange(info.id, info.isActive);\n    }\n}\n\n//TODO: pensar - se precisasse fazer upgrade de um contrato, seria somente registrar um contrato com id do anterior. Criar um metodo para facilitar isso para facilitar o código de mudanças?\ncontract RBBToken is Pausable, BusinessContractRegistry {\n\n    using SafeMath for uint;\n\n    RBBRegistry public registry;\n\n    uint8 public decimals = 2;\n    bytes32 public RESERVED_HASH_VALUE = 0x0000000000000000000000000000000000000000000000000000000000000000;\n\n    //businessContractId => (RBBid => (specificHash => amount)\n    mapping (uint => mapping (uint => mapping (bytes32 => uint))) public rbbBalances;\n\n//todo: incluir parametro de data nos eventos de transfer e redeem\n    event RBBMintRequest(address businessContractAddr, uint amount);\n    event RBBTokenMint(address businessContractAddr, uint amount);\n    event RBBTokenBurn(address businessContractAddr, uint amount);\n    event RBBRedemptionRequested (address businessContractAddr, uint fromId, bytes32 fromHash, uint amount);\n\n    event RBBTokenTransfer (address businessContractAddr, uint fromId, bytes32 fromHash, uint toId,\n                            bytes32 toHash, uint amount);\n\n\n    constructor (address newRegistryAddr, uint8 _decimals) public {\n        registry = RBBRegistry(newRegistryAddr);\n        decimals = _decimals;\n    }\n\n//AVALIAR\n    function getBndesId() view public returns (uint) {\n        uint bndesId = registry.getId(owner());\n        return bndesId;\n    }\n\n///******************************************************************* */\n\n    function requestMint(uint amount) public onlyByRegisteredAndActiveContracts {\n    \n        require (amount>0, \"Valor a ser transacionado deve ser maior do que zero.\");\n        address businessContractAddr = msg.sender;\n    \n    //TODO: precisa guardar em uma estrutuda de dados?\n        emit RBBMintRequest(businessContractAddr, amount);\n\n    }\n\n    function mint(address businessContractAddr, uint amount) public onlyOwner {\n\n        require(isBusinessContractActive(businessContractAddr), \"Contrato precisa estar ativo\");\n        \n        (uint businessContractId, uint businessContractOwnerId) = \n                    getBusinessContractIdAndOwnerId(businessContractAddr);\n        \n        rbbBalances[businessContractId][businessContractOwnerId][RESERVED_HASH_VALUE] = \n            rbbBalances[businessContractId][businessContractOwnerId][RESERVED_HASH_VALUE].add(amount);\n\n        emit RBBTokenMint(businessContractAddr, amount);\n    }\n\n    function burn (address businessContractAddr, uint amount) public onlyOwner {\n\n        (uint businessContractId, uint businessContractOwnerId) = \n                    getBusinessContractIdAndOwnerId(businessContractAddr);\n//TODO: confirmar que não contrato precisa ter cadastro validado para ter esse burn\n        _burn(businessContractAddr, businessContractOwnerId, RESERVED_HASH_VALUE, amount);\n\n    }\n\n    function _burn(address businessContractAddr, uint fromId, bytes32 fromHash, uint amount) internal {\n        \n        require(isBusinessContractActive(businessContractAddr), \"Contrato precisa estar ativo para haver burn\");\n        require(amount>0, \"Valor a queimar deve ser maior do que zero\");\n        \n        uint businessContractId = getBusinessContractId(businessContractAddr);\n\n        rbbBalances[businessContractId][fromId][fromHash].sub(amount, \"Burn amount exceeds balance\");\n\n        emit RBBTokenBurn(businessContractAddr, amount);\n    }\n\n///******************************************************************* */\n\n\n//chamados de intervenção manual também seriam feitos pelo transfer, com verificação de intervencao manual\n\n//TODO: incluir hash de registro um objeto genérico para registrar informacoes\n    function transfer (address businessContractAddr, uint fromId, bytes32 fromHash, uint toId, bytes32 toHash, \n            uint amount, string[] memory data) public whenNotPaused {\n\n        require(containsBusinessContract(businessContractAddr), \"Contrato específico especificado não está registrado\");\n        require(isBusinessContractActive(businessContractAddr), \"Contrato específico não está ativo\");\n        require(registry.isValidatedId(fromId), \"Conta de origem precisa estar com cadastro validado\");\n        require(registry.isValidatedId(toId), \"Conta de destino precisa estar com cadastro validado\");\n        uint businessContractId = getBusinessContractId(businessContractAddr);\n\n        SpecificRBBToken specificContract = SpecificRBBToken(businessContractAddr);\n        specificContract.verifyAndActForTransfer(fromId, fromHash, toId, toHash, amount, data);\n\n        //altera valores de saldo\n        rbbBalances[businessContractId][fromId][fromHash] =\n                rbbBalances[businessContractId][fromId][fromHash].sub(amount, \"Saldo da origem não é suficiente para a transferência\");\n        rbbBalances[businessContractId][toId][toHash] = rbbBalances[businessContractId][toId][toHash].add(amount);\n\n        emit RBBTokenTransfer (businessContractAddr, fromId, fromHash, toId, toHash, amount);\n\n    }\n\n    function allocate (address businessContractAddr, uint toId, bytes32 toHash, uint amount, string[] memory data) public \n        whenNotPaused {\n\n            (uint businessContractId, uint businessContractOwnerId) = \n                    getBusinessContractIdAndOwnerId(businessContractAddr);\n\n            require(registry.isValidatedId(businessContractOwnerId), \"Conta do owner do contrato específico precisa estar com cadastro validado\");\n            transfer(businessContractAddr, businessContractOwnerId, RESERVED_HASH_VALUE, toId, toHash, amount, data);\n    }\n\n    function redeem (address businessContractAddr, uint fromId, bytes32 fromHash, uint amount, string[] memory data) public \n        whenNotPaused  {\n\n            (uint businessContractId, uint businessContractOwnerId) = \n                    getBusinessContractIdAndOwnerId(businessContractAddr);\n\n            require(registry.isValidatedId(businessContractOwnerId), \"Conta do owner do contrato específico precisa estar com cadastro validado\");\n\n            SpecificRBBToken specificContract = SpecificRBBToken(businessContractAddr);\n            specificContract.verifyAndActForRedeem(fromId, fromHash, amount, data);\n\n            emit RBBRedemptionRequested(businessContractAddr, fromId, fromHash, amount);\n            _burn(businessContractAddr, fromId, fromHash, amount);\n    }\n\n///******************************************************************* */\n\n\n/*    \n    function getReservedBalanceByBusinessContract(address businessContractAddr) view public returns (uint) {\n        uint businessContractId = getBusinessContractId(businessContractAddr);\n        return rbbBalances[businessContractId][RESERVED_ID_VALUE][RESERVED_HASH_VALUE];\n    }\n*/\n\n    function getDecimals() public view returns (uint8) {\n        return decimals;\n    }\n\n}",
  "sourcePath": "/Users/suzana.moreno/workspace/rbb-token/Back-Blockchain/contracts/RBBToken.sol",
  "compiler": {
    "name": "solc",
    "version": "0.5.16+commit.9c3226ce.Emscripten.clang"
  },
  "schemaVersion": "3.0.23",
  "updatedAt": "2020-09-15T18:29:38.405Z",
  "devdoc": {
    "methods": {
      "isOwner()": {
        "details": "Returns true if the caller is the current owner."
      },
      "owner()": {
        "details": "Returns the address of the current owner."
      },
      "renounceOwnership()": {
        "details": "Leaves the contract without owner. It will not be possible to call `onlyOwner` functions anymore. Can only be called by the current owner.     * NOTE: Renouncing ownership will leave the contract without an owner, thereby removing any functionality that is only available to the owner."
      },
      "transferOwnership(address)": {
        "details": "Transfers ownership of the contract to a new account (`newOwner`). Can only be called by the current owner."
      }
    }
  },
  "userdoc": {
    "methods": {}
  }
}