{
  "contractName": "BusinessContractRegistry",
  "abi": [
    {
      "anonymous": false,
      "inputs": [
        {
          "indexed": false,
          "internalType": "uint256",
          "name": "id",
          "type": "uint256"
        },
        {
          "indexed": false,
          "internalType": "uint256",
          "name": "ownerId",
          "type": "uint256"
        },
        {
          "indexed": false,
          "internalType": "address",
          "name": "addr",
          "type": "address"
        }
      ],
      "name": "BusinessContractRegistration",
      "type": "event"
    },
    {
      "anonymous": false,
      "inputs": [
        {
          "indexed": false,
          "internalType": "uint256",
          "name": "id",
          "type": "uint256"
        },
        {
          "indexed": false,
          "internalType": "bool",
          "name": "state",
          "type": "bool"
        }
      ],
      "name": "BusinessContractStateChange",
      "type": "event"
    },
    {
      "anonymous": false,
      "inputs": [
        {
          "indexed": true,
          "internalType": "address",
          "name": "previousOwner",
          "type": "address"
        },
        {
          "indexed": true,
          "internalType": "address",
          "name": "newOwner",
          "type": "address"
        }
      ],
      "name": "OwnershipTransferred",
      "type": "event"
    },
    {
      "inputs": [
        {
          "internalType": "address",
          "name": "",
          "type": "address"
        }
      ],
      "name": "businessContractsRegistry",
      "outputs": [
        {
          "internalType": "uint256",
          "name": "id",
          "type": "uint256"
        },
        {
          "internalType": "bool",
          "name": "isActive",
          "type": "bool"
        }
      ],
      "stateMutability": "view",
      "type": "function"
    },
    {
      "inputs": [],
      "name": "idCount",
      "outputs": [
        {
          "internalType": "uint256",
          "name": "",
          "type": "uint256"
        }
      ],
      "stateMutability": "view",
      "type": "function"
    },
    {
      "inputs": [],
      "name": "isOwner",
      "outputs": [
        {
          "internalType": "bool",
          "name": "",
          "type": "bool"
        }
      ],
      "stateMutability": "view",
      "type": "function"
    },
    {
      "inputs": [],
      "name": "owner",
      "outputs": [
        {
          "internalType": "address",
          "name": "",
          "type": "address"
        }
      ],
      "stateMutability": "view",
      "type": "function"
    },
    {
      "inputs": [],
      "name": "registry",
      "outputs": [
        {
          "internalType": "contract RBBRegistry",
          "name": "",
          "type": "address"
        }
      ],
      "stateMutability": "view",
      "type": "function"
    },
    {
      "inputs": [],
      "name": "renounceOwnership",
      "outputs": [],
      "stateMutability": "nonpayable",
      "type": "function"
    },
    {
      "inputs": [
        {
          "internalType": "address",
          "name": "newOwner",
          "type": "address"
        }
      ],
      "name": "transferOwnership",
      "outputs": [],
      "stateMutability": "nonpayable",
      "type": "function"
    },
    {
      "inputs": [
        {
          "internalType": "address",
          "name": "addr",
          "type": "address"
        }
      ],
      "name": "verifyContractIsRegisteredAndActive",
      "outputs": [],
      "stateMutability": "nonpayable",
      "type": "function"
    },
    {
      "inputs": [
        {
          "internalType": "address",
          "name": "businessContractAddr",
          "type": "address"
        }
      ],
      "name": "registerBusinessContract",
      "outputs": [
        {
          "internalType": "uint256",
          "name": "",
          "type": "uint256"
        }
      ],
      "stateMutability": "nonpayable",
      "type": "function"
    },
    {
      "inputs": [
        {
          "internalType": "address",
          "name": "addr",
          "type": "address"
        }
      ],
      "name": "getBusinessContractId",
      "outputs": [
        {
          "internalType": "uint256",
          "name": "",
          "type": "uint256"
        }
      ],
      "stateMutability": "view",
      "type": "function"
    },
    {
      "inputs": [
        {
          "internalType": "address",
          "name": "addr",
          "type": "address"
        }
      ],
      "name": "getBusinessContractIdAndOwnerId",
      "outputs": [
        {
          "internalType": "uint256",
          "name": "",
          "type": "uint256"
        },
        {
          "internalType": "uint256",
          "name": "",
          "type": "uint256"
        }
      ],
      "stateMutability": "view",
      "type": "function"
    },
    {
      "inputs": [
        {
          "internalType": "address",
          "name": "addr",
          "type": "address"
        }
      ],
      "name": "isBusinessContractActive",
      "outputs": [
        {
          "internalType": "bool",
          "name": "",
          "type": "bool"
        }
      ],
      "stateMutability": "view",
      "type": "function"
    },
    {
      "inputs": [
        {
          "internalType": "address",
          "name": "addr",
          "type": "address"
        },
        {
          "internalType": "bool",
          "name": "status",
          "type": "bool"
        }
      ],
      "name": "setStatus",
      "outputs": [
        {
          "internalType": "bool",
          "name": "",
          "type": "bool"
        }
      ],
      "stateMutability": "nonpayable",
      "type": "function"
    }
  ],
  "bytecode": "0x6080604052600160025534801561001557600080fd5b5060006100266100c960201b60201c565b9050806000806101000a81548173ffffffffffffffffffffffffffffffffffffffff021916908373ffffffffffffffffffffffffffffffffffffffff1602179055508073ffffffffffffffffffffffffffffffffffffffff16600073ffffffffffffffffffffffffffffffffffffffff167f8be0079c531659141344cd1fd0a4f28419497f9722a3daafe3b4186f6b6457e060405160405180910390a3506100d1565b600033905090565b6115ed806100e06000396000f3fe608060405234801561001057600080fd5b50600436106100cf5760003560e01c80638f32d59b1161008c578063d25748eb11610066578063d25748eb1461022a578063e0a08b7314610246578063e6e4623814610276578063f2fde38b14610294576100cf565b80638f32d59b146101ab578063b304f21c146101c9578063c5b2f6a9146101f9576100cf565b8063368ce3bd146100d457806353d5f7cf14610104578063715018a6146101345780637b1039991461013e5780638b214c001461015c5780638da5cb5b1461018d575b600080fd5b6100ee60048036038101906100e99190610fe6565b6102b0565b6040516100fb9190611451565b60405180910390f35b61011e60048036038101906101199190610fe6565b6105e4565b60405161012b919061135b565b60405180910390f35b61013c6106b4565b005b6101466107b9565b6040516101539190611376565b60405180910390f35b61017660048036038101906101719190610fe6565b6107df565b604051610184929190611495565b60405180910390f35b6101956109ec565b6040516101a29190611317565b60405180910390f35b6101b3610a15565b6040516101c0919061135b565b60405180910390f35b6101e360048036038101906101de9190611038565b610a73565b6040516101f0919061135b565b60405180910390f35b610213600480360381019061020e9190610fe6565b610bb8565b60405161022192919061146c565b60405180910390f35b610244600480360381019061023f9190610fe6565b610be9565b005b610260600480360381019061025b9190610fe6565b610c7c565b60405161026d9190611451565b60405180910390f35b61027e610d4c565b60405161028b9190611451565b60405180910390f35b6102ae60048036038101906102a99190610fe6565b610d52565b005b60006102ba610a15565b6102f9576040517f08c379a00000000000000000000000000000000000000000000000000000000081526004016102f0906113f1565b60405180910390fd5b61030282610da5565b15610342576040517f08c379a0000000000000000000000000000000000000000000000000000000008152600401610339906113b1565b60405180910390fd5b60008290508073ffffffffffffffffffffffffffffffffffffffff16633dfdcfab600160009054906101000a900473ffffffffffffffffffffffffffffffffffffffff16306040518363ffffffff1660e01b81526004016103a4929190611332565b600060405180830381600087803b1580156103be57600080fd5b505af11580156103d2573d6000803e3d6000fd5b5050505060008173ffffffffffffffffffffffffffffffffffffffff16638da5cb5b6040518163ffffffff1660e01b815260040160206040518083038186803b15801561041e57600080fd5b505afa158015610432573d6000803e3d6000fd5b505050506040513d601f19601f82011682018060405250810190610456919061100f565b90506000600160009054906101000a900473ffffffffffffffffffffffffffffffffffffffff1673ffffffffffffffffffffffffffffffffffffffff166365f68c89836040518263ffffffff1660e01b81526004016104b59190611317565b60206040518083038186803b1580156104cd57600080fd5b505afa1580156104e1573d6000803e3d6000fd5b505050506040513d601f19601f820116820180604052508101906105059190611074565b90506040518060400160405280600254815260200160011515815250600360008773ffffffffffffffffffffffffffffffffffffffff1673ffffffffffffffffffffffffffffffffffffffff1681526020019081526020016000206000820151816000015560208201518160010160006101000a81548160ff0219169083151502179055509050507f20837d6e0b7236235210e8dcb5168dc3712b7652ca9b5f328e9aaecdd6f386cd60025482876040516105c2939291906114be565b60405180910390a1600260008154809291906001019190505550505050919050565b60006105ef82610da5565b61062e576040517f08c379a0000000000000000000000000000000000000000000000000000000008152600401610625906113d1565b60405180910390fd5b610636610f76565b600360008473ffffffffffffffffffffffffffffffffffffffff1673ffffffffffffffffffffffffffffffffffffffff168152602001908152602001600020604051806040016040529081600082015481526020016001820160009054906101000a900460ff16151515158152505090508060200151915050919050565b6106bc610a15565b6106fb576040517f08c379a00000000000000000000000000000000000000000000000000000000081526004016106f2906113f1565b60405180910390fd5b600073ffffffffffffffffffffffffffffffffffffffff1660008054906101000a900473ffffffffffffffffffffffffffffffffffffffff1673ffffffffffffffffffffffffffffffffffffffff167f8be0079c531659141344cd1fd0a4f28419497f9722a3daafe3b4186f6b6457e060405160405180910390a360008060006101000a81548173ffffffffffffffffffffffffffffffffffffffff021916908373ffffffffffffffffffffffffffffffffffffffff160217905550565b600160009054906101000a900473ffffffffffffffffffffffffffffffffffffffff1681565b6000806107eb83610da5565b61082a576040517f08c379a0000000000000000000000000000000000000000000000000000000008152600401610821906113d1565b60405180910390fd5b610832610f76565b600360008573ffffffffffffffffffffffffffffffffffffffff1673ffffffffffffffffffffffffffffffffffffffff168152602001908152602001600020604051806040016040529081600082015481526020016001820160009054906101000a900460ff1615151515815250509050600084905060008173ffffffffffffffffffffffffffffffffffffffff16638da5cb5b6040518163ffffffff1660e01b815260040160206040518083038186803b1580156108f057600080fd5b505afa158015610904573d6000803e3d6000fd5b505050506040513d601f19601f82011682018060405250810190610928919061100f565b90506000600160009054906101000a900473ffffffffffffffffffffffffffffffffffffffff1673ffffffffffffffffffffffffffffffffffffffff166365f68c89836040518263ffffffff1660e01b81526004016109879190611317565b60206040518083038186803b15801561099f57600080fd5b505afa1580156109b3573d6000803e3d6000fd5b505050506040513d601f19601f820116820180604052508101906109d79190611074565b90508360000151819550955050505050915091565b60008060009054906101000a900473ffffffffffffffffffffffffffffffffffffffff16905090565b60008060009054906101000a900473ffffffffffffffffffffffffffffffffffffffff1673ffffffffffffffffffffffffffffffffffffffff16610a57610e41565b73ffffffffffffffffffffffffffffffffffffffff1614905090565b6000610a7d610a15565b610abc576040517f08c379a0000000000000000000000000000000000000000000000000000000008152600401610ab3906113f1565b60405180910390fd5b610ac583610da5565b610b04576040517f08c379a0000000000000000000000000000000000000000000000000000000008152600401610afb906113d1565b60405180910390fd5b6000600360008573ffffffffffffffffffffffffffffffffffffffff1673ffffffffffffffffffffffffffffffffffffffff1681526020019081526020016000209050828160010160006101000a81548160ff0219169083151502179055507f28a61818d188a7856821431ff0deb7650c2cc34ee4b7b97616a415fa0a3dfeff81600001548260010160009054906101000a900460ff16604051610ba992919061146c565b60405180910390a15092915050565b60036020528060005260406000206000915090508060000154908060010160009054906101000a900460ff16905082565b610bf281610da5565b610c31576040517f08c379a0000000000000000000000000000000000000000000000000000000008152600401610c2890611411565b60405180910390fd5b610c3a816105e4565b610c79576040517f08c379a0000000000000000000000000000000000000000000000000000000008152600401610c7090611431565b60405180910390fd5b50565b6000610c8782610da5565b610cc6576040517f08c379a0000000000000000000000000000000000000000000000000000000008152600401610cbd906113d1565b60405180910390fd5b610cce610f76565b600360008473ffffffffffffffffffffffffffffffffffffffff1673ffffffffffffffffffffffffffffffffffffffff168152602001908152602001600020604051806040016040529081600082015481526020016001820160009054906101000a900460ff16151515158152505090508060000151915050919050565b60025481565b610d5a610a15565b610d99576040517f08c379a0000000000000000000000000000000000000000000000000000000008152600401610d90906113f1565b60405180910390fd5b610da281610e49565b50565b6000610daf610f76565b600360008473ffffffffffffffffffffffffffffffffffffffff1673ffffffffffffffffffffffffffffffffffffffff168152602001908152602001600020604051806040016040529081600082015481526020016001820160009054906101000a900460ff16151515158152505090506000816000015114610e36576001915050610e3c565b60009150505b919050565b600033905090565b600073ffffffffffffffffffffffffffffffffffffffff168173ffffffffffffffffffffffffffffffffffffffff161415610eb9576040517f08c379a0000000000000000000000000000000000000000000000000000000008152600401610eb090611391565b60405180910390fd5b8073ffffffffffffffffffffffffffffffffffffffff1660008054906101000a900473ffffffffffffffffffffffffffffffffffffffff1673ffffffffffffffffffffffffffffffffffffffff167f8be0079c531659141344cd1fd0a4f28419497f9722a3daafe3b4186f6b6457e060405160405180910390a3806000806101000a81548173ffffffffffffffffffffffffffffffffffffffff021916908373ffffffffffffffffffffffffffffffffffffffff16021790555050565b6040518060400160405280600081526020016000151581525090565b600081359050610fa181611572565b92915050565b600081519050610fb681611572565b92915050565b600081359050610fcb81611589565b92915050565b600081519050610fe0816115a0565b92915050565b600060208284031215610ff857600080fd5b600061100684828501610f92565b91505092915050565b60006020828403121561102157600080fd5b600061102f84828501610fa7565b91505092915050565b6000806040838503121561104b57600080fd5b600061105985828601610f92565b925050602061106a85828601610fbc565b9150509250929050565b60006020828403121561108657600080fd5b600061109484828501610fd1565b91505092915050565b6110a681611506565b82525050565b6110b581611518565b82525050565b6110c48161154e565b82525050565b60006110d76026836114f5565b91507f4f776e61626c653a206e6577206f776e657220697320746865207a65726f206160008301527f64647265737300000000000000000000000000000000000000000000000000006020830152604082019050919050565b600061113d6017836114f5565b91507f436f6e747261746f206ac3a1207265676973747261646f0000000000000000006000830152602082019050919050565b600061117d6022836114f5565b91507f436f6e747261746f206465206e65676f63696f206e616f20726567697374726160008301527f646f0000000000000000000000000000000000000000000000000000000000006020830152604082019050919050565b60006111e36020836114f5565b91507f4f776e61626c653a2063616c6c6572206973206e6f7420746865206f776e65726000830152602082019050919050565b6000611223604c836114f5565b91507f4dc3a9746f646f2073c3b320706f646520736572206368616d61646f20706f7260008301527f20636f6e747261746f206465206e6567c3b363696f207072657669616d656e7460208301527f65206361646173747261646f00000000000000000000000000000000000000006040830152606082019050919050565b60006112af603b836114f5565b91507f4dc3a9746f646f2073c3b320706f646520736572206368616d61646f20706f7260008301527f20636f6e747261746f206465206e6567c3b363696f20617469766f00000000006020830152604082019050919050565b61131181611544565b82525050565b600060208201905061132c600083018461109d565b92915050565b6000604082019050611347600083018561109d565b611354602083018461109d565b9392505050565b600060208201905061137060008301846110ac565b92915050565b600060208201905061138b60008301846110bb565b92915050565b600060208201905081810360008301526113aa816110ca565b9050919050565b600060208201905081810360008301526113ca81611130565b9050919050565b600060208201905081810360008301526113ea81611170565b9050919050565b6000602082019050818103600083015261140a816111d6565b9050919050565b6000602082019050818103600083015261142a81611216565b9050919050565b6000602082019050818103600083015261144a816112a2565b9050919050565b60006020820190506114666000830184611308565b92915050565b60006040820190506114816000830185611308565b61148e60208301846110ac565b9392505050565b60006040820190506114aa6000830185611308565b6114b76020830184611308565b9392505050565b60006060820190506114d36000830186611308565b6114e06020830185611308565b6114ed604083018461109d565b949350505050565b600082825260208201905092915050565b600061151182611524565b9050919050565b60008115159050919050565b600073ffffffffffffffffffffffffffffffffffffffff82169050919050565b6000819050919050565b600061155982611560565b9050919050565b600061156b82611524565b9050919050565b61157b81611506565b811461158657600080fd5b50565b61159281611518565b811461159d57600080fd5b50565b6115a981611544565b81146115b457600080fd5b5056fea2646970667358221220fe98f81a6019c5b7e09731a8d29b7808bb5a364a803a1000a364c30a27d9bb7a64736f6c634300060c0033",
  "immutableReferences": {},
  "source": "pragma solidity ^0.6.0;\npragma experimental ABIEncoderV2;\n\nimport \"./RBBLib.sol\";\nimport \"./RBBRegistry.sol\";\nimport \"./SpecificRBBToken.sol\";\nimport \"@openzeppelin/contracts/ownership/Ownable.sol\";\nimport \"@openzeppelin/contracts/lifecycle/Pausable.sol\";\nimport \"@openzeppelin/contracts/math/SafeMath.sol\";\n\n//TODO: framework de mudanca e como incluir um business contract com um id específico\n//TODO: avaliar se precisa ter totalSupply de cada contrato ou outras info derivadas para aumentar programabilidade\ncontract BusinessContractRegistry is Ownable {\n\n\n    RBBRegistry public registry;\n\n    //It starts with 1, because 0 is the id value returned when the item is not found in the businessContractsRegistry\n    uint public idCount = 1;\n\n    struct BusinessContractInfo {\n        uint id;\n        bool isActive;\n    }\n\n    event BusinessContractRegistration (uint id, uint ownerId, address addr);\n    event BusinessContractStateChange (uint id, bool state);\n\n    //indexado pelo address pq serah a forma mais usada para consulta.\n    mapping (address => BusinessContractInfo) public businessContractsRegistry;\n\n    modifier onlyByRegisteredAndActiveContracts {\n        verifyContractIsRegisteredAndActive(msg.sender);\n        _;\n    }\n\n    function verifyContractIsRegisteredAndActive(address addr) public {\n        require(containsBusinessContract(addr), \"Método só pode ser chamado por contrato de negócio previamente cadastrado\");\n        require(isBusinessContractActive(addr), \"Método só pode ser chamado por contrato de negócio ativo\");\n    }\n\n    function registerBusinessContract (address businessContractAddr) public onlyOwner returns (uint)  {\n        require (!containsBusinessContract(businessContractAddr), \"Contrato já registrado\");\n\n        SpecificRBBToken specificContract = SpecificRBBToken(businessContractAddr);\n        specificContract.setInitializationDataDuringRegistration(address(registry), address(this));\n        address scOwnerAddr = specificContract.owner();\n        uint scOwnerId = registry.getId(scOwnerAddr);\n\n\n        businessContractsRegistry[businessContractAddr] = BusinessContractInfo(idCount, true);\n        emit BusinessContractRegistration (idCount, scOwnerId, businessContractAddr);\n        idCount++;\n    }\n\n    function getBusinessContractId (address addr) public view returns (uint) {\n        require (containsBusinessContract(addr), \"Contrato de negocio nao registrado\");\n        BusinessContractInfo memory info = businessContractsRegistry[addr];\n        return info.id;\n    }\n\n    function getBusinessContractIdAndOwnerId (address addr) public view returns (uint, uint) {\n        require (containsBusinessContract(addr), \"Contrato de negocio nao registrado\");\n        BusinessContractInfo memory info = businessContractsRegistry[addr];\n        SpecificRBBToken specificContract = SpecificRBBToken(addr);\n        address scOwnerAddr = specificContract.owner();\n        uint scOwnerId = registry.getId(scOwnerAddr);\n\n        return (info.id, scOwnerId);\n    }\n    \n    function containsBusinessContract(address addr) private view returns (bool) {\n        BusinessContractInfo memory info = businessContractsRegistry[addr];\n        if (info.id!=0) return true;\n        else return false;\n    }\n\n    function isBusinessContractActive(address addr) public view returns (bool) {\n        require (containsBusinessContract(addr), \"Contrato de negocio nao registrado\");\n        BusinessContractInfo memory info = businessContractsRegistry[addr];\n        return info.isActive;\n    }\n\n    function setStatus(address addr, bool status) public onlyOwner returns (bool) {\n        require (containsBusinessContract(addr), \"Contrato de negocio nao registrado\");\n        BusinessContractInfo storage info = businessContractsRegistry[addr];\n        info.isActive = status;\n        emit BusinessContractStateChange(info.id, info.isActive);\n    }\n}\n\ncontract RBBToken is Pausable, BusinessContractRegistry {\n\n    using SafeMath for uint;\n\n    uint8 public decimals = 2;\n\n    address public responsibleForInvestmentConfirmation;\n    address public responsibleForSettlement;\n\n\n    //businessContractId => (RBBid => (specificHash => amount)\n    mapping (uint => mapping (uint => mapping (bytes32 => uint))) public rbbBalances;\n\n    //businessContractId => (specificHash => amount)\n    mapping (uint => mapping (bytes32 => uint)) public balaceRequestedTokens;\n\n    event RBBTokenMintRequested(address businessContractAddr, bytes32 specificHash, uint idInvestor, \n            uint amount, bytes32 docHash);\n    event RBBTokenMint(address businessContractAddr, bytes32 specificHash, uint amount, bytes32 docHash, string[] data);\n    event RBBTokenBurn(address businessContractAddr, address originalSender, uint fromId, bytes32 fromHash, \n            uint amount, bytes32 docHash);\n    event RBBTokenTransfer (address businessContractAddr, address originalSender, uint fromId, bytes32 fromHash, uint toId,\n            bytes32 toHash, uint amount, bytes32 docHash, string[] data);\n    event RBBTokenRedemptionRequested (address businessContractAddr, address originalSender, uint fromId, bytes32 fromHash, \n            uint amount, bytes32 docHash, string[] data);\n    event RBBTokenRedemptionSettlement(address businessContractAddr, bytes32 redemptionTransactionHash, \n            bytes32 docHash, string[] data);\n\n    event ManualIntervention_RoleOrAddress(address account, uint8 eventType);\n\n\n    constructor (address newRegistryAddr, uint8 _decimals) public {\n        registry = RBBRegistry(newRegistryAddr);\n        decimals = _decimals;\n        responsibleForInvestmentConfirmation = msg.sender;\n        responsibleForSettlement = msg.sender;\n\n    }\n\n///******************************************************************* */\n\n    function requestMint(bytes32 specificInvestimentHash, uint idInvestor, uint amount, bytes32 docHash) \n        public onlyByRegisteredAndActiveContracts {\n    \n        require (amount>0, \"Valor a ser transacionado deve ser maior do que zero.\");\n        address businessContractAddr = msg.sender;\n\n        verifyContractIsRegisteredAndActive(businessContractAddr);\n        \n        uint businessContractId = getBusinessContractId(businessContractAddr);\n\n        balaceRequestedTokens[businessContractId][specificInvestimentHash] = \n            balaceRequestedTokens[businessContractId][specificInvestimentHash].add(amount);\n    \n        emit RBBTokenMintRequested(businessContractAddr, specificInvestimentHash, idInvestor, amount, docHash);\n\n    }\n\n    function mint(address businessContractAddr, bytes32 specificHash, uint amount, bytes32 docHash,\n        string[] memory data) public {\n\n        verifyContractIsRegisteredAndActive(businessContractAddr);\n\n        require (responsibleForInvestmentConfirmation == msg.sender, \n            \"Somente um responsável pela confirmação de investimento pode enviar a transação\");\n\n        require(amount>0, \"Valor a mintar deve ser maior do que zero\");\n\n        (uint businessContractId, uint businessContractOwnerId) = \n                    getBusinessContractIdAndOwnerId(businessContractAddr);\n\n        balaceRequestedTokens[businessContractId][specificHash] \n            = balaceRequestedTokens[businessContractId][specificHash].sub(amount, \"Total de emissão excede valor solicitado\");\n\n        SpecificRBBToken specificContract = SpecificRBBToken(businessContractAddr);\n        bytes32 calcHash = specificContract.getHashToMintedAccount(specificHash);\n\n        rbbBalances[businessContractId][businessContractOwnerId][calcHash] = \n            rbbBalances[businessContractId][businessContractOwnerId][calcHash].add(amount);\n\n        specificContract.verifyAndActForMint(specificHash, amount, docHash, data);\n\n        emit RBBTokenMint(businessContractAddr, specificHash, amount, docHash, data);\n    }\n\n\n    function burnOwnTokenBySpecificContracts (address originalSender, bytes32 hashToBurn, uint amount, \n        bytes32 docHash) public onlyByRegisteredAndActiveContracts {\n\n        address businessContractAddr = msg.sender;\n        (uint businessContractId, uint businessContractOwnerId) = \n                    getBusinessContractIdAndOwnerId(businessContractAddr);\n        \n        _burn(businessContractAddr, originalSender, businessContractOwnerId, hashToBurn, amount, docHash);\n\n    }\n\n\n    function burnOwnToken (address businessContractAddr, bytes32 hashToBurn, uint amount, bytes32 docHash) \n        public onlyByRegisteredAndActiveContracts {\n\n        verifyContractIsRegisteredAndActive(businessContractAddr);\n\n        uint idToBurn = registry.getId(msg.sender);\n\n        _burn(businessContractAddr, msg.sender, idToBurn, hashToBurn, amount, docHash);\n\n    }\n\n    function _burn(address businessContractAddr, address originalSender, uint fromId, bytes32 fromHash, \n        uint amount, bytes32 docHash) internal {\n        \n        verifyContractIsRegisteredAndActive(businessContractAddr);\n//        require(amount>0, \"Valor a queimar deve ser maior do que zero\");\n\n        uint businessContractId = getBusinessContractId(businessContractAddr);\n\n        rbbBalances[businessContractId][fromId][fromHash].sub(amount, \"Total de tokens a serem queimados é maior do que o balance\");\n\n        emit RBBTokenBurn(businessContractAddr, originalSender, fromId, fromHash, amount, docHash);\n    }\n\n///******************************************************************* */\n\n\n    function transfer (address businessContractAddr, bytes32 fromHash, uint toId, bytes32 toHash, \n            uint amount, bytes32 docHash, string[] memory data) public whenNotPaused {\n\n        uint fromId = registry.getId(msg.sender);\n\n        verifyContractIsRegisteredAndActive(businessContractAddr);\n\n        require(registry.isValidatedId(fromId), \"Conta de origem precisa estar com cadastro validado\");\n        require(registry.isValidatedId(toId), \"Conta de destino precisa estar com cadastro validado\");\n        uint businessContractId = getBusinessContractId(businessContractAddr);\n\n        SpecificRBBToken specificContract = SpecificRBBToken(businessContractAddr);\n        specificContract.verifyAndActForTransfer(msg.sender, fromId, fromHash, toId, toHash, amount, docHash, data);\n\n        //altera valores de saldo\n        rbbBalances[businessContractId][fromId][fromHash] =\n                rbbBalances[businessContractId][fromId][fromHash].sub(amount, \"Saldo da origem não é suficiente para a transferência\");\n        rbbBalances[businessContractId][toId][toHash] = rbbBalances[businessContractId][toId][toHash].add(amount);\n\n        emit RBBTokenTransfer (businessContractAddr, msg.sender, fromId, fromHash, toId, toHash, amount, docHash, data);\n\n    }\n\n    function redeem (address businessContractAddr, bytes32 fromHash, uint amount, \n        bytes32 docHash, string[] memory data) public whenNotPaused  {\n\n            uint fromId = registry.getId(msg.sender);\n\n            verifyContractIsRegisteredAndActive(businessContractAddr);\n            require(registry.isValidatedId(fromId), \"Conta solicitante do redeem precisa estar com cadastro validado\");\n            require(amount>0, \"Valor a resgatar deve ser maior do que zero\");\n    \n            SpecificRBBToken specificContract = SpecificRBBToken(businessContractAddr);\n            specificContract.verifyAndActForRedeem(msg.sender, fromId, fromHash, amount, docHash, data);\n\n            emit RBBTokenRedemptionRequested(businessContractAddr, msg.sender, fromId, fromHash, amount, docHash, data);\n            _burn(businessContractAddr, msg.sender, fromId, fromHash, amount, docHash);\n    }\n\n   /**\n    * Using this function, the Responsible for Settlement indicates that he has made the FIAT money transfer.\n    * @ param redemptionTransactionHash hash of the redeem transaction in which the FIAT money settlement occurred.\n    * @ param receiptHash hash that proof the FIAT money transfer\n    */ \n    function notifyRedemptionSettlement(address businessContractAddr, bytes32 redemptionTransactionHash, \n        bytes32 docHash, string[] memory data) public whenNotPaused {\n\n        verifyContractIsRegisteredAndActive(businessContractAddr);\n\n        require (responsibleForSettlement == msg.sender, \n            \"Somente um responsável pela liquidição pode enviar a transação\");\n\n\n        SpecificRBBToken specificContract = SpecificRBBToken(businessContractAddr);\n        specificContract.verifyAndActForRedemptionSettlement(redemptionTransactionHash, docHash, data);\n\n        emit RBBTokenRedemptionSettlement(businessContractAddr, redemptionTransactionHash, docHash, data);\n    }\n    \n\n///******************************************************************* */\n\n    function getDecimals() public view returns (uint8) {\n        return decimals;\n    }\n\n    function getBndesId() view public returns (uint) {\n        uint bndesId = registry.getId(owner());\n        return bndesId;\n    }\n\n    function setResponsibleForInvestmentConfirmation(address rs) onlyOwner public {\n        uint id = registry.getId(rs);\n        require(id==registry.getId(owner()), \"O responsável pela confirmação do investimento deve ser do mesmo RBB_ID do contrato\");\n        responsibleForInvestmentConfirmation = rs;\n        emit ManualIntervention_RoleOrAddress(rs, 1);\n    }\n\n    function setResponsibleForSettlement(address rs) onlyOwner public {\n        uint id = registry.getId(rs);\n        require(id==registry.getId(owner()), \"O responsável pela liquidação deve ser da mesmo RBB_ID do contrato\");\n        responsibleForSettlement = rs;\n        emit ManualIntervention_RoleOrAddress(rs, 2);\n    }\n\n\n}",
  "sourcePath": "/Users/suzana.moreno/workspace/rbb-token/Back-Blockchain/contracts/RBBToken.sol",
  "compiler": {
    "name": "solc",
    "version": "0.6.12+commit.27d51765.Emscripten.clang"
  },
  "schemaVersion": "3.2.5",
  "updatedAt": "2020-09-24T20:22:36.866Z",
  "devdoc": {
    "kind": "dev",
    "methods": {
      "isOwner()": {
        "details": "Returns true if the caller is the current owner."
      },
      "owner()": {
        "details": "Returns the address of the current owner."
      },
      "renounceOwnership()": {
        "details": "Leaves the contract without owner. It will not be possible to call `onlyOwner` functions anymore. Can only be called by the current owner. NOTE: Renouncing ownership will leave the contract without an owner, thereby removing any functionality that is only available to the owner."
      },
      "transferOwnership(address)": {
        "details": "Transfers ownership of the contract to a new account (`newOwner`). Can only be called by the current owner."
      }
    },
    "version": 1
  },
  "userdoc": {
    "kind": "user",
    "methods": {},
    "version": 1
  }
}