{
  "contractName": "BusinessContractRegistry",
  "abi": [
    {
      "anonymous": false,
      "inputs": [
        {
          "indexed": false,
          "internalType": "uint256",
          "name": "id",
          "type": "uint256"
        },
        {
          "indexed": false,
          "internalType": "uint256",
          "name": "ownerId",
          "type": "uint256"
        },
        {
          "indexed": false,
          "internalType": "address",
          "name": "addr",
          "type": "address"
        }
      ],
      "name": "BusinessContractRegistration",
      "type": "event"
    },
    {
      "anonymous": false,
      "inputs": [
        {
          "indexed": false,
          "internalType": "uint256",
          "name": "id",
          "type": "uint256"
        },
        {
          "indexed": false,
          "internalType": "bool",
          "name": "state",
          "type": "bool"
        }
      ],
      "name": "BusinessContractStateChange",
      "type": "event"
    },
    {
      "anonymous": false,
      "inputs": [
        {
          "indexed": true,
          "internalType": "address",
          "name": "previousOwner",
          "type": "address"
        },
        {
          "indexed": true,
          "internalType": "address",
          "name": "newOwner",
          "type": "address"
        }
      ],
      "name": "OwnershipTransferred",
      "type": "event"
    },
    {
      "inputs": [
        {
          "internalType": "address",
          "name": "",
          "type": "address"
        }
      ],
      "name": "businessContractsRegistry",
      "outputs": [
        {
          "internalType": "uint256",
          "name": "id",
          "type": "uint256"
        },
        {
          "internalType": "bool",
          "name": "isActive",
          "type": "bool"
        }
      ],
      "stateMutability": "view",
      "type": "function"
    },
    {
      "inputs": [],
      "name": "idCount",
      "outputs": [
        {
          "internalType": "uint256",
          "name": "",
          "type": "uint256"
        }
      ],
      "stateMutability": "view",
      "type": "function"
    },
    {
      "inputs": [],
      "name": "isOwner",
      "outputs": [
        {
          "internalType": "bool",
          "name": "",
          "type": "bool"
        }
      ],
      "stateMutability": "view",
      "type": "function"
    },
    {
      "inputs": [],
      "name": "owner",
      "outputs": [
        {
          "internalType": "address",
          "name": "",
          "type": "address"
        }
      ],
      "stateMutability": "view",
      "type": "function"
    },
    {
      "inputs": [],
      "name": "registry",
      "outputs": [
        {
          "internalType": "contract RBBRegistry",
          "name": "",
          "type": "address"
        }
      ],
      "stateMutability": "view",
      "type": "function"
    },
    {
      "inputs": [],
      "name": "renounceOwnership",
      "outputs": [],
      "stateMutability": "nonpayable",
      "type": "function"
    },
    {
      "inputs": [
        {
          "internalType": "address",
          "name": "newOwner",
          "type": "address"
        }
      ],
      "name": "transferOwnership",
      "outputs": [],
      "stateMutability": "nonpayable",
      "type": "function"
    },
    {
      "inputs": [
        {
          "internalType": "address",
          "name": "businessContractAddr",
          "type": "address"
        }
      ],
      "name": "registerBusinessContract",
      "outputs": [
        {
          "internalType": "uint256",
          "name": "",
          "type": "uint256"
        }
      ],
      "stateMutability": "nonpayable",
      "type": "function"
    },
    {
      "inputs": [
        {
          "internalType": "address",
          "name": "addr",
          "type": "address"
        }
      ],
      "name": "getBusinessContractId",
      "outputs": [
        {
          "internalType": "uint256",
          "name": "",
          "type": "uint256"
        }
      ],
      "stateMutability": "view",
      "type": "function"
    },
    {
      "inputs": [
        {
          "internalType": "address",
          "name": "addr",
          "type": "address"
        }
      ],
      "name": "getBusinessContractIdAndOwnerId",
      "outputs": [
        {
          "internalType": "uint256",
          "name": "",
          "type": "uint256"
        },
        {
          "internalType": "uint256",
          "name": "",
          "type": "uint256"
        }
      ],
      "stateMutability": "view",
      "type": "function"
    },
    {
      "inputs": [
        {
          "internalType": "address",
          "name": "addr",
          "type": "address"
        }
      ],
      "name": "containsBusinessContract",
      "outputs": [
        {
          "internalType": "bool",
          "name": "",
          "type": "bool"
        }
      ],
      "stateMutability": "view",
      "type": "function"
    },
    {
      "inputs": [
        {
          "internalType": "address",
          "name": "addr",
          "type": "address"
        }
      ],
      "name": "isBusinessContractActive",
      "outputs": [
        {
          "internalType": "bool",
          "name": "",
          "type": "bool"
        }
      ],
      "stateMutability": "view",
      "type": "function"
    },
    {
      "inputs": [
        {
          "internalType": "address",
          "name": "addr",
          "type": "address"
        },
        {
          "internalType": "bool",
          "name": "status",
          "type": "bool"
        }
      ],
      "name": "setStatus",
      "outputs": [
        {
          "internalType": "bool",
          "name": "",
          "type": "bool"
        }
      ],
      "stateMutability": "nonpayable",
      "type": "function"
    }
  ],
  "bytecode": "0x6080604052600160025534801561001557600080fd5b5060006100266100c960201b60201c565b9050806000806101000a81548173ffffffffffffffffffffffffffffffffffffffff021916908373ffffffffffffffffffffffffffffffffffffffff1602179055508073ffffffffffffffffffffffffffffffffffffffff16600073ffffffffffffffffffffffffffffffffffffffff167f8be0079c531659141344cd1fd0a4f28419497f9722a3daafe3b4186f6b6457e060405160405180910390a3506100d1565b600033905090565b61143c806100e06000396000f3fe608060405234801561001057600080fd5b50600436106100cf5760003560e01c80638da5cb5b1161008c578063c5b2f6a911610066578063c5b2f6a914610229578063e0a08b731461025a578063e6e462381461028a578063f2fde38b146102a8576100cf565b80638da5cb5b146101bd5780638f32d59b146101db578063b304f21c146101f9576100cf565b8063368ce3bd146100d457806353d5f7cf14610104578063715018a6146101345780637b1039991461013e57806388431f7a1461015c5780638b214c001461018c575b600080fd5b6100ee60048036038101906100e99190610f67565b6102c4565b6040516100fb91906112a0565b60405180910390f35b61011e60048036038101906101199190610f67565b6105f8565b60405161012b91906111ea565b60405180910390f35b61013c6106c8565b005b6101466107cd565b6040516101539190611205565b60405180910390f35b61017660048036038101906101719190610f67565b6107f3565b60405161018391906111ea565b60405180910390f35b6101a660048036038101906101a19190610f67565b61088f565b6040516101b49291906112e4565b60405180910390f35b6101c5610a9c565b6040516101d291906111a6565b60405180910390f35b6101e3610ac5565b6040516101f091906111ea565b60405180910390f35b610213600480360381019061020e9190610fb9565b610b23565b60405161022091906111ea565b60405180910390f35b610243600480360381019061023e9190610f67565b610c68565b6040516102519291906112bb565b60405180910390f35b610274600480360381019061026f9190610f67565b610c99565b60405161028191906112a0565b60405180910390f35b610292610d69565b60405161029f91906112a0565b60405180910390f35b6102c260048036038101906102bd9190610f67565b610d6f565b005b60006102ce610ac5565b61030d576040517f08c379a000000000000000000000000000000000000000000000000000000000815260040161030490611280565b60405180910390fd5b610316826107f3565b15610356576040517f08c379a000000000000000000000000000000000000000000000000000000000815260040161034d90611240565b60405180910390fd5b60008290508073ffffffffffffffffffffffffffffffffffffffff16633dfdcfab600160009054906101000a900473ffffffffffffffffffffffffffffffffffffffff16306040518363ffffffff1660e01b81526004016103b89291906111c1565b600060405180830381600087803b1580156103d257600080fd5b505af11580156103e6573d6000803e3d6000fd5b5050505060008173ffffffffffffffffffffffffffffffffffffffff16638da5cb5b6040518163ffffffff1660e01b815260040160206040518083038186803b15801561043257600080fd5b505afa158015610446573d6000803e3d6000fd5b505050506040513d601f19601f8201168201806040525081019061046a9190610f90565b90506000600160009054906101000a900473ffffffffffffffffffffffffffffffffffffffff1673ffffffffffffffffffffffffffffffffffffffff166365f68c89836040518263ffffffff1660e01b81526004016104c991906111a6565b60206040518083038186803b1580156104e157600080fd5b505afa1580156104f5573d6000803e3d6000fd5b505050506040513d601f19601f820116820180604052508101906105199190610ff5565b90506040518060400160405280600254815260200160011515815250600360008773ffffffffffffffffffffffffffffffffffffffff1673ffffffffffffffffffffffffffffffffffffffff1681526020019081526020016000206000820151816000015560208201518160010160006101000a81548160ff0219169083151502179055509050507f20837d6e0b7236235210e8dcb5168dc3712b7652ca9b5f328e9aaecdd6f386cd60025482876040516105d69392919061130d565b60405180910390a1600260008154809291906001019190505550505050919050565b6000610603826107f3565b610642576040517f08c379a000000000000000000000000000000000000000000000000000000000815260040161063990611260565b60405180910390fd5b61064a610ef7565b600360008473ffffffffffffffffffffffffffffffffffffffff1673ffffffffffffffffffffffffffffffffffffffff168152602001908152602001600020604051806040016040529081600082015481526020016001820160009054906101000a900460ff16151515158152505090508060200151915050919050565b6106d0610ac5565b61070f576040517f08c379a000000000000000000000000000000000000000000000000000000000815260040161070690611280565b60405180910390fd5b600073ffffffffffffffffffffffffffffffffffffffff1660008054906101000a900473ffffffffffffffffffffffffffffffffffffffff1673ffffffffffffffffffffffffffffffffffffffff167f8be0079c531659141344cd1fd0a4f28419497f9722a3daafe3b4186f6b6457e060405160405180910390a360008060006101000a81548173ffffffffffffffffffffffffffffffffffffffff021916908373ffffffffffffffffffffffffffffffffffffffff160217905550565b600160009054906101000a900473ffffffffffffffffffffffffffffffffffffffff1681565b60006107fd610ef7565b600360008473ffffffffffffffffffffffffffffffffffffffff1673ffffffffffffffffffffffffffffffffffffffff168152602001908152602001600020604051806040016040529081600082015481526020016001820160009054906101000a900460ff1615151515815250509050600081600001511461088457600191505061088a565b60009150505b919050565b60008061089b836107f3565b6108da576040517f08c379a00000000000000000000000000000000000000000000000000000000081526004016108d190611260565b60405180910390fd5b6108e2610ef7565b600360008573ffffffffffffffffffffffffffffffffffffffff1673ffffffffffffffffffffffffffffffffffffffff168152602001908152602001600020604051806040016040529081600082015481526020016001820160009054906101000a900460ff1615151515815250509050600084905060008173ffffffffffffffffffffffffffffffffffffffff16638da5cb5b6040518163ffffffff1660e01b815260040160206040518083038186803b1580156109a057600080fd5b505afa1580156109b4573d6000803e3d6000fd5b505050506040513d601f19601f820116820180604052508101906109d89190610f90565b90506000600160009054906101000a900473ffffffffffffffffffffffffffffffffffffffff1673ffffffffffffffffffffffffffffffffffffffff166365f68c89836040518263ffffffff1660e01b8152600401610a3791906111a6565b60206040518083038186803b158015610a4f57600080fd5b505afa158015610a63573d6000803e3d6000fd5b505050506040513d601f19601f82011682018060405250810190610a879190610ff5565b90508360000151819550955050505050915091565b60008060009054906101000a900473ffffffffffffffffffffffffffffffffffffffff16905090565b60008060009054906101000a900473ffffffffffffffffffffffffffffffffffffffff1673ffffffffffffffffffffffffffffffffffffffff16610b07610dc2565b73ffffffffffffffffffffffffffffffffffffffff1614905090565b6000610b2d610ac5565b610b6c576040517f08c379a0000000000000000000000000000000000000000000000000000000008152600401610b6390611280565b60405180910390fd5b610b75836107f3565b610bb4576040517f08c379a0000000000000000000000000000000000000000000000000000000008152600401610bab90611260565b60405180910390fd5b6000600360008573ffffffffffffffffffffffffffffffffffffffff1673ffffffffffffffffffffffffffffffffffffffff1681526020019081526020016000209050828160010160006101000a81548160ff0219169083151502179055507f28a61818d188a7856821431ff0deb7650c2cc34ee4b7b97616a415fa0a3dfeff81600001548260010160009054906101000a900460ff16604051610c599291906112bb565b60405180910390a15092915050565b60036020528060005260406000206000915090508060000154908060010160009054906101000a900460ff16905082565b6000610ca4826107f3565b610ce3576040517f08c379a0000000000000000000000000000000000000000000000000000000008152600401610cda90611260565b60405180910390fd5b610ceb610ef7565b600360008473ffffffffffffffffffffffffffffffffffffffff1673ffffffffffffffffffffffffffffffffffffffff168152602001908152602001600020604051806040016040529081600082015481526020016001820160009054906101000a900460ff16151515158152505090508060000151915050919050565b60025481565b610d77610ac5565b610db6576040517f08c379a0000000000000000000000000000000000000000000000000000000008152600401610dad90611280565b60405180910390fd5b610dbf81610dca565b50565b600033905090565b600073ffffffffffffffffffffffffffffffffffffffff168173ffffffffffffffffffffffffffffffffffffffff161415610e3a576040517f08c379a0000000000000000000000000000000000000000000000000000000008152600401610e3190611220565b60405180910390fd5b8073ffffffffffffffffffffffffffffffffffffffff1660008054906101000a900473ffffffffffffffffffffffffffffffffffffffff1673ffffffffffffffffffffffffffffffffffffffff167f8be0079c531659141344cd1fd0a4f28419497f9722a3daafe3b4186f6b6457e060405160405180910390a3806000806101000a81548173ffffffffffffffffffffffffffffffffffffffff021916908373ffffffffffffffffffffffffffffffffffffffff16021790555050565b6040518060400160405280600081526020016000151581525090565b600081359050610f22816113c1565b92915050565b600081519050610f37816113c1565b92915050565b600081359050610f4c816113d8565b92915050565b600081519050610f61816113ef565b92915050565b600060208284031215610f7957600080fd5b6000610f8784828501610f13565b91505092915050565b600060208284031215610fa257600080fd5b6000610fb084828501610f28565b91505092915050565b60008060408385031215610fcc57600080fd5b6000610fda85828601610f13565b9250506020610feb85828601610f3d565b9150509250929050565b60006020828403121561100757600080fd5b600061101584828501610f52565b91505092915050565b61102781611355565b82525050565b61103681611367565b82525050565b6110458161139d565b82525050565b6000611058602683611344565b91507f4f776e61626c653a206e6577206f776e657220697320746865207a65726f206160008301527f64647265737300000000000000000000000000000000000000000000000000006020830152604082019050919050565b60006110be601783611344565b91507f436f6e747261746f206ac3a1207265676973747261646f0000000000000000006000830152602082019050919050565b60006110fe602283611344565b91507f436f6e747261746f206465206e65676f63696f206e616f20726567697374726160008301527f646f0000000000000000000000000000000000000000000000000000000000006020830152604082019050919050565b6000611164602083611344565b91507f4f776e61626c653a2063616c6c6572206973206e6f7420746865206f776e65726000830152602082019050919050565b6111a081611393565b82525050565b60006020820190506111bb600083018461101e565b92915050565b60006040820190506111d6600083018561101e565b6111e3602083018461101e565b9392505050565b60006020820190506111ff600083018461102d565b92915050565b600060208201905061121a600083018461103c565b92915050565b600060208201905081810360008301526112398161104b565b9050919050565b60006020820190508181036000830152611259816110b1565b9050919050565b60006020820190508181036000830152611279816110f1565b9050919050565b6000602082019050818103600083015261129981611157565b9050919050565b60006020820190506112b56000830184611197565b92915050565b60006040820190506112d06000830185611197565b6112dd602083018461102d565b9392505050565b60006040820190506112f96000830185611197565b6113066020830184611197565b9392505050565b60006060820190506113226000830186611197565b61132f6020830185611197565b61133c604083018461101e565b949350505050565b600082825260208201905092915050565b600061136082611373565b9050919050565b60008115159050919050565b600073ffffffffffffffffffffffffffffffffffffffff82169050919050565b6000819050919050565b60006113a8826113af565b9050919050565b60006113ba82611373565b9050919050565b6113ca81611355565b81146113d557600080fd5b50565b6113e181611367565b81146113ec57600080fd5b50565b6113f881611393565b811461140357600080fd5b5056fea2646970667358221220d4739e71efcb40b65f48042da00e6553e60e7fda2637331b8bfb6b27a59760e164736f6c634300060c0033",
  "immutableReferences": {},
  "source": "pragma solidity ^0.6.0;\npragma experimental ABIEncoderV2;\n\n\nimport \"./RBBLib.sol\";\nimport \"./RBBRegistry.sol\";\nimport \"./SpecificRBBToken.sol\";\nimport \"@openzeppelin/contracts/ownership/Ownable.sol\";\nimport \"@openzeppelin/contracts/lifecycle/Pausable.sol\";\nimport \"@openzeppelin/contracts/math/SafeMath.sol\";\n\n//TODO: framework de mudanca e como incluir um business contract com um id específico\n//TODO: avaliar se precisa ter totalSupply de cada contrato ou outras info derivadas para aumentar programabilidade\ncontract BusinessContractRegistry is Ownable {\n\n    RBBRegistry public registry;\n\n    //It starts with 1, because 0 is the id value returned when the item is not found in the businessContractsRegistry\n    uint public idCount = 1;\n\n    struct BusinessContractInfo {\n        uint id;\n        bool isActive;\n    }\n\n    event BusinessContractRegistration (uint id, uint ownerId, address addr);\n    event BusinessContractStateChange (uint id, bool state);\n\n    //indexado pelo address pq serah a forma mais usada para consulta.\n    mapping (address => BusinessContractInfo) public businessContractsRegistry;\n\n    modifier onlyByRegisteredAndActiveContracts {\n        require(containsBusinessContract(msg.sender), \"Método só pode ser chamado por contrato de negócio previamente cadastrado\");\n        require(isBusinessContractActive(msg.sender), \"Método só pode ser chamado por contrato de negócio ativo\");\n        _;\n    }\n\n    function registerBusinessContract (address businessContractAddr) public onlyOwner returns (uint)  {\n        require (!containsBusinessContract(businessContractAddr), \"Contrato já registrado\");\n\n        SpecificRBBToken specificContract = SpecificRBBToken(businessContractAddr);\n        specificContract.setInitializationDataDuringRegistration(address(registry), address(this));\n        address scOwnerAddr = specificContract.owner();\n        uint scOwnerId = registry.getId(scOwnerAddr);\n\n\n        businessContractsRegistry[businessContractAddr] = BusinessContractInfo(idCount, true);\n        emit BusinessContractRegistration (idCount, scOwnerId, businessContractAddr);\n        idCount++;\n    }\n\n    function getBusinessContractId (address addr) public view returns (uint) {\n        require (containsBusinessContract(addr), \"Contrato de negocio nao registrado\");\n        BusinessContractInfo memory info = businessContractsRegistry[addr];\n        return info.id;\n    }\n\n    function getBusinessContractIdAndOwnerId (address addr) public view returns (uint, uint) {\n        require (containsBusinessContract(addr), \"Contrato de negocio nao registrado\");\n        BusinessContractInfo memory info = businessContractsRegistry[addr];\n        SpecificRBBToken specificContract = SpecificRBBToken(addr);\n        address scOwnerAddr = specificContract.owner();\n        uint scOwnerId = registry.getId(scOwnerAddr);\n\n        return (info.id, scOwnerId);\n    }\n    \n    function containsBusinessContract(address addr) public view returns (bool) {\n        BusinessContractInfo memory info = businessContractsRegistry[addr];\n        if (info.id!=0) return true;\n        else return false;\n    }\n\n    function isBusinessContractActive(address addr) public view returns (bool) {\n        require (containsBusinessContract(addr), \"Contrato de negocio nao registrado\");\n        BusinessContractInfo memory info = businessContractsRegistry[addr];\n        return info.isActive;\n    }\n\n    function setStatus(address addr, bool status) public onlyOwner returns (bool) {\n        require (containsBusinessContract(addr), \"Contrato de negocio nao registrado\");\n        BusinessContractInfo storage info = businessContractsRegistry[addr];\n        info.isActive = status;\n        emit BusinessContractStateChange(info.id, info.isActive);\n    }\n}\n\ncontract RBBToken is Pausable, BusinessContractRegistry {\n\n    using SafeMath for uint;\n\n    uint8 public decimals = 2;\n\n    //businessContractId => (RBBid => (specificHash => amount)\n    mapping (uint => mapping (uint => mapping (bytes32 => uint))) public rbbBalances;\n\n    //businessContractId => (specificHash => amount)\n    mapping (uint => mapping (bytes32 => uint)) public balaceRequestedTokens;\n\n    event RBBTokenMintRequest(address businessContractAddr, bytes32 specificHash, uint idInvestor, uint amount);\n    event RBBTokenMint(address businessContractAddr, bytes32 specificHash, uint amount, string docHash, string[] data);\n    event RBBTokenBurn(address businessContractAddr, uint fromId, bytes32 fromHash, uint amount);\n    event RBBTokenTransfer (address businessContractAddr, uint fromId, bytes32 fromHash, uint toId,\n                            bytes32 toHash, uint amount, string[] data);\n    event RBBTokenRedemptionRequested (address businessContractAddr, uint fromId, bytes32 fromHash, \n                            uint amount, string[] data);\n    event RBBTokenRedemptionSettlement(address businessContractAddr, string redemptionTransactionHash, \n                            string receiptHash, string[] data);\n\n\n    constructor (address newRegistryAddr, uint8 _decimals) public {\n        registry = RBBRegistry(newRegistryAddr);\n        decimals = _decimals;\n    }\n\n\n\n///******************************************************************* */\n\n//TODO: incluir novo hash aqui?\n    function requestMint(bytes32 specificHash, uint idInvestor, uint amount) public onlyByRegisteredAndActiveContracts {\n    \n        require (amount>0, \"Valor a ser transacionado deve ser maior do que zero.\");\n        address businessContractAddr = msg.sender;\n\n        require(containsBusinessContract(businessContractAddr), \"Contrato específico não está registrado\");\n        require(isBusinessContractActive(businessContractAddr), \"Contrato específico não está ativo\");\n\n        uint businessContractId = getBusinessContractId(businessContractAddr);\n\n        balaceRequestedTokens[businessContractId][specificHash] = \n            balaceRequestedTokens[businessContractId][specificHash].add(amount);\n    \n        emit RBBTokenMintRequest(businessContractAddr, specificHash, idInvestor, amount);\n\n    }\n\n    function mint(address businessContractAddr, bytes32 specificHash, uint amount, string memory docHash,\n        string[] memory data) public onlyOwner {\n\n        require(containsBusinessContract(businessContractAddr), \"Contrato específico não está registrado\");\n        require(isBusinessContractActive(businessContractAddr), \"Contrato específico não está ativo\");\n        require(amount>0, \"Valor a mintar deve ser maior do que zero\");\n\n        require (RBBLib.isValidHash(docHash), \"O hash da comprovação é inválido\");\n\n        (uint businessContractId, uint businessContractOwnerId) = \n                    getBusinessContractIdAndOwnerId(businessContractAddr);\n\n        balaceRequestedTokens[businessContractId][specificHash] \n            = balaceRequestedTokens[businessContractId][specificHash].sub(amount, \"Total de emissão excede valor solicitado\");\n\n        SpecificRBBToken specificContract = SpecificRBBToken(businessContractAddr);\n        bytes32 calcHash = specificContract.getHashToMintedAccount(specificHash);\n\n        rbbBalances[businessContractId][businessContractOwnerId][calcHash] = \n            rbbBalances[businessContractId][businessContractOwnerId][calcHash].add(amount);\n\n        specificContract.verifyAndActForMint(specificHash, amount, data, docHash);\n\n        emit RBBTokenMint(businessContractAddr, specificHash, amount, docHash, data);\n    }\n\n/*\n    function burn (address businessContractAddr, uint amount) public onlyOwner {\n\n        (uint businessContractId, uint businessContractOwnerId) = \n                    getBusinessContractIdAndOwnerId(businessContractAddr);\n        \n        _burn(businessContractAddr, businessContractOwnerId, RESERVED_HASH_VALUE, amount);\n\n    }\n*/\n\n//TODO: avaliar se qq um poderia queimar o seu dinheiro (e nao apenas contratos)\n    function burn (uint amount, bytes32 hashToBurn) public onlyByRegisteredAndActiveContracts {\n\n        address businessContractAddr = msg.sender;\n        (uint businessContractId, uint businessContractOwnerId) = \n                    getBusinessContractIdAndOwnerId(businessContractAddr);\n        \n        _burn(businessContractAddr, businessContractOwnerId, hashToBurn, amount);\n\n    }\n\n    function _burn(address businessContractAddr, uint fromId, bytes32 fromHash, uint amount) internal {\n        \n        require(containsBusinessContract(businessContractAddr), \"Contrato específico não está registrado\");\n        require(isBusinessContractActive(businessContractAddr), \"Contrato precisa estar ativo para haver burn\");\n//        require(amount>0, \"Valor a queimar deve ser maior do que zero\");\n\n        uint businessContractId = getBusinessContractId(businessContractAddr);\n\n        rbbBalances[businessContractId][fromId][fromHash].sub(amount, \"Total de tokens a serem queimados é maior do que o balance\");\n\n        emit RBBTokenBurn(businessContractAddr, fromId, fromHash, amount);\n    }\n\n///******************************************************************* */\n\n\n//TODO: incluir hash de registro um objeto genérico para registrar informacoes\n    function transfer (address businessContractAddr, bytes32 fromHash, uint toId, bytes32 toHash, \n            uint amount, string[] memory data) public whenNotPaused {\n\n        uint fromId = registry.getId(msg.sender);\n\n        require(containsBusinessContract(businessContractAddr), \"Contrato específico não está registrado\");\n        require(isBusinessContractActive(businessContractAddr), \"Contrato específico não está ativo\");\n\n        require(registry.isValidatedId(fromId), \"Conta de origem precisa estar com cadastro validado\");\n        require(registry.isValidatedId(toId), \"Conta de destino precisa estar com cadastro validado\");\n        uint businessContractId = getBusinessContractId(businessContractAddr);\n\n        SpecificRBBToken specificContract = SpecificRBBToken(businessContractAddr);\n        specificContract.verifyAndActForTransfer(fromId, fromHash, toId, toHash, amount, data);\n\n        //altera valores de saldo\n        rbbBalances[businessContractId][fromId][fromHash] =\n                rbbBalances[businessContractId][fromId][fromHash].sub(amount, \"Saldo da origem não é suficiente para a transferência\");\n        rbbBalances[businessContractId][toId][toHash] = rbbBalances[businessContractId][toId][toHash].add(amount);\n\n        emit RBBTokenTransfer (businessContractAddr, fromId, fromHash, toId, toHash, amount, data);\n\n    }\n\n    function redeem (address businessContractAddr, uint fromId, bytes32 fromHash, uint amount, string[] memory data) public \n        whenNotPaused  {\n\n            require(containsBusinessContract(businessContractAddr), \"Contrato específico não está registrado\");\n            require(isBusinessContractActive(businessContractAddr), \"Contrato precisa estar ativo para haver burn\");\n            require(registry.isValidatedId(fromId), \"Conta solicitante do redeem precisa estar com cadastro validado\");\n//        require(amount>0, \"Valor a queimar deve ser maior do que zero\");\n    \n            SpecificRBBToken specificContract = SpecificRBBToken(businessContractAddr);\n            specificContract.verifyAndActForRedeem(fromId, fromHash, amount, data);\n\n            emit RBBTokenRedemptionRequested(businessContractAddr, fromId, fromHash, amount, data);\n            _burn(businessContractAddr, fromId, fromHash, amount);\n    }\n\n   /**\n    * Using this function, the Responsible for Settlement indicates that he has made the FIAT money transfer.\n    * @ param redemptionTransactionHash hash of the redeem transaction in which the FIAT money settlement occurred.\n    * @ param receiptHash hash that proof the FIAT money transfer\n    */ \n    function notifyRedemptionSettlement(address businessContractAddr, string memory redemptionTransactionHash, \n        string memory receiptHash, string[] memory data)\n        public whenNotPaused onlyOwner {\n\n        require(containsBusinessContract(businessContractAddr), \"Contrato específico não está registrado\");\n        require(isBusinessContractActive(businessContractAddr), \"Contrato precisa estar ativo para haver burn\");\n        require (RBBLib.isValidHash(receiptHash), \"O hash da comprovação é inválido\");\n\n        SpecificRBBToken specificContract = SpecificRBBToken(businessContractAddr);\n        specificContract.verifyAndActForRedemptionSettlement(redemptionTransactionHash, receiptHash, data);\n\n        emit RBBTokenRedemptionSettlement(businessContractAddr, redemptionTransactionHash, receiptHash, data);\n    }\n    \n\n///******************************************************************* */\n\n    function getDecimals() public view returns (uint8) {\n        return decimals;\n    }\n\n/*\n    function getBndesId() view public returns (uint) {\n        uint bndesId = registry.getId(owner());\n        return bndesId;\n    }\n*/\n\n}",
  "sourcePath": "/Users/suzana.moreno/workspace/rbb-token/Back-Blockchain/contracts/RBBToken.sol",
  "compiler": {
    "name": "solc",
    "version": "0.6.12+commit.27d51765.Emscripten.clang"
  },
  "schemaVersion": "3.2.5",
  "updatedAt": "2020-09-23T22:35:07.618Z",
  "devdoc": {
    "kind": "dev",
    "methods": {
      "isOwner()": {
        "details": "Returns true if the caller is the current owner."
      },
      "owner()": {
        "details": "Returns the address of the current owner."
      },
      "renounceOwnership()": {
        "details": "Leaves the contract without owner. It will not be possible to call `onlyOwner` functions anymore. Can only be called by the current owner. NOTE: Renouncing ownership will leave the contract without an owner, thereby removing any functionality that is only available to the owner."
      },
      "transferOwnership(address)": {
        "details": "Transfers ownership of the contract to a new account (`newOwner`). Can only be called by the current owner."
      }
    },
    "version": 1
  },
  "userdoc": {
    "kind": "user",
    "methods": {},
    "version": 1
  }
}