{
  "contractName": "ESGBndesToken",
  "abi": [
    {
      "inputs": [
        {
          "internalType": "address",
          "name": "newrbbTokenAddr",
          "type": "address"
        },
        {
          "internalType": "address",
          "name": "addrBndesRoles",
          "type": "address"
        }
      ],
      "stateMutability": "nonpayable",
      "type": "constructor"
    },
    {
      "anonymous": false,
      "inputs": [
        {
          "indexed": false,
          "internalType": "uint256",
          "name": "toId",
          "type": "uint256"
        },
        {
          "indexed": false,
          "internalType": "uint256",
          "name": "amount",
          "type": "uint256"
        },
        {
          "indexed": false,
          "internalType": "bytes32",
          "name": "docHash",
          "type": "bytes32"
        }
      ],
      "name": "FA_BNDES_TokenTransfer",
      "type": "event"
    },
    {
      "anonymous": false,
      "inputs": [
        {
          "indexed": false,
          "internalType": "uint256",
          "name": "id",
          "type": "uint256"
        }
      ],
      "name": "FA_ClientAdded",
      "type": "event"
    },
    {
      "anonymous": false,
      "inputs": [
        {
          "indexed": false,
          "internalType": "uint256",
          "name": "idClient",
          "type": "uint256"
        },
        {
          "indexed": false,
          "internalType": "string",
          "name": "idFinancialSupportAgreement",
          "type": "string"
        },
        {
          "indexed": false,
          "internalType": "uint256",
          "name": "amount",
          "type": "uint256"
        },
        {
          "indexed": false,
          "internalType": "bytes32",
          "name": "docHash",
          "type": "bytes32"
        }
      ],
      "name": "FA_Disbursement",
      "type": "event"
    },
    {
      "anonymous": false,
      "inputs": [
        {
          "indexed": false,
          "internalType": "uint256",
          "name": "fromId",
          "type": "uint256"
        },
        {
          "indexed": false,
          "internalType": "bytes32",
          "name": "fromHash",
          "type": "bytes32"
        },
        {
          "indexed": false,
          "internalType": "uint256",
          "name": "toId",
          "type": "uint256"
        },
        {
          "indexed": false,
          "internalType": "bytes32",
          "name": "toHash",
          "type": "bytes32"
        },
        {
          "indexed": false,
          "internalType": "uint256",
          "name": "amount",
          "type": "uint256"
        },
        {
          "indexed": false,
          "internalType": "bytes32",
          "name": "docHash",
          "type": "bytes32"
        }
      ],
      "name": "FA_ExtraordinaryTransferAllowed",
      "type": "event"
    },
    {
      "anonymous": false,
      "inputs": [
        {
          "indexed": false,
          "internalType": "uint256",
          "name": "fromId",
          "type": "uint256"
        },
        {
          "indexed": false,
          "internalType": "bytes32",
          "name": "fromHash",
          "type": "bytes32"
        },
        {
          "indexed": false,
          "internalType": "uint256",
          "name": "toId",
          "type": "uint256"
        },
        {
          "indexed": false,
          "internalType": "bytes32",
          "name": "toHash",
          "type": "bytes32"
        },
        {
          "indexed": false,
          "internalType": "uint256",
          "name": "amount",
          "type": "uint256"
        },
        {
          "indexed": false,
          "internalType": "bytes32",
          "name": "docHash",
          "type": "bytes32"
        }
      ],
      "name": "FA_ExtraordinaryTransferExecuted",
      "type": "event"
    },
    {
      "anonymous": false,
      "inputs": [
        {
          "indexed": false,
          "internalType": "uint256",
          "name": "amount",
          "type": "uint256"
        },
        {
          "indexed": false,
          "internalType": "bytes32",
          "name": "docHash",
          "type": "bytes32"
        }
      ],
      "name": "FA_InitialAllocation_Disbursements",
      "type": "event"
    },
    {
      "anonymous": false,
      "inputs": [
        {
          "indexed": false,
          "internalType": "uint256",
          "name": "amount",
          "type": "uint256"
        },
        {
          "indexed": false,
          "internalType": "bytes32",
          "name": "docHash",
          "type": "bytes32"
        }
      ],
      "name": "FA_InitialAllocation_Fee",
      "type": "event"
    },
    {
      "anonymous": false,
      "inputs": [
        {
          "indexed": false,
          "internalType": "uint256",
          "name": "idInvestor",
          "type": "uint256"
        },
        {
          "indexed": false,
          "internalType": "uint256",
          "name": "amount",
          "type": "uint256"
        },
        {
          "indexed": false,
          "internalType": "bytes32",
          "name": "docHash",
          "type": "bytes32"
        }
      ],
      "name": "FA_InvestmentBooked",
      "type": "event"
    },
    {
      "anonymous": false,
      "inputs": [
        {
          "indexed": false,
          "internalType": "uint256",
          "name": "idInvestor",
          "type": "uint256"
        },
        {
          "indexed": false,
          "internalType": "uint256",
          "name": "amount",
          "type": "uint256"
        },
        {
          "indexed": false,
          "internalType": "bytes32",
          "name": "docHash",
          "type": "bytes32"
        }
      ],
      "name": "FA_InvestmentConfirmed",
      "type": "event"
    },
    {
      "anonymous": false,
      "inputs": [
        {
          "indexed": false,
          "internalType": "uint256",
          "name": "id",
          "type": "uint256"
        }
      ],
      "name": "FA_InvestorAdded",
      "type": "event"
    },
    {
      "anonymous": false,
      "inputs": [
        {
          "indexed": false,
          "internalType": "uint256",
          "name": "idClaimer",
          "type": "uint256"
        },
        {
          "indexed": false,
          "internalType": "uint256",
          "name": "amount",
          "type": "uint256"
        },
        {
          "indexed": false,
          "internalType": "bytes32",
          "name": "docHash",
          "type": "bytes32"
        }
      ],
      "name": "FA_RedemptionRequested",
      "type": "event"
    },
    {
      "anonymous": false,
      "inputs": [
        {
          "indexed": false,
          "internalType": "bytes32",
          "name": "redemptionTransactionHash",
          "type": "bytes32"
        },
        {
          "indexed": false,
          "internalType": "bytes32",
          "name": "docHash",
          "type": "bytes32"
        }
      ],
      "name": "FA_RedemptionSettlement",
      "type": "event"
    },
    {
      "anonymous": false,
      "inputs": [
        {
          "indexed": false,
          "internalType": "uint256",
          "name": "registeredBy",
          "type": "uint256"
        },
        {
          "indexed": false,
          "internalType": "uint256",
          "name": "id",
          "type": "uint256"
        }
      ],
      "name": "FA_SupplierAdded",
      "type": "event"
    },
    {
      "anonymous": false,
      "inputs": [
        {
          "indexed": false,
          "internalType": "uint256",
          "name": "fromId",
          "type": "uint256"
        },
        {
          "indexed": false,
          "internalType": "string",
          "name": "fromIdFinancialSupportAgreement",
          "type": "string"
        },
        {
          "indexed": false,
          "internalType": "uint256",
          "name": "toId",
          "type": "uint256"
        },
        {
          "indexed": false,
          "internalType": "uint256",
          "name": "amount",
          "type": "uint256"
        },
        {
          "indexed": false,
          "internalType": "bytes32",
          "name": "docHash",
          "type": "bytes32"
        }
      ],
      "name": "FA_TokenTransfer",
      "type": "event"
    },
    {
      "anonymous": false,
      "inputs": [
        {
          "indexed": true,
          "internalType": "address",
          "name": "previousOwner",
          "type": "address"
        },
        {
          "indexed": true,
          "internalType": "address",
          "name": "newOwner",
          "type": "address"
        }
      ],
      "name": "OwnershipTransferred",
      "type": "event"
    },
    {
      "anonymous": false,
      "inputs": [
        {
          "indexed": false,
          "internalType": "address",
          "name": "account",
          "type": "address"
        }
      ],
      "name": "Paused",
      "type": "event"
    },
    {
      "anonymous": false,
      "inputs": [
        {
          "indexed": true,
          "internalType": "address",
          "name": "account",
          "type": "address"
        }
      ],
      "name": "PauserAdded",
      "type": "event"
    },
    {
      "anonymous": false,
      "inputs": [
        {
          "indexed": true,
          "internalType": "address",
          "name": "account",
          "type": "address"
        }
      ],
      "name": "PauserRemoved",
      "type": "event"
    },
    {
      "anonymous": false,
      "inputs": [
        {
          "indexed": false,
          "internalType": "address",
          "name": "account",
          "type": "address"
        }
      ],
      "name": "Unpaused",
      "type": "event"
    },
    {
      "inputs": [],
      "name": "BNDES_PAY_SUPPLIER_VERIFICATION",
      "outputs": [
        {
          "internalType": "string",
          "name": "",
          "type": "string"
        }
      ],
      "stateMutability": "view",
      "type": "function"
    },
    {
      "inputs": [],
      "name": "CLIENT_PAY_SUPPLIER_VERIFICATION",
      "outputs": [
        {
          "internalType": "string",
          "name": "",
          "type": "string"
        }
      ],
      "stateMutability": "view",
      "type": "function"
    },
    {
      "inputs": [],
      "name": "DISBURSEMENT_VERIFICATION",
      "outputs": [
        {
          "internalType": "string",
          "name": "",
          "type": "string"
        }
      ],
      "stateMutability": "view",
      "type": "function"
    },
    {
      "inputs": [],
      "name": "EXTRAORDINARY_TRANSFERS",
      "outputs": [
        {
          "internalType": "string",
          "name": "",
          "type": "string"
        }
      ],
      "stateMutability": "view",
      "type": "function"
    },
    {
      "inputs": [],
      "name": "INITIAL_ALLOCATION",
      "outputs": [
        {
          "internalType": "string",
          "name": "",
          "type": "string"
        }
      ],
      "stateMutability": "view",
      "type": "function"
    },
    {
      "inputs": [],
      "name": "RESERVED_BNDES_ADMIN_FEE_TO_HASH",
      "outputs": [
        {
          "internalType": "uint8",
          "name": "",
          "type": "uint8"
        }
      ],
      "stateMutability": "view",
      "type": "function"
    },
    {
      "inputs": [],
      "name": "RESERVED_MINTED_ACCOUNT",
      "outputs": [
        {
          "internalType": "uint8",
          "name": "",
          "type": "uint8"
        }
      ],
      "stateMutability": "view",
      "type": "function"
    },
    {
      "inputs": [],
      "name": "RESERVED_NO_ADDITIONAL_FIELDS_TO_DIFF_MONEY",
      "outputs": [
        {
          "internalType": "uint8",
          "name": "",
          "type": "uint8"
        }
      ],
      "stateMutability": "view",
      "type": "function"
    },
    {
      "inputs": [],
      "name": "RESERVED_NO_ADDITIONAL_FIELDS_TO_INVESTOR",
      "outputs": [
        {
          "internalType": "uint8",
          "name": "",
          "type": "uint8"
        }
      ],
      "stateMutability": "view",
      "type": "function"
    },
    {
      "inputs": [],
      "name": "RESERVED_NO_ADDITIONAL_FIELDS_TO_SUPPLIER",
      "outputs": [
        {
          "internalType": "uint8",
          "name": "",
          "type": "uint8"
        }
      ],
      "stateMutability": "view",
      "type": "function"
    },
    {
      "inputs": [],
      "name": "RESERVED_USUAL_DISBURSEMENTS_ACCOUNT",
      "outputs": [
        {
          "internalType": "uint8",
          "name": "",
          "type": "uint8"
        }
      ],
      "stateMutability": "view",
      "type": "function"
    },
    {
      "inputs": [
        {
          "internalType": "address",
          "name": "account",
          "type": "address"
        }
      ],
      "name": "addPauser",
      "outputs": [],
      "stateMutability": "nonpayable",
      "type": "function"
    },
    {
      "inputs": [],
      "name": "bndesRoles",
      "outputs": [
        {
          "internalType": "contract ESGBndesToken_BNDESRoles",
          "name": "",
          "type": "address"
        }
      ],
      "stateMutability": "view",
      "type": "function"
    },
    {
      "inputs": [
        {
          "internalType": "uint256",
          "name": "",
          "type": "uint256"
        },
        {
          "internalType": "string",
          "name": "",
          "type": "string"
        }
      ],
      "name": "clients",
      "outputs": [
        {
          "internalType": "bool",
          "name": "",
          "type": "bool"
        }
      ],
      "stateMutability": "view",
      "type": "function"
    },
    {
      "inputs": [
        {
          "internalType": "uint256",
          "name": "",
          "type": "uint256"
        }
      ],
      "name": "hashApprovedExtraordinaryTransfers",
      "outputs": [
        {
          "internalType": "bytes32",
          "name": "",
          "type": "bytes32"
        }
      ],
      "stateMutability": "view",
      "type": "function"
    },
    {
      "inputs": [
        {
          "internalType": "bytes32",
          "name": "",
          "type": "bytes32"
        }
      ],
      "name": "hashToIdFinancialSupportAgreement",
      "outputs": [
        {
          "internalType": "string",
          "name": "",
          "type": "string"
        }
      ],
      "stateMutability": "view",
      "type": "function"
    },
    {
      "inputs": [
        {
          "internalType": "uint256",
          "name": "",
          "type": "uint256"
        }
      ],
      "name": "investors",
      "outputs": [
        {
          "internalType": "bool",
          "name": "",
          "type": "bool"
        }
      ],
      "stateMutability": "view",
      "type": "function"
    },
    {
      "inputs": [],
      "name": "isOwner",
      "outputs": [
        {
          "internalType": "bool",
          "name": "",
          "type": "bool"
        }
      ],
      "stateMutability": "view",
      "type": "function"
    },
    {
      "inputs": [
        {
          "internalType": "address",
          "name": "account",
          "type": "address"
        }
      ],
      "name": "isPauser",
      "outputs": [
        {
          "internalType": "bool",
          "name": "",
          "type": "bool"
        }
      ],
      "stateMutability": "view",
      "type": "function"
    },
    {
      "inputs": [],
      "name": "owner",
      "outputs": [
        {
          "internalType": "address",
          "name": "",
          "type": "address"
        }
      ],
      "stateMutability": "view",
      "type": "function"
    },
    {
      "inputs": [],
      "name": "pause",
      "outputs": [],
      "stateMutability": "nonpayable",
      "type": "function"
    },
    {
      "inputs": [],
      "name": "paused",
      "outputs": [
        {
          "internalType": "bool",
          "name": "",
          "type": "bool"
        }
      ],
      "stateMutability": "view",
      "type": "function"
    },
    {
      "inputs": [],
      "name": "rbbToken",
      "outputs": [
        {
          "internalType": "contract RBBToken",
          "name": "",
          "type": "address"
        }
      ],
      "stateMutability": "view",
      "type": "function"
    },
    {
      "inputs": [],
      "name": "registry",
      "outputs": [
        {
          "internalType": "contract RBBRegistry",
          "name": "",
          "type": "address"
        }
      ],
      "stateMutability": "view",
      "type": "function"
    },
    {
      "inputs": [],
      "name": "renounceOwnership",
      "outputs": [],
      "stateMutability": "nonpayable",
      "type": "function"
    },
    {
      "inputs": [],
      "name": "renouncePauser",
      "outputs": [],
      "stateMutability": "nonpayable",
      "type": "function"
    },
    {
      "inputs": [
        {
          "internalType": "address",
          "name": "newRegistryAddr",
          "type": "address"
        }
      ],
      "name": "setInitializationDataDuringRegistration",
      "outputs": [],
      "stateMutability": "nonpayable",
      "type": "function"
    },
    {
      "inputs": [
        {
          "internalType": "uint256",
          "name": "",
          "type": "uint256"
        }
      ],
      "name": "suppliers",
      "outputs": [
        {
          "internalType": "bool",
          "name": "",
          "type": "bool"
        }
      ],
      "stateMutability": "view",
      "type": "function"
    },
    {
      "inputs": [
        {
          "internalType": "address",
          "name": "newOwner",
          "type": "address"
        }
      ],
      "name": "transferOwnership",
      "outputs": [],
      "stateMutability": "nonpayable",
      "type": "function"
    },
    {
      "inputs": [],
      "name": "unpause",
      "outputs": [],
      "stateMutability": "nonpayable",
      "type": "function"
    },
    {
      "inputs": [
        {
          "internalType": "uint256",
          "name": "amount",
          "type": "uint256"
        },
        {
          "internalType": "bytes32",
          "name": "docHash",
          "type": "bytes32"
        }
      ],
      "name": "bookInvestment",
      "outputs": [],
      "stateMutability": "nonpayable",
      "type": "function"
    },
    {
      "inputs": [
        {
          "internalType": "uint256",
          "name": "idInvestor",
          "type": "uint256"
        },
        {
          "internalType": "bytes32",
          "name": "specificHash",
          "type": "bytes32"
        },
        {
          "internalType": "uint256",
          "name": "amount",
          "type": "uint256"
        },
        {
          "internalType": "bytes32",
          "name": "docHash",
          "type": "bytes32"
        },
        {
          "internalType": "string[]",
          "name": "data",
          "type": "string[]"
        }
      ],
      "name": "verifyAndActForMint",
      "outputs": [],
      "stateMutability": "nonpayable",
      "type": "function"
    },
    {
      "inputs": [
        {
          "internalType": "bytes32",
          "name": "specificHash",
          "type": "bytes32"
        }
      ],
      "name": "getHashToMintedAccount",
      "outputs": [
        {
          "internalType": "bytes32",
          "name": "",
          "type": "bytes32"
        }
      ],
      "stateMutability": "nonpayable",
      "type": "function"
    },
    {
      "inputs": [
        {
          "internalType": "address",
          "name": "originalSender",
          "type": "address"
        },
        {
          "internalType": "uint256",
          "name": "fromId",
          "type": "uint256"
        },
        {
          "internalType": "bytes32",
          "name": "fromHash",
          "type": "bytes32"
        },
        {
          "internalType": "uint256",
          "name": "toId",
          "type": "uint256"
        },
        {
          "internalType": "bytes32",
          "name": "toHash",
          "type": "bytes32"
        },
        {
          "internalType": "uint256",
          "name": "amount",
          "type": "uint256"
        },
        {
          "internalType": "bytes32",
          "name": "docHash",
          "type": "bytes32"
        },
        {
          "internalType": "string[]",
          "name": "data",
          "type": "string[]"
        }
      ],
      "name": "verifyAndActForTransfer",
      "outputs": [],
      "stateMutability": "nonpayable",
      "type": "function"
    },
    {
      "inputs": [
        {
          "internalType": "address",
          "name": "originalSender",
          "type": "address"
        },
        {
          "internalType": "uint256",
          "name": "fromId",
          "type": "uint256"
        },
        {
          "internalType": "bytes32",
          "name": "fromHash",
          "type": "bytes32"
        },
        {
          "internalType": "uint256",
          "name": "amount",
          "type": "uint256"
        },
        {
          "internalType": "bytes32",
          "name": "docHash",
          "type": "bytes32"
        },
        {
          "internalType": "string[]",
          "name": "data",
          "type": "string[]"
        }
      ],
      "name": "verifyAndActForRedeem",
      "outputs": [],
      "stateMutability": "nonpayable",
      "type": "function"
    },
    {
      "inputs": [
        {
          "internalType": "bytes32",
          "name": "redemptionTransactionHash",
          "type": "bytes32"
        },
        {
          "internalType": "bytes32",
          "name": "docHash",
          "type": "bytes32"
        },
        {
          "internalType": "string[]",
          "name": "data",
          "type": "string[]"
        }
      ],
      "name": "verifyAndActForRedemptionSettlement",
      "outputs": [],
      "stateMutability": "nonpayable",
      "type": "function"
    },
    {
      "inputs": [
        {
          "internalType": "uint256",
          "name": "info",
          "type": "uint256"
        }
      ],
      "name": "getCalculatedHash",
      "outputs": [
        {
          "internalType": "bytes32",
          "name": "",
          "type": "bytes32"
        }
      ],
      "stateMutability": "pure",
      "type": "function"
    },
    {
      "inputs": [
        {
          "internalType": "string",
          "name": "info",
          "type": "string"
        }
      ],
      "name": "getCalculatedHash",
      "outputs": [
        {
          "internalType": "bytes32",
          "name": "",
          "type": "bytes32"
        }
      ],
      "stateMutability": "pure",
      "type": "function"
    },
    {
      "inputs": [
        {
          "internalType": "uint256",
          "name": "fromId",
          "type": "uint256"
        },
        {
          "internalType": "bytes32",
          "name": "fromHash",
          "type": "bytes32"
        },
        {
          "internalType": "uint256",
          "name": "toId",
          "type": "uint256"
        },
        {
          "internalType": "bytes32",
          "name": "toHash",
          "type": "bytes32"
        },
        {
          "internalType": "uint256",
          "name": "amount",
          "type": "uint256"
        },
        {
          "internalType": "bytes32",
          "name": "docHash",
          "type": "bytes32"
        }
      ],
      "name": "authorizeExtraordinaryTransfer",
      "outputs": [],
      "stateMutability": "nonpayable",
      "type": "function"
    },
    {
      "inputs": [
        {
          "internalType": "uint256",
          "name": "idInvestor",
          "type": "uint256"
        }
      ],
      "name": "addInvestor",
      "outputs": [],
      "stateMutability": "nonpayable",
      "type": "function"
    }
  ],
  "bytecode": "0x60806040526040518060400160405280601281526020017f494e495449414c5f414c4c4f434154494f4e0000000000000000000000000000815250600a908051906020019062000051929190620005c1565b506040518060400160405280601981526020017f44495342555253454d454e545f564552494649434154494f4e00000000000000815250600b90805190602001906200009f929190620005c1565b506040518060400160405280602081526020017f434c49454e545f5041595f535550504c4945525f564552494649434154494f4e815250600c9080519060200190620000ed929190620005c1565b506040518060400160405280601f81526020017f424e4445535f5041595f535550504c4945525f564552494649434154494f4e00815250600d90805190602001906200013b929190620005c1565b506040518060400160405280601781526020017f45585452414f5244494e4152595f5452414e5346455253000000000000000000815250600e908051906020019062000189929190620005c1565b506000600f60006101000a81548160ff021916908360ff1602179055506001600f60016101000a81548160ff021916908360ff1602179055506002600f60026101000a81548160ff021916908360ff160217905550600a600f60036101000a81548160ff021916908360ff1602179055506014600f60046101000a81548160ff021916908360ff160217905550601e600f60056101000a81548160ff021916908360ff1602179055503480156200023f57600080fd5b50604051620065793803806200657983398181016040528101906200026591906200067e565b600062000277620003da60201b60201c565b9050806000806101000a81548173ffffffffffffffffffffffffffffffffffffffff021916908373ffffffffffffffffffffffffffffffffffffffff1602179055508073ffffffffffffffffffffffffffffffffffffffff16600073ffffffffffffffffffffffffffffffffffffffff167f8be0079c531659141344cd1fd0a4f28419497f9722a3daafe3b4186f6b6457e060405160405180910390a3506200033562000329620003da60201b60201c565b620003e260201b60201c565b6000600260006101000a81548160ff02191690831515021790555081600360006101000a81548173ffffffffffffffffffffffffffffffffffffffff021916908373ffffffffffffffffffffffffffffffffffffffff16021790555080600460006101000a81548173ffffffffffffffffffffffffffffffffffffffff021916908373ffffffffffffffffffffffffffffffffffffffff16021790555050506200080c565b600033905090565b620003fd8160016200044360201b620021f91790919060201c565b8073ffffffffffffffffffffffffffffffffffffffff167f6719d08c1888103bea251a4ed56406bd0c3e69723c8a1686e017e7bbe159b6f860405160405180910390a250565b620004558282620004f660201b60201c565b1562000498576040517f08c379a00000000000000000000000000000000000000000000000000000000081526004016200048f9062000769565b60405180910390fd5b60018260000160008373ffffffffffffffffffffffffffffffffffffffff1673ffffffffffffffffffffffffffffffffffffffff16815260200190815260200160002060006101000a81548160ff0219169083151502179055505050565b60008073ffffffffffffffffffffffffffffffffffffffff168273ffffffffffffffffffffffffffffffffffffffff1614156200056a576040517f08c379a000000000000000000000000000000000000000000000000000000000815260040162000561906200078b565b60405180910390fd5b8260000160008373ffffffffffffffffffffffffffffffffffffffff1673ffffffffffffffffffffffffffffffffffffffff16815260200190815260200160002060009054906101000a900460ff16905092915050565b828054600181600116156101000203166002900490600052602060002090601f016020900481019282601f106200060457805160ff191683800117855562000635565b8280016001018555821562000635579182015b828111156200063457825182559160200191906001019062000617565b5b50905062000644919062000648565b5090565b5b808211156200066357600081600090555060010162000649565b5090565b6000815190506200067881620007f2565b92915050565b600080604083850312156200069257600080fd5b6000620006a28582860162000667565b9250506020620006b58582860162000667565b9150509250929050565b6000620006ce601f83620007ad565b91507f526f6c65733a206163636f756e7420616c72656164792068617320726f6c65006000830152602082019050919050565b600062000710602283620007ad565b91507f526f6c65733a206163636f756e7420697320746865207a65726f20616464726560008301527f73730000000000000000000000000000000000000000000000000000000000006020830152604082019050919050565b600060208201905081810360008301526200078481620006bf565b9050919050565b60006020820190508181036000830152620007a68162000701565b9050919050565b600082825260208201905092915050565b6000620007cb82620007d2565b9050919050565b600073ffffffffffffffffffffffffffffffffffffffff82169050919050565b620007fd81620007be565b81146200080957600080fd5b50565b615d5d806200081c6000396000f3fe608060405234801561001057600080fd5b50600436106102485760003560e01c80638404e6e01161013b578063cc70091a116100b8578063e04e624b1161007c578063e04e624b14610683578063e4c7426f146106b3578063f2fde38b146106d1578063fa7ca7ea146106ed578063fc4b505d1461071d57610248565b8063cc70091a146105a5578063cd541b7a146105d5578063cea2312114610605578063daeb1cc914610635578063df8d2abf1461066557610248565b8063942429e4116100ff578063942429e4146105015780639eed3ad914610531578063a6ee26e11461054f578063b201a7771461056b578063ba6ad8531461058957610248565b80638404e6e01461047f5780638456cb591461049d5780638da5cb5b146104a75780638e669481146104c55780638f32d59b146104e357610248565b80635a961b15116101c95780636f3050671161018d5780636f30506714610401578063715018a61461041f5780637b103999146104295780637ebf68301461044757806382dc1ec41461046357610248565b80635a961b15146103815780635c975abb1461039f5780635f23e09e146103bd57806367da3e85146103d95780636ef8d66d146103f757610248565b80633f4ba83a116102105780633f4ba83a146102df5780633feb5f2b146102e957806341574b3b1461031957806346fbf68e1461033557806355a2456e1461036557610248565b80630715aa6e1461024d57806307728f0f1461026b5780630990da73146102895780632133ca90146102a557806324547b8a146102c1575b600080fd5b61025561073b565b6040516102629190615a7a565b60405180910390f35b61027361074e565b6040516102809190615416565b60405180910390f35b6102a3600480360381019061029e9190613fbf565b6107ec565b005b6102bf60048036038101906102ba9190613f83565b6109ca565b005b6102c9610c1c565b6040516102d69190615a7a565b60405180910390f35b6102e7610c2f565b005b61030360048036038101906102fe9190613f31565b610d28565b6040516103109190615321565b60405180910390f35b610333600480360381019061032e9190613d6d565b610d48565b005b61034f600480360381019061034a9190613c7a565b611209565b60405161035c9190615321565b60405180910390f35b61037f600480360381019061037a9190613c7a565b611226565b005b61038961126a565b6040516103969190615416565b60405180910390f35b6103a7611308565b6040516103b49190615321565b60405180910390f35b6103d760048036038101906103d2919061404e565b61131f565b005b6103e1611564565b6040516103ee9190615416565b60405180910390f35b6103ff611602565b005b610409611614565b6040516104169190615a7a565b60405180910390f35b610427611627565b005b61043161172c565b60405161043e91906153e0565b60405180910390f35b610461600480360381019061045c9190613f31565b611752565b005b61047d60048036038101906104789190613c7a565b61190f565b005b61048761196a565b6040516104949190615a7a565b60405180910390f35b6104a561197d565b005b6104af611a77565b6040516104bc91906152eb565b60405180910390f35b6104cd611aa0565b6040516104da9190615416565b60405180910390f35b6104eb611b3e565b6040516104f89190615321565b60405180910390f35b61051b60048036038101906105169190613f31565b611b9c565b604051610528919061533c565b60405180910390f35b610539611bcc565b6040516105469190615a7a565b60405180910390f35b61056960048036038101906105649190613e89565b611bdf565b005b610573611cfd565b6040516105809190615a7a565b60405180910390f35b6105a3600480360381019061059e9190613ccc565b611d10565b005b6105bf60048036038101906105ba9190613ef0565b611f32565b6040516105cc919061533c565b60405180910390f35b6105ef60048036038101906105ea9190613e60565b611f62565b6040516105fc919061533c565b60405180910390f35b61061f600480360381019061061a9190613f31565b611f86565b60405161062c9190615321565b60405180910390f35b61064f600480360381019061064a91906140d7565b611fa6565b60405161065c9190615321565b60405180910390f35b61066d611feb565b60405161067a91906153c5565b60405180910390f35b61069d60048036038101906106989190613e60565b612011565b6040516106aa9190615416565b60405180910390f35b6106bb6120c1565b6040516106c891906153fb565b60405180910390f35b6106eb60048036038101906106e69190613c7a565b6120e7565b005b61070760048036038101906107029190613f31565b61213a565b604051610714919061533c565b60405180910390f35b61072561215b565b6040516107329190615416565b60405180910390f35b600f60009054906101000a900460ff1681565b600a8054600181600116156101000203166002900480601f0160208091040260200160405190810160405280929190818152602001828054600181600116156101000203166002900480156107e45780601f106107b9576101008083540402835291602001916107e4565b820191906000526020600020905b8154815290600101906020018083116107c757829003601f168201915b505050505081565b600260009054906101000a900460ff161561083c576040517f08c379a00000000000000000000000000000000000000000000000000000000081526004016108339061562f565b60405180910390fd5b600360009054906101000a900473ffffffffffffffffffffffffffffffffffffffff1673ffffffffffffffffffffffffffffffffffffffff163373ffffffffffffffffffffffffffffffffffffffff16146108cc576040517f08c379a00000000000000000000000000000000000000000000000000000000081526004016108c39061586f565b60405180910390fd5b836108e8600f60059054906101000a900460ff1660ff16611b9c565b14610928576040517f08c379a000000000000000000000000000000000000000000000000000000000815260040161091f906156ef565b60405180910390fd5b6005600086815260200190815260200160002060009054906101000a900460ff16610988576040517f08c379a000000000000000000000000000000000000000000000000000000000815260040161097f9061578f565b60405180910390fd5b7fadbb44b3990a5ee272d4d16d6e02c412384a9fa9fb98c2c95d6baa4b009419838584846040516109bb93929190615a43565b60405180910390a15050505050565b600260009054906101000a900460ff1615610a1a576040517f08c379a0000000000000000000000000000000000000000000000000000000008152600401610a119061562f565b60405180910390fd5b6000600260019054906101000a900473ffffffffffffffffffffffffffffffffffffffff1673ffffffffffffffffffffffffffffffffffffffff166365f68c89336040518263ffffffff1660e01b8152600401610a779190615306565b60206040518083038186803b158015610a8f57600080fd5b505afa158015610aa3573d6000803e3d6000fd5b505050506040513d601f19601f82011682018060405250810190610ac79190613f5a565b90506005600082815260200190815260200160002060009054906101000a900460ff16610b29576040517f08c379a0000000000000000000000000000000000000000000000000000000008152600401610b209061588f565b60405180910390fd5b6000610b46600f60059054906101000a900460ff1660ff16611b9c565b9050600360009054906101000a900473ffffffffffffffffffffffffffffffffffffffff1673ffffffffffffffffffffffffffffffffffffffff166304cc4d8e828487876040518563ffffffff1660e01b8152600401610ba99493929190615380565b600060405180830381600087803b158015610bc357600080fd5b505af1158015610bd7573d6000803e3d6000fd5b505050507f32f1e22a0e84584b50065d5a6100cf373d794ef3c7cab1497e8259a77d2a0380828585604051610c0e93929190615a43565b60405180910390a150505050565b600f60019054906101000a900460ff1681565b610c3f610c3a6122a1565b611209565b610c7e576040517f08c379a0000000000000000000000000000000000000000000000000000000008152600401610c75906154ef565b60405180910390fd5b600260009054906101000a900460ff16610ccd576040517f08c379a0000000000000000000000000000000000000000000000000000000008152600401610cc49061546f565b60405180910390fd5b6000600260006101000a81548160ff0219169083151502179055507f5db9ee0a495bf2e6ff9c91a7834c1ba4fdd244a5e8aa4e537bd38aeae4b073aa610d116122a1565b604051610d1e9190615306565b60405180910390a1565b60056020528060005260406000206000915054906101000a900460ff1681565b600260009054906101000a900460ff1615610d98576040517f08c379a0000000000000000000000000000000000000000000000000000000008152600401610d8f9061562f565b60405180910390fd5b600360009054906101000a900473ffffffffffffffffffffffffffffffffffffffff1673ffffffffffffffffffffffffffffffffffffffff163373ffffffffffffffffffffffffffffffffffffffff1614610e28576040517f08c379a0000000000000000000000000000000000000000000000000000000008152600401610e1f9061586f565b60405180910390fd5b606081600081518110610e3757fe5b6020026020010151905060008411610e84576040517f08c379a0000000000000000000000000000000000000000000000000000000008152600401610e7b906155cf565b60405180910390fd5b73__RBBLib________________________________63465c4105600a836040518363ffffffff1660e01b8152600401610ebe929190615438565b60206040518083038186803b158015610ed657600080fd5b505af4158015610eea573d6000803e3d6000fd5b505050506040513d601f19601f82011682018060405250810190610f0e9190613e37565b15610f2857610f2389898989898989896122a9565b6111fe565b73__RBBLib________________________________63465c4105600b836040518363ffffffff1660e01b8152600401610f62929190615438565b60206040518083038186803b158015610f7a57600080fd5b505af4158015610f8e573d6000803e3d6000fd5b505050506040513d601f19601f82011682018060405250810190610fb29190613e37565b15610fcc57610fc789898989898989896126aa565b6111fd565b73__RBBLib________________________________63465c4105600c836040518363ffffffff1660e01b8152600401611006929190615438565b60206040518083038186803b15801561101e57600080fd5b505af4158015611032573d6000803e3d6000fd5b505050506040513d601f19601f820116820180604052508101906110569190613e37565b156110705761106b8989898989898989612a11565b6111fc565b73__RBBLib________________________________63465c4105600d836040518363ffffffff1660e01b81526004016110aa929190615438565b60206040518083038186803b1580156110c257600080fd5b505af41580156110d6573d6000803e3d6000fd5b505050506040513d601f19601f820116820180604052508101906110fa9190613e37565b156111145761110f8989898989898989612c33565b6111fb565b73__RBBLib________________________________63465c4105600e836040518363ffffffff1660e01b815260040161114e929190615438565b60206040518083038186803b15801561116657600080fd5b505af415801561117a573d6000803e3d6000fd5b505050506040513d601f19601f8201168201806040525081019061119e9190613e37565b156111b8576111b38989898989898989612fcd565b6111fa565b60006111f9576040517f08c379a00000000000000000000000000000000000000000000000000000000081526004016111f09061576f565b60405180910390fd5b5b5b5b5b5b505050505050505050565b600061121f82600161321290919063ffffffff16565b9050919050565b80600260016101000a81548173ffffffffffffffffffffffffffffffffffffffff021916908373ffffffffffffffffffffffffffffffffffffffff16021790555050565b600e8054600181600116156101000203166002900480601f0160208091040260200160405190810160405280929190818152602001828054600181600116156101000203166002900480156113005780601f106112d557610100808354040283529160200191611300565b820191906000526020600020905b8154815290600101906020018083116112e357829003601f168201915b505050505081565b6000600260009054906101000a900460ff16905090565b3373ffffffffffffffffffffffffffffffffffffffff16600460009054906101000a900473ffffffffffffffffffffffffffffffffffffffff1673ffffffffffffffffffffffffffffffffffffffff16630b2e8fe96040518163ffffffff1660e01b815260040160206040518083038186803b15801561139e57600080fd5b505afa1580156113b2573d6000803e3d6000fd5b505050506040513d601f19601f820116820180604052508101906113d69190613ca3565b73ffffffffffffffffffffffffffffffffffffffff161461142c576040517f08c379a00000000000000000000000000000000000000000000000000000000081526004016114239061558f565b60405180910390fd5b61143686866132da565b611475576040517f08c379a000000000000000000000000000000000000000000000000000000000815260040161146c9061568f565b60405180910390fd5b61147f84846132da565b6114be576040517f08c379a00000000000000000000000000000000000000000000000000000000081526004016114b5906154af565b60405180910390fd5b600086868686866040516020016114d995949392919061528c565b60405160208183030381529060405280519060200120905060098190806001815401808255809150506001900390600052602060002001600090919091909150557f8fbc7818210c8d0cab55b36028efc60a3f6e71aa8ad8a2abb88cd9ba5f81673587878787878760405161155396959493929190615913565b60405180910390a150505050505050565b600c8054600181600116156101000203166002900480601f0160208091040260200160405190810160405280929190818152602001828054600181600116156101000203166002900480156115fa5780601f106115cf576101008083540402835291602001916115fa565b820191906000526020600020905b8154815290600101906020018083116115dd57829003601f168201915b505050505081565b61161261160d6122a1565b613685565b565b600f60029054906101000a900460ff1681565b61162f611b3e565b61166e576040517f08c379a00000000000000000000000000000000000000000000000000000000081526004016116659061572f565b60405180910390fd5b600073ffffffffffffffffffffffffffffffffffffffff1660008054906101000a900473ffffffffffffffffffffffffffffffffffffffff1673ffffffffffffffffffffffffffffffffffffffff167f8be0079c531659141344cd1fd0a4f28419497f9722a3daafe3b4186f6b6457e060405160405180910390a360008060006101000a81548173ffffffffffffffffffffffffffffffffffffffff021916908373ffffffffffffffffffffffffffffffffffffffff160217905550565b600260019054906101000a900473ffffffffffffffffffffffffffffffffffffffff1681565b61175a611b3e565b611799576040517f08c379a00000000000000000000000000000000000000000000000000000000081526004016117909061572f565b60405180910390fd5b600260019054906101000a900473ffffffffffffffffffffffffffffffffffffffff1673ffffffffffffffffffffffffffffffffffffffff1663087d4427826040518263ffffffff1660e01b81526004016117f491906158cf565b60206040518083038186803b15801561180c57600080fd5b505afa158015611820573d6000803e3d6000fd5b505050506040513d601f19601f820116820180604052508101906118449190613e37565b611883576040517f08c379a000000000000000000000000000000000000000000000000000000000815260040161187a9061570f565b60405180910390fd5b6005600082815260200190815260200160002060009054906101000a900460ff1661190c5760016005600083815260200190815260200160002060006101000a81548160ff0219169083151502179055507fd9c26130cd486a63c174ea1059ce24d8dbe984e02df92bd7dadaa69fd271ec958160405161190391906158cf565b60405180910390a15b50565b61191f61191a6122a1565b611209565b61195e576040517f08c379a0000000000000000000000000000000000000000000000000000000008152600401611955906154ef565b60405180910390fd5b611967816136df565b50565b600f60049054906101000a900460ff1681565b61198d6119886122a1565b611209565b6119cc576040517f08c379a00000000000000000000000000000000000000000000000000000000081526004016119c3906154ef565b60405180910390fd5b600260009054906101000a900460ff1615611a1c576040517f08c379a0000000000000000000000000000000000000000000000000000000008152600401611a139061562f565b60405180910390fd5b6001600260006101000a81548160ff0219169083151502179055507f62e78cea01bee320cd4e420270b5ea74000d11b0c9f74754ebdbfc544b05a258611a606122a1565b604051611a6d9190615306565b60405180910390a1565b60008060009054906101000a900473ffffffffffffffffffffffffffffffffffffffff16905090565b600b8054600181600116156101000203166002900480601f016020809104026020016040519081016040528092919081815260200182805460018160011615610100020316600290048015611b365780601f10611b0b57610100808354040283529160200191611b36565b820191906000526020600020905b815481529060010190602001808311611b1957829003601f168201915b505050505081565b60008060009054906101000a900473ffffffffffffffffffffffffffffffffffffffff1673ffffffffffffffffffffffffffffffffffffffff16611b806122a1565b73ffffffffffffffffffffffffffffffffffffffff1614905090565b600081604051602001611baf9190615271565b604051602081830303815290604052805190602001209050919050565b600f60039054906101000a900460ff1681565b600260009054906101000a900460ff1615611c2f576040517f08c379a0000000000000000000000000000000000000000000000000000000008152600401611c269061562f565b60405180910390fd5b600360009054906101000a900473ffffffffffffffffffffffffffffffffffffffff1673ffffffffffffffffffffffffffffffffffffffff163373ffffffffffffffffffffffffffffffffffffffff1614611cbf576040517f08c379a0000000000000000000000000000000000000000000000000000000008152600401611cb69061586f565b60405180910390fd5b7ff2117f45bb026f7f165d939836d0293bad4b8aaf2e658cb38900da27a81306558383604051611cf0929190615357565b60405180910390a1505050565b600f60059054906101000a900460ff1681565b600260009054906101000a900460ff1615611d60576040517f08c379a0000000000000000000000000000000000000000000000000000000008152600401611d579061562f565b60405180910390fd5b600360009054906101000a900473ffffffffffffffffffffffffffffffffffffffff1673ffffffffffffffffffffffffffffffffffffffff163373ffffffffffffffffffffffffffffffffffffffff1614611df0576040517f08c379a0000000000000000000000000000000000000000000000000000000008152600401611de79061586f565b60405180910390fd5b60008311611e33576040517f08c379a0000000000000000000000000000000000000000000000000000000008152600401611e2a906155cf565b60405180910390fd5b6008600086815260200190815260200160002060009054906101000a900460ff16611e93576040517f08c379a0000000000000000000000000000000000000000000000000000000008152600401611e8a906155af565b60405180910390fd5b83611eaf600f60049054906101000a900460ff1660ff16611b9c565b14611eef576040517f08c379a0000000000000000000000000000000000000000000000000000000008152600401611ee69061560f565b60405180910390fd5b7fb30495d559e05f5f1c993ea722cb239b6d85f70ed9c914b8350c4b94feed7ccd858484604051611f2293929190615a43565b60405180910390a1505050505050565b600081604051602001611f45919061525a565b604051602081830303815290604052805190602001209050919050565b6000611f7f600f60009054906101000a900460ff1660ff16611b9c565b9050919050565b60086020528060005260406000206000915054906101000a900460ff1681565b6006602052816000526040600020818051602081018201805184825260208301602085012081835280955050505050506000915091509054906101000a900460ff1681565b600460009054906101000a900473ffffffffffffffffffffffffffffffffffffffff1681565b60076020528060005260406000206000915090508054600181600116156101000203166002900480601f0160208091040260200160405190810160405280929190818152602001828054600181600116156101000203166002900480156120b95780601f1061208e576101008083540402835291602001916120b9565b820191906000526020600020905b81548152906001019060200180831161209c57829003601f168201915b505050505081565b600360009054906101000a900473ffffffffffffffffffffffffffffffffffffffff1681565b6120ef611b3e565b61212e576040517f08c379a00000000000000000000000000000000000000000000000000000000081526004016121259061572f565b60405180910390fd5b61213781613739565b50565b6009818154811061214757fe5b906000526020600020016000915090505481565b600d8054600181600116156101000203166002900480601f0160208091040260200160405190810160405280929190818152602001828054600181600116156101000203166002900480156121f15780601f106121c6576101008083540402835291602001916121f1565b820191906000526020600020905b8154815290600101906020018083116121d457829003601f168201915b505050505081565b6122038282613212565b15612243576040517f08c379a000000000000000000000000000000000000000000000000000000000815260040161223a9061548f565b60405180910390fd5b60018260000160008373ffffffffffffffffffffffffffffffffffffffff1673ffffffffffffffffffffffffffffffffffffffff16815260200190815260200160002060006101000a81548160ff0219169083151502179055505050565b600033905090565b600260009054906101000a900460ff16156122f9576040517f08c379a00000000000000000000000000000000000000000000000000000000081526004016122f09061562f565b60405180910390fd5b8773ffffffffffffffffffffffffffffffffffffffff16600460009054906101000a900473ffffffffffffffffffffffffffffffffffffffff1673ffffffffffffffffffffffffffffffffffffffff1663329afd3a6040518163ffffffff1660e01b815260040160206040518083038186803b15801561237857600080fd5b505afa15801561238c573d6000803e3d6000fd5b505050506040513d601f19601f820116820180604052508101906123b09190613ca3565b73ffffffffffffffffffffffffffffffffffffffff1614612406576040517f08c379a00000000000000000000000000000000000000000000000000000000081526004016123fd906157cf565b60405180910390fd5b6000600260019054906101000a900473ffffffffffffffffffffffffffffffffffffffff1673ffffffffffffffffffffffffffffffffffffffff166365f68c8961244e611a77565b6040518263ffffffff1660e01b815260040161246a91906152eb565b60206040518083038186803b15801561248257600080fd5b505afa158015612496573d6000803e3d6000fd5b505050506040513d601f19601f820116820180604052508101906124ba9190613f5a565b90508088146124fe576040517f08c379a00000000000000000000000000000000000000000000000000000000081526004016124f59061582f565b60405180910390fd5b612519600f60009054906101000a900460ff1660ff16611b9c565b871461255a576040517f08c379a00000000000000000000000000000000000000000000000000000000081526004016125519061580f565b60405180910390fd5b85881461259c576040517f08c379a0000000000000000000000000000000000000000000000000000000008152600401612593906156cf565b60405180910390fd5b6125b7600f60019054906101000a900460ff1660ff16611b9c565b8514156125fc577f94d89c2ff047eba28eb56cacf5a8e292f150c43e792d648d54f8b93372849b3c84846040516125ef9291906158ea565b60405180910390a161269f565b612617600f60029054906101000a900460ff1660ff16611b9c565b85141561265c577f7916e578b526c14777538bb519e208901510a7ff7765e2e339258b6ba65272fc848460405161264f9291906158ea565b60405180910390a161269e565b600061269d576040517f08c379a00000000000000000000000000000000000000000000000000000000081526004016126949061584f565b60405180910390fd5b5b5b505050505050505050565b600260009054906101000a900460ff16156126fa576040517f08c379a00000000000000000000000000000000000000000000000000000000081526004016126f19061562f565b60405180910390fd5b60608160018151811061270957fe5b602002602001015190506000600260019054906101000a900473ffffffffffffffffffffffffffffffffffffffff1673ffffffffffffffffffffffffffffffffffffffff166365f68c8961275b611a77565b6040518263ffffffff1660e01b815260040161277791906152eb565b60206040518083038186803b15801561278f57600080fd5b505afa1580156127a3573d6000803e3d6000fd5b505050506040513d601f19601f820116820180604052508101906127c79190613f5a565b9050600460009054906101000a900473ffffffffffffffffffffffffffffffffffffffff1673ffffffffffffffffffffffffffffffffffffffff16638cabf1286040518163ffffffff1660e01b815260040160206040518083038186803b15801561283157600080fd5b505afa158015612845573d6000803e3d6000fd5b505050506040513d601f19601f820116820180604052508101906128699190613ca3565b73ffffffffffffffffffffffffffffffffffffffff168a73ffffffffffffffffffffffffffffffffffffffff16146128d6576040517f08c379a00000000000000000000000000000000000000000000000000000000081526004016128cd9061564f565b60405180910390fd5b808914612918576040517f08c379a000000000000000000000000000000000000000000000000000000000815260040161290f9061582f565b60405180910390fd5b87612934600f60019054906101000a900460ff1660ff16611b9c565b14612974576040517f08c379a000000000000000000000000000000000000000000000000000000000815260040161296b9061556f565b60405180910390fd5b8561297e83611f32565b146129be576040517f08c379a00000000000000000000000000000000000000000000000000000000081526004016129b5906158af565b60405180910390fd5b6129c88783613866565b7fe08d0d3d48ef9857108be67cfe715057ce9b455eaf3a4d3b66f34bf148311d7a878387876040516129fd9493929190615974565b60405180910390a150505050505050505050565b600260009054906101000a900460ff1615612a61576040517f08c379a0000000000000000000000000000000000000000000000000000000008152600401612a589061562f565b60405180910390fd5b606081600181518110612a7057fe5b602002602001015190506006600089815260200190815260200160002081604051612a9b919061525a565b908152602001604051809103902060009054906101000a900460ff16612af6576040517f08c379a0000000000000000000000000000000000000000000000000000000008152600401612aed9061550f565b60405180910390fd5b86612b0082611f32565b14612b40576040517f08c379a0000000000000000000000000000000000000000000000000000000008152600401612b37906158af565b60405180910390fd5b84612b5c600f60049054906101000a900460ff1660ff16611b9c565b14612b9c576040517f08c379a0000000000000000000000000000000000000000000000000000000008152600401612b939061560f565b60405180910390fd5b85881415612bdf576040517f08c379a0000000000000000000000000000000000000000000000000000000008152600401612bd69061566f565b60405180910390fd5b612be98887613961565b7fdd62ead748da3466d84db25e6f55c3213f29aaf5c159d4d576018cd8420978268882888787604051612c209594939291906159c0565b60405180910390a1505050505050505050565b600260009054906101000a900460ff1615612c83576040517f08c379a0000000000000000000000000000000000000000000000000000000008152600401612c7a9061562f565b60405180910390fd5b600260019054906101000a900473ffffffffffffffffffffffffffffffffffffffff1673ffffffffffffffffffffffffffffffffffffffff166365f68c89612cc9611a77565b6040518263ffffffff1660e01b8152600401612ce591906152eb565b60206040518083038186803b158015612cfd57600080fd5b505afa158015612d11573d6000803e3d6000fd5b505050506040513d601f19601f82011682018060405250810190612d359190613f5a565b8714612d76576040517f08c379a0000000000000000000000000000000000000000000000000000000008152600401612d6d9061552f565b60405180910390fd5b600460009054906101000a900473ffffffffffffffffffffffffffffffffffffffff1673ffffffffffffffffffffffffffffffffffffffff1663e38d4ef76040518163ffffffff1660e01b815260040160206040518083038186803b158015612dde57600080fd5b505afa158015612df2573d6000803e3d6000fd5b505050506040513d601f19601f82011682018060405250810190612e169190613ca3565b73ffffffffffffffffffffffffffffffffffffffff168873ffffffffffffffffffffffffffffffffffffffff1614612e83576040517f08c379a0000000000000000000000000000000000000000000000000000000008152600401612e7a906155ef565b60405180910390fd5b85612e9f600f60029054906101000a900460ff1660ff16611b9c565b14612edf576040517f08c379a0000000000000000000000000000000000000000000000000000000008152600401612ed6906157ef565b60405180910390fd5b83612efb600f60049054906101000a900460ff1660ff16611b9c565b14612f3b576040517f08c379a0000000000000000000000000000000000000000000000000000000008152600401612f329061560f565b60405180910390fd5b84871415612f7e576040517f08c379a0000000000000000000000000000000000000000000000000000000008152600401612f75906157af565b60405180910390fd5b612f888786613961565b7f8316c04a0a2b1e71f63264f2f0380d43ae9f758672a97012d6880fcedcb54232858484604051612fbb93929190615a43565b60405180910390a15050505050505050565b600260009054906101000a900460ff161561301d576040517f08c379a00000000000000000000000000000000000000000000000000000000081526004016130149061562f565b60405180910390fd5b61302787876132da565b613066576040517f08c379a000000000000000000000000000000000000000000000000000000000815260040161305d9061568f565b60405180910390fd5b61307085856132da565b6130af576040517f08c379a00000000000000000000000000000000000000000000000000000000081526004016130a6906154af565b60405180910390fd5b600087878787876040516020016130ca95949392919061528c565b6040516020818303038152906040528051906020012090506000805b60098054905081101561312857826009828154811061310157fe5b9060005260206000200154141561311b5760019150613128565b80806001019150506130e6565b81613168576040517f08c379a000000000000000000000000000000000000000000000000000000000815260040161315f906154cf565b60405180910390fd5b60096001600980549050038154811061317d57fe5b90600052602060002001546009828154811061319557fe5b906000526020600020018190555060098054806131ae57fe5b600190038181906000526020600020016000905590557fae2b72cc4621b123feac073da32309bdd45fefaa49154814cd8c8b3c7c4d5cb78a8a8a8a8a8a6040516131fd96959493929190615913565b60405180910390a15050505050505050505050565b60008073ffffffffffffffffffffffffffffffffffffffff168273ffffffffffffffffffffffffffffffffffffffff161415613283576040517f08c379a000000000000000000000000000000000000000000000000000000000815260040161327a9061574f565b60405180910390fd5b8260000160008373ffffffffffffffffffffffffffffffffffffffff1673ffffffffffffffffffffffffffffffffffffffff16815260200190815260200160002060009054906101000a900460ff16905092915050565b6000600115156005600085815260200190815260200160002060009054906101000a900460ff1615151415613312576001905061367f565b6060600760008481526020019081526020016000208054600181600116156101000203166002900480601f0160208091040260200160405190810160405280929190818152602001828054600181600116156101000203166002900480156133bb5780601f10613390576101008083540402835291602001916133bb565b820191906000526020600020905b81548152906001019060200180831161339e57829003601f168201915b505050505090506001151560066000868152602001908152602001600020826040516133e7919061525a565b908152602001604051809103902060009054906101000a900460ff161515141561341557600191505061367f565b600115156008600086815260200190815260200160002060009054906101000a900460ff161515141561344c57600191505061367f565b6000600260019054906101000a900473ffffffffffffffffffffffffffffffffffffffff1673ffffffffffffffffffffffffffffffffffffffff166365f68c89613494611a77565b6040518263ffffffff1660e01b81526004016134b091906152eb565b60206040518083038186803b1580156134c857600080fd5b505afa1580156134dc573d6000803e3d6000fd5b505050506040513d601f19601f820116820180604052508101906135009190613f5a565b9050848114156135155760019250505061367f565b6000600260019054906101000a900473ffffffffffffffffffffffffffffffffffffffff1673ffffffffffffffffffffffffffffffffffffffff166365f68c89600360009054906101000a900473ffffffffffffffffffffffffffffffffffffffff1673ffffffffffffffffffffffffffffffffffffffff16638da5cb5b6040518163ffffffff1660e01b815260040160206040518083038186803b1580156135bd57600080fd5b505afa1580156135d1573d6000803e3d6000fd5b505050506040513d601f19601f820116820180604052508101906135f59190613ca3565b6040518263ffffffff1660e01b815260040161361191906152eb565b60206040518083038186803b15801561362957600080fd5b505afa15801561363d573d6000803e3d6000fd5b505050506040513d601f19601f820116820180604052508101906136619190613f5a565b905085811415613677576001935050505061367f565b600093505050505b92915050565b6136998160016139f090919063ffffffff16565b8073ffffffffffffffffffffffffffffffffffffffff167fcd265ebaf09df2871cc7bd4133404a235ba12eff2041bb89d9c714a2621c7c7e60405160405180910390a250565b6136f38160016121f990919063ffffffff16565b8073ffffffffffffffffffffffffffffffffffffffff167f6719d08c1888103bea251a4ed56406bd0c3e69723c8a1686e017e7bbe159b6f860405160405180910390a250565b600073ffffffffffffffffffffffffffffffffffffffff168173ffffffffffffffffffffffffffffffffffffffff1614156137a9576040517f08c379a00000000000000000000000000000000000000000000000000000000081526004016137a09061554f565b60405180910390fd5b8073ffffffffffffffffffffffffffffffffffffffff1660008054906101000a900473ffffffffffffffffffffffffffffffffffffffff1673ffffffffffffffffffffffffffffffffffffffff167f8be0079c531659141344cd1fd0a4f28419497f9722a3daafe3b4186f6b6457e060405160405180910390a3806000806101000a81548173ffffffffffffffffffffffffffffffffffffffff021916908373ffffffffffffffffffffffffffffffffffffffff16021790555050565b6006600083815260200190815260200160002081604051613887919061525a565b908152602001604051809103902060009054906101000a900460ff1661395d57600160066000848152602001908152602001600020826040516138ca919061525a565b908152602001604051809103902060006101000a81548160ff02191690831515021790555060006138fa82611f32565b905081600760008381526020019081526020016000209080519060200190613923929190613a97565b507f448b0dd714fa3713f69988b8ee8bad3ac840e06e3d93c970086a3d490d61c6298360405161395391906158cf565b60405180910390a1505b5050565b6008600082815260200190815260200160002060009054906101000a900460ff166139ec5760016008600083815260200190815260200160002060006101000a81548160ff0219169083151502179055507f2757aa27a660ab391745e035b5a23653f6497d768c445f6a9c3df78e1d18727f82826040516139e3929190615a1a565b60405180910390a15b5050565b6139fa8282613212565b613a39576040517f08c379a0000000000000000000000000000000000000000000000000000000008152600401613a30906156af565b60405180910390fd5b60008260000160008373ffffffffffffffffffffffffffffffffffffffff1673ffffffffffffffffffffffffffffffffffffffff16815260200190815260200160002060006101000a81548160ff0219169083151502179055505050565b828054600181600116156101000203166002900490600052602060002090601f016020900481019282601f10613ad857805160ff1916838001178555613b06565b82800160010185558215613b06579182015b82811115613b05578251825591602001919060010190613aea565b5b509050613b139190613b17565b5090565b5b80821115613b30576000816000905550600101613b18565b5090565b600081359050613b4381615ccb565b92915050565b600081519050613b5881615ccb565b92915050565b600082601f830112613b6f57600080fd5b8135613b82613b7d82615ac2565b615a95565b9150818183526020840193506020810190508360005b83811015613bc85781358601613bae8882613bfc565b845260208401935060208301925050600181019050613b98565b5050505092915050565b600081519050613be181615ce2565b92915050565b600081359050613bf681615cf9565b92915050565b600082601f830112613c0d57600080fd5b8135613c20613c1b82615aea565b615a95565b91508082526020830160208301858383011115613c3c57600080fd5b613c47838284615c64565b50505092915050565b600081359050613c5f81615d10565b92915050565b600081519050613c7481615d10565b92915050565b600060208284031215613c8c57600080fd5b6000613c9a84828501613b34565b91505092915050565b600060208284031215613cb557600080fd5b6000613cc384828501613b49565b91505092915050565b60008060008060008060c08789031215613ce557600080fd5b6000613cf389828a01613b34565b9650506020613d0489828a01613c50565b9550506040613d1589828a01613be7565b9450506060613d2689828a01613c50565b9350506080613d3789828a01613be7565b92505060a087013567ffffffffffffffff811115613d5457600080fd5b613d6089828a01613b5e565b9150509295509295509295565b600080600080600080600080610100898b031215613d8a57600080fd5b6000613d988b828c01613b34565b9850506020613da98b828c01613c50565b9750506040613dba8b828c01613be7565b9650506060613dcb8b828c01613c50565b9550506080613ddc8b828c01613be7565b94505060a0613ded8b828c01613c50565b93505060c0613dfe8b828c01613be7565b92505060e089013567ffffffffffffffff811115613e1b57600080fd5b613e278b828c01613b5e565b9150509295985092959890939650565b600060208284031215613e4957600080fd5b6000613e5784828501613bd2565b91505092915050565b600060208284031215613e7257600080fd5b6000613e8084828501613be7565b91505092915050565b600080600060608486031215613e9e57600080fd5b6000613eac86828701613be7565b9350506020613ebd86828701613be7565b925050604084013567ffffffffffffffff811115613eda57600080fd5b613ee686828701613b5e565b9150509250925092565b600060208284031215613f0257600080fd5b600082013567ffffffffffffffff811115613f1c57600080fd5b613f2884828501613bfc565b91505092915050565b600060208284031215613f4357600080fd5b6000613f5184828501613c50565b91505092915050565b600060208284031215613f6c57600080fd5b6000613f7a84828501613c65565b91505092915050565b60008060408385031215613f9657600080fd5b6000613fa485828601613c50565b9250506020613fb585828601613be7565b9150509250929050565b600080600080600060a08688031215613fd757600080fd5b6000613fe588828901613c50565b9550506020613ff688828901613be7565b945050604061400788828901613c50565b935050606061401888828901613be7565b925050608086013567ffffffffffffffff81111561403557600080fd5b61404188828901613b5e565b9150509295509295909350565b60008060008060008060c0878903121561406757600080fd5b600061407589828a01613c50565b965050602061408689828a01613be7565b955050604061409789828a01613c50565b94505060606140a889828a01613be7565b93505060806140b989828a01613c50565b92505060a06140ca89828a01613be7565b9150509295509295509295565b600080604083850312156140ea57600080fd5b60006140f885828601613c50565b925050602083013567ffffffffffffffff81111561411557600080fd5b61412185828601613bfc565b9150509250929050565b61413481615bc2565b82525050565b61414381615b63565b82525050565b61415281615b75565b82525050565b61416181615b81565b82525050565b61417861417382615b81565b615ca6565b82525050565b61418781615bd4565b82525050565b61419681615bf8565b82525050565b6141a581615c1c565b82525050565b60006141b682615b2b565b6141c08185615b36565b93506141d0818560208601615c73565b6141d981615cba565b840191505092915050565b60006141ef82615b2b565b6141f98185615b47565b9350614209818560208601615c73565b61421281615cba565b840191505092915050565b600061422882615b2b565b6142328185615b58565b9350614242818560208601615c73565b80840191505092915050565b60008154600181166000811461426b5760018114614291576142d5565b607f600283041661427c8187615b47565b955060ff1983168652602086019350506142d5565b6002820461429f8187615b47565b95506142aa85615b16565b60005b828110156142cc578154818901526001820191506020810190506142ad565b80880195505050505b505092915050565b60006142ea601483615b36565b91507f5061757361626c653a206e6f74207061757365640000000000000000000000006000830152602082019050919050565b600061432a601f83615b36565b91507f526f6c65733a206163636f756e7420616c72656164792068617320726f6c65006000830152602082019050919050565b600061436a603d83615b36565b91507f456e64657265c3a76f2064652064657374696e6f206ec3a36f20696e636c75c360008301527fad646f20636f6d6f20706170656c206e6573736520636164617374726f0000006020830152604082019050919050565b60006143d0603083615b36565b91507f496e74657276656ec3a7c3a36f206d616e75616c206ec3a36f2070726576696160008301527f6d656e74652063616461737472616461000000000000000000000000000000006020830152604082019050919050565b6000614436603083615b36565b91507f506175736572526f6c653a2063616c6c657220646f6573206e6f74206861766560008301527f207468652050617573657220726f6c65000000000000000000000000000000006020830152604082019050919050565b600061449c604483615b36565b91507f536f6d656e746520636c69656e74657320656d20636f6e747261746f7320636160008301527f646173747261646f7320706f64656d206578656375746172206f20706167616d60208301527f656e746f000000000000000000000000000000000000000000000000000000006040830152606082019050919050565b6000614528602983615b36565b91507f536f6d656e7465206f20424e44455320706f6465206578656375746172206f2060008301527f706167616d656e746f00000000000000000000000000000000000000000000006020830152604082019050919050565b600061458e602683615b36565b91507f4f776e61626c653a206e6577206f776e657220697320746865207a65726f206160008301527f64647265737300000000000000000000000000000000000000000000000000006020830152604082019050919050565b60006145f4602a83615b36565b91507f4572726f206e6f2063c3a16c63756c6f20646f206861736820646120636f6e7460008301527f6120646f20424e444553000000000000000000000000000000000000000000006020830152604082019050919050565b600061465a605783615b36565b91507f536f6d656e746520756d20726573706f6e73c3a176656c2070656c617320747260008301527f616e73666572c3aa6e636961732065787472616f7264696ec3a172696173207060208301527f6f7220656e766961722061207472616e7361c3a7c3a36f0000000000000000006040830152606082019050919050565b60006146e6602f83615b36565b91507f536f6d656e746520666f726e656365646f72657320706f64656d20657865637560008301527f746172206f20706167616d656e746f00000000000000000000000000000000006020830152604082019050919050565b600061474c603583615b36565b91507f56616c6f72206120736572207472616e736163696f6e61646f2064657665207360008301527f6572206d61696f7220646f20717565207a65726f2e00000000000000000000006020830152604082019050919050565b60006147b2606483615b36565b91507f45737461207472616e7361c3a7c3a36f2073c3b320706f64652073657220657860008301527f656375746164612070656c6f20726573706f6e73c3a176656c2070656c6f206460208301527f6f20706167616d656e746f20646520666f726e656365646f72657320646f204260408301527f4e444553000000000000000000000000000000000000000000000000000000006060830152608082019050919050565b6000614864602f83615b36565b91507f4572726f206e6f2063c3a16c63756c6f20646f206861736820646120636f6e7460008301527f6120646f20666f726e656365646f7200000000000000000000000000000000006020830152604082019050919050565b60006148ca601083615b36565b91507f5061757361626c653a20706175736564000000000000000000000000000000006000830152602082019050919050565b600061490a604983615b36565b91507f45737461207472616e7361c3a7c3a36f2073c3b320706f64652073657220657860008301527f656375746164612070656c6f20726573706f6e73c3a176656c2070656c6f206460208301527f6573656d626f6c736f00000000000000000000000000000000000000000000006040830152606082019050919050565b6000614996606883615b36565b91507f556d20696e737469747569c3a7c3a36f206ec3a36f20706f6465207472616e7360008301527f666572697220746f6b656e20706172612073692c2061696e646120717565206560208301527f6d20706170c3a969732064697374696e746f732028436c69656e74652f466f7260408301527f6e656365646f72290000000000000000000000000000000000000000000000006060830152608082019050919050565b6000614a48603c83615b36565b91507f456e64657265c3a76f206465206f726967656d206ec3a36f20696e636c75c3ad60008301527f646f20636f6d6f20706170656c206e6573736520636164617374726f000000006020830152604082019050919050565b6000614aae602183615b36565b91507f526f6c65733a206163636f756e7420646f6573206e6f74206861766520726f6c60008301527f65000000000000000000000000000000000000000000000000000000000000006020830152604082019050919050565b6000614b14604583615b36565b91507f49642064652064657374696e6f206461207472616e7361c3a7c3a36f206ec3a360008301527f6f20657374c3a120696775616c20616f20646f206f776e657220646f20636f6e60208301527f747261746f0000000000000000000000000000000000000000000000000000006040830152606082019050919050565b6000614ba0602483615b36565b91507f4572726f206e6f2063c3a16c63756c6f20646f206861736820646120646f61c360008301527fa7c3a36f000000000000000000000000000000000000000000000000000000006020830152604082019050919050565b6000614c06603783615b36565b91507f436f6e746120646520696e7665737469646f722070726563697361206573746160008301527f7220636f6d20636164617374726f2076616c696461646f0000000000000000006020830152604082019050919050565b6000614c6c602083615b36565b91507f4f776e61626c653a2063616c6c6572206973206e6f7420746865206f776e65726000830152602082019050919050565b6000614cac602283615b36565b91507f526f6c65733a206163636f756e7420697320746865207a65726f20616464726560008301527f73730000000000000000000000000000000000000000000000000000000000006020830152604082019050919050565b6000614d12604283615b36565b91507f4e656e68756d61207665726966696361c3a7c3a36f206573706563c3ad66696360008301527f6120656e636f6e747261646120706172612061207472616e73666572c3aa6e6360208301527f69610000000000000000000000000000000000000000000000000000000000006040830152606082019050919050565b6000614d9e603383615b36565b91507f446576657269612073657220756d20696e7665737469646f722c20726567697360008301527f74726f20657374616820696e636f727265746f000000000000000000000000006020830152604082019050919050565b6000614e04602b83615b36565b91507f556d20424e444553206ec3a36f20706f6465207472616e73666572697220746f60008301527f6b656e20706172612073690000000000000000000000000000000000000000006020830152604082019050919050565b6000614e6a604c83615b36565b91507f536f6d656e746520756d20726573706f6e73c3a176656c2070656c617320616c60008301527f6f6361c3a7c3b5657320696e69636961697320706f646520656e76696172206160208301527f207472616e7361c3a7c3a36f00000000000000000000000000000000000000006040830152606082019050919050565b6000614ef6604183615b36565b91507f4572726f206e6f2063c3a16c63756c6f20646f206861736820646120636f6e7460008301527f612064652061646d696e20646f20636f6e747261746f2065737065636966696360208301527f6f000000000000000000000000000000000000000000000000000000000000006040830152606082019050919050565b6000614f82603083615b36565b91507f48617368206465206f726967656d206461207472616e7361c3a7c3a36f206ec360008301527fa36f20657374c3a120636f727265746f000000000000000000000000000000006020830152604082019050919050565b6000614fe8604483615b36565b91507f4964206465206f726967656d206461207472616e7361c3a7c3a36f206ec3a36f60008301527f20657374c3a120696775616c20616f20646f206f776e657220646f20636f6e7460208301527f7261746f000000000000000000000000000000000000000000000000000000006040830152606082019050919050565b6000615074604983615b36565b91507f486173682064652064657374696e6f206ec3a36f20657374c3a120636f72726560008301527f73706f6e64656e7465206120636f6e746120646520646573656d626f6c736f2060208301527f6f752064652061646d00000000000000000000000000000000000000000000006040830152606082019050919050565b6000615100603083615b36565b91507f45737365206dc3a9746f646f2073c3b320706f646520736572206368616d616460008301527f6f2070656c6f205242425f546f6b656e000000000000000000000000000000006020830152604082019050919050565b6000615166603b83615b36565b91507f536f6d656e746520696e7665737469646f726573206361646173747261646f7360008301527f20706f64656d20657865637574617220657373612061c3a7c3a36f00000000006020830152604082019050919050565b60006151cc602c83615b36565b91507f4572726f206e6f2063c3a16c63756c6f20646f206861736820646120636f6e7460008301527f6120646f20636c69656e746500000000000000000000000000000000000000006020830152604082019050919050565b61522e81615bab565b82525050565b61524561524082615bab565b615cb0565b82525050565b61525481615bb5565b82525050565b6000615266828461421d565b915081905092915050565b600061527d8284615234565b60208201915081905092915050565b60006152988288615234565b6020820191506152a88287614167565b6020820191506152b88286615234565b6020820191506152c88285614167565b6020820191506152d88284615234565b6020820191508190509695505050505050565b6000602082019050615300600083018461413a565b92915050565b600060208201905061531b600083018461412b565b92915050565b60006020820190506153366000830184614149565b92915050565b60006020820190506153516000830184614158565b92915050565b600060408201905061536c6000830185614158565b6153796020830184614158565b9392505050565b60006080820190506153956000830187614158565b6153a26020830186615225565b6153af6040830185615225565b6153bc6060830184614158565b95945050505050565b60006020820190506153da600083018461417e565b92915050565b60006020820190506153f5600083018461418d565b92915050565b6000602082019050615410600083018461419c565b92915050565b6000602082019050818103600083015261543081846141ab565b905092915050565b60006040820190508181036000830152615452818561424e565b9050818103602083015261546681846141e4565b90509392505050565b60006020820190508181036000830152615488816142dd565b9050919050565b600060208201905081810360008301526154a88161431d565b9050919050565b600060208201905081810360008301526154c88161435d565b9050919050565b600060208201905081810360008301526154e8816143c3565b9050919050565b6000602082019050818103600083015261550881614429565b9050919050565b600060208201905081810360008301526155288161448f565b9050919050565b600060208201905081810360008301526155488161451b565b9050919050565b6000602082019050818103600083015261556881614581565b9050919050565b60006020820190508181036000830152615588816145e7565b9050919050565b600060208201905081810360008301526155a88161464d565b9050919050565b600060208201905081810360008301526155c8816146d9565b9050919050565b600060208201905081810360008301526155e88161473f565b9050919050565b60006020820190508181036000830152615608816147a5565b9050919050565b6000602082019050818103600083015261562881614857565b9050919050565b60006020820190508181036000830152615648816148bd565b9050919050565b60006020820190508181036000830152615668816148fd565b9050919050565b6000602082019050818103600083015261568881614989565b9050919050565b600060208201905081810360008301526156a881614a3b565b9050919050565b600060208201905081810360008301526156c881614aa1565b9050919050565b600060208201905081810360008301526156e881614b07565b9050919050565b6000602082019050818103600083015261570881614b93565b9050919050565b6000602082019050818103600083015261572881614bf9565b9050919050565b6000602082019050818103600083015261574881614c5f565b9050919050565b6000602082019050818103600083015261576881614c9f565b9050919050565b6000602082019050818103600083015261578881614d05565b9050919050565b600060208201905081810360008301526157a881614d91565b9050919050565b600060208201905081810360008301526157c881614df7565b9050919050565b600060208201905081810360008301526157e881614e5d565b9050919050565b6000602082019050818103600083015261580881614ee9565b9050919050565b6000602082019050818103600083015261582881614f75565b9050919050565b6000602082019050818103600083015261584881614fdb565b9050919050565b6000602082019050818103600083015261586881615067565b9050919050565b60006020820190508181036000830152615888816150f3565b9050919050565b600060208201905081810360008301526158a881615159565b9050919050565b600060208201905081810360008301526158c8816151bf565b9050919050565b60006020820190506158e46000830184615225565b92915050565b60006040820190506158ff6000830185615225565b61590c6020830184614158565b9392505050565b600060c0820190506159286000830189615225565b6159356020830188614158565b6159426040830187615225565b61594f6060830186614158565b61595c6080830185615225565b61596960a0830184614158565b979650505050505050565b60006080820190506159896000830187615225565b818103602083015261599b81866141ab565b90506159aa6040830185615225565b6159b76060830184614158565b95945050505050565b600060a0820190506159d56000830188615225565b81810360208301526159e781876141ab565b90506159f66040830186615225565b615a036060830185615225565b615a106080830184614158565b9695505050505050565b6000604082019050615a2f6000830185615225565b615a3c6020830184615225565b9392505050565b6000606082019050615a586000830186615225565b615a656020830185615225565b615a726040830184614158565b949350505050565b6000602082019050615a8f600083018461524b565b92915050565b6000604051905081810181811067ffffffffffffffff82111715615ab857600080fd5b8060405250919050565b600067ffffffffffffffff821115615ad957600080fd5b602082029050602081019050919050565b600067ffffffffffffffff821115615b0157600080fd5b601f19601f8301169050602081019050919050565b60008190508160005260206000209050919050565b600081519050919050565b600082825260208201905092915050565b600082825260208201905092915050565b600081905092915050565b6000615b6e82615b8b565b9050919050565b60008115159050919050565b6000819050919050565b600073ffffffffffffffffffffffffffffffffffffffff82169050919050565b6000819050919050565b600060ff82169050919050565b6000615bcd82615c40565b9050919050565b6000615bdf82615be6565b9050919050565b6000615bf182615b8b565b9050919050565b6000615c0382615c0a565b9050919050565b6000615c1582615b8b565b9050919050565b6000615c2782615c2e565b9050919050565b6000615c3982615b8b565b9050919050565b6000615c4b82615c52565b9050919050565b6000615c5d82615b8b565b9050919050565b82818337600083830152505050565b60005b83811015615c91578082015181840152602081019050615c76565b83811115615ca0576000848401525b50505050565b6000819050919050565b6000819050919050565b6000601f19601f8301169050919050565b615cd481615b63565b8114615cdf57600080fd5b50565b615ceb81615b75565b8114615cf657600080fd5b50565b615d0281615b81565b8114615d0d57600080fd5b50565b615d1981615bab565b8114615d2457600080fd5b5056fea2646970667358221220b597399f87bfa4b604db7af44c589e6793ec01c0cfd1e8f02b989ff19e98b32e64736f6c634300060c0033",
  "immutableReferences": {},
  "source": "pragma solidity ^0.6.0;\npragma experimental ABIEncoderV2;\n\n\nimport \"./RBBLib.sol\";\nimport \"./RBBRegistry.sol\";\nimport \"./RBBToken.sol\";\nimport \"./SpecificRBBToken.sol\";\nimport \"./ESGBndesToken_BNDESRoles.sol\";\nimport \"@openzeppelin/contracts/ownership/Ownable.sol\";\nimport \"@openzeppelin/contracts/lifecycle/Pausable.sol\";\nimport \"@openzeppelin/contracts/math/SafeMath.sol\";\n\n\n/*\nTodas as operaes j supem que a entidade de origem e destino esto cadastradas e validadas no RBB_Registry, pois isso  garantido pelo contrato genrico (RBB_Token)\nNo includo (TBD):\n------------\n- requisito adicional de o cliente poder resgatar uma parte do valor (ao invs de ter que necessariamente transferir tudo ao fornecedor)\n- ideia de o fornecedor poder sacar mais de um saldo ao mesmo tempo.\n- pedido inicial de financiamento do cliente \n- devoluo de fornecedor para cliente sem anuncia para o BNDES\n- controle que cada doacao realmente se transformou em duas transacoes, uma para a conta adm e outra para a conta usual\nuint admFee = amount.mul(bndesFee).div(100);\n- perodo de validade para as autorizaes de transferncias extraordinrias\n- invalidar doador, cliente e fornecedor (por exemplo, em caso de CNPJ deixar de existir, contrato com BNDES acabar ou periodicamente)\n- permitir criar perfis diferenciados para contas dos clientes e fornecedores\n- incluir possibilidade de remover doadores, clientes e, talvez, fornecedores\n*/\ncontract ESGBndesToken is SpecificRBBToken {\n\n    RBBToken public rbbToken;\n    ESGBndesToken_BNDESRoles public bndesRoles;\n\n    //RBBId investor => true/false (registered or not)\n    mapping (uint => bool) public investors;\n\n    //RBBId client => (idFinancialSupportAgreement Client => true/false (registered or not)\n    mapping (uint => mapping (string => bool)) public clients;\n    mapping (bytes32 => string) public hashToIdFinancialSupportAgreement;\n\n    //RBBId supplier => true/false (registered or not)\n    mapping (uint => bool) public suppliers;\n\n    //Hash of approved Extraordinary Transfers\n    bytes32[] public hashApprovedExtraordinaryTransfers;\n\n    // BNDES Fee percentage\n//   uint256 public bndesFee;    \n\n    //Types of transfer operation\n    string public INITIAL_ALLOCATION = \"INITIAL_ALLOCATION\";\n    string public DISBURSEMENT_VERIFICATION = \"DISBURSEMENT_VERIFICATION\";\n    string public CLIENT_PAY_SUPPLIER_VERIFICATION = \"CLIENT_PAY_SUPPLIER_VERIFICATION\";\n    string public BNDES_PAY_SUPPLIER_VERIFICATION = \"BNDES_PAY_SUPPLIER_VERIFICATION\";\n    string public EXTRAORDINARY_TRANSFERS = \"EXTRAORDINARY_TRANSFERS\";\n\n\n    uint8 public RESERVED_MINTED_ACCOUNT = 0;\n    uint8 public RESERVED_USUAL_DISBURSEMENTS_ACCOUNT = 1;\n    uint8 public RESERVED_BNDES_ADMIN_FEE_TO_HASH = 2;\n    uint8 public RESERVED_NO_ADDITIONAL_FIELDS_TO_INVESTOR = 10;\n    uint8 public RESERVED_NO_ADDITIONAL_FIELDS_TO_SUPPLIER = 20;\n    uint8 public RESERVED_NO_ADDITIONAL_FIELDS_TO_DIFF_MONEY = 30;\n\n    using SafeMath for uint;\n   \n    event FA_InvestmentBooked(uint idInvestor, uint amount, bytes32 docHash);\n    event FA_InvestmentConfirmed(uint idInvestor, uint amount, bytes32 docHash);\n\n    event FA_InitialAllocation_Disbursements(uint amount, bytes32 docHash);\n    event FA_InitialAllocation_Fee(uint amount, bytes32 docHash);\n\n    event FA_Disbursement  (uint idClient, string idFinancialSupportAgreement, uint amount, bytes32 docHash);\n    event FA_TokenTransfer (uint fromId, string fromIdFinancialSupportAgreement, uint toId, uint amount, bytes32 docHash);\n    event FA_BNDES_TokenTransfer(uint toId, uint amount, bytes32 docHash);\n    event FA_RedemptionRequested (uint idClaimer, uint amount, bytes32 docHash);\n    event FA_RedemptionSettlement(bytes32 redemptionTransactionHash, bytes32 docHash);\n \n    event FA_ExtraordinaryTransferAllowed (uint fromId, bytes32 fromHash, uint toId, bytes32 toHash, \n            uint amount, bytes32 docHash);\n    event FA_ExtraordinaryTransferExecuted(uint fromId, bytes32 fromHash, uint toId, bytes32 toHash, \n            uint amount, bytes32 docHash);\n\n//    event FA_ManualIntervention_Fee(uint256 percent, bytes32 docHash);\n\n    event FA_InvestorAdded(uint id);\n    event FA_ClientAdded(uint id);\n    event FA_SupplierAdded(uint registeredBy, uint id);\n\n\n    constructor (address newrbbTokenAddr, address addrBndesRoles) public {\n//        require (fee < 100, \"Valor de Fee maior que 100%\");\n\n        rbbToken = RBBToken(newrbbTokenAddr);\n        bndesRoles = ESGBndesToken_BNDESRoles(addrBndesRoles);\n\n//        bndesFee = fee;\n    }\n\n/*\n    function setBNDESFee(uint256 newBndesFee, bytes32 docHash) public onlyOwner {\n        require (newBndesFee < 100, \"Valor de Fee maior que 100%\");\n        bndesFee = newBndesFee;\n        emit FA_ManualIntervention_Fee(newBndesFee, docHash);\n    }\n*/\n\n    function bookInvestment(uint amount, bytes32 docHash) public whenNotPaused  {        \n        \n        uint idInvestor = registry.getId(msg.sender);\n\n        require (investors[idInvestor], \"Somente investidores cadastrados podem executar essa ao\");\n //       require(registry.isRegistryOperational(idInvestor), \"Conta de investidor precisa estar com cadastro validado\");\n        \n        bytes32 specificHash = getCalculatedHash(RESERVED_NO_ADDITIONAL_FIELDS_TO_DIFF_MONEY);\n        rbbToken.requestMint(specificHash, idInvestor, amount, docHash);\n\n        emit FA_InvestmentBooked(idInvestor, amount, docHash);\n    }\n    \n    function verifyAndActForMint(uint idInvestor, bytes32 specificHash, uint amount, bytes32 docHash,\n        string[] memory data) public override whenNotPaused onlyRBBToken {\n\n        require (getCalculatedHash(RESERVED_NO_ADDITIONAL_FIELDS_TO_DIFF_MONEY)==specificHash, \"Erro no clculo do hash da doao\");\n\n        require (investors[idInvestor], \"Deveria ser um investidor, registro estah incorreto\");\n\n        emit FA_InvestmentConfirmed(idInvestor, amount, docHash);\n\n    }\n\n\n    function getHashToMintedAccount(bytes32 specificHash) override public returns (bytes32) {\n        //There is no difference of specificHash, all money should be minted in the same account\n        return getCalculatedHash(RESERVED_MINTED_ACCOUNT);\n    }\n\n    function verifyAndActForTransfer(address originalSender, uint fromId, bytes32 fromHash, uint toId, bytes32 toHash, \n            uint amount, bytes32 docHash, string[] memory data) public override whenNotPaused onlyRBBToken {\n\n        string memory specificMethod = data[0];\n\n        require (amount>0, \"Valor a ser transacionado deve ser maior do que zero.\");\n\n        if (RBBLib.isEqual(INITIAL_ALLOCATION, specificMethod)) {\n            verifyAndActForTransfer_INITIAL_ALLOCATION(originalSender, fromId, fromHash, toId, toHash, amount, docHash, data);\n        }\n        else if (RBBLib.isEqual(DISBURSEMENT_VERIFICATION, specificMethod)) {\n            verifyAndActForTransfer_DISBURSEMENT(originalSender, fromId, fromHash, toId, toHash, amount, docHash, data);\n        }\n        else if (RBBLib.isEqual(CLIENT_PAY_SUPPLIER_VERIFICATION, specificMethod)) {\n            verifyAndActForTransfer_CLIENT_PAY_SUPPLIER(originalSender, fromId, fromHash, toId, toHash, amount, docHash, data);\n        }\n        else if (RBBLib.isEqual(BNDES_PAY_SUPPLIER_VERIFICATION, specificMethod)) {\n            verifyAndActForTransfer_BNDES_PAY_SUPPLIER(originalSender, fromId, fromHash, toId, toHash, amount, docHash, data);\n        }\n        else if (RBBLib.isEqual(EXTRAORDINARY_TRANSFERS, specificMethod)) {\n            verifyAndActForTransfer_EXTRAORDINARY_TRANSFERS(originalSender, fromId, fromHash, toId, toHash, amount, docHash, data);\n        }\n        else {\n            require (false, \"Nenhuma verificao especfica encontrada para a transferncia\");\n        }\n\n    }\n\n    function verifyAndActForTransfer_INITIAL_ALLOCATION(address originalSender, uint fromId, bytes32 fromHash, uint toId, \n            bytes32 toHash, uint amount, bytes32 docHash, string[] memory data) internal whenNotPaused {\n\n        require (bndesRoles.responsibleForInitialAllocation() == originalSender, \n            \"Somente um responsvel pelas alocaes iniciais pode enviar a transao\");\n\n        uint ownerId = registry.getId(owner());\n        require (fromId == ownerId, \"Id de origem da transao no est igual ao do owner do contrato\");\n        require (fromHash == getCalculatedHash(RESERVED_MINTED_ACCOUNT), \"Hash de origem da transao no est correto\");\n\n        require (fromId == toId, \"Id de destino da transao no est igual ao do owner do contrato\");\n\n        if (toHash == getCalculatedHash(RESERVED_USUAL_DISBURSEMENTS_ACCOUNT)) {\n            emit FA_InitialAllocation_Disbursements(amount, docHash);\n        }\n        else if (toHash == getCalculatedHash(RESERVED_BNDES_ADMIN_FEE_TO_HASH)) {\n            emit FA_InitialAllocation_Fee(amount, docHash);\n        }\n        else {\n            require (false, \"Hash de destino no est correspondente a conta de desembolso ou de adm\");\n        }\n    }\n\n    function verifyAndActForTransfer_DISBURSEMENT(address originalSender, uint fromId, bytes32 fromHash, \n            uint toId, bytes32 toHash, uint amount, bytes32 docHash, string[] memory data) internal whenNotPaused {\n    \n        string memory idFinancialSupportAgreement = data[1];\n        uint ownerId = registry.getId(owner());\n\n        require (originalSender == bndesRoles.responsibleForDisbursement(), \n            \"Esta transao s pode ser executada pelo responsvel pelo desembolso\");\n\n        //Essa eh uma regra especifica visto que outra organizacao pode ter recebido o token no allocate.\n        require (fromId == ownerId, \"Id de origem da transao no est igual ao do owner do contrato\");\n        require (getCalculatedHash(RESERVED_USUAL_DISBURSEMENTS_ACCOUNT)==fromHash, \"Erro no clculo do hash da conta do BNDES\");\n        require (getCalculatedHash(idFinancialSupportAgreement)==toHash, \"Erro no clculo do hash da conta do cliente\");\n\n        addClient(toId, idFinancialSupportAgreement);\n\n        emit FA_Disbursement (toId, idFinancialSupportAgreement, amount, docHash);\n\n    }   \n\n    function verifyAndActForTransfer_CLIENT_PAY_SUPPLIER(address originalSender, uint fromId, bytes32 fromHash, \n            uint toId, bytes32 toHash, uint amount, bytes32 docHash, string[] memory data) internal whenNotPaused {\n    \n        string memory idFinancialSupportAgreement = data[1];\n\n        //nao verifica o sender, dado que o esse contrato nao diferencia as contas do cliente\n\n        require (clients[fromId][idFinancialSupportAgreement], \"Somente clientes em contratos cadastrados podem executar o pagamento\");\n        require (getCalculatedHash(idFinancialSupportAgreement)==fromHash, \"Erro no clculo do hash da conta do cliente\");\n        require (getCalculatedHash(RESERVED_NO_ADDITIONAL_FIELDS_TO_SUPPLIER)==toHash, \"Erro no clculo do hash da conta do fornecedor\");\n\n        require(fromId != toId,\n            \"Um instituio no pode transferir token para si, ainda que em papis distintos (Cliente/Fornecedor)\");\n\n        addSupplier (fromId, toId);\n\n        emit FA_TokenTransfer (fromId, idFinancialSupportAgreement, toId, amount, docHash);\n\n    }\n\n    function verifyAndActForTransfer_BNDES_PAY_SUPPLIER(address originalSender, uint fromId, bytes32 fromHash, \n            uint toId, bytes32 toHash, uint amount, bytes32 docHash, string[] memory data) internal whenNotPaused {\n        require (fromId==registry.getId(owner()), \"Somente o BNDES pode executar o pagamento\");\n        require (originalSender == bndesRoles.resposibleForPayingBNDESSuppliers(), \n            \"Esta transao s pode ser executada pelo responsvel pelo do pagamento de fornecedores do BNDES\");\n        require (getCalculatedHash(RESERVED_BNDES_ADMIN_FEE_TO_HASH)==fromHash, \"Erro no clculo do hash da conta de admin do contrato especifico\");\n        require (getCalculatedHash(RESERVED_NO_ADDITIONAL_FIELDS_TO_SUPPLIER)==toHash, \"Erro no clculo do hash da conta do fornecedor\");\n        require(fromId != toId, \"Um BNDES no pode transferir token para si\");\n\n        addSupplier (fromId, toId);\n\n        emit FA_BNDES_TokenTransfer (toId, amount, docHash);\n\n    }\n\n\n\n    function verifyAndActForRedeem(address originalSender, uint fromId, bytes32 fromHash, uint amount, \n        bytes32 docHash, string[] memory data) public override whenNotPaused onlyRBBToken {\n\n        //nao verifica o sender, dado que o esse contrato nao diferencia as contas do fornecedor\n\n        require (amount>0, \"Valor a ser transacionado deve ser maior do que zero.\");\n        require (suppliers[fromId], \"Somente fornecedores podem executar o pagamento\");\n        require (getCalculatedHash(RESERVED_NO_ADDITIONAL_FIELDS_TO_SUPPLIER)==fromHash, \"Erro no clculo do hash da conta do fornecedor\");\n\n        emit FA_RedemptionRequested (fromId, amount, docHash);\n\n    }\n\n    function verifyAndActForRedemptionSettlement(bytes32 redemptionTransactionHash, bytes32 docHash, \n        string[] memory data)\n        public override whenNotPaused onlyRBBToken {\n\n        emit FA_RedemptionSettlement (redemptionTransactionHash, docHash);\n    }\n\n    modifier onlyRBBToken() {\n        require (msg.sender==address(rbbToken), \"Esse mtodo s pode ser chamado pelo RBB_Token\");\n        _;\n    }\n\n    \n    function getCalculatedHash (uint info) public pure returns (bytes32) {\n        return keccak256(abi.encodePacked(info));\n    }\n\n    function getCalculatedHash (string memory info) public pure returns (bytes32) {\n        return keccak256(abi.encodePacked(info));\n    }\n\n    function authorizeExtraordinaryTransfer (uint fromId, bytes32 fromHash, uint toId, bytes32 toHash, \n                uint amount, bytes32 docHash) public  {\n        \n        require (bndesRoles.resposibleForApproveExtraordinaryTransfers() == msg.sender, \n            \"Somente um responsvel pelas transferncias extraordinrias por enviar a transao\");  \n        require (hasRoleInThisContract(fromId, fromHash), \"Endereo de origem no includo como papel nesse cadastro\");\n        require (hasRoleInThisContract(toId, toHash), \"Endereo de destino no includo como papel nesse cadastro\");\n\n        bytes32 m = keccak256(abi.encodePacked(fromId, fromHash, toId, toHash, amount));\n        hashApprovedExtraordinaryTransfers.push(m);\n\n        emit FA_ExtraordinaryTransferAllowed (fromId, fromHash, toId, toHash, amount, docHash);\n\n    }\n   \n    function verifyAndActForTransfer_EXTRAORDINARY_TRANSFERS(address originalSender, uint fromId, bytes32 fromHash, \n            uint toId, bytes32 toHash, uint amount, bytes32 docHash, string[] memory data) internal whenNotPaused {\n\n        require (hasRoleInThisContract(fromId, fromHash), \"Endereo de origem no includo como papel nesse cadastro\");\n        require (hasRoleInThisContract(toId, toHash), \"Endereo de destino no includo como papel nesse cadastro\");\n\n        bytes32 m = keccak256(abi.encodePacked(fromId, fromHash, toId, toHash, amount));\n\n        bool transferApproved = false;\n        uint index = 0;\n        for (; index<hashApprovedExtraordinaryTransfers.length; index++) {\n            if (hashApprovedExtraordinaryTransfers[index] == m) {\n                transferApproved = true;\n                break;\n            }\n        }\n\n        require (transferApproved, \"Interveno manual no previamente cadastrada\");\n\n        hashApprovedExtraordinaryTransfers[index] \n            = hashApprovedExtraordinaryTransfers [hashApprovedExtraordinaryTransfers.length-1];\n        hashApprovedExtraordinaryTransfers.pop();\n\n        emit FA_ExtraordinaryTransferExecuted (fromId, fromHash, toId, toHash, amount, docHash);\n\n    }\n\n//////////\n\n    function addInvestor (uint idInvestor) public onlyOwner {\n        require(registry.isRegistryOperational(idInvestor), \"Conta de investidor precisa estar com cadastro validado\");\n        if(!investors[idInvestor]) {\n            investors[idInvestor] = true;\n            emit FA_InvestorAdded(idInvestor);\n        }\n    }\n\n\n    function addClient (uint id, string memory idFinancialSupportAgreement) internal  {\n\n        if (!clients[id][idFinancialSupportAgreement]) {\n            clients[id][idFinancialSupportAgreement] = true; //register the client\n            bytes32 h = getCalculatedHash(idFinancialSupportAgreement);\n            hashToIdFinancialSupportAgreement[h] = idFinancialSupportAgreement;\n            emit FA_ClientAdded(id);\n\n        }\n    }\n\n\n    function addSupplier (uint registererId, uint idSupplier) internal  {\n\n        if (!suppliers[idSupplier]) {\n            suppliers[idSupplier] = true; //register the supplier\n            emit FA_SupplierAdded(registererId, idSupplier);\n        }\n    }\n\n    function hasRoleInThisContract (uint rbbId, bytes32 hashToAccount) private view returns (bool) {\n\n        if (investors[rbbId]==true) return true;\n\n        string memory idFinancialSupportAgreement = hashToIdFinancialSupportAgreement[hashToAccount];\n        if (clients[rbbId][idFinancialSupportAgreement]==true) return true;\n\n        if (suppliers[rbbId]==true) return true;\n\n        uint ownerId = registry.getId(owner());\n        if (ownerId == rbbId) return true;\n\n        uint rbbTokenOwnerId = registry.getId(rbbToken.owner());\n        if (rbbTokenOwnerId == rbbId) return true;\n\n        return false;\n    }\n\n}\n",
  "sourcePath": "/Users/suzana.moreno/workspace/rbb-token/Back-Blockchain/contracts/ESGBndesToken.sol",
  "compiler": {
    "name": "solc",
    "version": "0.6.12+commit.27d51765.Emscripten.clang"
  },
  "schemaVersion": "3.2.5",
  "updatedAt": "2020-11-03T18:41:29.109Z",
  "devdoc": {
    "kind": "dev",
    "methods": {
      "isOwner()": {
        "details": "Returns true if the caller is the current owner."
      },
      "owner()": {
        "details": "Returns the address of the current owner."
      },
      "pause()": {
        "details": "Called by a pauser to pause, triggers stopped state."
      },
      "paused()": {
        "details": "Returns true if the contract is paused, and false otherwise."
      },
      "renounceOwnership()": {
        "details": "Leaves the contract without owner. It will not be possible to call `onlyOwner` functions anymore. Can only be called by the current owner. NOTE: Renouncing ownership will leave the contract without an owner, thereby removing any functionality that is only available to the owner."
      },
      "transferOwnership(address)": {
        "details": "Transfers ownership of the contract to a new account (`newOwner`). Can only be called by the current owner."
      },
      "unpause()": {
        "details": "Called by a pauser to unpause, returns to normal state."
      }
    },
    "version": 1
  },
  "userdoc": {
    "kind": "user",
    "methods": {},
    "version": 1
  }
}