{
  "contractName": "ESGBndesToken_BNDESRoles",
  "abi": [
    {
      "inputs": [
        {
          "internalType": "address",
          "name": "newRegistryAddr",
          "type": "address"
        }
      ],
      "stateMutability": "nonpayable",
      "type": "constructor"
    },
    {
      "anonymous": false,
      "inputs": [
        {
          "indexed": false,
          "internalType": "address",
          "name": "account",
          "type": "address"
        },
        {
          "indexed": false,
          "internalType": "uint8",
          "name": "eventType",
          "type": "uint8"
        }
      ],
      "name": "FA_ManualIntervention_RoleOrAddress",
      "type": "event"
    },
    {
      "anonymous": false,
      "inputs": [
        {
          "indexed": true,
          "internalType": "address",
          "name": "previousOwner",
          "type": "address"
        },
        {
          "indexed": true,
          "internalType": "address",
          "name": "newOwner",
          "type": "address"
        }
      ],
      "name": "OwnershipTransferred",
      "type": "event"
    },
    {
      "inputs": [],
      "name": "isOwner",
      "outputs": [
        {
          "internalType": "bool",
          "name": "",
          "type": "bool"
        }
      ],
      "stateMutability": "view",
      "type": "function"
    },
    {
      "inputs": [],
      "name": "owner",
      "outputs": [
        {
          "internalType": "address",
          "name": "",
          "type": "address"
        }
      ],
      "stateMutability": "view",
      "type": "function"
    },
    {
      "inputs": [],
      "name": "registry",
      "outputs": [
        {
          "internalType": "contract RBBRegistry",
          "name": "",
          "type": "address"
        }
      ],
      "stateMutability": "view",
      "type": "function"
    },
    {
      "inputs": [],
      "name": "renounceOwnership",
      "outputs": [],
      "stateMutability": "nonpayable",
      "type": "function"
    },
    {
      "inputs": [],
      "name": "responsibleForDisbursement",
      "outputs": [
        {
          "internalType": "address",
          "name": "",
          "type": "address"
        }
      ],
      "stateMutability": "view",
      "type": "function"
    },
    {
      "inputs": [],
      "name": "responsibleForInitialAllocation",
      "outputs": [
        {
          "internalType": "address",
          "name": "",
          "type": "address"
        }
      ],
      "stateMutability": "view",
      "type": "function"
    },
    {
      "inputs": [],
      "name": "resposibleForApproveExtraordinaryTransfers",
      "outputs": [
        {
          "internalType": "address",
          "name": "",
          "type": "address"
        }
      ],
      "stateMutability": "view",
      "type": "function"
    },
    {
      "inputs": [],
      "name": "resposibleForPayingBNDESSuppliers",
      "outputs": [
        {
          "internalType": "address",
          "name": "",
          "type": "address"
        }
      ],
      "stateMutability": "view",
      "type": "function"
    },
    {
      "inputs": [
        {
          "internalType": "address",
          "name": "newOwner",
          "type": "address"
        }
      ],
      "name": "transferOwnership",
      "outputs": [],
      "stateMutability": "nonpayable",
      "type": "function"
    },
    {
      "inputs": [
        {
          "internalType": "address",
          "name": "rs",
          "type": "address"
        }
      ],
      "name": "setResponsibleForInitialAllocation",
      "outputs": [],
      "stateMutability": "nonpayable",
      "type": "function"
    },
    {
      "inputs": [
        {
          "internalType": "address",
          "name": "rs",
          "type": "address"
        }
      ],
      "name": "setResponsibleForDisbursement",
      "outputs": [],
      "stateMutability": "nonpayable",
      "type": "function"
    },
    {
      "inputs": [
        {
          "internalType": "address",
          "name": "rs",
          "type": "address"
        }
      ],
      "name": "setResposibleForApproveExtraordinaryTransfers",
      "outputs": [],
      "stateMutability": "nonpayable",
      "type": "function"
    },
    {
      "inputs": [
        {
          "internalType": "address",
          "name": "rs",
          "type": "address"
        }
      ],
      "name": "setResposibleForPayingBNDESSuppliers",
      "outputs": [],
      "stateMutability": "nonpayable",
      "type": "function"
    }
  ],
  "bytecode": "0x608060405234801561001057600080fd5b506040516117d03803806117d08339818101604052602081101561003357600080fd5b8101908080519060200190929190505050600061005461023d60201b60201c565b9050806000806101000a81548173ffffffffffffffffffffffffffffffffffffffff021916908373ffffffffffffffffffffffffffffffffffffffff1602179055508073ffffffffffffffffffffffffffffffffffffffff16600073ffffffffffffffffffffffffffffffffffffffff167f8be0079c531659141344cd1fd0a4f28419497f9722a3daafe3b4186f6b6457e060405160405180910390a35080600160006101000a81548173ffffffffffffffffffffffffffffffffffffffff021916908373ffffffffffffffffffffffffffffffffffffffff16021790555033600260006101000a81548173ffffffffffffffffffffffffffffffffffffffff021916908373ffffffffffffffffffffffffffffffffffffffff16021790555033600360006101000a81548173ffffffffffffffffffffffffffffffffffffffff021916908373ffffffffffffffffffffffffffffffffffffffff16021790555033600460006101000a81548173ffffffffffffffffffffffffffffffffffffffff021916908373ffffffffffffffffffffffffffffffffffffffff16021790555033600560006101000a81548173ffffffffffffffffffffffffffffffffffffffff021916908373ffffffffffffffffffffffffffffffffffffffff16021790555050610245565b600033905090565b61157c806102546000396000f3fe608060405234801561001057600080fd5b50600436106100cf5760003560e01c80638cabf1281161008c57806390e42c7e1161006657806390e42c7e1461028a5780639a960052146102ce578063e38d4ef714610312578063f2fde38b14610346576100cf565b80638cabf128146102025780638da5cb5b146102365780638f32d59b1461026a576100cf565b80630b2e8fe9146100d4578063329afd3a146101085780633879b6361461013c5780634e2f5df414610180578063715018a6146101c45780637b103999146101ce575b600080fd5b6100dc61038a565b604051808273ffffffffffffffffffffffffffffffffffffffff16815260200191505060405180910390f35b6101106103b0565b604051808273ffffffffffffffffffffffffffffffffffffffff16815260200191505060405180910390f35b61017e6004803603602081101561015257600080fd5b81019080803573ffffffffffffffffffffffffffffffffffffffff1690602001909291905050506103d6565b005b6101c26004803603602081101561019657600080fd5b81019080803573ffffffffffffffffffffffffffffffffffffffff1690602001909291905050506106d5565b005b6101cc6109d4565b005b6101d6610b0c565b604051808273ffffffffffffffffffffffffffffffffffffffff16815260200191505060405180910390f35b61020a610b32565b604051808273ffffffffffffffffffffffffffffffffffffffff16815260200191505060405180910390f35b61023e610b58565b604051808273ffffffffffffffffffffffffffffffffffffffff16815260200191505060405180910390f35b610272610b81565b60405180821515815260200191505060405180910390f35b6102cc600480360360208110156102a057600080fd5b81019080803573ffffffffffffffffffffffffffffffffffffffff169060200190929190505050610bdf565b005b610310600480360360208110156102e457600080fd5b81019080803573ffffffffffffffffffffffffffffffffffffffff169060200190929190505050610ede565b005b61031a6111dd565b604051808273ffffffffffffffffffffffffffffffffffffffff16815260200191505060405180910390f35b6103886004803603602081101561035c57600080fd5b81019080803573ffffffffffffffffffffffffffffffffffffffff169060200190929190505050611203565b005b600460009054906101000a900473ffffffffffffffffffffffffffffffffffffffff1681565b600260009054906101000a900473ffffffffffffffffffffffffffffffffffffffff1681565b6103de610b81565b610450576040517f08c379a00000000000000000000000000000000000000000000000000000000081526004018080602001828103825260208152602001807f4f776e61626c653a2063616c6c6572206973206e6f7420746865206f776e657281525060200191505060405180910390fd5b6000600160009054906101000a900473ffffffffffffffffffffffffffffffffffffffff1673ffffffffffffffffffffffffffffffffffffffff166365f68c89836040518263ffffffff1660e01b8152600401808273ffffffffffffffffffffffffffffffffffffffff16815260200191505060206040518083038186803b1580156104db57600080fd5b505afa1580156104ef573d6000803e3d6000fd5b505050506040513d602081101561050557600080fd5b81019080805190602001909291905050509050600160009054906101000a900473ffffffffffffffffffffffffffffffffffffffff1673ffffffffffffffffffffffffffffffffffffffff166365f68c8961055e610b58565b6040518263ffffffff1660e01b8152600401808273ffffffffffffffffffffffffffffffffffffffff16815260200191505060206040518083038186803b1580156105a857600080fd5b505afa1580156105bc573d6000803e3d6000fd5b505050506040513d60208110156105d257600080fd5b8101908080519060200190929190505050811461063a576040517f08c379a000000000000000000000000000000000000000000000000000000000815260040180806020018281038252604b8152602001806113d5604b913960600191505060405180910390fd5b81600260006101000a81548173ffffffffffffffffffffffffffffffffffffffff021916908373ffffffffffffffffffffffffffffffffffffffff1602179055507f3e3119fbec468368c03e4732985b5a3f373d3a8b8ad5cc0f820357687349b63d826001604051808373ffffffffffffffffffffffffffffffffffffffff1681526020018281526020019250505060405180910390a15050565b6106dd610b81565b61074f576040517f08c379a00000000000000000000000000000000000000000000000000000000081526004018080602001828103825260208152602001807f4f776e61626c653a2063616c6c6572206973206e6f7420746865206f776e657281525060200191505060405180910390fd5b6000600160009054906101000a900473ffffffffffffffffffffffffffffffffffffffff1673ffffffffffffffffffffffffffffffffffffffff166365f68c89836040518263ffffffff1660e01b8152600401808273ffffffffffffffffffffffffffffffffffffffff16815260200191505060206040518083038186803b1580156107da57600080fd5b505afa1580156107ee573d6000803e3d6000fd5b505050506040513d602081101561080457600080fd5b81019080805190602001909291905050509050600160009054906101000a900473ffffffffffffffffffffffffffffffffffffffff1673ffffffffffffffffffffffffffffffffffffffff166365f68c8961085d610b58565b6040518263ffffffff1660e01b8152600401808273ffffffffffffffffffffffffffffffffffffffff16815260200191505060206040518083038186803b1580156108a757600080fd5b505afa1580156108bb573d6000803e3d6000fd5b505050506040513d60208110156108d157600080fd5b81019080805190602001909291905050508114610939576040517f08c379a00000000000000000000000000000000000000000000000000000000081526004018080602001828103825260558152602001806114466055913960600191505060405180910390fd5b81600560006101000a81548173ffffffffffffffffffffffffffffffffffffffff021916908373ffffffffffffffffffffffffffffffffffffffff1602179055507f3e3119fbec468368c03e4732985b5a3f373d3a8b8ad5cc0f820357687349b63d826004604051808373ffffffffffffffffffffffffffffffffffffffff1681526020018281526020019250505060405180910390a15050565b6109dc610b81565b610a4e576040517f08c379a00000000000000000000000000000000000000000000000000000000081526004018080602001828103825260208152602001807f4f776e61626c653a2063616c6c6572206973206e6f7420746865206f776e657281525060200191505060405180910390fd5b600073ffffffffffffffffffffffffffffffffffffffff1660008054906101000a900473ffffffffffffffffffffffffffffffffffffffff1673ffffffffffffffffffffffffffffffffffffffff167f8be0079c531659141344cd1fd0a4f28419497f9722a3daafe3b4186f6b6457e060405160405180910390a360008060006101000a81548173ffffffffffffffffffffffffffffffffffffffff021916908373ffffffffffffffffffffffffffffffffffffffff160217905550565b600160009054906101000a900473ffffffffffffffffffffffffffffffffffffffff1681565b600360009054906101000a900473ffffffffffffffffffffffffffffffffffffffff1681565b60008060009054906101000a900473ffffffffffffffffffffffffffffffffffffffff16905090565b60008060009054906101000a900473ffffffffffffffffffffffffffffffffffffffff1673ffffffffffffffffffffffffffffffffffffffff16610bc3611289565b73ffffffffffffffffffffffffffffffffffffffff1614905090565b610be7610b81565b610c59576040517f08c379a00000000000000000000000000000000000000000000000000000000081526004018080602001828103825260208152602001807f4f776e61626c653a2063616c6c6572206973206e6f7420746865206f776e657281525060200191505060405180910390fd5b6000600160009054906101000a900473ffffffffffffffffffffffffffffffffffffffff1673ffffffffffffffffffffffffffffffffffffffff166365f68c89836040518263ffffffff1660e01b8152600401808273ffffffffffffffffffffffffffffffffffffffff16815260200191505060206040518083038186803b158015610ce457600080fd5b505afa158015610cf8573d6000803e3d6000fd5b505050506040513d6020811015610d0e57600080fd5b81019080805190602001909291905050509050600160009054906101000a900473ffffffffffffffffffffffffffffffffffffffff1673ffffffffffffffffffffffffffffffffffffffff166365f68c89610d67610b58565b6040518263ffffffff1660e01b8152600401808273ffffffffffffffffffffffffffffffffffffffff16815260200191505060206040518083038186803b158015610db157600080fd5b505afa158015610dc5573d6000803e3d6000fd5b505050506040513d6020811015610ddb57600080fd5b81019080805190602001909291905050508114610e43576040517f08c379a00000000000000000000000000000000000000000000000000000000081526004018080602001828103825260438152602001806115046043913960600191505060405180910390fd5b81600360006101000a81548173ffffffffffffffffffffffffffffffffffffffff021916908373ffffffffffffffffffffffffffffffffffffffff1602179055507f3e3119fbec468368c03e4732985b5a3f373d3a8b8ad5cc0f820357687349b63d826002604051808373ffffffffffffffffffffffffffffffffffffffff1681526020018281526020019250505060405180910390a15050565b610ee6610b81565b610f58576040517f08c379a00000000000000000000000000000000000000000000000000000000081526004018080602001828103825260208152602001807f4f776e61626c653a2063616c6c6572206973206e6f7420746865206f776e657281525060200191505060405180910390fd5b6000600160009054906101000a900473ffffffffffffffffffffffffffffffffffffffff1673ffffffffffffffffffffffffffffffffffffffff166365f68c89836040518263ffffffff1660e01b8152600401808273ffffffffffffffffffffffffffffffffffffffff16815260200191505060206040518083038186803b158015610fe357600080fd5b505afa158015610ff7573d6000803e3d6000fd5b505050506040513d602081101561100d57600080fd5b81019080805190602001909291905050509050600160009054906101000a900473ffffffffffffffffffffffffffffffffffffffff1673ffffffffffffffffffffffffffffffffffffffff166365f68c89611066610b58565b6040518263ffffffff1660e01b8152600401808273ffffffffffffffffffffffffffffffffffffffff16815260200191505060206040518083038186803b1580156110b057600080fd5b505afa1580156110c4573d6000803e3d6000fd5b505050506040513d60208110156110da57600080fd5b81019080805190602001909291905050508114611142576040517f08c379a000000000000000000000000000000000000000000000000000000000815260040180806020018281038252606981526020018061149b6069913960800191505060405180910390fd5b81600460006101000a81548173ffffffffffffffffffffffffffffffffffffffff021916908373ffffffffffffffffffffffffffffffffffffffff1602179055507f3e3119fbec468368c03e4732985b5a3f373d3a8b8ad5cc0f820357687349b63d826003604051808373ffffffffffffffffffffffffffffffffffffffff1681526020018281526020019250505060405180910390a15050565b600560009054906101000a900473ffffffffffffffffffffffffffffffffffffffff1681565b61120b610b81565b61127d576040517f08c379a00000000000000000000000000000000000000000000000000000000081526004018080602001828103825260208152602001807f4f776e61626c653a2063616c6c6572206973206e6f7420746865206f776e657281525060200191505060405180910390fd5b61128681611291565b50565b600033905090565b600073ffffffffffffffffffffffffffffffffffffffff168173ffffffffffffffffffffffffffffffffffffffff161415611317576040517f08c379a00000000000000000000000000000000000000000000000000000000081526004018080602001828103825260268152602001806114206026913960400191505060405180910390fd5b8073ffffffffffffffffffffffffffffffffffffffff1660008054906101000a900473ffffffffffffffffffffffffffffffffffffffff1673ffffffffffffffffffffffffffffffffffffffff167f8be0079c531659141344cd1fd0a4f28419497f9722a3daafe3b4186f6b6457e060405160405180910390a3806000806101000a81548173ffffffffffffffffffffffffffffffffffffffff021916908373ffffffffffffffffffffffffffffffffffffffff1602179055505056fe4f20726573706f6e73c3a176656c2070656c6120616c6f6361c3a7c3a36f20696e696369616c206465766520736572206461206d65736d6f205242425f494420646f20636f6e747261746f4f776e61626c653a206e6577206f776e657220697320746865207a65726f20616464726573734f20726573706f6e73c3a176656c2070656c6f20706167616d656e746f2064697265746f206120737570706c69657273206465766520736572206461206d65736d6f205242425f494420646f20636f6e747261746f4f20726573706f6e73c3a176656c2070656c6f2063616461737472616d656e746f206465207472616e73666572656e636961732065787472616f7264696ec3a172696173206465766520736572206461206d65736d6f205242425f494420646f20636f6e747261746f4f20726573706f6e73c3a176656c2070656c6f20646573656d626f6c736f206465766520736572206461206d65736d6f205242425f494420646f20636f6e747261746fa2646970667358221220ebd659561c3bf8f5ce296ca029e4409cac4c02c9f1a62ea935b67eb319ef992d64736f6c634300060c0033",
  "immutableReferences": {},
  "source": "pragma solidity ^0.6.0;\n\nimport \"./RBBRegistry.sol\";\nimport \"@openzeppelin/contracts/ownership/Ownable.sol\";\n\n\ncontract ESGBndesToken_BNDESRoles is Ownable {\n\n    RBBRegistry public registry;\n\n    address public responsibleForInitialAllocation;\n    address public responsibleForDisbursement;\n    address public resposibleForApproveExtraordinaryTransfers;\n    address public resposibleForPayingBNDESSuppliers;\n\n    event FA_ManualIntervention_RoleOrAddress(address account, uint8 eventType);\n\n    constructor (address newRegistryAddr) public {\n\n        registry = RBBRegistry(newRegistryAddr);\n\n        responsibleForInitialAllocation = msg.sender;\n        responsibleForDisbursement = msg.sender;\n        resposibleForApproveExtraordinaryTransfers = msg.sender;\n        resposibleForPayingBNDESSuppliers = msg.sender;\n\n    } \n\n    function setResponsibleForInitialAllocation(address rs) onlyOwner public {\n        uint id = registry.getId(rs);\n        require(id==registry.getId(owner()), \"O responsável pela alocação inicial deve ser da mesmo RBB_ID do contrato\");\n        responsibleForInitialAllocation = rs;\n        emit FA_ManualIntervention_RoleOrAddress(rs, 1);\n    }\n\n    function setResponsibleForDisbursement(address rs) onlyOwner public {\n        uint id = registry.getId(rs);\n        require(id==registry.getId(owner()), \"O responsável pelo desembolso deve ser da mesmo RBB_ID do contrato\");\n        responsibleForDisbursement = rs;\n        emit FA_ManualIntervention_RoleOrAddress(rs, 2);\n    }\n\n    function setResposibleForApproveExtraordinaryTransfers(address rs) onlyOwner public {\n        uint id = registry.getId(rs);\n        require(id==registry.getId(owner()), \"O responsável pelo cadastramento de transferencias extraordinárias deve ser da mesmo RBB_ID do contrato\");\n        resposibleForApproveExtraordinaryTransfers = rs;\n        emit FA_ManualIntervention_RoleOrAddress(rs, 3);\n    }\n\n    function setResposibleForPayingBNDESSuppliers(address rs) onlyOwner public {\n        uint id = registry.getId(rs);\n        require(id==registry.getId(owner()), \"O responsável pelo pagamento direto a suppliers deve ser da mesmo RBB_ID do contrato\");\n        resposibleForPayingBNDESSuppliers = rs;\n        emit FA_ManualIntervention_RoleOrAddress(rs, 4);\n    }\n\n\n\n}",
  "sourcePath": "/Users/suzana.moreno/workspace/rbb-token/Back-Blockchain/contracts/ESGBndesToken_BNDESRoles.sol",
  "compiler": {
    "name": "solc",
    "version": "0.6.12+commit.27d51765.Emscripten.clang"
  },
  "schemaVersion": "3.2.5",
  "updatedAt": "2020-11-03T18:41:29.122Z",
  "devdoc": {
    "kind": "dev",
    "methods": {
      "isOwner()": {
        "details": "Returns true if the caller is the current owner."
      },
      "owner()": {
        "details": "Returns the address of the current owner."
      },
      "renounceOwnership()": {
        "details": "Leaves the contract without owner. It will not be possible to call `onlyOwner` functions anymore. Can only be called by the current owner. NOTE: Renouncing ownership will leave the contract without an owner, thereby removing any functionality that is only available to the owner."
      },
      "transferOwnership(address)": {
        "details": "Transfers ownership of the contract to a new account (`newOwner`). Can only be called by the current owner."
      }
    },
    "version": 1
  },
  "userdoc": {
    "kind": "user",
    "methods": {},
    "version": 1
  }
}