{
  "contractName": "ESGBndesToken",
  "abi": [
    {
      "inputs": [
        {
          "internalType": "address",
          "name": "newrbbTokenAddr",
          "type": "address"
        },
        {
          "internalType": "address",
          "name": "addrBndesRoles",
          "type": "address"
        }
      ],
      "stateMutability": "nonpayable",
      "type": "constructor"
    },
    {
      "anonymous": false,
      "inputs": [
        {
          "indexed": false,
          "internalType": "uint256",
          "name": "toId",
          "type": "uint256"
        },
        {
          "indexed": false,
          "internalType": "uint256",
          "name": "amount",
          "type": "uint256"
        },
        {
          "indexed": false,
          "internalType": "bytes32",
          "name": "docHash",
          "type": "bytes32"
        }
      ],
      "name": "FA_BNDES_TokenTransfer",
      "type": "event"
    },
    {
      "anonymous": false,
      "inputs": [
        {
          "indexed": false,
          "internalType": "uint256",
          "name": "id",
          "type": "uint256"
        }
      ],
      "name": "FA_ClientAdded",
      "type": "event"
    },
    {
      "anonymous": false,
      "inputs": [
        {
          "indexed": false,
          "internalType": "uint256",
          "name": "idClient",
          "type": "uint256"
        },
        {
          "indexed": false,
          "internalType": "string",
          "name": "idFinancialSupportAgreement",
          "type": "string"
        },
        {
          "indexed": false,
          "internalType": "uint256",
          "name": "amount",
          "type": "uint256"
        },
        {
          "indexed": false,
          "internalType": "bytes32",
          "name": "docHash",
          "type": "bytes32"
        }
      ],
      "name": "FA_Disbursement",
      "type": "event"
    },
    {
      "anonymous": false,
      "inputs": [
        {
          "indexed": false,
          "internalType": "uint256",
          "name": "fromId",
          "type": "uint256"
        },
        {
          "indexed": false,
          "internalType": "bytes32",
          "name": "fromHash",
          "type": "bytes32"
        },
        {
          "indexed": false,
          "internalType": "uint256",
          "name": "toId",
          "type": "uint256"
        },
        {
          "indexed": false,
          "internalType": "bytes32",
          "name": "toHash",
          "type": "bytes32"
        },
        {
          "indexed": false,
          "internalType": "uint256",
          "name": "amount",
          "type": "uint256"
        },
        {
          "indexed": false,
          "internalType": "bytes32",
          "name": "docHash",
          "type": "bytes32"
        }
      ],
      "name": "FA_ExtraordinaryTransferAllowed",
      "type": "event"
    },
    {
      "anonymous": false,
      "inputs": [
        {
          "indexed": false,
          "internalType": "uint256",
          "name": "fromId",
          "type": "uint256"
        },
        {
          "indexed": false,
          "internalType": "bytes32",
          "name": "fromHash",
          "type": "bytes32"
        },
        {
          "indexed": false,
          "internalType": "uint256",
          "name": "toId",
          "type": "uint256"
        },
        {
          "indexed": false,
          "internalType": "bytes32",
          "name": "toHash",
          "type": "bytes32"
        },
        {
          "indexed": false,
          "internalType": "uint256",
          "name": "amount",
          "type": "uint256"
        },
        {
          "indexed": false,
          "internalType": "bytes32",
          "name": "docHash",
          "type": "bytes32"
        }
      ],
      "name": "FA_ExtraordinaryTransferExecuted",
      "type": "event"
    },
    {
      "anonymous": false,
      "inputs": [
        {
          "indexed": false,
          "internalType": "uint256",
          "name": "amount",
          "type": "uint256"
        },
        {
          "indexed": false,
          "internalType": "bytes32",
          "name": "docHash",
          "type": "bytes32"
        }
      ],
      "name": "FA_InitialAllocation_Disbursements",
      "type": "event"
    },
    {
      "anonymous": false,
      "inputs": [
        {
          "indexed": false,
          "internalType": "uint256",
          "name": "amount",
          "type": "uint256"
        },
        {
          "indexed": false,
          "internalType": "bytes32",
          "name": "docHash",
          "type": "bytes32"
        }
      ],
      "name": "FA_InitialAllocation_Fee",
      "type": "event"
    },
    {
      "anonymous": false,
      "inputs": [
        {
          "indexed": false,
          "internalType": "uint256",
          "name": "idInvestor",
          "type": "uint256"
        },
        {
          "indexed": false,
          "internalType": "uint256",
          "name": "amount",
          "type": "uint256"
        },
        {
          "indexed": false,
          "internalType": "bytes32",
          "name": "docHash",
          "type": "bytes32"
        }
      ],
      "name": "FA_InvestmentBooked",
      "type": "event"
    },
    {
      "anonymous": false,
      "inputs": [
        {
          "indexed": false,
          "internalType": "uint256",
          "name": "idInvestor",
          "type": "uint256"
        },
        {
          "indexed": false,
          "internalType": "uint256",
          "name": "amount",
          "type": "uint256"
        },
        {
          "indexed": false,
          "internalType": "bytes32",
          "name": "docHash",
          "type": "bytes32"
        }
      ],
      "name": "FA_InvestmentConfirmed",
      "type": "event"
    },
    {
      "anonymous": false,
      "inputs": [
        {
          "indexed": false,
          "internalType": "uint256",
          "name": "id",
          "type": "uint256"
        }
      ],
      "name": "FA_InvestorAdded",
      "type": "event"
    },
    {
      "anonymous": false,
      "inputs": [
        {
          "indexed": false,
          "internalType": "uint256",
          "name": "idClaimer",
          "type": "uint256"
        },
        {
          "indexed": false,
          "internalType": "uint256",
          "name": "amount",
          "type": "uint256"
        },
        {
          "indexed": false,
          "internalType": "bytes32",
          "name": "docHash",
          "type": "bytes32"
        }
      ],
      "name": "FA_RedemptionRequested",
      "type": "event"
    },
    {
      "anonymous": false,
      "inputs": [
        {
          "indexed": false,
          "internalType": "bytes32",
          "name": "redemptionTransactionHash",
          "type": "bytes32"
        },
        {
          "indexed": false,
          "internalType": "bytes32",
          "name": "docHash",
          "type": "bytes32"
        }
      ],
      "name": "FA_RedemptionSettlement",
      "type": "event"
    },
    {
      "anonymous": false,
      "inputs": [
        {
          "indexed": false,
          "internalType": "uint256",
          "name": "registeredBy",
          "type": "uint256"
        },
        {
          "indexed": false,
          "internalType": "uint256",
          "name": "id",
          "type": "uint256"
        }
      ],
      "name": "FA_SupplierAdded",
      "type": "event"
    },
    {
      "anonymous": false,
      "inputs": [
        {
          "indexed": false,
          "internalType": "uint256",
          "name": "fromId",
          "type": "uint256"
        },
        {
          "indexed": false,
          "internalType": "string",
          "name": "fromIdFinancialSupportAgreement",
          "type": "string"
        },
        {
          "indexed": false,
          "internalType": "uint256",
          "name": "toId",
          "type": "uint256"
        },
        {
          "indexed": false,
          "internalType": "uint256",
          "name": "amount",
          "type": "uint256"
        },
        {
          "indexed": false,
          "internalType": "bytes32",
          "name": "docHash",
          "type": "bytes32"
        }
      ],
      "name": "FA_TokenTransfer",
      "type": "event"
    },
    {
      "anonymous": false,
      "inputs": [
        {
          "indexed": true,
          "internalType": "address",
          "name": "previousOwner",
          "type": "address"
        },
        {
          "indexed": true,
          "internalType": "address",
          "name": "newOwner",
          "type": "address"
        }
      ],
      "name": "OwnershipTransferred",
      "type": "event"
    },
    {
      "anonymous": false,
      "inputs": [
        {
          "indexed": false,
          "internalType": "address",
          "name": "account",
          "type": "address"
        }
      ],
      "name": "Paused",
      "type": "event"
    },
    {
      "anonymous": false,
      "inputs": [
        {
          "indexed": false,
          "internalType": "address",
          "name": "account",
          "type": "address"
        }
      ],
      "name": "Unpaused",
      "type": "event"
    },
    {
      "inputs": [],
      "name": "BNDES_PAY_SUPPLIER_VERIFICATION",
      "outputs": [
        {
          "internalType": "string",
          "name": "",
          "type": "string"
        }
      ],
      "stateMutability": "view",
      "type": "function"
    },
    {
      "inputs": [],
      "name": "CLIENT_PAY_SUPPLIER_VERIFICATION",
      "outputs": [
        {
          "internalType": "string",
          "name": "",
          "type": "string"
        }
      ],
      "stateMutability": "view",
      "type": "function"
    },
    {
      "inputs": [],
      "name": "DISBURSEMENT_VERIFICATION",
      "outputs": [
        {
          "internalType": "string",
          "name": "",
          "type": "string"
        }
      ],
      "stateMutability": "view",
      "type": "function"
    },
    {
      "inputs": [],
      "name": "EXTRAORDINARY_TRANSFERS",
      "outputs": [
        {
          "internalType": "string",
          "name": "",
          "type": "string"
        }
      ],
      "stateMutability": "view",
      "type": "function"
    },
    {
      "inputs": [],
      "name": "INITIAL_ALLOCATION",
      "outputs": [
        {
          "internalType": "string",
          "name": "",
          "type": "string"
        }
      ],
      "stateMutability": "view",
      "type": "function"
    },
    {
      "inputs": [],
      "name": "RESERVED_BNDES_ADMIN_FEE_TO_HASH",
      "outputs": [
        {
          "internalType": "uint8",
          "name": "",
          "type": "uint8"
        }
      ],
      "stateMutability": "view",
      "type": "function"
    },
    {
      "inputs": [],
      "name": "RESERVED_MINTED_ACCOUNT",
      "outputs": [
        {
          "internalType": "uint8",
          "name": "",
          "type": "uint8"
        }
      ],
      "stateMutability": "view",
      "type": "function"
    },
    {
      "inputs": [],
      "name": "RESERVED_NO_ADDITIONAL_FIELDS_TO_DIFF_MONEY",
      "outputs": [
        {
          "internalType": "uint8",
          "name": "",
          "type": "uint8"
        }
      ],
      "stateMutability": "view",
      "type": "function"
    },
    {
      "inputs": [],
      "name": "RESERVED_NO_ADDITIONAL_FIELDS_TO_INVESTOR",
      "outputs": [
        {
          "internalType": "uint8",
          "name": "",
          "type": "uint8"
        }
      ],
      "stateMutability": "view",
      "type": "function"
    },
    {
      "inputs": [],
      "name": "RESERVED_NO_ADDITIONAL_FIELDS_TO_SUPPLIER",
      "outputs": [
        {
          "internalType": "uint8",
          "name": "",
          "type": "uint8"
        }
      ],
      "stateMutability": "view",
      "type": "function"
    },
    {
      "inputs": [],
      "name": "RESERVED_USUAL_DISBURSEMENTS_ACCOUNT",
      "outputs": [
        {
          "internalType": "uint8",
          "name": "",
          "type": "uint8"
        }
      ],
      "stateMutability": "view",
      "type": "function"
    },
    {
      "inputs": [],
      "name": "bndesRoles",
      "outputs": [
        {
          "internalType": "contract ESGBndesToken_BNDESRoles",
          "name": "",
          "type": "address"
        }
      ],
      "stateMutability": "view",
      "type": "function"
    },
    {
      "inputs": [
        {
          "internalType": "uint256",
          "name": "",
          "type": "uint256"
        },
        {
          "internalType": "string",
          "name": "",
          "type": "string"
        }
      ],
      "name": "clients",
      "outputs": [
        {
          "internalType": "bool",
          "name": "",
          "type": "bool"
        }
      ],
      "stateMutability": "view",
      "type": "function"
    },
    {
      "inputs": [
        {
          "internalType": "uint256",
          "name": "",
          "type": "uint256"
        }
      ],
      "name": "hashApprovedExtraordinaryTransfers",
      "outputs": [
        {
          "internalType": "bytes32",
          "name": "",
          "type": "bytes32"
        }
      ],
      "stateMutability": "view",
      "type": "function"
    },
    {
      "inputs": [
        {
          "internalType": "bytes32",
          "name": "",
          "type": "bytes32"
        }
      ],
      "name": "hashToIdFinancialSupportAgreement",
      "outputs": [
        {
          "internalType": "string",
          "name": "",
          "type": "string"
        }
      ],
      "stateMutability": "view",
      "type": "function"
    },
    {
      "inputs": [
        {
          "internalType": "uint256",
          "name": "",
          "type": "uint256"
        }
      ],
      "name": "investors",
      "outputs": [
        {
          "internalType": "bool",
          "name": "",
          "type": "bool"
        }
      ],
      "stateMutability": "view",
      "type": "function"
    },
    {
      "inputs": [],
      "name": "owner",
      "outputs": [
        {
          "internalType": "address",
          "name": "",
          "type": "address"
        }
      ],
      "stateMutability": "view",
      "type": "function"
    },
    {
      "inputs": [],
      "name": "paused",
      "outputs": [
        {
          "internalType": "bool",
          "name": "",
          "type": "bool"
        }
      ],
      "stateMutability": "view",
      "type": "function"
    },
    {
      "inputs": [],
      "name": "rbbToken",
      "outputs": [
        {
          "internalType": "contract RBBToken",
          "name": "",
          "type": "address"
        }
      ],
      "stateMutability": "view",
      "type": "function"
    },
    {
      "inputs": [],
      "name": "registry",
      "outputs": [
        {
          "internalType": "contract RBBRegistry",
          "name": "",
          "type": "address"
        }
      ],
      "stateMutability": "view",
      "type": "function"
    },
    {
      "inputs": [],
      "name": "renounceOwnership",
      "outputs": [],
      "stateMutability": "nonpayable",
      "type": "function"
    },
    {
      "inputs": [
        {
          "internalType": "address",
          "name": "newRegistryAddr",
          "type": "address"
        }
      ],
      "name": "setInitializationDataDuringRegistration",
      "outputs": [],
      "stateMutability": "nonpayable",
      "type": "function"
    },
    {
      "inputs": [
        {
          "internalType": "uint256",
          "name": "",
          "type": "uint256"
        }
      ],
      "name": "suppliers",
      "outputs": [
        {
          "internalType": "bool",
          "name": "",
          "type": "bool"
        }
      ],
      "stateMutability": "view",
      "type": "function"
    },
    {
      "inputs": [
        {
          "internalType": "address",
          "name": "newOwner",
          "type": "address"
        }
      ],
      "name": "transferOwnership",
      "outputs": [],
      "stateMutability": "nonpayable",
      "type": "function"
    },
    {
      "inputs": [
        {
          "internalType": "uint256",
          "name": "amount",
          "type": "uint256"
        },
        {
          "internalType": "bytes32",
          "name": "docHash",
          "type": "bytes32"
        }
      ],
      "name": "bookInvestment",
      "outputs": [],
      "stateMutability": "nonpayable",
      "type": "function"
    },
    {
      "inputs": [
        {
          "internalType": "uint256",
          "name": "idInvestor",
          "type": "uint256"
        },
        {
          "internalType": "bytes32",
          "name": "specificHash",
          "type": "bytes32"
        },
        {
          "internalType": "uint256",
          "name": "amount",
          "type": "uint256"
        },
        {
          "internalType": "bytes32",
          "name": "docHash",
          "type": "bytes32"
        },
        {
          "internalType": "string[]",
          "name": "data",
          "type": "string[]"
        }
      ],
      "name": "verifyAndActForMint",
      "outputs": [],
      "stateMutability": "nonpayable",
      "type": "function"
    },
    {
      "inputs": [
        {
          "internalType": "bytes32",
          "name": "specificHash",
          "type": "bytes32"
        }
      ],
      "name": "getHashToMintedAccount",
      "outputs": [
        {
          "internalType": "bytes32",
          "name": "",
          "type": "bytes32"
        }
      ],
      "stateMutability": "nonpayable",
      "type": "function"
    },
    {
      "inputs": [
        {
          "internalType": "address",
          "name": "originalSender",
          "type": "address"
        },
        {
          "internalType": "uint256",
          "name": "fromId",
          "type": "uint256"
        },
        {
          "internalType": "bytes32",
          "name": "fromHash",
          "type": "bytes32"
        },
        {
          "internalType": "uint256",
          "name": "toId",
          "type": "uint256"
        },
        {
          "internalType": "bytes32",
          "name": "toHash",
          "type": "bytes32"
        },
        {
          "internalType": "uint256",
          "name": "amount",
          "type": "uint256"
        },
        {
          "internalType": "bytes32",
          "name": "docHash",
          "type": "bytes32"
        },
        {
          "internalType": "string[]",
          "name": "data",
          "type": "string[]"
        }
      ],
      "name": "verifyAndActForTransfer",
      "outputs": [],
      "stateMutability": "nonpayable",
      "type": "function"
    },
    {
      "inputs": [
        {
          "internalType": "address",
          "name": "originalSender",
          "type": "address"
        },
        {
          "internalType": "uint256",
          "name": "fromId",
          "type": "uint256"
        },
        {
          "internalType": "bytes32",
          "name": "fromHash",
          "type": "bytes32"
        },
        {
          "internalType": "uint256",
          "name": "amount",
          "type": "uint256"
        },
        {
          "internalType": "bytes32",
          "name": "docHash",
          "type": "bytes32"
        },
        {
          "internalType": "string[]",
          "name": "data",
          "type": "string[]"
        }
      ],
      "name": "verifyAndActForRedeem",
      "outputs": [],
      "stateMutability": "nonpayable",
      "type": "function"
    },
    {
      "inputs": [
        {
          "internalType": "bytes32",
          "name": "redemptionTransactionHash",
          "type": "bytes32"
        },
        {
          "internalType": "bytes32",
          "name": "docHash",
          "type": "bytes32"
        },
        {
          "internalType": "string[]",
          "name": "data",
          "type": "string[]"
        }
      ],
      "name": "verifyAndActForRedemptionSettlement",
      "outputs": [],
      "stateMutability": "nonpayable",
      "type": "function"
    },
    {
      "inputs": [
        {
          "internalType": "uint256",
          "name": "info",
          "type": "uint256"
        }
      ],
      "name": "getCalculatedHash",
      "outputs": [
        {
          "internalType": "bytes32",
          "name": "",
          "type": "bytes32"
        }
      ],
      "stateMutability": "pure",
      "type": "function"
    },
    {
      "inputs": [
        {
          "internalType": "string",
          "name": "info",
          "type": "string"
        }
      ],
      "name": "getCalculatedHash",
      "outputs": [
        {
          "internalType": "bytes32",
          "name": "",
          "type": "bytes32"
        }
      ],
      "stateMutability": "pure",
      "type": "function"
    },
    {
      "inputs": [
        {
          "internalType": "uint256",
          "name": "fromId",
          "type": "uint256"
        },
        {
          "internalType": "bytes32",
          "name": "fromHash",
          "type": "bytes32"
        },
        {
          "internalType": "uint256",
          "name": "toId",
          "type": "uint256"
        },
        {
          "internalType": "bytes32",
          "name": "toHash",
          "type": "bytes32"
        },
        {
          "internalType": "uint256",
          "name": "amount",
          "type": "uint256"
        },
        {
          "internalType": "bytes32",
          "name": "docHash",
          "type": "bytes32"
        }
      ],
      "name": "authorizeExtraordinaryTransfer",
      "outputs": [],
      "stateMutability": "nonpayable",
      "type": "function"
    },
    {
      "inputs": [
        {
          "internalType": "uint256",
          "name": "idInvestor",
          "type": "uint256"
        }
      ],
      "name": "addInvestor",
      "outputs": [],
      "stateMutability": "nonpayable",
      "type": "function"
    }
  ],
  "bytecode": "0x60806040526040518060400160405280601281526020017f494e495449414c5f414c4c4f434154494f4e00000000000000000000000000008152506009908051906020019062000051929190620003c1565b506040518060400160405280601981526020017f44495342555253454d454e545f564552494649434154494f4e00000000000000815250600a90805190602001906200009f929190620003c1565b506040518060400160405280602081526020017f434c49454e545f5041595f535550504c4945525f564552494649434154494f4e815250600b9080519060200190620000ed929190620003c1565b506040518060400160405280601f81526020017f424e4445535f5041595f535550504c4945525f564552494649434154494f4e00815250600c90805190602001906200013b929190620003c1565b506040518060400160405280601781526020017f45585452414f5244494e4152595f5452414e5346455253000000000000000000815250600d908051906020019062000189929190620003c1565b506000600e60006101000a81548160ff021916908360ff1602179055506001600e60016101000a81548160ff021916908360ff1602179055506002600e60026101000a81548160ff021916908360ff160217905550600a600e60036101000a81548160ff021916908360ff1602179055506014600e60046101000a81548160ff021916908360ff160217905550601e600e60056101000a81548160ff021916908360ff1602179055503480156200023f57600080fd5b5060405162005b3038038062005b3083398181016040528101906200026591906200047e565b600062000277620003b960201b60201c565b9050806000806101000a81548173ffffffffffffffffffffffffffffffffffffffff021916908373ffffffffffffffffffffffffffffffffffffffff1602179055508073ffffffffffffffffffffffffffffffffffffffff16600073ffffffffffffffffffffffffffffffffffffffff167f8be0079c531659141344cd1fd0a4f28419497f9722a3daafe3b4186f6b6457e060405160405180910390a35060008060146101000a81548160ff02191690831515021790555081600260006101000a81548173ffffffffffffffffffffffffffffffffffffffff021916908373ffffffffffffffffffffffffffffffffffffffff16021790555080600360006101000a81548173ffffffffffffffffffffffffffffffffffffffff021916908373ffffffffffffffffffffffffffffffffffffffff16021790555050506200050d565b600033905090565b828054600181600116156101000203166002900490600052602060002090601f016020900481019282601f106200040457805160ff191683800117855562000435565b8280016001018555821562000435579182015b828111156200043457825182559160200191906001019062000417565b5b50905062000444919062000448565b5090565b5b808211156200046357600081600090555060010162000449565b5090565b6000815190506200047881620004f3565b92915050565b600080604083850312156200049257600080fd5b6000620004a28582860162000467565b9250506020620004b58582860162000467565b9150509250929050565b6000620004cc82620004d3565b9050919050565b600073ffffffffffffffffffffffffffffffffffffffff82169050919050565b620004fe81620004bf565b81146200050a57600080fd5b50565b615613806200051d6000396000f3fe608060405234801561001057600080fd5b50600436106102065760003560e01c80638da5cb5b1161011a578063cd541b7a116100ad578063e04e624b1161007c578063e04e624b146105b9578063e4c7426f146105e9578063f2fde38b14610607578063fa7ca7ea14610623578063fc4b505d1461065357610206565b8063cd541b7a1461050b578063cea231211461053b578063daeb1cc91461056b578063df8d2abf1461059b57610206565b8063a6ee26e1116100e9578063a6ee26e114610485578063b201a777146104a1578063ba6ad853146104bf578063cc70091a146104db57610206565b80638da5cb5b146103fb5780638e66948114610419578063942429e4146104375780639eed3ad91461046757610206565b80635a961b151161019d5780636f3050671161016c5780636f3050671461037b578063715018a6146103995780637b103999146103a35780637ebf6830146103c15780638404e6e0146103dd57610206565b80635a961b15146103055780635c975abb146103235780635f23e09e1461034157806367da3e851461035d57610206565b806324547b8a116101d957806324547b8a1461027f5780633feb5f2b1461029d57806341574b3b146102cd57806355a2456e146102e957610206565b80630715aa6e1461020b57806307728f0f146102295780630990da73146102475780632133ca9014610263575b600080fd5b610213610671565b6040516102209190615330565b60405180910390f35b610231610684565b60405161023e9190614d4c565b60405180910390f35b610261600480360381019061025c9190613a67565b610722565b005b61027d60048036038101906102789190613a2b565b610900565b005b610287610b52565b6040516102949190615330565b60405180910390f35b6102b760048036038101906102b291906139d9565b610b65565b6040516102c49190614c57565b60405180910390f35b6102e760048036038101906102e29190613815565b610b85565b005b61030360048036038101906102fe9190613722565b611046565b005b61030d61108a565b60405161031a9190614d4c565b60405180910390f35b61032b611128565b6040516103389190614c57565b60405180910390f35b61035b60048036038101906103569190613af6565b61113e565b005b610365611383565b6040516103729190614d4c565b60405180910390f35b610383611421565b6040516103909190615330565b60405180910390f35b6103a1611434565b005b6103ab611587565b6040516103b89190614d16565b60405180910390f35b6103db60048036038101906103d691906139d9565b6115ad565b005b6103e56117f3565b6040516103f29190615330565b60405180910390f35b610403611806565b6040516104109190614c21565b60405180910390f35b61042161182f565b60405161042e9190614d4c565b60405180910390f35b610451600480360381019061044c91906139d9565b6118cd565b60405161045e9190614c72565b60405180910390f35b61046f6118fd565b60405161047c9190615330565b60405180910390f35b61049f600480360381019061049a9190613931565b611910565b005b6104a9611a2e565b6040516104b69190615330565b60405180910390f35b6104d960048036038101906104d49190613774565b611a41565b005b6104f560048036038101906104f09190613998565b611c63565b6040516105029190614c72565b60405180910390f35b61052560048036038101906105209190613908565b611c93565b6040516105329190614c72565b60405180910390f35b610555600480360381019061055091906139d9565b611cb7565b6040516105629190614c57565b60405180910390f35b61058560048036038101906105809190613b7f565b611cd7565b6040516105929190614c57565b60405180910390f35b6105a3611d1c565b6040516105b09190614cfb565b60405180910390f35b6105d360048036038101906105ce9190613908565b611d42565b6040516105e09190614d4c565b60405180910390f35b6105f1611df2565b6040516105fe9190614d31565b60405180910390f35b610621600480360381019061061c9190613722565b611e18565b005b61063d600480360381019061063891906139d9565b611fda565b60405161064a9190614c72565b60405180910390f35b61065b611ffb565b6040516106689190614d4c565b60405180910390f35b600e60009054906101000a900460ff1681565b60098054600181600116156101000203166002900480601f01602080910402602001604051908101604052809291908181526020018280546001816001161561010002031660029004801561071a5780601f106106ef5761010080835404028352916020019161071a565b820191906000526020600020905b8154815290600101906020018083116106fd57829003601f168201915b505050505081565b600060149054906101000a900460ff1615610772576040517f08c379a000000000000000000000000000000000000000000000000000000000815260040161076990614f05565b60405180910390fd5b600260009054906101000a900473ffffffffffffffffffffffffffffffffffffffff1673ffffffffffffffffffffffffffffffffffffffff163373ffffffffffffffffffffffffffffffffffffffff1614610802576040517f08c379a00000000000000000000000000000000000000000000000000000000081526004016107f990615105565b60405180910390fd5b8361081e600e60059054906101000a900460ff1660ff166118cd565b1461085e576040517f08c379a000000000000000000000000000000000000000000000000000000000815260040161085590614fa5565b60405180910390fd5b6004600086815260200190815260200160002060009054906101000a900460ff166108be576040517f08c379a00000000000000000000000000000000000000000000000000000000081526004016108b590615025565b60405180910390fd5b7fadbb44b3990a5ee272d4d16d6e02c412384a9fa9fb98c2c95d6baa4b009419838584846040516108f1939291906152f9565b60405180910390a15050505050565b600060149054906101000a900460ff1615610950576040517f08c379a000000000000000000000000000000000000000000000000000000000815260040161094790614f05565b60405180910390fd5b6000600160009054906101000a900473ffffffffffffffffffffffffffffffffffffffff1673ffffffffffffffffffffffffffffffffffffffff166365f68c89336040518263ffffffff1660e01b81526004016109ad9190614c3c565b60206040518083038186803b1580156109c557600080fd5b505afa1580156109d9573d6000803e3d6000fd5b505050506040513d601f19601f820116820180604052508101906109fd9190613a02565b90506004600082815260200190815260200160002060009054906101000a900460ff16610a5f576040517f08c379a0000000000000000000000000000000000000000000000000000000008152600401610a5690615145565b60405180910390fd5b6000610a7c600e60059054906101000a900460ff1660ff166118cd565b9050600260009054906101000a900473ffffffffffffffffffffffffffffffffffffffff1673ffffffffffffffffffffffffffffffffffffffff166304cc4d8e828487876040518563ffffffff1660e01b8152600401610adf9493929190614cb6565b600060405180830381600087803b158015610af957600080fd5b505af1158015610b0d573d6000803e3d6000fd5b505050507f32f1e22a0e84584b50065d5a6100cf373d794ef3c7cab1497e8259a77d2a0380828585604051610b44939291906152f9565b60405180910390a150505050565b600e60019054906101000a900460ff1681565b60046020528060005260406000206000915054906101000a900460ff1681565b600060149054906101000a900460ff1615610bd5576040517f08c379a0000000000000000000000000000000000000000000000000000000008152600401610bcc90614f05565b60405180910390fd5b600260009054906101000a900473ffffffffffffffffffffffffffffffffffffffff1673ffffffffffffffffffffffffffffffffffffffff163373ffffffffffffffffffffffffffffffffffffffff1614610c65576040517f08c379a0000000000000000000000000000000000000000000000000000000008152600401610c5c90615105565b60405180910390fd5b606081600081518110610c7457fe5b6020026020010151905060008411610cc1576040517f08c379a0000000000000000000000000000000000000000000000000000000008152600401610cb890614ea5565b60405180910390fd5b73__RBBLib________________________________63465c41056009836040518363ffffffff1660e01b8152600401610cfb929190614d6e565b60206040518083038186803b158015610d1357600080fd5b505af4158015610d27573d6000803e3d6000fd5b505050506040513d601f19601f82011682018060405250810190610d4b91906138df565b15610d6557610d608989898989898989612099565b61103b565b73__RBBLib________________________________63465c4105600a836040518363ffffffff1660e01b8152600401610d9f929190614d6e565b60206040518083038186803b158015610db757600080fd5b505af4158015610dcb573d6000803e3d6000fd5b505050506040513d601f19601f82011682018060405250810190610def91906138df565b15610e0957610e04898989898989898961249a565b61103a565b73__RBBLib________________________________63465c4105600b836040518363ffffffff1660e01b8152600401610e43929190614d6e565b60206040518083038186803b158015610e5b57600080fd5b505af4158015610e6f573d6000803e3d6000fd5b505050506040513d601f19601f82011682018060405250810190610e9391906138df565b15610ead57610ea88989898989898989612801565b611039565b73__RBBLib________________________________63465c4105600c836040518363ffffffff1660e01b8152600401610ee7929190614d6e565b60206040518083038186803b158015610eff57600080fd5b505af4158015610f13573d6000803e3d6000fd5b505050506040513d601f19601f82011682018060405250810190610f3791906138df565b15610f5157610f4c8989898989898989612a23565b611038565b73__RBBLib________________________________63465c4105600d836040518363ffffffff1660e01b8152600401610f8b929190614d6e565b60206040518083038186803b158015610fa357600080fd5b505af4158015610fb7573d6000803e3d6000fd5b505050506040513d601f19601f82011682018060405250810190610fdb91906138df565b15610ff557610ff08989898989898989612dbd565b611037565b6000611036576040517f08c379a000000000000000000000000000000000000000000000000000000000815260040161102d90615005565b60405180910390fd5b5b5b5b5b5b505050505050505050565b80600160006101000a81548173ffffffffffffffffffffffffffffffffffffffff021916908373ffffffffffffffffffffffffffffffffffffffff16021790555050565b600d8054600181600116156101000203166002900480601f0160208091040260200160405190810160405280929190818152602001828054600181600116156101000203166002900480156111205780601f106110f557610100808354040283529160200191611120565b820191906000526020600020905b81548152906001019060200180831161110357829003601f168201915b505050505081565b60008060149054906101000a900460ff16905090565b3373ffffffffffffffffffffffffffffffffffffffff16600360009054906101000a900473ffffffffffffffffffffffffffffffffffffffff1673ffffffffffffffffffffffffffffffffffffffff16630b2e8fe96040518163ffffffff1660e01b815260040160206040518083038186803b1580156111bd57600080fd5b505afa1580156111d1573d6000803e3d6000fd5b505050506040513d601f19601f820116820180604052508101906111f5919061374b565b73ffffffffffffffffffffffffffffffffffffffff161461124b576040517f08c379a000000000000000000000000000000000000000000000000000000000815260040161124290614e65565b60405180910390fd5b6112558686613002565b611294576040517f08c379a000000000000000000000000000000000000000000000000000000000815260040161128b90614f65565b60405180910390fd5b61129e8484613002565b6112dd576040517f08c379a00000000000000000000000000000000000000000000000000000000081526004016112d490614da5565b60405180910390fd5b600086868686866040516020016112f8959493929190614bc2565b60405160208183030381529060405280519060200120905060088190806001815401808255809150506001900390600052602060002001600090919091909150557f8fbc7818210c8d0cab55b36028efc60a3f6e71aa8ad8a2abb88cd9ba5f816735878787878787604051611372969594939291906151c9565b60405180910390a150505050505050565b600b8054600181600116156101000203166002900480601f0160208091040260200160405190810160405280929190818152602001828054600181600116156101000203166002900480156114195780601f106113ee57610100808354040283529160200191611419565b820191906000526020600020905b8154815290600101906020018083116113fc57829003601f168201915b505050505081565b600e60029054906101000a900460ff1681565b61143c6133ad565b73ffffffffffffffffffffffffffffffffffffffff1660008054906101000a900473ffffffffffffffffffffffffffffffffffffffff1673ffffffffffffffffffffffffffffffffffffffff16146114c9576040517f08c379a00000000000000000000000000000000000000000000000000000000081526004016114c090614fe5565b60405180910390fd5b600073ffffffffffffffffffffffffffffffffffffffff1660008054906101000a900473ffffffffffffffffffffffffffffffffffffffff1673ffffffffffffffffffffffffffffffffffffffff167f8be0079c531659141344cd1fd0a4f28419497f9722a3daafe3b4186f6b6457e060405160405180910390a360008060006101000a81548173ffffffffffffffffffffffffffffffffffffffff021916908373ffffffffffffffffffffffffffffffffffffffff160217905550565b600160009054906101000a900473ffffffffffffffffffffffffffffffffffffffff1681565b6115b56133ad565b73ffffffffffffffffffffffffffffffffffffffff1660008054906101000a900473ffffffffffffffffffffffffffffffffffffffff1673ffffffffffffffffffffffffffffffffffffffff1614611642576040517f08c379a000000000000000000000000000000000000000000000000000000000815260040161163990614fe5565b60405180910390fd5b600160009054906101000a900473ffffffffffffffffffffffffffffffffffffffff1673ffffffffffffffffffffffffffffffffffffffff1663087d4427826040518263ffffffff1660e01b815260040161169d9190615185565b60206040518083038186803b1580156116b557600080fd5b505afa1580156116c9573d6000803e3d6000fd5b505050506040513d601f19601f820116820180604052508101906116ed91906138df565b61172c576040517f08c379a000000000000000000000000000000000000000000000000000000000815260040161172390614fc5565b60405180910390fd5b6004600082815260200190815260200160002060009054906101000a900460ff161561178d576040517f08c379a000000000000000000000000000000000000000000000000000000000815260040161178490615125565b60405180910390fd5b60016004600083815260200190815260200160002060006101000a81548160ff0219169083151502179055507fd9c26130cd486a63c174ea1059ce24d8dbe984e02df92bd7dadaa69fd271ec95816040516117e89190615185565b60405180910390a150565b600e60049054906101000a900460ff1681565b60008060009054906101000a900473ffffffffffffffffffffffffffffffffffffffff16905090565b600a8054600181600116156101000203166002900480601f0160208091040260200160405190810160405280929190818152602001828054600181600116156101000203166002900480156118c55780601f1061189a576101008083540402835291602001916118c5565b820191906000526020600020905b8154815290600101906020018083116118a857829003601f168201915b505050505081565b6000816040516020016118e09190614ba7565b604051602081830303815290604052805190602001209050919050565b600e60039054906101000a900460ff1681565b600060149054906101000a900460ff1615611960576040517f08c379a000000000000000000000000000000000000000000000000000000000815260040161195790614f05565b60405180910390fd5b600260009054906101000a900473ffffffffffffffffffffffffffffffffffffffff1673ffffffffffffffffffffffffffffffffffffffff163373ffffffffffffffffffffffffffffffffffffffff16146119f0576040517f08c379a00000000000000000000000000000000000000000000000000000000081526004016119e790615105565b60405180910390fd5b7ff2117f45bb026f7f165d939836d0293bad4b8aaf2e658cb38900da27a81306558383604051611a21929190614c8d565b60405180910390a1505050565b600e60059054906101000a900460ff1681565b600060149054906101000a900460ff1615611a91576040517f08c379a0000000000000000000000000000000000000000000000000000000008152600401611a8890614f05565b60405180910390fd5b600260009054906101000a900473ffffffffffffffffffffffffffffffffffffffff1673ffffffffffffffffffffffffffffffffffffffff163373ffffffffffffffffffffffffffffffffffffffff1614611b21576040517f08c379a0000000000000000000000000000000000000000000000000000000008152600401611b1890615105565b60405180910390fd5b60008311611b64576040517f08c379a0000000000000000000000000000000000000000000000000000000008152600401611b5b90614ea5565b60405180910390fd5b6007600086815260200190815260200160002060009054906101000a900460ff16611bc4576040517f08c379a0000000000000000000000000000000000000000000000000000000008152600401611bbb90614e85565b60405180910390fd5b83611be0600e60049054906101000a900460ff1660ff166118cd565b14611c20576040517f08c379a0000000000000000000000000000000000000000000000000000000008152600401611c1790614ee5565b60405180910390fd5b7fb30495d559e05f5f1c993ea722cb239b6d85f70ed9c914b8350c4b94feed7ccd858484604051611c53939291906152f9565b60405180910390a1505050505050565b600081604051602001611c769190614b90565b604051602081830303815290604052805190602001209050919050565b6000611cb0600e60009054906101000a900460ff1660ff166118cd565b9050919050565b60076020528060005260406000206000915054906101000a900460ff1681565b6005602052816000526040600020818051602081018201805184825260208301602085012081835280955050505050506000915091509054906101000a900460ff1681565b600360009054906101000a900473ffffffffffffffffffffffffffffffffffffffff1681565b60066020528060005260406000206000915090508054600181600116156101000203166002900480601f016020809104026020016040519081016040528092919081815260200182805460018160011615610100020316600290048015611dea5780601f10611dbf57610100808354040283529160200191611dea565b820191906000526020600020905b815481529060010190602001808311611dcd57829003601f168201915b505050505081565b600260009054906101000a900473ffffffffffffffffffffffffffffffffffffffff1681565b611e206133ad565b73ffffffffffffffffffffffffffffffffffffffff1660008054906101000a900473ffffffffffffffffffffffffffffffffffffffff1673ffffffffffffffffffffffffffffffffffffffff1614611ead576040517f08c379a0000000000000000000000000000000000000000000000000000000008152600401611ea490614fe5565b60405180910390fd5b600073ffffffffffffffffffffffffffffffffffffffff168173ffffffffffffffffffffffffffffffffffffffff161415611f1d576040517f08c379a0000000000000000000000000000000000000000000000000000000008152600401611f1490614e25565b60405180910390fd5b8073ffffffffffffffffffffffffffffffffffffffff1660008054906101000a900473ffffffffffffffffffffffffffffffffffffffff1673ffffffffffffffffffffffffffffffffffffffff167f8be0079c531659141344cd1fd0a4f28419497f9722a3daafe3b4186f6b6457e060405160405180910390a3806000806101000a81548173ffffffffffffffffffffffffffffffffffffffff021916908373ffffffffffffffffffffffffffffffffffffffff16021790555050565b60088181548110611fe757fe5b906000526020600020016000915090505481565b600c8054600181600116156101000203166002900480601f0160208091040260200160405190810160405280929190818152602001828054600181600116156101000203166002900480156120915780601f1061206657610100808354040283529160200191612091565b820191906000526020600020905b81548152906001019060200180831161207457829003601f168201915b505050505081565b600060149054906101000a900460ff16156120e9576040517f08c379a00000000000000000000000000000000000000000000000000000000081526004016120e090614f05565b60405180910390fd5b8773ffffffffffffffffffffffffffffffffffffffff16600360009054906101000a900473ffffffffffffffffffffffffffffffffffffffff1673ffffffffffffffffffffffffffffffffffffffff1663329afd3a6040518163ffffffff1660e01b815260040160206040518083038186803b15801561216857600080fd5b505afa15801561217c573d6000803e3d6000fd5b505050506040513d601f19601f820116820180604052508101906121a0919061374b565b73ffffffffffffffffffffffffffffffffffffffff16146121f6576040517f08c379a00000000000000000000000000000000000000000000000000000000081526004016121ed90615065565b60405180910390fd5b6000600160009054906101000a900473ffffffffffffffffffffffffffffffffffffffff1673ffffffffffffffffffffffffffffffffffffffff166365f68c8961223e611806565b6040518263ffffffff1660e01b815260040161225a9190614c21565b60206040518083038186803b15801561227257600080fd5b505afa158015612286573d6000803e3d6000fd5b505050506040513d601f19601f820116820180604052508101906122aa9190613a02565b90508088146122ee576040517f08c379a00000000000000000000000000000000000000000000000000000000081526004016122e5906150c5565b60405180910390fd5b612309600e60009054906101000a900460ff1660ff166118cd565b871461234a576040517f08c379a0000000000000000000000000000000000000000000000000000000008152600401612341906150a5565b60405180910390fd5b85881461238c576040517f08c379a000000000000000000000000000000000000000000000000000000000815260040161238390614f85565b60405180910390fd5b6123a7600e60019054906101000a900460ff1660ff166118cd565b8514156123ec577f94d89c2ff047eba28eb56cacf5a8e292f150c43e792d648d54f8b93372849b3c84846040516123df9291906151a0565b60405180910390a161248f565b612407600e60029054906101000a900460ff1660ff166118cd565b85141561244c577f7916e578b526c14777538bb519e208901510a7ff7765e2e339258b6ba65272fc848460405161243f9291906151a0565b60405180910390a161248e565b600061248d576040517f08c379a0000000000000000000000000000000000000000000000000000000008152600401612484906150e5565b60405180910390fd5b5b5b505050505050505050565b600060149054906101000a900460ff16156124ea576040517f08c379a00000000000000000000000000000000000000000000000000000000081526004016124e190614f05565b60405180910390fd5b6060816001815181106124f957fe5b602002602001015190506000600160009054906101000a900473ffffffffffffffffffffffffffffffffffffffff1673ffffffffffffffffffffffffffffffffffffffff166365f68c8961254b611806565b6040518263ffffffff1660e01b81526004016125679190614c21565b60206040518083038186803b15801561257f57600080fd5b505afa158015612593573d6000803e3d6000fd5b505050506040513d601f19601f820116820180604052508101906125b79190613a02565b9050600360009054906101000a900473ffffffffffffffffffffffffffffffffffffffff1673ffffffffffffffffffffffffffffffffffffffff16638cabf1286040518163ffffffff1660e01b815260040160206040518083038186803b15801561262157600080fd5b505afa158015612635573d6000803e3d6000fd5b505050506040513d601f19601f82011682018060405250810190612659919061374b565b73ffffffffffffffffffffffffffffffffffffffff168a73ffffffffffffffffffffffffffffffffffffffff16146126c6576040517f08c379a00000000000000000000000000000000000000000000000000000000081526004016126bd90614f25565b60405180910390fd5b808914612708576040517f08c379a00000000000000000000000000000000000000000000000000000000081526004016126ff906150c5565b60405180910390fd5b87612724600e60019054906101000a900460ff1660ff166118cd565b14612764576040517f08c379a000000000000000000000000000000000000000000000000000000000815260040161275b90614e45565b60405180910390fd5b8561276e83611c63565b146127ae576040517f08c379a00000000000000000000000000000000000000000000000000000000081526004016127a590615165565b60405180910390fd5b6127b887836133b5565b7fe08d0d3d48ef9857108be67cfe715057ce9b455eaf3a4d3b66f34bf148311d7a878387876040516127ed949392919061522a565b60405180910390a150505050505050505050565b600060149054906101000a900460ff1615612851576040517f08c379a000000000000000000000000000000000000000000000000000000000815260040161284890614f05565b60405180910390fd5b60608160018151811061286057fe5b60200260200101519050600560008981526020019081526020016000208160405161288b9190614b90565b908152602001604051809103902060009054906101000a900460ff166128e6576040517f08c379a00000000000000000000000000000000000000000000000000000000081526004016128dd90614de5565b60405180910390fd5b866128f082611c63565b14612930576040517f08c379a000000000000000000000000000000000000000000000000000000000815260040161292790615165565b60405180910390fd5b8461294c600e60049054906101000a900460ff1660ff166118cd565b1461298c576040517f08c379a000000000000000000000000000000000000000000000000000000000815260040161298390614ee5565b60405180910390fd5b858814156129cf576040517f08c379a00000000000000000000000000000000000000000000000000000000081526004016129c690614f45565b60405180910390fd5b6129d988876134b0565b7fdd62ead748da3466d84db25e6f55c3213f29aaf5c159d4d576018cd8420978268882888787604051612a10959493929190615276565b60405180910390a1505050505050505050565b600060149054906101000a900460ff1615612a73576040517f08c379a0000000000000000000000000000000000000000000000000000000008152600401612a6a90614f05565b60405180910390fd5b600160009054906101000a900473ffffffffffffffffffffffffffffffffffffffff1673ffffffffffffffffffffffffffffffffffffffff166365f68c89612ab9611806565b6040518263ffffffff1660e01b8152600401612ad59190614c21565b60206040518083038186803b158015612aed57600080fd5b505afa158015612b01573d6000803e3d6000fd5b505050506040513d601f19601f82011682018060405250810190612b259190613a02565b8714612b66576040517f08c379a0000000000000000000000000000000000000000000000000000000008152600401612b5d90614e05565b60405180910390fd5b600360009054906101000a900473ffffffffffffffffffffffffffffffffffffffff1673ffffffffffffffffffffffffffffffffffffffff1663e38d4ef76040518163ffffffff1660e01b815260040160206040518083038186803b158015612bce57600080fd5b505afa158015612be2573d6000803e3d6000fd5b505050506040513d601f19601f82011682018060405250810190612c06919061374b565b73ffffffffffffffffffffffffffffffffffffffff168873ffffffffffffffffffffffffffffffffffffffff1614612c73576040517f08c379a0000000000000000000000000000000000000000000000000000000008152600401612c6a90614ec5565b60405180910390fd5b85612c8f600e60029054906101000a900460ff1660ff166118cd565b14612ccf576040517f08c379a0000000000000000000000000000000000000000000000000000000008152600401612cc690615085565b60405180910390fd5b83612ceb600e60049054906101000a900460ff1660ff166118cd565b14612d2b576040517f08c379a0000000000000000000000000000000000000000000000000000000008152600401612d2290614ee5565b60405180910390fd5b84871415612d6e576040517f08c379a0000000000000000000000000000000000000000000000000000000008152600401612d6590615045565b60405180910390fd5b612d7887866134b0565b7f8316c04a0a2b1e71f63264f2f0380d43ae9f758672a97012d6880fcedcb54232858484604051612dab939291906152f9565b60405180910390a15050505050505050565b600060149054906101000a900460ff1615612e0d576040517f08c379a0000000000000000000000000000000000000000000000000000000008152600401612e0490614f05565b60405180910390fd5b612e178787613002565b612e56576040517f08c379a0000000000000000000000000000000000000000000000000000000008152600401612e4d90614f65565b60405180910390fd5b612e608585613002565b612e9f576040517f08c379a0000000000000000000000000000000000000000000000000000000008152600401612e9690614da5565b60405180910390fd5b60008787878787604051602001612eba959493929190614bc2565b6040516020818303038152906040528051906020012090506000805b600880549050811015612f18578260088281548110612ef157fe5b90600052602060002001541415612f0b5760019150612f18565b8080600101915050612ed6565b81612f58576040517f08c379a0000000000000000000000000000000000000000000000000000000008152600401612f4f90614dc5565b60405180910390fd5b600860016008805490500381548110612f6d57fe5b906000526020600020015460088281548110612f8557fe5b90600052602060002001819055506008805480612f9e57fe5b600190038181906000526020600020016000905590557fae2b72cc4621b123feac073da32309bdd45fefaa49154814cd8c8b3c7c4d5cb78a8a8a8a8a8a604051612fed969594939291906151c9565b60405180910390a15050505050505050505050565b6000600115156004600085815260200190815260200160002060009054906101000a900460ff161515141561303a57600190506133a7565b6060600660008481526020019081526020016000208054600181600116156101000203166002900480601f0160208091040260200160405190810160405280929190818152602001828054600181600116156101000203166002900480156130e35780601f106130b8576101008083540402835291602001916130e3565b820191906000526020600020905b8154815290600101906020018083116130c657829003601f168201915b5050505050905060011515600560008681526020019081526020016000208260405161310f9190614b90565b908152602001604051809103902060009054906101000a900460ff161515141561313d5760019150506133a7565b600115156007600086815260200190815260200160002060009054906101000a900460ff16151514156131745760019150506133a7565b6000600160009054906101000a900473ffffffffffffffffffffffffffffffffffffffff1673ffffffffffffffffffffffffffffffffffffffff166365f68c896131bc611806565b6040518263ffffffff1660e01b81526004016131d89190614c21565b60206040518083038186803b1580156131f057600080fd5b505afa158015613204573d6000803e3d6000fd5b505050506040513d601f19601f820116820180604052508101906132289190613a02565b90508481141561323d576001925050506133a7565b6000600160009054906101000a900473ffffffffffffffffffffffffffffffffffffffff1673ffffffffffffffffffffffffffffffffffffffff166365f68c89600260009054906101000a900473ffffffffffffffffffffffffffffffffffffffff1673ffffffffffffffffffffffffffffffffffffffff16638da5cb5b6040518163ffffffff1660e01b815260040160206040518083038186803b1580156132e557600080fd5b505afa1580156132f9573d6000803e3d6000fd5b505050506040513d601f19601f8201168201806040525081019061331d919061374b565b6040518263ffffffff1660e01b81526004016133399190614c21565b60206040518083038186803b15801561335157600080fd5b505afa158015613365573d6000803e3d6000fd5b505050506040513d601f19601f820116820180604052508101906133899190613a02565b90508581141561339f57600193505050506133a7565b600093505050505b92915050565b600033905090565b60056000838152602001908152602001600020816040516133d69190614b90565b908152602001604051809103902060009054906101000a900460ff166134ac57600160056000848152602001908152602001600020826040516134199190614b90565b908152602001604051809103902060006101000a81548160ff021916908315150217905550600061344982611c63565b90508160066000838152602001908152602001600020908051906020019061347292919061353f565b507f448b0dd714fa3713f69988b8ee8bad3ac840e06e3d93c970086a3d490d61c629836040516134a29190615185565b60405180910390a1505b5050565b6007600082815260200190815260200160002060009054906101000a900460ff1661353b5760016007600083815260200190815260200160002060006101000a81548160ff0219169083151502179055507f2757aa27a660ab391745e035b5a23653f6497d768c445f6a9c3df78e1d18727f82826040516135329291906152d0565b60405180910390a15b5050565b828054600181600116156101000203166002900490600052602060002090601f016020900481019282601f1061358057805160ff19168380011785556135ae565b828001600101855582156135ae579182015b828111156135ad578251825591602001919060010190613592565b5b5090506135bb91906135bf565b5090565b5b808211156135d85760008160009055506001016135c0565b5090565b6000813590506135eb81615581565b92915050565b60008151905061360081615581565b92915050565b600082601f83011261361757600080fd5b813561362a61362582615378565b61534b565b9150818183526020840193506020810190508360005b83811015613670578135860161365688826136a4565b845260208401935060208301925050600181019050613640565b5050505092915050565b60008151905061368981615598565b92915050565b60008135905061369e816155af565b92915050565b600082601f8301126136b557600080fd5b81356136c86136c3826153a0565b61534b565b915080825260208301602083018583830111156136e457600080fd5b6136ef83828461551a565b50505092915050565b600081359050613707816155c6565b92915050565b60008151905061371c816155c6565b92915050565b60006020828403121561373457600080fd5b6000613742848285016135dc565b91505092915050565b60006020828403121561375d57600080fd5b600061376b848285016135f1565b91505092915050565b60008060008060008060c0878903121561378d57600080fd5b600061379b89828a016135dc565b96505060206137ac89828a016136f8565b95505060406137bd89828a0161368f565b94505060606137ce89828a016136f8565b93505060806137df89828a0161368f565b92505060a087013567ffffffffffffffff8111156137fc57600080fd5b61380889828a01613606565b9150509295509295509295565b600080600080600080600080610100898b03121561383257600080fd5b60006138408b828c016135dc565b98505060206138518b828c016136f8565b97505060406138628b828c0161368f565b96505060606138738b828c016136f8565b95505060806138848b828c0161368f565b94505060a06138958b828c016136f8565b93505060c06138a68b828c0161368f565b92505060e089013567ffffffffffffffff8111156138c357600080fd5b6138cf8b828c01613606565b9150509295985092959890939650565b6000602082840312156138f157600080fd5b60006138ff8482850161367a565b91505092915050565b60006020828403121561391a57600080fd5b60006139288482850161368f565b91505092915050565b60008060006060848603121561394657600080fd5b60006139548682870161368f565b93505060206139658682870161368f565b925050604084013567ffffffffffffffff81111561398257600080fd5b61398e86828701613606565b9150509250925092565b6000602082840312156139aa57600080fd5b600082013567ffffffffffffffff8111156139c457600080fd5b6139d0848285016136a4565b91505092915050565b6000602082840312156139eb57600080fd5b60006139f9848285016136f8565b91505092915050565b600060208284031215613a1457600080fd5b6000613a228482850161370d565b91505092915050565b60008060408385031215613a3e57600080fd5b6000613a4c858286016136f8565b9250506020613a5d8582860161368f565b9150509250929050565b600080600080600060a08688031215613a7f57600080fd5b6000613a8d888289016136f8565b9550506020613a9e8882890161368f565b9450506040613aaf888289016136f8565b9350506060613ac08882890161368f565b925050608086013567ffffffffffffffff811115613add57600080fd5b613ae988828901613606565b9150509295509295909350565b60008060008060008060c08789031215613b0f57600080fd5b6000613b1d89828a016136f8565b9650506020613b2e89828a0161368f565b9550506040613b3f89828a016136f8565b9450506060613b5089828a0161368f565b9350506080613b6189828a016136f8565b92505060a0613b7289828a0161368f565b9150509295509295509295565b60008060408385031215613b9257600080fd5b6000613ba0858286016136f8565b925050602083013567ffffffffffffffff811115613bbd57600080fd5b613bc9858286016136a4565b9150509250929050565b613bdc81615478565b82525050565b613beb81615419565b82525050565b613bfa8161542b565b82525050565b613c0981615437565b82525050565b613c20613c1b82615437565b61555c565b82525050565b613c2f8161548a565b82525050565b613c3e816154ae565b82525050565b613c4d816154d2565b82525050565b6000613c5e826153e1565b613c6881856153ec565b9350613c78818560208601615529565b613c8181615570565b840191505092915050565b6000613c97826153e1565b613ca181856153fd565b9350613cb1818560208601615529565b613cba81615570565b840191505092915050565b6000613cd0826153e1565b613cda818561540e565b9350613cea818560208601615529565b80840191505092915050565b600081546001811660008114613d135760018114613d3957613d7d565b607f6002830416613d2481876153fd565b955060ff198316865260208601935050613d7d565b60028204613d4781876153fd565b9550613d52856153cc565b60005b82811015613d7457815481890152600182019150602081019050613d55565b80880195505050505b505092915050565b6000613d92603d836153ec565b91507f456e64657265c3a76f2064652064657374696e6f206ec3a36f20696e636c75c360008301527fad646f20636f6d6f20706170656c206e6573736520636164617374726f0000006020830152604082019050919050565b6000613df86030836153ec565b91507f496e74657276656ec3a7c3a36f206d616e75616c206ec3a36f2070726576696160008301527f6d656e74652063616461737472616461000000000000000000000000000000006020830152604082019050919050565b6000613e5e6044836153ec565b91507f536f6d656e746520636c69656e74657320656d20636f6e747261746f7320636160008301527f646173747261646f7320706f64656d206578656375746172206f20706167616d60208301527f656e746f000000000000000000000000000000000000000000000000000000006040830152606082019050919050565b6000613eea6029836153ec565b91507f536f6d656e7465206f20424e44455320706f6465206578656375746172206f2060008301527f706167616d656e746f00000000000000000000000000000000000000000000006020830152604082019050919050565b6000613f506026836153ec565b91507f4f776e61626c653a206e6577206f776e657220697320746865207a65726f206160008301527f64647265737300000000000000000000000000000000000000000000000000006020830152604082019050919050565b6000613fb6602a836153ec565b91507f4572726f206e6f2063c3a16c63756c6f20646f206861736820646120636f6e7460008301527f6120646f20424e444553000000000000000000000000000000000000000000006020830152604082019050919050565b600061401c6057836153ec565b91507f536f6d656e746520756d20726573706f6e73c3a176656c2070656c617320747260008301527f616e73666572c3aa6e636961732065787472616f7264696ec3a172696173207060208301527f6f7220656e766961722061207472616e7361c3a7c3a36f0000000000000000006040830152606082019050919050565b60006140a8602f836153ec565b91507f536f6d656e746520666f726e656365646f72657320706f64656d20657865637560008301527f746172206f20706167616d656e746f00000000000000000000000000000000006020830152604082019050919050565b600061410e6035836153ec565b91507f56616c6f72206120736572207472616e736163696f6e61646f2064657665207360008301527f6572206d61696f7220646f20717565207a65726f2e00000000000000000000006020830152604082019050919050565b60006141746064836153ec565b91507f45737461207472616e7361c3a7c3a36f2073c3b320706f64652073657220657860008301527f656375746164612070656c6f20726573706f6e73c3a176656c2070656c6f206460208301527f6f20706167616d656e746f20646520666f726e656365646f72657320646f204260408301527f4e444553000000000000000000000000000000000000000000000000000000006060830152608082019050919050565b6000614226602f836153ec565b91507f4572726f206e6f2063c3a16c63756c6f20646f206861736820646120636f6e7460008301527f6120646f20666f726e656365646f7200000000000000000000000000000000006020830152604082019050919050565b600061428c6010836153ec565b91507f5061757361626c653a20706175736564000000000000000000000000000000006000830152602082019050919050565b60006142cc6049836153ec565b91507f45737461207472616e7361c3a7c3a36f2073c3b320706f64652073657220657860008301527f656375746164612070656c6f20726573706f6e73c3a176656c2070656c6f206460208301527f6573656d626f6c736f00000000000000000000000000000000000000000000006040830152606082019050919050565b60006143586068836153ec565b91507f556d20696e737469747569c3a7c3a36f206ec3a36f20706f6465207472616e7360008301527f666572697220746f6b656e20706172612073692c2061696e646120717565206560208301527f6d20706170c3a969732064697374696e746f732028436c69656e74652f466f7260408301527f6e656365646f72290000000000000000000000000000000000000000000000006060830152608082019050919050565b600061440a603c836153ec565b91507f456e64657265c3a76f206465206f726967656d206ec3a36f20696e636c75c3ad60008301527f646f20636f6d6f20706170656c206e6573736520636164617374726f000000006020830152604082019050919050565b60006144706045836153ec565b91507f49642064652064657374696e6f206461207472616e7361c3a7c3a36f206ec3a360008301527f6f20657374c3a120696775616c20616f20646f206f776e657220646f20636f6e60208301527f747261746f0000000000000000000000000000000000000000000000000000006040830152606082019050919050565b60006144fc6024836153ec565b91507f4572726f206e6f2063c3a16c63756c6f20646f206861736820646120646f61c360008301527fa7c3a36f000000000000000000000000000000000000000000000000000000006020830152604082019050919050565b60006145626037836153ec565b91507f436f6e746120646520696e7665737469646f722070726563697361206573746160008301527f7220636f6d20636164617374726f2076616c696461646f0000000000000000006020830152604082019050919050565b60006145c86020836153ec565b91507f4f776e61626c653a2063616c6c6572206973206e6f7420746865206f776e65726000830152602082019050919050565b60006146086042836153ec565b91507f4e656e68756d61207665726966696361c3a7c3a36f206573706563c3ad66696360008301527f6120656e636f6e747261646120706172612061207472616e73666572c3aa6e6360208301527f69610000000000000000000000000000000000000000000000000000000000006040830152606082019050919050565b60006146946033836153ec565b91507f446576657269612073657220756d20696e7665737469646f722c20726567697360008301527f74726f20657374616820696e636f727265746f000000000000000000000000006020830152604082019050919050565b60006146fa602b836153ec565b91507f556d20424e444553206ec3a36f20706f6465207472616e73666572697220746f60008301527f6b656e20706172612073690000000000000000000000000000000000000000006020830152604082019050919050565b6000614760604c836153ec565b91507f536f6d656e746520756d20726573706f6e73c3a176656c2070656c617320616c60008301527f6f6361c3a7c3b5657320696e69636961697320706f646520656e76696172206160208301527f207472616e7361c3a7c3a36f00000000000000000000000000000000000000006040830152606082019050919050565b60006147ec6041836153ec565b91507f4572726f206e6f2063c3a16c63756c6f20646f206861736820646120636f6e7460008301527f612064652061646d696e20646f20636f6e747261746f2065737065636966696360208301527f6f000000000000000000000000000000000000000000000000000000000000006040830152606082019050919050565b60006148786030836153ec565b91507f48617368206465206f726967656d206461207472616e7361c3a7c3a36f206ec360008301527fa36f20657374c3a120636f727265746f000000000000000000000000000000006020830152604082019050919050565b60006148de6044836153ec565b91507f4964206465206f726967656d206461207472616e7361c3a7c3a36f206ec3a36f60008301527f20657374c3a120696775616c20616f20646f206f776e657220646f20636f6e7460208301527f7261746f000000000000000000000000000000000000000000000000000000006040830152606082019050919050565b600061496a6049836153ec565b91507f486173682064652064657374696e6f206ec3a36f20657374c3a120636f72726560008301527f73706f6e64656e7465206120636f6e746120646520646573656d626f6c736f2060208301527f6f752064652061646d00000000000000000000000000000000000000000000006040830152606082019050919050565b60006149f66030836153ec565b91507f45737365206dc3a9746f646f2073c3b320706f646520736572206368616d616460008301527f6f2070656c6f205242425f546f6b656e000000000000000000000000000000006020830152604082019050919050565b6000614a5c6019836153ec565b91507f496e7665737469646f72206ac3a1206361646173747261646f000000000000006000830152602082019050919050565b6000614a9c603b836153ec565b91507f536f6d656e746520696e7665737469646f726573206361646173747261646f7360008301527f20706f64656d20657865637574617220657373612061c3a7c3a36f00000000006020830152604082019050919050565b6000614b02602c836153ec565b91507f4572726f206e6f2063c3a16c63756c6f20646f206861736820646120636f6e7460008301527f6120646f20636c69656e746500000000000000000000000000000000000000006020830152604082019050919050565b614b6481615461565b82525050565b614b7b614b7682615461565b615566565b82525050565b614b8a8161546b565b82525050565b6000614b9c8284613cc5565b915081905092915050565b6000614bb38284614b6a565b60208201915081905092915050565b6000614bce8288614b6a565b602082019150614bde8287613c0f565b602082019150614bee8286614b6a565b602082019150614bfe8285613c0f565b602082019150614c0e8284614b6a565b6020820191508190509695505050505050565b6000602082019050614c366000830184613be2565b92915050565b6000602082019050614c516000830184613bd3565b92915050565b6000602082019050614c6c6000830184613bf1565b92915050565b6000602082019050614c876000830184613c00565b92915050565b6000604082019050614ca26000830185613c00565b614caf6020830184613c00565b9392505050565b6000608082019050614ccb6000830187613c00565b614cd86020830186614b5b565b614ce56040830185614b5b565b614cf26060830184613c00565b95945050505050565b6000602082019050614d106000830184613c26565b92915050565b6000602082019050614d2b6000830184613c35565b92915050565b6000602082019050614d466000830184613c44565b92915050565b60006020820190508181036000830152614d668184613c53565b905092915050565b60006040820190508181036000830152614d888185613cf6565b90508181036020830152614d9c8184613c8c565b90509392505050565b60006020820190508181036000830152614dbe81613d85565b9050919050565b60006020820190508181036000830152614dde81613deb565b9050919050565b60006020820190508181036000830152614dfe81613e51565b9050919050565b60006020820190508181036000830152614e1e81613edd565b9050919050565b60006020820190508181036000830152614e3e81613f43565b9050919050565b60006020820190508181036000830152614e5e81613fa9565b9050919050565b60006020820190508181036000830152614e7e8161400f565b9050919050565b60006020820190508181036000830152614e9e8161409b565b9050919050565b60006020820190508181036000830152614ebe81614101565b9050919050565b60006020820190508181036000830152614ede81614167565b9050919050565b60006020820190508181036000830152614efe81614219565b9050919050565b60006020820190508181036000830152614f1e8161427f565b9050919050565b60006020820190508181036000830152614f3e816142bf565b9050919050565b60006020820190508181036000830152614f5e8161434b565b9050919050565b60006020820190508181036000830152614f7e816143fd565b9050919050565b60006020820190508181036000830152614f9e81614463565b9050919050565b60006020820190508181036000830152614fbe816144ef565b9050919050565b60006020820190508181036000830152614fde81614555565b9050919050565b60006020820190508181036000830152614ffe816145bb565b9050919050565b6000602082019050818103600083015261501e816145fb565b9050919050565b6000602082019050818103600083015261503e81614687565b9050919050565b6000602082019050818103600083015261505e816146ed565b9050919050565b6000602082019050818103600083015261507e81614753565b9050919050565b6000602082019050818103600083015261509e816147df565b9050919050565b600060208201905081810360008301526150be8161486b565b9050919050565b600060208201905081810360008301526150de816148d1565b9050919050565b600060208201905081810360008301526150fe8161495d565b9050919050565b6000602082019050818103600083015261511e816149e9565b9050919050565b6000602082019050818103600083015261513e81614a4f565b9050919050565b6000602082019050818103600083015261515e81614a8f565b9050919050565b6000602082019050818103600083015261517e81614af5565b9050919050565b600060208201905061519a6000830184614b5b565b92915050565b60006040820190506151b56000830185614b5b565b6151c26020830184613c00565b9392505050565b600060c0820190506151de6000830189614b5b565b6151eb6020830188613c00565b6151f86040830187614b5b565b6152056060830186613c00565b6152126080830185614b5b565b61521f60a0830184613c00565b979650505050505050565b600060808201905061523f6000830187614b5b565b81810360208301526152518186613c53565b90506152606040830185614b5b565b61526d6060830184613c00565b95945050505050565b600060a08201905061528b6000830188614b5b565b818103602083015261529d8187613c53565b90506152ac6040830186614b5b565b6152b96060830185614b5b565b6152c66080830184613c00565b9695505050505050565b60006040820190506152e56000830185614b5b565b6152f26020830184614b5b565b9392505050565b600060608201905061530e6000830186614b5b565b61531b6020830185614b5b565b6153286040830184613c00565b949350505050565b60006020820190506153456000830184614b81565b92915050565b6000604051905081810181811067ffffffffffffffff8211171561536e57600080fd5b8060405250919050565b600067ffffffffffffffff82111561538f57600080fd5b602082029050602081019050919050565b600067ffffffffffffffff8211156153b757600080fd5b601f19601f8301169050602081019050919050565b60008190508160005260206000209050919050565b600081519050919050565b600082825260208201905092915050565b600082825260208201905092915050565b600081905092915050565b600061542482615441565b9050919050565b60008115159050919050565b6000819050919050565b600073ffffffffffffffffffffffffffffffffffffffff82169050919050565b6000819050919050565b600060ff82169050919050565b6000615483826154f6565b9050919050565b60006154958261549c565b9050919050565b60006154a782615441565b9050919050565b60006154b9826154c0565b9050919050565b60006154cb82615441565b9050919050565b60006154dd826154e4565b9050919050565b60006154ef82615441565b9050919050565b600061550182615508565b9050919050565b600061551382615441565b9050919050565b82818337600083830152505050565b60005b8381101561554757808201518184015260208101905061552c565b83811115615556576000848401525b50505050565b6000819050919050565b6000819050919050565b6000601f19601f8301169050919050565b61558a81615419565b811461559557600080fd5b50565b6155a18161542b565b81146155ac57600080fd5b50565b6155b881615437565b81146155c357600080fd5b50565b6155cf81615461565b81146155da57600080fd5b5056fea264697066735822122018c699acd191522057a809ea6f6185e2e80ac448d4056a69f4cbc3ad4f13786764736f6c634300060c0033",
  "immutableReferences": {},
  "source": "pragma solidity ^0.6.0;\npragma experimental ABIEncoderV2;\n\n\nimport \"./RBBLib.sol\";\nimport \"./RBBRegistry.sol\";\nimport \"./RBBToken.sol\";\nimport \"./SpecificRBBToken.sol\";\nimport \"./ESGBndesToken_BNDESRoles.sol\";\nimport \"@openzeppelin/contracts/access/Ownable.sol\";\nimport \"@openzeppelin/contracts/utils/Pausable.sol\";\nimport \"@openzeppelin/contracts/math/SafeMath.sol\";\n\n\n/*\nTodas as operaes j supem que a entidade de origem e destino esto cadastradas e validadas no RBB_Registry, pois isso  garantido pelo contrato genrico (RBB_Token)\nNo includo (TBD):\n------------\n- requisito adicional de o cliente poder resgatar uma parte do valor (ao invs de ter que necessariamente transferir tudo ao fornecedor)\n- ideia de o fornecedor poder sacar mais de um saldo ao mesmo tempo.\n- pedido inicial de financiamento do cliente \n- devoluo de fornecedor para cliente sem anuncia para o BNDES\n- controle que cada doacao realmente se transformou em duas transacoes, uma para a conta adm e outra para a conta usual\nuint admFee = amount.mul(bndesFee).div(100);\n- perodo de validade para as autorizaes de transferncias extraordinrias\n- invalidar doador, cliente e fornecedor (por exemplo, em caso de CNPJ deixar de existir, contrato com BNDES acabar ou periodicamente)\n- permitir criar perfis diferenciados para contas dos clientes e fornecedores\n- incluir possibilidade de remover doadores, clientes e, talvez, fornecedores\n*/\ncontract ESGBndesToken is SpecificRBBToken {\n\n    RBBToken public rbbToken;\n    ESGBndesToken_BNDESRoles public bndesRoles;\n\n    //RBBId investor => true/false (registered or not)\n    mapping (uint => bool) public investors;\n\n    //RBBId client => (idFinancialSupportAgreement Client => true/false (registered or not)\n    mapping (uint => mapping (string => bool)) public clients;\n    mapping (bytes32 => string) public hashToIdFinancialSupportAgreement;\n\n    //RBBId supplier => true/false (registered or not)\n    mapping (uint => bool) public suppliers;\n\n    //Hash of approved Extraordinary Transfers\n    bytes32[] public hashApprovedExtraordinaryTransfers;\n\n    // BNDES Fee percentage\n//   uint256 public bndesFee;    \n\n    //Types of transfer operation\n    string public INITIAL_ALLOCATION = \"INITIAL_ALLOCATION\";\n    string public DISBURSEMENT_VERIFICATION = \"DISBURSEMENT_VERIFICATION\";\n    string public CLIENT_PAY_SUPPLIER_VERIFICATION = \"CLIENT_PAY_SUPPLIER_VERIFICATION\";\n    string public BNDES_PAY_SUPPLIER_VERIFICATION = \"BNDES_PAY_SUPPLIER_VERIFICATION\";\n    string public EXTRAORDINARY_TRANSFERS = \"EXTRAORDINARY_TRANSFERS\";\n\n\n    uint8 public RESERVED_MINTED_ACCOUNT = 0;\n    uint8 public RESERVED_USUAL_DISBURSEMENTS_ACCOUNT = 1;\n    uint8 public RESERVED_BNDES_ADMIN_FEE_TO_HASH = 2;\n    uint8 public RESERVED_NO_ADDITIONAL_FIELDS_TO_INVESTOR = 10;\n    uint8 public RESERVED_NO_ADDITIONAL_FIELDS_TO_SUPPLIER = 20;\n    uint8 public RESERVED_NO_ADDITIONAL_FIELDS_TO_DIFF_MONEY = 30;\n\n    using SafeMath for uint;\n   \n    event FA_InvestmentBooked(uint idInvestor, uint amount, bytes32 docHash);\n    event FA_InvestmentConfirmed(uint idInvestor, uint amount, bytes32 docHash);\n\n    event FA_InitialAllocation_Disbursements(uint amount, bytes32 docHash);\n    event FA_InitialAllocation_Fee(uint amount, bytes32 docHash);\n\n    event FA_Disbursement  (uint idClient, string idFinancialSupportAgreement, uint amount, bytes32 docHash);\n    event FA_TokenTransfer (uint fromId, string fromIdFinancialSupportAgreement, uint toId, uint amount, bytes32 docHash);\n    event FA_BNDES_TokenTransfer(uint toId, uint amount, bytes32 docHash);\n    event FA_RedemptionRequested (uint idClaimer, uint amount, bytes32 docHash);\n    event FA_RedemptionSettlement(bytes32 redemptionTransactionHash, bytes32 docHash);\n \n    event FA_ExtraordinaryTransferAllowed (uint fromId, bytes32 fromHash, uint toId, bytes32 toHash, \n            uint amount, bytes32 docHash);\n    event FA_ExtraordinaryTransferExecuted(uint fromId, bytes32 fromHash, uint toId, bytes32 toHash, \n            uint amount, bytes32 docHash);\n\n//    event FA_ManualIntervention_Fee(uint256 percent, bytes32 docHash);\n\n    event FA_InvestorAdded(uint id);\n    event FA_ClientAdded(uint id);\n    event FA_SupplierAdded(uint registeredBy, uint id);\n\n\n    constructor (address newrbbTokenAddr, address addrBndesRoles) public {\n//        require (fee < 100, \"Valor de Fee maior que 100%\");\n\n        rbbToken = RBBToken(newrbbTokenAddr);\n        bndesRoles = ESGBndesToken_BNDESRoles(addrBndesRoles);\n\n//        bndesFee = fee;\n    }\n\n/*\n    function setBNDESFee(uint256 newBndesFee, bytes32 docHash) public onlyOwner {\n        require (newBndesFee < 100, \"Valor de Fee maior que 100%\");\n        bndesFee = newBndesFee;\n        emit FA_ManualIntervention_Fee(newBndesFee, docHash);\n    }\n*/\n\n    function bookInvestment(uint amount, bytes32 docHash) public whenNotPaused  {        \n        \n        uint idInvestor = registry.getId(msg.sender);\n\n        require (investors[idInvestor], \"Somente investidores cadastrados podem executar essa ao\");\n //       require(registry.isRegistryOperational(idInvestor), \"Conta de investidor precisa estar com cadastro validado\");\n        \n        bytes32 specificHash = getCalculatedHash(RESERVED_NO_ADDITIONAL_FIELDS_TO_DIFF_MONEY);\n        rbbToken.requestMint(specificHash, idInvestor, amount, docHash);\n\n        emit FA_InvestmentBooked(idInvestor, amount, docHash);\n    }\n    \n    function verifyAndActForMint(uint idInvestor, bytes32 specificHash, uint amount, bytes32 docHash,\n        string[] memory data) public override whenNotPaused onlyRBBToken {\n\n        require (getCalculatedHash(RESERVED_NO_ADDITIONAL_FIELDS_TO_DIFF_MONEY)==specificHash, \"Erro no clculo do hash da doao\");\n\n        require (investors[idInvestor], \"Deveria ser um investidor, registro estah incorreto\");\n\n        emit FA_InvestmentConfirmed(idInvestor, amount, docHash);\n\n    }\n\n\n    function getHashToMintedAccount(bytes32 specificHash) override public returns (bytes32) {\n        //There is no difference of specificHash, all money should be minted in the same account\n        return getCalculatedHash(RESERVED_MINTED_ACCOUNT);\n    }\n\n    function verifyAndActForTransfer(address originalSender, uint fromId, bytes32 fromHash, uint toId, bytes32 toHash, \n            uint amount, bytes32 docHash, string[] memory data) public override whenNotPaused onlyRBBToken {\n\n        string memory specificMethod = data[0];\n\n        require (amount>0, \"Valor a ser transacionado deve ser maior do que zero.\");\n\n        if (RBBLib.isEqual(INITIAL_ALLOCATION, specificMethod)) {\n            verifyAndActForTransfer_INITIAL_ALLOCATION(originalSender, fromId, fromHash, toId, toHash, amount, docHash, data);\n        }\n        else if (RBBLib.isEqual(DISBURSEMENT_VERIFICATION, specificMethod)) {\n            verifyAndActForTransfer_DISBURSEMENT(originalSender, fromId, fromHash, toId, toHash, amount, docHash, data);\n        }\n        else if (RBBLib.isEqual(CLIENT_PAY_SUPPLIER_VERIFICATION, specificMethod)) {\n            verifyAndActForTransfer_CLIENT_PAY_SUPPLIER(originalSender, fromId, fromHash, toId, toHash, amount, docHash, data);\n        }\n        else if (RBBLib.isEqual(BNDES_PAY_SUPPLIER_VERIFICATION, specificMethod)) {\n            verifyAndActForTransfer_BNDES_PAY_SUPPLIER(originalSender, fromId, fromHash, toId, toHash, amount, docHash, data);\n        }\n        else if (RBBLib.isEqual(EXTRAORDINARY_TRANSFERS, specificMethod)) {\n            verifyAndActForTransfer_EXTRAORDINARY_TRANSFERS(originalSender, fromId, fromHash, toId, toHash, amount, docHash, data);\n        }\n        else {\n            require (false, \"Nenhuma verificao especfica encontrada para a transferncia\");\n        }\n\n    }\n\n    function verifyAndActForTransfer_INITIAL_ALLOCATION(address originalSender, uint fromId, bytes32 fromHash, uint toId, \n            bytes32 toHash, uint amount, bytes32 docHash, string[] memory data) internal whenNotPaused {\n\n        require (bndesRoles.responsibleForInitialAllocation() == originalSender, \n            \"Somente um responsvel pelas alocaes iniciais pode enviar a transao\");\n\n        uint ownerId = registry.getId(owner());\n        require (fromId == ownerId, \"Id de origem da transao no est igual ao do owner do contrato\");\n        require (fromHash == getCalculatedHash(RESERVED_MINTED_ACCOUNT), \"Hash de origem da transao no est correto\");\n\n        require (fromId == toId, \"Id de destino da transao no est igual ao do owner do contrato\");\n\n        if (toHash == getCalculatedHash(RESERVED_USUAL_DISBURSEMENTS_ACCOUNT)) {\n            emit FA_InitialAllocation_Disbursements(amount, docHash);\n        }\n        else if (toHash == getCalculatedHash(RESERVED_BNDES_ADMIN_FEE_TO_HASH)) {\n            emit FA_InitialAllocation_Fee(amount, docHash);\n        }\n        else {\n            require (false, \"Hash de destino no est correspondente a conta de desembolso ou de adm\");\n        }\n    }\n\n    function verifyAndActForTransfer_DISBURSEMENT(address originalSender, uint fromId, bytes32 fromHash, \n            uint toId, bytes32 toHash, uint amount, bytes32 docHash, string[] memory data) internal whenNotPaused {\n    \n        string memory idFinancialSupportAgreement = data[1];\n        uint ownerId = registry.getId(owner());\n\n        require (originalSender == bndesRoles.responsibleForDisbursement(), \n            \"Esta transao s pode ser executada pelo responsvel pelo desembolso\");\n\n        //Essa eh uma regra especifica visto que outra organizacao pode ter recebido o token no allocate.\n        require (fromId == ownerId, \"Id de origem da transao no est igual ao do owner do contrato\");\n        require (getCalculatedHash(RESERVED_USUAL_DISBURSEMENTS_ACCOUNT)==fromHash, \"Erro no clculo do hash da conta do BNDES\");\n        require (getCalculatedHash(idFinancialSupportAgreement)==toHash, \"Erro no clculo do hash da conta do cliente\");\n\n        addClient(toId, idFinancialSupportAgreement);\n\n        emit FA_Disbursement (toId, idFinancialSupportAgreement, amount, docHash);\n\n    }   \n\n    function verifyAndActForTransfer_CLIENT_PAY_SUPPLIER(address originalSender, uint fromId, bytes32 fromHash, \n            uint toId, bytes32 toHash, uint amount, bytes32 docHash, string[] memory data) internal whenNotPaused {\n    \n        string memory idFinancialSupportAgreement = data[1];\n\n        //nao verifica o sender, dado que o esse contrato nao diferencia as contas do cliente\n\n        require (clients[fromId][idFinancialSupportAgreement], \"Somente clientes em contratos cadastrados podem executar o pagamento\");\n        require (getCalculatedHash(idFinancialSupportAgreement)==fromHash, \"Erro no clculo do hash da conta do cliente\");\n        require (getCalculatedHash(RESERVED_NO_ADDITIONAL_FIELDS_TO_SUPPLIER)==toHash, \"Erro no clculo do hash da conta do fornecedor\");\n\n        require(fromId != toId,\n            \"Um instituio no pode transferir token para si, ainda que em papis distintos (Cliente/Fornecedor)\");\n\n        addSupplier (fromId, toId);\n\n        emit FA_TokenTransfer (fromId, idFinancialSupportAgreement, toId, amount, docHash);\n\n    }\n\n    function verifyAndActForTransfer_BNDES_PAY_SUPPLIER(address originalSender, uint fromId, bytes32 fromHash, \n            uint toId, bytes32 toHash, uint amount, bytes32 docHash, string[] memory data) internal whenNotPaused {\n        require (fromId==registry.getId(owner()), \"Somente o BNDES pode executar o pagamento\");\n        require (originalSender == bndesRoles.resposibleForPayingBNDESSuppliers(), \n            \"Esta transao s pode ser executada pelo responsvel pelo do pagamento de fornecedores do BNDES\");\n        require (getCalculatedHash(RESERVED_BNDES_ADMIN_FEE_TO_HASH)==fromHash, \"Erro no clculo do hash da conta de admin do contrato especifico\");\n        require (getCalculatedHash(RESERVED_NO_ADDITIONAL_FIELDS_TO_SUPPLIER)==toHash, \"Erro no clculo do hash da conta do fornecedor\");\n        require(fromId != toId, \"Um BNDES no pode transferir token para si\");\n\n        addSupplier (fromId, toId);\n\n        emit FA_BNDES_TokenTransfer (toId, amount, docHash);\n\n    }\n\n\n\n    function verifyAndActForRedeem(address originalSender, uint fromId, bytes32 fromHash, uint amount, \n        bytes32 docHash, string[] memory data) public override whenNotPaused onlyRBBToken {\n\n        //nao verifica o sender, dado que o esse contrato nao diferencia as contas do fornecedor\n\n        require (amount>0, \"Valor a ser transacionado deve ser maior do que zero.\");\n        require (suppliers[fromId], \"Somente fornecedores podem executar o pagamento\");\n        require (getCalculatedHash(RESERVED_NO_ADDITIONAL_FIELDS_TO_SUPPLIER)==fromHash, \"Erro no clculo do hash da conta do fornecedor\");\n\n        emit FA_RedemptionRequested (fromId, amount, docHash);\n\n    }\n\n    function verifyAndActForRedemptionSettlement(bytes32 redemptionTransactionHash, bytes32 docHash, \n        string[] memory data)\n        public override whenNotPaused onlyRBBToken {\n\n        emit FA_RedemptionSettlement (redemptionTransactionHash, docHash);\n    }\n\n    modifier onlyRBBToken() {\n        require (msg.sender==address(rbbToken), \"Esse mtodo s pode ser chamado pelo RBB_Token\");\n        _;\n    }\n\n    \n    function getCalculatedHash (uint info) public pure returns (bytes32) {\n        return keccak256(abi.encodePacked(info));\n    }\n\n    function getCalculatedHash (string memory info) public pure returns (bytes32) {\n        return keccak256(abi.encodePacked(info));\n    }\n\n    function authorizeExtraordinaryTransfer (uint fromId, bytes32 fromHash, uint toId, bytes32 toHash, \n                uint amount, bytes32 docHash) public  {\n        \n        require (bndesRoles.resposibleForApproveExtraordinaryTransfers() == msg.sender, \n            \"Somente um responsvel pelas transferncias extraordinrias por enviar a transao\");  \n        require (hasRoleInThisContract(fromId, fromHash), \"Endereo de origem no includo como papel nesse cadastro\");\n        require (hasRoleInThisContract(toId, toHash), \"Endereo de destino no includo como papel nesse cadastro\");\n\n        bytes32 m = keccak256(abi.encodePacked(fromId, fromHash, toId, toHash, amount));\n        hashApprovedExtraordinaryTransfers.push(m);\n\n        emit FA_ExtraordinaryTransferAllowed (fromId, fromHash, toId, toHash, amount, docHash);\n\n    }\n   \n    function verifyAndActForTransfer_EXTRAORDINARY_TRANSFERS(address originalSender, uint fromId, bytes32 fromHash, \n            uint toId, bytes32 toHash, uint amount, bytes32 docHash, string[] memory data) internal whenNotPaused {\n\n        require (hasRoleInThisContract(fromId, fromHash), \"Endereo de origem no includo como papel nesse cadastro\");\n        require (hasRoleInThisContract(toId, toHash), \"Endereo de destino no includo como papel nesse cadastro\");\n\n        bytes32 m = keccak256(abi.encodePacked(fromId, fromHash, toId, toHash, amount));\n\n        bool transferApproved = false;\n        uint index = 0;\n        for (; index<hashApprovedExtraordinaryTransfers.length; index++) {\n            if (hashApprovedExtraordinaryTransfers[index] == m) {\n                transferApproved = true;\n                break;\n            }\n        }\n\n        require (transferApproved, \"Interveno manual no previamente cadastrada\");\n\n        hashApprovedExtraordinaryTransfers[index] \n            = hashApprovedExtraordinaryTransfers [hashApprovedExtraordinaryTransfers.length-1];\n        hashApprovedExtraordinaryTransfers.pop();\n\n        emit FA_ExtraordinaryTransferExecuted (fromId, fromHash, toId, toHash, amount, docHash);\n\n    }\n\n//////////\n\n    function addInvestor (uint idInvestor) public onlyOwner {\n        require(registry.isRegistryOperational(idInvestor), \"Conta de investidor precisa estar com cadastro validado\");\n        require(!investors[idInvestor], \"Investidor j cadastrado\");\n        investors[idInvestor] = true;\n        emit FA_InvestorAdded(idInvestor);\n    }\n\n    function addClient (uint id, string memory idFinancialSupportAgreement) internal  {\n\n        if (!clients[id][idFinancialSupportAgreement]) {\n            clients[id][idFinancialSupportAgreement] = true; //register the client\n            bytes32 h = getCalculatedHash(idFinancialSupportAgreement);\n            hashToIdFinancialSupportAgreement[h] = idFinancialSupportAgreement;\n            emit FA_ClientAdded(id);\n\n        }\n    }\n\n\n    function addSupplier (uint registererId, uint idSupplier) internal  {\n\n        if (!suppliers[idSupplier]) {\n            suppliers[idSupplier] = true; //register the supplier\n            emit FA_SupplierAdded(registererId, idSupplier);\n        }\n    }\n\n    function hasRoleInThisContract (uint rbbId, bytes32 hashToAccount) private view returns (bool) {\n\n        if (investors[rbbId]==true) return true;\n\n        string memory idFinancialSupportAgreement = hashToIdFinancialSupportAgreement[hashToAccount];\n        if (clients[rbbId][idFinancialSupportAgreement]==true) return true;\n\n        if (suppliers[rbbId]==true) return true;\n\n        uint ownerId = registry.getId(owner());\n        if (ownerId == rbbId) return true;\n\n        uint rbbTokenOwnerId = registry.getId(rbbToken.owner());\n        if (rbbTokenOwnerId == rbbId) return true;\n\n        return false;\n    }\n\n}\n",
  "sourcePath": "/Users/suzana.moreno/workspace/rbb-token/Back-Blockchain/contracts/ESGBndesToken.sol",
  "compiler": {
    "name": "solc",
    "version": "0.6.12+commit.27d51765.Emscripten.clang"
  },
  "schemaVersion": "3.2.5",
  "updatedAt": "2020-12-15T20:46:13.411Z",
  "devdoc": {
    "kind": "dev",
    "methods": {
      "owner()": {
        "details": "Returns the address of the current owner."
      },
      "paused()": {
        "details": "Returns true if the contract is paused, and false otherwise."
      },
      "renounceOwnership()": {
        "details": "Leaves the contract without owner. It will not be possible to call `onlyOwner` functions anymore. Can only be called by the current owner. NOTE: Renouncing ownership will leave the contract without an owner, thereby removing any functionality that is only available to the owner."
      },
      "transferOwnership(address)": {
        "details": "Transfers ownership of the contract to a new account (`newOwner`). Can only be called by the current owner."
      }
    },
    "version": 1
  },
  "userdoc": {
    "kind": "user",
    "methods": {},
    "version": 1
  }
}