{
  "contractName": "ESGBndesToken",
  "abi": [
    {
      "inputs": [
        {
          "internalType": "address",
          "name": "newrbbTokenAddr",
          "type": "address"
        },
        {
          "internalType": "address",
          "name": "addrBndesRoles",
          "type": "address"
        }
      ],
      "stateMutability": "nonpayable",
      "type": "constructor"
    },
    {
      "anonymous": false,
      "inputs": [
        {
          "indexed": false,
          "internalType": "uint256",
          "name": "toId",
          "type": "uint256"
        },
        {
          "indexed": false,
          "internalType": "uint256",
          "name": "amount",
          "type": "uint256"
        },
        {
          "indexed": false,
          "internalType": "bytes32",
          "name": "docHash",
          "type": "bytes32"
        }
      ],
      "name": "FA_BNDES_TokenTransfer",
      "type": "event"
    },
    {
      "anonymous": false,
      "inputs": [
        {
          "indexed": false,
          "internalType": "uint256",
          "name": "id",
          "type": "uint256"
        }
      ],
      "name": "FA_ClientAdded",
      "type": "event"
    },
    {
      "anonymous": false,
      "inputs": [
        {
          "indexed": false,
          "internalType": "uint256",
          "name": "idClient",
          "type": "uint256"
        },
        {
          "indexed": false,
          "internalType": "string",
          "name": "idFinancialSupportAgreement",
          "type": "string"
        },
        {
          "indexed": false,
          "internalType": "uint256",
          "name": "amount",
          "type": "uint256"
        },
        {
          "indexed": false,
          "internalType": "bytes32",
          "name": "docHash",
          "type": "bytes32"
        }
      ],
      "name": "FA_Disbursement",
      "type": "event"
    },
    {
      "anonymous": false,
      "inputs": [
        {
          "indexed": false,
          "internalType": "uint256",
          "name": "fromId",
          "type": "uint256"
        },
        {
          "indexed": false,
          "internalType": "bytes32",
          "name": "fromHash",
          "type": "bytes32"
        },
        {
          "indexed": false,
          "internalType": "uint256",
          "name": "toId",
          "type": "uint256"
        },
        {
          "indexed": false,
          "internalType": "bytes32",
          "name": "toHash",
          "type": "bytes32"
        },
        {
          "indexed": false,
          "internalType": "uint256",
          "name": "amount",
          "type": "uint256"
        },
        {
          "indexed": false,
          "internalType": "bytes32",
          "name": "docHash",
          "type": "bytes32"
        }
      ],
      "name": "FA_ExtraordinaryTransferAllowed",
      "type": "event"
    },
    {
      "anonymous": false,
      "inputs": [
        {
          "indexed": false,
          "internalType": "uint256",
          "name": "fromId",
          "type": "uint256"
        },
        {
          "indexed": false,
          "internalType": "bytes32",
          "name": "fromHash",
          "type": "bytes32"
        },
        {
          "indexed": false,
          "internalType": "uint256",
          "name": "toId",
          "type": "uint256"
        },
        {
          "indexed": false,
          "internalType": "bytes32",
          "name": "toHash",
          "type": "bytes32"
        },
        {
          "indexed": false,
          "internalType": "uint256",
          "name": "amount",
          "type": "uint256"
        },
        {
          "indexed": false,
          "internalType": "bytes32",
          "name": "docHash",
          "type": "bytes32"
        }
      ],
      "name": "FA_ExtraordinaryTransferExecuted",
      "type": "event"
    },
    {
      "anonymous": false,
      "inputs": [
        {
          "indexed": false,
          "internalType": "uint256",
          "name": "amount",
          "type": "uint256"
        },
        {
          "indexed": false,
          "internalType": "bytes32",
          "name": "docHash",
          "type": "bytes32"
        }
      ],
      "name": "FA_InitialAllocation_Disbursements",
      "type": "event"
    },
    {
      "anonymous": false,
      "inputs": [
        {
          "indexed": false,
          "internalType": "uint256",
          "name": "amount",
          "type": "uint256"
        },
        {
          "indexed": false,
          "internalType": "bytes32",
          "name": "docHash",
          "type": "bytes32"
        }
      ],
      "name": "FA_InitialAllocation_Fee",
      "type": "event"
    },
    {
      "anonymous": false,
      "inputs": [
        {
          "indexed": false,
          "internalType": "uint256",
          "name": "idInvestor",
          "type": "uint256"
        },
        {
          "indexed": false,
          "internalType": "uint256",
          "name": "amount",
          "type": "uint256"
        },
        {
          "indexed": false,
          "internalType": "bytes32",
          "name": "docHash",
          "type": "bytes32"
        }
      ],
      "name": "FA_InvestmentBooked",
      "type": "event"
    },
    {
      "anonymous": false,
      "inputs": [
        {
          "indexed": false,
          "internalType": "uint256",
          "name": "idInvestor",
          "type": "uint256"
        },
        {
          "indexed": false,
          "internalType": "uint256",
          "name": "amount",
          "type": "uint256"
        },
        {
          "indexed": false,
          "internalType": "bytes32",
          "name": "docHash",
          "type": "bytes32"
        }
      ],
      "name": "FA_InvestmentConfirmed",
      "type": "event"
    },
    {
      "anonymous": false,
      "inputs": [
        {
          "indexed": false,
          "internalType": "uint256",
          "name": "id",
          "type": "uint256"
        }
      ],
      "name": "FA_InvestorAdded",
      "type": "event"
    },
    {
      "anonymous": false,
      "inputs": [
        {
          "indexed": false,
          "internalType": "uint256",
          "name": "idClaimer",
          "type": "uint256"
        },
        {
          "indexed": false,
          "internalType": "uint256",
          "name": "amount",
          "type": "uint256"
        },
        {
          "indexed": false,
          "internalType": "bytes32",
          "name": "docHash",
          "type": "bytes32"
        }
      ],
      "name": "FA_RedemptionRequested",
      "type": "event"
    },
    {
      "anonymous": false,
      "inputs": [
        {
          "indexed": false,
          "internalType": "bytes32",
          "name": "redemptionTransactionHash",
          "type": "bytes32"
        },
        {
          "indexed": false,
          "internalType": "bytes32",
          "name": "docHash",
          "type": "bytes32"
        }
      ],
      "name": "FA_RedemptionSettlement",
      "type": "event"
    },
    {
      "anonymous": false,
      "inputs": [
        {
          "indexed": false,
          "internalType": "uint256",
          "name": "registeredBy",
          "type": "uint256"
        },
        {
          "indexed": false,
          "internalType": "uint256",
          "name": "id",
          "type": "uint256"
        }
      ],
      "name": "FA_SupplierAdded",
      "type": "event"
    },
    {
      "anonymous": false,
      "inputs": [
        {
          "indexed": false,
          "internalType": "uint256",
          "name": "fromId",
          "type": "uint256"
        },
        {
          "indexed": false,
          "internalType": "string",
          "name": "fromIdFinancialSupportAgreement",
          "type": "string"
        },
        {
          "indexed": false,
          "internalType": "uint256",
          "name": "toId",
          "type": "uint256"
        },
        {
          "indexed": false,
          "internalType": "uint256",
          "name": "amount",
          "type": "uint256"
        },
        {
          "indexed": false,
          "internalType": "bytes32",
          "name": "docHash",
          "type": "bytes32"
        }
      ],
      "name": "FA_TokenTransfer",
      "type": "event"
    },
    {
      "anonymous": false,
      "inputs": [
        {
          "indexed": true,
          "internalType": "address",
          "name": "previousOwner",
          "type": "address"
        },
        {
          "indexed": true,
          "internalType": "address",
          "name": "newOwner",
          "type": "address"
        }
      ],
      "name": "OwnershipTransferred",
      "type": "event"
    },
    {
      "anonymous": false,
      "inputs": [
        {
          "indexed": false,
          "internalType": "address",
          "name": "account",
          "type": "address"
        }
      ],
      "name": "Paused",
      "type": "event"
    },
    {
      "anonymous": false,
      "inputs": [
        {
          "indexed": false,
          "internalType": "address",
          "name": "account",
          "type": "address"
        }
      ],
      "name": "Unpaused",
      "type": "event"
    },
    {
      "inputs": [],
      "name": "BNDES_PAY_SUPPLIER_VERIFICATION",
      "outputs": [
        {
          "internalType": "string",
          "name": "",
          "type": "string"
        }
      ],
      "stateMutability": "view",
      "type": "function"
    },
    {
      "inputs": [],
      "name": "CLIENT_PAY_SUPPLIER_VERIFICATION",
      "outputs": [
        {
          "internalType": "string",
          "name": "",
          "type": "string"
        }
      ],
      "stateMutability": "view",
      "type": "function"
    },
    {
      "inputs": [],
      "name": "DISBURSEMENT_VERIFICATION",
      "outputs": [
        {
          "internalType": "string",
          "name": "",
          "type": "string"
        }
      ],
      "stateMutability": "view",
      "type": "function"
    },
    {
      "inputs": [],
      "name": "EXTRAORDINARY_TRANSFERS",
      "outputs": [
        {
          "internalType": "string",
          "name": "",
          "type": "string"
        }
      ],
      "stateMutability": "view",
      "type": "function"
    },
    {
      "inputs": [],
      "name": "INITIAL_ALLOCATION",
      "outputs": [
        {
          "internalType": "string",
          "name": "",
          "type": "string"
        }
      ],
      "stateMutability": "view",
      "type": "function"
    },
    {
      "inputs": [],
      "name": "RESERVED_BNDES_ADMIN_FEE_TO_HASH",
      "outputs": [
        {
          "internalType": "uint8",
          "name": "",
          "type": "uint8"
        }
      ],
      "stateMutability": "view",
      "type": "function"
    },
    {
      "inputs": [],
      "name": "RESERVED_MINTED_ACCOUNT",
      "outputs": [
        {
          "internalType": "uint8",
          "name": "",
          "type": "uint8"
        }
      ],
      "stateMutability": "view",
      "type": "function"
    },
    {
      "inputs": [],
      "name": "RESERVED_NO_ADDITIONAL_FIELDS_TO_DIFF_MONEY",
      "outputs": [
        {
          "internalType": "uint8",
          "name": "",
          "type": "uint8"
        }
      ],
      "stateMutability": "view",
      "type": "function"
    },
    {
      "inputs": [],
      "name": "RESERVED_NO_ADDITIONAL_FIELDS_TO_INVESTOR",
      "outputs": [
        {
          "internalType": "uint8",
          "name": "",
          "type": "uint8"
        }
      ],
      "stateMutability": "view",
      "type": "function"
    },
    {
      "inputs": [],
      "name": "RESERVED_NO_ADDITIONAL_FIELDS_TO_SUPPLIER",
      "outputs": [
        {
          "internalType": "uint8",
          "name": "",
          "type": "uint8"
        }
      ],
      "stateMutability": "view",
      "type": "function"
    },
    {
      "inputs": [],
      "name": "RESERVED_USUAL_DISBURSEMENTS_ACCOUNT",
      "outputs": [
        {
          "internalType": "uint8",
          "name": "",
          "type": "uint8"
        }
      ],
      "stateMutability": "view",
      "type": "function"
    },
    {
      "inputs": [],
      "name": "bndesRoles",
      "outputs": [
        {
          "internalType": "contract ESGBndesToken_BNDESRoles",
          "name": "",
          "type": "address"
        }
      ],
      "stateMutability": "view",
      "type": "function"
    },
    {
      "inputs": [
        {
          "internalType": "uint256",
          "name": "",
          "type": "uint256"
        },
        {
          "internalType": "string",
          "name": "",
          "type": "string"
        }
      ],
      "name": "clients",
      "outputs": [
        {
          "internalType": "bool",
          "name": "",
          "type": "bool"
        }
      ],
      "stateMutability": "view",
      "type": "function"
    },
    {
      "inputs": [
        {
          "internalType": "uint256",
          "name": "",
          "type": "uint256"
        }
      ],
      "name": "hashApprovedExtraordinaryTransfers",
      "outputs": [
        {
          "internalType": "bytes32",
          "name": "",
          "type": "bytes32"
        }
      ],
      "stateMutability": "view",
      "type": "function"
    },
    {
      "inputs": [
        {
          "internalType": "bytes32",
          "name": "",
          "type": "bytes32"
        }
      ],
      "name": "hashToIdFinancialSupportAgreement",
      "outputs": [
        {
          "internalType": "string",
          "name": "",
          "type": "string"
        }
      ],
      "stateMutability": "view",
      "type": "function"
    },
    {
      "inputs": [
        {
          "internalType": "uint256",
          "name": "",
          "type": "uint256"
        }
      ],
      "name": "investors",
      "outputs": [
        {
          "internalType": "bool",
          "name": "",
          "type": "bool"
        }
      ],
      "stateMutability": "view",
      "type": "function"
    },
    {
      "inputs": [],
      "name": "owner",
      "outputs": [
        {
          "internalType": "address",
          "name": "",
          "type": "address"
        }
      ],
      "stateMutability": "view",
      "type": "function"
    },
    {
      "inputs": [],
      "name": "paused",
      "outputs": [
        {
          "internalType": "bool",
          "name": "",
          "type": "bool"
        }
      ],
      "stateMutability": "view",
      "type": "function"
    },
    {
      "inputs": [],
      "name": "rbbToken",
      "outputs": [
        {
          "internalType": "contract RBBToken",
          "name": "",
          "type": "address"
        }
      ],
      "stateMutability": "view",
      "type": "function"
    },
    {
      "inputs": [],
      "name": "registry",
      "outputs": [
        {
          "internalType": "contract RBBRegistry",
          "name": "",
          "type": "address"
        }
      ],
      "stateMutability": "view",
      "type": "function"
    },
    {
      "inputs": [],
      "name": "renounceOwnership",
      "outputs": [],
      "stateMutability": "nonpayable",
      "type": "function"
    },
    {
      "inputs": [
        {
          "internalType": "address",
          "name": "newRegistryAddr",
          "type": "address"
        }
      ],
      "name": "setInitializationDataDuringRegistration",
      "outputs": [],
      "stateMutability": "nonpayable",
      "type": "function"
    },
    {
      "inputs": [
        {
          "internalType": "uint256",
          "name": "",
          "type": "uint256"
        }
      ],
      "name": "suppliers",
      "outputs": [
        {
          "internalType": "bool",
          "name": "",
          "type": "bool"
        }
      ],
      "stateMutability": "view",
      "type": "function"
    },
    {
      "inputs": [
        {
          "internalType": "address",
          "name": "newOwner",
          "type": "address"
        }
      ],
      "name": "transferOwnership",
      "outputs": [],
      "stateMutability": "nonpayable",
      "type": "function"
    },
    {
      "inputs": [
        {
          "internalType": "uint256",
          "name": "amount",
          "type": "uint256"
        },
        {
          "internalType": "bytes32",
          "name": "docHash",
          "type": "bytes32"
        }
      ],
      "name": "bookInvestment",
      "outputs": [],
      "stateMutability": "nonpayable",
      "type": "function"
    },
    {
      "inputs": [
        {
          "internalType": "uint256",
          "name": "idInvestor",
          "type": "uint256"
        },
        {
          "internalType": "bytes32",
          "name": "specificHash",
          "type": "bytes32"
        },
        {
          "internalType": "uint256",
          "name": "amount",
          "type": "uint256"
        },
        {
          "internalType": "bytes32",
          "name": "docHash",
          "type": "bytes32"
        },
        {
          "internalType": "string[]",
          "name": "data",
          "type": "string[]"
        }
      ],
      "name": "verifyAndActForMint",
      "outputs": [],
      "stateMutability": "nonpayable",
      "type": "function"
    },
    {
      "inputs": [
        {
          "internalType": "bytes32",
          "name": "specificHash",
          "type": "bytes32"
        }
      ],
      "name": "getHashToMintedAccount",
      "outputs": [
        {
          "internalType": "bytes32",
          "name": "",
          "type": "bytes32"
        }
      ],
      "stateMutability": "nonpayable",
      "type": "function"
    },
    {
      "inputs": [
        {
          "internalType": "address",
          "name": "originalSender",
          "type": "address"
        },
        {
          "internalType": "uint256",
          "name": "fromId",
          "type": "uint256"
        },
        {
          "internalType": "bytes32",
          "name": "fromHash",
          "type": "bytes32"
        },
        {
          "internalType": "uint256",
          "name": "toId",
          "type": "uint256"
        },
        {
          "internalType": "bytes32",
          "name": "toHash",
          "type": "bytes32"
        },
        {
          "internalType": "uint256",
          "name": "amount",
          "type": "uint256"
        },
        {
          "internalType": "bytes32",
          "name": "docHash",
          "type": "bytes32"
        },
        {
          "internalType": "string[]",
          "name": "data",
          "type": "string[]"
        }
      ],
      "name": "verifyAndActForTransfer",
      "outputs": [],
      "stateMutability": "nonpayable",
      "type": "function"
    },
    {
      "inputs": [
        {
          "internalType": "address",
          "name": "originalSender",
          "type": "address"
        },
        {
          "internalType": "uint256",
          "name": "fromId",
          "type": "uint256"
        },
        {
          "internalType": "bytes32",
          "name": "fromHash",
          "type": "bytes32"
        },
        {
          "internalType": "uint256",
          "name": "amount",
          "type": "uint256"
        },
        {
          "internalType": "bytes32",
          "name": "docHash",
          "type": "bytes32"
        },
        {
          "internalType": "string[]",
          "name": "data",
          "type": "string[]"
        }
      ],
      "name": "verifyAndActForRedeem",
      "outputs": [],
      "stateMutability": "nonpayable",
      "type": "function"
    },
    {
      "inputs": [
        {
          "internalType": "bytes32",
          "name": "redemptionTransactionHash",
          "type": "bytes32"
        },
        {
          "internalType": "bytes32",
          "name": "docHash",
          "type": "bytes32"
        },
        {
          "internalType": "string[]",
          "name": "data",
          "type": "string[]"
        }
      ],
      "name": "verifyAndActForRedemptionSettlement",
      "outputs": [],
      "stateMutability": "nonpayable",
      "type": "function"
    },
    {
      "inputs": [
        {
          "internalType": "uint256",
          "name": "info",
          "type": "uint256"
        }
      ],
      "name": "getCalculatedHash",
      "outputs": [
        {
          "internalType": "bytes32",
          "name": "",
          "type": "bytes32"
        }
      ],
      "stateMutability": "pure",
      "type": "function"
    },
    {
      "inputs": [
        {
          "internalType": "string",
          "name": "info",
          "type": "string"
        }
      ],
      "name": "getCalculatedHash",
      "outputs": [
        {
          "internalType": "bytes32",
          "name": "",
          "type": "bytes32"
        }
      ],
      "stateMutability": "pure",
      "type": "function"
    },
    {
      "inputs": [
        {
          "internalType": "uint256",
          "name": "fromId",
          "type": "uint256"
        },
        {
          "internalType": "bytes32",
          "name": "fromHash",
          "type": "bytes32"
        },
        {
          "internalType": "uint256",
          "name": "toId",
          "type": "uint256"
        },
        {
          "internalType": "bytes32",
          "name": "toHash",
          "type": "bytes32"
        },
        {
          "internalType": "uint256",
          "name": "amount",
          "type": "uint256"
        },
        {
          "internalType": "bytes32",
          "name": "docHash",
          "type": "bytes32"
        }
      ],
      "name": "authorizeExtraordinaryTransfer",
      "outputs": [],
      "stateMutability": "nonpayable",
      "type": "function"
    },
    {
      "inputs": [
        {
          "internalType": "uint256",
          "name": "idInvestor",
          "type": "uint256"
        }
      ],
      "name": "addInvestor",
      "outputs": [],
      "stateMutability": "nonpayable",
      "type": "function"
    }
  ],
  "bytecode": "0x60806040526040518060400160405280601281526020017f494e495449414c5f414c4c4f434154494f4e00000000000000000000000000008152506009908051906020019062000051929190620003c1565b506040518060400160405280601981526020017f44495342555253454d454e545f564552494649434154494f4e00000000000000815250600a90805190602001906200009f929190620003c1565b506040518060400160405280602081526020017f434c49454e545f5041595f535550504c4945525f564552494649434154494f4e815250600b9080519060200190620000ed929190620003c1565b506040518060400160405280601f81526020017f424e4445535f5041595f535550504c4945525f564552494649434154494f4e00815250600c90805190602001906200013b929190620003c1565b506040518060400160405280601781526020017f45585452414f5244494e4152595f5452414e5346455253000000000000000000815250600d908051906020019062000189929190620003c1565b506000600e60006101000a81548160ff021916908360ff1602179055506001600e60016101000a81548160ff021916908360ff1602179055506002600e60026101000a81548160ff021916908360ff160217905550600a600e60036101000a81548160ff021916908360ff1602179055506014600e60046101000a81548160ff021916908360ff160217905550601e600e60056101000a81548160ff021916908360ff1602179055503480156200023f57600080fd5b5060405162005a9538038062005a9583398181016040528101906200026591906200047e565b600062000277620003b960201b60201c565b9050806000806101000a81548173ffffffffffffffffffffffffffffffffffffffff021916908373ffffffffffffffffffffffffffffffffffffffff1602179055508073ffffffffffffffffffffffffffffffffffffffff16600073ffffffffffffffffffffffffffffffffffffffff167f8be0079c531659141344cd1fd0a4f28419497f9722a3daafe3b4186f6b6457e060405160405180910390a35060008060146101000a81548160ff02191690831515021790555081600260006101000a81548173ffffffffffffffffffffffffffffffffffffffff021916908373ffffffffffffffffffffffffffffffffffffffff16021790555080600360006101000a81548173ffffffffffffffffffffffffffffffffffffffff021916908373ffffffffffffffffffffffffffffffffffffffff16021790555050506200050d565b600033905090565b828054600181600116156101000203166002900490600052602060002090601f016020900481019282601f106200040457805160ff191683800117855562000435565b8280016001018555821562000435579182015b828111156200043457825182559160200191906001019062000417565b5b50905062000444919062000448565b5090565b5b808211156200046357600081600090555060010162000449565b5090565b6000815190506200047881620004f3565b92915050565b600080604083850312156200049257600080fd5b6000620004a28582860162000467565b9250506020620004b58582860162000467565b9150509250929050565b6000620004cc82620004d3565b9050919050565b600073ffffffffffffffffffffffffffffffffffffffff82169050919050565b620004fe81620004bf565b81146200050a57600080fd5b50565b615578806200051d6000396000f3fe608060405234801561001057600080fd5b50600436106102065760003560e01c80638da5cb5b1161011a578063cd541b7a116100ad578063e04e624b1161007c578063e04e624b146105b9578063e4c7426f146105e9578063f2fde38b14610607578063fa7ca7ea14610623578063fc4b505d1461065357610206565b8063cd541b7a1461050b578063cea231211461053b578063daeb1cc91461056b578063df8d2abf1461059b57610206565b8063a6ee26e1116100e9578063a6ee26e114610485578063b201a777146104a1578063ba6ad853146104bf578063cc70091a146104db57610206565b80638da5cb5b146103fb5780638e66948114610419578063942429e4146104375780639eed3ad91461046757610206565b80635a961b151161019d5780636f3050671161016c5780636f3050671461037b578063715018a6146103995780637b103999146103a35780637ebf6830146103c15780638404e6e0146103dd57610206565b80635a961b15146103055780635c975abb146103235780635f23e09e1461034157806367da3e851461035d57610206565b806324547b8a116101d957806324547b8a1461027f5780633feb5f2b1461029d57806341574b3b146102cd57806355a2456e146102e957610206565b80630715aa6e1461020b57806307728f0f146102295780630990da73146102475780632133ca9014610263575b600080fd5b610213610671565b6040516102209190615295565b60405180910390f35b610231610684565b60405161023e9190614cd1565b60405180910390f35b610261600480360381019061025c9190613a2c565b610722565b005b61027d600480360381019061027891906139f0565b610900565b005b610287610b52565b6040516102949190615295565b60405180910390f35b6102b760048036038101906102b2919061399e565b610b65565b6040516102c49190614bdc565b60405180910390f35b6102e760048036038101906102e291906137da565b610b85565b005b61030360048036038101906102fe91906136e7565b611046565b005b61030d61108a565b60405161031a9190614cd1565b60405180910390f35b61032b611128565b6040516103389190614bdc565b60405180910390f35b61035b60048036038101906103569190613abb565b61113e565b005b610365611383565b6040516103729190614cd1565b60405180910390f35b610383611421565b6040516103909190615295565b60405180910390f35b6103a1611434565b005b6103ab611587565b6040516103b89190614c9b565b60405180910390f35b6103db60048036038101906103d6919061399e565b6115ad565b005b6103e56117b8565b6040516103f29190615295565b60405180910390f35b6104036117cb565b6040516104109190614ba6565b60405180910390f35b6104216117f4565b60405161042e9190614cd1565b60405180910390f35b610451600480360381019061044c919061399e565b611892565b60405161045e9190614bf7565b60405180910390f35b61046f6118c2565b60405161047c9190615295565b60405180910390f35b61049f600480360381019061049a91906138f6565b6118d5565b005b6104a96119f3565b6040516104b69190615295565b60405180910390f35b6104d960048036038101906104d49190613739565b611a06565b005b6104f560048036038101906104f0919061395d565b611c28565b6040516105029190614bf7565b60405180910390f35b610525600480360381019061052091906138cd565b611c58565b6040516105329190614bf7565b60405180910390f35b6105556004803603810190610550919061399e565b611c7c565b6040516105629190614bdc565b60405180910390f35b61058560048036038101906105809190613b44565b611c9c565b6040516105929190614bdc565b60405180910390f35b6105a3611ce1565b6040516105b09190614c80565b60405180910390f35b6105d360048036038101906105ce91906138cd565b611d07565b6040516105e09190614cd1565b60405180910390f35b6105f1611db7565b6040516105fe9190614cb6565b60405180910390f35b610621600480360381019061061c91906136e7565b611ddd565b005b61063d6004803603810190610638919061399e565b611f9f565b60405161064a9190614bf7565b60405180910390f35b61065b611fc0565b6040516106689190614cd1565b60405180910390f35b600e60009054906101000a900460ff1681565b60098054600181600116156101000203166002900480601f01602080910402602001604051908101604052809291908181526020018280546001816001161561010002031660029004801561071a5780601f106106ef5761010080835404028352916020019161071a565b820191906000526020600020905b8154815290600101906020018083116106fd57829003601f168201915b505050505081565b600060149054906101000a900460ff1615610772576040517f08c379a000000000000000000000000000000000000000000000000000000000815260040161076990614e8a565b60405180910390fd5b600260009054906101000a900473ffffffffffffffffffffffffffffffffffffffff1673ffffffffffffffffffffffffffffffffffffffff163373ffffffffffffffffffffffffffffffffffffffff1614610802576040517f08c379a00000000000000000000000000000000000000000000000000000000081526004016107f99061508a565b60405180910390fd5b8361081e600e60059054906101000a900460ff1660ff16611892565b1461085e576040517f08c379a000000000000000000000000000000000000000000000000000000000815260040161085590614f2a565b60405180910390fd5b6004600086815260200190815260200160002060009054906101000a900460ff166108be576040517f08c379a00000000000000000000000000000000000000000000000000000000081526004016108b590614faa565b60405180910390fd5b7fadbb44b3990a5ee272d4d16d6e02c412384a9fa9fb98c2c95d6baa4b009419838584846040516108f19392919061525e565b60405180910390a15050505050565b600060149054906101000a900460ff1615610950576040517f08c379a000000000000000000000000000000000000000000000000000000000815260040161094790614e8a565b60405180910390fd5b6000600160009054906101000a900473ffffffffffffffffffffffffffffffffffffffff1673ffffffffffffffffffffffffffffffffffffffff166365f68c89336040518263ffffffff1660e01b81526004016109ad9190614bc1565b60206040518083038186803b1580156109c557600080fd5b505afa1580156109d9573d6000803e3d6000fd5b505050506040513d601f19601f820116820180604052508101906109fd91906139c7565b90506004600082815260200190815260200160002060009054906101000a900460ff16610a5f576040517f08c379a0000000000000000000000000000000000000000000000000000000008152600401610a56906150aa565b60405180910390fd5b6000610a7c600e60059054906101000a900460ff1660ff16611892565b9050600260009054906101000a900473ffffffffffffffffffffffffffffffffffffffff1673ffffffffffffffffffffffffffffffffffffffff166304cc4d8e828487876040518563ffffffff1660e01b8152600401610adf9493929190614c3b565b600060405180830381600087803b158015610af957600080fd5b505af1158015610b0d573d6000803e3d6000fd5b505050507f32f1e22a0e84584b50065d5a6100cf373d794ef3c7cab1497e8259a77d2a0380828585604051610b449392919061525e565b60405180910390a150505050565b600e60019054906101000a900460ff1681565b60046020528060005260406000206000915054906101000a900460ff1681565b600060149054906101000a900460ff1615610bd5576040517f08c379a0000000000000000000000000000000000000000000000000000000008152600401610bcc90614e8a565b60405180910390fd5b600260009054906101000a900473ffffffffffffffffffffffffffffffffffffffff1673ffffffffffffffffffffffffffffffffffffffff163373ffffffffffffffffffffffffffffffffffffffff1614610c65576040517f08c379a0000000000000000000000000000000000000000000000000000000008152600401610c5c9061508a565b60405180910390fd5b606081600081518110610c7457fe5b6020026020010151905060008411610cc1576040517f08c379a0000000000000000000000000000000000000000000000000000000008152600401610cb890614e2a565b60405180910390fd5b73__RBBLib________________________________63465c41056009836040518363ffffffff1660e01b8152600401610cfb929190614cf3565b60206040518083038186803b158015610d1357600080fd5b505af4158015610d27573d6000803e3d6000fd5b505050506040513d601f19601f82011682018060405250810190610d4b91906138a4565b15610d6557610d60898989898989898961205e565b61103b565b73__RBBLib________________________________63465c4105600a836040518363ffffffff1660e01b8152600401610d9f929190614cf3565b60206040518083038186803b158015610db757600080fd5b505af4158015610dcb573d6000803e3d6000fd5b505050506040513d601f19601f82011682018060405250810190610def91906138a4565b15610e0957610e04898989898989898961245f565b61103a565b73__RBBLib________________________________63465c4105600b836040518363ffffffff1660e01b8152600401610e43929190614cf3565b60206040518083038186803b158015610e5b57600080fd5b505af4158015610e6f573d6000803e3d6000fd5b505050506040513d601f19601f82011682018060405250810190610e9391906138a4565b15610ead57610ea889898989898989896127c6565b611039565b73__RBBLib________________________________63465c4105600c836040518363ffffffff1660e01b8152600401610ee7929190614cf3565b60206040518083038186803b158015610eff57600080fd5b505af4158015610f13573d6000803e3d6000fd5b505050506040513d601f19601f82011682018060405250810190610f3791906138a4565b15610f5157610f4c89898989898989896129e8565b611038565b73__RBBLib________________________________63465c4105600d836040518363ffffffff1660e01b8152600401610f8b929190614cf3565b60206040518083038186803b158015610fa357600080fd5b505af4158015610fb7573d6000803e3d6000fd5b505050506040513d601f19601f82011682018060405250810190610fdb91906138a4565b15610ff557610ff08989898989898989612d82565b611037565b6000611036576040517f08c379a000000000000000000000000000000000000000000000000000000000815260040161102d90614f8a565b60405180910390fd5b5b5b5b5b5b505050505050505050565b80600160006101000a81548173ffffffffffffffffffffffffffffffffffffffff021916908373ffffffffffffffffffffffffffffffffffffffff16021790555050565b600d8054600181600116156101000203166002900480601f0160208091040260200160405190810160405280929190818152602001828054600181600116156101000203166002900480156111205780601f106110f557610100808354040283529160200191611120565b820191906000526020600020905b81548152906001019060200180831161110357829003601f168201915b505050505081565b60008060149054906101000a900460ff16905090565b3373ffffffffffffffffffffffffffffffffffffffff16600360009054906101000a900473ffffffffffffffffffffffffffffffffffffffff1673ffffffffffffffffffffffffffffffffffffffff16630b2e8fe96040518163ffffffff1660e01b815260040160206040518083038186803b1580156111bd57600080fd5b505afa1580156111d1573d6000803e3d6000fd5b505050506040513d601f19601f820116820180604052508101906111f59190613710565b73ffffffffffffffffffffffffffffffffffffffff161461124b576040517f08c379a000000000000000000000000000000000000000000000000000000000815260040161124290614dea565b60405180910390fd5b6112558686612fc7565b611294576040517f08c379a000000000000000000000000000000000000000000000000000000000815260040161128b90614eea565b60405180910390fd5b61129e8484612fc7565b6112dd576040517f08c379a00000000000000000000000000000000000000000000000000000000081526004016112d490614d2a565b60405180910390fd5b600086868686866040516020016112f8959493929190614b47565b60405160208183030381529060405280519060200120905060088190806001815401808255809150506001900390600052602060002001600090919091909150557f8fbc7818210c8d0cab55b36028efc60a3f6e71aa8ad8a2abb88cd9ba5f8167358787878787876040516113729695949392919061512e565b60405180910390a150505050505050565b600b8054600181600116156101000203166002900480601f0160208091040260200160405190810160405280929190818152602001828054600181600116156101000203166002900480156114195780601f106113ee57610100808354040283529160200191611419565b820191906000526020600020905b8154815290600101906020018083116113fc57829003601f168201915b505050505081565b600e60029054906101000a900460ff1681565b61143c613372565b73ffffffffffffffffffffffffffffffffffffffff1660008054906101000a900473ffffffffffffffffffffffffffffffffffffffff1673ffffffffffffffffffffffffffffffffffffffff16146114c9576040517f08c379a00000000000000000000000000000000000000000000000000000000081526004016114c090614f6a565b60405180910390fd5b600073ffffffffffffffffffffffffffffffffffffffff1660008054906101000a900473ffffffffffffffffffffffffffffffffffffffff1673ffffffffffffffffffffffffffffffffffffffff167f8be0079c531659141344cd1fd0a4f28419497f9722a3daafe3b4186f6b6457e060405160405180910390a360008060006101000a81548173ffffffffffffffffffffffffffffffffffffffff021916908373ffffffffffffffffffffffffffffffffffffffff160217905550565b600160009054906101000a900473ffffffffffffffffffffffffffffffffffffffff1681565b6115b5613372565b73ffffffffffffffffffffffffffffffffffffffff1660008054906101000a900473ffffffffffffffffffffffffffffffffffffffff1673ffffffffffffffffffffffffffffffffffffffff1614611642576040517f08c379a000000000000000000000000000000000000000000000000000000000815260040161163990614f6a565b60405180910390fd5b600160009054906101000a900473ffffffffffffffffffffffffffffffffffffffff1673ffffffffffffffffffffffffffffffffffffffff1663087d4427826040518263ffffffff1660e01b815260040161169d91906150ea565b60206040518083038186803b1580156116b557600080fd5b505afa1580156116c9573d6000803e3d6000fd5b505050506040513d601f19601f820116820180604052508101906116ed91906138a4565b61172c576040517f08c379a000000000000000000000000000000000000000000000000000000000815260040161172390614f4a565b60405180910390fd5b6004600082815260200190815260200160002060009054906101000a900460ff166117b55760016004600083815260200190815260200160002060006101000a81548160ff0219169083151502179055507fd9c26130cd486a63c174ea1059ce24d8dbe984e02df92bd7dadaa69fd271ec95816040516117ac91906150ea565b60405180910390a15b50565b600e60049054906101000a900460ff1681565b60008060009054906101000a900473ffffffffffffffffffffffffffffffffffffffff16905090565b600a8054600181600116156101000203166002900480601f01602080910402602001604051908101604052809291908181526020018280546001816001161561010002031660029004801561188a5780601f1061185f5761010080835404028352916020019161188a565b820191906000526020600020905b81548152906001019060200180831161186d57829003601f168201915b505050505081565b6000816040516020016118a59190614b2c565b604051602081830303815290604052805190602001209050919050565b600e60039054906101000a900460ff1681565b600060149054906101000a900460ff1615611925576040517f08c379a000000000000000000000000000000000000000000000000000000000815260040161191c90614e8a565b60405180910390fd5b600260009054906101000a900473ffffffffffffffffffffffffffffffffffffffff1673ffffffffffffffffffffffffffffffffffffffff163373ffffffffffffffffffffffffffffffffffffffff16146119b5576040517f08c379a00000000000000000000000000000000000000000000000000000000081526004016119ac9061508a565b60405180910390fd5b7ff2117f45bb026f7f165d939836d0293bad4b8aaf2e658cb38900da27a813065583836040516119e6929190614c12565b60405180910390a1505050565b600e60059054906101000a900460ff1681565b600060149054906101000a900460ff1615611a56576040517f08c379a0000000000000000000000000000000000000000000000000000000008152600401611a4d90614e8a565b60405180910390fd5b600260009054906101000a900473ffffffffffffffffffffffffffffffffffffffff1673ffffffffffffffffffffffffffffffffffffffff163373ffffffffffffffffffffffffffffffffffffffff1614611ae6576040517f08c379a0000000000000000000000000000000000000000000000000000000008152600401611add9061508a565b60405180910390fd5b60008311611b29576040517f08c379a0000000000000000000000000000000000000000000000000000000008152600401611b2090614e2a565b60405180910390fd5b6007600086815260200190815260200160002060009054906101000a900460ff16611b89576040517f08c379a0000000000000000000000000000000000000000000000000000000008152600401611b8090614e0a565b60405180910390fd5b83611ba5600e60049054906101000a900460ff1660ff16611892565b14611be5576040517f08c379a0000000000000000000000000000000000000000000000000000000008152600401611bdc90614e6a565b60405180910390fd5b7fb30495d559e05f5f1c993ea722cb239b6d85f70ed9c914b8350c4b94feed7ccd858484604051611c189392919061525e565b60405180910390a1505050505050565b600081604051602001611c3b9190614b15565b604051602081830303815290604052805190602001209050919050565b6000611c75600e60009054906101000a900460ff1660ff16611892565b9050919050565b60076020528060005260406000206000915054906101000a900460ff1681565b6005602052816000526040600020818051602081018201805184825260208301602085012081835280955050505050506000915091509054906101000a900460ff1681565b600360009054906101000a900473ffffffffffffffffffffffffffffffffffffffff1681565b60066020528060005260406000206000915090508054600181600116156101000203166002900480601f016020809104026020016040519081016040528092919081815260200182805460018160011615610100020316600290048015611daf5780601f10611d8457610100808354040283529160200191611daf565b820191906000526020600020905b815481529060010190602001808311611d9257829003601f168201915b505050505081565b600260009054906101000a900473ffffffffffffffffffffffffffffffffffffffff1681565b611de5613372565b73ffffffffffffffffffffffffffffffffffffffff1660008054906101000a900473ffffffffffffffffffffffffffffffffffffffff1673ffffffffffffffffffffffffffffffffffffffff1614611e72576040517f08c379a0000000000000000000000000000000000000000000000000000000008152600401611e6990614f6a565b60405180910390fd5b600073ffffffffffffffffffffffffffffffffffffffff168173ffffffffffffffffffffffffffffffffffffffff161415611ee2576040517f08c379a0000000000000000000000000000000000000000000000000000000008152600401611ed990614daa565b60405180910390fd5b8073ffffffffffffffffffffffffffffffffffffffff1660008054906101000a900473ffffffffffffffffffffffffffffffffffffffff1673ffffffffffffffffffffffffffffffffffffffff167f8be0079c531659141344cd1fd0a4f28419497f9722a3daafe3b4186f6b6457e060405160405180910390a3806000806101000a81548173ffffffffffffffffffffffffffffffffffffffff021916908373ffffffffffffffffffffffffffffffffffffffff16021790555050565b60088181548110611fac57fe5b906000526020600020016000915090505481565b600c8054600181600116156101000203166002900480601f0160208091040260200160405190810160405280929190818152602001828054600181600116156101000203166002900480156120565780601f1061202b57610100808354040283529160200191612056565b820191906000526020600020905b81548152906001019060200180831161203957829003601f168201915b505050505081565b600060149054906101000a900460ff16156120ae576040517f08c379a00000000000000000000000000000000000000000000000000000000081526004016120a590614e8a565b60405180910390fd5b8773ffffffffffffffffffffffffffffffffffffffff16600360009054906101000a900473ffffffffffffffffffffffffffffffffffffffff1673ffffffffffffffffffffffffffffffffffffffff1663329afd3a6040518163ffffffff1660e01b815260040160206040518083038186803b15801561212d57600080fd5b505afa158015612141573d6000803e3d6000fd5b505050506040513d601f19601f820116820180604052508101906121659190613710565b73ffffffffffffffffffffffffffffffffffffffff16146121bb576040517f08c379a00000000000000000000000000000000000000000000000000000000081526004016121b290614fea565b60405180910390fd5b6000600160009054906101000a900473ffffffffffffffffffffffffffffffffffffffff1673ffffffffffffffffffffffffffffffffffffffff166365f68c896122036117cb565b6040518263ffffffff1660e01b815260040161221f9190614ba6565b60206040518083038186803b15801561223757600080fd5b505afa15801561224b573d6000803e3d6000fd5b505050506040513d601f19601f8201168201806040525081019061226f91906139c7565b90508088146122b3576040517f08c379a00000000000000000000000000000000000000000000000000000000081526004016122aa9061504a565b60405180910390fd5b6122ce600e60009054906101000a900460ff1660ff16611892565b871461230f576040517f08c379a00000000000000000000000000000000000000000000000000000000081526004016123069061502a565b60405180910390fd5b858814612351576040517f08c379a000000000000000000000000000000000000000000000000000000000815260040161234890614f0a565b60405180910390fd5b61236c600e60019054906101000a900460ff1660ff16611892565b8514156123b1577f94d89c2ff047eba28eb56cacf5a8e292f150c43e792d648d54f8b93372849b3c84846040516123a4929190615105565b60405180910390a1612454565b6123cc600e60029054906101000a900460ff1660ff16611892565b851415612411577f7916e578b526c14777538bb519e208901510a7ff7765e2e339258b6ba65272fc8484604051612404929190615105565b60405180910390a1612453565b6000612452576040517f08c379a00000000000000000000000000000000000000000000000000000000081526004016124499061506a565b60405180910390fd5b5b5b505050505050505050565b600060149054906101000a900460ff16156124af576040517f08c379a00000000000000000000000000000000000000000000000000000000081526004016124a690614e8a565b60405180910390fd5b6060816001815181106124be57fe5b602002602001015190506000600160009054906101000a900473ffffffffffffffffffffffffffffffffffffffff1673ffffffffffffffffffffffffffffffffffffffff166365f68c896125106117cb565b6040518263ffffffff1660e01b815260040161252c9190614ba6565b60206040518083038186803b15801561254457600080fd5b505afa158015612558573d6000803e3d6000fd5b505050506040513d601f19601f8201168201806040525081019061257c91906139c7565b9050600360009054906101000a900473ffffffffffffffffffffffffffffffffffffffff1673ffffffffffffffffffffffffffffffffffffffff16638cabf1286040518163ffffffff1660e01b815260040160206040518083038186803b1580156125e657600080fd5b505afa1580156125fa573d6000803e3d6000fd5b505050506040513d601f19601f8201168201806040525081019061261e9190613710565b73ffffffffffffffffffffffffffffffffffffffff168a73ffffffffffffffffffffffffffffffffffffffff161461268b576040517f08c379a000000000000000000000000000000000000000000000000000000000815260040161268290614eaa565b60405180910390fd5b8089146126cd576040517f08c379a00000000000000000000000000000000000000000000000000000000081526004016126c49061504a565b60405180910390fd5b876126e9600e60019054906101000a900460ff1660ff16611892565b14612729576040517f08c379a000000000000000000000000000000000000000000000000000000000815260040161272090614dca565b60405180910390fd5b8561273383611c28565b14612773576040517f08c379a000000000000000000000000000000000000000000000000000000000815260040161276a906150ca565b60405180910390fd5b61277d878361337a565b7fe08d0d3d48ef9857108be67cfe715057ce9b455eaf3a4d3b66f34bf148311d7a878387876040516127b2949392919061518f565b60405180910390a150505050505050505050565b600060149054906101000a900460ff1615612816576040517f08c379a000000000000000000000000000000000000000000000000000000000815260040161280d90614e8a565b60405180910390fd5b60608160018151811061282557fe5b6020026020010151905060056000898152602001908152602001600020816040516128509190614b15565b908152602001604051809103902060009054906101000a900460ff166128ab576040517f08c379a00000000000000000000000000000000000000000000000000000000081526004016128a290614d6a565b60405180910390fd5b866128b582611c28565b146128f5576040517f08c379a00000000000000000000000000000000000000000000000000000000081526004016128ec906150ca565b60405180910390fd5b84612911600e60049054906101000a900460ff1660ff16611892565b14612951576040517f08c379a000000000000000000000000000000000000000000000000000000000815260040161294890614e6a565b60405180910390fd5b85881415612994576040517f08c379a000000000000000000000000000000000000000000000000000000000815260040161298b90614eca565b60405180910390fd5b61299e8887613475565b7fdd62ead748da3466d84db25e6f55c3213f29aaf5c159d4d576018cd84209782688828887876040516129d59594939291906151db565b60405180910390a1505050505050505050565b600060149054906101000a900460ff1615612a38576040517f08c379a0000000000000000000000000000000000000000000000000000000008152600401612a2f90614e8a565b60405180910390fd5b600160009054906101000a900473ffffffffffffffffffffffffffffffffffffffff1673ffffffffffffffffffffffffffffffffffffffff166365f68c89612a7e6117cb565b6040518263ffffffff1660e01b8152600401612a9a9190614ba6565b60206040518083038186803b158015612ab257600080fd5b505afa158015612ac6573d6000803e3d6000fd5b505050506040513d601f19601f82011682018060405250810190612aea91906139c7565b8714612b2b576040517f08c379a0000000000000000000000000000000000000000000000000000000008152600401612b2290614d8a565b60405180910390fd5b600360009054906101000a900473ffffffffffffffffffffffffffffffffffffffff1673ffffffffffffffffffffffffffffffffffffffff1663e38d4ef76040518163ffffffff1660e01b815260040160206040518083038186803b158015612b9357600080fd5b505afa158015612ba7573d6000803e3d6000fd5b505050506040513d601f19601f82011682018060405250810190612bcb9190613710565b73ffffffffffffffffffffffffffffffffffffffff168873ffffffffffffffffffffffffffffffffffffffff1614612c38576040517f08c379a0000000000000000000000000000000000000000000000000000000008152600401612c2f90614e4a565b60405180910390fd5b85612c54600e60029054906101000a900460ff1660ff16611892565b14612c94576040517f08c379a0000000000000000000000000000000000000000000000000000000008152600401612c8b9061500a565b60405180910390fd5b83612cb0600e60049054906101000a900460ff1660ff16611892565b14612cf0576040517f08c379a0000000000000000000000000000000000000000000000000000000008152600401612ce790614e6a565b60405180910390fd5b84871415612d33576040517f08c379a0000000000000000000000000000000000000000000000000000000008152600401612d2a90614fca565b60405180910390fd5b612d3d8786613475565b7f8316c04a0a2b1e71f63264f2f0380d43ae9f758672a97012d6880fcedcb54232858484604051612d709392919061525e565b60405180910390a15050505050505050565b600060149054906101000a900460ff1615612dd2576040517f08c379a0000000000000000000000000000000000000000000000000000000008152600401612dc990614e8a565b60405180910390fd5b612ddc8787612fc7565b612e1b576040517f08c379a0000000000000000000000000000000000000000000000000000000008152600401612e1290614eea565b60405180910390fd5b612e258585612fc7565b612e64576040517f08c379a0000000000000000000000000000000000000000000000000000000008152600401612e5b90614d2a565b60405180910390fd5b60008787878787604051602001612e7f959493929190614b47565b6040516020818303038152906040528051906020012090506000805b600880549050811015612edd578260088281548110612eb657fe5b90600052602060002001541415612ed05760019150612edd565b8080600101915050612e9b565b81612f1d576040517f08c379a0000000000000000000000000000000000000000000000000000000008152600401612f1490614d4a565b60405180910390fd5b600860016008805490500381548110612f3257fe5b906000526020600020015460088281548110612f4a57fe5b90600052602060002001819055506008805480612f6357fe5b600190038181906000526020600020016000905590557fae2b72cc4621b123feac073da32309bdd45fefaa49154814cd8c8b3c7c4d5cb78a8a8a8a8a8a604051612fb29695949392919061512e565b60405180910390a15050505050505050505050565b6000600115156004600085815260200190815260200160002060009054906101000a900460ff1615151415612fff576001905061336c565b6060600660008481526020019081526020016000208054600181600116156101000203166002900480601f0160208091040260200160405190810160405280929190818152602001828054600181600116156101000203166002900480156130a85780601f1061307d576101008083540402835291602001916130a8565b820191906000526020600020905b81548152906001019060200180831161308b57829003601f168201915b505050505090506001151560056000868152602001908152602001600020826040516130d49190614b15565b908152602001604051809103902060009054906101000a900460ff161515141561310257600191505061336c565b600115156007600086815260200190815260200160002060009054906101000a900460ff161515141561313957600191505061336c565b6000600160009054906101000a900473ffffffffffffffffffffffffffffffffffffffff1673ffffffffffffffffffffffffffffffffffffffff166365f68c896131816117cb565b6040518263ffffffff1660e01b815260040161319d9190614ba6565b60206040518083038186803b1580156131b557600080fd5b505afa1580156131c9573d6000803e3d6000fd5b505050506040513d601f19601f820116820180604052508101906131ed91906139c7565b9050848114156132025760019250505061336c565b6000600160009054906101000a900473ffffffffffffffffffffffffffffffffffffffff1673ffffffffffffffffffffffffffffffffffffffff166365f68c89600260009054906101000a900473ffffffffffffffffffffffffffffffffffffffff1673ffffffffffffffffffffffffffffffffffffffff16638da5cb5b6040518163ffffffff1660e01b815260040160206040518083038186803b1580156132aa57600080fd5b505afa1580156132be573d6000803e3d6000fd5b505050506040513d601f19601f820116820180604052508101906132e29190613710565b6040518263ffffffff1660e01b81526004016132fe9190614ba6565b60206040518083038186803b15801561331657600080fd5b505afa15801561332a573d6000803e3d6000fd5b505050506040513d601f19601f8201168201806040525081019061334e91906139c7565b905085811415613364576001935050505061336c565b600093505050505b92915050565b600033905090565b600560008381526020019081526020016000208160405161339b9190614b15565b908152602001604051809103902060009054906101000a900460ff1661347157600160056000848152602001908152602001600020826040516133de9190614b15565b908152602001604051809103902060006101000a81548160ff021916908315150217905550600061340e82611c28565b905081600660008381526020019081526020016000209080519060200190613437929190613504565b507f448b0dd714fa3713f69988b8ee8bad3ac840e06e3d93c970086a3d490d61c6298360405161346791906150ea565b60405180910390a1505b5050565b6007600082815260200190815260200160002060009054906101000a900460ff166135005760016007600083815260200190815260200160002060006101000a81548160ff0219169083151502179055507f2757aa27a660ab391745e035b5a23653f6497d768c445f6a9c3df78e1d18727f82826040516134f7929190615235565b60405180910390a15b5050565b828054600181600116156101000203166002900490600052602060002090601f016020900481019282601f1061354557805160ff1916838001178555613573565b82800160010185558215613573579182015b82811115613572578251825591602001919060010190613557565b5b5090506135809190613584565b5090565b5b8082111561359d576000816000905550600101613585565b5090565b6000813590506135b0816154e6565b92915050565b6000815190506135c5816154e6565b92915050565b600082601f8301126135dc57600080fd5b81356135ef6135ea826152dd565b6152b0565b9150818183526020840193506020810190508360005b83811015613635578135860161361b8882613669565b845260208401935060208301925050600181019050613605565b5050505092915050565b60008151905061364e816154fd565b92915050565b60008135905061366381615514565b92915050565b600082601f83011261367a57600080fd5b813561368d61368882615305565b6152b0565b915080825260208301602083018583830111156136a957600080fd5b6136b483828461547f565b50505092915050565b6000813590506136cc8161552b565b92915050565b6000815190506136e18161552b565b92915050565b6000602082840312156136f957600080fd5b6000613707848285016135a1565b91505092915050565b60006020828403121561372257600080fd5b6000613730848285016135b6565b91505092915050565b60008060008060008060c0878903121561375257600080fd5b600061376089828a016135a1565b965050602061377189828a016136bd565b955050604061378289828a01613654565b945050606061379389828a016136bd565b93505060806137a489828a01613654565b92505060a087013567ffffffffffffffff8111156137c157600080fd5b6137cd89828a016135cb565b9150509295509295509295565b600080600080600080600080610100898b0312156137f757600080fd5b60006138058b828c016135a1565b98505060206138168b828c016136bd565b97505060406138278b828c01613654565b96505060606138388b828c016136bd565b95505060806138498b828c01613654565b94505060a061385a8b828c016136bd565b93505060c061386b8b828c01613654565b92505060e089013567ffffffffffffffff81111561388857600080fd5b6138948b828c016135cb565b9150509295985092959890939650565b6000602082840312156138b657600080fd5b60006138c48482850161363f565b91505092915050565b6000602082840312156138df57600080fd5b60006138ed84828501613654565b91505092915050565b60008060006060848603121561390b57600080fd5b600061391986828701613654565b935050602061392a86828701613654565b925050604084013567ffffffffffffffff81111561394757600080fd5b613953868287016135cb565b9150509250925092565b60006020828403121561396f57600080fd5b600082013567ffffffffffffffff81111561398957600080fd5b61399584828501613669565b91505092915050565b6000602082840312156139b057600080fd5b60006139be848285016136bd565b91505092915050565b6000602082840312156139d957600080fd5b60006139e7848285016136d2565b91505092915050565b60008060408385031215613a0357600080fd5b6000613a11858286016136bd565b9250506020613a2285828601613654565b9150509250929050565b600080600080600060a08688031215613a4457600080fd5b6000613a52888289016136bd565b9550506020613a6388828901613654565b9450506040613a74888289016136bd565b9350506060613a8588828901613654565b925050608086013567ffffffffffffffff811115613aa257600080fd5b613aae888289016135cb565b9150509295509295909350565b60008060008060008060c08789031215613ad457600080fd5b6000613ae289828a016136bd565b9650506020613af389828a01613654565b9550506040613b0489828a016136bd565b9450506060613b1589828a01613654565b9350506080613b2689828a016136bd565b92505060a0613b3789828a01613654565b9150509295509295509295565b60008060408385031215613b5757600080fd5b6000613b65858286016136bd565b925050602083013567ffffffffffffffff811115613b8257600080fd5b613b8e85828601613669565b9150509250929050565b613ba1816153dd565b82525050565b613bb08161537e565b82525050565b613bbf81615390565b82525050565b613bce8161539c565b82525050565b613be5613be08261539c565b6154c1565b82525050565b613bf4816153ef565b82525050565b613c0381615413565b82525050565b613c1281615437565b82525050565b6000613c2382615346565b613c2d8185615351565b9350613c3d81856020860161548e565b613c46816154d5565b840191505092915050565b6000613c5c82615346565b613c668185615362565b9350613c7681856020860161548e565b613c7f816154d5565b840191505092915050565b6000613c9582615346565b613c9f8185615373565b9350613caf81856020860161548e565b80840191505092915050565b600081546001811660008114613cd85760018114613cfe57613d42565b607f6002830416613ce98187615362565b955060ff198316865260208601935050613d42565b60028204613d0c8187615362565b9550613d1785615331565b60005b82811015613d3957815481890152600182019150602081019050613d1a565b80880195505050505b505092915050565b6000613d57603d83615351565b91507f456e64657265c3a76f2064652064657374696e6f206ec3a36f20696e636c75c360008301527fad646f20636f6d6f20706170656c206e6573736520636164617374726f0000006020830152604082019050919050565b6000613dbd603083615351565b91507f496e74657276656ec3a7c3a36f206d616e75616c206ec3a36f2070726576696160008301527f6d656e74652063616461737472616461000000000000000000000000000000006020830152604082019050919050565b6000613e23604483615351565b91507f536f6d656e746520636c69656e74657320656d20636f6e747261746f7320636160008301527f646173747261646f7320706f64656d206578656375746172206f20706167616d60208301527f656e746f000000000000000000000000000000000000000000000000000000006040830152606082019050919050565b6000613eaf602983615351565b91507f536f6d656e7465206f20424e44455320706f6465206578656375746172206f2060008301527f706167616d656e746f00000000000000000000000000000000000000000000006020830152604082019050919050565b6000613f15602683615351565b91507f4f776e61626c653a206e6577206f776e657220697320746865207a65726f206160008301527f64647265737300000000000000000000000000000000000000000000000000006020830152604082019050919050565b6000613f7b602a83615351565b91507f4572726f206e6f2063c3a16c63756c6f20646f206861736820646120636f6e7460008301527f6120646f20424e444553000000000000000000000000000000000000000000006020830152604082019050919050565b6000613fe1605783615351565b91507f536f6d656e746520756d20726573706f6e73c3a176656c2070656c617320747260008301527f616e73666572c3aa6e636961732065787472616f7264696ec3a172696173207060208301527f6f7220656e766961722061207472616e7361c3a7c3a36f0000000000000000006040830152606082019050919050565b600061406d602f83615351565b91507f536f6d656e746520666f726e656365646f72657320706f64656d20657865637560008301527f746172206f20706167616d656e746f00000000000000000000000000000000006020830152604082019050919050565b60006140d3603583615351565b91507f56616c6f72206120736572207472616e736163696f6e61646f2064657665207360008301527f6572206d61696f7220646f20717565207a65726f2e00000000000000000000006020830152604082019050919050565b6000614139606483615351565b91507f45737461207472616e7361c3a7c3a36f2073c3b320706f64652073657220657860008301527f656375746164612070656c6f20726573706f6e73c3a176656c2070656c6f206460208301527f6f20706167616d656e746f20646520666f726e656365646f72657320646f204260408301527f4e444553000000000000000000000000000000000000000000000000000000006060830152608082019050919050565b60006141eb602f83615351565b91507f4572726f206e6f2063c3a16c63756c6f20646f206861736820646120636f6e7460008301527f6120646f20666f726e656365646f7200000000000000000000000000000000006020830152604082019050919050565b6000614251601083615351565b91507f5061757361626c653a20706175736564000000000000000000000000000000006000830152602082019050919050565b6000614291604983615351565b91507f45737461207472616e7361c3a7c3a36f2073c3b320706f64652073657220657860008301527f656375746164612070656c6f20726573706f6e73c3a176656c2070656c6f206460208301527f6573656d626f6c736f00000000000000000000000000000000000000000000006040830152606082019050919050565b600061431d606883615351565b91507f556d20696e737469747569c3a7c3a36f206ec3a36f20706f6465207472616e7360008301527f666572697220746f6b656e20706172612073692c2061696e646120717565206560208301527f6d20706170c3a969732064697374696e746f732028436c69656e74652f466f7260408301527f6e656365646f72290000000000000000000000000000000000000000000000006060830152608082019050919050565b60006143cf603c83615351565b91507f456e64657265c3a76f206465206f726967656d206ec3a36f20696e636c75c3ad60008301527f646f20636f6d6f20706170656c206e6573736520636164617374726f000000006020830152604082019050919050565b6000614435604583615351565b91507f49642064652064657374696e6f206461207472616e7361c3a7c3a36f206ec3a360008301527f6f20657374c3a120696775616c20616f20646f206f776e657220646f20636f6e60208301527f747261746f0000000000000000000000000000000000000000000000000000006040830152606082019050919050565b60006144c1602483615351565b91507f4572726f206e6f2063c3a16c63756c6f20646f206861736820646120646f61c360008301527fa7c3a36f000000000000000000000000000000000000000000000000000000006020830152604082019050919050565b6000614527603783615351565b91507f436f6e746120646520696e7665737469646f722070726563697361206573746160008301527f7220636f6d20636164617374726f2076616c696461646f0000000000000000006020830152604082019050919050565b600061458d602083615351565b91507f4f776e61626c653a2063616c6c6572206973206e6f7420746865206f776e65726000830152602082019050919050565b60006145cd604283615351565b91507f4e656e68756d61207665726966696361c3a7c3a36f206573706563c3ad66696360008301527f6120656e636f6e747261646120706172612061207472616e73666572c3aa6e6360208301527f69610000000000000000000000000000000000000000000000000000000000006040830152606082019050919050565b6000614659603383615351565b91507f446576657269612073657220756d20696e7665737469646f722c20726567697360008301527f74726f20657374616820696e636f727265746f000000000000000000000000006020830152604082019050919050565b60006146bf602b83615351565b91507f556d20424e444553206ec3a36f20706f6465207472616e73666572697220746f60008301527f6b656e20706172612073690000000000000000000000000000000000000000006020830152604082019050919050565b6000614725604c83615351565b91507f536f6d656e746520756d20726573706f6e73c3a176656c2070656c617320616c60008301527f6f6361c3a7c3b5657320696e69636961697320706f646520656e76696172206160208301527f207472616e7361c3a7c3a36f00000000000000000000000000000000000000006040830152606082019050919050565b60006147b1604183615351565b91507f4572726f206e6f2063c3a16c63756c6f20646f206861736820646120636f6e7460008301527f612064652061646d696e20646f20636f6e747261746f2065737065636966696360208301527f6f000000000000000000000000000000000000000000000000000000000000006040830152606082019050919050565b600061483d603083615351565b91507f48617368206465206f726967656d206461207472616e7361c3a7c3a36f206ec360008301527fa36f20657374c3a120636f727265746f000000000000000000000000000000006020830152604082019050919050565b60006148a3604483615351565b91507f4964206465206f726967656d206461207472616e7361c3a7c3a36f206ec3a36f60008301527f20657374c3a120696775616c20616f20646f206f776e657220646f20636f6e7460208301527f7261746f000000000000000000000000000000000000000000000000000000006040830152606082019050919050565b600061492f604983615351565b91507f486173682064652064657374696e6f206ec3a36f20657374c3a120636f72726560008301527f73706f6e64656e7465206120636f6e746120646520646573656d626f6c736f2060208301527f6f752064652061646d00000000000000000000000000000000000000000000006040830152606082019050919050565b60006149bb603083615351565b91507f45737365206dc3a9746f646f2073c3b320706f646520736572206368616d616460008301527f6f2070656c6f205242425f546f6b656e000000000000000000000000000000006020830152604082019050919050565b6000614a21603b83615351565b91507f536f6d656e746520696e7665737469646f726573206361646173747261646f7360008301527f20706f64656d20657865637574617220657373612061c3a7c3a36f00000000006020830152604082019050919050565b6000614a87602c83615351565b91507f4572726f206e6f2063c3a16c63756c6f20646f206861736820646120636f6e7460008301527f6120646f20636c69656e746500000000000000000000000000000000000000006020830152604082019050919050565b614ae9816153c6565b82525050565b614b00614afb826153c6565b6154cb565b82525050565b614b0f816153d0565b82525050565b6000614b218284613c8a565b915081905092915050565b6000614b388284614aef565b60208201915081905092915050565b6000614b538288614aef565b602082019150614b638287613bd4565b602082019150614b738286614aef565b602082019150614b838285613bd4565b602082019150614b938284614aef565b6020820191508190509695505050505050565b6000602082019050614bbb6000830184613ba7565b92915050565b6000602082019050614bd66000830184613b98565b92915050565b6000602082019050614bf16000830184613bb6565b92915050565b6000602082019050614c0c6000830184613bc5565b92915050565b6000604082019050614c276000830185613bc5565b614c346020830184613bc5565b9392505050565b6000608082019050614c506000830187613bc5565b614c5d6020830186614ae0565b614c6a6040830185614ae0565b614c776060830184613bc5565b95945050505050565b6000602082019050614c956000830184613beb565b92915050565b6000602082019050614cb06000830184613bfa565b92915050565b6000602082019050614ccb6000830184613c09565b92915050565b60006020820190508181036000830152614ceb8184613c18565b905092915050565b60006040820190508181036000830152614d0d8185613cbb565b90508181036020830152614d218184613c51565b90509392505050565b60006020820190508181036000830152614d4381613d4a565b9050919050565b60006020820190508181036000830152614d6381613db0565b9050919050565b60006020820190508181036000830152614d8381613e16565b9050919050565b60006020820190508181036000830152614da381613ea2565b9050919050565b60006020820190508181036000830152614dc381613f08565b9050919050565b60006020820190508181036000830152614de381613f6e565b9050919050565b60006020820190508181036000830152614e0381613fd4565b9050919050565b60006020820190508181036000830152614e2381614060565b9050919050565b60006020820190508181036000830152614e43816140c6565b9050919050565b60006020820190508181036000830152614e638161412c565b9050919050565b60006020820190508181036000830152614e83816141de565b9050919050565b60006020820190508181036000830152614ea381614244565b9050919050565b60006020820190508181036000830152614ec381614284565b9050919050565b60006020820190508181036000830152614ee381614310565b9050919050565b60006020820190508181036000830152614f03816143c2565b9050919050565b60006020820190508181036000830152614f2381614428565b9050919050565b60006020820190508181036000830152614f43816144b4565b9050919050565b60006020820190508181036000830152614f638161451a565b9050919050565b60006020820190508181036000830152614f8381614580565b9050919050565b60006020820190508181036000830152614fa3816145c0565b9050919050565b60006020820190508181036000830152614fc38161464c565b9050919050565b60006020820190508181036000830152614fe3816146b2565b9050919050565b6000602082019050818103600083015261500381614718565b9050919050565b60006020820190508181036000830152615023816147a4565b9050919050565b6000602082019050818103600083015261504381614830565b9050919050565b6000602082019050818103600083015261506381614896565b9050919050565b6000602082019050818103600083015261508381614922565b9050919050565b600060208201905081810360008301526150a3816149ae565b9050919050565b600060208201905081810360008301526150c381614a14565b9050919050565b600060208201905081810360008301526150e381614a7a565b9050919050565b60006020820190506150ff6000830184614ae0565b92915050565b600060408201905061511a6000830185614ae0565b6151276020830184613bc5565b9392505050565b600060c0820190506151436000830189614ae0565b6151506020830188613bc5565b61515d6040830187614ae0565b61516a6060830186613bc5565b6151776080830185614ae0565b61518460a0830184613bc5565b979650505050505050565b60006080820190506151a46000830187614ae0565b81810360208301526151b68186613c18565b90506151c56040830185614ae0565b6151d26060830184613bc5565b95945050505050565b600060a0820190506151f06000830188614ae0565b81810360208301526152028187613c18565b90506152116040830186614ae0565b61521e6060830185614ae0565b61522b6080830184613bc5565b9695505050505050565b600060408201905061524a6000830185614ae0565b6152576020830184614ae0565b9392505050565b60006060820190506152736000830186614ae0565b6152806020830185614ae0565b61528d6040830184613bc5565b949350505050565b60006020820190506152aa6000830184614b06565b92915050565b6000604051905081810181811067ffffffffffffffff821117156152d357600080fd5b8060405250919050565b600067ffffffffffffffff8211156152f457600080fd5b602082029050602081019050919050565b600067ffffffffffffffff82111561531c57600080fd5b601f19601f8301169050602081019050919050565b60008190508160005260206000209050919050565b600081519050919050565b600082825260208201905092915050565b600082825260208201905092915050565b600081905092915050565b6000615389826153a6565b9050919050565b60008115159050919050565b6000819050919050565b600073ffffffffffffffffffffffffffffffffffffffff82169050919050565b6000819050919050565b600060ff82169050919050565b60006153e88261545b565b9050919050565b60006153fa82615401565b9050919050565b600061540c826153a6565b9050919050565b600061541e82615425565b9050919050565b6000615430826153a6565b9050919050565b600061544282615449565b9050919050565b6000615454826153a6565b9050919050565b60006154668261546d565b9050919050565b6000615478826153a6565b9050919050565b82818337600083830152505050565b60005b838110156154ac578082015181840152602081019050615491565b838111156154bb576000848401525b50505050565b6000819050919050565b6000819050919050565b6000601f19601f8301169050919050565b6154ef8161537e565b81146154fa57600080fd5b50565b61550681615390565b811461551157600080fd5b50565b61551d8161539c565b811461552857600080fd5b50565b615534816153c6565b811461553f57600080fd5b5056fea26469706673582212205d5cca2055e87a95e14d76578d889bd4c7129c8a58f02e42bd393e51c2393d2564736f6c634300060c0033",
  "immutableReferences": {},
  "source": "pragma solidity ^0.6.0;\npragma experimental ABIEncoderV2;\n\n\nimport \"./RBBLib.sol\";\nimport \"./RBBRegistry.sol\";\nimport \"./RBBToken.sol\";\nimport \"./SpecificRBBToken.sol\";\nimport \"./ESGBndesToken_BNDESRoles.sol\";\nimport \"@openzeppelin/contracts/access/Ownable.sol\";\nimport \"@openzeppelin/contracts/utils/Pausable.sol\";\nimport \"@openzeppelin/contracts/math/SafeMath.sol\";\n\n\n/*\nTodas as operaes j supem que a entidade de origem e destino esto cadastradas e validadas no RBB_Registry, pois isso  garantido pelo contrato genrico (RBB_Token)\nNo includo (TBD):\n------------\n- requisito adicional de o cliente poder resgatar uma parte do valor (ao invs de ter que necessariamente transferir tudo ao fornecedor)\n- ideia de o fornecedor poder sacar mais de um saldo ao mesmo tempo.\n- pedido inicial de financiamento do cliente \n- devoluo de fornecedor para cliente sem anuncia para o BNDES\n- controle que cada doacao realmente se transformou em duas transacoes, uma para a conta adm e outra para a conta usual\nuint admFee = amount.mul(bndesFee).div(100);\n- perodo de validade para as autorizaes de transferncias extraordinrias\n- invalidar doador, cliente e fornecedor (por exemplo, em caso de CNPJ deixar de existir, contrato com BNDES acabar ou periodicamente)\n- permitir criar perfis diferenciados para contas dos clientes e fornecedores\n- incluir possibilidade de remover doadores, clientes e, talvez, fornecedores\n*/\ncontract ESGBndesToken is SpecificRBBToken {\n\n    RBBToken public rbbToken;\n    ESGBndesToken_BNDESRoles public bndesRoles;\n\n    //RBBId investor => true/false (registered or not)\n    mapping (uint => bool) public investors;\n\n    //RBBId client => (idFinancialSupportAgreement Client => true/false (registered or not)\n    mapping (uint => mapping (string => bool)) public clients;\n    mapping (bytes32 => string) public hashToIdFinancialSupportAgreement;\n\n    //RBBId supplier => true/false (registered or not)\n    mapping (uint => bool) public suppliers;\n\n    //Hash of approved Extraordinary Transfers\n    bytes32[] public hashApprovedExtraordinaryTransfers;\n\n    // BNDES Fee percentage\n//   uint256 public bndesFee;    \n\n    //Types of transfer operation\n    string public INITIAL_ALLOCATION = \"INITIAL_ALLOCATION\";\n    string public DISBURSEMENT_VERIFICATION = \"DISBURSEMENT_VERIFICATION\";\n    string public CLIENT_PAY_SUPPLIER_VERIFICATION = \"CLIENT_PAY_SUPPLIER_VERIFICATION\";\n    string public BNDES_PAY_SUPPLIER_VERIFICATION = \"BNDES_PAY_SUPPLIER_VERIFICATION\";\n    string public EXTRAORDINARY_TRANSFERS = \"EXTRAORDINARY_TRANSFERS\";\n\n\n    uint8 public RESERVED_MINTED_ACCOUNT = 0;\n    uint8 public RESERVED_USUAL_DISBURSEMENTS_ACCOUNT = 1;\n    uint8 public RESERVED_BNDES_ADMIN_FEE_TO_HASH = 2;\n    uint8 public RESERVED_NO_ADDITIONAL_FIELDS_TO_INVESTOR = 10;\n    uint8 public RESERVED_NO_ADDITIONAL_FIELDS_TO_SUPPLIER = 20;\n    uint8 public RESERVED_NO_ADDITIONAL_FIELDS_TO_DIFF_MONEY = 30;\n\n    using SafeMath for uint;\n   \n    event FA_InvestmentBooked(uint idInvestor, uint amount, bytes32 docHash);\n    event FA_InvestmentConfirmed(uint idInvestor, uint amount, bytes32 docHash);\n\n    event FA_InitialAllocation_Disbursements(uint amount, bytes32 docHash);\n    event FA_InitialAllocation_Fee(uint amount, bytes32 docHash);\n\n    event FA_Disbursement  (uint idClient, string idFinancialSupportAgreement, uint amount, bytes32 docHash);\n    event FA_TokenTransfer (uint fromId, string fromIdFinancialSupportAgreement, uint toId, uint amount, bytes32 docHash);\n    event FA_BNDES_TokenTransfer(uint toId, uint amount, bytes32 docHash);\n    event FA_RedemptionRequested (uint idClaimer, uint amount, bytes32 docHash);\n    event FA_RedemptionSettlement(bytes32 redemptionTransactionHash, bytes32 docHash);\n \n    event FA_ExtraordinaryTransferAllowed (uint fromId, bytes32 fromHash, uint toId, bytes32 toHash, \n            uint amount, bytes32 docHash);\n    event FA_ExtraordinaryTransferExecuted(uint fromId, bytes32 fromHash, uint toId, bytes32 toHash, \n            uint amount, bytes32 docHash);\n\n//    event FA_ManualIntervention_Fee(uint256 percent, bytes32 docHash);\n\n    event FA_InvestorAdded(uint id);\n    event FA_ClientAdded(uint id);\n    event FA_SupplierAdded(uint registeredBy, uint id);\n\n\n    constructor (address newrbbTokenAddr, address addrBndesRoles) public {\n//        require (fee < 100, \"Valor de Fee maior que 100%\");\n\n        rbbToken = RBBToken(newrbbTokenAddr);\n        bndesRoles = ESGBndesToken_BNDESRoles(addrBndesRoles);\n\n//        bndesFee = fee;\n    }\n\n/*\n    function setBNDESFee(uint256 newBndesFee, bytes32 docHash) public onlyOwner {\n        require (newBndesFee < 100, \"Valor de Fee maior que 100%\");\n        bndesFee = newBndesFee;\n        emit FA_ManualIntervention_Fee(newBndesFee, docHash);\n    }\n*/\n\n    function bookInvestment(uint amount, bytes32 docHash) public whenNotPaused  {        \n        \n        uint idInvestor = registry.getId(msg.sender);\n\n        require (investors[idInvestor], \"Somente investidores cadastrados podem executar essa ao\");\n //       require(registry.isRegistryOperational(idInvestor), \"Conta de investidor precisa estar com cadastro validado\");\n        \n        bytes32 specificHash = getCalculatedHash(RESERVED_NO_ADDITIONAL_FIELDS_TO_DIFF_MONEY);\n        rbbToken.requestMint(specificHash, idInvestor, amount, docHash);\n\n        emit FA_InvestmentBooked(idInvestor, amount, docHash);\n    }\n    \n    function verifyAndActForMint(uint idInvestor, bytes32 specificHash, uint amount, bytes32 docHash,\n        string[] memory data) public override whenNotPaused onlyRBBToken {\n\n        require (getCalculatedHash(RESERVED_NO_ADDITIONAL_FIELDS_TO_DIFF_MONEY)==specificHash, \"Erro no clculo do hash da doao\");\n\n        require (investors[idInvestor], \"Deveria ser um investidor, registro estah incorreto\");\n\n        emit FA_InvestmentConfirmed(idInvestor, amount, docHash);\n\n    }\n\n\n    function getHashToMintedAccount(bytes32 specificHash) override public returns (bytes32) {\n        //There is no difference of specificHash, all money should be minted in the same account\n        return getCalculatedHash(RESERVED_MINTED_ACCOUNT);\n    }\n\n    function verifyAndActForTransfer(address originalSender, uint fromId, bytes32 fromHash, uint toId, bytes32 toHash, \n            uint amount, bytes32 docHash, string[] memory data) public override whenNotPaused onlyRBBToken {\n\n        string memory specificMethod = data[0];\n\n        require (amount>0, \"Valor a ser transacionado deve ser maior do que zero.\");\n\n        if (RBBLib.isEqual(INITIAL_ALLOCATION, specificMethod)) {\n            verifyAndActForTransfer_INITIAL_ALLOCATION(originalSender, fromId, fromHash, toId, toHash, amount, docHash, data);\n        }\n        else if (RBBLib.isEqual(DISBURSEMENT_VERIFICATION, specificMethod)) {\n            verifyAndActForTransfer_DISBURSEMENT(originalSender, fromId, fromHash, toId, toHash, amount, docHash, data);\n        }\n        else if (RBBLib.isEqual(CLIENT_PAY_SUPPLIER_VERIFICATION, specificMethod)) {\n            verifyAndActForTransfer_CLIENT_PAY_SUPPLIER(originalSender, fromId, fromHash, toId, toHash, amount, docHash, data);\n        }\n        else if (RBBLib.isEqual(BNDES_PAY_SUPPLIER_VERIFICATION, specificMethod)) {\n            verifyAndActForTransfer_BNDES_PAY_SUPPLIER(originalSender, fromId, fromHash, toId, toHash, amount, docHash, data);\n        }\n        else if (RBBLib.isEqual(EXTRAORDINARY_TRANSFERS, specificMethod)) {\n            verifyAndActForTransfer_EXTRAORDINARY_TRANSFERS(originalSender, fromId, fromHash, toId, toHash, amount, docHash, data);\n        }\n        else {\n            require (false, \"Nenhuma verificao especfica encontrada para a transferncia\");\n        }\n\n    }\n\n    function verifyAndActForTransfer_INITIAL_ALLOCATION(address originalSender, uint fromId, bytes32 fromHash, uint toId, \n            bytes32 toHash, uint amount, bytes32 docHash, string[] memory data) internal whenNotPaused {\n\n        require (bndesRoles.responsibleForInitialAllocation() == originalSender, \n            \"Somente um responsvel pelas alocaes iniciais pode enviar a transao\");\n\n        uint ownerId = registry.getId(owner());\n        require (fromId == ownerId, \"Id de origem da transao no est igual ao do owner do contrato\");\n        require (fromHash == getCalculatedHash(RESERVED_MINTED_ACCOUNT), \"Hash de origem da transao no est correto\");\n\n        require (fromId == toId, \"Id de destino da transao no est igual ao do owner do contrato\");\n\n        if (toHash == getCalculatedHash(RESERVED_USUAL_DISBURSEMENTS_ACCOUNT)) {\n            emit FA_InitialAllocation_Disbursements(amount, docHash);\n        }\n        else if (toHash == getCalculatedHash(RESERVED_BNDES_ADMIN_FEE_TO_HASH)) {\n            emit FA_InitialAllocation_Fee(amount, docHash);\n        }\n        else {\n            require (false, \"Hash de destino no est correspondente a conta de desembolso ou de adm\");\n        }\n    }\n\n    function verifyAndActForTransfer_DISBURSEMENT(address originalSender, uint fromId, bytes32 fromHash, \n            uint toId, bytes32 toHash, uint amount, bytes32 docHash, string[] memory data) internal whenNotPaused {\n    \n        string memory idFinancialSupportAgreement = data[1];\n        uint ownerId = registry.getId(owner());\n\n        require (originalSender == bndesRoles.responsibleForDisbursement(), \n            \"Esta transao s pode ser executada pelo responsvel pelo desembolso\");\n\n        //Essa eh uma regra especifica visto que outra organizacao pode ter recebido o token no allocate.\n        require (fromId == ownerId, \"Id de origem da transao no est igual ao do owner do contrato\");\n        require (getCalculatedHash(RESERVED_USUAL_DISBURSEMENTS_ACCOUNT)==fromHash, \"Erro no clculo do hash da conta do BNDES\");\n        require (getCalculatedHash(idFinancialSupportAgreement)==toHash, \"Erro no clculo do hash da conta do cliente\");\n\n        addClient(toId, idFinancialSupportAgreement);\n\n        emit FA_Disbursement (toId, idFinancialSupportAgreement, amount, docHash);\n\n    }   \n\n    function verifyAndActForTransfer_CLIENT_PAY_SUPPLIER(address originalSender, uint fromId, bytes32 fromHash, \n            uint toId, bytes32 toHash, uint amount, bytes32 docHash, string[] memory data) internal whenNotPaused {\n    \n        string memory idFinancialSupportAgreement = data[1];\n\n        //nao verifica o sender, dado que o esse contrato nao diferencia as contas do cliente\n\n        require (clients[fromId][idFinancialSupportAgreement], \"Somente clientes em contratos cadastrados podem executar o pagamento\");\n        require (getCalculatedHash(idFinancialSupportAgreement)==fromHash, \"Erro no clculo do hash da conta do cliente\");\n        require (getCalculatedHash(RESERVED_NO_ADDITIONAL_FIELDS_TO_SUPPLIER)==toHash, \"Erro no clculo do hash da conta do fornecedor\");\n\n        require(fromId != toId,\n            \"Um instituio no pode transferir token para si, ainda que em papis distintos (Cliente/Fornecedor)\");\n\n        addSupplier (fromId, toId);\n\n        emit FA_TokenTransfer (fromId, idFinancialSupportAgreement, toId, amount, docHash);\n\n    }\n\n    function verifyAndActForTransfer_BNDES_PAY_SUPPLIER(address originalSender, uint fromId, bytes32 fromHash, \n            uint toId, bytes32 toHash, uint amount, bytes32 docHash, string[] memory data) internal whenNotPaused {\n        require (fromId==registry.getId(owner()), \"Somente o BNDES pode executar o pagamento\");\n        require (originalSender == bndesRoles.resposibleForPayingBNDESSuppliers(), \n            \"Esta transao s pode ser executada pelo responsvel pelo do pagamento de fornecedores do BNDES\");\n        require (getCalculatedHash(RESERVED_BNDES_ADMIN_FEE_TO_HASH)==fromHash, \"Erro no clculo do hash da conta de admin do contrato especifico\");\n        require (getCalculatedHash(RESERVED_NO_ADDITIONAL_FIELDS_TO_SUPPLIER)==toHash, \"Erro no clculo do hash da conta do fornecedor\");\n        require(fromId != toId, \"Um BNDES no pode transferir token para si\");\n\n        addSupplier (fromId, toId);\n\n        emit FA_BNDES_TokenTransfer (toId, amount, docHash);\n\n    }\n\n\n\n    function verifyAndActForRedeem(address originalSender, uint fromId, bytes32 fromHash, uint amount, \n        bytes32 docHash, string[] memory data) public override whenNotPaused onlyRBBToken {\n\n        //nao verifica o sender, dado que o esse contrato nao diferencia as contas do fornecedor\n\n        require (amount>0, \"Valor a ser transacionado deve ser maior do que zero.\");\n        require (suppliers[fromId], \"Somente fornecedores podem executar o pagamento\");\n        require (getCalculatedHash(RESERVED_NO_ADDITIONAL_FIELDS_TO_SUPPLIER)==fromHash, \"Erro no clculo do hash da conta do fornecedor\");\n\n        emit FA_RedemptionRequested (fromId, amount, docHash);\n\n    }\n\n    function verifyAndActForRedemptionSettlement(bytes32 redemptionTransactionHash, bytes32 docHash, \n        string[] memory data)\n        public override whenNotPaused onlyRBBToken {\n\n        emit FA_RedemptionSettlement (redemptionTransactionHash, docHash);\n    }\n\n    modifier onlyRBBToken() {\n        require (msg.sender==address(rbbToken), \"Esse mtodo s pode ser chamado pelo RBB_Token\");\n        _;\n    }\n\n    \n    function getCalculatedHash (uint info) public pure returns (bytes32) {\n        return keccak256(abi.encodePacked(info));\n    }\n\n    function getCalculatedHash (string memory info) public pure returns (bytes32) {\n        return keccak256(abi.encodePacked(info));\n    }\n\n    function authorizeExtraordinaryTransfer (uint fromId, bytes32 fromHash, uint toId, bytes32 toHash, \n                uint amount, bytes32 docHash) public  {\n        \n        require (bndesRoles.resposibleForApproveExtraordinaryTransfers() == msg.sender, \n            \"Somente um responsvel pelas transferncias extraordinrias por enviar a transao\");  \n        require (hasRoleInThisContract(fromId, fromHash), \"Endereo de origem no includo como papel nesse cadastro\");\n        require (hasRoleInThisContract(toId, toHash), \"Endereo de destino no includo como papel nesse cadastro\");\n\n        bytes32 m = keccak256(abi.encodePacked(fromId, fromHash, toId, toHash, amount));\n        hashApprovedExtraordinaryTransfers.push(m);\n\n        emit FA_ExtraordinaryTransferAllowed (fromId, fromHash, toId, toHash, amount, docHash);\n\n    }\n   \n    function verifyAndActForTransfer_EXTRAORDINARY_TRANSFERS(address originalSender, uint fromId, bytes32 fromHash, \n            uint toId, bytes32 toHash, uint amount, bytes32 docHash, string[] memory data) internal whenNotPaused {\n\n        require (hasRoleInThisContract(fromId, fromHash), \"Endereo de origem no includo como papel nesse cadastro\");\n        require (hasRoleInThisContract(toId, toHash), \"Endereo de destino no includo como papel nesse cadastro\");\n\n        bytes32 m = keccak256(abi.encodePacked(fromId, fromHash, toId, toHash, amount));\n\n        bool transferApproved = false;\n        uint index = 0;\n        for (; index<hashApprovedExtraordinaryTransfers.length; index++) {\n            if (hashApprovedExtraordinaryTransfers[index] == m) {\n                transferApproved = true;\n                break;\n            }\n        }\n\n        require (transferApproved, \"Interveno manual no previamente cadastrada\");\n\n        hashApprovedExtraordinaryTransfers[index] \n            = hashApprovedExtraordinaryTransfers [hashApprovedExtraordinaryTransfers.length-1];\n        hashApprovedExtraordinaryTransfers.pop();\n\n        emit FA_ExtraordinaryTransferExecuted (fromId, fromHash, toId, toHash, amount, docHash);\n\n    }\n\n//////////\n\n    function addInvestor (uint idInvestor) public onlyOwner {\n        require(registry.isRegistryOperational(idInvestor), \"Conta de investidor precisa estar com cadastro validado\");\n        if(!investors[idInvestor]) {\n            investors[idInvestor] = true;\n            emit FA_InvestorAdded(idInvestor);\n        }\n    }\n\n\n    function addClient (uint id, string memory idFinancialSupportAgreement) internal  {\n\n        if (!clients[id][idFinancialSupportAgreement]) {\n            clients[id][idFinancialSupportAgreement] = true; //register the client\n            bytes32 h = getCalculatedHash(idFinancialSupportAgreement);\n            hashToIdFinancialSupportAgreement[h] = idFinancialSupportAgreement;\n            emit FA_ClientAdded(id);\n\n        }\n    }\n\n\n    function addSupplier (uint registererId, uint idSupplier) internal  {\n\n        if (!suppliers[idSupplier]) {\n            suppliers[idSupplier] = true; //register the supplier\n            emit FA_SupplierAdded(registererId, idSupplier);\n        }\n    }\n\n    function hasRoleInThisContract (uint rbbId, bytes32 hashToAccount) private view returns (bool) {\n\n        if (investors[rbbId]==true) return true;\n\n        string memory idFinancialSupportAgreement = hashToIdFinancialSupportAgreement[hashToAccount];\n        if (clients[rbbId][idFinancialSupportAgreement]==true) return true;\n\n        if (suppliers[rbbId]==true) return true;\n\n        uint ownerId = registry.getId(owner());\n        if (ownerId == rbbId) return true;\n\n        uint rbbTokenOwnerId = registry.getId(rbbToken.owner());\n        if (rbbTokenOwnerId == rbbId) return true;\n\n        return false;\n    }\n\n}\n",
  "sourcePath": "/Users/suzana.moreno/workspace/rbb-token/Back-Blockchain/contracts/ESGBndesToken.sol",
  "compiler": {
    "name": "solc",
    "version": "0.6.12+commit.27d51765.Emscripten.clang"
  },
  "schemaVersion": "3.2.5",
  "updatedAt": "2020-11-18T13:48:23.877Z",
  "devdoc": {
    "kind": "dev",
    "methods": {
      "owner()": {
        "details": "Returns the address of the current owner."
      },
      "paused()": {
        "details": "Returns true if the contract is paused, and false otherwise."
      },
      "renounceOwnership()": {
        "details": "Leaves the contract without owner. It will not be possible to call `onlyOwner` functions anymore. Can only be called by the current owner. NOTE: Renouncing ownership will leave the contract without an owner, thereby removing any functionality that is only available to the owner."
      },
      "transferOwnership(address)": {
        "details": "Transfers ownership of the contract to a new account (`newOwner`). Can only be called by the current owner."
      }
    },
    "version": 1
  },
  "userdoc": {
    "kind": "user",
    "methods": {},
    "version": 1
  }
}