{
  "contractName": "FABndesToken",
  "abi": [
    {
      "inputs": [
        {
          "internalType": "address",
          "name": "newrbbTokenAddr",
          "type": "address"
        },
        {
          "internalType": "uint256",
          "name": "fee",
          "type": "uint256"
        }
      ],
      "stateMutability": "nonpayable",
      "type": "constructor"
    },
    {
      "anonymous": false,
      "inputs": [
        {
          "indexed": false,
          "internalType": "uint256",
          "name": "toCnpj",
          "type": "uint256"
        },
        {
          "indexed": false,
          "internalType": "uint256",
          "name": "amount",
          "type": "uint256"
        },
        {
          "indexed": false,
          "internalType": "bytes32",
          "name": "docHash",
          "type": "bytes32"
        }
      ],
      "name": "FA_BNDES_TokenTransfer",
      "type": "event"
    },
    {
      "anonymous": false,
      "inputs": [
        {
          "indexed": false,
          "internalType": "uint256",
          "name": "id",
          "type": "uint256"
        }
      ],
      "name": "FA_ClientAdded",
      "type": "event"
    },
    {
      "anonymous": false,
      "inputs": [
        {
          "indexed": false,
          "internalType": "uint256",
          "name": "idClient",
          "type": "uint256"
        },
        {
          "indexed": false,
          "internalType": "string",
          "name": "idFinancialSupportAgreement",
          "type": "string"
        },
        {
          "indexed": false,
          "internalType": "uint256",
          "name": "amount",
          "type": "uint256"
        },
        {
          "indexed": false,
          "internalType": "bytes32",
          "name": "docHash",
          "type": "bytes32"
        }
      ],
      "name": "FA_Disbursement",
      "type": "event"
    },
    {
      "anonymous": false,
      "inputs": [
        {
          "indexed": false,
          "internalType": "uint256",
          "name": "idDonor",
          "type": "uint256"
        },
        {
          "indexed": false,
          "internalType": "uint256",
          "name": "amount",
          "type": "uint256"
        },
        {
          "indexed": false,
          "internalType": "bytes32",
          "name": "docHash",
          "type": "bytes32"
        }
      ],
      "name": "FA_DonationBooked",
      "type": "event"
    },
    {
      "anonymous": false,
      "inputs": [
        {
          "indexed": false,
          "internalType": "uint256",
          "name": "idDonor",
          "type": "uint256"
        },
        {
          "indexed": false,
          "internalType": "uint256",
          "name": "amount",
          "type": "uint256"
        },
        {
          "indexed": false,
          "internalType": "bytes32",
          "name": "docHash",
          "type": "bytes32"
        }
      ],
      "name": "FA_DonationConfirmed",
      "type": "event"
    },
    {
      "anonymous": false,
      "inputs": [
        {
          "indexed": false,
          "internalType": "uint256",
          "name": "id",
          "type": "uint256"
        }
      ],
      "name": "FA_DonorAdded",
      "type": "event"
    },
    {
      "anonymous": false,
      "inputs": [
        {
          "indexed": false,
          "internalType": "uint256",
          "name": "fromId",
          "type": "uint256"
        },
        {
          "indexed": false,
          "internalType": "bytes32",
          "name": "fromHash",
          "type": "bytes32"
        },
        {
          "indexed": false,
          "internalType": "uint256",
          "name": "toId",
          "type": "uint256"
        },
        {
          "indexed": false,
          "internalType": "bytes32",
          "name": "toHash",
          "type": "bytes32"
        },
        {
          "indexed": false,
          "internalType": "uint256",
          "name": "amount",
          "type": "uint256"
        },
        {
          "indexed": false,
          "internalType": "bytes32",
          "name": "docHash",
          "type": "bytes32"
        }
      ],
      "name": "FA_ExtraordinaryTransferAllowed",
      "type": "event"
    },
    {
      "anonymous": false,
      "inputs": [
        {
          "indexed": false,
          "internalType": "uint256",
          "name": "fromId",
          "type": "uint256"
        },
        {
          "indexed": false,
          "internalType": "bytes32",
          "name": "fromHash",
          "type": "bytes32"
        },
        {
          "indexed": false,
          "internalType": "uint256",
          "name": "toId",
          "type": "uint256"
        },
        {
          "indexed": false,
          "internalType": "bytes32",
          "name": "toHash",
          "type": "bytes32"
        },
        {
          "indexed": false,
          "internalType": "uint256",
          "name": "amount",
          "type": "uint256"
        },
        {
          "indexed": false,
          "internalType": "bytes32",
          "name": "docHash",
          "type": "bytes32"
        }
      ],
      "name": "FA_ExtraordinaryTransferExecuted",
      "type": "event"
    },
    {
      "anonymous": false,
      "inputs": [
        {
          "indexed": false,
          "internalType": "uint256",
          "name": "amount",
          "type": "uint256"
        },
        {
          "indexed": false,
          "internalType": "bytes32",
          "name": "docHash",
          "type": "bytes32"
        }
      ],
      "name": "FA_InitialAllocation_Disbursements",
      "type": "event"
    },
    {
      "anonymous": false,
      "inputs": [
        {
          "indexed": false,
          "internalType": "uint256",
          "name": "amount",
          "type": "uint256"
        },
        {
          "indexed": false,
          "internalType": "bytes32",
          "name": "docHash",
          "type": "bytes32"
        }
      ],
      "name": "FA_InitialAllocation_Fee",
      "type": "event"
    },
    {
      "anonymous": false,
      "inputs": [
        {
          "indexed": false,
          "internalType": "uint256",
          "name": "percent",
          "type": "uint256"
        },
        {
          "indexed": false,
          "internalType": "bytes32",
          "name": "docHash",
          "type": "bytes32"
        }
      ],
      "name": "FA_ManualIntervention_Fee",
      "type": "event"
    },
    {
      "anonymous": false,
      "inputs": [
        {
          "indexed": false,
          "internalType": "address",
          "name": "account",
          "type": "address"
        },
        {
          "indexed": false,
          "internalType": "uint8",
          "name": "eventType",
          "type": "uint8"
        }
      ],
      "name": "FA_ManualIntervention_RoleOrAddress",
      "type": "event"
    },
    {
      "anonymous": false,
      "inputs": [
        {
          "indexed": false,
          "internalType": "uint256",
          "name": "idClaimer",
          "type": "uint256"
        },
        {
          "indexed": false,
          "internalType": "uint256",
          "name": "amount",
          "type": "uint256"
        },
        {
          "indexed": false,
          "internalType": "bytes32",
          "name": "docHash",
          "type": "bytes32"
        }
      ],
      "name": "FA_RedemptionRequested",
      "type": "event"
    },
    {
      "anonymous": false,
      "inputs": [
        {
          "indexed": false,
          "internalType": "bytes32",
          "name": "redemptionTransactionHash",
          "type": "bytes32"
        },
        {
          "indexed": false,
          "internalType": "bytes32",
          "name": "docHash",
          "type": "bytes32"
        }
      ],
      "name": "FA_RedemptionSettlement",
      "type": "event"
    },
    {
      "anonymous": false,
      "inputs": [
        {
          "indexed": false,
          "internalType": "uint256",
          "name": "registeredBy",
          "type": "uint256"
        },
        {
          "indexed": false,
          "internalType": "uint256",
          "name": "id",
          "type": "uint256"
        }
      ],
      "name": "FA_SupplierAdded",
      "type": "event"
    },
    {
      "anonymous": false,
      "inputs": [
        {
          "indexed": false,
          "internalType": "uint256",
          "name": "fromCnpj",
          "type": "uint256"
        },
        {
          "indexed": false,
          "internalType": "string",
          "name": "fromIdFinancialSupportAgreement",
          "type": "string"
        },
        {
          "indexed": false,
          "internalType": "uint256",
          "name": "toCnpj",
          "type": "uint256"
        },
        {
          "indexed": false,
          "internalType": "uint256",
          "name": "amount",
          "type": "uint256"
        },
        {
          "indexed": false,
          "internalType": "bytes32",
          "name": "docHash",
          "type": "bytes32"
        }
      ],
      "name": "FA_TokenTransfer",
      "type": "event"
    },
    {
      "anonymous": false,
      "inputs": [
        {
          "indexed": true,
          "internalType": "address",
          "name": "previousOwner",
          "type": "address"
        },
        {
          "indexed": true,
          "internalType": "address",
          "name": "newOwner",
          "type": "address"
        }
      ],
      "name": "OwnershipTransferred",
      "type": "event"
    },
    {
      "anonymous": false,
      "inputs": [
        {
          "indexed": false,
          "internalType": "address",
          "name": "account",
          "type": "address"
        }
      ],
      "name": "Paused",
      "type": "event"
    },
    {
      "anonymous": false,
      "inputs": [
        {
          "indexed": true,
          "internalType": "address",
          "name": "account",
          "type": "address"
        }
      ],
      "name": "PauserAdded",
      "type": "event"
    },
    {
      "anonymous": false,
      "inputs": [
        {
          "indexed": true,
          "internalType": "address",
          "name": "account",
          "type": "address"
        }
      ],
      "name": "PauserRemoved",
      "type": "event"
    },
    {
      "anonymous": false,
      "inputs": [
        {
          "indexed": false,
          "internalType": "address",
          "name": "account",
          "type": "address"
        }
      ],
      "name": "Unpaused",
      "type": "event"
    },
    {
      "inputs": [],
      "name": "BNDES_PAY_SUPPLIER_VERIFICATION",
      "outputs": [
        {
          "internalType": "string",
          "name": "",
          "type": "string"
        }
      ],
      "stateMutability": "view",
      "type": "function"
    },
    {
      "inputs": [],
      "name": "CLIENT_PAY_SUPPLIER_VERIFICATION",
      "outputs": [
        {
          "internalType": "string",
          "name": "",
          "type": "string"
        }
      ],
      "stateMutability": "view",
      "type": "function"
    },
    {
      "inputs": [],
      "name": "DISBURSEMENT_VERIFICATION",
      "outputs": [
        {
          "internalType": "string",
          "name": "",
          "type": "string"
        }
      ],
      "stateMutability": "view",
      "type": "function"
    },
    {
      "inputs": [],
      "name": "EXTRAORDINARY_TRANSFERS",
      "outputs": [
        {
          "internalType": "string",
          "name": "",
          "type": "string"
        }
      ],
      "stateMutability": "view",
      "type": "function"
    },
    {
      "inputs": [],
      "name": "INITIAL_ALLOCATION",
      "outputs": [
        {
          "internalType": "string",
          "name": "",
          "type": "string"
        }
      ],
      "stateMutability": "view",
      "type": "function"
    },
    {
      "inputs": [],
      "name": "RESERVED_BNDES_ADMIN_FEE_TO_HASH",
      "outputs": [
        {
          "internalType": "uint8",
          "name": "",
          "type": "uint8"
        }
      ],
      "stateMutability": "view",
      "type": "function"
    },
    {
      "inputs": [],
      "name": "RESERVED_MINTED_ACCOUNT",
      "outputs": [
        {
          "internalType": "uint8",
          "name": "",
          "type": "uint8"
        }
      ],
      "stateMutability": "view",
      "type": "function"
    },
    {
      "inputs": [],
      "name": "RESERVED_NO_ADDITIONAL_FIELDS_TO_DIFF_MONEY",
      "outputs": [
        {
          "internalType": "uint8",
          "name": "",
          "type": "uint8"
        }
      ],
      "stateMutability": "view",
      "type": "function"
    },
    {
      "inputs": [],
      "name": "RESERVED_NO_ADDITIONAL_FIELDS_TO_DONOR",
      "outputs": [
        {
          "internalType": "uint8",
          "name": "",
          "type": "uint8"
        }
      ],
      "stateMutability": "view",
      "type": "function"
    },
    {
      "inputs": [],
      "name": "RESERVED_NO_ADDITIONAL_FIELDS_TO_SUPPLIER",
      "outputs": [
        {
          "internalType": "uint8",
          "name": "",
          "type": "uint8"
        }
      ],
      "stateMutability": "view",
      "type": "function"
    },
    {
      "inputs": [],
      "name": "RESERVED_USUAL_DISBURSEMENTS_ACCOUNT",
      "outputs": [
        {
          "internalType": "uint8",
          "name": "",
          "type": "uint8"
        }
      ],
      "stateMutability": "view",
      "type": "function"
    },
    {
      "inputs": [
        {
          "internalType": "address",
          "name": "account",
          "type": "address"
        }
      ],
      "name": "addPauser",
      "outputs": [],
      "stateMutability": "nonpayable",
      "type": "function"
    },
    {
      "inputs": [],
      "name": "bndesFee",
      "outputs": [
        {
          "internalType": "uint256",
          "name": "",
          "type": "uint256"
        }
      ],
      "stateMutability": "view",
      "type": "function"
    },
    {
      "inputs": [
        {
          "internalType": "uint256",
          "name": "",
          "type": "uint256"
        },
        {
          "internalType": "string",
          "name": "",
          "type": "string"
        }
      ],
      "name": "clients",
      "outputs": [
        {
          "internalType": "bool",
          "name": "",
          "type": "bool"
        }
      ],
      "stateMutability": "view",
      "type": "function"
    },
    {
      "inputs": [
        {
          "internalType": "uint256",
          "name": "",
          "type": "uint256"
        }
      ],
      "name": "donors",
      "outputs": [
        {
          "internalType": "bool",
          "name": "",
          "type": "bool"
        }
      ],
      "stateMutability": "view",
      "type": "function"
    },
    {
      "inputs": [
        {
          "internalType": "uint256",
          "name": "",
          "type": "uint256"
        }
      ],
      "name": "hashApprovedExtraordinaryTransfers",
      "outputs": [
        {
          "internalType": "bytes32",
          "name": "",
          "type": "bytes32"
        }
      ],
      "stateMutability": "view",
      "type": "function"
    },
    {
      "inputs": [],
      "name": "isOwner",
      "outputs": [
        {
          "internalType": "bool",
          "name": "",
          "type": "bool"
        }
      ],
      "stateMutability": "view",
      "type": "function"
    },
    {
      "inputs": [
        {
          "internalType": "address",
          "name": "account",
          "type": "address"
        }
      ],
      "name": "isPauser",
      "outputs": [
        {
          "internalType": "bool",
          "name": "",
          "type": "bool"
        }
      ],
      "stateMutability": "view",
      "type": "function"
    },
    {
      "inputs": [],
      "name": "owner",
      "outputs": [
        {
          "internalType": "address",
          "name": "",
          "type": "address"
        }
      ],
      "stateMutability": "view",
      "type": "function"
    },
    {
      "inputs": [],
      "name": "pause",
      "outputs": [],
      "stateMutability": "nonpayable",
      "type": "function"
    },
    {
      "inputs": [],
      "name": "paused",
      "outputs": [
        {
          "internalType": "bool",
          "name": "",
          "type": "bool"
        }
      ],
      "stateMutability": "view",
      "type": "function"
    },
    {
      "inputs": [],
      "name": "rbbToken",
      "outputs": [
        {
          "internalType": "contract RBBToken",
          "name": "",
          "type": "address"
        }
      ],
      "stateMutability": "view",
      "type": "function"
    },
    {
      "inputs": [],
      "name": "registry",
      "outputs": [
        {
          "internalType": "contract RBBRegistry",
          "name": "",
          "type": "address"
        }
      ],
      "stateMutability": "view",
      "type": "function"
    },
    {
      "inputs": [],
      "name": "renounceOwnership",
      "outputs": [],
      "stateMutability": "nonpayable",
      "type": "function"
    },
    {
      "inputs": [],
      "name": "renouncePauser",
      "outputs": [],
      "stateMutability": "nonpayable",
      "type": "function"
    },
    {
      "inputs": [],
      "name": "responsibleForDisbursement",
      "outputs": [
        {
          "internalType": "address",
          "name": "",
          "type": "address"
        }
      ],
      "stateMutability": "view",
      "type": "function"
    },
    {
      "inputs": [],
      "name": "responsibleForInitialAllocation",
      "outputs": [
        {
          "internalType": "address",
          "name": "",
          "type": "address"
        }
      ],
      "stateMutability": "view",
      "type": "function"
    },
    {
      "inputs": [],
      "name": "resposibleForApproveExtraordinaryTransfers",
      "outputs": [
        {
          "internalType": "address",
          "name": "",
          "type": "address"
        }
      ],
      "stateMutability": "view",
      "type": "function"
    },
    {
      "inputs": [
        {
          "internalType": "address",
          "name": "newRegistryAddr",
          "type": "address"
        }
      ],
      "name": "setInitializationDataDuringRegistration",
      "outputs": [],
      "stateMutability": "nonpayable",
      "type": "function"
    },
    {
      "inputs": [
        {
          "internalType": "uint256",
          "name": "",
          "type": "uint256"
        }
      ],
      "name": "suppliers",
      "outputs": [
        {
          "internalType": "bool",
          "name": "",
          "type": "bool"
        }
      ],
      "stateMutability": "view",
      "type": "function"
    },
    {
      "inputs": [
        {
          "internalType": "address",
          "name": "newOwner",
          "type": "address"
        }
      ],
      "name": "transferOwnership",
      "outputs": [],
      "stateMutability": "nonpayable",
      "type": "function"
    },
    {
      "inputs": [],
      "name": "unpause",
      "outputs": [],
      "stateMutability": "nonpayable",
      "type": "function"
    },
    {
      "inputs": [
        {
          "internalType": "uint256",
          "name": "newBndesFee",
          "type": "uint256"
        },
        {
          "internalType": "bytes32",
          "name": "docHash",
          "type": "bytes32"
        }
      ],
      "name": "setBNDESFee",
      "outputs": [],
      "stateMutability": "nonpayable",
      "type": "function"
    },
    {
      "inputs": [
        {
          "internalType": "uint256",
          "name": "idDonor",
          "type": "uint256"
        }
      ],
      "name": "addDonor",
      "outputs": [],
      "stateMutability": "nonpayable",
      "type": "function"
    },
    {
      "inputs": [
        {
          "internalType": "uint256",
          "name": "amount",
          "type": "uint256"
        },
        {
          "internalType": "bytes32",
          "name": "docHash",
          "type": "bytes32"
        }
      ],
      "name": "bookDonation",
      "outputs": [],
      "stateMutability": "nonpayable",
      "type": "function"
    },
    {
      "inputs": [
        {
          "internalType": "bytes32",
          "name": "specificHash",
          "type": "bytes32"
        },
        {
          "internalType": "uint256",
          "name": "amount",
          "type": "uint256"
        },
        {
          "internalType": "bytes32",
          "name": "docHash",
          "type": "bytes32"
        },
        {
          "internalType": "string[]",
          "name": "data",
          "type": "string[]"
        }
      ],
      "name": "verifyAndActForMint",
      "outputs": [],
      "stateMutability": "nonpayable",
      "type": "function"
    },
    {
      "inputs": [
        {
          "internalType": "bytes32",
          "name": "specificHash",
          "type": "bytes32"
        }
      ],
      "name": "getHashToMintedAccount",
      "outputs": [
        {
          "internalType": "bytes32",
          "name": "",
          "type": "bytes32"
        }
      ],
      "stateMutability": "nonpayable",
      "type": "function"
    },
    {
      "inputs": [
        {
          "internalType": "address",
          "name": "originalSender",
          "type": "address"
        },
        {
          "internalType": "uint256",
          "name": "fromId",
          "type": "uint256"
        },
        {
          "internalType": "bytes32",
          "name": "fromHash",
          "type": "bytes32"
        },
        {
          "internalType": "uint256",
          "name": "toId",
          "type": "uint256"
        },
        {
          "internalType": "bytes32",
          "name": "toHash",
          "type": "bytes32"
        },
        {
          "internalType": "uint256",
          "name": "amount",
          "type": "uint256"
        },
        {
          "internalType": "bytes32",
          "name": "docHash",
          "type": "bytes32"
        },
        {
          "internalType": "string[]",
          "name": "data",
          "type": "string[]"
        }
      ],
      "name": "verifyAndActForTransfer",
      "outputs": [],
      "stateMutability": "nonpayable",
      "type": "function"
    },
    {
      "inputs": [
        {
          "internalType": "uint256",
          "name": "id",
          "type": "uint256"
        }
      ],
      "name": "addSupplier",
      "outputs": [],
      "stateMutability": "nonpayable",
      "type": "function"
    },
    {
      "inputs": [
        {
          "internalType": "address",
          "name": "originalSender",
          "type": "address"
        },
        {
          "internalType": "uint256",
          "name": "fromId",
          "type": "uint256"
        },
        {
          "internalType": "bytes32",
          "name": "fromHash",
          "type": "bytes32"
        },
        {
          "internalType": "uint256",
          "name": "amount",
          "type": "uint256"
        },
        {
          "internalType": "bytes32",
          "name": "docHash",
          "type": "bytes32"
        },
        {
          "internalType": "string[]",
          "name": "data",
          "type": "string[]"
        }
      ],
      "name": "verifyAndActForRedeem",
      "outputs": [],
      "stateMutability": "nonpayable",
      "type": "function"
    },
    {
      "inputs": [
        {
          "internalType": "bytes32",
          "name": "redemptionTransactionHash",
          "type": "bytes32"
        },
        {
          "internalType": "bytes32",
          "name": "docHash",
          "type": "bytes32"
        },
        {
          "internalType": "string[]",
          "name": "data",
          "type": "string[]"
        }
      ],
      "name": "verifyAndActForRedemptionSettlement",
      "outputs": [],
      "stateMutability": "nonpayable",
      "type": "function"
    },
    {
      "inputs": [
        {
          "internalType": "uint256",
          "name": "info",
          "type": "uint256"
        }
      ],
      "name": "getCalculatedHash",
      "outputs": [
        {
          "internalType": "bytes32",
          "name": "",
          "type": "bytes32"
        }
      ],
      "stateMutability": "view",
      "type": "function"
    },
    {
      "inputs": [
        {
          "internalType": "string",
          "name": "info",
          "type": "string"
        }
      ],
      "name": "getCalculatedHash",
      "outputs": [
        {
          "internalType": "bytes32",
          "name": "",
          "type": "bytes32"
        }
      ],
      "stateMutability": "view",
      "type": "function"
    },
    {
      "inputs": [
        {
          "internalType": "uint256",
          "name": "fromId",
          "type": "uint256"
        },
        {
          "internalType": "bytes32",
          "name": "fromHash",
          "type": "bytes32"
        },
        {
          "internalType": "uint256",
          "name": "toId",
          "type": "uint256"
        },
        {
          "internalType": "bytes32",
          "name": "toHash",
          "type": "bytes32"
        },
        {
          "internalType": "uint256",
          "name": "amount",
          "type": "uint256"
        },
        {
          "internalType": "bytes32",
          "name": "docHash",
          "type": "bytes32"
        }
      ],
      "name": "authorizeExtraordinaryTransfer",
      "outputs": [],
      "stateMutability": "nonpayable",
      "type": "function"
    },
    {
      "inputs": [
        {
          "internalType": "address",
          "name": "rs",
          "type": "address"
        }
      ],
      "name": "setResponsibleForInitialAllocation",
      "outputs": [],
      "stateMutability": "nonpayable",
      "type": "function"
    },
    {
      "inputs": [
        {
          "internalType": "address",
          "name": "rs",
          "type": "address"
        }
      ],
      "name": "setResponsibleForDisbursement",
      "outputs": [],
      "stateMutability": "nonpayable",
      "type": "function"
    },
    {
      "inputs": [
        {
          "internalType": "address",
          "name": "rs",
          "type": "address"
        }
      ],
      "name": "setResposibleForApproveExtraordinaryTransfers",
      "outputs": [],
      "stateMutability": "nonpayable",
      "type": "function"
    }
  ],
  "bytecode": "0x60806040526040518060400160405280601281526020017f494e495449414c5f414c4c4f434154494f4e0000000000000000000000000000815250600990805190602001906200005192919062000690565b506040518060400160405280601981526020017f44495342555253454d454e545f564552494649434154494f4e00000000000000815250600a90805190602001906200009f92919062000690565b506040518060400160405280602081526020017f434c49454e545f5041595f535550504c4945525f564552494649434154494f4e815250600b9080519060200190620000ed92919062000690565b506040518060400160405280601f81526020017f424e4445535f5041595f535550504c4945525f564552494649434154494f4e00815250600c90805190602001906200013b92919062000690565b506040518060400160405280601781526020017f45585452414f5244494e4152595f5452414e5346455253000000000000000000815250600d90805190602001906200018992919062000690565b506000601060146101000a81548160ff021916908360ff1602179055506001601060156101000a81548160ff021916908360ff1602179055506002601060166101000a81548160ff021916908360ff160217905550600a601060176101000a81548160ff021916908360ff1602179055506014601060186101000a81548160ff021916908360ff160217905550601e601060196101000a81548160ff021916908360ff1602179055503480156200023f57600080fd5b506040516200715038038062007150833981810160405281019062000265919062000764565b600062000277620004a960201b60201c565b9050806000806101000a81548173ffffffffffffffffffffffffffffffffffffffff021916908373ffffffffffffffffffffffffffffffffffffffff1602179055508073ffffffffffffffffffffffffffffffffffffffff16600073ffffffffffffffffffffffffffffffffffffffff167f8be0079c531659141344cd1fd0a4f28419497f9722a3daafe3b4186f6b6457e060405160405180910390a3506200033562000329620004a960201b60201c565b620004b160201b60201c565b6000600260006101000a81548160ff0219169083151502179055506064811062000396576040517f08c379a00000000000000000000000000000000000000000000000000000000081526004016200038d9062000891565b60405180910390fd5b81600360006101000a81548173ffffffffffffffffffffffffffffffffffffffff021916908373ffffffffffffffffffffffffffffffffffffffff16021790555033600e60006101000a81548173ffffffffffffffffffffffffffffffffffffffff021916908373ffffffffffffffffffffffffffffffffffffffff16021790555033600f60006101000a81548173ffffffffffffffffffffffffffffffffffffffff021916908373ffffffffffffffffffffffffffffffffffffffff16021790555033601060006101000a81548173ffffffffffffffffffffffffffffffffffffffff021916908373ffffffffffffffffffffffffffffffffffffffff1602179055508060088190555050506200097a565b600033905090565b620004cc8160016200051260201b62002d851790919060201c565b8073ffffffffffffffffffffffffffffffffffffffff167f6719d08c1888103bea251a4ed56406bd0c3e69723c8a1686e017e7bbe159b6f860405160405180910390a250565b620005248282620005c560201b60201c565b1562000567576040517f08c379a00000000000000000000000000000000000000000000000000000000081526004016200055e90620008b3565b60405180910390fd5b60018260000160008373ffffffffffffffffffffffffffffffffffffffff1673ffffffffffffffffffffffffffffffffffffffff16815260200190815260200160002060006101000a81548160ff0219169083151502179055505050565b60008073ffffffffffffffffffffffffffffffffffffffff168273ffffffffffffffffffffffffffffffffffffffff16141562000639576040517f08c379a00000000000000000000000000000000000000000000000000000000081526004016200063090620008d5565b60405180910390fd5b8260000160008373ffffffffffffffffffffffffffffffffffffffff1673ffffffffffffffffffffffffffffffffffffffff16815260200190815260200160002060009054906101000a900460ff16905092915050565b828054600181600116156101000203166002900490600052602060002090601f016020900481019282601f10620006d357805160ff191683800117855562000704565b8280016001018555821562000704579182015b8281111562000703578251825591602001919060010190620006e6565b5b50905062000713919062000717565b5090565b5b808211156200073257600081600090555060010162000718565b5090565b600081519050620007478162000946565b92915050565b6000815190506200075e8162000960565b92915050565b600080604083850312156200077857600080fd5b6000620007888582860162000736565b92505060206200079b858286016200074d565b9150509250929050565b6000620007b4601b83620008f7565b91507f56616c6f7220646520466565206d61696f7220717565203130302500000000006000830152602082019050919050565b6000620007f6601f83620008f7565b91507f526f6c65733a206163636f756e7420616c72656164792068617320726f6c65006000830152602082019050919050565b600062000838602283620008f7565b91507f526f6c65733a206163636f756e7420697320746865207a65726f20616464726560008301527f73730000000000000000000000000000000000000000000000000000000000006020830152604082019050919050565b60006020820190508181036000830152620008ac81620007a5565b9050919050565b60006020820190508181036000830152620008ce81620007e7565b9050919050565b60006020820190508181036000830152620008f08162000829565b9050919050565b600082825260208201905092915050565b600062000915826200091c565b9050919050565b600073ffffffffffffffffffffffffffffffffffffffff82169050919050565b6000819050919050565b620009518162000908565b81146200095d57600080fd5b50565b6200096b816200093c565b81146200097757600080fd5b50565b6167c6806200098a6000396000f3fe608060405234801561001057600080fd5b50600436106102955760003560e01c80638456cb5911610167578063ca196e3c116100ce578063dafc3fad11610087578063dafc3fad1461077e578063e4c7426f1461079a578063f0ad17db146107b8578063f2fde38b146107d4578063fa7ca7ea146107f0578063fc4b505d1461082057610295565b8063ca196e3c14610686578063cc70091a146106a2578063cd541b7a146106d2578063cea2312114610702578063d91be4c214610732578063daeb1cc91461074e57610295565b8063942429e411610120578063942429e4146105c65780639a960052146105f6578063a6ee26e114610612578063ad641da61461062e578063b201a7771461064c578063ba6ad8531461066a57610295565b80638456cb59146105285780638cabf128146105325780638da5cb5b146105505780638e6694811461056e5780638f32d59b1461058c57806390e42c7e146105aa57610295565b806355a2456e1161020b5780636ef8d66d116101c45780636ef8d66d1461049e5780636f305067146104a8578063715018a6146104c65780637b103999146104d057806382dc1ec4146104ee5780638404e6e01461050a57610295565b806355a2456e146103ee5780635a961b151461040a5780635b50875a146104285780635c975abb146104465780635f23e09e1461046457806367da3e851461048057610295565b8063329afd3a1161025d578063329afd3a1461032e5780633879b6361461034c5780633f4ba83a1461036857806341574b3b1461037257806346fbf68e1461038e5780634abfa163146103be57610295565b80630715aa6e1461029a57806307728f0f146102b85780630b2e8fe9146102d657806317251ba9146102f457806324547b8a14610310575b600080fd5b6102a261083e565b6040516102af91906164d1565b60405180910390f35b6102c0610851565b6040516102cd9190615e0d565b60405180910390f35b6102de6108ef565b6040516102eb9190615c60565b60405180910390f35b61030e600480360381019061030991906147e5565b610915565b005b610318610ad2565b60405161032591906164d1565b60405180910390f35b610336610ae5565b6040516103439190615c60565b60405180910390f35b610366600480360381019061036191906144b3565b610b0b565b005b610370610d73565b005b61038c600480360381019061038791906145a6565b610e6c565b005b6103a860048036038101906103a391906144b3565b61132d565b6040516103b59190615d11565b60405180910390f35b6103d860048036038101906103d391906147e5565b61134a565b6040516103e59190615d11565b60405180910390f35b610408600480360381019061040391906144b3565b61136a565b005b6104126113ae565b60405161041f9190615e0d565b60405180910390f35b61043061144c565b60405161043d91906164d1565b60405180910390f35b61044e61145f565b60405161045b9190615d11565b60405180910390f35b61047e60048036038101906104799190614873565b611476565b005b61048861163e565b6040516104959190615e0d565b60405180910390f35b6104a66116dc565b005b6104b06116ee565b6040516104bd91906164d1565b60405180910390f35b6104ce611701565b005b6104d8611806565b6040516104e59190615db5565b60405180910390f35b610508600480360381019061050391906144b3565b61182c565b005b610512611887565b60405161051f91906164d1565b60405180910390f35b61053061189a565b005b61053a611994565b6040516105479190615c60565b60405180910390f35b6105586119ba565b6040516105659190615c60565b60405180910390f35b6105766119e3565b6040516105839190615e0d565b60405180910390f35b610594611a81565b6040516105a19190615d11565b60405180910390f35b6105c460048036038101906105bf91906144b3565b611adf565b005b6105e060048036038101906105db91906147e5565b611d47565b6040516105ed9190615d2c565b60405180910390f35b610610600480360381019061060b91906144b3565b611d77565b005b61062c600480360381019061062791906146c2565b611fdf565b005b6106366120fd565b6040516106439190616326565b60405180910390f35b610654612103565b60405161066191906164d1565b60405180910390f35b610684600480360381019061067f9190614505565b612116565b005b6106a0600480360381019061069b91906147e5565b612338565b005b6106bc60048036038101906106b791906147a4565b612507565b6040516106c99190615d2c565b60405180910390f35b6106ec60048036038101906106e79190614699565b612537565b6040516106f99190615d2c565b60405180910390f35b61071c600480360381019061071791906147e5565b61255b565b6040516107299190615d11565b60405180910390f35b61074c60048036038101906107479190614837565b61257b565b005b610768600480360381019061076391906148fc565b6128b7565b6040516107759190615d11565b60405180910390f35b61079860048036038101906107939190614837565b6128fc565b005b6107a26129ca565b6040516107af9190615dd0565b60405180910390f35b6107d260048036038101906107cd9190614729565b6129f0565b005b6107ee60048036038101906107e991906144b3565b612c73565b005b61080a600480360381019061080591906147e5565b612cc6565b6040516108179190615d2c565b60405180910390f35b610828612ce7565b6040516108359190615e0d565b60405180910390f35b601060149054906101000a900460ff1681565b60098054600181600116156101000203166002900480601f0160208091040260200160405190810160405280929190818152602001828054600181600116156101000203166002900480156108e75780601f106108bc576101008083540402835291602001916108e7565b820191906000526020600020905b8154815290600101906020018083116108ca57829003601f168201915b505050505081565b601060009054906101000a900473ffffffffffffffffffffffffffffffffffffffff1681565b61091d611a81565b61095c576040517f08c379a000000000000000000000000000000000000000000000000000000000815260040161095390616186565b60405180910390fd5b600260019054906101000a900473ffffffffffffffffffffffffffffffffffffffff1673ffffffffffffffffffffffffffffffffffffffff1663613a7896826040518263ffffffff1660e01b81526004016109b79190616326565b60206040518083038186803b1580156109cf57600080fd5b505afa1580156109e3573d6000803e3d6000fd5b505050506040513d601f19601f82011682018060405250810190610a079190614670565b610a46576040517f08c379a0000000000000000000000000000000000000000000000000000000008152600401610a3d906160a6565b60405180910390fd5b6004600082815260200190815260200160002060009054906101000a900460ff16610acf5760016004600083815260200190815260200160002060006101000a81548160ff0219169083151502179055507fbf594816977ea5809bf299bfeeb10d2cb41e25a998a19fafe5460164b3cdb08b81604051610ac69190616326565b60405180910390a15b50565b601060159054906101000a900460ff1681565b600e60009054906101000a900473ffffffffffffffffffffffffffffffffffffffff1681565b610b13611a81565b610b52576040517f08c379a0000000000000000000000000000000000000000000000000000000008152600401610b4990616186565b60405180910390fd5b6000600260019054906101000a900473ffffffffffffffffffffffffffffffffffffffff1673ffffffffffffffffffffffffffffffffffffffff166365f68c89836040518263ffffffff1660e01b8152600401610baf9190615c60565b60206040518083038186803b158015610bc757600080fd5b505afa158015610bdb573d6000803e3d6000fd5b505050506040513d601f19601f82011682018060405250810190610bff919061480e565b9050600260019054906101000a900473ffffffffffffffffffffffffffffffffffffffff1673ffffffffffffffffffffffffffffffffffffffff166365f68c89610c476119ba565b6040518263ffffffff1660e01b8152600401610c639190615c60565b60206040518083038186803b158015610c7b57600080fd5b505afa158015610c8f573d6000803e3d6000fd5b505050506040513d601f19601f82011682018060405250810190610cb3919061480e565b8114610cf4576040517f08c379a0000000000000000000000000000000000000000000000000000000008152600401610ceb90615e86565b60405180910390fd5b81600e60006101000a81548173ffffffffffffffffffffffffffffffffffffffff021916908373ffffffffffffffffffffffffffffffffffffffff1602179055507f3e3119fbec468368c03e4732985b5a3f373d3a8b8ad5cc0f820357687349b63d826001604051610d67929190615c96565b60405180910390a15050565b610d83610d7e612e2d565b61132d565b610dc2576040517f08c379a0000000000000000000000000000000000000000000000000000000008152600401610db990615f26565b60405180910390fd5b600260009054906101000a900460ff16610e11576040517f08c379a0000000000000000000000000000000000000000000000000000000008152600401610e0890615ea6565b60405180910390fd5b6000600260006101000a81548160ff0219169083151502179055507f5db9ee0a495bf2e6ff9c91a7834c1ba4fdd244a5e8aa4e537bd38aeae4b073aa610e55612e2d565b604051610e629190615c7b565b60405180910390a1565b600260009054906101000a900460ff1615610ebc576040517f08c379a0000000000000000000000000000000000000000000000000000000008152600401610eb390616066565b60405180910390fd5b600360009054906101000a900473ffffffffffffffffffffffffffffffffffffffff1673ffffffffffffffffffffffffffffffffffffffff163373ffffffffffffffffffffffffffffffffffffffff1614610f4c576040517f08c379a0000000000000000000000000000000000000000000000000000000008152600401610f43906162e6565b60405180910390fd5b606081600081518110610f5b57fe5b6020026020010151905060008411610fa8576040517f08c379a0000000000000000000000000000000000000000000000000000000008152600401610f9f90616026565b60405180910390fd5b73__RBBLib________________________________63465c41056009836040518363ffffffff1660e01b8152600401610fe2929190615e2f565b60206040518083038186803b158015610ffa57600080fd5b505af415801561100e573d6000803e3d6000fd5b505050506040513d601f19601f820116820180604052508101906110329190614670565b1561104c576110478989898989898989612e35565b611322565b73__RBBLib________________________________63465c4105600a836040518363ffffffff1660e01b8152600401611086929190615e2f565b60206040518083038186803b15801561109e57600080fd5b505af41580156110b2573d6000803e3d6000fd5b505050506040513d601f19601f820116820180604052508101906110d69190614670565b156110f0576110eb89898989898989896131b9565b611321565b73__RBBLib________________________________63465c4105600b836040518363ffffffff1660e01b815260040161112a929190615e2f565b60206040518083038186803b15801561114257600080fd5b505af4158015611156573d6000803e3d6000fd5b505050506040513d601f19601f8201168201806040525081019061117a9190614670565b156111945761118f898989898989898961355a565b611320565b73__RBBLib________________________________63465c4105600c836040518363ffffffff1660e01b81526004016111ce929190615e2f565b60206040518083038186803b1580156111e657600080fd5b505af41580156111fa573d6000803e3d6000fd5b505050506040513d601f19601f8201168201806040525081019061121e9190614670565b156112385761123389898989898989896137fd565b61131f565b73__RBBLib________________________________63465c4105600d836040518363ffffffff1660e01b8152600401611272929190615e2f565b60206040518083038186803b15801561128a57600080fd5b505af415801561129e573d6000803e3d6000fd5b505050506040513d601f19601f820116820180604052508101906112c29190614670565b156112dc576112d78989898989898989613b10565b61131e565b600061131d576040517f08c379a0000000000000000000000000000000000000000000000000000000008152600401611314906161c6565b60405180910390fd5b5b5b5b5b5b505050505050505050565b6000611343826001613d6f90919063ffffffff16565b9050919050565b60046020528060005260406000206000915054906101000a900460ff1681565b80600260016101000a81548173ffffffffffffffffffffffffffffffffffffffff021916908373ffffffffffffffffffffffffffffffffffffffff16021790555050565b600d8054600181600116156101000203166002900480601f0160208091040260200160405190810160405280929190818152602001828054600181600116156101000203166002900480156114445780601f1061141957610100808354040283529160200191611444565b820191906000526020600020905b81548152906001019060200180831161142757829003601f168201915b505050505081565b601060179054906101000a900460ff1681565b6000600260009054906101000a900460ff16905090565b3373ffffffffffffffffffffffffffffffffffffffff16601060009054906101000a900473ffffffffffffffffffffffffffffffffffffffff1673ffffffffffffffffffffffffffffffffffffffff1614611506576040517f08c379a00000000000000000000000000000000000000000000000000000000081526004016114fd90615fe6565b60405180910390fd5b6115108686613e37565b61154f576040517f08c379a0000000000000000000000000000000000000000000000000000000008152600401611546906160c6565b60405180910390fd5b6115598484613e37565b611598576040517f08c379a000000000000000000000000000000000000000000000000000000000815260040161158f90615ee6565b60405180910390fd5b600086868686866040516020016115b3959493929190615c01565b60405160208183030381529060405280519060200120905060078190806001815401808255809150506001900390600052602060002001600090919091909150557f8fbc7818210c8d0cab55b36028efc60a3f6e71aa8ad8a2abb88cd9ba5f81673587878787878760405161162d9695949392919061636a565b60405180910390a150505050505050565b600b8054600181600116156101000203166002900480601f0160208091040260200160405190810160405280929190818152602001828054600181600116156101000203166002900480156116d45780601f106116a9576101008083540402835291602001916116d4565b820191906000526020600020905b8154815290600101906020018083116116b757829003601f168201915b505050505081565b6116ec6116e7612e2d565b6140e5565b565b601060169054906101000a900460ff1681565b611709611a81565b611748576040517f08c379a000000000000000000000000000000000000000000000000000000000815260040161173f90616186565b60405180910390fd5b600073ffffffffffffffffffffffffffffffffffffffff1660008054906101000a900473ffffffffffffffffffffffffffffffffffffffff1673ffffffffffffffffffffffffffffffffffffffff167f8be0079c531659141344cd1fd0a4f28419497f9722a3daafe3b4186f6b6457e060405160405180910390a360008060006101000a81548173ffffffffffffffffffffffffffffffffffffffff021916908373ffffffffffffffffffffffffffffffffffffffff160217905550565b600260019054906101000a900473ffffffffffffffffffffffffffffffffffffffff1681565b61183c611837612e2d565b61132d565b61187b576040517f08c379a000000000000000000000000000000000000000000000000000000000815260040161187290615f26565b60405180910390fd5b6118848161413f565b50565b601060189054906101000a900460ff1681565b6118aa6118a5612e2d565b61132d565b6118e9576040517f08c379a00000000000000000000000000000000000000000000000000000000081526004016118e090615f26565b60405180910390fd5b600260009054906101000a900460ff1615611939576040517f08c379a000000000000000000000000000000000000000000000000000000000815260040161193090616066565b60405180910390fd5b6001600260006101000a81548160ff0219169083151502179055507f62e78cea01bee320cd4e420270b5ea74000d11b0c9f74754ebdbfc544b05a25861197d612e2d565b60405161198a9190615c7b565b60405180910390a1565b600f60009054906101000a900473ffffffffffffffffffffffffffffffffffffffff1681565b60008060009054906101000a900473ffffffffffffffffffffffffffffffffffffffff16905090565b600a8054600181600116156101000203166002900480601f016020809104026020016040519081016040528092919081815260200182805460018160011615610100020316600290048015611a795780601f10611a4e57610100808354040283529160200191611a79565b820191906000526020600020905b815481529060010190602001808311611a5c57829003601f168201915b505050505081565b60008060009054906101000a900473ffffffffffffffffffffffffffffffffffffffff1673ffffffffffffffffffffffffffffffffffffffff16611ac3612e2d565b73ffffffffffffffffffffffffffffffffffffffff1614905090565b611ae7611a81565b611b26576040517f08c379a0000000000000000000000000000000000000000000000000000000008152600401611b1d90616186565b60405180910390fd5b6000600260019054906101000a900473ffffffffffffffffffffffffffffffffffffffff1673ffffffffffffffffffffffffffffffffffffffff166365f68c89836040518263ffffffff1660e01b8152600401611b839190615c60565b60206040518083038186803b158015611b9b57600080fd5b505afa158015611baf573d6000803e3d6000fd5b505050506040513d601f19601f82011682018060405250810190611bd3919061480e565b9050600260019054906101000a900473ffffffffffffffffffffffffffffffffffffffff1673ffffffffffffffffffffffffffffffffffffffff166365f68c89611c1b6119ba565b6040518263ffffffff1660e01b8152600401611c379190615c60565b60206040518083038186803b158015611c4f57600080fd5b505afa158015611c63573d6000803e3d6000fd5b505050506040513d601f19601f82011682018060405250810190611c87919061480e565b8114611cc8576040517f08c379a0000000000000000000000000000000000000000000000000000000008152600401611cbf90616286565b60405180910390fd5b81600f60006101000a81548173ffffffffffffffffffffffffffffffffffffffff021916908373ffffffffffffffffffffffffffffffffffffffff1602179055507f3e3119fbec468368c03e4732985b5a3f373d3a8b8ad5cc0f820357687349b63d826002604051611d3b929190615cbf565b60405180910390a15050565b600081604051602001611d5a9190615be6565b604051602081830303815290604052805190602001209050919050565b611d7f611a81565b611dbe576040517f08c379a0000000000000000000000000000000000000000000000000000000008152600401611db590616186565b60405180910390fd5b6000600260019054906101000a900473ffffffffffffffffffffffffffffffffffffffff1673ffffffffffffffffffffffffffffffffffffffff166365f68c89836040518263ffffffff1660e01b8152600401611e1b9190615c60565b60206040518083038186803b158015611e3357600080fd5b505afa158015611e47573d6000803e3d6000fd5b505050506040513d601f19601f82011682018060405250810190611e6b919061480e565b9050600260019054906101000a900473ffffffffffffffffffffffffffffffffffffffff1673ffffffffffffffffffffffffffffffffffffffff166365f68c89611eb36119ba565b6040518263ffffffff1660e01b8152600401611ecf9190615c60565b60206040518083038186803b158015611ee757600080fd5b505afa158015611efb573d6000803e3d6000fd5b505050506040513d601f19601f82011682018060405250810190611f1f919061480e565b8114611f60576040517f08c379a0000000000000000000000000000000000000000000000000000000008152600401611f5790616166565b60405180910390fd5b81601060006101000a81548173ffffffffffffffffffffffffffffffffffffffff021916908373ffffffffffffffffffffffffffffffffffffffff1602179055507f3e3119fbec468368c03e4732985b5a3f373d3a8b8ad5cc0f820357687349b63d826003604051611fd3929190615ce8565b60405180910390a15050565b600260009054906101000a900460ff161561202f576040517f08c379a000000000000000000000000000000000000000000000000000000000815260040161202690616066565b60405180910390fd5b600360009054906101000a900473ffffffffffffffffffffffffffffffffffffffff1673ffffffffffffffffffffffffffffffffffffffff163373ffffffffffffffffffffffffffffffffffffffff16146120bf576040517f08c379a00000000000000000000000000000000000000000000000000000000081526004016120b6906162e6565b60405180910390fd5b7ff2117f45bb026f7f165d939836d0293bad4b8aaf2e658cb38900da27a813065583836040516120f0929190615d47565b60405180910390a1505050565b60085481565b601060199054906101000a900460ff1681565b600260009054906101000a900460ff1615612166576040517f08c379a000000000000000000000000000000000000000000000000000000000815260040161215d90616066565b60405180910390fd5b600360009054906101000a900473ffffffffffffffffffffffffffffffffffffffff1673ffffffffffffffffffffffffffffffffffffffff163373ffffffffffffffffffffffffffffffffffffffff16146121f6576040517f08c379a00000000000000000000000000000000000000000000000000000000081526004016121ed906162e6565b60405180910390fd5b60008311612239576040517f08c379a000000000000000000000000000000000000000000000000000000000815260040161223090616026565b60405180910390fd5b6006600086815260200190815260200160002060009054906101000a900460ff16612299576040517f08c379a000000000000000000000000000000000000000000000000000000000815260040161229090616006565b60405180910390fd5b836122b5601060189054906101000a900460ff1660ff16611d47565b146122f5576040517f08c379a00000000000000000000000000000000000000000000000000000000081526004016122ec90616046565b60405180910390fd5b7fb30495d559e05f5f1c993ea722cb239b6d85f70ed9c914b8350c4b94feed7ccd8584846040516123289392919061649a565b60405180910390a1505050505050565b600f60009054906101000a900473ffffffffffffffffffffffffffffffffffffffff1673ffffffffffffffffffffffffffffffffffffffff163373ffffffffffffffffffffffffffffffffffffffff16146123c8576040517f08c379a00000000000000000000000000000000000000000000000000000000081526004016123bf90616086565b60405180910390fd5b6006600082815260200190815260200160002060009054906101000a900460ff166125045760016006600083815260200190815260200160002060006101000a81548160ff0219169083151502179055507f2757aa27a660ab391745e035b5a23653f6497d768c445f6a9c3df78e1d18727f600260019054906101000a900473ffffffffffffffffffffffffffffffffffffffff1673ffffffffffffffffffffffffffffffffffffffff166365f68c896124806119ba565b6040518263ffffffff1660e01b815260040161249c9190615c60565b60206040518083038186803b1580156124b457600080fd5b505afa1580156124c8573d6000803e3d6000fd5b505050506040513d601f19601f820116820180604052508101906124ec919061480e565b826040516124fb929190616471565b60405180910390a15b50565b60008160405160200161251a9190615bcf565b604051602081830303815290604052805190602001209050919050565b6000612554601060149054906101000a900460ff1660ff16611d47565b9050919050565b60066020528060005260406000206000915054906101000a900460ff1681565b600260009054906101000a900460ff16156125cb576040517f08c379a00000000000000000000000000000000000000000000000000000000081526004016125c290616066565b60405180910390fd5b6000600260019054906101000a900473ffffffffffffffffffffffffffffffffffffffff1673ffffffffffffffffffffffffffffffffffffffff166365f68c89336040518263ffffffff1660e01b81526004016126289190615c7b565b60206040518083038186803b15801561264057600080fd5b505afa158015612654573d6000803e3d6000fd5b505050506040513d601f19601f82011682018060405250810190612678919061480e565b90506004600082815260200190815260200160002060009054906101000a900460ff166126da576040517f08c379a00000000000000000000000000000000000000000000000000000000081526004016126d190616146565b60405180910390fd5b600260019054906101000a900473ffffffffffffffffffffffffffffffffffffffff1673ffffffffffffffffffffffffffffffffffffffff1663613a7896826040518263ffffffff1660e01b81526004016127359190616326565b60206040518083038186803b15801561274d57600080fd5b505afa158015612761573d6000803e3d6000fd5b505050506040513d601f19601f820116820180604052508101906127859190614670565b6127c4576040517f08c379a00000000000000000000000000000000000000000000000000000000081526004016127bb906160a6565b60405180910390fd5b60006127e1601060199054906101000a900460ff1660ff16611d47565b9050600360009054906101000a900473ffffffffffffffffffffffffffffffffffffffff1673ffffffffffffffffffffffffffffffffffffffff166304cc4d8e828487876040518563ffffffff1660e01b81526004016128449493929190615d70565b600060405180830381600087803b15801561285e57600080fd5b505af1158015612872573d6000803e3d6000fd5b505050507f1bb5ed67b2bbb22aaf99cdcf7dbcf09ad7b4e3999dab8f77fd76c207b6e226da8285856040516128a99392919061649a565b60405180910390a150505050565b6005602052816000526040600020818051602081018201805184825260208301602085012081835280955050505050506000915091509054906101000a900460ff1681565b612904611a81565b612943576040517f08c379a000000000000000000000000000000000000000000000000000000000815260040161293a90616186565b60405180910390fd5b60648210612986576040517f08c379a000000000000000000000000000000000000000000000000000000000815260040161297d90615e66565b60405180910390fd5b816008819055507f94514d602145b96a19d64f0297fc93f891dfa585d0b414185acfe635b073752b82826040516129be929190616341565b60405180910390a15050565b600360009054906101000a900473ffffffffffffffffffffffffffffffffffffffff1681565b600260009054906101000a900460ff1615612a40576040517f08c379a0000000000000000000000000000000000000000000000000000000008152600401612a3790616066565b60405180910390fd5b600360009054906101000a900473ffffffffffffffffffffffffffffffffffffffff1673ffffffffffffffffffffffffffffffffffffffff163373ffffffffffffffffffffffffffffffffffffffff1614612ad0576040517f08c379a0000000000000000000000000000000000000000000000000000000008152600401612ac7906162e6565b60405180910390fd5b83612aec601060199054906101000a900460ff1660ff16611d47565b14612b2c576040517f08c379a0000000000000000000000000000000000000000000000000000000008152600401612b2390616126565b60405180910390fd5b606081600081518110612b3b57fe5b60200260200101519050600073__RBBLib________________________________633581ee54836040518263ffffffff1660e01b8152600401612b7e9190615deb565b60206040518083038186803b158015612b9657600080fd5b505af4158015612baa573d6000803e3d6000fd5b505050506040513d601f19601f82011682018060405250810190612bce919061480e565b90506004600082815260200190815260200160002060009054906101000a900460ff16612c30576040517f08c379a0000000000000000000000000000000000000000000000000000000008152600401612c27906161e6565b60405180910390fd5b7f5d4d346a0213ff920be5c680b2dae20438f8a3447c0b4bd37268d1d2f523432a818686604051612c639392919061649a565b60405180910390a1505050505050565b612c7b611a81565b612cba576040517f08c379a0000000000000000000000000000000000000000000000000000000008152600401612cb190616186565b60405180910390fd5b612cc381614199565b50565b60078181548110612cd357fe5b906000526020600020016000915090505481565b600c8054600181600116156101000203166002900480601f016020809104026020016040519081016040528092919081815260200182805460018160011615610100020316600290048015612d7d5780601f10612d5257610100808354040283529160200191612d7d565b820191906000526020600020905b815481529060010190602001808311612d6057829003601f168201915b505050505081565b612d8f8282613d6f565b15612dcf576040517f08c379a0000000000000000000000000000000000000000000000000000000008152600401612dc690615ec6565b60405180910390fd5b60018260000160008373ffffffffffffffffffffffffffffffffffffffff1673ffffffffffffffffffffffffffffffffffffffff16815260200190815260200160002060006101000a81548160ff0219169083151502179055505050565b600033905090565b600260009054906101000a900460ff1615612e85576040517f08c379a0000000000000000000000000000000000000000000000000000000008152600401612e7c90616066565b60405180910390fd5b8773ffffffffffffffffffffffffffffffffffffffff16600e60009054906101000a900473ffffffffffffffffffffffffffffffffffffffff1673ffffffffffffffffffffffffffffffffffffffff1614612f15576040517f08c379a0000000000000000000000000000000000000000000000000000000008152600401612f0c90616226565b60405180910390fd5b6000600260019054906101000a900473ffffffffffffffffffffffffffffffffffffffff1673ffffffffffffffffffffffffffffffffffffffff166365f68c89612f5d6119ba565b6040518263ffffffff1660e01b8152600401612f799190615c60565b60206040518083038186803b158015612f9157600080fd5b505afa158015612fa5573d6000803e3d6000fd5b505050506040513d601f19601f82011682018060405250810190612fc9919061480e565b905080881461300d576040517f08c379a0000000000000000000000000000000000000000000000000000000008152600401613004906162a6565b60405180910390fd5b613028601060149054906101000a900460ff1660ff16611d47565b8714613069576040517f08c379a000000000000000000000000000000000000000000000000000000000815260040161306090616266565b60405180910390fd5b8588146130ab576040517f08c379a00000000000000000000000000000000000000000000000000000000081526004016130a290616106565b60405180910390fd5b6130c6601060159054906101000a900460ff1660ff16611d47565b85141561310b577f94d89c2ff047eba28eb56cacf5a8e292f150c43e792d648d54f8b93372849b3c84846040516130fe929190616341565b60405180910390a16131ae565b613126601060169054906101000a900460ff1660ff16611d47565b85141561316b577f7916e578b526c14777538bb519e208901510a7ff7765e2e339258b6ba65272fc848460405161315e929190616341565b60405180910390a16131ad565b60006131ac576040517f08c379a00000000000000000000000000000000000000000000000000000000081526004016131a3906162c6565b60405180910390fd5b5b5b505050505050505050565b600260009054906101000a900460ff1615613209576040517f08c379a000000000000000000000000000000000000000000000000000000000815260040161320090616066565b60405180910390fd5b60608160018151811061321857fe5b602002602001015190506000600260019054906101000a900473ffffffffffffffffffffffffffffffffffffffff1673ffffffffffffffffffffffffffffffffffffffff166365f68c8961326a6119ba565b6040518263ffffffff1660e01b81526004016132869190615c60565b60206040518083038186803b15801561329e57600080fd5b505afa1580156132b2573d6000803e3d6000fd5b505050506040513d601f19601f820116820180604052508101906132d6919061480e565b9050600f60009054906101000a900473ffffffffffffffffffffffffffffffffffffffff1673ffffffffffffffffffffffffffffffffffffffff168a73ffffffffffffffffffffffffffffffffffffffff1614613368576040517f08c379a000000000000000000000000000000000000000000000000000000000815260040161335f90616086565b60405180910390fd5b8089146133aa576040517f08c379a00000000000000000000000000000000000000000000000000000000081526004016133a1906162a6565b60405180910390fd5b876133c6601060159054906101000a900460ff1660ff16611d47565b14613406576040517f08c379a00000000000000000000000000000000000000000000000000000000081526004016133fd90615fc6565b60405180910390fd5b8561341083612507565b14613450576040517f08c379a000000000000000000000000000000000000000000000000000000000815260040161344790616306565b60405180910390fd5b60056000888152602001908152602001600020826040516134719190615bcf565b908152602001604051809103902060009054906101000a900460ff1661351157600160056000898152602001908152602001600020836040516134b49190615bcf565b908152602001604051809103902060006101000a81548160ff0219169083151502179055507f448b0dd714fa3713f69988b8ee8bad3ac840e06e3d93c970086a3d490d61c629876040516135089190616326565b60405180910390a15b7fe08d0d3d48ef9857108be67cfe715057ce9b455eaf3a4d3b66f34bf148311d7a8783878760405161354694939291906163cb565b60405180910390a150505050505050505050565b600260009054906101000a900460ff16156135aa576040517f08c379a00000000000000000000000000000000000000000000000000000000081526004016135a190616066565b60405180910390fd5b6060816001815181106135b957fe5b6020026020010151905060056000898152602001908152602001600020816040516135e49190615bcf565b908152602001604051809103902060009054906101000a900460ff1661363f576040517f08c379a000000000000000000000000000000000000000000000000000000000815260040161363690615f46565b60405180910390fd5b8661364982612507565b14613689576040517f08c379a000000000000000000000000000000000000000000000000000000000815260040161368090616306565b60405180910390fd5b846136a5601060189054906101000a900460ff1660ff16611d47565b146136e5576040517f08c379a00000000000000000000000000000000000000000000000000000000081526004016136dc90616046565b60405180910390fd5b85881415613728576040517f08c379a000000000000000000000000000000000000000000000000000000000815260040161371f90615fa6565b60405180910390fd5b6006600087815260200190815260200160002060009054906101000a900460ff166137b35760016006600088815260200190815260200160002060006101000a81548160ff0219169083151502179055507f2757aa27a660ab391745e035b5a23653f6497d768c445f6a9c3df78e1d18727f88876040516137aa929190616471565b60405180910390a15b7fdd62ead748da3466d84db25e6f55c3213f29aaf5c159d4d576018cd84209782688828887876040516137ea959493929190616417565b60405180910390a1505050505050505050565b600260009054906101000a900460ff161561384d576040517f08c379a000000000000000000000000000000000000000000000000000000000815260040161384490616066565b60405180910390fd5b600f60009054906101000a900473ffffffffffffffffffffffffffffffffffffffff1673ffffffffffffffffffffffffffffffffffffffff168873ffffffffffffffffffffffffffffffffffffffff16146138dd576040517f08c379a00000000000000000000000000000000000000000000000000000000081526004016138d490616086565b60405180910390fd5b600260019054906101000a900473ffffffffffffffffffffffffffffffffffffffff1673ffffffffffffffffffffffffffffffffffffffff166365f68c896139236119ba565b6040518263ffffffff1660e01b815260040161393f9190615c60565b60206040518083038186803b15801561395757600080fd5b505afa15801561396b573d6000803e3d6000fd5b505050506040513d601f19601f8201168201806040525081019061398f919061480e565b87146139d0576040517f08c379a00000000000000000000000000000000000000000000000000000000081526004016139c790615f66565b60405180910390fd5b856139ec601060169054906101000a900460ff1660ff16611d47565b14613a2c576040517f08c379a0000000000000000000000000000000000000000000000000000000008152600401613a2390616246565b60405180910390fd5b83613a48601060189054906101000a900460ff1660ff16611d47565b14613a88576040517f08c379a0000000000000000000000000000000000000000000000000000000008152600401613a7f90616046565b60405180910390fd5b84871415613acb576040517f08c379a0000000000000000000000000000000000000000000000000000000008152600401613ac290616206565b60405180910390fd5b7f8316c04a0a2b1e71f63264f2f0380d43ae9f758672a97012d6880fcedcb54232858484604051613afe9392919061649a565b60405180910390a15050505050505050565b600260009054906101000a900460ff1615613b60576040517f08c379a0000000000000000000000000000000000000000000000000000000008152600401613b5790616066565b60405180910390fd5b613b6a8787613e37565b613ba9576040517f08c379a0000000000000000000000000000000000000000000000000000000008152600401613ba0906160c6565b60405180910390fd5b613bb38585613e37565b613bf2576040517f08c379a0000000000000000000000000000000000000000000000000000000008152600401613be990615ee6565b60405180910390fd5b606081600181518110613c0157fe5b6020026020010151905060008888888888604051602001613c26959493929190615c01565b6040516020818303038152906040528051906020012090506000805b600780549050811015613c84578260078281548110613c5d57fe5b90600052602060002001541415613c775760019150613c84565b8080600101915050613c42565b81613cc4576040517f08c379a0000000000000000000000000000000000000000000000000000000008152600401613cbb90615f06565b60405180910390fd5b600760016007805490500381548110613cd957fe5b906000526020600020015460078281548110613cf157fe5b90600052602060002001819055506007805480613d0a57fe5b600190038181906000526020600020016000905590557fae2b72cc4621b123feac073da32309bdd45fefaa49154814cd8c8b3c7c4d5cb78b8b8b8b8b8b604051613d599695949392919061636a565b60405180910390a1505050505050505050505050565b60008073ffffffffffffffffffffffffffffffffffffffff168273ffffffffffffffffffffffffffffffffffffffff161415613de0576040517f08c379a0000000000000000000000000000000000000000000000000000000008152600401613dd7906161a6565b60405180910390fd5b8260000160008373ffffffffffffffffffffffffffffffffffffffff1673ffffffffffffffffffffffffffffffffffffffff16815260200190815260200160002060009054906101000a900460ff16905092915050565b60008060009050600115156004600086815260200190815260200160002060009054906101000a900460ff1615151415613e755760019150506140df565b600115156006600086815260200190815260200160002060009054906101000a900460ff1615151415613eac5760019150506140df565b6000600260019054906101000a900473ffffffffffffffffffffffffffffffffffffffff1673ffffffffffffffffffffffffffffffffffffffff166365f68c89613ef46119ba565b6040518263ffffffff1660e01b8152600401613f109190615c60565b60206040518083038186803b158015613f2857600080fd5b505afa158015613f3c573d6000803e3d6000fd5b505050506040513d601f19601f82011682018060405250810190613f60919061480e565b905084811415613f75576001925050506140df565b6000600260019054906101000a900473ffffffffffffffffffffffffffffffffffffffff1673ffffffffffffffffffffffffffffffffffffffff166365f68c89600360009054906101000a900473ffffffffffffffffffffffffffffffffffffffff1673ffffffffffffffffffffffffffffffffffffffff16638da5cb5b6040518163ffffffff1660e01b815260040160206040518083038186803b15801561401d57600080fd5b505afa158015614031573d6000803e3d6000fd5b505050506040513d601f19601f8201168201806040525081019061405591906144dc565b6040518263ffffffff1660e01b81526004016140719190615c60565b60206040518083038186803b15801561408957600080fd5b505afa15801561409d573d6000803e3d6000fd5b505050506040513d601f19601f820116820180604052508101906140c1919061480e565b9050858114156140d757600193505050506140df565b600093505050505b92915050565b6140f98160016142c690919063ffffffff16565b8073ffffffffffffffffffffffffffffffffffffffff167fcd265ebaf09df2871cc7bd4133404a235ba12eff2041bb89d9c714a2621c7c7e60405160405180910390a250565b614153816001612d8590919063ffffffff16565b8073ffffffffffffffffffffffffffffffffffffffff167f6719d08c1888103bea251a4ed56406bd0c3e69723c8a1686e017e7bbe159b6f860405160405180910390a250565b600073ffffffffffffffffffffffffffffffffffffffff168173ffffffffffffffffffffffffffffffffffffffff161415614209576040517f08c379a000000000000000000000000000000000000000000000000000000000815260040161420090615f86565b60405180910390fd5b8073ffffffffffffffffffffffffffffffffffffffff1660008054906101000a900473ffffffffffffffffffffffffffffffffffffffff1673ffffffffffffffffffffffffffffffffffffffff167f8be0079c531659141344cd1fd0a4f28419497f9722a3daafe3b4186f6b6457e060405160405180910390a3806000806101000a81548173ffffffffffffffffffffffffffffffffffffffff021916908373ffffffffffffffffffffffffffffffffffffffff16021790555050565b6142d08282613d6f565b61430f576040517f08c379a0000000000000000000000000000000000000000000000000000000008152600401614306906160e6565b60405180910390fd5b60008260000160008373ffffffffffffffffffffffffffffffffffffffff1673ffffffffffffffffffffffffffffffffffffffff16815260200190815260200160002060006101000a81548160ff0219169083151502179055505050565b60008135905061437c81616734565b92915050565b60008151905061439181616734565b92915050565b600082601f8301126143a857600080fd5b81356143bb6143b682616519565b6164ec565b9150818183526020840193506020810190508360005b8381101561440157813586016143e78882614435565b8452602084019350602083019250506001810190506143d1565b5050505092915050565b60008151905061441a8161674b565b92915050565b60008135905061442f81616762565b92915050565b600082601f83011261444657600080fd5b813561445961445482616541565b6164ec565b9150808252602083016020830185838301111561447557600080fd5b6144808382846166cd565b50505092915050565b60008135905061449881616779565b92915050565b6000815190506144ad81616779565b92915050565b6000602082840312156144c557600080fd5b60006144d38482850161436d565b91505092915050565b6000602082840312156144ee57600080fd5b60006144fc84828501614382565b91505092915050565b60008060008060008060c0878903121561451e57600080fd5b600061452c89828a0161436d565b965050602061453d89828a01614489565b955050604061454e89828a01614420565b945050606061455f89828a01614489565b935050608061457089828a01614420565b92505060a087013567ffffffffffffffff81111561458d57600080fd5b61459989828a01614397565b9150509295509295509295565b600080600080600080600080610100898b0312156145c357600080fd5b60006145d18b828c0161436d565b98505060206145e28b828c01614489565b97505060406145f38b828c01614420565b96505060606146048b828c01614489565b95505060806146158b828c01614420565b94505060a06146268b828c01614489565b93505060c06146378b828c01614420565b92505060e089013567ffffffffffffffff81111561465457600080fd5b6146608b828c01614397565b9150509295985092959890939650565b60006020828403121561468257600080fd5b60006146908482850161440b565b91505092915050565b6000602082840312156146ab57600080fd5b60006146b984828501614420565b91505092915050565b6000806000606084860312156146d757600080fd5b60006146e586828701614420565b93505060206146f686828701614420565b925050604084013567ffffffffffffffff81111561471357600080fd5b61471f86828701614397565b9150509250925092565b6000806000806080858703121561473f57600080fd5b600061474d87828801614420565b945050602061475e87828801614489565b935050604061476f87828801614420565b925050606085013567ffffffffffffffff81111561478c57600080fd5b61479887828801614397565b91505092959194509250565b6000602082840312156147b657600080fd5b600082013567ffffffffffffffff8111156147d057600080fd5b6147dc84828501614435565b91505092915050565b6000602082840312156147f757600080fd5b600061480584828501614489565b91505092915050565b60006020828403121561482057600080fd5b600061482e8482850161449e565b91505092915050565b6000806040838503121561484a57600080fd5b600061485885828601614489565b925050602061486985828601614420565b9150509250929050565b60008060008060008060c0878903121561488c57600080fd5b600061489a89828a01614489565b96505060206148ab89828a01614420565b95505060406148bc89828a01614489565b94505060606148cd89828a01614420565b93505060806148de89828a01614489565b92505060a06148ef89828a01614420565b9150509295509295509295565b6000806040838503121561490f57600080fd5b600061491d85828601614489565b925050602083013567ffffffffffffffff81111561493a57600080fd5b61494685828601614435565b9150509250929050565b61495981616619565b82525050565b614968816165ba565b82525050565b614977816165cc565b82525050565b614986816165d8565b82525050565b61499d614998826165d8565b61670f565b82525050565b6149ac8161662b565b82525050565b6149bb8161664f565b82525050565b6149ca81616673565b82525050565b6149d981616685565b82525050565b6149e881616697565b82525050565b60006149f982616582565b614a03818561658d565b9350614a138185602086016166dc565b614a1c81616723565b840191505092915050565b6000614a3282616582565b614a3c818561659e565b9350614a4c8185602086016166dc565b614a5581616723565b840191505092915050565b6000614a6b82616582565b614a7581856165af565b9350614a858185602086016166dc565b80840191505092915050565b600081546001811660008114614aae5760018114614ad457614b18565b607f6002830416614abf818761659e565b955060ff198316865260208601935050614b18565b60028204614ae2818761659e565b9550614aed8561656d565b60005b82811015614b0f57815481890152600182019150602081019050614af0565b80880195505050505b505092915050565b6000614b2d601b8361658d565b91507f56616c6f7220646520466565206d61696f7220717565203130302500000000006000830152602082019050919050565b6000614b6d604b8361658d565b91507f4f20726573706f6e73c3a176656c2070656c6120616c6f6361c3a7c3a36f206960008301527f6e696369616c206465766520736572206461206d65736d6f205242425f49442060208301527f646f20636f6e747261746f0000000000000000000000000000000000000000006040830152606082019050919050565b6000614bf960148361658d565b91507f5061757361626c653a206e6f74207061757365640000000000000000000000006000830152602082019050919050565b6000614c39601f8361658d565b91507f526f6c65733a206163636f756e7420616c72656164792068617320726f6c65006000830152602082019050919050565b6000614c79603d8361658d565b91507f456e64657265c3a76f2064652064657374696e6f206ec3a36f20696e636c75c360008301527fad646f20636f6d6f20706170656c206e6573736520636164617374726f0000006020830152604082019050919050565b6000614cdf60308361658d565b91507f496e74657276656ec3a7c3a36f206d616e75616c206ec3a36f2070726576696160008301527f6d656e74652063616461737472616461000000000000000000000000000000006020830152604082019050919050565b6000614d4560308361658d565b91507f506175736572526f6c653a2063616c6c657220646f6573206e6f74206861766560008301527f207468652050617573657220726f6c65000000000000000000000000000000006020830152604082019050919050565b6000614dab60448361658d565b91507f536f6d656e746520636c69656e74657320656d20636f6e747261746f7320636160008301527f646173747261646f7320706f64656d206578656375746172206f20706167616d60208301527f656e746f000000000000000000000000000000000000000000000000000000006040830152606082019050919050565b6000614e3760298361658d565b91507f536f6d656e7465206f20424e44455320706f6465206578656375746172206f2060008301527f706167616d656e746f00000000000000000000000000000000000000000000006020830152604082019050919050565b6000614e9d60268361658d565b91507f4f776e61626c653a206e6577206f776e657220697320746865207a65726f206160008301527f64647265737300000000000000000000000000000000000000000000000000006020830152604082019050919050565b6000614f03605f8361658d565b91507f556d20434e504a206ec3a36f20706f6465207472616e73666572697220746f6b60008301527f656e20706172612073692c2061696e64612071756520656d20706170c3a9697360208301527f2064697374696e746f732028436c69656e74652f466f726e656365646f7229006040830152606082019050919050565b6000614f8f602a8361658d565b91507f4572726f206e6f2063c3a16c63756c6f20646f206861736820646120636f6e7460008301527f6120646f20424e444553000000000000000000000000000000000000000000006020830152604082019050919050565b6000614ff560578361658d565b91507f536f6d656e746520756d20726573706f6e73c3a176656c2070656c617320747260008301527f616e73666572c3aa6e636961732065787472616f7264696ec3a172696173207060208301527f6f7220656e766961722061207472616e7361c3a7c3a36f0000000000000000006040830152606082019050919050565b6000615081602f8361658d565b91507f536f6d656e746520666f726e656365646f72657320706f64656d20657865637560008301527f746172206f20706167616d656e746f00000000000000000000000000000000006020830152604082019050919050565b60006150e760358361658d565b91507f56616c6f72206120736572207472616e736163696f6e61646f2064657665207360008301527f6572206d61696f7220646f20717565207a65726f2e00000000000000000000006020830152604082019050919050565b600061514d602f8361658d565b91507f4572726f206e6f2063c3a16c63756c6f20646f206861736820646120636f6e7460008301527f6120646f20666f726e656365646f7200000000000000000000000000000000006020830152604082019050919050565b60006151b360108361658d565b91507f5061757361626c653a20706175736564000000000000000000000000000000006000830152602082019050919050565b60006151f360498361658d565b91507f45737461207472616e7361c3a7c3a36f2073c3b320706f64652073657220657860008301527f656375746164612070656c6f20726573706f6e73c3a176656c2070656c6f206460208301527f6573656d626f6c736f00000000000000000000000000000000000000000000006040830152606082019050919050565b600061527f60338361658d565b91507f436f6e746120646520646f61646f72207072656369736120657374617220636f60008301527f6d20636164617374726f2076616c696461646f000000000000000000000000006020830152604082019050919050565b60006152e5603c8361658d565b91507f456e64657265c3a76f206465206f726967656d206ec3a36f20696e636c75c3ad60008301527f646f20636f6d6f20706170656c206e6573736520636164617374726f000000006020830152604082019050919050565b600061534b60218361658d565b91507f526f6c65733a206163636f756e7420646f6573206e6f74206861766520726f6c60008301527f65000000000000000000000000000000000000000000000000000000000000006020830152604082019050919050565b60006153b160458361658d565b91507f49642064652064657374696e6f206461207472616e7361c3a7c3a36f206ec3a360008301527f6f20657374c3a120696775616c20616f20646f206f776e657220646f20636f6e60208301527f747261746f0000000000000000000000000000000000000000000000000000006040830152606082019050919050565b600061543d60248361658d565b91507f4572726f206e6f2063c3a16c63756c6f20646f206861736820646120646f61c360008301527fa7c3a36f000000000000000000000000000000000000000000000000000000006020830152604082019050919050565b60006154a360268361658d565b91507f536f6d656e746520646f61646f72657320706f64656d2066617a657220646f6160008301527fc3a7c3b5657300000000000000000000000000000000000000000000000000006020830152604082019050919050565b600061550960698361658d565b91507f4f20726573706f6e73c3a176656c2070656c6f2063616461737472616d656e7460008301527f6f206465207472616e73666572656e636961732065787472616f7264696ec3a160208301527f72696173206465766520736572206461206d65736d6f205242425f494420646f60408301527f20636f6e747261746f00000000000000000000000000000000000000000000006060830152608082019050919050565b60006155bb60208361658d565b91507f4f776e61626c653a2063616c6c6572206973206e6f7420746865206f776e65726000830152602082019050919050565b60006155fb60228361658d565b91507f526f6c65733a206163636f756e7420697320746865207a65726f20616464726560008301527f73730000000000000000000000000000000000000000000000000000000000006020830152604082019050919050565b600061566160428361658d565b91507f4e656e68756d61207665726966696361c3a7c3a36f206573706563c3ad66696360008301527f6120656e636f6e747261646120706172612061207472616e73666572c3aa6e6360208301527f69610000000000000000000000000000000000000000000000000000000000006040830152606082019050919050565b60006156ed60408361658d565b91507f536f6d656e746520646f61646f72657320706f64656d2066617a657220646f6160008301527fc3a7c3b565732c20726567697374726f20657374616820696e636f727265746f6020830152604082019050919050565b6000615753602b8361658d565b91507f556d20424e444553206ec3a36f20706f6465207472616e73666572697220746f60008301527f6b656e20706172612073690000000000000000000000000000000000000000006020830152604082019050919050565b60006157b9604c8361658d565b91507f536f6d656e746520756d20726573706f6e73c3a176656c2070656c617320616c60008301527f6f6361c3a7c3b5657320696e69636961697320706f646520656e76696172206160208301527f207472616e7361c3a7c3a36f00000000000000000000000000000000000000006040830152606082019050919050565b600061584560418361658d565b91507f4572726f206e6f2063c3a16c63756c6f20646f206861736820646120636f6e7460008301527f612064652061646d696e20646f20636f6e747261746f2065737065636966696360208301527f6f000000000000000000000000000000000000000000000000000000000000006040830152606082019050919050565b60006158d160308361658d565b91507f48617368206465206f726967656d206461207472616e7361c3a7c3a36f206ec360008301527fa36f20657374c3a120636f727265746f000000000000000000000000000000006020830152604082019050919050565b600061593760438361658d565b91507f4f20726573706f6e73c3a176656c2070656c6f20646573656d626f6c736f206460008301527f65766520736572206461206d65736d6f205242425f494420646f20636f6e747260208301527f61746f00000000000000000000000000000000000000000000000000000000006040830152606082019050919050565b60006159c360448361658d565b91507f4964206465206f726967656d206461207472616e7361c3a7c3a36f206ec3a36f60008301527f20657374c3a120696775616c20616f20646f206f776e657220646f20636f6e7460208301527f7261746f000000000000000000000000000000000000000000000000000000006040830152606082019050919050565b6000615a4f60498361658d565b91507f486173682064652064657374696e6f206ec3a36f20657374c3a120636f72726560008301527f73706f6e64656e7465206120636f6e746120646520646573656d626f6c736f2060208301527f6f752064652061646d00000000000000000000000000000000000000000000006040830152606082019050919050565b6000615adb60308361658d565b91507f45737365206dc3a9746f646f2073c3b320706f646520736572206368616d616460008301527f6f2070656c6f205242425f546f6b656e000000000000000000000000000000006020830152604082019050919050565b6000615b41602c8361658d565b91507f4572726f206e6f2063c3a16c63756c6f20646f206861736820646120636f6e7460008301527f6120646f20636c69656e746500000000000000000000000000000000000000006020830152604082019050919050565b615ba381616602565b82525050565b615bba615bb582616602565b616719565b82525050565b615bc98161660c565b82525050565b6000615bdb8284614a60565b915081905092915050565b6000615bf28284615ba9565b60208201915081905092915050565b6000615c0d8288615ba9565b602082019150615c1d828761498c565b602082019150615c2d8286615ba9565b602082019150615c3d828561498c565b602082019150615c4d8284615ba9565b6020820191508190509695505050505050565b6000602082019050615c75600083018461495f565b92915050565b6000602082019050615c906000830184614950565b92915050565b6000604082019050615cab600083018561495f565b615cb860208301846149c1565b9392505050565b6000604082019050615cd4600083018561495f565b615ce160208301846149d0565b9392505050565b6000604082019050615cfd600083018561495f565b615d0a60208301846149df565b9392505050565b6000602082019050615d26600083018461496e565b92915050565b6000602082019050615d41600083018461497d565b92915050565b6000604082019050615d5c600083018561497d565b615d69602083018461497d565b9392505050565b6000608082019050615d85600083018761497d565b615d926020830186615b9a565b615d9f6040830185615b9a565b615dac606083018461497d565b95945050505050565b6000602082019050615dca60008301846149a3565b92915050565b6000602082019050615de560008301846149b2565b92915050565b60006020820190508181036000830152615e058184614a27565b905092915050565b60006020820190508181036000830152615e2781846149ee565b905092915050565b60006040820190508181036000830152615e498185614a91565b90508181036020830152615e5d8184614a27565b90509392505050565b60006020820190508181036000830152615e7f81614b20565b9050919050565b60006020820190508181036000830152615e9f81614b60565b9050919050565b60006020820190508181036000830152615ebf81614bec565b9050919050565b60006020820190508181036000830152615edf81614c2c565b9050919050565b60006020820190508181036000830152615eff81614c6c565b9050919050565b60006020820190508181036000830152615f1f81614cd2565b9050919050565b60006020820190508181036000830152615f3f81614d38565b9050919050565b60006020820190508181036000830152615f5f81614d9e565b9050919050565b60006020820190508181036000830152615f7f81614e2a565b9050919050565b60006020820190508181036000830152615f9f81614e90565b9050919050565b60006020820190508181036000830152615fbf81614ef6565b9050919050565b60006020820190508181036000830152615fdf81614f82565b9050919050565b60006020820190508181036000830152615fff81614fe8565b9050919050565b6000602082019050818103600083015261601f81615074565b9050919050565b6000602082019050818103600083015261603f816150da565b9050919050565b6000602082019050818103600083015261605f81615140565b9050919050565b6000602082019050818103600083015261607f816151a6565b9050919050565b6000602082019050818103600083015261609f816151e6565b9050919050565b600060208201905081810360008301526160bf81615272565b9050919050565b600060208201905081810360008301526160df816152d8565b9050919050565b600060208201905081810360008301526160ff8161533e565b9050919050565b6000602082019050818103600083015261611f816153a4565b9050919050565b6000602082019050818103600083015261613f81615430565b9050919050565b6000602082019050818103600083015261615f81615496565b9050919050565b6000602082019050818103600083015261617f816154fc565b9050919050565b6000602082019050818103600083015261619f816155ae565b9050919050565b600060208201905081810360008301526161bf816155ee565b9050919050565b600060208201905081810360008301526161df81615654565b9050919050565b600060208201905081810360008301526161ff816156e0565b9050919050565b6000602082019050818103600083015261621f81615746565b9050919050565b6000602082019050818103600083015261623f816157ac565b9050919050565b6000602082019050818103600083015261625f81615838565b9050919050565b6000602082019050818103600083015261627f816158c4565b9050919050565b6000602082019050818103600083015261629f8161592a565b9050919050565b600060208201905081810360008301526162bf816159b6565b9050919050565b600060208201905081810360008301526162df81615a42565b9050919050565b600060208201905081810360008301526162ff81615ace565b9050919050565b6000602082019050818103600083015261631f81615b34565b9050919050565b600060208201905061633b6000830184615b9a565b92915050565b60006040820190506163566000830185615b9a565b616363602083018461497d565b9392505050565b600060c08201905061637f6000830189615b9a565b61638c602083018861497d565b6163996040830187615b9a565b6163a6606083018661497d565b6163b36080830185615b9a565b6163c060a083018461497d565b979650505050505050565b60006080820190506163e06000830187615b9a565b81810360208301526163f281866149ee565b90506164016040830185615b9a565b61640e606083018461497d565b95945050505050565b600060a08201905061642c6000830188615b9a565b818103602083015261643e81876149ee565b905061644d6040830186615b9a565b61645a6060830185615b9a565b616467608083018461497d565b9695505050505050565b60006040820190506164866000830185615b9a565b6164936020830184615b9a565b9392505050565b60006060820190506164af6000830186615b9a565b6164bc6020830185615b9a565b6164c9604083018461497d565b949350505050565b60006020820190506164e66000830184615bc0565b92915050565b6000604051905081810181811067ffffffffffffffff8211171561650f57600080fd5b8060405250919050565b600067ffffffffffffffff82111561653057600080fd5b602082029050602081019050919050565b600067ffffffffffffffff82111561655857600080fd5b601f19601f8301169050602081019050919050565b60008190508160005260206000209050919050565b600081519050919050565b600082825260208201905092915050565b600082825260208201905092915050565b600081905092915050565b60006165c5826165e2565b9050919050565b60008115159050919050565b6000819050919050565b600073ffffffffffffffffffffffffffffffffffffffff82169050919050565b6000819050919050565b600060ff82169050919050565b6000616624826166a9565b9050919050565b60006166368261663d565b9050919050565b6000616648826165e2565b9050919050565b600061665a82616661565b9050919050565b600061666c826165e2565b9050919050565b600061667e8261660c565b9050919050565b60006166908261660c565b9050919050565b60006166a28261660c565b9050919050565b60006166b4826166bb565b9050919050565b60006166c6826165e2565b9050919050565b82818337600083830152505050565b60005b838110156166fa5780820151818401526020810190506166df565b83811115616709576000848401525b50505050565b6000819050919050565b6000819050919050565b6000601f19601f8301169050919050565b61673d816165ba565b811461674857600080fd5b50565b616754816165cc565b811461675f57600080fd5b50565b61676b816165d8565b811461677657600080fd5b50565b61678281616602565b811461678d57600080fd5b5056fea264697066735822122057ca418ed67b70f1bcdc27e05c4ab450849946a40e0548f07bcc45d416a4e9ef64736f6c634300060c0033",
  "immutableReferences": {},
  "source": "pragma solidity ^0.6.0;\npragma experimental ABIEncoderV2;\n\n\nimport \"./RBBLib.sol\";\nimport \"./RBBRegistry.sol\";\nimport \"./RBBToken.sol\";\nimport \"./SpecificRBBToken.sol\";\nimport \"@openzeppelin/contracts/ownership/Ownable.sol\";\nimport \"@openzeppelin/contracts/lifecycle/Pausable.sol\";\nimport \"@openzeppelin/contracts/math/SafeMath.sol\";\n\n\n\n/*\nTodas as operaes j supem que a entidade de origem e destino esto cadastradas e validadas no RBB_Registry, pois isso  garantido pelo contrato genrico (RBB_Token)\n\nNo includo (TBD):\n------------\n- requisito adicional de o cliente poder resgatar uma parte do valor (ao invs de ter que necessariamente transferir tudo ao fornecedor)\n- ideia de o fornecedor poder sacar mais de um saldo ao mesmo tempo.\n- pedido inicial de financiamento do cliente \n- devoluo de fornecedor para cliente sem anuncia para o BNDES\n- controle que cada doacao realmente se transformou em duas transacoes, uma para a conta adm e outra para a conta usual\nuint admFee = amount.mul(bndesFee).div(100);\n- perodo de validade para as autorizaes de transferncias extraordinrias\n- invalidar doador, cliente e fornecedor (por exemplo, em caso de CNPJ deixar de existir, contrato com BNDES acabar ou periodicamente)\n- permitir criar perfis diferenciados para contas dos clientes e fornecedores\n\n*/\n\n\ncontract FABndesToken is SpecificRBBToken {\n\n    RBBToken public rbbToken;\n\n    //RBBId donor => true/false (registered or not)\n    mapping (uint => bool) public donors;\n\n    //RBBId client => (idFinancialSupportAgreement Client => true/false (registered or not)\n    mapping (uint => mapping (string => bool)) public clients;\n\n    //RBBId supplier => true/false (registered or not)\n    mapping (uint => bool) public suppliers;\n\n    //Hash of approved Extraordinary Transfers\n    bytes32[] public hashApprovedExtraordinaryTransfers;\n\n    // BNDES Fee percentage\n    uint256 public bndesFee;    \n\n    //Types of transfer operation\n    string public INITIAL_ALLOCATION = \"INITIAL_ALLOCATION\";\n    string public DISBURSEMENT_VERIFICATION = \"DISBURSEMENT_VERIFICATION\";\n    string public CLIENT_PAY_SUPPLIER_VERIFICATION = \"CLIENT_PAY_SUPPLIER_VERIFICATION\";\n    string public BNDES_PAY_SUPPLIER_VERIFICATION = \"BNDES_PAY_SUPPLIER_VERIFICATION\";\n    string public EXTRAORDINARY_TRANSFERS = \"EXTRAORDINARY_TRANSFERS\";\n\n    address public responsibleForInitialAllocation;\n    address public responsibleForDisbursement;\n    address public resposibleForApproveExtraordinaryTransfers;\n\n    uint8 public RESERVED_MINTED_ACCOUNT = 0;\n    uint8 public RESERVED_USUAL_DISBURSEMENTS_ACCOUNT = 1;\n    uint8 public RESERVED_BNDES_ADMIN_FEE_TO_HASH = 2;\n    uint8 public RESERVED_NO_ADDITIONAL_FIELDS_TO_DONOR = 10;\n    uint8 public RESERVED_NO_ADDITIONAL_FIELDS_TO_SUPPLIER = 20;\n    uint8 public RESERVED_NO_ADDITIONAL_FIELDS_TO_DIFF_MONEY = 30;\n\n    using SafeMath for uint;\n   \n    event FA_DonationBooked(uint idDonor, uint amount, bytes32 docHash);\n    event FA_DonationConfirmed(uint idDonor, uint amount, bytes32 docHash);\n\n    event FA_InitialAllocation_Disbursements(uint amount, bytes32 docHash);\n    event FA_InitialAllocation_Fee(uint amount, bytes32 docHash);\n\n    event FA_Disbursement  (uint idClient, string idFinancialSupportAgreement, uint amount, bytes32 docHash);\n    event FA_TokenTransfer (uint fromCnpj, string fromIdFinancialSupportAgreement, uint toCnpj, uint amount, bytes32 docHash);\n    event FA_BNDES_TokenTransfer(uint toCnpj, uint amount, bytes32 docHash);\n    event FA_RedemptionRequested (uint idClaimer, uint amount, bytes32 docHash);\n    event FA_RedemptionSettlement(bytes32 redemptionTransactionHash, bytes32 docHash);\n \n    event FA_ExtraordinaryTransferAllowed (uint fromId, bytes32 fromHash, uint toId, bytes32 toHash, \n            uint amount, bytes32 docHash);\n    event FA_ExtraordinaryTransferExecuted(uint fromId, bytes32 fromHash, uint toId, bytes32 toHash, \n            uint amount, bytes32 docHash);\n\n    event FA_ManualIntervention_Fee(uint256 percent, bytes32 docHash);\n    event FA_ManualIntervention_RoleOrAddress(address account, uint8 eventType);\n\n    event FA_DonorAdded(uint id);\n    event FA_ClientAdded(uint id);\n    event FA_SupplierAdded(uint registeredBy, uint id);\n\n\n    constructor (address newrbbTokenAddr, uint fee) public {\n        require (fee < 100, \"Valor de Fee maior que 100%\");\n\n        rbbToken = RBBToken(newrbbTokenAddr);\n\n        responsibleForInitialAllocation = msg.sender;\n        responsibleForDisbursement = msg.sender;\n        resposibleForApproveExtraordinaryTransfers = msg.sender;\n\n        bndesFee = fee;\n    }\n\n\n    function setBNDESFee(uint256 newBndesFee, bytes32 docHash) public onlyOwner {\n        require (newBndesFee < 100, \"Valor de Fee maior que 100%\");\n        bndesFee = newBndesFee;\n        emit FA_ManualIntervention_Fee(newBndesFee, docHash);\n    }\n\n    function addDonor (uint idDonor) public onlyOwner {\n        require(registry.isValidatedId(idDonor), \"Conta de doador precisa estar com cadastro validado\");\n        if(!donors[idDonor]) {\n            donors[idDonor] = true;\n            emit FA_DonorAdded(idDonor);\n        }\n    }\n\n    function bookDonation(uint amount, bytes32 docHash) public whenNotPaused  {        \n        \n        uint idDonor = registry.getId(msg.sender);\n\n        require (donors[idDonor], \"Somente doadores podem fazer doaes\");\n        require(registry.isValidatedId(idDonor), \"Conta de doador precisa estar com cadastro validado\");\n        \n        bytes32 specificHash = getCalculatedHash(RESERVED_NO_ADDITIONAL_FIELDS_TO_DIFF_MONEY);\n        rbbToken.requestMint(specificHash, idDonor, amount, docHash);\n\n        emit FA_DonationBooked(idDonor, amount, docHash);\n    }\n    \n    /* confirms the donor's donation */\n    function verifyAndActForMint(bytes32 specificHash, uint amount, bytes32 docHash,\n        string[] memory data) public override whenNotPaused onlyRBBToken {\n\n        require (getCalculatedHash(RESERVED_NO_ADDITIONAL_FIELDS_TO_DIFF_MONEY)==specificHash, \"Erro no clculo do hash da doao\");\n\n        string memory sidDonor = data[0];\n        uint idDonor = RBBLib.stringtoUint(sidDonor);\n        require (donors[idDonor], \"Somente doadores podem fazer doaes, registro estah incorreto\");\n\n        emit FA_DonationConfirmed(idDonor, amount, docHash);\n\n    }\n\n\n    function getHashToMintedAccount(bytes32 specificHash) override public returns (bytes32) {\n        //There is no difference of specificHash, all money should be minted in the same account\n        return getCalculatedHash(RESERVED_MINTED_ACCOUNT);\n    }\n    /////////////////\n\n    function verifyAndActForTransfer(address originalSender, uint fromId, bytes32 fromHash, uint toId, bytes32 toHash, \n            uint amount, bytes32 docHash, string[] memory data) public override whenNotPaused onlyRBBToken {\n\n        string memory specificMethod = data[0];\n\n        require (amount>0, \"Valor a ser transacionado deve ser maior do que zero.\");\n\n        if (RBBLib.isEqual(INITIAL_ALLOCATION, specificMethod)) {\n            verifyAndActForTransfer_INITIAL_ALLOCATION(originalSender, fromId, fromHash, toId, toHash, amount, docHash, data);\n        }\n        else if (RBBLib.isEqual(DISBURSEMENT_VERIFICATION, specificMethod)) {\n            verifyAndActForTransfer_DISBURSEMENT(originalSender, fromId, fromHash, toId, toHash, amount, docHash, data);\n        }\n        else if (RBBLib.isEqual(CLIENT_PAY_SUPPLIER_VERIFICATION, specificMethod)) {\n            verifyAndActForTransfer_CLIENT_PAY_SUPPLIER(originalSender, fromId, fromHash, toId, toHash, amount, docHash, data);\n        }\n        else if (RBBLib.isEqual(BNDES_PAY_SUPPLIER_VERIFICATION, specificMethod)) {\n            verifyAndActForTransfer_BNDES_PAY_SUPPLIER(originalSender, fromId, fromHash, toId, toHash, amount, docHash, data);\n        }\n        else if (RBBLib.isEqual(EXTRAORDINARY_TRANSFERS, specificMethod)) {\n//TODO: descomentar\n            verifyAndActForTransfer_EXTRAORDINARY_TRANSFERS(originalSender, fromId, fromHash, toId, toHash, amount, docHash, data);\n        }\n        else {\n            require (false, \"Nenhuma verificao especfica encontrada para a transferncia\");\n        }\n\n    }\n\n    function verifyAndActForTransfer_INITIAL_ALLOCATION(address originalSender, uint fromId, bytes32 fromHash, uint toId, \n            bytes32 toHash, uint amount, bytes32 docHash, string[] memory data) internal whenNotPaused {\n\n        require (responsibleForInitialAllocation == originalSender, \n            \"Somente um responsvel pelas alocaes iniciais pode enviar a transao\");\n\n        uint ownerId = registry.getId(owner());\n        require (fromId == ownerId, \"Id de origem da transao no est igual ao do owner do contrato\");\n        require (fromHash == getCalculatedHash(RESERVED_MINTED_ACCOUNT), \"Hash de origem da transao no est correto\");\n\n        require (fromId == toId, \"Id de destino da transao no est igual ao do owner do contrato\");\n\n        if (toHash == getCalculatedHash(RESERVED_USUAL_DISBURSEMENTS_ACCOUNT)) {\n            emit FA_InitialAllocation_Disbursements(amount, docHash);\n        }\n        else if (toHash == getCalculatedHash(RESERVED_BNDES_ADMIN_FEE_TO_HASH)) {\n            emit FA_InitialAllocation_Fee(amount, docHash);\n        }\n        else {\n            require (false, \"Hash de destino no est correspondente a conta de desembolso ou de adm\");\n        }\n    }\n\n    function verifyAndActForTransfer_DISBURSEMENT(address originalSender, uint fromId, bytes32 fromHash, \n            uint toId, bytes32 toHash, uint amount, bytes32 docHash, string[] memory data) internal whenNotPaused {\n    \n        string memory idFinancialSupportAgreement = data[1];\n        uint ownerId = registry.getId(owner());\n\n        require (originalSender == responsibleForDisbursement, \"Esta transao s pode ser executada pelo responsvel pelo desembolso\");\n\n        //Essa eh uma regra especifica visto que outra organizacao pode ter recebido o token no allocate.\n        require (fromId == ownerId, \"Id de origem da transao no est igual ao do owner do contrato\");\n        require (getCalculatedHash(RESERVED_USUAL_DISBURSEMENTS_ACCOUNT)==fromHash, \"Erro no clculo do hash da conta do BNDES\");\n        require (getCalculatedHash(idFinancialSupportAgreement)==toHash, \"Erro no clculo do hash da conta do cliente\");\n\n        if (!clients[toId][idFinancialSupportAgreement]) {\n            clients[toId][idFinancialSupportAgreement] = true; //register the client\n            emit FA_ClientAdded(toId);\n\n        }\n\n        emit FA_Disbursement (toId, idFinancialSupportAgreement, amount, docHash);\n\n    }\n\n    function verifyAndActForTransfer_CLIENT_PAY_SUPPLIER(address originalSender, uint fromId, bytes32 fromHash, \n            uint toId, bytes32 toHash, uint amount, bytes32 docHash, string[] memory data) internal whenNotPaused {\n    \n        string memory idFinancialSupportAgreement = data[1];\n\n        //nao verifica o sender, dado que o esse contrato nao diferencia as contas do cliente\n\n        require (clients[fromId][idFinancialSupportAgreement], \"Somente clientes em contratos cadastrados podem executar o pagamento\");\n        require (getCalculatedHash(idFinancialSupportAgreement)==fromHash, \"Erro no clculo do hash da conta do cliente\");\n        require (getCalculatedHash(RESERVED_NO_ADDITIONAL_FIELDS_TO_SUPPLIER)==toHash, \"Erro no clculo do hash da conta do fornecedor\");\n\n        require(fromId != toId,\n            \"Um CNPJ no pode transferir token para si, ainda que em papis distintos (Cliente/Fornecedor)\");\n\n        if (!suppliers[toId]) {\n            suppliers[toId] = true; //register the supplier\n            emit FA_SupplierAdded(fromId, toId);\n        }\n\n        emit FA_TokenTransfer (fromId, idFinancialSupportAgreement, toId, amount, docHash);\n\n    }\n\n\n    function verifyAndActForTransfer_BNDES_PAY_SUPPLIER(address originalSender, uint fromId, bytes32 fromHash, \n            uint toId, bytes32 toHash, uint amount, bytes32 docHash, string[] memory data) internal whenNotPaused {\n\n        require (originalSender == responsibleForDisbursement, \"Esta transao s pode ser executada pelo responsvel pelo desembolso\");\n\n        require (fromId==registry.getId(owner()), \"Somente o BNDES pode executar o pagamento\");\n        require (getCalculatedHash(RESERVED_BNDES_ADMIN_FEE_TO_HASH)==fromHash, \"Erro no clculo do hash da conta de admin do contrato especifico\");\n        require (getCalculatedHash(RESERVED_NO_ADDITIONAL_FIELDS_TO_SUPPLIER)==toHash, \"Erro no clculo do hash da conta do fornecedor\");\n\n        require(fromId != toId, \"Um BNDES no pode transferir token para si\");\n\n        emit FA_BNDES_TokenTransfer (toId, amount, docHash);\n\n    }\n\n    function addSupplier (uint id) public  {\n\n        require (msg.sender == responsibleForDisbursement, \"Esta transao s pode ser executada pelo responsvel pelo desembolso\");\n        if (!suppliers[id]) {\n            suppliers[id] = true; //register the supplier\n            emit FA_SupplierAdded(registry.getId(owner()), id);\n        }\n    }\n\n    function verifyAndActForRedeem(address originalSender, uint fromId, bytes32 fromHash, uint amount, \n        bytes32 docHash, string[] memory data) public override whenNotPaused onlyRBBToken {\n\n        //nao verifica o sender, dado que o esse contrato nao diferencia as contas do fornecedor\n\n        require (amount>0, \"Valor a ser transacionado deve ser maior do que zero.\");\n        require (suppliers[fromId], \"Somente fornecedores podem executar o pagamento\");\n        require (getCalculatedHash(RESERVED_NO_ADDITIONAL_FIELDS_TO_SUPPLIER)==fromHash, \"Erro no clculo do hash da conta do fornecedor\");\n\n        emit FA_RedemptionRequested (fromId, amount, docHash);\n\n    }\n\n    function verifyAndActForRedemptionSettlement(bytes32 redemptionTransactionHash, bytes32 docHash, \n        string[] memory data)\n        public override whenNotPaused onlyRBBToken {\n\n        emit FA_RedemptionSettlement (redemptionTransactionHash, docHash);\n    }\n\n    modifier onlyRBBToken() {\n        require (msg.sender==address(rbbToken), \"Esse mtodo s pode ser chamado pelo RBB_Token\");\n        _;\n    }\n\n    \n    function getCalculatedHash (uint info) public view returns (bytes32) {\n        return keccak256(abi.encodePacked(info));\n    }\n\n    function getCalculatedHash (string memory info) public view returns (bytes32) {\n        return keccak256(abi.encodePacked(info));\n    }\n\n    function authorizeExtraordinaryTransfer (uint fromId, bytes32 fromHash, uint toId, bytes32 toHash, \n            uint amount, bytes32 docHash) public  {\n        \n        require (resposibleForApproveExtraordinaryTransfers == msg.sender, \"Somente um responsvel pelas transferncias extraordinrias por enviar a transao\");  \n        require (hasRoleInThisContract(fromId, fromHash), \"Endereo de origem no includo como papel nesse cadastro\");\n        require (hasRoleInThisContract(toId, toHash), \"Endereo de destino no includo como papel nesse cadastro\");\n\n        bytes32 m = keccak256(abi.encodePacked(fromId, fromHash, toId, toHash, amount));\n        hashApprovedExtraordinaryTransfers.push(m);\n\n        emit FA_ExtraordinaryTransferAllowed (fromId, fromHash, toId, toHash, amount, docHash);\n\n    }\n   \n    function verifyAndActForTransfer_EXTRAORDINARY_TRANSFERS(address originalSender, uint fromId, bytes32 fromHash, \n            uint toId, bytes32 toHash, uint amount, bytes32 docHash, string[] memory data) internal whenNotPaused {\n\n        require (hasRoleInThisContract(fromId, fromHash), \"Endereo de origem no includo como papel nesse cadastro\");\n        require (hasRoleInThisContract(toId, toHash), \"Endereo de destino no includo como papel nesse cadastro\");\n\n        string memory idFinancialSupportAgreement = data[1];\n        bytes32 m = keccak256(abi.encodePacked(fromId, fromHash, toId, toHash, amount));\n\n        bool transferApproved = false;\n        uint index = 0;\n        for (; index<hashApprovedExtraordinaryTransfers.length; index++) {\n            if (hashApprovedExtraordinaryTransfers[index] == m) {\n                transferApproved = true;\n                break;\n            }\n        }\n\n        require (transferApproved, \"Interveno manual no previamente cadastrada\");\n\n        hashApprovedExtraordinaryTransfers[index] \n            = hashApprovedExtraordinaryTransfers [hashApprovedExtraordinaryTransfers.length-1];\n        hashApprovedExtraordinaryTransfers.pop();\n\n        emit FA_ExtraordinaryTransferExecuted (fromId, fromHash, toId, toHash, amount, docHash);\n\n    }\n\n    function hasRoleInThisContract (uint rbbId, bytes32 hashToAccount) private returns (bool) {\n\n        bool hasRole = false;\n        if (donors[rbbId]==true) return true;\n\n//TODO: resolver -- preciso verificar se esse id jah estah cadastrado no mapping de clients.\n//        if (clients[rbbId]!=0) return true;\n        if (suppliers[rbbId]==true) return true;\n\n        uint ownerId = registry.getId(owner());\n        if (ownerId == rbbId) return true;\n\n        uint rbbTokenOwnerId = registry.getId(rbbToken.owner());\n        if (rbbTokenOwnerId == rbbId) return true;\n\n        return false;\n    }\n\n\n    function setResponsibleForInitialAllocation(address rs) onlyOwner public {\n        uint id = registry.getId(rs);\n        require(id==registry.getId(owner()), \"O responsvel pela alocao inicial deve ser da mesmo RBB_ID do contrato\");\n        responsibleForInitialAllocation = rs;\n        emit FA_ManualIntervention_RoleOrAddress(rs, 1);\n    }\n\n    function setResponsibleForDisbursement(address rs) onlyOwner public {\n        uint id = registry.getId(rs);\n        require(id==registry.getId(owner()), \"O responsvel pelo desembolso deve ser da mesmo RBB_ID do contrato\");\n        responsibleForDisbursement = rs;\n        emit FA_ManualIntervention_RoleOrAddress(rs, 2);\n    }\n\n    function setResposibleForApproveExtraordinaryTransfers(address rs) onlyOwner public {\n        uint id = registry.getId(rs);\n        require(id==registry.getId(owner()), \"O responsvel pelo cadastramento de transferencias extraordinrias deve ser da mesmo RBB_ID do contrato\");\n        resposibleForApproveExtraordinaryTransfers = rs;\n        emit FA_ManualIntervention_RoleOrAddress(rs, 3);\n    }\n\n}",
  "sourcePath": "/Users/suzana.moreno/workspace/rbb-token/Back-Blockchain/contracts/FABndesToken.sol",
  "compiler": {
    "name": "solc",
    "version": "0.6.12+commit.27d51765.Emscripten.clang"
  },
  "schemaVersion": "3.2.5",
  "updatedAt": "2020-09-28T15:05:03.889Z",
  "devdoc": {
    "kind": "dev",
    "methods": {
      "isOwner()": {
        "details": "Returns true if the caller is the current owner."
      },
      "owner()": {
        "details": "Returns the address of the current owner."
      },
      "pause()": {
        "details": "Called by a pauser to pause, triggers stopped state."
      },
      "paused()": {
        "details": "Returns true if the contract is paused, and false otherwise."
      },
      "renounceOwnership()": {
        "details": "Leaves the contract without owner. It will not be possible to call `onlyOwner` functions anymore. Can only be called by the current owner. NOTE: Renouncing ownership will leave the contract without an owner, thereby removing any functionality that is only available to the owner."
      },
      "transferOwnership(address)": {
        "details": "Transfers ownership of the contract to a new account (`newOwner`). Can only be called by the current owner."
      },
      "unpause()": {
        "details": "Called by a pauser to unpause, returns to normal state."
      }
    },
    "version": 1
  },
  "userdoc": {
    "kind": "user",
    "methods": {},
    "version": 1
  }
}