{
  "contractName": "FABndesToken",
  "abi": [
    {
      "inputs": [
        {
          "internalType": "address",
          "name": "newrbbTokenAddr",
          "type": "address"
        },
        {
          "internalType": "address",
          "name": "addrBndesRoles",
          "type": "address"
        },
        {
          "internalType": "uint256",
          "name": "fee",
          "type": "uint256"
        }
      ],
      "stateMutability": "nonpayable",
      "type": "constructor"
    },
    {
      "anonymous": false,
      "inputs": [
        {
          "indexed": false,
          "internalType": "uint256",
          "name": "toCnpj",
          "type": "uint256"
        },
        {
          "indexed": false,
          "internalType": "uint256",
          "name": "amount",
          "type": "uint256"
        },
        {
          "indexed": false,
          "internalType": "bytes32",
          "name": "docHash",
          "type": "bytes32"
        }
      ],
      "name": "FA_BNDES_TokenTransfer",
      "type": "event"
    },
    {
      "anonymous": false,
      "inputs": [
        {
          "indexed": false,
          "internalType": "uint256",
          "name": "id",
          "type": "uint256"
        }
      ],
      "name": "FA_ClientAdded",
      "type": "event"
    },
    {
      "anonymous": false,
      "inputs": [
        {
          "indexed": false,
          "internalType": "uint256",
          "name": "idClient",
          "type": "uint256"
        },
        {
          "indexed": false,
          "internalType": "string",
          "name": "idFinancialSupportAgreement",
          "type": "string"
        },
        {
          "indexed": false,
          "internalType": "uint256",
          "name": "amount",
          "type": "uint256"
        },
        {
          "indexed": false,
          "internalType": "bytes32",
          "name": "docHash",
          "type": "bytes32"
        }
      ],
      "name": "FA_Disbursement",
      "type": "event"
    },
    {
      "anonymous": false,
      "inputs": [
        {
          "indexed": false,
          "internalType": "uint256",
          "name": "idDonor",
          "type": "uint256"
        },
        {
          "indexed": false,
          "internalType": "uint256",
          "name": "amount",
          "type": "uint256"
        },
        {
          "indexed": false,
          "internalType": "bytes32",
          "name": "docHash",
          "type": "bytes32"
        }
      ],
      "name": "FA_DonationBooked",
      "type": "event"
    },
    {
      "anonymous": false,
      "inputs": [
        {
          "indexed": false,
          "internalType": "uint256",
          "name": "idDonor",
          "type": "uint256"
        },
        {
          "indexed": false,
          "internalType": "uint256",
          "name": "amount",
          "type": "uint256"
        },
        {
          "indexed": false,
          "internalType": "bytes32",
          "name": "docHash",
          "type": "bytes32"
        }
      ],
      "name": "FA_DonationConfirmed",
      "type": "event"
    },
    {
      "anonymous": false,
      "inputs": [
        {
          "indexed": false,
          "internalType": "uint256",
          "name": "id",
          "type": "uint256"
        }
      ],
      "name": "FA_DonorAdded",
      "type": "event"
    },
    {
      "anonymous": false,
      "inputs": [
        {
          "indexed": false,
          "internalType": "uint256",
          "name": "fromId",
          "type": "uint256"
        },
        {
          "indexed": false,
          "internalType": "bytes32",
          "name": "fromHash",
          "type": "bytes32"
        },
        {
          "indexed": false,
          "internalType": "uint256",
          "name": "toId",
          "type": "uint256"
        },
        {
          "indexed": false,
          "internalType": "bytes32",
          "name": "toHash",
          "type": "bytes32"
        },
        {
          "indexed": false,
          "internalType": "uint256",
          "name": "amount",
          "type": "uint256"
        },
        {
          "indexed": false,
          "internalType": "bytes32",
          "name": "docHash",
          "type": "bytes32"
        }
      ],
      "name": "FA_ExtraordinaryTransferAllowed",
      "type": "event"
    },
    {
      "anonymous": false,
      "inputs": [
        {
          "indexed": false,
          "internalType": "uint256",
          "name": "fromId",
          "type": "uint256"
        },
        {
          "indexed": false,
          "internalType": "bytes32",
          "name": "fromHash",
          "type": "bytes32"
        },
        {
          "indexed": false,
          "internalType": "uint256",
          "name": "toId",
          "type": "uint256"
        },
        {
          "indexed": false,
          "internalType": "bytes32",
          "name": "toHash",
          "type": "bytes32"
        },
        {
          "indexed": false,
          "internalType": "uint256",
          "name": "amount",
          "type": "uint256"
        },
        {
          "indexed": false,
          "internalType": "bytes32",
          "name": "docHash",
          "type": "bytes32"
        }
      ],
      "name": "FA_ExtraordinaryTransferExecuted",
      "type": "event"
    },
    {
      "anonymous": false,
      "inputs": [
        {
          "indexed": false,
          "internalType": "uint256",
          "name": "amount",
          "type": "uint256"
        },
        {
          "indexed": false,
          "internalType": "bytes32",
          "name": "docHash",
          "type": "bytes32"
        }
      ],
      "name": "FA_InitialAllocation_Disbursements",
      "type": "event"
    },
    {
      "anonymous": false,
      "inputs": [
        {
          "indexed": false,
          "internalType": "uint256",
          "name": "amount",
          "type": "uint256"
        },
        {
          "indexed": false,
          "internalType": "bytes32",
          "name": "docHash",
          "type": "bytes32"
        }
      ],
      "name": "FA_InitialAllocation_Fee",
      "type": "event"
    },
    {
      "anonymous": false,
      "inputs": [
        {
          "indexed": false,
          "internalType": "uint256",
          "name": "percent",
          "type": "uint256"
        },
        {
          "indexed": false,
          "internalType": "bytes32",
          "name": "docHash",
          "type": "bytes32"
        }
      ],
      "name": "FA_ManualIntervention_Fee",
      "type": "event"
    },
    {
      "anonymous": false,
      "inputs": [
        {
          "indexed": false,
          "internalType": "uint256",
          "name": "idClaimer",
          "type": "uint256"
        },
        {
          "indexed": false,
          "internalType": "uint256",
          "name": "amount",
          "type": "uint256"
        },
        {
          "indexed": false,
          "internalType": "bytes32",
          "name": "docHash",
          "type": "bytes32"
        }
      ],
      "name": "FA_RedemptionRequested",
      "type": "event"
    },
    {
      "anonymous": false,
      "inputs": [
        {
          "indexed": false,
          "internalType": "bytes32",
          "name": "redemptionTransactionHash",
          "type": "bytes32"
        },
        {
          "indexed": false,
          "internalType": "bytes32",
          "name": "docHash",
          "type": "bytes32"
        }
      ],
      "name": "FA_RedemptionSettlement",
      "type": "event"
    },
    {
      "anonymous": false,
      "inputs": [
        {
          "indexed": false,
          "internalType": "uint256",
          "name": "registeredBy",
          "type": "uint256"
        },
        {
          "indexed": false,
          "internalType": "uint256",
          "name": "id",
          "type": "uint256"
        }
      ],
      "name": "FA_SupplierAdded",
      "type": "event"
    },
    {
      "anonymous": false,
      "inputs": [
        {
          "indexed": false,
          "internalType": "uint256",
          "name": "fromCnpj",
          "type": "uint256"
        },
        {
          "indexed": false,
          "internalType": "string",
          "name": "fromIdFinancialSupportAgreement",
          "type": "string"
        },
        {
          "indexed": false,
          "internalType": "uint256",
          "name": "toCnpj",
          "type": "uint256"
        },
        {
          "indexed": false,
          "internalType": "uint256",
          "name": "amount",
          "type": "uint256"
        },
        {
          "indexed": false,
          "internalType": "bytes32",
          "name": "docHash",
          "type": "bytes32"
        }
      ],
      "name": "FA_TokenTransfer",
      "type": "event"
    },
    {
      "anonymous": false,
      "inputs": [
        {
          "indexed": true,
          "internalType": "address",
          "name": "previousOwner",
          "type": "address"
        },
        {
          "indexed": true,
          "internalType": "address",
          "name": "newOwner",
          "type": "address"
        }
      ],
      "name": "OwnershipTransferred",
      "type": "event"
    },
    {
      "anonymous": false,
      "inputs": [
        {
          "indexed": false,
          "internalType": "address",
          "name": "account",
          "type": "address"
        }
      ],
      "name": "Paused",
      "type": "event"
    },
    {
      "anonymous": false,
      "inputs": [
        {
          "indexed": true,
          "internalType": "address",
          "name": "account",
          "type": "address"
        }
      ],
      "name": "PauserAdded",
      "type": "event"
    },
    {
      "anonymous": false,
      "inputs": [
        {
          "indexed": true,
          "internalType": "address",
          "name": "account",
          "type": "address"
        }
      ],
      "name": "PauserRemoved",
      "type": "event"
    },
    {
      "anonymous": false,
      "inputs": [
        {
          "indexed": false,
          "internalType": "address",
          "name": "account",
          "type": "address"
        }
      ],
      "name": "Unpaused",
      "type": "event"
    },
    {
      "inputs": [],
      "name": "BNDES_PAY_SUPPLIER_VERIFICATION",
      "outputs": [
        {
          "internalType": "string",
          "name": "",
          "type": "string"
        }
      ],
      "stateMutability": "view",
      "type": "function",
      "constant": true
    },
    {
      "inputs": [],
      "name": "CLIENT_PAY_SUPPLIER_VERIFICATION",
      "outputs": [
        {
          "internalType": "string",
          "name": "",
          "type": "string"
        }
      ],
      "stateMutability": "view",
      "type": "function",
      "constant": true
    },
    {
      "inputs": [],
      "name": "DISBURSEMENT_VERIFICATION",
      "outputs": [
        {
          "internalType": "string",
          "name": "",
          "type": "string"
        }
      ],
      "stateMutability": "view",
      "type": "function",
      "constant": true
    },
    {
      "inputs": [],
      "name": "EXTRAORDINARY_TRANSFERS",
      "outputs": [
        {
          "internalType": "string",
          "name": "",
          "type": "string"
        }
      ],
      "stateMutability": "view",
      "type": "function",
      "constant": true
    },
    {
      "inputs": [],
      "name": "INITIAL_ALLOCATION",
      "outputs": [
        {
          "internalType": "string",
          "name": "",
          "type": "string"
        }
      ],
      "stateMutability": "view",
      "type": "function",
      "constant": true
    },
    {
      "inputs": [],
      "name": "RESERVED_BNDES_ADMIN_FEE_TO_HASH",
      "outputs": [
        {
          "internalType": "uint8",
          "name": "",
          "type": "uint8"
        }
      ],
      "stateMutability": "view",
      "type": "function",
      "constant": true
    },
    {
      "inputs": [],
      "name": "RESERVED_MINTED_ACCOUNT",
      "outputs": [
        {
          "internalType": "uint8",
          "name": "",
          "type": "uint8"
        }
      ],
      "stateMutability": "view",
      "type": "function",
      "constant": true
    },
    {
      "inputs": [],
      "name": "RESERVED_NO_ADDITIONAL_FIELDS_TO_DIFF_MONEY",
      "outputs": [
        {
          "internalType": "uint8",
          "name": "",
          "type": "uint8"
        }
      ],
      "stateMutability": "view",
      "type": "function",
      "constant": true
    },
    {
      "inputs": [],
      "name": "RESERVED_NO_ADDITIONAL_FIELDS_TO_DONOR",
      "outputs": [
        {
          "internalType": "uint8",
          "name": "",
          "type": "uint8"
        }
      ],
      "stateMutability": "view",
      "type": "function",
      "constant": true
    },
    {
      "inputs": [],
      "name": "RESERVED_NO_ADDITIONAL_FIELDS_TO_SUPPLIER",
      "outputs": [
        {
          "internalType": "uint8",
          "name": "",
          "type": "uint8"
        }
      ],
      "stateMutability": "view",
      "type": "function",
      "constant": true
    },
    {
      "inputs": [],
      "name": "RESERVED_USUAL_DISBURSEMENTS_ACCOUNT",
      "outputs": [
        {
          "internalType": "uint8",
          "name": "",
          "type": "uint8"
        }
      ],
      "stateMutability": "view",
      "type": "function",
      "constant": true
    },
    {
      "inputs": [
        {
          "internalType": "address",
          "name": "account",
          "type": "address"
        }
      ],
      "name": "addPauser",
      "outputs": [],
      "stateMutability": "nonpayable",
      "type": "function"
    },
    {
      "inputs": [],
      "name": "bndesFee",
      "outputs": [
        {
          "internalType": "uint256",
          "name": "",
          "type": "uint256"
        }
      ],
      "stateMutability": "view",
      "type": "function",
      "constant": true
    },
    {
      "inputs": [],
      "name": "bndesRoles",
      "outputs": [
        {
          "internalType": "contract FABndesToken_BNDESRoles",
          "name": "",
          "type": "address"
        }
      ],
      "stateMutability": "view",
      "type": "function",
      "constant": true
    },
    {
      "inputs": [
        {
          "internalType": "uint256",
          "name": "",
          "type": "uint256"
        },
        {
          "internalType": "string",
          "name": "",
          "type": "string"
        }
      ],
      "name": "clients",
      "outputs": [
        {
          "internalType": "bool",
          "name": "",
          "type": "bool"
        }
      ],
      "stateMutability": "view",
      "type": "function",
      "constant": true
    },
    {
      "inputs": [
        {
          "internalType": "uint256",
          "name": "",
          "type": "uint256"
        }
      ],
      "name": "donors",
      "outputs": [
        {
          "internalType": "bool",
          "name": "",
          "type": "bool"
        }
      ],
      "stateMutability": "view",
      "type": "function",
      "constant": true
    },
    {
      "inputs": [
        {
          "internalType": "uint256",
          "name": "",
          "type": "uint256"
        }
      ],
      "name": "hashApprovedExtraordinaryTransfers",
      "outputs": [
        {
          "internalType": "bytes32",
          "name": "",
          "type": "bytes32"
        }
      ],
      "stateMutability": "view",
      "type": "function",
      "constant": true
    },
    {
      "inputs": [],
      "name": "isOwner",
      "outputs": [
        {
          "internalType": "bool",
          "name": "",
          "type": "bool"
        }
      ],
      "stateMutability": "view",
      "type": "function",
      "constant": true
    },
    {
      "inputs": [
        {
          "internalType": "address",
          "name": "account",
          "type": "address"
        }
      ],
      "name": "isPauser",
      "outputs": [
        {
          "internalType": "bool",
          "name": "",
          "type": "bool"
        }
      ],
      "stateMutability": "view",
      "type": "function",
      "constant": true
    },
    {
      "inputs": [],
      "name": "owner",
      "outputs": [
        {
          "internalType": "address",
          "name": "",
          "type": "address"
        }
      ],
      "stateMutability": "view",
      "type": "function",
      "constant": true
    },
    {
      "inputs": [],
      "name": "pause",
      "outputs": [],
      "stateMutability": "nonpayable",
      "type": "function"
    },
    {
      "inputs": [],
      "name": "paused",
      "outputs": [
        {
          "internalType": "bool",
          "name": "",
          "type": "bool"
        }
      ],
      "stateMutability": "view",
      "type": "function",
      "constant": true
    },
    {
      "inputs": [],
      "name": "rbbToken",
      "outputs": [
        {
          "internalType": "contract RBBToken",
          "name": "",
          "type": "address"
        }
      ],
      "stateMutability": "view",
      "type": "function",
      "constant": true
    },
    {
      "inputs": [],
      "name": "registry",
      "outputs": [
        {
          "internalType": "contract RBBRegistry",
          "name": "",
          "type": "address"
        }
      ],
      "stateMutability": "view",
      "type": "function",
      "constant": true
    },
    {
      "inputs": [],
      "name": "renounceOwnership",
      "outputs": [],
      "stateMutability": "nonpayable",
      "type": "function"
    },
    {
      "inputs": [],
      "name": "renouncePauser",
      "outputs": [],
      "stateMutability": "nonpayable",
      "type": "function"
    },
    {
      "inputs": [
        {
          "internalType": "address",
          "name": "newRegistryAddr",
          "type": "address"
        }
      ],
      "name": "setInitializationDataDuringRegistration",
      "outputs": [],
      "stateMutability": "nonpayable",
      "type": "function"
    },
    {
      "inputs": [
        {
          "internalType": "uint256",
          "name": "",
          "type": "uint256"
        }
      ],
      "name": "suppliers",
      "outputs": [
        {
          "internalType": "bool",
          "name": "",
          "type": "bool"
        }
      ],
      "stateMutability": "view",
      "type": "function",
      "constant": true
    },
    {
      "inputs": [
        {
          "internalType": "address",
          "name": "newOwner",
          "type": "address"
        }
      ],
      "name": "transferOwnership",
      "outputs": [],
      "stateMutability": "nonpayable",
      "type": "function"
    },
    {
      "inputs": [],
      "name": "unpause",
      "outputs": [],
      "stateMutability": "nonpayable",
      "type": "function"
    },
    {
      "inputs": [
        {
          "internalType": "uint256",
          "name": "newBndesFee",
          "type": "uint256"
        },
        {
          "internalType": "bytes32",
          "name": "docHash",
          "type": "bytes32"
        }
      ],
      "name": "setBNDESFee",
      "outputs": [],
      "stateMutability": "nonpayable",
      "type": "function"
    },
    {
      "inputs": [
        {
          "internalType": "uint256",
          "name": "amount",
          "type": "uint256"
        },
        {
          "internalType": "bytes32",
          "name": "docHash",
          "type": "bytes32"
        }
      ],
      "name": "bookDonation",
      "outputs": [],
      "stateMutability": "nonpayable",
      "type": "function"
    },
    {
      "inputs": [
        {
          "internalType": "bytes32",
          "name": "specificHash",
          "type": "bytes32"
        },
        {
          "internalType": "uint256",
          "name": "amount",
          "type": "uint256"
        },
        {
          "internalType": "bytes32",
          "name": "docHash",
          "type": "bytes32"
        },
        {
          "internalType": "string[]",
          "name": "data",
          "type": "string[]"
        }
      ],
      "name": "verifyAndActForMint",
      "outputs": [],
      "stateMutability": "nonpayable",
      "type": "function"
    },
    {
      "inputs": [
        {
          "internalType": "bytes32",
          "name": "specificHash",
          "type": "bytes32"
        }
      ],
      "name": "getHashToMintedAccount",
      "outputs": [
        {
          "internalType": "bytes32",
          "name": "",
          "type": "bytes32"
        }
      ],
      "stateMutability": "nonpayable",
      "type": "function"
    },
    {
      "inputs": [
        {
          "internalType": "address",
          "name": "originalSender",
          "type": "address"
        },
        {
          "internalType": "uint256",
          "name": "fromId",
          "type": "uint256"
        },
        {
          "internalType": "bytes32",
          "name": "fromHash",
          "type": "bytes32"
        },
        {
          "internalType": "uint256",
          "name": "toId",
          "type": "uint256"
        },
        {
          "internalType": "bytes32",
          "name": "toHash",
          "type": "bytes32"
        },
        {
          "internalType": "uint256",
          "name": "amount",
          "type": "uint256"
        },
        {
          "internalType": "bytes32",
          "name": "docHash",
          "type": "bytes32"
        },
        {
          "internalType": "string[]",
          "name": "data",
          "type": "string[]"
        }
      ],
      "name": "verifyAndActForTransfer",
      "outputs": [],
      "stateMutability": "nonpayable",
      "type": "function"
    },
    {
      "inputs": [
        {
          "internalType": "address",
          "name": "originalSender",
          "type": "address"
        },
        {
          "internalType": "uint256",
          "name": "fromId",
          "type": "uint256"
        },
        {
          "internalType": "bytes32",
          "name": "fromHash",
          "type": "bytes32"
        },
        {
          "internalType": "uint256",
          "name": "amount",
          "type": "uint256"
        },
        {
          "internalType": "bytes32",
          "name": "docHash",
          "type": "bytes32"
        },
        {
          "internalType": "string[]",
          "name": "data",
          "type": "string[]"
        }
      ],
      "name": "verifyAndActForRedeem",
      "outputs": [],
      "stateMutability": "nonpayable",
      "type": "function"
    },
    {
      "inputs": [
        {
          "internalType": "bytes32",
          "name": "redemptionTransactionHash",
          "type": "bytes32"
        },
        {
          "internalType": "bytes32",
          "name": "docHash",
          "type": "bytes32"
        },
        {
          "internalType": "string[]",
          "name": "data",
          "type": "string[]"
        }
      ],
      "name": "verifyAndActForRedemptionSettlement",
      "outputs": [],
      "stateMutability": "nonpayable",
      "type": "function"
    },
    {
      "inputs": [
        {
          "internalType": "uint256",
          "name": "info",
          "type": "uint256"
        }
      ],
      "name": "getCalculatedHash",
      "outputs": [
        {
          "internalType": "bytes32",
          "name": "",
          "type": "bytes32"
        }
      ],
      "stateMutability": "view",
      "type": "function",
      "constant": true
    },
    {
      "inputs": [
        {
          "internalType": "string",
          "name": "info",
          "type": "string"
        }
      ],
      "name": "getCalculatedHash",
      "outputs": [
        {
          "internalType": "bytes32",
          "name": "",
          "type": "bytes32"
        }
      ],
      "stateMutability": "view",
      "type": "function",
      "constant": true
    },
    {
      "inputs": [
        {
          "internalType": "uint256",
          "name": "fromId",
          "type": "uint256"
        },
        {
          "internalType": "bytes32",
          "name": "fromHash",
          "type": "bytes32"
        },
        {
          "internalType": "uint256",
          "name": "toId",
          "type": "uint256"
        },
        {
          "internalType": "bytes32",
          "name": "toHash",
          "type": "bytes32"
        },
        {
          "internalType": "uint256",
          "name": "amount",
          "type": "uint256"
        },
        {
          "internalType": "bytes32",
          "name": "docHash",
          "type": "bytes32"
        }
      ],
      "name": "authorizeExtraordinaryTransfer",
      "outputs": [],
      "stateMutability": "nonpayable",
      "type": "function"
    },
    {
      "inputs": [
        {
          "internalType": "uint256",
          "name": "idDonor",
          "type": "uint256"
        }
      ],
      "name": "addDonor",
      "outputs": [],
      "stateMutability": "nonpayable",
      "type": "function"
    },
    {
      "inputs": [
        {
          "internalType": "uint256",
          "name": "id",
          "type": "uint256"
        }
      ],
      "name": "addSupplier",
      "outputs": [],
      "stateMutability": "nonpayable",
      "type": "function"
    }
  ],
  "bytecode": "0x60806040526040518060400160405280601281526020017f494e495449414c5f414c4c4f434154494f4e0000000000000000000000000000815250600a9080519060200190620000519291906200060f565b506040518060400160405280601981526020017f44495342555253454d454e545f564552494649434154494f4e00000000000000815250600b90805190602001906200009f9291906200060f565b506040518060400160405280602081526020017f434c49454e545f5041595f535550504c4945525f564552494649434154494f4e815250600c9080519060200190620000ed9291906200060f565b506040518060400160405280601f81526020017f424e4445535f5041595f535550504c4945525f564552494649434154494f4e00815250600d90805190602001906200013b9291906200060f565b506040518060400160405280601781526020017f45585452414f5244494e4152595f5452414e5346455253000000000000000000815250600e9080519060200190620001899291906200060f565b506000600f60006101000a81548160ff021916908360ff1602179055506001600f60016101000a81548160ff021916908360ff1602179055506002600f60026101000a81548160ff021916908360ff160217905550600a600f60036101000a81548160ff021916908360ff1602179055506014600f60046101000a81548160ff021916908360ff160217905550601e600f60056101000a81548160ff021916908360ff1602179055503480156200023f57600080fd5b506040516200685e3803806200685e8339818101604052810190620002659190620006e3565b6000620002776200042860201b60201c565b9050806000806101000a81548173ffffffffffffffffffffffffffffffffffffffff021916908373ffffffffffffffffffffffffffffffffffffffff1602179055508073ffffffffffffffffffffffffffffffffffffffff16600073ffffffffffffffffffffffffffffffffffffffff167f8be0079c531659141344cd1fd0a4f28419497f9722a3daafe3b4186f6b6457e060405160405180910390a35062000335620003296200042860201b60201c565b6200043060201b60201c565b6000600260006101000a81548160ff0219169083151502179055506064811062000396576040517f08c379a00000000000000000000000000000000000000000000000000000000081526004016200038d9062000825565b60405180910390fd5b82600360006101000a81548173ffffffffffffffffffffffffffffffffffffffff021916908373ffffffffffffffffffffffffffffffffffffffff16021790555081600460006101000a81548173ffffffffffffffffffffffffffffffffffffffff021916908373ffffffffffffffffffffffffffffffffffffffff160217905550806009819055505050506200090e565b600033905090565b6200044b8160016200049160201b620026341790919060201c565b8073ffffffffffffffffffffffffffffffffffffffff167f6719d08c1888103bea251a4ed56406bd0c3e69723c8a1686e017e7bbe159b6f860405160405180910390a250565b620004a382826200054460201b60201c565b15620004e6576040517f08c379a0000000000000000000000000000000000000000000000000000000008152600401620004dd9062000847565b60405180910390fd5b60018260000160008373ffffffffffffffffffffffffffffffffffffffff1673ffffffffffffffffffffffffffffffffffffffff16815260200190815260200160002060006101000a81548160ff0219169083151502179055505050565b60008073ffffffffffffffffffffffffffffffffffffffff168273ffffffffffffffffffffffffffffffffffffffff161415620005b8576040517f08c379a0000000000000000000000000000000000000000000000000000000008152600401620005af9062000869565b60405180910390fd5b8260000160008373ffffffffffffffffffffffffffffffffffffffff1673ffffffffffffffffffffffffffffffffffffffff16815260200190815260200160002060009054906101000a900460ff16905092915050565b828054600181600116156101000203166002900490600052602060002090601f016020900481019282601f106200065257805160ff191683800117855562000683565b8280016001018555821562000683579182015b828111156200068257825182559160200191906001019062000665565b5b50905062000692919062000696565b5090565b5b80821115620006b157600081600090555060010162000697565b5090565b600081519050620006c681620008da565b92915050565b600081519050620006dd81620008f4565b92915050565b600080600060608486031215620006f957600080fd5b60006200070986828701620006b5565b93505060206200071c86828701620006b5565b92505060406200072f86828701620006cc565b9150509250925092565b600062000748601b836200088b565b91507f56616c6f7220646520466565206d61696f7220717565203130302500000000006000830152602082019050919050565b60006200078a601f836200088b565b91507f526f6c65733a206163636f756e7420616c72656164792068617320726f6c65006000830152602082019050919050565b6000620007cc6022836200088b565b91507f526f6c65733a206163636f756e7420697320746865207a65726f20616464726560008301527f73730000000000000000000000000000000000000000000000000000000000006020830152604082019050919050565b60006020820190508181036000830152620008408162000739565b9050919050565b6000602082019050818103600083015262000862816200077b565b9050919050565b600060208201905081810360008301526200088481620007bd565b9050919050565b600082825260208201905092915050565b6000620008a982620008b0565b9050919050565b600073ffffffffffffffffffffffffffffffffffffffff82169050919050565b6000819050919050565b620008e5816200089c565b8114620008f157600080fd5b50565b620008ff81620008d0565b81146200090b57600080fd5b50565b615f40806200091e6000396000f3fe608060405234801561001057600080fd5b506004361061025e5760003560e01c80638da5cb5b11610146578063cd541b7a116100c3578063df8d2abf11610087578063df8d2abf146106b5578063e4c7426f146106d3578063f0ad17db146106f1578063f2fde38b1461070d578063fa7ca7ea14610729578063fc4b505d146107595761025e565b8063cd541b7a146105ed578063cea231211461061d578063d91be4c21461064d578063daeb1cc914610669578063dafc3fad146106995761025e565b8063ad641da61161010a578063ad641da614610549578063b201a77714610567578063ba6ad85314610585578063ca196e3c146105a1578063cc70091a146105bd5761025e565b80638da5cb5b146104a35780638e669481146104c15780638f32d59b146104df578063942429e4146104fd578063a6ee26e11461052d5761025e565b80635b50875a116101df5780636f305067116101a35780636f30506714610419578063715018a6146104375780637b1039991461044157806382dc1ec41461045f5780638404e6e01461047b5780638456cb59146104995761025e565b80635b50875a146103995780635c975abb146103b75780635f23e09e146103d557806367da3e85146103f15780636ef8d66d1461040f5761025e565b806341574b3b1161022657806341574b3b146102e357806346fbf68e146102ff5780634abfa1631461032f57806355a2456e1461035f5780635a961b151461037b5761025e565b80630715aa6e1461026357806307728f0f1461028157806317251ba91461029f57806324547b8a146102bb5780633f4ba83a146102d9575b600080fd5b61026b610777565b6040516102789190615c5d565b60405180910390f35b61028961078a565b60405161029691906155f9565b60405180910390f35b6102b960048036038101906102b49190614219565b610828565b005b6102c36109e5565b6040516102d09190615c5d565b60405180910390f35b6102e16109f8565b005b6102fd60048036038101906102f89190613fda565b610af1565b005b61031960048036038101906103149190613ee7565b610fb2565b60405161032691906154e2565b60405180910390f35b61034960048036038101906103449190614219565b610fcf565b60405161035691906154e2565b60405180910390f35b61037960048036038101906103749190613ee7565b610fef565b005b610383611033565b60405161039091906155f9565b60405180910390f35b6103a16110d1565b6040516103ae9190615c5d565b60405180910390f35b6103bf6110e4565b6040516103cc91906154e2565b60405180910390f35b6103ef60048036038101906103ea91906142a7565b6110fb565b005b6103f9611340565b60405161040691906155f9565b60405180910390f35b6104176113de565b005b6104216113f0565b60405161042e9190615c5d565b60405180910390f35b61043f611403565b005b610449611508565b60405161045691906155a1565b60405180910390f35b61047960048036038101906104749190613ee7565b61152e565b005b610483611589565b6040516104909190615c5d565b60405180910390f35b6104a161159c565b005b6104ab611696565b6040516104b891906154ac565b60405180910390f35b6104c96116bf565b6040516104d691906155f9565b60405180910390f35b6104e761175d565b6040516104f491906154e2565b60405180910390f35b61051760048036038101906105129190614219565b6117bb565b60405161052491906154fd565b60405180910390f35b610547600480360381019061054291906140f6565b6117eb565b005b610551611909565b60405161055e9190615ab2565b60405180910390f35b61056f61190f565b60405161057c9190615c5d565b60405180910390f35b61059f600480360381019061059a9190613f39565b611922565b005b6105bb60048036038101906105b69190614219565b611b44565b005b6105d760048036038101906105d291906141d8565b611d90565b6040516105e491906154fd565b60405180910390f35b610607600480360381019061060291906140cd565b611dc0565b60405161061491906154fd565b60405180910390f35b61063760048036038101906106329190614219565b611de4565b60405161064491906154e2565b60405180910390f35b6106676004803603810190610662919061426b565b611e04565b005b610683600480360381019061067e9190614330565b612140565b60405161069091906154e2565b60405180910390f35b6106b360048036038101906106ae919061426b565b612185565b005b6106bd612253565b6040516106ca9190615586565b60405180910390f35b6106db612279565b6040516106e891906155bc565b60405180910390f35b61070b6004803603810190610706919061415d565b61229f565b005b61072760048036038101906107229190613ee7565b612522565b005b610743600480360381019061073e9190614219565b612575565b60405161075091906154fd565b60405180910390f35b610761612596565b60405161076e91906155f9565b60405180910390f35b600f60009054906101000a900460ff1681565b600a8054600181600116156101000203166002900480601f0160208091040260200160405190810160405280929190818152602001828054600181600116156101000203166002900480156108205780601f106107f557610100808354040283529160200191610820565b820191906000526020600020905b81548152906001019060200180831161080357829003601f168201915b505050505081565b61083061175d565b61086f576040517f08c379a000000000000000000000000000000000000000000000000000000000815260040161086690615932565b60405180910390fd5b600260019054906101000a900473ffffffffffffffffffffffffffffffffffffffff1673ffffffffffffffffffffffffffffffffffffffff1663613a7896826040518263ffffffff1660e01b81526004016108ca9190615ab2565b60206040518083038186803b1580156108e257600080fd5b505afa1580156108f6573d6000803e3d6000fd5b505050506040513d601f19601f8201168201806040525081019061091a91906140a4565b610959576040517f08c379a000000000000000000000000000000000000000000000000000000000815260040161095090615872565b60405180910390fd5b6005600082815260200190815260200160002060009054906101000a900460ff166109e25760016005600083815260200190815260200160002060006101000a81548160ff0219169083151502179055507fbf594816977ea5809bf299bfeeb10d2cb41e25a998a19fafe5460164b3cdb08b816040516109d99190615ab2565b60405180910390a15b50565b600f60019054906101000a900460ff1681565b610a08610a036126dc565b610fb2565b610a47576040517f08c379a0000000000000000000000000000000000000000000000000000000008152600401610a3e906156f2565b60405180910390fd5b600260009054906101000a900460ff16610a96576040517f08c379a0000000000000000000000000000000000000000000000000000000008152600401610a8d90615672565b60405180910390fd5b6000600260006101000a81548160ff0219169083151502179055507f5db9ee0a495bf2e6ff9c91a7834c1ba4fdd244a5e8aa4e537bd38aeae4b073aa610ada6126dc565b604051610ae791906154c7565b60405180910390a1565b600260009054906101000a900460ff1615610b41576040517f08c379a0000000000000000000000000000000000000000000000000000000008152600401610b3890615832565b60405180910390fd5b600360009054906101000a900473ffffffffffffffffffffffffffffffffffffffff1673ffffffffffffffffffffffffffffffffffffffff163373ffffffffffffffffffffffffffffffffffffffff1614610bd1576040517f08c379a0000000000000000000000000000000000000000000000000000000008152600401610bc890615a72565b60405180910390fd5b606081600081518110610be057fe5b6020026020010151905060008411610c2d576040517f08c379a0000000000000000000000000000000000000000000000000000000008152600401610c24906157f2565b60405180910390fd5b73__RBBLib________________________________63465c4105600a836040518363ffffffff1660e01b8152600401610c6792919061561b565b60206040518083038186803b158015610c7f57600080fd5b505af4158015610c93573d6000803e3d6000fd5b505050506040513d601f19601f82011682018060405250810190610cb791906140a4565b15610cd157610ccc89898989898989896126e4565b610fa7565b73__RBBLib________________________________63465c4105600b836040518363ffffffff1660e01b8152600401610d0b92919061561b565b60206040518083038186803b158015610d2357600080fd5b505af4158015610d37573d6000803e3d6000fd5b505050506040513d601f19601f82011682018060405250810190610d5b91906140a4565b15610d7557610d708989898989898989612ae5565b610fa6565b73__RBBLib________________________________63465c4105600c836040518363ffffffff1660e01b8152600401610daf92919061561b565b60206040518083038186803b158015610dc757600080fd5b505af4158015610ddb573d6000803e3d6000fd5b505050506040513d601f19601f82011682018060405250810190610dff91906140a4565b15610e1957610e148989898989898989612e4c565b610fa5565b73__RBBLib________________________________63465c4105600d836040518363ffffffff1660e01b8152600401610e5392919061561b565b60206040518083038186803b158015610e6b57600080fd5b505af4158015610e7f573d6000803e3d6000fd5b505050506040513d601f19601f82011682018060405250810190610ea391906140a4565b15610ebd57610eb889898989898989896130ef565b610fa4565b73__RBBLib________________________________63465c4105600e836040518363ffffffff1660e01b8152600401610ef792919061561b565b60206040518083038186803b158015610f0f57600080fd5b505af4158015610f23573d6000803e3d6000fd5b505050506040513d601f19601f82011682018060405250810190610f4791906140a4565b15610f6157610f5c898989898989898961347f565b610fa3565b6000610fa2576040517f08c379a0000000000000000000000000000000000000000000000000000000008152600401610f9990615972565b60405180910390fd5b5b5b5b5b5b505050505050505050565b6000610fc88260016136de90919063ffffffff16565b9050919050565b60056020528060005260406000206000915054906101000a900460ff1681565b80600260016101000a81548173ffffffffffffffffffffffffffffffffffffffff021916908373ffffffffffffffffffffffffffffffffffffffff16021790555050565b600e8054600181600116156101000203166002900480601f0160208091040260200160405190810160405280929190818152602001828054600181600116156101000203166002900480156110c95780601f1061109e576101008083540402835291602001916110c9565b820191906000526020600020905b8154815290600101906020018083116110ac57829003601f168201915b505050505081565b600f60039054906101000a900460ff1681565b6000600260009054906101000a900460ff16905090565b3373ffffffffffffffffffffffffffffffffffffffff16600460009054906101000a900473ffffffffffffffffffffffffffffffffffffffff1673ffffffffffffffffffffffffffffffffffffffff16630b2e8fe96040518163ffffffff1660e01b815260040160206040518083038186803b15801561117a57600080fd5b505afa15801561118e573d6000803e3d6000fd5b505050506040513d601f19601f820116820180604052508101906111b29190613f10565b73ffffffffffffffffffffffffffffffffffffffff1614611208576040517f08c379a00000000000000000000000000000000000000000000000000000000081526004016111ff906157b2565b60405180910390fd5b61121286866137a6565b611251576040517f08c379a000000000000000000000000000000000000000000000000000000000815260040161124890615892565b60405180910390fd5b61125b84846137a6565b61129a576040517f08c379a0000000000000000000000000000000000000000000000000000000008152600401611291906156b2565b60405180910390fd5b600086868686866040516020016112b595949392919061544d565b60405160208183030381529060405280519060200120905060088190806001815401808255809150506001900390600052602060002001600090919091909150557f8fbc7818210c8d0cab55b36028efc60a3f6e71aa8ad8a2abb88cd9ba5f81673587878787878760405161132f96959493929190615af6565b60405180910390a150505050505050565b600c8054600181600116156101000203166002900480601f0160208091040260200160405190810160405280929190818152602001828054600181600116156101000203166002900480156113d65780601f106113ab576101008083540402835291602001916113d6565b820191906000526020600020905b8154815290600101906020018083116113b957829003601f168201915b505050505081565b6113ee6113e96126dc565b613a54565b565b600f60029054906101000a900460ff1681565b61140b61175d565b61144a576040517f08c379a000000000000000000000000000000000000000000000000000000000815260040161144190615932565b60405180910390fd5b600073ffffffffffffffffffffffffffffffffffffffff1660008054906101000a900473ffffffffffffffffffffffffffffffffffffffff1673ffffffffffffffffffffffffffffffffffffffff167f8be0079c531659141344cd1fd0a4f28419497f9722a3daafe3b4186f6b6457e060405160405180910390a360008060006101000a81548173ffffffffffffffffffffffffffffffffffffffff021916908373ffffffffffffffffffffffffffffffffffffffff160217905550565b600260019054906101000a900473ffffffffffffffffffffffffffffffffffffffff1681565b61153e6115396126dc565b610fb2565b61157d576040517f08c379a0000000000000000000000000000000000000000000000000000000008152600401611574906156f2565b60405180910390fd5b61158681613aae565b50565b600f60049054906101000a900460ff1681565b6115ac6115a76126dc565b610fb2565b6115eb576040517f08c379a00000000000000000000000000000000000000000000000000000000081526004016115e2906156f2565b60405180910390fd5b600260009054906101000a900460ff161561163b576040517f08c379a000000000000000000000000000000000000000000000000000000000815260040161163290615832565b60405180910390fd5b6001600260006101000a81548160ff0219169083151502179055507f62e78cea01bee320cd4e420270b5ea74000d11b0c9f74754ebdbfc544b05a25861167f6126dc565b60405161168c91906154c7565b60405180910390a1565b60008060009054906101000a900473ffffffffffffffffffffffffffffffffffffffff16905090565b600b8054600181600116156101000203166002900480601f0160208091040260200160405190810160405280929190818152602001828054600181600116156101000203166002900480156117555780601f1061172a57610100808354040283529160200191611755565b820191906000526020600020905b81548152906001019060200180831161173857829003601f168201915b505050505081565b60008060009054906101000a900473ffffffffffffffffffffffffffffffffffffffff1673ffffffffffffffffffffffffffffffffffffffff1661179f6126dc565b73ffffffffffffffffffffffffffffffffffffffff1614905090565b6000816040516020016117ce9190615432565b604051602081830303815290604052805190602001209050919050565b600260009054906101000a900460ff161561183b576040517f08c379a000000000000000000000000000000000000000000000000000000000815260040161183290615832565b60405180910390fd5b600360009054906101000a900473ffffffffffffffffffffffffffffffffffffffff1673ffffffffffffffffffffffffffffffffffffffff163373ffffffffffffffffffffffffffffffffffffffff16146118cb576040517f08c379a00000000000000000000000000000000000000000000000000000000081526004016118c290615a72565b60405180910390fd5b7ff2117f45bb026f7f165d939836d0293bad4b8aaf2e658cb38900da27a813065583836040516118fc929190615518565b60405180910390a1505050565b60095481565b600f60059054906101000a900460ff1681565b600260009054906101000a900460ff1615611972576040517f08c379a000000000000000000000000000000000000000000000000000000000815260040161196990615832565b60405180910390fd5b600360009054906101000a900473ffffffffffffffffffffffffffffffffffffffff1673ffffffffffffffffffffffffffffffffffffffff163373ffffffffffffffffffffffffffffffffffffffff1614611a02576040517f08c379a00000000000000000000000000000000000000000000000000000000081526004016119f990615a72565b60405180910390fd5b60008311611a45576040517f08c379a0000000000000000000000000000000000000000000000000000000008152600401611a3c906157f2565b60405180910390fd5b6007600086815260200190815260200160002060009054906101000a900460ff16611aa5576040517f08c379a0000000000000000000000000000000000000000000000000000000008152600401611a9c906157d2565b60405180910390fd5b83611ac1600f60049054906101000a900460ff1660ff166117bb565b14611b01576040517f08c379a0000000000000000000000000000000000000000000000000000000008152600401611af890615812565b60405180910390fd5b7fb30495d559e05f5f1c993ea722cb239b6d85f70ed9c914b8350c4b94feed7ccd858484604051611b3493929190615c26565b60405180910390a1505050505050565b600460009054906101000a900473ffffffffffffffffffffffffffffffffffffffff1673ffffffffffffffffffffffffffffffffffffffff16638cabf1286040518163ffffffff1660e01b815260040160206040518083038186803b158015611bac57600080fd5b505afa158015611bc0573d6000803e3d6000fd5b505050506040513d601f19601f82011682018060405250810190611be49190613f10565b73ffffffffffffffffffffffffffffffffffffffff163373ffffffffffffffffffffffffffffffffffffffff1614611c51576040517f08c379a0000000000000000000000000000000000000000000000000000000008152600401611c4890615852565b60405180910390fd5b6007600082815260200190815260200160002060009054906101000a900460ff16611d8d5760016007600083815260200190815260200160002060006101000a81548160ff0219169083151502179055507f2757aa27a660ab391745e035b5a23653f6497d768c445f6a9c3df78e1d18727f600260019054906101000a900473ffffffffffffffffffffffffffffffffffffffff1673ffffffffffffffffffffffffffffffffffffffff166365f68c89611d09611696565b6040518263ffffffff1660e01b8152600401611d2591906154ac565b60206040518083038186803b158015611d3d57600080fd5b505afa158015611d51573d6000803e3d6000fd5b505050506040513d601f19601f82011682018060405250810190611d759190614242565b82604051611d84929190615bfd565b60405180910390a15b50565b600081604051602001611da3919061541b565b604051602081830303815290604052805190602001209050919050565b6000611ddd600f60009054906101000a900460ff1660ff166117bb565b9050919050565b60076020528060005260406000206000915054906101000a900460ff1681565b600260009054906101000a900460ff1615611e54576040517f08c379a0000000000000000000000000000000000000000000000000000000008152600401611e4b90615832565b60405180910390fd5b6000600260019054906101000a900473ffffffffffffffffffffffffffffffffffffffff1673ffffffffffffffffffffffffffffffffffffffff166365f68c89336040518263ffffffff1660e01b8152600401611eb191906154c7565b60206040518083038186803b158015611ec957600080fd5b505afa158015611edd573d6000803e3d6000fd5b505050506040513d601f19601f82011682018060405250810190611f019190614242565b90506005600082815260200190815260200160002060009054906101000a900460ff16611f63576040517f08c379a0000000000000000000000000000000000000000000000000000000008152600401611f5a90615912565b60405180910390fd5b600260019054906101000a900473ffffffffffffffffffffffffffffffffffffffff1673ffffffffffffffffffffffffffffffffffffffff1663613a7896826040518263ffffffff1660e01b8152600401611fbe9190615ab2565b60206040518083038186803b158015611fd657600080fd5b505afa158015611fea573d6000803e3d6000fd5b505050506040513d601f19601f8201168201806040525081019061200e91906140a4565b61204d576040517f08c379a000000000000000000000000000000000000000000000000000000000815260040161204490615872565b60405180910390fd5b600061206a600f60059054906101000a900460ff1660ff166117bb565b9050600360009054906101000a900473ffffffffffffffffffffffffffffffffffffffff1673ffffffffffffffffffffffffffffffffffffffff166304cc4d8e828487876040518563ffffffff1660e01b81526004016120cd9493929190615541565b600060405180830381600087803b1580156120e757600080fd5b505af11580156120fb573d6000803e3d6000fd5b505050507f1bb5ed67b2bbb22aaf99cdcf7dbcf09ad7b4e3999dab8f77fd76c207b6e226da82858560405161213293929190615c26565b60405180910390a150505050565b6006602052816000526040600020818051602081018201805184825260208301602085012081835280955050505050506000915091509054906101000a900460ff1681565b61218d61175d565b6121cc576040517f08c379a00000000000000000000000000000000000000000000000000000000081526004016121c390615932565b60405180910390fd5b6064821061220f576040517f08c379a000000000000000000000000000000000000000000000000000000000815260040161220690615652565b60405180910390fd5b816009819055507f94514d602145b96a19d64f0297fc93f891dfa585d0b414185acfe635b073752b8282604051612247929190615acd565b60405180910390a15050565b600460009054906101000a900473ffffffffffffffffffffffffffffffffffffffff1681565b600360009054906101000a900473ffffffffffffffffffffffffffffffffffffffff1681565b600260009054906101000a900460ff16156122ef576040517f08c379a00000000000000000000000000000000000000000000000000000000081526004016122e690615832565b60405180910390fd5b600360009054906101000a900473ffffffffffffffffffffffffffffffffffffffff1673ffffffffffffffffffffffffffffffffffffffff163373ffffffffffffffffffffffffffffffffffffffff161461237f576040517f08c379a000000000000000000000000000000000000000000000000000000000815260040161237690615a72565b60405180910390fd5b8361239b600f60059054906101000a900460ff1660ff166117bb565b146123db576040517f08c379a00000000000000000000000000000000000000000000000000000000081526004016123d2906158f2565b60405180910390fd5b6060816000815181106123ea57fe5b60200260200101519050600073__RBBLib________________________________633581ee54836040518263ffffffff1660e01b815260040161242d91906155d7565b60206040518083038186803b15801561244557600080fd5b505af4158015612459573d6000803e3d6000fd5b505050506040513d601f19601f8201168201806040525081019061247d9190614242565b90506005600082815260200190815260200160002060009054906101000a900460ff166124df576040517f08c379a00000000000000000000000000000000000000000000000000000000081526004016124d690615992565b60405180910390fd5b7f5d4d346a0213ff920be5c680b2dae20438f8a3447c0b4bd37268d1d2f523432a81868660405161251293929190615c26565b60405180910390a1505050505050565b61252a61175d565b612569576040517f08c379a000000000000000000000000000000000000000000000000000000000815260040161256090615932565b60405180910390fd5b61257281613b08565b50565b6008818154811061258257fe5b906000526020600020016000915090505481565b600d8054600181600116156101000203166002900480601f01602080910402602001604051908101604052809291908181526020018280546001816001161561010002031660029004801561262c5780601f106126015761010080835404028352916020019161262c565b820191906000526020600020905b81548152906001019060200180831161260f57829003601f168201915b505050505081565b61263e82826136de565b1561267e576040517f08c379a000000000000000000000000000000000000000000000000000000000815260040161267590615692565b60405180910390fd5b60018260000160008373ffffffffffffffffffffffffffffffffffffffff1673ffffffffffffffffffffffffffffffffffffffff16815260200190815260200160002060006101000a81548160ff0219169083151502179055505050565b600033905090565b600260009054906101000a900460ff1615612734576040517f08c379a000000000000000000000000000000000000000000000000000000000815260040161272b90615832565b60405180910390fd5b8773ffffffffffffffffffffffffffffffffffffffff16600460009054906101000a900473ffffffffffffffffffffffffffffffffffffffff1673ffffffffffffffffffffffffffffffffffffffff1663329afd3a6040518163ffffffff1660e01b815260040160206040518083038186803b1580156127b357600080fd5b505afa1580156127c7573d6000803e3d6000fd5b505050506040513d601f19601f820116820180604052508101906127eb9190613f10565b73ffffffffffffffffffffffffffffffffffffffff1614612841576040517f08c379a0000000000000000000000000000000000000000000000000000000008152600401612838906159d2565b60405180910390fd5b6000600260019054906101000a900473ffffffffffffffffffffffffffffffffffffffff1673ffffffffffffffffffffffffffffffffffffffff166365f68c89612889611696565b6040518263ffffffff1660e01b81526004016128a591906154ac565b60206040518083038186803b1580156128bd57600080fd5b505afa1580156128d1573d6000803e3d6000fd5b505050506040513d601f19601f820116820180604052508101906128f59190614242565b9050808814612939576040517f08c379a000000000000000000000000000000000000000000000000000000000815260040161293090615a32565b60405180910390fd5b612954600f60009054906101000a900460ff1660ff166117bb565b8714612995576040517f08c379a000000000000000000000000000000000000000000000000000000000815260040161298c90615a12565b60405180910390fd5b8588146129d7576040517f08c379a00000000000000000000000000000000000000000000000000000000081526004016129ce906158d2565b60405180910390fd5b6129f2600f60019054906101000a900460ff1660ff166117bb565b851415612a37577f94d89c2ff047eba28eb56cacf5a8e292f150c43e792d648d54f8b93372849b3c8484604051612a2a929190615acd565b60405180910390a1612ada565b612a52600f60029054906101000a900460ff1660ff166117bb565b851415612a97577f7916e578b526c14777538bb519e208901510a7ff7765e2e339258b6ba65272fc8484604051612a8a929190615acd565b60405180910390a1612ad9565b6000612ad8576040517f08c379a0000000000000000000000000000000000000000000000000000000008152600401612acf90615a52565b60405180910390fd5b5b5b505050505050505050565b600260009054906101000a900460ff1615612b35576040517f08c379a0000000000000000000000000000000000000000000000000000000008152600401612b2c90615832565b60405180910390fd5b606081600181518110612b4457fe5b602002602001015190506000600260019054906101000a900473ffffffffffffffffffffffffffffffffffffffff1673ffffffffffffffffffffffffffffffffffffffff166365f68c89612b96611696565b6040518263ffffffff1660e01b8152600401612bb291906154ac565b60206040518083038186803b158015612bca57600080fd5b505afa158015612bde573d6000803e3d6000fd5b505050506040513d601f19601f82011682018060405250810190612c029190614242565b9050600460009054906101000a900473ffffffffffffffffffffffffffffffffffffffff1673ffffffffffffffffffffffffffffffffffffffff16638cabf1286040518163ffffffff1660e01b815260040160206040518083038186803b158015612c6c57600080fd5b505afa158015612c80573d6000803e3d6000fd5b505050506040513d601f19601f82011682018060405250810190612ca49190613f10565b73ffffffffffffffffffffffffffffffffffffffff168a73ffffffffffffffffffffffffffffffffffffffff1614612d11576040517f08c379a0000000000000000000000000000000000000000000000000000000008152600401612d0890615852565b60405180910390fd5b808914612d53576040517f08c379a0000000000000000000000000000000000000000000000000000000008152600401612d4a90615a32565b60405180910390fd5b87612d6f600f60019054906101000a900460ff1660ff166117bb565b14612daf576040517f08c379a0000000000000000000000000000000000000000000000000000000008152600401612da690615792565b60405180910390fd5b85612db983611d90565b14612df9576040517f08c379a0000000000000000000000000000000000000000000000000000000008152600401612df090615a92565b60405180910390fd5b612e038783613c35565b7fe08d0d3d48ef9857108be67cfe715057ce9b455eaf3a4d3b66f34bf148311d7a87838787604051612e389493929190615b57565b60405180910390a150505050505050505050565b600260009054906101000a900460ff1615612e9c576040517f08c379a0000000000000000000000000000000000000000000000000000000008152600401612e9390615832565b60405180910390fd5b606081600181518110612eab57fe5b602002602001015190506006600089815260200190815260200160002081604051612ed6919061541b565b908152602001604051809103902060009054906101000a900460ff16612f31576040517f08c379a0000000000000000000000000000000000000000000000000000000008152600401612f2890615712565b60405180910390fd5b86612f3b82611d90565b14612f7b576040517f08c379a0000000000000000000000000000000000000000000000000000000008152600401612f7290615a92565b60405180910390fd5b84612f97600f60049054906101000a900460ff1660ff166117bb565b14612fd7576040517f08c379a0000000000000000000000000000000000000000000000000000000008152600401612fce90615812565b60405180910390fd5b8588141561301a576040517f08c379a000000000000000000000000000000000000000000000000000000000815260040161301190615772565b60405180910390fd5b6007600087815260200190815260200160002060009054906101000a900460ff166130a55760016007600088815260200190815260200160002060006101000a81548160ff0219169083151502179055507f2757aa27a660ab391745e035b5a23653f6497d768c445f6a9c3df78e1d18727f888760405161309c929190615bfd565b60405180910390a15b7fdd62ead748da3466d84db25e6f55c3213f29aaf5c159d4d576018cd84209782688828887876040516130dc959493929190615ba3565b60405180910390a1505050505050505050565b600260009054906101000a900460ff161561313f576040517f08c379a000000000000000000000000000000000000000000000000000000000815260040161313690615832565b60405180910390fd5b600460009054906101000a900473ffffffffffffffffffffffffffffffffffffffff1673ffffffffffffffffffffffffffffffffffffffff16638cabf1286040518163ffffffff1660e01b815260040160206040518083038186803b1580156131a757600080fd5b505afa1580156131bb573d6000803e3d6000fd5b505050506040513d601f19601f820116820180604052508101906131df9190613f10565b73ffffffffffffffffffffffffffffffffffffffff168873ffffffffffffffffffffffffffffffffffffffff161461324c576040517f08c379a000000000000000000000000000000000000000000000000000000000815260040161324390615852565b60405180910390fd5b600260019054906101000a900473ffffffffffffffffffffffffffffffffffffffff1673ffffffffffffffffffffffffffffffffffffffff166365f68c89613292611696565b6040518263ffffffff1660e01b81526004016132ae91906154ac565b60206040518083038186803b1580156132c657600080fd5b505afa1580156132da573d6000803e3d6000fd5b505050506040513d601f19601f820116820180604052508101906132fe9190614242565b871461333f576040517f08c379a000000000000000000000000000000000000000000000000000000000815260040161333690615732565b60405180910390fd5b8561335b600f60029054906101000a900460ff1660ff166117bb565b1461339b576040517f08c379a0000000000000000000000000000000000000000000000000000000008152600401613392906159f2565b60405180910390fd5b836133b7600f60049054906101000a900460ff1660ff166117bb565b146133f7576040517f08c379a00000000000000000000000000000000000000000000000000000000081526004016133ee90615812565b60405180910390fd5b8487141561343a576040517f08c379a0000000000000000000000000000000000000000000000000000000008152600401613431906159b2565b60405180910390fd5b7f8316c04a0a2b1e71f63264f2f0380d43ae9f758672a97012d6880fcedcb5423285848460405161346d93929190615c26565b60405180910390a15050505050505050565b600260009054906101000a900460ff16156134cf576040517f08c379a00000000000000000000000000000000000000000000000000000000081526004016134c690615832565b60405180910390fd5b6134d987876137a6565b613518576040517f08c379a000000000000000000000000000000000000000000000000000000000815260040161350f90615892565b60405180910390fd5b61352285856137a6565b613561576040517f08c379a0000000000000000000000000000000000000000000000000000000008152600401613558906156b2565b60405180910390fd5b60608160018151811061357057fe5b602002602001015190506000888888888860405160200161359595949392919061544d565b6040516020818303038152906040528051906020012090506000805b6008805490508110156135f35782600882815481106135cc57fe5b906000526020600020015414156135e657600191506135f3565b80806001019150506135b1565b81613633576040517f08c379a000000000000000000000000000000000000000000000000000000000815260040161362a906156d2565b60405180910390fd5b60086001600880549050038154811061364857fe5b90600052602060002001546008828154811061366057fe5b9060005260206000200181905550600880548061367957fe5b600190038181906000526020600020016000905590557fae2b72cc4621b123feac073da32309bdd45fefaa49154814cd8c8b3c7c4d5cb78b8b8b8b8b8b6040516136c896959493929190615af6565b60405180910390a1505050505050505050505050565b60008073ffffffffffffffffffffffffffffffffffffffff168273ffffffffffffffffffffffffffffffffffffffff16141561374f576040517f08c379a000000000000000000000000000000000000000000000000000000000815260040161374690615952565b60405180910390fd5b8260000160008373ffffffffffffffffffffffffffffffffffffffff1673ffffffffffffffffffffffffffffffffffffffff16815260200190815260200160002060009054906101000a900460ff16905092915050565b60008060009050600115156005600086815260200190815260200160002060009054906101000a900460ff16151514156137e4576001915050613a4e565b600115156007600086815260200190815260200160002060009054906101000a900460ff161515141561381b576001915050613a4e565b6000600260019054906101000a900473ffffffffffffffffffffffffffffffffffffffff1673ffffffffffffffffffffffffffffffffffffffff166365f68c89613863611696565b6040518263ffffffff1660e01b815260040161387f91906154ac565b60206040518083038186803b15801561389757600080fd5b505afa1580156138ab573d6000803e3d6000fd5b505050506040513d601f19601f820116820180604052508101906138cf9190614242565b9050848114156138e457600192505050613a4e565b6000600260019054906101000a900473ffffffffffffffffffffffffffffffffffffffff1673ffffffffffffffffffffffffffffffffffffffff166365f68c89600360009054906101000a900473ffffffffffffffffffffffffffffffffffffffff1673ffffffffffffffffffffffffffffffffffffffff16638da5cb5b6040518163ffffffff1660e01b815260040160206040518083038186803b15801561398c57600080fd5b505afa1580156139a0573d6000803e3d6000fd5b505050506040513d601f19601f820116820180604052508101906139c49190613f10565b6040518263ffffffff1660e01b81526004016139e091906154ac565b60206040518083038186803b1580156139f857600080fd5b505afa158015613a0c573d6000803e3d6000fd5b505050506040513d601f19601f82011682018060405250810190613a309190614242565b905085811415613a465760019350505050613a4e565b600093505050505b92915050565b613a68816001613cfa90919063ffffffff16565b8073ffffffffffffffffffffffffffffffffffffffff167fcd265ebaf09df2871cc7bd4133404a235ba12eff2041bb89d9c714a2621c7c7e60405160405180910390a250565b613ac281600161263490919063ffffffff16565b8073ffffffffffffffffffffffffffffffffffffffff167f6719d08c1888103bea251a4ed56406bd0c3e69723c8a1686e017e7bbe159b6f860405160405180910390a250565b600073ffffffffffffffffffffffffffffffffffffffff168173ffffffffffffffffffffffffffffffffffffffff161415613b78576040517f08c379a0000000000000000000000000000000000000000000000000000000008152600401613b6f90615752565b60405180910390fd5b8073ffffffffffffffffffffffffffffffffffffffff1660008054906101000a900473ffffffffffffffffffffffffffffffffffffffff1673ffffffffffffffffffffffffffffffffffffffff167f8be0079c531659141344cd1fd0a4f28419497f9722a3daafe3b4186f6b6457e060405160405180910390a3806000806101000a81548173ffffffffffffffffffffffffffffffffffffffff021916908373ffffffffffffffffffffffffffffffffffffffff16021790555050565b6006600083815260200190815260200160002081604051613c56919061541b565b908152602001604051809103902060009054906101000a900460ff16613cf65760016006600084815260200190815260200160002082604051613c99919061541b565b908152602001604051809103902060006101000a81548160ff0219169083151502179055507f448b0dd714fa3713f69988b8ee8bad3ac840e06e3d93c970086a3d490d61c62982604051613ced9190615ab2565b60405180910390a15b5050565b613d0482826136de565b613d43576040517f08c379a0000000000000000000000000000000000000000000000000000000008152600401613d3a906158b2565b60405180910390fd5b60008260000160008373ffffffffffffffffffffffffffffffffffffffff1673ffffffffffffffffffffffffffffffffffffffff16815260200190815260200160002060006101000a81548160ff0219169083151502179055505050565b600081359050613db081615eae565b92915050565b600081519050613dc581615eae565b92915050565b600082601f830112613ddc57600080fd5b8135613def613dea82615ca5565b615c78565b9150818183526020840193506020810190508360005b83811015613e355781358601613e1b8882613e69565b845260208401935060208301925050600181019050613e05565b5050505092915050565b600081519050613e4e81615ec5565b92915050565b600081359050613e6381615edc565b92915050565b600082601f830112613e7a57600080fd5b8135613e8d613e8882615ccd565b615c78565b91508082526020830160208301858383011115613ea957600080fd5b613eb4838284615e47565b50505092915050565b600081359050613ecc81615ef3565b92915050565b600081519050613ee181615ef3565b92915050565b600060208284031215613ef957600080fd5b6000613f0784828501613da1565b91505092915050565b600060208284031215613f2257600080fd5b6000613f3084828501613db6565b91505092915050565b60008060008060008060c08789031215613f5257600080fd5b6000613f6089828a01613da1565b9650506020613f7189828a01613ebd565b9550506040613f8289828a01613e54565b9450506060613f9389828a01613ebd565b9350506080613fa489828a01613e54565b92505060a087013567ffffffffffffffff811115613fc157600080fd5b613fcd89828a01613dcb565b9150509295509295509295565b600080600080600080600080610100898b031215613ff757600080fd5b60006140058b828c01613da1565b98505060206140168b828c01613ebd565b97505060406140278b828c01613e54565b96505060606140388b828c01613ebd565b95505060806140498b828c01613e54565b94505060a061405a8b828c01613ebd565b93505060c061406b8b828c01613e54565b92505060e089013567ffffffffffffffff81111561408857600080fd5b6140948b828c01613dcb565b9150509295985092959890939650565b6000602082840312156140b657600080fd5b60006140c484828501613e3f565b91505092915050565b6000602082840312156140df57600080fd5b60006140ed84828501613e54565b91505092915050565b60008060006060848603121561410b57600080fd5b600061411986828701613e54565b935050602061412a86828701613e54565b925050604084013567ffffffffffffffff81111561414757600080fd5b61415386828701613dcb565b9150509250925092565b6000806000806080858703121561417357600080fd5b600061418187828801613e54565b945050602061419287828801613ebd565b93505060406141a387828801613e54565b925050606085013567ffffffffffffffff8111156141c057600080fd5b6141cc87828801613dcb565b91505092959194509250565b6000602082840312156141ea57600080fd5b600082013567ffffffffffffffff81111561420457600080fd5b61421084828501613e69565b91505092915050565b60006020828403121561422b57600080fd5b600061423984828501613ebd565b91505092915050565b60006020828403121561425457600080fd5b600061426284828501613ed2565b91505092915050565b6000806040838503121561427e57600080fd5b600061428c85828601613ebd565b925050602061429d85828601613e54565b9150509250929050565b60008060008060008060c087890312156142c057600080fd5b60006142ce89828a01613ebd565b96505060206142df89828a01613e54565b95505060406142f089828a01613ebd565b945050606061430189828a01613e54565b935050608061431289828a01613ebd565b92505060a061432389828a01613e54565b9150509295509295509295565b6000806040838503121561434357600080fd5b600061435185828601613ebd565b925050602083013567ffffffffffffffff81111561436e57600080fd5b61437a85828601613e69565b9150509250929050565b61438d81615da5565b82525050565b61439c81615d46565b82525050565b6143ab81615d58565b82525050565b6143ba81615d64565b82525050565b6143d16143cc82615d64565b615e89565b82525050565b6143e081615db7565b82525050565b6143ef81615ddb565b82525050565b6143fe81615dff565b82525050565b600061440f82615d0e565b6144198185615d19565b9350614429818560208601615e56565b61443281615e9d565b840191505092915050565b600061444882615d0e565b6144528185615d2a565b9350614462818560208601615e56565b61446b81615e9d565b840191505092915050565b600061448182615d0e565b61448b8185615d3b565b935061449b818560208601615e56565b80840191505092915050565b6000815460018116600081146144c457600181146144ea5761452e565b607f60028304166144d58187615d2a565b955060ff19831686526020860193505061452e565b600282046144f88187615d2a565b955061450385615cf9565b60005b8281101561452557815481890152600182019150602081019050614506565b80880195505050505b505092915050565b6000614543601b83615d19565b91507f56616c6f7220646520466565206d61696f7220717565203130302500000000006000830152602082019050919050565b6000614583601483615d19565b91507f5061757361626c653a206e6f74207061757365640000000000000000000000006000830152602082019050919050565b60006145c3601f83615d19565b91507f526f6c65733a206163636f756e7420616c72656164792068617320726f6c65006000830152602082019050919050565b6000614603603d83615d19565b91507f456e64657265c3a76f2064652064657374696e6f206ec3a36f20696e636c75c360008301527fad646f20636f6d6f20706170656c206e6573736520636164617374726f0000006020830152604082019050919050565b6000614669603083615d19565b91507f496e74657276656ec3a7c3a36f206d616e75616c206ec3a36f2070726576696160008301527f6d656e74652063616461737472616461000000000000000000000000000000006020830152604082019050919050565b60006146cf603083615d19565b91507f506175736572526f6c653a2063616c6c657220646f6573206e6f74206861766560008301527f207468652050617573657220726f6c65000000000000000000000000000000006020830152604082019050919050565b6000614735604483615d19565b91507f536f6d656e746520636c69656e74657320656d20636f6e747261746f7320636160008301527f646173747261646f7320706f64656d206578656375746172206f20706167616d60208301527f656e746f000000000000000000000000000000000000000000000000000000006040830152606082019050919050565b60006147c1602983615d19565b91507f536f6d656e7465206f20424e44455320706f6465206578656375746172206f2060008301527f706167616d656e746f00000000000000000000000000000000000000000000006020830152604082019050919050565b6000614827602683615d19565b91507f4f776e61626c653a206e6577206f776e657220697320746865207a65726f206160008301527f64647265737300000000000000000000000000000000000000000000000000006020830152604082019050919050565b600061488d605f83615d19565b91507f556d20434e504a206ec3a36f20706f6465207472616e73666572697220746f6b60008301527f656e20706172612073692c2061696e64612071756520656d20706170c3a9697360208301527f2064697374696e746f732028436c69656e74652f466f726e656365646f7229006040830152606082019050919050565b6000614919602a83615d19565b91507f4572726f206e6f2063c3a16c63756c6f20646f206861736820646120636f6e7460008301527f6120646f20424e444553000000000000000000000000000000000000000000006020830152604082019050919050565b600061497f605783615d19565b91507f536f6d656e746520756d20726573706f6e73c3a176656c2070656c617320747260008301527f616e73666572c3aa6e636961732065787472616f7264696ec3a172696173207060208301527f6f7220656e766961722061207472616e7361c3a7c3a36f0000000000000000006040830152606082019050919050565b6000614a0b602f83615d19565b91507f536f6d656e746520666f726e656365646f72657320706f64656d20657865637560008301527f746172206f20706167616d656e746f00000000000000000000000000000000006020830152604082019050919050565b6000614a71603583615d19565b91507f56616c6f72206120736572207472616e736163696f6e61646f2064657665207360008301527f6572206d61696f7220646f20717565207a65726f2e00000000000000000000006020830152604082019050919050565b6000614ad7602f83615d19565b91507f4572726f206e6f2063c3a16c63756c6f20646f206861736820646120636f6e7460008301527f6120646f20666f726e656365646f7200000000000000000000000000000000006020830152604082019050919050565b6000614b3d601083615d19565b91507f5061757361626c653a20706175736564000000000000000000000000000000006000830152602082019050919050565b6000614b7d604983615d19565b91507f45737461207472616e7361c3a7c3a36f2073c3b320706f64652073657220657860008301527f656375746164612070656c6f20726573706f6e73c3a176656c2070656c6f206460208301527f6573656d626f6c736f00000000000000000000000000000000000000000000006040830152606082019050919050565b6000614c09603383615d19565b91507f436f6e746120646520646f61646f72207072656369736120657374617220636f60008301527f6d20636164617374726f2076616c696461646f000000000000000000000000006020830152604082019050919050565b6000614c6f603c83615d19565b91507f456e64657265c3a76f206465206f726967656d206ec3a36f20696e636c75c3ad60008301527f646f20636f6d6f20706170656c206e6573736520636164617374726f000000006020830152604082019050919050565b6000614cd5602183615d19565b91507f526f6c65733a206163636f756e7420646f6573206e6f74206861766520726f6c60008301527f65000000000000000000000000000000000000000000000000000000000000006020830152604082019050919050565b6000614d3b604583615d19565b91507f49642064652064657374696e6f206461207472616e7361c3a7c3a36f206ec3a360008301527f6f20657374c3a120696775616c20616f20646f206f776e657220646f20636f6e60208301527f747261746f0000000000000000000000000000000000000000000000000000006040830152606082019050919050565b6000614dc7602483615d19565b91507f4572726f206e6f2063c3a16c63756c6f20646f206861736820646120646f61c360008301527fa7c3a36f000000000000000000000000000000000000000000000000000000006020830152604082019050919050565b6000614e2d602683615d19565b91507f536f6d656e746520646f61646f72657320706f64656d2066617a657220646f6160008301527fc3a7c3b5657300000000000000000000000000000000000000000000000000006020830152604082019050919050565b6000614e93602083615d19565b91507f4f776e61626c653a2063616c6c6572206973206e6f7420746865206f776e65726000830152602082019050919050565b6000614ed3602283615d19565b91507f526f6c65733a206163636f756e7420697320746865207a65726f20616464726560008301527f73730000000000000000000000000000000000000000000000000000000000006020830152604082019050919050565b6000614f39604283615d19565b91507f4e656e68756d61207665726966696361c3a7c3a36f206573706563c3ad66696360008301527f6120656e636f6e747261646120706172612061207472616e73666572c3aa6e6360208301527f69610000000000000000000000000000000000000000000000000000000000006040830152606082019050919050565b6000614fc5604083615d19565b91507f536f6d656e746520646f61646f72657320706f64656d2066617a657220646f6160008301527fc3a7c3b565732c20726567697374726f20657374616820696e636f727265746f6020830152604082019050919050565b600061502b602b83615d19565b91507f556d20424e444553206ec3a36f20706f6465207472616e73666572697220746f60008301527f6b656e20706172612073690000000000000000000000000000000000000000006020830152604082019050919050565b6000615091604c83615d19565b91507f536f6d656e746520756d20726573706f6e73c3a176656c2070656c617320616c60008301527f6f6361c3a7c3b5657320696e69636961697320706f646520656e76696172206160208301527f207472616e7361c3a7c3a36f00000000000000000000000000000000000000006040830152606082019050919050565b600061511d604183615d19565b91507f4572726f206e6f2063c3a16c63756c6f20646f206861736820646120636f6e7460008301527f612064652061646d696e20646f20636f6e747261746f2065737065636966696360208301527f6f000000000000000000000000000000000000000000000000000000000000006040830152606082019050919050565b60006151a9603083615d19565b91507f48617368206465206f726967656d206461207472616e7361c3a7c3a36f206ec360008301527fa36f20657374c3a120636f727265746f000000000000000000000000000000006020830152604082019050919050565b600061520f604483615d19565b91507f4964206465206f726967656d206461207472616e7361c3a7c3a36f206ec3a36f60008301527f20657374c3a120696775616c20616f20646f206f776e657220646f20636f6e7460208301527f7261746f000000000000000000000000000000000000000000000000000000006040830152606082019050919050565b600061529b604983615d19565b91507f486173682064652064657374696e6f206ec3a36f20657374c3a120636f72726560008301527f73706f6e64656e7465206120636f6e746120646520646573656d626f6c736f2060208301527f6f752064652061646d00000000000000000000000000000000000000000000006040830152606082019050919050565b6000615327603083615d19565b91507f45737365206dc3a9746f646f2073c3b320706f646520736572206368616d616460008301527f6f2070656c6f205242425f546f6b656e000000000000000000000000000000006020830152604082019050919050565b600061538d602c83615d19565b91507f4572726f206e6f2063c3a16c63756c6f20646f206861736820646120636f6e7460008301527f6120646f20636c69656e746500000000000000000000000000000000000000006020830152604082019050919050565b6153ef81615d8e565b82525050565b61540661540182615d8e565b615e93565b82525050565b61541581615d98565b82525050565b60006154278284614476565b915081905092915050565b600061543e82846153f5565b60208201915081905092915050565b600061545982886153f5565b60208201915061546982876143c0565b60208201915061547982866153f5565b60208201915061548982856143c0565b60208201915061549982846153f5565b6020820191508190509695505050505050565b60006020820190506154c16000830184614393565b92915050565b60006020820190506154dc6000830184614384565b92915050565b60006020820190506154f760008301846143a2565b92915050565b600060208201905061551260008301846143b1565b92915050565b600060408201905061552d60008301856143b1565b61553a60208301846143b1565b9392505050565b600060808201905061555660008301876143b1565b61556360208301866153e6565b61557060408301856153e6565b61557d60608301846143b1565b95945050505050565b600060208201905061559b60008301846143d7565b92915050565b60006020820190506155b660008301846143e6565b92915050565b60006020820190506155d160008301846143f5565b92915050565b600060208201905081810360008301526155f1818461443d565b905092915050565b600060208201905081810360008301526156138184614404565b905092915050565b6000604082019050818103600083015261563581856144a7565b90508181036020830152615649818461443d565b90509392505050565b6000602082019050818103600083015261566b81614536565b9050919050565b6000602082019050818103600083015261568b81614576565b9050919050565b600060208201905081810360008301526156ab816145b6565b9050919050565b600060208201905081810360008301526156cb816145f6565b9050919050565b600060208201905081810360008301526156eb8161465c565b9050919050565b6000602082019050818103600083015261570b816146c2565b9050919050565b6000602082019050818103600083015261572b81614728565b9050919050565b6000602082019050818103600083015261574b816147b4565b9050919050565b6000602082019050818103600083015261576b8161481a565b9050919050565b6000602082019050818103600083015261578b81614880565b9050919050565b600060208201905081810360008301526157ab8161490c565b9050919050565b600060208201905081810360008301526157cb81614972565b9050919050565b600060208201905081810360008301526157eb816149fe565b9050919050565b6000602082019050818103600083015261580b81614a64565b9050919050565b6000602082019050818103600083015261582b81614aca565b9050919050565b6000602082019050818103600083015261584b81614b30565b9050919050565b6000602082019050818103600083015261586b81614b70565b9050919050565b6000602082019050818103600083015261588b81614bfc565b9050919050565b600060208201905081810360008301526158ab81614c62565b9050919050565b600060208201905081810360008301526158cb81614cc8565b9050919050565b600060208201905081810360008301526158eb81614d2e565b9050919050565b6000602082019050818103600083015261590b81614dba565b9050919050565b6000602082019050818103600083015261592b81614e20565b9050919050565b6000602082019050818103600083015261594b81614e86565b9050919050565b6000602082019050818103600083015261596b81614ec6565b9050919050565b6000602082019050818103600083015261598b81614f2c565b9050919050565b600060208201905081810360008301526159ab81614fb8565b9050919050565b600060208201905081810360008301526159cb8161501e565b9050919050565b600060208201905081810360008301526159eb81615084565b9050919050565b60006020820190508181036000830152615a0b81615110565b9050919050565b60006020820190508181036000830152615a2b8161519c565b9050919050565b60006020820190508181036000830152615a4b81615202565b9050919050565b60006020820190508181036000830152615a6b8161528e565b9050919050565b60006020820190508181036000830152615a8b8161531a565b9050919050565b60006020820190508181036000830152615aab81615380565b9050919050565b6000602082019050615ac760008301846153e6565b92915050565b6000604082019050615ae260008301856153e6565b615aef60208301846143b1565b9392505050565b600060c082019050615b0b60008301896153e6565b615b1860208301886143b1565b615b2560408301876153e6565b615b3260608301866143b1565b615b3f60808301856153e6565b615b4c60a08301846143b1565b979650505050505050565b6000608082019050615b6c60008301876153e6565b8181036020830152615b7e8186614404565b9050615b8d60408301856153e6565b615b9a60608301846143b1565b95945050505050565b600060a082019050615bb860008301886153e6565b8181036020830152615bca8187614404565b9050615bd960408301866153e6565b615be660608301856153e6565b615bf360808301846143b1565b9695505050505050565b6000604082019050615c1260008301856153e6565b615c1f60208301846153e6565b9392505050565b6000606082019050615c3b60008301866153e6565b615c4860208301856153e6565b615c5560408301846143b1565b949350505050565b6000602082019050615c72600083018461540c565b92915050565b6000604051905081810181811067ffffffffffffffff82111715615c9b57600080fd5b8060405250919050565b600067ffffffffffffffff821115615cbc57600080fd5b602082029050602081019050919050565b600067ffffffffffffffff821115615ce457600080fd5b601f19601f8301169050602081019050919050565b60008190508160005260206000209050919050565b600081519050919050565b600082825260208201905092915050565b600082825260208201905092915050565b600081905092915050565b6000615d5182615d6e565b9050919050565b60008115159050919050565b6000819050919050565b600073ffffffffffffffffffffffffffffffffffffffff82169050919050565b6000819050919050565b600060ff82169050919050565b6000615db082615e23565b9050919050565b6000615dc282615dc9565b9050919050565b6000615dd482615d6e565b9050919050565b6000615de682615ded565b9050919050565b6000615df882615d6e565b9050919050565b6000615e0a82615e11565b9050919050565b6000615e1c82615d6e565b9050919050565b6000615e2e82615e35565b9050919050565b6000615e4082615d6e565b9050919050565b82818337600083830152505050565b60005b83811015615e74578082015181840152602081019050615e59565b83811115615e83576000848401525b50505050565b6000819050919050565b6000819050919050565b6000601f19601f8301169050919050565b615eb781615d46565b8114615ec257600080fd5b50565b615ece81615d58565b8114615ed957600080fd5b50565b615ee581615d64565b8114615ef057600080fd5b50565b615efc81615d8e565b8114615f0757600080fd5b5056fea2646970667358221220cef16be87c93f91e2c1f885496e2875ad673f46daa0253154b21d6beb59b32fa64736f6c634300060c0033",
  "immutableReferences": {},
  "source": "pragma solidity ^0.6.0;\npragma experimental ABIEncoderV2;\n\n\nimport \"./RBBLib.sol\";\nimport \"./RBBRegistry.sol\";\nimport \"./RBBToken.sol\";\nimport \"./SpecificRBBToken.sol\";\nimport \"./FABndesToken_BNDESRoles.sol\";\nimport \"@openzeppelin/contracts/ownership/Ownable.sol\";\nimport \"@openzeppelin/contracts/lifecycle/Pausable.sol\";\nimport \"@openzeppelin/contracts/math/SafeMath.sol\";\n\n\n\n/*\nTodas as operaes j supem que a entidade de origem e destino esto cadastradas e validadas no RBB_Registry, pois isso  garantido pelo contrato genrico (RBB_Token)\n\nNo includo (TBD):\n------------\n- requisito adicional de o cliente poder resgatar uma parte do valor (ao invs de ter que necessariamente transferir tudo ao fornecedor)\n- ideia de o fornecedor poder sacar mais de um saldo ao mesmo tempo.\n- pedido inicial de financiamento do cliente \n- devoluo de fornecedor para cliente sem anuncia para o BNDES\n- controle que cada doacao realmente se transformou em duas transacoes, uma para a conta adm e outra para a conta usual\nuint admFee = amount.mul(bndesFee).div(100);\n- perodo de validade para as autorizaes de transferncias extraordinrias\n- invalidar doador, cliente e fornecedor (por exemplo, em caso de CNPJ deixar de existir, contrato com BNDES acabar ou periodicamente)\n- permitir criar perfis diferenciados para contas dos clientes e fornecedores\n\n*/\n\n\ncontract FABndesToken is SpecificRBBToken {\n\n    RBBToken public rbbToken;\n    FABndesToken_BNDESRoles public bndesRoles;\n\n    //RBBId donor => true/false (registered or not)\n    mapping (uint => bool) public donors;\n\n    //RBBId client => (idFinancialSupportAgreement Client => true/false (registered or not)\n    mapping (uint => mapping (string => bool)) public clients;\n\n    //RBBId supplier => true/false (registered or not)\n    mapping (uint => bool) public suppliers;\n\n    //Hash of approved Extraordinary Transfers\n    bytes32[] public hashApprovedExtraordinaryTransfers;\n\n    // BNDES Fee percentage\n    uint256 public bndesFee;    \n\n    //Types of transfer operation\n    string public INITIAL_ALLOCATION = \"INITIAL_ALLOCATION\";\n    string public DISBURSEMENT_VERIFICATION = \"DISBURSEMENT_VERIFICATION\";\n    string public CLIENT_PAY_SUPPLIER_VERIFICATION = \"CLIENT_PAY_SUPPLIER_VERIFICATION\";\n    string public BNDES_PAY_SUPPLIER_VERIFICATION = \"BNDES_PAY_SUPPLIER_VERIFICATION\";\n    string public EXTRAORDINARY_TRANSFERS = \"EXTRAORDINARY_TRANSFERS\";\n\n\n    uint8 public RESERVED_MINTED_ACCOUNT = 0;\n    uint8 public RESERVED_USUAL_DISBURSEMENTS_ACCOUNT = 1;\n    uint8 public RESERVED_BNDES_ADMIN_FEE_TO_HASH = 2;\n    uint8 public RESERVED_NO_ADDITIONAL_FIELDS_TO_DONOR = 10;\n    uint8 public RESERVED_NO_ADDITIONAL_FIELDS_TO_SUPPLIER = 20;\n    uint8 public RESERVED_NO_ADDITIONAL_FIELDS_TO_DIFF_MONEY = 30;\n\n    using SafeMath for uint;\n   \n    event FA_DonationBooked(uint idDonor, uint amount, bytes32 docHash);\n    event FA_DonationConfirmed(uint idDonor, uint amount, bytes32 docHash);\n\n    event FA_InitialAllocation_Disbursements(uint amount, bytes32 docHash);\n    event FA_InitialAllocation_Fee(uint amount, bytes32 docHash);\n\n    event FA_Disbursement  (uint idClient, string idFinancialSupportAgreement, uint amount, bytes32 docHash);\n    event FA_TokenTransfer (uint fromCnpj, string fromIdFinancialSupportAgreement, uint toCnpj, uint amount, bytes32 docHash);\n    event FA_BNDES_TokenTransfer(uint toCnpj, uint amount, bytes32 docHash);\n    event FA_RedemptionRequested (uint idClaimer, uint amount, bytes32 docHash);\n    event FA_RedemptionSettlement(bytes32 redemptionTransactionHash, bytes32 docHash);\n \n    event FA_ExtraordinaryTransferAllowed (uint fromId, bytes32 fromHash, uint toId, bytes32 toHash, \n            uint amount, bytes32 docHash);\n    event FA_ExtraordinaryTransferExecuted(uint fromId, bytes32 fromHash, uint toId, bytes32 toHash, \n            uint amount, bytes32 docHash);\n\n    event FA_ManualIntervention_Fee(uint256 percent, bytes32 docHash);\n\n    event FA_DonorAdded(uint id);\n    event FA_ClientAdded(uint id);\n    event FA_SupplierAdded(uint registeredBy, uint id);\n\n\n    constructor (address newrbbTokenAddr, address addrBndesRoles, uint fee) public {\n        require (fee < 100, \"Valor de Fee maior que 100%\");\n\n        rbbToken = RBBToken(newrbbTokenAddr);\n        bndesRoles = FABndesToken_BNDESRoles(addrBndesRoles);\n\n        bndesFee = fee;\n    }\n\n\n    function setBNDESFee(uint256 newBndesFee, bytes32 docHash) public onlyOwner {\n        require (newBndesFee < 100, \"Valor de Fee maior que 100%\");\n        bndesFee = newBndesFee;\n        emit FA_ManualIntervention_Fee(newBndesFee, docHash);\n    }\n\n\n    function bookDonation(uint amount, bytes32 docHash) public whenNotPaused  {        \n        \n        uint idDonor = registry.getId(msg.sender);\n\n        require (donors[idDonor], \"Somente doadores podem fazer doaes\");\n        require(registry.isValidatedId(idDonor), \"Conta de doador precisa estar com cadastro validado\");\n        \n        bytes32 specificHash = getCalculatedHash(RESERVED_NO_ADDITIONAL_FIELDS_TO_DIFF_MONEY);\n        rbbToken.requestMint(specificHash, idDonor, amount, docHash);\n\n        emit FA_DonationBooked(idDonor, amount, docHash);\n    }\n    \n    /* confirms the donor's donation */\n    function verifyAndActForMint(bytes32 specificHash, uint amount, bytes32 docHash,\n        string[] memory data) public override whenNotPaused onlyRBBToken {\n\n        require (getCalculatedHash(RESERVED_NO_ADDITIONAL_FIELDS_TO_DIFF_MONEY)==specificHash, \"Erro no clculo do hash da doao\");\n\n        string memory sidDonor = data[0];\n        uint idDonor = RBBLib.stringtoUint(sidDonor);\n        require (donors[idDonor], \"Somente doadores podem fazer doaes, registro estah incorreto\");\n\n        emit FA_DonationConfirmed(idDonor, amount, docHash);\n\n    }\n\n\n    function getHashToMintedAccount(bytes32 specificHash) override public returns (bytes32) {\n        //There is no difference of specificHash, all money should be minted in the same account\n        return getCalculatedHash(RESERVED_MINTED_ACCOUNT);\n    }\n\n    function verifyAndActForTransfer(address originalSender, uint fromId, bytes32 fromHash, uint toId, bytes32 toHash, \n            uint amount, bytes32 docHash, string[] memory data) public override whenNotPaused onlyRBBToken {\n\n        string memory specificMethod = data[0];\n\n        require (amount>0, \"Valor a ser transacionado deve ser maior do que zero.\");\n\n        if (RBBLib.isEqual(INITIAL_ALLOCATION, specificMethod)) {\n            verifyAndActForTransfer_INITIAL_ALLOCATION(originalSender, fromId, fromHash, toId, toHash, amount, docHash, data);\n        }\n        else if (RBBLib.isEqual(DISBURSEMENT_VERIFICATION, specificMethod)) {\n            verifyAndActForTransfer_DISBURSEMENT(originalSender, fromId, fromHash, toId, toHash, amount, docHash, data);\n        }\n        else if (RBBLib.isEqual(CLIENT_PAY_SUPPLIER_VERIFICATION, specificMethod)) {\n            verifyAndActForTransfer_CLIENT_PAY_SUPPLIER(originalSender, fromId, fromHash, toId, toHash, amount, docHash, data);\n        }\n        else if (RBBLib.isEqual(BNDES_PAY_SUPPLIER_VERIFICATION, specificMethod)) {\n            verifyAndActForTransfer_BNDES_PAY_SUPPLIER(originalSender, fromId, fromHash, toId, toHash, amount, docHash, data);\n        }\n        else if (RBBLib.isEqual(EXTRAORDINARY_TRANSFERS, specificMethod)) {\n            verifyAndActForTransfer_EXTRAORDINARY_TRANSFERS(originalSender, fromId, fromHash, toId, toHash, amount, docHash, data);\n        }\n        else {\n            require (false, \"Nenhuma verificao especfica encontrada para a transferncia\");\n        }\n\n    }\n\n    function verifyAndActForTransfer_INITIAL_ALLOCATION(address originalSender, uint fromId, bytes32 fromHash, uint toId, \n            bytes32 toHash, uint amount, bytes32 docHash, string[] memory data) internal whenNotPaused {\n\n        require (bndesRoles.responsibleForInitialAllocation() == originalSender, \n            \"Somente um responsvel pelas alocaes iniciais pode enviar a transao\");\n\n        uint ownerId = registry.getId(owner());\n        require (fromId == ownerId, \"Id de origem da transao no est igual ao do owner do contrato\");\n        require (fromHash == getCalculatedHash(RESERVED_MINTED_ACCOUNT), \"Hash de origem da transao no est correto\");\n\n        require (fromId == toId, \"Id de destino da transao no est igual ao do owner do contrato\");\n\n        if (toHash == getCalculatedHash(RESERVED_USUAL_DISBURSEMENTS_ACCOUNT)) {\n            emit FA_InitialAllocation_Disbursements(amount, docHash);\n        }\n        else if (toHash == getCalculatedHash(RESERVED_BNDES_ADMIN_FEE_TO_HASH)) {\n            emit FA_InitialAllocation_Fee(amount, docHash);\n        }\n        else {\n            require (false, \"Hash de destino no est correspondente a conta de desembolso ou de adm\");\n        }\n    }\n\n    function verifyAndActForTransfer_DISBURSEMENT(address originalSender, uint fromId, bytes32 fromHash, \n            uint toId, bytes32 toHash, uint amount, bytes32 docHash, string[] memory data) internal whenNotPaused {\n    \n        string memory idFinancialSupportAgreement = data[1];\n        uint ownerId = registry.getId(owner());\n\n        require (originalSender == bndesRoles.responsibleForDisbursement(), \n            \"Esta transao s pode ser executada pelo responsvel pelo desembolso\");\n\n        //Essa eh uma regra especifica visto que outra organizacao pode ter recebido o token no allocate.\n        require (fromId == ownerId, \"Id de origem da transao no est igual ao do owner do contrato\");\n        require (getCalculatedHash(RESERVED_USUAL_DISBURSEMENTS_ACCOUNT)==fromHash, \"Erro no clculo do hash da conta do BNDES\");\n        require (getCalculatedHash(idFinancialSupportAgreement)==toHash, \"Erro no clculo do hash da conta do cliente\");\n\n        addClient(toId, idFinancialSupportAgreement);\n\n        emit FA_Disbursement (toId, idFinancialSupportAgreement, amount, docHash);\n\n    }\n\n    function verifyAndActForTransfer_CLIENT_PAY_SUPPLIER(address originalSender, uint fromId, bytes32 fromHash, \n            uint toId, bytes32 toHash, uint amount, bytes32 docHash, string[] memory data) internal whenNotPaused {\n    \n        string memory idFinancialSupportAgreement = data[1];\n\n        //nao verifica o sender, dado que o esse contrato nao diferencia as contas do cliente\n\n        require (clients[fromId][idFinancialSupportAgreement], \"Somente clientes em contratos cadastrados podem executar o pagamento\");\n        require (getCalculatedHash(idFinancialSupportAgreement)==fromHash, \"Erro no clculo do hash da conta do cliente\");\n        require (getCalculatedHash(RESERVED_NO_ADDITIONAL_FIELDS_TO_SUPPLIER)==toHash, \"Erro no clculo do hash da conta do fornecedor\");\n\n        require(fromId != toId,\n            \"Um CNPJ no pode transferir token para si, ainda que em papis distintos (Cliente/Fornecedor)\");\n\n        if (!suppliers[toId]) {\n            suppliers[toId] = true; //register the supplier\n            emit FA_SupplierAdded(fromId, toId);\n        }\n\n        emit FA_TokenTransfer (fromId, idFinancialSupportAgreement, toId, amount, docHash);\n\n    }\n\n\n    function verifyAndActForTransfer_BNDES_PAY_SUPPLIER(address originalSender, uint fromId, bytes32 fromHash, \n            uint toId, bytes32 toHash, uint amount, bytes32 docHash, string[] memory data) internal whenNotPaused {\n\n        require (originalSender == bndesRoles.responsibleForDisbursement(), \n            \"Esta transao s pode ser executada pelo responsvel pelo desembolso\");\n\n        require (fromId==registry.getId(owner()), \"Somente o BNDES pode executar o pagamento\");\n        require (getCalculatedHash(RESERVED_BNDES_ADMIN_FEE_TO_HASH)==fromHash, \"Erro no clculo do hash da conta de admin do contrato especifico\");\n        require (getCalculatedHash(RESERVED_NO_ADDITIONAL_FIELDS_TO_SUPPLIER)==toHash, \"Erro no clculo do hash da conta do fornecedor\");\n\n        require(fromId != toId, \"Um BNDES no pode transferir token para si\");\n\n        emit FA_BNDES_TokenTransfer (toId, amount, docHash);\n\n    }\n\n    function verifyAndActForRedeem(address originalSender, uint fromId, bytes32 fromHash, uint amount, \n        bytes32 docHash, string[] memory data) public override whenNotPaused onlyRBBToken {\n\n        //nao verifica o sender, dado que o esse contrato nao diferencia as contas do fornecedor\n\n        require (amount>0, \"Valor a ser transacionado deve ser maior do que zero.\");\n        require (suppliers[fromId], \"Somente fornecedores podem executar o pagamento\");\n        require (getCalculatedHash(RESERVED_NO_ADDITIONAL_FIELDS_TO_SUPPLIER)==fromHash, \"Erro no clculo do hash da conta do fornecedor\");\n\n        emit FA_RedemptionRequested (fromId, amount, docHash);\n\n    }\n\n    function verifyAndActForRedemptionSettlement(bytes32 redemptionTransactionHash, bytes32 docHash, \n        string[] memory data)\n        public override whenNotPaused onlyRBBToken {\n\n        emit FA_RedemptionSettlement (redemptionTransactionHash, docHash);\n    }\n\n    modifier onlyRBBToken() {\n        require (msg.sender==address(rbbToken), \"Esse mtodo s pode ser chamado pelo RBB_Token\");\n        _;\n    }\n\n    \n    function getCalculatedHash (uint info) public view returns (bytes32) {\n        return keccak256(abi.encodePacked(info));\n    }\n\n    function getCalculatedHash (string memory info) public view returns (bytes32) {\n        return keccak256(abi.encodePacked(info));\n    }\n\n    function authorizeExtraordinaryTransfer (uint fromId, bytes32 fromHash, uint toId, bytes32 toHash, \n            uint amount, bytes32 docHash) public  {\n        \n        require (bndesRoles.resposibleForApproveExtraordinaryTransfers() == msg.sender, \n            \"Somente um responsvel pelas transferncias extraordinrias por enviar a transao\");  \n        require (hasRoleInThisContract(fromId, fromHash), \"Endereo de origem no includo como papel nesse cadastro\");\n        require (hasRoleInThisContract(toId, toHash), \"Endereo de destino no includo como papel nesse cadastro\");\n\n        bytes32 m = keccak256(abi.encodePacked(fromId, fromHash, toId, toHash, amount));\n        hashApprovedExtraordinaryTransfers.push(m);\n\n        emit FA_ExtraordinaryTransferAllowed (fromId, fromHash, toId, toHash, amount, docHash);\n\n    }\n   \n    function verifyAndActForTransfer_EXTRAORDINARY_TRANSFERS(address originalSender, uint fromId, bytes32 fromHash, \n            uint toId, bytes32 toHash, uint amount, bytes32 docHash, string[] memory data) internal whenNotPaused {\n\n        require (hasRoleInThisContract(fromId, fromHash), \"Endereo de origem no includo como papel nesse cadastro\");\n        require (hasRoleInThisContract(toId, toHash), \"Endereo de destino no includo como papel nesse cadastro\");\n\n        string memory idFinancialSupportAgreement = data[1];\n        bytes32 m = keccak256(abi.encodePacked(fromId, fromHash, toId, toHash, amount));\n\n        bool transferApproved = false;\n        uint index = 0;\n        for (; index<hashApprovedExtraordinaryTransfers.length; index++) {\n            if (hashApprovedExtraordinaryTransfers[index] == m) {\n                transferApproved = true;\n                break;\n            }\n        }\n\n        require (transferApproved, \"Interveno manual no previamente cadastrada\");\n\n        hashApprovedExtraordinaryTransfers[index] \n            = hashApprovedExtraordinaryTransfers [hashApprovedExtraordinaryTransfers.length-1];\n        hashApprovedExtraordinaryTransfers.pop();\n\n        emit FA_ExtraordinaryTransferExecuted (fromId, fromHash, toId, toHash, amount, docHash);\n\n    }\n\n//////////\n\n    function addDonor (uint idDonor) public onlyOwner {\n        require(registry.isValidatedId(idDonor), \"Conta de doador precisa estar com cadastro validado\");\n        if(!donors[idDonor]) {\n            donors[idDonor] = true;\n            emit FA_DonorAdded(idDonor);\n        }\n    }\n\n\n    function addClient (uint id, string memory idFinancialSupportAgreement) internal  {\n\n        if (!clients[id][idFinancialSupportAgreement]) {\n            clients[id][idFinancialSupportAgreement] = true; //register the client\n            emit FA_ClientAdded(id);\n\n        }\n    }\n\n\n    function addSupplier (uint id) public  {\n\n        require (msg.sender == bndesRoles.responsibleForDisbursement(), \"Esta transao s pode ser executada pelo responsvel pelo desembolso\");\n        if (!suppliers[id]) {\n            suppliers[id] = true; //register the supplier\n            emit FA_SupplierAdded(registry.getId(owner()), id);\n        }\n    }\n\n    function hasRoleInThisContract (uint rbbId, bytes32 hashToAccount) private returns (bool) {\n\n        bool hasRole = false;\n        if (donors[rbbId]==true) return true;\n\n//TODO: resolver -- preciso verificar se esse id jah estah cadastrado no mapping de clients.\n//        if (clients[rbbId]!=0) return true;\n        if (suppliers[rbbId]==true) return true;\n\n        uint ownerId = registry.getId(owner());\n        if (ownerId == rbbId) return true;\n\n        uint rbbTokenOwnerId = registry.getId(rbbToken.owner());\n        if (rbbTokenOwnerId == rbbId) return true;\n\n        return false;\n    }\n\n}",
  "sourcePath": "/Users/suzana.moreno/workspace/rbb-token/Back-Blockchain/contracts/FABndesToken.sol",
  "compiler": {
    "name": "solc",
    "version": "0.6.12+commit.27d51765.Emscripten.clang"
  },
  "schemaVersion": "3.2.5",
  "updatedAt": "2020-09-28T15:36:04.225Z",
  "networkType": "ethereum",
  "devdoc": {
    "kind": "dev",
    "methods": {
      "isOwner()": {
        "details": "Returns true if the caller is the current owner."
      },
      "owner()": {
        "details": "Returns the address of the current owner."
      },
      "pause()": {
        "details": "Called by a pauser to pause, triggers stopped state."
      },
      "paused()": {
        "details": "Returns true if the contract is paused, and false otherwise."
      },
      "renounceOwnership()": {
        "details": "Leaves the contract without owner. It will not be possible to call `onlyOwner` functions anymore. Can only be called by the current owner. NOTE: Renouncing ownership will leave the contract without an owner, thereby removing any functionality that is only available to the owner."
      },
      "transferOwnership(address)": {
        "details": "Transfers ownership of the contract to a new account (`newOwner`). Can only be called by the current owner."
      },
      "unpause()": {
        "details": "Called by a pauser to unpause, returns to normal state."
      }
    },
    "version": 1
  },
  "userdoc": {
    "kind": "user",
    "methods": {},
    "version": 1
  }
}