{
  "contractName": "FABndesToken",
  "abi": [
    {
      "inputs": [
        {
          "internalType": "uint256",
          "name": "fee",
          "type": "uint256"
        }
      ],
      "payable": false,
      "stateMutability": "nonpayable",
      "type": "constructor"
    },
    {
      "anonymous": false,
      "inputs": [
        {
          "indexed": false,
          "internalType": "uint256",
          "name": "id",
          "type": "uint256"
        }
      ],
      "name": "FAB_ClientAdded",
      "type": "event"
    },
    {
      "anonymous": false,
      "inputs": [
        {
          "indexed": false,
          "internalType": "uint256",
          "name": "idClient",
          "type": "uint256"
        },
        {
          "indexed": false,
          "internalType": "string",
          "name": "idFinancialSupportAgreement",
          "type": "string"
        },
        {
          "indexed": false,
          "internalType": "uint256",
          "name": "amount",
          "type": "uint256"
        }
      ],
      "name": "FAB_Disbursement",
      "type": "event"
    },
    {
      "anonymous": false,
      "inputs": [
        {
          "indexed": false,
          "internalType": "uint256",
          "name": "idDonor",
          "type": "uint256"
        },
        {
          "indexed": false,
          "internalType": "uint256",
          "name": "amount",
          "type": "uint256"
        },
        {
          "indexed": false,
          "internalType": "uint256",
          "name": "tokenToBeMinted",
          "type": "uint256"
        }
      ],
      "name": "FAB_DonationBooked",
      "type": "event"
    },
    {
      "anonymous": false,
      "inputs": [
        {
          "indexed": false,
          "internalType": "string",
          "name": "idDonor",
          "type": "string"
        },
        {
          "indexed": false,
          "internalType": "uint256",
          "name": "amount",
          "type": "uint256"
        },
        {
          "indexed": false,
          "internalType": "string",
          "name": "receiptHash",
          "type": "string"
        }
      ],
      "name": "FAB_DonationConfirmed",
      "type": "event"
    },
    {
      "anonymous": false,
      "inputs": [
        {
          "indexed": false,
          "internalType": "uint256",
          "name": "id",
          "type": "uint256"
        }
      ],
      "name": "FAB_DonorAdded",
      "type": "event"
    },
    {
      "anonymous": false,
      "inputs": [
        {
          "indexed": false,
          "internalType": "uint256",
          "name": "percent",
          "type": "uint256"
        },
        {
          "indexed": false,
          "internalType": "string",
          "name": "description",
          "type": "string"
        }
      ],
      "name": "FAB_ManualIntervention_Fee",
      "type": "event"
    },
    {
      "anonymous": false,
      "inputs": [
        {
          "indexed": false,
          "internalType": "uint256",
          "name": "idClaimer",
          "type": "uint256"
        },
        {
          "indexed": false,
          "internalType": "uint256",
          "name": "amount",
          "type": "uint256"
        }
      ],
      "name": "FAB_RedemptionRequested",
      "type": "event"
    },
    {
      "anonymous": false,
      "inputs": [
        {
          "indexed": false,
          "internalType": "string",
          "name": "redemptionTransactionHash",
          "type": "string"
        },
        {
          "indexed": false,
          "internalType": "string",
          "name": "receiptHash",
          "type": "string"
        }
      ],
      "name": "FAB_RedemptionSettlement",
      "type": "event"
    },
    {
      "anonymous": false,
      "inputs": [
        {
          "indexed": false,
          "internalType": "uint256",
          "name": "id",
          "type": "uint256"
        }
      ],
      "name": "FAB_SupplierAdded",
      "type": "event"
    },
    {
      "anonymous": false,
      "inputs": [
        {
          "indexed": false,
          "internalType": "uint256",
          "name": "fromCnpj",
          "type": "uint256"
        },
        {
          "indexed": false,
          "internalType": "string",
          "name": "fromIdFinancialSupportAgreement",
          "type": "string"
        },
        {
          "indexed": false,
          "internalType": "uint256",
          "name": "toCnpj",
          "type": "uint256"
        },
        {
          "indexed": false,
          "internalType": "uint256",
          "name": "amount",
          "type": "uint256"
        }
      ],
      "name": "FAB_TokenTransfer",
      "type": "event"
    },
    {
      "anonymous": false,
      "inputs": [
        {
          "indexed": true,
          "internalType": "address",
          "name": "previousOwner",
          "type": "address"
        },
        {
          "indexed": true,
          "internalType": "address",
          "name": "newOwner",
          "type": "address"
        }
      ],
      "name": "OwnershipTransferred",
      "type": "event"
    },
    {
      "anonymous": false,
      "inputs": [
        {
          "indexed": false,
          "internalType": "address",
          "name": "account",
          "type": "address"
        }
      ],
      "name": "Paused",
      "type": "event"
    },
    {
      "anonymous": false,
      "inputs": [
        {
          "indexed": true,
          "internalType": "address",
          "name": "account",
          "type": "address"
        }
      ],
      "name": "PauserAdded",
      "type": "event"
    },
    {
      "anonymous": false,
      "inputs": [
        {
          "indexed": true,
          "internalType": "address",
          "name": "account",
          "type": "address"
        }
      ],
      "name": "PauserRemoved",
      "type": "event"
    },
    {
      "anonymous": false,
      "inputs": [
        {
          "indexed": false,
          "internalType": "address",
          "name": "account",
          "type": "address"
        }
      ],
      "name": "Unpaused",
      "type": "event"
    },
    {
      "constant": true,
      "inputs": [],
      "name": "DISBURSEMENT_VERIFICATION",
      "outputs": [
        {
          "internalType": "string",
          "name": "",
          "type": "string"
        }
      ],
      "payable": false,
      "stateMutability": "view",
      "type": "function"
    },
    {
      "constant": true,
      "inputs": [],
      "name": "PAY_SUPPLIER_VERIFICATION",
      "outputs": [
        {
          "internalType": "string",
          "name": "",
          "type": "string"
        }
      ],
      "payable": false,
      "stateMutability": "view",
      "type": "function"
    },
    {
      "constant": true,
      "inputs": [],
      "name": "RESERVED_NO_ADDITIONAL_FIELD_TO_HASH",
      "outputs": [
        {
          "internalType": "uint8",
          "name": "",
          "type": "uint8"
        }
      ],
      "payable": false,
      "stateMutability": "view",
      "type": "function"
    },
    {
      "constant": false,
      "inputs": [
        {
          "internalType": "address",
          "name": "account",
          "type": "address"
        }
      ],
      "name": "addPauser",
      "outputs": [],
      "payable": false,
      "stateMutability": "nonpayable",
      "type": "function"
    },
    {
      "constant": true,
      "inputs": [],
      "name": "bndesFee",
      "outputs": [
        {
          "internalType": "uint256",
          "name": "",
          "type": "uint256"
        }
      ],
      "payable": false,
      "stateMutability": "view",
      "type": "function"
    },
    {
      "constant": true,
      "inputs": [
        {
          "internalType": "uint256",
          "name": "",
          "type": "uint256"
        },
        {
          "internalType": "string",
          "name": "",
          "type": "string"
        }
      ],
      "name": "clients",
      "outputs": [
        {
          "internalType": "bool",
          "name": "",
          "type": "bool"
        }
      ],
      "payable": false,
      "stateMutability": "view",
      "type": "function"
    },
    {
      "constant": true,
      "inputs": [],
      "name": "isOwner",
      "outputs": [
        {
          "internalType": "bool",
          "name": "",
          "type": "bool"
        }
      ],
      "payable": false,
      "stateMutability": "view",
      "type": "function"
    },
    {
      "constant": true,
      "inputs": [
        {
          "internalType": "address",
          "name": "account",
          "type": "address"
        }
      ],
      "name": "isPauser",
      "outputs": [
        {
          "internalType": "bool",
          "name": "",
          "type": "bool"
        }
      ],
      "payable": false,
      "stateMutability": "view",
      "type": "function"
    },
    {
      "constant": true,
      "inputs": [],
      "name": "owner",
      "outputs": [
        {
          "internalType": "address",
          "name": "",
          "type": "address"
        }
      ],
      "payable": false,
      "stateMutability": "view",
      "type": "function"
    },
    {
      "constant": false,
      "inputs": [],
      "name": "pause",
      "outputs": [],
      "payable": false,
      "stateMutability": "nonpayable",
      "type": "function"
    },
    {
      "constant": true,
      "inputs": [],
      "name": "paused",
      "outputs": [
        {
          "internalType": "bool",
          "name": "",
          "type": "bool"
        }
      ],
      "payable": false,
      "stateMutability": "view",
      "type": "function"
    },
    {
      "constant": true,
      "inputs": [],
      "name": "rbbToken",
      "outputs": [
        {
          "internalType": "contract RBBToken",
          "name": "",
          "type": "address"
        }
      ],
      "payable": false,
      "stateMutability": "view",
      "type": "function"
    },
    {
      "constant": true,
      "inputs": [],
      "name": "registry",
      "outputs": [
        {
          "internalType": "contract RBBRegistry",
          "name": "",
          "type": "address"
        }
      ],
      "payable": false,
      "stateMutability": "view",
      "type": "function"
    },
    {
      "constant": false,
      "inputs": [],
      "name": "renounceOwnership",
      "outputs": [],
      "payable": false,
      "stateMutability": "nonpayable",
      "type": "function"
    },
    {
      "constant": false,
      "inputs": [],
      "name": "renouncePauser",
      "outputs": [],
      "payable": false,
      "stateMutability": "nonpayable",
      "type": "function"
    },
    {
      "constant": false,
      "inputs": [
        {
          "internalType": "address",
          "name": "newRegistryAddr",
          "type": "address"
        },
        {
          "internalType": "address",
          "name": "newrbbTokenAddr",
          "type": "address"
        }
      ],
      "name": "setInitializationDataDuringRegistration",
      "outputs": [],
      "payable": false,
      "stateMutability": "nonpayable",
      "type": "function"
    },
    {
      "constant": false,
      "inputs": [
        {
          "internalType": "address",
          "name": "newOwner",
          "type": "address"
        }
      ],
      "name": "transferOwnership",
      "outputs": [],
      "payable": false,
      "stateMutability": "nonpayable",
      "type": "function"
    },
    {
      "constant": false,
      "inputs": [],
      "name": "unpause",
      "outputs": [],
      "payable": false,
      "stateMutability": "nonpayable",
      "type": "function"
    },
    {
      "constant": false,
      "inputs": [
        {
          "internalType": "uint256",
          "name": "newBndesFee",
          "type": "uint256"
        },
        {
          "internalType": "string",
          "name": "description",
          "type": "string"
        }
      ],
      "name": "setBNDESFee",
      "outputs": [],
      "payable": false,
      "stateMutability": "nonpayable",
      "type": "function"
    },
    {
      "constant": false,
      "inputs": [
        {
          "internalType": "uint256",
          "name": "idDonor",
          "type": "uint256"
        }
      ],
      "name": "addDonor",
      "outputs": [],
      "payable": false,
      "stateMutability": "nonpayable",
      "type": "function"
    },
    {
      "constant": false,
      "inputs": [
        {
          "internalType": "uint256",
          "name": "amount",
          "type": "uint256"
        }
      ],
      "name": "bookDonation",
      "outputs": [],
      "payable": false,
      "stateMutability": "nonpayable",
      "type": "function"
    },
    {
      "constant": false,
      "inputs": [
        {
          "internalType": "bytes32",
          "name": "specificHash",
          "type": "bytes32"
        },
        {
          "internalType": "uint256",
          "name": "amountMinted",
          "type": "uint256"
        },
        {
          "internalType": "string[]",
          "name": "data",
          "type": "string[]"
        },
        {
          "internalType": "string",
          "name": "docHash",
          "type": "string"
        }
      ],
      "name": "verifyAndActForMint",
      "outputs": [],
      "payable": false,
      "stateMutability": "nonpayable",
      "type": "function"
    },
    {
      "constant": true,
      "inputs": [
        {
          "internalType": "string",
          "name": "idFinancialSupportAgreement",
          "type": "string"
        }
      ],
      "name": "getDisbusementData",
      "outputs": [
        {
          "internalType": "bytes32",
          "name": "",
          "type": "bytes32"
        },
        {
          "internalType": "bytes32",
          "name": "",
          "type": "bytes32"
        },
        {
          "internalType": "string[]",
          "name": "",
          "type": "string[]"
        }
      ],
      "payable": false,
      "stateMutability": "view",
      "type": "function"
    },
    {
      "constant": true,
      "inputs": [
        {
          "internalType": "string",
          "name": "idFinancialSupportAgreement",
          "type": "string"
        }
      ],
      "name": "getPaySupplierData",
      "outputs": [
        {
          "internalType": "bytes32",
          "name": "",
          "type": "bytes32"
        },
        {
          "internalType": "bytes32",
          "name": "",
          "type": "bytes32"
        },
        {
          "internalType": "string[]",
          "name": "",
          "type": "string[]"
        }
      ],
      "payable": false,
      "stateMutability": "view",
      "type": "function"
    },
    {
      "constant": false,
      "inputs": [],
      "name": "getRedeemData",
      "outputs": [
        {
          "internalType": "bytes32",
          "name": "",
          "type": "bytes32"
        },
        {
          "internalType": "string[]",
          "name": "",
          "type": "string[]"
        }
      ],
      "payable": false,
      "stateMutability": "nonpayable",
      "type": "function"
    },
    {
      "constant": false,
      "inputs": [
        {
          "internalType": "uint256",
          "name": "fromId",
          "type": "uint256"
        },
        {
          "internalType": "bytes32",
          "name": "fromHash",
          "type": "bytes32"
        },
        {
          "internalType": "uint256",
          "name": "toId",
          "type": "uint256"
        },
        {
          "internalType": "bytes32",
          "name": "toHash",
          "type": "bytes32"
        },
        {
          "internalType": "uint256",
          "name": "amount",
          "type": "uint256"
        },
        {
          "internalType": "string[]",
          "name": "data",
          "type": "string[]"
        }
      ],
      "name": "verifyAndActForTransfer",
      "outputs": [],
      "payable": false,
      "stateMutability": "nonpayable",
      "type": "function"
    },
    {
      "constant": false,
      "inputs": [
        {
          "internalType": "uint256",
          "name": "fromId",
          "type": "uint256"
        },
        {
          "internalType": "bytes32",
          "name": "fromHash",
          "type": "bytes32"
        },
        {
          "internalType": "uint256",
          "name": "amount",
          "type": "uint256"
        },
        {
          "internalType": "string[]",
          "name": "data",
          "type": "string[]"
        }
      ],
      "name": "verifyAndActForRedeem",
      "outputs": [],
      "payable": false,
      "stateMutability": "nonpayable",
      "type": "function"
    },
    {
      "constant": false,
      "inputs": [
        {
          "internalType": "string",
          "name": "redemptionTransactionHash",
          "type": "string"
        },
        {
          "internalType": "string",
          "name": "receiptHash",
          "type": "string"
        },
        {
          "internalType": "string[]",
          "name": "data",
          "type": "string[]"
        }
      ],
      "name": "verifyAndActForRedemptionSettlement",
      "outputs": [],
      "payable": false,
      "stateMutability": "nonpayable",
      "type": "function"
    }
  ],
  "bytecode": "0x60806040526040518060400160405280601981526020017f44495342555253454d454e545f564552494649434154494f4e00000000000000815250600890805190602001906200005192919062000415565b506040518060400160405280601981526020017f5041595f535550504c4945525f564552494649434154494f4e00000000000000815250600990805190602001906200009f92919062000415565b506000600a60006101000a81548160ff021916908360ff160217905550348015620000c957600080fd5b5060405162004a9a38038062004a9a8339818101604052620000ef9190810190620004db565b6000620001016200022e60201b60201c565b9050806000806101000a81548173ffffffffffffffffffffffffffffffffffffffff021916908373ffffffffffffffffffffffffffffffffffffffff1602179055508073ffffffffffffffffffffffffffffffffffffffff16600073ffffffffffffffffffffffffffffffffffffffff167f8be0079c531659141344cd1fd0a4f28419497f9722a3daafe3b4186f6b6457e060405160405180910390a350620001bf620001b36200022e60201b60201c565b6200023660201b60201c565b6000600260006101000a81548160ff0219169083151502179055506064811062000220576040517f08c379a00000000000000000000000000000000000000000000000000000000081526004016200021790620005f3565b60405180910390fd5b80600781905550506200068e565b600033905090565b620002518160016200029760201b620027b61790919060201c565b8073ffffffffffffffffffffffffffffffffffffffff167f6719d08c1888103bea251a4ed56406bd0c3e69723c8a1686e017e7bbe159b6f860405160405180910390a250565b620002a982826200034a60201b60201c565b15620002ec576040517f08c379a0000000000000000000000000000000000000000000000000000000008152600401620002e39062000615565b60405180910390fd5b60018260000160008373ffffffffffffffffffffffffffffffffffffffff1673ffffffffffffffffffffffffffffffffffffffff16815260200190815260200160002060006101000a81548160ff0219169083151502179055505050565b60008073ffffffffffffffffffffffffffffffffffffffff168273ffffffffffffffffffffffffffffffffffffffff161415620003be576040517f08c379a0000000000000000000000000000000000000000000000000000000008152600401620003b59062000637565b60405180910390fd5b8260000160008373ffffffffffffffffffffffffffffffffffffffff1673ffffffffffffffffffffffffffffffffffffffff16815260200190815260200160002060009054906101000a900460ff16905092915050565b828054600181600116156101000203166002900490600052602060002090601f016020900481019282601f106200045857805160ff191683800117855562000489565b8280016001018555821562000489579182015b82811115620004885782518255916020019190600101906200046b565b5b5090506200049891906200049c565b5090565b620004c191905b80821115620004bd576000816000905550600101620004a3565b5090565b90565b600081519050620004d58162000674565b92915050565b600060208284031215620004ee57600080fd5b6000620004fe84828501620004c4565b91505092915050565b600062000516601b8362000659565b91507f56616c6f7220646520466565206d61696f7220717565203130302500000000006000830152602082019050919050565b600062000558601f8362000659565b91507f526f6c65733a206163636f756e7420616c72656164792068617320726f6c65006000830152602082019050919050565b60006200059a60228362000659565b91507f526f6c65733a206163636f756e7420697320746865207a65726f20616464726560008301527f73730000000000000000000000000000000000000000000000000000000000006020830152604082019050919050565b600060208201905081810360008301526200060e8162000507565b9050919050565b60006020820190508181036000830152620006308162000549565b9050919050565b6000602082019050818103600083015262000652816200058b565b9050919050565b600082825260208201905092915050565b6000819050919050565b6200067f816200066a565b81146200068b57600080fd5b50565b6143fc806200069e6000396000f3fe608060405234801561001057600080fd5b50600436106101c45760003560e01c80638e1b808a116100f9578063c596acc711610097578063daeb1cc911610071578063daeb1cc91461045e578063e4c7426f1461048e578063ee33b0bc146104ac578063f2fde38b146104de576101c4565b8063c596acc7146103f4578063c844488014610410578063c92f4eb014610442576101c4565b8063a5ed0edd116100d3578063a5ed0edd14610380578063a79a8b2d1461039e578063ad641da6146103ba578063bc007763146103d8576101c4565b80638e1b808a146103255780638e669481146103445780638f32d59b14610362576101c4565b80636ef8d66d116101665780637eabe58a116101405780637eabe58a146102c557806382dc1ec4146102e15780638456cb59146102fd5780638da5cb5b14610307576101c4565b80636ef8d66d14610293578063715018a61461029d5780637b103999146102a7576101c4565b80633f4ba83a116101a25780633f4ba83a1461021f57806346fbf68e146102295780635c975abb146102595780636b4dd41f14610277576101c4565b806317251ba9146101c957806320399741146101e55780633dfdcfab14610203575b600080fd5b6101e360048036036101de9190810190612c98565b6104fa565b005b6101ed6106b7565b6040516101fa9190613b6f565b60405180910390f35b61021d60048036036102189190810190612ac8565b610755565b005b6102276107db565b005b610243600480360361023e9190810190612a9f565b6108d4565b6040516102509190613ab0565b60405180910390f35b6102616108f1565b60405161026e9190613ab0565b60405180910390f35b610291600480360361028c9190810190612b2d565b610908565b005b61029b610aba565b005b6102a5610acc565b005b6102af610bd2565b6040516102bc9190613b39565b60405180910390f35b6102df60048036036102da9190810190612e5a565b610bf8565b005b6102fb60048036036102f69190810190612a9f565b610cc6565b005b610305610d21565b005b61030f610e1b565b60405161031c9190613a7a565b60405180910390f35b61032d610e44565b60405161033b929190613acb565b60405180910390f35b61034c610ec8565b6040516103599190613b6f565b60405180910390f35b61036a610f66565b6040516103779190613ab0565b60405180910390f35b610388610fc4565b60405161039591906140a4565b60405180910390f35b6103b860048036036103b39190810190612c98565b610fd7565b005b6103c2611368565b6040516103cf9190613f46565b60405180910390f35b6103f260048036036103ed9190810190612c01565b61136e565b005b61040e60048036036104099190810190612d65565b61148c565b005b61042a60048036036104259190810190612bc0565b611758565b60405161043993929190613afb565b60405180910390f35b61045c60048036036104579190810190612cea565b6118db565b005b61047860048036036104739190810190612e06565b611b14565b6040516104859190613ab0565b60405180910390f35b610496611b59565b6040516104a39190613b54565b60405180910390f35b6104c660048036036104c19190810190612bc0565b611b7f565b6040516104d593929190613afb565b60405180910390f35b6104f860048036036104f39190810190612a9f565b611d02565b005b610502610f66565b610541576040517f08c379a000000000000000000000000000000000000000000000000000000000815260040161053890613e86565b60405180910390fd5b600260019054906101000a900473ffffffffffffffffffffffffffffffffffffffff1673ffffffffffffffffffffffffffffffffffffffff1663613a7896826040518263ffffffff1660e01b815260040161059c9190613f46565b60206040518083038186803b1580156105b457600080fd5b505afa1580156105c8573d6000803e3d6000fd5b505050506040513d601f19601f820116820180604052506105ec9190810190612b04565b61062b576040517f08c379a000000000000000000000000000000000000000000000000000000000815260040161062290613de6565b60405180910390fd5b6004600082815260200190815260200160002060009054906101000a900460ff166106b45760016004600083815260200190815260200160002060006101000a81548160ff0219169083151502179055507f08044e7f9c4f2cdac918aa4492c1cc776789e8e089d7842b562924f4a618942b816040516106ab9190613f46565b60405180910390a15b50565b60098054600181600116156101000203166002900480601f01602080910402602001604051908101604052809291908181526020018280546001816001161561010002031660029004801561074d5780601f106107225761010080835404028352916020019161074d565b820191906000526020600020905b81548152906001019060200180831161073057829003601f168201915b505050505081565b81600260016101000a81548173ffffffffffffffffffffffffffffffffffffffff021916908373ffffffffffffffffffffffffffffffffffffffff16021790555080600360006101000a81548173ffffffffffffffffffffffffffffffffffffffff021916908373ffffffffffffffffffffffffffffffffffffffff1602179055505050565b6107eb6107e6611d55565b6108d4565b61082a576040517f08c379a000000000000000000000000000000000000000000000000000000000815260040161082190613cc6565b60405180910390fd5b600260009054906101000a900460ff16610879576040517f08c379a000000000000000000000000000000000000000000000000000000000815260040161087090613c86565b60405180910390fd5b6000600260006101000a81548160ff0219169083151502179055507f5db9ee0a495bf2e6ff9c91a7834c1ba4fdd244a5e8aa4e537bd38aeae4b073aa6108bd611d55565b6040516108ca9190613a95565b60405180910390a1565b60006108ea826001611d5d90919063ffffffff16565b9050919050565b6000600260009054906101000a900460ff16905090565b600260009054906101000a900460ff1615610958576040517f08c379a000000000000000000000000000000000000000000000000000000000815260040161094f90613dc6565b60405180910390fd5b600360009054906101000a900473ffffffffffffffffffffffffffffffffffffffff1673ffffffffffffffffffffffffffffffffffffffff163373ffffffffffffffffffffffffffffffffffffffff16146109e8576040517f08c379a00000000000000000000000000000000000000000000000000000000081526004016109df90613f06565b60405180910390fd5b83600a60009054906101000a900460ff16604051602001610a099190613a5f565b6040516020818303038152906040528051906020012014610a5f576040517f08c379a0000000000000000000000000000000000000000000000000000000008152600401610a5690613e26565b60405180910390fd5b606082600081518110610a6e57fe5b602002602001015190507f31ab1ae9d510aa5409e7f1ac2a963a65c193af11d91903ab4663bc3a87ec0d95818584604051610aab93929190613bea565b60405180910390a15050505050565b610aca610ac5611d55565b611e25565b565b610ad4610f66565b610b13576040517f08c379a0000000000000000000000000000000000000000000000000000000008152600401610b0a90613e86565b60405180910390fd5b600073ffffffffffffffffffffffffffffffffffffffff166000809054906101000a900473ffffffffffffffffffffffffffffffffffffffff1673ffffffffffffffffffffffffffffffffffffffff167f8be0079c531659141344cd1fd0a4f28419497f9722a3daafe3b4186f6b6457e060405160405180910390a360008060006101000a81548173ffffffffffffffffffffffffffffffffffffffff021916908373ffffffffffffffffffffffffffffffffffffffff160217905550565b600260019054906101000a900473ffffffffffffffffffffffffffffffffffffffff1681565b610c00610f66565b610c3f576040517f08c379a0000000000000000000000000000000000000000000000000000000008152600401610c3690613e86565b60405180910390fd5b60648210610c82576040517f08c379a0000000000000000000000000000000000000000000000000000000008152600401610c7990613c66565b60405180910390fd5b816007819055507f1103447bc30f6ba88fbfedbc3f0d4da64dd9f3ab04d57b2dc39920afbb3dbed78282604051610cba929190613f8a565b60405180910390a15050565b610cd6610cd1611d55565b6108d4565b610d15576040517f08c379a0000000000000000000000000000000000000000000000000000000008152600401610d0c90613cc6565b60405180910390fd5b610d1e81611e7f565b50565b610d31610d2c611d55565b6108d4565b610d70576040517f08c379a0000000000000000000000000000000000000000000000000000000008152600401610d6790613cc6565b60405180910390fd5b600260009054906101000a900460ff1615610dc0576040517f08c379a0000000000000000000000000000000000000000000000000000000008152600401610db790613dc6565b60405180910390fd5b6001600260006101000a81548160ff0219169083151502179055507f62e78cea01bee320cd4e420270b5ea74000d11b0c9f74754ebdbfc544b05a258610e04611d55565b604051610e119190613a95565b60405180910390a1565b60008060009054906101000a900473ffffffffffffffffffffffffffffffffffffffff16905090565b600060606000600a60009054906101000a900460ff16604051602001610e6a9190613a5f565b60405160208183030381529060405280519060200120905060606000604051908082528060200260200182016040528015610eb957816020015b6060815260200190600190039081610ea45790505b50905081819350935050509091565b60088054600181600116156101000203166002900480601f016020809104026020016040519081016040528092919081815260200182805460018160011615610100020316600290048015610f5e5780601f10610f3357610100808354040283529160200191610f5e565b820191906000526020600020905b815481529060010190602001808311610f4157829003601f168201915b505050505081565b60008060009054906101000a900473ffffffffffffffffffffffffffffffffffffffff1673ffffffffffffffffffffffffffffffffffffffff16610fa8611d55565b73ffffffffffffffffffffffffffffffffffffffff1614905090565b600a60009054906101000a900460ff1681565b600260009054906101000a900460ff1615611027576040517f08c379a000000000000000000000000000000000000000000000000000000000815260040161101e90613dc6565b60405180910390fd5b6000600260019054906101000a900473ffffffffffffffffffffffffffffffffffffffff1673ffffffffffffffffffffffffffffffffffffffff166365f68c89336040518263ffffffff1660e01b81526004016110849190613a95565b60206040518083038186803b15801561109c57600080fd5b505afa1580156110b0573d6000803e3d6000fd5b505050506040513d601f19601f820116820180604052506110d49190810190612cc1565b90506004600082815260200190815260200160002060009054906101000a900460ff16611136576040517f08c379a000000000000000000000000000000000000000000000000000000000815260040161112d90613e46565b60405180910390fd5b600260019054906101000a900473ffffffffffffffffffffffffffffffffffffffff1673ffffffffffffffffffffffffffffffffffffffff1663613a7896826040518263ffffffff1660e01b81526004016111919190613f46565b60206040518083038186803b1580156111a957600080fd5b505afa1580156111bd573d6000803e3d6000fd5b505050506040513d601f19601f820116820180604052506111e19190810190612b04565b611220576040517f08c379a000000000000000000000000000000000000000000000000000000000815260040161121790613de6565b60405180910390fd5b6000600a60009054906101000a900460ff166040516020016112429190613a5f565b6040516020818303038152906040528051906020012090506000611296611287606461127960075488611ed990919063ffffffff16565b611f4990919063ffffffff16565b85611f9390919063ffffffff16565b9050600360009054906101000a900473ffffffffffffffffffffffffffffffffffffffff1673ffffffffffffffffffffffffffffffffffffffff16636db5c85382846040518363ffffffff1660e01b81526004016112f5929190613f61565b600060405180830381600087803b15801561130f57600080fd5b505af1158015611323573d6000803e3d6000fd5b505050507f4716bce0aaccc2d15aecf904ea39be1f0feaec7f7dc322fbe7b66d51613adc5983858360405161135a9392919061406d565b60405180910390a150505050565b60075481565b600260009054906101000a900460ff16156113be576040517f08c379a00000000000000000000000000000000000000000000000000000000081526004016113b590613dc6565b60405180910390fd5b600360009054906101000a900473ffffffffffffffffffffffffffffffffffffffff1673ffffffffffffffffffffffffffffffffffffffff163373ffffffffffffffffffffffffffffffffffffffff161461144e576040517f08c379a000000000000000000000000000000000000000000000000000000000815260040161144590613f06565b60405180910390fd5b7fc75da8a12c37cbcbeb6c6300129c25471f8823b1d8dddf5593a1a38fe5497030838360405161147f929190613bb3565b60405180910390a1505050565b600260009054906101000a900460ff16156114dc576040517f08c379a00000000000000000000000000000000000000000000000000000000081526004016114d390613dc6565b60405180910390fd5b600360009054906101000a900473ffffffffffffffffffffffffffffffffffffffff1673ffffffffffffffffffffffffffffffffffffffff163373ffffffffffffffffffffffffffffffffffffffff161461156c576040517f08c379a000000000000000000000000000000000000000000000000000000000815260040161156390613f06565b60405180910390fd5b60608160008151811061157b57fe5b60200260200101519050600083116115c8576040517f08c379a00000000000000000000000000000000000000000000000000000000081526004016115bf90613d86565b60405180910390fd5b73__RBBLib________________________________63465c41056008836040518363ffffffff1660e01b8152600401611602929190613c2f565b60206040518083038186803b15801561161a57600080fd5b505af415801561162e573d6000803e3d6000fd5b505050506040513d601f19601f820116820180604052506116529190810190612b04565b1561166a57611665878787878787611fdd565b61174f565b73__RBBLib________________________________63465c41056009836040518363ffffffff1660e01b81526004016116a4929190613c2f565b60206040518083038186803b1580156116bc57600080fd5b505af41580156116d0573d6000803e3d6000fd5b505050506040513d601f19601f820116820180604052506116f49190810190612b04565b1561170c5761170787878787878761230b565b61174e565b600061174d576040517f08c379a000000000000000000000000000000000000000000000000000000000815260040161174490613ec6565b60405180910390fd5b5b5b50505050505050565b60008060606000846040516020016117709190613a48565b6040516020818303038152906040528051906020012090506000600a60009054906101000a900460ff166040516020016117aa9190613a5f565b604051602081830303815290604052805190602001209050606060026040519080825280602002602001820160405280156117f957816020015b60608152602001906001900390816117e45790505b50905060098054600181600116156101000203166002900480601f0160208091040260200160405190810160405280929190818152602001828054600181600116156101000203166002900480156118925780601f1061186757610100808354040283529160200191611892565b820191906000526020600020905b81548152906001019060200180831161187557829003601f168201915b5050505050816000815181106118a457fe5b602002602001018190525086816001815181106118bd57fe5b60200260200101819052508282829550955095505050509193909250565b600260009054906101000a900460ff161561192b576040517f08c379a000000000000000000000000000000000000000000000000000000000815260040161192290613dc6565b60405180910390fd5b600360009054906101000a900473ffffffffffffffffffffffffffffffffffffffff1673ffffffffffffffffffffffffffffffffffffffff163373ffffffffffffffffffffffffffffffffffffffff16146119bb576040517f08c379a00000000000000000000000000000000000000000000000000000000081526004016119b290613f06565b60405180910390fd5b600082116119fe576040517f08c379a00000000000000000000000000000000000000000000000000000000081526004016119f590613d86565b60405180910390fd5b6006600085815260200190815260200160002060009054906101000a900460ff16611a5e576040517f08c379a0000000000000000000000000000000000000000000000000000000008152600401611a5590613d66565b60405180910390fd5b82600a60009054906101000a900460ff16604051602001611a7f9190613a5f565b6040516020818303038152906040528051906020012014611ad5576040517f08c379a0000000000000000000000000000000000000000000000000000000008152600401611acc90613da6565b60405180910390fd5b7f2fd5a0ee062501fdb2c46bb6b704c69d6929f478e0ab8801344c410c059a5d708483604051611b06929190614044565b60405180910390a150505050565b6005602052816000526040600020818051602081018201805184825260208301602085012081835280955050505050506000915091509054906101000a900460ff1681565b600360009054906101000a900473ffffffffffffffffffffffffffffffffffffffff1681565b60008060606000600a60009054906101000a900460ff16604051602001611ba69190613a5f565b604051602081830303815290604052805190602001209050600085604051602001611bd19190613a48565b60405160208183030381529060405280519060200120905060606002604051908082528060200260200182016040528015611c2057816020015b6060815260200190600190039081611c0b5790505b50905060088054600181600116156101000203166002900480601f016020809104026020016040519081016040528092919081815260200182805460018160011615610100020316600290048015611cb95780601f10611c8e57610100808354040283529160200191611cb9565b820191906000526020600020905b815481529060010190602001808311611c9c57829003601f168201915b505050505081600081518110611ccb57fe5b60200260200101819052508681600181518110611ce457fe5b60200260200101819052508282829550955095505050509193909250565b611d0a610f66565b611d49576040517f08c379a0000000000000000000000000000000000000000000000000000000008152600401611d4090613e86565b60405180910390fd5b611d52816125e1565b50565b600033905090565b60008073ffffffffffffffffffffffffffffffffffffffff168273ffffffffffffffffffffffffffffffffffffffff161415611dce576040517f08c379a0000000000000000000000000000000000000000000000000000000008152600401611dc590613ea6565b60405180910390fd5b8260000160008373ffffffffffffffffffffffffffffffffffffffff1673ffffffffffffffffffffffffffffffffffffffff16815260200190815260200160002060009054906101000a900460ff16905092915050565b611e3981600161270f90919063ffffffff16565b8073ffffffffffffffffffffffffffffffffffffffff167fcd265ebaf09df2871cc7bd4133404a235ba12eff2041bb89d9c714a2621c7c7e60405160405180910390a250565b611e938160016127b690919063ffffffff16565b8073ffffffffffffffffffffffffffffffffffffffff167f6719d08c1888103bea251a4ed56406bd0c3e69723c8a1686e017e7bbe159b6f860405160405180910390a250565b600080831415611eec5760009050611f43565b6000828402905082848281611efd57fe5b0414611f3e576040517f08c379a0000000000000000000000000000000000000000000000000000000008152600401611f3590613e66565b60405180910390fd5b809150505b92915050565b6000611f8b83836040518060400160405280601a81526020017f536166654d6174683a206469766973696f6e206279207a65726f00000000000081525061285e565b905092915050565b6000611fd583836040518060400160405280601e81526020017f536166654d6174683a207375627472616374696f6e206f766572666c6f7700008152506128bf565b905092915050565b600260009054906101000a900460ff161561202d576040517f08c379a000000000000000000000000000000000000000000000000000000000815260040161202490613dc6565b60405180910390fd5b60608160018151811061203c57fe5b60200260200101519050600360009054906101000a900473ffffffffffffffffffffffffffffffffffffffff1673ffffffffffffffffffffffffffffffffffffffff16634a47f5996040518163ffffffff1660e01b815260040160206040518083038186803b1580156120ae57600080fd5b505afa1580156120c2573d6000803e3d6000fd5b505050506040513d601f19601f820116820180604052506120e69190810190612cc1565b8714612127576040517f08c379a000000000000000000000000000000000000000000000000000000000815260040161211e90613ee6565b60405180910390fd5b85600a60009054906101000a900460ff166040516020016121489190613a5f565b604051602081830303815290604052805190602001201461219e576040517f08c379a000000000000000000000000000000000000000000000000000000000815260040161219590613d46565b60405180910390fd5b83816040516020016121b09190613a48565b6040516020818303038152906040528051906020012014612206576040517f08c379a00000000000000000000000000000000000000000000000000000000081526004016121fd90613f26565b60405180910390fd5b60056000868152602001908152602001600020816040516122279190613a48565b908152602001604051809103902060009054906101000a900460ff166122c7576001600560008781526020019081526020016000208260405161226a9190613a48565b908152602001604051809103902060006101000a81548160ff0219169083151502179055507f8804556606fb7b282ce5882c38d843e5ff639c7ee76b1e6c949c3eff6130bc96856040516122be9190613f46565b60405180910390a15b7f73e4390f043eb6bc4a3384ab7f5e3bab6083ad345fce181eb17ffc46ea049e098582856040516122fa93929190613fba565b60405180910390a150505050505050565b600260009054906101000a900460ff161561235b576040517f08c379a000000000000000000000000000000000000000000000000000000000815260040161235290613dc6565b60405180910390fd5b60608160018151811061236a57fe5b6020026020010151905060056000888152602001908152602001600020816040516123959190613a48565b908152602001604051809103902060009054906101000a900460ff166123f0576040517f08c379a00000000000000000000000000000000000000000000000000000000081526004016123e790613ce6565b60405180910390fd5b85816040516020016124029190613a48565b6040516020818303038152906040528051906020012014612458576040517f08c379a000000000000000000000000000000000000000000000000000000000815260040161244f90613f26565b60405180910390fd5b85600a60009054906101000a900460ff166040516020016124799190613a5f565b60405160208183030381529060405280519060200120146124cf576040517f08c379a00000000000000000000000000000000000000000000000000000000081526004016124c690613da6565b60405180910390fd5b84871415612512576040517f08c379a000000000000000000000000000000000000000000000000000000000815260040161250990613d26565b60405180910390fd5b6006600086815260200190815260200160002060009054906101000a900460ff1661259b5760016006600087815260200190815260200160002060006101000a81548160ff0219169083151502179055507f260198a8d43318932fecae0fe84bef78d7ba082e4631d3f2600f30b4acce139b876040516125929190613f46565b60405180910390a15b7f481b2c29b026f3f570a045f6e81485989ac37b52aa91e33c4f04ef70b2ba3d7b878287866040516125d09493929190613ff8565b60405180910390a150505050505050565b600073ffffffffffffffffffffffffffffffffffffffff168173ffffffffffffffffffffffffffffffffffffffff161415612651576040517f08c379a000000000000000000000000000000000000000000000000000000000815260040161264890613d06565b60405180910390fd5b8073ffffffffffffffffffffffffffffffffffffffff166000809054906101000a900473ffffffffffffffffffffffffffffffffffffffff1673ffffffffffffffffffffffffffffffffffffffff167f8be0079c531659141344cd1fd0a4f28419497f9722a3daafe3b4186f6b6457e060405160405180910390a3806000806101000a81548173ffffffffffffffffffffffffffffffffffffffff021916908373ffffffffffffffffffffffffffffffffffffffff16021790555050565b6127198282611d5d565b612758576040517f08c379a000000000000000000000000000000000000000000000000000000000815260040161274f90613e06565b60405180910390fd5b60008260000160008373ffffffffffffffffffffffffffffffffffffffff1673ffffffffffffffffffffffffffffffffffffffff16815260200190815260200160002060006101000a81548160ff0219169083151502179055505050565b6127c08282611d5d565b15612800576040517f08c379a00000000000000000000000000000000000000000000000000000000081526004016127f790613ca6565b60405180910390fd5b60018260000160008373ffffffffffffffffffffffffffffffffffffffff1673ffffffffffffffffffffffffffffffffffffffff16815260200190815260200160002060006101000a81548160ff0219169083151502179055505050565b600080831182906128a5576040517f08c379a000000000000000000000000000000000000000000000000000000000815260040161289c9190613b91565b60405180910390fd5b5060008385816128b157fe5b049050809150509392505050565b6000838311158290612907576040517f08c379a00000000000000000000000000000000000000000000000000000000081526004016128fe9190613b91565b60405180910390fd5b5060008385039050809150509392505050565b6000813590506129298161435d565b92915050565b600082601f83011261294057600080fd5b813561295361294e826140ec565b6140bf565b9150818183526020840193506020810190508360005b83811015612999578135860161297f88826129cd565b845260208401935060208301925050600181019050612969565b5050505092915050565b6000815190506129b281614374565b92915050565b6000813590506129c78161438b565b92915050565b600082601f8301126129de57600080fd5b81356129f16129ec82614114565b6140bf565b91508082526020830160208301858383011115612a0d57600080fd5b612a188382846142eb565b50505092915050565b600082601f830112612a3257600080fd5b8135612a45612a4082614140565b6140bf565b91508082526020830160208301858383011115612a6157600080fd5b612a6c8382846142eb565b50505092915050565b600081359050612a84816143a2565b92915050565b600081519050612a99816143a2565b92915050565b600060208284031215612ab157600080fd5b6000612abf8482850161291a565b91505092915050565b60008060408385031215612adb57600080fd5b6000612ae98582860161291a565b9250506020612afa8582860161291a565b9150509250929050565b600060208284031215612b1657600080fd5b6000612b24848285016129a3565b91505092915050565b60008060008060808587031215612b4357600080fd5b6000612b51878288016129b8565b9450506020612b6287828801612a75565b935050604085013567ffffffffffffffff811115612b7f57600080fd5b612b8b8782880161292f565b925050606085013567ffffffffffffffff811115612ba857600080fd5b612bb487828801612a21565b91505092959194509250565b600060208284031215612bd257600080fd5b600082013567ffffffffffffffff811115612bec57600080fd5b612bf884828501612a21565b91505092915050565b600080600060608486031215612c1657600080fd5b600084013567ffffffffffffffff811115612c3057600080fd5b612c3c86828701612a21565b935050602084013567ffffffffffffffff811115612c5957600080fd5b612c6586828701612a21565b925050604084013567ffffffffffffffff811115612c8257600080fd5b612c8e8682870161292f565b9150509250925092565b600060208284031215612caa57600080fd5b6000612cb884828501612a75565b91505092915050565b600060208284031215612cd357600080fd5b6000612ce184828501612a8a565b91505092915050565b60008060008060808587031215612d0057600080fd5b6000612d0e87828801612a75565b9450506020612d1f878288016129b8565b9350506040612d3087828801612a75565b925050606085013567ffffffffffffffff811115612d4d57600080fd5b612d598782880161292f565b91505092959194509250565b60008060008060008060c08789031215612d7e57600080fd5b6000612d8c89828a01612a75565b9650506020612d9d89828a016129b8565b9550506040612dae89828a01612a75565b9450506060612dbf89828a016129b8565b9350506080612dd089828a01612a75565b92505060a087013567ffffffffffffffff811115612ded57600080fd5b612df989828a0161292f565b9150509295509295509295565b60008060408385031215612e1957600080fd5b6000612e2785828601612a75565b925050602083013567ffffffffffffffff811115612e4457600080fd5b612e50858286016129cd565b9150509250929050565b60008060408385031215612e6d57600080fd5b6000612e7b85828601612a75565b925050602083013567ffffffffffffffff811115612e9857600080fd5b612ea485828601612a21565b9150509250929050565b6000612eba8383613034565b905092915050565b612ecb8161426d565b82525050565b612eda8161420e565b82525050565b6000612eeb82614191565b612ef581856141bf565b935083602082028501612f078561416c565b8060005b85811015612f435784840389528151612f248582612eae565b9450612f2f836141b2565b925060208a01995050600181019050612f0b565b50829750879550505050505092915050565b612f5e81614220565b82525050565b612f6d8161422c565b82525050565b612f7c8161427f565b82525050565b612f8b816142a3565b82525050565b6000612f9c826141a7565b612fa681856141e1565b9350612fb68185602086016142fa565b612fbf8161433f565b840191505092915050565b6000612fd5826141a7565b612fdf81856141f2565b9350612fef8185602086016142fa565b612ff88161433f565b840191505092915050565b600061300e826141a7565b6130188185614203565b93506130288185602086016142fa565b80840191505092915050565b600061303f8261419c565b61304981856141d0565b93506130598185602086016142fa565b6130628161433f565b840191505092915050565b60006130788261419c565b61308281856141e1565b93506130928185602086016142fa565b61309b8161433f565b840191505092915050565b6000815460018116600081146130c357600181146130e95761312d565b607f60028304166130d481876141f2565b955060ff19831686526020860193505061312d565b600282046130f781876141f2565b95506131028561417c565b60005b8281101561312457815481890152600182019150602081019050613105565b80880195505050505b505092915050565b6000613142601b836141e1565b91507f56616c6f7220646520466565206d61696f7220717565203130302500000000006000830152602082019050919050565b60006131826014836141e1565b91507f5061757361626c653a206e6f74207061757365640000000000000000000000006000830152602082019050919050565b60006131c2601f836141e1565b91507f526f6c65733a206163636f756e7420616c72656164792068617320726f6c65006000830152602082019050919050565b60006132026030836141e1565b91507f506175736572526f6c653a2063616c6c657220646f6573206e6f74206861766560008301527f207468652050617573657220726f6c65000000000000000000000000000000006020830152604082019050919050565b60006132686044836141e1565b91507f536f6d656e746520636c69656e74657320656d20636f6e747261746f7320636160008301527f646173747261646f7320706f64656d206578656375746172206f20706167616d60208301527f656e746f000000000000000000000000000000000000000000000000000000006040830152606082019050919050565b60006132f46026836141e1565b91507f4f776e61626c653a206e6577206f776e657220697320746865207a65726f206160008301527f64647265737300000000000000000000000000000000000000000000000000006020830152604082019050919050565b600061335a605f836141e1565b91507f556d20434e504a206ec3a36f20706f6465207472616e73666572697220746f6b60008301527f656e20706172612073692c2061696e64612071756520656d20706170c3a9697360208301527f2064697374696e746f732028436c69656e74652f466f726e656365646f7229006040830152606082019050919050565b60006133e6602a836141e1565b91507f4572726f206e6f2063c3a16c63756c6f20646f206861736820646120636f6e7460008301527f6120646f20424e444553000000000000000000000000000000000000000000006020830152604082019050919050565b600061344c602f836141e1565b91507f536f6d656e746520666f726e656365646f72657320706f64656d20657865637560008301527f746172206f20706167616d656e746f00000000000000000000000000000000006020830152604082019050919050565b60006134b26035836141e1565b91507f56616c6f72206120736572207472616e736163696f6e61646f2064657665207360008301527f6572206d61696f7220646f20717565207a65726f2e00000000000000000000006020830152604082019050919050565b6000613518602f836141e1565b91507f4572726f206e6f2063c3a16c63756c6f20646f206861736820646120636f6e7460008301527f6120646f20666f726e656365646f7200000000000000000000000000000000006020830152604082019050919050565b600061357e6010836141e1565b91507f5061757361626c653a20706175736564000000000000000000000000000000006000830152602082019050919050565b60006135be6033836141e1565b91507f436f6e746120646520646f61646f72207072656369736120657374617220636f60008301527f6d20636164617374726f2076616c696461646f000000000000000000000000006020830152604082019050919050565b60006136246021836141e1565b91507f526f6c65733a206163636f756e7420646f6573206e6f74206861766520726f6c60008301527f65000000000000000000000000000000000000000000000000000000000000006020830152604082019050919050565b600061368a6024836141e1565b91507f4572726f206e6f2063c3a16c63756c6f20646f206861736820646120646f61c360008301527fa7c3a36f000000000000000000000000000000000000000000000000000000006020830152604082019050919050565b60006136f06026836141e1565b91507f536f6d656e746520646f61646f72657320706f64656d2066617a657220646f6160008301527fc3a7c3b5657300000000000000000000000000000000000000000000000000006020830152604082019050919050565b60006137566021836141e1565b91507f536166654d6174683a206d756c7469706c69636174696f6e206f766572666c6f60008301527f77000000000000000000000000000000000000000000000000000000000000006020830152604082019050919050565b60006137bc6020836141e1565b91507f4f776e61626c653a2063616c6c6572206973206e6f7420746865206f776e65726000830152602082019050919050565b60006137fc6022836141e1565b91507f526f6c65733a206163636f756e7420697320746865207a65726f20616464726560008301527f73730000000000000000000000000000000000000000000000000000000000006020830152604082019050919050565b60006138626042836141e1565b91507f4e656e68756d61207665726966696361c3a7c3a36f206573706563c3ad66696360008301527f6120656e636f6e747261646120706172612061207472616e73666572c3aa6e6360208301527f69610000000000000000000000000000000000000000000000000000000000006040830152606082019050919050565b60006138ee603c836141e1565b91507f526573706f6e73c3a176656c2070656c61206c6962657261c3a7c3a36f20646560008301527f207265637572736f73206ec3a36f20657374c3a120636f727265746f000000006020830152604082019050919050565b60006139546030836141e1565b91507f45737365206dc3a9746f646f2073c3b320706f646520736572206368616d616460008301527f6f2070656c6f205242425f546f6b656e000000000000000000000000000000006020830152604082019050919050565b60006139ba602c836141e1565b91507f4572726f206e6f2063c3a16c63756c6f20646f206861736820646120636f6e7460008301527f6120646f20636c69656e746500000000000000000000000000000000000000006020830152604082019050919050565b613a1c81614256565b82525050565b613a2b81614260565b82525050565b613a42613a3d82614260565b61432d565b82525050565b6000613a548284613003565b915081905092915050565b6000613a6b8284613a31565b60018201915081905092915050565b6000602082019050613a8f6000830184612ed1565b92915050565b6000602082019050613aaa6000830184612ec2565b92915050565b6000602082019050613ac56000830184612f55565b92915050565b6000604082019050613ae06000830185612f64565b8181036020830152613af28184612ee0565b90509392505050565b6000606082019050613b106000830186612f64565b613b1d6020830185612f64565b8181036040830152613b2f8184612ee0565b9050949350505050565b6000602082019050613b4e6000830184612f73565b92915050565b6000602082019050613b696000830184612f82565b92915050565b60006020820190508181036000830152613b89818461306d565b905092915050565b60006020820190508181036000830152613bab8184612f91565b905092915050565b60006040820190508181036000830152613bcd8185612f91565b90508181036020830152613be18184612f91565b90509392505050565b60006060820190508181036000830152613c048186612f91565b9050613c136020830185613a13565b8181036040830152613c258184612f91565b9050949350505050565b60006040820190508181036000830152613c4981856130a6565b90508181036020830152613c5d8184612fca565b90509392505050565b60006020820190508181036000830152613c7f81613135565b9050919050565b60006020820190508181036000830152613c9f81613175565b9050919050565b60006020820190508181036000830152613cbf816131b5565b9050919050565b60006020820190508181036000830152613cdf816131f5565b9050919050565b60006020820190508181036000830152613cff8161325b565b9050919050565b60006020820190508181036000830152613d1f816132e7565b9050919050565b60006020820190508181036000830152613d3f8161334d565b9050919050565b60006020820190508181036000830152613d5f816133d9565b9050919050565b60006020820190508181036000830152613d7f8161343f565b9050919050565b60006020820190508181036000830152613d9f816134a5565b9050919050565b60006020820190508181036000830152613dbf8161350b565b9050919050565b60006020820190508181036000830152613ddf81613571565b9050919050565b60006020820190508181036000830152613dff816135b1565b9050919050565b60006020820190508181036000830152613e1f81613617565b9050919050565b60006020820190508181036000830152613e3f8161367d565b9050919050565b60006020820190508181036000830152613e5f816136e3565b9050919050565b60006020820190508181036000830152613e7f81613749565b9050919050565b60006020820190508181036000830152613e9f816137af565b9050919050565b60006020820190508181036000830152613ebf816137ef565b9050919050565b60006020820190508181036000830152613edf81613855565b9050919050565b60006020820190508181036000830152613eff816138e1565b9050919050565b60006020820190508181036000830152613f1f81613947565b9050919050565b60006020820190508181036000830152613f3f816139ad565b9050919050565b6000602082019050613f5b6000830184613a13565b92915050565b6000604082019050613f766000830185613a13565b613f836020830184612f64565b9392505050565b6000604082019050613f9f6000830185613a13565b8181036020830152613fb18184612f91565b90509392505050565b6000606082019050613fcf6000830186613a13565b8181036020830152613fe18185612f91565b9050613ff06040830184613a13565b949350505050565b600060808201905061400d6000830187613a13565b818103602083015261401f8186612f91565b905061402e6040830185613a13565b61403b6060830184613a13565b95945050505050565b60006040820190506140596000830185613a13565b6140666020830184613a13565b9392505050565b60006060820190506140826000830186613a13565b61408f6020830185613a13565b61409c6040830184613a13565b949350505050565b60006020820190506140b96000830184613a22565b92915050565b6000604051905081810181811067ffffffffffffffff821117156140e257600080fd5b8060405250919050565b600067ffffffffffffffff82111561410357600080fd5b602082029050602081019050919050565b600067ffffffffffffffff82111561412b57600080fd5b601f19601f8301169050602081019050919050565b600067ffffffffffffffff82111561415757600080fd5b601f19601f8301169050602081019050919050565b6000819050602082019050919050565b60008190508160005260206000209050919050565b600081519050919050565b600081519050919050565b600081519050919050565b6000602082019050919050565b600082825260208201905092915050565b600082825260208201905092915050565b600082825260208201905092915050565b600082825260208201905092915050565b600081905092915050565b600061421982614236565b9050919050565b60008115159050919050565b6000819050919050565b600073ffffffffffffffffffffffffffffffffffffffff82169050919050565b6000819050919050565b600060ff82169050919050565b6000614278826142c7565b9050919050565b600061428a82614291565b9050919050565b600061429c82614236565b9050919050565b60006142ae826142b5565b9050919050565b60006142c082614236565b9050919050565b60006142d2826142d9565b9050919050565b60006142e482614236565b9050919050565b82818337600083830152505050565b60005b838110156143185780820151818401526020810190506142fd565b83811115614327576000848401525b50505050565b600061433882614350565b9050919050565b6000601f19601f8301169050919050565b60008160f81b9050919050565b6143668161420e565b811461437157600080fd5b50565b61437d81614220565b811461438857600080fd5b50565b6143948161422c565b811461439f57600080fd5b50565b6143ab81614256565b81146143b657600080fd5b5056fea365627a7a72315820bea43bfd99e12723da28ab449aa2b98407200aa70e4cf2933b2a48649a76b9fc6c6578706572696d656e74616cf564736f6c63430005100040",
  "source": "pragma solidity ^0.5.0;\npragma experimental ABIEncoderV2;\n\n\nimport \"./RBBLib.sol\";\nimport \"./RBBRegistry.sol\";\nimport \"./RBBToken.sol\";\nimport \"./SpecificRBBToken.sol\";\nimport \"@openzeppelin/contracts/ownership/Ownable.sol\";\nimport \"@openzeppelin/contracts/lifecycle/Pausable.sol\";\nimport \"@openzeppelin/contracts/math/SafeMath.sol\";\n\n\n\n// Pode ter cliente no hash xyz, fornecedor no hash abc\n// clientes no hash xyz so aqueles que bndes informou (set cliente no hash total)\n/*\nRegras especficas\n- Toda vez que o BNDES faz um desembolso, o destinatrio ser associado como CLIENTE para um idFinancialSupportAgreement especfico (se ainda no estiver associado).\n- Somente clientes fazem pagamentos. Toda vez que um CLIENTE de um idFinancialSupportAgreement especfico paga um fornecedor, o destinatrio ser associado como FORNECEDOR (se ainda no estiver associado). \n- Somente FORNECEDORES podem solicitar o resgate.\n\nTodas as operaes j supem que a entidade de origem e destino esto cadastradas e validadas, pois isso  garantido pelo contrato genrico (RBB_Token)\n\nNo includo:\n------------\n- requisito adicional de o cliente poder resgatar uma parte do valor\n- possibilidade de devoluo de valores\n    - pode ocorrer no final do contrato, por exemplo, porque sobrou algum valor\n    - pode ocorrer no meio do contrato (glosa) e  normalmente se resolve aprovando uma comprovao da devoluo para a conta bancria do projeto, sem precisar devolver ao BNDES. Mas tem alguns casos de devoluo ao BNDES no meio do contrato, que ocorre em casos mais graves, e quando se quer ter mais controle sobre o uso do recurso\n- ideia de o fornecedor poder sacar mais de um saldo ao mesmo tempo.\n\n- qualquer pessoa do BNDES pode liberar (no  necessrio verificar na blockchain)\n*/\n\n//TODO: teoricamente, o cliente deveria registrar na blockchain o pedido de financiamento do cliente, concordam?\n\ncontract FABndesToken is SpecificRBBToken {\n\n    //RBBId donor => true/false (registered or not)\n    mapping (uint => bool) donors;\n\n    //RBBId client => (idFinancialSupportAgreement Client => true/false (registered or not)\n    mapping (uint => mapping (string => bool)) public clients;\n\n    //RBBId supplier => true/false (registered or not)\n    mapping (uint => bool) suppliers;\n\n   /* BNDES Fee percentage */\n    uint256 public bndesFee;    \n\n    string public DISBURSEMENT_VERIFICATION = \"DISBURSEMENT_VERIFICATION\";\n    string public PAY_SUPPLIER_VERIFICATION = \"PAY_SUPPLIER_VERIFICATION\";\n//    string public RETURN_FROM_CLIENT_TO_BNDES_VERIFICATION = \"RETURN_FROM_CLIENT_TO_BNDES_VERIFICATION\";\n\n    uint8 public RESERVED_NO_ADDITIONAL_FIELD_TO_HASH = 0;\n\n     using SafeMath for uint;\n   \n\n//TODO: rever eventos para BNDES Transparente\n    event FAB_Disbursement  (uint idClient, string idFinancialSupportAgreement, uint amount);\n    event FAB_TokenTransfer (uint fromCnpj, string fromIdFinancialSupportAgreement, uint toCnpj, uint amount);\n    event FAB_RedemptionRequested (uint idClaimer, uint amount);\n    event FAB_RedemptionSettlement(string redemptionTransactionHash, string receiptHash);\n\n    event FAB_DonationBooked(uint idDonor, uint amount, uint tokenToBeMinted);\n    event FAB_DonationConfirmed(string idDonor, uint amount, string receiptHash);\n\n //   event FAB_ManualIntervention_Returned_Client_BNDES (uint fromId, string idFinancialSupportAgreement, uint amount);\n    event FAB_ManualIntervention_Fee(uint256 percent, string description);\n\n    event FAB_DonorAdded(uint id);\n    event FAB_ClientAdded(uint id);\n    event FAB_SupplierAdded(uint id);\n\n\n    constructor (uint fee) public {\n        require (fee < 100, \"Valor de Fee maior que 100%\");\n        bndesFee = fee;\n    }\n\n    function setBNDESFee(uint256 newBndesFee, string memory description) public onlyOwner {\n        require (newBndesFee < 100, \"Valor de Fee maior que 100%\");\n        bndesFee = newBndesFee;\n        emit FAB_ManualIntervention_Fee(newBndesFee, description);\n    }\n\n    function addDonor (uint idDonor) public onlyOwner {\n        require(registry.isValidatedId(idDonor), \"Conta de doador precisa estar com cadastro validado\");\n        if(!donors[idDonor]) {\n            donors[idDonor] = true;\n            emit FAB_DonorAdded(idDonor);\n        }\n    }\n\n    /* Donor books a donation */\n    function bookDonation(uint amount) public whenNotPaused  {        \n        \n        uint idDonor = registry.getId(msg.sender);\n\n        require (donors[idDonor], \"Somente doadores podem fazer doaes\");\n        require(registry.isValidatedId(idDonor), \"Conta de doador precisa estar com cadastro validado\");\n        \n        bytes32 specificHash = keccak256(abi.encodePacked(RESERVED_NO_ADDITIONAL_FIELD_TO_HASH));\n        uint tokenToBeMinted = amount.sub(amount.mul(bndesFee).div(100));\n\n        rbbToken.requestMint(tokenToBeMinted, specificHash);\n\n        emit FAB_DonationBooked(idDonor, amount, tokenToBeMinted);\n    }\n    \n    /* confirms the donor's donation */\n    function verifyAndActForMint(bytes32 specificHash, uint amountMinted, string[] memory data,\n        string memory docHash) public whenNotPaused onlyRBBToken {\n\n        require (keccak256(abi.encodePacked(RESERVED_NO_ADDITIONAL_FIELD_TO_HASH))==specificHash, \"Erro no clculo do hash da doao\");\n\n        string memory idDonor = data[0];\n//        require (donors[idDonor], \"Somente doadores podem fazer doaes, registro estah incorreto\");\n\n//TODO: transformar de string para uint de forma a ter eventos soh com uint         \n        emit FAB_DonationConfirmed(idDonor, amountMinted, docHash);\n\n    }\n\n    //*********** */\n\n\n    function getDisbusementData (string memory idFinancialSupportAgreement) public view\n        returns (bytes32, bytes32, string[] memory)  {\n\n        bytes32 fromHash = keccak256(abi.encodePacked(RESERVED_NO_ADDITIONAL_FIELD_TO_HASH));\n        bytes32 toHash = keccak256(abi.encodePacked(idFinancialSupportAgreement));\n\n        string[] memory data = new string[](2);\n        data[0] = DISBURSEMENT_VERIFICATION;\n        data[1] = idFinancialSupportAgreement;\n        return (fromHash, toHash, data);\n    }\n\n    function getPaySupplierData (string memory idFinancialSupportAgreement) public view\n            returns (bytes32, bytes32, string[] memory) {\n\n\n        bytes32 fromHash = keccak256(abi.encodePacked(idFinancialSupportAgreement));\n        bytes32 toHash = keccak256(abi.encodePacked(RESERVED_NO_ADDITIONAL_FIELD_TO_HASH));\n\n        string[] memory data = new string[](2);\n        data[0] = PAY_SUPPLIER_VERIFICATION;\n        data[1] = idFinancialSupportAgreement;\n        return (fromHash, toHash, data);\n    }\n\n/*\n    function getReturnedClientToBNDESData (string memory idFinancialSupportAgreement) public \n        returns (bytes32, bytes32, string[] memory) {\n\n        bytes32 fromHash = keccak256(abi.encodePacked(idFinancialSupportAgreement));\n        bytes32 toHash = keccak256(abi.encodePacked(RESERVED_NO_ADDITIONAL_FIELD_TO_HASH));\n\n        string[] memory data = new string[](2);\n        data[0] = RETURN_FROM_CLIENT_TO_BNDES_VERIFICATION;\n        data[1] = idFinancialSupportAgreement;\n        return (fromHash, toHash, data);\n    }\n*/\n    function getRedeemData () public \n            returns (bytes32, string[] memory) {\n\n        bytes32 fromHash = keccak256(abi.encodePacked(RESERVED_NO_ADDITIONAL_FIELD_TO_HASH));\n\n        string[] memory data = new string[](0);\n        return (fromHash, data);\n    }\n\n    //*********** */\n\n    function verifyAndActForTransfer(uint fromId, bytes32 fromHash, uint toId, bytes32 toHash, \n            uint amount, string[] memory data) public whenNotPaused onlyRBBToken {\n\n        string memory specificMethod = data[0];\n\n        require (amount>0, \"Valor a ser transacionado deve ser maior do que zero.\");\n\n\n        if (RBBLib.isEqual(DISBURSEMENT_VERIFICATION, specificMethod)) {\n            verifyAndActForTransfer_DISBURSEMENT(fromId, fromHash, toId, toHash, amount, data);\n        }\n        else if (RBBLib.isEqual(PAY_SUPPLIER_VERIFICATION, specificMethod)) {\n            verifyAndActForTransfer_PAY_SUPPLIER(fromId, fromHash, toId, toHash, amount, data);\n        }\n//TODO: incluir intervencao manual. Owner do contrato aprova uma transferencia e o dono da carteira a executa?\n        else {\n            require (false, \"Nenhuma verificao especfica encontrada para a transferncia\");\n        }\n\n    }\n\n    function verifyAndActForTransfer_DISBURSEMENT(uint fromId, bytes32 fromHash, uint toId, bytes32 toHash, \n            uint amount, string[] memory data) internal whenNotPaused {\n    \n        string memory idFinancialSupportAgreement = data[1];\n\n        //Essa eh uma regra especifica visto que outra organizacao pode ter recebido o token no allocate.\n        require (fromId == rbbToken.getBndesId(), \"Responsvel pela liberao de recursos no est correto\");\n        require (keccak256(abi.encodePacked(RESERVED_NO_ADDITIONAL_FIELD_TO_HASH))==fromHash, \"Erro no clculo do hash da conta do BNDES\");\n        require (keccak256(abi.encodePacked(idFinancialSupportAgreement))==toHash, \"Erro no clculo do hash da conta do cliente\");\n\n        if (!clients[toId][idFinancialSupportAgreement]) {\n            clients[toId][idFinancialSupportAgreement] = true; //register the client\n            emit FAB_ClientAdded(toId);\n\n        }\n\n        emit FAB_Disbursement (toId, idFinancialSupportAgreement, amount);\n\n    }\n\n    function verifyAndActForTransfer_PAY_SUPPLIER(uint fromId, bytes32 fromHash, uint toId, bytes32 toHash, \n            uint amount, string[] memory data) internal whenNotPaused {\n    \n        string memory idFinancialSupportAgreement = data[1];\n\n        require (clients[fromId][idFinancialSupportAgreement], \"Somente clientes em contratos cadastrados podem executar o pagamento\");\n        require (keccak256(abi.encodePacked(idFinancialSupportAgreement))==fromHash, \"Erro no clculo do hash da conta do cliente\");\n        require (keccak256(abi.encodePacked(RESERVED_NO_ADDITIONAL_FIELD_TO_HASH))==fromHash, \"Erro no clculo do hash da conta do fornecedor\");\n\n        require(fromId != toId,\n            \"Um CNPJ no pode transferir token para si, ainda que em papis distintos (Cliente/Fornecedor)\");\n\n        if (!suppliers[toId]) {\n            suppliers[toId] = true; //register the supplier\n            emit FAB_SupplierAdded(fromId);\n        }\n\n        emit FAB_TokenTransfer (fromId, idFinancialSupportAgreement, toId, amount);\n\n    }\n/*    \n//TODO: incluir no metodo publico, tratar como caso geral de tratamento de erros ou nao?\n    function verifyAndActForTransfer_RETURN_CLIENT_BNDES(uint fromId, bytes32 fromHash, uint toId, bytes32 toHash, \n            uint amount, string[] memory data) internal whenNotPaused {\n    \n        string memory idFinancialSupportAgreement = data[1];\n\n        require (clients[fromId][idFinancialSupportAgreement], \"Somente clientes em contratos cadastrados podem executar o retorno de recursos\");\n        require (keccak256(abi.encodePacked(idFinancialSupportAgreement))==fromHash, \"Erro no clculo do hash da conta do cliente\");\n        require (keccak256(abi.encodePacked(RESERVED_NO_ADDITIONAL_FIELD_TO_HASH))==fromHash, \"Erro no clculo do hash da conta do BNDES\");\n\n        emit FAB_ManualIntervention_Returned_Client_BNDES (fromId, idFinancialSupportAgreement, amount);\n\n    }\n*/\n    function verifyAndActForRedeem(uint fromId, bytes32 fromHash, uint amount, string[] memory data) \n        public whenNotPaused onlyRBBToken {\n\n        require (amount>0, \"Valor a ser transacionado deve ser maior do que zero.\");\n        require (suppliers[fromId], \"Somente fornecedores podem executar o pagamento\");\n        require (keccak256(abi.encodePacked(RESERVED_NO_ADDITIONAL_FIELD_TO_HASH))==fromHash, \"Erro no clculo do hash da conta do fornecedor\");\n\n        emit FAB_RedemptionRequested (fromId, amount);\n\n    }\n\n    function verifyAndActForRedemptionSettlement(string memory redemptionTransactionHash, string memory receiptHash, \n        string[] memory data)\n        public whenNotPaused onlyRBBToken {\n\n        emit FAB_RedemptionSettlement (redemptionTransactionHash, receiptHash);\n    }\n\n    modifier onlyRBBToken() {\n        require (msg.sender==address(rbbToken), \"Esse mtodo s pode ser chamado pelo RBB_Token\");\n        _;\n    }\n   \n}",
  "sourcePath": "/Users/suzana.moreno/workspace/rbb-token/Back-Blockchain/contracts/FABndesToken.sol",
  "compiler": {
    "name": "solc",
    "version": "0.5.16+commit.9c3226ce.Emscripten.clang"
  },
  "schemaVersion": "3.0.23",
  "updatedAt": "2020-09-16T19:32:44.110Z",
  "devdoc": {
    "methods": {
      "isOwner()": {
        "details": "Returns true if the caller is the current owner."
      },
      "owner()": {
        "details": "Returns the address of the current owner."
      },
      "pause()": {
        "details": "Called by a pauser to pause, triggers stopped state."
      },
      "paused()": {
        "details": "Returns true if the contract is paused, and false otherwise."
      },
      "renounceOwnership()": {
        "details": "Leaves the contract without owner. It will not be possible to call `onlyOwner` functions anymore. Can only be called by the current owner.     * NOTE: Renouncing ownership will leave the contract without an owner, thereby removing any functionality that is only available to the owner."
      },
      "transferOwnership(address)": {
        "details": "Transfers ownership of the contract to a new account (`newOwner`). Can only be called by the current owner."
      },
      "unpause()": {
        "details": "Called by a pauser to unpause, returns to normal state."
      }
    }
  },
  "userdoc": {
    "methods": {}
  }
}