{
  "contractName": "FABndesToken",
  "abi": [
    {
      "inputs": [
        {
          "internalType": "address",
          "name": "newrbbTokenAddr",
          "type": "address"
        },
        {
          "internalType": "uint256",
          "name": "responsibleForDisbursementArg",
          "type": "uint256"
        },
        {
          "internalType": "uint256",
          "name": "responsibleForSettlementArg",
          "type": "uint256"
        }
      ],
      "payable": false,
      "stateMutability": "nonpayable",
      "type": "constructor"
    },
    {
      "anonymous": false,
      "inputs": [
        {
          "indexed": false,
          "internalType": "uint256",
          "name": "idClient",
          "type": "uint256"
        },
        {
          "indexed": false,
          "internalType": "uint256",
          "name": "idFinancialSupportAgreement",
          "type": "uint256"
        },
        {
          "indexed": false,
          "internalType": "uint256",
          "name": "amount",
          "type": "uint256"
        }
      ],
      "name": "Disbursement",
      "type": "event"
    },
    {
      "anonymous": false,
      "inputs": [
        {
          "indexed": true,
          "internalType": "address",
          "name": "previousOwner",
          "type": "address"
        },
        {
          "indexed": true,
          "internalType": "address",
          "name": "newOwner",
          "type": "address"
        }
      ],
      "name": "OwnershipTransferred",
      "type": "event"
    },
    {
      "anonymous": false,
      "inputs": [
        {
          "indexed": false,
          "internalType": "address",
          "name": "account",
          "type": "address"
        }
      ],
      "name": "Paused",
      "type": "event"
    },
    {
      "anonymous": false,
      "inputs": [
        {
          "indexed": true,
          "internalType": "address",
          "name": "account",
          "type": "address"
        }
      ],
      "name": "PauserAdded",
      "type": "event"
    },
    {
      "anonymous": false,
      "inputs": [
        {
          "indexed": true,
          "internalType": "address",
          "name": "account",
          "type": "address"
        }
      ],
      "name": "PauserRemoved",
      "type": "event"
    },
    {
      "anonymous": false,
      "inputs": [
        {
          "indexed": false,
          "internalType": "uint256",
          "name": "idClaimer",
          "type": "uint256"
        },
        {
          "indexed": false,
          "internalType": "uint256",
          "name": "amount",
          "type": "uint256"
        }
      ],
      "name": "RedemptionRequested",
      "type": "event"
    },
    {
      "anonymous": false,
      "inputs": [
        {
          "indexed": false,
          "internalType": "string",
          "name": "redemptionTransactionHash",
          "type": "string"
        },
        {
          "indexed": false,
          "internalType": "string",
          "name": "receiptHash",
          "type": "string"
        }
      ],
      "name": "RedemptionSettlement",
      "type": "event"
    },
    {
      "anonymous": false,
      "inputs": [
        {
          "indexed": false,
          "internalType": "uint256",
          "name": "fromCnpj",
          "type": "uint256"
        },
        {
          "indexed": false,
          "internalType": "uint256",
          "name": "fromIdFinancialSupportAgreement",
          "type": "uint256"
        },
        {
          "indexed": false,
          "internalType": "uint256",
          "name": "toCnpj",
          "type": "uint256"
        },
        {
          "indexed": false,
          "internalType": "uint256",
          "name": "amount",
          "type": "uint256"
        }
      ],
      "name": "TokenTransfer",
      "type": "event"
    },
    {
      "anonymous": false,
      "inputs": [
        {
          "indexed": false,
          "internalType": "address",
          "name": "account",
          "type": "address"
        }
      ],
      "name": "Unpaused",
      "type": "event"
    },
    {
      "constant": true,
      "inputs": [],
      "name": "RESERVED_SUPPLIER_ID_FINANCIAL_SUPPORT_AGREEMENT",
      "outputs": [
        {
          "internalType": "uint8",
          "name": "",
          "type": "uint8"
        }
      ],
      "payable": false,
      "stateMutability": "view",
      "type": "function"
    },
    {
      "constant": false,
      "inputs": [
        {
          "internalType": "address",
          "name": "account",
          "type": "address"
        }
      ],
      "name": "addPauser",
      "outputs": [],
      "payable": false,
      "stateMutability": "nonpayable",
      "type": "function"
    },
    {
      "constant": false,
      "inputs": [
        {
          "internalType": "uint256",
          "name": "idOwberRBBToken",
          "type": "uint256"
        },
        {
          "internalType": "uint256",
          "name": "amount",
          "type": "uint256"
        }
      ],
      "name": "allocate",
      "outputs": [],
      "payable": false,
      "stateMutability": "nonpayable",
      "type": "function"
    },
    {
      "constant": true,
      "inputs": [],
      "name": "isOwner",
      "outputs": [
        {
          "internalType": "bool",
          "name": "",
          "type": "bool"
        }
      ],
      "payable": false,
      "stateMutability": "view",
      "type": "function"
    },
    {
      "constant": true,
      "inputs": [
        {
          "internalType": "address",
          "name": "account",
          "type": "address"
        }
      ],
      "name": "isPauser",
      "outputs": [
        {
          "internalType": "bool",
          "name": "",
          "type": "bool"
        }
      ],
      "payable": false,
      "stateMutability": "view",
      "type": "function"
    },
    {
      "constant": true,
      "inputs": [],
      "name": "owner",
      "outputs": [
        {
          "internalType": "address",
          "name": "",
          "type": "address"
        }
      ],
      "payable": false,
      "stateMutability": "view",
      "type": "function"
    },
    {
      "constant": false,
      "inputs": [],
      "name": "pause",
      "outputs": [],
      "payable": false,
      "stateMutability": "nonpayable",
      "type": "function"
    },
    {
      "constant": true,
      "inputs": [],
      "name": "paused",
      "outputs": [
        {
          "internalType": "bool",
          "name": "",
          "type": "bool"
        }
      ],
      "payable": false,
      "stateMutability": "view",
      "type": "function"
    },
    {
      "constant": true,
      "inputs": [],
      "name": "rbbToken",
      "outputs": [
        {
          "internalType": "contract RBBToken",
          "name": "",
          "type": "address"
        }
      ],
      "payable": false,
      "stateMutability": "view",
      "type": "function"
    },
    {
      "constant": false,
      "inputs": [
        {
          "internalType": "address",
          "name": "newRegistryAddr",
          "type": "address"
        }
      ],
      "name": "register",
      "outputs": [],
      "payable": false,
      "stateMutability": "nonpayable",
      "type": "function"
    },
    {
      "constant": true,
      "inputs": [],
      "name": "registry",
      "outputs": [
        {
          "internalType": "contract RBBRegistry",
          "name": "",
          "type": "address"
        }
      ],
      "payable": false,
      "stateMutability": "view",
      "type": "function"
    },
    {
      "constant": false,
      "inputs": [],
      "name": "renounceOwnership",
      "outputs": [],
      "payable": false,
      "stateMutability": "nonpayable",
      "type": "function"
    },
    {
      "constant": false,
      "inputs": [],
      "name": "renouncePauser",
      "outputs": [],
      "payable": false,
      "stateMutability": "nonpayable",
      "type": "function"
    },
    {
      "constant": true,
      "inputs": [],
      "name": "responsibleForDisbursement",
      "outputs": [
        {
          "internalType": "uint256",
          "name": "",
          "type": "uint256"
        }
      ],
      "payable": false,
      "stateMutability": "view",
      "type": "function"
    },
    {
      "constant": true,
      "inputs": [],
      "name": "responsibleForSettlement",
      "outputs": [
        {
          "internalType": "uint256",
          "name": "",
          "type": "uint256"
        }
      ],
      "payable": false,
      "stateMutability": "view",
      "type": "function"
    },
    {
      "constant": false,
      "inputs": [
        {
          "internalType": "address",
          "name": "newOwner",
          "type": "address"
        }
      ],
      "name": "transferOwnership",
      "outputs": [],
      "payable": false,
      "stateMutability": "nonpayable",
      "type": "function"
    },
    {
      "constant": false,
      "inputs": [],
      "name": "unpause",
      "outputs": [],
      "payable": false,
      "stateMutability": "nonpayable",
      "type": "function"
    },
    {
      "constant": false,
      "inputs": [
        {
          "internalType": "uint256",
          "name": "clientId",
          "type": "uint256"
        },
        {
          "internalType": "uint256",
          "name": "idFinancialSupportAgreement",
          "type": "uint256"
        },
        {
          "internalType": "uint256",
          "name": "amount",
          "type": "uint256"
        }
      ],
      "name": "makeDisbursement",
      "outputs": [],
      "payable": false,
      "stateMutability": "nonpayable",
      "type": "function"
    },
    {
      "constant": false,
      "inputs": [
        {
          "internalType": "uint256",
          "name": "idFinancialSupportAgreement",
          "type": "uint256"
        },
        {
          "internalType": "uint256",
          "name": "amount",
          "type": "uint256"
        },
        {
          "internalType": "uint256",
          "name": "supplierId",
          "type": "uint256"
        }
      ],
      "name": "paySupplier",
      "outputs": [],
      "payable": false,
      "stateMutability": "nonpayable",
      "type": "function"
    },
    {
      "constant": false,
      "inputs": [
        {
          "internalType": "uint256",
          "name": "amount",
          "type": "uint256"
        }
      ],
      "name": "redeem",
      "outputs": [],
      "payable": false,
      "stateMutability": "nonpayable",
      "type": "function"
    },
    {
      "constant": false,
      "inputs": [
        {
          "internalType": "string",
          "name": "redemptionTransactionHash",
          "type": "string"
        },
        {
          "internalType": "string",
          "name": "receiptHash",
          "type": "string"
        }
      ],
      "name": "notifyRedemptionSettlement",
      "outputs": [],
      "payable": false,
      "stateMutability": "nonpayable",
      "type": "function"
    },
    {
      "constant": false,
      "inputs": [
        {
          "internalType": "uint256",
          "name": "idResponsible",
          "type": "uint256"
        }
      ],
      "name": "setResponsibleForDisbursement",
      "outputs": [],
      "payable": false,
      "stateMutability": "nonpayable",
      "type": "function"
    },
    {
      "constant": false,
      "inputs": [
        {
          "internalType": "uint256",
          "name": "idResponsible",
          "type": "uint256"
        }
      ],
      "name": "setResponsibleForSettlement",
      "outputs": [],
      "payable": false,
      "stateMutability": "nonpayable",
      "type": "function"
    },
    {
      "constant": true,
      "inputs": [
        {
          "internalType": "address",
          "name": "addr",
          "type": "address"
        }
      ],
      "name": "isResponsibleForDisbursement",
      "outputs": [
        {
          "internalType": "bool",
          "name": "",
          "type": "bool"
        }
      ],
      "payable": false,
      "stateMutability": "view",
      "type": "function"
    },
    {
      "constant": true,
      "inputs": [
        {
          "internalType": "address",
          "name": "addr",
          "type": "address"
        }
      ],
      "name": "isResponsibleForSettlement",
      "outputs": [
        {
          "internalType": "bool",
          "name": "",
          "type": "bool"
        }
      ],
      "payable": false,
      "stateMutability": "view",
      "type": "function"
    }
  ],
  "bytecode": "0x60806040526000600760006101000a81548160ff021916908360ff1602179055503480156200002d57600080fd5b506040516200381138038062003811833981810160405260608110156200005357600080fd5b810190808051906020019092919080519060200190929190805190602001909291905050508260006200008b620001d160201b60201c565b9050806000806101000a81548173ffffffffffffffffffffffffffffffffffffffff021916908373ffffffffffffffffffffffffffffffffffffffff1602179055508073ffffffffffffffffffffffffffffffffffffffff16600073ffffffffffffffffffffffffffffffffffffffff167f8be0079c531659141344cd1fd0a4f28419497f9722a3daafe3b4186f6b6457e060405160405180910390a350620001496200013d620001d160201b60201c565b620001d960201b60201c565b6000600260006101000a81548160ff02191690831515021790555080600360006101000a81548173ffffffffffffffffffffffffffffffffffffffff021916908373ffffffffffffffffffffffffffffffffffffffff16021790555050620001b7826200023a60201b60201c565b620001c881620003cf60201b60201c565b5050506200078e565b600033905090565b620001f48160016200056460201b62002b8d1790919060201c565b8073ffffffffffffffffffffffffffffffffffffffff167f6719d08c1888103bea251a4ed56406bd0c3e69723c8a1686e017e7bbe159b6f860405160405180910390a250565b6200024a6200064860201b60201c565b620002bd576040517f08c379a00000000000000000000000000000000000000000000000000000000081526004018080602001828103825260208152602001807f4f776e61626c653a2063616c6c6572206973206e6f7420746865206f776e657281525060200191505060405180910390fd5b600260019054906101000a900473ffffffffffffffffffffffffffffffffffffffff1673ffffffffffffffffffffffffffffffffffffffff1663613a7896826040518263ffffffff1660e01b81526004018082815260200191505060206040518083038186803b1580156200033157600080fd5b505afa15801562000346573d6000803e3d6000fd5b505050506040513d60208110156200035d57600080fd5b8101908080519060200190929190505050620003c5576040517f08c379a0000000000000000000000000000000000000000000000000000000008152600401808060200182810382526036815260200180620037db6036913960400191505060405180910390fd5b8060068190555050565b620003df6200064860201b60201c565b62000452576040517f08c379a00000000000000000000000000000000000000000000000000000000081526004018080602001828103825260208152602001807f4f776e61626c653a2063616c6c6572206973206e6f7420746865206f776e657281525060200191505060405180910390fd5b600260019054906101000a900473ffffffffffffffffffffffffffffffffffffffff1673ffffffffffffffffffffffffffffffffffffffff1663613a7896826040518263ffffffff1660e01b81526004018082815260200191505060206040518083038186803b158015620004c657600080fd5b505afa158015620004db573d6000803e3d6000fd5b505050506040513d6020811015620004f257600080fd5b81019080805190602001909291905050506200055a576040517f08c379a0000000000000000000000000000000000000000000000000000000008152600401808060200182810382526034815260200180620037856034913960400191505060405180910390fd5b8060058190555050565b620005768282620006ae60201b60201c565b15620005ea576040517f08c379a000000000000000000000000000000000000000000000000000000000815260040180806020018281038252601f8152602001807f526f6c65733a206163636f756e7420616c72656164792068617320726f6c650081525060200191505060405180910390fd5b60018260000160008373ffffffffffffffffffffffffffffffffffffffff1673ffffffffffffffffffffffffffffffffffffffff16815260200190815260200160002060006101000a81548160ff0219169083151502179055505050565b60008060009054906101000a900473ffffffffffffffffffffffffffffffffffffffff1673ffffffffffffffffffffffffffffffffffffffff1662000692620001d160201b60201c565b73ffffffffffffffffffffffffffffffffffffffff1614905090565b60008073ffffffffffffffffffffffffffffffffffffffff168273ffffffffffffffffffffffffffffffffffffffff16141562000737576040517f08c379a0000000000000000000000000000000000000000000000000000000008152600401808060200182810382526022815260200180620037b96022913960400191505060405180910390fd5b8260000160008373ffffffffffffffffffffffffffffffffffffffff1673ffffffffffffffffffffffffffffffffffffffff16815260200190815260200160002060009054906101000a900460ff16905092915050565b612fe7806200079e6000396000f3fe608060405234801561001057600080fd5b50600436106101735760003560e01c806382dc1ec4116100de5780638f32d59b11610097578063db006a7511610071578063db006a75146106b0578063e4c7426f146106de578063edcd58bb14610728578063f2fde38b1461075657610173565b80638f32d59b14610628578063a75b6cb91461064a578063b37917291461068c57610173565b806382dc1ec4146103c45780638456cb591461040857806385fecf9b1461041257806387cf64231461046e5780638cabf128146105c05780638da5cb5b146105de57610173565b806346fbf68e1161013057806346fbf68e1461028c5780634add3110146102e85780635c975abb146103445780636ef8d66d14610366578063715018a6146103705780637b1039991461037a57610173565b8063172cfa4c146101785780631a9ceb01146101b05780631c752f42146101de57806321453800146102205780633f4ba83a1461023e5780634420e48614610248575b600080fd5b6101ae6004803603604081101561018e57600080fd5b81019080803590602001909291908035906020019092919050505061079a565b005b6101dc600480360360208110156101c657600080fd5b8101908080359060200190929190505050610984565b005b61021e600480360360608110156101f457600080fd5b81019080803590602001909291908035906020019092919080359060200190929190505050610b0b565b005b610228610e31565b6040518082815260200191505060405180910390f35b610246610e37565b005b61028a6004803603602081101561025e57600080fd5b81019080803573ffffffffffffffffffffffffffffffffffffffff169060200190929190505050610fa5565b005b6102ce600480360360208110156102a257600080fd5b81019080803573ffffffffffffffffffffffffffffffffffffffff16906020019092919050505061108f565b604051808215151515815260200191505060405180910390f35b61032a600480360360208110156102fe57600080fd5b81019080803573ffffffffffffffffffffffffffffffffffffffff1690602001909291905050506110ac565b604051808215151515815260200191505060405180910390f35b61034c611193565b604051808215151515815260200191505060405180910390f35b61036e6111aa565b005b6103786111bc565b005b6103826112f5565b604051808273ffffffffffffffffffffffffffffffffffffffff1673ffffffffffffffffffffffffffffffffffffffff16815260200191505060405180910390f35b610406600480360360208110156103da57600080fd5b81019080803573ffffffffffffffffffffffffffffffffffffffff16906020019092919050505061131b565b005b61041061138c565b005b6104546004803603602081101561042857600080fd5b81019080803573ffffffffffffffffffffffffffffffffffffffff1690602001909291905050506114fb565b604051808215151515815260200191505060405180910390f35b6105be6004803603604081101561048457600080fd5b81019080803590602001906401000000008111156104a157600080fd5b8201836020820111156104b357600080fd5b803590602001918460018302840111640100000000831117156104d557600080fd5b91908080601f016020809104026020016040519081016040528093929190818152602001838380828437600081840152601f19601f8201169050808301925050505050505091929192908035906020019064010000000081111561053857600080fd5b82018360208201111561054a57600080fd5b8035906020019184600183028401116401000000008311171561056c57600080fd5b91908080601f016020809104026020016040519081016040528093929190818152602001838380828437600081840152601f19601f8201169050808301925050505050505091929192905050506115e2565b005b6105c8611931565b6040518082815260200191505060405180910390f35b6105e6611937565b604051808273ffffffffffffffffffffffffffffffffffffffff1673ffffffffffffffffffffffffffffffffffffffff16815260200191505060405180910390f35b610630611960565b604051808215151515815260200191505060405180910390f35b61068a6004803603606081101561066057600080fd5b810190808035906020019092919080359060200190929190803590602001909291905050506119be565b005b610694611c4a565b604051808260ff1660ff16815260200191505060405180910390f35b6106dc600480360360208110156106c657600080fd5b8101908080359060200190929190505050611c5d565b005b6106e6611ed2565b604051808273ffffffffffffffffffffffffffffffffffffffff1673ffffffffffffffffffffffffffffffffffffffff16815260200191505060405180910390f35b6107546004803603602081101561073e57600080fd5b8101908080359060200190929190505050611ef8565b005b6107986004803603602081101561076c57600080fd5b81019080803573ffffffffffffffffffffffffffffffffffffffff16906020019092919050505061207f565b005b600360009054906101000a900473ffffffffffffffffffffffffffffffffffffffff1673ffffffffffffffffffffffffffffffffffffffff163373ffffffffffffffffffffffffffffffffffffffff1614610840576040517f08c379a0000000000000000000000000000000000000000000000000000000008152600401808060200182810382526042815260200180612e906042913960600191505060405180910390fd5b6000600360009054906101000a900473ffffffffffffffffffffffffffffffffffffffff1673ffffffffffffffffffffffffffffffffffffffff1663c0d358e0306040518263ffffffff1660e01b8152600401808273ffffffffffffffffffffffffffffffffffffffff1673ffffffffffffffffffffffffffffffffffffffff168152602001915050602060405180830381600087803b1580156108e357600080fd5b505af11580156108f7573d6000803e3d6000fd5b505050506040513d602081101561090d57600080fd5b81019080805190602001909291905050509050610957826004600086815260200190815260200160002060008481526020019081526020016000205461210590919063ffffffff16565b60046000858152602001908152602001600020600083815260200190815260200160002081905550505050565b61098c611960565b6109fe576040517f08c379a00000000000000000000000000000000000000000000000000000000081526004018080602001828103825260208152602001807f4f776e61626c653a2063616c6c6572206973206e6f7420746865206f776e657281525060200191505060405180910390fd5b600260019054906101000a900473ffffffffffffffffffffffffffffffffffffffff1673ffffffffffffffffffffffffffffffffffffffff1663613a7896826040518263ffffffff1660e01b81526004018082815260200191505060206040518083038186803b158015610a7157600080fd5b505afa158015610a85573d6000803e3d6000fd5b505050506040513d6020811015610a9b57600080fd5b8101908080519060200190929190505050610b01576040517f08c379a0000000000000000000000000000000000000000000000000000000008152600401808060200182810382526034815260200180612d986034913960400191505060405180910390fd5b8060058190555050565b600260009054906101000a900460ff1615610b8e576040517f08c379a00000000000000000000000000000000000000000000000000000000081526004018080602001828103825260108152602001807f5061757361626c653a207061757365640000000000000000000000000000000081525060200191505060405180910390fd5b610b97336110ac565b610bec576040517f08c379a0000000000000000000000000000000000000000000000000000000008152600401808060200182810382526044815260200180612f056044913960600191505060405180910390fd5b6000600260019054906101000a900473ffffffffffffffffffffffffffffffffffffffff1673ffffffffffffffffffffffffffffffffffffffff166365f68c89336040518263ffffffff1660e01b8152600401808273ffffffffffffffffffffffffffffffffffffffff1673ffffffffffffffffffffffffffffffffffffffff16815260200191505060206040518083038186803b158015610c8d57600080fd5b505afa158015610ca1573d6000803e3d6000fd5b505050506040513d6020811015610cb757600080fd5b810190808051906020019092919050505090506000600360009054906101000a900473ffffffffffffffffffffffffffffffffffffffff1673ffffffffffffffffffffffffffffffffffffffff1663c0d358e0306040518263ffffffff1660e01b8152600401808273ffffffffffffffffffffffffffffffffffffffff1673ffffffffffffffffffffffffffffffffffffffff168152602001915050602060405180830381600087803b158015610d6d57600080fd5b505af1158015610d81573d6000803e3d6000fd5b505050506040513d6020811015610d9757600080fd5b8101908080519060200190929190505050905060008460405160200180828152602001915050604051602081830303815290604052805190602001209050610de2838388848861218d565b7ffbba414a49b8c297dfb35c06bb278bd5a3fa46f39715860edbd030b1ffa81a7d86868660405180848152602001838152602001828152602001935050505060405180910390a1505050505050565b60055481565b610e47610e42612732565b61108f565b610e9c576040517f08c379a0000000000000000000000000000000000000000000000000000000008152600401808060200182810382526030815260200180612cae6030913960400191505060405180910390fd5b600260009054906101000a900460ff16610f1e576040517f08c379a00000000000000000000000000000000000000000000000000000000081526004018080602001828103825260148152602001807f5061757361626c653a206e6f742070617573656400000000000000000000000081525060200191505060405180910390fd5b6000600260006101000a81548160ff0219169083151502179055507f5db9ee0a495bf2e6ff9c91a7834c1ba4fdd244a5e8aa4e537bd38aeae4b073aa610f62612732565b604051808273ffffffffffffffffffffffffffffffffffffffff1673ffffffffffffffffffffffffffffffffffffffff16815260200191505060405180910390a1565b600360009054906101000a900473ffffffffffffffffffffffffffffffffffffffff1673ffffffffffffffffffffffffffffffffffffffff163373ffffffffffffffffffffffffffffffffffffffff161461104b576040517f08c379a0000000000000000000000000000000000000000000000000000000008152600401808060200182810382526042815260200180612e906042913960600191505060405180910390fd5b80600260016101000a81548173ffffffffffffffffffffffffffffffffffffffff021916908373ffffffffffffffffffffffffffffffffffffffff16021790555050565b60006110a582600161273a90919063ffffffff16565b9050919050565b6000600654600260019054906101000a900473ffffffffffffffffffffffffffffffffffffffff1673ffffffffffffffffffffffffffffffffffffffff166365f68c89846040518263ffffffff1660e01b8152600401808273ffffffffffffffffffffffffffffffffffffffff1673ffffffffffffffffffffffffffffffffffffffff16815260200191505060206040518083038186803b15801561115057600080fd5b505afa158015611164573d6000803e3d6000fd5b505050506040513d602081101561117a57600080fd5b8101908080519060200190929190505050149050919050565b6000600260009054906101000a900460ff16905090565b6111ba6111b5612732565b612818565b565b6111c4611960565b611236576040517f08c379a00000000000000000000000000000000000000000000000000000000081526004018080602001828103825260208152602001807f4f776e61626c653a2063616c6c6572206973206e6f7420746865206f776e657281525060200191505060405180910390fd5b600073ffffffffffffffffffffffffffffffffffffffff166000809054906101000a900473ffffffffffffffffffffffffffffffffffffffff1673ffffffffffffffffffffffffffffffffffffffff167f8be0079c531659141344cd1fd0a4f28419497f9722a3daafe3b4186f6b6457e060405160405180910390a360008060006101000a81548173ffffffffffffffffffffffffffffffffffffffff021916908373ffffffffffffffffffffffffffffffffffffffff160217905550565b600260019054906101000a900473ffffffffffffffffffffffffffffffffffffffff1681565b61132b611326612732565b61108f565b611380576040517f08c379a0000000000000000000000000000000000000000000000000000000008152600401808060200182810382526030815260200180612cae6030913960400191505060405180910390fd5b61138981612872565b50565b61139c611397612732565b61108f565b6113f1576040517f08c379a0000000000000000000000000000000000000000000000000000000008152600401808060200182810382526030815260200180612cae6030913960400191505060405180910390fd5b600260009054906101000a900460ff1615611474576040517f08c379a00000000000000000000000000000000000000000000000000000000081526004018080602001828103825260108152602001807f5061757361626c653a207061757365640000000000000000000000000000000081525060200191505060405180910390fd5b6001600260006101000a81548160ff0219169083151502179055507f62e78cea01bee320cd4e420270b5ea74000d11b0c9f74754ebdbfc544b05a2586114b8612732565b604051808273ffffffffffffffffffffffffffffffffffffffff1673ffffffffffffffffffffffffffffffffffffffff16815260200191505060405180910390a1565b6000600554600260019054906101000a900473ffffffffffffffffffffffffffffffffffffffff1673ffffffffffffffffffffffffffffffffffffffff166365f68c89846040518263ffffffff1660e01b8152600401808273ffffffffffffffffffffffffffffffffffffffff1673ffffffffffffffffffffffffffffffffffffffff16815260200191505060206040518083038186803b15801561159f57600080fd5b505afa1580156115b3573d6000803e3d6000fd5b505050506040513d60208110156115c957600080fd5b8101908080519060200190929190505050149050919050565b600260009054906101000a900460ff1615611665576040517f08c379a00000000000000000000000000000000000000000000000000000000081526004018080602001828103825260108152602001807f5061757361626c653a207061757365640000000000000000000000000000000081525060200191505060405180910390fd5b61166e336114fb565b6116c3576040517f08c379a0000000000000000000000000000000000000000000000000000000008152600401808060200182810382526045815260200180612c696045913960600191505060405180910390fd5b73__RBBLib________________________________636edcb12f826040518263ffffffff1660e01b81526004018080602001828103825283818151815260200191508051906020019080838360005b8381101561172d578082015181840152602081019050611712565b50505050905090810190601f16801561175a5780820380516001836020036101000a031916815260200191505b509250505060206040518083038186803b15801561177757600080fd5b505af415801561178b573d6000803e3d6000fd5b505050506040513d60208110156117a157600080fd5b8101908080519060200190929190505050611824576040517f08c379a000000000000000000000000000000000000000000000000000000000815260040180806020018281038252601d8152602001807f4f206861736820646f2072656369626f20c3a920696e76c3a16c69646f00000081525060200191505060405180910390fd5b7fc5c85710ca450311aa550ba9b7404810c70a332cda36f77ae18faa406acb12388282604051808060200180602001838103835285818151815260200191508051906020019080838360005b8381101561188b578082015181840152602081019050611870565b50505050905090810190601f1680156118b85780820380516001836020036101000a031916815260200191505b50838103825284818151815260200191508051906020019080838360005b838110156118f15780820151818401526020810190506118d6565b50505050905090810190601f16801561191e5780820380516001836020036101000a031916815260200191505b5094505050505060405180910390a15050565b60065481565b60008060009054906101000a900473ffffffffffffffffffffffffffffffffffffffff16905090565b60008060009054906101000a900473ffffffffffffffffffffffffffffffffffffffff1673ffffffffffffffffffffffffffffffffffffffff166119a2612732565b73ffffffffffffffffffffffffffffffffffffffff1614905090565b600260009054906101000a900460ff1615611a41576040517f08c379a00000000000000000000000000000000000000000000000000000000081526004018080602001828103825260108152602001807f5061757361626c653a207061757365640000000000000000000000000000000081525060200191505060405180910390fd5b6000600260019054906101000a900473ffffffffffffffffffffffffffffffffffffffff1673ffffffffffffffffffffffffffffffffffffffff166365f68c89336040518263ffffffff1660e01b8152600401808273ffffffffffffffffffffffffffffffffffffffff1673ffffffffffffffffffffffffffffffffffffffff16815260200191505060206040518083038186803b158015611ae257600080fd5b505afa158015611af6573d6000803e3d6000fd5b505050506040513d6020811015611b0c57600080fd5b8101908080519060200190929190505050905081811415611b78576040517f08c379a000000000000000000000000000000000000000000000000000000000815260040180806020018281038252605f815260200180612d04605f913960600191505060405180910390fd5b600084604051602001808281526020019150506040516020818303038152906040528051906020012090506000600760009054906101000a900460ff16604051602001808260ff1660ff1660f81b8152600101915050604051602081830303815290604052805190602001209050611bf3838386848961218d565b7febe5f6cd3199aedd4d32bd3ba5a426b5b2ab69ec269aa9582120a07aaced9d82838786886040518085815260200184815260200183815260200182815260200194505050505060405180910390a1505050505050565b600760009054906101000a900460ff1681565b600260009054906101000a900460ff1615611ce0576040517f08c379a00000000000000000000000000000000000000000000000000000000081526004018080602001828103825260108152602001807f5061757361626c653a207061757365640000000000000000000000000000000081525060200191505060405180910390fd5b6000600260019054906101000a900473ffffffffffffffffffffffffffffffffffffffff1673ffffffffffffffffffffffffffffffffffffffff166365f68c89336040518263ffffffff1660e01b8152600401808273ffffffffffffffffffffffffffffffffffffffff1673ffffffffffffffffffffffffffffffffffffffff16815260200191505060206040518083038186803b158015611d8157600080fd5b505afa158015611d95573d6000803e3d6000fd5b505050506040513d6020811015611dab57600080fd5b810190808051906020019092919050505090506000600760009054906101000a900460ff16604051602001808260ff1660ff1660f81b8152600101915050604051602081830303815290604052805190602001209050600360009054906101000a900473ffffffffffffffffffffffffffffffffffffffff1673ffffffffffffffffffffffffffffffffffffffff16633b39113a846040518263ffffffff1660e01b815260040180828152602001915050600060405180830381600087803b158015611e7657600080fd5b505af1158015611e8a573d6000803e3d6000fd5b505050507fd5ba0459265c0cfa94aa9d715cc0b5c1305e25f72d371f73e627359065e83fdc8284604051808381526020018281526020019250505060405180910390a1505050565b600360009054906101000a900473ffffffffffffffffffffffffffffffffffffffff1681565b611f00611960565b611f72576040517f08c379a00000000000000000000000000000000000000000000000000000000081526004018080602001828103825260208152602001807f4f776e61626c653a2063616c6c6572206973206e6f7420746865206f776e657281525060200191505060405180910390fd5b600260019054906101000a900473ffffffffffffffffffffffffffffffffffffffff1673ffffffffffffffffffffffffffffffffffffffff1663613a7896826040518263ffffffff1660e01b81526004018082815260200191505060206040518083038186803b158015611fe557600080fd5b505afa158015611ff9573d6000803e3d6000fd5b505050506040513d602081101561200f57600080fd5b8101908080519060200190929190505050612075576040517f08c379a0000000000000000000000000000000000000000000000000000000008152600401808060200182810382526036815260200180612f496036913960400191505060405180910390fd5b8060068190555050565b612087611960565b6120f9576040517f08c379a00000000000000000000000000000000000000000000000000000000081526004018080602001828103825260208152602001807f4f776e61626c653a2063616c6c6572206973206e6f7420746865206f776e657281525060200191505060405180910390fd5b612102816128cc565b50565b600080828401905083811015612183576040517f08c379a000000000000000000000000000000000000000000000000000000000815260040180806020018281038252601b8152602001807f536166654d6174683a206164646974696f6e206f766572666c6f77000000000081525060200191505060405180910390fd5b8091505092915050565b600260009054906101000a900460ff1615612210576040517f08c379a00000000000000000000000000000000000000000000000000000000081526004018080602001828103825260108152602001807f5061757361626c653a207061757365640000000000000000000000000000000081525060200191505060405180910390fd5b60008111612269576040517f08c379a0000000000000000000000000000000000000000000000000000000008152600401808060200182810382526035815260200180612d636035913960400191505060405180910390fd5b6000600260019054906101000a900473ffffffffffffffffffffffffffffffffffffffff1673ffffffffffffffffffffffffffffffffffffffff166365f68c89336040518263ffffffff1660e01b8152600401808273ffffffffffffffffffffffffffffffffffffffff1673ffffffffffffffffffffffffffffffffffffffff16815260200191505060206040518083038186803b15801561230a57600080fd5b505afa15801561231e573d6000803e3d6000fd5b505050506040513d602081101561233457600080fd5b8101908080519060200190929190505050905085811461239f576040517f08c379a0000000000000000000000000000000000000000000000000000000008152600401808060200182810382526049815260200180612e476049913960600191505060405180910390fd5b600260019054906101000a900473ffffffffffffffffffffffffffffffffffffffff1673ffffffffffffffffffffffffffffffffffffffff1663613a7896876040518263ffffffff1660e01b81526004018082815260200191505060206040518083038186803b15801561241257600080fd5b505afa158015612426573d6000803e3d6000fd5b505050506040513d602081101561243c57600080fd5b81019080805190602001909291905050506124a2576040517f08c379a0000000000000000000000000000000000000000000000000000000008152600401808060200182810382526033815260200180612ed26033913960400191505060405180910390fd5b600260019054906101000a900473ffffffffffffffffffffffffffffffffffffffff1673ffffffffffffffffffffffffffffffffffffffff1663613a7896856040518263ffffffff1660e01b81526004018082815260200191505060206040518083038186803b15801561251557600080fd5b505afa158015612529573d6000803e3d6000fd5b505050506040513d602081101561253f57600080fd5b81019080805190602001909291905050506125a5576040517f08c379a0000000000000000000000000000000000000000000000000000000008152600401808060200182810382526034815260200180612f7f6034913960400191505060405180910390fd5b6125f682604051806060016040528060388152602001612e0f60389139600460008a8152602001908152602001600020600089815260200190815260200160002054612a109092919063ffffffff16565b60046000888152602001908152602001600020600087815260200190815260200160002081905550612655826004600087815260200190815260200160002060008681526020019081526020016000205461210590919063ffffffff16565b60046000868152602001908152602001600020600085815260200190815260200160002081905550600360009054906101000a900473ffffffffffffffffffffffffffffffffffffffff1673ffffffffffffffffffffffffffffffffffffffff1663f58546d387878787876040518663ffffffff1660e01b81526004018086815260200185815260200184815260200183815260200182815260200195505050505050600060405180830381600087803b15801561271257600080fd5b505af1158015612726573d6000803e3d6000fd5b50505050505050505050565b600033905090565b60008073ffffffffffffffffffffffffffffffffffffffff168273ffffffffffffffffffffffffffffffffffffffff1614156127c1576040517f08c379a0000000000000000000000000000000000000000000000000000000008152600401808060200182810382526022815260200180612ded6022913960400191505060405180910390fd5b8260000160008373ffffffffffffffffffffffffffffffffffffffff1673ffffffffffffffffffffffffffffffffffffffff16815260200190815260200160002060009054906101000a900460ff16905092915050565b61282c816001612ad090919063ffffffff16565b8073ffffffffffffffffffffffffffffffffffffffff167fcd265ebaf09df2871cc7bd4133404a235ba12eff2041bb89d9c714a2621c7c7e60405160405180910390a250565b612886816001612b8d90919063ffffffff16565b8073ffffffffffffffffffffffffffffffffffffffff167f6719d08c1888103bea251a4ed56406bd0c3e69723c8a1686e017e7bbe159b6f860405160405180910390a250565b600073ffffffffffffffffffffffffffffffffffffffff168173ffffffffffffffffffffffffffffffffffffffff161415612952576040517f08c379a0000000000000000000000000000000000000000000000000000000008152600401808060200182810382526026815260200180612cde6026913960400191505060405180910390fd5b8073ffffffffffffffffffffffffffffffffffffffff166000809054906101000a900473ffffffffffffffffffffffffffffffffffffffff1673ffffffffffffffffffffffffffffffffffffffff167f8be0079c531659141344cd1fd0a4f28419497f9722a3daafe3b4186f6b6457e060405160405180910390a3806000806101000a81548173ffffffffffffffffffffffffffffffffffffffff021916908373ffffffffffffffffffffffffffffffffffffffff16021790555050565b6000838311158290612abd576040517f08c379a00000000000000000000000000000000000000000000000000000000081526004018080602001828103825283818151815260200191508051906020019080838360005b83811015612a82578082015181840152602081019050612a67565b50505050905090810190601f168015612aaf5780820380516001836020036101000a031916815260200191505b509250505060405180910390fd5b5060008385039050809150509392505050565b612ada828261273a565b612b2f576040517f08c379a0000000000000000000000000000000000000000000000000000000008152600401808060200182810382526021815260200180612dcc6021913960400191505060405180910390fd5b60008260000160008373ffffffffffffffffffffffffffffffffffffffff1673ffffffffffffffffffffffffffffffffffffffff16815260200190815260200160002060006101000a81548160ff0219169083151502179055505050565b612b97828261273a565b15612c0a576040517f08c379a000000000000000000000000000000000000000000000000000000000815260040180806020018281038252601f8152602001807f526f6c65733a206163636f756e7420616c72656164792068617320726f6c650081525060200191505060405180910390fd5b60018260000160008373ffffffffffffffffffffffffffffffffffffffff1673ffffffffffffffffffffffffffffffffffffffff16815260200190815260200160002060006101000a81548160ff021916908315150217905550505056fe4170656e6173206f20726573706f6e73c3a176656c2070656c61206c697175696461c3a7c3a36f20706f64652065786563757461722065737361206f70657261c3a7c3a36f506175736572526f6c653a2063616c6c657220646f6573206e6f742068617665207468652050617573657220726f6c654f776e61626c653a206e6577206f776e657220697320746865207a65726f2061646472657373556d20434e504a206ec3a36f20706f6465207472616e73666572697220746f6b656e20706172612073692c2061696e64612071756520656d20706170c3a969732064697374696e746f732028436c69656e74652f466f726e656365646f722956616c6f72206120736572207472616e736163696f6e61646f206465766520736572206d61696f7220646f20717565207a65726f2e496420646f20526573706f6e7369626c6520666f7220536574746c656d656e74206ec3a36f20657374c3a12076616c696461646f526f6c65733a206163636f756e7420646f6573206e6f74206861766520726f6c65526f6c65733a206163636f756e7420697320746865207a65726f206164647265737353616c646f206461206f726967656d206ec3a36f20c3a920737566696369656e746520706172612061207472616e73666572c3aa6e63696141207472616e7361c3a7c3a36f20707265636973612073657220656e76696164612070656c6f20646f6e6f20646f20746974756c617220646120636f6e7461206465206f726967656d536f6d656e7465206f205242425f546f6b656e20706f6465206368616d617220657373612066756ec3a7c3a36f20646f20746f6b656e206573706563c3ad6669636f436f6e7461206465206f726967656d207072656369736120657374617220636f6d20636164617374726f2076616c696461646f4170656e6173206f20726573706f6e73c3a176656c2070656c61206c6962657261c3a7c3a36f20706f64652065786563757461722065737361206f70657261c3a7c3a36f496420646f20526573706f6e7369626c6520666f722044697362757273656d656e74206ec3a36f20657374c3a12076616c696461646f436f6e74612064652064657374696e6f207072656369736120657374617220636f6d20636164617374726f2076616c696461646fa265627a7a723158207696e5a77fdacbb4803b11bce8365b0e10bbe43aa915de6d9b784aa825e1793c64736f6c63430005100032496420646f20526573706f6e7369626c6520666f7220536574746c656d656e74206ec3a36f20657374c3a12076616c696461646f526f6c65733a206163636f756e7420697320746865207a65726f2061646472657373496420646f20526573706f6e7369626c6520666f722044697362757273656d656e74206ec3a36f20657374c3a12076616c696461646f",
  "source": "pragma solidity ^0.5.0;\n\nimport \"./RBBLib.sol\";\nimport \"./RBBRegistry.sol\";\nimport \"./RBBToken.sol\";\nimport \"./SpecificRBBToken.sol\";\nimport \"@openzeppelin/contracts/ownership/Ownable.sol\";\nimport \"@openzeppelin/contracts/lifecycle/Pausable.sol\";\n\ncontract FABndesToken is SpecificRBBToken {\n\n    // o id, nao tem como especializar dentro do BNDES. Diferena no front-end\n    uint public responsibleForSettlement;\n    uint public responsibleForDisbursement;\n\n//    uint public contratoFABndesToken = 1;\n    uint8 public RESERVED_SUPPLIER_ID_FINANCIAL_SUPPORT_AGREEMENT = 0;\n\n    //ATENCAO: troquei cnpj por id no argumento do evento e tirei arg de contrato no resgate - impacto no BNDESTransparente\n    event Disbursement  (uint idClient, uint idFinancialSupportAgreement, uint amount);\n    event TokenTransfer (uint fromCnpj, uint fromIdFinancialSupportAgreement, uint toCnpj, uint amount);\n    event RedemptionRequested (uint idClaimer, uint amount);\n    event RedemptionSettlement(string redemptionTransactionHash, string receiptHash);\n\n\n    constructor (address newrbbTokenAddr, \n                uint responsibleForDisbursementArg, uint responsibleForSettlementArg)\n                SpecificRBBToken (newrbbTokenAddr)\n                public {\n\n        setResponsibleForDisbursement(responsibleForDisbursementArg);\n        setResponsibleForSettlement(responsibleForSettlementArg);\n    }\n\n    function makeDisbursement(uint clientId, uint idFinancialSupportAgreement, uint amount)\n        public whenNotPaused onlyResponsibleForDisbursement {\n\n        uint fromId = registry.getId(msg.sender);\n\n        //incluir regras especificas de validacao de cliente e do contrato aqui\n        //****** */\n\n        \n        bytes32 fromHash = rbbToken.getBusinessContractHash( address(this) );\n        bytes32 toHash = keccak256(abi.encodePacked(idFinancialSupportAgreement));\n\n//uint i =        rbbBalances[fromId][fromHash];\n\n\n        transfer(fromId, fromHash, clientId, toHash, amount);\n\n        emit Disbursement (clientId, idFinancialSupportAgreement, amount);\n\n    }\n\n    function paySupplier (uint idFinancialSupportAgreement, uint amount, uint supplierId) whenNotPaused public {\n        \n        uint clientId = registry.getId(msg.sender);\n\n        //incluir regras especificas de pagamento aqui\n\n        require(clientId != supplierId,\n            \"Um CNPJ no pode transferir token para si, ainda que em papis distintos (Cliente/Fornecedor)\");\n        \n        //****** */\n\n        bytes32 hashFrom = keccak256(abi.encodePacked(idFinancialSupportAgreement));\n        bytes32 hashTo = keccak256(abi.encodePacked(RESERVED_SUPPLIER_ID_FINANCIAL_SUPPORT_AGREEMENT));\n        transfer(clientId, hashFrom, supplierId, hashTo, amount);\n\n        emit TokenTransfer (clientId, idFinancialSupportAgreement, supplierId, amount);\n    }\n\n    function redeem(uint amount) whenNotPaused public {\n        \n        uint supplierId = registry.getId(msg.sender);\n\n        //incluir regras especificas de resgate aqui\n        //****** */\n        \n        bytes32 hashFrom = keccak256(abi.encodePacked(RESERVED_SUPPLIER_ID_FINANCIAL_SUPPORT_AGREEMENT));\n        \n        rbbToken.burnBySpecificContract(amount);\n\n        //TODO: chama metodo para pagamento FIAT (mock?)\n        //****** */\n\n        emit RedemptionRequested (supplierId, amount);\n\n    }\n\n//settlement deveria estar aqui mesmo? responsvel pelo settlement ser sempre o BNDES? Lembrar caso ANCINE\n   /**\n    * Using this function, the Responsible for Settlement indicates that he has made the FIAT money transfer.\n    * @param redemptionTransactionHash hash of the redeem transaction in which the FIAT money settlement occurred.\n    * @param receiptHash hash that proof the FIAT money transfer\n    */\n    function notifyRedemptionSettlement(string memory redemptionTransactionHash, string memory receiptHash)\n        public whenNotPaused onlyResponsibleForSettlement {\n\n        require (RBBLib.isValidHash(receiptHash), \"O hash do recibo  invlido\");\n        emit RedemptionSettlement(redemptionTransactionHash, receiptHash);\n    }\n\n\n//avaliar se deve passar pelo framework de mudanca (exceto construtor)\n    function setResponsibleForDisbursement(uint idResponsible) onlyOwner public {\n        require (registry.isValidatedId(idResponsible), \"Id do Responsible for Disbursement no est validado\");\n        responsibleForDisbursement = idResponsible;\n    }\n\n//avaliar se deve passar pelo framework de mudanca (exceto construtor)\n    function setResponsibleForSettlement(uint idResponsible) onlyOwner public {\n        require (registry.isValidatedId(idResponsible), \"Id do Responsible for Settlement no est validado\");\n        responsibleForSettlement = idResponsible;\n    }\n\n    function isResponsibleForDisbursement(address addr) public view returns (bool) {\n        return (registry.getId(addr) == responsibleForDisbursement);\n    }\n\n    function isResponsibleForSettlement(address addr) public view returns (bool) {\n        return (registry.getId(addr) == responsibleForSettlement);\n    }\n\n    modifier onlyResponsibleForDisbursement() {\n        require(isResponsibleForDisbursement(msg.sender), \"Apenas o responsvel pela liberao pode executar essa operao\");\n        _;\n    }\n\n    modifier onlyResponsibleForSettlement() {\n        require(isResponsibleForSettlement(msg.sender), \"Apenas o responsvel pela liquidao pode executar essa operao\");\n        _;\n    }\n}",
  "sourcePath": "/Users/suzana.moreno/workspace/rbb-token/Back-Blockchain/contracts/FABndesToken.sol",
  "compiler": {
    "name": "solc",
    "version": "0.5.16+commit.9c3226ce.Emscripten.clang"
  },
  "schemaVersion": "3.0.23",
  "updatedAt": "2020-08-27T18:12:10.956Z",
  "devdoc": {
    "methods": {
      "isOwner()": {
        "details": "Returns true if the caller is the current owner."
      },
      "notifyRedemptionSettlement(string,string)": {
        "params": {
          "receiptHash": "hash that proof the FIAT money transfer",
          "redemptionTransactionHash": "hash of the redeem transaction in which the FIAT money settlement occurred."
        }
      },
      "owner()": {
        "details": "Returns the address of the current owner."
      },
      "pause()": {
        "details": "Called by a pauser to pause, triggers stopped state."
      },
      "paused()": {
        "details": "Returns true if the contract is paused, and false otherwise."
      },
      "renounceOwnership()": {
        "details": "Leaves the contract without owner. It will not be possible to call `onlyOwner` functions anymore. Can only be called by the current owner.     * NOTE: Renouncing ownership will leave the contract without an owner, thereby removing any functionality that is only available to the owner."
      },
      "transferOwnership(address)": {
        "details": "Transfers ownership of the contract to a new account (`newOwner`). Can only be called by the current owner."
      },
      "unpause()": {
        "details": "Called by a pauser to unpause, returns to normal state."
      }
    }
  },
  "userdoc": {
    "methods": {
      "notifyRedemptionSettlement(string,string)": {
        "notice": "Using this function, the Responsible for Settlement indicates that he has made the FIAT money transfer."
      }
    }
  }
}