{
  "contractName": "FABndesToken",
  "abi": [
    {
      "inputs": [
        {
          "internalType": "address",
          "name": "newrbbTokenAddr",
          "type": "address"
        },
        {
          "internalType": "uint256",
          "name": "fee",
          "type": "uint256"
        }
      ],
      "stateMutability": "nonpayable",
      "type": "constructor"
    },
    {
      "anonymous": false,
      "inputs": [
        {
          "indexed": false,
          "internalType": "uint256",
          "name": "toCnpj",
          "type": "uint256"
        },
        {
          "indexed": false,
          "internalType": "uint256",
          "name": "amount",
          "type": "uint256"
        },
        {
          "indexed": false,
          "internalType": "bytes32",
          "name": "docHash",
          "type": "bytes32"
        }
      ],
      "name": "FA_BNDES_TokenTransfer",
      "type": "event"
    },
    {
      "anonymous": false,
      "inputs": [
        {
          "indexed": false,
          "internalType": "uint256",
          "name": "id",
          "type": "uint256"
        }
      ],
      "name": "FA_ClientAdded",
      "type": "event"
    },
    {
      "anonymous": false,
      "inputs": [
        {
          "indexed": false,
          "internalType": "uint256",
          "name": "idClient",
          "type": "uint256"
        },
        {
          "indexed": false,
          "internalType": "string",
          "name": "idFinancialSupportAgreement",
          "type": "string"
        },
        {
          "indexed": false,
          "internalType": "uint256",
          "name": "amount",
          "type": "uint256"
        },
        {
          "indexed": false,
          "internalType": "bytes32",
          "name": "docHash",
          "type": "bytes32"
        }
      ],
      "name": "FA_Disbursement",
      "type": "event"
    },
    {
      "anonymous": false,
      "inputs": [
        {
          "indexed": false,
          "internalType": "uint256",
          "name": "idDonor",
          "type": "uint256"
        },
        {
          "indexed": false,
          "internalType": "uint256",
          "name": "amount",
          "type": "uint256"
        },
        {
          "indexed": false,
          "internalType": "bytes32",
          "name": "docHash",
          "type": "bytes32"
        }
      ],
      "name": "FA_DonationBooked",
      "type": "event"
    },
    {
      "anonymous": false,
      "inputs": [
        {
          "indexed": false,
          "internalType": "uint256",
          "name": "idDonor",
          "type": "uint256"
        },
        {
          "indexed": false,
          "internalType": "uint256",
          "name": "amount",
          "type": "uint256"
        },
        {
          "indexed": false,
          "internalType": "bytes32",
          "name": "docHash",
          "type": "bytes32"
        }
      ],
      "name": "FA_DonationConfirmed",
      "type": "event"
    },
    {
      "anonymous": false,
      "inputs": [
        {
          "indexed": false,
          "internalType": "uint256",
          "name": "id",
          "type": "uint256"
        }
      ],
      "name": "FA_DonorAdded",
      "type": "event"
    },
    {
      "anonymous": false,
      "inputs": [
        {
          "indexed": false,
          "internalType": "uint256",
          "name": "fromId",
          "type": "uint256"
        },
        {
          "indexed": false,
          "internalType": "bytes32",
          "name": "fromHash",
          "type": "bytes32"
        },
        {
          "indexed": false,
          "internalType": "uint256",
          "name": "toId",
          "type": "uint256"
        },
        {
          "indexed": false,
          "internalType": "bytes32",
          "name": "toHash",
          "type": "bytes32"
        },
        {
          "indexed": false,
          "internalType": "uint256",
          "name": "amount",
          "type": "uint256"
        },
        {
          "indexed": false,
          "internalType": "bytes32",
          "name": "docHash",
          "type": "bytes32"
        }
      ],
      "name": "FA_ExtraordinaryTransferAllowed",
      "type": "event"
    },
    {
      "anonymous": false,
      "inputs": [
        {
          "indexed": false,
          "internalType": "uint256",
          "name": "fromId",
          "type": "uint256"
        },
        {
          "indexed": false,
          "internalType": "bytes32",
          "name": "fromHash",
          "type": "bytes32"
        },
        {
          "indexed": false,
          "internalType": "uint256",
          "name": "toId",
          "type": "uint256"
        },
        {
          "indexed": false,
          "internalType": "bytes32",
          "name": "toHash",
          "type": "bytes32"
        },
        {
          "indexed": false,
          "internalType": "uint256",
          "name": "amount",
          "type": "uint256"
        },
        {
          "indexed": false,
          "internalType": "bytes32",
          "name": "docHash",
          "type": "bytes32"
        }
      ],
      "name": "FA_ExtraordinaryTransferExecuted",
      "type": "event"
    },
    {
      "anonymous": false,
      "inputs": [
        {
          "indexed": false,
          "internalType": "uint256",
          "name": "amount",
          "type": "uint256"
        },
        {
          "indexed": false,
          "internalType": "bytes32",
          "name": "docHash",
          "type": "bytes32"
        }
      ],
      "name": "FA_InitialAllocation_Disbursements",
      "type": "event"
    },
    {
      "anonymous": false,
      "inputs": [
        {
          "indexed": false,
          "internalType": "uint256",
          "name": "amount",
          "type": "uint256"
        },
        {
          "indexed": false,
          "internalType": "bytes32",
          "name": "docHash",
          "type": "bytes32"
        }
      ],
      "name": "FA_InitialAllocation_Fee",
      "type": "event"
    },
    {
      "anonymous": false,
      "inputs": [
        {
          "indexed": false,
          "internalType": "uint256",
          "name": "percent",
          "type": "uint256"
        },
        {
          "indexed": false,
          "internalType": "bytes32",
          "name": "docHash",
          "type": "bytes32"
        }
      ],
      "name": "FA_ManualIntervention_Fee",
      "type": "event"
    },
    {
      "anonymous": false,
      "inputs": [
        {
          "indexed": false,
          "internalType": "address",
          "name": "account",
          "type": "address"
        },
        {
          "indexed": false,
          "internalType": "uint8",
          "name": "eventType",
          "type": "uint8"
        }
      ],
      "name": "FA_ManualIntervention_RoleOrAddress",
      "type": "event"
    },
    {
      "anonymous": false,
      "inputs": [
        {
          "indexed": false,
          "internalType": "uint256",
          "name": "idClaimer",
          "type": "uint256"
        },
        {
          "indexed": false,
          "internalType": "uint256",
          "name": "amount",
          "type": "uint256"
        },
        {
          "indexed": false,
          "internalType": "bytes32",
          "name": "docHash",
          "type": "bytes32"
        }
      ],
      "name": "FA_RedemptionRequested",
      "type": "event"
    },
    {
      "anonymous": false,
      "inputs": [
        {
          "indexed": false,
          "internalType": "bytes32",
          "name": "redemptionTransactionHash",
          "type": "bytes32"
        },
        {
          "indexed": false,
          "internalType": "bytes32",
          "name": "docHash",
          "type": "bytes32"
        }
      ],
      "name": "FA_RedemptionSettlement",
      "type": "event"
    },
    {
      "anonymous": false,
      "inputs": [
        {
          "indexed": false,
          "internalType": "uint256",
          "name": "registeredBy",
          "type": "uint256"
        },
        {
          "indexed": false,
          "internalType": "uint256",
          "name": "id",
          "type": "uint256"
        }
      ],
      "name": "FA_SupplierAdded",
      "type": "event"
    },
    {
      "anonymous": false,
      "inputs": [
        {
          "indexed": false,
          "internalType": "uint256",
          "name": "fromCnpj",
          "type": "uint256"
        },
        {
          "indexed": false,
          "internalType": "string",
          "name": "fromIdFinancialSupportAgreement",
          "type": "string"
        },
        {
          "indexed": false,
          "internalType": "uint256",
          "name": "toCnpj",
          "type": "uint256"
        },
        {
          "indexed": false,
          "internalType": "uint256",
          "name": "amount",
          "type": "uint256"
        },
        {
          "indexed": false,
          "internalType": "bytes32",
          "name": "docHash",
          "type": "bytes32"
        }
      ],
      "name": "FA_TokenTransfer",
      "type": "event"
    },
    {
      "anonymous": false,
      "inputs": [
        {
          "indexed": true,
          "internalType": "address",
          "name": "previousOwner",
          "type": "address"
        },
        {
          "indexed": true,
          "internalType": "address",
          "name": "newOwner",
          "type": "address"
        }
      ],
      "name": "OwnershipTransferred",
      "type": "event"
    },
    {
      "anonymous": false,
      "inputs": [
        {
          "indexed": false,
          "internalType": "address",
          "name": "account",
          "type": "address"
        }
      ],
      "name": "Paused",
      "type": "event"
    },
    {
      "anonymous": false,
      "inputs": [
        {
          "indexed": true,
          "internalType": "address",
          "name": "account",
          "type": "address"
        }
      ],
      "name": "PauserAdded",
      "type": "event"
    },
    {
      "anonymous": false,
      "inputs": [
        {
          "indexed": true,
          "internalType": "address",
          "name": "account",
          "type": "address"
        }
      ],
      "name": "PauserRemoved",
      "type": "event"
    },
    {
      "anonymous": false,
      "inputs": [
        {
          "indexed": false,
          "internalType": "address",
          "name": "account",
          "type": "address"
        }
      ],
      "name": "Unpaused",
      "type": "event"
    },
    {
      "inputs": [],
      "name": "BNDES_PAY_SUPPLIER_VERIFICATION",
      "outputs": [
        {
          "internalType": "string",
          "name": "",
          "type": "string"
        }
      ],
      "stateMutability": "view",
      "type": "function",
      "constant": true
    },
    {
      "inputs": [],
      "name": "CLIENT_PAY_SUPPLIER_VERIFICATION",
      "outputs": [
        {
          "internalType": "string",
          "name": "",
          "type": "string"
        }
      ],
      "stateMutability": "view",
      "type": "function",
      "constant": true
    },
    {
      "inputs": [],
      "name": "DISBURSEMENT_VERIFICATION",
      "outputs": [
        {
          "internalType": "string",
          "name": "",
          "type": "string"
        }
      ],
      "stateMutability": "view",
      "type": "function",
      "constant": true
    },
    {
      "inputs": [],
      "name": "EXTRAORDINARY_TRANSFERS",
      "outputs": [
        {
          "internalType": "string",
          "name": "",
          "type": "string"
        }
      ],
      "stateMutability": "view",
      "type": "function",
      "constant": true
    },
    {
      "inputs": [],
      "name": "INITIAL_ALLOCATION",
      "outputs": [
        {
          "internalType": "string",
          "name": "",
          "type": "string"
        }
      ],
      "stateMutability": "view",
      "type": "function",
      "constant": true
    },
    {
      "inputs": [],
      "name": "RESERVED_BNDES_ADMIN_FEE_TO_HASH",
      "outputs": [
        {
          "internalType": "uint8",
          "name": "",
          "type": "uint8"
        }
      ],
      "stateMutability": "view",
      "type": "function",
      "constant": true
    },
    {
      "inputs": [],
      "name": "RESERVED_MINTED_ACCOUNT",
      "outputs": [
        {
          "internalType": "uint8",
          "name": "",
          "type": "uint8"
        }
      ],
      "stateMutability": "view",
      "type": "function",
      "constant": true
    },
    {
      "inputs": [],
      "name": "RESERVED_NO_ADDITIONAL_FIELDS_TO_DIFF_MONEY",
      "outputs": [
        {
          "internalType": "uint8",
          "name": "",
          "type": "uint8"
        }
      ],
      "stateMutability": "view",
      "type": "function",
      "constant": true
    },
    {
      "inputs": [],
      "name": "RESERVED_NO_ADDITIONAL_FIELDS_TO_DONOR",
      "outputs": [
        {
          "internalType": "uint8",
          "name": "",
          "type": "uint8"
        }
      ],
      "stateMutability": "view",
      "type": "function",
      "constant": true
    },
    {
      "inputs": [],
      "name": "RESERVED_NO_ADDITIONAL_FIELDS_TO_SUPPLIER",
      "outputs": [
        {
          "internalType": "uint8",
          "name": "",
          "type": "uint8"
        }
      ],
      "stateMutability": "view",
      "type": "function",
      "constant": true
    },
    {
      "inputs": [],
      "name": "RESERVED_USUAL_DISBURSEMENTS_ACCOUNT",
      "outputs": [
        {
          "internalType": "uint8",
          "name": "",
          "type": "uint8"
        }
      ],
      "stateMutability": "view",
      "type": "function",
      "constant": true
    },
    {
      "inputs": [
        {
          "internalType": "address",
          "name": "account",
          "type": "address"
        }
      ],
      "name": "addPauser",
      "outputs": [],
      "stateMutability": "nonpayable",
      "type": "function"
    },
    {
      "inputs": [],
      "name": "bndesFee",
      "outputs": [
        {
          "internalType": "uint256",
          "name": "",
          "type": "uint256"
        }
      ],
      "stateMutability": "view",
      "type": "function",
      "constant": true
    },
    {
      "inputs": [
        {
          "internalType": "uint256",
          "name": "",
          "type": "uint256"
        },
        {
          "internalType": "string",
          "name": "",
          "type": "string"
        }
      ],
      "name": "clients",
      "outputs": [
        {
          "internalType": "bool",
          "name": "",
          "type": "bool"
        }
      ],
      "stateMutability": "view",
      "type": "function",
      "constant": true
    },
    {
      "inputs": [
        {
          "internalType": "uint256",
          "name": "",
          "type": "uint256"
        }
      ],
      "name": "donors",
      "outputs": [
        {
          "internalType": "bool",
          "name": "",
          "type": "bool"
        }
      ],
      "stateMutability": "view",
      "type": "function",
      "constant": true
    },
    {
      "inputs": [
        {
          "internalType": "uint256",
          "name": "",
          "type": "uint256"
        }
      ],
      "name": "hashApprovedExtraordinaryTransfers",
      "outputs": [
        {
          "internalType": "bytes32",
          "name": "",
          "type": "bytes32"
        }
      ],
      "stateMutability": "view",
      "type": "function",
      "constant": true
    },
    {
      "inputs": [],
      "name": "isOwner",
      "outputs": [
        {
          "internalType": "bool",
          "name": "",
          "type": "bool"
        }
      ],
      "stateMutability": "view",
      "type": "function",
      "constant": true
    },
    {
      "inputs": [
        {
          "internalType": "address",
          "name": "account",
          "type": "address"
        }
      ],
      "name": "isPauser",
      "outputs": [
        {
          "internalType": "bool",
          "name": "",
          "type": "bool"
        }
      ],
      "stateMutability": "view",
      "type": "function",
      "constant": true
    },
    {
      "inputs": [],
      "name": "owner",
      "outputs": [
        {
          "internalType": "address",
          "name": "",
          "type": "address"
        }
      ],
      "stateMutability": "view",
      "type": "function",
      "constant": true
    },
    {
      "inputs": [],
      "name": "pause",
      "outputs": [],
      "stateMutability": "nonpayable",
      "type": "function"
    },
    {
      "inputs": [],
      "name": "paused",
      "outputs": [
        {
          "internalType": "bool",
          "name": "",
          "type": "bool"
        }
      ],
      "stateMutability": "view",
      "type": "function",
      "constant": true
    },
    {
      "inputs": [],
      "name": "rbbToken",
      "outputs": [
        {
          "internalType": "contract RBBToken",
          "name": "",
          "type": "address"
        }
      ],
      "stateMutability": "view",
      "type": "function",
      "constant": true
    },
    {
      "inputs": [],
      "name": "registry",
      "outputs": [
        {
          "internalType": "contract RBBRegistry",
          "name": "",
          "type": "address"
        }
      ],
      "stateMutability": "view",
      "type": "function",
      "constant": true
    },
    {
      "inputs": [],
      "name": "renounceOwnership",
      "outputs": [],
      "stateMutability": "nonpayable",
      "type": "function"
    },
    {
      "inputs": [],
      "name": "renouncePauser",
      "outputs": [],
      "stateMutability": "nonpayable",
      "type": "function"
    },
    {
      "inputs": [],
      "name": "responsibleForDisbursement",
      "outputs": [
        {
          "internalType": "address",
          "name": "",
          "type": "address"
        }
      ],
      "stateMutability": "view",
      "type": "function",
      "constant": true
    },
    {
      "inputs": [],
      "name": "responsibleForInitialAllocation",
      "outputs": [
        {
          "internalType": "address",
          "name": "",
          "type": "address"
        }
      ],
      "stateMutability": "view",
      "type": "function",
      "constant": true
    },
    {
      "inputs": [],
      "name": "resposibleForApproveExtraordinaryTransfers",
      "outputs": [
        {
          "internalType": "address",
          "name": "",
          "type": "address"
        }
      ],
      "stateMutability": "view",
      "type": "function",
      "constant": true
    },
    {
      "inputs": [
        {
          "internalType": "address",
          "name": "newRegistryAddr",
          "type": "address"
        }
      ],
      "name": "setInitializationDataDuringRegistration",
      "outputs": [],
      "stateMutability": "nonpayable",
      "type": "function"
    },
    {
      "inputs": [
        {
          "internalType": "uint256",
          "name": "",
          "type": "uint256"
        }
      ],
      "name": "suppliers",
      "outputs": [
        {
          "internalType": "bool",
          "name": "",
          "type": "bool"
        }
      ],
      "stateMutability": "view",
      "type": "function",
      "constant": true
    },
    {
      "inputs": [
        {
          "internalType": "address",
          "name": "newOwner",
          "type": "address"
        }
      ],
      "name": "transferOwnership",
      "outputs": [],
      "stateMutability": "nonpayable",
      "type": "function"
    },
    {
      "inputs": [],
      "name": "unpause",
      "outputs": [],
      "stateMutability": "nonpayable",
      "type": "function"
    },
    {
      "inputs": [
        {
          "internalType": "uint256",
          "name": "newBndesFee",
          "type": "uint256"
        },
        {
          "internalType": "bytes32",
          "name": "docHash",
          "type": "bytes32"
        }
      ],
      "name": "setBNDESFee",
      "outputs": [],
      "stateMutability": "nonpayable",
      "type": "function"
    },
    {
      "inputs": [
        {
          "internalType": "uint256",
          "name": "idDonor",
          "type": "uint256"
        }
      ],
      "name": "addDonor",
      "outputs": [],
      "stateMutability": "nonpayable",
      "type": "function"
    },
    {
      "inputs": [
        {
          "internalType": "uint256",
          "name": "amount",
          "type": "uint256"
        },
        {
          "internalType": "bytes32",
          "name": "docHash",
          "type": "bytes32"
        }
      ],
      "name": "bookDonation",
      "outputs": [],
      "stateMutability": "nonpayable",
      "type": "function"
    },
    {
      "inputs": [
        {
          "internalType": "bytes32",
          "name": "specificHash",
          "type": "bytes32"
        },
        {
          "internalType": "uint256",
          "name": "amount",
          "type": "uint256"
        },
        {
          "internalType": "bytes32",
          "name": "docHash",
          "type": "bytes32"
        },
        {
          "internalType": "string[]",
          "name": "data",
          "type": "string[]"
        }
      ],
      "name": "verifyAndActForMint",
      "outputs": [],
      "stateMutability": "nonpayable",
      "type": "function"
    },
    {
      "inputs": [
        {
          "internalType": "bytes32",
          "name": "specificHash",
          "type": "bytes32"
        }
      ],
      "name": "getHashToMintedAccount",
      "outputs": [
        {
          "internalType": "bytes32",
          "name": "",
          "type": "bytes32"
        }
      ],
      "stateMutability": "nonpayable",
      "type": "function"
    },
    {
      "inputs": [],
      "name": "getInitialAllocationToDisbusementData",
      "outputs": [
        {
          "internalType": "bytes32",
          "name": "",
          "type": "bytes32"
        },
        {
          "internalType": "bytes32",
          "name": "",
          "type": "bytes32"
        },
        {
          "internalType": "string[]",
          "name": "",
          "type": "string[]"
        }
      ],
      "stateMutability": "view",
      "type": "function",
      "constant": true
    },
    {
      "inputs": [],
      "name": "getInitialAllocationToChargeFeeData",
      "outputs": [
        {
          "internalType": "bytes32",
          "name": "",
          "type": "bytes32"
        },
        {
          "internalType": "bytes32",
          "name": "",
          "type": "bytes32"
        },
        {
          "internalType": "string[]",
          "name": "",
          "type": "string[]"
        }
      ],
      "stateMutability": "view",
      "type": "function",
      "constant": true
    },
    {
      "inputs": [
        {
          "internalType": "string",
          "name": "idFinancialSupportAgreement",
          "type": "string"
        }
      ],
      "name": "getDisbusementData",
      "outputs": [
        {
          "internalType": "bytes32",
          "name": "",
          "type": "bytes32"
        },
        {
          "internalType": "bytes32",
          "name": "",
          "type": "bytes32"
        },
        {
          "internalType": "string[]",
          "name": "",
          "type": "string[]"
        }
      ],
      "stateMutability": "view",
      "type": "function",
      "constant": true
    },
    {
      "inputs": [
        {
          "internalType": "string",
          "name": "idFinancialSupportAgreement",
          "type": "string"
        }
      ],
      "name": "getClientPaySupplierData",
      "outputs": [
        {
          "internalType": "bytes32",
          "name": "",
          "type": "bytes32"
        },
        {
          "internalType": "bytes32",
          "name": "",
          "type": "bytes32"
        },
        {
          "internalType": "string[]",
          "name": "",
          "type": "string[]"
        }
      ],
      "stateMutability": "view",
      "type": "function",
      "constant": true
    },
    {
      "inputs": [],
      "name": "getBNDESPaySupplierData",
      "outputs": [
        {
          "internalType": "bytes32",
          "name": "",
          "type": "bytes32"
        },
        {
          "internalType": "bytes32",
          "name": "",
          "type": "bytes32"
        },
        {
          "internalType": "string[]",
          "name": "",
          "type": "string[]"
        }
      ],
      "stateMutability": "view",
      "type": "function",
      "constant": true
    },
    {
      "inputs": [],
      "name": "getRedeemData",
      "outputs": [
        {
          "internalType": "bytes32",
          "name": "",
          "type": "bytes32"
        },
        {
          "internalType": "string[]",
          "name": "",
          "type": "string[]"
        }
      ],
      "stateMutability": "nonpayable",
      "type": "function"
    },
    {
      "inputs": [
        {
          "internalType": "address",
          "name": "originalSender",
          "type": "address"
        },
        {
          "internalType": "uint256",
          "name": "fromId",
          "type": "uint256"
        },
        {
          "internalType": "bytes32",
          "name": "fromHash",
          "type": "bytes32"
        },
        {
          "internalType": "uint256",
          "name": "toId",
          "type": "uint256"
        },
        {
          "internalType": "bytes32",
          "name": "toHash",
          "type": "bytes32"
        },
        {
          "internalType": "uint256",
          "name": "amount",
          "type": "uint256"
        },
        {
          "internalType": "bytes32",
          "name": "docHash",
          "type": "bytes32"
        },
        {
          "internalType": "string[]",
          "name": "data",
          "type": "string[]"
        }
      ],
      "name": "verifyAndActForTransfer",
      "outputs": [],
      "stateMutability": "nonpayable",
      "type": "function"
    },
    {
      "inputs": [
        {
          "internalType": "uint256",
          "name": "id",
          "type": "uint256"
        }
      ],
      "name": "addSupplier",
      "outputs": [],
      "stateMutability": "nonpayable",
      "type": "function"
    },
    {
      "inputs": [
        {
          "internalType": "address",
          "name": "originalSender",
          "type": "address"
        },
        {
          "internalType": "uint256",
          "name": "fromId",
          "type": "uint256"
        },
        {
          "internalType": "bytes32",
          "name": "fromHash",
          "type": "bytes32"
        },
        {
          "internalType": "uint256",
          "name": "amount",
          "type": "uint256"
        },
        {
          "internalType": "bytes32",
          "name": "docHash",
          "type": "bytes32"
        },
        {
          "internalType": "string[]",
          "name": "data",
          "type": "string[]"
        }
      ],
      "name": "verifyAndActForRedeem",
      "outputs": [],
      "stateMutability": "nonpayable",
      "type": "function"
    },
    {
      "inputs": [
        {
          "internalType": "bytes32",
          "name": "redemptionTransactionHash",
          "type": "bytes32"
        },
        {
          "internalType": "bytes32",
          "name": "docHash",
          "type": "bytes32"
        },
        {
          "internalType": "string[]",
          "name": "data",
          "type": "string[]"
        }
      ],
      "name": "verifyAndActForRedemptionSettlement",
      "outputs": [],
      "stateMutability": "nonpayable",
      "type": "function"
    },
    {
      "inputs": [
        {
          "internalType": "uint256",
          "name": "info",
          "type": "uint256"
        }
      ],
      "name": "getCalculatedHash",
      "outputs": [
        {
          "internalType": "bytes32",
          "name": "",
          "type": "bytes32"
        }
      ],
      "stateMutability": "view",
      "type": "function",
      "constant": true
    },
    {
      "inputs": [
        {
          "internalType": "string",
          "name": "info",
          "type": "string"
        }
      ],
      "name": "getCalculatedHash",
      "outputs": [
        {
          "internalType": "bytes32",
          "name": "",
          "type": "bytes32"
        }
      ],
      "stateMutability": "view",
      "type": "function",
      "constant": true
    }
  ],
  "bytecode": "0x60806040526040518060400160405280601281526020017f494e495449414c5f414c4c4f434154494f4e0000000000000000000000000000815250600990805190602001906200005192919062000690565b506040518060400160405280601981526020017f44495342555253454d454e545f564552494649434154494f4e00000000000000815250600a90805190602001906200009f92919062000690565b506040518060400160405280602081526020017f434c49454e545f5041595f535550504c4945525f564552494649434154494f4e815250600b9080519060200190620000ed92919062000690565b506040518060400160405280601f81526020017f424e4445535f5041595f535550504c4945525f564552494649434154494f4e00815250600c90805190602001906200013b92919062000690565b506040518060400160405280601781526020017f45585452414f5244494e4152595f5452414e5346455253000000000000000000815250600d90805190602001906200018992919062000690565b506000601060146101000a81548160ff021916908360ff1602179055506001601060156101000a81548160ff021916908360ff1602179055506002601060166101000a81548160ff021916908360ff160217905550600a601060176101000a81548160ff021916908360ff1602179055506014601060186101000a81548160ff021916908360ff160217905550601e601060196101000a81548160ff021916908360ff1602179055503480156200023f57600080fd5b50604051620065a2380380620065a2833981810160405281019062000265919062000764565b600062000277620004a960201b60201c565b9050806000806101000a81548173ffffffffffffffffffffffffffffffffffffffff021916908373ffffffffffffffffffffffffffffffffffffffff1602179055508073ffffffffffffffffffffffffffffffffffffffff16600073ffffffffffffffffffffffffffffffffffffffff167f8be0079c531659141344cd1fd0a4f28419497f9722a3daafe3b4186f6b6457e060405160405180910390a3506200033562000329620004a960201b60201c565b620004b160201b60201c565b6000600260006101000a81548160ff0219169083151502179055506064811062000396576040517f08c379a00000000000000000000000000000000000000000000000000000000081526004016200038d9062000891565b60405180910390fd5b81600360006101000a81548173ffffffffffffffffffffffffffffffffffffffff021916908373ffffffffffffffffffffffffffffffffffffffff16021790555033600e60006101000a81548173ffffffffffffffffffffffffffffffffffffffff021916908373ffffffffffffffffffffffffffffffffffffffff16021790555033600f60006101000a81548173ffffffffffffffffffffffffffffffffffffffff021916908373ffffffffffffffffffffffffffffffffffffffff16021790555033601060006101000a81548173ffffffffffffffffffffffffffffffffffffffff021916908373ffffffffffffffffffffffffffffffffffffffff1602179055508060088190555050506200097a565b600033905090565b620004cc8160016200051260201b62002c581790919060201c565b8073ffffffffffffffffffffffffffffffffffffffff167f6719d08c1888103bea251a4ed56406bd0c3e69723c8a1686e017e7bbe159b6f860405160405180910390a250565b620005248282620005c560201b60201c565b1562000567576040517f08c379a00000000000000000000000000000000000000000000000000000000081526004016200055e90620008b3565b60405180910390fd5b60018260000160008373ffffffffffffffffffffffffffffffffffffffff1673ffffffffffffffffffffffffffffffffffffffff16815260200190815260200160002060006101000a81548160ff0219169083151502179055505050565b60008073ffffffffffffffffffffffffffffffffffffffff168273ffffffffffffffffffffffffffffffffffffffff16141562000639576040517f08c379a00000000000000000000000000000000000000000000000000000000081526004016200063090620008d5565b60405180910390fd5b8260000160008373ffffffffffffffffffffffffffffffffffffffff1673ffffffffffffffffffffffffffffffffffffffff16815260200190815260200160002060009054906101000a900460ff16905092915050565b828054600181600116156101000203166002900490600052602060002090601f016020900481019282601f10620006d357805160ff191683800117855562000704565b8280016001018555821562000704579182015b8281111562000703578251825591602001919060010190620006e6565b5b50905062000713919062000717565b5090565b5b808211156200073257600081600090555060010162000718565b5090565b600081519050620007478162000946565b92915050565b6000815190506200075e8162000960565b92915050565b600080604083850312156200077857600080fd5b6000620007888582860162000736565b92505060206200079b858286016200074d565b9150509250929050565b6000620007b4601b83620008f7565b91507f56616c6f7220646520466565206d61696f7220717565203130302500000000006000830152602082019050919050565b6000620007f6601f83620008f7565b91507f526f6c65733a206163636f756e7420616c72656164792068617320726f6c65006000830152602082019050919050565b600062000838602283620008f7565b91507f526f6c65733a206163636f756e7420697320746865207a65726f20616464726560008301527f73730000000000000000000000000000000000000000000000000000000000006020830152604082019050919050565b60006020820190508181036000830152620008ac81620007a5565b9050919050565b60006020820190508181036000830152620008ce81620007e7565b9050919050565b60006020820190508181036000830152620008f08162000829565b9050919050565b600082825260208201905092915050565b600062000915826200091c565b9050919050565b600073ffffffffffffffffffffffffffffffffffffffff82169050919050565b6000819050919050565b620009518162000908565b81146200095d57600080fd5b50565b6200096b816200093c565b81146200097757600080fd5b50565b615c18806200098a6000396000f3fe608060405234801561001057600080fd5b50600436106102bb5760003560e01c80638404e6e011610182578063ca196e3c116100e9578063dafc3fad116100a2578063f0ad17db1161007c578063f0ad17db14610851578063f2fde38b1461086d578063fa7ca7ea14610889578063fc4b505d146108b9576102bb565b8063dafc3fad146107e5578063e4c7426f14610801578063ee33b0bc1461081f576102bb565b8063ca196e3c146106ed578063cc70091a14610709578063cd541b7a14610739578063cea2312114610769578063d91be4c214610799578063daeb1cc9146107b5576102bb565b80638f32d59b1161013b5780638f32d59b1461062b578063942429e414610649578063a6ee26e114610679578063ad641da614610695578063b201a777146106b3578063ba6ad853146106d1576102bb565b80638404e6e01461058a5780638456cb59146105a85780638cabf128146105b25780638da5cb5b146105d05780638e1b808a146105ee5780638e6694811461060d576102bb565b806355a2456e116102265780636c4282da116101df5780636c4282da146104fe5780636ef8d66d1461051e5780636f30506714610528578063715018a6146105465780637b1039991461055057806382dc1ec41461056e576102bb565b806355a2456e1461044a5780635a961b15146104665780635b50875a146104845780635c975abb146104a2578063618547a9146104c057806367da3e85146104e0576102bb565b806324547b8a1161027857806324547b8a14610388578063329afd3a146103a65780633f4ba83a146103c457806341574b3b146103ce57806346fbf68e146103ea5780634abfa1631461041a576102bb565b806302fce699146102c05780630715aa6e146102e057806307728f0f146102fe5780630b2e8fe91461031c5780630c9415b51461033a57806317251ba91461036c575b600080fd5b6102c86108d7565b6040516102d7939291906152bb565b60405180910390f35b6102e8610a2f565b6040516102f59190615919565b60405180910390f35b610306610a42565b6040516103139190615396565b60405180910390f35b610324610ae0565b60405161033191906151f6565b60405180910390f35b610354600480360381019061034f919061412c565b610b06565b604051610363939291906152bb565b60405180910390f35b6103866004803603810190610381919061416d565b610c67565b005b610390610e24565b60405161039d9190615919565b60405180910390f35b6103ae610e37565b6040516103bb91906151f6565b60405180910390f35b6103cc610e5d565b005b6103e860048036038101906103e39190613f2e565b610f56565b005b61040460048036038101906103ff9190613e64565b611407565b604051610411919061522c565b60405180910390f35b610434600480360381019061042f919061416d565b611424565b604051610441919061522c565b60405180910390f35b610464600480360381019061045f9190613e64565b611444565b005b61046e611488565b60405161047b9190615396565b60405180910390f35b61048c611526565b6040516104999190615919565b60405180910390f35b6104aa611539565b6040516104b7919061522c565b60405180910390f35b6104c8611550565b6040516104d7939291906152bb565b60405180910390f35b6104e86116a8565b6040516104f59190615396565b60405180910390f35b610506611746565b604051610515939291906152bb565b60405180910390f35b61052661189e565b005b6105306118b0565b60405161053d9190615919565b60405180910390f35b61054e6118c3565b005b6105586119c8565b604051610565919061533e565b60405180910390f35b61058860048036038101906105839190613e64565b6119ee565b005b610592611a49565b60405161059f9190615919565b60405180910390f35b6105b0611a5c565b005b6105ba611b56565b6040516105c791906151f6565b60405180910390f35b6105d8611b7c565b6040516105e591906151f6565b60405180910390f35b6105f6611ba5565b604051610604929190615262565b60405180910390f35b610615611c25565b6040516106229190615396565b60405180910390f35b610633611cc3565b604051610640919061522c565b60405180910390f35b610663600480360381019061065e919061416d565b611d21565b6040516106709190615247565b60405180910390f35b610693600480360381019061068e919061404a565b611d51565b005b61069d611e6f565b6040516106aa91906157cf565b60405180910390f35b6106bb611e75565b6040516106c89190615919565b60405180910390f35b6106eb60048036038101906106e69190613e8d565b611e88565b005b6107076004803603810190610702919061416d565b6120aa565b005b610723600480360381019061071e919061412c565b612279565b6040516107309190615247565b60405180910390f35b610753600480360381019061074e9190614021565b6122a9565b6040516107609190615247565b60405180910390f35b610783600480360381019061077e919061416d565b6122cd565b604051610790919061522c565b60405180910390f35b6107b360048036038101906107ae91906141bf565b6122ed565b005b6107cf60048036038101906107ca91906141fb565b612629565b6040516107dc919061522c565b60405180910390f35b6107ff60048036038101906107fa91906141bf565b61266e565b005b61080961273c565b6040516108169190615359565b60405180910390f35b6108396004803603810190610834919061412c565b612762565b604051610848939291906152bb565b60405180910390f35b61086b600480360381019061086691906140b1565b6128c3565b005b61088760048036038101906108829190613e64565b612b46565b005b6108a3600480360381019061089e919061416d565b612b99565b6040516108b09190615247565b60405180910390f35b6108c1612bba565b6040516108ce9190615396565b60405180910390f35b600080606060006108f9601060149054906101000a900460ff1660ff16611d21565b90506000610918601060159054906101000a900460ff1660ff16611d21565b90506060600167ffffffffffffffff8111801561093457600080fd5b5060405190808252806020026020018201604052801561096857816020015b60608152602001906001900390816109535790505b50905060098054600181600116156101000203166002900480601f016020809104026020016040519081016040528092919081815260200182805460018160011615610100020316600290048015610a015780601f106109d657610100808354040283529160200191610a01565b820191906000526020600020905b8154815290600101906020018083116109e457829003601f168201915b505050505081600081518110610a1357fe5b6020026020010181905250828282955095509550505050909192565b601060149054906101000a900460ff1681565b60098054600181600116156101000203166002900480601f016020809104026020016040519081016040528092919081815260200182805460018160011615610100020316600290048015610ad85780601f10610aad57610100808354040283529160200191610ad8565b820191906000526020600020905b815481529060010190602001808311610abb57829003601f168201915b505050505081565b601060009054906101000a900473ffffffffffffffffffffffffffffffffffffffff1681565b60008060606000610b1685612279565b90506000610b35601060189054906101000a900460ff1660ff16611d21565b90506060600267ffffffffffffffff81118015610b5157600080fd5b50604051908082528060200260200182016040528015610b8557816020015b6060815260200190600190039081610b705790505b509050600b8054600181600116156101000203166002900480601f016020809104026020016040519081016040528092919081815260200182805460018160011615610100020316600290048015610c1e5780601f10610bf357610100808354040283529160200191610c1e565b820191906000526020600020905b815481529060010190602001808311610c0157829003601f168201915b505050505081600081518110610c3057fe5b60200260200101819052508681600181518110610c4957fe5b60200260200101819052508282829550955095505050509193909250565b610c6f611cc3565b610cae576040517f08c379a0000000000000000000000000000000000000000000000000000000008152600401610ca59061564f565b60405180910390fd5b600260019054906101000a900473ffffffffffffffffffffffffffffffffffffffff1673ffffffffffffffffffffffffffffffffffffffff1663613a7896826040518263ffffffff1660e01b8152600401610d0991906157cf565b60206040518083038186803b158015610d2157600080fd5b505afa158015610d35573d6000803e3d6000fd5b505050506040513d601f19601f82011682018060405250810190610d599190613ff8565b610d98576040517f08c379a0000000000000000000000000000000000000000000000000000000008152600401610d8f906155af565b60405180910390fd5b6004600082815260200190815260200160002060009054906101000a900460ff16610e215760016004600083815260200190815260200160002060006101000a81548160ff0219169083151502179055507fbf594816977ea5809bf299bfeeb10d2cb41e25a998a19fafe5460164b3cdb08b81604051610e1891906157cf565b60405180910390a15b50565b601060159054906101000a900460ff1681565b600e60009054906101000a900473ffffffffffffffffffffffffffffffffffffffff1681565b610e6d610e68612d00565b611407565b610eac576040517f08c379a0000000000000000000000000000000000000000000000000000000008152600401610ea39061544f565b60405180910390fd5b600260009054906101000a900460ff16610efb576040517f08c379a0000000000000000000000000000000000000000000000000000000008152600401610ef29061540f565b60405180910390fd5b6000600260006101000a81548160ff0219169083151502179055507f5db9ee0a495bf2e6ff9c91a7834c1ba4fdd244a5e8aa4e537bd38aeae4b073aa610f3f612d00565b604051610f4c9190615211565b60405180910390a1565b600260009054906101000a900460ff1615610fa6576040517f08c379a0000000000000000000000000000000000000000000000000000000008152600401610f9d9061556f565b60405180910390fd5b600360009054906101000a900473ffffffffffffffffffffffffffffffffffffffff1673ffffffffffffffffffffffffffffffffffffffff163373ffffffffffffffffffffffffffffffffffffffff1614611036576040517f08c379a000000000000000000000000000000000000000000000000000000000815260040161102d9061578f565b60405180910390fd5b60608160008151811061104557fe5b6020026020010151905060008411611092576040517f08c379a00000000000000000000000000000000000000000000000000000000081526004016110899061552f565b60405180910390fd5b73__RBBLib________________________________63465c41056009836040518363ffffffff1660e01b81526004016110cc9291906153b8565b60206040518083038186803b1580156110e457600080fd5b505af41580156110f8573d6000803e3d6000fd5b505050506040513d601f19601f8201168201806040525081019061111c9190613ff8565b15611136576111318989898989898989612d08565b6113fc565b73__RBBLib________________________________63465c4105600a836040518363ffffffff1660e01b81526004016111709291906153b8565b60206040518083038186803b15801561118857600080fd5b505af415801561119c573d6000803e3d6000fd5b505050506040513d601f19601f820116820180604052508101906111c09190613ff8565b156111da576111d5898989898989898961308c565b6113fb565b73__RBBLib________________________________63465c4105600b836040518363ffffffff1660e01b81526004016112149291906153b8565b60206040518083038186803b15801561122c57600080fd5b505af4158015611240573d6000803e3d6000fd5b505050506040513d601f19601f820116820180604052508101906112649190613ff8565b1561127e57611279898989898989898961342d565b6113fa565b73__RBBLib________________________________63465c4105600c836040518363ffffffff1660e01b81526004016112b89291906153b8565b60206040518083038186803b1580156112d057600080fd5b505af41580156112e4573d6000803e3d6000fd5b505050506040513d601f19601f820116820180604052508101906113089190613ff8565b156113225761131d89898989898989896136d0565b6113f9565b73__RBBLib________________________________63465c4105600d836040518363ffffffff1660e01b815260040161135c9291906153b8565b60206040518083038186803b15801561137457600080fd5b505af4158015611388573d6000803e3d6000fd5b505050506040513d601f19601f820116820180604052508101906113ac9190613ff8565b156113b6576113f8565b60006113f7576040517f08c379a00000000000000000000000000000000000000000000000000000000081526004016113ee9061568f565b60405180910390fd5b5b5b5b5b5b505050505050505050565b600061141d8260016139e390919063ffffffff16565b9050919050565b60046020528060005260406000206000915054906101000a900460ff1681565b80600260016101000a81548173ffffffffffffffffffffffffffffffffffffffff021916908373ffffffffffffffffffffffffffffffffffffffff16021790555050565b600d8054600181600116156101000203166002900480601f01602080910402602001604051908101604052809291908181526020018280546001816001161561010002031660029004801561151e5780601f106114f35761010080835404028352916020019161151e565b820191906000526020600020905b81548152906001019060200180831161150157829003601f168201915b505050505081565b601060179054906101000a900460ff1681565b6000600260009054906101000a900460ff16905090565b60008060606000611572601060149054906101000a900460ff1660ff16611d21565b90506000611591601060169054906101000a900460ff1660ff16611d21565b90506060600167ffffffffffffffff811180156115ad57600080fd5b506040519080825280602002602001820160405280156115e157816020015b60608152602001906001900390816115cc5790505b50905060098054600181600116156101000203166002900480601f01602080910402602001604051908101604052809291908181526020018280546001816001161561010002031660029004801561167a5780601f1061164f5761010080835404028352916020019161167a565b820191906000526020600020905b81548152906001019060200180831161165d57829003601f168201915b50505050508160008151811061168c57fe5b6020026020010181905250828282955095509550505050909192565b600b8054600181600116156101000203166002900480601f01602080910402602001604051908101604052809291908181526020018280546001816001161561010002031660029004801561173e5780601f106117135761010080835404028352916020019161173e565b820191906000526020600020905b81548152906001019060200180831161172157829003601f168201915b505050505081565b60008060606000611768601060159054906101000a900460ff1660ff16611d21565b90506000611787601060189054906101000a900460ff1660ff16611d21565b90506060600167ffffffffffffffff811180156117a357600080fd5b506040519080825280602002602001820160405280156117d757816020015b60608152602001906001900390816117c25790505b509050600c8054600181600116156101000203166002900480601f0160208091040260200160405190810160405280929190818152602001828054600181600116156101000203166002900480156118705780601f1061184557610100808354040283529160200191611870565b820191906000526020600020905b81548152906001019060200180831161185357829003601f168201915b50505050508160008151811061188257fe5b6020026020010181905250828282955095509550505050909192565b6118ae6118a9612d00565b613aab565b565b601060169054906101000a900460ff1681565b6118cb611cc3565b61190a576040517f08c379a00000000000000000000000000000000000000000000000000000000081526004016119019061564f565b60405180910390fd5b600073ffffffffffffffffffffffffffffffffffffffff1660008054906101000a900473ffffffffffffffffffffffffffffffffffffffff1673ffffffffffffffffffffffffffffffffffffffff167f8be0079c531659141344cd1fd0a4f28419497f9722a3daafe3b4186f6b6457e060405160405180910390a360008060006101000a81548173ffffffffffffffffffffffffffffffffffffffff021916908373ffffffffffffffffffffffffffffffffffffffff160217905550565b600260019054906101000a900473ffffffffffffffffffffffffffffffffffffffff1681565b6119fe6119f9612d00565b611407565b611a3d576040517f08c379a0000000000000000000000000000000000000000000000000000000008152600401611a349061544f565b60405180910390fd5b611a4681613b05565b50565b601060189054906101000a900460ff1681565b611a6c611a67612d00565b611407565b611aab576040517f08c379a0000000000000000000000000000000000000000000000000000000008152600401611aa29061544f565b60405180910390fd5b600260009054906101000a900460ff1615611afb576040517f08c379a0000000000000000000000000000000000000000000000000000000008152600401611af29061556f565b60405180910390fd5b6001600260006101000a81548160ff0219169083151502179055507f62e78cea01bee320cd4e420270b5ea74000d11b0c9f74754ebdbfc544b05a258611b3f612d00565b604051611b4c9190615211565b60405180910390a1565b600f60009054906101000a900473ffffffffffffffffffffffffffffffffffffffff1681565b60008060009054906101000a900473ffffffffffffffffffffffffffffffffffffffff16905090565b600060606000611bc6601060189054906101000a900460ff1660ff16611d21565b90506060600067ffffffffffffffff81118015611be257600080fd5b50604051908082528060200260200182016040528015611c1657816020015b6060815260200190600190039081611c015790505b50905081819350935050509091565b600a8054600181600116156101000203166002900480601f016020809104026020016040519081016040528092919081815260200182805460018160011615610100020316600290048015611cbb5780601f10611c9057610100808354040283529160200191611cbb565b820191906000526020600020905b815481529060010190602001808311611c9e57829003601f168201915b505050505081565b60008060009054906101000a900473ffffffffffffffffffffffffffffffffffffffff1673ffffffffffffffffffffffffffffffffffffffff16611d05612d00565b73ffffffffffffffffffffffffffffffffffffffff1614905090565b600081604051602001611d3491906151db565b604051602081830303815290604052805190602001209050919050565b600260009054906101000a900460ff1615611da1576040517f08c379a0000000000000000000000000000000000000000000000000000000008152600401611d989061556f565b60405180910390fd5b600360009054906101000a900473ffffffffffffffffffffffffffffffffffffffff1673ffffffffffffffffffffffffffffffffffffffff163373ffffffffffffffffffffffffffffffffffffffff1614611e31576040517f08c379a0000000000000000000000000000000000000000000000000000000008152600401611e289061578f565b60405180910390fd5b7ff2117f45bb026f7f165d939836d0293bad4b8aaf2e658cb38900da27a81306558383604051611e62929190615292565b60405180910390a1505050565b60085481565b601060199054906101000a900460ff1681565b600260009054906101000a900460ff1615611ed8576040517f08c379a0000000000000000000000000000000000000000000000000000000008152600401611ecf9061556f565b60405180910390fd5b600360009054906101000a900473ffffffffffffffffffffffffffffffffffffffff1673ffffffffffffffffffffffffffffffffffffffff163373ffffffffffffffffffffffffffffffffffffffff1614611f68576040517f08c379a0000000000000000000000000000000000000000000000000000000008152600401611f5f9061578f565b60405180910390fd5b60008311611fab576040517f08c379a0000000000000000000000000000000000000000000000000000000008152600401611fa29061552f565b60405180910390fd5b6006600086815260200190815260200160002060009054906101000a900460ff1661200b576040517f08c379a00000000000000000000000000000000000000000000000000000000081526004016120029061550f565b60405180910390fd5b83612027601060189054906101000a900460ff1660ff16611d21565b14612067576040517f08c379a000000000000000000000000000000000000000000000000000000000815260040161205e9061554f565b60405180910390fd5b7fb30495d559e05f5f1c993ea722cb239b6d85f70ed9c914b8350c4b94feed7ccd85848460405161209a939291906158e2565b60405180910390a1505050505050565b600f60009054906101000a900473ffffffffffffffffffffffffffffffffffffffff1673ffffffffffffffffffffffffffffffffffffffff163373ffffffffffffffffffffffffffffffffffffffff161461213a576040517f08c379a00000000000000000000000000000000000000000000000000000000081526004016121319061558f565b60405180910390fd5b6006600082815260200190815260200160002060009054906101000a900460ff166122765760016006600083815260200190815260200160002060006101000a81548160ff0219169083151502179055507f2757aa27a660ab391745e035b5a23653f6497d768c445f6a9c3df78e1d18727f600260019054906101000a900473ffffffffffffffffffffffffffffffffffffffff1673ffffffffffffffffffffffffffffffffffffffff166365f68c896121f2611b7c565b6040518263ffffffff1660e01b815260040161220e91906151f6565b60206040518083038186803b15801561222657600080fd5b505afa15801561223a573d6000803e3d6000fd5b505050506040513d601f19601f8201168201806040525081019061225e9190614196565b8260405161226d9291906158b9565b60405180910390a15b50565b60008160405160200161228c91906151c4565b604051602081830303815290604052805190602001209050919050565b60006122c6601060149054906101000a900460ff1660ff16611d21565b9050919050565b60066020528060005260406000206000915054906101000a900460ff1681565b600260009054906101000a900460ff161561233d576040517f08c379a00000000000000000000000000000000000000000000000000000000081526004016123349061556f565b60405180910390fd5b6000600260019054906101000a900473ffffffffffffffffffffffffffffffffffffffff1673ffffffffffffffffffffffffffffffffffffffff166365f68c89336040518263ffffffff1660e01b815260040161239a9190615211565b60206040518083038186803b1580156123b257600080fd5b505afa1580156123c6573d6000803e3d6000fd5b505050506040513d601f19601f820116820180604052508101906123ea9190614196565b90506004600082815260200190815260200160002060009054906101000a900460ff1661244c576040517f08c379a00000000000000000000000000000000000000000000000000000000081526004016124439061562f565b60405180910390fd5b600260019054906101000a900473ffffffffffffffffffffffffffffffffffffffff1673ffffffffffffffffffffffffffffffffffffffff1663613a7896826040518263ffffffff1660e01b81526004016124a791906157cf565b60206040518083038186803b1580156124bf57600080fd5b505afa1580156124d3573d6000803e3d6000fd5b505050506040513d601f19601f820116820180604052508101906124f79190613ff8565b612536576040517f08c379a000000000000000000000000000000000000000000000000000000000815260040161252d906155af565b60405180910390fd5b6000612553601060199054906101000a900460ff1660ff16611d21565b9050600360009054906101000a900473ffffffffffffffffffffffffffffffffffffffff1673ffffffffffffffffffffffffffffffffffffffff166304cc4d8e828487876040518563ffffffff1660e01b81526004016125b694939291906152f9565b600060405180830381600087803b1580156125d057600080fd5b505af11580156125e4573d6000803e3d6000fd5b505050507f1bb5ed67b2bbb22aaf99cdcf7dbcf09ad7b4e3999dab8f77fd76c207b6e226da82858560405161261b939291906158e2565b60405180910390a150505050565b6005602052816000526040600020818051602081018201805184825260208301602085012081835280955050505050506000915091509054906101000a900460ff1681565b612676611cc3565b6126b5576040517f08c379a00000000000000000000000000000000000000000000000000000000081526004016126ac9061564f565b60405180910390fd5b606482106126f8576040517f08c379a00000000000000000000000000000000000000000000000000000000081526004016126ef906153ef565b60405180910390fd5b816008819055507f94514d602145b96a19d64f0297fc93f891dfa585d0b414185acfe635b073752b82826040516127309291906157ea565b60405180910390a15050565b600360009054906101000a900473ffffffffffffffffffffffffffffffffffffffff1681565b60008060606000612784601060159054906101000a900460ff1660ff16611d21565b9050600061279186612279565b90506060600267ffffffffffffffff811180156127ad57600080fd5b506040519080825280602002602001820160405280156127e157816020015b60608152602001906001900390816127cc5790505b509050600a8054600181600116156101000203166002900480601f01602080910402602001604051908101604052809291908181526020018280546001816001161561010002031660029004801561287a5780601f1061284f5761010080835404028352916020019161287a565b820191906000526020600020905b81548152906001019060200180831161285d57829003601f168201915b50505050508160008151811061288c57fe5b602002602001018190525086816001815181106128a557fe5b60200260200101819052508282829550955095505050509193909250565b600260009054906101000a900460ff1615612913576040517f08c379a000000000000000000000000000000000000000000000000000000000815260040161290a9061556f565b60405180910390fd5b600360009054906101000a900473ffffffffffffffffffffffffffffffffffffffff1673ffffffffffffffffffffffffffffffffffffffff163373ffffffffffffffffffffffffffffffffffffffff16146129a3576040517f08c379a000000000000000000000000000000000000000000000000000000000815260040161299a9061578f565b60405180910390fd5b836129bf601060199054906101000a900460ff1660ff16611d21565b146129ff576040517f08c379a00000000000000000000000000000000000000000000000000000000081526004016129f69061560f565b60405180910390fd5b606081600081518110612a0e57fe5b60200260200101519050600073__RBBLib________________________________633581ee54836040518263ffffffff1660e01b8152600401612a519190615374565b60206040518083038186803b158015612a6957600080fd5b505af4158015612a7d573d6000803e3d6000fd5b505050506040513d601f19601f82011682018060405250810190612aa19190614196565b90506004600082815260200190815260200160002060009054906101000a900460ff16612b03576040517f08c379a0000000000000000000000000000000000000000000000000000000008152600401612afa906156af565b60405180910390fd5b7f5d4d346a0213ff920be5c680b2dae20438f8a3447c0b4bd37268d1d2f523432a818686604051612b36939291906158e2565b60405180910390a1505050505050565b612b4e611cc3565b612b8d576040517f08c379a0000000000000000000000000000000000000000000000000000000008152600401612b849061564f565b60405180910390fd5b612b9681613b5f565b50565b60078181548110612ba657fe5b906000526020600020016000915090505481565b600c8054600181600116156101000203166002900480601f016020809104026020016040519081016040528092919081815260200182805460018160011615610100020316600290048015612c505780601f10612c2557610100808354040283529160200191612c50565b820191906000526020600020905b815481529060010190602001808311612c3357829003601f168201915b505050505081565b612c6282826139e3565b15612ca2576040517f08c379a0000000000000000000000000000000000000000000000000000000008152600401612c999061542f565b60405180910390fd5b60018260000160008373ffffffffffffffffffffffffffffffffffffffff1673ffffffffffffffffffffffffffffffffffffffff16815260200190815260200160002060006101000a81548160ff0219169083151502179055505050565b600033905090565b600260009054906101000a900460ff1615612d58576040517f08c379a0000000000000000000000000000000000000000000000000000000008152600401612d4f9061556f565b60405180910390fd5b8773ffffffffffffffffffffffffffffffffffffffff16600e60009054906101000a900473ffffffffffffffffffffffffffffffffffffffff1673ffffffffffffffffffffffffffffffffffffffff1614612de8576040517f08c379a0000000000000000000000000000000000000000000000000000000008152600401612ddf906156ef565b60405180910390fd5b6000600260019054906101000a900473ffffffffffffffffffffffffffffffffffffffff1673ffffffffffffffffffffffffffffffffffffffff166365f68c89612e30611b7c565b6040518263ffffffff1660e01b8152600401612e4c91906151f6565b60206040518083038186803b158015612e6457600080fd5b505afa158015612e78573d6000803e3d6000fd5b505050506040513d601f19601f82011682018060405250810190612e9c9190614196565b9050808814612ee0576040517f08c379a0000000000000000000000000000000000000000000000000000000008152600401612ed79061574f565b60405180910390fd5b612efb601060149054906101000a900460ff1660ff16611d21565b8714612f3c576040517f08c379a0000000000000000000000000000000000000000000000000000000008152600401612f339061572f565b60405180910390fd5b858814612f7e576040517f08c379a0000000000000000000000000000000000000000000000000000000008152600401612f75906155ef565b60405180910390fd5b612f99601060159054906101000a900460ff1660ff16611d21565b851415612fde577f94d89c2ff047eba28eb56cacf5a8e292f150c43e792d648d54f8b93372849b3c8484604051612fd19291906157ea565b60405180910390a1613081565b612ff9601060169054906101000a900460ff1660ff16611d21565b85141561303e577f7916e578b526c14777538bb519e208901510a7ff7765e2e339258b6ba65272fc84846040516130319291906157ea565b60405180910390a1613080565b600061307f576040517f08c379a00000000000000000000000000000000000000000000000000000000081526004016130769061576f565b60405180910390fd5b5b5b505050505050505050565b600260009054906101000a900460ff16156130dc576040517f08c379a00000000000000000000000000000000000000000000000000000000081526004016130d39061556f565b60405180910390fd5b6060816001815181106130eb57fe5b602002602001015190506000600260019054906101000a900473ffffffffffffffffffffffffffffffffffffffff1673ffffffffffffffffffffffffffffffffffffffff166365f68c8961313d611b7c565b6040518263ffffffff1660e01b815260040161315991906151f6565b60206040518083038186803b15801561317157600080fd5b505afa158015613185573d6000803e3d6000fd5b505050506040513d601f19601f820116820180604052508101906131a99190614196565b9050600f60009054906101000a900473ffffffffffffffffffffffffffffffffffffffff1673ffffffffffffffffffffffffffffffffffffffff168a73ffffffffffffffffffffffffffffffffffffffff161461323b576040517f08c379a00000000000000000000000000000000000000000000000000000000081526004016132329061558f565b60405180910390fd5b80891461327d576040517f08c379a00000000000000000000000000000000000000000000000000000000081526004016132749061574f565b60405180910390fd5b87613299601060159054906101000a900460ff1660ff16611d21565b146132d9576040517f08c379a00000000000000000000000000000000000000000000000000000000081526004016132d0906154ef565b60405180910390fd5b856132e383612279565b14613323576040517f08c379a000000000000000000000000000000000000000000000000000000000815260040161331a906157af565b60405180910390fd5b600560008881526020019081526020016000208260405161334491906151c4565b908152602001604051809103902060009054906101000a900460ff166133e4576001600560008981526020019081526020016000208360405161338791906151c4565b908152602001604051809103902060006101000a81548160ff0219169083151502179055507f448b0dd714fa3713f69988b8ee8bad3ac840e06e3d93c970086a3d490d61c629876040516133db91906157cf565b60405180910390a15b7fe08d0d3d48ef9857108be67cfe715057ce9b455eaf3a4d3b66f34bf148311d7a878387876040516134199493929190615813565b60405180910390a150505050505050505050565b600260009054906101000a900460ff161561347d576040517f08c379a00000000000000000000000000000000000000000000000000000000081526004016134749061556f565b60405180910390fd5b60608160018151811061348c57fe5b6020026020010151905060056000898152602001908152602001600020816040516134b791906151c4565b908152602001604051809103902060009054906101000a900460ff16613512576040517f08c379a00000000000000000000000000000000000000000000000000000000081526004016135099061546f565b60405180910390fd5b8661351c82612279565b1461355c576040517f08c379a0000000000000000000000000000000000000000000000000000000008152600401613553906157af565b60405180910390fd5b84613578601060189054906101000a900460ff1660ff16611d21565b146135b8576040517f08c379a00000000000000000000000000000000000000000000000000000000081526004016135af9061554f565b60405180910390fd5b858814156135fb576040517f08c379a00000000000000000000000000000000000000000000000000000000081526004016135f2906154cf565b60405180910390fd5b6006600087815260200190815260200160002060009054906101000a900460ff166136865760016006600088815260200190815260200160002060006101000a81548160ff0219169083151502179055507f2757aa27a660ab391745e035b5a23653f6497d768c445f6a9c3df78e1d18727f888760405161367d9291906158b9565b60405180910390a15b7fdd62ead748da3466d84db25e6f55c3213f29aaf5c159d4d576018cd84209782688828887876040516136bd95949392919061585f565b60405180910390a1505050505050505050565b600260009054906101000a900460ff1615613720576040517f08c379a00000000000000000000000000000000000000000000000000000000081526004016137179061556f565b60405180910390fd5b600f60009054906101000a900473ffffffffffffffffffffffffffffffffffffffff1673ffffffffffffffffffffffffffffffffffffffff168873ffffffffffffffffffffffffffffffffffffffff16146137b0576040517f08c379a00000000000000000000000000000000000000000000000000000000081526004016137a79061558f565b60405180910390fd5b600260019054906101000a900473ffffffffffffffffffffffffffffffffffffffff1673ffffffffffffffffffffffffffffffffffffffff166365f68c896137f6611b7c565b6040518263ffffffff1660e01b815260040161381291906151f6565b60206040518083038186803b15801561382a57600080fd5b505afa15801561383e573d6000803e3d6000fd5b505050506040513d601f19601f820116820180604052508101906138629190614196565b87146138a3576040517f08c379a000000000000000000000000000000000000000000000000000000000815260040161389a9061548f565b60405180910390fd5b856138bf601060169054906101000a900460ff1660ff16611d21565b146138ff576040517f08c379a00000000000000000000000000000000000000000000000000000000081526004016138f69061570f565b60405180910390fd5b8361391b601060189054906101000a900460ff1660ff16611d21565b1461395b576040517f08c379a00000000000000000000000000000000000000000000000000000000081526004016139529061554f565b60405180910390fd5b8487141561399e576040517f08c379a0000000000000000000000000000000000000000000000000000000008152600401613995906156cf565b60405180910390fd5b7f8316c04a0a2b1e71f63264f2f0380d43ae9f758672a97012d6880fcedcb542328584846040516139d1939291906158e2565b60405180910390a15050505050505050565b60008073ffffffffffffffffffffffffffffffffffffffff168273ffffffffffffffffffffffffffffffffffffffff161415613a54576040517f08c379a0000000000000000000000000000000000000000000000000000000008152600401613a4b9061566f565b60405180910390fd5b8260000160008373ffffffffffffffffffffffffffffffffffffffff1673ffffffffffffffffffffffffffffffffffffffff16815260200190815260200160002060009054906101000a900460ff16905092915050565b613abf816001613c8c90919063ffffffff16565b8073ffffffffffffffffffffffffffffffffffffffff167fcd265ebaf09df2871cc7bd4133404a235ba12eff2041bb89d9c714a2621c7c7e60405160405180910390a250565b613b19816001612c5890919063ffffffff16565b8073ffffffffffffffffffffffffffffffffffffffff167f6719d08c1888103bea251a4ed56406bd0c3e69723c8a1686e017e7bbe159b6f860405160405180910390a250565b600073ffffffffffffffffffffffffffffffffffffffff168173ffffffffffffffffffffffffffffffffffffffff161415613bcf576040517f08c379a0000000000000000000000000000000000000000000000000000000008152600401613bc6906154af565b60405180910390fd5b8073ffffffffffffffffffffffffffffffffffffffff1660008054906101000a900473ffffffffffffffffffffffffffffffffffffffff1673ffffffffffffffffffffffffffffffffffffffff167f8be0079c531659141344cd1fd0a4f28419497f9722a3daafe3b4186f6b6457e060405160405180910390a3806000806101000a81548173ffffffffffffffffffffffffffffffffffffffff021916908373ffffffffffffffffffffffffffffffffffffffff16021790555050565b613c9682826139e3565b613cd5576040517f08c379a0000000000000000000000000000000000000000000000000000000008152600401613ccc906155cf565b60405180910390fd5b60008260000160008373ffffffffffffffffffffffffffffffffffffffff1673ffffffffffffffffffffffffffffffffffffffff16815260200190815260200160002060006101000a81548160ff0219169083151502179055505050565b600081359050613d4281615b86565b92915050565b600082601f830112613d5957600080fd5b8135613d6c613d6782615961565b615934565b9150818183526020840193506020810190508360005b83811015613db25781358601613d988882613de6565b845260208401935060208301925050600181019050613d82565b5050505092915050565b600081519050613dcb81615b9d565b92915050565b600081359050613de081615bb4565b92915050565b600082601f830112613df757600080fd5b8135613e0a613e0582615989565b615934565b91508082526020830160208301858383011115613e2657600080fd5b613e31838284615b29565b50505092915050565b600081359050613e4981615bcb565b92915050565b600081519050613e5e81615bcb565b92915050565b600060208284031215613e7657600080fd5b6000613e8484828501613d33565b91505092915050565b60008060008060008060c08789031215613ea657600080fd5b6000613eb489828a01613d33565b9650506020613ec589828a01613e3a565b9550506040613ed689828a01613dd1565b9450506060613ee789828a01613e3a565b9350506080613ef889828a01613dd1565b92505060a087013567ffffffffffffffff811115613f1557600080fd5b613f2189828a01613d48565b9150509295509295509295565b600080600080600080600080610100898b031215613f4b57600080fd5b6000613f598b828c01613d33565b9850506020613f6a8b828c01613e3a565b9750506040613f7b8b828c01613dd1565b9650506060613f8c8b828c01613e3a565b9550506080613f9d8b828c01613dd1565b94505060a0613fae8b828c01613e3a565b93505060c0613fbf8b828c01613dd1565b92505060e089013567ffffffffffffffff811115613fdc57600080fd5b613fe88b828c01613d48565b9150509295985092959890939650565b60006020828403121561400a57600080fd5b600061401884828501613dbc565b91505092915050565b60006020828403121561403357600080fd5b600061404184828501613dd1565b91505092915050565b60008060006060848603121561405f57600080fd5b600061406d86828701613dd1565b935050602061407e86828701613dd1565b925050604084013567ffffffffffffffff81111561409b57600080fd5b6140a786828701613d48565b9150509250925092565b600080600080608085870312156140c757600080fd5b60006140d587828801613dd1565b94505060206140e687828801613e3a565b93505060406140f787828801613dd1565b925050606085013567ffffffffffffffff81111561411457600080fd5b61412087828801613d48565b91505092959194509250565b60006020828403121561413e57600080fd5b600082013567ffffffffffffffff81111561415857600080fd5b61416484828501613de6565b91505092915050565b60006020828403121561417f57600080fd5b600061418d84828501613e3a565b91505092915050565b6000602082840312156141a857600080fd5b60006141b684828501613e4f565b91505092915050565b600080604083850312156141d257600080fd5b60006141e085828601613e3a565b92505060206141f185828601613dd1565b9150509250929050565b6000806040838503121561420e57600080fd5b600061421c85828601613e3a565b925050602083013567ffffffffffffffff81111561423957600080fd5b61424585828601613de6565b9150509250929050565b600061425b8383614332565b905092915050565b61426c81615aab565b82525050565b61427b81615a4c565b82525050565b600061428c826159da565b61429681856159fd565b9350836020820285016142a8856159b5565b8060005b858110156142e457848403895281516142c5858261424f565b94506142d0836159f0565b925060208a019950506001810190506142ac565b50829750879550505050505092915050565b6142ff81615a5e565b82525050565b61430e81615a6a565b82525050565b61431d81615abd565b82525050565b61432c81615ae1565b82525050565b600061433d826159e5565b6143478185615a0e565b9350614357818560208601615b38565b61436081615b75565b840191505092915050565b6000614376826159e5565b6143808185615a1f565b9350614390818560208601615b38565b61439981615b75565b840191505092915050565b60006143af826159e5565b6143b98185615a30565b93506143c9818560208601615b38565b6143d281615b75565b840191505092915050565b60006143e8826159e5565b6143f28185615a41565b9350614402818560208601615b38565b80840191505092915050565b60008154600181166000811461442b576001811461445157614495565b607f600283041661443c8187615a30565b955060ff198316865260208601935050614495565b6002820461445f8187615a30565b955061446a856159c5565b60005b8281101561448c5781548189015260018201915060208101905061446d565b80880195505050505b505092915050565b60006144aa601b83615a1f565b91507f56616c6f7220646520466565206d61696f7220717565203130302500000000006000830152602082019050919050565b60006144ea601483615a1f565b91507f5061757361626c653a206e6f74207061757365640000000000000000000000006000830152602082019050919050565b600061452a601f83615a1f565b91507f526f6c65733a206163636f756e7420616c72656164792068617320726f6c65006000830152602082019050919050565b600061456a603083615a1f565b91507f506175736572526f6c653a2063616c6c657220646f6573206e6f74206861766560008301527f207468652050617573657220726f6c65000000000000000000000000000000006020830152604082019050919050565b60006145d0604483615a1f565b91507f536f6d656e746520636c69656e74657320656d20636f6e747261746f7320636160008301527f646173747261646f7320706f64656d206578656375746172206f20706167616d60208301527f656e746f000000000000000000000000000000000000000000000000000000006040830152606082019050919050565b600061465c602983615a1f565b91507f536f6d656e7465206f20424e44455320706f6465206578656375746172206f2060008301527f706167616d656e746f00000000000000000000000000000000000000000000006020830152604082019050919050565b60006146c2602683615a1f565b91507f4f776e61626c653a206e6577206f776e657220697320746865207a65726f206160008301527f64647265737300000000000000000000000000000000000000000000000000006020830152604082019050919050565b6000614728605f83615a1f565b91507f556d20434e504a206ec3a36f20706f6465207472616e73666572697220746f6b60008301527f656e20706172612073692c2061696e64612071756520656d20706170c3a9697360208301527f2064697374696e746f732028436c69656e74652f466f726e656365646f7229006040830152606082019050919050565b60006147b4602a83615a1f565b91507f4572726f206e6f2063c3a16c63756c6f20646f206861736820646120636f6e7460008301527f6120646f20424e444553000000000000000000000000000000000000000000006020830152604082019050919050565b600061481a602f83615a1f565b91507f536f6d656e746520666f726e656365646f72657320706f64656d20657865637560008301527f746172206f20706167616d656e746f00000000000000000000000000000000006020830152604082019050919050565b6000614880603583615a1f565b91507f56616c6f72206120736572207472616e736163696f6e61646f2064657665207360008301527f6572206d61696f7220646f20717565207a65726f2e00000000000000000000006020830152604082019050919050565b60006148e6602f83615a1f565b91507f4572726f206e6f2063c3a16c63756c6f20646f206861736820646120636f6e7460008301527f6120646f20666f726e656365646f7200000000000000000000000000000000006020830152604082019050919050565b600061494c601083615a1f565b91507f5061757361626c653a20706175736564000000000000000000000000000000006000830152602082019050919050565b600061498c604983615a1f565b91507f45737461207472616e7361c3a7c3a36f2073c3b320706f64652073657220657860008301527f656375746164612070656c6f20726573706f6e73c3a176656c2070656c6f206460208301527f6573656d626f6c736f00000000000000000000000000000000000000000000006040830152606082019050919050565b6000614a18603383615a1f565b91507f436f6e746120646520646f61646f72207072656369736120657374617220636f60008301527f6d20636164617374726f2076616c696461646f000000000000000000000000006020830152604082019050919050565b6000614a7e602183615a1f565b91507f526f6c65733a206163636f756e7420646f6573206e6f74206861766520726f6c60008301527f65000000000000000000000000000000000000000000000000000000000000006020830152604082019050919050565b6000614ae4604583615a1f565b91507f49642064652064657374696e6f206461207472616e7361c3a7c3a36f206ec3a360008301527f6f20657374c3a120696775616c20616f20646f206f776e657220646f20636f6e60208301527f747261746f0000000000000000000000000000000000000000000000000000006040830152606082019050919050565b6000614b70602483615a1f565b91507f4572726f206e6f2063c3a16c63756c6f20646f206861736820646120646f61c360008301527fa7c3a36f000000000000000000000000000000000000000000000000000000006020830152604082019050919050565b6000614bd6602683615a1f565b91507f536f6d656e746520646f61646f72657320706f64656d2066617a657220646f6160008301527fc3a7c3b5657300000000000000000000000000000000000000000000000000006020830152604082019050919050565b6000614c3c602083615a1f565b91507f4f776e61626c653a2063616c6c6572206973206e6f7420746865206f776e65726000830152602082019050919050565b6000614c7c602283615a1f565b91507f526f6c65733a206163636f756e7420697320746865207a65726f20616464726560008301527f73730000000000000000000000000000000000000000000000000000000000006020830152604082019050919050565b6000614ce2604283615a1f565b91507f4e656e68756d61207665726966696361c3a7c3a36f206573706563c3ad66696360008301527f6120656e636f6e747261646120706172612061207472616e73666572c3aa6e6360208301527f69610000000000000000000000000000000000000000000000000000000000006040830152606082019050919050565b6000614d6e604083615a1f565b91507f536f6d656e746520646f61646f72657320706f64656d2066617a657220646f6160008301527fc3a7c3b565732c20726567697374726f20657374616820696e636f727265746f6020830152604082019050919050565b6000614dd4602b83615a1f565b91507f556d20424e444553206ec3a36f20706f6465207472616e73666572697220746f60008301527f6b656e20706172612073690000000000000000000000000000000000000000006020830152604082019050919050565b6000614e3a604c83615a1f565b91507f536f6d656e746520756d20726573706f6e73c3a176656c2070656c617320616c60008301527f6f6361c3a7c3b5657320696e69636961697320706f646520656e76696172206160208301527f207472616e7361c3a7c3a36f00000000000000000000000000000000000000006040830152606082019050919050565b6000614ec6604183615a1f565b91507f4572726f206e6f2063c3a16c63756c6f20646f206861736820646120636f6e7460008301527f612064652061646d696e20646f20636f6e747261746f2065737065636966696360208301527f6f000000000000000000000000000000000000000000000000000000000000006040830152606082019050919050565b6000614f52603083615a1f565b91507f48617368206465206f726967656d206461207472616e7361c3a7c3a36f206ec360008301527fa36f20657374c3a120636f727265746f000000000000000000000000000000006020830152604082019050919050565b6000614fb8604483615a1f565b91507f4964206465206f726967656d206461207472616e7361c3a7c3a36f206ec3a36f60008301527f20657374c3a120696775616c20616f20646f206f776e657220646f20636f6e7460208301527f7261746f000000000000000000000000000000000000000000000000000000006040830152606082019050919050565b6000615044604983615a1f565b91507f486173682064652064657374696e6f206ec3a36f20657374c3a120636f72726560008301527f73706f6e64656e7465206120636f6e746120646520646573656d626f6c736f2060208301527f6f752064652061646d00000000000000000000000000000000000000000000006040830152606082019050919050565b60006150d0603083615a1f565b91507f45737365206dc3a9746f646f2073c3b320706f646520736572206368616d616460008301527f6f2070656c6f205242425f546f6b656e000000000000000000000000000000006020830152604082019050919050565b6000615136602c83615a1f565b91507f4572726f206e6f2063c3a16c63756c6f20646f206861736820646120636f6e7460008301527f6120646f20636c69656e746500000000000000000000000000000000000000006020830152604082019050919050565b61519881615a94565b82525050565b6151af6151aa82615a94565b615b6b565b82525050565b6151be81615a9e565b82525050565b60006151d082846143dd565b915081905092915050565b60006151e7828461519e565b60208201915081905092915050565b600060208201905061520b6000830184614272565b92915050565b60006020820190506152266000830184614263565b92915050565b600060208201905061524160008301846142f6565b92915050565b600060208201905061525c6000830184614305565b92915050565b60006040820190506152776000830185614305565b81810360208301526152898184614281565b90509392505050565b60006040820190506152a76000830185614305565b6152b46020830184614305565b9392505050565b60006060820190506152d06000830186614305565b6152dd6020830185614305565b81810360408301526152ef8184614281565b9050949350505050565b600060808201905061530e6000830187614305565b61531b602083018661518f565b615328604083018561518f565b6153356060830184614305565b95945050505050565b60006020820190506153536000830184614314565b92915050565b600060208201905061536e6000830184614323565b92915050565b6000602082019050818103600083015261538e81846143a4565b905092915050565b600060208201905081810360008301526153b0818461436b565b905092915050565b600060408201905081810360008301526153d2818561440e565b905081810360208301526153e681846143a4565b90509392505050565b600060208201905081810360008301526154088161449d565b9050919050565b60006020820190508181036000830152615428816144dd565b9050919050565b600060208201905081810360008301526154488161451d565b9050919050565b600060208201905081810360008301526154688161455d565b9050919050565b60006020820190508181036000830152615488816145c3565b9050919050565b600060208201905081810360008301526154a88161464f565b9050919050565b600060208201905081810360008301526154c8816146b5565b9050919050565b600060208201905081810360008301526154e88161471b565b9050919050565b60006020820190508181036000830152615508816147a7565b9050919050565b600060208201905081810360008301526155288161480d565b9050919050565b6000602082019050818103600083015261554881614873565b9050919050565b60006020820190508181036000830152615568816148d9565b9050919050565b600060208201905081810360008301526155888161493f565b9050919050565b600060208201905081810360008301526155a88161497f565b9050919050565b600060208201905081810360008301526155c881614a0b565b9050919050565b600060208201905081810360008301526155e881614a71565b9050919050565b6000602082019050818103600083015261560881614ad7565b9050919050565b6000602082019050818103600083015261562881614b63565b9050919050565b6000602082019050818103600083015261564881614bc9565b9050919050565b6000602082019050818103600083015261566881614c2f565b9050919050565b6000602082019050818103600083015261568881614c6f565b9050919050565b600060208201905081810360008301526156a881614cd5565b9050919050565b600060208201905081810360008301526156c881614d61565b9050919050565b600060208201905081810360008301526156e881614dc7565b9050919050565b6000602082019050818103600083015261570881614e2d565b9050919050565b6000602082019050818103600083015261572881614eb9565b9050919050565b6000602082019050818103600083015261574881614f45565b9050919050565b6000602082019050818103600083015261576881614fab565b9050919050565b6000602082019050818103600083015261578881615037565b9050919050565b600060208201905081810360008301526157a8816150c3565b9050919050565b600060208201905081810360008301526157c881615129565b9050919050565b60006020820190506157e4600083018461518f565b92915050565b60006040820190506157ff600083018561518f565b61580c6020830184614305565b9392505050565b6000608082019050615828600083018761518f565b818103602083015261583a818661436b565b9050615849604083018561518f565b6158566060830184614305565b95945050505050565b600060a082019050615874600083018861518f565b8181036020830152615886818761436b565b9050615895604083018661518f565b6158a2606083018561518f565b6158af6080830184614305565b9695505050505050565b60006040820190506158ce600083018561518f565b6158db602083018461518f565b9392505050565b60006060820190506158f7600083018661518f565b615904602083018561518f565b6159116040830184614305565b949350505050565b600060208201905061592e60008301846151b5565b92915050565b6000604051905081810181811067ffffffffffffffff8211171561595757600080fd5b8060405250919050565b600067ffffffffffffffff82111561597857600080fd5b602082029050602081019050919050565b600067ffffffffffffffff8211156159a057600080fd5b601f19601f8301169050602081019050919050565b6000819050602082019050919050565b60008190508160005260206000209050919050565b600081519050919050565b600081519050919050565b6000602082019050919050565b600082825260208201905092915050565b600082825260208201905092915050565b600082825260208201905092915050565b600082825260208201905092915050565b600081905092915050565b6000615a5782615a74565b9050919050565b60008115159050919050565b6000819050919050565b600073ffffffffffffffffffffffffffffffffffffffff82169050919050565b6000819050919050565b600060ff82169050919050565b6000615ab682615b05565b9050919050565b6000615ac882615acf565b9050919050565b6000615ada82615a74565b9050919050565b6000615aec82615af3565b9050919050565b6000615afe82615a74565b9050919050565b6000615b1082615b17565b9050919050565b6000615b2282615a74565b9050919050565b82818337600083830152505050565b60005b83811015615b56578082015181840152602081019050615b3b565b83811115615b65576000848401525b50505050565b6000819050919050565b6000601f19601f8301169050919050565b615b8f81615a4c565b8114615b9a57600080fd5b50565b615ba681615a5e565b8114615bb157600080fd5b50565b615bbd81615a6a565b8114615bc857600080fd5b50565b615bd481615a94565b8114615bdf57600080fd5b5056fea2646970667358221220dc61197c079065a0ad89bfc06b890812b43e7bebcccb4c27ed95408be25df7cc64736f6c634300060c0033",
  "immutableReferences": {},
  "source": "pragma solidity ^0.6.0;\npragma experimental ABIEncoderV2;\n\n\nimport \"./RBBLib.sol\";\nimport \"./RBBRegistry.sol\";\nimport \"./RBBToken.sol\";\nimport \"./SpecificRBBToken.sol\";\nimport \"@openzeppelin/contracts/ownership/Ownable.sol\";\nimport \"@openzeppelin/contracts/lifecycle/Pausable.sol\";\nimport \"@openzeppelin/contracts/math/SafeMath.sol\";\n\n\n\n/*\nTodas as operaes j supem que a entidade de origem e destino esto cadastradas e validadas no RBB_Registry, pois isso  garantido pelo contrato genrico (RBB_Token)\n\nNo includo (TBD):\n------------\n- requisito adicional de o cliente poder resgatar uma parte do valor (ao invs de ter que necessariamente transferir tudo ao fornecedor)\n- ideia de o fornecedor poder sacar mais de um saldo ao mesmo tempo.\n- pedido inicial de financiamento do cliente \n- devoluo de fornecedor para cliente sem anuncia para o BNDES\n- controle que cada doacao realmente se transformou em duas transacoes, uma para a conta adm e outra para a conta usual\nuint admFee = amount.mul(bndesFee).div(100);\n- perodo de validade para as autorizaes de transferncias extraordinrias\n- invalidar doador, cliente e fornecedor (por exemplo, em caso de CNPJ deixar de existir, contrato com BNDES acabar ou periodicamente)\n- permitir criar perfis diferenciados para contas dos clientes e fornecedores\n\n*/\n\n\ncontract FABndesToken is SpecificRBBToken {\n\n    RBBToken public rbbToken;\n\n    //RBBId donor => true/false (registered or not)\n    mapping (uint => bool) public donors;\n\n    //RBBId client => (idFinancialSupportAgreement Client => true/false (registered or not)\n    mapping (uint => mapping (string => bool)) public clients;\n\n    //RBBId supplier => true/false (registered or not)\n    mapping (uint => bool) public suppliers;\n\n    //Hash of approved Extraordinary Transfers\n    bytes32[] public hashApprovedExtraordinaryTransfers;\n\n    // BNDES Fee percentage\n    uint256 public bndesFee;    \n\n    //Types of transfer operation\n    string public INITIAL_ALLOCATION = \"INITIAL_ALLOCATION\";\n    string public DISBURSEMENT_VERIFICATION = \"DISBURSEMENT_VERIFICATION\";\n    string public CLIENT_PAY_SUPPLIER_VERIFICATION = \"CLIENT_PAY_SUPPLIER_VERIFICATION\";\n    string public BNDES_PAY_SUPPLIER_VERIFICATION = \"BNDES_PAY_SUPPLIER_VERIFICATION\";\n    string public EXTRAORDINARY_TRANSFERS = \"EXTRAORDINARY_TRANSFERS\";\n\n    address public responsibleForInitialAllocation;\n    address public responsibleForDisbursement;\n    address public resposibleForApproveExtraordinaryTransfers;\n\n    uint8 public RESERVED_MINTED_ACCOUNT = 0;\n    uint8 public RESERVED_USUAL_DISBURSEMENTS_ACCOUNT = 1;\n    uint8 public RESERVED_BNDES_ADMIN_FEE_TO_HASH = 2;\n    uint8 public RESERVED_NO_ADDITIONAL_FIELDS_TO_DONOR = 10;\n    uint8 public RESERVED_NO_ADDITIONAL_FIELDS_TO_SUPPLIER = 20;\n    uint8 public RESERVED_NO_ADDITIONAL_FIELDS_TO_DIFF_MONEY = 30;\n\n    using SafeMath for uint;\n   \n    event FA_DonationBooked(uint idDonor, uint amount, bytes32 docHash);\n    event FA_DonationConfirmed(uint idDonor, uint amount, bytes32 docHash);\n\n    event FA_InitialAllocation_Disbursements(uint amount, bytes32 docHash);\n    event FA_InitialAllocation_Fee(uint amount, bytes32 docHash);\n\n    event FA_Disbursement  (uint idClient, string idFinancialSupportAgreement, uint amount, bytes32 docHash);\n    event FA_TokenTransfer (uint fromCnpj, string fromIdFinancialSupportAgreement, uint toCnpj, uint amount, bytes32 docHash);\n    event FA_BNDES_TokenTransfer(uint toCnpj, uint amount, bytes32 docHash);\n    event FA_RedemptionRequested (uint idClaimer, uint amount, bytes32 docHash);\n    event FA_RedemptionSettlement(bytes32 redemptionTransactionHash, bytes32 docHash);\n \n    event FA_ExtraordinaryTransferAllowed (uint fromId, bytes32 fromHash, uint toId, bytes32 toHash, \n            uint amount, bytes32 docHash);\n    event FA_ExtraordinaryTransferExecuted(uint fromId, bytes32 fromHash, uint toId, bytes32 toHash, \n            uint amount, bytes32 docHash);\n\n    event FA_ManualIntervention_Fee(uint256 percent, bytes32 docHash);\n    event FA_ManualIntervention_RoleOrAddress(address account, uint8 eventType);\n\n    event FA_DonorAdded(uint id);\n    event FA_ClientAdded(uint id);\n    event FA_SupplierAdded(uint registeredBy, uint id);\n\n\n    constructor (address newrbbTokenAddr, uint fee) public {\n        require (fee < 100, \"Valor de Fee maior que 100%\");\n\n        rbbToken = RBBToken(newrbbTokenAddr);\n\n        responsibleForInitialAllocation = msg.sender;\n        responsibleForDisbursement = msg.sender;\n        resposibleForApproveExtraordinaryTransfers = msg.sender;\n\n        bndesFee = fee;\n    }\n\n\n    function setBNDESFee(uint256 newBndesFee, bytes32 docHash) public onlyOwner {\n        require (newBndesFee < 100, \"Valor de Fee maior que 100%\");\n        bndesFee = newBndesFee;\n        emit FA_ManualIntervention_Fee(newBndesFee, docHash);\n    }\n\n    function addDonor (uint idDonor) public onlyOwner {\n        require(registry.isValidatedId(idDonor), \"Conta de doador precisa estar com cadastro validado\");\n        if(!donors[idDonor]) {\n            donors[idDonor] = true;\n            emit FA_DonorAdded(idDonor);\n        }\n    }\n\n    function bookDonation(uint amount, bytes32 docHash) public whenNotPaused  {        \n        \n        uint idDonor = registry.getId(msg.sender);\n\n        require (donors[idDonor], \"Somente doadores podem fazer doaes\");\n        require(registry.isValidatedId(idDonor), \"Conta de doador precisa estar com cadastro validado\");\n        \n        bytes32 specificHash = getCalculatedHash(RESERVED_NO_ADDITIONAL_FIELDS_TO_DIFF_MONEY);\n        rbbToken.requestMint(specificHash, idDonor, amount, docHash);\n\n        emit FA_DonationBooked(idDonor, amount, docHash);\n    }\n    \n    /* confirms the donor's donation */\n    function verifyAndActForMint(bytes32 specificHash, uint amount, bytes32 docHash,\n        string[] memory data) public override whenNotPaused onlyRBBToken {\n\n        require (getCalculatedHash(RESERVED_NO_ADDITIONAL_FIELDS_TO_DIFF_MONEY)==specificHash, \"Erro no clculo do hash da doao\");\n\n        string memory sidDonor = data[0];\n        uint idDonor = RBBLib.stringtoUint(sidDonor);\n        require (donors[idDonor], \"Somente doadores podem fazer doaes, registro estah incorreto\");\n\n        emit FA_DonationConfirmed(idDonor, amount, docHash);\n\n    }\n\n    /////////////////\n\n    function getHashToMintedAccount(bytes32 specificHash) override public returns (bytes32) {\n        //There is no difference of specificHash, all money should be minted in the same account\n        return getCalculatedHash(RESERVED_MINTED_ACCOUNT);\n    }\n\n\n    function getInitialAllocationToDisbusementData () public view\n        returns (bytes32, bytes32, string[] memory)  {\n\n        bytes32 fromHash = getCalculatedHash(RESERVED_MINTED_ACCOUNT);\n        bytes32 toHash = getCalculatedHash(RESERVED_USUAL_DISBURSEMENTS_ACCOUNT);\n\n        string[] memory data = new string[](1);\n        data[0] = INITIAL_ALLOCATION;\n        return (fromHash, toHash, data);\n    }\n\n    function getInitialAllocationToChargeFeeData () public view\n        returns (bytes32, bytes32, string[] memory)  {\n\n        bytes32 fromHash = getCalculatedHash(RESERVED_MINTED_ACCOUNT);\n        bytes32 toHash = getCalculatedHash(RESERVED_BNDES_ADMIN_FEE_TO_HASH);\n\n        string[] memory data = new string[](1);\n        data[0] = INITIAL_ALLOCATION;\n        return (fromHash, toHash, data);\n    }\n\n    function getDisbusementData (string memory idFinancialSupportAgreement) public view\n        returns (bytes32, bytes32, string[] memory)  {\n\n        bytes32 fromHash = getCalculatedHash(RESERVED_USUAL_DISBURSEMENTS_ACCOUNT);\n        bytes32 toHash = getCalculatedHash(idFinancialSupportAgreement);\n\n        string[] memory data = new string[](2);\n        data[0] = DISBURSEMENT_VERIFICATION;\n        data[1] = idFinancialSupportAgreement;\n        return (fromHash, toHash, data);\n    }\n\n    function getClientPaySupplierData (string memory idFinancialSupportAgreement) public view\n            returns (bytes32, bytes32, string[] memory) {\n\n        bytes32 fromHash = getCalculatedHash(idFinancialSupportAgreement);\n        bytes32 toHash = getCalculatedHash(RESERVED_NO_ADDITIONAL_FIELDS_TO_SUPPLIER);\n\n        string[] memory data = new string[](2);\n        data[0] = CLIENT_PAY_SUPPLIER_VERIFICATION;\n        data[1] = idFinancialSupportAgreement;\n        return (fromHash, toHash, data);\n    }\n\n    function getBNDESPaySupplierData () public view\n            returns (bytes32, bytes32, string[] memory) {\n\n        bytes32 fromHash = getCalculatedHash(RESERVED_USUAL_DISBURSEMENTS_ACCOUNT);\n        bytes32 toHash = getCalculatedHash(RESERVED_NO_ADDITIONAL_FIELDS_TO_SUPPLIER);\n\n        string[] memory data = new string[](1);\n        data[0] = BNDES_PAY_SUPPLIER_VERIFICATION;\n        return (fromHash, toHash, data);\n    }\n\n    function getRedeemData () public \n            returns (bytes32, string[] memory) {\n\n        bytes32 fromHash = getCalculatedHash(RESERVED_NO_ADDITIONAL_FIELDS_TO_SUPPLIER);\n\n        string[] memory data = new string[](0);\n        return (fromHash, data);\n    }\n\n    /////////////////\n\n    function verifyAndActForTransfer(address originalSender, uint fromId, bytes32 fromHash, uint toId, bytes32 toHash, \n            uint amount, bytes32 docHash, string[] memory data) public override whenNotPaused onlyRBBToken {\n\n        string memory specificMethod = data[0];\n\n        require (amount>0, \"Valor a ser transacionado deve ser maior do que zero.\");\n\n        if (RBBLib.isEqual(INITIAL_ALLOCATION, specificMethod)) {\n            verifyAndActForTransfer_INITIAL_ALLOCATION(originalSender, fromId, fromHash, toId, toHash, amount, docHash, data);\n        }\n        else if (RBBLib.isEqual(DISBURSEMENT_VERIFICATION, specificMethod)) {\n            verifyAndActForTransfer_DISBURSEMENT(originalSender, fromId, fromHash, toId, toHash, amount, docHash, data);\n        }\n        else if (RBBLib.isEqual(CLIENT_PAY_SUPPLIER_VERIFICATION, specificMethod)) {\n            verifyAndActForTransfer_CLIENT_PAY_SUPPLIER(originalSender, fromId, fromHash, toId, toHash, amount, docHash, data);\n        }\n        else if (RBBLib.isEqual(BNDES_PAY_SUPPLIER_VERIFICATION, specificMethod)) {\n            verifyAndActForTransfer_BNDES_PAY_SUPPLIER(originalSender, fromId, fromHash, toId, toHash, amount, docHash, data);\n        }\n        else if (RBBLib.isEqual(EXTRAORDINARY_TRANSFERS, specificMethod)) {\n//TODO: descomentar\n//            verifyAndActForTransfer_EXTRAORDINARY_TRANSFERS(originalSender, fromId, fromHash, toId, toHash, amount, docHash, data);\n        }\n        else {\n            require (false, \"Nenhuma verificao especfica encontrada para a transferncia\");\n        }\n\n    }\n\n    function verifyAndActForTransfer_INITIAL_ALLOCATION(address originalSender, uint fromId, bytes32 fromHash, uint toId, \n            bytes32 toHash, uint amount, bytes32 docHash, string[] memory data) internal whenNotPaused {\n\n        require (responsibleForInitialAllocation == originalSender, \n            \"Somente um responsvel pelas alocaes iniciais pode enviar a transao\");\n\n        uint ownerId = registry.getId(owner());\n        require (fromId == ownerId, \"Id de origem da transao no est igual ao do owner do contrato\");\n        require (fromHash == getCalculatedHash(RESERVED_MINTED_ACCOUNT), \"Hash de origem da transao no est correto\");\n\n        require (fromId == toId, \"Id de destino da transao no est igual ao do owner do contrato\");\n\n        if (toHash == getCalculatedHash(RESERVED_USUAL_DISBURSEMENTS_ACCOUNT)) {\n            emit FA_InitialAllocation_Disbursements(amount, docHash);\n        }\n        else if (toHash == getCalculatedHash(RESERVED_BNDES_ADMIN_FEE_TO_HASH)) {\n            emit FA_InitialAllocation_Fee(amount, docHash);\n        }\n        else {\n            require (false, \"Hash de destino no est correspondente a conta de desembolso ou de adm\");\n        }\n    }\n\n    function verifyAndActForTransfer_DISBURSEMENT(address originalSender, uint fromId, bytes32 fromHash, \n            uint toId, bytes32 toHash, uint amount, bytes32 docHash, string[] memory data) internal whenNotPaused {\n    \n        string memory idFinancialSupportAgreement = data[1];\n        uint ownerId = registry.getId(owner());\n\n        require (originalSender == responsibleForDisbursement, \"Esta transao s pode ser executada pelo responsvel pelo desembolso\");\n\n        //Essa eh uma regra especifica visto que outra organizacao pode ter recebido o token no allocate.\n        require (fromId == ownerId, \"Id de origem da transao no est igual ao do owner do contrato\");\n        require (getCalculatedHash(RESERVED_USUAL_DISBURSEMENTS_ACCOUNT)==fromHash, \"Erro no clculo do hash da conta do BNDES\");\n        require (getCalculatedHash(idFinancialSupportAgreement)==toHash, \"Erro no clculo do hash da conta do cliente\");\n\n        if (!clients[toId][idFinancialSupportAgreement]) {\n            clients[toId][idFinancialSupportAgreement] = true; //register the client\n            emit FA_ClientAdded(toId);\n\n        }\n\n        emit FA_Disbursement (toId, idFinancialSupportAgreement, amount, docHash);\n\n    }\n\n    function verifyAndActForTransfer_CLIENT_PAY_SUPPLIER(address originalSender, uint fromId, bytes32 fromHash, \n            uint toId, bytes32 toHash, uint amount, bytes32 docHash, string[] memory data) internal whenNotPaused {\n    \n        string memory idFinancialSupportAgreement = data[1];\n\n        //nao verifica o sender, dado que o esse contrato nao diferencia as contas do cliente\n\n        require (clients[fromId][idFinancialSupportAgreement], \"Somente clientes em contratos cadastrados podem executar o pagamento\");\n        require (getCalculatedHash(idFinancialSupportAgreement)==fromHash, \"Erro no clculo do hash da conta do cliente\");\n        require (getCalculatedHash(RESERVED_NO_ADDITIONAL_FIELDS_TO_SUPPLIER)==toHash, \"Erro no clculo do hash da conta do fornecedor\");\n\n        require(fromId != toId,\n            \"Um CNPJ no pode transferir token para si, ainda que em papis distintos (Cliente/Fornecedor)\");\n\n        if (!suppliers[toId]) {\n            suppliers[toId] = true; //register the supplier\n            emit FA_SupplierAdded(fromId, toId);\n        }\n\n        emit FA_TokenTransfer (fromId, idFinancialSupportAgreement, toId, amount, docHash);\n\n    }\n\n\n    function verifyAndActForTransfer_BNDES_PAY_SUPPLIER(address originalSender, uint fromId, bytes32 fromHash, \n            uint toId, bytes32 toHash, uint amount, bytes32 docHash, string[] memory data) internal whenNotPaused {\n\n        require (originalSender == responsibleForDisbursement, \"Esta transao s pode ser executada pelo responsvel pelo desembolso\");\n\n        require (fromId==registry.getId(owner()), \"Somente o BNDES pode executar o pagamento\");\n        require (getCalculatedHash(RESERVED_BNDES_ADMIN_FEE_TO_HASH)==fromHash, \"Erro no clculo do hash da conta de admin do contrato especifico\");\n        require (getCalculatedHash(RESERVED_NO_ADDITIONAL_FIELDS_TO_SUPPLIER)==toHash, \"Erro no clculo do hash da conta do fornecedor\");\n\n        require(fromId != toId, \"Um BNDES no pode transferir token para si\");\n\n        emit FA_BNDES_TokenTransfer (toId, amount, docHash);\n\n    }\n\n    function addSupplier (uint id) public  {\n\n        require (msg.sender == responsibleForDisbursement, \"Esta transao s pode ser executada pelo responsvel pelo desembolso\");\n        if (!suppliers[id]) {\n            suppliers[id] = true; //register the supplier\n            emit FA_SupplierAdded(registry.getId(owner()), id);\n        }\n    }\n\n    function verifyAndActForRedeem(address originalSender, uint fromId, bytes32 fromHash, uint amount, \n        bytes32 docHash, string[] memory data) public override whenNotPaused onlyRBBToken {\n\n        //nao verifica o sender, dado que o esse contrato nao diferencia as contas do fornecedor\n\n        require (amount>0, \"Valor a ser transacionado deve ser maior do que zero.\");\n        require (suppliers[fromId], \"Somente fornecedores podem executar o pagamento\");\n        require (getCalculatedHash(RESERVED_NO_ADDITIONAL_FIELDS_TO_SUPPLIER)==fromHash, \"Erro no clculo do hash da conta do fornecedor\");\n\n        emit FA_RedemptionRequested (fromId, amount, docHash);\n\n    }\n\n    function verifyAndActForRedemptionSettlement(bytes32 redemptionTransactionHash, bytes32 docHash, \n        string[] memory data)\n        public override whenNotPaused onlyRBBToken {\n\n        emit FA_RedemptionSettlement (redemptionTransactionHash, docHash);\n    }\n\n    modifier onlyRBBToken() {\n        require (msg.sender==address(rbbToken), \"Esse mtodo s pode ser chamado pelo RBB_Token\");\n        _;\n    }\n\n    \n    function getCalculatedHash (uint info) public view returns (bytes32) {\n        return keccak256(abi.encodePacked(info));\n    }\n\n    function getCalculatedHash (string memory info) public view returns (bytes32) {\n        return keccak256(abi.encodePacked(info));\n    }\n/*\n    function authorizeExtraordinaryTransfer (uint fromId, bytes32 fromHash, uint toId, bytes32 toHash, \n            uint amount, bytes32 docHash) public  {\n        \n        require (resposibleForApproveExtraordinaryTransfers == msg.sender, \"Somente um responsvel pelas transferncias extraordinrias por enviar a transao\");  \n        require (hasRoleInThisContract(fromId, fromHash), \"Endereo de origem no includo como papel nesse cadastro\");\n        require (hasRoleInThisContract(toId, toHash), \"Endereo de destino no includo como papel nesse cadastro\");\n\n        bytes32 m = keccak256(abi.encodePacked(fromId, fromHash, toId, toHash, amount));\n        hashApprovedExtraordinaryTransfers.push(m);\n\n        emit FA_ExtraordinaryTransferAllowed (fromId, fromHash, toId, toHash, amount, docHash);\n\n    }\n   \n    function verifyAndActForTransfer_EXTRAORDINARY_TRANSFERS(address originalSender, uint fromId, bytes32 fromHash, \n            uint toId, bytes32 toHash, uint amount, bytes32 docHash, string[] memory data) internal whenNotPaused {\n\n        require (hasRoleInThisContract(fromId, fromHash), \"Endereo de origem no includo como papel nesse cadastro\");\n        require (hasRoleInThisContract(toId, toHash), \"Endereo de destino no includo como papel nesse cadastro\");\n\n        string memory idFinancialSupportAgreement = data[1];\n        bytes32 m = keccak256(abi.encodePacked(fromId, fromHash, toId, toHash, amount));\n\n        bool transferApproved = false;\n        uint index = 0;\n        for (; index<hashApprovedExtraordinaryTransfers.length; index++) {\n            if (hashApprovedExtraordinaryTransfers[index] == m) {\n                transferApproved = true;\n                break;\n            }\n        }\n\n        require (transferApproved, \"Interveno manual no previamente cadastrada\");\n\n        hashApprovedExtraordinaryTransfers[index] \n            = hashApprovedExtraordinaryTransfers [hashApprovedExtraordinaryTransfers.length-1];\n        hashApprovedExtraordinaryTransfers.pop();\n\n        emit FA_ExtraordinaryTransferExecuted (fromId, fromHash, toId, toHash, amount, docHash);\n\n    }\n\n    function hasRoleInThisContract (uint rbbId, bytes32 hashToAccount) private returns (bool) {\n\n        bool hasRole = false;\n        if (donors[rbbId]==true) return true;\n\n//TODO: resolver -- preciso verificar se esse id jah estah cadastrado no mapping de clients.\n//        if (clients[rbbId]!=0) return true;\n        if (suppliers[rbbId]==true) return true;\n\n        uint ownerId = registry.getId(owner());\n        if (ownerId == rbbId) return true;\n\n        uint rbbTokenOwnerId = registry.getId(rbbToken.owner());\n        if (rbbTokenOwnerId == rbbId) return true;\n\n        return false;\n    }\n\n\n    function setResponsibleForInitialAllocation(address rs) onlyOwner public {\n        uint id = registry.getId(rs);\n        require(id==registry.getId(owner()), \"O responsvel pela alocao inicial deve ser da mesmo RBB_ID do contrato\");\n        responsibleForInitialAllocation = rs;\n        emit FA_ManualIntervention_RoleOrAddress(rs, 1);\n    }\n\n    function setResponsibleForDisbursement(address rs) onlyOwner public {\n        uint id = registry.getId(rs);\n        require(id==registry.getId(owner()), \"O responsvel pelo desembolso deve ser da mesmo RBB_ID do contrato\");\n        responsibleForDisbursement = rs;\n        emit FA_ManualIntervention_RoleOrAddress(rs, 2);\n    }\n\n    function setResposibleForApproveExtraordinaryTransfers(address rs) onlyOwner public {\n        uint id = registry.getId(rs);\n        require(id==registry.getId(owner()), \"O responsvel pelo cadastramento de transferencias extraordinrias deve ser da mesmo RBB_ID do contrato\");\n        resposibleForApproveExtraordinaryTransfers = rs;\n        emit FA_ManualIntervention_RoleOrAddress(rs, 3);\n    }\n*/\n\n}",
  "sourcePath": "/Users/suzana.moreno/workspace/rbb-token/Back-Blockchain/contracts/FABndesToken.sol",
  "compiler": {
    "name": "solc",
    "version": "0.6.12+commit.27d51765.Emscripten.clang"
  },
  "schemaVersion": "3.2.5",
  "updatedAt": "2020-09-28T14:22:05.686Z",
  "networkType": "ethereum",
  "devdoc": {
    "kind": "dev",
    "methods": {
      "isOwner()": {
        "details": "Returns true if the caller is the current owner."
      },
      "owner()": {
        "details": "Returns the address of the current owner."
      },
      "pause()": {
        "details": "Called by a pauser to pause, triggers stopped state."
      },
      "paused()": {
        "details": "Returns true if the contract is paused, and false otherwise."
      },
      "renounceOwnership()": {
        "details": "Leaves the contract without owner. It will not be possible to call `onlyOwner` functions anymore. Can only be called by the current owner. NOTE: Renouncing ownership will leave the contract without an owner, thereby removing any functionality that is only available to the owner."
      },
      "transferOwnership(address)": {
        "details": "Transfers ownership of the contract to a new account (`newOwner`). Can only be called by the current owner."
      },
      "unpause()": {
        "details": "Called by a pauser to unpause, returns to normal state."
      }
    },
    "version": 1
  },
  "userdoc": {
    "kind": "user",
    "methods": {},
    "version": 1
  }
}