{
  "contractName": "FABndesToken",
  "abi": [
    {
      "inputs": [
        {
          "internalType": "address",
          "name": "newRegistryAddr",
          "type": "address"
        },
        {
          "internalType": "address",
          "name": "newrbbTokenAddr",
          "type": "address"
        },
        {
          "internalType": "uint256",
          "name": "responsibleForDisbursementArg",
          "type": "uint256"
        },
        {
          "internalType": "uint256",
          "name": "responsibleForSettlementArg",
          "type": "uint256"
        }
      ],
      "payable": false,
      "stateMutability": "nonpayable",
      "type": "constructor"
    },
    {
      "anonymous": false,
      "inputs": [
        {
          "indexed": false,
          "internalType": "uint256",
          "name": "idClient",
          "type": "uint256"
        },
        {
          "indexed": false,
          "internalType": "uint256",
          "name": "idFinancialSupportAgreement",
          "type": "uint256"
        },
        {
          "indexed": false,
          "internalType": "uint256",
          "name": "amount",
          "type": "uint256"
        }
      ],
      "name": "Disbursement",
      "type": "event"
    },
    {
      "anonymous": false,
      "inputs": [
        {
          "indexed": true,
          "internalType": "address",
          "name": "previousOwner",
          "type": "address"
        },
        {
          "indexed": true,
          "internalType": "address",
          "name": "newOwner",
          "type": "address"
        }
      ],
      "name": "OwnershipTransferred",
      "type": "event"
    },
    {
      "anonymous": false,
      "inputs": [
        {
          "indexed": false,
          "internalType": "address",
          "name": "account",
          "type": "address"
        }
      ],
      "name": "Paused",
      "type": "event"
    },
    {
      "anonymous": false,
      "inputs": [
        {
          "indexed": true,
          "internalType": "address",
          "name": "account",
          "type": "address"
        }
      ],
      "name": "PauserAdded",
      "type": "event"
    },
    {
      "anonymous": false,
      "inputs": [
        {
          "indexed": true,
          "internalType": "address",
          "name": "account",
          "type": "address"
        }
      ],
      "name": "PauserRemoved",
      "type": "event"
    },
    {
      "anonymous": false,
      "inputs": [
        {
          "indexed": false,
          "internalType": "uint256",
          "name": "idClaimer",
          "type": "uint256"
        },
        {
          "indexed": false,
          "internalType": "uint256",
          "name": "amount",
          "type": "uint256"
        }
      ],
      "name": "RedemptionRequested",
      "type": "event"
    },
    {
      "anonymous": false,
      "inputs": [
        {
          "indexed": false,
          "internalType": "string",
          "name": "redemptionTransactionHash",
          "type": "string"
        },
        {
          "indexed": false,
          "internalType": "string",
          "name": "receiptHash",
          "type": "string"
        }
      ],
      "name": "RedemptionSettlement",
      "type": "event"
    },
    {
      "anonymous": false,
      "inputs": [
        {
          "indexed": false,
          "internalType": "uint256",
          "name": "fromCnpj",
          "type": "uint256"
        },
        {
          "indexed": false,
          "internalType": "uint256",
          "name": "fromIdFinancialSupportAgreement",
          "type": "uint256"
        },
        {
          "indexed": false,
          "internalType": "uint256",
          "name": "toCnpj",
          "type": "uint256"
        },
        {
          "indexed": false,
          "internalType": "uint256",
          "name": "amount",
          "type": "uint256"
        }
      ],
      "name": "TokenTransfer",
      "type": "event"
    },
    {
      "anonymous": false,
      "inputs": [
        {
          "indexed": false,
          "internalType": "address",
          "name": "account",
          "type": "address"
        }
      ],
      "name": "Unpaused",
      "type": "event"
    },
    {
      "constant": true,
      "inputs": [],
      "name": "RESERVED_SUPPLIER_ID_FINANCIAL_SUPPORT_AGREEMENT",
      "outputs": [
        {
          "internalType": "uint8",
          "name": "",
          "type": "uint8"
        }
      ],
      "payable": false,
      "stateMutability": "view",
      "type": "function"
    },
    {
      "constant": false,
      "inputs": [
        {
          "internalType": "address",
          "name": "account",
          "type": "address"
        }
      ],
      "name": "addPauser",
      "outputs": [],
      "payable": false,
      "stateMutability": "nonpayable",
      "type": "function"
    },
    {
      "constant": true,
      "inputs": [],
      "name": "isOwner",
      "outputs": [
        {
          "internalType": "bool",
          "name": "",
          "type": "bool"
        }
      ],
      "payable": false,
      "stateMutability": "view",
      "type": "function"
    },
    {
      "constant": true,
      "inputs": [
        {
          "internalType": "address",
          "name": "account",
          "type": "address"
        }
      ],
      "name": "isPauser",
      "outputs": [
        {
          "internalType": "bool",
          "name": "",
          "type": "bool"
        }
      ],
      "payable": false,
      "stateMutability": "view",
      "type": "function"
    },
    {
      "constant": true,
      "inputs": [],
      "name": "owner",
      "outputs": [
        {
          "internalType": "address",
          "name": "",
          "type": "address"
        }
      ],
      "payable": false,
      "stateMutability": "view",
      "type": "function"
    },
    {
      "constant": false,
      "inputs": [],
      "name": "pause",
      "outputs": [],
      "payable": false,
      "stateMutability": "nonpayable",
      "type": "function"
    },
    {
      "constant": true,
      "inputs": [],
      "name": "paused",
      "outputs": [
        {
          "internalType": "bool",
          "name": "",
          "type": "bool"
        }
      ],
      "payable": false,
      "stateMutability": "view",
      "type": "function"
    },
    {
      "constant": true,
      "inputs": [],
      "name": "rbbToken",
      "outputs": [
        {
          "internalType": "contract RBBToken",
          "name": "",
          "type": "address"
        }
      ],
      "payable": false,
      "stateMutability": "view",
      "type": "function"
    },
    {
      "constant": true,
      "inputs": [],
      "name": "registry",
      "outputs": [
        {
          "internalType": "contract RBBRegistry",
          "name": "",
          "type": "address"
        }
      ],
      "payable": false,
      "stateMutability": "view",
      "type": "function"
    },
    {
      "constant": false,
      "inputs": [],
      "name": "renounceOwnership",
      "outputs": [],
      "payable": false,
      "stateMutability": "nonpayable",
      "type": "function"
    },
    {
      "constant": false,
      "inputs": [],
      "name": "renouncePauser",
      "outputs": [],
      "payable": false,
      "stateMutability": "nonpayable",
      "type": "function"
    },
    {
      "constant": true,
      "inputs": [],
      "name": "responsibleForDisbursement",
      "outputs": [
        {
          "internalType": "uint256",
          "name": "",
          "type": "uint256"
        }
      ],
      "payable": false,
      "stateMutability": "view",
      "type": "function"
    },
    {
      "constant": true,
      "inputs": [],
      "name": "responsibleForSettlement",
      "outputs": [
        {
          "internalType": "uint256",
          "name": "",
          "type": "uint256"
        }
      ],
      "payable": false,
      "stateMutability": "view",
      "type": "function"
    },
    {
      "constant": false,
      "inputs": [
        {
          "internalType": "address",
          "name": "newOwner",
          "type": "address"
        }
      ],
      "name": "transferOwnership",
      "outputs": [],
      "payable": false,
      "stateMutability": "nonpayable",
      "type": "function"
    },
    {
      "constant": false,
      "inputs": [],
      "name": "unpause",
      "outputs": [],
      "payable": false,
      "stateMutability": "nonpayable",
      "type": "function"
    },
    {
      "constant": false,
      "inputs": [
        {
          "internalType": "uint256",
          "name": "clientId",
          "type": "uint256"
        },
        {
          "internalType": "uint256",
          "name": "idFinancialSupportAgreement",
          "type": "uint256"
        },
        {
          "internalType": "uint256",
          "name": "amount",
          "type": "uint256"
        }
      ],
      "name": "makeDisbursement",
      "outputs": [],
      "payable": false,
      "stateMutability": "nonpayable",
      "type": "function"
    },
    {
      "constant": false,
      "inputs": [
        {
          "internalType": "uint256",
          "name": "idFinancialSupportAgreement",
          "type": "uint256"
        },
        {
          "internalType": "uint256",
          "name": "amount",
          "type": "uint256"
        },
        {
          "internalType": "uint256",
          "name": "supplierId",
          "type": "uint256"
        }
      ],
      "name": "paySupplier",
      "outputs": [],
      "payable": false,
      "stateMutability": "nonpayable",
      "type": "function"
    },
    {
      "constant": false,
      "inputs": [
        {
          "internalType": "uint256",
          "name": "amount",
          "type": "uint256"
        }
      ],
      "name": "redeem",
      "outputs": [],
      "payable": false,
      "stateMutability": "nonpayable",
      "type": "function"
    },
    {
      "constant": false,
      "inputs": [
        {
          "internalType": "string",
          "name": "redemptionTransactionHash",
          "type": "string"
        },
        {
          "internalType": "string",
          "name": "receiptHash",
          "type": "string"
        }
      ],
      "name": "notifyRedemptionSettlement",
      "outputs": [],
      "payable": false,
      "stateMutability": "nonpayable",
      "type": "function"
    },
    {
      "constant": false,
      "inputs": [
        {
          "internalType": "uint256",
          "name": "idResponsible",
          "type": "uint256"
        }
      ],
      "name": "setResponsibleForDisbursement",
      "outputs": [],
      "payable": false,
      "stateMutability": "nonpayable",
      "type": "function"
    },
    {
      "constant": false,
      "inputs": [
        {
          "internalType": "uint256",
          "name": "idResponsible",
          "type": "uint256"
        }
      ],
      "name": "setResponsibleForSettlement",
      "outputs": [],
      "payable": false,
      "stateMutability": "nonpayable",
      "type": "function"
    },
    {
      "constant": true,
      "inputs": [
        {
          "internalType": "address",
          "name": "addr",
          "type": "address"
        }
      ],
      "name": "isResponsibleForDisbursement",
      "outputs": [
        {
          "internalType": "bool",
          "name": "",
          "type": "bool"
        }
      ],
      "payable": false,
      "stateMutability": "view",
      "type": "function"
    },
    {
      "constant": true,
      "inputs": [
        {
          "internalType": "address",
          "name": "addr",
          "type": "address"
        }
      ],
      "name": "isResponsibleForSettlement",
      "outputs": [
        {
          "internalType": "bool",
          "name": "",
          "type": "bool"
        }
      ],
      "payable": false,
      "stateMutability": "view",
      "type": "function"
    }
  ],
  "bytecode": "0x60806040526000600660006101000a81548160ff021916908360ff1602179055503480156200002d57600080fd5b5060405162002c1d38038062002c1d833981810160405260808110156200005357600080fd5b810190808051906020019092919080519060200190929190805190602001909291908051906020019092919050505083836000620000966200021f60201b60201c565b9050806000806101000a81548173ffffffffffffffffffffffffffffffffffffffff021916908373ffffffffffffffffffffffffffffffffffffffff1602179055508073ffffffffffffffffffffffffffffffffffffffff16600073ffffffffffffffffffffffffffffffffffffffff167f8be0079c531659141344cd1fd0a4f28419497f9722a3daafe3b4186f6b6457e060405160405180910390a35062000154620001486200021f60201b60201c565b6200022760201b60201c565b6000600260006101000a81548160ff02191690831515021790555081600260016101000a81548173ffffffffffffffffffffffffffffffffffffffff021916908373ffffffffffffffffffffffffffffffffffffffff16021790555080600360006101000a81548173ffffffffffffffffffffffffffffffffffffffff021916908373ffffffffffffffffffffffffffffffffffffffff160217905550505062000204826200028860201b60201c565b62000215816200041d60201b60201c565b50505050620007dc565b600033905090565b62000242816001620005b260201b620020aa1790919060201c565b8073ffffffffffffffffffffffffffffffffffffffff167f6719d08c1888103bea251a4ed56406bd0c3e69723c8a1686e017e7bbe159b6f860405160405180910390a250565b620002986200069660201b60201c565b6200030b576040517f08c379a00000000000000000000000000000000000000000000000000000000081526004018080602001828103825260208152602001807f4f776e61626c653a2063616c6c6572206973206e6f7420746865206f776e657281525060200191505060405180910390fd5b600260019054906101000a900473ffffffffffffffffffffffffffffffffffffffff1673ffffffffffffffffffffffffffffffffffffffff1663613a7896826040518263ffffffff1660e01b81526004018082815260200191505060206040518083038186803b1580156200037f57600080fd5b505afa15801562000394573d6000803e3d6000fd5b505050506040513d6020811015620003ab57600080fd5b810190808051906020019092919050505062000413576040517f08c379a000000000000000000000000000000000000000000000000000000000815260040180806020018281038252603681526020018062002be76036913960400191505060405180910390fd5b8060058190555050565b6200042d6200069660201b60201c565b620004a0576040517f08c379a00000000000000000000000000000000000000000000000000000000081526004018080602001828103825260208152602001807f4f776e61626c653a2063616c6c6572206973206e6f7420746865206f776e657281525060200191505060405180910390fd5b600260019054906101000a900473ffffffffffffffffffffffffffffffffffffffff1673ffffffffffffffffffffffffffffffffffffffff1663613a7896826040518263ffffffff1660e01b81526004018082815260200191505060206040518083038186803b1580156200051457600080fd5b505afa15801562000529573d6000803e3d6000fd5b505050506040513d60208110156200054057600080fd5b8101908080519060200190929190505050620005a8576040517f08c379a000000000000000000000000000000000000000000000000000000000815260040180806020018281038252603481526020018062002b916034913960400191505060405180910390fd5b8060048190555050565b620005c48282620006fc60201b60201c565b1562000638576040517f08c379a000000000000000000000000000000000000000000000000000000000815260040180806020018281038252601f8152602001807f526f6c65733a206163636f756e7420616c72656164792068617320726f6c650081525060200191505060405180910390fd5b60018260000160008373ffffffffffffffffffffffffffffffffffffffff1673ffffffffffffffffffffffffffffffffffffffff16815260200190815260200160002060006101000a81548160ff0219169083151502179055505050565b60008060009054906101000a900473ffffffffffffffffffffffffffffffffffffffff1673ffffffffffffffffffffffffffffffffffffffff16620006e06200021f60201b60201c565b73ffffffffffffffffffffffffffffffffffffffff1614905090565b60008073ffffffffffffffffffffffffffffffffffffffff168273ffffffffffffffffffffffffffffffffffffffff16141562000785576040517f08c379a000000000000000000000000000000000000000000000000000000000815260040180806020018281038252602281526020018062002bc56022913960400191505060405180910390fd5b8260000160008373ffffffffffffffffffffffffffffffffffffffff1673ffffffffffffffffffffffffffffffffffffffff16815260200190815260200160002060009054906101000a900460ff16905092915050565b6123a580620007ec6000396000f3fe608060405234801561001057600080fd5b506004361061014d5760003560e01c80638456cb59116100c3578063a75b6cb91161007c578063a75b6cb9146105a8578063b3791729146105ea578063db006a751461060e578063e4c7426f1461063c578063edcd58bb14610686578063f2fde38b146106b45761014d565b80638456cb591461036657806385fecf9b1461037057806387cf6423146103cc5780638cabf1281461051e5780638da5cb5b1461053c5780638f32d59b146105865761014d565b80634add3110116101155780634add3110146102465780635c975abb146102a25780636ef8d66d146102c4578063715018a6146102ce5780637b103999146102d857806382dc1ec4146103225761014d565b80631a9ceb01146101525780631c752f421461018057806321453800146101c25780633f4ba83a146101e057806346fbf68e146101ea575b600080fd5b61017e6004803603602081101561016857600080fd5b81019080803590602001909291905050506106f8565b005b6101c06004803603606081101561019657600080fd5b8101908080359060200190929190803590602001909291908035906020019092919050505061087f565b005b6101ca610a75565b6040518082815260200191505060405180910390f35b6101e8610a7b565b005b61022c6004803603602081101561020057600080fd5b81019080803573ffffffffffffffffffffffffffffffffffffffff169060200190929190505050610be9565b604051808215151515815260200191505060405180910390f35b6102886004803603602081101561025c57600080fd5b81019080803573ffffffffffffffffffffffffffffffffffffffff169060200190929190505050610c06565b604051808215151515815260200191505060405180910390f35b6102aa610ced565b604051808215151515815260200191505060405180910390f35b6102cc610d04565b005b6102d6610d16565b005b6102e0610e4f565b604051808273ffffffffffffffffffffffffffffffffffffffff1673ffffffffffffffffffffffffffffffffffffffff16815260200191505060405180910390f35b6103646004803603602081101561033857600080fd5b81019080803573ffffffffffffffffffffffffffffffffffffffff169060200190929190505050610e75565b005b61036e610ee6565b005b6103b26004803603602081101561038657600080fd5b81019080803573ffffffffffffffffffffffffffffffffffffffff169060200190929190505050611055565b604051808215151515815260200191505060405180910390f35b61051c600480360360408110156103e257600080fd5b81019080803590602001906401000000008111156103ff57600080fd5b82018360208201111561041157600080fd5b8035906020019184600183028401116401000000008311171561043357600080fd5b91908080601f016020809104026020016040519081016040528093929190818152602001838380828437600081840152601f19601f8201169050808301925050505050505091929192908035906020019064010000000081111561049657600080fd5b8201836020820111156104a857600080fd5b803590602001918460018302840111640100000000831117156104ca57600080fd5b91908080601f016020809104026020016040519081016040528093929190818152602001838380828437600081840152601f19601f82011690508083019250505050505050919291929050505061113c565b005b61052661148b565b6040518082815260200191505060405180910390f35b610544611491565b604051808273ffffffffffffffffffffffffffffffffffffffff1673ffffffffffffffffffffffffffffffffffffffff16815260200191505060405180910390f35b61058e6114ba565b604051808215151515815260200191505060405180910390f35b6105e8600480360360608110156105be57600080fd5b81019080803590602001909291908035906020019092919080359060200190929190505050611518565b005b6105f2611844565b604051808260ff1660ff16815260200191505060405180910390f35b61063a6004803603602081101561062457600080fd5b8101908080359060200190929190505050611857565b005b610644611adc565b604051808273ffffffffffffffffffffffffffffffffffffffff1673ffffffffffffffffffffffffffffffffffffffff16815260200191505060405180910390f35b6106b26004803603602081101561069c57600080fd5b8101908080359060200190929190505050611b02565b005b6106f6600480360360208110156106ca57600080fd5b81019080803573ffffffffffffffffffffffffffffffffffffffff169060200190929190505050611c89565b005b6107006114ba565b610772576040517f08c379a00000000000000000000000000000000000000000000000000000000081526004018080602001828103825260208152602001807f4f776e61626c653a2063616c6c6572206973206e6f7420746865206f776e657281525060200191505060405180910390fd5b600260019054906101000a900473ffffffffffffffffffffffffffffffffffffffff1673ffffffffffffffffffffffffffffffffffffffff1663613a7896826040518263ffffffff1660e01b81526004018082815260200191505060206040518083038186803b1580156107e557600080fd5b505afa1580156107f9573d6000803e3d6000fd5b505050506040513d602081101561080f57600080fd5b8101908080519060200190929190505050610875576040517f08c379a00000000000000000000000000000000000000000000000000000000081526004018080602001828103825260348152602001806122806034913960400191505060405180910390fd5b8060048190555050565b600260009054906101000a900460ff1615610902576040517f08c379a00000000000000000000000000000000000000000000000000000000081526004018080602001828103825260108152602001807f5061757361626c653a207061757365640000000000000000000000000000000081525060200191505060405180910390fd5b61090b33610c06565b610960576040517f08c379a00000000000000000000000000000000000000000000000000000000081526004018080602001828103825260448152602001806122f76044913960600191505060405180910390fd5b60008260405160200180828152602001915050604051602081830303815290604052805190602001209050600360009054906101000a900473ffffffffffffffffffffffffffffffffffffffff1673ffffffffffffffffffffffffffffffffffffffff16636873a5048583856040518463ffffffff1660e01b8152600401808481526020018381526020018281526020019350505050600060405180830381600087803b158015610a1057600080fd5b505af1158015610a24573d6000803e3d6000fd5b505050507ffbba414a49b8c297dfb35c06bb278bd5a3fa46f39715860edbd030b1ffa81a7d84848460405180848152602001838152602001828152602001935050505060405180910390a150505050565b60045481565b610a8b610a86611d0f565b610be9565b610ae0576040517f08c379a00000000000000000000000000000000000000000000000000000000081526004018080602001828103825260308152602001806121cb6030913960400191505060405180910390fd5b600260009054906101000a900460ff16610b62576040517f08c379a00000000000000000000000000000000000000000000000000000000081526004018080602001828103825260148152602001807f5061757361626c653a206e6f742070617573656400000000000000000000000081525060200191505060405180910390fd5b6000600260006101000a81548160ff0219169083151502179055507f5db9ee0a495bf2e6ff9c91a7834c1ba4fdd244a5e8aa4e537bd38aeae4b073aa610ba6611d0f565b604051808273ffffffffffffffffffffffffffffffffffffffff1673ffffffffffffffffffffffffffffffffffffffff16815260200191505060405180910390a1565b6000610bff826001611d1790919063ffffffff16565b9050919050565b6000600554600260019054906101000a900473ffffffffffffffffffffffffffffffffffffffff1673ffffffffffffffffffffffffffffffffffffffff166365f68c89846040518263ffffffff1660e01b8152600401808273ffffffffffffffffffffffffffffffffffffffff1673ffffffffffffffffffffffffffffffffffffffff16815260200191505060206040518083038186803b158015610caa57600080fd5b505afa158015610cbe573d6000803e3d6000fd5b505050506040513d6020811015610cd457600080fd5b8101908080519060200190929190505050149050919050565b6000600260009054906101000a900460ff16905090565b610d14610d0f611d0f565b611df5565b565b610d1e6114ba565b610d90576040517f08c379a00000000000000000000000000000000000000000000000000000000081526004018080602001828103825260208152602001807f4f776e61626c653a2063616c6c6572206973206e6f7420746865206f776e657281525060200191505060405180910390fd5b600073ffffffffffffffffffffffffffffffffffffffff166000809054906101000a900473ffffffffffffffffffffffffffffffffffffffff1673ffffffffffffffffffffffffffffffffffffffff167f8be0079c531659141344cd1fd0a4f28419497f9722a3daafe3b4186f6b6457e060405160405180910390a360008060006101000a81548173ffffffffffffffffffffffffffffffffffffffff021916908373ffffffffffffffffffffffffffffffffffffffff160217905550565b600260019054906101000a900473ffffffffffffffffffffffffffffffffffffffff1681565b610e85610e80611d0f565b610be9565b610eda576040517f08c379a00000000000000000000000000000000000000000000000000000000081526004018080602001828103825260308152602001806121cb6030913960400191505060405180910390fd5b610ee381611e4f565b50565b610ef6610ef1611d0f565b610be9565b610f4b576040517f08c379a00000000000000000000000000000000000000000000000000000000081526004018080602001828103825260308152602001806121cb6030913960400191505060405180910390fd5b600260009054906101000a900460ff1615610fce576040517f08c379a00000000000000000000000000000000000000000000000000000000081526004018080602001828103825260108152602001807f5061757361626c653a207061757365640000000000000000000000000000000081525060200191505060405180910390fd5b6001600260006101000a81548160ff0219169083151502179055507f62e78cea01bee320cd4e420270b5ea74000d11b0c9f74754ebdbfc544b05a258611012611d0f565b604051808273ffffffffffffffffffffffffffffffffffffffff1673ffffffffffffffffffffffffffffffffffffffff16815260200191505060405180910390a1565b6000600454600260019054906101000a900473ffffffffffffffffffffffffffffffffffffffff1673ffffffffffffffffffffffffffffffffffffffff166365f68c89846040518263ffffffff1660e01b8152600401808273ffffffffffffffffffffffffffffffffffffffff1673ffffffffffffffffffffffffffffffffffffffff16815260200191505060206040518083038186803b1580156110f957600080fd5b505afa15801561110d573d6000803e3d6000fd5b505050506040513d602081101561112357600080fd5b8101908080519060200190929190505050149050919050565b600260009054906101000a900460ff16156111bf576040517f08c379a00000000000000000000000000000000000000000000000000000000081526004018080602001828103825260108152602001807f5061757361626c653a207061757365640000000000000000000000000000000081525060200191505060405180910390fd5b6111c833611055565b61121d576040517f08c379a00000000000000000000000000000000000000000000000000000000081526004018080602001828103825260458152602001806121866045913960600191505060405180910390fd5b73__RBBLib________________________________636edcb12f826040518263ffffffff1660e01b81526004018080602001828103825283818151815260200191508051906020019080838360005b8381101561128757808201518184015260208101905061126c565b50505050905090810190601f1680156112b45780820380516001836020036101000a031916815260200191505b509250505060206040518083038186803b1580156112d157600080fd5b505af41580156112e5573d6000803e3d6000fd5b505050506040513d60208110156112fb57600080fd5b810190808051906020019092919050505061137e576040517f08c379a000000000000000000000000000000000000000000000000000000000815260040180806020018281038252601d8152602001807f4f206861736820646f2072656369626f20c3a920696e76c3a16c69646f00000081525060200191505060405180910390fd5b7fc5c85710ca450311aa550ba9b7404810c70a332cda36f77ae18faa406acb12388282604051808060200180602001838103835285818151815260200191508051906020019080838360005b838110156113e55780820151818401526020810190506113ca565b50505050905090810190601f1680156114125780820380516001836020036101000a031916815260200191505b50838103825284818151815260200191508051906020019080838360005b8381101561144b578082015181840152602081019050611430565b50505050905090810190601f1680156114785780820380516001836020036101000a031916815260200191505b5094505050505060405180910390a15050565b60055481565b60008060009054906101000a900473ffffffffffffffffffffffffffffffffffffffff16905090565b60008060009054906101000a900473ffffffffffffffffffffffffffffffffffffffff1673ffffffffffffffffffffffffffffffffffffffff166114fc611d0f565b73ffffffffffffffffffffffffffffffffffffffff1614905090565b600260009054906101000a900460ff161561159b576040517f08c379a00000000000000000000000000000000000000000000000000000000081526004018080602001828103825260108152602001807f5061757361626c653a207061757365640000000000000000000000000000000081525060200191505060405180910390fd5b6000600260019054906101000a900473ffffffffffffffffffffffffffffffffffffffff1673ffffffffffffffffffffffffffffffffffffffff166365f68c89336040518263ffffffff1660e01b8152600401808273ffffffffffffffffffffffffffffffffffffffff1673ffffffffffffffffffffffffffffffffffffffff16815260200191505060206040518083038186803b15801561163c57600080fd5b505afa158015611650573d6000803e3d6000fd5b505050506040513d602081101561166657600080fd5b81019080805190602001909291905050509050818114156116d2576040517f08c379a000000000000000000000000000000000000000000000000000000000815260040180806020018281038252605f815260200180612221605f913960600191505060405180910390fd5b600084604051602001808281526020019150506040516020818303038152906040528051906020012090506000600660009054906101000a900460ff16604051602001808260ff1660ff1660f81b8152600101915050604051602081830303815290604052805190602001209050600360009054906101000a900473ffffffffffffffffffffffffffffffffffffffff1673ffffffffffffffffffffffffffffffffffffffff1663ca1cf72d848487858a6040518663ffffffff1660e01b81526004018086815260200185815260200184815260200183815260200182815260200195505050505050600060405180830381600087803b1580156117d557600080fd5b505af11580156117e9573d6000803e3d6000fd5b505050507febe5f6cd3199aedd4d32bd3ba5a426b5b2ab69ec269aa9582120a07aaced9d82838786886040518085815260200184815260200183815260200182815260200194505050505060405180910390a1505050505050565b600660009054906101000a900460ff1681565b600260009054906101000a900460ff16156118da576040517f08c379a00000000000000000000000000000000000000000000000000000000081526004018080602001828103825260108152602001807f5061757361626c653a207061757365640000000000000000000000000000000081525060200191505060405180910390fd5b6000600260019054906101000a900473ffffffffffffffffffffffffffffffffffffffff1673ffffffffffffffffffffffffffffffffffffffff166365f68c89336040518263ffffffff1660e01b8152600401808273ffffffffffffffffffffffffffffffffffffffff1673ffffffffffffffffffffffffffffffffffffffff16815260200191505060206040518083038186803b15801561197b57600080fd5b505afa15801561198f573d6000803e3d6000fd5b505050506040513d60208110156119a557600080fd5b810190808051906020019092919050505090506000600660009054906101000a900460ff16604051602001808260ff1660ff1660f81b8152600101915050604051602081830303815290604052805190602001209050600360009054906101000a900473ffffffffffffffffffffffffffffffffffffffff1673ffffffffffffffffffffffffffffffffffffffff1663d5219c068383866040518463ffffffff1660e01b8152600401808481526020018381526020018281526020019350505050600060405180830381600087803b158015611a8057600080fd5b505af1158015611a94573d6000803e3d6000fd5b505050507fd5ba0459265c0cfa94aa9d715cc0b5c1305e25f72d371f73e627359065e83fdc8284604051808381526020018281526020019250505060405180910390a1505050565b600360009054906101000a900473ffffffffffffffffffffffffffffffffffffffff1681565b611b0a6114ba565b611b7c576040517f08c379a00000000000000000000000000000000000000000000000000000000081526004018080602001828103825260208152602001807f4f776e61626c653a2063616c6c6572206973206e6f7420746865206f776e657281525060200191505060405180910390fd5b600260019054906101000a900473ffffffffffffffffffffffffffffffffffffffff1673ffffffffffffffffffffffffffffffffffffffff1663613a7896826040518263ffffffff1660e01b81526004018082815260200191505060206040518083038186803b158015611bef57600080fd5b505afa158015611c03573d6000803e3d6000fd5b505050506040513d6020811015611c1957600080fd5b8101908080519060200190929190505050611c7f576040517f08c379a000000000000000000000000000000000000000000000000000000000815260040180806020018281038252603681526020018061233b6036913960400191505060405180910390fd5b8060058190555050565b611c916114ba565b611d03576040517f08c379a00000000000000000000000000000000000000000000000000000000081526004018080602001828103825260208152602001807f4f776e61626c653a2063616c6c6572206973206e6f7420746865206f776e657281525060200191505060405180910390fd5b611d0c81611ea9565b50565b600033905090565b60008073ffffffffffffffffffffffffffffffffffffffff168273ffffffffffffffffffffffffffffffffffffffff161415611d9e576040517f08c379a00000000000000000000000000000000000000000000000000000000081526004018080602001828103825260228152602001806122d56022913960400191505060405180910390fd5b8260000160008373ffffffffffffffffffffffffffffffffffffffff1673ffffffffffffffffffffffffffffffffffffffff16815260200190815260200160002060009054906101000a900460ff16905092915050565b611e09816001611fed90919063ffffffff16565b8073ffffffffffffffffffffffffffffffffffffffff167fcd265ebaf09df2871cc7bd4133404a235ba12eff2041bb89d9c714a2621c7c7e60405160405180910390a250565b611e638160016120aa90919063ffffffff16565b8073ffffffffffffffffffffffffffffffffffffffff167f6719d08c1888103bea251a4ed56406bd0c3e69723c8a1686e017e7bbe159b6f860405160405180910390a250565b600073ffffffffffffffffffffffffffffffffffffffff168173ffffffffffffffffffffffffffffffffffffffff161415611f2f576040517f08c379a00000000000000000000000000000000000000000000000000000000081526004018080602001828103825260268152602001806121fb6026913960400191505060405180910390fd5b8073ffffffffffffffffffffffffffffffffffffffff166000809054906101000a900473ffffffffffffffffffffffffffffffffffffffff1673ffffffffffffffffffffffffffffffffffffffff167f8be0079c531659141344cd1fd0a4f28419497f9722a3daafe3b4186f6b6457e060405160405180910390a3806000806101000a81548173ffffffffffffffffffffffffffffffffffffffff021916908373ffffffffffffffffffffffffffffffffffffffff16021790555050565b611ff78282611d17565b61204c576040517f08c379a00000000000000000000000000000000000000000000000000000000081526004018080602001828103825260218152602001806122b46021913960400191505060405180910390fd5b60008260000160008373ffffffffffffffffffffffffffffffffffffffff1673ffffffffffffffffffffffffffffffffffffffff16815260200190815260200160002060006101000a81548160ff0219169083151502179055505050565b6120b48282611d17565b15612127576040517f08c379a000000000000000000000000000000000000000000000000000000000815260040180806020018281038252601f8152602001807f526f6c65733a206163636f756e7420616c72656164792068617320726f6c650081525060200191505060405180910390fd5b60018260000160008373ffffffffffffffffffffffffffffffffffffffff1673ffffffffffffffffffffffffffffffffffffffff16815260200190815260200160002060006101000a81548160ff021916908315150217905550505056fe4170656e6173206f20726573706f6e73c3a176656c2070656c61206c697175696461c3a7c3a36f20706f64652065786563757461722065737361206f70657261c3a7c3a36f506175736572526f6c653a2063616c6c657220646f6573206e6f742068617665207468652050617573657220726f6c654f776e61626c653a206e6577206f776e657220697320746865207a65726f2061646472657373556d20434e504a206ec3a36f20706f6465207472616e73666572697220746f6b656e20706172612073692c2061696e64612071756520656d20706170c3a969732064697374696e746f732028436c69656e74652f466f726e656365646f7229496420646f20526573706f6e7369626c6520666f7220536574746c656d656e74206ec3a36f20657374c3a12076616c696461646f526f6c65733a206163636f756e7420646f6573206e6f74206861766520726f6c65526f6c65733a206163636f756e7420697320746865207a65726f20616464726573734170656e6173206f20726573706f6e73c3a176656c2070656c61206c6962657261c3a7c3a36f20706f64652065786563757461722065737361206f70657261c3a7c3a36f496420646f20526573706f6e7369626c6520666f722044697362757273656d656e74206ec3a36f20657374c3a12076616c696461646fa265627a7a7231582051dc54412ec9a1b916e3153722fa227f4a6df4528fd9c120ee738b9b9ac0272c64736f6c63430005100032496420646f20526573706f6e7369626c6520666f7220536574746c656d656e74206ec3a36f20657374c3a12076616c696461646f526f6c65733a206163636f756e7420697320746865207a65726f2061646472657373496420646f20526573706f6e7369626c6520666f722044697362757273656d656e74206ec3a36f20657374c3a12076616c696461646f",
  "source": "pragma solidity ^0.5.0;\n\nimport \"./RBBLib.sol\";\nimport \"./RBBRegistry.sol\";\nimport \"./RBBToken.sol\";\nimport \"./SpecificRBBToken.sol\";\nimport \"@openzeppelin/contracts/ownership/Ownable.sol\";\nimport \"@openzeppelin/contracts/lifecycle/Pausable.sol\";\n\ncontract FABndesToken is SpecificRBBToken {\n\n    // o id, nao tem como especializar dentro do BNDES. Diferena no front-end\n    uint public responsibleForSettlement;\n    uint public responsibleForDisbursement;\n\n    uint8 public RESERVED_SUPPLIER_ID_FINANCIAL_SUPPORT_AGREEMENT = 0;\n\n\n    //ATENCAO: troquei cnpj por id no argumento do evento e tirei arg de contrato no resgate - impacto no BNDESTransparente\n    event Disbursement  (uint idClient, uint idFinancialSupportAgreement, uint amount);\n    event TokenTransfer (uint fromCnpj, uint fromIdFinancialSupportAgreement, uint toCnpj, uint amount);\n    event RedemptionRequested (uint idClaimer, uint amount);\n    event RedemptionSettlement(string redemptionTransactionHash, string receiptHash);\n\n\n    constructor (address newRegistryAddr, address newrbbTokenAddr, \n                uint responsibleForDisbursementArg, uint responsibleForSettlementArg)\n                SpecificRBBToken (newRegistryAddr, newrbbTokenAddr)\n                public {\n\n        setResponsibleForDisbursement(responsibleForDisbursementArg);\n        setResponsibleForSettlement(responsibleForSettlementArg);\n    }\n\n    function makeDisbursement(uint clientId, uint idFinancialSupportAgreement, uint amount)\n        public whenNotPaused onlyResponsibleForDisbursement {\n\n        //incluir regras especificas de validacao de cliente e do contrato aqui\n        //****** */\n\n        bytes32 hashTo = keccak256(abi.encodePacked(idFinancialSupportAgreement));\n        rbbToken.allocate(clientId, hashTo, amount);\n\n        emit Disbursement (clientId, idFinancialSupportAgreement, amount);\n\n    }\n\n    function paySupplier (uint idFinancialSupportAgreement, uint amount, uint supplierId) whenNotPaused public {\n        \n        uint clientId = registry.getId(msg.sender);\n\n        //incluir regras especificas de pagamento aqui\n\n        require(clientId != supplierId,\n            \"Um CNPJ no pode transferir token para si, ainda que em papis distintos (Cliente/Fornecedor)\");\n        \n        //****** */\n\n\n        bytes32 hashFrom = keccak256(abi.encodePacked(idFinancialSupportAgreement));\n        bytes32 hashTo = keccak256(abi.encodePacked(RESERVED_SUPPLIER_ID_FINANCIAL_SUPPORT_AGREEMENT));\n        rbbToken.transfer(clientId, hashFrom, supplierId, hashTo, amount);\n\n        emit TokenTransfer (clientId, idFinancialSupportAgreement, supplierId, amount);\n    }\n\n    function redeem(uint amount) whenNotPaused public {\n        \n        uint supplierId = registry.getId(msg.sender);\n\n        //incluir regras especificas de resgate aqui\n        //****** */\n        \n        bytes32 hashFrom = keccak256(abi.encodePacked(RESERVED_SUPPLIER_ID_FINANCIAL_SUPPORT_AGREEMENT));\n        rbbToken.deallocate(supplierId, hashFrom, amount);\n\n        //TODO: chama metodo para pagamento FIAT (mock?)\n        //****** */\n\n        emit RedemptionRequested (supplierId, amount);\n\n    }\n\n   /**\n    * Using this function, the Responsible for Settlement indicates that he has made the FIAT money transfer.\n    * @param redemptionTransactionHash hash of the redeem transaction in which the FIAT money settlement occurred.\n    * @param receiptHash hash that proof the FIAT money transfer\n    */\n    function notifyRedemptionSettlement(string memory redemptionTransactionHash, string memory receiptHash)\n        public whenNotPaused onlyResponsibleForSettlement {\n\n        require (RBBLib.isValidHash(receiptHash), \"O hash do recibo  invlido\");\n        emit RedemptionSettlement(redemptionTransactionHash, receiptHash);\n    }\n\n\n//avaliar se deve passar pelo framework de mudanca (exceto construtor)\n    function setResponsibleForDisbursement(uint idResponsible) onlyOwner public {\n        require (registry.isValidatedId(idResponsible), \"Id do Responsible for Disbursement no est validado\");\n        responsibleForDisbursement = idResponsible;\n    }\n\n//avaliar se deve passar pelo framework de mudanca (exceto construtor)\n    function setResponsibleForSettlement(uint idResponsible) onlyOwner public {\n        require (registry.isValidatedId(idResponsible), \"Id do Responsible for Settlement no est validado\");\n        responsibleForSettlement = idResponsible;\n    }\n\n    function isResponsibleForDisbursement(address addr) public view returns (bool) {\n        return (registry.getId(addr) == responsibleForDisbursement);\n    }\n\n    function isResponsibleForSettlement(address addr) public view returns (bool) {\n        return (registry.getId(addr) == responsibleForSettlement);\n    }\n\n    modifier onlyResponsibleForDisbursement() {\n        require(isResponsibleForDisbursement(msg.sender), \"Apenas o responsvel pela liberao pode executar essa operao\");\n        _;\n    }\n\n    modifier onlyResponsibleForSettlement() {\n        require(isResponsibleForSettlement(msg.sender), \"Apenas o responsvel pela liquidao pode executar essa operao\");\n        _;\n    }\n}",
  "sourcePath": "/Users/suzana.moreno/workspace/rbb-token/Back-Blockchain/contracts/FABndesToken.sol",
  "compiler": {
    "name": "solc",
    "version": "0.5.16+commit.9c3226ce.Emscripten.clang"
  },
  "schemaVersion": "3.0.23",
  "updatedAt": "2020-08-24T16:39:54.447Z",
  "devdoc": {
    "methods": {
      "isOwner()": {
        "details": "Returns true if the caller is the current owner."
      },
      "notifyRedemptionSettlement(string,string)": {
        "params": {
          "receiptHash": "hash that proof the FIAT money transfer",
          "redemptionTransactionHash": "hash of the redeem transaction in which the FIAT money settlement occurred."
        }
      },
      "owner()": {
        "details": "Returns the address of the current owner."
      },
      "pause()": {
        "details": "Called by a pauser to pause, triggers stopped state."
      },
      "paused()": {
        "details": "Returns true if the contract is paused, and false otherwise."
      },
      "renounceOwnership()": {
        "details": "Leaves the contract without owner. It will not be possible to call `onlyOwner` functions anymore. Can only be called by the current owner.     * NOTE: Renouncing ownership will leave the contract without an owner, thereby removing any functionality that is only available to the owner."
      },
      "transferOwnership(address)": {
        "details": "Transfers ownership of the contract to a new account (`newOwner`). Can only be called by the current owner."
      },
      "unpause()": {
        "details": "Called by a pauser to unpause, returns to normal state."
      }
    }
  },
  "userdoc": {
    "methods": {
      "notifyRedemptionSettlement(string,string)": {
        "notice": "Using this function, the Responsible for Settlement indicates that he has made the FIAT money transfer."
      }
    }
  }
}