{
  "contractName": "FABndesToken",
  "abi": [
    {
      "inputs": [
        {
          "internalType": "uint256",
          "name": "fee",
          "type": "uint256"
        }
      ],
      "payable": false,
      "stateMutability": "nonpayable",
      "type": "constructor"
    },
    {
      "anonymous": false,
      "inputs": [
        {
          "indexed": false,
          "internalType": "string",
          "name": "idDonor",
          "type": "string"
        },
        {
          "indexed": false,
          "internalType": "uint256",
          "name": "amount",
          "type": "uint256"
        }
      ],
      "name": "FA_AdmFeeCharged",
      "type": "event"
    },
    {
      "anonymous": false,
      "inputs": [
        {
          "indexed": false,
          "internalType": "uint256",
          "name": "id",
          "type": "uint256"
        }
      ],
      "name": "FA_ClientAdded",
      "type": "event"
    },
    {
      "anonymous": false,
      "inputs": [
        {
          "indexed": false,
          "internalType": "uint256",
          "name": "idClient",
          "type": "uint256"
        },
        {
          "indexed": false,
          "internalType": "string",
          "name": "idFinancialSupportAgreement",
          "type": "string"
        },
        {
          "indexed": false,
          "internalType": "uint256",
          "name": "amount",
          "type": "uint256"
        }
      ],
      "name": "FA_Disbursement",
      "type": "event"
    },
    {
      "anonymous": false,
      "inputs": [
        {
          "indexed": false,
          "internalType": "uint256",
          "name": "idDonor",
          "type": "uint256"
        },
        {
          "indexed": false,
          "internalType": "uint256",
          "name": "amount",
          "type": "uint256"
        }
      ],
      "name": "FA_DonationBooked",
      "type": "event"
    },
    {
      "anonymous": false,
      "inputs": [
        {
          "indexed": false,
          "internalType": "string",
          "name": "idDonor",
          "type": "string"
        },
        {
          "indexed": false,
          "internalType": "uint256",
          "name": "amount",
          "type": "uint256"
        },
        {
          "indexed": false,
          "internalType": "string",
          "name": "receiptHash",
          "type": "string"
        }
      ],
      "name": "FA_DonationConfirmed",
      "type": "event"
    },
    {
      "anonymous": false,
      "inputs": [
        {
          "indexed": false,
          "internalType": "uint256",
          "name": "id",
          "type": "uint256"
        }
      ],
      "name": "FA_DonorAdded",
      "type": "event"
    },
    {
      "anonymous": false,
      "inputs": [
        {
          "indexed": false,
          "internalType": "uint256",
          "name": "percent",
          "type": "uint256"
        },
        {
          "indexed": false,
          "internalType": "string",
          "name": "description",
          "type": "string"
        }
      ],
      "name": "FA_ManualIntervention_Fee",
      "type": "event"
    },
    {
      "anonymous": false,
      "inputs": [
        {
          "indexed": false,
          "internalType": "uint256",
          "name": "idClaimer",
          "type": "uint256"
        },
        {
          "indexed": false,
          "internalType": "uint256",
          "name": "amount",
          "type": "uint256"
        }
      ],
      "name": "FA_RedemptionRequested",
      "type": "event"
    },
    {
      "anonymous": false,
      "inputs": [
        {
          "indexed": false,
          "internalType": "string",
          "name": "redemptionTransactionHash",
          "type": "string"
        },
        {
          "indexed": false,
          "internalType": "string",
          "name": "receiptHash",
          "type": "string"
        }
      ],
      "name": "FA_RedemptionSettlement",
      "type": "event"
    },
    {
      "anonymous": false,
      "inputs": [
        {
          "indexed": false,
          "internalType": "uint256",
          "name": "id",
          "type": "uint256"
        }
      ],
      "name": "FA_SupplierAdded",
      "type": "event"
    },
    {
      "anonymous": false,
      "inputs": [
        {
          "indexed": false,
          "internalType": "uint256",
          "name": "fromCnpj",
          "type": "uint256"
        },
        {
          "indexed": false,
          "internalType": "string",
          "name": "fromIdFinancialSupportAgreement",
          "type": "string"
        },
        {
          "indexed": false,
          "internalType": "uint256",
          "name": "toCnpj",
          "type": "uint256"
        },
        {
          "indexed": false,
          "internalType": "uint256",
          "name": "amount",
          "type": "uint256"
        }
      ],
      "name": "FA_TokenTransfer",
      "type": "event"
    },
    {
      "anonymous": false,
      "inputs": [
        {
          "indexed": true,
          "internalType": "address",
          "name": "previousOwner",
          "type": "address"
        },
        {
          "indexed": true,
          "internalType": "address",
          "name": "newOwner",
          "type": "address"
        }
      ],
      "name": "OwnershipTransferred",
      "type": "event"
    },
    {
      "anonymous": false,
      "inputs": [
        {
          "indexed": false,
          "internalType": "address",
          "name": "account",
          "type": "address"
        }
      ],
      "name": "Paused",
      "type": "event"
    },
    {
      "anonymous": false,
      "inputs": [
        {
          "indexed": true,
          "internalType": "address",
          "name": "account",
          "type": "address"
        }
      ],
      "name": "PauserAdded",
      "type": "event"
    },
    {
      "anonymous": false,
      "inputs": [
        {
          "indexed": true,
          "internalType": "address",
          "name": "account",
          "type": "address"
        }
      ],
      "name": "PauserRemoved",
      "type": "event"
    },
    {
      "anonymous": false,
      "inputs": [
        {
          "indexed": false,
          "internalType": "address",
          "name": "account",
          "type": "address"
        }
      ],
      "name": "Unpaused",
      "type": "event"
    },
    {
      "constant": true,
      "inputs": [],
      "name": "DISBURSEMENT_VERIFICATION",
      "outputs": [
        {
          "internalType": "string",
          "name": "",
          "type": "string"
        }
      ],
      "payable": false,
      "stateMutability": "view",
      "type": "function"
    },
    {
      "constant": true,
      "inputs": [],
      "name": "MANUAL_INTERVENTION",
      "outputs": [
        {
          "internalType": "string",
          "name": "",
          "type": "string"
        }
      ],
      "payable": false,
      "stateMutability": "view",
      "type": "function"
    },
    {
      "constant": true,
      "inputs": [],
      "name": "PAY_SUPPLIER_VERIFICATION",
      "outputs": [
        {
          "internalType": "string",
          "name": "",
          "type": "string"
        }
      ],
      "payable": false,
      "stateMutability": "view",
      "type": "function"
    },
    {
      "constant": true,
      "inputs": [],
      "name": "RESERVED_NO_ADDITIONAL_FIELD_TO_HASH",
      "outputs": [
        {
          "internalType": "uint8",
          "name": "",
          "type": "uint8"
        }
      ],
      "payable": false,
      "stateMutability": "view",
      "type": "function"
    },
    {
      "constant": false,
      "inputs": [
        {
          "internalType": "address",
          "name": "account",
          "type": "address"
        }
      ],
      "name": "addPauser",
      "outputs": [],
      "payable": false,
      "stateMutability": "nonpayable",
      "type": "function"
    },
    {
      "constant": true,
      "inputs": [],
      "name": "bndesFee",
      "outputs": [
        {
          "internalType": "uint256",
          "name": "",
          "type": "uint256"
        }
      ],
      "payable": false,
      "stateMutability": "view",
      "type": "function"
    },
    {
      "constant": true,
      "inputs": [
        {
          "internalType": "uint256",
          "name": "",
          "type": "uint256"
        },
        {
          "internalType": "string",
          "name": "",
          "type": "string"
        }
      ],
      "name": "clients",
      "outputs": [
        {
          "internalType": "bool",
          "name": "",
          "type": "bool"
        }
      ],
      "payable": false,
      "stateMutability": "view",
      "type": "function"
    },
    {
      "constant": true,
      "inputs": [
        {
          "internalType": "uint256",
          "name": "",
          "type": "uint256"
        }
      ],
      "name": "hashManualInterventionOperationApprovedByOwner",
      "outputs": [
        {
          "internalType": "bytes32",
          "name": "",
          "type": "bytes32"
        }
      ],
      "payable": false,
      "stateMutability": "view",
      "type": "function"
    },
    {
      "constant": true,
      "inputs": [],
      "name": "isOwner",
      "outputs": [
        {
          "internalType": "bool",
          "name": "",
          "type": "bool"
        }
      ],
      "payable": false,
      "stateMutability": "view",
      "type": "function"
    },
    {
      "constant": true,
      "inputs": [
        {
          "internalType": "address",
          "name": "account",
          "type": "address"
        }
      ],
      "name": "isPauser",
      "outputs": [
        {
          "internalType": "bool",
          "name": "",
          "type": "bool"
        }
      ],
      "payable": false,
      "stateMutability": "view",
      "type": "function"
    },
    {
      "constant": true,
      "inputs": [],
      "name": "owner",
      "outputs": [
        {
          "internalType": "address",
          "name": "",
          "type": "address"
        }
      ],
      "payable": false,
      "stateMutability": "view",
      "type": "function"
    },
    {
      "constant": false,
      "inputs": [],
      "name": "pause",
      "outputs": [],
      "payable": false,
      "stateMutability": "nonpayable",
      "type": "function"
    },
    {
      "constant": true,
      "inputs": [],
      "name": "paused",
      "outputs": [
        {
          "internalType": "bool",
          "name": "",
          "type": "bool"
        }
      ],
      "payable": false,
      "stateMutability": "view",
      "type": "function"
    },
    {
      "constant": true,
      "inputs": [],
      "name": "rbbToken",
      "outputs": [
        {
          "internalType": "contract RBBToken",
          "name": "",
          "type": "address"
        }
      ],
      "payable": false,
      "stateMutability": "view",
      "type": "function"
    },
    {
      "constant": true,
      "inputs": [],
      "name": "registry",
      "outputs": [
        {
          "internalType": "contract RBBRegistry",
          "name": "",
          "type": "address"
        }
      ],
      "payable": false,
      "stateMutability": "view",
      "type": "function"
    },
    {
      "constant": false,
      "inputs": [],
      "name": "renounceOwnership",
      "outputs": [],
      "payable": false,
      "stateMutability": "nonpayable",
      "type": "function"
    },
    {
      "constant": false,
      "inputs": [],
      "name": "renouncePauser",
      "outputs": [],
      "payable": false,
      "stateMutability": "nonpayable",
      "type": "function"
    },
    {
      "constant": false,
      "inputs": [
        {
          "internalType": "address",
          "name": "newRegistryAddr",
          "type": "address"
        },
        {
          "internalType": "address",
          "name": "newrbbTokenAddr",
          "type": "address"
        }
      ],
      "name": "setInitializationDataDuringRegistration",
      "outputs": [],
      "payable": false,
      "stateMutability": "nonpayable",
      "type": "function"
    },
    {
      "constant": false,
      "inputs": [
        {
          "internalType": "address",
          "name": "newOwner",
          "type": "address"
        }
      ],
      "name": "transferOwnership",
      "outputs": [],
      "payable": false,
      "stateMutability": "nonpayable",
      "type": "function"
    },
    {
      "constant": false,
      "inputs": [],
      "name": "unpause",
      "outputs": [],
      "payable": false,
      "stateMutability": "nonpayable",
      "type": "function"
    },
    {
      "constant": false,
      "inputs": [
        {
          "internalType": "uint256",
          "name": "newBndesFee",
          "type": "uint256"
        },
        {
          "internalType": "string",
          "name": "description",
          "type": "string"
        }
      ],
      "name": "setBNDESFee",
      "outputs": [],
      "payable": false,
      "stateMutability": "nonpayable",
      "type": "function"
    },
    {
      "constant": false,
      "inputs": [
        {
          "internalType": "uint256",
          "name": "idDonor",
          "type": "uint256"
        }
      ],
      "name": "addDonor",
      "outputs": [],
      "payable": false,
      "stateMutability": "nonpayable",
      "type": "function"
    },
    {
      "constant": false,
      "inputs": [
        {
          "internalType": "uint256",
          "name": "amount",
          "type": "uint256"
        }
      ],
      "name": "bookDonation",
      "outputs": [],
      "payable": false,
      "stateMutability": "nonpayable",
      "type": "function"
    },
    {
      "constant": false,
      "inputs": [
        {
          "internalType": "bytes32",
          "name": "specificHash",
          "type": "bytes32"
        },
        {
          "internalType": "uint256",
          "name": "amount",
          "type": "uint256"
        },
        {
          "internalType": "string[]",
          "name": "data",
          "type": "string[]"
        },
        {
          "internalType": "string",
          "name": "docHash",
          "type": "string"
        }
      ],
      "name": "verifyAndActForMint",
      "outputs": [],
      "payable": false,
      "stateMutability": "nonpayable",
      "type": "function"
    },
    {
      "constant": true,
      "inputs": [
        {
          "internalType": "string",
          "name": "idFinancialSupportAgreement",
          "type": "string"
        }
      ],
      "name": "getDisbusementData",
      "outputs": [
        {
          "internalType": "bytes32",
          "name": "",
          "type": "bytes32"
        },
        {
          "internalType": "bytes32",
          "name": "",
          "type": "bytes32"
        },
        {
          "internalType": "string[]",
          "name": "",
          "type": "string[]"
        }
      ],
      "payable": false,
      "stateMutability": "view",
      "type": "function"
    },
    {
      "constant": true,
      "inputs": [
        {
          "internalType": "string",
          "name": "idFinancialSupportAgreement",
          "type": "string"
        }
      ],
      "name": "getPaySupplierData",
      "outputs": [
        {
          "internalType": "bytes32",
          "name": "",
          "type": "bytes32"
        },
        {
          "internalType": "bytes32",
          "name": "",
          "type": "bytes32"
        },
        {
          "internalType": "string[]",
          "name": "",
          "type": "string[]"
        }
      ],
      "payable": false,
      "stateMutability": "view",
      "type": "function"
    },
    {
      "constant": false,
      "inputs": [],
      "name": "getRedeemData",
      "outputs": [
        {
          "internalType": "bytes32",
          "name": "",
          "type": "bytes32"
        },
        {
          "internalType": "string[]",
          "name": "",
          "type": "string[]"
        }
      ],
      "payable": false,
      "stateMutability": "nonpayable",
      "type": "function"
    },
    {
      "constant": false,
      "inputs": [
        {
          "internalType": "uint256",
          "name": "fromId",
          "type": "uint256"
        },
        {
          "internalType": "bytes32",
          "name": "fromHash",
          "type": "bytes32"
        },
        {
          "internalType": "uint256",
          "name": "toId",
          "type": "uint256"
        },
        {
          "internalType": "bytes32",
          "name": "toHash",
          "type": "bytes32"
        },
        {
          "internalType": "uint256",
          "name": "amount",
          "type": "uint256"
        },
        {
          "internalType": "string[]",
          "name": "data",
          "type": "string[]"
        }
      ],
      "name": "verifyAndActForTransfer",
      "outputs": [],
      "payable": false,
      "stateMutability": "nonpayable",
      "type": "function"
    },
    {
      "constant": false,
      "inputs": [
        {
          "internalType": "uint256",
          "name": "fromId",
          "type": "uint256"
        },
        {
          "internalType": "bytes32",
          "name": "fromHash",
          "type": "bytes32"
        },
        {
          "internalType": "uint256",
          "name": "amount",
          "type": "uint256"
        },
        {
          "internalType": "string[]",
          "name": "data",
          "type": "string[]"
        }
      ],
      "name": "verifyAndActForRedeem",
      "outputs": [],
      "payable": false,
      "stateMutability": "nonpayable",
      "type": "function"
    },
    {
      "constant": false,
      "inputs": [
        {
          "internalType": "string",
          "name": "redemptionTransactionHash",
          "type": "string"
        },
        {
          "internalType": "string",
          "name": "receiptHash",
          "type": "string"
        },
        {
          "internalType": "string[]",
          "name": "data",
          "type": "string[]"
        }
      ],
      "name": "verifyAndActForRedemptionSettlement",
      "outputs": [],
      "payable": false,
      "stateMutability": "nonpayable",
      "type": "function"
    },
    {
      "constant": false,
      "inputs": [
        {
          "internalType": "uint256",
          "name": "fromId",
          "type": "uint256"
        },
        {
          "internalType": "bytes32",
          "name": "fromHash",
          "type": "bytes32"
        },
        {
          "internalType": "uint256",
          "name": "toId",
          "type": "uint256"
        },
        {
          "internalType": "bytes32",
          "name": "toHash",
          "type": "bytes32"
        },
        {
          "internalType": "uint256",
          "name": "amount",
          "type": "uint256"
        }
      ],
      "name": "authorizeExtraordinaryTransfer",
      "outputs": [],
      "payable": false,
      "stateMutability": "nonpayable",
      "type": "function"
    }
  ],
  "bytecode": "0x60806040526040518060400160405280601981526020017f44495342555253454d454e545f564552494649434154494f4e00000000000000815250600990805190602001906200005192919062000463565b506040518060400160405280601981526020017f5041595f535550504c4945525f564552494649434154494f4e00000000000000815250600a90805190602001906200009f92919062000463565b506040518060400160405280601381526020017f4d414e55414c5f494e54455256454e54494f4e00000000000000000000000000815250600b9080519060200190620000ed92919062000463565b506000600c60006101000a81548160ff021916908360ff1602179055503480156200011757600080fd5b5060405162004e4138038062004e4183398181016040526200013d919081019062000529565b60006200014f6200027c60201b60201c565b9050806000806101000a81548173ffffffffffffffffffffffffffffffffffffffff021916908373ffffffffffffffffffffffffffffffffffffffff1602179055508073ffffffffffffffffffffffffffffffffffffffff16600073ffffffffffffffffffffffffffffffffffffffff167f8be0079c531659141344cd1fd0a4f28419497f9722a3daafe3b4186f6b6457e060405160405180910390a3506200020d620002016200027c60201b60201c565b6200028460201b60201c565b6000600260006101000a81548160ff021916908315150217905550606481106200026e576040517f08c379a0000000000000000000000000000000000000000000000000000000008152600401620002659062000641565b60405180910390fd5b8060088190555050620006dc565b600033905090565b6200029f816001620002e560201b62002a911790919060201c565b8073ffffffffffffffffffffffffffffffffffffffff167f6719d08c1888103bea251a4ed56406bd0c3e69723c8a1686e017e7bbe159b6f860405160405180910390a250565b620002f782826200039860201b60201c565b156200033a576040517f08c379a0000000000000000000000000000000000000000000000000000000008152600401620003319062000663565b60405180910390fd5b60018260000160008373ffffffffffffffffffffffffffffffffffffffff1673ffffffffffffffffffffffffffffffffffffffff16815260200190815260200160002060006101000a81548160ff0219169083151502179055505050565b60008073ffffffffffffffffffffffffffffffffffffffff168273ffffffffffffffffffffffffffffffffffffffff1614156200040c576040517f08c379a0000000000000000000000000000000000000000000000000000000008152600401620004039062000685565b60405180910390fd5b8260000160008373ffffffffffffffffffffffffffffffffffffffff1673ffffffffffffffffffffffffffffffffffffffff16815260200190815260200160002060009054906101000a900460ff16905092915050565b828054600181600116156101000203166002900490600052602060002090601f016020900481019282601f10620004a657805160ff1916838001178555620004d7565b82800160010185558215620004d7579182015b82811115620004d6578251825591602001919060010190620004b9565b5b509050620004e69190620004ea565b5090565b6200050f91905b808211156200050b576000816000905550600101620004f1565b5090565b90565b6000815190506200052381620006c2565b92915050565b6000602082840312156200053c57600080fd5b60006200054c8482850162000512565b91505092915050565b600062000564601b83620006a7565b91507f56616c6f7220646520466565206d61696f7220717565203130302500000000006000830152602082019050919050565b6000620005a6601f83620006a7565b91507f526f6c65733a206163636f756e7420616c72656164792068617320726f6c65006000830152602082019050919050565b6000620005e8602283620006a7565b91507f526f6c65733a206163636f756e7420697320746865207a65726f20616464726560008301527f73730000000000000000000000000000000000000000000000000000000000006020830152604082019050919050565b600060208201905081810360008301526200065c8162000555565b9050919050565b600060208201905081810360008301526200067e8162000597565b9050919050565b60006020820190508181036000830152620006a081620005d9565b9050919050565b600082825260208201905092915050565b6000819050919050565b620006cd81620006b8565b8114620006d957600080fd5b50565b61475580620006ec6000396000f3fe608060405234801561001057600080fd5b50600436106101e55760003560e01c80638da5cb5b1161010f578063c596acc7116100a2578063e4c7426f11610071578063e4c7426f146104fb578063ee33b0bc14610519578063f2fde38b1461054b578063ffd4d5a614610567576101e5565b8063c596acc714610461578063c84448801461047d578063c92f4eb0146104af578063daeb1cc9146104cb576101e5565b8063a5ed0edd116100de578063a5ed0edd146103ed578063a79a8b2d1461040b578063ad641da614610427578063bc00776314610445576101e5565b80638da5cb5b146103745780638e1b808a146103925780638e669481146103b15780638f32d59b146103cf576101e5565b80635c975abb116101875780637b103999116101565780637b103999146103145780637eabe58a1461033257806382dc1ec41461034e5780638456cb591461036a576101e5565b80635c975abb146102c65780636b4dd41f146102e45780636ef8d66d14610300578063715018a61461030a576101e5565b806327462769116101c357806327462769146102545780633dfdcfab146102705780633f4ba83a1461028c57806346fbf68e14610296576101e5565b806317251ba9146101ea57806317fcd051146102065780632039974114610236575b600080fd5b61020460048036036101ff9190810190612eb7565b610585565b005b610220600480360361021b9190810190612eb7565b610742565b60405161022d9190613dee565b60405180910390f35b61023e610763565b60405161024b9190613ee4565b60405180910390f35b61026e60048036036102699190810190612f84565b610801565b005b61028a60048036036102859190810190612ce7565b6108af565b005b610294610935565b005b6102b060048036036102ab9190810190612cbe565b610a2e565b6040516102bd9190613dd3565b60405180910390f35b6102ce610a4b565b6040516102db9190613dd3565b60405180910390f35b6102fe60048036036102f99190810190612d4c565b610a62565b005b610308610d07565b005b610312610d19565b005b61031c610e1f565b6040516103299190613eae565b60405180910390f35b61034c600480360361034791908101906130f0565b610e45565b005b61036860048036036103639190810190612cbe565b610f13565b005b610372610f6e565b005b61037c611068565b6040516103899190613d9d565b60405180910390f35b61039a611091565b6040516103a8929190613e09565b60405180910390f35b6103b9611115565b6040516103c69190613ee4565b60405180910390f35b6103d76111b3565b6040516103e49190613dd3565b60405180910390f35b6103f5611211565b60405161040291906143e9565b60405180910390f35b61042560048036036104209190810190612eb7565b611224565b005b61042f611576565b60405161043c91906142eb565b60405180910390f35b61045f600480360361045a9190810190612e20565b61157c565b005b61047b60048036036104769190810190612ffb565b61169a565b005b61049760048036036104929190810190612ddf565b611966565b6040516104a693929190613e39565b60405180910390f35b6104c960048036036104c49190810190612f09565b611ae9565b005b6104e560048036036104e0919081019061309c565b611d22565b6040516104f29190613dd3565b60405180910390f35b610503611d67565b6040516105109190613ec9565b60405180910390f35b610533600480360361052e9190810190612ddf565b611d8d565b60405161054293929190613e39565b60405180910390f35b61056560048036036105609190810190612cbe565b611f10565b005b61056f611f63565b60405161057c9190613ee4565b60405180910390f35b61058d6111b3565b6105cc576040517f08c379a00000000000000000000000000000000000000000000000000000000081526004016105c39061422b565b60405180910390fd5b600260019054906101000a900473ffffffffffffffffffffffffffffffffffffffff1673ffffffffffffffffffffffffffffffffffffffff1663613a7896826040518263ffffffff1660e01b815260040161062791906142eb565b60206040518083038186803b15801561063f57600080fd5b505afa158015610653573d6000803e3d6000fd5b505050506040513d601f19601f820116820180604052506106779190810190612d23565b6106b6576040517f08c379a00000000000000000000000000000000000000000000000000000000081526004016106ad9061418b565b60405180910390fd5b6004600082815260200190815260200160002060009054906101000a900460ff1661073f5760016004600083815260200190815260200160002060006101000a81548160ff0219169083151502179055507fbf594816977ea5809bf299bfeeb10d2cb41e25a998a19fafe5460164b3cdb08b8160405161073691906142eb565b60405180910390a15b50565b6007818154811061074f57fe5b906000526020600020016000915090505481565b600a8054600181600116156101000203166002900480601f0160208091040260200160405190810160405280929190818152602001828054600181600116156101000203166002900480156107f95780601f106107ce576101008083540402835291602001916107f9565b820191906000526020600020905b8154815290600101906020018083116107dc57829003601f168201915b505050505081565b6108096111b3565b610848576040517f08c379a000000000000000000000000000000000000000000000000000000000815260040161083f9061422b565b60405180910390fd5b60008585858585604051602001610863959493929190613d23565b6040516020818303038152906040528051906020012090506007819080600181540180825580915050906001820390600052602060002001600090919290919091505550505050505050565b81600260016101000a81548173ffffffffffffffffffffffffffffffffffffffff021916908373ffffffffffffffffffffffffffffffffffffffff16021790555080600360006101000a81548173ffffffffffffffffffffffffffffffffffffffff021916908373ffffffffffffffffffffffffffffffffffffffff1602179055505050565b610945610940612001565b610a2e565b610984576040517f08c379a000000000000000000000000000000000000000000000000000000000815260040161097b9061406b565b60405180910390fd5b600260009054906101000a900460ff166109d3576040517f08c379a00000000000000000000000000000000000000000000000000000000081526004016109ca9061402b565b60405180910390fd5b6000600260006101000a81548160ff0219169083151502179055507f5db9ee0a495bf2e6ff9c91a7834c1ba4fdd244a5e8aa4e537bd38aeae4b073aa610a17612001565b604051610a249190613db8565b60405180910390a1565b6000610a4482600161200990919063ffffffff16565b9050919050565b6000600260009054906101000a900460ff16905090565b600260009054906101000a900460ff1615610ab2576040517f08c379a0000000000000000000000000000000000000000000000000000000008152600401610aa99061416b565b60405180910390fd5b600360009054906101000a900473ffffffffffffffffffffffffffffffffffffffff1673ffffffffffffffffffffffffffffffffffffffff163373ffffffffffffffffffffffffffffffffffffffff1614610b42576040517f08c379a0000000000000000000000000000000000000000000000000000000008152600401610b39906142ab565b60405180910390fd5b83600c60009054906101000a900460ff16604051602001610b639190613d82565b6040516020818303038152906040528051906020012014610bb9576040517f08c379a0000000000000000000000000000000000000000000000000000000008152600401610bb0906141cb565b60405180910390fd5b6000610be36064610bd5600854876120d190919063ffffffff16565b61214190919063ffffffff16565b9050600360009054906101000a900473ffffffffffffffffffffffffffffffffffffffff1673ffffffffffffffffffffffffffffffffffffffff166342966c68826040518263ffffffff1660e01b8152600401610c4091906142eb565b600060405180830381600087803b158015610c5a57600080fd5b505af1158015610c6e573d6000803e3d6000fd5b50505050606083600081518110610c8157fe5b602002602001015190507f510b32015cae6bd5a46e63f522b3e72f4899620ab6fb0a038d40f362d6cddfee818685604051610cbe93929190613f8f565b60405180910390a17fdbafbb5ff61a1cd221b878512cc915e367d5888dd3483ca01a9dfd17f3e3d85c8186604051610cf7929190613f5f565b60405180910390a1505050505050565b610d17610d12612001565b61218b565b565b610d216111b3565b610d60576040517f08c379a0000000000000000000000000000000000000000000000000000000008152600401610d579061422b565b60405180910390fd5b600073ffffffffffffffffffffffffffffffffffffffff166000809054906101000a900473ffffffffffffffffffffffffffffffffffffffff1673ffffffffffffffffffffffffffffffffffffffff167f8be0079c531659141344cd1fd0a4f28419497f9722a3daafe3b4186f6b6457e060405160405180910390a360008060006101000a81548173ffffffffffffffffffffffffffffffffffffffff021916908373ffffffffffffffffffffffffffffffffffffffff160217905550565b600260019054906101000a900473ffffffffffffffffffffffffffffffffffffffff1681565b610e4d6111b3565b610e8c576040517f08c379a0000000000000000000000000000000000000000000000000000000008152600401610e839061422b565b60405180910390fd5b60648210610ecf576040517f08c379a0000000000000000000000000000000000000000000000000000000008152600401610ec69061400b565b60405180910390fd5b816008819055507fbd7b604f0ee5042786f0c84c21d83c0229994b71f3a01f3a498aba4da09880e58282604051610f07929190614306565b60405180910390a15050565b610f23610f1e612001565b610a2e565b610f62576040517f08c379a0000000000000000000000000000000000000000000000000000000008152600401610f599061406b565b60405180910390fd5b610f6b816121e5565b50565b610f7e610f79612001565b610a2e565b610fbd576040517f08c379a0000000000000000000000000000000000000000000000000000000008152600401610fb49061406b565b60405180910390fd5b600260009054906101000a900460ff161561100d576040517f08c379a00000000000000000000000000000000000000000000000000000000081526004016110049061416b565b60405180910390fd5b6001600260006101000a81548160ff0219169083151502179055507f62e78cea01bee320cd4e420270b5ea74000d11b0c9f74754ebdbfc544b05a258611051612001565b60405161105e9190613db8565b60405180910390a1565b60008060009054906101000a900473ffffffffffffffffffffffffffffffffffffffff16905090565b600060606000600c60009054906101000a900460ff166040516020016110b79190613d82565b6040516020818303038152906040528051906020012090506060600060405190808252806020026020018201604052801561110657816020015b60608152602001906001900390816110f15790505b50905081819350935050509091565b60098054600181600116156101000203166002900480601f0160208091040260200160405190810160405280929190818152602001828054600181600116156101000203166002900480156111ab5780601f10611180576101008083540402835291602001916111ab565b820191906000526020600020905b81548152906001019060200180831161118e57829003601f168201915b505050505081565b60008060009054906101000a900473ffffffffffffffffffffffffffffffffffffffff1673ffffffffffffffffffffffffffffffffffffffff166111f5612001565b73ffffffffffffffffffffffffffffffffffffffff1614905090565b600c60009054906101000a900460ff1681565b600260009054906101000a900460ff1615611274576040517f08c379a000000000000000000000000000000000000000000000000000000000815260040161126b9061416b565b60405180910390fd5b6000600260019054906101000a900473ffffffffffffffffffffffffffffffffffffffff1673ffffffffffffffffffffffffffffffffffffffff166365f68c89336040518263ffffffff1660e01b81526004016112d19190613db8565b60206040518083038186803b1580156112e957600080fd5b505afa1580156112fd573d6000803e3d6000fd5b505050506040513d601f19601f820116820180604052506113219190810190612ee0565b90506004600082815260200190815260200160002060009054906101000a900460ff16611383576040517f08c379a000000000000000000000000000000000000000000000000000000000815260040161137a906141eb565b60405180910390fd5b600260019054906101000a900473ffffffffffffffffffffffffffffffffffffffff1673ffffffffffffffffffffffffffffffffffffffff1663613a7896826040518263ffffffff1660e01b81526004016113de91906142eb565b60206040518083038186803b1580156113f657600080fd5b505afa15801561140a573d6000803e3d6000fd5b505050506040513d601f19601f8201168201806040525061142e9190810190612d23565b61146d576040517f08c379a00000000000000000000000000000000000000000000000000000000081526004016114649061418b565b60405180910390fd5b6000600c60009054906101000a900460ff1660405160200161148f9190613d82565b604051602081830303815290604052805190602001209050600360009054906101000a900473ffffffffffffffffffffffffffffffffffffffff1673ffffffffffffffffffffffffffffffffffffffff1663173d34a88284866040518463ffffffff1660e01b815260040161150693929190613e77565b600060405180830381600087803b15801561152057600080fd5b505af1158015611534573d6000803e3d6000fd5b505050507f6704da9c2ddbb477933c3e18f32636a8782fc7595206d73bb0e8e9608b00d5b182846040516115699291906143c0565b60405180910390a1505050565b60085481565b600260009054906101000a900460ff16156115cc576040517f08c379a00000000000000000000000000000000000000000000000000000000081526004016115c39061416b565b60405180910390fd5b600360009054906101000a900473ffffffffffffffffffffffffffffffffffffffff1673ffffffffffffffffffffffffffffffffffffffff163373ffffffffffffffffffffffffffffffffffffffff161461165c576040517f08c379a0000000000000000000000000000000000000000000000000000000008152600401611653906142ab565b60405180910390fd5b7f8039e7cfe0227655de7f41b85f86a697e1c0cade8eed56b090446c9f7f6afe07838360405161168d929190613f28565b60405180910390a1505050565b600260009054906101000a900460ff16156116ea576040517f08c379a00000000000000000000000000000000000000000000000000000000081526004016116e19061416b565b60405180910390fd5b600360009054906101000a900473ffffffffffffffffffffffffffffffffffffffff1673ffffffffffffffffffffffffffffffffffffffff163373ffffffffffffffffffffffffffffffffffffffff161461177a576040517f08c379a0000000000000000000000000000000000000000000000000000000008152600401611771906142ab565b60405180910390fd5b60608160008151811061178957fe5b60200260200101519050600083116117d6576040517f08c379a00000000000000000000000000000000000000000000000000000000081526004016117cd9061412b565b60405180910390fd5b73__RBBLib________________________________63465c41056009836040518363ffffffff1660e01b8152600401611810929190613fd4565b60206040518083038186803b15801561182857600080fd5b505af415801561183c573d6000803e3d6000fd5b505050506040513d601f19601f820116820180604052506118609190810190612d23565b156118785761187387878787878761223f565b61195d565b73__RBBLib________________________________63465c4105600a836040518363ffffffff1660e01b81526004016118b2929190613fd4565b60206040518083038186803b1580156118ca57600080fd5b505af41580156118de573d6000803e3d6000fd5b505050506040513d601f19601f820116820180604052506119029190810190612d23565b1561191a57611915878787878787612585565b61195c565b600061195b576040517f08c379a00000000000000000000000000000000000000000000000000000000081526004016119529061426b565b60405180910390fd5b5b5b50505050505050565b600080606060008460405160200161197e9190613d0c565b6040516020818303038152906040528051906020012090506000600c60009054906101000a900460ff166040516020016119b89190613d82565b60405160208183030381529060405280519060200120905060606002604051908082528060200260200182016040528015611a0757816020015b60608152602001906001900390816119f25790505b509050600a8054600181600116156101000203166002900480601f016020809104026020016040519081016040528092919081815260200182805460018160011615610100020316600290048015611aa05780601f10611a7557610100808354040283529160200191611aa0565b820191906000526020600020905b815481529060010190602001808311611a8357829003601f168201915b505050505081600081518110611ab257fe5b60200260200101819052508681600181518110611acb57fe5b60200260200101819052508282829550955095505050509193909250565b600260009054906101000a900460ff1615611b39576040517f08c379a0000000000000000000000000000000000000000000000000000000008152600401611b309061416b565b60405180910390fd5b600360009054906101000a900473ffffffffffffffffffffffffffffffffffffffff1673ffffffffffffffffffffffffffffffffffffffff163373ffffffffffffffffffffffffffffffffffffffff1614611bc9576040517f08c379a0000000000000000000000000000000000000000000000000000000008152600401611bc0906142ab565b60405180910390fd5b60008211611c0c576040517f08c379a0000000000000000000000000000000000000000000000000000000008152600401611c039061412b565b60405180910390fd5b6006600085815260200190815260200160002060009054906101000a900460ff16611c6c576040517f08c379a0000000000000000000000000000000000000000000000000000000008152600401611c639061410b565b60405180910390fd5b82600c60009054906101000a900460ff16604051602001611c8d9190613d82565b6040516020818303038152906040528051906020012014611ce3576040517f08c379a0000000000000000000000000000000000000000000000000000000008152600401611cda9061414b565b60405180910390fd5b7fb8f81a5484e20ac6428d9d7788e484b88874539071efc6a3d92c0d701b698ce08483604051611d149291906143c0565b60405180910390a150505050565b6005602052816000526040600020818051602081018201805184825260208301602085012081835280955050505050506000915091509054906101000a900460ff1681565b600360009054906101000a900473ffffffffffffffffffffffffffffffffffffffff1681565b60008060606000600c60009054906101000a900460ff16604051602001611db49190613d82565b604051602081830303815290604052805190602001209050600085604051602001611ddf9190613d0c565b60405160208183030381529060405280519060200120905060606002604051908082528060200260200182016040528015611e2e57816020015b6060815260200190600190039081611e195790505b50905060098054600181600116156101000203166002900480601f016020809104026020016040519081016040528092919081815260200182805460018160011615610100020316600290048015611ec75780601f10611e9c57610100808354040283529160200191611ec7565b820191906000526020600020905b815481529060010190602001808311611eaa57829003601f168201915b505050505081600081518110611ed957fe5b60200260200101819052508681600181518110611ef257fe5b60200260200101819052508282829550955095505050509193909250565b611f186111b3565b611f57576040517f08c379a0000000000000000000000000000000000000000000000000000000008152600401611f4e9061422b565b60405180910390fd5b611f608161285b565b50565b600b8054600181600116156101000203166002900480601f016020809104026020016040519081016040528092919081815260200182805460018160011615610100020316600290048015611ff95780601f10611fce57610100808354040283529160200191611ff9565b820191906000526020600020905b815481529060010190602001808311611fdc57829003601f168201915b505050505081565b600033905090565b60008073ffffffffffffffffffffffffffffffffffffffff168273ffffffffffffffffffffffffffffffffffffffff16141561207a576040517f08c379a00000000000000000000000000000000000000000000000000000000081526004016120719061424b565b60405180910390fd5b8260000160008373ffffffffffffffffffffffffffffffffffffffff1673ffffffffffffffffffffffffffffffffffffffff16815260200190815260200160002060009054906101000a900460ff16905092915050565b6000808314156120e4576000905061213b565b60008284029050828482816120f557fe5b0414612136576040517f08c379a000000000000000000000000000000000000000000000000000000000815260040161212d9061420b565b60405180910390fd5b809150505b92915050565b600061218383836040518060400160405280601a81526020017f536166654d6174683a206469766973696f6e206279207a65726f000000000000815250612989565b905092915050565b61219f8160016129ea90919063ffffffff16565b8073ffffffffffffffffffffffffffffffffffffffff167fcd265ebaf09df2871cc7bd4133404a235ba12eff2041bb89d9c714a2621c7c7e60405160405180910390a250565b6121f9816001612a9190919063ffffffff16565b8073ffffffffffffffffffffffffffffffffffffffff167f6719d08c1888103bea251a4ed56406bd0c3e69723c8a1686e017e7bbe159b6f860405160405180910390a250565b600260009054906101000a900460ff161561228f576040517f08c379a00000000000000000000000000000000000000000000000000000000081526004016122869061416b565b60405180910390fd5b60608160018151811061229e57fe5b602002602001015190506000600260019054906101000a900473ffffffffffffffffffffffffffffffffffffffff1673ffffffffffffffffffffffffffffffffffffffff166365f68c896122f0611068565b6040518263ffffffff1660e01b815260040161230c9190613d9d565b60206040518083038186803b15801561232457600080fd5b505afa158015612338573d6000803e3d6000fd5b505050506040513d601f19601f8201168201806040525061235c9190810190612ee0565b90508088146123a0576040517f08c379a00000000000000000000000000000000000000000000000000000000081526004016123979061428b565b60405180910390fd5b86600c60009054906101000a900460ff166040516020016123c19190613d82565b6040516020818303038152906040528051906020012014612417576040517f08c379a000000000000000000000000000000000000000000000000000000000815260040161240e906140eb565b60405180910390fd5b84826040516020016124299190613d0c565b604051602081830303815290604052805190602001201461247f576040517f08c379a0000000000000000000000000000000000000000000000000000000008152600401612476906142cb565b60405180910390fd5b60056000878152602001908152602001600020826040516124a09190613d0c565b908152602001604051809103902060009054906101000a900460ff1661254057600160056000888152602001908152602001600020836040516124e39190613d0c565b908152602001604051809103902060006101000a81548160ff0219169083151502179055507f448b0dd714fa3713f69988b8ee8bad3ac840e06e3d93c970086a3d490d61c6298660405161253791906142eb565b60405180910390a15b7f6a4c81844df1c2bd4ddc3c212f15b0f89b66e0c623277b45a0c97427a5b164f686838660405161257393929190614336565b60405180910390a15050505050505050565b600260009054906101000a900460ff16156125d5576040517f08c379a00000000000000000000000000000000000000000000000000000000081526004016125cc9061416b565b60405180910390fd5b6060816001815181106125e457fe5b60200260200101519050600560008881526020019081526020016000208160405161260f9190613d0c565b908152602001604051809103902060009054906101000a900460ff1661266a576040517f08c379a00000000000000000000000000000000000000000000000000000000081526004016126619061408b565b60405180910390fd5b858160405160200161267c9190613d0c565b60405160208183030381529060405280519060200120146126d2576040517f08c379a00000000000000000000000000000000000000000000000000000000081526004016126c9906142cb565b60405180910390fd5b85600c60009054906101000a900460ff166040516020016126f39190613d82565b6040516020818303038152906040528051906020012014612749576040517f08c379a00000000000000000000000000000000000000000000000000000000081526004016127409061414b565b60405180910390fd5b8487141561278c576040517f08c379a0000000000000000000000000000000000000000000000000000000008152600401612783906140cb565b60405180910390fd5b6006600086815260200190815260200160002060009054906101000a900460ff166128155760016006600087815260200190815260200160002060006101000a81548160ff0219169083151502179055507fdbd156425e92bcf7929d11aeaf5fe04e177c0ce4edd8e53dc58b0e1838554b498760405161280c91906142eb565b60405180910390a15b7fb5941224982a8299c916869ca2e62ecbf14906bd1be81700e33cfc4bf401cc968782878660405161284a9493929190614374565b60405180910390a150505050505050565b600073ffffffffffffffffffffffffffffffffffffffff168173ffffffffffffffffffffffffffffffffffffffff1614156128cb576040517f08c379a00000000000000000000000000000000000000000000000000000000081526004016128c2906140ab565b60405180910390fd5b8073ffffffffffffffffffffffffffffffffffffffff166000809054906101000a900473ffffffffffffffffffffffffffffffffffffffff1673ffffffffffffffffffffffffffffffffffffffff167f8be0079c531659141344cd1fd0a4f28419497f9722a3daafe3b4186f6b6457e060405160405180910390a3806000806101000a81548173ffffffffffffffffffffffffffffffffffffffff021916908373ffffffffffffffffffffffffffffffffffffffff16021790555050565b600080831182906129d0576040517f08c379a00000000000000000000000000000000000000000000000000000000081526004016129c79190613f06565b60405180910390fd5b5060008385816129dc57fe5b049050809150509392505050565b6129f48282612009565b612a33576040517f08c379a0000000000000000000000000000000000000000000000000000000008152600401612a2a906141ab565b60405180910390fd5b60008260000160008373ffffffffffffffffffffffffffffffffffffffff1673ffffffffffffffffffffffffffffffffffffffff16815260200190815260200160002060006101000a81548160ff0219169083151502179055505050565b612a9b8282612009565b15612adb576040517f08c379a0000000000000000000000000000000000000000000000000000000008152600401612ad29061404b565b60405180910390fd5b60018260000160008373ffffffffffffffffffffffffffffffffffffffff1673ffffffffffffffffffffffffffffffffffffffff16815260200190815260200160002060006101000a81548160ff0219169083151502179055505050565b600081359050612b48816146b6565b92915050565b600082601f830112612b5f57600080fd5b8135612b72612b6d82614431565b614404565b9150818183526020840193506020810190508360005b83811015612bb85781358601612b9e8882612bec565b845260208401935060208301925050600181019050612b88565b5050505092915050565b600081519050612bd1816146cd565b92915050565b600081359050612be6816146e4565b92915050565b600082601f830112612bfd57600080fd5b8135612c10612c0b82614459565b614404565b91508082526020830160208301858383011115612c2c57600080fd5b612c37838284614630565b50505092915050565b600082601f830112612c5157600080fd5b8135612c64612c5f82614485565b614404565b91508082526020830160208301858383011115612c8057600080fd5b612c8b838284614630565b50505092915050565b600081359050612ca3816146fb565b92915050565b600081519050612cb8816146fb565b92915050565b600060208284031215612cd057600080fd5b6000612cde84828501612b39565b91505092915050565b60008060408385031215612cfa57600080fd5b6000612d0885828601612b39565b9250506020612d1985828601612b39565b9150509250929050565b600060208284031215612d3557600080fd5b6000612d4384828501612bc2565b91505092915050565b60008060008060808587031215612d6257600080fd5b6000612d7087828801612bd7565b9450506020612d8187828801612c94565b935050604085013567ffffffffffffffff811115612d9e57600080fd5b612daa87828801612b4e565b925050606085013567ffffffffffffffff811115612dc757600080fd5b612dd387828801612c40565b91505092959194509250565b600060208284031215612df157600080fd5b600082013567ffffffffffffffff811115612e0b57600080fd5b612e1784828501612c40565b91505092915050565b600080600060608486031215612e3557600080fd5b600084013567ffffffffffffffff811115612e4f57600080fd5b612e5b86828701612c40565b935050602084013567ffffffffffffffff811115612e7857600080fd5b612e8486828701612c40565b925050604084013567ffffffffffffffff811115612ea157600080fd5b612ead86828701612b4e565b9150509250925092565b600060208284031215612ec957600080fd5b6000612ed784828501612c94565b91505092915050565b600060208284031215612ef257600080fd5b6000612f0084828501612ca9565b91505092915050565b60008060008060808587031215612f1f57600080fd5b6000612f2d87828801612c94565b9450506020612f3e87828801612bd7565b9350506040612f4f87828801612c94565b925050606085013567ffffffffffffffff811115612f6c57600080fd5b612f7887828801612b4e565b91505092959194509250565b600080600080600060a08688031215612f9c57600080fd5b6000612faa88828901612c94565b9550506020612fbb88828901612bd7565b9450506040612fcc88828901612c94565b9350506060612fdd88828901612bd7565b9250506080612fee88828901612c94565b9150509295509295909350565b60008060008060008060c0878903121561301457600080fd5b600061302289828a01612c94565b965050602061303389828a01612bd7565b955050604061304489828a01612c94565b945050606061305589828a01612bd7565b935050608061306689828a01612c94565b92505060a087013567ffffffffffffffff81111561308357600080fd5b61308f89828a01612b4e565b9150509295509295509295565b600080604083850312156130af57600080fd5b60006130bd85828601612c94565b925050602083013567ffffffffffffffff8111156130da57600080fd5b6130e685828601612bec565b9150509250929050565b6000806040838503121561310357600080fd5b600061311185828601612c94565b925050602083013567ffffffffffffffff81111561312e57600080fd5b61313a85828601612c40565b9150509250929050565b600061315083836132e1565b905092915050565b613161816145b2565b82525050565b61317081614553565b82525050565b6000613181826144d6565b61318b8185614504565b93508360208202850161319d856144b1565b8060005b858110156131d957848403895281516131ba8582613144565b94506131c5836144f7565b925060208a019950506001810190506131a1565b50829750879550505050505092915050565b6131f481614565565b82525050565b61320381614571565b82525050565b61321a61321582614571565b614672565b82525050565b613229816145c4565b82525050565b613238816145e8565b82525050565b6000613249826144ec565b6132538185614526565b935061326381856020860161463f565b61326c81614698565b840191505092915050565b6000613282826144ec565b61328c8185614537565b935061329c81856020860161463f565b6132a581614698565b840191505092915050565b60006132bb826144ec565b6132c58185614548565b93506132d581856020860161463f565b80840191505092915050565b60006132ec826144e1565b6132f68185614515565b935061330681856020860161463f565b61330f81614698565b840191505092915050565b6000613325826144e1565b61332f8185614526565b935061333f81856020860161463f565b61334881614698565b840191505092915050565b6000815460018116600081146133705760018114613396576133da565b607f60028304166133818187614537565b955060ff1983168652602086019350506133da565b600282046133a48187614537565b95506133af856144c1565b60005b828110156133d1578154818901526001820191506020810190506133b2565b80880195505050505b505092915050565b60006133ef601b83614526565b91507f56616c6f7220646520466565206d61696f7220717565203130302500000000006000830152602082019050919050565b600061342f601483614526565b91507f5061757361626c653a206e6f74207061757365640000000000000000000000006000830152602082019050919050565b600061346f601f83614526565b91507f526f6c65733a206163636f756e7420616c72656164792068617320726f6c65006000830152602082019050919050565b60006134af603083614526565b91507f506175736572526f6c653a2063616c6c657220646f6573206e6f74206861766560008301527f207468652050617573657220726f6c65000000000000000000000000000000006020830152604082019050919050565b6000613515604483614526565b91507f536f6d656e746520636c69656e74657320656d20636f6e747261746f7320636160008301527f646173747261646f7320706f64656d206578656375746172206f20706167616d60208301527f656e746f000000000000000000000000000000000000000000000000000000006040830152606082019050919050565b60006135a1602683614526565b91507f4f776e61626c653a206e6577206f776e657220697320746865207a65726f206160008301527f64647265737300000000000000000000000000000000000000000000000000006020830152604082019050919050565b6000613607605f83614526565b91507f556d20434e504a206ec3a36f20706f6465207472616e73666572697220746f6b60008301527f656e20706172612073692c2061696e64612071756520656d20706170c3a9697360208301527f2064697374696e746f732028436c69656e74652f466f726e656365646f7229006040830152606082019050919050565b6000613693602a83614526565b91507f4572726f206e6f2063c3a16c63756c6f20646f206861736820646120636f6e7460008301527f6120646f20424e444553000000000000000000000000000000000000000000006020830152604082019050919050565b60006136f9602f83614526565b91507f536f6d656e746520666f726e656365646f72657320706f64656d20657865637560008301527f746172206f20706167616d656e746f00000000000000000000000000000000006020830152604082019050919050565b600061375f603583614526565b91507f56616c6f72206120736572207472616e736163696f6e61646f2064657665207360008301527f6572206d61696f7220646f20717565207a65726f2e00000000000000000000006020830152604082019050919050565b60006137c5602f83614526565b91507f4572726f206e6f2063c3a16c63756c6f20646f206861736820646120636f6e7460008301527f6120646f20666f726e656365646f7200000000000000000000000000000000006020830152604082019050919050565b600061382b601083614526565b91507f5061757361626c653a20706175736564000000000000000000000000000000006000830152602082019050919050565b600061386b603383614526565b91507f436f6e746120646520646f61646f72207072656369736120657374617220636f60008301527f6d20636164617374726f2076616c696461646f000000000000000000000000006020830152604082019050919050565b60006138d1602183614526565b91507f526f6c65733a206163636f756e7420646f6573206e6f74206861766520726f6c60008301527f65000000000000000000000000000000000000000000000000000000000000006020830152604082019050919050565b6000613937602483614526565b91507f4572726f206e6f2063c3a16c63756c6f20646f206861736820646120646f61c360008301527fa7c3a36f000000000000000000000000000000000000000000000000000000006020830152604082019050919050565b600061399d602683614526565b91507f536f6d656e746520646f61646f72657320706f64656d2066617a657220646f6160008301527fc3a7c3b5657300000000000000000000000000000000000000000000000000006020830152604082019050919050565b6000613a03602183614526565b91507f536166654d6174683a206d756c7469706c69636174696f6e206f766572666c6f60008301527f77000000000000000000000000000000000000000000000000000000000000006020830152604082019050919050565b6000613a69602083614526565b91507f4f776e61626c653a2063616c6c6572206973206e6f7420746865206f776e65726000830152602082019050919050565b6000613aa9602283614526565b91507f526f6c65733a206163636f756e7420697320746865207a65726f20616464726560008301527f73730000000000000000000000000000000000000000000000000000000000006020830152604082019050919050565b6000613b0f604283614526565b91507f4e656e68756d61207665726966696361c3a7c3a36f206573706563c3ad66696360008301527f6120656e636f6e747261646120706172612061207472616e73666572c3aa6e6360208301527f69610000000000000000000000000000000000000000000000000000000000006040830152606082019050919050565b6000613b9b603c83614526565b91507f526573706f6e73c3a176656c2070656c61206c6962657261c3a7c3a36f20646560008301527f207265637572736f73206ec3a36f20657374c3a120636f727265746f000000006020830152604082019050919050565b6000613c01603083614526565b91507f45737365206dc3a9746f646f2073c3b320706f646520736572206368616d616460008301527f6f2070656c6f205242425f546f6b656e000000000000000000000000000000006020830152604082019050919050565b6000613c67602c83614526565b91507f4572726f206e6f2063c3a16c63756c6f20646f206861736820646120636f6e7460008301527f6120646f20636c69656e746500000000000000000000000000000000000000006020830152604082019050919050565b613cc98161459b565b82525050565b613ce0613cdb8261459b565b61467c565b82525050565b613cef816145a5565b82525050565b613d06613d01826145a5565b614686565b82525050565b6000613d1882846132b0565b915081905092915050565b6000613d2f8288613ccf565b602082019150613d3f8287613209565b602082019150613d4f8286613ccf565b602082019150613d5f8285613209565b602082019150613d6f8284613ccf565b6020820191508190509695505050505050565b6000613d8e8284613cf5565b60018201915081905092915050565b6000602082019050613db26000830184613167565b92915050565b6000602082019050613dcd6000830184613158565b92915050565b6000602082019050613de860008301846131eb565b92915050565b6000602082019050613e0360008301846131fa565b92915050565b6000604082019050613e1e60008301856131fa565b8181036020830152613e308184613176565b90509392505050565b6000606082019050613e4e60008301866131fa565b613e5b60208301856131fa565b8181036040830152613e6d8184613176565b9050949350505050565b6000606082019050613e8c60008301866131fa565b613e996020830185613cc0565b613ea66040830184613cc0565b949350505050565b6000602082019050613ec36000830184613220565b92915050565b6000602082019050613ede600083018461322f565b92915050565b60006020820190508181036000830152613efe818461331a565b905092915050565b60006020820190508181036000830152613f20818461323e565b905092915050565b60006040820190508181036000830152613f42818561323e565b90508181036020830152613f56818461323e565b90509392505050565b60006040820190508181036000830152613f79818561323e565b9050613f886020830184613cc0565b9392505050565b60006060820190508181036000830152613fa9818661323e565b9050613fb86020830185613cc0565b8181036040830152613fca818461323e565b9050949350505050565b60006040820190508181036000830152613fee8185613353565b905081810360208301526140028184613277565b90509392505050565b60006020820190508181036000830152614024816133e2565b9050919050565b6000602082019050818103600083015261404481613422565b9050919050565b6000602082019050818103600083015261406481613462565b9050919050565b60006020820190508181036000830152614084816134a2565b9050919050565b600060208201905081810360008301526140a481613508565b9050919050565b600060208201905081810360008301526140c481613594565b9050919050565b600060208201905081810360008301526140e4816135fa565b9050919050565b6000602082019050818103600083015261410481613686565b9050919050565b60006020820190508181036000830152614124816136ec565b9050919050565b6000602082019050818103600083015261414481613752565b9050919050565b60006020820190508181036000830152614164816137b8565b9050919050565b600060208201905081810360008301526141848161381e565b9050919050565b600060208201905081810360008301526141a48161385e565b9050919050565b600060208201905081810360008301526141c4816138c4565b9050919050565b600060208201905081810360008301526141e48161392a565b9050919050565b6000602082019050818103600083015261420481613990565b9050919050565b60006020820190508181036000830152614224816139f6565b9050919050565b6000602082019050818103600083015261424481613a5c565b9050919050565b6000602082019050818103600083015261426481613a9c565b9050919050565b6000602082019050818103600083015261428481613b02565b9050919050565b600060208201905081810360008301526142a481613b8e565b9050919050565b600060208201905081810360008301526142c481613bf4565b9050919050565b600060208201905081810360008301526142e481613c5a565b9050919050565b60006020820190506143006000830184613cc0565b92915050565b600060408201905061431b6000830185613cc0565b818103602083015261432d818461323e565b90509392505050565b600060608201905061434b6000830186613cc0565b818103602083015261435d818561323e565b905061436c6040830184613cc0565b949350505050565b60006080820190506143896000830187613cc0565b818103602083015261439b818661323e565b90506143aa6040830185613cc0565b6143b76060830184613cc0565b95945050505050565b60006040820190506143d56000830185613cc0565b6143e26020830184613cc0565b9392505050565b60006020820190506143fe6000830184613ce6565b92915050565b6000604051905081810181811067ffffffffffffffff8211171561442757600080fd5b8060405250919050565b600067ffffffffffffffff82111561444857600080fd5b602082029050602081019050919050565b600067ffffffffffffffff82111561447057600080fd5b601f19601f8301169050602081019050919050565b600067ffffffffffffffff82111561449c57600080fd5b601f19601f8301169050602081019050919050565b6000819050602082019050919050565b60008190508160005260206000209050919050565b600081519050919050565b600081519050919050565b600081519050919050565b6000602082019050919050565b600082825260208201905092915050565b600082825260208201905092915050565b600082825260208201905092915050565b600082825260208201905092915050565b600081905092915050565b600061455e8261457b565b9050919050565b60008115159050919050565b6000819050919050565b600073ffffffffffffffffffffffffffffffffffffffff82169050919050565b6000819050919050565b600060ff82169050919050565b60006145bd8261460c565b9050919050565b60006145cf826145d6565b9050919050565b60006145e18261457b565b9050919050565b60006145f3826145fa565b9050919050565b60006146058261457b565b9050919050565b60006146178261461e565b9050919050565b60006146298261457b565b9050919050565b82818337600083830152505050565b60005b8381101561465d578082015181840152602081019050614642565b8381111561466c576000848401525b50505050565b6000819050919050565b6000819050919050565b6000614691826146a9565b9050919050565b6000601f19601f8301169050919050565b60008160f81b9050919050565b6146bf81614553565b81146146ca57600080fd5b50565b6146d681614565565b81146146e157600080fd5b50565b6146ed81614571565b81146146f857600080fd5b50565b6147048161459b565b811461470f57600080fd5b5056fea365627a7a72315820f8cfa525bd73c2d0b8663ef51e7e987d06d15c78091489edb68987a63f8d5f386c6578706572696d656e74616cf564736f6c63430005100040",
  "source": "pragma solidity ^0.5.0;\npragma experimental ABIEncoderV2;\n\n\nimport \"./RBBLib.sol\";\nimport \"./RBBRegistry.sol\";\nimport \"./RBBToken.sol\";\nimport \"./SpecificRBBToken.sol\";\nimport \"@openzeppelin/contracts/ownership/Ownable.sol\";\nimport \"@openzeppelin/contracts/lifecycle/Pausable.sol\";\nimport \"@openzeppelin/contracts/math/SafeMath.sol\";\n\n\n\n// Pode ter cliente no hash xyz, fornecedor no hash abc\n// clientes no hash xyz so aqueles que bndes informou (set cliente no hash total)\n/*\nRegras especficas\n- Toda vez que o BNDES faz um desembolso, o destinatrio ser associado como CLIENTE para um idFinancialSupportAgreement especfico (se ainda no estiver associado).\n- Somente clientes fazem pagamentos. Toda vez que um CLIENTE de um idFinancialSupportAgreement especfico paga um fornecedor, o destinatrio ser associado como FORNECEDOR (se ainda no estiver associado). \n- Somente FORNECEDORES podem solicitar o resgate.\n\nTodas as operaes j supem que a entidade de origem e destino esto cadastradas e validadas, pois isso  garantido pelo contrato genrico (RBB_Token)\n\nNo includo:\n------------\n- requisito adicional de o cliente poder resgatar uma parte do valor\n- possibilidade de devoluo de valores\n    - pode ocorrer no final do contrato, por exemplo, porque sobrou algum valor\n    - pode ocorrer no meio do contrato (glosa) e  normalmente se resolve aprovando uma comprovao da devoluo para a conta bancria do projeto, sem precisar devolver ao BNDES. Mas tem alguns casos de devoluo ao BNDES no meio do contrato, que ocorre em casos mais graves, e quando se quer ter mais controle sobre o uso do recurso\n- ideia de o fornecedor poder sacar mais de um saldo ao mesmo tempo.\n\n- qualquer pessoa do BNDES pode liberar (no  necessrio verificar na blockchain)\n*/\n\n//TODO: teoricamente, o cliente deveria registrar na blockchain o pedido de financiamento do cliente, concordam?\n\ncontract FABndesToken is SpecificRBBToken {\n\n    //RBBId donor => true/false (registered or not)\n    mapping (uint => bool) donors;\n\n    //RBBId client => (idFinancialSupportAgreement Client => true/false (registered or not)\n    mapping (uint => mapping (string => bool)) public clients;\n\n    //RBBId supplier => true/false (registered or not)\n    mapping (uint => bool) suppliers;\n\n   /* Hash of approved ManualInterventionOperationApprovedByOwner */\n    bytes32[] public hashManualInterventionOperationApprovedByOwner;\n\n\n   /* BNDES Fee percentage */\n    uint256 public bndesFee;    \n\n    string public DISBURSEMENT_VERIFICATION = \"DISBURSEMENT_VERIFICATION\";\n    string public PAY_SUPPLIER_VERIFICATION = \"PAY_SUPPLIER_VERIFICATION\";\n\n//precisa ser uma em especial ou pode ficar no mesmo bolo das intervencoes manuais?\n//    string public RETURN_FROM_CLIENT_TO_BNDES_VERIFICATION = \"RETURN_FROM_CLIENT_TO_BNDES_VERIFICATION\";\n\n    string public MANUAL_INTERVENTION = \"MANUAL_INTERVENTION\";\n\n\n    uint8 public RESERVED_NO_ADDITIONAL_FIELD_TO_HASH = 0;\n\n     using SafeMath for uint;\n   \n\n//TODO: rever eventos para BNDES Transparente\n    event FA_Disbursement  (uint idClient, string idFinancialSupportAgreement, uint amount);\n    event FA_TokenTransfer (uint fromCnpj, string fromIdFinancialSupportAgreement, uint toCnpj, uint amount);\n    event FA_RedemptionRequested (uint idClaimer, uint amount);\n    event FA_RedemptionSettlement(string redemptionTransactionHash, string receiptHash);\n\n    event FA_DonationBooked(uint idDonor, uint amount);\n    event FA_DonationConfirmed(string idDonor, uint amount, string receiptHash);\n    event FA_AdmFeeCharged(string idDonor, uint amount);\n\n //   event FAB_ManualIntervention_Returned_Client_BNDES (uint fromId, string idFinancialSupportAgreement, uint amount);\n    event FA_ManualIntervention_Fee(uint256 percent, string description);\n\n    event FA_DonorAdded(uint id);\n    event FA_ClientAdded(uint id);\n    event FA_SupplierAdded(uint id);\n\n\n    constructor (uint fee) public {\n        require (fee < 100, \"Valor de Fee maior que 100%\");\n        bndesFee = fee;\n    }\n\n    function setBNDESFee(uint256 newBndesFee, string memory description) public onlyOwner {\n        require (newBndesFee < 100, \"Valor de Fee maior que 100%\");\n        bndesFee = newBndesFee;\n        emit FA_ManualIntervention_Fee(newBndesFee, description);\n    }\n\n    function addDonor (uint idDonor) public onlyOwner {\n        require(registry.isValidatedId(idDonor), \"Conta de doador precisa estar com cadastro validado\");\n        if(!donors[idDonor]) {\n            donors[idDonor] = true;\n            emit FA_DonorAdded(idDonor);\n        }\n    }\n\n    /* Donor books a donation */\n    function bookDonation(uint amount) public whenNotPaused  {        \n        \n        uint idDonor = registry.getId(msg.sender);\n\n        require (donors[idDonor], \"Somente doadores podem fazer doaes\");\n        require(registry.isValidatedId(idDonor), \"Conta de doador precisa estar com cadastro validado\");\n        \n        //TODO: passar para mint\n        bytes32 specificHash = keccak256(abi.encodePacked(RESERVED_NO_ADDITIONAL_FIELD_TO_HASH));\n\n        rbbToken.requestMint(specificHash, idDonor, amount);\n\n        emit FA_DonationBooked(idDonor, amount);\n    }\n    \n    /* confirms the donor's donation */\n    function verifyAndActForMint(bytes32 specificHash, uint amount, string[] memory data,\n        string memory docHash) public whenNotPaused onlyRBBToken {\n\n        require (keccak256(abi.encodePacked(RESERVED_NO_ADDITIONAL_FIELD_TO_HASH))==specificHash, \"Erro no clculo do hash da doao\");\n\n        uint admFee = amount.mul(bndesFee).div(100);\n        rbbToken.burn(admFee);\n\n        string memory idDonor = data[0];\n//        require (donors[idDonor], \"Somente doadores podem fazer doaes, registro estah incorreto\");\n\n//TODO: transformar de string para uint de forma a ter eventos soh com uint         \n        emit FA_DonationConfirmed(idDonor, amount, docHash);\n        emit FA_AdmFeeCharged(idDonor, amount);\n\n    }\n\n    //*********** */\n\n\n    function getDisbusementData (string memory idFinancialSupportAgreement) public view\n        returns (bytes32, bytes32, string[] memory)  {\n\n        bytes32 fromHash = keccak256(abi.encodePacked(RESERVED_NO_ADDITIONAL_FIELD_TO_HASH));\n        bytes32 toHash = keccak256(abi.encodePacked(idFinancialSupportAgreement));\n\n        string[] memory data = new string[](2);\n        data[0] = DISBURSEMENT_VERIFICATION;\n        data[1] = idFinancialSupportAgreement;\n        return (fromHash, toHash, data);\n    }\n\n    function getPaySupplierData (string memory idFinancialSupportAgreement) public view\n            returns (bytes32, bytes32, string[] memory) {\n\n\n        bytes32 fromHash = keccak256(abi.encodePacked(idFinancialSupportAgreement));\n        bytes32 toHash = keccak256(abi.encodePacked(RESERVED_NO_ADDITIONAL_FIELD_TO_HASH));\n\n        string[] memory data = new string[](2);\n        data[0] = PAY_SUPPLIER_VERIFICATION;\n        data[1] = idFinancialSupportAgreement;\n        return (fromHash, toHash, data);\n    }\n\n\n    function getRedeemData () public \n            returns (bytes32, string[] memory) {\n\n        bytes32 fromHash = keccak256(abi.encodePacked(RESERVED_NO_ADDITIONAL_FIELD_TO_HASH));\n\n        string[] memory data = new string[](0);\n        return (fromHash, data);\n    }\n\n    //*********** */\n\n    function verifyAndActForTransfer(uint fromId, bytes32 fromHash, uint toId, bytes32 toHash, \n            uint amount, string[] memory data) public whenNotPaused onlyRBBToken {\n\n        string memory specificMethod = data[0];\n\n        require (amount>0, \"Valor a ser transacionado deve ser maior do que zero.\");\n\n\n        if (RBBLib.isEqual(DISBURSEMENT_VERIFICATION, specificMethod)) {\n            verifyAndActForTransfer_DISBURSEMENT(fromId, fromHash, toId, toHash, amount, data);\n        }\n        else if (RBBLib.isEqual(PAY_SUPPLIER_VERIFICATION, specificMethod)) {\n            verifyAndActForTransfer_PAY_SUPPLIER(fromId, fromHash, toId, toHash, amount, data);\n        }\n//TODO: incluir intervencao manual. Owner do contrato aprova uma transferencia e o dono da carteira a executa?\n        else {\n            require (false, \"Nenhuma verificao especfica encontrada para a transferncia\");\n        }\n\n    }\n\n//TODO: temos que contemplar pedido de doacao!? Cliente se cadastrando no cadastro. Marcio nao acha critico\n//PREMISSA 1: \n    function verifyAndActForTransfer_DISBURSEMENT(uint fromId, bytes32 fromHash, uint toId, bytes32 toHash, \n            uint amount, string[] memory data) internal whenNotPaused {\n    \n        string memory idFinancialSupportAgreement = data[1];\n        uint ownerId = registry.getId(owner());\n\n        //Essa eh uma regra especifica visto que outra organizacao pode ter recebido o token no allocate.\n        require (fromId == ownerId, \"Responsvel pela liberao de recursos no est correto\");\n        require (keccak256(abi.encodePacked(RESERVED_NO_ADDITIONAL_FIELD_TO_HASH))==fromHash, \"Erro no clculo do hash da conta do BNDES\");\n        require (keccak256(abi.encodePacked(idFinancialSupportAgreement))==toHash, \"Erro no clculo do hash da conta do cliente\");\n\n        if (!clients[toId][idFinancialSupportAgreement]) {\n            clients[toId][idFinancialSupportAgreement] = true; //register the client\n            emit FA_ClientAdded(toId);\n\n        }\n\n        emit FA_Disbursement (toId, idFinancialSupportAgreement, amount);\n\n    }\n\n    function verifyAndActForTransfer_PAY_SUPPLIER(uint fromId, bytes32 fromHash, uint toId, bytes32 toHash, \n            uint amount, string[] memory data) internal whenNotPaused {\n    \n        string memory idFinancialSupportAgreement = data[1];\n\n        require (clients[fromId][idFinancialSupportAgreement], \"Somente clientes em contratos cadastrados podem executar o pagamento\");\n        require (keccak256(abi.encodePacked(idFinancialSupportAgreement))==fromHash, \"Erro no clculo do hash da conta do cliente\");\n        require (keccak256(abi.encodePacked(RESERVED_NO_ADDITIONAL_FIELD_TO_HASH))==fromHash, \"Erro no clculo do hash da conta do fornecedor\");\n\n        require(fromId != toId,\n            \"Um CNPJ no pode transferir token para si, ainda que em papis distintos (Cliente/Fornecedor)\");\n\n        if (!suppliers[toId]) {\n            suppliers[toId] = true; //register the supplier\n            emit FA_SupplierAdded(fromId);\n        }\n\n        emit FA_TokenTransfer (fromId, idFinancialSupportAgreement, toId, amount);\n\n    }\n\n    //TODO: BNDES poder pagar fornecedor usando token\n\n\n    function verifyAndActForRedeem(uint fromId, bytes32 fromHash, uint amount, string[] memory data) \n        public whenNotPaused onlyRBBToken {\n\n        require (amount>0, \"Valor a ser transacionado deve ser maior do que zero.\");\n        require (suppliers[fromId], \"Somente fornecedores podem executar o pagamento\");\n        require (keccak256(abi.encodePacked(RESERVED_NO_ADDITIONAL_FIELD_TO_HASH))==fromHash, \"Erro no clculo do hash da conta do fornecedor\");\n\n        emit FA_RedemptionRequested (fromId, amount);\n\n    }\n\n    function verifyAndActForRedemptionSettlement(string memory redemptionTransactionHash, string memory receiptHash, \n        string[] memory data)\n        public whenNotPaused onlyRBBToken {\n\n        emit FA_RedemptionSettlement (redemptionTransactionHash, receiptHash);\n    }\n\n    modifier onlyRBBToken() {\n        require (msg.sender==address(rbbToken), \"Esse mtodo s pode ser chamado pelo RBB_Token\");\n        _;\n    }\n\n    \n    //*********** MANUAL INTERVENTION  */\n\n    function authorizeExtraordinaryTransfer (uint fromId, bytes32 fromHash, uint toId, bytes32 toHash, \n            uint amount) public onlyOwner {\n        \n        //TODO: verificar from e to sao parte do contrato especifico\n\n        bytes32 m = keccak256(abi.encodePacked(fromId, fromHash, toId, toHash, amount));\n        hashManualInterventionOperationApprovedByOwner.push(m);\n\n        //TODO: incluir evento\n        //TODO: criar acao intervencao manual\n    }\n   \n/*\n    function getReturnedClientToBNDESData (string memory idFinancialSupportAgreement) public \n        returns (bytes32, bytes32, string[] memory) {\n\n        bytes32 fromHash = keccak256(abi.encodePacked(idFinancialSupportAgreement));\n        bytes32 toHash = keccak256(abi.encodePacked(RESERVED_NO_ADDITIONAL_FIELD_TO_HASH));\n\n        string[] memory data = new string[](2);\n        data[0] = RETURN_FROM_CLIENT_TO_BNDES_VERIFICATION;\n        data[1] = idFinancialSupportAgreement;\n        return (fromHash, toHash, data);\n    }\n*/   \n\n/*    \n//TODO: incluir no metodo publico, tratar como caso geral de tratamento de erros ou nao?\n    function verifyAndActForTransfer_RETURN_CLIENT_BNDES(uint fromId, bytes32 fromHash, uint toId, bytes32 toHash, \n            uint amount, string[] memory data) internal whenNotPaused {\n    \n        string memory idFinancialSupportAgreement = data[1];\n\n        require (clients[fromId][idFinancialSupportAgreement], \"Somente clientes em contratos cadastrados podem executar o retorno de recursos\");\n        require (keccak256(abi.encodePacked(idFinancialSupportAgreement))==fromHash, \"Erro no clculo do hash da conta do cliente\");\n        require (keccak256(abi.encodePacked(RESERVED_NO_ADDITIONAL_FIELD_TO_HASH))==fromHash, \"Erro no clculo do hash da conta do BNDES\");\n\n        emit FA_ManualIntervention_Returned_Client_BNDES (fromId, idFinancialSupportAgreement, amount);\n\n    }\n*/\n\n   //get hashs  \n}",
  "sourcePath": "/Users/suzana.moreno/workspace/rbb-token/Back-Blockchain/contracts/FABndesToken.sol",
  "compiler": {
    "name": "solc",
    "version": "0.5.16+commit.9c3226ce.Emscripten.clang"
  },
  "schemaVersion": "3.0.23",
  "updatedAt": "2020-09-18T17:16:10.232Z",
  "devdoc": {
    "methods": {
      "isOwner()": {
        "details": "Returns true if the caller is the current owner."
      },
      "owner()": {
        "details": "Returns the address of the current owner."
      },
      "pause()": {
        "details": "Called by a pauser to pause, triggers stopped state."
      },
      "paused()": {
        "details": "Returns true if the contract is paused, and false otherwise."
      },
      "renounceOwnership()": {
        "details": "Leaves the contract without owner. It will not be possible to call `onlyOwner` functions anymore. Can only be called by the current owner.     * NOTE: Renouncing ownership will leave the contract without an owner, thereby removing any functionality that is only available to the owner."
      },
      "transferOwnership(address)": {
        "details": "Transfers ownership of the contract to a new account (`newOwner`). Can only be called by the current owner."
      },
      "unpause()": {
        "details": "Called by a pauser to unpause, returns to normal state."
      }
    }
  },
  "userdoc": {
    "methods": {}
  }
}