{
  "contractName": "FABndesToken",
  "abi": [
    {
      "inputs": [
        {
          "internalType": "address",
          "name": "newRegistryAddr",
          "type": "address"
        },
        {
          "internalType": "address",
          "name": "newrbbTokenAddr",
          "type": "address"
        },
        {
          "internalType": "uint256",
          "name": "responsibleForDisbursementArg",
          "type": "uint256"
        },
        {
          "internalType": "uint256",
          "name": "responsibleForSettlementArg",
          "type": "uint256"
        }
      ],
      "payable": false,
      "stateMutability": "nonpayable",
      "type": "constructor"
    },
    {
      "anonymous": false,
      "inputs": [
        {
          "indexed": false,
          "internalType": "uint256",
          "name": "idClient",
          "type": "uint256"
        },
        {
          "indexed": false,
          "internalType": "string",
          "name": "idFinancialSupportAgreement",
          "type": "string"
        },
        {
          "indexed": false,
          "internalType": "uint256",
          "name": "amount",
          "type": "uint256"
        }
      ],
      "name": "DisbursementVerified",
      "type": "event"
    },
    {
      "anonymous": false,
      "inputs": [
        {
          "indexed": true,
          "internalType": "address",
          "name": "previousOwner",
          "type": "address"
        },
        {
          "indexed": true,
          "internalType": "address",
          "name": "newOwner",
          "type": "address"
        }
      ],
      "name": "OwnershipTransferred",
      "type": "event"
    },
    {
      "anonymous": false,
      "inputs": [
        {
          "indexed": false,
          "internalType": "address",
          "name": "account",
          "type": "address"
        }
      ],
      "name": "Paused",
      "type": "event"
    },
    {
      "anonymous": false,
      "inputs": [
        {
          "indexed": true,
          "internalType": "address",
          "name": "account",
          "type": "address"
        }
      ],
      "name": "PauserAdded",
      "type": "event"
    },
    {
      "anonymous": false,
      "inputs": [
        {
          "indexed": true,
          "internalType": "address",
          "name": "account",
          "type": "address"
        }
      ],
      "name": "PauserRemoved",
      "type": "event"
    },
    {
      "anonymous": false,
      "inputs": [
        {
          "indexed": false,
          "internalType": "address",
          "name": "account",
          "type": "address"
        }
      ],
      "name": "Unpaused",
      "type": "event"
    },
    {
      "constant": true,
      "inputs": [],
      "name": "RESERVED_SUPPLIER_ID_FINANCIAL_SUPPORT_AGREEMENT",
      "outputs": [
        {
          "internalType": "uint8",
          "name": "",
          "type": "uint8"
        }
      ],
      "payable": false,
      "stateMutability": "view",
      "type": "function"
    },
    {
      "constant": false,
      "inputs": [
        {
          "internalType": "address",
          "name": "account",
          "type": "address"
        }
      ],
      "name": "addPauser",
      "outputs": [],
      "payable": false,
      "stateMutability": "nonpayable",
      "type": "function"
    },
    {
      "constant": true,
      "inputs": [],
      "name": "isOwner",
      "outputs": [
        {
          "internalType": "bool",
          "name": "",
          "type": "bool"
        }
      ],
      "payable": false,
      "stateMutability": "view",
      "type": "function"
    },
    {
      "constant": true,
      "inputs": [
        {
          "internalType": "address",
          "name": "account",
          "type": "address"
        }
      ],
      "name": "isPauser",
      "outputs": [
        {
          "internalType": "bool",
          "name": "",
          "type": "bool"
        }
      ],
      "payable": false,
      "stateMutability": "view",
      "type": "function"
    },
    {
      "constant": true,
      "inputs": [],
      "name": "owner",
      "outputs": [
        {
          "internalType": "address",
          "name": "",
          "type": "address"
        }
      ],
      "payable": false,
      "stateMutability": "view",
      "type": "function"
    },
    {
      "constant": false,
      "inputs": [],
      "name": "pause",
      "outputs": [],
      "payable": false,
      "stateMutability": "nonpayable",
      "type": "function"
    },
    {
      "constant": true,
      "inputs": [],
      "name": "paused",
      "outputs": [
        {
          "internalType": "bool",
          "name": "",
          "type": "bool"
        }
      ],
      "payable": false,
      "stateMutability": "view",
      "type": "function"
    },
    {
      "constant": true,
      "inputs": [],
      "name": "rbbToken",
      "outputs": [
        {
          "internalType": "contract RBBToken",
          "name": "",
          "type": "address"
        }
      ],
      "payable": false,
      "stateMutability": "view",
      "type": "function"
    },
    {
      "constant": true,
      "inputs": [],
      "name": "registry",
      "outputs": [
        {
          "internalType": "contract RBBRegistry",
          "name": "",
          "type": "address"
        }
      ],
      "payable": false,
      "stateMutability": "view",
      "type": "function"
    },
    {
      "constant": false,
      "inputs": [],
      "name": "renounceOwnership",
      "outputs": [],
      "payable": false,
      "stateMutability": "nonpayable",
      "type": "function"
    },
    {
      "constant": false,
      "inputs": [],
      "name": "renouncePauser",
      "outputs": [],
      "payable": false,
      "stateMutability": "nonpayable",
      "type": "function"
    },
    {
      "constant": true,
      "inputs": [],
      "name": "responsibleForDisbursement",
      "outputs": [
        {
          "internalType": "uint256",
          "name": "",
          "type": "uint256"
        }
      ],
      "payable": false,
      "stateMutability": "view",
      "type": "function"
    },
    {
      "constant": true,
      "inputs": [],
      "name": "responsibleForSettlement",
      "outputs": [
        {
          "internalType": "uint256",
          "name": "",
          "type": "uint256"
        }
      ],
      "payable": false,
      "stateMutability": "view",
      "type": "function"
    },
    {
      "constant": false,
      "inputs": [
        {
          "internalType": "address",
          "name": "newOwner",
          "type": "address"
        }
      ],
      "name": "transferOwnership",
      "outputs": [],
      "payable": false,
      "stateMutability": "nonpayable",
      "type": "function"
    },
    {
      "constant": false,
      "inputs": [],
      "name": "unpause",
      "outputs": [],
      "payable": false,
      "stateMutability": "nonpayable",
      "type": "function"
    },
    {
      "constant": false,
      "inputs": [
        {
          "internalType": "string",
          "name": "idFinancialSupportAgreement",
          "type": "string"
        }
      ],
      "name": "getDisbusementData",
      "outputs": [
        {
          "internalType": "string[]",
          "name": "",
          "type": "string[]"
        }
      ],
      "payable": false,
      "stateMutability": "nonpayable",
      "type": "function"
    },
    {
      "constant": false,
      "inputs": [
        {
          "internalType": "uint256",
          "name": "fromId",
          "type": "uint256"
        },
        {
          "internalType": "bytes32",
          "name": "fromHash",
          "type": "bytes32"
        },
        {
          "internalType": "uint256",
          "name": "toId",
          "type": "uint256"
        },
        {
          "internalType": "bytes32",
          "name": "toHash",
          "type": "bytes32"
        },
        {
          "internalType": "uint256",
          "name": "amount",
          "type": "uint256"
        },
        {
          "internalType": "string[]",
          "name": "data",
          "type": "string[]"
        }
      ],
      "name": "verifyAndActForTransfer",
      "outputs": [],
      "payable": false,
      "stateMutability": "nonpayable",
      "type": "function"
    },
    {
      "constant": false,
      "inputs": [
        {
          "internalType": "uint256",
          "name": "idResponsible",
          "type": "uint256"
        }
      ],
      "name": "setResponsibleForDisbursement",
      "outputs": [],
      "payable": false,
      "stateMutability": "nonpayable",
      "type": "function"
    },
    {
      "constant": false,
      "inputs": [
        {
          "internalType": "uint256",
          "name": "idResponsible",
          "type": "uint256"
        }
      ],
      "name": "setResponsibleForSettlement",
      "outputs": [],
      "payable": false,
      "stateMutability": "nonpayable",
      "type": "function"
    },
    {
      "constant": true,
      "inputs": [
        {
          "internalType": "address",
          "name": "addr",
          "type": "address"
        }
      ],
      "name": "isResponsibleForDisbursement",
      "outputs": [
        {
          "internalType": "bool",
          "name": "",
          "type": "bool"
        }
      ],
      "payable": false,
      "stateMutability": "view",
      "type": "function"
    },
    {
      "constant": true,
      "inputs": [
        {
          "internalType": "address",
          "name": "addr",
          "type": "address"
        }
      ],
      "name": "isResponsibleForSettlement",
      "outputs": [
        {
          "internalType": "bool",
          "name": "",
          "type": "bool"
        }
      ],
      "payable": false,
      "stateMutability": "view",
      "type": "function"
    }
  ],
  "bytecode": "0x60806040526000600660006101000a81548160ff021916908360ff1602179055503480156200002d57600080fd5b50604051620029e6380380620029e6833981810160405262000053919081019062000720565b8383600062000067620001f060201b60201c565b9050806000806101000a81548173ffffffffffffffffffffffffffffffffffffffff021916908373ffffffffffffffffffffffffffffffffffffffff1602179055508073ffffffffffffffffffffffffffffffffffffffff16600073ffffffffffffffffffffffffffffffffffffffff167f8be0079c531659141344cd1fd0a4f28419497f9722a3daafe3b4186f6b6457e060405160405180910390a3506200012562000119620001f060201b60201c565b620001f860201b60201c565b6000600260006101000a81548160ff02191690831515021790555081600260016101000a81548173ffffffffffffffffffffffffffffffffffffffff021916908373ffffffffffffffffffffffffffffffffffffffff16021790555080600360006101000a81548173ffffffffffffffffffffffffffffffffffffffff021916908373ffffffffffffffffffffffffffffffffffffffff1602179055505050620001d5826200025960201b60201c565b620001e681620003a860201b60201c565b5050505062000af5565b600033905090565b62000213816001620004f760201b6200111c1790919060201c565b8073ffffffffffffffffffffffffffffffffffffffff167f6719d08c1888103bea251a4ed56406bd0c3e69723c8a1686e017e7bbe159b6f860405160405180910390a250565b62000269620005aa60201b60201c565b620002ab576040517f08c379a0000000000000000000000000000000000000000000000000000000008152600401620002a290620009c9565b60405180910390fd5b600260019054906101000a900473ffffffffffffffffffffffffffffffffffffffff1673ffffffffffffffffffffffffffffffffffffffff1663613a7896826040518263ffffffff1660e01b815260040162000308919062000a2f565b60206040518083038186803b1580156200032157600080fd5b505afa15801562000336573d6000803e3d6000fd5b505050506040513d601f19601f820116820180604052506200035c91908101906200078c565b6200039e576040517f08c379a0000000000000000000000000000000000000000000000000000000008152600401620003959062000a0d565b60405180910390fd5b8060058190555050565b620003b8620005aa60201b60201c565b620003fa576040517f08c379a0000000000000000000000000000000000000000000000000000000008152600401620003f190620009c9565b60405180910390fd5b600260019054906101000a900473ffffffffffffffffffffffffffffffffffffffff1673ffffffffffffffffffffffffffffffffffffffff1663613a7896826040518263ffffffff1660e01b815260040162000457919062000a2f565b60206040518083038186803b1580156200047057600080fd5b505afa15801562000485573d6000803e3d6000fd5b505050506040513d601f19601f82011682018060405250620004ab91908101906200078c565b620004ed576040517f08c379a0000000000000000000000000000000000000000000000000000000008152600401620004e490620009a7565b60405180910390fd5b8060048190555050565b6200050982826200061060201b60201c565b156200054c576040517f08c379a0000000000000000000000000000000000000000000000000000000008152600401620005439062000985565b60405180910390fd5b60018260000160008373ffffffffffffffffffffffffffffffffffffffff1673ffffffffffffffffffffffffffffffffffffffff16815260200190815260200160002060006101000a81548160ff0219169083151502179055505050565b60008060009054906101000a900473ffffffffffffffffffffffffffffffffffffffff1673ffffffffffffffffffffffffffffffffffffffff16620005f4620001f060201b60201c565b73ffffffffffffffffffffffffffffffffffffffff1614905090565b60008073ffffffffffffffffffffffffffffffffffffffff168273ffffffffffffffffffffffffffffffffffffffff16141562000684576040517f08c379a00000000000000000000000000000000000000000000000000000000081526004016200067b90620009eb565b60405180910390fd5b8260000160008373ffffffffffffffffffffffffffffffffffffffff1673ffffffffffffffffffffffffffffffffffffffff16815260200190815260200160002060009054906101000a900460ff16905092915050565b600081519050620006ec8162000aa7565b92915050565b600081519050620007038162000ac1565b92915050565b6000815190506200071a8162000adb565b92915050565b600080600080608085870312156200073757600080fd5b60006200074787828801620006db565b94505060206200075a87828801620006db565b93505060406200076d8782880162000709565b9250506060620007808782880162000709565b91505092959194509250565b6000602082840312156200079f57600080fd5b6000620007af84828501620006f2565b91505092915050565b6000620007c7601f8362000a4c565b91507f526f6c65733a206163636f756e7420616c72656164792068617320726f6c65006000830152602082019050919050565b60006200080960348362000a4c565b91507f496420646f20526573706f6e7369626c6520666f7220536574746c656d656e7460008301527f206ec3a36f20657374c3a12076616c696461646f0000000000000000000000006020830152604082019050919050565b60006200087160208362000a4c565b91507f4f776e61626c653a2063616c6c6572206973206e6f7420746865206f776e65726000830152602082019050919050565b6000620008b360228362000a4c565b91507f526f6c65733a206163636f756e7420697320746865207a65726f20616464726560008301527f73730000000000000000000000000000000000000000000000000000000000006020830152604082019050919050565b60006200091b60368362000a4c565b91507f496420646f20526573706f6e7369626c6520666f722044697362757273656d6560008301527f6e74206ec3a36f20657374c3a12076616c696461646f000000000000000000006020830152604082019050919050565b6200097f8162000a9d565b82525050565b60006020820190508181036000830152620009a081620007b8565b9050919050565b60006020820190508181036000830152620009c281620007fa565b9050919050565b60006020820190508181036000830152620009e48162000862565b9050919050565b6000602082019050818103600083015262000a0681620008a4565b9050919050565b6000602082019050818103600083015262000a28816200090c565b9050919050565b600060208201905062000a46600083018462000974565b92915050565b600082825260208201905092915050565b600062000a6a8262000a7d565b9050919050565b60008115159050919050565b600073ffffffffffffffffffffffffffffffffffffffff82169050919050565b6000819050919050565b62000ab28162000a5d565b811462000abe57600080fd5b50565b62000acc8162000a71565b811462000ad857600080fd5b50565b62000ae68162000a9d565b811462000af257600080fd5b50565b611ee18062000b056000396000f3fe608060405234801561001057600080fd5b50600436106101375760003560e01c80638456cb59116100b8578063b37917291161007c578063b3791729146102e0578063c596acc7146102fe578063e4c7426f1461031a578063edcd58bb14610338578063ee33b0bc14610354578063f2fde38b1461038457610137565b80638456cb591461024c57806385fecf9b146102565780638cabf128146102865780638da5cb5b146102a45780638f32d59b146102c257610137565b80635c975abb116100ff5780635c975abb146101e05780636ef8d66d146101fe578063715018a6146102085780637b1039991461021257806382dc1ec41461023057610137565b80631a9ceb011461013c57806321453800146101585780633f4ba83a1461017657806346fbf68e146101805780634add3110146101b0575b600080fd5b610156600480360361015191908101906113dc565b6103a0565b005b6101606104db565b60405161016d9190611b80565b60405180910390f35b61017e6104e1565b005b61019a60048036036101959190810190611349565b6105da565b6040516101a791906119ef565b60405180910390f35b6101ca60048036036101c59190810190611349565b6105f7565b6040516101d791906119ef565b60405180910390f35b6101e86106af565b6040516101f591906119ef565b60405180910390f35b6102066106c6565b005b6102106106d8565b005b61021a6107de565b6040516102279190611a0a565b60405180910390f35b61024a60048036036102459190810190611349565b610804565b005b61025461085f565b005b610270600480360361026b9190810190611349565b610959565b60405161027d91906119ef565b60405180910390f35b61028e610a11565b60405161029b9190611b80565b60405180910390f35b6102ac610a17565b6040516102b99190611997565b60405180910390f35b6102ca610a40565b6040516102d791906119ef565b60405180910390f35b6102e8610a9e565b6040516102f59190611bd9565b60405180910390f35b6103186004803603610313919081019061142e565b610ab1565b005b610322610b64565b60405161032f9190611a25565b60405180910390f35b610352600480360361034d91908101906113dc565b610b8a565b005b61036e6004803603610369919081019061139b565b610cc5565b60405161037b91906119cd565b60405180910390f35b61039e60048036036103999190810190611349565b610d70565b005b6103a8610a40565b6103e7576040517f08c379a00000000000000000000000000000000000000000000000000000000081526004016103de90611b20565b60405180910390fd5b600260019054906101000a900473ffffffffffffffffffffffffffffffffffffffff1673ffffffffffffffffffffffffffffffffffffffff1663613a7896826040518263ffffffff1660e01b81526004016104429190611b80565b60206040518083038186803b15801561045a57600080fd5b505afa15801561046e573d6000803e3d6000fd5b505050506040513d601f19601f820116820180604052506104929190810190611372565b6104d1576040517f08c379a00000000000000000000000000000000000000000000000000000000081526004016104c890611ae0565b60405180910390fd5b8060048190555050565b60045481565b6104f16104ec610dc3565b6105da565b610530576040517f08c379a000000000000000000000000000000000000000000000000000000000815260040161052790611a80565b60405180910390fd5b600260009054906101000a900460ff1661057f576040517f08c379a000000000000000000000000000000000000000000000000000000000815260040161057690611a40565b60405180910390fd5b6000600260006101000a81548160ff0219169083151502179055507f5db9ee0a495bf2e6ff9c91a7834c1ba4fdd244a5e8aa4e537bd38aeae4b073aa6105c3610dc3565b6040516105d091906119b2565b60405180910390a1565b60006105f0826001610dcb90919063ffffffff16565b9050919050565b6000600554600260019054906101000a900473ffffffffffffffffffffffffffffffffffffffff1673ffffffffffffffffffffffffffffffffffffffff166365f68c89846040518263ffffffff1660e01b81526004016106579190611997565b60206040518083038186803b15801561066f57600080fd5b505afa158015610683573d6000803e3d6000fd5b505050506040513d601f19601f820116820180604052506106a79190810190611405565b149050919050565b6000600260009054906101000a900460ff16905090565b6106d66106d1610dc3565b610e93565b565b6106e0610a40565b61071f576040517f08c379a000000000000000000000000000000000000000000000000000000000815260040161071690611b20565b60405180910390fd5b600073ffffffffffffffffffffffffffffffffffffffff166000809054906101000a900473ffffffffffffffffffffffffffffffffffffffff1673ffffffffffffffffffffffffffffffffffffffff167f8be0079c531659141344cd1fd0a4f28419497f9722a3daafe3b4186f6b6457e060405160405180910390a360008060006101000a81548173ffffffffffffffffffffffffffffffffffffffff021916908373ffffffffffffffffffffffffffffffffffffffff160217905550565b600260019054906101000a900473ffffffffffffffffffffffffffffffffffffffff1681565b61081461080f610dc3565b6105da565b610853576040517f08c379a000000000000000000000000000000000000000000000000000000000815260040161084a90611a80565b60405180910390fd5b61085c81610eed565b50565b61086f61086a610dc3565b6105da565b6108ae576040517f08c379a00000000000000000000000000000000000000000000000000000000081526004016108a590611a80565b60405180910390fd5b600260009054906101000a900460ff16156108fe576040517f08c379a00000000000000000000000000000000000000000000000000000000081526004016108f590611ac0565b60405180910390fd5b6001600260006101000a81548160ff0219169083151502179055507f62e78cea01bee320cd4e420270b5ea74000d11b0c9f74754ebdbfc544b05a258610942610dc3565b60405161094f91906119b2565b60405180910390a1565b6000600454600260019054906101000a900473ffffffffffffffffffffffffffffffffffffffff1673ffffffffffffffffffffffffffffffffffffffff166365f68c89846040518263ffffffff1660e01b81526004016109b99190611997565b60206040518083038186803b1580156109d157600080fd5b505afa1580156109e5573d6000803e3d6000fd5b505050506040513d601f19601f82011682018060405250610a099190810190611405565b149050919050565b60055481565b60008060009054906101000a900473ffffffffffffffffffffffffffffffffffffffff16905090565b60008060009054906101000a900473ffffffffffffffffffffffffffffffffffffffff1673ffffffffffffffffffffffffffffffffffffffff16610a82610dc3565b73ffffffffffffffffffffffffffffffffffffffff1614905090565b600660009054906101000a900460ff1681565b600260009054906101000a900460ff1615610b01576040517f08c379a0000000000000000000000000000000000000000000000000000000008152600401610af890611ac0565b60405180910390fd5b6000869050606082600181518110610b1557fe5b602002602001015190507f9887e9cc10c78f65acc87e8f0a43e080425288165877a5372cdd37785831737a828286604051610b5293929190611b9b565b60405180910390a15050505050505050565b600360009054906101000a900473ffffffffffffffffffffffffffffffffffffffff1681565b610b92610a40565b610bd1576040517f08c379a0000000000000000000000000000000000000000000000000000000008152600401610bc890611b20565b60405180910390fd5b600260019054906101000a900473ffffffffffffffffffffffffffffffffffffffff1673ffffffffffffffffffffffffffffffffffffffff1663613a7896826040518263ffffffff1660e01b8152600401610c2c9190611b80565b60206040518083038186803b158015610c4457600080fd5b505afa158015610c58573d6000803e3d6000fd5b505050506040513d601f19601f82011682018060405250610c7c9190810190611372565b610cbb576040517f08c379a0000000000000000000000000000000000000000000000000000000008152600401610cb290611b60565b60405180910390fd5b8060058190555050565b6060806002604051908082528060200260200182016040528015610cfd57816020015b6060815260200190600190039081610ce85790505b5090506040518060400160405280600c81526020017f64697362757273656d656e74000000000000000000000000000000000000000081525081600081518110610d4357fe5b60200260200101819052508281600181518110610d5c57fe5b602002602001018190525080915050919050565b610d78610a40565b610db7576040517f08c379a0000000000000000000000000000000000000000000000000000000008152600401610dae90611b20565b60405180910390fd5b610dc081610f47565b50565b600033905090565b60008073ffffffffffffffffffffffffffffffffffffffff168273ffffffffffffffffffffffffffffffffffffffff161415610e3c576040517f08c379a0000000000000000000000000000000000000000000000000000000008152600401610e3390611b40565b60405180910390fd5b8260000160008373ffffffffffffffffffffffffffffffffffffffff1673ffffffffffffffffffffffffffffffffffffffff16815260200190815260200160002060009054906101000a900460ff16905092915050565b610ea781600161107590919063ffffffff16565b8073ffffffffffffffffffffffffffffffffffffffff167fcd265ebaf09df2871cc7bd4133404a235ba12eff2041bb89d9c714a2621c7c7e60405160405180910390a250565b610f0181600161111c90919063ffffffff16565b8073ffffffffffffffffffffffffffffffffffffffff167f6719d08c1888103bea251a4ed56406bd0c3e69723c8a1686e017e7bbe159b6f860405160405180910390a250565b600073ffffffffffffffffffffffffffffffffffffffff168173ffffffffffffffffffffffffffffffffffffffff161415610fb7576040517f08c379a0000000000000000000000000000000000000000000000000000000008152600401610fae90611aa0565b60405180910390fd5b8073ffffffffffffffffffffffffffffffffffffffff166000809054906101000a900473ffffffffffffffffffffffffffffffffffffffff1673ffffffffffffffffffffffffffffffffffffffff167f8be0079c531659141344cd1fd0a4f28419497f9722a3daafe3b4186f6b6457e060405160405180910390a3806000806101000a81548173ffffffffffffffffffffffffffffffffffffffff021916908373ffffffffffffffffffffffffffffffffffffffff16021790555050565b61107f8282610dcb565b6110be576040517f08c379a00000000000000000000000000000000000000000000000000000000081526004016110b590611b00565b60405180910390fd5b60008260000160008373ffffffffffffffffffffffffffffffffffffffff1673ffffffffffffffffffffffffffffffffffffffff16815260200190815260200160002060006101000a81548160ff0219169083151502179055505050565b6111268282610dcb565b15611166576040517f08c379a000000000000000000000000000000000000000000000000000000000815260040161115d90611a60565b60405180910390fd5b60018260000160008373ffffffffffffffffffffffffffffffffffffffff1673ffffffffffffffffffffffffffffffffffffffff16815260200190815260200160002060006101000a81548160ff0219169083151502179055505050565b6000813590506111d381611e42565b92915050565b600082601f8301126111ea57600080fd5b81356111fd6111f882611c21565b611bf4565b9150818183526020840193506020810190508360005b8381101561124357813586016112298882611277565b845260208401935060208301925050600181019050611213565b5050505092915050565b60008151905061125c81611e59565b92915050565b60008135905061127181611e70565b92915050565b600082601f83011261128857600080fd5b813561129b61129682611c49565b611bf4565b915080825260208301602083018583830111156112b757600080fd5b6112c2838284611def565b50505092915050565b600082601f8301126112dc57600080fd5b81356112ef6112ea82611c75565b611bf4565b9150808252602083016020830185838301111561130b57600080fd5b611316838284611def565b50505092915050565b60008135905061132e81611e87565b92915050565b60008151905061134381611e87565b92915050565b60006020828403121561135b57600080fd5b6000611369848285016111c4565b91505092915050565b60006020828403121561138457600080fd5b60006113928482850161124d565b91505092915050565b6000602082840312156113ad57600080fd5b600082013567ffffffffffffffff8111156113c757600080fd5b6113d3848285016112cb565b91505092915050565b6000602082840312156113ee57600080fd5b60006113fc8482850161131f565b91505092915050565b60006020828403121561141757600080fd5b600061142584828501611334565b91505092915050565b60008060008060008060c0878903121561144757600080fd5b600061145589828a0161131f565b965050602061146689828a01611262565b955050604061147789828a0161131f565b945050606061148889828a01611262565b935050608061149989828a0161131f565b92505060a087013567ffffffffffffffff8111156114b657600080fd5b6114c289828a016111d9565b9150509295509295509295565b60006114db83836115dc565b905092915050565b6114ec81611d71565b82525050565b6114fb81611d12565b82525050565b600061150c82611cb1565b6115168185611cdf565b93508360208202850161152885611ca1565b8060005b85811015611564578484038952815161154585826114cf565b945061155083611cd2565b925060208a0199505060018101905061152c565b50829750879550505050505092915050565b61157f81611d24565b82525050565b61158e81611d83565b82525050565b61159d81611da7565b82525050565b60006115ae82611cc7565b6115b88185611d01565b93506115c8818560208601611dfe565b6115d181611e31565b840191505092915050565b60006115e782611cbc565b6115f18185611cf0565b9350611601818560208601611dfe565b61160a81611e31565b840191505092915050565b6000611622601483611d01565b91507f5061757361626c653a206e6f74207061757365640000000000000000000000006000830152602082019050919050565b6000611662601f83611d01565b91507f526f6c65733a206163636f756e7420616c72656164792068617320726f6c65006000830152602082019050919050565b60006116a2603083611d01565b91507f506175736572526f6c653a2063616c6c657220646f6573206e6f74206861766560008301527f207468652050617573657220726f6c65000000000000000000000000000000006020830152604082019050919050565b6000611708602683611d01565b91507f4f776e61626c653a206e6577206f776e657220697320746865207a65726f206160008301527f64647265737300000000000000000000000000000000000000000000000000006020830152604082019050919050565b600061176e601083611d01565b91507f5061757361626c653a20706175736564000000000000000000000000000000006000830152602082019050919050565b60006117ae603483611d01565b91507f496420646f20526573706f6e7369626c6520666f7220536574746c656d656e7460008301527f206ec3a36f20657374c3a12076616c696461646f0000000000000000000000006020830152604082019050919050565b6000611814602183611d01565b91507f526f6c65733a206163636f756e7420646f6573206e6f74206861766520726f6c60008301527f65000000000000000000000000000000000000000000000000000000000000006020830152604082019050919050565b600061187a602083611d01565b91507f4f776e61626c653a2063616c6c6572206973206e6f7420746865206f776e65726000830152602082019050919050565b60006118ba602283611d01565b91507f526f6c65733a206163636f756e7420697320746865207a65726f20616464726560008301527f73730000000000000000000000000000000000000000000000000000000000006020830152604082019050919050565b6000611920603683611d01565b91507f496420646f20526573706f6e7369626c6520666f722044697362757273656d6560008301527f6e74206ec3a36f20657374c3a12076616c696461646f000000000000000000006020830152604082019050919050565b61198281611d5a565b82525050565b61199181611d64565b82525050565b60006020820190506119ac60008301846114f2565b92915050565b60006020820190506119c760008301846114e3565b92915050565b600060208201905081810360008301526119e78184611501565b905092915050565b6000602082019050611a046000830184611576565b92915050565b6000602082019050611a1f6000830184611585565b92915050565b6000602082019050611a3a6000830184611594565b92915050565b60006020820190508181036000830152611a5981611615565b9050919050565b60006020820190508181036000830152611a7981611655565b9050919050565b60006020820190508181036000830152611a9981611695565b9050919050565b60006020820190508181036000830152611ab9816116fb565b9050919050565b60006020820190508181036000830152611ad981611761565b9050919050565b60006020820190508181036000830152611af9816117a1565b9050919050565b60006020820190508181036000830152611b1981611807565b9050919050565b60006020820190508181036000830152611b398161186d565b9050919050565b60006020820190508181036000830152611b59816118ad565b9050919050565b60006020820190508181036000830152611b7981611913565b9050919050565b6000602082019050611b956000830184611979565b92915050565b6000606082019050611bb06000830186611979565b8181036020830152611bc281856115a3565b9050611bd16040830184611979565b949350505050565b6000602082019050611bee6000830184611988565b92915050565b6000604051905081810181811067ffffffffffffffff82111715611c1757600080fd5b8060405250919050565b600067ffffffffffffffff821115611c3857600080fd5b602082029050602081019050919050565b600067ffffffffffffffff821115611c6057600080fd5b601f19601f8301169050602081019050919050565b600067ffffffffffffffff821115611c8c57600080fd5b601f19601f8301169050602081019050919050565b6000819050602082019050919050565b600081519050919050565b600081519050919050565b600081519050919050565b6000602082019050919050565b600082825260208201905092915050565b600082825260208201905092915050565b600082825260208201905092915050565b6000611d1d82611d3a565b9050919050565b60008115159050919050565b6000819050919050565b600073ffffffffffffffffffffffffffffffffffffffff82169050919050565b6000819050919050565b600060ff82169050919050565b6000611d7c82611dcb565b9050919050565b6000611d8e82611d95565b9050919050565b6000611da082611d3a565b9050919050565b6000611db282611db9565b9050919050565b6000611dc482611d3a565b9050919050565b6000611dd682611ddd565b9050919050565b6000611de882611d3a565b9050919050565b82818337600083830152505050565b60005b83811015611e1c578082015181840152602081019050611e01565b83811115611e2b576000848401525b50505050565b6000601f19601f8301169050919050565b611e4b81611d12565b8114611e5657600080fd5b50565b611e6281611d24565b8114611e6d57600080fd5b50565b611e7981611d30565b8114611e8457600080fd5b50565b611e9081611d5a565b8114611e9b57600080fd5b5056fea365627a7a723158200cae1daf72e6c884418e526b43215652e563e4ef388b53549efd6eb59f6b3fa36c6578706572696d656e74616cf564736f6c63430005100040",
  "source": "pragma solidity ^0.5.0;\npragma experimental ABIEncoderV2;\n\n\nimport \"./RBBLib.sol\";\nimport \"./RBBRegistry.sol\";\nimport \"./RBBToken.sol\";\nimport \"./SpecificRBBToken.sol\";\nimport \"@openzeppelin/contracts/ownership/Ownable.sol\";\nimport \"@openzeppelin/contracts/lifecycle/Pausable.sol\";\n\n\n// Pode ter cliente no hash xyz, fornecedor no hash abc\n// clientes no hash xyz so aqueles que bndes informou (set cliente no hash total)\n/*\nRegras especficas\n- Toda vez que o BNDES faz um desembolso, o destinatrio ser associado como CLIENTE para um idFinancialSupportAgreement especfico (se ainda no estiver associado).\n- Somente clientes fazem pagamentos. Toda vez que um CLIENTE de um idFinancialSupportAgreement especfico paga um fornecedor, o destinatrio ser associado como FORNECEDOR (se ainda no estiver associado). \n- Somente FORNECEDORES podem solicitar o resgate.\n\nTodas as operaes j supem que a entidade de origem e destino esto cadastradas e validadas, pois isso  garantido pelo contrato genrico (RBB_Token)\nContrato no contempla o requisito adicional de o cliente poder resgatar uma parte do valor.\nAvaliar a ideia de o fornecedor poder sacar mais de um saldo ao mesmo tempo.\n*/\n\ncontract FABndesToken is SpecificRBBToken {\n\n    // o id, nao tem como especializar dentro do BNDES. Diferena no front-end\n    uint public responsibleForSettlement;\n    uint public responsibleForDisbursement;\n\n    uint8 public RESERVED_SUPPLIER_ID_FINANCIAL_SUPPORT_AGREEMENT = 0;\n\n\n    //ATENCAO: troquei cnpj por id no argumento do evento e tirei arg de contrato no resgate - impacto no BNDESTransparente\n    event DisbursementVerified  (uint idClient, string idFinancialSupportAgreement, uint amount);\n//    event TokenTransfer (uint fromCnpj, uint fromIdFinancialSupportAgreement, uint toCnpj, uint amount);\n//    event RedemptionRequested (uint idClaimer, uint amount);\n//    event RedemptionSettlement(string redemptionTransactionHash, string receiptHash);\n\n//deveria nao receber (newRegistryAddr, newrbbTokenAddr) e serem setados no registro?\n//O BNDES poderah verificar que o registry e token nao podem ser alterados.\n    constructor (address newRegistryAddr, address newrbbTokenAddr, \n                uint responsibleForDisbursementArg, uint responsibleForSettlementArg)\n                SpecificRBBToken (newRegistryAddr, newrbbTokenAddr)\n                public {\n\n        setResponsibleForDisbursement(responsibleForDisbursementArg);\n        setResponsibleForSettlement(responsibleForSettlementArg);\n    }\n\n    function getDisbusementData (string memory idFinancialSupportAgreement) public returns (string[] memory) {\n        \n        string[] memory data = new string[](2);\n        data[0] = \"disbursement\";\n        data[1] = idFinancialSupportAgreement;\n        return data;\n    }\n\n    function verifyAndActForTransfer(uint fromId, bytes32 fromHash, uint toId, bytes32 toHash, \n            uint amount, string[] memory data) public whenNotPaused {\n\n\n//TODO: fazer ifs com o data[0]\n\n        uint clientId = fromId;\n        string memory idFinancialSupportAgreement = data[1];\n\n        //incluir regras especificas de validacao de cliente e do contrato aqui\n        \n        //TODO:origem eh bndes e destino e cliente em hash cadastrado\n        \n        //****** * /\n\n        emit DisbursementVerified (clientId, idFinancialSupportAgreement, amount);\n\n    }\n\n\n/*\n    function paySupplier (uint idFinancialSupportAgreement, uint amount, uint supplierId) whenNotPaused public {\n        \n        uint clientId = registry.getId(msg.sender);\n\n        //incluir regras especificas de pagamento aqui\n\n        require(clientId != supplierId,\n            \"Um CNPJ no pode transferir token para si, ainda que em papis distintos (Cliente/Fornecedor)\");\n\n        //TODO:verificar se o sender eh mesmo um cliente e destino nao eh bndes, hash do destino eh zero\n\n        //****** * /\n\n        bytes32 hashFrom = keccak256(abi.encodePacked(idFinancialSupportAgreement));\n        bytes32 hashTo = keccak256(abi.encodePacked(RESERVED_SUPPLIER_ID_FINANCIAL_SUPPORT_AGREEMENT));\n        rbbToken.transfer(clientId, hashFrom, supplierId, hashTo, amount);\n\n\n        emit TokenTransfer (clientId, idFinancialSupportAgreement, supplierId, amount);\n    }\n\n    function redeem(uint amount) whenNotPaused public {\n        \n        uint supplierId = registry.getId(msg.sender);\n\n        //incluir regras especificas de resgate aqui\n        //****** * /\n        \n        bytes32 hashFrom = keccak256(abi.encodePacked(RESERVED_SUPPLIER_ID_FINANCIAL_SUPPORT_AGREEMENT));\n        rbbToken.deallocate(supplierId, hashFrom, amount);\n\n        //TODO:verificar se o sender hash eh zero e destino BNDES\n\n\n        //TODO: chama metodo para pagamento FIAT (mock?)\n        //linkar com burn\n        //****** * /\n\n        emit RedemptionRequested (supplierId, amount);\n\n    }\n\n\n//settlement deveria estar aqui mesmo? responsvel pelo settlement ser sempre o BNDES? Lembrar caso ANCINE\n   /**\n    * Using this function, the Responsible for Settlement indicates that he has made the FIAT money transfer.\n    * @param redemptionTransactionHash hash of the redeem transaction in which the FIAT money settlement occurred.\n    * @param receiptHash hash that proof the FIAT money transfer\n    * / \n    function notifyRedemptionSettlement(string memory redemptionTransactionHash, string memory receiptHash)\n        public whenNotPaused onlyResponsibleForSettlement {\n\n        require (RBBLib.isValidHash(receiptHash), \"O hash do recibo  invlido\");\n        emit RedemptionSettlement(redemptionTransactionHash, receiptHash);\n    }\n    */\n\n//avaliar se deve passar pelo framework de mudanca (exceto construtor)\n    function setResponsibleForDisbursement(uint idResponsible) onlyOwner public {\n        require (registry.isValidatedId(idResponsible), \"Id do Responsible for Disbursement no est validado\");\n        responsibleForDisbursement = idResponsible;\n    }\n\n//avaliar se deve passar pelo framework de mudanca (exceto construtor)\n    function setResponsibleForSettlement(uint idResponsible) onlyOwner public {\n        require (registry.isValidatedId(idResponsible), \"Id do Responsible for Settlement no est validado\");\n        responsibleForSettlement = idResponsible;\n    }\n \n    function isResponsibleForDisbursement(address addr) public view returns (bool) {\n        return (registry.getId(addr) == responsibleForDisbursement);\n    }\n\n    function isResponsibleForSettlement(address addr) public view returns (bool) {\n        return (registry.getId(addr) == responsibleForSettlement);\n    }\n\n    modifier onlyResponsibleForDisbursement() {\n        require(isResponsibleForDisbursement(msg.sender), \"Apenas o responsvel pela liberao pode executar essa operao\");\n        _;\n    }\n\n    modifier onlyResponsibleForSettlement() {\n        require(isResponsibleForSettlement(msg.sender), \"Apenas o responsvel pela liquidao pode executar essa operao\");\n        _;\n    }\n   \n}",
  "sourcePath": "/Users/suzana.moreno/workspace/rbb-token/Back-Blockchain/contracts/FABndesToken.sol",
  "compiler": {
    "name": "solc",
    "version": "0.5.16+commit.9c3226ce.Emscripten.clang"
  },
  "schemaVersion": "3.0.23",
  "updatedAt": "2020-09-14T22:28:57.572Z",
  "devdoc": {
    "methods": {
      "isOwner()": {
        "details": "Returns true if the caller is the current owner."
      },
      "owner()": {
        "details": "Returns the address of the current owner."
      },
      "pause()": {
        "details": "Called by a pauser to pause, triggers stopped state."
      },
      "paused()": {
        "details": "Returns true if the contract is paused, and false otherwise."
      },
      "renounceOwnership()": {
        "details": "Leaves the contract without owner. It will not be possible to call `onlyOwner` functions anymore. Can only be called by the current owner.     * NOTE: Renouncing ownership will leave the contract without an owner, thereby removing any functionality that is only available to the owner."
      },
      "transferOwnership(address)": {
        "details": "Transfers ownership of the contract to a new account (`newOwner`). Can only be called by the current owner."
      },
      "unpause()": {
        "details": "Called by a pauser to unpause, returns to normal state."
      }
    }
  },
  "userdoc": {
    "methods": {}
  }
}