{
  "contractName": "FABndesToken",
  "abi": [
    {
      "inputs": [
        {
          "internalType": "address",
          "name": "newRegistryAddr",
          "type": "address"
        },
        {
          "internalType": "address",
          "name": "newrbbTokenAddr",
          "type": "address"
        },
        {
          "internalType": "uint256",
          "name": "responsibleForSettlementArg",
          "type": "uint256"
        }
      ],
      "payable": false,
      "stateMutability": "nonpayable",
      "type": "constructor"
    },
    {
      "anonymous": false,
      "inputs": [
        {
          "indexed": false,
          "internalType": "uint256",
          "name": "idClient",
          "type": "uint256"
        },
        {
          "indexed": false,
          "internalType": "string",
          "name": "idFinancialSupportAgreement",
          "type": "string"
        },
        {
          "indexed": false,
          "internalType": "uint256",
          "name": "amount",
          "type": "uint256"
        }
      ],
      "name": "Disbursement",
      "type": "event"
    },
    {
      "anonymous": false,
      "inputs": [
        {
          "indexed": true,
          "internalType": "address",
          "name": "previousOwner",
          "type": "address"
        },
        {
          "indexed": true,
          "internalType": "address",
          "name": "newOwner",
          "type": "address"
        }
      ],
      "name": "OwnershipTransferred",
      "type": "event"
    },
    {
      "anonymous": false,
      "inputs": [
        {
          "indexed": false,
          "internalType": "address",
          "name": "account",
          "type": "address"
        }
      ],
      "name": "Paused",
      "type": "event"
    },
    {
      "anonymous": false,
      "inputs": [
        {
          "indexed": true,
          "internalType": "address",
          "name": "account",
          "type": "address"
        }
      ],
      "name": "PauserAdded",
      "type": "event"
    },
    {
      "anonymous": false,
      "inputs": [
        {
          "indexed": true,
          "internalType": "address",
          "name": "account",
          "type": "address"
        }
      ],
      "name": "PauserRemoved",
      "type": "event"
    },
    {
      "anonymous": false,
      "inputs": [
        {
          "indexed": false,
          "internalType": "uint256",
          "name": "idClaimer",
          "type": "uint256"
        },
        {
          "indexed": false,
          "internalType": "uint256",
          "name": "amount",
          "type": "uint256"
        }
      ],
      "name": "RedemptionRequested",
      "type": "event"
    },
    {
      "anonymous": false,
      "inputs": [
        {
          "indexed": false,
          "internalType": "uint256",
          "name": "fromCnpj",
          "type": "uint256"
        },
        {
          "indexed": false,
          "internalType": "string",
          "name": "fromIdFinancialSupportAgreement",
          "type": "string"
        },
        {
          "indexed": false,
          "internalType": "uint256",
          "name": "toCnpj",
          "type": "uint256"
        },
        {
          "indexed": false,
          "internalType": "uint256",
          "name": "amount",
          "type": "uint256"
        }
      ],
      "name": "TokenTransfer",
      "type": "event"
    },
    {
      "anonymous": false,
      "inputs": [
        {
          "indexed": false,
          "internalType": "address",
          "name": "account",
          "type": "address"
        }
      ],
      "name": "Unpaused",
      "type": "event"
    },
    {
      "constant": true,
      "inputs": [],
      "name": "DISBURSEMENT_VERIFICATION",
      "outputs": [
        {
          "internalType": "string",
          "name": "",
          "type": "string"
        }
      ],
      "payable": false,
      "stateMutability": "view",
      "type": "function"
    },
    {
      "constant": true,
      "inputs": [],
      "name": "PAY_SUPPLIER_VERIFICATION",
      "outputs": [
        {
          "internalType": "string",
          "name": "",
          "type": "string"
        }
      ],
      "payable": false,
      "stateMutability": "view",
      "type": "function"
    },
    {
      "constant": true,
      "inputs": [],
      "name": "RESERVED_NO_ADDITIONAL_FIELD_TO_HASH",
      "outputs": [
        {
          "internalType": "uint8",
          "name": "",
          "type": "uint8"
        }
      ],
      "payable": false,
      "stateMutability": "view",
      "type": "function"
    },
    {
      "constant": false,
      "inputs": [
        {
          "internalType": "address",
          "name": "account",
          "type": "address"
        }
      ],
      "name": "addPauser",
      "outputs": [],
      "payable": false,
      "stateMutability": "nonpayable",
      "type": "function"
    },
    {
      "constant": true,
      "inputs": [
        {
          "internalType": "uint256",
          "name": "",
          "type": "uint256"
        },
        {
          "internalType": "string",
          "name": "",
          "type": "string"
        }
      ],
      "name": "clients",
      "outputs": [
        {
          "internalType": "bool",
          "name": "",
          "type": "bool"
        }
      ],
      "payable": false,
      "stateMutability": "view",
      "type": "function"
    },
    {
      "constant": true,
      "inputs": [],
      "name": "isOwner",
      "outputs": [
        {
          "internalType": "bool",
          "name": "",
          "type": "bool"
        }
      ],
      "payable": false,
      "stateMutability": "view",
      "type": "function"
    },
    {
      "constant": true,
      "inputs": [
        {
          "internalType": "address",
          "name": "account",
          "type": "address"
        }
      ],
      "name": "isPauser",
      "outputs": [
        {
          "internalType": "bool",
          "name": "",
          "type": "bool"
        }
      ],
      "payable": false,
      "stateMutability": "view",
      "type": "function"
    },
    {
      "constant": true,
      "inputs": [],
      "name": "owner",
      "outputs": [
        {
          "internalType": "address",
          "name": "",
          "type": "address"
        }
      ],
      "payable": false,
      "stateMutability": "view",
      "type": "function"
    },
    {
      "constant": false,
      "inputs": [],
      "name": "pause",
      "outputs": [],
      "payable": false,
      "stateMutability": "nonpayable",
      "type": "function"
    },
    {
      "constant": true,
      "inputs": [],
      "name": "paused",
      "outputs": [
        {
          "internalType": "bool",
          "name": "",
          "type": "bool"
        }
      ],
      "payable": false,
      "stateMutability": "view",
      "type": "function"
    },
    {
      "constant": true,
      "inputs": [],
      "name": "rbbToken",
      "outputs": [
        {
          "internalType": "contract RBBToken",
          "name": "",
          "type": "address"
        }
      ],
      "payable": false,
      "stateMutability": "view",
      "type": "function"
    },
    {
      "constant": true,
      "inputs": [],
      "name": "registry",
      "outputs": [
        {
          "internalType": "contract RBBRegistry",
          "name": "",
          "type": "address"
        }
      ],
      "payable": false,
      "stateMutability": "view",
      "type": "function"
    },
    {
      "constant": false,
      "inputs": [],
      "name": "renounceOwnership",
      "outputs": [],
      "payable": false,
      "stateMutability": "nonpayable",
      "type": "function"
    },
    {
      "constant": false,
      "inputs": [],
      "name": "renouncePauser",
      "outputs": [],
      "payable": false,
      "stateMutability": "nonpayable",
      "type": "function"
    },
    {
      "constant": true,
      "inputs": [],
      "name": "responsibleForSettlement",
      "outputs": [
        {
          "internalType": "uint256",
          "name": "",
          "type": "uint256"
        }
      ],
      "payable": false,
      "stateMutability": "view",
      "type": "function"
    },
    {
      "constant": false,
      "inputs": [
        {
          "internalType": "address",
          "name": "newOwner",
          "type": "address"
        }
      ],
      "name": "transferOwnership",
      "outputs": [],
      "payable": false,
      "stateMutability": "nonpayable",
      "type": "function"
    },
    {
      "constant": false,
      "inputs": [],
      "name": "unpause",
      "outputs": [],
      "payable": false,
      "stateMutability": "nonpayable",
      "type": "function"
    },
    {
      "constant": false,
      "inputs": [
        {
          "internalType": "string",
          "name": "idFinancialSupportAgreement",
          "type": "string"
        }
      ],
      "name": "getDisbusementData",
      "outputs": [
        {
          "internalType": "bytes32",
          "name": "",
          "type": "bytes32"
        },
        {
          "internalType": "bytes32",
          "name": "",
          "type": "bytes32"
        },
        {
          "internalType": "string[]",
          "name": "",
          "type": "string[]"
        }
      ],
      "payable": false,
      "stateMutability": "nonpayable",
      "type": "function"
    },
    {
      "constant": false,
      "inputs": [
        {
          "internalType": "string",
          "name": "idFinancialSupportAgreement",
          "type": "string"
        }
      ],
      "name": "getPaySupplierData",
      "outputs": [
        {
          "internalType": "bytes32",
          "name": "",
          "type": "bytes32"
        },
        {
          "internalType": "bytes32",
          "name": "",
          "type": "bytes32"
        },
        {
          "internalType": "string[]",
          "name": "",
          "type": "string[]"
        }
      ],
      "payable": false,
      "stateMutability": "nonpayable",
      "type": "function"
    },
    {
      "constant": false,
      "inputs": [],
      "name": "getRedeemData",
      "outputs": [
        {
          "internalType": "bytes32",
          "name": "",
          "type": "bytes32"
        },
        {
          "internalType": "string[]",
          "name": "",
          "type": "string[]"
        }
      ],
      "payable": false,
      "stateMutability": "nonpayable",
      "type": "function"
    },
    {
      "constant": false,
      "inputs": [
        {
          "internalType": "uint256",
          "name": "fromId",
          "type": "uint256"
        },
        {
          "internalType": "bytes32",
          "name": "fromHash",
          "type": "bytes32"
        },
        {
          "internalType": "uint256",
          "name": "toId",
          "type": "uint256"
        },
        {
          "internalType": "bytes32",
          "name": "toHash",
          "type": "bytes32"
        },
        {
          "internalType": "uint256",
          "name": "amount",
          "type": "uint256"
        },
        {
          "internalType": "string[]",
          "name": "data",
          "type": "string[]"
        }
      ],
      "name": "verifyAndActForTransfer",
      "outputs": [],
      "payable": false,
      "stateMutability": "nonpayable",
      "type": "function"
    },
    {
      "constant": false,
      "inputs": [
        {
          "internalType": "uint256",
          "name": "fromId",
          "type": "uint256"
        },
        {
          "internalType": "bytes32",
          "name": "fromHash",
          "type": "bytes32"
        },
        {
          "internalType": "uint256",
          "name": "toId",
          "type": "uint256"
        },
        {
          "internalType": "bytes32",
          "name": "toHash",
          "type": "bytes32"
        },
        {
          "internalType": "uint256",
          "name": "amount",
          "type": "uint256"
        },
        {
          "internalType": "string[]",
          "name": "data",
          "type": "string[]"
        }
      ],
      "name": "verifyAndActForTransfer_DISBURSEMENT",
      "outputs": [],
      "payable": false,
      "stateMutability": "nonpayable",
      "type": "function"
    },
    {
      "constant": false,
      "inputs": [
        {
          "internalType": "uint256",
          "name": "fromId",
          "type": "uint256"
        },
        {
          "internalType": "bytes32",
          "name": "fromHash",
          "type": "bytes32"
        },
        {
          "internalType": "uint256",
          "name": "toId",
          "type": "uint256"
        },
        {
          "internalType": "bytes32",
          "name": "toHash",
          "type": "bytes32"
        },
        {
          "internalType": "uint256",
          "name": "amount",
          "type": "uint256"
        },
        {
          "internalType": "string[]",
          "name": "data",
          "type": "string[]"
        }
      ],
      "name": "verifyAndActForTransfer_PAY_SUPPLIER",
      "outputs": [],
      "payable": false,
      "stateMutability": "nonpayable",
      "type": "function"
    },
    {
      "constant": false,
      "inputs": [
        {
          "internalType": "uint256",
          "name": "fromId",
          "type": "uint256"
        },
        {
          "internalType": "bytes32",
          "name": "fromHash",
          "type": "bytes32"
        },
        {
          "internalType": "uint256",
          "name": "amount",
          "type": "uint256"
        },
        {
          "internalType": "string[]",
          "name": "data",
          "type": "string[]"
        }
      ],
      "name": "verifyAndActForRedeem",
      "outputs": [],
      "payable": false,
      "stateMutability": "nonpayable",
      "type": "function"
    },
    {
      "constant": false,
      "inputs": [
        {
          "internalType": "uint256",
          "name": "idResponsible",
          "type": "uint256"
        }
      ],
      "name": "setResponsibleForSettlement",
      "outputs": [],
      "payable": false,
      "stateMutability": "nonpayable",
      "type": "function"
    },
    {
      "constant": true,
      "inputs": [
        {
          "internalType": "address",
          "name": "addr",
          "type": "address"
        }
      ],
      "name": "isResponsibleForSettlement",
      "outputs": [
        {
          "internalType": "bool",
          "name": "",
          "type": "bool"
        }
      ],
      "payable": false,
      "stateMutability": "view",
      "type": "function"
    }
  ],
  "bytecode": "0x60806040526040518060400160405280601981526020017f44495342555253454d454e545f564552494649434154494f4e00000000000000815250600790805190602001906200005192919062000616565b506040518060400160405280601981526020017f5041595f535550504c4945525f564552494649434154494f4e00000000000000815250600890805190602001906200009f92919062000616565b506000600960006101000a81548160ff021916908360ff160217905550348015620000c957600080fd5b5060405162003dc438038062003dc48339818101604052620000ef91908101906200070a565b82826000620001036200027a60201b60201c565b9050806000806101000a81548173ffffffffffffffffffffffffffffffffffffffff021916908373ffffffffffffffffffffffffffffffffffffffff1602179055508073ffffffffffffffffffffffffffffffffffffffff16600073ffffffffffffffffffffffffffffffffffffffff167f8be0079c531659141344cd1fd0a4f28419497f9722a3daafe3b4186f6b6457e060405160405180910390a350620001c1620001b56200027a60201b60201c565b6200028260201b60201c565b6000600260006101000a81548160ff02191690831515021790555081600260016101000a81548173ffffffffffffffffffffffffffffffffffffffff021916908373ffffffffffffffffffffffffffffffffffffffff16021790555080600360006101000a81548173ffffffffffffffffffffffffffffffffffffffff021916908373ffffffffffffffffffffffffffffffffffffffff16021790555050506200027181620002e360201b60201c565b50505062000a3f565b600033905090565b6200029d8160016200043260201b62001d4b1790919060201c565b8073ffffffffffffffffffffffffffffffffffffffff167f6719d08c1888103bea251a4ed56406bd0c3e69723c8a1686e017e7bbe159b6f860405160405180910390a250565b620002f3620004e560201b60201c565b62000335576040517f08c379a00000000000000000000000000000000000000000000000000000000081526004016200032c9062000935565b60405180910390fd5b600260019054906101000a900473ffffffffffffffffffffffffffffffffffffffff1673ffffffffffffffffffffffffffffffffffffffff1663613a7896826040518263ffffffff1660e01b815260040162000392919062000979565b60206040518083038186803b158015620003ab57600080fd5b505afa158015620003c0573d6000803e3d6000fd5b505050506040513d601f19601f82011682018060405250620003e6919081019062000760565b62000428576040517f08c379a00000000000000000000000000000000000000000000000000000000081526004016200041f9062000913565b60405180910390fd5b8060048190555050565b6200044482826200054b60201b60201c565b1562000487576040517f08c379a00000000000000000000000000000000000000000000000000000000081526004016200047e90620008f1565b60405180910390fd5b60018260000160008373ffffffffffffffffffffffffffffffffffffffff1673ffffffffffffffffffffffffffffffffffffffff16815260200190815260200160002060006101000a81548160ff0219169083151502179055505050565b60008060009054906101000a900473ffffffffffffffffffffffffffffffffffffffff1673ffffffffffffffffffffffffffffffffffffffff166200052f6200027a60201b60201c565b73ffffffffffffffffffffffffffffffffffffffff1614905090565b60008073ffffffffffffffffffffffffffffffffffffffff168273ffffffffffffffffffffffffffffffffffffffff161415620005bf576040517f08c379a0000000000000000000000000000000000000000000000000000000008152600401620005b69062000957565b60405180910390fd5b8260000160008373ffffffffffffffffffffffffffffffffffffffff1673ffffffffffffffffffffffffffffffffffffffff16815260200190815260200160002060009054906101000a900460ff16905092915050565b828054600181600116156101000203166002900490600052602060002090601f016020900481019282601f106200065957805160ff19168380011785556200068a565b828001600101855582156200068a579182015b82811115620006895782518255916020019190600101906200066c565b5b5090506200069991906200069d565b5090565b620006c291905b80821115620006be576000816000905550600101620006a4565b5090565b90565b600081519050620006d681620009f1565b92915050565b600081519050620006ed8162000a0b565b92915050565b600081519050620007048162000a25565b92915050565b6000806000606084860312156200072057600080fd5b60006200073086828701620006c5565b93505060206200074386828701620006c5565b92505060406200075686828701620006f3565b9150509250925092565b6000602082840312156200077357600080fd5b60006200078384828501620006dc565b91505092915050565b60006200079b601f8362000996565b91507f526f6c65733a206163636f756e7420616c72656164792068617320726f6c65006000830152602082019050919050565b6000620007dd60348362000996565b91507f496420646f20526573706f6e7369626c6520666f7220536574746c656d656e7460008301527f206ec3a36f20657374c3a12076616c696461646f0000000000000000000000006020830152604082019050919050565b60006200084560208362000996565b91507f4f776e61626c653a2063616c6c6572206973206e6f7420746865206f776e65726000830152602082019050919050565b60006200088760228362000996565b91507f526f6c65733a206163636f756e7420697320746865207a65726f20616464726560008301527f73730000000000000000000000000000000000000000000000000000000000006020830152604082019050919050565b620008eb81620009e7565b82525050565b600060208201905081810360008301526200090c816200078c565b9050919050565b600060208201905081810360008301526200092e81620007ce565b9050919050565b60006020820190508181036000830152620009508162000836565b9050919050565b60006020820190508181036000830152620009728162000878565b9050919050565b6000602082019050620009906000830184620008e0565b92915050565b600082825260208201905092915050565b6000620009b482620009c7565b9050919050565b60008115159050919050565b600073ffffffffffffffffffffffffffffffffffffffff82169050919050565b6000819050919050565b620009fc81620009a7565b811462000a0857600080fd5b50565b62000a1681620009bb565b811462000a2257600080fd5b50565b62000a3081620009e7565b811462000a3c57600080fd5b50565b6133758062000a4f6000396000f3fe608060405234801561001057600080fd5b506004361061018e5760003560e01c80638da5cb5b116100de578063c844488011610097578063daeb1cc911610071578063daeb1cc914610404578063e4c7426f14610434578063ee33b0bc14610452578063f2fde38b146104845761018e565b8063c84448801461039a578063c92f4eb0146103cc578063d77e9405146103e85761018e565b80638da5cb5b146102e75780638e1b808a146103055780638e669481146103245780638f32d59b14610342578063a5ed0edd14610360578063c596acc71461037e5761018e565b80635c975abb1161014b5780637b103999116101255780637b1039991461027357806382dc1ec4146102915780638456cb59146102ad57806385fecf9b146102b75761018e565b80635c975abb146102415780636ef8d66d1461025f578063715018a6146102695761018e565b80631a9ceb011461019357806320399741146101af57806321453800146101cd5780633f4ba83a146101eb57806346fbf68e146101f55780634db4550714610225575b600080fd5b6101ad60048036036101a8919081019061200b565b6104a0565b005b6101b76105db565b6040516101c49190612cb6565b60405180910390f35b6101d5610679565b6040516101e29190612f4f565b60405180910390f35b6101f361067f565b005b61020f600480360361020a9190810190611f78565b610778565b60405161021c9190612bf7565b60405180910390f35b61023f600480360361023a91908101906120d8565b610795565b005b610249610a34565b6040516102569190612bf7565b60405180910390f35b610267610a4b565b005b610271610a5d565b005b61027b610b63565b6040516102889190612c80565b60405180910390f35b6102ab60048036036102a69190810190611f78565b610b89565b005b6102b5610be4565b005b6102d160048036036102cc9190810190611f78565b610cde565b6040516102de9190612bf7565b60405180910390f35b6102ef610d96565b6040516102fc9190612bc1565b60405180910390f35b61030d610dbf565b60405161031b929190612c12565b60405180910390f35b61032c610e43565b6040516103399190612cb6565b60405180910390f35b61034a610ee1565b6040516103579190612bf7565b60405180910390f35b610368610f3f565b604051610375919061301d565b60405180910390f35b610398600480360361039391908101906120d8565b610f52565b005b6103b460048036036103af9190810190611fca565b61118e565b6040516103c393929190612c42565b60405180910390f35b6103e660048036036103e1919081019061205d565b611311565b005b61040260048036036103fd91908101906120d8565b6114ba565b005b61041e60048036036104199190810190612179565b6117b1565b60405161042b9190612bf7565b60405180910390f35b61043c6117f6565b6040516104499190612c9b565b60405180910390f35b61046c60048036036104679190810190611fca565b61181c565b60405161047b93929190612c42565b60405180910390f35b61049e60048036036104999190810190611f78565b61199f565b005b6104a8610ee1565b6104e7576040517f08c379a00000000000000000000000000000000000000000000000000000000081526004016104de90612eaf565b60405180910390fd5b600260019054906101000a900473ffffffffffffffffffffffffffffffffffffffff1673ffffffffffffffffffffffffffffffffffffffff1663613a7896826040518263ffffffff1660e01b81526004016105429190612f4f565b60206040518083038186803b15801561055a57600080fd5b505afa15801561056e573d6000803e3d6000fd5b505050506040513d601f19601f820116820180604052506105929190810190611fa1565b6105d1576040517f08c379a00000000000000000000000000000000000000000000000000000000081526004016105c890612e6f565b60405180910390fd5b8060048190555050565b60088054600181600116156101000203166002900480601f0160208091040260200160405190810160405280929190818152602001828054600181600116156101000203166002900480156106715780601f1061064657610100808354040283529160200191610671565b820191906000526020600020905b81548152906001019060200180831161065457829003601f168201915b505050505081565b60045481565b61068f61068a6119f2565b610778565b6106ce576040517f08c379a00000000000000000000000000000000000000000000000000000000081526004016106c590612d4f565b60405180910390fd5b600260009054906101000a900460ff1661071d576040517f08c379a000000000000000000000000000000000000000000000000000000000815260040161071490612d0f565b60405180910390fd5b6000600260006101000a81548160ff0219169083151502179055507f5db9ee0a495bf2e6ff9c91a7834c1ba4fdd244a5e8aa4e537bd38aeae4b073aa6107616119f2565b60405161076e9190612bdc565b60405180910390a1565b600061078e8260016119fa90919063ffffffff16565b9050919050565b600260009054906101000a900460ff16156107e5576040517f08c379a00000000000000000000000000000000000000000000000000000000081526004016107dc90612e4f565b60405180910390fd5b6060816001815181106107f457fe5b60200260200101519050600560008881526020019081526020016000208160405161081f9190612b8f565b908152602001604051809103902060009054906101000a900460ff1661087a576040517f08c379a000000000000000000000000000000000000000000000000000000000815260040161087190612d6f565b60405180910390fd5b858160405160200161088c9190612b8f565b60405160208183030381529060405280519060200120146108e2576040517f08c379a00000000000000000000000000000000000000000000000000000000081526004016108d990612f2f565b60405180910390fd5b85600960009054906101000a900460ff166040516020016109039190612ba6565b6040516020818303038152906040528051906020012014610959576040517f08c379a000000000000000000000000000000000000000000000000000000000815260040161095090612e2f565b60405180910390fd5b8487141561099c576040517f08c379a000000000000000000000000000000000000000000000000000000000815260040161099390612daf565b60405180910390fd5b6006600086815260200190815260200160002060009054906101000a900460ff166109ee5760016006600087815260200190815260200160002060006101000a81548160ff0219169083151502179055505b7ff787be7796d73e0018161aa2f9ad4c69d2362991d2fe652c93df18fae11a2e9987828786604051610a239493929190612fa8565b60405180910390a150505050505050565b6000600260009054906101000a900460ff16905090565b610a5b610a566119f2565b611ac2565b565b610a65610ee1565b610aa4576040517f08c379a0000000000000000000000000000000000000000000000000000000008152600401610a9b90612eaf565b60405180910390fd5b600073ffffffffffffffffffffffffffffffffffffffff166000809054906101000a900473ffffffffffffffffffffffffffffffffffffffff1673ffffffffffffffffffffffffffffffffffffffff167f8be0079c531659141344cd1fd0a4f28419497f9722a3daafe3b4186f6b6457e060405160405180910390a360008060006101000a81548173ffffffffffffffffffffffffffffffffffffffff021916908373ffffffffffffffffffffffffffffffffffffffff160217905550565b600260019054906101000a900473ffffffffffffffffffffffffffffffffffffffff1681565b610b99610b946119f2565b610778565b610bd8576040517f08c379a0000000000000000000000000000000000000000000000000000000008152600401610bcf90612d4f565b60405180910390fd5b610be181611b1c565b50565b610bf4610bef6119f2565b610778565b610c33576040517f08c379a0000000000000000000000000000000000000000000000000000000008152600401610c2a90612d4f565b60405180910390fd5b600260009054906101000a900460ff1615610c83576040517f08c379a0000000000000000000000000000000000000000000000000000000008152600401610c7a90612e4f565b60405180910390fd5b6001600260006101000a81548160ff0219169083151502179055507f62e78cea01bee320cd4e420270b5ea74000d11b0c9f74754ebdbfc544b05a258610cc76119f2565b604051610cd49190612bdc565b60405180910390a1565b6000600454600260019054906101000a900473ffffffffffffffffffffffffffffffffffffffff1673ffffffffffffffffffffffffffffffffffffffff166365f68c89846040518263ffffffff1660e01b8152600401610d3e9190612bc1565b60206040518083038186803b158015610d5657600080fd5b505afa158015610d6a573d6000803e3d6000fd5b505050506040513d601f19601f82011682018060405250610d8e9190810190612034565b149050919050565b60008060009054906101000a900473ffffffffffffffffffffffffffffffffffffffff16905090565b600060606000600960009054906101000a900460ff16604051602001610de59190612ba6565b60405160208183030381529060405280519060200120905060606000604051908082528060200260200182016040528015610e3457816020015b6060815260200190600190039081610e1f5790505b50905081819350935050509091565b60078054600181600116156101000203166002900480601f016020809104026020016040519081016040528092919081815260200182805460018160011615610100020316600290048015610ed95780601f10610eae57610100808354040283529160200191610ed9565b820191906000526020600020905b815481529060010190602001808311610ebc57829003601f168201915b505050505081565b60008060009054906101000a900473ffffffffffffffffffffffffffffffffffffffff1673ffffffffffffffffffffffffffffffffffffffff16610f236119f2565b73ffffffffffffffffffffffffffffffffffffffff1614905090565b600960009054906101000a900460ff1681565b600260009054906101000a900460ff1615610fa2576040517f08c379a0000000000000000000000000000000000000000000000000000000008152600401610f9990612e4f565b60405180910390fd5b606081600081518110610fb157fe5b6020026020010151905060008311610ffe576040517f08c379a0000000000000000000000000000000000000000000000000000000008152600401610ff590612e0f565b60405180910390fd5b73__RBBLib________________________________63465c41056007836040518363ffffffff1660e01b8152600401611038929190612cd8565b60206040518083038186803b15801561105057600080fd5b505af4158015611064573d6000803e3d6000fd5b505050506040513d601f19601f820116820180604052506110889190810190611fa1565b156110a05761109b8787878787876114ba565b611185565b73__RBBLib________________________________63465c41056008836040518363ffffffff1660e01b81526004016110da929190612cd8565b60206040518083038186803b1580156110f257600080fd5b505af4158015611106573d6000803e3d6000fd5b505050506040513d601f19601f8201168201806040525061112a9190810190611fa1565b156111425761113d878787878787610795565b611184565b6000611183576040517f08c379a000000000000000000000000000000000000000000000000000000000815260040161117a90612eef565b60405180910390fd5b5b5b50505050505050565b60008060606000846040516020016111a69190612b8f565b6040516020818303038152906040528051906020012090506000600960009054906101000a900460ff166040516020016111e09190612ba6565b6040516020818303038152906040528051906020012090506060600260405190808252806020026020018201604052801561122f57816020015b606081526020019060019003908161121a5790505b50905060088054600181600116156101000203166002900480601f0160208091040260200160405190810160405280929190818152602001828054600181600116156101000203166002900480156112c85780601f1061129d576101008083540402835291602001916112c8565b820191906000526020600020905b8154815290600101906020018083116112ab57829003601f168201915b5050505050816000815181106112da57fe5b602002602001018190525086816001815181106112f357fe5b60200260200101819052508282829550955095505050509193909250565b600260009054906101000a900460ff1615611361576040517f08c379a000000000000000000000000000000000000000000000000000000000815260040161135890612e4f565b60405180910390fd5b600082116113a4576040517f08c379a000000000000000000000000000000000000000000000000000000000815260040161139b90612e0f565b60405180910390fd5b6006600085815260200190815260200160002060009054906101000a900460ff16611404576040517f08c379a00000000000000000000000000000000000000000000000000000000081526004016113fb90612def565b60405180910390fd5b82600960009054906101000a900460ff166040516020016114259190612ba6565b604051602081830303815290604052805190602001201461147b576040517f08c379a000000000000000000000000000000000000000000000000000000000815260040161147290612e2f565b60405180910390fd5b7fd5ba0459265c0cfa94aa9d715cc0b5c1305e25f72d371f73e627359065e83fdc84836040516114ac929190612ff4565b60405180910390a150505050565b600260009054906101000a900460ff161561150a576040517f08c379a000000000000000000000000000000000000000000000000000000000815260040161150190612e4f565b60405180910390fd5b60608160018151811061151957fe5b60200260200101519050600360009054906101000a900473ffffffffffffffffffffffffffffffffffffffff1673ffffffffffffffffffffffffffffffffffffffff16634a47f5996040518163ffffffff1660e01b815260040160206040518083038186803b15801561158b57600080fd5b505afa15801561159f573d6000803e3d6000fd5b505050506040513d601f19601f820116820180604052506115c39190810190612034565b8714611604576040517f08c379a00000000000000000000000000000000000000000000000000000000081526004016115fb90612f0f565b60405180910390fd5b85600960009054906101000a900460ff166040516020016116259190612ba6565b604051602081830303815290604052805190602001201461167b576040517f08c379a000000000000000000000000000000000000000000000000000000000815260040161167290612dcf565b60405180910390fd5b838160405160200161168d9190612b8f565b60405160208183030381529060405280519060200120146116e3576040517f08c379a00000000000000000000000000000000000000000000000000000000081526004016116da90612f2f565b60405180910390fd5b60056000868152602001908152602001600020816040516117049190612b8f565b908152602001604051809103902060009054906101000a900460ff1661176d57600160056000878152602001908152602001600020826040516117479190612b8f565b908152602001604051809103902060006101000a81548160ff0219169083151502179055505b7f4e5b2dc41fc606cfc5f97be884703bbd77acdc213259af9bbacd01b26f686e8b8582856040516117a093929190612f6a565b60405180910390a150505050505050565b6005602052816000526040600020818051602081018201805184825260208301602085012081835280955050505050506000915091509054906101000a900460ff1681565b600360009054906101000a900473ffffffffffffffffffffffffffffffffffffffff1681565b60008060606000600960009054906101000a900460ff166040516020016118439190612ba6565b60405160208183030381529060405280519060200120905060008560405160200161186e9190612b8f565b604051602081830303815290604052805190602001209050606060026040519080825280602002602001820160405280156118bd57816020015b60608152602001906001900390816118a85790505b50905060078054600181600116156101000203166002900480601f0160208091040260200160405190810160405280929190818152602001828054600181600116156101000203166002900480156119565780601f1061192b57610100808354040283529160200191611956565b820191906000526020600020905b81548152906001019060200180831161193957829003601f168201915b50505050508160008151811061196857fe5b6020026020010181905250868160018151811061198157fe5b60200260200101819052508282829550955095505050509193909250565b6119a7610ee1565b6119e6576040517f08c379a00000000000000000000000000000000000000000000000000000000081526004016119dd90612eaf565b60405180910390fd5b6119ef81611b76565b50565b600033905090565b60008073ffffffffffffffffffffffffffffffffffffffff168273ffffffffffffffffffffffffffffffffffffffff161415611a6b576040517f08c379a0000000000000000000000000000000000000000000000000000000008152600401611a6290612ecf565b60405180910390fd5b8260000160008373ffffffffffffffffffffffffffffffffffffffff1673ffffffffffffffffffffffffffffffffffffffff16815260200190815260200160002060009054906101000a900460ff16905092915050565b611ad6816001611ca490919063ffffffff16565b8073ffffffffffffffffffffffffffffffffffffffff167fcd265ebaf09df2871cc7bd4133404a235ba12eff2041bb89d9c714a2621c7c7e60405160405180910390a250565b611b30816001611d4b90919063ffffffff16565b8073ffffffffffffffffffffffffffffffffffffffff167f6719d08c1888103bea251a4ed56406bd0c3e69723c8a1686e017e7bbe159b6f860405160405180910390a250565b600073ffffffffffffffffffffffffffffffffffffffff168173ffffffffffffffffffffffffffffffffffffffff161415611be6576040517f08c379a0000000000000000000000000000000000000000000000000000000008152600401611bdd90612d8f565b60405180910390fd5b8073ffffffffffffffffffffffffffffffffffffffff166000809054906101000a900473ffffffffffffffffffffffffffffffffffffffff1673ffffffffffffffffffffffffffffffffffffffff167f8be0079c531659141344cd1fd0a4f28419497f9722a3daafe3b4186f6b6457e060405160405180910390a3806000806101000a81548173ffffffffffffffffffffffffffffffffffffffff021916908373ffffffffffffffffffffffffffffffffffffffff16021790555050565b611cae82826119fa565b611ced576040517f08c379a0000000000000000000000000000000000000000000000000000000008152600401611ce490612e8f565b60405180910390fd5b60008260000160008373ffffffffffffffffffffffffffffffffffffffff1673ffffffffffffffffffffffffffffffffffffffff16815260200190815260200160002060006101000a81548160ff0219169083151502179055505050565b611d5582826119fa565b15611d95576040517f08c379a0000000000000000000000000000000000000000000000000000000008152600401611d8c90612d2f565b60405180910390fd5b60018260000160008373ffffffffffffffffffffffffffffffffffffffff1673ffffffffffffffffffffffffffffffffffffffff16815260200190815260200160002060006101000a81548160ff0219169083151502179055505050565b600081359050611e02816132d6565b92915050565b600082601f830112611e1957600080fd5b8135611e2c611e2782613065565b613038565b9150818183526020840193506020810190508360005b83811015611e725781358601611e588882611ea6565b845260208401935060208301925050600181019050611e42565b5050505092915050565b600081519050611e8b816132ed565b92915050565b600081359050611ea081613304565b92915050565b600082601f830112611eb757600080fd5b8135611eca611ec58261308d565b613038565b91508082526020830160208301858383011115611ee657600080fd5b611ef1838284613264565b50505092915050565b600082601f830112611f0b57600080fd5b8135611f1e611f19826130b9565b613038565b91508082526020830160208301858383011115611f3a57600080fd5b611f45838284613264565b50505092915050565b600081359050611f5d8161331b565b92915050565b600081519050611f728161331b565b92915050565b600060208284031215611f8a57600080fd5b6000611f9884828501611df3565b91505092915050565b600060208284031215611fb357600080fd5b6000611fc184828501611e7c565b91505092915050565b600060208284031215611fdc57600080fd5b600082013567ffffffffffffffff811115611ff657600080fd5b61200284828501611efa565b91505092915050565b60006020828403121561201d57600080fd5b600061202b84828501611f4e565b91505092915050565b60006020828403121561204657600080fd5b600061205484828501611f63565b91505092915050565b6000806000806080858703121561207357600080fd5b600061208187828801611f4e565b945050602061209287828801611e91565b93505060406120a387828801611f4e565b925050606085013567ffffffffffffffff8111156120c057600080fd5b6120cc87828801611e08565b91505092959194509250565b60008060008060008060c087890312156120f157600080fd5b60006120ff89828a01611f4e565b965050602061211089828a01611e91565b955050604061212189828a01611f4e565b945050606061213289828a01611e91565b935050608061214389828a01611f4e565b92505060a087013567ffffffffffffffff81111561216057600080fd5b61216c89828a01611e08565b9150509295509295509295565b6000806040838503121561218c57600080fd5b600061219a85828601611f4e565b925050602083013567ffffffffffffffff8111156121b757600080fd5b6121c385828601611ea6565b9150509250929050565b60006121d98383612353565b905092915050565b6121ea816131e6565b82525050565b6121f981613187565b82525050565b600061220a8261310a565b6122148185613138565b935083602082028501612226856130e5565b8060005b85811015612262578484038952815161224385826121cd565b945061224e8361312b565b925060208a0199505060018101905061222a565b50829750879550505050505092915050565b61227d81613199565b82525050565b61228c816131a5565b82525050565b61229b816131f8565b82525050565b6122aa8161321c565b82525050565b60006122bb82613120565b6122c5818561315a565b93506122d5818560208601613273565b6122de816132b8565b840191505092915050565b60006122f482613120565b6122fe818561316b565b935061230e818560208601613273565b612317816132b8565b840191505092915050565b600061232d82613120565b612337818561317c565b9350612347818560208601613273565b80840191505092915050565b600061235e82613115565b6123688185613149565b9350612378818560208601613273565b612381816132b8565b840191505092915050565b600061239782613115565b6123a1818561315a565b93506123b1818560208601613273565b6123ba816132b8565b840191505092915050565b6000815460018116600081146123e257600181146124085761244c565b607f60028304166123f3818761316b565b955060ff19831686526020860193505061244c565b60028204612416818761316b565b9550612421856130f5565b60005b8281101561244357815481890152600182019150602081019050612424565b80880195505050505b505092915050565b600061246160148361315a565b91507f5061757361626c653a206e6f74207061757365640000000000000000000000006000830152602082019050919050565b60006124a1601f8361315a565b91507f526f6c65733a206163636f756e7420616c72656164792068617320726f6c65006000830152602082019050919050565b60006124e160308361315a565b91507f506175736572526f6c653a2063616c6c657220646f6573206e6f74206861766560008301527f207468652050617573657220726f6c65000000000000000000000000000000006020830152604082019050919050565b600061254760448361315a565b91507f536f6d656e746520636c69656e74657320656d20636f6e747261746f7320636160008301527f646173747261646f7320706f64656d206578656375746172206f20706167616d60208301527f656e746f000000000000000000000000000000000000000000000000000000006040830152606082019050919050565b60006125d360268361315a565b91507f4f776e61626c653a206e6577206f776e657220697320746865207a65726f206160008301527f64647265737300000000000000000000000000000000000000000000000000006020830152604082019050919050565b6000612639605f8361315a565b91507f556d20434e504a206ec3a36f20706f6465207472616e73666572697220746f6b60008301527f656e20706172612073692c2061696e64612071756520656d20706170c3a9697360208301527f2064697374696e746f732028436c69656e74652f466f726e656365646f7229006040830152606082019050919050565b60006126c5602a8361315a565b91507f4572726f206e6f2063c3a16c63756c6f20646f206861736820646120636f6e7460008301527f6120646f20424e444553000000000000000000000000000000000000000000006020830152604082019050919050565b600061272b602f8361315a565b91507f536f6d656e746520666f726e656365646f72657320706f64656d20657865637560008301527f746172206f20706167616d656e746f00000000000000000000000000000000006020830152604082019050919050565b600061279160358361315a565b91507f56616c6f72206120736572207472616e736163696f6e61646f2064657665207360008301527f6572206d61696f7220646f20717565207a65726f2e00000000000000000000006020830152604082019050919050565b60006127f7602f8361315a565b91507f4572726f206e6f2063c3a16c63756c6f20646f206861736820646120636f6e7460008301527f6120646f20666f726e656365646f7200000000000000000000000000000000006020830152604082019050919050565b600061285d60108361315a565b91507f5061757361626c653a20706175736564000000000000000000000000000000006000830152602082019050919050565b600061289d60348361315a565b91507f496420646f20526573706f6e7369626c6520666f7220536574746c656d656e7460008301527f206ec3a36f20657374c3a12076616c696461646f0000000000000000000000006020830152604082019050919050565b600061290360218361315a565b91507f526f6c65733a206163636f756e7420646f6573206e6f74206861766520726f6c60008301527f65000000000000000000000000000000000000000000000000000000000000006020830152604082019050919050565b600061296960208361315a565b91507f4f776e61626c653a2063616c6c6572206973206e6f7420746865206f776e65726000830152602082019050919050565b60006129a960228361315a565b91507f526f6c65733a206163636f756e7420697320746865207a65726f20616464726560008301527f73730000000000000000000000000000000000000000000000000000000000006020830152604082019050919050565b6000612a0f60428361315a565b91507f4e656e68756d61207665726966696361c3a7c3a36f206573706563c3ad66696360008301527f6120656e636f6e747261646120706172612061207472616e73666572c3aa6e6360208301527f69610000000000000000000000000000000000000000000000000000000000006040830152606082019050919050565b6000612a9b603c8361315a565b91507f526573706f6e73c3a176656c2070656c61206c6962657261c3a7c3a36f20646560008301527f207265637572736f73206ec3a36f20657374c3a120636f727265746f000000006020830152604082019050919050565b6000612b01602c8361315a565b91507f4572726f206e6f2063c3a16c63756c6f20646f206861736820646120636f6e7460008301527f6120646f20636c69656e746500000000000000000000000000000000000000006020830152604082019050919050565b612b63816131cf565b82525050565b612b72816131d9565b82525050565b612b89612b84826131d9565b6132a6565b82525050565b6000612b9b8284612322565b915081905092915050565b6000612bb28284612b78565b60018201915081905092915050565b6000602082019050612bd660008301846121f0565b92915050565b6000602082019050612bf160008301846121e1565b92915050565b6000602082019050612c0c6000830184612274565b92915050565b6000604082019050612c276000830185612283565b8181036020830152612c3981846121ff565b90509392505050565b6000606082019050612c576000830186612283565b612c646020830185612283565b8181036040830152612c7681846121ff565b9050949350505050565b6000602082019050612c956000830184612292565b92915050565b6000602082019050612cb060008301846122a1565b92915050565b60006020820190508181036000830152612cd0818461238c565b905092915050565b60006040820190508181036000830152612cf281856123c5565b90508181036020830152612d0681846122e9565b90509392505050565b60006020820190508181036000830152612d2881612454565b9050919050565b60006020820190508181036000830152612d4881612494565b9050919050565b60006020820190508181036000830152612d68816124d4565b9050919050565b60006020820190508181036000830152612d888161253a565b9050919050565b60006020820190508181036000830152612da8816125c6565b9050919050565b60006020820190508181036000830152612dc88161262c565b9050919050565b60006020820190508181036000830152612de8816126b8565b9050919050565b60006020820190508181036000830152612e088161271e565b9050919050565b60006020820190508181036000830152612e2881612784565b9050919050565b60006020820190508181036000830152612e48816127ea565b9050919050565b60006020820190508181036000830152612e6881612850565b9050919050565b60006020820190508181036000830152612e8881612890565b9050919050565b60006020820190508181036000830152612ea8816128f6565b9050919050565b60006020820190508181036000830152612ec88161295c565b9050919050565b60006020820190508181036000830152612ee88161299c565b9050919050565b60006020820190508181036000830152612f0881612a02565b9050919050565b60006020820190508181036000830152612f2881612a8e565b9050919050565b60006020820190508181036000830152612f4881612af4565b9050919050565b6000602082019050612f646000830184612b5a565b92915050565b6000606082019050612f7f6000830186612b5a565b8181036020830152612f9181856122b0565b9050612fa06040830184612b5a565b949350505050565b6000608082019050612fbd6000830187612b5a565b8181036020830152612fcf81866122b0565b9050612fde6040830185612b5a565b612feb6060830184612b5a565b95945050505050565b60006040820190506130096000830185612b5a565b6130166020830184612b5a565b9392505050565b60006020820190506130326000830184612b69565b92915050565b6000604051905081810181811067ffffffffffffffff8211171561305b57600080fd5b8060405250919050565b600067ffffffffffffffff82111561307c57600080fd5b602082029050602081019050919050565b600067ffffffffffffffff8211156130a457600080fd5b601f19601f8301169050602081019050919050565b600067ffffffffffffffff8211156130d057600080fd5b601f19601f8301169050602081019050919050565b6000819050602082019050919050565b60008190508160005260206000209050919050565b600081519050919050565b600081519050919050565b600081519050919050565b6000602082019050919050565b600082825260208201905092915050565b600082825260208201905092915050565b600082825260208201905092915050565b600082825260208201905092915050565b600081905092915050565b6000613192826131af565b9050919050565b60008115159050919050565b6000819050919050565b600073ffffffffffffffffffffffffffffffffffffffff82169050919050565b6000819050919050565b600060ff82169050919050565b60006131f182613240565b9050919050565b60006132038261320a565b9050919050565b6000613215826131af565b9050919050565b60006132278261322e565b9050919050565b6000613239826131af565b9050919050565b600061324b82613252565b9050919050565b600061325d826131af565b9050919050565b82818337600083830152505050565b60005b83811015613291578082015181840152602081019050613276565b838111156132a0576000848401525b50505050565b60006132b1826132c9565b9050919050565b6000601f19601f8301169050919050565b60008160f81b9050919050565b6132df81613187565b81146132ea57600080fd5b50565b6132f681613199565b811461330157600080fd5b50565b61330d816131a5565b811461331857600080fd5b50565b613324816131cf565b811461332f57600080fd5b5056fea365627a7a72315820dc8ff1b96beeb2b64aadc2a25d9bde897bffd1f3a5a6b36ddef459ed4c3baeb46c6578706572696d656e74616cf564736f6c63430005100040",
  "source": "pragma solidity ^0.5.0;\npragma experimental ABIEncoderV2;\n\n\nimport \"./RBBLib.sol\";\nimport \"./RBBRegistry.sol\";\nimport \"./RBBToken.sol\";\nimport \"./SpecificRBBToken.sol\";\nimport \"@openzeppelin/contracts/ownership/Ownable.sol\";\nimport \"@openzeppelin/contracts/lifecycle/Pausable.sol\";\n\n\n// Pode ter cliente no hash xyz, fornecedor no hash abc\n// clientes no hash xyz so aqueles que bndes informou (set cliente no hash total)\n/*\nRegras especficas\n- Toda vez que o BNDES faz um desembolso, o destinatrio ser associado como CLIENTE para um idFinancialSupportAgreement especfico (se ainda no estiver associado).\n- Somente clientes fazem pagamentos. Toda vez que um CLIENTE de um idFinancialSupportAgreement especfico paga um fornecedor, o destinatrio ser associado como FORNECEDOR (se ainda no estiver associado). \n- Somente FORNECEDORES podem solicitar o resgate.\n\nTodas as operaes j supem que a entidade de origem e destino esto cadastradas e validadas, pois isso  garantido pelo contrato genrico (RBB_Token)\n\nNo includo:\n------------\n- requisito adicional de o cliente poder resgatar uma parte do valor\n- possibilidade de devoluo de valores\n    - pode ocorrer no final do contrato, por exemplo, porque sobrou algum valor\n    - pode ocorrer no meio do contrato (glosa) e  normalmente se resolve aprovando uma comprovao da devoluo para a conta bancria do projeto, sem precisar devolver ao BNDES. Mas tem alguns casos de devoluo ao BNDES no meio do contrato, que ocorre em casos mais graves, e quando se quer ter mais controle sobre o uso do recurso\n- ideia de o fornecedor poder sacar mais de um saldo ao mesmo tempo.\n\n- qualquer pessoa do BNDES pode liberar (no  necessrio verificar na blockchain)\n*/\n\ncontract FABndesToken is SpecificRBBToken {\n\n    // o id, nao tem como especializar dentro do BNDES. Diferena no front-end\n    uint public responsibleForSettlement;\n\n    //RBBId client => (idFinancialSupportAgreement Client => true/false (registered or not)\n    mapping (uint => mapping (string => bool)) public clients;\n\n    //RBBId supplier => true/false (registered or not)\n    mapping (uint => bool) suppliers;\n\n    string public DISBURSEMENT_VERIFICATION = \"DISBURSEMENT_VERIFICATION\";\n    string public PAY_SUPPLIER_VERIFICATION = \"PAY_SUPPLIER_VERIFICATION\";\n\n    uint8 public RESERVED_NO_ADDITIONAL_FIELD_TO_HASH = 0;\n\n    //ATENCAO: troquei cnpj por id no argumento do evento e tirei arg de contrato no resgate - impacto no BNDESTransparente\n    event Disbursement  (uint idClient, string idFinancialSupportAgreement, uint amount);\n    event TokenTransfer (uint fromCnpj, string fromIdFinancialSupportAgreement, uint toCnpj, uint amount);\n    event RedemptionRequested (uint idClaimer, uint amount);\n//    event RedemptionSettlement(string redemptionTransactionHash, string receiptHash);\n\n//deveria nao receber (newRegistryAddr, newrbbTokenAddr) e serem setados no registro?\n//O BNDES poderah verificar que o registry e token nao podem ser alterados.\n    constructor (address newRegistryAddr, address newrbbTokenAddr, \n                 uint responsibleForSettlementArg)\n                SpecificRBBToken (newRegistryAddr, newrbbTokenAddr)\n                public {\n\n        setResponsibleForSettlement(responsibleForSettlementArg);\n    }\n\n//TODO: tem que retornar o hash do fromHash e toHash tambem\n    function getDisbusementData (string memory idFinancialSupportAgreement) public \n        returns (bytes32, bytes32, string[] memory) {\n\n        bytes32 fromHash = keccak256(abi.encodePacked(RESERVED_NO_ADDITIONAL_FIELD_TO_HASH));\n        bytes32 toHash = keccak256(abi.encodePacked(idFinancialSupportAgreement));\n\n        string[] memory data = new string[](2);\n        data[0] = DISBURSEMENT_VERIFICATION;\n        data[1] = idFinancialSupportAgreement;\n        return (fromHash, toHash, data);\n    }\n\n    function getPaySupplierData (string memory idFinancialSupportAgreement) public \n            returns (bytes32, bytes32, string[] memory) {\n\n\n        bytes32 fromHash = keccak256(abi.encodePacked(idFinancialSupportAgreement));\n        bytes32 toHash = keccak256(abi.encodePacked(RESERVED_NO_ADDITIONAL_FIELD_TO_HASH));\n\n        string[] memory data = new string[](2);\n        data[0] = PAY_SUPPLIER_VERIFICATION;\n        data[1] = idFinancialSupportAgreement;\n        return (fromHash, toHash, data);\n    }\n\n    function getRedeemData () public \n            returns (bytes32, string[] memory) {\n\n        bytes32 fromHash = keccak256(abi.encodePacked(RESERVED_NO_ADDITIONAL_FIELD_TO_HASH));\n\n        string[] memory data = new string[](0);\n        return (fromHash, data);\n    }\n\n\n    function verifyAndActForTransfer(uint fromId, bytes32 fromHash, uint toId, bytes32 toHash, \n            uint amount, string[] memory data) public whenNotPaused {\n\n        string memory specificMethod = data[0];\n\n        require (amount>0, \"Valor a ser transacionado deve ser maior do que zero.\");\n\n\n        if (RBBLib.isEqual(DISBURSEMENT_VERIFICATION, specificMethod)) {\n            verifyAndActForTransfer_DISBURSEMENT(fromId, fromHash, toId, toHash, amount, data);\n        }\n        else if (RBBLib.isEqual(PAY_SUPPLIER_VERIFICATION, specificMethod)) {\n            verifyAndActForTransfer_PAY_SUPPLIER(fromId, fromHash, toId, toHash, amount, data);\n        }\n        else {\n            require (false, \"Nenhuma verificao especfica encontrada para a transferncia\");\n        }\n\n    }\n\n    function verifyAndActForTransfer_DISBURSEMENT(uint fromId, bytes32 fromHash, uint toId, bytes32 toHash, \n            uint amount, string[] memory data) public whenNotPaused {\n    \n        string memory idFinancialSupportAgreement = data[1];\n\n        //Essa eh uma regra especifica visto que outra organizacao pode ter recebido o token no allocate.\n        require (fromId == rbbToken.getBndesId(), \"Responsvel pela liberao de recursos no est correto\");\n        require (keccak256(abi.encodePacked(RESERVED_NO_ADDITIONAL_FIELD_TO_HASH))==fromHash, \"Erro no clculo do hash da conta do BNDES\");\n        require (keccak256(abi.encodePacked(idFinancialSupportAgreement))==toHash, \"Erro no clculo do hash da conta do cliente\");\n\n        if (!clients[toId][idFinancialSupportAgreement]) {\n            clients[toId][idFinancialSupportAgreement] = true; //register the client\n        }\n\n        emit Disbursement (toId, idFinancialSupportAgreement, amount);\n\n    }\n\n    function verifyAndActForTransfer_PAY_SUPPLIER(uint fromId, bytes32 fromHash, uint toId, bytes32 toHash, \n            uint amount, string[] memory data) public whenNotPaused {\n    \n        string memory idFinancialSupportAgreement = data[1];\n\n        require (clients[fromId][idFinancialSupportAgreement], \"Somente clientes em contratos cadastrados podem executar o pagamento\");\n        require (keccak256(abi.encodePacked(idFinancialSupportAgreement))==fromHash, \"Erro no clculo do hash da conta do cliente\");\n        require (keccak256(abi.encodePacked(RESERVED_NO_ADDITIONAL_FIELD_TO_HASH))==fromHash, \"Erro no clculo do hash da conta do fornecedor\");\n\n        require(fromId != toId,\n            \"Um CNPJ no pode transferir token para si, ainda que em papis distintos (Cliente/Fornecedor)\");\n\n        if (!suppliers[toId]) {\n            suppliers[toId] = true; //register the supplier\n        }\n\n        emit TokenTransfer (fromId, idFinancialSupportAgreement, toId, amount);\n\n    }\n\n    function verifyAndActForRedeem(uint fromId, bytes32 fromHash, uint amount, string[] memory data) public whenNotPaused {\n\n        require (amount>0, \"Valor a ser transacionado deve ser maior do que zero.\");\n        require (suppliers[fromId], \"Somente fornecedores podem executar o pagamento\");\n        require (keccak256(abi.encodePacked(RESERVED_NO_ADDITIONAL_FIELD_TO_HASH))==fromHash, \"Erro no clculo do hash da conta do fornecedor\");\n\n        emit RedemptionRequested (fromId, amount);\n\n    }\n\n\n\n//settlement deveria estar aqui mesmo? responsvel pelo settlement ser sempre o BNDES? Lembrar caso ANCINE\n   /**\n    * Using this function, the Responsible for Settlement indicates that he has made the FIAT money transfer.\n    * @ param redemptionTransactionHash hash of the redeem transaction in which the FIAT money settlement occurred.\n    * @ param receiptHash hash that proof the FIAT money transfer\n    * / \n    function notifyRedemptionSettlement(string memory redemptionTransactionHash, string memory receiptHash)\n        public whenNotPaused onlyResponsibleForSettlement {\n\n        require (RBBLib.isValidHash(receiptHash), \"O hash do recibo  invlido\");\n        emit RedemptionSettlement(redemptionTransactionHash, receiptHash);\n    }\n*/\n\n//avaliar se deve passar pelo framework de mudanca (exceto construtor)\n    function setResponsibleForSettlement(uint idResponsible) onlyOwner public {\n        require (registry.isValidatedId(idResponsible), \"Id do Responsible for Settlement no est validado\");\n        responsibleForSettlement = idResponsible;\n    }\n \n    function isResponsibleForSettlement(address addr) public view returns (bool) {\n        return (registry.getId(addr) == responsibleForSettlement);\n    }\n\n    modifier onlyResponsibleForSettlement() {\n        require(isResponsibleForSettlement(msg.sender), \"Apenas o responsvel pela liquidao pode executar essa operao\");\n        _;\n    }\n   \n}",
  "sourcePath": "/Users/suzana.moreno/workspace/rbb-token/Back-Blockchain/contracts/FABndesToken.sol",
  "compiler": {
    "name": "solc",
    "version": "0.5.16+commit.9c3226ce.Emscripten.clang"
  },
  "schemaVersion": "3.0.23",
  "updatedAt": "2020-09-15T18:29:38.388Z",
  "devdoc": {
    "methods": {
      "isOwner()": {
        "details": "Returns true if the caller is the current owner."
      },
      "owner()": {
        "details": "Returns the address of the current owner."
      },
      "pause()": {
        "details": "Called by a pauser to pause, triggers stopped state."
      },
      "paused()": {
        "details": "Returns true if the contract is paused, and false otherwise."
      },
      "renounceOwnership()": {
        "details": "Leaves the contract without owner. It will not be possible to call `onlyOwner` functions anymore. Can only be called by the current owner.     * NOTE: Renouncing ownership will leave the contract without an owner, thereby removing any functionality that is only available to the owner."
      },
      "transferOwnership(address)": {
        "details": "Transfers ownership of the contract to a new account (`newOwner`). Can only be called by the current owner."
      },
      "unpause()": {
        "details": "Called by a pauser to unpause, returns to normal state."
      }
    }
  },
  "userdoc": {
    "methods": {
      "setResponsibleForSettlement(uint256)": {
        "notice": "Using this function, the Responsible for Settlement indicates that he has made the FIAT money transfer. param redemptionTransactionHash hash of the redeem transaction in which the FIAT money settlement occurred. param receiptHash hash that proof the FIAT money transfer /  function notifyRedemptionSettlement(string memory redemptionTransactionHash, string memory receiptHash) public whenNotPaused onlyResponsibleForSettlement { require (RBBLib.isValidHash(receiptHash), \"O hash do recibo  invlido\"); emit RedemptionSettlement(redemptionTransactionHash, receiptHash); }"
      }
    }
  }
}