{
  "contractName": "FABndesToken",
  "abi": [
    {
      "inputs": [
        {
          "internalType": "uint256",
          "name": "fee",
          "type": "uint256"
        }
      ],
      "payable": false,
      "stateMutability": "nonpayable",
      "type": "constructor"
    },
    {
      "anonymous": false,
      "inputs": [
        {
          "indexed": false,
          "internalType": "uint256",
          "name": "id",
          "type": "uint256"
        }
      ],
      "name": "FA_ClientAdded",
      "type": "event"
    },
    {
      "anonymous": false,
      "inputs": [
        {
          "indexed": false,
          "internalType": "uint256",
          "name": "idClient",
          "type": "uint256"
        },
        {
          "indexed": false,
          "internalType": "string",
          "name": "idFinancialSupportAgreement",
          "type": "string"
        },
        {
          "indexed": false,
          "internalType": "uint256",
          "name": "amount",
          "type": "uint256"
        }
      ],
      "name": "FA_Disbursement",
      "type": "event"
    },
    {
      "anonymous": false,
      "inputs": [
        {
          "indexed": false,
          "internalType": "uint256",
          "name": "idDonor",
          "type": "uint256"
        },
        {
          "indexed": false,
          "internalType": "uint256",
          "name": "amount",
          "type": "uint256"
        },
        {
          "indexed": false,
          "internalType": "uint256",
          "name": "tokenToBeMinted",
          "type": "uint256"
        }
      ],
      "name": "FA_DonationBooked",
      "type": "event"
    },
    {
      "anonymous": false,
      "inputs": [
        {
          "indexed": false,
          "internalType": "string",
          "name": "idDonor",
          "type": "string"
        },
        {
          "indexed": false,
          "internalType": "uint256",
          "name": "amount",
          "type": "uint256"
        },
        {
          "indexed": false,
          "internalType": "string",
          "name": "receiptHash",
          "type": "string"
        }
      ],
      "name": "FA_DonationConfirmed",
      "type": "event"
    },
    {
      "anonymous": false,
      "inputs": [
        {
          "indexed": false,
          "internalType": "uint256",
          "name": "id",
          "type": "uint256"
        }
      ],
      "name": "FA_DonorAdded",
      "type": "event"
    },
    {
      "anonymous": false,
      "inputs": [
        {
          "indexed": false,
          "internalType": "uint256",
          "name": "percent",
          "type": "uint256"
        },
        {
          "indexed": false,
          "internalType": "string",
          "name": "description",
          "type": "string"
        }
      ],
      "name": "FA_ManualIntervention_Fee",
      "type": "event"
    },
    {
      "anonymous": false,
      "inputs": [
        {
          "indexed": false,
          "internalType": "uint256",
          "name": "idClaimer",
          "type": "uint256"
        },
        {
          "indexed": false,
          "internalType": "uint256",
          "name": "amount",
          "type": "uint256"
        }
      ],
      "name": "FA_RedemptionRequested",
      "type": "event"
    },
    {
      "anonymous": false,
      "inputs": [
        {
          "indexed": false,
          "internalType": "string",
          "name": "redemptionTransactionHash",
          "type": "string"
        },
        {
          "indexed": false,
          "internalType": "string",
          "name": "receiptHash",
          "type": "string"
        }
      ],
      "name": "FA_RedemptionSettlement",
      "type": "event"
    },
    {
      "anonymous": false,
      "inputs": [
        {
          "indexed": false,
          "internalType": "uint256",
          "name": "id",
          "type": "uint256"
        }
      ],
      "name": "FA_SupplierAdded",
      "type": "event"
    },
    {
      "anonymous": false,
      "inputs": [
        {
          "indexed": false,
          "internalType": "uint256",
          "name": "fromCnpj",
          "type": "uint256"
        },
        {
          "indexed": false,
          "internalType": "string",
          "name": "fromIdFinancialSupportAgreement",
          "type": "string"
        },
        {
          "indexed": false,
          "internalType": "uint256",
          "name": "toCnpj",
          "type": "uint256"
        },
        {
          "indexed": false,
          "internalType": "uint256",
          "name": "amount",
          "type": "uint256"
        }
      ],
      "name": "FA_TokenTransfer",
      "type": "event"
    },
    {
      "anonymous": false,
      "inputs": [
        {
          "indexed": true,
          "internalType": "address",
          "name": "previousOwner",
          "type": "address"
        },
        {
          "indexed": true,
          "internalType": "address",
          "name": "newOwner",
          "type": "address"
        }
      ],
      "name": "OwnershipTransferred",
      "type": "event"
    },
    {
      "anonymous": false,
      "inputs": [
        {
          "indexed": false,
          "internalType": "address",
          "name": "account",
          "type": "address"
        }
      ],
      "name": "Paused",
      "type": "event"
    },
    {
      "anonymous": false,
      "inputs": [
        {
          "indexed": true,
          "internalType": "address",
          "name": "account",
          "type": "address"
        }
      ],
      "name": "PauserAdded",
      "type": "event"
    },
    {
      "anonymous": false,
      "inputs": [
        {
          "indexed": true,
          "internalType": "address",
          "name": "account",
          "type": "address"
        }
      ],
      "name": "PauserRemoved",
      "type": "event"
    },
    {
      "anonymous": false,
      "inputs": [
        {
          "indexed": false,
          "internalType": "address",
          "name": "account",
          "type": "address"
        }
      ],
      "name": "Unpaused",
      "type": "event"
    },
    {
      "constant": true,
      "inputs": [],
      "name": "DISBURSEMENT_VERIFICATION",
      "outputs": [
        {
          "internalType": "string",
          "name": "",
          "type": "string"
        }
      ],
      "payable": false,
      "stateMutability": "view",
      "type": "function"
    },
    {
      "constant": true,
      "inputs": [],
      "name": "MANUAL_INTERVENTION",
      "outputs": [
        {
          "internalType": "string",
          "name": "",
          "type": "string"
        }
      ],
      "payable": false,
      "stateMutability": "view",
      "type": "function"
    },
    {
      "constant": true,
      "inputs": [],
      "name": "PAY_SUPPLIER_VERIFICATION",
      "outputs": [
        {
          "internalType": "string",
          "name": "",
          "type": "string"
        }
      ],
      "payable": false,
      "stateMutability": "view",
      "type": "function"
    },
    {
      "constant": true,
      "inputs": [],
      "name": "RESERVED_NO_ADDITIONAL_FIELD_TO_HASH",
      "outputs": [
        {
          "internalType": "uint8",
          "name": "",
          "type": "uint8"
        }
      ],
      "payable": false,
      "stateMutability": "view",
      "type": "function"
    },
    {
      "constant": false,
      "inputs": [
        {
          "internalType": "address",
          "name": "account",
          "type": "address"
        }
      ],
      "name": "addPauser",
      "outputs": [],
      "payable": false,
      "stateMutability": "nonpayable",
      "type": "function"
    },
    {
      "constant": true,
      "inputs": [],
      "name": "bndesFee",
      "outputs": [
        {
          "internalType": "uint256",
          "name": "",
          "type": "uint256"
        }
      ],
      "payable": false,
      "stateMutability": "view",
      "type": "function"
    },
    {
      "constant": true,
      "inputs": [
        {
          "internalType": "uint256",
          "name": "",
          "type": "uint256"
        },
        {
          "internalType": "string",
          "name": "",
          "type": "string"
        }
      ],
      "name": "clients",
      "outputs": [
        {
          "internalType": "bool",
          "name": "",
          "type": "bool"
        }
      ],
      "payable": false,
      "stateMutability": "view",
      "type": "function"
    },
    {
      "constant": true,
      "inputs": [
        {
          "internalType": "uint256",
          "name": "",
          "type": "uint256"
        }
      ],
      "name": "hashManualInterventionOperationApprovedByOwner",
      "outputs": [
        {
          "internalType": "bytes32",
          "name": "",
          "type": "bytes32"
        }
      ],
      "payable": false,
      "stateMutability": "view",
      "type": "function"
    },
    {
      "constant": true,
      "inputs": [],
      "name": "isOwner",
      "outputs": [
        {
          "internalType": "bool",
          "name": "",
          "type": "bool"
        }
      ],
      "payable": false,
      "stateMutability": "view",
      "type": "function"
    },
    {
      "constant": true,
      "inputs": [
        {
          "internalType": "address",
          "name": "account",
          "type": "address"
        }
      ],
      "name": "isPauser",
      "outputs": [
        {
          "internalType": "bool",
          "name": "",
          "type": "bool"
        }
      ],
      "payable": false,
      "stateMutability": "view",
      "type": "function"
    },
    {
      "constant": true,
      "inputs": [],
      "name": "owner",
      "outputs": [
        {
          "internalType": "address",
          "name": "",
          "type": "address"
        }
      ],
      "payable": false,
      "stateMutability": "view",
      "type": "function"
    },
    {
      "constant": false,
      "inputs": [],
      "name": "pause",
      "outputs": [],
      "payable": false,
      "stateMutability": "nonpayable",
      "type": "function"
    },
    {
      "constant": true,
      "inputs": [],
      "name": "paused",
      "outputs": [
        {
          "internalType": "bool",
          "name": "",
          "type": "bool"
        }
      ],
      "payable": false,
      "stateMutability": "view",
      "type": "function"
    },
    {
      "constant": true,
      "inputs": [],
      "name": "rbbToken",
      "outputs": [
        {
          "internalType": "contract RBBToken",
          "name": "",
          "type": "address"
        }
      ],
      "payable": false,
      "stateMutability": "view",
      "type": "function"
    },
    {
      "constant": true,
      "inputs": [],
      "name": "registry",
      "outputs": [
        {
          "internalType": "contract RBBRegistry",
          "name": "",
          "type": "address"
        }
      ],
      "payable": false,
      "stateMutability": "view",
      "type": "function"
    },
    {
      "constant": false,
      "inputs": [],
      "name": "renounceOwnership",
      "outputs": [],
      "payable": false,
      "stateMutability": "nonpayable",
      "type": "function"
    },
    {
      "constant": false,
      "inputs": [],
      "name": "renouncePauser",
      "outputs": [],
      "payable": false,
      "stateMutability": "nonpayable",
      "type": "function"
    },
    {
      "constant": false,
      "inputs": [
        {
          "internalType": "address",
          "name": "newRegistryAddr",
          "type": "address"
        },
        {
          "internalType": "address",
          "name": "newrbbTokenAddr",
          "type": "address"
        }
      ],
      "name": "setInitializationDataDuringRegistration",
      "outputs": [],
      "payable": false,
      "stateMutability": "nonpayable",
      "type": "function"
    },
    {
      "constant": false,
      "inputs": [
        {
          "internalType": "address",
          "name": "newOwner",
          "type": "address"
        }
      ],
      "name": "transferOwnership",
      "outputs": [],
      "payable": false,
      "stateMutability": "nonpayable",
      "type": "function"
    },
    {
      "constant": false,
      "inputs": [],
      "name": "unpause",
      "outputs": [],
      "payable": false,
      "stateMutability": "nonpayable",
      "type": "function"
    },
    {
      "constant": false,
      "inputs": [
        {
          "internalType": "uint256",
          "name": "newBndesFee",
          "type": "uint256"
        },
        {
          "internalType": "string",
          "name": "description",
          "type": "string"
        }
      ],
      "name": "setBNDESFee",
      "outputs": [],
      "payable": false,
      "stateMutability": "nonpayable",
      "type": "function"
    },
    {
      "constant": false,
      "inputs": [
        {
          "internalType": "uint256",
          "name": "idDonor",
          "type": "uint256"
        }
      ],
      "name": "addDonor",
      "outputs": [],
      "payable": false,
      "stateMutability": "nonpayable",
      "type": "function"
    },
    {
      "constant": false,
      "inputs": [
        {
          "internalType": "uint256",
          "name": "amount",
          "type": "uint256"
        }
      ],
      "name": "bookDonation",
      "outputs": [],
      "payable": false,
      "stateMutability": "nonpayable",
      "type": "function"
    },
    {
      "constant": false,
      "inputs": [
        {
          "internalType": "bytes32",
          "name": "specificHash",
          "type": "bytes32"
        },
        {
          "internalType": "uint256",
          "name": "amountMinted",
          "type": "uint256"
        },
        {
          "internalType": "string[]",
          "name": "data",
          "type": "string[]"
        },
        {
          "internalType": "string",
          "name": "docHash",
          "type": "string"
        }
      ],
      "name": "verifyAndActForMint",
      "outputs": [],
      "payable": false,
      "stateMutability": "nonpayable",
      "type": "function"
    },
    {
      "constant": true,
      "inputs": [
        {
          "internalType": "string",
          "name": "idFinancialSupportAgreement",
          "type": "string"
        }
      ],
      "name": "getDisbusementData",
      "outputs": [
        {
          "internalType": "bytes32",
          "name": "",
          "type": "bytes32"
        },
        {
          "internalType": "bytes32",
          "name": "",
          "type": "bytes32"
        },
        {
          "internalType": "string[]",
          "name": "",
          "type": "string[]"
        }
      ],
      "payable": false,
      "stateMutability": "view",
      "type": "function"
    },
    {
      "constant": true,
      "inputs": [
        {
          "internalType": "string",
          "name": "idFinancialSupportAgreement",
          "type": "string"
        }
      ],
      "name": "getPaySupplierData",
      "outputs": [
        {
          "internalType": "bytes32",
          "name": "",
          "type": "bytes32"
        },
        {
          "internalType": "bytes32",
          "name": "",
          "type": "bytes32"
        },
        {
          "internalType": "string[]",
          "name": "",
          "type": "string[]"
        }
      ],
      "payable": false,
      "stateMutability": "view",
      "type": "function"
    },
    {
      "constant": false,
      "inputs": [],
      "name": "getRedeemData",
      "outputs": [
        {
          "internalType": "bytes32",
          "name": "",
          "type": "bytes32"
        },
        {
          "internalType": "string[]",
          "name": "",
          "type": "string[]"
        }
      ],
      "payable": false,
      "stateMutability": "nonpayable",
      "type": "function"
    },
    {
      "constant": false,
      "inputs": [
        {
          "internalType": "uint256",
          "name": "fromId",
          "type": "uint256"
        },
        {
          "internalType": "bytes32",
          "name": "fromHash",
          "type": "bytes32"
        },
        {
          "internalType": "uint256",
          "name": "toId",
          "type": "uint256"
        },
        {
          "internalType": "bytes32",
          "name": "toHash",
          "type": "bytes32"
        },
        {
          "internalType": "uint256",
          "name": "amount",
          "type": "uint256"
        },
        {
          "internalType": "string[]",
          "name": "data",
          "type": "string[]"
        }
      ],
      "name": "verifyAndActForTransfer",
      "outputs": [],
      "payable": false,
      "stateMutability": "nonpayable",
      "type": "function"
    },
    {
      "constant": false,
      "inputs": [
        {
          "internalType": "uint256",
          "name": "fromId",
          "type": "uint256"
        },
        {
          "internalType": "bytes32",
          "name": "fromHash",
          "type": "bytes32"
        },
        {
          "internalType": "uint256",
          "name": "amount",
          "type": "uint256"
        },
        {
          "internalType": "string[]",
          "name": "data",
          "type": "string[]"
        }
      ],
      "name": "verifyAndActForRedeem",
      "outputs": [],
      "payable": false,
      "stateMutability": "nonpayable",
      "type": "function"
    },
    {
      "constant": false,
      "inputs": [
        {
          "internalType": "string",
          "name": "redemptionTransactionHash",
          "type": "string"
        },
        {
          "internalType": "string",
          "name": "receiptHash",
          "type": "string"
        },
        {
          "internalType": "string[]",
          "name": "data",
          "type": "string[]"
        }
      ],
      "name": "verifyAndActForRedemptionSettlement",
      "outputs": [],
      "payable": false,
      "stateMutability": "nonpayable",
      "type": "function"
    },
    {
      "constant": false,
      "inputs": [
        {
          "internalType": "uint256",
          "name": "fromId",
          "type": "uint256"
        },
        {
          "internalType": "bytes32",
          "name": "fromHash",
          "type": "bytes32"
        },
        {
          "internalType": "uint256",
          "name": "toId",
          "type": "uint256"
        },
        {
          "internalType": "bytes32",
          "name": "toHash",
          "type": "bytes32"
        },
        {
          "internalType": "uint256",
          "name": "amount",
          "type": "uint256"
        }
      ],
      "name": "addManualInterventionRegistry",
      "outputs": [],
      "payable": false,
      "stateMutability": "nonpayable",
      "type": "function"
    }
  ],
  "bytecode": "0x60806040526040518060400160405280601981526020017f44495342555253454d454e545f564552494649434154494f4e00000000000000815250600990805190602001906200005192919062000463565b506040518060400160405280601981526020017f5041595f535550504c4945525f564552494649434154494f4e00000000000000815250600a90805190602001906200009f92919062000463565b506040518060400160405280601381526020017f4d414e55414c5f494e54455256454e54494f4e00000000000000000000000000815250600b9080519060200190620000ed92919062000463565b506000600c60006101000a81548160ff021916908360ff1602179055503480156200011757600080fd5b5060405162004e2b38038062004e2b83398181016040526200013d919081019062000529565b60006200014f6200027c60201b60201c565b9050806000806101000a81548173ffffffffffffffffffffffffffffffffffffffff021916908373ffffffffffffffffffffffffffffffffffffffff1602179055508073ffffffffffffffffffffffffffffffffffffffff16600073ffffffffffffffffffffffffffffffffffffffff167f8be0079c531659141344cd1fd0a4f28419497f9722a3daafe3b4186f6b6457e060405160405180910390a3506200020d620002016200027c60201b60201c565b6200028460201b60201c565b6000600260006101000a81548160ff021916908315150217905550606481106200026e576040517f08c379a0000000000000000000000000000000000000000000000000000000008152600401620002659062000641565b60405180910390fd5b8060088190555050620006dc565b600033905090565b6200029f816001620002e560201b620029c61790919060201c565b8073ffffffffffffffffffffffffffffffffffffffff167f6719d08c1888103bea251a4ed56406bd0c3e69723c8a1686e017e7bbe159b6f860405160405180910390a250565b620002f782826200039860201b60201c565b156200033a576040517f08c379a0000000000000000000000000000000000000000000000000000000008152600401620003319062000663565b60405180910390fd5b60018260000160008373ffffffffffffffffffffffffffffffffffffffff1673ffffffffffffffffffffffffffffffffffffffff16815260200190815260200160002060006101000a81548160ff0219169083151502179055505050565b60008073ffffffffffffffffffffffffffffffffffffffff168273ffffffffffffffffffffffffffffffffffffffff1614156200040c576040517f08c379a0000000000000000000000000000000000000000000000000000000008152600401620004039062000685565b60405180910390fd5b8260000160008373ffffffffffffffffffffffffffffffffffffffff1673ffffffffffffffffffffffffffffffffffffffff16815260200190815260200160002060009054906101000a900460ff16905092915050565b828054600181600116156101000203166002900490600052602060002090601f016020900481019282601f10620004a657805160ff1916838001178555620004d7565b82800160010185558215620004d7579182015b82811115620004d6578251825591602001919060010190620004b9565b5b509050620004e69190620004ea565b5090565b6200050f91905b808211156200050b576000816000905550600101620004f1565b5090565b90565b6000815190506200052381620006c2565b92915050565b6000602082840312156200053c57600080fd5b60006200054c8482850162000512565b91505092915050565b600062000564601b83620006a7565b91507f56616c6f7220646520466565206d61696f7220717565203130302500000000006000830152602082019050919050565b6000620005a6601f83620006a7565b91507f526f6c65733a206163636f756e7420616c72656164792068617320726f6c65006000830152602082019050919050565b6000620005e8602283620006a7565b91507f526f6c65733a206163636f756e7420697320746865207a65726f20616464726560008301527f73730000000000000000000000000000000000000000000000000000000000006020830152604082019050919050565b600060208201905081810360008301526200065c8162000555565b9050919050565b600060208201905081810360008301526200067e8162000597565b9050919050565b60006020820190508181036000830152620006a081620005d9565b9050919050565b600082825260208201905092915050565b6000819050919050565b620006cd81620006b8565b8114620006d957600080fd5b50565b61473f80620006ec6000396000f3fe608060405234801561001057600080fd5b50600436106101e55760003560e01c80638da5cb5b1161010f578063c596acc7116100a2578063e4c7426f11610071578063e4c7426f146104fb578063ee33b0bc14610519578063f2fde38b1461054b578063ffd4d5a614610567576101e5565b8063c596acc714610461578063c84448801461047d578063c92f4eb0146104af578063daeb1cc9146104cb576101e5565b8063a5ed0edd116100de578063a5ed0edd146103ed578063a79a8b2d1461040b578063ad641da614610427578063bc00776314610445576101e5565b80638da5cb5b146103745780638e1b808a146103925780638e669481146103b15780638f32d59b146103cf576101e5565b80635c975abb116101875780637b103999116101565780637b103999146103145780637eabe58a1461033257806382dc1ec41461034e5780638456cb591461036a576101e5565b80635c975abb146102c65780636b4dd41f146102e45780636ef8d66d14610300578063715018a61461030a576101e5565b80633b36893a116101c35780633b36893a146102545780633dfdcfab146102705780633f4ba83a1461028c57806346fbf68e14610296576101e5565b806317251ba9146101ea57806317fcd051146102065780632039974114610236575b600080fd5b61020460048036036101ff9190810190612ea8565b610585565b005b610220600480360361021b9190810190612ea8565b610742565b60405161022d9190613ddf565b60405180910390f35b61023e610763565b60405161024b9190613ec7565b60405180910390f35b61026e60048036036102699190810190612f75565b610801565b005b61028a60048036036102859190810190612cd8565b6108af565b005b610294610935565b005b6102b060048036036102ab9190810190612caf565b610a2e565b6040516102bd9190613dc4565b60405180910390f35b6102ce610a4b565b6040516102db9190613dc4565b60405180910390f35b6102fe60048036036102f99190810190612d3d565b610a62565b005b610308610c14565b005b610312610c26565b005b61031c610d2c565b6040516103299190613e91565b60405180910390f35b61034c600480360361034791908101906130e1565b610d52565b005b61036860048036036103639190810190612caf565b610e20565b005b610372610e7b565b005b61037c610f75565b6040516103899190613d8e565b60405180910390f35b61039a610f9e565b6040516103a8929190613dfa565b60405180910390f35b6103b9611022565b6040516103c69190613ec7565b60405180910390f35b6103d76110c0565b6040516103e49190613dc4565b60405180910390f35b6103f561111e565b60405161040291906143d3565b60405180910390f35b61042560048036036104209190810190612ea8565b611131565b005b61042f6114c2565b60405161043c919061429e565b60405180910390f35b61045f600480360361045a9190810190612e11565b6114c8565b005b61047b60048036036104769190810190612fec565b6115e6565b005b61049760048036036104929190810190612dd0565b6118b2565b6040516104a693929190613e2a565b60405180910390f35b6104c960048036036104c49190810190612efa565b611a35565b005b6104e560048036036104e0919081019061308d565b611c6e565b6040516104f29190613dc4565b60405180910390f35b610503611cb3565b6040516105109190613eac565b60405180910390f35b610533600480360361052e9190810190612dd0565b611cd9565b60405161054293929190613e2a565b60405180910390f35b61056560048036036105609190810190612caf565b611e5c565b005b61056f611eaf565b60405161057c9190613ec7565b60405180910390f35b61058d6110c0565b6105cc576040517f08c379a00000000000000000000000000000000000000000000000000000000081526004016105c3906141de565b60405180910390fd5b600260019054906101000a900473ffffffffffffffffffffffffffffffffffffffff1673ffffffffffffffffffffffffffffffffffffffff1663613a7896826040518263ffffffff1660e01b8152600401610627919061429e565b60206040518083038186803b15801561063f57600080fd5b505afa158015610653573d6000803e3d6000fd5b505050506040513d601f19601f820116820180604052506106779190810190612d14565b6106b6576040517f08c379a00000000000000000000000000000000000000000000000000000000081526004016106ad9061413e565b60405180910390fd5b6004600082815260200190815260200160002060009054906101000a900460ff1661073f5760016004600083815260200190815260200160002060006101000a81548160ff0219169083151502179055507fbf594816977ea5809bf299bfeeb10d2cb41e25a998a19fafe5460164b3cdb08b81604051610736919061429e565b60405180910390a15b50565b6007818154811061074f57fe5b906000526020600020016000915090505481565b600a8054600181600116156101000203166002900480601f0160208091040260200160405190810160405280929190818152602001828054600181600116156101000203166002900480156107f95780601f106107ce576101008083540402835291602001916107f9565b820191906000526020600020905b8154815290600101906020018083116107dc57829003601f168201915b505050505081565b6108096110c0565b610848576040517f08c379a000000000000000000000000000000000000000000000000000000000815260040161083f906141de565b60405180910390fd5b60008585858585604051602001610863959493929190613d14565b6040516020818303038152906040528051906020012090506007819080600181540180825580915050906001820390600052602060002001600090919290919091505550505050505050565b81600260016101000a81548173ffffffffffffffffffffffffffffffffffffffff021916908373ffffffffffffffffffffffffffffffffffffffff16021790555080600360006101000a81548173ffffffffffffffffffffffffffffffffffffffff021916908373ffffffffffffffffffffffffffffffffffffffff1602179055505050565b610945610940611f4d565b610a2e565b610984576040517f08c379a000000000000000000000000000000000000000000000000000000000815260040161097b9061401e565b60405180910390fd5b600260009054906101000a900460ff166109d3576040517f08c379a00000000000000000000000000000000000000000000000000000000081526004016109ca90613fde565b60405180910390fd5b6000600260006101000a81548160ff0219169083151502179055507f5db9ee0a495bf2e6ff9c91a7834c1ba4fdd244a5e8aa4e537bd38aeae4b073aa610a17611f4d565b604051610a249190613da9565b60405180910390a1565b6000610a44826001611f5590919063ffffffff16565b9050919050565b6000600260009054906101000a900460ff16905090565b600260009054906101000a900460ff1615610ab2576040517f08c379a0000000000000000000000000000000000000000000000000000000008152600401610aa99061411e565b60405180910390fd5b600360009054906101000a900473ffffffffffffffffffffffffffffffffffffffff1673ffffffffffffffffffffffffffffffffffffffff163373ffffffffffffffffffffffffffffffffffffffff1614610b42576040517f08c379a0000000000000000000000000000000000000000000000000000000008152600401610b399061425e565b60405180910390fd5b83600c60009054906101000a900460ff16604051602001610b639190613d73565b6040516020818303038152906040528051906020012014610bb9576040517f08c379a0000000000000000000000000000000000000000000000000000000008152600401610bb09061417e565b60405180910390fd5b606082600081518110610bc857fe5b602002602001015190507f510b32015cae6bd5a46e63f522b3e72f4899620ab6fb0a038d40f362d6cddfee818584604051610c0593929190613f42565b60405180910390a15050505050565b610c24610c1f611f4d565b61201d565b565b610c2e6110c0565b610c6d576040517f08c379a0000000000000000000000000000000000000000000000000000000008152600401610c64906141de565b60405180910390fd5b600073ffffffffffffffffffffffffffffffffffffffff166000809054906101000a900473ffffffffffffffffffffffffffffffffffffffff1673ffffffffffffffffffffffffffffffffffffffff167f8be0079c531659141344cd1fd0a4f28419497f9722a3daafe3b4186f6b6457e060405160405180910390a360008060006101000a81548173ffffffffffffffffffffffffffffffffffffffff021916908373ffffffffffffffffffffffffffffffffffffffff160217905550565b600260019054906101000a900473ffffffffffffffffffffffffffffffffffffffff1681565b610d5a6110c0565b610d99576040517f08c379a0000000000000000000000000000000000000000000000000000000008152600401610d90906141de565b60405180910390fd5b60648210610ddc576040517f08c379a0000000000000000000000000000000000000000000000000000000008152600401610dd390613fbe565b60405180910390fd5b816008819055507fbd7b604f0ee5042786f0c84c21d83c0229994b71f3a01f3a498aba4da09880e58282604051610e149291906142b9565b60405180910390a15050565b610e30610e2b611f4d565b610a2e565b610e6f576040517f08c379a0000000000000000000000000000000000000000000000000000000008152600401610e669061401e565b60405180910390fd5b610e7881612077565b50565b610e8b610e86611f4d565b610a2e565b610eca576040517f08c379a0000000000000000000000000000000000000000000000000000000008152600401610ec19061401e565b60405180910390fd5b600260009054906101000a900460ff1615610f1a576040517f08c379a0000000000000000000000000000000000000000000000000000000008152600401610f119061411e565b60405180910390fd5b6001600260006101000a81548160ff0219169083151502179055507f62e78cea01bee320cd4e420270b5ea74000d11b0c9f74754ebdbfc544b05a258610f5e611f4d565b604051610f6b9190613da9565b60405180910390a1565b60008060009054906101000a900473ffffffffffffffffffffffffffffffffffffffff16905090565b600060606000600c60009054906101000a900460ff16604051602001610fc49190613d73565b6040516020818303038152906040528051906020012090506060600060405190808252806020026020018201604052801561101357816020015b6060815260200190600190039081610ffe5790505b50905081819350935050509091565b60098054600181600116156101000203166002900480601f0160208091040260200160405190810160405280929190818152602001828054600181600116156101000203166002900480156110b85780601f1061108d576101008083540402835291602001916110b8565b820191906000526020600020905b81548152906001019060200180831161109b57829003601f168201915b505050505081565b60008060009054906101000a900473ffffffffffffffffffffffffffffffffffffffff1673ffffffffffffffffffffffffffffffffffffffff16611102611f4d565b73ffffffffffffffffffffffffffffffffffffffff1614905090565b600c60009054906101000a900460ff1681565b600260009054906101000a900460ff1615611181576040517f08c379a00000000000000000000000000000000000000000000000000000000081526004016111789061411e565b60405180910390fd5b6000600260019054906101000a900473ffffffffffffffffffffffffffffffffffffffff1673ffffffffffffffffffffffffffffffffffffffff166365f68c89336040518263ffffffff1660e01b81526004016111de9190613da9565b60206040518083038186803b1580156111f657600080fd5b505afa15801561120a573d6000803e3d6000fd5b505050506040513d601f19601f8201168201806040525061122e9190810190612ed1565b90506004600082815260200190815260200160002060009054906101000a900460ff16611290576040517f08c379a00000000000000000000000000000000000000000000000000000000081526004016112879061419e565b60405180910390fd5b600260019054906101000a900473ffffffffffffffffffffffffffffffffffffffff1673ffffffffffffffffffffffffffffffffffffffff1663613a7896826040518263ffffffff1660e01b81526004016112eb919061429e565b60206040518083038186803b15801561130357600080fd5b505afa158015611317573d6000803e3d6000fd5b505050506040513d601f19601f8201168201806040525061133b9190810190612d14565b61137a576040517f08c379a00000000000000000000000000000000000000000000000000000000081526004016113719061413e565b60405180910390fd5b6000600c60009054906101000a900460ff1660405160200161139c9190613d73565b60405160208183030381529060405280519060200120905060006113f06113e160646113d3600854886120d190919063ffffffff16565b61214190919063ffffffff16565b8561218b90919063ffffffff16565b9050600360009054906101000a900473ffffffffffffffffffffffffffffffffffffffff1673ffffffffffffffffffffffffffffffffffffffff16639752cbe683836040518363ffffffff1660e01b815260040161144f929190613e68565b600060405180830381600087803b15801561146957600080fd5b505af115801561147d573d6000803e3d6000fd5b505050507ffffd10848d38b1d820893dc232f3ff25c32311d47932228448b2b57093acdea68385836040516114b49392919061439c565b60405180910390a150505050565b60085481565b600260009054906101000a900460ff1615611518576040517f08c379a000000000000000000000000000000000000000000000000000000000815260040161150f9061411e565b60405180910390fd5b600360009054906101000a900473ffffffffffffffffffffffffffffffffffffffff1673ffffffffffffffffffffffffffffffffffffffff163373ffffffffffffffffffffffffffffffffffffffff16146115a8576040517f08c379a000000000000000000000000000000000000000000000000000000000815260040161159f9061425e565b60405180910390fd5b7f8039e7cfe0227655de7f41b85f86a697e1c0cade8eed56b090446c9f7f6afe0783836040516115d9929190613f0b565b60405180910390a1505050565b600260009054906101000a900460ff1615611636576040517f08c379a000000000000000000000000000000000000000000000000000000000815260040161162d9061411e565b60405180910390fd5b600360009054906101000a900473ffffffffffffffffffffffffffffffffffffffff1673ffffffffffffffffffffffffffffffffffffffff163373ffffffffffffffffffffffffffffffffffffffff16146116c6576040517f08c379a00000000000000000000000000000000000000000000000000000000081526004016116bd9061425e565b60405180910390fd5b6060816000815181106116d557fe5b6020026020010151905060008311611722576040517f08c379a0000000000000000000000000000000000000000000000000000000008152600401611719906140de565b60405180910390fd5b73__RBBLib________________________________63465c41056009836040518363ffffffff1660e01b815260040161175c929190613f87565b60206040518083038186803b15801561177457600080fd5b505af4158015611788573d6000803e3d6000fd5b505050506040513d601f19601f820116820180604052506117ac9190810190612d14565b156117c4576117bf8787878787876121d5565b6118a9565b73__RBBLib________________________________63465c4105600a836040518363ffffffff1660e01b81526004016117fe929190613f87565b60206040518083038186803b15801561181657600080fd5b505af415801561182a573d6000803e3d6000fd5b505050506040513d601f19601f8201168201806040525061184e9190810190612d14565b156118665761186187878787878761251b565b6118a8565b60006118a7576040517f08c379a000000000000000000000000000000000000000000000000000000000815260040161189e9061421e565b60405180910390fd5b5b5b50505050505050565b60008060606000846040516020016118ca9190613cfd565b6040516020818303038152906040528051906020012090506000600c60009054906101000a900460ff166040516020016119049190613d73565b6040516020818303038152906040528051906020012090506060600260405190808252806020026020018201604052801561195357816020015b606081526020019060019003908161193e5790505b509050600a8054600181600116156101000203166002900480601f0160208091040260200160405190810160405280929190818152602001828054600181600116156101000203166002900480156119ec5780601f106119c1576101008083540402835291602001916119ec565b820191906000526020600020905b8154815290600101906020018083116119cf57829003601f168201915b5050505050816000815181106119fe57fe5b60200260200101819052508681600181518110611a1757fe5b60200260200101819052508282829550955095505050509193909250565b600260009054906101000a900460ff1615611a85576040517f08c379a0000000000000000000000000000000000000000000000000000000008152600401611a7c9061411e565b60405180910390fd5b600360009054906101000a900473ffffffffffffffffffffffffffffffffffffffff1673ffffffffffffffffffffffffffffffffffffffff163373ffffffffffffffffffffffffffffffffffffffff1614611b15576040517f08c379a0000000000000000000000000000000000000000000000000000000008152600401611b0c9061425e565b60405180910390fd5b60008211611b58576040517f08c379a0000000000000000000000000000000000000000000000000000000008152600401611b4f906140de565b60405180910390fd5b6006600085815260200190815260200160002060009054906101000a900460ff16611bb8576040517f08c379a0000000000000000000000000000000000000000000000000000000008152600401611baf906140be565b60405180910390fd5b82600c60009054906101000a900460ff16604051602001611bd99190613d73565b6040516020818303038152906040528051906020012014611c2f576040517f08c379a0000000000000000000000000000000000000000000000000000000008152600401611c26906140fe565b60405180910390fd5b7fb8f81a5484e20ac6428d9d7788e484b88874539071efc6a3d92c0d701b698ce08483604051611c60929190614373565b60405180910390a150505050565b6005602052816000526040600020818051602081018201805184825260208301602085012081835280955050505050506000915091509054906101000a900460ff1681565b600360009054906101000a900473ffffffffffffffffffffffffffffffffffffffff1681565b60008060606000600c60009054906101000a900460ff16604051602001611d009190613d73565b604051602081830303815290604052805190602001209050600085604051602001611d2b9190613cfd565b60405160208183030381529060405280519060200120905060606002604051908082528060200260200182016040528015611d7a57816020015b6060815260200190600190039081611d655790505b50905060098054600181600116156101000203166002900480601f016020809104026020016040519081016040528092919081815260200182805460018160011615610100020316600290048015611e135780601f10611de857610100808354040283529160200191611e13565b820191906000526020600020905b815481529060010190602001808311611df657829003601f168201915b505050505081600081518110611e2557fe5b60200260200101819052508681600181518110611e3e57fe5b60200260200101819052508282829550955095505050509193909250565b611e646110c0565b611ea3576040517f08c379a0000000000000000000000000000000000000000000000000000000008152600401611e9a906141de565b60405180910390fd5b611eac816127f1565b50565b600b8054600181600116156101000203166002900480601f016020809104026020016040519081016040528092919081815260200182805460018160011615610100020316600290048015611f455780601f10611f1a57610100808354040283529160200191611f45565b820191906000526020600020905b815481529060010190602001808311611f2857829003601f168201915b505050505081565b600033905090565b60008073ffffffffffffffffffffffffffffffffffffffff168273ffffffffffffffffffffffffffffffffffffffff161415611fc6576040517f08c379a0000000000000000000000000000000000000000000000000000000008152600401611fbd906141fe565b60405180910390fd5b8260000160008373ffffffffffffffffffffffffffffffffffffffff1673ffffffffffffffffffffffffffffffffffffffff16815260200190815260200160002060009054906101000a900460ff16905092915050565b61203181600161291f90919063ffffffff16565b8073ffffffffffffffffffffffffffffffffffffffff167fcd265ebaf09df2871cc7bd4133404a235ba12eff2041bb89d9c714a2621c7c7e60405160405180910390a250565b61208b8160016129c690919063ffffffff16565b8073ffffffffffffffffffffffffffffffffffffffff167f6719d08c1888103bea251a4ed56406bd0c3e69723c8a1686e017e7bbe159b6f860405160405180910390a250565b6000808314156120e4576000905061213b565b60008284029050828482816120f557fe5b0414612136576040517f08c379a000000000000000000000000000000000000000000000000000000000815260040161212d906141be565b60405180910390fd5b809150505b92915050565b600061218383836040518060400160405280601a81526020017f536166654d6174683a206469766973696f6e206279207a65726f000000000000815250612a6e565b905092915050565b60006121cd83836040518060400160405280601e81526020017f536166654d6174683a207375627472616374696f6e206f766572666c6f770000815250612acf565b905092915050565b600260009054906101000a900460ff1615612225576040517f08c379a000000000000000000000000000000000000000000000000000000000815260040161221c9061411e565b60405180910390fd5b60608160018151811061223457fe5b602002602001015190506000600260019054906101000a900473ffffffffffffffffffffffffffffffffffffffff1673ffffffffffffffffffffffffffffffffffffffff166365f68c89612286610f75565b6040518263ffffffff1660e01b81526004016122a29190613d8e565b60206040518083038186803b1580156122ba57600080fd5b505afa1580156122ce573d6000803e3d6000fd5b505050506040513d601f19601f820116820180604052506122f29190810190612ed1565b9050808814612336576040517f08c379a000000000000000000000000000000000000000000000000000000000815260040161232d9061423e565b60405180910390fd5b86600c60009054906101000a900460ff166040516020016123579190613d73565b60405160208183030381529060405280519060200120146123ad576040517f08c379a00000000000000000000000000000000000000000000000000000000081526004016123a49061409e565b60405180910390fd5b84826040516020016123bf9190613cfd565b6040516020818303038152906040528051906020012014612415576040517f08c379a000000000000000000000000000000000000000000000000000000000815260040161240c9061427e565b60405180910390fd5b60056000878152602001908152602001600020826040516124369190613cfd565b908152602001604051809103902060009054906101000a900460ff166124d657600160056000888152602001908152602001600020836040516124799190613cfd565b908152602001604051809103902060006101000a81548160ff0219169083151502179055507f448b0dd714fa3713f69988b8ee8bad3ac840e06e3d93c970086a3d490d61c629866040516124cd919061429e565b60405180910390a15b7f6a4c81844df1c2bd4ddc3c212f15b0f89b66e0c623277b45a0c97427a5b164f6868386604051612509939291906142e9565b60405180910390a15050505050505050565b600260009054906101000a900460ff161561256b576040517f08c379a00000000000000000000000000000000000000000000000000000000081526004016125629061411e565b60405180910390fd5b60608160018151811061257a57fe5b6020026020010151905060056000888152602001908152602001600020816040516125a59190613cfd565b908152602001604051809103902060009054906101000a900460ff16612600576040517f08c379a00000000000000000000000000000000000000000000000000000000081526004016125f79061403e565b60405180910390fd5b85816040516020016126129190613cfd565b6040516020818303038152906040528051906020012014612668576040517f08c379a000000000000000000000000000000000000000000000000000000000815260040161265f9061427e565b60405180910390fd5b85600c60009054906101000a900460ff166040516020016126899190613d73565b60405160208183030381529060405280519060200120146126df576040517f08c379a00000000000000000000000000000000000000000000000000000000081526004016126d6906140fe565b60405180910390fd5b84871415612722576040517f08c379a00000000000000000000000000000000000000000000000000000000081526004016127199061407e565b60405180910390fd5b6006600086815260200190815260200160002060009054906101000a900460ff166127ab5760016006600087815260200190815260200160002060006101000a81548160ff0219169083151502179055507fdbd156425e92bcf7929d11aeaf5fe04e177c0ce4edd8e53dc58b0e1838554b49876040516127a2919061429e565b60405180910390a15b7fb5941224982a8299c916869ca2e62ecbf14906bd1be81700e33cfc4bf401cc96878287866040516127e09493929190614327565b60405180910390a150505050505050565b600073ffffffffffffffffffffffffffffffffffffffff168173ffffffffffffffffffffffffffffffffffffffff161415612861576040517f08c379a00000000000000000000000000000000000000000000000000000000081526004016128589061405e565b60405180910390fd5b8073ffffffffffffffffffffffffffffffffffffffff166000809054906101000a900473ffffffffffffffffffffffffffffffffffffffff1673ffffffffffffffffffffffffffffffffffffffff167f8be0079c531659141344cd1fd0a4f28419497f9722a3daafe3b4186f6b6457e060405160405180910390a3806000806101000a81548173ffffffffffffffffffffffffffffffffffffffff021916908373ffffffffffffffffffffffffffffffffffffffff16021790555050565b6129298282611f55565b612968576040517f08c379a000000000000000000000000000000000000000000000000000000000815260040161295f9061415e565b60405180910390fd5b60008260000160008373ffffffffffffffffffffffffffffffffffffffff1673ffffffffffffffffffffffffffffffffffffffff16815260200190815260200160002060006101000a81548160ff0219169083151502179055505050565b6129d08282611f55565b15612a10576040517f08c379a0000000000000000000000000000000000000000000000000000000008152600401612a0790613ffe565b60405180910390fd5b60018260000160008373ffffffffffffffffffffffffffffffffffffffff1673ffffffffffffffffffffffffffffffffffffffff16815260200190815260200160002060006101000a81548160ff0219169083151502179055505050565b60008083118290612ab5576040517f08c379a0000000000000000000000000000000000000000000000000000000008152600401612aac9190613ee9565b60405180910390fd5b506000838581612ac157fe5b049050809150509392505050565b6000838311158290612b17576040517f08c379a0000000000000000000000000000000000000000000000000000000008152600401612b0e9190613ee9565b60405180910390fd5b5060008385039050809150509392505050565b600081359050612b39816146a0565b92915050565b600082601f830112612b5057600080fd5b8135612b63612b5e8261441b565b6143ee565b9150818183526020840193506020810190508360005b83811015612ba95781358601612b8f8882612bdd565b845260208401935060208301925050600181019050612b79565b5050505092915050565b600081519050612bc2816146b7565b92915050565b600081359050612bd7816146ce565b92915050565b600082601f830112612bee57600080fd5b8135612c01612bfc82614443565b6143ee565b91508082526020830160208301858383011115612c1d57600080fd5b612c2883828461461a565b50505092915050565b600082601f830112612c4257600080fd5b8135612c55612c508261446f565b6143ee565b91508082526020830160208301858383011115612c7157600080fd5b612c7c83828461461a565b50505092915050565b600081359050612c94816146e5565b92915050565b600081519050612ca9816146e5565b92915050565b600060208284031215612cc157600080fd5b6000612ccf84828501612b2a565b91505092915050565b60008060408385031215612ceb57600080fd5b6000612cf985828601612b2a565b9250506020612d0a85828601612b2a565b9150509250929050565b600060208284031215612d2657600080fd5b6000612d3484828501612bb3565b91505092915050565b60008060008060808587031215612d5357600080fd5b6000612d6187828801612bc8565b9450506020612d7287828801612c85565b935050604085013567ffffffffffffffff811115612d8f57600080fd5b612d9b87828801612b3f565b925050606085013567ffffffffffffffff811115612db857600080fd5b612dc487828801612c31565b91505092959194509250565b600060208284031215612de257600080fd5b600082013567ffffffffffffffff811115612dfc57600080fd5b612e0884828501612c31565b91505092915050565b600080600060608486031215612e2657600080fd5b600084013567ffffffffffffffff811115612e4057600080fd5b612e4c86828701612c31565b935050602084013567ffffffffffffffff811115612e6957600080fd5b612e7586828701612c31565b925050604084013567ffffffffffffffff811115612e9257600080fd5b612e9e86828701612b3f565b9150509250925092565b600060208284031215612eba57600080fd5b6000612ec884828501612c85565b91505092915050565b600060208284031215612ee357600080fd5b6000612ef184828501612c9a565b91505092915050565b60008060008060808587031215612f1057600080fd5b6000612f1e87828801612c85565b9450506020612f2f87828801612bc8565b9350506040612f4087828801612c85565b925050606085013567ffffffffffffffff811115612f5d57600080fd5b612f6987828801612b3f565b91505092959194509250565b600080600080600060a08688031215612f8d57600080fd5b6000612f9b88828901612c85565b9550506020612fac88828901612bc8565b9450506040612fbd88828901612c85565b9350506060612fce88828901612bc8565b9250506080612fdf88828901612c85565b9150509295509295909350565b60008060008060008060c0878903121561300557600080fd5b600061301389828a01612c85565b965050602061302489828a01612bc8565b955050604061303589828a01612c85565b945050606061304689828a01612bc8565b935050608061305789828a01612c85565b92505060a087013567ffffffffffffffff81111561307457600080fd5b61308089828a01612b3f565b9150509295509295509295565b600080604083850312156130a057600080fd5b60006130ae85828601612c85565b925050602083013567ffffffffffffffff8111156130cb57600080fd5b6130d785828601612bdd565b9150509250929050565b600080604083850312156130f457600080fd5b600061310285828601612c85565b925050602083013567ffffffffffffffff81111561311f57600080fd5b61312b85828601612c31565b9150509250929050565b600061314183836132d2565b905092915050565b6131528161459c565b82525050565b6131618161453d565b82525050565b6000613172826144c0565b61317c81856144ee565b93508360208202850161318e8561449b565b8060005b858110156131ca57848403895281516131ab8582613135565b94506131b6836144e1565b925060208a01995050600181019050613192565b50829750879550505050505092915050565b6131e58161454f565b82525050565b6131f48161455b565b82525050565b61320b6132068261455b565b61465c565b82525050565b61321a816145ae565b82525050565b613229816145d2565b82525050565b600061323a826144d6565b6132448185614510565b9350613254818560208601614629565b61325d81614682565b840191505092915050565b6000613273826144d6565b61327d8185614521565b935061328d818560208601614629565b61329681614682565b840191505092915050565b60006132ac826144d6565b6132b68185614532565b93506132c6818560208601614629565b80840191505092915050565b60006132dd826144cb565b6132e781856144ff565b93506132f7818560208601614629565b61330081614682565b840191505092915050565b6000613316826144cb565b6133208185614510565b9350613330818560208601614629565b61333981614682565b840191505092915050565b6000815460018116600081146133615760018114613387576133cb565b607f60028304166133728187614521565b955060ff1983168652602086019350506133cb565b600282046133958187614521565b95506133a0856144ab565b60005b828110156133c2578154818901526001820191506020810190506133a3565b80880195505050505b505092915050565b60006133e0601b83614510565b91507f56616c6f7220646520466565206d61696f7220717565203130302500000000006000830152602082019050919050565b6000613420601483614510565b91507f5061757361626c653a206e6f74207061757365640000000000000000000000006000830152602082019050919050565b6000613460601f83614510565b91507f526f6c65733a206163636f756e7420616c72656164792068617320726f6c65006000830152602082019050919050565b60006134a0603083614510565b91507f506175736572526f6c653a2063616c6c657220646f6573206e6f74206861766560008301527f207468652050617573657220726f6c65000000000000000000000000000000006020830152604082019050919050565b6000613506604483614510565b91507f536f6d656e746520636c69656e74657320656d20636f6e747261746f7320636160008301527f646173747261646f7320706f64656d206578656375746172206f20706167616d60208301527f656e746f000000000000000000000000000000000000000000000000000000006040830152606082019050919050565b6000613592602683614510565b91507f4f776e61626c653a206e6577206f776e657220697320746865207a65726f206160008301527f64647265737300000000000000000000000000000000000000000000000000006020830152604082019050919050565b60006135f8605f83614510565b91507f556d20434e504a206ec3a36f20706f6465207472616e73666572697220746f6b60008301527f656e20706172612073692c2061696e64612071756520656d20706170c3a9697360208301527f2064697374696e746f732028436c69656e74652f466f726e656365646f7229006040830152606082019050919050565b6000613684602a83614510565b91507f4572726f206e6f2063c3a16c63756c6f20646f206861736820646120636f6e7460008301527f6120646f20424e444553000000000000000000000000000000000000000000006020830152604082019050919050565b60006136ea602f83614510565b91507f536f6d656e746520666f726e656365646f72657320706f64656d20657865637560008301527f746172206f20706167616d656e746f00000000000000000000000000000000006020830152604082019050919050565b6000613750603583614510565b91507f56616c6f72206120736572207472616e736163696f6e61646f2064657665207360008301527f6572206d61696f7220646f20717565207a65726f2e00000000000000000000006020830152604082019050919050565b60006137b6602f83614510565b91507f4572726f206e6f2063c3a16c63756c6f20646f206861736820646120636f6e7460008301527f6120646f20666f726e656365646f7200000000000000000000000000000000006020830152604082019050919050565b600061381c601083614510565b91507f5061757361626c653a20706175736564000000000000000000000000000000006000830152602082019050919050565b600061385c603383614510565b91507f436f6e746120646520646f61646f72207072656369736120657374617220636f60008301527f6d20636164617374726f2076616c696461646f000000000000000000000000006020830152604082019050919050565b60006138c2602183614510565b91507f526f6c65733a206163636f756e7420646f6573206e6f74206861766520726f6c60008301527f65000000000000000000000000000000000000000000000000000000000000006020830152604082019050919050565b6000613928602483614510565b91507f4572726f206e6f2063c3a16c63756c6f20646f206861736820646120646f61c360008301527fa7c3a36f000000000000000000000000000000000000000000000000000000006020830152604082019050919050565b600061398e602683614510565b91507f536f6d656e746520646f61646f72657320706f64656d2066617a657220646f6160008301527fc3a7c3b5657300000000000000000000000000000000000000000000000000006020830152604082019050919050565b60006139f4602183614510565b91507f536166654d6174683a206d756c7469706c69636174696f6e206f766572666c6f60008301527f77000000000000000000000000000000000000000000000000000000000000006020830152604082019050919050565b6000613a5a602083614510565b91507f4f776e61626c653a2063616c6c6572206973206e6f7420746865206f776e65726000830152602082019050919050565b6000613a9a602283614510565b91507f526f6c65733a206163636f756e7420697320746865207a65726f20616464726560008301527f73730000000000000000000000000000000000000000000000000000000000006020830152604082019050919050565b6000613b00604283614510565b91507f4e656e68756d61207665726966696361c3a7c3a36f206573706563c3ad66696360008301527f6120656e636f6e747261646120706172612061207472616e73666572c3aa6e6360208301527f69610000000000000000000000000000000000000000000000000000000000006040830152606082019050919050565b6000613b8c603c83614510565b91507f526573706f6e73c3a176656c2070656c61206c6962657261c3a7c3a36f20646560008301527f207265637572736f73206ec3a36f20657374c3a120636f727265746f000000006020830152604082019050919050565b6000613bf2603083614510565b91507f45737365206dc3a9746f646f2073c3b320706f646520736572206368616d616460008301527f6f2070656c6f205242425f546f6b656e000000000000000000000000000000006020830152604082019050919050565b6000613c58602c83614510565b91507f4572726f206e6f2063c3a16c63756c6f20646f206861736820646120636f6e7460008301527f6120646f20636c69656e746500000000000000000000000000000000000000006020830152604082019050919050565b613cba81614585565b82525050565b613cd1613ccc82614585565b614666565b82525050565b613ce08161458f565b82525050565b613cf7613cf28261458f565b614670565b82525050565b6000613d0982846132a1565b915081905092915050565b6000613d208288613cc0565b602082019150613d3082876131fa565b602082019150613d408286613cc0565b602082019150613d5082856131fa565b602082019150613d608284613cc0565b6020820191508190509695505050505050565b6000613d7f8284613ce6565b60018201915081905092915050565b6000602082019050613da36000830184613158565b92915050565b6000602082019050613dbe6000830184613149565b92915050565b6000602082019050613dd960008301846131dc565b92915050565b6000602082019050613df460008301846131eb565b92915050565b6000604082019050613e0f60008301856131eb565b8181036020830152613e218184613167565b90509392505050565b6000606082019050613e3f60008301866131eb565b613e4c60208301856131eb565b8181036040830152613e5e8184613167565b9050949350505050565b6000604082019050613e7d60008301856131eb565b613e8a6020830184613cb1565b9392505050565b6000602082019050613ea66000830184613211565b92915050565b6000602082019050613ec16000830184613220565b92915050565b60006020820190508181036000830152613ee1818461330b565b905092915050565b60006020820190508181036000830152613f03818461322f565b905092915050565b60006040820190508181036000830152613f25818561322f565b90508181036020830152613f39818461322f565b90509392505050565b60006060820190508181036000830152613f5c818661322f565b9050613f6b6020830185613cb1565b8181036040830152613f7d818461322f565b9050949350505050565b60006040820190508181036000830152613fa18185613344565b90508181036020830152613fb58184613268565b90509392505050565b60006020820190508181036000830152613fd7816133d3565b9050919050565b60006020820190508181036000830152613ff781613413565b9050919050565b6000602082019050818103600083015261401781613453565b9050919050565b6000602082019050818103600083015261403781613493565b9050919050565b60006020820190508181036000830152614057816134f9565b9050919050565b6000602082019050818103600083015261407781613585565b9050919050565b60006020820190508181036000830152614097816135eb565b9050919050565b600060208201905081810360008301526140b781613677565b9050919050565b600060208201905081810360008301526140d7816136dd565b9050919050565b600060208201905081810360008301526140f781613743565b9050919050565b60006020820190508181036000830152614117816137a9565b9050919050565b600060208201905081810360008301526141378161380f565b9050919050565b600060208201905081810360008301526141578161384f565b9050919050565b60006020820190508181036000830152614177816138b5565b9050919050565b600060208201905081810360008301526141978161391b565b9050919050565b600060208201905081810360008301526141b781613981565b9050919050565b600060208201905081810360008301526141d7816139e7565b9050919050565b600060208201905081810360008301526141f781613a4d565b9050919050565b6000602082019050818103600083015261421781613a8d565b9050919050565b6000602082019050818103600083015261423781613af3565b9050919050565b6000602082019050818103600083015261425781613b7f565b9050919050565b6000602082019050818103600083015261427781613be5565b9050919050565b6000602082019050818103600083015261429781613c4b565b9050919050565b60006020820190506142b36000830184613cb1565b92915050565b60006040820190506142ce6000830185613cb1565b81810360208301526142e0818461322f565b90509392505050565b60006060820190506142fe6000830186613cb1565b8181036020830152614310818561322f565b905061431f6040830184613cb1565b949350505050565b600060808201905061433c6000830187613cb1565b818103602083015261434e818661322f565b905061435d6040830185613cb1565b61436a6060830184613cb1565b95945050505050565b60006040820190506143886000830185613cb1565b6143956020830184613cb1565b9392505050565b60006060820190506143b16000830186613cb1565b6143be6020830185613cb1565b6143cb6040830184613cb1565b949350505050565b60006020820190506143e86000830184613cd7565b92915050565b6000604051905081810181811067ffffffffffffffff8211171561441157600080fd5b8060405250919050565b600067ffffffffffffffff82111561443257600080fd5b602082029050602081019050919050565b600067ffffffffffffffff82111561445a57600080fd5b601f19601f8301169050602081019050919050565b600067ffffffffffffffff82111561448657600080fd5b601f19601f8301169050602081019050919050565b6000819050602082019050919050565b60008190508160005260206000209050919050565b600081519050919050565b600081519050919050565b600081519050919050565b6000602082019050919050565b600082825260208201905092915050565b600082825260208201905092915050565b600082825260208201905092915050565b600082825260208201905092915050565b600081905092915050565b600061454882614565565b9050919050565b60008115159050919050565b6000819050919050565b600073ffffffffffffffffffffffffffffffffffffffff82169050919050565b6000819050919050565b600060ff82169050919050565b60006145a7826145f6565b9050919050565b60006145b9826145c0565b9050919050565b60006145cb82614565565b9050919050565b60006145dd826145e4565b9050919050565b60006145ef82614565565b9050919050565b600061460182614608565b9050919050565b600061461382614565565b9050919050565b82818337600083830152505050565b60005b8381101561464757808201518184015260208101905061462c565b83811115614656576000848401525b50505050565b6000819050919050565b6000819050919050565b600061467b82614693565b9050919050565b6000601f19601f8301169050919050565b60008160f81b9050919050565b6146a98161453d565b81146146b457600080fd5b50565b6146c08161454f565b81146146cb57600080fd5b50565b6146d78161455b565b81146146e257600080fd5b50565b6146ee81614585565b81146146f957600080fd5b5056fea365627a7a723158202d3440324e32568b8ebdb8f97f6c6b38bc451ad0c65adef2b08edeac49bf1ea86c6578706572696d656e74616cf564736f6c63430005100040",
  "source": "pragma solidity ^0.5.0;\npragma experimental ABIEncoderV2;\n\n\nimport \"./RBBLib.sol\";\nimport \"./RBBRegistry.sol\";\nimport \"./RBBToken.sol\";\nimport \"./SpecificRBBToken.sol\";\nimport \"@openzeppelin/contracts/ownership/Ownable.sol\";\nimport \"@openzeppelin/contracts/lifecycle/Pausable.sol\";\nimport \"@openzeppelin/contracts/math/SafeMath.sol\";\n\n\n\n// Pode ter cliente no hash xyz, fornecedor no hash abc\n// clientes no hash xyz so aqueles que bndes informou (set cliente no hash total)\n/*\nRegras especficas\n- Toda vez que o BNDES faz um desembolso, o destinatrio ser associado como CLIENTE para um idFinancialSupportAgreement especfico (se ainda no estiver associado).\n- Somente clientes fazem pagamentos. Toda vez que um CLIENTE de um idFinancialSupportAgreement especfico paga um fornecedor, o destinatrio ser associado como FORNECEDOR (se ainda no estiver associado). \n- Somente FORNECEDORES podem solicitar o resgate.\n\nTodas as operaes j supem que a entidade de origem e destino esto cadastradas e validadas, pois isso  garantido pelo contrato genrico (RBB_Token)\n\nNo includo:\n------------\n- requisito adicional de o cliente poder resgatar uma parte do valor\n- possibilidade de devoluo de valores\n    - pode ocorrer no final do contrato, por exemplo, porque sobrou algum valor\n    - pode ocorrer no meio do contrato (glosa) e  normalmente se resolve aprovando uma comprovao da devoluo para a conta bancria do projeto, sem precisar devolver ao BNDES. Mas tem alguns casos de devoluo ao BNDES no meio do contrato, que ocorre em casos mais graves, e quando se quer ter mais controle sobre o uso do recurso\n- ideia de o fornecedor poder sacar mais de um saldo ao mesmo tempo.\n\n- qualquer pessoa do BNDES pode liberar (no  necessrio verificar na blockchain)\n*/\n\n//TODO: teoricamente, o cliente deveria registrar na blockchain o pedido de financiamento do cliente, concordam?\n\ncontract FABndesToken is SpecificRBBToken {\n\n    //RBBId donor => true/false (registered or not)\n    mapping (uint => bool) donors;\n\n    //RBBId client => (idFinancialSupportAgreement Client => true/false (registered or not)\n    mapping (uint => mapping (string => bool)) public clients;\n\n    //RBBId supplier => true/false (registered or not)\n    mapping (uint => bool) suppliers;\n\n   /* Hash of approved ManualInterventionOperationApprovedByOwner */\n    bytes32[] public hashManualInterventionOperationApprovedByOwner;\n\n\n   /* BNDES Fee percentage */\n    uint256 public bndesFee;    \n\n    string public DISBURSEMENT_VERIFICATION = \"DISBURSEMENT_VERIFICATION\";\n    string public PAY_SUPPLIER_VERIFICATION = \"PAY_SUPPLIER_VERIFICATION\";\n\n//precisa ser uma em especial ou pode ficar no mesmo bolo das intervencoes manuais?\n//    string public RETURN_FROM_CLIENT_TO_BNDES_VERIFICATION = \"RETURN_FROM_CLIENT_TO_BNDES_VERIFICATION\";\n\n    string public MANUAL_INTERVENTION = \"MANUAL_INTERVENTION\";\n\n\n    uint8 public RESERVED_NO_ADDITIONAL_FIELD_TO_HASH = 0;\n\n     using SafeMath for uint;\n   \n\n//TODO: rever eventos para BNDES Transparente\n    event FA_Disbursement  (uint idClient, string idFinancialSupportAgreement, uint amount);\n    event FA_TokenTransfer (uint fromCnpj, string fromIdFinancialSupportAgreement, uint toCnpj, uint amount);\n    event FA_RedemptionRequested (uint idClaimer, uint amount);\n    event FA_RedemptionSettlement(string redemptionTransactionHash, string receiptHash);\n\n    event FA_DonationBooked(uint idDonor, uint amount, uint tokenToBeMinted);\n    event FA_DonationConfirmed(string idDonor, uint amount, string receiptHash);\n\n //   event FAB_ManualIntervention_Returned_Client_BNDES (uint fromId, string idFinancialSupportAgreement, uint amount);\n    event FA_ManualIntervention_Fee(uint256 percent, string description);\n\n    event FA_DonorAdded(uint id);\n    event FA_ClientAdded(uint id);\n    event FA_SupplierAdded(uint id);\n\n\n    constructor (uint fee) public {\n        require (fee < 100, \"Valor de Fee maior que 100%\");\n        bndesFee = fee;\n    }\n\n    function setBNDESFee(uint256 newBndesFee, string memory description) public onlyOwner {\n        require (newBndesFee < 100, \"Valor de Fee maior que 100%\");\n        bndesFee = newBndesFee;\n        emit FA_ManualIntervention_Fee(newBndesFee, description);\n    }\n\n    function addDonor (uint idDonor) public onlyOwner {\n        require(registry.isValidatedId(idDonor), \"Conta de doador precisa estar com cadastro validado\");\n        if(!donors[idDonor]) {\n            donors[idDonor] = true;\n            emit FA_DonorAdded(idDonor);\n        }\n    }\n\n    /* Donor books a donation */\n    function bookDonation(uint amount) public whenNotPaused  {        \n        \n        uint idDonor = registry.getId(msg.sender);\n\n        require (donors[idDonor], \"Somente doadores podem fazer doaes\");\n        require(registry.isValidatedId(idDonor), \"Conta de doador precisa estar com cadastro validado\");\n        \n        bytes32 specificHash = keccak256(abi.encodePacked(RESERVED_NO_ADDITIONAL_FIELD_TO_HASH));\n        uint tokenToBeMinted = amount.sub(amount.mul(bndesFee).div(100));\n\n        rbbToken.requestMint(specificHash, tokenToBeMinted);\n\n        emit FA_DonationBooked(idDonor, amount, tokenToBeMinted);\n    }\n    \n    /* confirms the donor's donation */\n    function verifyAndActForMint(bytes32 specificHash, uint amountMinted, string[] memory data,\n        string memory docHash) public whenNotPaused onlyRBBToken {\n\n        require (keccak256(abi.encodePacked(RESERVED_NO_ADDITIONAL_FIELD_TO_HASH))==specificHash, \"Erro no clculo do hash da doao\");\n\n        string memory idDonor = data[0];\n//        require (donors[idDonor], \"Somente doadores podem fazer doaes, registro estah incorreto\");\n\n//TODO: transformar de string para uint de forma a ter eventos soh com uint         \n        emit FA_DonationConfirmed(idDonor, amountMinted, docHash);\n\n    }\n\n    //*********** */\n\n\n    function getDisbusementData (string memory idFinancialSupportAgreement) public view\n        returns (bytes32, bytes32, string[] memory)  {\n\n        bytes32 fromHash = keccak256(abi.encodePacked(RESERVED_NO_ADDITIONAL_FIELD_TO_HASH));\n        bytes32 toHash = keccak256(abi.encodePacked(idFinancialSupportAgreement));\n\n        string[] memory data = new string[](2);\n        data[0] = DISBURSEMENT_VERIFICATION;\n        data[1] = idFinancialSupportAgreement;\n        return (fromHash, toHash, data);\n    }\n\n    function getPaySupplierData (string memory idFinancialSupportAgreement) public view\n            returns (bytes32, bytes32, string[] memory) {\n\n\n        bytes32 fromHash = keccak256(abi.encodePacked(idFinancialSupportAgreement));\n        bytes32 toHash = keccak256(abi.encodePacked(RESERVED_NO_ADDITIONAL_FIELD_TO_HASH));\n\n        string[] memory data = new string[](2);\n        data[0] = PAY_SUPPLIER_VERIFICATION;\n        data[1] = idFinancialSupportAgreement;\n        return (fromHash, toHash, data);\n    }\n\n\n    function getRedeemData () public \n            returns (bytes32, string[] memory) {\n\n        bytes32 fromHash = keccak256(abi.encodePacked(RESERVED_NO_ADDITIONAL_FIELD_TO_HASH));\n\n        string[] memory data = new string[](0);\n        return (fromHash, data);\n    }\n\n    //*********** */\n\n    function verifyAndActForTransfer(uint fromId, bytes32 fromHash, uint toId, bytes32 toHash, \n            uint amount, string[] memory data) public whenNotPaused onlyRBBToken {\n\n        string memory specificMethod = data[0];\n\n        require (amount>0, \"Valor a ser transacionado deve ser maior do que zero.\");\n\n\n        if (RBBLib.isEqual(DISBURSEMENT_VERIFICATION, specificMethod)) {\n            verifyAndActForTransfer_DISBURSEMENT(fromId, fromHash, toId, toHash, amount, data);\n        }\n        else if (RBBLib.isEqual(PAY_SUPPLIER_VERIFICATION, specificMethod)) {\n            verifyAndActForTransfer_PAY_SUPPLIER(fromId, fromHash, toId, toHash, amount, data);\n        }\n//TODO: incluir intervencao manual. Owner do contrato aprova uma transferencia e o dono da carteira a executa?\n        else {\n            require (false, \"Nenhuma verificao especfica encontrada para a transferncia\");\n        }\n\n    }\n\n    function verifyAndActForTransfer_DISBURSEMENT(uint fromId, bytes32 fromHash, uint toId, bytes32 toHash, \n            uint amount, string[] memory data) internal whenNotPaused {\n    \n        string memory idFinancialSupportAgreement = data[1];\n        uint ownerId = registry.getId(owner());\n\n        //Essa eh uma regra especifica visto que outra organizacao pode ter recebido o token no allocate.\n        require (fromId == ownerId, \"Responsvel pela liberao de recursos no est correto\");\n        require (keccak256(abi.encodePacked(RESERVED_NO_ADDITIONAL_FIELD_TO_HASH))==fromHash, \"Erro no clculo do hash da conta do BNDES\");\n        require (keccak256(abi.encodePacked(idFinancialSupportAgreement))==toHash, \"Erro no clculo do hash da conta do cliente\");\n\n        if (!clients[toId][idFinancialSupportAgreement]) {\n            clients[toId][idFinancialSupportAgreement] = true; //register the client\n            emit FA_ClientAdded(toId);\n\n        }\n\n        emit FA_Disbursement (toId, idFinancialSupportAgreement, amount);\n\n    }\n\n    function verifyAndActForTransfer_PAY_SUPPLIER(uint fromId, bytes32 fromHash, uint toId, bytes32 toHash, \n            uint amount, string[] memory data) internal whenNotPaused {\n    \n        string memory idFinancialSupportAgreement = data[1];\n\n        require (clients[fromId][idFinancialSupportAgreement], \"Somente clientes em contratos cadastrados podem executar o pagamento\");\n        require (keccak256(abi.encodePacked(idFinancialSupportAgreement))==fromHash, \"Erro no clculo do hash da conta do cliente\");\n        require (keccak256(abi.encodePacked(RESERVED_NO_ADDITIONAL_FIELD_TO_HASH))==fromHash, \"Erro no clculo do hash da conta do fornecedor\");\n\n        require(fromId != toId,\n            \"Um CNPJ no pode transferir token para si, ainda que em papis distintos (Cliente/Fornecedor)\");\n\n        if (!suppliers[toId]) {\n            suppliers[toId] = true; //register the supplier\n            emit FA_SupplierAdded(fromId);\n        }\n\n        emit FA_TokenTransfer (fromId, idFinancialSupportAgreement, toId, amount);\n\n    }\n    function verifyAndActForRedeem(uint fromId, bytes32 fromHash, uint amount, string[] memory data) \n        public whenNotPaused onlyRBBToken {\n\n        require (amount>0, \"Valor a ser transacionado deve ser maior do que zero.\");\n        require (suppliers[fromId], \"Somente fornecedores podem executar o pagamento\");\n        require (keccak256(abi.encodePacked(RESERVED_NO_ADDITIONAL_FIELD_TO_HASH))==fromHash, \"Erro no clculo do hash da conta do fornecedor\");\n\n        emit FA_RedemptionRequested (fromId, amount);\n\n    }\n\n    function verifyAndActForRedemptionSettlement(string memory redemptionTransactionHash, string memory receiptHash, \n        string[] memory data)\n        public whenNotPaused onlyRBBToken {\n\n        emit FA_RedemptionSettlement (redemptionTransactionHash, receiptHash);\n    }\n\n    modifier onlyRBBToken() {\n        require (msg.sender==address(rbbToken), \"Esse mtodo s pode ser chamado pelo RBB_Token\");\n        _;\n    }\n\n    \n    //*********** MANUAL INTERVENTION  */\n\n    function addManualInterventionRegistry (uint fromId, bytes32 fromHash, uint toId, bytes32 toHash, \n            uint amount) public onlyOwner {\n        \n        //TODO: verificar from e to sao parte do contrato especifico\n\n        bytes32 m = keccak256(abi.encodePacked(fromId, fromHash, toId, toHash, amount));\n        hashManualInterventionOperationApprovedByOwner.push(m);\n\n        //TODO: incluir evento\n        //TODO: criar acao intervencao manual\n    }\n   \n/*\n    function getReturnedClientToBNDESData (string memory idFinancialSupportAgreement) public \n        returns (bytes32, bytes32, string[] memory) {\n\n        bytes32 fromHash = keccak256(abi.encodePacked(idFinancialSupportAgreement));\n        bytes32 toHash = keccak256(abi.encodePacked(RESERVED_NO_ADDITIONAL_FIELD_TO_HASH));\n\n        string[] memory data = new string[](2);\n        data[0] = RETURN_FROM_CLIENT_TO_BNDES_VERIFICATION;\n        data[1] = idFinancialSupportAgreement;\n        return (fromHash, toHash, data);\n    }\n*/   \n\n/*    \n//TODO: incluir no metodo publico, tratar como caso geral de tratamento de erros ou nao?\n    function verifyAndActForTransfer_RETURN_CLIENT_BNDES(uint fromId, bytes32 fromHash, uint toId, bytes32 toHash, \n            uint amount, string[] memory data) internal whenNotPaused {\n    \n        string memory idFinancialSupportAgreement = data[1];\n\n        require (clients[fromId][idFinancialSupportAgreement], \"Somente clientes em contratos cadastrados podem executar o retorno de recursos\");\n        require (keccak256(abi.encodePacked(idFinancialSupportAgreement))==fromHash, \"Erro no clculo do hash da conta do cliente\");\n        require (keccak256(abi.encodePacked(RESERVED_NO_ADDITIONAL_FIELD_TO_HASH))==fromHash, \"Erro no clculo do hash da conta do BNDES\");\n\n        emit FA_ManualIntervention_Returned_Client_BNDES (fromId, idFinancialSupportAgreement, amount);\n\n    }\n*/\n\n   //get hashs  \n}",
  "sourcePath": "/Users/suzana.moreno/workspace/rbb-token/Back-Blockchain/contracts/FABndesToken.sol",
  "compiler": {
    "name": "solc",
    "version": "0.5.16+commit.9c3226ce.Emscripten.clang"
  },
  "schemaVersion": "3.0.23",
  "updatedAt": "2020-09-17T17:24:15.503Z",
  "devdoc": {
    "methods": {
      "isOwner()": {
        "details": "Returns true if the caller is the current owner."
      },
      "owner()": {
        "details": "Returns the address of the current owner."
      },
      "pause()": {
        "details": "Called by a pauser to pause, triggers stopped state."
      },
      "paused()": {
        "details": "Returns true if the contract is paused, and false otherwise."
      },
      "renounceOwnership()": {
        "details": "Leaves the contract without owner. It will not be possible to call `onlyOwner` functions anymore. Can only be called by the current owner.     * NOTE: Renouncing ownership will leave the contract without an owner, thereby removing any functionality that is only available to the owner."
      },
      "transferOwnership(address)": {
        "details": "Transfers ownership of the contract to a new account (`newOwner`). Can only be called by the current owner."
      },
      "unpause()": {
        "details": "Called by a pauser to unpause, returns to normal state."
      }
    }
  },
  "userdoc": {
    "methods": {}
  }
}