{
  "contractName": "FABndesToken_BNDESRoles",
  "abi": [
    {
      "inputs": [
        {
          "internalType": "address",
          "name": "newRegistryAddr",
          "type": "address"
        }
      ],
      "stateMutability": "nonpayable",
      "type": "constructor"
    },
    {
      "anonymous": false,
      "inputs": [
        {
          "indexed": false,
          "internalType": "address",
          "name": "account",
          "type": "address"
        },
        {
          "indexed": false,
          "internalType": "uint8",
          "name": "eventType",
          "type": "uint8"
        }
      ],
      "name": "FA_ManualIntervention_RoleOrAddress",
      "type": "event"
    },
    {
      "anonymous": false,
      "inputs": [
        {
          "indexed": true,
          "internalType": "address",
          "name": "previousOwner",
          "type": "address"
        },
        {
          "indexed": true,
          "internalType": "address",
          "name": "newOwner",
          "type": "address"
        }
      ],
      "name": "OwnershipTransferred",
      "type": "event"
    },
    {
      "inputs": [],
      "name": "isOwner",
      "outputs": [
        {
          "internalType": "bool",
          "name": "",
          "type": "bool"
        }
      ],
      "stateMutability": "view",
      "type": "function",
      "constant": true
    },
    {
      "inputs": [],
      "name": "owner",
      "outputs": [
        {
          "internalType": "address",
          "name": "",
          "type": "address"
        }
      ],
      "stateMutability": "view",
      "type": "function",
      "constant": true
    },
    {
      "inputs": [],
      "name": "registry",
      "outputs": [
        {
          "internalType": "contract RBBRegistry",
          "name": "",
          "type": "address"
        }
      ],
      "stateMutability": "view",
      "type": "function",
      "constant": true
    },
    {
      "inputs": [],
      "name": "renounceOwnership",
      "outputs": [],
      "stateMutability": "nonpayable",
      "type": "function"
    },
    {
      "inputs": [],
      "name": "responsibleForDisbursement",
      "outputs": [
        {
          "internalType": "address",
          "name": "",
          "type": "address"
        }
      ],
      "stateMutability": "view",
      "type": "function",
      "constant": true
    },
    {
      "inputs": [],
      "name": "responsibleForInitialAllocation",
      "outputs": [
        {
          "internalType": "address",
          "name": "",
          "type": "address"
        }
      ],
      "stateMutability": "view",
      "type": "function",
      "constant": true
    },
    {
      "inputs": [],
      "name": "resposibleForApproveExtraordinaryTransfers",
      "outputs": [
        {
          "internalType": "address",
          "name": "",
          "type": "address"
        }
      ],
      "stateMutability": "view",
      "type": "function",
      "constant": true
    },
    {
      "inputs": [
        {
          "internalType": "address",
          "name": "newOwner",
          "type": "address"
        }
      ],
      "name": "transferOwnership",
      "outputs": [],
      "stateMutability": "nonpayable",
      "type": "function"
    },
    {
      "inputs": [
        {
          "internalType": "address",
          "name": "rs",
          "type": "address"
        }
      ],
      "name": "setResponsibleForInitialAllocation",
      "outputs": [],
      "stateMutability": "nonpayable",
      "type": "function"
    },
    {
      "inputs": [
        {
          "internalType": "address",
          "name": "rs",
          "type": "address"
        }
      ],
      "name": "setResponsibleForDisbursement",
      "outputs": [],
      "stateMutability": "nonpayable",
      "type": "function"
    },
    {
      "inputs": [
        {
          "internalType": "address",
          "name": "rs",
          "type": "address"
        }
      ],
      "name": "setResposibleForApproveExtraordinaryTransfers",
      "outputs": [],
      "stateMutability": "nonpayable",
      "type": "function"
    }
  ],
  "bytecode": "0x608060405234801561001057600080fd5b506040516113773803806113778339818101604052602081101561003357600080fd5b810190808051906020019092919050505060006100546101fc60201b60201c565b9050806000806101000a81548173ffffffffffffffffffffffffffffffffffffffff021916908373ffffffffffffffffffffffffffffffffffffffff1602179055508073ffffffffffffffffffffffffffffffffffffffff16600073ffffffffffffffffffffffffffffffffffffffff167f8be0079c531659141344cd1fd0a4f28419497f9722a3daafe3b4186f6b6457e060405160405180910390a35080600160006101000a81548173ffffffffffffffffffffffffffffffffffffffff021916908373ffffffffffffffffffffffffffffffffffffffff16021790555033600260006101000a81548173ffffffffffffffffffffffffffffffffffffffff021916908373ffffffffffffffffffffffffffffffffffffffff16021790555033600360006101000a81548173ffffffffffffffffffffffffffffffffffffffff021916908373ffffffffffffffffffffffffffffffffffffffff16021790555033600460006101000a81548173ffffffffffffffffffffffffffffffffffffffff021916908373ffffffffffffffffffffffffffffffffffffffff16021790555050610204565b600033905090565b611164806102136000396000f3fe608060405234801561001057600080fd5b50600436106100a95760003560e01c80638cabf128116100715780638cabf128146101985780638da5cb5b146101cc5780638f32d59b1461020057806390e42c7e146102205780639a96005214610264578063f2fde38b146102a8576100a9565b80630b2e8fe9146100ae578063329afd3a146100e25780633879b63614610116578063715018a61461015a5780637b10399914610164575b600080fd5b6100b66102ec565b604051808273ffffffffffffffffffffffffffffffffffffffff16815260200191505060405180910390f35b6100ea610312565b604051808273ffffffffffffffffffffffffffffffffffffffff16815260200191505060405180910390f35b6101586004803603602081101561012c57600080fd5b81019080803573ffffffffffffffffffffffffffffffffffffffff169060200190929190505050610338565b005b610162610637565b005b61016c61076f565b604051808273ffffffffffffffffffffffffffffffffffffffff16815260200191505060405180910390f35b6101a0610795565b604051808273ffffffffffffffffffffffffffffffffffffffff16815260200191505060405180910390f35b6101d46107bb565b604051808273ffffffffffffffffffffffffffffffffffffffff16815260200191505060405180910390f35b6102086107e4565b60405180821515815260200191505060405180910390f35b6102626004803603602081101561023657600080fd5b81019080803573ffffffffffffffffffffffffffffffffffffffff169060200190929190505050610842565b005b6102a66004803603602081101561027a57600080fd5b81019080803573ffffffffffffffffffffffffffffffffffffffff169060200190929190505050610b41565b005b6102ea600480360360208110156102be57600080fd5b81019080803573ffffffffffffffffffffffffffffffffffffffff169060200190929190505050610e40565b005b600460009054906101000a900473ffffffffffffffffffffffffffffffffffffffff1681565b600260009054906101000a900473ffffffffffffffffffffffffffffffffffffffff1681565b6103406107e4565b6103b2576040517f08c379a00000000000000000000000000000000000000000000000000000000081526004018080602001828103825260208152602001807f4f776e61626c653a2063616c6c6572206973206e6f7420746865206f776e657281525060200191505060405180910390fd5b6000600160009054906101000a900473ffffffffffffffffffffffffffffffffffffffff1673ffffffffffffffffffffffffffffffffffffffff166365f68c89836040518263ffffffff1660e01b8152600401808273ffffffffffffffffffffffffffffffffffffffff16815260200191505060206040518083038186803b15801561043d57600080fd5b505afa158015610451573d6000803e3d6000fd5b505050506040513d602081101561046757600080fd5b81019080805190602001909291905050509050600160009054906101000a900473ffffffffffffffffffffffffffffffffffffffff1673ffffffffffffffffffffffffffffffffffffffff166365f68c896104c06107bb565b6040518263ffffffff1660e01b8152600401808273ffffffffffffffffffffffffffffffffffffffff16815260200191505060206040518083038186803b15801561050a57600080fd5b505afa15801561051e573d6000803e3d6000fd5b505050506040513d602081101561053457600080fd5b8101908080519060200190929190505050811461059c576040517f08c379a000000000000000000000000000000000000000000000000000000000815260040180806020018281038252604b815260200180611012604b913960600191505060405180910390fd5b81600260006101000a81548173ffffffffffffffffffffffffffffffffffffffff021916908373ffffffffffffffffffffffffffffffffffffffff1602179055507f3e3119fbec468368c03e4732985b5a3f373d3a8b8ad5cc0f820357687349b63d826001604051808373ffffffffffffffffffffffffffffffffffffffff1681526020018281526020019250505060405180910390a15050565b61063f6107e4565b6106b1576040517f08c379a00000000000000000000000000000000000000000000000000000000081526004018080602001828103825260208152602001807f4f776e61626c653a2063616c6c6572206973206e6f7420746865206f776e657281525060200191505060405180910390fd5b600073ffffffffffffffffffffffffffffffffffffffff1660008054906101000a900473ffffffffffffffffffffffffffffffffffffffff1673ffffffffffffffffffffffffffffffffffffffff167f8be0079c531659141344cd1fd0a4f28419497f9722a3daafe3b4186f6b6457e060405160405180910390a360008060006101000a81548173ffffffffffffffffffffffffffffffffffffffff021916908373ffffffffffffffffffffffffffffffffffffffff160217905550565b600160009054906101000a900473ffffffffffffffffffffffffffffffffffffffff1681565b600360009054906101000a900473ffffffffffffffffffffffffffffffffffffffff1681565b60008060009054906101000a900473ffffffffffffffffffffffffffffffffffffffff16905090565b60008060009054906101000a900473ffffffffffffffffffffffffffffffffffffffff1673ffffffffffffffffffffffffffffffffffffffff16610826610ec6565b73ffffffffffffffffffffffffffffffffffffffff1614905090565b61084a6107e4565b6108bc576040517f08c379a00000000000000000000000000000000000000000000000000000000081526004018080602001828103825260208152602001807f4f776e61626c653a2063616c6c6572206973206e6f7420746865206f776e657281525060200191505060405180910390fd5b6000600160009054906101000a900473ffffffffffffffffffffffffffffffffffffffff1673ffffffffffffffffffffffffffffffffffffffff166365f68c89836040518263ffffffff1660e01b8152600401808273ffffffffffffffffffffffffffffffffffffffff16815260200191505060206040518083038186803b15801561094757600080fd5b505afa15801561095b573d6000803e3d6000fd5b505050506040513d602081101561097157600080fd5b81019080805190602001909291905050509050600160009054906101000a900473ffffffffffffffffffffffffffffffffffffffff1673ffffffffffffffffffffffffffffffffffffffff166365f68c896109ca6107bb565b6040518263ffffffff1660e01b8152600401808273ffffffffffffffffffffffffffffffffffffffff16815260200191505060206040518083038186803b158015610a1457600080fd5b505afa158015610a28573d6000803e3d6000fd5b505050506040513d6020811015610a3e57600080fd5b81019080805190602001909291905050508114610aa6576040517f08c379a00000000000000000000000000000000000000000000000000000000081526004018080602001828103825260438152602001806110ec6043913960600191505060405180910390fd5b81600360006101000a81548173ffffffffffffffffffffffffffffffffffffffff021916908373ffffffffffffffffffffffffffffffffffffffff1602179055507f3e3119fbec468368c03e4732985b5a3f373d3a8b8ad5cc0f820357687349b63d826002604051808373ffffffffffffffffffffffffffffffffffffffff1681526020018281526020019250505060405180910390a15050565b610b496107e4565b610bbb576040517f08c379a00000000000000000000000000000000000000000000000000000000081526004018080602001828103825260208152602001807f4f776e61626c653a2063616c6c6572206973206e6f7420746865206f776e657281525060200191505060405180910390fd5b6000600160009054906101000a900473ffffffffffffffffffffffffffffffffffffffff1673ffffffffffffffffffffffffffffffffffffffff166365f68c89836040518263ffffffff1660e01b8152600401808273ffffffffffffffffffffffffffffffffffffffff16815260200191505060206040518083038186803b158015610c4657600080fd5b505afa158015610c5a573d6000803e3d6000fd5b505050506040513d6020811015610c7057600080fd5b81019080805190602001909291905050509050600160009054906101000a900473ffffffffffffffffffffffffffffffffffffffff1673ffffffffffffffffffffffffffffffffffffffff166365f68c89610cc96107bb565b6040518263ffffffff1660e01b8152600401808273ffffffffffffffffffffffffffffffffffffffff16815260200191505060206040518083038186803b158015610d1357600080fd5b505afa158015610d27573d6000803e3d6000fd5b505050506040513d6020811015610d3d57600080fd5b81019080805190602001909291905050508114610da5576040517f08c379a00000000000000000000000000000000000000000000000000000000081526004018080602001828103825260698152602001806110836069913960800191505060405180910390fd5b81600460006101000a81548173ffffffffffffffffffffffffffffffffffffffff021916908373ffffffffffffffffffffffffffffffffffffffff1602179055507f3e3119fbec468368c03e4732985b5a3f373d3a8b8ad5cc0f820357687349b63d826003604051808373ffffffffffffffffffffffffffffffffffffffff1681526020018281526020019250505060405180910390a15050565b610e486107e4565b610eba576040517f08c379a00000000000000000000000000000000000000000000000000000000081526004018080602001828103825260208152602001807f4f776e61626c653a2063616c6c6572206973206e6f7420746865206f776e657281525060200191505060405180910390fd5b610ec381610ece565b50565b600033905090565b600073ffffffffffffffffffffffffffffffffffffffff168173ffffffffffffffffffffffffffffffffffffffff161415610f54576040517f08c379a000000000000000000000000000000000000000000000000000000000815260040180806020018281038252602681526020018061105d6026913960400191505060405180910390fd5b8073ffffffffffffffffffffffffffffffffffffffff1660008054906101000a900473ffffffffffffffffffffffffffffffffffffffff1673ffffffffffffffffffffffffffffffffffffffff167f8be0079c531659141344cd1fd0a4f28419497f9722a3daafe3b4186f6b6457e060405160405180910390a3806000806101000a81548173ffffffffffffffffffffffffffffffffffffffff021916908373ffffffffffffffffffffffffffffffffffffffff1602179055505056fe4f20726573706f6e73c3a176656c2070656c6120616c6f6361c3a7c3a36f20696e696369616c206465766520736572206461206d65736d6f205242425f494420646f20636f6e747261746f4f776e61626c653a206e6577206f776e657220697320746865207a65726f20616464726573734f20726573706f6e73c3a176656c2070656c6f2063616461737472616d656e746f206465207472616e73666572656e636961732065787472616f7264696ec3a172696173206465766520736572206461206d65736d6f205242425f494420646f20636f6e747261746f4f20726573706f6e73c3a176656c2070656c6f20646573656d626f6c736f206465766520736572206461206d65736d6f205242425f494420646f20636f6e747261746fa2646970667358221220ef3b03e8b371f11390aa160c171db12a9a825eafc4832fc09e83c92e50874d6f64736f6c634300060c0033",
  "immutableReferences": {},
  "source": "pragma solidity ^0.6.0;\n\nimport \"./RBBRegistry.sol\";\nimport \"@openzeppelin/contracts/ownership/Ownable.sol\";\n\n\ncontract FABndesToken_BNDESRoles is Ownable {\n\n    RBBRegistry public registry;\n\n    address public responsibleForInitialAllocation;\n    address public responsibleForDisbursement;\n    address public resposibleForApproveExtraordinaryTransfers;\n\n    event FA_ManualIntervention_RoleOrAddress(address account, uint8 eventType);\n\n    constructor (address newRegistryAddr) public {\n\n        registry = RBBRegistry(newRegistryAddr);\n\n        responsibleForInitialAllocation = msg.sender;\n        responsibleForDisbursement = msg.sender;\n        resposibleForApproveExtraordinaryTransfers = msg.sender;\n\n    } \n\n    function setResponsibleForInitialAllocation(address rs) onlyOwner public {\n        uint id = registry.getId(rs);\n        require(id==registry.getId(owner()), \"O responsável pela alocação inicial deve ser da mesmo RBB_ID do contrato\");\n        responsibleForInitialAllocation = rs;\n        emit FA_ManualIntervention_RoleOrAddress(rs, 1);\n    }\n\n    function setResponsibleForDisbursement(address rs) onlyOwner public {\n        uint id = registry.getId(rs);\n        require(id==registry.getId(owner()), \"O responsável pelo desembolso deve ser da mesmo RBB_ID do contrato\");\n        responsibleForDisbursement = rs;\n        emit FA_ManualIntervention_RoleOrAddress(rs, 2);\n    }\n\n    function setResposibleForApproveExtraordinaryTransfers(address rs) onlyOwner public {\n        uint id = registry.getId(rs);\n        require(id==registry.getId(owner()), \"O responsável pelo cadastramento de transferencias extraordinárias deve ser da mesmo RBB_ID do contrato\");\n        resposibleForApproveExtraordinaryTransfers = rs;\n        emit FA_ManualIntervention_RoleOrAddress(rs, 3);\n    }\n\n}",
  "sourcePath": "/Users/suzana.moreno/workspace/rbb-token/Back-Blockchain/contracts/FABndesToken_BNDESRoles.sol",
  "compiler": {
    "name": "solc",
    "version": "0.6.12+commit.27d51765.Emscripten.clang"
  },
  "schemaVersion": "3.2.5",
  "updatedAt": "2020-09-28T15:36:04.239Z",
  "networkType": "ethereum",
  "devdoc": {
    "kind": "dev",
    "methods": {
      "isOwner()": {
        "details": "Returns true if the caller is the current owner."
      },
      "owner()": {
        "details": "Returns the address of the current owner."
      },
      "renounceOwnership()": {
        "details": "Leaves the contract without owner. It will not be possible to call `onlyOwner` functions anymore. Can only be called by the current owner. NOTE: Renouncing ownership will leave the contract without an owner, thereby removing any functionality that is only available to the owner."
      },
      "transferOwnership(address)": {
        "details": "Transfers ownership of the contract to a new account (`newOwner`). Can only be called by the current owner."
      }
    },
    "version": 1
  },
  "userdoc": {
    "kind": "user",
    "methods": {},
    "version": 1
  }
}