{
  "contractName": "FABndesToken",
  "abi": [
    {
      "inputs": [
        {
          "internalType": "uint256",
          "name": "fee",
          "type": "uint256"
        }
      ],
      "stateMutability": "nonpayable",
      "type": "constructor"
    },
    {
      "anonymous": false,
      "inputs": [
        {
          "indexed": false,
          "internalType": "uint256",
          "name": "toCnpj",
          "type": "uint256"
        },
        {
          "indexed": false,
          "internalType": "uint256",
          "name": "amount",
          "type": "uint256"
        },
        {
          "indexed": false,
          "internalType": "bytes32",
          "name": "docHash",
          "type": "bytes32"
        }
      ],
      "name": "FA_BNDES_TokenTransfer",
      "type": "event"
    },
    {
      "anonymous": false,
      "inputs": [
        {
          "indexed": false,
          "internalType": "uint256",
          "name": "id",
          "type": "uint256"
        }
      ],
      "name": "FA_ClientAdded",
      "type": "event"
    },
    {
      "anonymous": false,
      "inputs": [
        {
          "indexed": false,
          "internalType": "uint256",
          "name": "idClient",
          "type": "uint256"
        },
        {
          "indexed": false,
          "internalType": "string",
          "name": "idFinancialSupportAgreement",
          "type": "string"
        },
        {
          "indexed": false,
          "internalType": "uint256",
          "name": "amount",
          "type": "uint256"
        },
        {
          "indexed": false,
          "internalType": "bytes32",
          "name": "docHash",
          "type": "bytes32"
        }
      ],
      "name": "FA_Disbursement",
      "type": "event"
    },
    {
      "anonymous": false,
      "inputs": [
        {
          "indexed": false,
          "internalType": "uint256",
          "name": "idDonor",
          "type": "uint256"
        },
        {
          "indexed": false,
          "internalType": "uint256",
          "name": "amount",
          "type": "uint256"
        },
        {
          "indexed": false,
          "internalType": "bytes32",
          "name": "docHash",
          "type": "bytes32"
        }
      ],
      "name": "FA_DonationBooked",
      "type": "event"
    },
    {
      "anonymous": false,
      "inputs": [
        {
          "indexed": false,
          "internalType": "uint256",
          "name": "idDonor",
          "type": "uint256"
        },
        {
          "indexed": false,
          "internalType": "uint256",
          "name": "amount",
          "type": "uint256"
        },
        {
          "indexed": false,
          "internalType": "bytes32",
          "name": "docHash",
          "type": "bytes32"
        }
      ],
      "name": "FA_DonationConfirmed",
      "type": "event"
    },
    {
      "anonymous": false,
      "inputs": [
        {
          "indexed": false,
          "internalType": "uint256",
          "name": "id",
          "type": "uint256"
        }
      ],
      "name": "FA_DonorAdded",
      "type": "event"
    },
    {
      "anonymous": false,
      "inputs": [
        {
          "indexed": false,
          "internalType": "uint256",
          "name": "fromId",
          "type": "uint256"
        },
        {
          "indexed": false,
          "internalType": "bytes32",
          "name": "fromHash",
          "type": "bytes32"
        },
        {
          "indexed": false,
          "internalType": "uint256",
          "name": "toId",
          "type": "uint256"
        },
        {
          "indexed": false,
          "internalType": "bytes32",
          "name": "toHash",
          "type": "bytes32"
        },
        {
          "indexed": false,
          "internalType": "uint256",
          "name": "amount",
          "type": "uint256"
        },
        {
          "indexed": false,
          "internalType": "bytes32",
          "name": "docHash",
          "type": "bytes32"
        }
      ],
      "name": "FA_ExtraordinaryTransferAllowed",
      "type": "event"
    },
    {
      "anonymous": false,
      "inputs": [
        {
          "indexed": false,
          "internalType": "uint256",
          "name": "fromId",
          "type": "uint256"
        },
        {
          "indexed": false,
          "internalType": "bytes32",
          "name": "fromHash",
          "type": "bytes32"
        },
        {
          "indexed": false,
          "internalType": "uint256",
          "name": "toId",
          "type": "uint256"
        },
        {
          "indexed": false,
          "internalType": "bytes32",
          "name": "toHash",
          "type": "bytes32"
        },
        {
          "indexed": false,
          "internalType": "uint256",
          "name": "amount",
          "type": "uint256"
        },
        {
          "indexed": false,
          "internalType": "bytes32",
          "name": "docHash",
          "type": "bytes32"
        }
      ],
      "name": "FA_ExtraordinaryTransferExecuted",
      "type": "event"
    },
    {
      "anonymous": false,
      "inputs": [
        {
          "indexed": false,
          "internalType": "uint256",
          "name": "amount",
          "type": "uint256"
        },
        {
          "indexed": false,
          "internalType": "bytes32",
          "name": "docHash",
          "type": "bytes32"
        }
      ],
      "name": "FA_InitialAllocation_Disbursements",
      "type": "event"
    },
    {
      "anonymous": false,
      "inputs": [
        {
          "indexed": false,
          "internalType": "uint256",
          "name": "amount",
          "type": "uint256"
        },
        {
          "indexed": false,
          "internalType": "bytes32",
          "name": "docHash",
          "type": "bytes32"
        }
      ],
      "name": "FA_InitialAllocation_Fee",
      "type": "event"
    },
    {
      "anonymous": false,
      "inputs": [
        {
          "indexed": false,
          "internalType": "uint256",
          "name": "percent",
          "type": "uint256"
        },
        {
          "indexed": false,
          "internalType": "bytes32",
          "name": "docHash",
          "type": "bytes32"
        }
      ],
      "name": "FA_ManualIntervention_Fee",
      "type": "event"
    },
    {
      "anonymous": false,
      "inputs": [
        {
          "indexed": false,
          "internalType": "address",
          "name": "account",
          "type": "address"
        },
        {
          "indexed": false,
          "internalType": "uint8",
          "name": "eventType",
          "type": "uint8"
        }
      ],
      "name": "FA_ManualIntervention_RoleOrAddress",
      "type": "event"
    },
    {
      "anonymous": false,
      "inputs": [
        {
          "indexed": false,
          "internalType": "uint256",
          "name": "idClaimer",
          "type": "uint256"
        },
        {
          "indexed": false,
          "internalType": "uint256",
          "name": "amount",
          "type": "uint256"
        },
        {
          "indexed": false,
          "internalType": "bytes32",
          "name": "docHash",
          "type": "bytes32"
        }
      ],
      "name": "FA_RedemptionRequested",
      "type": "event"
    },
    {
      "anonymous": false,
      "inputs": [
        {
          "indexed": false,
          "internalType": "bytes32",
          "name": "redemptionTransactionHash",
          "type": "bytes32"
        },
        {
          "indexed": false,
          "internalType": "bytes32",
          "name": "docHash",
          "type": "bytes32"
        }
      ],
      "name": "FA_RedemptionSettlement",
      "type": "event"
    },
    {
      "anonymous": false,
      "inputs": [
        {
          "indexed": false,
          "internalType": "uint256",
          "name": "registeredBy",
          "type": "uint256"
        },
        {
          "indexed": false,
          "internalType": "uint256",
          "name": "id",
          "type": "uint256"
        }
      ],
      "name": "FA_SupplierAdded",
      "type": "event"
    },
    {
      "anonymous": false,
      "inputs": [
        {
          "indexed": false,
          "internalType": "uint256",
          "name": "fromCnpj",
          "type": "uint256"
        },
        {
          "indexed": false,
          "internalType": "string",
          "name": "fromIdFinancialSupportAgreement",
          "type": "string"
        },
        {
          "indexed": false,
          "internalType": "uint256",
          "name": "toCnpj",
          "type": "uint256"
        },
        {
          "indexed": false,
          "internalType": "uint256",
          "name": "amount",
          "type": "uint256"
        },
        {
          "indexed": false,
          "internalType": "bytes32",
          "name": "docHash",
          "type": "bytes32"
        }
      ],
      "name": "FA_TokenTransfer",
      "type": "event"
    },
    {
      "anonymous": false,
      "inputs": [
        {
          "indexed": true,
          "internalType": "address",
          "name": "previousOwner",
          "type": "address"
        },
        {
          "indexed": true,
          "internalType": "address",
          "name": "newOwner",
          "type": "address"
        }
      ],
      "name": "OwnershipTransferred",
      "type": "event"
    },
    {
      "anonymous": false,
      "inputs": [
        {
          "indexed": false,
          "internalType": "address",
          "name": "account",
          "type": "address"
        }
      ],
      "name": "Paused",
      "type": "event"
    },
    {
      "anonymous": false,
      "inputs": [
        {
          "indexed": true,
          "internalType": "address",
          "name": "account",
          "type": "address"
        }
      ],
      "name": "PauserAdded",
      "type": "event"
    },
    {
      "anonymous": false,
      "inputs": [
        {
          "indexed": true,
          "internalType": "address",
          "name": "account",
          "type": "address"
        }
      ],
      "name": "PauserRemoved",
      "type": "event"
    },
    {
      "anonymous": false,
      "inputs": [
        {
          "indexed": false,
          "internalType": "address",
          "name": "account",
          "type": "address"
        }
      ],
      "name": "Unpaused",
      "type": "event"
    },
    {
      "inputs": [],
      "name": "BNDES_PAY_SUPPLIER_VERIFICATION",
      "outputs": [
        {
          "internalType": "string",
          "name": "",
          "type": "string"
        }
      ],
      "stateMutability": "view",
      "type": "function"
    },
    {
      "inputs": [],
      "name": "CLIENT_PAY_SUPPLIER_VERIFICATION",
      "outputs": [
        {
          "internalType": "string",
          "name": "",
          "type": "string"
        }
      ],
      "stateMutability": "view",
      "type": "function"
    },
    {
      "inputs": [],
      "name": "DISBURSEMENT_VERIFICATION",
      "outputs": [
        {
          "internalType": "string",
          "name": "",
          "type": "string"
        }
      ],
      "stateMutability": "view",
      "type": "function"
    },
    {
      "inputs": [],
      "name": "EXTRAORDINARY_TRANSFERS",
      "outputs": [
        {
          "internalType": "string",
          "name": "",
          "type": "string"
        }
      ],
      "stateMutability": "view",
      "type": "function"
    },
    {
      "inputs": [],
      "name": "INITIAL_ALLOCATION",
      "outputs": [
        {
          "internalType": "string",
          "name": "",
          "type": "string"
        }
      ],
      "stateMutability": "view",
      "type": "function"
    },
    {
      "inputs": [],
      "name": "RESERVED_BNDES_ADMIN_FEE_TO_HASH",
      "outputs": [
        {
          "internalType": "uint8",
          "name": "",
          "type": "uint8"
        }
      ],
      "stateMutability": "view",
      "type": "function"
    },
    {
      "inputs": [],
      "name": "RESERVED_MINTED_ACCOUNT",
      "outputs": [
        {
          "internalType": "uint8",
          "name": "",
          "type": "uint8"
        }
      ],
      "stateMutability": "view",
      "type": "function"
    },
    {
      "inputs": [],
      "name": "RESERVED_NO_ADDITIONAL_FIELDS_TO_DIFF_MONEY",
      "outputs": [
        {
          "internalType": "uint8",
          "name": "",
          "type": "uint8"
        }
      ],
      "stateMutability": "view",
      "type": "function"
    },
    {
      "inputs": [],
      "name": "RESERVED_NO_ADDITIONAL_FIELDS_TO_DONOR",
      "outputs": [
        {
          "internalType": "uint8",
          "name": "",
          "type": "uint8"
        }
      ],
      "stateMutability": "view",
      "type": "function"
    },
    {
      "inputs": [],
      "name": "RESERVED_NO_ADDITIONAL_FIELDS_TO_SUPPLIER",
      "outputs": [
        {
          "internalType": "uint8",
          "name": "",
          "type": "uint8"
        }
      ],
      "stateMutability": "view",
      "type": "function"
    },
    {
      "inputs": [],
      "name": "RESERVED_USUAL_DISBURSEMENTS_ACCOUNT",
      "outputs": [
        {
          "internalType": "uint8",
          "name": "",
          "type": "uint8"
        }
      ],
      "stateMutability": "view",
      "type": "function"
    },
    {
      "inputs": [
        {
          "internalType": "address",
          "name": "account",
          "type": "address"
        }
      ],
      "name": "addPauser",
      "outputs": [],
      "stateMutability": "nonpayable",
      "type": "function"
    },
    {
      "inputs": [],
      "name": "bndesFee",
      "outputs": [
        {
          "internalType": "uint256",
          "name": "",
          "type": "uint256"
        }
      ],
      "stateMutability": "view",
      "type": "function"
    },
    {
      "inputs": [
        {
          "internalType": "uint256",
          "name": "",
          "type": "uint256"
        },
        {
          "internalType": "string",
          "name": "",
          "type": "string"
        }
      ],
      "name": "clients",
      "outputs": [
        {
          "internalType": "bool",
          "name": "",
          "type": "bool"
        }
      ],
      "stateMutability": "view",
      "type": "function"
    },
    {
      "inputs": [
        {
          "internalType": "uint256",
          "name": "",
          "type": "uint256"
        }
      ],
      "name": "donors",
      "outputs": [
        {
          "internalType": "bool",
          "name": "",
          "type": "bool"
        }
      ],
      "stateMutability": "view",
      "type": "function"
    },
    {
      "inputs": [
        {
          "internalType": "uint256",
          "name": "",
          "type": "uint256"
        }
      ],
      "name": "hashApprovedExtraordinaryTransfers",
      "outputs": [
        {
          "internalType": "bytes32",
          "name": "",
          "type": "bytes32"
        }
      ],
      "stateMutability": "view",
      "type": "function"
    },
    {
      "inputs": [],
      "name": "isOwner",
      "outputs": [
        {
          "internalType": "bool",
          "name": "",
          "type": "bool"
        }
      ],
      "stateMutability": "view",
      "type": "function"
    },
    {
      "inputs": [
        {
          "internalType": "address",
          "name": "account",
          "type": "address"
        }
      ],
      "name": "isPauser",
      "outputs": [
        {
          "internalType": "bool",
          "name": "",
          "type": "bool"
        }
      ],
      "stateMutability": "view",
      "type": "function"
    },
    {
      "inputs": [],
      "name": "owner",
      "outputs": [
        {
          "internalType": "address",
          "name": "",
          "type": "address"
        }
      ],
      "stateMutability": "view",
      "type": "function"
    },
    {
      "inputs": [],
      "name": "pause",
      "outputs": [],
      "stateMutability": "nonpayable",
      "type": "function"
    },
    {
      "inputs": [],
      "name": "paused",
      "outputs": [
        {
          "internalType": "bool",
          "name": "",
          "type": "bool"
        }
      ],
      "stateMutability": "view",
      "type": "function"
    },
    {
      "inputs": [],
      "name": "rbbToken",
      "outputs": [
        {
          "internalType": "contract RBBToken",
          "name": "",
          "type": "address"
        }
      ],
      "stateMutability": "view",
      "type": "function"
    },
    {
      "inputs": [],
      "name": "registry",
      "outputs": [
        {
          "internalType": "contract RBBRegistry",
          "name": "",
          "type": "address"
        }
      ],
      "stateMutability": "view",
      "type": "function"
    },
    {
      "inputs": [],
      "name": "renounceOwnership",
      "outputs": [],
      "stateMutability": "nonpayable",
      "type": "function"
    },
    {
      "inputs": [],
      "name": "renouncePauser",
      "outputs": [],
      "stateMutability": "nonpayable",
      "type": "function"
    },
    {
      "inputs": [],
      "name": "responsibleForDisbursement",
      "outputs": [
        {
          "internalType": "address",
          "name": "",
          "type": "address"
        }
      ],
      "stateMutability": "view",
      "type": "function"
    },
    {
      "inputs": [],
      "name": "responsibleForInitialAllocation",
      "outputs": [
        {
          "internalType": "address",
          "name": "",
          "type": "address"
        }
      ],
      "stateMutability": "view",
      "type": "function"
    },
    {
      "inputs": [],
      "name": "resposibleForApproveExtraordinaryTransfers",
      "outputs": [
        {
          "internalType": "address",
          "name": "",
          "type": "address"
        }
      ],
      "stateMutability": "view",
      "type": "function"
    },
    {
      "inputs": [
        {
          "internalType": "address",
          "name": "newRegistryAddr",
          "type": "address"
        },
        {
          "internalType": "address",
          "name": "newrbbTokenAddr",
          "type": "address"
        }
      ],
      "name": "setInitializationDataDuringRegistration",
      "outputs": [],
      "stateMutability": "nonpayable",
      "type": "function"
    },
    {
      "inputs": [
        {
          "internalType": "uint256",
          "name": "",
          "type": "uint256"
        }
      ],
      "name": "suppliers",
      "outputs": [
        {
          "internalType": "bool",
          "name": "",
          "type": "bool"
        }
      ],
      "stateMutability": "view",
      "type": "function"
    },
    {
      "inputs": [
        {
          "internalType": "address",
          "name": "newOwner",
          "type": "address"
        }
      ],
      "name": "transferOwnership",
      "outputs": [],
      "stateMutability": "nonpayable",
      "type": "function"
    },
    {
      "inputs": [],
      "name": "unpause",
      "outputs": [],
      "stateMutability": "nonpayable",
      "type": "function"
    },
    {
      "inputs": [
        {
          "internalType": "uint256",
          "name": "newBndesFee",
          "type": "uint256"
        },
        {
          "internalType": "bytes32",
          "name": "docHash",
          "type": "bytes32"
        }
      ],
      "name": "setBNDESFee",
      "outputs": [],
      "stateMutability": "nonpayable",
      "type": "function"
    },
    {
      "inputs": [
        {
          "internalType": "uint256",
          "name": "idDonor",
          "type": "uint256"
        }
      ],
      "name": "addDonor",
      "outputs": [],
      "stateMutability": "nonpayable",
      "type": "function"
    },
    {
      "inputs": [
        {
          "internalType": "uint256",
          "name": "amount",
          "type": "uint256"
        },
        {
          "internalType": "bytes32",
          "name": "docHash",
          "type": "bytes32"
        }
      ],
      "name": "bookDonation",
      "outputs": [],
      "stateMutability": "nonpayable",
      "type": "function"
    },
    {
      "inputs": [
        {
          "internalType": "bytes32",
          "name": "specificHash",
          "type": "bytes32"
        },
        {
          "internalType": "uint256",
          "name": "amount",
          "type": "uint256"
        },
        {
          "internalType": "bytes32",
          "name": "docHash",
          "type": "bytes32"
        },
        {
          "internalType": "string[]",
          "name": "data",
          "type": "string[]"
        }
      ],
      "name": "verifyAndActForMint",
      "outputs": [],
      "stateMutability": "nonpayable",
      "type": "function"
    },
    {
      "inputs": [
        {
          "internalType": "bytes32",
          "name": "specificHash",
          "type": "bytes32"
        }
      ],
      "name": "getHashToMintedAccount",
      "outputs": [
        {
          "internalType": "bytes32",
          "name": "",
          "type": "bytes32"
        }
      ],
      "stateMutability": "nonpayable",
      "type": "function"
    },
    {
      "inputs": [],
      "name": "getInitialAllocationToDisbusementData",
      "outputs": [
        {
          "internalType": "bytes32",
          "name": "",
          "type": "bytes32"
        },
        {
          "internalType": "bytes32",
          "name": "",
          "type": "bytes32"
        },
        {
          "internalType": "string[]",
          "name": "",
          "type": "string[]"
        }
      ],
      "stateMutability": "view",
      "type": "function"
    },
    {
      "inputs": [],
      "name": "getInitialAllocationToChargeFeeData",
      "outputs": [
        {
          "internalType": "bytes32",
          "name": "",
          "type": "bytes32"
        },
        {
          "internalType": "bytes32",
          "name": "",
          "type": "bytes32"
        },
        {
          "internalType": "string[]",
          "name": "",
          "type": "string[]"
        }
      ],
      "stateMutability": "view",
      "type": "function"
    },
    {
      "inputs": [
        {
          "internalType": "string",
          "name": "idFinancialSupportAgreement",
          "type": "string"
        }
      ],
      "name": "getDisbusementData",
      "outputs": [
        {
          "internalType": "bytes32",
          "name": "",
          "type": "bytes32"
        },
        {
          "internalType": "bytes32",
          "name": "",
          "type": "bytes32"
        },
        {
          "internalType": "string[]",
          "name": "",
          "type": "string[]"
        }
      ],
      "stateMutability": "view",
      "type": "function"
    },
    {
      "inputs": [
        {
          "internalType": "string",
          "name": "idFinancialSupportAgreement",
          "type": "string"
        }
      ],
      "name": "getClientPaySupplierData",
      "outputs": [
        {
          "internalType": "bytes32",
          "name": "",
          "type": "bytes32"
        },
        {
          "internalType": "bytes32",
          "name": "",
          "type": "bytes32"
        },
        {
          "internalType": "string[]",
          "name": "",
          "type": "string[]"
        }
      ],
      "stateMutability": "view",
      "type": "function"
    },
    {
      "inputs": [],
      "name": "getBNDESPaySupplierData",
      "outputs": [
        {
          "internalType": "bytes32",
          "name": "",
          "type": "bytes32"
        },
        {
          "internalType": "bytes32",
          "name": "",
          "type": "bytes32"
        },
        {
          "internalType": "string[]",
          "name": "",
          "type": "string[]"
        }
      ],
      "stateMutability": "view",
      "type": "function"
    },
    {
      "inputs": [],
      "name": "getRedeemData",
      "outputs": [
        {
          "internalType": "bytes32",
          "name": "",
          "type": "bytes32"
        },
        {
          "internalType": "string[]",
          "name": "",
          "type": "string[]"
        }
      ],
      "stateMutability": "nonpayable",
      "type": "function"
    },
    {
      "inputs": [
        {
          "internalType": "address",
          "name": "originalSender",
          "type": "address"
        },
        {
          "internalType": "uint256",
          "name": "fromId",
          "type": "uint256"
        },
        {
          "internalType": "bytes32",
          "name": "fromHash",
          "type": "bytes32"
        },
        {
          "internalType": "uint256",
          "name": "toId",
          "type": "uint256"
        },
        {
          "internalType": "bytes32",
          "name": "toHash",
          "type": "bytes32"
        },
        {
          "internalType": "uint256",
          "name": "amount",
          "type": "uint256"
        },
        {
          "internalType": "bytes32",
          "name": "docHash",
          "type": "bytes32"
        },
        {
          "internalType": "string[]",
          "name": "data",
          "type": "string[]"
        }
      ],
      "name": "verifyAndActForTransfer",
      "outputs": [],
      "stateMutability": "nonpayable",
      "type": "function"
    },
    {
      "inputs": [
        {
          "internalType": "uint256",
          "name": "id",
          "type": "uint256"
        }
      ],
      "name": "addSupplier",
      "outputs": [],
      "stateMutability": "nonpayable",
      "type": "function"
    },
    {
      "inputs": [
        {
          "internalType": "address",
          "name": "originalSender",
          "type": "address"
        },
        {
          "internalType": "uint256",
          "name": "fromId",
          "type": "uint256"
        },
        {
          "internalType": "bytes32",
          "name": "fromHash",
          "type": "bytes32"
        },
        {
          "internalType": "uint256",
          "name": "amount",
          "type": "uint256"
        },
        {
          "internalType": "bytes32",
          "name": "docHash",
          "type": "bytes32"
        },
        {
          "internalType": "string[]",
          "name": "data",
          "type": "string[]"
        }
      ],
      "name": "verifyAndActForRedeem",
      "outputs": [],
      "stateMutability": "nonpayable",
      "type": "function"
    },
    {
      "inputs": [
        {
          "internalType": "bytes32",
          "name": "redemptionTransactionHash",
          "type": "bytes32"
        },
        {
          "internalType": "bytes32",
          "name": "docHash",
          "type": "bytes32"
        },
        {
          "internalType": "string[]",
          "name": "data",
          "type": "string[]"
        }
      ],
      "name": "verifyAndActForRedemptionSettlement",
      "outputs": [],
      "stateMutability": "nonpayable",
      "type": "function"
    },
    {
      "inputs": [
        {
          "internalType": "uint256",
          "name": "info",
          "type": "uint256"
        }
      ],
      "name": "getCalculatedHash",
      "outputs": [
        {
          "internalType": "bytes32",
          "name": "",
          "type": "bytes32"
        }
      ],
      "stateMutability": "view",
      "type": "function"
    },
    {
      "inputs": [
        {
          "internalType": "string",
          "name": "info",
          "type": "string"
        }
      ],
      "name": "getCalculatedHash",
      "outputs": [
        {
          "internalType": "bytes32",
          "name": "",
          "type": "bytes32"
        }
      ],
      "stateMutability": "view",
      "type": "function"
    },
    {
      "inputs": [
        {
          "internalType": "uint256",
          "name": "fromId",
          "type": "uint256"
        },
        {
          "internalType": "bytes32",
          "name": "fromHash",
          "type": "bytes32"
        },
        {
          "internalType": "uint256",
          "name": "toId",
          "type": "uint256"
        },
        {
          "internalType": "bytes32",
          "name": "toHash",
          "type": "bytes32"
        },
        {
          "internalType": "uint256",
          "name": "amount",
          "type": "uint256"
        },
        {
          "internalType": "bytes32",
          "name": "docHash",
          "type": "bytes32"
        }
      ],
      "name": "authorizeExtraordinaryTransfer",
      "outputs": [],
      "stateMutability": "nonpayable",
      "type": "function"
    },
    {
      "inputs": [
        {
          "internalType": "address",
          "name": "rs",
          "type": "address"
        }
      ],
      "name": "setResponsibleForInitialAllocation",
      "outputs": [],
      "stateMutability": "nonpayable",
      "type": "function"
    },
    {
      "inputs": [
        {
          "internalType": "address",
          "name": "rs",
          "type": "address"
        }
      ],
      "name": "setResponsibleForDisbursement",
      "outputs": [],
      "stateMutability": "nonpayable",
      "type": "function"
    },
    {
      "inputs": [
        {
          "internalType": "address",
          "name": "rs",
          "type": "address"
        }
      ],
      "name": "setResposibleForApproveExtraordinaryTransfers",
      "outputs": [],
      "stateMutability": "nonpayable",
      "type": "function"
    }
  ],
  "bytecode": "0x60806040526040518060400160405280601281526020017f494e495449414c5f414c4c4f434154494f4e000000000000000000000000000081525060099080519060200190620000519291906200064e565b506040518060400160405280601981526020017f44495342555253454d454e545f564552494649434154494f4e00000000000000815250600a90805190602001906200009f9291906200064e565b506040518060400160405280602081526020017f434c49454e545f5041595f535550504c4945525f564552494649434154494f4e815250600b9080519060200190620000ed9291906200064e565b506040518060400160405280601f81526020017f424e4445535f5041595f535550504c4945525f564552494649434154494f4e00815250600c90805190602001906200013b9291906200064e565b506040518060400160405280601781526020017f45585452414f5244494e4152595f5452414e5346455253000000000000000000815250600d9080519060200190620001899291906200064e565b506000601060146101000a81548160ff021916908360ff1602179055506001601060156101000a81548160ff021916908360ff1602179055506002601060166101000a81548160ff021916908360ff160217905550600a601060176101000a81548160ff021916908360ff1602179055506014601060186101000a81548160ff021916908360ff160217905550601e601060196101000a81548160ff021916908360ff1602179055503480156200023f57600080fd5b5060405162007b4b38038062007b4b83398181016040528101906200026591906200070b565b6000620002776200046760201b60201c565b9050806000806101000a81548173ffffffffffffffffffffffffffffffffffffffff021916908373ffffffffffffffffffffffffffffffffffffffff1602179055508073ffffffffffffffffffffffffffffffffffffffff16600073ffffffffffffffffffffffffffffffffffffffff167f8be0079c531659141344cd1fd0a4f28419497f9722a3daafe3b4186f6b6457e060405160405180910390a35062000335620003296200046760201b60201c565b6200046f60201b60201c565b6000600260006101000a81548160ff0219169083151502179055506064811062000396576040517f08c379a00000000000000000000000000000000000000000000000000000000081526004016200038d9062000823565b60405180910390fd5b33600e60006101000a81548173ffffffffffffffffffffffffffffffffffffffff021916908373ffffffffffffffffffffffffffffffffffffffff16021790555033600f60006101000a81548173ffffffffffffffffffffffffffffffffffffffff021916908373ffffffffffffffffffffffffffffffffffffffff16021790555033601060006101000a81548173ffffffffffffffffffffffffffffffffffffffff021916908373ffffffffffffffffffffffffffffffffffffffff1602179055508060088190555050620008be565b600033905090565b6200048a816001620004d060201b620036861790919060201c565b8073ffffffffffffffffffffffffffffffffffffffff167f6719d08c1888103bea251a4ed56406bd0c3e69723c8a1686e017e7bbe159b6f860405160405180910390a250565b620004e282826200058360201b60201c565b1562000525576040517f08c379a00000000000000000000000000000000000000000000000000000000081526004016200051c9062000845565b60405180910390fd5b60018260000160008373ffffffffffffffffffffffffffffffffffffffff1673ffffffffffffffffffffffffffffffffffffffff16815260200190815260200160002060006101000a81548160ff0219169083151502179055505050565b60008073ffffffffffffffffffffffffffffffffffffffff168273ffffffffffffffffffffffffffffffffffffffff161415620005f7576040517f08c379a0000000000000000000000000000000000000000000000000000000008152600401620005ee9062000867565b60405180910390fd5b8260000160008373ffffffffffffffffffffffffffffffffffffffff1673ffffffffffffffffffffffffffffffffffffffff16815260200190815260200160002060009054906101000a900460ff16905092915050565b828054600181600116156101000203166002900490600052602060002090601f016020900481019282601f106200069157805160ff1916838001178555620006c2565b82800160010185558215620006c2579182015b82811115620006c1578251825591602001919060010190620006a4565b5b509050620006d19190620006d5565b5090565b5b80821115620006f0576000816000905550600101620006d6565b5090565b6000815190506200070581620008a4565b92915050565b6000602082840312156200071e57600080fd5b60006200072e84828501620006f4565b91505092915050565b600062000746601b8362000889565b91507f56616c6f7220646520466565206d61696f7220717565203130302500000000006000830152602082019050919050565b600062000788601f8362000889565b91507f526f6c65733a206163636f756e7420616c72656164792068617320726f6c65006000830152602082019050919050565b6000620007ca60228362000889565b91507f526f6c65733a206163636f756e7420697320746865207a65726f20616464726560008301527f73730000000000000000000000000000000000000000000000000000000000006020830152604082019050919050565b600060208201905081810360008301526200083e8162000737565b9050919050565b60006020820190508181036000830152620008608162000779565b9050919050565b600060208201905081810360008301526200088281620007bb565b9050919050565b600082825260208201905092915050565b6000819050919050565b620008af816200089a565b8114620008bb57600080fd5b50565b61727d80620008ce6000396000f3fe608060405234801561001057600080fd5b50600436106103275760003560e01c80638404e6e0116101b8578063ba6ad85311610104578063dafc3fad116100a2578063f0ad17db1161007c578063f0ad17db1461092d578063f2fde38b14610949578063fa7ca7ea14610965578063fc4b505d1461099557610327565b8063dafc3fad146108c1578063e4c7426f146108dd578063ee33b0bc146108fb57610327565b8063cd541b7a116100de578063cd541b7a14610815578063cea2312114610845578063d91be4c214610875578063daeb1cc91461089157610327565b8063ba6ad853146107ad578063ca196e3c146107c9578063cc70091a146107e557610327565b80638f32d59b116101715780639a9600521161014b5780639a96005214610739578063a6ee26e114610755578063ad641da614610771578063b201a7771461078f57610327565b80638f32d59b146106cf57806390e42c7e146106ed578063942429e41461070957610327565b80638404e6e01461062e5780638456cb591461064c5780638cabf128146106565780638da5cb5b146106745780638e1b808a146106925780638e669481146106b157610327565b80634abfa1631161027757806367da3e85116102305780636f3050671161020a5780636f305067146105cc578063715018a6146105ea5780637b103999146105f457806382dc1ec41461061257610327565b806367da3e85146105845780636c4282da146105a25780636ef8d66d146105c257610327565b80634abfa163146104be5780635a961b15146104ee5780635b50875a1461050c5780635c975abb1461052a5780635f23e09e14610548578063618547a91461056457610327565b806324547b8a116102e45780633dfdcfab116102be5780633dfdcfab1461044c5780633f4ba83a1461046857806341574b3b1461047257806346fbf68e1461048e57610327565b806324547b8a146103f4578063329afd3a146104125780633879b6361461043057610327565b806302fce6991461032c5780630715aa6e1461034c57806307728f0f1461036a5780630b2e8fe9146103885780630c9415b5146103a657806317251ba9146103d8575b600080fd5b6103346109b3565b6040516103439392919061679f565b60405180910390f35b610354610b0b565b6040516103619190616f3e565b60405180910390f35b610372610b1e565b60405161037f919061687a565b60405180910390f35b610390610bbc565b60405161039d919061665f565b60405180910390f35b6103c060048036038101906103bb91906150e1565b610be2565b6040516103cf9392919061679f565b60405180910390f35b6103f260048036038101906103ed9190615122565b610d43565b005b6103fc610f00565b6040516104099190616f3e565b60405180910390f35b61041a610f13565b604051610427919061665f565b60405180910390f35b61044a60048036038101906104459190614db4565b610f39565b005b61046660048036038101906104619190614e06565b6111a1565b005b610470611227565b005b61048c60048036038101906104879190614ee3565b611320565b005b6104a860048036038101906104a39190614db4565b6117e1565b6040516104b59190616710565b60405180910390f35b6104d860048036038101906104d39190615122565b6117fe565b6040516104e59190616710565b60405180910390f35b6104f661181e565b604051610503919061687a565b60405180910390f35b6105146118bc565b6040516105219190616f3e565b60405180910390f35b6105326118cf565b60405161053f9190616710565b60405180910390f35b610562600480360381019061055d91906151b0565b6118e6565b005b61056c611aae565b60405161057b9392919061679f565b60405180910390f35b61058c611c06565b604051610599919061687a565b60405180910390f35b6105aa611ca4565b6040516105b99392919061679f565b60405180910390f35b6105ca611dfc565b005b6105d4611e0e565b6040516105e19190616f3e565b60405180910390f35b6105f2611e21565b005b6105fc611f26565b6040516106099190616822565b60405180910390f35b61062c60048036038101906106279190614db4565b611f4c565b005b610636611fa7565b6040516106439190616f3e565b60405180910390f35b610654611fba565b005b61065e6120b4565b60405161066b919061665f565b60405180910390f35b61067c6120da565b604051610689919061665f565b60405180910390f35b61069a612103565b6040516106a8929190616746565b60405180910390f35b6106b9612183565b6040516106c6919061687a565b60405180910390f35b6106d7612221565b6040516106e49190616710565b60405180910390f35b61070760048036038101906107029190614db4565b61227f565b005b610723600480360381019061071e9190615122565b6124e7565b604051610730919061672b565b60405180910390f35b610753600480360381019061074e9190614db4565b612517565b005b61076f600480360381019061076a9190614fff565b61277f565b005b61077961289d565b6040516107869190616d93565b60405180910390f35b6107976128a3565b6040516107a49190616f3e565b60405180910390f35b6107c760048036038101906107c29190614e42565b6128b6565b005b6107e360048036038101906107de9190615122565b612ad8565b005b6107ff60048036038101906107fa91906150e1565b612ca7565b60405161080c919061672b565b60405180910390f35b61082f600480360381019061082a9190614fd6565b612cd7565b60405161083c919061672b565b60405180910390f35b61085f600480360381019061085a9190615122565b612cfb565b60405161086c9190616710565b60405180910390f35b61088f600480360381019061088a9190615174565b612d1b565b005b6108ab60048036038101906108a69190615239565b613057565b6040516108b89190616710565b60405180910390f35b6108db60048036038101906108d69190615174565b61309c565b005b6108e561316a565b6040516108f2919061683d565b60405180910390f35b610915600480360381019061091091906150e1565b613190565b6040516109249392919061679f565b60405180910390f35b61094760048036038101906109429190615066565b6132f1565b005b610963600480360381019061095e9190614db4565b613574565b005b61097f600480360381019061097a9190615122565b6135c7565b60405161098c919061672b565b60405180910390f35b61099d6135e8565b6040516109aa919061687a565b60405180910390f35b600080606060006109d5601060149054906101000a900460ff1660ff166124e7565b905060006109f4601060159054906101000a900460ff1660ff166124e7565b90506060600167ffffffffffffffff81118015610a1057600080fd5b50604051908082528060200260200182016040528015610a4457816020015b6060815260200190600190039081610a2f5790505b50905060098054600181600116156101000203166002900480601f016020809104026020016040519081016040528092919081815260200182805460018160011615610100020316600290048015610add5780601f10610ab257610100808354040283529160200191610add565b820191906000526020600020905b815481529060010190602001808311610ac057829003601f168201915b505050505081600081518110610aef57fe5b6020026020010181905250828282955095509550505050909192565b601060149054906101000a900460ff1681565b60098054600181600116156101000203166002900480601f016020809104026020016040519081016040528092919081815260200182805460018160011615610100020316600290048015610bb45780601f10610b8957610100808354040283529160200191610bb4565b820191906000526020600020905b815481529060010190602001808311610b9757829003601f168201915b505050505081565b601060009054906101000a900473ffffffffffffffffffffffffffffffffffffffff1681565b60008060606000610bf285612ca7565b90506000610c11601060189054906101000a900460ff1660ff166124e7565b90506060600267ffffffffffffffff81118015610c2d57600080fd5b50604051908082528060200260200182016040528015610c6157816020015b6060815260200190600190039081610c4c5790505b509050600b8054600181600116156101000203166002900480601f016020809104026020016040519081016040528092919081815260200182805460018160011615610100020316600290048015610cfa5780601f10610ccf57610100808354040283529160200191610cfa565b820191906000526020600020905b815481529060010190602001808311610cdd57829003601f168201915b505050505081600081518110610d0c57fe5b60200260200101819052508681600181518110610d2557fe5b60200260200101819052508282829550955095505050509193909250565b610d4b612221565b610d8a576040517f08c379a0000000000000000000000000000000000000000000000000000000008152600401610d8190616bf3565b60405180910390fd5b600260019054906101000a900473ffffffffffffffffffffffffffffffffffffffff1673ffffffffffffffffffffffffffffffffffffffff1663613a7896826040518263ffffffff1660e01b8152600401610de59190616d93565b60206040518083038186803b158015610dfd57600080fd5b505afa158015610e11573d6000803e3d6000fd5b505050506040513d601f19601f82011682018060405250810190610e359190614fad565b610e74576040517f08c379a0000000000000000000000000000000000000000000000000000000008152600401610e6b90616b13565b60405180910390fd5b6004600082815260200190815260200160002060009054906101000a900460ff16610efd5760016004600083815260200190815260200160002060006101000a81548160ff0219169083151502179055507fbf594816977ea5809bf299bfeeb10d2cb41e25a998a19fafe5460164b3cdb08b81604051610ef49190616d93565b60405180910390a15b50565b601060159054906101000a900460ff1681565b600e60009054906101000a900473ffffffffffffffffffffffffffffffffffffffff1681565b610f41612221565b610f80576040517f08c379a0000000000000000000000000000000000000000000000000000000008152600401610f7790616bf3565b60405180910390fd5b6000600260019054906101000a900473ffffffffffffffffffffffffffffffffffffffff1673ffffffffffffffffffffffffffffffffffffffff166365f68c89836040518263ffffffff1660e01b8152600401610fdd919061665f565b60206040518083038186803b158015610ff557600080fd5b505afa158015611009573d6000803e3d6000fd5b505050506040513d601f19601f8201168201806040525081019061102d919061514b565b9050600260019054906101000a900473ffffffffffffffffffffffffffffffffffffffff1673ffffffffffffffffffffffffffffffffffffffff166365f68c896110756120da565b6040518263ffffffff1660e01b8152600401611091919061665f565b60206040518083038186803b1580156110a957600080fd5b505afa1580156110bd573d6000803e3d6000fd5b505050506040513d601f19601f820116820180604052508101906110e1919061514b565b8114611122576040517f08c379a0000000000000000000000000000000000000000000000000000000008152600401611119906168f3565b60405180910390fd5b81600e60006101000a81548173ffffffffffffffffffffffffffffffffffffffff021916908373ffffffffffffffffffffffffffffffffffffffff1602179055507f3e3119fbec468368c03e4732985b5a3f373d3a8b8ad5cc0f820357687349b63d826001604051611195929190616695565b60405180910390a15050565b81600260016101000a81548173ffffffffffffffffffffffffffffffffffffffff021916908373ffffffffffffffffffffffffffffffffffffffff16021790555080600360006101000a81548173ffffffffffffffffffffffffffffffffffffffff021916908373ffffffffffffffffffffffffffffffffffffffff1602179055505050565b61123761123261372e565b6117e1565b611276576040517f08c379a000000000000000000000000000000000000000000000000000000000815260040161126d90616993565b60405180910390fd5b600260009054906101000a900460ff166112c5576040517f08c379a00000000000000000000000000000000000000000000000000000000081526004016112bc90616913565b60405180910390fd5b6000600260006101000a81548160ff0219169083151502179055507f5db9ee0a495bf2e6ff9c91a7834c1ba4fdd244a5e8aa4e537bd38aeae4b073aa61130961372e565b604051611316919061667a565b60405180910390a1565b600260009054906101000a900460ff1615611370576040517f08c379a000000000000000000000000000000000000000000000000000000000815260040161136790616ad3565b60405180910390fd5b600360009054906101000a900473ffffffffffffffffffffffffffffffffffffffff1673ffffffffffffffffffffffffffffffffffffffff163373ffffffffffffffffffffffffffffffffffffffff1614611400576040517f08c379a00000000000000000000000000000000000000000000000000000000081526004016113f790616d53565b60405180910390fd5b60608160008151811061140f57fe5b602002602001015190506000841161145c576040517f08c379a000000000000000000000000000000000000000000000000000000000815260040161145390616a93565b60405180910390fd5b73__RBBLib________________________________63465c41056009836040518363ffffffff1660e01b815260040161149692919061689c565b60206040518083038186803b1580156114ae57600080fd5b505af41580156114c2573d6000803e3d6000fd5b505050506040513d601f19601f820116820180604052508101906114e69190614fad565b15611500576114fb8989898989898989613736565b6117d6565b73__RBBLib________________________________63465c4105600a836040518363ffffffff1660e01b815260040161153a92919061689c565b60206040518083038186803b15801561155257600080fd5b505af4158015611566573d6000803e3d6000fd5b505050506040513d601f19601f8201168201806040525081019061158a9190614fad565b156115a45761159f8989898989898989613aba565b6117d5565b73__RBBLib________________________________63465c4105600b836040518363ffffffff1660e01b81526004016115de92919061689c565b60206040518083038186803b1580156115f657600080fd5b505af415801561160a573d6000803e3d6000fd5b505050506040513d601f19601f8201168201806040525081019061162e9190614fad565b15611648576116438989898989898989613e5b565b6117d4565b73__RBBLib________________________________63465c4105600c836040518363ffffffff1660e01b815260040161168292919061689c565b60206040518083038186803b15801561169a57600080fd5b505af41580156116ae573d6000803e3d6000fd5b505050506040513d601f19601f820116820180604052508101906116d29190614fad565b156116ec576116e789898989898989896140fe565b6117d3565b73__RBBLib________________________________63465c4105600d836040518363ffffffff1660e01b815260040161172692919061689c565b60206040518083038186803b15801561173e57600080fd5b505af4158015611752573d6000803e3d6000fd5b505050506040513d601f19601f820116820180604052508101906117769190614fad565b156117905761178b8989898989898989614411565b6117d2565b60006117d1576040517f08c379a00000000000000000000000000000000000000000000000000000000081526004016117c890616c33565b60405180910390fd5b5b5b5b5b5b505050505050505050565b60006117f782600161467090919063ffffffff16565b9050919050565b60046020528060005260406000206000915054906101000a900460ff1681565b600d8054600181600116156101000203166002900480601f0160208091040260200160405190810160405280929190818152602001828054600181600116156101000203166002900480156118b45780601f10611889576101008083540402835291602001916118b4565b820191906000526020600020905b81548152906001019060200180831161189757829003601f168201915b505050505081565b601060179054906101000a900460ff1681565b6000600260009054906101000a900460ff16905090565b3373ffffffffffffffffffffffffffffffffffffffff16601060009054906101000a900473ffffffffffffffffffffffffffffffffffffffff1673ffffffffffffffffffffffffffffffffffffffff1614611976576040517f08c379a000000000000000000000000000000000000000000000000000000000815260040161196d90616a53565b60405180910390fd5b6119808686614738565b6119bf576040517f08c379a00000000000000000000000000000000000000000000000000000000081526004016119b690616b33565b60405180910390fd5b6119c98484614738565b611a08576040517f08c379a00000000000000000000000000000000000000000000000000000000081526004016119ff90616953565b60405180910390fd5b60008686868686604051602001611a23959493929190616600565b60405160208183030381529060405280519060200120905060078190806001815401808255809150506001900390600052602060002001600090919091909150557f8fbc7818210c8d0cab55b36028efc60a3f6e71aa8ad8a2abb88cd9ba5f816735878787878787604051611a9d96959493929190616dd7565b60405180910390a150505050505050565b60008060606000611ad0601060149054906101000a900460ff1660ff166124e7565b90506000611aef601060169054906101000a900460ff1660ff166124e7565b90506060600167ffffffffffffffff81118015611b0b57600080fd5b50604051908082528060200260200182016040528015611b3f57816020015b6060815260200190600190039081611b2a5790505b50905060098054600181600116156101000203166002900480601f016020809104026020016040519081016040528092919081815260200182805460018160011615610100020316600290048015611bd85780601f10611bad57610100808354040283529160200191611bd8565b820191906000526020600020905b815481529060010190602001808311611bbb57829003601f168201915b505050505081600081518110611bea57fe5b6020026020010181905250828282955095509550505050909192565b600b8054600181600116156101000203166002900480601f016020809104026020016040519081016040528092919081815260200182805460018160011615610100020316600290048015611c9c5780601f10611c7157610100808354040283529160200191611c9c565b820191906000526020600020905b815481529060010190602001808311611c7f57829003601f168201915b505050505081565b60008060606000611cc6601060159054906101000a900460ff1660ff166124e7565b90506000611ce5601060189054906101000a900460ff1660ff166124e7565b90506060600167ffffffffffffffff81118015611d0157600080fd5b50604051908082528060200260200182016040528015611d3557816020015b6060815260200190600190039081611d205790505b509050600c8054600181600116156101000203166002900480601f016020809104026020016040519081016040528092919081815260200182805460018160011615610100020316600290048015611dce5780601f10611da357610100808354040283529160200191611dce565b820191906000526020600020905b815481529060010190602001808311611db157829003601f168201915b505050505081600081518110611de057fe5b6020026020010181905250828282955095509550505050909192565b611e0c611e0761372e565b6149e6565b565b601060169054906101000a900460ff1681565b611e29612221565b611e68576040517f08c379a0000000000000000000000000000000000000000000000000000000008152600401611e5f90616bf3565b60405180910390fd5b600073ffffffffffffffffffffffffffffffffffffffff1660008054906101000a900473ffffffffffffffffffffffffffffffffffffffff1673ffffffffffffffffffffffffffffffffffffffff167f8be0079c531659141344cd1fd0a4f28419497f9722a3daafe3b4186f6b6457e060405160405180910390a360008060006101000a81548173ffffffffffffffffffffffffffffffffffffffff021916908373ffffffffffffffffffffffffffffffffffffffff160217905550565b600260019054906101000a900473ffffffffffffffffffffffffffffffffffffffff1681565b611f5c611f5761372e565b6117e1565b611f9b576040517f08c379a0000000000000000000000000000000000000000000000000000000008152600401611f9290616993565b60405180910390fd5b611fa481614a40565b50565b601060189054906101000a900460ff1681565b611fca611fc561372e565b6117e1565b612009576040517f08c379a000000000000000000000000000000000000000000000000000000000815260040161200090616993565b60405180910390fd5b600260009054906101000a900460ff1615612059576040517f08c379a000000000000000000000000000000000000000000000000000000000815260040161205090616ad3565b60405180910390fd5b6001600260006101000a81548160ff0219169083151502179055507f62e78cea01bee320cd4e420270b5ea74000d11b0c9f74754ebdbfc544b05a25861209d61372e565b6040516120aa919061667a565b60405180910390a1565b600f60009054906101000a900473ffffffffffffffffffffffffffffffffffffffff1681565b60008060009054906101000a900473ffffffffffffffffffffffffffffffffffffffff16905090565b600060606000612124601060189054906101000a900460ff1660ff166124e7565b90506060600067ffffffffffffffff8111801561214057600080fd5b5060405190808252806020026020018201604052801561217457816020015b606081526020019060019003908161215f5790505b50905081819350935050509091565b600a8054600181600116156101000203166002900480601f0160208091040260200160405190810160405280929190818152602001828054600181600116156101000203166002900480156122195780601f106121ee57610100808354040283529160200191612219565b820191906000526020600020905b8154815290600101906020018083116121fc57829003601f168201915b505050505081565b60008060009054906101000a900473ffffffffffffffffffffffffffffffffffffffff1673ffffffffffffffffffffffffffffffffffffffff1661226361372e565b73ffffffffffffffffffffffffffffffffffffffff1614905090565b612287612221565b6122c6576040517f08c379a00000000000000000000000000000000000000000000000000000000081526004016122bd90616bf3565b60405180910390fd5b6000600260019054906101000a900473ffffffffffffffffffffffffffffffffffffffff1673ffffffffffffffffffffffffffffffffffffffff166365f68c89836040518263ffffffff1660e01b8152600401612323919061665f565b60206040518083038186803b15801561233b57600080fd5b505afa15801561234f573d6000803e3d6000fd5b505050506040513d601f19601f82011682018060405250810190612373919061514b565b9050600260019054906101000a900473ffffffffffffffffffffffffffffffffffffffff1673ffffffffffffffffffffffffffffffffffffffff166365f68c896123bb6120da565b6040518263ffffffff1660e01b81526004016123d7919061665f565b60206040518083038186803b1580156123ef57600080fd5b505afa158015612403573d6000803e3d6000fd5b505050506040513d601f19601f82011682018060405250810190612427919061514b565b8114612468576040517f08c379a000000000000000000000000000000000000000000000000000000000815260040161245f90616cf3565b60405180910390fd5b81600f60006101000a81548173ffffffffffffffffffffffffffffffffffffffff021916908373ffffffffffffffffffffffffffffffffffffffff1602179055507f3e3119fbec468368c03e4732985b5a3f373d3a8b8ad5cc0f820357687349b63d8260026040516124db9291906166be565b60405180910390a15050565b6000816040516020016124fa91906165e5565b604051602081830303815290604052805190602001209050919050565b61251f612221565b61255e576040517f08c379a000000000000000000000000000000000000000000000000000000000815260040161255590616bf3565b60405180910390fd5b6000600260019054906101000a900473ffffffffffffffffffffffffffffffffffffffff1673ffffffffffffffffffffffffffffffffffffffff166365f68c89836040518263ffffffff1660e01b81526004016125bb919061665f565b60206040518083038186803b1580156125d357600080fd5b505afa1580156125e7573d6000803e3d6000fd5b505050506040513d601f19601f8201168201806040525081019061260b919061514b565b9050600260019054906101000a900473ffffffffffffffffffffffffffffffffffffffff1673ffffffffffffffffffffffffffffffffffffffff166365f68c896126536120da565b6040518263ffffffff1660e01b815260040161266f919061665f565b60206040518083038186803b15801561268757600080fd5b505afa15801561269b573d6000803e3d6000fd5b505050506040513d601f19601f820116820180604052508101906126bf919061514b565b8114612700576040517f08c379a00000000000000000000000000000000000000000000000000000000081526004016126f790616bd3565b60405180910390fd5b81601060006101000a81548173ffffffffffffffffffffffffffffffffffffffff021916908373ffffffffffffffffffffffffffffffffffffffff1602179055507f3e3119fbec468368c03e4732985b5a3f373d3a8b8ad5cc0f820357687349b63d8260036040516127739291906166e7565b60405180910390a15050565b600260009054906101000a900460ff16156127cf576040517f08c379a00000000000000000000000000000000000000000000000000000000081526004016127c690616ad3565b60405180910390fd5b600360009054906101000a900473ffffffffffffffffffffffffffffffffffffffff1673ffffffffffffffffffffffffffffffffffffffff163373ffffffffffffffffffffffffffffffffffffffff161461285f576040517f08c379a000000000000000000000000000000000000000000000000000000000815260040161285690616d53565b60405180910390fd5b7ff2117f45bb026f7f165d939836d0293bad4b8aaf2e658cb38900da27a81306558383604051612890929190616776565b60405180910390a1505050565b60085481565b601060199054906101000a900460ff1681565b600260009054906101000a900460ff1615612906576040517f08c379a00000000000000000000000000000000000000000000000000000000081526004016128fd90616ad3565b60405180910390fd5b600360009054906101000a900473ffffffffffffffffffffffffffffffffffffffff1673ffffffffffffffffffffffffffffffffffffffff163373ffffffffffffffffffffffffffffffffffffffff1614612996576040517f08c379a000000000000000000000000000000000000000000000000000000000815260040161298d90616d53565b60405180910390fd5b600083116129d9576040517f08c379a00000000000000000000000000000000000000000000000000000000081526004016129d090616a93565b60405180910390fd5b6006600086815260200190815260200160002060009054906101000a900460ff16612a39576040517f08c379a0000000000000000000000000000000000000000000000000000000008152600401612a3090616a73565b60405180910390fd5b83612a55601060189054906101000a900460ff1660ff166124e7565b14612a95576040517f08c379a0000000000000000000000000000000000000000000000000000000008152600401612a8c90616ab3565b60405180910390fd5b7fb30495d559e05f5f1c993ea722cb239b6d85f70ed9c914b8350c4b94feed7ccd858484604051612ac893929190616f07565b60405180910390a1505050505050565b600f60009054906101000a900473ffffffffffffffffffffffffffffffffffffffff1673ffffffffffffffffffffffffffffffffffffffff163373ffffffffffffffffffffffffffffffffffffffff1614612b68576040517f08c379a0000000000000000000000000000000000000000000000000000000008152600401612b5f90616af3565b60405180910390fd5b6006600082815260200190815260200160002060009054906101000a900460ff16612ca45760016006600083815260200190815260200160002060006101000a81548160ff0219169083151502179055507f2757aa27a660ab391745e035b5a23653f6497d768c445f6a9c3df78e1d18727f600260019054906101000a900473ffffffffffffffffffffffffffffffffffffffff1673ffffffffffffffffffffffffffffffffffffffff166365f68c89612c206120da565b6040518263ffffffff1660e01b8152600401612c3c919061665f565b60206040518083038186803b158015612c5457600080fd5b505afa158015612c68573d6000803e3d6000fd5b505050506040513d601f19601f82011682018060405250810190612c8c919061514b565b82604051612c9b929190616ede565b60405180910390a15b50565b600081604051602001612cba91906165ce565b604051602081830303815290604052805190602001209050919050565b6000612cf4601060149054906101000a900460ff1660ff166124e7565b9050919050565b60066020528060005260406000206000915054906101000a900460ff1681565b600260009054906101000a900460ff1615612d6b576040517f08c379a0000000000000000000000000000000000000000000000000000000008152600401612d6290616ad3565b60405180910390fd5b6000600260019054906101000a900473ffffffffffffffffffffffffffffffffffffffff1673ffffffffffffffffffffffffffffffffffffffff166365f68c89336040518263ffffffff1660e01b8152600401612dc8919061667a565b60206040518083038186803b158015612de057600080fd5b505afa158015612df4573d6000803e3d6000fd5b505050506040513d601f19601f82011682018060405250810190612e18919061514b565b90506004600082815260200190815260200160002060009054906101000a900460ff16612e7a576040517f08c379a0000000000000000000000000000000000000000000000000000000008152600401612e7190616bb3565b60405180910390fd5b600260019054906101000a900473ffffffffffffffffffffffffffffffffffffffff1673ffffffffffffffffffffffffffffffffffffffff1663613a7896826040518263ffffffff1660e01b8152600401612ed59190616d93565b60206040518083038186803b158015612eed57600080fd5b505afa158015612f01573d6000803e3d6000fd5b505050506040513d601f19601f82011682018060405250810190612f259190614fad565b612f64576040517f08c379a0000000000000000000000000000000000000000000000000000000008152600401612f5b90616b13565b60405180910390fd5b6000612f81601060199054906101000a900460ff1660ff166124e7565b9050600360009054906101000a900473ffffffffffffffffffffffffffffffffffffffff1673ffffffffffffffffffffffffffffffffffffffff166304cc4d8e828487876040518563ffffffff1660e01b8152600401612fe494939291906167dd565b600060405180830381600087803b158015612ffe57600080fd5b505af1158015613012573d6000803e3d6000fd5b505050507f1bb5ed67b2bbb22aaf99cdcf7dbcf09ad7b4e3999dab8f77fd76c207b6e226da82858560405161304993929190616f07565b60405180910390a150505050565b6005602052816000526040600020818051602081018201805184825260208301602085012081835280955050505050506000915091509054906101000a900460ff1681565b6130a4612221565b6130e3576040517f08c379a00000000000000000000000000000000000000000000000000000000081526004016130da90616bf3565b60405180910390fd5b60648210613126576040517f08c379a000000000000000000000000000000000000000000000000000000000815260040161311d906168d3565b60405180910390fd5b816008819055507f94514d602145b96a19d64f0297fc93f891dfa585d0b414185acfe635b073752b828260405161315e929190616dae565b60405180910390a15050565b600360009054906101000a900473ffffffffffffffffffffffffffffffffffffffff1681565b600080606060006131b2601060159054906101000a900460ff1660ff166124e7565b905060006131bf86612ca7565b90506060600267ffffffffffffffff811180156131db57600080fd5b5060405190808252806020026020018201604052801561320f57816020015b60608152602001906001900390816131fa5790505b509050600a8054600181600116156101000203166002900480601f0160208091040260200160405190810160405280929190818152602001828054600181600116156101000203166002900480156132a85780601f1061327d576101008083540402835291602001916132a8565b820191906000526020600020905b81548152906001019060200180831161328b57829003601f168201915b5050505050816000815181106132ba57fe5b602002602001018190525086816001815181106132d357fe5b60200260200101819052508282829550955095505050509193909250565b600260009054906101000a900460ff1615613341576040517f08c379a000000000000000000000000000000000000000000000000000000000815260040161333890616ad3565b60405180910390fd5b600360009054906101000a900473ffffffffffffffffffffffffffffffffffffffff1673ffffffffffffffffffffffffffffffffffffffff163373ffffffffffffffffffffffffffffffffffffffff16146133d1576040517f08c379a00000000000000000000000000000000000000000000000000000000081526004016133c890616d53565b60405180910390fd5b836133ed601060199054906101000a900460ff1660ff166124e7565b1461342d576040517f08c379a000000000000000000000000000000000000000000000000000000000815260040161342490616b93565b60405180910390fd5b60608160008151811061343c57fe5b60200260200101519050600073__RBBLib________________________________633581ee54836040518263ffffffff1660e01b815260040161347f9190616858565b60206040518083038186803b15801561349757600080fd5b505af41580156134ab573d6000803e3d6000fd5b505050506040513d601f19601f820116820180604052508101906134cf919061514b565b90506004600082815260200190815260200160002060009054906101000a900460ff16613531576040517f08c379a000000000000000000000000000000000000000000000000000000000815260040161352890616c53565b60405180910390fd5b7f5d4d346a0213ff920be5c680b2dae20438f8a3447c0b4bd37268d1d2f523432a81868660405161356493929190616f07565b60405180910390a1505050505050565b61357c612221565b6135bb576040517f08c379a00000000000000000000000000000000000000000000000000000000081526004016135b290616bf3565b60405180910390fd5b6135c481614a9a565b50565b600781815481106135d457fe5b906000526020600020016000915090505481565b600c8054600181600116156101000203166002900480601f01602080910402602001604051908101604052809291908181526020018280546001816001161561010002031660029004801561367e5780601f106136535761010080835404028352916020019161367e565b820191906000526020600020905b81548152906001019060200180831161366157829003601f168201915b505050505081565b6136908282614670565b156136d0576040517f08c379a00000000000000000000000000000000000000000000000000000000081526004016136c790616933565b60405180910390fd5b60018260000160008373ffffffffffffffffffffffffffffffffffffffff1673ffffffffffffffffffffffffffffffffffffffff16815260200190815260200160002060006101000a81548160ff0219169083151502179055505050565b600033905090565b600260009054906101000a900460ff1615613786576040517f08c379a000000000000000000000000000000000000000000000000000000000815260040161377d90616ad3565b60405180910390fd5b8773ffffffffffffffffffffffffffffffffffffffff16600e60009054906101000a900473ffffffffffffffffffffffffffffffffffffffff1673ffffffffffffffffffffffffffffffffffffffff1614613816576040517f08c379a000000000000000000000000000000000000000000000000000000000815260040161380d90616c93565b60405180910390fd5b6000600260019054906101000a900473ffffffffffffffffffffffffffffffffffffffff1673ffffffffffffffffffffffffffffffffffffffff166365f68c8961385e6120da565b6040518263ffffffff1660e01b815260040161387a919061665f565b60206040518083038186803b15801561389257600080fd5b505afa1580156138a6573d6000803e3d6000fd5b505050506040513d601f19601f820116820180604052508101906138ca919061514b565b905080881461390e576040517f08c379a000000000000000000000000000000000000000000000000000000000815260040161390590616d13565b60405180910390fd5b613929601060149054906101000a900460ff1660ff166124e7565b871461396a576040517f08c379a000000000000000000000000000000000000000000000000000000000815260040161396190616cd3565b60405180910390fd5b8588146139ac576040517f08c379a00000000000000000000000000000000000000000000000000000000081526004016139a390616b73565b60405180910390fd5b6139c7601060159054906101000a900460ff1660ff166124e7565b851415613a0c577f94d89c2ff047eba28eb56cacf5a8e292f150c43e792d648d54f8b93372849b3c84846040516139ff929190616dae565b60405180910390a1613aaf565b613a27601060169054906101000a900460ff1660ff166124e7565b851415613a6c577f7916e578b526c14777538bb519e208901510a7ff7765e2e339258b6ba65272fc8484604051613a5f929190616dae565b60405180910390a1613aae565b6000613aad576040517f08c379a0000000000000000000000000000000000000000000000000000000008152600401613aa490616d33565b60405180910390fd5b5b5b505050505050505050565b600260009054906101000a900460ff1615613b0a576040517f08c379a0000000000000000000000000000000000000000000000000000000008152600401613b0190616ad3565b60405180910390fd5b606081600181518110613b1957fe5b602002602001015190506000600260019054906101000a900473ffffffffffffffffffffffffffffffffffffffff1673ffffffffffffffffffffffffffffffffffffffff166365f68c89613b6b6120da565b6040518263ffffffff1660e01b8152600401613b87919061665f565b60206040518083038186803b158015613b9f57600080fd5b505afa158015613bb3573d6000803e3d6000fd5b505050506040513d601f19601f82011682018060405250810190613bd7919061514b565b9050600f60009054906101000a900473ffffffffffffffffffffffffffffffffffffffff1673ffffffffffffffffffffffffffffffffffffffff168a73ffffffffffffffffffffffffffffffffffffffff1614613c69576040517f08c379a0000000000000000000000000000000000000000000000000000000008152600401613c6090616af3565b60405180910390fd5b808914613cab576040517f08c379a0000000000000000000000000000000000000000000000000000000008152600401613ca290616d13565b60405180910390fd5b87613cc7601060159054906101000a900460ff1660ff166124e7565b14613d07576040517f08c379a0000000000000000000000000000000000000000000000000000000008152600401613cfe90616a33565b60405180910390fd5b85613d1183612ca7565b14613d51576040517f08c379a0000000000000000000000000000000000000000000000000000000008152600401613d4890616d73565b60405180910390fd5b6005600088815260200190815260200160002082604051613d7291906165ce565b908152602001604051809103902060009054906101000a900460ff16613e125760016005600089815260200190815260200160002083604051613db591906165ce565b908152602001604051809103902060006101000a81548160ff0219169083151502179055507f448b0dd714fa3713f69988b8ee8bad3ac840e06e3d93c970086a3d490d61c62987604051613e099190616d93565b60405180910390a15b7fe08d0d3d48ef9857108be67cfe715057ce9b455eaf3a4d3b66f34bf148311d7a87838787604051613e479493929190616e38565b60405180910390a150505050505050505050565b600260009054906101000a900460ff1615613eab576040517f08c379a0000000000000000000000000000000000000000000000000000000008152600401613ea290616ad3565b60405180910390fd5b606081600181518110613eba57fe5b602002602001015190506005600089815260200190815260200160002081604051613ee591906165ce565b908152602001604051809103902060009054906101000a900460ff16613f40576040517f08c379a0000000000000000000000000000000000000000000000000000000008152600401613f37906169b3565b60405180910390fd5b86613f4a82612ca7565b14613f8a576040517f08c379a0000000000000000000000000000000000000000000000000000000008152600401613f8190616d73565b60405180910390fd5b84613fa6601060189054906101000a900460ff1660ff166124e7565b14613fe6576040517f08c379a0000000000000000000000000000000000000000000000000000000008152600401613fdd90616ab3565b60405180910390fd5b85881415614029576040517f08c379a000000000000000000000000000000000000000000000000000000000815260040161402090616a13565b60405180910390fd5b6006600087815260200190815260200160002060009054906101000a900460ff166140b45760016006600088815260200190815260200160002060006101000a81548160ff0219169083151502179055507f2757aa27a660ab391745e035b5a23653f6497d768c445f6a9c3df78e1d18727f88876040516140ab929190616ede565b60405180910390a15b7fdd62ead748da3466d84db25e6f55c3213f29aaf5c159d4d576018cd84209782688828887876040516140eb959493929190616e84565b60405180910390a1505050505050505050565b600260009054906101000a900460ff161561414e576040517f08c379a000000000000000000000000000000000000000000000000000000000815260040161414590616ad3565b60405180910390fd5b600f60009054906101000a900473ffffffffffffffffffffffffffffffffffffffff1673ffffffffffffffffffffffffffffffffffffffff168873ffffffffffffffffffffffffffffffffffffffff16146141de576040517f08c379a00000000000000000000000000000000000000000000000000000000081526004016141d590616af3565b60405180910390fd5b600260019054906101000a900473ffffffffffffffffffffffffffffffffffffffff1673ffffffffffffffffffffffffffffffffffffffff166365f68c896142246120da565b6040518263ffffffff1660e01b8152600401614240919061665f565b60206040518083038186803b15801561425857600080fd5b505afa15801561426c573d6000803e3d6000fd5b505050506040513d601f19601f82011682018060405250810190614290919061514b565b87146142d1576040517f08c379a00000000000000000000000000000000000000000000000000000000081526004016142c8906169d3565b60405180910390fd5b856142ed601060169054906101000a900460ff1660ff166124e7565b1461432d576040517f08c379a000000000000000000000000000000000000000000000000000000000815260040161432490616cb3565b60405180910390fd5b83614349601060189054906101000a900460ff1660ff166124e7565b14614389576040517f08c379a000000000000000000000000000000000000000000000000000000000815260040161438090616ab3565b60405180910390fd5b848714156143cc576040517f08c379a00000000000000000000000000000000000000000000000000000000081526004016143c390616c73565b60405180910390fd5b7f8316c04a0a2b1e71f63264f2f0380d43ae9f758672a97012d6880fcedcb542328584846040516143ff93929190616f07565b60405180910390a15050505050505050565b600260009054906101000a900460ff1615614461576040517f08c379a000000000000000000000000000000000000000000000000000000000815260040161445890616ad3565b60405180910390fd5b61446b8787614738565b6144aa576040517f08c379a00000000000000000000000000000000000000000000000000000000081526004016144a190616b33565b60405180910390fd5b6144b48585614738565b6144f3576040517f08c379a00000000000000000000000000000000000000000000000000000000081526004016144ea90616953565b60405180910390fd5b60608160018151811061450257fe5b6020026020010151905060008888888888604051602001614527959493929190616600565b6040516020818303038152906040528051906020012090506000805b60078054905081101561458557826007828154811061455e57fe5b906000526020600020015414156145785760019150614585565b8080600101915050614543565b816145c5576040517f08c379a00000000000000000000000000000000000000000000000000000000081526004016145bc90616973565b60405180910390fd5b6007600160078054905003815481106145da57fe5b9060005260206000200154600782815481106145f257fe5b9060005260206000200181905550600780548061460b57fe5b600190038181906000526020600020016000905590557fae2b72cc4621b123feac073da32309bdd45fefaa49154814cd8c8b3c7c4d5cb78b8b8b8b8b8b60405161465a96959493929190616dd7565b60405180910390a1505050505050505050505050565b60008073ffffffffffffffffffffffffffffffffffffffff168273ffffffffffffffffffffffffffffffffffffffff1614156146e1576040517f08c379a00000000000000000000000000000000000000000000000000000000081526004016146d890616c13565b60405180910390fd5b8260000160008373ffffffffffffffffffffffffffffffffffffffff1673ffffffffffffffffffffffffffffffffffffffff16815260200190815260200160002060009054906101000a900460ff16905092915050565b60008060009050600115156004600086815260200190815260200160002060009054906101000a900460ff16151514156147765760019150506149e0565b600115156006600086815260200190815260200160002060009054906101000a900460ff16151514156147ad5760019150506149e0565b6000600260019054906101000a900473ffffffffffffffffffffffffffffffffffffffff1673ffffffffffffffffffffffffffffffffffffffff166365f68c896147f56120da565b6040518263ffffffff1660e01b8152600401614811919061665f565b60206040518083038186803b15801561482957600080fd5b505afa15801561483d573d6000803e3d6000fd5b505050506040513d601f19601f82011682018060405250810190614861919061514b565b905084811415614876576001925050506149e0565b6000600260019054906101000a900473ffffffffffffffffffffffffffffffffffffffff1673ffffffffffffffffffffffffffffffffffffffff166365f68c89600360009054906101000a900473ffffffffffffffffffffffffffffffffffffffff1673ffffffffffffffffffffffffffffffffffffffff16638da5cb5b6040518163ffffffff1660e01b815260040160206040518083038186803b15801561491e57600080fd5b505afa158015614932573d6000803e3d6000fd5b505050506040513d601f19601f820116820180604052508101906149569190614ddd565b6040518263ffffffff1660e01b8152600401614972919061665f565b60206040518083038186803b15801561498a57600080fd5b505afa15801561499e573d6000803e3d6000fd5b505050506040513d601f19601f820116820180604052508101906149c2919061514b565b9050858114156149d857600193505050506149e0565b600093505050505b92915050565b6149fa816001614bc790919063ffffffff16565b8073ffffffffffffffffffffffffffffffffffffffff167fcd265ebaf09df2871cc7bd4133404a235ba12eff2041bb89d9c714a2621c7c7e60405160405180910390a250565b614a5481600161368690919063ffffffff16565b8073ffffffffffffffffffffffffffffffffffffffff167f6719d08c1888103bea251a4ed56406bd0c3e69723c8a1686e017e7bbe159b6f860405160405180910390a250565b600073ffffffffffffffffffffffffffffffffffffffff168173ffffffffffffffffffffffffffffffffffffffff161415614b0a576040517f08c379a0000000000000000000000000000000000000000000000000000000008152600401614b01906169f3565b60405180910390fd5b8073ffffffffffffffffffffffffffffffffffffffff1660008054906101000a900473ffffffffffffffffffffffffffffffffffffffff1673ffffffffffffffffffffffffffffffffffffffff167f8be0079c531659141344cd1fd0a4f28419497f9722a3daafe3b4186f6b6457e060405160405180910390a3806000806101000a81548173ffffffffffffffffffffffffffffffffffffffff021916908373ffffffffffffffffffffffffffffffffffffffff16021790555050565b614bd18282614670565b614c10576040517f08c379a0000000000000000000000000000000000000000000000000000000008152600401614c0790616b53565b60405180910390fd5b60008260000160008373ffffffffffffffffffffffffffffffffffffffff1673ffffffffffffffffffffffffffffffffffffffff16815260200190815260200160002060006101000a81548160ff0219169083151502179055505050565b600081359050614c7d816171eb565b92915050565b600081519050614c92816171eb565b92915050565b600082601f830112614ca957600080fd5b8135614cbc614cb782616f86565b616f59565b9150818183526020840193506020810190508360005b83811015614d025781358601614ce88882614d36565b845260208401935060208301925050600181019050614cd2565b5050505092915050565b600081519050614d1b81617202565b92915050565b600081359050614d3081617219565b92915050565b600082601f830112614d4757600080fd5b8135614d5a614d5582616fae565b616f59565b91508082526020830160208301858383011115614d7657600080fd5b614d81838284617184565b50505092915050565b600081359050614d9981617230565b92915050565b600081519050614dae81617230565b92915050565b600060208284031215614dc657600080fd5b6000614dd484828501614c6e565b91505092915050565b600060208284031215614def57600080fd5b6000614dfd84828501614c83565b91505092915050565b60008060408385031215614e1957600080fd5b6000614e2785828601614c6e565b9250506020614e3885828601614c6e565b9150509250929050565b60008060008060008060c08789031215614e5b57600080fd5b6000614e6989828a01614c6e565b9650506020614e7a89828a01614d8a565b9550506040614e8b89828a01614d21565b9450506060614e9c89828a01614d8a565b9350506080614ead89828a01614d21565b92505060a087013567ffffffffffffffff811115614eca57600080fd5b614ed689828a01614c98565b9150509295509295509295565b600080600080600080600080610100898b031215614f0057600080fd5b6000614f0e8b828c01614c6e565b9850506020614f1f8b828c01614d8a565b9750506040614f308b828c01614d21565b9650506060614f418b828c01614d8a565b9550506080614f528b828c01614d21565b94505060a0614f638b828c01614d8a565b93505060c0614f748b828c01614d21565b92505060e089013567ffffffffffffffff811115614f9157600080fd5b614f9d8b828c01614c98565b9150509295985092959890939650565b600060208284031215614fbf57600080fd5b6000614fcd84828501614d0c565b91505092915050565b600060208284031215614fe857600080fd5b6000614ff684828501614d21565b91505092915050565b60008060006060848603121561501457600080fd5b600061502286828701614d21565b935050602061503386828701614d21565b925050604084013567ffffffffffffffff81111561505057600080fd5b61505c86828701614c98565b9150509250925092565b6000806000806080858703121561507c57600080fd5b600061508a87828801614d21565b945050602061509b87828801614d8a565b93505060406150ac87828801614d21565b925050606085013567ffffffffffffffff8111156150c957600080fd5b6150d587828801614c98565b91505092959194509250565b6000602082840312156150f357600080fd5b600082013567ffffffffffffffff81111561510d57600080fd5b61511984828501614d36565b91505092915050565b60006020828403121561513457600080fd5b600061514284828501614d8a565b91505092915050565b60006020828403121561515d57600080fd5b600061516b84828501614d9f565b91505092915050565b6000806040838503121561518757600080fd5b600061519585828601614d8a565b92505060206151a685828601614d21565b9150509250929050565b60008060008060008060c087890312156151c957600080fd5b60006151d789828a01614d8a565b96505060206151e889828a01614d21565b95505060406151f989828a01614d8a565b945050606061520a89828a01614d21565b935050608061521b89828a01614d8a565b92505060a061522c89828a01614d21565b9150509295509295509295565b6000806040838503121561524c57600080fd5b600061525a85828601614d8a565b925050602083013567ffffffffffffffff81111561527757600080fd5b61528385828601614d36565b9150509250929050565b600061529983836153b4565b905092915050565b6152aa816170d0565b82525050565b6152b981617071565b82525050565b60006152ca82616fff565b6152d48185617022565b9350836020820285016152e685616fda565b8060005b858110156153225784840389528151615303858261528d565b945061530e83617015565b925060208a019950506001810190506152ea565b50829750879550505050505092915050565b61533d81617083565b82525050565b61534c8161708f565b82525050565b61536361535e8261708f565b6171c6565b82525050565b615372816170e2565b82525050565b61538181617106565b82525050565b6153908161712a565b82525050565b61539f8161713c565b82525050565b6153ae8161714e565b82525050565b60006153bf8261700a565b6153c98185617033565b93506153d9818560208601617193565b6153e2816171da565b840191505092915050565b60006153f88261700a565b6154028185617044565b9350615412818560208601617193565b61541b816171da565b840191505092915050565b60006154318261700a565b61543b8185617055565b935061544b818560208601617193565b615454816171da565b840191505092915050565b600061546a8261700a565b6154748185617066565b9350615484818560208601617193565b80840191505092915050565b6000815460018116600081146154ad57600181146154d357615517565b607f60028304166154be8187617055565b955060ff198316865260208601935050615517565b600282046154e18187617055565b95506154ec85616fea565b60005b8281101561550e578154818901526001820191506020810190506154ef565b80880195505050505b505092915050565b600061552c601b83617044565b91507f56616c6f7220646520466565206d61696f7220717565203130302500000000006000830152602082019050919050565b600061556c604b83617044565b91507f4f20726573706f6e73c3a176656c2070656c6120616c6f6361c3a7c3a36f206960008301527f6e696369616c206465766520736572206461206d65736d6f205242425f49442060208301527f646f20636f6e747261746f0000000000000000000000000000000000000000006040830152606082019050919050565b60006155f8601483617044565b91507f5061757361626c653a206e6f74207061757365640000000000000000000000006000830152602082019050919050565b6000615638601f83617044565b91507f526f6c65733a206163636f756e7420616c72656164792068617320726f6c65006000830152602082019050919050565b6000615678603d83617044565b91507f456e64657265c3a76f2064652064657374696e6f206ec3a36f20696e636c75c360008301527fad646f20636f6d6f20706170656c206e6573736520636164617374726f0000006020830152604082019050919050565b60006156de603083617044565b91507f496e74657276656ec3a7c3a36f206d616e75616c206ec3a36f2070726576696160008301527f6d656e74652063616461737472616461000000000000000000000000000000006020830152604082019050919050565b6000615744603083617044565b91507f506175736572526f6c653a2063616c6c657220646f6573206e6f74206861766560008301527f207468652050617573657220726f6c65000000000000000000000000000000006020830152604082019050919050565b60006157aa604483617044565b91507f536f6d656e746520636c69656e74657320656d20636f6e747261746f7320636160008301527f646173747261646f7320706f64656d206578656375746172206f20706167616d60208301527f656e746f000000000000000000000000000000000000000000000000000000006040830152606082019050919050565b6000615836602983617044565b91507f536f6d656e7465206f20424e44455320706f6465206578656375746172206f2060008301527f706167616d656e746f00000000000000000000000000000000000000000000006020830152604082019050919050565b600061589c602683617044565b91507f4f776e61626c653a206e6577206f776e657220697320746865207a65726f206160008301527f64647265737300000000000000000000000000000000000000000000000000006020830152604082019050919050565b6000615902605f83617044565b91507f556d20434e504a206ec3a36f20706f6465207472616e73666572697220746f6b60008301527f656e20706172612073692c2061696e64612071756520656d20706170c3a9697360208301527f2064697374696e746f732028436c69656e74652f466f726e656365646f7229006040830152606082019050919050565b600061598e602a83617044565b91507f4572726f206e6f2063c3a16c63756c6f20646f206861736820646120636f6e7460008301527f6120646f20424e444553000000000000000000000000000000000000000000006020830152604082019050919050565b60006159f4605783617044565b91507f536f6d656e746520756d20726573706f6e73c3a176656c2070656c617320747260008301527f616e73666572c3aa6e636961732065787472616f7264696ec3a172696173207060208301527f6f7220656e766961722061207472616e7361c3a7c3a36f0000000000000000006040830152606082019050919050565b6000615a80602f83617044565b91507f536f6d656e746520666f726e656365646f72657320706f64656d20657865637560008301527f746172206f20706167616d656e746f00000000000000000000000000000000006020830152604082019050919050565b6000615ae6603583617044565b91507f56616c6f72206120736572207472616e736163696f6e61646f2064657665207360008301527f6572206d61696f7220646f20717565207a65726f2e00000000000000000000006020830152604082019050919050565b6000615b4c602f83617044565b91507f4572726f206e6f2063c3a16c63756c6f20646f206861736820646120636f6e7460008301527f6120646f20666f726e656365646f7200000000000000000000000000000000006020830152604082019050919050565b6000615bb2601083617044565b91507f5061757361626c653a20706175736564000000000000000000000000000000006000830152602082019050919050565b6000615bf2604983617044565b91507f45737461207472616e7361c3a7c3a36f2073c3b320706f64652073657220657860008301527f656375746164612070656c6f20726573706f6e73c3a176656c2070656c6f206460208301527f6573656d626f6c736f00000000000000000000000000000000000000000000006040830152606082019050919050565b6000615c7e603383617044565b91507f436f6e746120646520646f61646f72207072656369736120657374617220636f60008301527f6d20636164617374726f2076616c696461646f000000000000000000000000006020830152604082019050919050565b6000615ce4603c83617044565b91507f456e64657265c3a76f206465206f726967656d206ec3a36f20696e636c75c3ad60008301527f646f20636f6d6f20706170656c206e6573736520636164617374726f000000006020830152604082019050919050565b6000615d4a602183617044565b91507f526f6c65733a206163636f756e7420646f6573206e6f74206861766520726f6c60008301527f65000000000000000000000000000000000000000000000000000000000000006020830152604082019050919050565b6000615db0604583617044565b91507f49642064652064657374696e6f206461207472616e7361c3a7c3a36f206ec3a360008301527f6f20657374c3a120696775616c20616f20646f206f776e657220646f20636f6e60208301527f747261746f0000000000000000000000000000000000000000000000000000006040830152606082019050919050565b6000615e3c602483617044565b91507f4572726f206e6f2063c3a16c63756c6f20646f206861736820646120646f61c360008301527fa7c3a36f000000000000000000000000000000000000000000000000000000006020830152604082019050919050565b6000615ea2602683617044565b91507f536f6d656e746520646f61646f72657320706f64656d2066617a657220646f6160008301527fc3a7c3b5657300000000000000000000000000000000000000000000000000006020830152604082019050919050565b6000615f08606983617044565b91507f4f20726573706f6e73c3a176656c2070656c6f2063616461737472616d656e7460008301527f6f206465207472616e73666572656e636961732065787472616f7264696ec3a160208301527f72696173206465766520736572206461206d65736d6f205242425f494420646f60408301527f20636f6e747261746f00000000000000000000000000000000000000000000006060830152608082019050919050565b6000615fba602083617044565b91507f4f776e61626c653a2063616c6c6572206973206e6f7420746865206f776e65726000830152602082019050919050565b6000615ffa602283617044565b91507f526f6c65733a206163636f756e7420697320746865207a65726f20616464726560008301527f73730000000000000000000000000000000000000000000000000000000000006020830152604082019050919050565b6000616060604283617044565b91507f4e656e68756d61207665726966696361c3a7c3a36f206573706563c3ad66696360008301527f6120656e636f6e747261646120706172612061207472616e73666572c3aa6e6360208301527f69610000000000000000000000000000000000000000000000000000000000006040830152606082019050919050565b60006160ec604083617044565b91507f536f6d656e746520646f61646f72657320706f64656d2066617a657220646f6160008301527fc3a7c3b565732c20726567697374726f20657374616820696e636f727265746f6020830152604082019050919050565b6000616152602b83617044565b91507f556d20424e444553206ec3a36f20706f6465207472616e73666572697220746f60008301527f6b656e20706172612073690000000000000000000000000000000000000000006020830152604082019050919050565b60006161b8604c83617044565b91507f536f6d656e746520756d20726573706f6e73c3a176656c2070656c617320616c60008301527f6f6361c3a7c3b5657320696e69636961697320706f646520656e76696172206160208301527f207472616e7361c3a7c3a36f00000000000000000000000000000000000000006040830152606082019050919050565b6000616244604183617044565b91507f4572726f206e6f2063c3a16c63756c6f20646f206861736820646120636f6e7460008301527f612064652061646d696e20646f20636f6e747261746f2065737065636966696360208301527f6f000000000000000000000000000000000000000000000000000000000000006040830152606082019050919050565b60006162d0603083617044565b91507f48617368206465206f726967656d206461207472616e7361c3a7c3a36f206ec360008301527fa36f20657374c3a120636f727265746f000000000000000000000000000000006020830152604082019050919050565b6000616336604383617044565b91507f4f20726573706f6e73c3a176656c2070656c6f20646573656d626f6c736f206460008301527f65766520736572206461206d65736d6f205242425f494420646f20636f6e747260208301527f61746f00000000000000000000000000000000000000000000000000000000006040830152606082019050919050565b60006163c2604483617044565b91507f4964206465206f726967656d206461207472616e7361c3a7c3a36f206ec3a36f60008301527f20657374c3a120696775616c20616f20646f206f776e657220646f20636f6e7460208301527f7261746f000000000000000000000000000000000000000000000000000000006040830152606082019050919050565b600061644e604983617044565b91507f486173682064652064657374696e6f206ec3a36f20657374c3a120636f72726560008301527f73706f6e64656e7465206120636f6e746120646520646573656d626f6c736f2060208301527f6f752064652061646d00000000000000000000000000000000000000000000006040830152606082019050919050565b60006164da603083617044565b91507f45737365206dc3a9746f646f2073c3b320706f646520736572206368616d616460008301527f6f2070656c6f205242425f546f6b656e000000000000000000000000000000006020830152604082019050919050565b6000616540602c83617044565b91507f4572726f206e6f2063c3a16c63756c6f20646f206861736820646120636f6e7460008301527f6120646f20636c69656e746500000000000000000000000000000000000000006020830152604082019050919050565b6165a2816170b9565b82525050565b6165b96165b4826170b9565b6171d0565b82525050565b6165c8816170c3565b82525050565b60006165da828461545f565b915081905092915050565b60006165f182846165a8565b60208201915081905092915050565b600061660c82886165a8565b60208201915061661c8287615352565b60208201915061662c82866165a8565b60208201915061663c8285615352565b60208201915061664c82846165a8565b6020820191508190509695505050505050565b600060208201905061667460008301846152b0565b92915050565b600060208201905061668f60008301846152a1565b92915050565b60006040820190506166aa60008301856152b0565b6166b76020830184615387565b9392505050565b60006040820190506166d360008301856152b0565b6166e06020830184615396565b9392505050565b60006040820190506166fc60008301856152b0565b61670960208301846153a5565b9392505050565b60006020820190506167256000830184615334565b92915050565b60006020820190506167406000830184615343565b92915050565b600060408201905061675b6000830185615343565b818103602083015261676d81846152bf565b90509392505050565b600060408201905061678b6000830185615343565b6167986020830184615343565b9392505050565b60006060820190506167b46000830186615343565b6167c16020830185615343565b81810360408301526167d381846152bf565b9050949350505050565b60006080820190506167f26000830187615343565b6167ff6020830186616599565b61680c6040830185616599565b6168196060830184615343565b95945050505050565b60006020820190506168376000830184615369565b92915050565b60006020820190506168526000830184615378565b92915050565b600060208201905081810360008301526168728184615426565b905092915050565b6000602082019050818103600083015261689481846153ed565b905092915050565b600060408201905081810360008301526168b68185615490565b905081810360208301526168ca8184615426565b90509392505050565b600060208201905081810360008301526168ec8161551f565b9050919050565b6000602082019050818103600083015261690c8161555f565b9050919050565b6000602082019050818103600083015261692c816155eb565b9050919050565b6000602082019050818103600083015261694c8161562b565b9050919050565b6000602082019050818103600083015261696c8161566b565b9050919050565b6000602082019050818103600083015261698c816156d1565b9050919050565b600060208201905081810360008301526169ac81615737565b9050919050565b600060208201905081810360008301526169cc8161579d565b9050919050565b600060208201905081810360008301526169ec81615829565b9050919050565b60006020820190508181036000830152616a0c8161588f565b9050919050565b60006020820190508181036000830152616a2c816158f5565b9050919050565b60006020820190508181036000830152616a4c81615981565b9050919050565b60006020820190508181036000830152616a6c816159e7565b9050919050565b60006020820190508181036000830152616a8c81615a73565b9050919050565b60006020820190508181036000830152616aac81615ad9565b9050919050565b60006020820190508181036000830152616acc81615b3f565b9050919050565b60006020820190508181036000830152616aec81615ba5565b9050919050565b60006020820190508181036000830152616b0c81615be5565b9050919050565b60006020820190508181036000830152616b2c81615c71565b9050919050565b60006020820190508181036000830152616b4c81615cd7565b9050919050565b60006020820190508181036000830152616b6c81615d3d565b9050919050565b60006020820190508181036000830152616b8c81615da3565b9050919050565b60006020820190508181036000830152616bac81615e2f565b9050919050565b60006020820190508181036000830152616bcc81615e95565b9050919050565b60006020820190508181036000830152616bec81615efb565b9050919050565b60006020820190508181036000830152616c0c81615fad565b9050919050565b60006020820190508181036000830152616c2c81615fed565b9050919050565b60006020820190508181036000830152616c4c81616053565b9050919050565b60006020820190508181036000830152616c6c816160df565b9050919050565b60006020820190508181036000830152616c8c81616145565b9050919050565b60006020820190508181036000830152616cac816161ab565b9050919050565b60006020820190508181036000830152616ccc81616237565b9050919050565b60006020820190508181036000830152616cec816162c3565b9050919050565b60006020820190508181036000830152616d0c81616329565b9050919050565b60006020820190508181036000830152616d2c816163b5565b9050919050565b60006020820190508181036000830152616d4c81616441565b9050919050565b60006020820190508181036000830152616d6c816164cd565b9050919050565b60006020820190508181036000830152616d8c81616533565b9050919050565b6000602082019050616da86000830184616599565b92915050565b6000604082019050616dc36000830185616599565b616dd06020830184615343565b9392505050565b600060c082019050616dec6000830189616599565b616df96020830188615343565b616e066040830187616599565b616e136060830186615343565b616e206080830185616599565b616e2d60a0830184615343565b979650505050505050565b6000608082019050616e4d6000830187616599565b8181036020830152616e5f81866153ed565b9050616e6e6040830185616599565b616e7b6060830184615343565b95945050505050565b600060a082019050616e996000830188616599565b8181036020830152616eab81876153ed565b9050616eba6040830186616599565b616ec76060830185616599565b616ed46080830184615343565b9695505050505050565b6000604082019050616ef36000830185616599565b616f006020830184616599565b9392505050565b6000606082019050616f1c6000830186616599565b616f296020830185616599565b616f366040830184615343565b949350505050565b6000602082019050616f5360008301846165bf565b92915050565b6000604051905081810181811067ffffffffffffffff82111715616f7c57600080fd5b8060405250919050565b600067ffffffffffffffff821115616f9d57600080fd5b602082029050602081019050919050565b600067ffffffffffffffff821115616fc557600080fd5b601f19601f8301169050602081019050919050565b6000819050602082019050919050565b60008190508160005260206000209050919050565b600081519050919050565b600081519050919050565b6000602082019050919050565b600082825260208201905092915050565b600082825260208201905092915050565b600082825260208201905092915050565b600082825260208201905092915050565b600081905092915050565b600061707c82617099565b9050919050565b60008115159050919050565b6000819050919050565b600073ffffffffffffffffffffffffffffffffffffffff82169050919050565b6000819050919050565b600060ff82169050919050565b60006170db82617160565b9050919050565b60006170ed826170f4565b9050919050565b60006170ff82617099565b9050919050565b600061711182617118565b9050919050565b600061712382617099565b9050919050565b6000617135826170c3565b9050919050565b6000617147826170c3565b9050919050565b6000617159826170c3565b9050919050565b600061716b82617172565b9050919050565b600061717d82617099565b9050919050565b82818337600083830152505050565b60005b838110156171b1578082015181840152602081019050617196565b838111156171c0576000848401525b50505050565b6000819050919050565b6000819050919050565b6000601f19601f8301169050919050565b6171f481617071565b81146171ff57600080fd5b50565b61720b81617083565b811461721657600080fd5b50565b6172228161708f565b811461722d57600080fd5b50565b617239816170b9565b811461724457600080fd5b5056fea264697066735822122046ee78d8d1b511f3ac0a068954ef192b12b07e8bf645235da317c4e82a600f0564736f6c634300060c0033",
  "immutableReferences": {},
  "source": "pragma solidity ^0.6.0;\npragma experimental ABIEncoderV2;\n\n\nimport \"./RBBLib.sol\";\nimport \"./RBBRegistry.sol\";\nimport \"./RBBToken.sol\";\nimport \"./SpecificRBBToken.sol\";\nimport \"@openzeppelin/contracts/ownership/Ownable.sol\";\nimport \"@openzeppelin/contracts/lifecycle/Pausable.sol\";\nimport \"@openzeppelin/contracts/math/SafeMath.sol\";\n\n\n\n/*\nTodas as operaes j supem que a entidade de origem e destino esto cadastradas e validadas no RBB_Registry, pois isso  garantido pelo contrato genrico (RBB_Token)\n\nNo includo (TBD):\n------------\n- requisito adicional de o cliente poder resgatar uma parte do valor (ao invs de ter que necessariamente transferir tudo ao fornecedor)\n- ideia de o fornecedor poder sacar mais de um saldo ao mesmo tempo.\n- pedido inicial de financiamento do cliente \n- devoluo de fornecedor para cliente sem anuncia para o BNDES\n- controle que cada doacao realmente se transformou em duas transacoes, uma para a conta adm e outra para a conta usual\nuint admFee = amount.mul(bndesFee).div(100);\n- perodo de validade para as autorizaes de transferncias extraordinrias\n- invalidar doador, cliente e fornecedor (por exemplo, em caso de CNPJ deixar de existir, contrato com BNDES acabar ou periodicamente)\n- permitir criar perfis diferenciados para contas dos clientes e fornecedores\n*/\n\n\ncontract FABndesToken is SpecificRBBToken {\n\n    //RBBId donor => true/false (registered or not)\n    mapping (uint => bool) public donors;\n\n    //RBBId client => (idFinancialSupportAgreement Client => true/false (registered or not)\n    mapping (uint => mapping (string => bool)) public clients;\n\n    //RBBId supplier => true/false (registered or not)\n    mapping (uint => bool) public suppliers;\n\n    //Hash of approved Extraordinary Transfers\n    bytes32[] public hashApprovedExtraordinaryTransfers;\n\n    // BNDES Fee percentage\n    uint256 public bndesFee;    \n\n    //Types of transfer operation\n    string public INITIAL_ALLOCATION = \"INITIAL_ALLOCATION\";\n    string public DISBURSEMENT_VERIFICATION = \"DISBURSEMENT_VERIFICATION\";\n    string public CLIENT_PAY_SUPPLIER_VERIFICATION = \"CLIENT_PAY_SUPPLIER_VERIFICATION\";\n    string public BNDES_PAY_SUPPLIER_VERIFICATION = \"BNDES_PAY_SUPPLIER_VERIFICATION\";\n    string public EXTRAORDINARY_TRANSFERS = \"EXTRAORDINARY_TRANSFERS\";\n\n    address public responsibleForInitialAllocation;\n    address public responsibleForDisbursement;\n    address public resposibleForApproveExtraordinaryTransfers;\n\n    uint8 public RESERVED_MINTED_ACCOUNT = 0;\n    uint8 public RESERVED_USUAL_DISBURSEMENTS_ACCOUNT = 1;\n    uint8 public RESERVED_BNDES_ADMIN_FEE_TO_HASH = 2;\n    uint8 public RESERVED_NO_ADDITIONAL_FIELDS_TO_DONOR = 10;\n    uint8 public RESERVED_NO_ADDITIONAL_FIELDS_TO_SUPPLIER = 20;\n    uint8 public RESERVED_NO_ADDITIONAL_FIELDS_TO_DIFF_MONEY = 30;\n\n    using SafeMath for uint;\n   \n    event FA_DonationBooked(uint idDonor, uint amount, bytes32 docHash);\n    event FA_DonationConfirmed(uint idDonor, uint amount, bytes32 docHash);\n\n    event FA_InitialAllocation_Disbursements(uint amount, bytes32 docHash);\n    event FA_InitialAllocation_Fee(uint amount, bytes32 docHash);\n\n    event FA_Disbursement  (uint idClient, string idFinancialSupportAgreement, uint amount, bytes32 docHash);\n    event FA_TokenTransfer (uint fromCnpj, string fromIdFinancialSupportAgreement, uint toCnpj, uint amount, bytes32 docHash);\n    event FA_BNDES_TokenTransfer(uint toCnpj, uint amount, bytes32 docHash);\n    event FA_RedemptionRequested (uint idClaimer, uint amount, bytes32 docHash);\n    event FA_RedemptionSettlement(bytes32 redemptionTransactionHash, bytes32 docHash);\n \n    event FA_ExtraordinaryTransferAllowed (uint fromId, bytes32 fromHash, uint toId, bytes32 toHash, \n            uint amount, bytes32 docHash);\n    event FA_ExtraordinaryTransferExecuted(uint fromId, bytes32 fromHash, uint toId, bytes32 toHash, \n            uint amount, bytes32 docHash);\n\n    event FA_ManualIntervention_Fee(uint256 percent, bytes32 docHash);\n    event FA_ManualIntervention_RoleOrAddress(address account, uint8 eventType);\n\n    event FA_DonorAdded(uint id);\n    event FA_ClientAdded(uint id);\n    event FA_SupplierAdded(uint registeredBy, uint id);\n\n\n    constructor (uint fee) public {\n        require (fee < 100, \"Valor de Fee maior que 100%\");\n\n        responsibleForInitialAllocation = msg.sender;\n        responsibleForDisbursement = msg.sender;\n        resposibleForApproveExtraordinaryTransfers = msg.sender;\n\n        bndesFee = fee;\n    }\n\n\n    function setBNDESFee(uint256 newBndesFee, bytes32 docHash) public onlyOwner {\n        require (newBndesFee < 100, \"Valor de Fee maior que 100%\");\n        bndesFee = newBndesFee;\n        emit FA_ManualIntervention_Fee(newBndesFee, docHash);\n    }\n\n    function addDonor (uint idDonor) public onlyOwner {\n        require(registry.isValidatedId(idDonor), \"Conta de doador precisa estar com cadastro validado\");\n        if(!donors[idDonor]) {\n            donors[idDonor] = true;\n            emit FA_DonorAdded(idDonor);\n        }\n    }\n\n    function bookDonation(uint amount, bytes32 docHash) public whenNotPaused  {        \n        \n        uint idDonor = registry.getId(msg.sender);\n\n        require (donors[idDonor], \"Somente doadores podem fazer doaes\");\n        require(registry.isValidatedId(idDonor), \"Conta de doador precisa estar com cadastro validado\");\n        \n        bytes32 specificHash = getCalculatedHash(RESERVED_NO_ADDITIONAL_FIELDS_TO_DIFF_MONEY);\n        rbbToken.requestMint(specificHash, idDonor, amount, docHash);\n\n        emit FA_DonationBooked(idDonor, amount, docHash);\n    }\n    \n    /* confirms the donor's donation */\n    function verifyAndActForMint(bytes32 specificHash, uint amount, bytes32 docHash,\n        string[] memory data) public override whenNotPaused onlyRBBToken {\n\n        require (getCalculatedHash(RESERVED_NO_ADDITIONAL_FIELDS_TO_DIFF_MONEY)==specificHash, \"Erro no clculo do hash da doao\");\n\n        string memory sidDonor = data[0];\n        uint idDonor = RBBLib.stringtoUint(sidDonor);\n        require (donors[idDonor], \"Somente doadores podem fazer doaes, registro estah incorreto\");\n\n        emit FA_DonationConfirmed(idDonor, amount, docHash);\n\n    }\n\n    /////////////////\n\n    function getHashToMintedAccount(bytes32 specificHash) override public returns (bytes32) {\n        //There is no difference of specificHash, all money should be minted in the same account\n        return getCalculatedHash(RESERVED_MINTED_ACCOUNT);\n    }\n\n\n    function getInitialAllocationToDisbusementData () public view\n        returns (bytes32, bytes32, string[] memory)  {\n\n        bytes32 fromHash = getCalculatedHash(RESERVED_MINTED_ACCOUNT);\n        bytes32 toHash = getCalculatedHash(RESERVED_USUAL_DISBURSEMENTS_ACCOUNT);\n\n        string[] memory data = new string[](1);\n        data[0] = INITIAL_ALLOCATION;\n        return (fromHash, toHash, data);\n    }\n\n    function getInitialAllocationToChargeFeeData () public view\n        returns (bytes32, bytes32, string[] memory)  {\n\n        bytes32 fromHash = getCalculatedHash(RESERVED_MINTED_ACCOUNT);\n        bytes32 toHash = getCalculatedHash(RESERVED_BNDES_ADMIN_FEE_TO_HASH);\n\n        string[] memory data = new string[](1);\n        data[0] = INITIAL_ALLOCATION;\n        return (fromHash, toHash, data);\n    }\n\n    function getDisbusementData (string memory idFinancialSupportAgreement) public view\n        returns (bytes32, bytes32, string[] memory)  {\n\n        bytes32 fromHash = getCalculatedHash(RESERVED_USUAL_DISBURSEMENTS_ACCOUNT);\n        bytes32 toHash = getCalculatedHash(idFinancialSupportAgreement);\n\n        string[] memory data = new string[](2);\n        data[0] = DISBURSEMENT_VERIFICATION;\n        data[1] = idFinancialSupportAgreement;\n        return (fromHash, toHash, data);\n    }\n\n    function getClientPaySupplierData (string memory idFinancialSupportAgreement) public view\n            returns (bytes32, bytes32, string[] memory) {\n\n        bytes32 fromHash = getCalculatedHash(idFinancialSupportAgreement);\n        bytes32 toHash = getCalculatedHash(RESERVED_NO_ADDITIONAL_FIELDS_TO_SUPPLIER);\n\n        string[] memory data = new string[](2);\n        data[0] = CLIENT_PAY_SUPPLIER_VERIFICATION;\n        data[1] = idFinancialSupportAgreement;\n        return (fromHash, toHash, data);\n    }\n\n    function getBNDESPaySupplierData () public view\n            returns (bytes32, bytes32, string[] memory) {\n\n        bytes32 fromHash = getCalculatedHash(RESERVED_USUAL_DISBURSEMENTS_ACCOUNT);\n        bytes32 toHash = getCalculatedHash(RESERVED_NO_ADDITIONAL_FIELDS_TO_SUPPLIER);\n\n        string[] memory data = new string[](1);\n        data[0] = BNDES_PAY_SUPPLIER_VERIFICATION;\n        return (fromHash, toHash, data);\n    }\n\n    function getRedeemData () public \n            returns (bytes32, string[] memory) {\n\n        bytes32 fromHash = getCalculatedHash(RESERVED_NO_ADDITIONAL_FIELDS_TO_SUPPLIER);\n\n        string[] memory data = new string[](0);\n        return (fromHash, data);\n    }\n\n    /////////////////\n\n    function verifyAndActForTransfer(address originalSender, uint fromId, bytes32 fromHash, uint toId, bytes32 toHash, \n            uint amount, bytes32 docHash, string[] memory data) public override whenNotPaused onlyRBBToken {\n\n        string memory specificMethod = data[0];\n\n        require (amount>0, \"Valor a ser transacionado deve ser maior do que zero.\");\n\n        if (RBBLib.isEqual(INITIAL_ALLOCATION, specificMethod)) {\n            verifyAndActForTransfer_INITIAL_ALLOCATION(originalSender, fromId, fromHash, toId, toHash, amount, docHash, data);\n        }\n        else if (RBBLib.isEqual(DISBURSEMENT_VERIFICATION, specificMethod)) {\n            verifyAndActForTransfer_DISBURSEMENT(originalSender, fromId, fromHash, toId, toHash, amount, docHash, data);\n        }\n        else if (RBBLib.isEqual(CLIENT_PAY_SUPPLIER_VERIFICATION, specificMethod)) {\n            verifyAndActForTransfer_CLIENT_PAY_SUPPLIER(originalSender, fromId, fromHash, toId, toHash, amount, docHash, data);\n        }\n        else if (RBBLib.isEqual(BNDES_PAY_SUPPLIER_VERIFICATION, specificMethod)) {\n            verifyAndActForTransfer_BNDES_PAY_SUPPLIER(originalSender, fromId, fromHash, toId, toHash, amount, docHash, data);\n        }\n        else if (RBBLib.isEqual(EXTRAORDINARY_TRANSFERS, specificMethod)) {\n            verifyAndActForTransfer_EXTRAORDINARY_TRANSFERS(originalSender, fromId, fromHash, toId, toHash, amount, docHash, data);\n        }\n        else {\n            require (false, \"Nenhuma verificao especfica encontrada para a transferncia\");\n        }\n\n    }\n\n    function verifyAndActForTransfer_INITIAL_ALLOCATION(address originalSender, uint fromId, bytes32 fromHash, uint toId, \n            bytes32 toHash, uint amount, bytes32 docHash, string[] memory data) internal whenNotPaused {\n\n        require (responsibleForInitialAllocation == originalSender, \n            \"Somente um responsvel pelas alocaes iniciais pode enviar a transao\");\n\n        uint ownerId = registry.getId(owner());\n        require (fromId == ownerId, \"Id de origem da transao no est igual ao do owner do contrato\");\n        require (fromHash == getCalculatedHash(RESERVED_MINTED_ACCOUNT), \"Hash de origem da transao no est correto\");\n\n        require (fromId == toId, \"Id de destino da transao no est igual ao do owner do contrato\");\n\n        if (toHash == getCalculatedHash(RESERVED_USUAL_DISBURSEMENTS_ACCOUNT)) {\n            emit FA_InitialAllocation_Disbursements(amount, docHash);\n        }\n        else if (toHash == getCalculatedHash(RESERVED_BNDES_ADMIN_FEE_TO_HASH)) {\n            emit FA_InitialAllocation_Fee(amount, docHash);\n        }\n        else {\n            require (false, \"Hash de destino no est correspondente a conta de desembolso ou de adm\");\n        }\n    }\n\n    function verifyAndActForTransfer_DISBURSEMENT(address originalSender, uint fromId, bytes32 fromHash, \n            uint toId, bytes32 toHash, uint amount, bytes32 docHash, string[] memory data) internal whenNotPaused {\n    \n        string memory idFinancialSupportAgreement = data[1];\n        uint ownerId = registry.getId(owner());\n\n        require (originalSender == responsibleForDisbursement, \"Esta transao s pode ser executada pelo responsvel pelo desembolso\");\n\n        //Essa eh uma regra especifica visto que outra organizacao pode ter recebido o token no allocate.\n        require (fromId == ownerId, \"Id de origem da transao no est igual ao do owner do contrato\");\n        require (getCalculatedHash(RESERVED_USUAL_DISBURSEMENTS_ACCOUNT)==fromHash, \"Erro no clculo do hash da conta do BNDES\");\n        require (getCalculatedHash(idFinancialSupportAgreement)==toHash, \"Erro no clculo do hash da conta do cliente\");\n\n        if (!clients[toId][idFinancialSupportAgreement]) {\n            clients[toId][idFinancialSupportAgreement] = true; //register the client\n            emit FA_ClientAdded(toId);\n\n        }\n\n        emit FA_Disbursement (toId, idFinancialSupportAgreement, amount, docHash);\n\n    }\n\n    function verifyAndActForTransfer_CLIENT_PAY_SUPPLIER(address originalSender, uint fromId, bytes32 fromHash, \n            uint toId, bytes32 toHash, uint amount, bytes32 docHash, string[] memory data) internal whenNotPaused {\n    \n        string memory idFinancialSupportAgreement = data[1];\n\n        //nao verifica o sender, dado que o esse contrato nao diferencia as contas do cliente\n\n        require (clients[fromId][idFinancialSupportAgreement], \"Somente clientes em contratos cadastrados podem executar o pagamento\");\n        require (getCalculatedHash(idFinancialSupportAgreement)==fromHash, \"Erro no clculo do hash da conta do cliente\");\n        require (getCalculatedHash(RESERVED_NO_ADDITIONAL_FIELDS_TO_SUPPLIER)==toHash, \"Erro no clculo do hash da conta do fornecedor\");\n\n        require(fromId != toId,\n            \"Um CNPJ no pode transferir token para si, ainda que em papis distintos (Cliente/Fornecedor)\");\n\n        if (!suppliers[toId]) {\n            suppliers[toId] = true; //register the supplier\n            emit FA_SupplierAdded(fromId, toId);\n        }\n\n        emit FA_TokenTransfer (fromId, idFinancialSupportAgreement, toId, amount, docHash);\n\n    }\n\n\n    function verifyAndActForTransfer_BNDES_PAY_SUPPLIER(address originalSender, uint fromId, bytes32 fromHash, \n            uint toId, bytes32 toHash, uint amount, bytes32 docHash, string[] memory data) internal whenNotPaused {\n\n        require (originalSender == responsibleForDisbursement, \"Esta transao s pode ser executada pelo responsvel pelo desembolso\");\n\n        require (fromId==registry.getId(owner()), \"Somente o BNDES pode executar o pagamento\");\n        require (getCalculatedHash(RESERVED_BNDES_ADMIN_FEE_TO_HASH)==fromHash, \"Erro no clculo do hash da conta de admin do contrato especifico\");\n        require (getCalculatedHash(RESERVED_NO_ADDITIONAL_FIELDS_TO_SUPPLIER)==toHash, \"Erro no clculo do hash da conta do fornecedor\");\n\n        require(fromId != toId, \"Um BNDES no pode transferir token para si\");\n\n        emit FA_BNDES_TokenTransfer (toId, amount, docHash);\n\n    }\n\n    function addSupplier (uint id) public  {\n\n        require (msg.sender == responsibleForDisbursement, \"Esta transao s pode ser executada pelo responsvel pelo desembolso\");\n        if (!suppliers[id]) {\n            suppliers[id] = true; //register the supplier\n            emit FA_SupplierAdded(registry.getId(owner()), id);\n        }\n    }\n\n    function verifyAndActForRedeem(address originalSender, uint fromId, bytes32 fromHash, uint amount, \n        bytes32 docHash, string[] memory data) public override whenNotPaused onlyRBBToken {\n\n        //nao verifica o sender, dado que o esse contrato nao diferencia as contas do fornecedor\n\n        require (amount>0, \"Valor a ser transacionado deve ser maior do que zero.\");\n        require (suppliers[fromId], \"Somente fornecedores podem executar o pagamento\");\n        require (getCalculatedHash(RESERVED_NO_ADDITIONAL_FIELDS_TO_SUPPLIER)==fromHash, \"Erro no clculo do hash da conta do fornecedor\");\n\n        emit FA_RedemptionRequested (fromId, amount, docHash);\n\n    }\n\n    function verifyAndActForRedemptionSettlement(bytes32 redemptionTransactionHash, bytes32 docHash, \n        string[] memory data)\n        public override whenNotPaused onlyRBBToken {\n\n        emit FA_RedemptionSettlement (redemptionTransactionHash, docHash);\n    }\n\n    modifier onlyRBBToken() {\n        require (msg.sender==address(rbbToken), \"Esse mtodo s pode ser chamado pelo RBB_Token\");\n        _;\n    }\n\n    \n    function getCalculatedHash (uint info) public view returns (bytes32) {\n        return keccak256(abi.encodePacked(info));\n    }\n\n    function getCalculatedHash (string memory info) public view returns (bytes32) {\n        return keccak256(abi.encodePacked(info));\n    }\n\n    function authorizeExtraordinaryTransfer (uint fromId, bytes32 fromHash, uint toId, bytes32 toHash, \n            uint amount, bytes32 docHash) public  {\n        \n        require (resposibleForApproveExtraordinaryTransfers == msg.sender, \"Somente um responsvel pelas transferncias extraordinrias por enviar a transao\");  \n        require (hasRoleInThisContract(fromId, fromHash), \"Endereo de origem no includo como papel nesse cadastro\");\n        require (hasRoleInThisContract(toId, toHash), \"Endereo de destino no includo como papel nesse cadastro\");\n\n        bytes32 m = keccak256(abi.encodePacked(fromId, fromHash, toId, toHash, amount));\n        hashApprovedExtraordinaryTransfers.push(m);\n\n        emit FA_ExtraordinaryTransferAllowed (fromId, fromHash, toId, toHash, amount, docHash);\n\n    }\n   \n    function verifyAndActForTransfer_EXTRAORDINARY_TRANSFERS(address originalSender, uint fromId, bytes32 fromHash, \n            uint toId, bytes32 toHash, uint amount, bytes32 docHash, string[] memory data) internal whenNotPaused {\n\n        require (hasRoleInThisContract(fromId, fromHash), \"Endereo de origem no includo como papel nesse cadastro\");\n        require (hasRoleInThisContract(toId, toHash), \"Endereo de destino no includo como papel nesse cadastro\");\n\n        string memory idFinancialSupportAgreement = data[1];\n        bytes32 m = keccak256(abi.encodePacked(fromId, fromHash, toId, toHash, amount));\n\n        bool transferApproved = false;\n        uint index = 0;\n        for (; index<hashApprovedExtraordinaryTransfers.length; index++) {\n            if (hashApprovedExtraordinaryTransfers[index] == m) {\n                transferApproved = true;\n                break;\n            }\n        }\n\n        require (transferApproved, \"Interveno manual no previamente cadastrada\");\n\n        hashApprovedExtraordinaryTransfers[index] \n            = hashApprovedExtraordinaryTransfers [hashApprovedExtraordinaryTransfers.length-1];\n        hashApprovedExtraordinaryTransfers.pop();\n\n        emit FA_ExtraordinaryTransferExecuted (fromId, fromHash, toId, toHash, amount, docHash);\n\n    }\n\n    function hasRoleInThisContract (uint rbbId, bytes32 hashToAccount) private returns (bool) {\n\n        bool hasRole = false;\n        if (donors[rbbId]==true) return true;\n\n//TODO: resolver\n//        if (clients[rbbId]!=0) return true;\n        if (suppliers[rbbId]==true) return true;\n\n        uint ownerId = registry.getId(owner());\n        if (ownerId == rbbId) return true;\n\n        uint rbbTokenOwnerId = registry.getId(rbbToken.owner());\n        if (rbbTokenOwnerId == rbbId) return true;\n\n        return false;\n    }\n\n\n    function setResponsibleForInitialAllocation(address rs) onlyOwner public {\n        uint id = registry.getId(rs);\n        require(id==registry.getId(owner()), \"O responsvel pela alocao inicial deve ser da mesmo RBB_ID do contrato\");\n        responsibleForInitialAllocation = rs;\n        emit FA_ManualIntervention_RoleOrAddress(rs, 1);\n    }\n\n    function setResponsibleForDisbursement(address rs) onlyOwner public {\n        uint id = registry.getId(rs);\n        require(id==registry.getId(owner()), \"O responsvel pelo desembolso deve ser da mesmo RBB_ID do contrato\");\n        responsibleForDisbursement = rs;\n        emit FA_ManualIntervention_RoleOrAddress(rs, 2);\n    }\n\n    function setResposibleForApproveExtraordinaryTransfers(address rs) onlyOwner public {\n        uint id = registry.getId(rs);\n        require(id==registry.getId(owner()), \"O responsvel pelo cadastramento de transferencias extraordinrias deve ser da mesmo RBB_ID do contrato\");\n        resposibleForApproveExtraordinaryTransfers = rs;\n        emit FA_ManualIntervention_RoleOrAddress(rs, 3);\n    }\n\n\n}",
  "sourcePath": "/Users/suzana.moreno/workspace/rbb-token/Back-Blockchain/contracts/FABndesToken.sol",
  "compiler": {
    "name": "solc",
    "version": "0.6.12+commit.27d51765.Emscripten.clang"
  },
  "schemaVersion": "3.2.5",
  "updatedAt": "2020-09-24T20:22:36.836Z",
  "devdoc": {
    "kind": "dev",
    "methods": {
      "isOwner()": {
        "details": "Returns true if the caller is the current owner."
      },
      "owner()": {
        "details": "Returns the address of the current owner."
      },
      "pause()": {
        "details": "Called by a pauser to pause, triggers stopped state."
      },
      "paused()": {
        "details": "Returns true if the contract is paused, and false otherwise."
      },
      "renounceOwnership()": {
        "details": "Leaves the contract without owner. It will not be possible to call `onlyOwner` functions anymore. Can only be called by the current owner. NOTE: Renouncing ownership will leave the contract without an owner, thereby removing any functionality that is only available to the owner."
      },
      "transferOwnership(address)": {
        "details": "Transfers ownership of the contract to a new account (`newOwner`). Can only be called by the current owner."
      },
      "unpause()": {
        "details": "Called by a pauser to unpause, returns to normal state."
      }
    },
    "version": 1
  },
  "userdoc": {
    "kind": "user",
    "methods": {},
    "version": 1
  }
}