{
  "contractName": "FABndesToken",
  "abi": [
    {
      "inputs": [
        {
          "internalType": "address",
          "name": "newRegistryAddr",
          "type": "address"
        },
        {
          "internalType": "address",
          "name": "newrbbTokenAddr",
          "type": "address"
        },
        {
          "internalType": "uint256",
          "name": "responsibleForDisbursementArg",
          "type": "uint256"
        },
        {
          "internalType": "uint256",
          "name": "responsibleForSettlementArg",
          "type": "uint256"
        }
      ],
      "payable": false,
      "stateMutability": "nonpayable",
      "type": "constructor"
    },
    {
      "anonymous": false,
      "inputs": [
        {
          "indexed": false,
          "internalType": "uint256",
          "name": "idClient",
          "type": "uint256"
        },
        {
          "indexed": false,
          "internalType": "string",
          "name": "idFinancialSupportAgreement",
          "type": "string"
        },
        {
          "indexed": false,
          "internalType": "uint256",
          "name": "amount",
          "type": "uint256"
        }
      ],
      "name": "DisbursementVerified",
      "type": "event"
    },
    {
      "anonymous": false,
      "inputs": [
        {
          "indexed": true,
          "internalType": "address",
          "name": "previousOwner",
          "type": "address"
        },
        {
          "indexed": true,
          "internalType": "address",
          "name": "newOwner",
          "type": "address"
        }
      ],
      "name": "OwnershipTransferred",
      "type": "event"
    },
    {
      "anonymous": false,
      "inputs": [
        {
          "indexed": false,
          "internalType": "address",
          "name": "account",
          "type": "address"
        }
      ],
      "name": "Paused",
      "type": "event"
    },
    {
      "anonymous": false,
      "inputs": [
        {
          "indexed": true,
          "internalType": "address",
          "name": "account",
          "type": "address"
        }
      ],
      "name": "PauserAdded",
      "type": "event"
    },
    {
      "anonymous": false,
      "inputs": [
        {
          "indexed": true,
          "internalType": "address",
          "name": "account",
          "type": "address"
        }
      ],
      "name": "PauserRemoved",
      "type": "event"
    },
    {
      "anonymous": false,
      "inputs": [
        {
          "indexed": false,
          "internalType": "address",
          "name": "account",
          "type": "address"
        }
      ],
      "name": "Unpaused",
      "type": "event"
    },
    {
      "constant": true,
      "inputs": [],
      "name": "RESERVED_SUPPLIER_ID_FINANCIAL_SUPPORT_AGREEMENT",
      "outputs": [
        {
          "internalType": "uint8",
          "name": "",
          "type": "uint8"
        }
      ],
      "payable": false,
      "stateMutability": "view",
      "type": "function"
    },
    {
      "constant": false,
      "inputs": [
        {
          "internalType": "address",
          "name": "account",
          "type": "address"
        }
      ],
      "name": "addPauser",
      "outputs": [],
      "payable": false,
      "stateMutability": "nonpayable",
      "type": "function"
    },
    {
      "constant": true,
      "inputs": [],
      "name": "isOwner",
      "outputs": [
        {
          "internalType": "bool",
          "name": "",
          "type": "bool"
        }
      ],
      "payable": false,
      "stateMutability": "view",
      "type": "function"
    },
    {
      "constant": true,
      "inputs": [
        {
          "internalType": "address",
          "name": "account",
          "type": "address"
        }
      ],
      "name": "isPauser",
      "outputs": [
        {
          "internalType": "bool",
          "name": "",
          "type": "bool"
        }
      ],
      "payable": false,
      "stateMutability": "view",
      "type": "function"
    },
    {
      "constant": true,
      "inputs": [],
      "name": "owner",
      "outputs": [
        {
          "internalType": "address",
          "name": "",
          "type": "address"
        }
      ],
      "payable": false,
      "stateMutability": "view",
      "type": "function"
    },
    {
      "constant": false,
      "inputs": [],
      "name": "pause",
      "outputs": [],
      "payable": false,
      "stateMutability": "nonpayable",
      "type": "function"
    },
    {
      "constant": true,
      "inputs": [],
      "name": "paused",
      "outputs": [
        {
          "internalType": "bool",
          "name": "",
          "type": "bool"
        }
      ],
      "payable": false,
      "stateMutability": "view",
      "type": "function"
    },
    {
      "constant": true,
      "inputs": [],
      "name": "rbbToken",
      "outputs": [
        {
          "internalType": "contract RBBToken",
          "name": "",
          "type": "address"
        }
      ],
      "payable": false,
      "stateMutability": "view",
      "type": "function"
    },
    {
      "constant": true,
      "inputs": [],
      "name": "registry",
      "outputs": [
        {
          "internalType": "contract RBBRegistry",
          "name": "",
          "type": "address"
        }
      ],
      "payable": false,
      "stateMutability": "view",
      "type": "function"
    },
    {
      "constant": false,
      "inputs": [],
      "name": "renounceOwnership",
      "outputs": [],
      "payable": false,
      "stateMutability": "nonpayable",
      "type": "function"
    },
    {
      "constant": false,
      "inputs": [],
      "name": "renouncePauser",
      "outputs": [],
      "payable": false,
      "stateMutability": "nonpayable",
      "type": "function"
    },
    {
      "constant": true,
      "inputs": [],
      "name": "responsibleForDisbursement",
      "outputs": [
        {
          "internalType": "uint256",
          "name": "",
          "type": "uint256"
        }
      ],
      "payable": false,
      "stateMutability": "view",
      "type": "function"
    },
    {
      "constant": true,
      "inputs": [],
      "name": "responsibleForSettlement",
      "outputs": [
        {
          "internalType": "uint256",
          "name": "",
          "type": "uint256"
        }
      ],
      "payable": false,
      "stateMutability": "view",
      "type": "function"
    },
    {
      "constant": false,
      "inputs": [
        {
          "internalType": "address",
          "name": "newOwner",
          "type": "address"
        }
      ],
      "name": "transferOwnership",
      "outputs": [],
      "payable": false,
      "stateMutability": "nonpayable",
      "type": "function"
    },
    {
      "constant": false,
      "inputs": [],
      "name": "unpause",
      "outputs": [],
      "payable": false,
      "stateMutability": "nonpayable",
      "type": "function"
    },
    {
      "constant": false,
      "inputs": [
        {
          "internalType": "uint256",
          "name": "fromId",
          "type": "uint256"
        },
        {
          "internalType": "bytes32",
          "name": "fromHash",
          "type": "bytes32"
        },
        {
          "internalType": "uint256",
          "name": "toId",
          "type": "uint256"
        },
        {
          "internalType": "bytes32",
          "name": "toHash",
          "type": "bytes32"
        },
        {
          "internalType": "uint256",
          "name": "amount",
          "type": "uint256"
        },
        {
          "internalType": "string[]",
          "name": "data",
          "type": "string[]"
        }
      ],
      "name": "verifyDisbursement",
      "outputs": [],
      "payable": false,
      "stateMutability": "nonpayable",
      "type": "function"
    },
    {
      "constant": false,
      "inputs": [
        {
          "internalType": "uint256",
          "name": "idResponsible",
          "type": "uint256"
        }
      ],
      "name": "setResponsibleForDisbursement",
      "outputs": [],
      "payable": false,
      "stateMutability": "nonpayable",
      "type": "function"
    },
    {
      "constant": false,
      "inputs": [
        {
          "internalType": "uint256",
          "name": "idResponsible",
          "type": "uint256"
        }
      ],
      "name": "setResponsibleForSettlement",
      "outputs": [],
      "payable": false,
      "stateMutability": "nonpayable",
      "type": "function"
    },
    {
      "constant": true,
      "inputs": [
        {
          "internalType": "address",
          "name": "addr",
          "type": "address"
        }
      ],
      "name": "isResponsibleForDisbursement",
      "outputs": [
        {
          "internalType": "bool",
          "name": "",
          "type": "bool"
        }
      ],
      "payable": false,
      "stateMutability": "view",
      "type": "function"
    },
    {
      "constant": true,
      "inputs": [
        {
          "internalType": "address",
          "name": "addr",
          "type": "address"
        }
      ],
      "name": "isResponsibleForSettlement",
      "outputs": [
        {
          "internalType": "bool",
          "name": "",
          "type": "bool"
        }
      ],
      "payable": false,
      "stateMutability": "view",
      "type": "function"
    }
  ],
  "bytecode": "0x60806040526000600660006101000a81548160ff021916908360ff1602179055503480156200002d57600080fd5b50604051620027fa380380620027fa833981810160405262000053919081019062000720565b8383600062000067620001f060201b60201c565b9050806000806101000a81548173ffffffffffffffffffffffffffffffffffffffff021916908373ffffffffffffffffffffffffffffffffffffffff1602179055508073ffffffffffffffffffffffffffffffffffffffff16600073ffffffffffffffffffffffffffffffffffffffff167f8be0079c531659141344cd1fd0a4f28419497f9722a3daafe3b4186f6b6457e060405160405180910390a3506200012562000119620001f060201b60201c565b620001f860201b60201c565b6000600260006101000a81548160ff02191690831515021790555081600260016101000a81548173ffffffffffffffffffffffffffffffffffffffff021916908373ffffffffffffffffffffffffffffffffffffffff16021790555080600360006101000a81548173ffffffffffffffffffffffffffffffffffffffff021916908373ffffffffffffffffffffffffffffffffffffffff1602179055505050620001d5826200025960201b60201c565b620001e681620003a860201b60201c565b5050505062000af5565b600033905090565b62000213816001620004f760201b6200107e1790919060201c565b8073ffffffffffffffffffffffffffffffffffffffff167f6719d08c1888103bea251a4ed56406bd0c3e69723c8a1686e017e7bbe159b6f860405160405180910390a250565b62000269620005aa60201b60201c565b620002ab576040517f08c379a0000000000000000000000000000000000000000000000000000000008152600401620002a290620009c9565b60405180910390fd5b600260019054906101000a900473ffffffffffffffffffffffffffffffffffffffff1673ffffffffffffffffffffffffffffffffffffffff1663613a7896826040518263ffffffff1660e01b815260040162000308919062000a2f565b60206040518083038186803b1580156200032157600080fd5b505afa15801562000336573d6000803e3d6000fd5b505050506040513d601f19601f820116820180604052506200035c91908101906200078c565b6200039e576040517f08c379a0000000000000000000000000000000000000000000000000000000008152600401620003959062000a0d565b60405180910390fd5b8060058190555050565b620003b8620005aa60201b60201c565b620003fa576040517f08c379a0000000000000000000000000000000000000000000000000000000008152600401620003f190620009c9565b60405180910390fd5b600260019054906101000a900473ffffffffffffffffffffffffffffffffffffffff1673ffffffffffffffffffffffffffffffffffffffff1663613a7896826040518263ffffffff1660e01b815260040162000457919062000a2f565b60206040518083038186803b1580156200047057600080fd5b505afa15801562000485573d6000803e3d6000fd5b505050506040513d601f19601f82011682018060405250620004ab91908101906200078c565b620004ed576040517f08c379a0000000000000000000000000000000000000000000000000000000008152600401620004e490620009a7565b60405180910390fd5b8060048190555050565b6200050982826200061060201b60201c565b156200054c576040517f08c379a0000000000000000000000000000000000000000000000000000000008152600401620005439062000985565b60405180910390fd5b60018260000160008373ffffffffffffffffffffffffffffffffffffffff1673ffffffffffffffffffffffffffffffffffffffff16815260200190815260200160002060006101000a81548160ff0219169083151502179055505050565b60008060009054906101000a900473ffffffffffffffffffffffffffffffffffffffff1673ffffffffffffffffffffffffffffffffffffffff16620005f4620001f060201b60201c565b73ffffffffffffffffffffffffffffffffffffffff1614905090565b60008073ffffffffffffffffffffffffffffffffffffffff168273ffffffffffffffffffffffffffffffffffffffff16141562000684576040517f08c379a00000000000000000000000000000000000000000000000000000000081526004016200067b90620009eb565b60405180910390fd5b8260000160008373ffffffffffffffffffffffffffffffffffffffff1673ffffffffffffffffffffffffffffffffffffffff16815260200190815260200160002060009054906101000a900460ff16905092915050565b600081519050620006ec8162000aa7565b92915050565b600081519050620007038162000ac1565b92915050565b6000815190506200071a8162000adb565b92915050565b600080600080608085870312156200073757600080fd5b60006200074787828801620006db565b94505060206200075a87828801620006db565b93505060406200076d8782880162000709565b9250506060620007808782880162000709565b91505092959194509250565b6000602082840312156200079f57600080fd5b6000620007af84828501620006f2565b91505092915050565b6000620007c7601f8362000a4c565b91507f526f6c65733a206163636f756e7420616c72656164792068617320726f6c65006000830152602082019050919050565b60006200080960348362000a4c565b91507f496420646f20526573706f6e7369626c6520666f7220536574746c656d656e7460008301527f206ec3a36f20657374c3a12076616c696461646f0000000000000000000000006020830152604082019050919050565b60006200087160208362000a4c565b91507f4f776e61626c653a2063616c6c6572206973206e6f7420746865206f776e65726000830152602082019050919050565b6000620008b360228362000a4c565b91507f526f6c65733a206163636f756e7420697320746865207a65726f20616464726560008301527f73730000000000000000000000000000000000000000000000000000000000006020830152604082019050919050565b60006200091b60368362000a4c565b91507f496420646f20526573706f6e7369626c6520666f722044697362757273656d6560008301527f6e74206ec3a36f20657374c3a12076616c696461646f000000000000000000006020830152604082019050919050565b6200097f8162000a9d565b82525050565b60006020820190508181036000830152620009a081620007b8565b9050919050565b60006020820190508181036000830152620009c281620007fa565b9050919050565b60006020820190508181036000830152620009e48162000862565b9050919050565b6000602082019050818103600083015262000a0681620008a4565b9050919050565b6000602082019050818103600083015262000a28816200090c565b9050919050565b600060208201905062000a46600083018462000974565b92915050565b600082825260208201905092915050565b600062000a6a8262000a7d565b9050919050565b60008115159050919050565b600073ffffffffffffffffffffffffffffffffffffffff82169050919050565b6000819050919050565b62000ab28162000a5d565b811462000abe57600080fd5b50565b62000acc8162000a71565b811462000ad857600080fd5b50565b62000ae68162000a9d565b811462000af257600080fd5b50565b611cf58062000b056000396000f3fe608060405234801561001057600080fd5b506004361061012c5760003560e01c806382dc1ec4116100ad5780638f32d59b116100715780638f32d59b146102d3578063b3791729146102f1578063e4c7426f1461030f578063edcd58bb1461032d578063f2fde38b146103495761012c565b806382dc1ec4146102415780638456cb591461025d57806385fecf9b146102675780638cabf128146102975780638da5cb5b146102b55761012c565b806358b1bbfd116100f457806358b1bbfd146101d55780635c975abb146101f15780636ef8d66d1461020f578063715018a6146102195780637b103999146102235761012c565b80631a9ceb0114610131578063214538001461014d5780633f4ba83a1461016b57806346fbf68e146101755780634add3110146101a5575b600080fd5b61014b600480360361014691908101906112a9565b610365565b005b6101556104a0565b6040516101629190611a15565b60405180910390f35b6101736104a6565b005b61018f600480360361018a9190810190611257565b61059f565b60405161019c9190611864565b60405180910390f35b6101bf60048036036101ba9190810190611257565b6105bc565b6040516101cc9190611864565b60405180910390f35b6101ef60048036036101ea91908101906112fb565b610674565b005b6101f961076f565b6040516102069190611864565b60405180910390f35b610217610786565b005b610221610798565b005b61022b61089e565b604051610238919061187f565b60405180910390f35b61025b60048036036102569190810190611257565b6108c4565b005b61026561091f565b005b610281600480360361027c9190810190611257565b610a19565b60405161028e9190611864565b60405180910390f35b61029f610ad1565b6040516102ac9190611a15565b60405180910390f35b6102bd610ad7565b6040516102ca919061182e565b60405180910390f35b6102db610b00565b6040516102e89190611864565b60405180910390f35b6102f9610b5e565b6040516103069190611a6e565b60405180910390f35b610317610b71565b604051610324919061189a565b60405180910390f35b610347600480360361034291908101906112a9565b610b97565b005b610363600480360361035e9190810190611257565b610cd2565b005b61036d610b00565b6103ac576040517f08c379a00000000000000000000000000000000000000000000000000000000081526004016103a390611995565b60405180910390fd5b600260019054906101000a900473ffffffffffffffffffffffffffffffffffffffff1673ffffffffffffffffffffffffffffffffffffffff1663613a7896826040518263ffffffff1660e01b81526004016104079190611a15565b60206040518083038186803b15801561041f57600080fd5b505afa158015610433573d6000803e3d6000fd5b505050506040513d601f19601f820116820180604052506104579190810190611280565b610496576040517f08c379a000000000000000000000000000000000000000000000000000000000815260040161048d90611955565b60405180910390fd5b8060048190555050565b60045481565b6104b66104b1610d25565b61059f565b6104f5576040517f08c379a00000000000000000000000000000000000000000000000000000000081526004016104ec906118f5565b60405180910390fd5b600260009054906101000a900460ff16610544576040517f08c379a000000000000000000000000000000000000000000000000000000000815260040161053b906118b5565b60405180910390fd5b6000600260006101000a81548160ff0219169083151502179055507f5db9ee0a495bf2e6ff9c91a7834c1ba4fdd244a5e8aa4e537bd38aeae4b073aa610588610d25565b6040516105959190611849565b60405180910390a1565b60006105b5826001610d2d90919063ffffffff16565b9050919050565b6000600554600260019054906101000a900473ffffffffffffffffffffffffffffffffffffffff1673ffffffffffffffffffffffffffffffffffffffff166365f68c89846040518263ffffffff1660e01b815260040161061c919061182e565b60206040518083038186803b15801561063457600080fd5b505afa158015610648573d6000803e3d6000fd5b505050506040513d601f19601f8201168201806040525061066c91908101906112d2565b149050919050565b600260009054906101000a900460ff16156106c4576040517f08c379a00000000000000000000000000000000000000000000000000000000081526004016106bb90611935565b60405180910390fd5b6106cd336105bc565b61070c576040517f08c379a0000000000000000000000000000000000000000000000000000000008152600401610703906119d5565b60405180910390fd5b600086905060608260008151811061072057fe5b602002602001015190507f9887e9cc10c78f65acc87e8f0a43e080425288165877a5372cdd37785831737a82828660405161075d93929190611a30565b60405180910390a15050505050505050565b6000600260009054906101000a900460ff16905090565b610796610791610d25565b610df5565b565b6107a0610b00565b6107df576040517f08c379a00000000000000000000000000000000000000000000000000000000081526004016107d690611995565b60405180910390fd5b600073ffffffffffffffffffffffffffffffffffffffff166000809054906101000a900473ffffffffffffffffffffffffffffffffffffffff1673ffffffffffffffffffffffffffffffffffffffff167f8be0079c531659141344cd1fd0a4f28419497f9722a3daafe3b4186f6b6457e060405160405180910390a360008060006101000a81548173ffffffffffffffffffffffffffffffffffffffff021916908373ffffffffffffffffffffffffffffffffffffffff160217905550565b600260019054906101000a900473ffffffffffffffffffffffffffffffffffffffff1681565b6108d46108cf610d25565b61059f565b610913576040517f08c379a000000000000000000000000000000000000000000000000000000000815260040161090a906118f5565b60405180910390fd5b61091c81610e4f565b50565b61092f61092a610d25565b61059f565b61096e576040517f08c379a0000000000000000000000000000000000000000000000000000000008152600401610965906118f5565b60405180910390fd5b600260009054906101000a900460ff16156109be576040517f08c379a00000000000000000000000000000000000000000000000000000000081526004016109b590611935565b60405180910390fd5b6001600260006101000a81548160ff0219169083151502179055507f62e78cea01bee320cd4e420270b5ea74000d11b0c9f74754ebdbfc544b05a258610a02610d25565b604051610a0f9190611849565b60405180910390a1565b6000600454600260019054906101000a900473ffffffffffffffffffffffffffffffffffffffff1673ffffffffffffffffffffffffffffffffffffffff166365f68c89846040518263ffffffff1660e01b8152600401610a79919061182e565b60206040518083038186803b158015610a9157600080fd5b505afa158015610aa5573d6000803e3d6000fd5b505050506040513d601f19601f82011682018060405250610ac991908101906112d2565b149050919050565b60055481565b60008060009054906101000a900473ffffffffffffffffffffffffffffffffffffffff16905090565b60008060009054906101000a900473ffffffffffffffffffffffffffffffffffffffff1673ffffffffffffffffffffffffffffffffffffffff16610b42610d25565b73ffffffffffffffffffffffffffffffffffffffff1614905090565b600660009054906101000a900460ff1681565b600360009054906101000a900473ffffffffffffffffffffffffffffffffffffffff1681565b610b9f610b00565b610bde576040517f08c379a0000000000000000000000000000000000000000000000000000000008152600401610bd590611995565b60405180910390fd5b600260019054906101000a900473ffffffffffffffffffffffffffffffffffffffff1673ffffffffffffffffffffffffffffffffffffffff1663613a7896826040518263ffffffff1660e01b8152600401610c399190611a15565b60206040518083038186803b158015610c5157600080fd5b505afa158015610c65573d6000803e3d6000fd5b505050506040513d601f19601f82011682018060405250610c899190810190611280565b610cc8576040517f08c379a0000000000000000000000000000000000000000000000000000000008152600401610cbf906119f5565b60405180910390fd5b8060058190555050565b610cda610b00565b610d19576040517f08c379a0000000000000000000000000000000000000000000000000000000008152600401610d1090611995565b60405180910390fd5b610d2281610ea9565b50565b600033905090565b60008073ffffffffffffffffffffffffffffffffffffffff168273ffffffffffffffffffffffffffffffffffffffff161415610d9e576040517f08c379a0000000000000000000000000000000000000000000000000000000008152600401610d95906119b5565b60405180910390fd5b8260000160008373ffffffffffffffffffffffffffffffffffffffff1673ffffffffffffffffffffffffffffffffffffffff16815260200190815260200160002060009054906101000a900460ff16905092915050565b610e09816001610fd790919063ffffffff16565b8073ffffffffffffffffffffffffffffffffffffffff167fcd265ebaf09df2871cc7bd4133404a235ba12eff2041bb89d9c714a2621c7c7e60405160405180910390a250565b610e6381600161107e90919063ffffffff16565b8073ffffffffffffffffffffffffffffffffffffffff167f6719d08c1888103bea251a4ed56406bd0c3e69723c8a1686e017e7bbe159b6f860405160405180910390a250565b600073ffffffffffffffffffffffffffffffffffffffff168173ffffffffffffffffffffffffffffffffffffffff161415610f19576040517f08c379a0000000000000000000000000000000000000000000000000000000008152600401610f1090611915565b60405180910390fd5b8073ffffffffffffffffffffffffffffffffffffffff166000809054906101000a900473ffffffffffffffffffffffffffffffffffffffff1673ffffffffffffffffffffffffffffffffffffffff167f8be0079c531659141344cd1fd0a4f28419497f9722a3daafe3b4186f6b6457e060405160405180910390a3806000806101000a81548173ffffffffffffffffffffffffffffffffffffffff021916908373ffffffffffffffffffffffffffffffffffffffff16021790555050565b610fe18282610d2d565b611020576040517f08c379a000000000000000000000000000000000000000000000000000000000815260040161101790611975565b60405180910390fd5b60008260000160008373ffffffffffffffffffffffffffffffffffffffff1673ffffffffffffffffffffffffffffffffffffffff16815260200190815260200160002060006101000a81548160ff0219169083151502179055505050565b6110888282610d2d565b156110c8576040517f08c379a00000000000000000000000000000000000000000000000000000000081526004016110bf906118d5565b60405180910390fd5b60018260000160008373ffffffffffffffffffffffffffffffffffffffff1673ffffffffffffffffffffffffffffffffffffffff16815260200190815260200160002060006101000a81548160ff0219169083151502179055505050565b60008135905061113581611c56565b92915050565b600082601f83011261114c57600080fd5b813561115f61115a82611ab6565b611a89565b9150818183526020840193506020810190508360005b838110156111a5578135860161118b88826111d9565b845260208401935060208301925050600181019050611175565b5050505092915050565b6000815190506111be81611c6d565b92915050565b6000813590506111d381611c84565b92915050565b600082601f8301126111ea57600080fd5b81356111fd6111f882611ade565b611a89565b9150808252602083016020830185838301111561121957600080fd5b611224838284611c03565b50505092915050565b60008135905061123c81611c9b565b92915050565b60008151905061125181611c9b565b92915050565b60006020828403121561126957600080fd5b600061127784828501611126565b91505092915050565b60006020828403121561129257600080fd5b60006112a0848285016111af565b91505092915050565b6000602082840312156112bb57600080fd5b60006112c98482850161122d565b91505092915050565b6000602082840312156112e457600080fd5b60006112f284828501611242565b91505092915050565b60008060008060008060c0878903121561131457600080fd5b600061132289828a0161122d565b965050602061133389828a016111c4565b955050604061134489828a0161122d565b945050606061135589828a016111c4565b935050608061136689828a0161122d565b92505060a087013567ffffffffffffffff81111561138357600080fd5b61138f89828a0161113b565b9150509295509295509295565b6113a581611b85565b82525050565b6113b481611b26565b82525050565b6113c381611b38565b82525050565b6113d281611b97565b82525050565b6113e181611bbb565b82525050565b60006113f282611b0a565b6113fc8185611b15565b935061140c818560208601611c12565b61141581611c45565b840191505092915050565b600061142d601483611b15565b91507f5061757361626c653a206e6f74207061757365640000000000000000000000006000830152602082019050919050565b600061146d601f83611b15565b91507f526f6c65733a206163636f756e7420616c72656164792068617320726f6c65006000830152602082019050919050565b60006114ad603083611b15565b91507f506175736572526f6c653a2063616c6c657220646f6573206e6f74206861766560008301527f207468652050617573657220726f6c65000000000000000000000000000000006020830152604082019050919050565b6000611513602683611b15565b91507f4f776e61626c653a206e6577206f776e657220697320746865207a65726f206160008301527f64647265737300000000000000000000000000000000000000000000000000006020830152604082019050919050565b6000611579601083611b15565b91507f5061757361626c653a20706175736564000000000000000000000000000000006000830152602082019050919050565b60006115b9603483611b15565b91507f496420646f20526573706f6e7369626c6520666f7220536574746c656d656e7460008301527f206ec3a36f20657374c3a12076616c696461646f0000000000000000000000006020830152604082019050919050565b600061161f602183611b15565b91507f526f6c65733a206163636f756e7420646f6573206e6f74206861766520726f6c60008301527f65000000000000000000000000000000000000000000000000000000000000006020830152604082019050919050565b6000611685602083611b15565b91507f4f776e61626c653a2063616c6c6572206973206e6f7420746865206f776e65726000830152602082019050919050565b60006116c5602283611b15565b91507f526f6c65733a206163636f756e7420697320746865207a65726f20616464726560008301527f73730000000000000000000000000000000000000000000000000000000000006020830152604082019050919050565b600061172b604483611b15565b91507f4170656e6173206f20726573706f6e73c3a176656c2070656c61206c6962657260008301527f61c3a7c3a36f20706f64652065786563757461722065737361206f70657261c360208301527fa7c3a36f000000000000000000000000000000000000000000000000000000006040830152606082019050919050565b60006117b7603683611b15565b91507f496420646f20526573706f6e7369626c6520666f722044697362757273656d6560008301527f6e74206ec3a36f20657374c3a12076616c696461646f000000000000000000006020830152604082019050919050565b61181981611b6e565b82525050565b61182881611b78565b82525050565b600060208201905061184360008301846113ab565b92915050565b600060208201905061185e600083018461139c565b92915050565b600060208201905061187960008301846113ba565b92915050565b600060208201905061189460008301846113c9565b92915050565b60006020820190506118af60008301846113d8565b92915050565b600060208201905081810360008301526118ce81611420565b9050919050565b600060208201905081810360008301526118ee81611460565b9050919050565b6000602082019050818103600083015261190e816114a0565b9050919050565b6000602082019050818103600083015261192e81611506565b9050919050565b6000602082019050818103600083015261194e8161156c565b9050919050565b6000602082019050818103600083015261196e816115ac565b9050919050565b6000602082019050818103600083015261198e81611612565b9050919050565b600060208201905081810360008301526119ae81611678565b9050919050565b600060208201905081810360008301526119ce816116b8565b9050919050565b600060208201905081810360008301526119ee8161171e565b9050919050565b60006020820190508181036000830152611a0e816117aa565b9050919050565b6000602082019050611a2a6000830184611810565b92915050565b6000606082019050611a456000830186611810565b8181036020830152611a5781856113e7565b9050611a666040830184611810565b949350505050565b6000602082019050611a83600083018461181f565b92915050565b6000604051905081810181811067ffffffffffffffff82111715611aac57600080fd5b8060405250919050565b600067ffffffffffffffff821115611acd57600080fd5b602082029050602081019050919050565b600067ffffffffffffffff821115611af557600080fd5b601f19601f8301169050602081019050919050565b600081519050919050565b600082825260208201905092915050565b6000611b3182611b4e565b9050919050565b60008115159050919050565b6000819050919050565b600073ffffffffffffffffffffffffffffffffffffffff82169050919050565b6000819050919050565b600060ff82169050919050565b6000611b9082611bdf565b9050919050565b6000611ba282611ba9565b9050919050565b6000611bb482611b4e565b9050919050565b6000611bc682611bcd565b9050919050565b6000611bd882611b4e565b9050919050565b6000611bea82611bf1565b9050919050565b6000611bfc82611b4e565b9050919050565b82818337600083830152505050565b60005b83811015611c30578082015181840152602081019050611c15565b83811115611c3f576000848401525b50505050565b6000601f19601f8301169050919050565b611c5f81611b26565b8114611c6a57600080fd5b50565b611c7681611b38565b8114611c8157600080fd5b50565b611c8d81611b44565b8114611c9857600080fd5b50565b611ca481611b6e565b8114611caf57600080fd5b5056fea365627a7a7231582027e59ac041d0dff19c8fbcdfdfb463dda2f4df9ca95c4677c40183625f2233ba6c6578706572696d656e74616cf564736f6c63430005100040",
  "source": "pragma solidity ^0.5.0;\npragma experimental ABIEncoderV2;\n\n\nimport \"./RBBLib.sol\";\nimport \"./RBBRegistry.sol\";\nimport \"./RBBToken.sol\";\nimport \"./SpecificRBBToken.sol\";\nimport \"@openzeppelin/contracts/ownership/Ownable.sol\";\nimport \"@openzeppelin/contracts/lifecycle/Pausable.sol\";\n\n\n// Pode ter cliente no hash xyz, fornecedor no hash abc\n// clientes no hash xyz so aqueles que bndes informou (set cliente no hash total)\n\ncontract FABndesToken is SpecificRBBToken {\n\n    // o id, nao tem como especializar dentro do BNDES. Diferena no front-end\n    uint public responsibleForSettlement;\n    uint public responsibleForDisbursement;\n\n    uint8 public RESERVED_SUPPLIER_ID_FINANCIAL_SUPPORT_AGREEMENT = 0;\n\n\n    //ATENCAO: troquei cnpj por id no argumento do evento e tirei arg de contrato no resgate - impacto no BNDESTransparente\n    event DisbursementVerified  (uint idClient, string idFinancialSupportAgreement, uint amount);\n//    event TokenTransfer (uint fromCnpj, uint fromIdFinancialSupportAgreement, uint toCnpj, uint amount);\n//    event RedemptionRequested (uint idClaimer, uint amount);\n//    event RedemptionSettlement(string redemptionTransactionHash, string receiptHash);\n\n//deveria nao receber (newRegistryAddr, newrbbTokenAddr) e serem setados no registro?\n//O BNDES poderah verificar que o registry e token nao podem ser alterados.\n    constructor (address newRegistryAddr, address newrbbTokenAddr, \n                uint responsibleForDisbursementArg, uint responsibleForSettlementArg)\n                SpecificRBBToken (newRegistryAddr, newrbbTokenAddr)\n                public {\n\n        setResponsibleForDisbursement(responsibleForDisbursementArg);\n        setResponsibleForSettlement(responsibleForSettlementArg);\n    }\n\n    function verifyDisbursement(uint fromId, bytes32 fromHash, uint toId, bytes32 toHash, \n            uint amount, string[] memory data)\n        public whenNotPaused onlyResponsibleForDisbursement {\n\n        uint clientId = fromId;\n        string memory idFinancialSupportAgreement = data[0];\n\n        //incluir regras especificas de validacao de cliente e do contrato aqui\n        \n        //TODO:origem eh bndes e destino e cliente em hash cadastrado\n        \n        //****** * /\n\n        emit DisbursementVerified (clientId, idFinancialSupportAgreement, amount);\n\n    }\n/*\n    function paySupplier (uint idFinancialSupportAgreement, uint amount, uint supplierId) whenNotPaused public {\n        \n        uint clientId = registry.getId(msg.sender);\n\n        //incluir regras especificas de pagamento aqui\n\n        require(clientId != supplierId,\n            \"Um CNPJ no pode transferir token para si, ainda que em papis distintos (Cliente/Fornecedor)\");\n\n        //TODO:verificar se o sender eh mesmo um cliente e destino nao eh bndes, hash do destino eh zero\n\n        //****** * /\n\n        bytes32 hashFrom = keccak256(abi.encodePacked(idFinancialSupportAgreement));\n        bytes32 hashTo = keccak256(abi.encodePacked(RESERVED_SUPPLIER_ID_FINANCIAL_SUPPORT_AGREEMENT));\n        rbbToken.transfer(clientId, hashFrom, supplierId, hashTo, amount);\n\n\n        emit TokenTransfer (clientId, idFinancialSupportAgreement, supplierId, amount);\n    }\n\n    function redeem(uint amount) whenNotPaused public {\n        \n        uint supplierId = registry.getId(msg.sender);\n\n        //incluir regras especificas de resgate aqui\n        //****** * /\n        \n        bytes32 hashFrom = keccak256(abi.encodePacked(RESERVED_SUPPLIER_ID_FINANCIAL_SUPPORT_AGREEMENT));\n        rbbToken.deallocate(supplierId, hashFrom, amount);\n\n        //TODO:verificar se o sender hash eh zero e destino BNDES\n\n\n        //TODO: chama metodo para pagamento FIAT (mock?)\n        //linkar com burn\n        //****** * /\n\n        emit RedemptionRequested (supplierId, amount);\n\n    }\n\n\n//settlement deveria estar aqui mesmo? responsvel pelo settlement ser sempre o BNDES? Lembrar caso ANCINE\n   /**\n    * Using this function, the Responsible for Settlement indicates that he has made the FIAT money transfer.\n    * @param redemptionTransactionHash hash of the redeem transaction in which the FIAT money settlement occurred.\n    * @param receiptHash hash that proof the FIAT money transfer\n    * / \n    function notifyRedemptionSettlement(string memory redemptionTransactionHash, string memory receiptHash)\n        public whenNotPaused onlyResponsibleForSettlement {\n\n        require (RBBLib.isValidHash(receiptHash), \"O hash do recibo  invlido\");\n        emit RedemptionSettlement(redemptionTransactionHash, receiptHash);\n    }\n    */\n\n//avaliar se deve passar pelo framework de mudanca (exceto construtor)\n    function setResponsibleForDisbursement(uint idResponsible) onlyOwner public {\n        require (registry.isValidatedId(idResponsible), \"Id do Responsible for Disbursement no est validado\");\n        responsibleForDisbursement = idResponsible;\n    }\n\n//avaliar se deve passar pelo framework de mudanca (exceto construtor)\n    function setResponsibleForSettlement(uint idResponsible) onlyOwner public {\n        require (registry.isValidatedId(idResponsible), \"Id do Responsible for Settlement no est validado\");\n        responsibleForSettlement = idResponsible;\n    }\n \n    function isResponsibleForDisbursement(address addr) public view returns (bool) {\n        return (registry.getId(addr) == responsibleForDisbursement);\n    }\n\n    function isResponsibleForSettlement(address addr) public view returns (bool) {\n        return (registry.getId(addr) == responsibleForSettlement);\n    }\n\n    modifier onlyResponsibleForDisbursement() {\n        require(isResponsibleForDisbursement(msg.sender), \"Apenas o responsvel pela liberao pode executar essa operao\");\n        _;\n    }\n\n    modifier onlyResponsibleForSettlement() {\n        require(isResponsibleForSettlement(msg.sender), \"Apenas o responsvel pela liquidao pode executar essa operao\");\n        _;\n    }\n   \n}",
  "sourcePath": "/Users/suzana.moreno/workspace/rbb-token/Back-Blockchain/contracts/FABndesToken.sol",
  "compiler": {
    "name": "solc",
    "version": "0.5.16+commit.9c3226ce.Emscripten.clang"
  },
  "schemaVersion": "3.0.23",
  "updatedAt": "2020-09-10T20:34:23.319Z",
  "devdoc": {
    "methods": {
      "isOwner()": {
        "details": "Returns true if the caller is the current owner."
      },
      "owner()": {
        "details": "Returns the address of the current owner."
      },
      "pause()": {
        "details": "Called by a pauser to pause, triggers stopped state."
      },
      "paused()": {
        "details": "Returns true if the contract is paused, and false otherwise."
      },
      "renounceOwnership()": {
        "details": "Leaves the contract without owner. It will not be possible to call `onlyOwner` functions anymore. Can only be called by the current owner.     * NOTE: Renouncing ownership will leave the contract without an owner, thereby removing any functionality that is only available to the owner."
      },
      "transferOwnership(address)": {
        "details": "Transfers ownership of the contract to a new account (`newOwner`). Can only be called by the current owner."
      },
      "unpause()": {
        "details": "Called by a pauser to unpause, returns to normal state."
      }
    }
  },
  "userdoc": {
    "methods": {}
  }
}