{
  "contractName": "FABndesToken",
  "abi": [
    {
      "inputs": [
        {
          "internalType": "uint256",
          "name": "_bndesFee",
          "type": "uint256"
        }
      ],
      "payable": false,
      "stateMutability": "nonpayable",
      "type": "constructor"
    },
    {
      "anonymous": false,
      "inputs": [
        {
          "indexed": false,
          "internalType": "uint256",
          "name": "id",
          "type": "uint256"
        }
      ],
      "name": "FAB_ClientAdded",
      "type": "event"
    },
    {
      "anonymous": false,
      "inputs": [
        {
          "indexed": false,
          "internalType": "uint256",
          "name": "idClient",
          "type": "uint256"
        },
        {
          "indexed": false,
          "internalType": "string",
          "name": "idFinancialSupportAgreement",
          "type": "string"
        },
        {
          "indexed": false,
          "internalType": "uint256",
          "name": "amount",
          "type": "uint256"
        }
      ],
      "name": "FAB_Disbursement",
      "type": "event"
    },
    {
      "anonymous": false,
      "inputs": [
        {
          "indexed": false,
          "internalType": "uint256",
          "name": "idDonor",
          "type": "uint256"
        },
        {
          "indexed": false,
          "internalType": "uint256",
          "name": "amount",
          "type": "uint256"
        },
        {
          "indexed": false,
          "internalType": "uint256",
          "name": "tokenToBeMinted",
          "type": "uint256"
        }
      ],
      "name": "FAB_DonationBooked",
      "type": "event"
    },
    {
      "anonymous": false,
      "inputs": [
        {
          "indexed": false,
          "internalType": "string",
          "name": "idDonor",
          "type": "string"
        },
        {
          "indexed": false,
          "internalType": "uint256",
          "name": "amount",
          "type": "uint256"
        },
        {
          "indexed": false,
          "internalType": "string",
          "name": "receiptHash",
          "type": "string"
        }
      ],
      "name": "FAB_DonationConfirmed",
      "type": "event"
    },
    {
      "anonymous": false,
      "inputs": [
        {
          "indexed": false,
          "internalType": "uint256",
          "name": "id",
          "type": "uint256"
        }
      ],
      "name": "FAB_DonorAdded",
      "type": "event"
    },
    {
      "anonymous": false,
      "inputs": [
        {
          "indexed": false,
          "internalType": "uint256",
          "name": "percent",
          "type": "uint256"
        },
        {
          "indexed": false,
          "internalType": "string",
          "name": "description",
          "type": "string"
        }
      ],
      "name": "FAB_ManualIntervention_Fee",
      "type": "event"
    },
    {
      "anonymous": false,
      "inputs": [
        {
          "indexed": false,
          "internalType": "uint256",
          "name": "fromId",
          "type": "uint256"
        },
        {
          "indexed": false,
          "internalType": "string",
          "name": "idFinancialSupportAgreement",
          "type": "string"
        },
        {
          "indexed": false,
          "internalType": "uint256",
          "name": "amount",
          "type": "uint256"
        }
      ],
      "name": "FAB_ManualIntervention_Returned_Client_BNDES",
      "type": "event"
    },
    {
      "anonymous": false,
      "inputs": [
        {
          "indexed": false,
          "internalType": "uint256",
          "name": "idClaimer",
          "type": "uint256"
        },
        {
          "indexed": false,
          "internalType": "uint256",
          "name": "amount",
          "type": "uint256"
        }
      ],
      "name": "FAB_RedemptionRequested",
      "type": "event"
    },
    {
      "anonymous": false,
      "inputs": [
        {
          "indexed": false,
          "internalType": "string",
          "name": "redemptionTransactionHash",
          "type": "string"
        },
        {
          "indexed": false,
          "internalType": "string",
          "name": "receiptHash",
          "type": "string"
        }
      ],
      "name": "FAB_RedemptionSettlement",
      "type": "event"
    },
    {
      "anonymous": false,
      "inputs": [
        {
          "indexed": false,
          "internalType": "uint256",
          "name": "id",
          "type": "uint256"
        }
      ],
      "name": "FAB_SupplierAdded",
      "type": "event"
    },
    {
      "anonymous": false,
      "inputs": [
        {
          "indexed": false,
          "internalType": "uint256",
          "name": "fromCnpj",
          "type": "uint256"
        },
        {
          "indexed": false,
          "internalType": "string",
          "name": "fromIdFinancialSupportAgreement",
          "type": "string"
        },
        {
          "indexed": false,
          "internalType": "uint256",
          "name": "toCnpj",
          "type": "uint256"
        },
        {
          "indexed": false,
          "internalType": "uint256",
          "name": "amount",
          "type": "uint256"
        }
      ],
      "name": "FAB_TokenTransfer",
      "type": "event"
    },
    {
      "anonymous": false,
      "inputs": [
        {
          "indexed": true,
          "internalType": "address",
          "name": "previousOwner",
          "type": "address"
        },
        {
          "indexed": true,
          "internalType": "address",
          "name": "newOwner",
          "type": "address"
        }
      ],
      "name": "OwnershipTransferred",
      "type": "event"
    },
    {
      "anonymous": false,
      "inputs": [
        {
          "indexed": false,
          "internalType": "address",
          "name": "account",
          "type": "address"
        }
      ],
      "name": "Paused",
      "type": "event"
    },
    {
      "anonymous": false,
      "inputs": [
        {
          "indexed": true,
          "internalType": "address",
          "name": "account",
          "type": "address"
        }
      ],
      "name": "PauserAdded",
      "type": "event"
    },
    {
      "anonymous": false,
      "inputs": [
        {
          "indexed": true,
          "internalType": "address",
          "name": "account",
          "type": "address"
        }
      ],
      "name": "PauserRemoved",
      "type": "event"
    },
    {
      "anonymous": false,
      "inputs": [
        {
          "indexed": false,
          "internalType": "address",
          "name": "account",
          "type": "address"
        }
      ],
      "name": "Unpaused",
      "type": "event"
    },
    {
      "constant": true,
      "inputs": [],
      "name": "DISBURSEMENT_VERIFICATION",
      "outputs": [
        {
          "internalType": "string",
          "name": "",
          "type": "string"
        }
      ],
      "payable": false,
      "stateMutability": "view",
      "type": "function"
    },
    {
      "constant": true,
      "inputs": [],
      "name": "PAY_SUPPLIER_VERIFICATION",
      "outputs": [
        {
          "internalType": "string",
          "name": "",
          "type": "string"
        }
      ],
      "payable": false,
      "stateMutability": "view",
      "type": "function"
    },
    {
      "constant": true,
      "inputs": [],
      "name": "RESERVED_NO_ADDITIONAL_FIELD_TO_HASH",
      "outputs": [
        {
          "internalType": "uint8",
          "name": "",
          "type": "uint8"
        }
      ],
      "payable": false,
      "stateMutability": "view",
      "type": "function"
    },
    {
      "constant": true,
      "inputs": [],
      "name": "RETURN_FROM_CLIENT_TO_BNDES_VERIFICATION",
      "outputs": [
        {
          "internalType": "string",
          "name": "",
          "type": "string"
        }
      ],
      "payable": false,
      "stateMutability": "view",
      "type": "function"
    },
    {
      "constant": false,
      "inputs": [
        {
          "internalType": "address",
          "name": "account",
          "type": "address"
        }
      ],
      "name": "addPauser",
      "outputs": [],
      "payable": false,
      "stateMutability": "nonpayable",
      "type": "function"
    },
    {
      "constant": true,
      "inputs": [],
      "name": "bndesFee",
      "outputs": [
        {
          "internalType": "uint256",
          "name": "",
          "type": "uint256"
        }
      ],
      "payable": false,
      "stateMutability": "view",
      "type": "function"
    },
    {
      "constant": true,
      "inputs": [
        {
          "internalType": "uint256",
          "name": "",
          "type": "uint256"
        },
        {
          "internalType": "string",
          "name": "",
          "type": "string"
        }
      ],
      "name": "clients",
      "outputs": [
        {
          "internalType": "bool",
          "name": "",
          "type": "bool"
        }
      ],
      "payable": false,
      "stateMutability": "view",
      "type": "function"
    },
    {
      "constant": true,
      "inputs": [],
      "name": "isOwner",
      "outputs": [
        {
          "internalType": "bool",
          "name": "",
          "type": "bool"
        }
      ],
      "payable": false,
      "stateMutability": "view",
      "type": "function"
    },
    {
      "constant": true,
      "inputs": [
        {
          "internalType": "address",
          "name": "account",
          "type": "address"
        }
      ],
      "name": "isPauser",
      "outputs": [
        {
          "internalType": "bool",
          "name": "",
          "type": "bool"
        }
      ],
      "payable": false,
      "stateMutability": "view",
      "type": "function"
    },
    {
      "constant": true,
      "inputs": [],
      "name": "owner",
      "outputs": [
        {
          "internalType": "address",
          "name": "",
          "type": "address"
        }
      ],
      "payable": false,
      "stateMutability": "view",
      "type": "function"
    },
    {
      "constant": false,
      "inputs": [],
      "name": "pause",
      "outputs": [],
      "payable": false,
      "stateMutability": "nonpayable",
      "type": "function"
    },
    {
      "constant": true,
      "inputs": [],
      "name": "paused",
      "outputs": [
        {
          "internalType": "bool",
          "name": "",
          "type": "bool"
        }
      ],
      "payable": false,
      "stateMutability": "view",
      "type": "function"
    },
    {
      "constant": true,
      "inputs": [],
      "name": "rbbToken",
      "outputs": [
        {
          "internalType": "contract RBBToken",
          "name": "",
          "type": "address"
        }
      ],
      "payable": false,
      "stateMutability": "view",
      "type": "function"
    },
    {
      "constant": true,
      "inputs": [],
      "name": "registry",
      "outputs": [
        {
          "internalType": "contract RBBRegistry",
          "name": "",
          "type": "address"
        }
      ],
      "payable": false,
      "stateMutability": "view",
      "type": "function"
    },
    {
      "constant": false,
      "inputs": [],
      "name": "renounceOwnership",
      "outputs": [],
      "payable": false,
      "stateMutability": "nonpayable",
      "type": "function"
    },
    {
      "constant": false,
      "inputs": [],
      "name": "renouncePauser",
      "outputs": [],
      "payable": false,
      "stateMutability": "nonpayable",
      "type": "function"
    },
    {
      "constant": false,
      "inputs": [
        {
          "internalType": "address",
          "name": "newRegistryAddr",
          "type": "address"
        },
        {
          "internalType": "address",
          "name": "newrbbTokenAddr",
          "type": "address"
        }
      ],
      "name": "setInitializationDataDuringRegistration",
      "outputs": [],
      "payable": false,
      "stateMutability": "nonpayable",
      "type": "function"
    },
    {
      "constant": false,
      "inputs": [
        {
          "internalType": "address",
          "name": "newOwner",
          "type": "address"
        }
      ],
      "name": "transferOwnership",
      "outputs": [],
      "payable": false,
      "stateMutability": "nonpayable",
      "type": "function"
    },
    {
      "constant": false,
      "inputs": [],
      "name": "unpause",
      "outputs": [],
      "payable": false,
      "stateMutability": "nonpayable",
      "type": "function"
    },
    {
      "constant": false,
      "inputs": [
        {
          "internalType": "uint256",
          "name": "newBndesFee",
          "type": "uint256"
        },
        {
          "internalType": "string",
          "name": "description",
          "type": "string"
        }
      ],
      "name": "setBNDESFee",
      "outputs": [],
      "payable": false,
      "stateMutability": "nonpayable",
      "type": "function"
    },
    {
      "constant": false,
      "inputs": [
        {
          "internalType": "uint256",
          "name": "idDonor",
          "type": "uint256"
        }
      ],
      "name": "addDonor",
      "outputs": [],
      "payable": false,
      "stateMutability": "nonpayable",
      "type": "function"
    },
    {
      "constant": false,
      "inputs": [
        {
          "internalType": "uint256",
          "name": "amount",
          "type": "uint256"
        }
      ],
      "name": "bookDonation",
      "outputs": [],
      "payable": false,
      "stateMutability": "nonpayable",
      "type": "function"
    },
    {
      "constant": false,
      "inputs": [
        {
          "internalType": "bytes32",
          "name": "specificHash",
          "type": "bytes32"
        },
        {
          "internalType": "uint256",
          "name": "amountMinted",
          "type": "uint256"
        },
        {
          "internalType": "string[]",
          "name": "data",
          "type": "string[]"
        },
        {
          "internalType": "string",
          "name": "docHash",
          "type": "string"
        }
      ],
      "name": "verifyAndActForMint",
      "outputs": [],
      "payable": false,
      "stateMutability": "nonpayable",
      "type": "function"
    },
    {
      "constant": true,
      "inputs": [
        {
          "internalType": "string",
          "name": "idFinancialSupportAgreement",
          "type": "string"
        }
      ],
      "name": "getDisbusementData",
      "outputs": [
        {
          "internalType": "bytes32",
          "name": "",
          "type": "bytes32"
        },
        {
          "internalType": "bytes32",
          "name": "",
          "type": "bytes32"
        },
        {
          "internalType": "string[]",
          "name": "",
          "type": "string[]"
        }
      ],
      "payable": false,
      "stateMutability": "view",
      "type": "function"
    },
    {
      "constant": true,
      "inputs": [
        {
          "internalType": "string",
          "name": "idFinancialSupportAgreement",
          "type": "string"
        }
      ],
      "name": "getPaySupplierData",
      "outputs": [
        {
          "internalType": "bytes32",
          "name": "",
          "type": "bytes32"
        },
        {
          "internalType": "bytes32",
          "name": "",
          "type": "bytes32"
        },
        {
          "internalType": "string[]",
          "name": "",
          "type": "string[]"
        }
      ],
      "payable": false,
      "stateMutability": "view",
      "type": "function"
    },
    {
      "constant": false,
      "inputs": [
        {
          "internalType": "string",
          "name": "idFinancialSupportAgreement",
          "type": "string"
        }
      ],
      "name": "getReturnedClientToBNDESData",
      "outputs": [
        {
          "internalType": "bytes32",
          "name": "",
          "type": "bytes32"
        },
        {
          "internalType": "bytes32",
          "name": "",
          "type": "bytes32"
        },
        {
          "internalType": "string[]",
          "name": "",
          "type": "string[]"
        }
      ],
      "payable": false,
      "stateMutability": "nonpayable",
      "type": "function"
    },
    {
      "constant": false,
      "inputs": [],
      "name": "getRedeemData",
      "outputs": [
        {
          "internalType": "bytes32",
          "name": "",
          "type": "bytes32"
        },
        {
          "internalType": "string[]",
          "name": "",
          "type": "string[]"
        }
      ],
      "payable": false,
      "stateMutability": "nonpayable",
      "type": "function"
    },
    {
      "constant": false,
      "inputs": [
        {
          "internalType": "uint256",
          "name": "fromId",
          "type": "uint256"
        },
        {
          "internalType": "bytes32",
          "name": "fromHash",
          "type": "bytes32"
        },
        {
          "internalType": "uint256",
          "name": "toId",
          "type": "uint256"
        },
        {
          "internalType": "bytes32",
          "name": "toHash",
          "type": "bytes32"
        },
        {
          "internalType": "uint256",
          "name": "amount",
          "type": "uint256"
        },
        {
          "internalType": "string[]",
          "name": "data",
          "type": "string[]"
        }
      ],
      "name": "verifyAndActForTransfer",
      "outputs": [],
      "payable": false,
      "stateMutability": "nonpayable",
      "type": "function"
    },
    {
      "constant": false,
      "inputs": [
        {
          "internalType": "uint256",
          "name": "fromId",
          "type": "uint256"
        },
        {
          "internalType": "bytes32",
          "name": "fromHash",
          "type": "bytes32"
        },
        {
          "internalType": "uint256",
          "name": "amount",
          "type": "uint256"
        },
        {
          "internalType": "string[]",
          "name": "data",
          "type": "string[]"
        }
      ],
      "name": "verifyAndActForRedeem",
      "outputs": [],
      "payable": false,
      "stateMutability": "nonpayable",
      "type": "function"
    },
    {
      "constant": false,
      "inputs": [
        {
          "internalType": "string",
          "name": "redemptionTransactionHash",
          "type": "string"
        },
        {
          "internalType": "string",
          "name": "receiptHash",
          "type": "string"
        },
        {
          "internalType": "string[]",
          "name": "data",
          "type": "string[]"
        }
      ],
      "name": "verifyAndActForRedemptionSettlement",
      "outputs": [],
      "payable": false,
      "stateMutability": "nonpayable",
      "type": "function"
    }
  ],
  "bytecode": "0x60806040526040518060400160405280601981526020017f44495342555253454d454e545f564552494649434154494f4e00000000000000815250600890805190602001906200005192919062000449565b506040518060400160405280601981526020017f5041595f535550504c4945525f564552494649434154494f4e00000000000000815250600990805190602001906200009f92919062000449565b5060405180606001604052806028815260200162004d5560289139600a9080519060200190620000d192919062000449565b506000600b60006101000a81548160ff021916908360ff160217905550348015620000fb57600080fd5b5060405162004d7d38038062004d7d83398181016040526200012191908101906200050f565b6000620001336200026260201b60201c565b9050806000806101000a81548173ffffffffffffffffffffffffffffffffffffffff021916908373ffffffffffffffffffffffffffffffffffffffff1602179055508073ffffffffffffffffffffffffffffffffffffffff16600073ffffffffffffffffffffffffffffffffffffffff167f8be0079c531659141344cd1fd0a4f28419497f9722a3daafe3b4186f6b6457e060405160405180910390a350620001f1620001e56200026260201b60201c565b6200026a60201b60201c565b6000600260006101000a81548160ff02191690831515021790555060646007541062000254576040517f08c379a00000000000000000000000000000000000000000000000000000000081526004016200024b9062000627565b60405180910390fd5b8060078190555050620006c2565b600033905090565b62000285816001620002cb60201b62002a3d1790919060201c565b8073ffffffffffffffffffffffffffffffffffffffff167f6719d08c1888103bea251a4ed56406bd0c3e69723c8a1686e017e7bbe159b6f860405160405180910390a250565b620002dd82826200037e60201b60201c565b1562000320576040517f08c379a0000000000000000000000000000000000000000000000000000000008152600401620003179062000649565b60405180910390fd5b60018260000160008373ffffffffffffffffffffffffffffffffffffffff1673ffffffffffffffffffffffffffffffffffffffff16815260200190815260200160002060006101000a81548160ff0219169083151502179055505050565b60008073ffffffffffffffffffffffffffffffffffffffff168273ffffffffffffffffffffffffffffffffffffffff161415620003f2576040517f08c379a0000000000000000000000000000000000000000000000000000000008152600401620003e9906200066b565b60405180910390fd5b8260000160008373ffffffffffffffffffffffffffffffffffffffff1673ffffffffffffffffffffffffffffffffffffffff16815260200190815260200160002060009054906101000a900460ff16905092915050565b828054600181600116156101000203166002900490600052602060002090601f016020900481019282601f106200048c57805160ff1916838001178555620004bd565b82800160010185558215620004bd579182015b82811115620004bc5782518255916020019190600101906200049f565b5b509050620004cc9190620004d0565b5090565b620004f591905b80821115620004f1576000816000905550600101620004d7565b5090565b90565b6000815190506200050981620006a8565b92915050565b6000602082840312156200052257600080fd5b60006200053284828501620004f8565b91505092915050565b60006200054a601b836200068d565b91507f56616c6f7220646520466565206d61696f7220717565203130302500000000006000830152602082019050919050565b60006200058c601f836200068d565b91507f526f6c65733a206163636f756e7420616c72656164792068617320726f6c65006000830152602082019050919050565b6000620005ce6022836200068d565b91507f526f6c65733a206163636f756e7420697320746865207a65726f20616464726560008301527f73730000000000000000000000000000000000000000000000000000000000006020830152604082019050919050565b6000602082019050818103600083015262000642816200053b565b9050919050565b6000602082019050818103600083015262000664816200057d565b9050919050565b600060208201905081810360008301526200068681620005bf565b9050919050565b600082825260208201905092915050565b6000819050919050565b620006b3816200069e565b8114620006bf57600080fd5b50565b61468380620006d26000396000f3fe608060405234801561001057600080fd5b50600436106101da5760003560e01c80638e1b808a11610104578063c596acc7116100a2578063daeb1cc911610071578063daeb1cc9146104c4578063e4c7426f146104f4578063ee33b0bc14610512578063f2fde38b14610544576101da565b8063c596acc714610428578063c844488014610444578063c92f4eb014610476578063c9427f7c14610492576101da565b8063a5ed0edd116100de578063a5ed0edd146103b4578063a79a8b2d146103d2578063ad641da6146103ee578063bc0077631461040c576101da565b80638e1b808a146103595780638e669481146103785780638f32d59b14610396576101da565b80636b4dd41f1161017c5780637eabe58a1161014b5780637eabe58a146102f957806382dc1ec4146103155780638456cb59146103315780638da5cb5b1461033b576101da565b80636b4dd41f146102ab5780636ef8d66d146102c7578063715018a6146102d15780637b103999146102db576101da565b80633dfdcfab116101b85780633dfdcfab146102375780633f4ba83a1461025357806346fbf68e1461025d5780635c975abb1461028d576101da565b806317251ba9146101df57806320399741146101fb578063273a976014610219575b600080fd5b6101f960048036036101f49190810190612f1f565b610560565b005b61020361071d565b6040516102109190613df6565b60405180910390f35b6102216107bb565b60405161022e9190613df6565b60405180910390f35b610251600480360361024c9190810190612d4f565b610859565b005b61025b6108df565b005b61027760048036036102729190810190612d26565b6109d8565b6040516102849190613d37565b60405180910390f35b6102956109f5565b6040516102a29190613d37565b60405180910390f35b6102c560048036036102c09190810190612db4565b610a0c565b005b6102cf610bbe565b005b6102d9610bd0565b005b6102e3610cd6565b6040516102f09190613dc0565b60405180910390f35b610313600480360361030e91908101906130e1565b610cfc565b005b61032f600480360361032a9190810190612d26565b610dca565b005b610339610e25565b005b610343610f1f565b6040516103509190613d01565b60405180910390f35b610361610f48565b60405161036f929190613d52565b60405180910390f35b610380610fcc565b60405161038d9190613df6565b60405180910390f35b61039e61106a565b6040516103ab9190613d37565b60405180910390f35b6103bc6110c8565b6040516103c9919061432b565b60405180910390f35b6103ec60048036036103e79190810190612f1f565b6110db565b005b6103f661146c565b60405161040391906141cd565b60405180910390f35b61042660048036036104219190810190612e88565b611472565b005b610442600480360361043d9190810190612fec565b611590565b005b61045e60048036036104599190810190612e47565b61185c565b60405161046d93929190613d82565b60405180910390f35b610490600480360361048b9190810190612f71565b6119df565b005b6104ac60048036036104a79190810190612e47565b611c18565b6040516104bb93929190613d82565b60405180910390f35b6104de60048036036104d9919081019061308d565b611d9b565b6040516104eb9190613d37565b60405180910390f35b6104fc611de0565b6040516105099190613ddb565b60405180910390f35b61052c60048036036105279190810190612e47565b611e06565b60405161053b93929190613d82565b60405180910390f35b61055e60048036036105599190810190612d26565b611f89565b005b61056861106a565b6105a7576040517f08c379a000000000000000000000000000000000000000000000000000000000815260040161059e9061410d565b60405180910390fd5b600260019054906101000a900473ffffffffffffffffffffffffffffffffffffffff1673ffffffffffffffffffffffffffffffffffffffff1663613a7896826040518263ffffffff1660e01b815260040161060291906141cd565b60206040518083038186803b15801561061a57600080fd5b505afa15801561062e573d6000803e3d6000fd5b505050506040513d601f19601f820116820180604052506106529190810190612d8b565b610691576040517f08c379a00000000000000000000000000000000000000000000000000000000081526004016106889061406d565b60405180910390fd5b6004600082815260200190815260200160002060009054906101000a900460ff1661071a5760016004600083815260200190815260200160002060006101000a81548160ff0219169083151502179055507f08044e7f9c4f2cdac918aa4492c1cc776789e8e089d7842b562924f4a618942b8160405161071191906141cd565b60405180910390a15b50565b60098054600181600116156101000203166002900480601f0160208091040260200160405190810160405280929190818152602001828054600181600116156101000203166002900480156107b35780601f10610788576101008083540402835291602001916107b3565b820191906000526020600020905b81548152906001019060200180831161079657829003601f168201915b505050505081565b600a8054600181600116156101000203166002900480601f0160208091040260200160405190810160405280929190818152602001828054600181600116156101000203166002900480156108515780601f1061082657610100808354040283529160200191610851565b820191906000526020600020905b81548152906001019060200180831161083457829003601f168201915b505050505081565b81600260016101000a81548173ffffffffffffffffffffffffffffffffffffffff021916908373ffffffffffffffffffffffffffffffffffffffff16021790555080600360006101000a81548173ffffffffffffffffffffffffffffffffffffffff021916908373ffffffffffffffffffffffffffffffffffffffff1602179055505050565b6108ef6108ea611fdc565b6109d8565b61092e576040517f08c379a000000000000000000000000000000000000000000000000000000000815260040161092590613f4d565b60405180910390fd5b600260009054906101000a900460ff1661097d576040517f08c379a000000000000000000000000000000000000000000000000000000000815260040161097490613f0d565b60405180910390fd5b6000600260006101000a81548160ff0219169083151502179055507f5db9ee0a495bf2e6ff9c91a7834c1ba4fdd244a5e8aa4e537bd38aeae4b073aa6109c1611fdc565b6040516109ce9190613d1c565b60405180910390a1565b60006109ee826001611fe490919063ffffffff16565b9050919050565b6000600260009054906101000a900460ff16905090565b600260009054906101000a900460ff1615610a5c576040517f08c379a0000000000000000000000000000000000000000000000000000000008152600401610a539061404d565b60405180910390fd5b600360009054906101000a900473ffffffffffffffffffffffffffffffffffffffff1673ffffffffffffffffffffffffffffffffffffffff163373ffffffffffffffffffffffffffffffffffffffff1614610aec576040517f08c379a0000000000000000000000000000000000000000000000000000000008152600401610ae39061418d565b60405180910390fd5b83600b60009054906101000a900460ff16604051602001610b0d9190613ce6565b6040516020818303038152906040528051906020012014610b63576040517f08c379a0000000000000000000000000000000000000000000000000000000008152600401610b5a906140ad565b60405180910390fd5b606082600081518110610b7257fe5b602002602001015190507f31ab1ae9d510aa5409e7f1ac2a963a65c193af11d91903ab4663bc3a87ec0d95818584604051610baf93929190613e71565b60405180910390a15050505050565b610bce610bc9611fdc565b6120ac565b565b610bd861106a565b610c17576040517f08c379a0000000000000000000000000000000000000000000000000000000008152600401610c0e9061410d565b60405180910390fd5b600073ffffffffffffffffffffffffffffffffffffffff166000809054906101000a900473ffffffffffffffffffffffffffffffffffffffff1673ffffffffffffffffffffffffffffffffffffffff167f8be0079c531659141344cd1fd0a4f28419497f9722a3daafe3b4186f6b6457e060405160405180910390a360008060006101000a81548173ffffffffffffffffffffffffffffffffffffffff021916908373ffffffffffffffffffffffffffffffffffffffff160217905550565b600260019054906101000a900473ffffffffffffffffffffffffffffffffffffffff1681565b610d0461106a565b610d43576040517f08c379a0000000000000000000000000000000000000000000000000000000008152600401610d3a9061410d565b60405180910390fd5b60648210610d86576040517f08c379a0000000000000000000000000000000000000000000000000000000008152600401610d7d90613eed565b60405180910390fd5b816007819055507f1103447bc30f6ba88fbfedbc3f0d4da64dd9f3ab04d57b2dc39920afbb3dbed78282604051610dbe929190614211565b60405180910390a15050565b610dda610dd5611fdc565b6109d8565b610e19576040517f08c379a0000000000000000000000000000000000000000000000000000000008152600401610e1090613f4d565b60405180910390fd5b610e2281612106565b50565b610e35610e30611fdc565b6109d8565b610e74576040517f08c379a0000000000000000000000000000000000000000000000000000000008152600401610e6b90613f4d565b60405180910390fd5b600260009054906101000a900460ff1615610ec4576040517f08c379a0000000000000000000000000000000000000000000000000000000008152600401610ebb9061404d565b60405180910390fd5b6001600260006101000a81548160ff0219169083151502179055507f62e78cea01bee320cd4e420270b5ea74000d11b0c9f74754ebdbfc544b05a258610f08611fdc565b604051610f159190613d1c565b60405180910390a1565b60008060009054906101000a900473ffffffffffffffffffffffffffffffffffffffff16905090565b600060606000600b60009054906101000a900460ff16604051602001610f6e9190613ce6565b60405160208183030381529060405280519060200120905060606000604051908082528060200260200182016040528015610fbd57816020015b6060815260200190600190039081610fa85790505b50905081819350935050509091565b60088054600181600116156101000203166002900480601f0160208091040260200160405190810160405280929190818152602001828054600181600116156101000203166002900480156110625780601f1061103757610100808354040283529160200191611062565b820191906000526020600020905b81548152906001019060200180831161104557829003601f168201915b505050505081565b60008060009054906101000a900473ffffffffffffffffffffffffffffffffffffffff1673ffffffffffffffffffffffffffffffffffffffff166110ac611fdc565b73ffffffffffffffffffffffffffffffffffffffff1614905090565b600b60009054906101000a900460ff1681565b600260009054906101000a900460ff161561112b576040517f08c379a00000000000000000000000000000000000000000000000000000000081526004016111229061404d565b60405180910390fd5b6000600260019054906101000a900473ffffffffffffffffffffffffffffffffffffffff1673ffffffffffffffffffffffffffffffffffffffff166365f68c89336040518263ffffffff1660e01b81526004016111889190613d1c565b60206040518083038186803b1580156111a057600080fd5b505afa1580156111b4573d6000803e3d6000fd5b505050506040513d601f19601f820116820180604052506111d89190810190612f48565b90506004600082815260200190815260200160002060009054906101000a900460ff1661123a576040517f08c379a0000000000000000000000000000000000000000000000000000000008152600401611231906140cd565b60405180910390fd5b600260019054906101000a900473ffffffffffffffffffffffffffffffffffffffff1673ffffffffffffffffffffffffffffffffffffffff1663613a7896826040518263ffffffff1660e01b815260040161129591906141cd565b60206040518083038186803b1580156112ad57600080fd5b505afa1580156112c1573d6000803e3d6000fd5b505050506040513d601f19601f820116820180604052506112e59190810190612d8b565b611324576040517f08c379a000000000000000000000000000000000000000000000000000000000815260040161131b9061406d565b60405180910390fd5b6000600b60009054906101000a900460ff166040516020016113469190613ce6565b604051602081830303815290604052805190602001209050600061139a61138b606461137d6007548861216090919063ffffffff16565b6121d090919063ffffffff16565b8561221a90919063ffffffff16565b9050600360009054906101000a900473ffffffffffffffffffffffffffffffffffffffff1673ffffffffffffffffffffffffffffffffffffffff16636db5c85382846040518363ffffffff1660e01b81526004016113f99291906141e8565b600060405180830381600087803b15801561141357600080fd5b505af1158015611427573d6000803e3d6000fd5b505050507f4716bce0aaccc2d15aecf904ea39be1f0feaec7f7dc322fbe7b66d51613adc5983858360405161145e939291906142f4565b60405180910390a150505050565b60075481565b600260009054906101000a900460ff16156114c2576040517f08c379a00000000000000000000000000000000000000000000000000000000081526004016114b99061404d565b60405180910390fd5b600360009054906101000a900473ffffffffffffffffffffffffffffffffffffffff1673ffffffffffffffffffffffffffffffffffffffff163373ffffffffffffffffffffffffffffffffffffffff1614611552576040517f08c379a00000000000000000000000000000000000000000000000000000000081526004016115499061418d565b60405180910390fd5b7fc75da8a12c37cbcbeb6c6300129c25471f8823b1d8dddf5593a1a38fe54970308383604051611583929190613e3a565b60405180910390a1505050565b600260009054906101000a900460ff16156115e0576040517f08c379a00000000000000000000000000000000000000000000000000000000081526004016115d79061404d565b60405180910390fd5b600360009054906101000a900473ffffffffffffffffffffffffffffffffffffffff1673ffffffffffffffffffffffffffffffffffffffff163373ffffffffffffffffffffffffffffffffffffffff1614611670576040517f08c379a00000000000000000000000000000000000000000000000000000000081526004016116679061418d565b60405180910390fd5b60608160008151811061167f57fe5b60200260200101519050600083116116cc576040517f08c379a00000000000000000000000000000000000000000000000000000000081526004016116c39061400d565b60405180910390fd5b73__RBBLib________________________________63465c41056008836040518363ffffffff1660e01b8152600401611706929190613eb6565b60206040518083038186803b15801561171e57600080fd5b505af4158015611732573d6000803e3d6000fd5b505050506040513d601f19601f820116820180604052506117569190810190612d8b565b1561176e57611769878787878787612264565b611853565b73__RBBLib________________________________63465c41056009836040518363ffffffff1660e01b81526004016117a8929190613eb6565b60206040518083038186803b1580156117c057600080fd5b505af41580156117d4573d6000803e3d6000fd5b505050506040513d601f19601f820116820180604052506117f89190810190612d8b565b156118105761180b878787878787612592565b611852565b6000611851576040517f08c379a00000000000000000000000000000000000000000000000000000000081526004016118489061414d565b60405180910390fd5b5b5b50505050505050565b60008060606000846040516020016118749190613ccf565b6040516020818303038152906040528051906020012090506000600b60009054906101000a900460ff166040516020016118ae9190613ce6565b604051602081830303815290604052805190602001209050606060026040519080825280602002602001820160405280156118fd57816020015b60608152602001906001900390816118e85790505b50905060098054600181600116156101000203166002900480601f0160208091040260200160405190810160405280929190818152602001828054600181600116156101000203166002900480156119965780601f1061196b57610100808354040283529160200191611996565b820191906000526020600020905b81548152906001019060200180831161197957829003601f168201915b5050505050816000815181106119a857fe5b602002602001018190525086816001815181106119c157fe5b60200260200101819052508282829550955095505050509193909250565b600260009054906101000a900460ff1615611a2f576040517f08c379a0000000000000000000000000000000000000000000000000000000008152600401611a269061404d565b60405180910390fd5b600360009054906101000a900473ffffffffffffffffffffffffffffffffffffffff1673ffffffffffffffffffffffffffffffffffffffff163373ffffffffffffffffffffffffffffffffffffffff1614611abf576040517f08c379a0000000000000000000000000000000000000000000000000000000008152600401611ab69061418d565b60405180910390fd5b60008211611b02576040517f08c379a0000000000000000000000000000000000000000000000000000000008152600401611af99061400d565b60405180910390fd5b6006600085815260200190815260200160002060009054906101000a900460ff16611b62576040517f08c379a0000000000000000000000000000000000000000000000000000000008152600401611b5990613fed565b60405180910390fd5b82600b60009054906101000a900460ff16604051602001611b839190613ce6565b6040516020818303038152906040528051906020012014611bd9576040517f08c379a0000000000000000000000000000000000000000000000000000000008152600401611bd09061402d565b60405180910390fd5b7f2fd5a0ee062501fdb2c46bb6b704c69d6929f478e0ab8801344c410c059a5d708483604051611c0a9291906142cb565b60405180910390a150505050565b6000806060600084604051602001611c309190613ccf565b6040516020818303038152906040528051906020012090506000600b60009054906101000a900460ff16604051602001611c6a9190613ce6565b60405160208183030381529060405280519060200120905060606002604051908082528060200260200182016040528015611cb957816020015b6060815260200190600190039081611ca45790505b509050600a8054600181600116156101000203166002900480601f016020809104026020016040519081016040528092919081815260200182805460018160011615610100020316600290048015611d525780601f10611d2757610100808354040283529160200191611d52565b820191906000526020600020905b815481529060010190602001808311611d3557829003601f168201915b505050505081600081518110611d6457fe5b60200260200101819052508681600181518110611d7d57fe5b60200260200101819052508282829550955095505050509193909250565b6005602052816000526040600020818051602081018201805184825260208301602085012081835280955050505050506000915091509054906101000a900460ff1681565b600360009054906101000a900473ffffffffffffffffffffffffffffffffffffffff1681565b60008060606000600b60009054906101000a900460ff16604051602001611e2d9190613ce6565b604051602081830303815290604052805190602001209050600085604051602001611e589190613ccf565b60405160208183030381529060405280519060200120905060606002604051908082528060200260200182016040528015611ea757816020015b6060815260200190600190039081611e925790505b50905060088054600181600116156101000203166002900480601f016020809104026020016040519081016040528092919081815260200182805460018160011615610100020316600290048015611f405780601f10611f1557610100808354040283529160200191611f40565b820191906000526020600020905b815481529060010190602001808311611f2357829003601f168201915b505050505081600081518110611f5257fe5b60200260200101819052508681600181518110611f6b57fe5b60200260200101819052508282829550955095505050509193909250565b611f9161106a565b611fd0576040517f08c379a0000000000000000000000000000000000000000000000000000000008152600401611fc79061410d565b60405180910390fd5b611fd981612868565b50565b600033905090565b60008073ffffffffffffffffffffffffffffffffffffffff168273ffffffffffffffffffffffffffffffffffffffff161415612055576040517f08c379a000000000000000000000000000000000000000000000000000000000815260040161204c9061412d565b60405180910390fd5b8260000160008373ffffffffffffffffffffffffffffffffffffffff1673ffffffffffffffffffffffffffffffffffffffff16815260200190815260200160002060009054906101000a900460ff16905092915050565b6120c081600161299690919063ffffffff16565b8073ffffffffffffffffffffffffffffffffffffffff167fcd265ebaf09df2871cc7bd4133404a235ba12eff2041bb89d9c714a2621c7c7e60405160405180910390a250565b61211a816001612a3d90919063ffffffff16565b8073ffffffffffffffffffffffffffffffffffffffff167f6719d08c1888103bea251a4ed56406bd0c3e69723c8a1686e017e7bbe159b6f860405160405180910390a250565b60008083141561217357600090506121ca565b600082840290508284828161218457fe5b04146121c5576040517f08c379a00000000000000000000000000000000000000000000000000000000081526004016121bc906140ed565b60405180910390fd5b809150505b92915050565b600061221283836040518060400160405280601a81526020017f536166654d6174683a206469766973696f6e206279207a65726f000000000000815250612ae5565b905092915050565b600061225c83836040518060400160405280601e81526020017f536166654d6174683a207375627472616374696f6e206f766572666c6f770000815250612b46565b905092915050565b600260009054906101000a900460ff16156122b4576040517f08c379a00000000000000000000000000000000000000000000000000000000081526004016122ab9061404d565b60405180910390fd5b6060816001815181106122c357fe5b60200260200101519050600360009054906101000a900473ffffffffffffffffffffffffffffffffffffffff1673ffffffffffffffffffffffffffffffffffffffff16634a47f5996040518163ffffffff1660e01b815260040160206040518083038186803b15801561233557600080fd5b505afa158015612349573d6000803e3d6000fd5b505050506040513d601f19601f8201168201806040525061236d9190810190612f48565b87146123ae576040517f08c379a00000000000000000000000000000000000000000000000000000000081526004016123a59061416d565b60405180910390fd5b85600b60009054906101000a900460ff166040516020016123cf9190613ce6565b6040516020818303038152906040528051906020012014612425576040517f08c379a000000000000000000000000000000000000000000000000000000000815260040161241c90613fcd565b60405180910390fd5b83816040516020016124379190613ccf565b604051602081830303815290604052805190602001201461248d576040517f08c379a0000000000000000000000000000000000000000000000000000000008152600401612484906141ad565b60405180910390fd5b60056000868152602001908152602001600020816040516124ae9190613ccf565b908152602001604051809103902060009054906101000a900460ff1661254e57600160056000878152602001908152602001600020826040516124f19190613ccf565b908152602001604051809103902060006101000a81548160ff0219169083151502179055507f8804556606fb7b282ce5882c38d843e5ff639c7ee76b1e6c949c3eff6130bc968560405161254591906141cd565b60405180910390a15b7f73e4390f043eb6bc4a3384ab7f5e3bab6083ad345fce181eb17ffc46ea049e0985828560405161258193929190614241565b60405180910390a150505050505050565b600260009054906101000a900460ff16156125e2576040517f08c379a00000000000000000000000000000000000000000000000000000000081526004016125d99061404d565b60405180910390fd5b6060816001815181106125f157fe5b60200260200101519050600560008881526020019081526020016000208160405161261c9190613ccf565b908152602001604051809103902060009054906101000a900460ff16612677576040517f08c379a000000000000000000000000000000000000000000000000000000000815260040161266e90613f6d565b60405180910390fd5b85816040516020016126899190613ccf565b60405160208183030381529060405280519060200120146126df576040517f08c379a00000000000000000000000000000000000000000000000000000000081526004016126d6906141ad565b60405180910390fd5b85600b60009054906101000a900460ff166040516020016127009190613ce6565b6040516020818303038152906040528051906020012014612756576040517f08c379a000000000000000000000000000000000000000000000000000000000815260040161274d9061402d565b60405180910390fd5b84871415612799576040517f08c379a000000000000000000000000000000000000000000000000000000000815260040161279090613fad565b60405180910390fd5b6006600086815260200190815260200160002060009054906101000a900460ff166128225760016006600087815260200190815260200160002060006101000a81548160ff0219169083151502179055507f260198a8d43318932fecae0fe84bef78d7ba082e4631d3f2600f30b4acce139b8760405161281991906141cd565b60405180910390a15b7f481b2c29b026f3f570a045f6e81485989ac37b52aa91e33c4f04ef70b2ba3d7b87828786604051612857949392919061427f565b60405180910390a150505050505050565b600073ffffffffffffffffffffffffffffffffffffffff168173ffffffffffffffffffffffffffffffffffffffff1614156128d8576040517f08c379a00000000000000000000000000000000000000000000000000000000081526004016128cf90613f8d565b60405180910390fd5b8073ffffffffffffffffffffffffffffffffffffffff166000809054906101000a900473ffffffffffffffffffffffffffffffffffffffff1673ffffffffffffffffffffffffffffffffffffffff167f8be0079c531659141344cd1fd0a4f28419497f9722a3daafe3b4186f6b6457e060405160405180910390a3806000806101000a81548173ffffffffffffffffffffffffffffffffffffffff021916908373ffffffffffffffffffffffffffffffffffffffff16021790555050565b6129a08282611fe4565b6129df576040517f08c379a00000000000000000000000000000000000000000000000000000000081526004016129d69061408d565b60405180910390fd5b60008260000160008373ffffffffffffffffffffffffffffffffffffffff1673ffffffffffffffffffffffffffffffffffffffff16815260200190815260200160002060006101000a81548160ff0219169083151502179055505050565b612a478282611fe4565b15612a87576040517f08c379a0000000000000000000000000000000000000000000000000000000008152600401612a7e90613f2d565b60405180910390fd5b60018260000160008373ffffffffffffffffffffffffffffffffffffffff1673ffffffffffffffffffffffffffffffffffffffff16815260200190815260200160002060006101000a81548160ff0219169083151502179055505050565b60008083118290612b2c576040517f08c379a0000000000000000000000000000000000000000000000000000000008152600401612b239190613e18565b60405180910390fd5b506000838581612b3857fe5b049050809150509392505050565b6000838311158290612b8e576040517f08c379a0000000000000000000000000000000000000000000000000000000008152600401612b859190613e18565b60405180910390fd5b5060008385039050809150509392505050565b600081359050612bb0816145e4565b92915050565b600082601f830112612bc757600080fd5b8135612bda612bd582614373565b614346565b9150818183526020840193506020810190508360005b83811015612c205781358601612c068882612c54565b845260208401935060208301925050600181019050612bf0565b5050505092915050565b600081519050612c39816145fb565b92915050565b600081359050612c4e81614612565b92915050565b600082601f830112612c6557600080fd5b8135612c78612c738261439b565b614346565b91508082526020830160208301858383011115612c9457600080fd5b612c9f838284614572565b50505092915050565b600082601f830112612cb957600080fd5b8135612ccc612cc7826143c7565b614346565b91508082526020830160208301858383011115612ce857600080fd5b612cf3838284614572565b50505092915050565b600081359050612d0b81614629565b92915050565b600081519050612d2081614629565b92915050565b600060208284031215612d3857600080fd5b6000612d4684828501612ba1565b91505092915050565b60008060408385031215612d6257600080fd5b6000612d7085828601612ba1565b9250506020612d8185828601612ba1565b9150509250929050565b600060208284031215612d9d57600080fd5b6000612dab84828501612c2a565b91505092915050565b60008060008060808587031215612dca57600080fd5b6000612dd887828801612c3f565b9450506020612de987828801612cfc565b935050604085013567ffffffffffffffff811115612e0657600080fd5b612e1287828801612bb6565b925050606085013567ffffffffffffffff811115612e2f57600080fd5b612e3b87828801612ca8565b91505092959194509250565b600060208284031215612e5957600080fd5b600082013567ffffffffffffffff811115612e7357600080fd5b612e7f84828501612ca8565b91505092915050565b600080600060608486031215612e9d57600080fd5b600084013567ffffffffffffffff811115612eb757600080fd5b612ec386828701612ca8565b935050602084013567ffffffffffffffff811115612ee057600080fd5b612eec86828701612ca8565b925050604084013567ffffffffffffffff811115612f0957600080fd5b612f1586828701612bb6565b9150509250925092565b600060208284031215612f3157600080fd5b6000612f3f84828501612cfc565b91505092915050565b600060208284031215612f5a57600080fd5b6000612f6884828501612d11565b91505092915050565b60008060008060808587031215612f8757600080fd5b6000612f9587828801612cfc565b9450506020612fa687828801612c3f565b9350506040612fb787828801612cfc565b925050606085013567ffffffffffffffff811115612fd457600080fd5b612fe087828801612bb6565b91505092959194509250565b60008060008060008060c0878903121561300557600080fd5b600061301389828a01612cfc565b965050602061302489828a01612c3f565b955050604061303589828a01612cfc565b945050606061304689828a01612c3f565b935050608061305789828a01612cfc565b92505060a087013567ffffffffffffffff81111561307457600080fd5b61308089828a01612bb6565b9150509295509295509295565b600080604083850312156130a057600080fd5b60006130ae85828601612cfc565b925050602083013567ffffffffffffffff8111156130cb57600080fd5b6130d785828601612c54565b9150509250929050565b600080604083850312156130f457600080fd5b600061310285828601612cfc565b925050602083013567ffffffffffffffff81111561311f57600080fd5b61312b85828601612ca8565b9150509250929050565b600061314183836132bb565b905092915050565b613152816144f4565b82525050565b61316181614495565b82525050565b600061317282614418565b61317c8185614446565b93508360208202850161318e856143f3565b8060005b858110156131ca57848403895281516131ab8582613135565b94506131b683614439565b925060208a01995050600181019050613192565b50829750879550505050505092915050565b6131e5816144a7565b82525050565b6131f4816144b3565b82525050565b61320381614506565b82525050565b6132128161452a565b82525050565b60006132238261442e565b61322d8185614468565b935061323d818560208601614581565b613246816145c6565b840191505092915050565b600061325c8261442e565b6132668185614479565b9350613276818560208601614581565b61327f816145c6565b840191505092915050565b60006132958261442e565b61329f818561448a565b93506132af818560208601614581565b80840191505092915050565b60006132c682614423565b6132d08185614457565b93506132e0818560208601614581565b6132e9816145c6565b840191505092915050565b60006132ff82614423565b6133098185614468565b9350613319818560208601614581565b613322816145c6565b840191505092915050565b60008154600181166000811461334a5760018114613370576133b4565b607f600283041661335b8187614479565b955060ff1983168652602086019350506133b4565b6002820461337e8187614479565b955061338985614403565b60005b828110156133ab5781548189015260018201915060208101905061338c565b80880195505050505b505092915050565b60006133c9601b83614468565b91507f56616c6f7220646520466565206d61696f7220717565203130302500000000006000830152602082019050919050565b6000613409601483614468565b91507f5061757361626c653a206e6f74207061757365640000000000000000000000006000830152602082019050919050565b6000613449601f83614468565b91507f526f6c65733a206163636f756e7420616c72656164792068617320726f6c65006000830152602082019050919050565b6000613489603083614468565b91507f506175736572526f6c653a2063616c6c657220646f6573206e6f74206861766560008301527f207468652050617573657220726f6c65000000000000000000000000000000006020830152604082019050919050565b60006134ef604483614468565b91507f536f6d656e746520636c69656e74657320656d20636f6e747261746f7320636160008301527f646173747261646f7320706f64656d206578656375746172206f20706167616d60208301527f656e746f000000000000000000000000000000000000000000000000000000006040830152606082019050919050565b600061357b602683614468565b91507f4f776e61626c653a206e6577206f776e657220697320746865207a65726f206160008301527f64647265737300000000000000000000000000000000000000000000000000006020830152604082019050919050565b60006135e1605f83614468565b91507f556d20434e504a206ec3a36f20706f6465207472616e73666572697220746f6b60008301527f656e20706172612073692c2061696e64612071756520656d20706170c3a9697360208301527f2064697374696e746f732028436c69656e74652f466f726e656365646f7229006040830152606082019050919050565b600061366d602a83614468565b91507f4572726f206e6f2063c3a16c63756c6f20646f206861736820646120636f6e7460008301527f6120646f20424e444553000000000000000000000000000000000000000000006020830152604082019050919050565b60006136d3602f83614468565b91507f536f6d656e746520666f726e656365646f72657320706f64656d20657865637560008301527f746172206f20706167616d656e746f00000000000000000000000000000000006020830152604082019050919050565b6000613739603583614468565b91507f56616c6f72206120736572207472616e736163696f6e61646f2064657665207360008301527f6572206d61696f7220646f20717565207a65726f2e00000000000000000000006020830152604082019050919050565b600061379f602f83614468565b91507f4572726f206e6f2063c3a16c63756c6f20646f206861736820646120636f6e7460008301527f6120646f20666f726e656365646f7200000000000000000000000000000000006020830152604082019050919050565b6000613805601083614468565b91507f5061757361626c653a20706175736564000000000000000000000000000000006000830152602082019050919050565b6000613845603383614468565b91507f436f6e746120646520646f61646f72207072656369736120657374617220636f60008301527f6d20636164617374726f2076616c696461646f000000000000000000000000006020830152604082019050919050565b60006138ab602183614468565b91507f526f6c65733a206163636f756e7420646f6573206e6f74206861766520726f6c60008301527f65000000000000000000000000000000000000000000000000000000000000006020830152604082019050919050565b6000613911602483614468565b91507f4572726f206e6f2063c3a16c63756c6f20646f206861736820646120646f61c360008301527fa7c3a36f000000000000000000000000000000000000000000000000000000006020830152604082019050919050565b6000613977602683614468565b91507f536f6d656e746520646f61646f72657320706f64656d2066617a657220646f6160008301527fc3a7c3b5657300000000000000000000000000000000000000000000000000006020830152604082019050919050565b60006139dd602183614468565b91507f536166654d6174683a206d756c7469706c69636174696f6e206f766572666c6f60008301527f77000000000000000000000000000000000000000000000000000000000000006020830152604082019050919050565b6000613a43602083614468565b91507f4f776e61626c653a2063616c6c6572206973206e6f7420746865206f776e65726000830152602082019050919050565b6000613a83602283614468565b91507f526f6c65733a206163636f756e7420697320746865207a65726f20616464726560008301527f73730000000000000000000000000000000000000000000000000000000000006020830152604082019050919050565b6000613ae9604283614468565b91507f4e656e68756d61207665726966696361c3a7c3a36f206573706563c3ad66696360008301527f6120656e636f6e747261646120706172612061207472616e73666572c3aa6e6360208301527f69610000000000000000000000000000000000000000000000000000000000006040830152606082019050919050565b6000613b75603c83614468565b91507f526573706f6e73c3a176656c2070656c61206c6962657261c3a7c3a36f20646560008301527f207265637572736f73206ec3a36f20657374c3a120636f727265746f000000006020830152604082019050919050565b6000613bdb603083614468565b91507f45737365206dc3a9746f646f2073c3b320706f646520736572206368616d616460008301527f6f2070656c6f205242425f546f6b656e000000000000000000000000000000006020830152604082019050919050565b6000613c41602c83614468565b91507f4572726f206e6f2063c3a16c63756c6f20646f206861736820646120636f6e7460008301527f6120646f20636c69656e746500000000000000000000000000000000000000006020830152604082019050919050565b613ca3816144dd565b82525050565b613cb2816144e7565b82525050565b613cc9613cc4826144e7565b6145b4565b82525050565b6000613cdb828461328a565b915081905092915050565b6000613cf28284613cb8565b60018201915081905092915050565b6000602082019050613d166000830184613158565b92915050565b6000602082019050613d316000830184613149565b92915050565b6000602082019050613d4c60008301846131dc565b92915050565b6000604082019050613d6760008301856131eb565b8181036020830152613d798184613167565b90509392505050565b6000606082019050613d9760008301866131eb565b613da460208301856131eb565b8181036040830152613db68184613167565b9050949350505050565b6000602082019050613dd560008301846131fa565b92915050565b6000602082019050613df06000830184613209565b92915050565b60006020820190508181036000830152613e1081846132f4565b905092915050565b60006020820190508181036000830152613e328184613218565b905092915050565b60006040820190508181036000830152613e548185613218565b90508181036020830152613e688184613218565b90509392505050565b60006060820190508181036000830152613e8b8186613218565b9050613e9a6020830185613c9a565b8181036040830152613eac8184613218565b9050949350505050565b60006040820190508181036000830152613ed0818561332d565b90508181036020830152613ee48184613251565b90509392505050565b60006020820190508181036000830152613f06816133bc565b9050919050565b60006020820190508181036000830152613f26816133fc565b9050919050565b60006020820190508181036000830152613f468161343c565b9050919050565b60006020820190508181036000830152613f668161347c565b9050919050565b60006020820190508181036000830152613f86816134e2565b9050919050565b60006020820190508181036000830152613fa68161356e565b9050919050565b60006020820190508181036000830152613fc6816135d4565b9050919050565b60006020820190508181036000830152613fe681613660565b9050919050565b60006020820190508181036000830152614006816136c6565b9050919050565b600060208201905081810360008301526140268161372c565b9050919050565b6000602082019050818103600083015261404681613792565b9050919050565b60006020820190508181036000830152614066816137f8565b9050919050565b6000602082019050818103600083015261408681613838565b9050919050565b600060208201905081810360008301526140a68161389e565b9050919050565b600060208201905081810360008301526140c681613904565b9050919050565b600060208201905081810360008301526140e68161396a565b9050919050565b60006020820190508181036000830152614106816139d0565b9050919050565b6000602082019050818103600083015261412681613a36565b9050919050565b6000602082019050818103600083015261414681613a76565b9050919050565b6000602082019050818103600083015261416681613adc565b9050919050565b6000602082019050818103600083015261418681613b68565b9050919050565b600060208201905081810360008301526141a681613bce565b9050919050565b600060208201905081810360008301526141c681613c34565b9050919050565b60006020820190506141e26000830184613c9a565b92915050565b60006040820190506141fd6000830185613c9a565b61420a60208301846131eb565b9392505050565b60006040820190506142266000830185613c9a565b81810360208301526142388184613218565b90509392505050565b60006060820190506142566000830186613c9a565b81810360208301526142688185613218565b90506142776040830184613c9a565b949350505050565b60006080820190506142946000830187613c9a565b81810360208301526142a68186613218565b90506142b56040830185613c9a565b6142c26060830184613c9a565b95945050505050565b60006040820190506142e06000830185613c9a565b6142ed6020830184613c9a565b9392505050565b60006060820190506143096000830186613c9a565b6143166020830185613c9a565b6143236040830184613c9a565b949350505050565b60006020820190506143406000830184613ca9565b92915050565b6000604051905081810181811067ffffffffffffffff8211171561436957600080fd5b8060405250919050565b600067ffffffffffffffff82111561438a57600080fd5b602082029050602081019050919050565b600067ffffffffffffffff8211156143b257600080fd5b601f19601f8301169050602081019050919050565b600067ffffffffffffffff8211156143de57600080fd5b601f19601f8301169050602081019050919050565b6000819050602082019050919050565b60008190508160005260206000209050919050565b600081519050919050565b600081519050919050565b600081519050919050565b6000602082019050919050565b600082825260208201905092915050565b600082825260208201905092915050565b600082825260208201905092915050565b600082825260208201905092915050565b600081905092915050565b60006144a0826144bd565b9050919050565b60008115159050919050565b6000819050919050565b600073ffffffffffffffffffffffffffffffffffffffff82169050919050565b6000819050919050565b600060ff82169050919050565b60006144ff8261454e565b9050919050565b600061451182614518565b9050919050565b6000614523826144bd565b9050919050565b60006145358261453c565b9050919050565b6000614547826144bd565b9050919050565b600061455982614560565b9050919050565b600061456b826144bd565b9050919050565b82818337600083830152505050565b60005b8381101561459f578082015181840152602081019050614584565b838111156145ae576000848401525b50505050565b60006145bf826145d7565b9050919050565b6000601f19601f8301169050919050565b60008160f81b9050919050565b6145ed81614495565b81146145f857600080fd5b50565b614604816144a7565b811461460f57600080fd5b50565b61461b816144b3565b811461462657600080fd5b50565b614632816144dd565b811461463d57600080fd5b5056fea365627a7a72315820c1986256cf5db0d86330dbbed55d51f2640718aafe1de4f174fdb0247570b2576c6578706572696d656e74616cf564736f6c6343000510004052455455524e5f46524f4d5f434c49454e545f544f5f424e4445535f564552494649434154494f4e",
  "source": "pragma solidity ^0.5.0;\npragma experimental ABIEncoderV2;\n\n\nimport \"./RBBLib.sol\";\nimport \"./RBBRegistry.sol\";\nimport \"./RBBToken.sol\";\nimport \"./SpecificRBBToken.sol\";\nimport \"@openzeppelin/contracts/ownership/Ownable.sol\";\nimport \"@openzeppelin/contracts/lifecycle/Pausable.sol\";\nimport \"@openzeppelin/contracts/math/SafeMath.sol\";\n\n\n\n// Pode ter cliente no hash xyz, fornecedor no hash abc\n// clientes no hash xyz so aqueles que bndes informou (set cliente no hash total)\n/*\nRegras especficas\n- Toda vez que o BNDES faz um desembolso, o destinatrio ser associado como CLIENTE para um idFinancialSupportAgreement especfico (se ainda no estiver associado).\n- Somente clientes fazem pagamentos. Toda vez que um CLIENTE de um idFinancialSupportAgreement especfico paga um fornecedor, o destinatrio ser associado como FORNECEDOR (se ainda no estiver associado). \n- Somente FORNECEDORES podem solicitar o resgate.\n\nTodas as operaes j supem que a entidade de origem e destino esto cadastradas e validadas, pois isso  garantido pelo contrato genrico (RBB_Token)\n\nNo includo:\n------------\n- requisito adicional de o cliente poder resgatar uma parte do valor\n- possibilidade de devoluo de valores\n    - pode ocorrer no final do contrato, por exemplo, porque sobrou algum valor\n    - pode ocorrer no meio do contrato (glosa) e  normalmente se resolve aprovando uma comprovao da devoluo para a conta bancria do projeto, sem precisar devolver ao BNDES. Mas tem alguns casos de devoluo ao BNDES no meio do contrato, que ocorre em casos mais graves, e quando se quer ter mais controle sobre o uso do recurso\n- ideia de o fornecedor poder sacar mais de um saldo ao mesmo tempo.\n\n- qualquer pessoa do BNDES pode liberar (no  necessrio verificar na blockchain)\n*/\n\n//TODO: teoricamente, o cliente deveria registrar na blockchain o pedido de financiamento do cliente, concordam?\n\ncontract FABndesToken is SpecificRBBToken {\n\n    //RBBId donor => true/false (registered or not)\n    mapping (uint => bool) donors;\n\n    //RBBId client => (idFinancialSupportAgreement Client => true/false (registered or not)\n    mapping (uint => mapping (string => bool)) public clients;\n\n    //RBBId supplier => true/false (registered or not)\n    mapping (uint => bool) suppliers;\n\n   /* BNDES Fee percentage */\n    uint256 public bndesFee;    \n\n    string public DISBURSEMENT_VERIFICATION = \"DISBURSEMENT_VERIFICATION\";\n    string public PAY_SUPPLIER_VERIFICATION = \"PAY_SUPPLIER_VERIFICATION\";\n    string public RETURN_FROM_CLIENT_TO_BNDES_VERIFICATION = \"RETURN_FROM_CLIENT_TO_BNDES_VERIFICATION\";\n\n    uint8 public RESERVED_NO_ADDITIONAL_FIELD_TO_HASH = 0;\n\n     using SafeMath for uint;\n   \n\n//TODO: rever eventos para BNDES Transparente\n    event FAB_Disbursement  (uint idClient, string idFinancialSupportAgreement, uint amount);\n    event FAB_TokenTransfer (uint fromCnpj, string fromIdFinancialSupportAgreement, uint toCnpj, uint amount);\n    event FAB_RedemptionRequested (uint idClaimer, uint amount);\n    event FAB_RedemptionSettlement(string redemptionTransactionHash, string receiptHash);\n\n    event FAB_DonationBooked(uint idDonor, uint amount, uint tokenToBeMinted);\n    event FAB_DonationConfirmed(string idDonor, uint amount, string receiptHash);\n\n    event FAB_ManualIntervention_Returned_Client_BNDES (uint fromId, string idFinancialSupportAgreement, uint amount);\n    event FAB_ManualIntervention_Fee(uint256 percent, string description);\n\n    event FAB_DonorAdded(uint id);\n    event FAB_ClientAdded(uint id);\n    event FAB_SupplierAdded(uint id);\n\n\n    constructor (uint _bndesFee) public {\n        require (bndesFee < 100, \"Valor de Fee maior que 100%\");\n        bndesFee = _bndesFee;\n    }\n\n    function setBNDESFee(uint256 newBndesFee, string memory description) public onlyOwner {\n        require (newBndesFee < 100, \"Valor de Fee maior que 100%\");\n        bndesFee = newBndesFee;\n        emit FAB_ManualIntervention_Fee(newBndesFee, description);\n    }\n\n    function addDonor (uint idDonor) public onlyOwner {\n        require(registry.isValidatedId(idDonor), \"Conta de doador precisa estar com cadastro validado\");\n        if(!donors[idDonor]) {\n            donors[idDonor] = true;\n            emit FAB_DonorAdded(idDonor);\n        }\n    }\n\n    /* Donor books a donation */\n    function bookDonation(uint amount) public whenNotPaused  {        \n        \n        uint idDonor = registry.getId(msg.sender);\n\n        require (donors[idDonor], \"Somente doadores podem fazer doaes\");\n        require(registry.isValidatedId(idDonor), \"Conta de doador precisa estar com cadastro validado\");\n        \n        bytes32 specificHash = keccak256(abi.encodePacked(RESERVED_NO_ADDITIONAL_FIELD_TO_HASH));\n        uint tokenToBeMinted = amount.sub(amount.mul(bndesFee).div(100));\n\n        rbbToken.requestMint(tokenToBeMinted, specificHash);\n\n        emit FAB_DonationBooked(idDonor, amount, tokenToBeMinted);\n    }\n    \n    /* confirms the donor's donation */\n    function verifyAndActForMint(bytes32 specificHash, uint amountMinted, string[] memory data,\n        string memory docHash) public whenNotPaused onlyRBBToken {\n\n        require (keccak256(abi.encodePacked(RESERVED_NO_ADDITIONAL_FIELD_TO_HASH))==specificHash, \"Erro no clculo do hash da doao\");\n\n        string memory idDonor = data[0];\n//        require (donors[idDonor], \"Somente doadores podem fazer doaes, registro estah incorreto\");\n\n//TODO: transformar de string para uint de forma a ter eventos soh com uint         \n        emit FAB_DonationConfirmed(idDonor, amountMinted, docHash);\n\n    }\n\n    //*********** */\n\n\n    function getDisbusementData (string memory idFinancialSupportAgreement) public view\n        returns (bytes32, bytes32, string[] memory)  {\n\n        bytes32 fromHash = keccak256(abi.encodePacked(RESERVED_NO_ADDITIONAL_FIELD_TO_HASH));\n        bytes32 toHash = keccak256(abi.encodePacked(idFinancialSupportAgreement));\n\n        string[] memory data = new string[](2);\n        data[0] = DISBURSEMENT_VERIFICATION;\n        data[1] = idFinancialSupportAgreement;\n        return (fromHash, toHash, data);\n    }\n\n    function getPaySupplierData (string memory idFinancialSupportAgreement) public view\n            returns (bytes32, bytes32, string[] memory) {\n\n\n        bytes32 fromHash = keccak256(abi.encodePacked(idFinancialSupportAgreement));\n        bytes32 toHash = keccak256(abi.encodePacked(RESERVED_NO_ADDITIONAL_FIELD_TO_HASH));\n\n        string[] memory data = new string[](2);\n        data[0] = PAY_SUPPLIER_VERIFICATION;\n        data[1] = idFinancialSupportAgreement;\n        return (fromHash, toHash, data);\n    }\n\n    function getReturnedClientToBNDESData (string memory idFinancialSupportAgreement) public \n        returns (bytes32, bytes32, string[] memory) {\n\n        bytes32 fromHash = keccak256(abi.encodePacked(idFinancialSupportAgreement));\n        bytes32 toHash = keccak256(abi.encodePacked(RESERVED_NO_ADDITIONAL_FIELD_TO_HASH));\n\n        string[] memory data = new string[](2);\n        data[0] = RETURN_FROM_CLIENT_TO_BNDES_VERIFICATION;\n        data[1] = idFinancialSupportAgreement;\n        return (fromHash, toHash, data);\n    }\n\n    function getRedeemData () public \n            returns (bytes32, string[] memory) {\n\n        bytes32 fromHash = keccak256(abi.encodePacked(RESERVED_NO_ADDITIONAL_FIELD_TO_HASH));\n\n        string[] memory data = new string[](0);\n        return (fromHash, data);\n    }\n\n    //*********** */\n\n    function verifyAndActForTransfer(uint fromId, bytes32 fromHash, uint toId, bytes32 toHash, \n            uint amount, string[] memory data) public whenNotPaused onlyRBBToken {\n\n        string memory specificMethod = data[0];\n\n        require (amount>0, \"Valor a ser transacionado deve ser maior do que zero.\");\n\n\n        if (RBBLib.isEqual(DISBURSEMENT_VERIFICATION, specificMethod)) {\n            verifyAndActForTransfer_DISBURSEMENT(fromId, fromHash, toId, toHash, amount, data);\n        }\n        else if (RBBLib.isEqual(PAY_SUPPLIER_VERIFICATION, specificMethod)) {\n            verifyAndActForTransfer_PAY_SUPPLIER(fromId, fromHash, toId, toHash, amount, data);\n        }\n//TODO: incluir intervencao manual. Owner do contrato aprova uma transferencia e o dono da carteira a executa?\n        else {\n            require (false, \"Nenhuma verificao especfica encontrada para a transferncia\");\n        }\n\n    }\n\n    function verifyAndActForTransfer_DISBURSEMENT(uint fromId, bytes32 fromHash, uint toId, bytes32 toHash, \n            uint amount, string[] memory data) internal whenNotPaused {\n    \n        string memory idFinancialSupportAgreement = data[1];\n\n        //Essa eh uma regra especifica visto que outra organizacao pode ter recebido o token no allocate.\n        require (fromId == rbbToken.getBndesId(), \"Responsvel pela liberao de recursos no est correto\");\n        require (keccak256(abi.encodePacked(RESERVED_NO_ADDITIONAL_FIELD_TO_HASH))==fromHash, \"Erro no clculo do hash da conta do BNDES\");\n        require (keccak256(abi.encodePacked(idFinancialSupportAgreement))==toHash, \"Erro no clculo do hash da conta do cliente\");\n\n        if (!clients[toId][idFinancialSupportAgreement]) {\n            clients[toId][idFinancialSupportAgreement] = true; //register the client\n            emit FAB_ClientAdded(toId);\n\n        }\n\n        emit FAB_Disbursement (toId, idFinancialSupportAgreement, amount);\n\n    }\n\n    function verifyAndActForTransfer_PAY_SUPPLIER(uint fromId, bytes32 fromHash, uint toId, bytes32 toHash, \n            uint amount, string[] memory data) internal whenNotPaused {\n    \n        string memory idFinancialSupportAgreement = data[1];\n\n        require (clients[fromId][idFinancialSupportAgreement], \"Somente clientes em contratos cadastrados podem executar o pagamento\");\n        require (keccak256(abi.encodePacked(idFinancialSupportAgreement))==fromHash, \"Erro no clculo do hash da conta do cliente\");\n        require (keccak256(abi.encodePacked(RESERVED_NO_ADDITIONAL_FIELD_TO_HASH))==fromHash, \"Erro no clculo do hash da conta do fornecedor\");\n\n        require(fromId != toId,\n            \"Um CNPJ no pode transferir token para si, ainda que em papis distintos (Cliente/Fornecedor)\");\n\n        if (!suppliers[toId]) {\n            suppliers[toId] = true; //register the supplier\n            emit FAB_SupplierAdded(fromId);\n        }\n\n        emit FAB_TokenTransfer (fromId, idFinancialSupportAgreement, toId, amount);\n\n    }\n//TODO: incluir no metodo publico, tratar como caso geral de tratamento de erros ou nao?\n    function verifyAndActForTransfer_RETURN_CLIENT_BNDES(uint fromId, bytes32 fromHash, uint toId, bytes32 toHash, \n            uint amount, string[] memory data) internal whenNotPaused {\n    \n        string memory idFinancialSupportAgreement = data[1];\n\n        require (clients[fromId][idFinancialSupportAgreement], \"Somente clientes em contratos cadastrados podem executar o retorno de recursos\");\n        require (keccak256(abi.encodePacked(idFinancialSupportAgreement))==fromHash, \"Erro no clculo do hash da conta do cliente\");\n        require (keccak256(abi.encodePacked(RESERVED_NO_ADDITIONAL_FIELD_TO_HASH))==fromHash, \"Erro no clculo do hash da conta do BNDES\");\n\n        emit FAB_ManualIntervention_Returned_Client_BNDES (fromId, idFinancialSupportAgreement, amount);\n\n    }\n\n    function verifyAndActForRedeem(uint fromId, bytes32 fromHash, uint amount, string[] memory data) \n        public whenNotPaused onlyRBBToken {\n\n        require (amount>0, \"Valor a ser transacionado deve ser maior do que zero.\");\n        require (suppliers[fromId], \"Somente fornecedores podem executar o pagamento\");\n        require (keccak256(abi.encodePacked(RESERVED_NO_ADDITIONAL_FIELD_TO_HASH))==fromHash, \"Erro no clculo do hash da conta do fornecedor\");\n\n        emit FAB_RedemptionRequested (fromId, amount);\n\n    }\n\n    function verifyAndActForRedemptionSettlement(string memory redemptionTransactionHash, string memory receiptHash, \n        string[] memory data)\n        public whenNotPaused onlyRBBToken {\n\n        emit FAB_RedemptionSettlement (redemptionTransactionHash, receiptHash);\n    }\n\n    modifier onlyRBBToken() {\n        require (msg.sender==address(rbbToken), \"Esse mtodo s pode ser chamado pelo RBB_Token\");\n        _;\n    }\n   \n}",
  "sourcePath": "/Users/suzana.moreno/workspace/rbb-token/Back-Blockchain/contracts/FABndesToken.sol",
  "compiler": {
    "name": "solc",
    "version": "0.5.16+commit.9c3226ce.Emscripten.clang"
  },
  "schemaVersion": "3.0.23",
  "updatedAt": "2020-09-16T19:16:39.460Z",
  "devdoc": {
    "methods": {
      "isOwner()": {
        "details": "Returns true if the caller is the current owner."
      },
      "owner()": {
        "details": "Returns the address of the current owner."
      },
      "pause()": {
        "details": "Called by a pauser to pause, triggers stopped state."
      },
      "paused()": {
        "details": "Returns true if the contract is paused, and false otherwise."
      },
      "renounceOwnership()": {
        "details": "Leaves the contract without owner. It will not be possible to call `onlyOwner` functions anymore. Can only be called by the current owner.     * NOTE: Renouncing ownership will leave the contract without an owner, thereby removing any functionality that is only available to the owner."
      },
      "transferOwnership(address)": {
        "details": "Transfers ownership of the contract to a new account (`newOwner`). Can only be called by the current owner."
      },
      "unpause()": {
        "details": "Called by a pauser to unpause, returns to normal state."
      }
    }
  },
  "userdoc": {
    "methods": {}
  }
}