{
  "contractName": "FABndesToken",
  "abi": [
    {
      "inputs": [
        {
          "internalType": "address",
          "name": "newrbbTokenAddr",
          "type": "address"
        },
        {
          "internalType": "address",
          "name": "addrBndesRoles",
          "type": "address"
        }
      ],
      "stateMutability": "nonpayable",
      "type": "constructor"
    },
    {
      "anonymous": false,
      "inputs": [
        {
          "indexed": false,
          "internalType": "uint256",
          "name": "toCnpj",
          "type": "uint256"
        },
        {
          "indexed": false,
          "internalType": "uint256",
          "name": "amount",
          "type": "uint256"
        },
        {
          "indexed": false,
          "internalType": "bytes32",
          "name": "docHash",
          "type": "bytes32"
        }
      ],
      "name": "FA_BNDES_TokenTransfer",
      "type": "event"
    },
    {
      "anonymous": false,
      "inputs": [
        {
          "indexed": false,
          "internalType": "uint256",
          "name": "id",
          "type": "uint256"
        }
      ],
      "name": "FA_ClientAdded",
      "type": "event"
    },
    {
      "anonymous": false,
      "inputs": [
        {
          "indexed": false,
          "internalType": "uint256",
          "name": "idClient",
          "type": "uint256"
        },
        {
          "indexed": false,
          "internalType": "string",
          "name": "idFinancialSupportAgreement",
          "type": "string"
        },
        {
          "indexed": false,
          "internalType": "uint256",
          "name": "amount",
          "type": "uint256"
        },
        {
          "indexed": false,
          "internalType": "bytes32",
          "name": "docHash",
          "type": "bytes32"
        }
      ],
      "name": "FA_Disbursement",
      "type": "event"
    },
    {
      "anonymous": false,
      "inputs": [
        {
          "indexed": false,
          "internalType": "uint256",
          "name": "idDonor",
          "type": "uint256"
        },
        {
          "indexed": false,
          "internalType": "uint256",
          "name": "amount",
          "type": "uint256"
        },
        {
          "indexed": false,
          "internalType": "bytes32",
          "name": "docHash",
          "type": "bytes32"
        }
      ],
      "name": "FA_DonationBooked",
      "type": "event"
    },
    {
      "anonymous": false,
      "inputs": [
        {
          "indexed": false,
          "internalType": "uint256",
          "name": "idDonor",
          "type": "uint256"
        },
        {
          "indexed": false,
          "internalType": "uint256",
          "name": "amount",
          "type": "uint256"
        },
        {
          "indexed": false,
          "internalType": "bytes32",
          "name": "docHash",
          "type": "bytes32"
        }
      ],
      "name": "FA_DonationConfirmed",
      "type": "event"
    },
    {
      "anonymous": false,
      "inputs": [
        {
          "indexed": false,
          "internalType": "uint256",
          "name": "id",
          "type": "uint256"
        }
      ],
      "name": "FA_DonorAdded",
      "type": "event"
    },
    {
      "anonymous": false,
      "inputs": [
        {
          "indexed": false,
          "internalType": "uint256",
          "name": "fromId",
          "type": "uint256"
        },
        {
          "indexed": false,
          "internalType": "bytes32",
          "name": "fromHash",
          "type": "bytes32"
        },
        {
          "indexed": false,
          "internalType": "uint256",
          "name": "toId",
          "type": "uint256"
        },
        {
          "indexed": false,
          "internalType": "bytes32",
          "name": "toHash",
          "type": "bytes32"
        },
        {
          "indexed": false,
          "internalType": "uint256",
          "name": "amount",
          "type": "uint256"
        },
        {
          "indexed": false,
          "internalType": "bytes32",
          "name": "docHash",
          "type": "bytes32"
        }
      ],
      "name": "FA_ExtraordinaryTransferAllowed",
      "type": "event"
    },
    {
      "anonymous": false,
      "inputs": [
        {
          "indexed": false,
          "internalType": "uint256",
          "name": "fromId",
          "type": "uint256"
        },
        {
          "indexed": false,
          "internalType": "bytes32",
          "name": "fromHash",
          "type": "bytes32"
        },
        {
          "indexed": false,
          "internalType": "uint256",
          "name": "toId",
          "type": "uint256"
        },
        {
          "indexed": false,
          "internalType": "bytes32",
          "name": "toHash",
          "type": "bytes32"
        },
        {
          "indexed": false,
          "internalType": "uint256",
          "name": "amount",
          "type": "uint256"
        },
        {
          "indexed": false,
          "internalType": "bytes32",
          "name": "docHash",
          "type": "bytes32"
        }
      ],
      "name": "FA_ExtraordinaryTransferExecuted",
      "type": "event"
    },
    {
      "anonymous": false,
      "inputs": [
        {
          "indexed": false,
          "internalType": "uint256",
          "name": "amount",
          "type": "uint256"
        },
        {
          "indexed": false,
          "internalType": "bytes32",
          "name": "docHash",
          "type": "bytes32"
        }
      ],
      "name": "FA_InitialAllocation_Disbursements",
      "type": "event"
    },
    {
      "anonymous": false,
      "inputs": [
        {
          "indexed": false,
          "internalType": "uint256",
          "name": "amount",
          "type": "uint256"
        },
        {
          "indexed": false,
          "internalType": "bytes32",
          "name": "docHash",
          "type": "bytes32"
        }
      ],
      "name": "FA_InitialAllocation_Fee",
      "type": "event"
    },
    {
      "anonymous": false,
      "inputs": [
        {
          "indexed": false,
          "internalType": "uint256",
          "name": "idClaimer",
          "type": "uint256"
        },
        {
          "indexed": false,
          "internalType": "uint256",
          "name": "amount",
          "type": "uint256"
        },
        {
          "indexed": false,
          "internalType": "bytes32",
          "name": "docHash",
          "type": "bytes32"
        }
      ],
      "name": "FA_RedemptionRequested",
      "type": "event"
    },
    {
      "anonymous": false,
      "inputs": [
        {
          "indexed": false,
          "internalType": "bytes32",
          "name": "redemptionTransactionHash",
          "type": "bytes32"
        },
        {
          "indexed": false,
          "internalType": "bytes32",
          "name": "docHash",
          "type": "bytes32"
        }
      ],
      "name": "FA_RedemptionSettlement",
      "type": "event"
    },
    {
      "anonymous": false,
      "inputs": [
        {
          "indexed": false,
          "internalType": "uint256",
          "name": "registeredBy",
          "type": "uint256"
        },
        {
          "indexed": false,
          "internalType": "uint256",
          "name": "id",
          "type": "uint256"
        }
      ],
      "name": "FA_SupplierAdded",
      "type": "event"
    },
    {
      "anonymous": false,
      "inputs": [
        {
          "indexed": false,
          "internalType": "uint256",
          "name": "fromCnpj",
          "type": "uint256"
        },
        {
          "indexed": false,
          "internalType": "string",
          "name": "fromIdFinancialSupportAgreement",
          "type": "string"
        },
        {
          "indexed": false,
          "internalType": "uint256",
          "name": "toCnpj",
          "type": "uint256"
        },
        {
          "indexed": false,
          "internalType": "uint256",
          "name": "amount",
          "type": "uint256"
        },
        {
          "indexed": false,
          "internalType": "bytes32",
          "name": "docHash",
          "type": "bytes32"
        }
      ],
      "name": "FA_TokenTransfer",
      "type": "event"
    },
    {
      "anonymous": false,
      "inputs": [
        {
          "indexed": true,
          "internalType": "address",
          "name": "previousOwner",
          "type": "address"
        },
        {
          "indexed": true,
          "internalType": "address",
          "name": "newOwner",
          "type": "address"
        }
      ],
      "name": "OwnershipTransferred",
      "type": "event"
    },
    {
      "anonymous": false,
      "inputs": [
        {
          "indexed": false,
          "internalType": "address",
          "name": "account",
          "type": "address"
        }
      ],
      "name": "Paused",
      "type": "event"
    },
    {
      "anonymous": false,
      "inputs": [
        {
          "indexed": true,
          "internalType": "address",
          "name": "account",
          "type": "address"
        }
      ],
      "name": "PauserAdded",
      "type": "event"
    },
    {
      "anonymous": false,
      "inputs": [
        {
          "indexed": true,
          "internalType": "address",
          "name": "account",
          "type": "address"
        }
      ],
      "name": "PauserRemoved",
      "type": "event"
    },
    {
      "anonymous": false,
      "inputs": [
        {
          "indexed": false,
          "internalType": "address",
          "name": "account",
          "type": "address"
        }
      ],
      "name": "Unpaused",
      "type": "event"
    },
    {
      "inputs": [],
      "name": "BNDES_PAY_SUPPLIER_VERIFICATION",
      "outputs": [
        {
          "internalType": "string",
          "name": "",
          "type": "string"
        }
      ],
      "stateMutability": "view",
      "type": "function",
      "constant": true
    },
    {
      "inputs": [],
      "name": "CLIENT_PAY_SUPPLIER_VERIFICATION",
      "outputs": [
        {
          "internalType": "string",
          "name": "",
          "type": "string"
        }
      ],
      "stateMutability": "view",
      "type": "function",
      "constant": true
    },
    {
      "inputs": [],
      "name": "DISBURSEMENT_VERIFICATION",
      "outputs": [
        {
          "internalType": "string",
          "name": "",
          "type": "string"
        }
      ],
      "stateMutability": "view",
      "type": "function",
      "constant": true
    },
    {
      "inputs": [],
      "name": "EXTRAORDINARY_TRANSFERS",
      "outputs": [
        {
          "internalType": "string",
          "name": "",
          "type": "string"
        }
      ],
      "stateMutability": "view",
      "type": "function",
      "constant": true
    },
    {
      "inputs": [],
      "name": "INITIAL_ALLOCATION",
      "outputs": [
        {
          "internalType": "string",
          "name": "",
          "type": "string"
        }
      ],
      "stateMutability": "view",
      "type": "function",
      "constant": true
    },
    {
      "inputs": [],
      "name": "RESERVED_BNDES_ADMIN_FEE_TO_HASH",
      "outputs": [
        {
          "internalType": "uint8",
          "name": "",
          "type": "uint8"
        }
      ],
      "stateMutability": "view",
      "type": "function",
      "constant": true
    },
    {
      "inputs": [],
      "name": "RESERVED_MINTED_ACCOUNT",
      "outputs": [
        {
          "internalType": "uint8",
          "name": "",
          "type": "uint8"
        }
      ],
      "stateMutability": "view",
      "type": "function",
      "constant": true
    },
    {
      "inputs": [],
      "name": "RESERVED_NO_ADDITIONAL_FIELDS_TO_DIFF_MONEY",
      "outputs": [
        {
          "internalType": "uint8",
          "name": "",
          "type": "uint8"
        }
      ],
      "stateMutability": "view",
      "type": "function",
      "constant": true
    },
    {
      "inputs": [],
      "name": "RESERVED_NO_ADDITIONAL_FIELDS_TO_DONOR",
      "outputs": [
        {
          "internalType": "uint8",
          "name": "",
          "type": "uint8"
        }
      ],
      "stateMutability": "view",
      "type": "function",
      "constant": true
    },
    {
      "inputs": [],
      "name": "RESERVED_NO_ADDITIONAL_FIELDS_TO_SUPPLIER",
      "outputs": [
        {
          "internalType": "uint8",
          "name": "",
          "type": "uint8"
        }
      ],
      "stateMutability": "view",
      "type": "function",
      "constant": true
    },
    {
      "inputs": [],
      "name": "RESERVED_USUAL_DISBURSEMENTS_ACCOUNT",
      "outputs": [
        {
          "internalType": "uint8",
          "name": "",
          "type": "uint8"
        }
      ],
      "stateMutability": "view",
      "type": "function",
      "constant": true
    },
    {
      "inputs": [
        {
          "internalType": "address",
          "name": "account",
          "type": "address"
        }
      ],
      "name": "addPauser",
      "outputs": [],
      "stateMutability": "nonpayable",
      "type": "function"
    },
    {
      "inputs": [],
      "name": "bndesRoles",
      "outputs": [
        {
          "internalType": "contract FABndesToken_BNDESRoles",
          "name": "",
          "type": "address"
        }
      ],
      "stateMutability": "view",
      "type": "function",
      "constant": true
    },
    {
      "inputs": [
        {
          "internalType": "uint256",
          "name": "",
          "type": "uint256"
        },
        {
          "internalType": "string",
          "name": "",
          "type": "string"
        }
      ],
      "name": "clients",
      "outputs": [
        {
          "internalType": "bool",
          "name": "",
          "type": "bool"
        }
      ],
      "stateMutability": "view",
      "type": "function",
      "constant": true
    },
    {
      "inputs": [
        {
          "internalType": "uint256",
          "name": "",
          "type": "uint256"
        }
      ],
      "name": "donors",
      "outputs": [
        {
          "internalType": "bool",
          "name": "",
          "type": "bool"
        }
      ],
      "stateMutability": "view",
      "type": "function",
      "constant": true
    },
    {
      "inputs": [
        {
          "internalType": "uint256",
          "name": "",
          "type": "uint256"
        }
      ],
      "name": "hashApprovedExtraordinaryTransfers",
      "outputs": [
        {
          "internalType": "bytes32",
          "name": "",
          "type": "bytes32"
        }
      ],
      "stateMutability": "view",
      "type": "function",
      "constant": true
    },
    {
      "inputs": [
        {
          "internalType": "bytes32",
          "name": "",
          "type": "bytes32"
        }
      ],
      "name": "hashToIdFinancialSupportAgreement",
      "outputs": [
        {
          "internalType": "string",
          "name": "",
          "type": "string"
        }
      ],
      "stateMutability": "view",
      "type": "function",
      "constant": true
    },
    {
      "inputs": [],
      "name": "isOwner",
      "outputs": [
        {
          "internalType": "bool",
          "name": "",
          "type": "bool"
        }
      ],
      "stateMutability": "view",
      "type": "function",
      "constant": true
    },
    {
      "inputs": [
        {
          "internalType": "address",
          "name": "account",
          "type": "address"
        }
      ],
      "name": "isPauser",
      "outputs": [
        {
          "internalType": "bool",
          "name": "",
          "type": "bool"
        }
      ],
      "stateMutability": "view",
      "type": "function",
      "constant": true
    },
    {
      "inputs": [],
      "name": "owner",
      "outputs": [
        {
          "internalType": "address",
          "name": "",
          "type": "address"
        }
      ],
      "stateMutability": "view",
      "type": "function",
      "constant": true
    },
    {
      "inputs": [],
      "name": "pause",
      "outputs": [],
      "stateMutability": "nonpayable",
      "type": "function"
    },
    {
      "inputs": [],
      "name": "paused",
      "outputs": [
        {
          "internalType": "bool",
          "name": "",
          "type": "bool"
        }
      ],
      "stateMutability": "view",
      "type": "function",
      "constant": true
    },
    {
      "inputs": [],
      "name": "rbbToken",
      "outputs": [
        {
          "internalType": "contract RBBToken",
          "name": "",
          "type": "address"
        }
      ],
      "stateMutability": "view",
      "type": "function",
      "constant": true
    },
    {
      "inputs": [],
      "name": "registry",
      "outputs": [
        {
          "internalType": "contract RBBRegistry",
          "name": "",
          "type": "address"
        }
      ],
      "stateMutability": "view",
      "type": "function",
      "constant": true
    },
    {
      "inputs": [],
      "name": "renounceOwnership",
      "outputs": [],
      "stateMutability": "nonpayable",
      "type": "function"
    },
    {
      "inputs": [],
      "name": "renouncePauser",
      "outputs": [],
      "stateMutability": "nonpayable",
      "type": "function"
    },
    {
      "inputs": [
        {
          "internalType": "address",
          "name": "newRegistryAddr",
          "type": "address"
        }
      ],
      "name": "setInitializationDataDuringRegistration",
      "outputs": [],
      "stateMutability": "nonpayable",
      "type": "function"
    },
    {
      "inputs": [
        {
          "internalType": "uint256",
          "name": "",
          "type": "uint256"
        }
      ],
      "name": "suppliers",
      "outputs": [
        {
          "internalType": "bool",
          "name": "",
          "type": "bool"
        }
      ],
      "stateMutability": "view",
      "type": "function",
      "constant": true
    },
    {
      "inputs": [
        {
          "internalType": "address",
          "name": "newOwner",
          "type": "address"
        }
      ],
      "name": "transferOwnership",
      "outputs": [],
      "stateMutability": "nonpayable",
      "type": "function"
    },
    {
      "inputs": [],
      "name": "unpause",
      "outputs": [],
      "stateMutability": "nonpayable",
      "type": "function"
    },
    {
      "inputs": [
        {
          "internalType": "uint256",
          "name": "amount",
          "type": "uint256"
        },
        {
          "internalType": "bytes32",
          "name": "docHash",
          "type": "bytes32"
        }
      ],
      "name": "bookDonation",
      "outputs": [],
      "stateMutability": "nonpayable",
      "type": "function"
    },
    {
      "inputs": [
        {
          "internalType": "uint256",
          "name": "idDonor",
          "type": "uint256"
        },
        {
          "internalType": "bytes32",
          "name": "specificHash",
          "type": "bytes32"
        },
        {
          "internalType": "uint256",
          "name": "amount",
          "type": "uint256"
        },
        {
          "internalType": "bytes32",
          "name": "docHash",
          "type": "bytes32"
        },
        {
          "internalType": "string[]",
          "name": "data",
          "type": "string[]"
        }
      ],
      "name": "verifyAndActForMint",
      "outputs": [],
      "stateMutability": "nonpayable",
      "type": "function"
    },
    {
      "inputs": [
        {
          "internalType": "bytes32",
          "name": "specificHash",
          "type": "bytes32"
        }
      ],
      "name": "getHashToMintedAccount",
      "outputs": [
        {
          "internalType": "bytes32",
          "name": "",
          "type": "bytes32"
        }
      ],
      "stateMutability": "nonpayable",
      "type": "function"
    },
    {
      "inputs": [
        {
          "internalType": "address",
          "name": "originalSender",
          "type": "address"
        },
        {
          "internalType": "uint256",
          "name": "fromId",
          "type": "uint256"
        },
        {
          "internalType": "bytes32",
          "name": "fromHash",
          "type": "bytes32"
        },
        {
          "internalType": "uint256",
          "name": "toId",
          "type": "uint256"
        },
        {
          "internalType": "bytes32",
          "name": "toHash",
          "type": "bytes32"
        },
        {
          "internalType": "uint256",
          "name": "amount",
          "type": "uint256"
        },
        {
          "internalType": "bytes32",
          "name": "docHash",
          "type": "bytes32"
        },
        {
          "internalType": "string[]",
          "name": "data",
          "type": "string[]"
        }
      ],
      "name": "verifyAndActForTransfer",
      "outputs": [],
      "stateMutability": "nonpayable",
      "type": "function"
    },
    {
      "inputs": [
        {
          "internalType": "address",
          "name": "originalSender",
          "type": "address"
        },
        {
          "internalType": "uint256",
          "name": "fromId",
          "type": "uint256"
        },
        {
          "internalType": "bytes32",
          "name": "fromHash",
          "type": "bytes32"
        },
        {
          "internalType": "uint256",
          "name": "amount",
          "type": "uint256"
        },
        {
          "internalType": "bytes32",
          "name": "docHash",
          "type": "bytes32"
        },
        {
          "internalType": "string[]",
          "name": "data",
          "type": "string[]"
        }
      ],
      "name": "verifyAndActForRedeem",
      "outputs": [],
      "stateMutability": "nonpayable",
      "type": "function"
    },
    {
      "inputs": [
        {
          "internalType": "bytes32",
          "name": "redemptionTransactionHash",
          "type": "bytes32"
        },
        {
          "internalType": "bytes32",
          "name": "docHash",
          "type": "bytes32"
        },
        {
          "internalType": "string[]",
          "name": "data",
          "type": "string[]"
        }
      ],
      "name": "verifyAndActForRedemptionSettlement",
      "outputs": [],
      "stateMutability": "nonpayable",
      "type": "function"
    },
    {
      "inputs": [
        {
          "internalType": "uint256",
          "name": "info",
          "type": "uint256"
        }
      ],
      "name": "getCalculatedHash",
      "outputs": [
        {
          "internalType": "bytes32",
          "name": "",
          "type": "bytes32"
        }
      ],
      "stateMutability": "pure",
      "type": "function",
      "constant": true
    },
    {
      "inputs": [
        {
          "internalType": "string",
          "name": "info",
          "type": "string"
        }
      ],
      "name": "getCalculatedHash",
      "outputs": [
        {
          "internalType": "bytes32",
          "name": "",
          "type": "bytes32"
        }
      ],
      "stateMutability": "pure",
      "type": "function",
      "constant": true
    },
    {
      "inputs": [
        {
          "internalType": "uint256",
          "name": "fromId",
          "type": "uint256"
        },
        {
          "internalType": "bytes32",
          "name": "fromHash",
          "type": "bytes32"
        },
        {
          "internalType": "uint256",
          "name": "toId",
          "type": "uint256"
        },
        {
          "internalType": "bytes32",
          "name": "toHash",
          "type": "bytes32"
        },
        {
          "internalType": "uint256",
          "name": "amount",
          "type": "uint256"
        },
        {
          "internalType": "bytes32",
          "name": "docHash",
          "type": "bytes32"
        }
      ],
      "name": "authorizeExtraordinaryTransfer",
      "outputs": [],
      "stateMutability": "nonpayable",
      "type": "function"
    },
    {
      "inputs": [
        {
          "internalType": "uint256",
          "name": "idDonor",
          "type": "uint256"
        }
      ],
      "name": "addDonor",
      "outputs": [],
      "stateMutability": "nonpayable",
      "type": "function"
    },
    {
      "inputs": [
        {
          "internalType": "uint256",
          "name": "id",
          "type": "uint256"
        }
      ],
      "name": "addSupplier",
      "outputs": [],
      "stateMutability": "nonpayable",
      "type": "function"
    }
  ],
  "bytecode": "0x60806040526040518060400160405280601281526020017f494e495449414c5f414c4c4f434154494f4e0000000000000000000000000000815250600a908051906020019062000051929190620005c1565b506040518060400160405280601981526020017f44495342555253454d454e545f564552494649434154494f4e00000000000000815250600b90805190602001906200009f929190620005c1565b506040518060400160405280602081526020017f434c49454e545f5041595f535550504c4945525f564552494649434154494f4e815250600c9080519060200190620000ed929190620005c1565b506040518060400160405280601f81526020017f424e4445535f5041595f535550504c4945525f564552494649434154494f4e00815250600d90805190602001906200013b929190620005c1565b506040518060400160405280601781526020017f45585452414f5244494e4152595f5452414e5346455253000000000000000000815250600e908051906020019062000189929190620005c1565b506000600f60006101000a81548160ff021916908360ff1602179055506001600f60016101000a81548160ff021916908360ff1602179055506002600f60026101000a81548160ff021916908360ff160217905550600a600f60036101000a81548160ff021916908360ff1602179055506014600f60046101000a81548160ff021916908360ff160217905550601e600f60056101000a81548160ff021916908360ff1602179055503480156200023f57600080fd5b50604051620061d9380380620061d983398181016040528101906200026591906200067e565b600062000277620003da60201b60201c565b9050806000806101000a81548173ffffffffffffffffffffffffffffffffffffffff021916908373ffffffffffffffffffffffffffffffffffffffff1602179055508073ffffffffffffffffffffffffffffffffffffffff16600073ffffffffffffffffffffffffffffffffffffffff167f8be0079c531659141344cd1fd0a4f28419497f9722a3daafe3b4186f6b6457e060405160405180910390a3506200033562000329620003da60201b60201c565b620003e260201b60201c565b6000600260006101000a81548160ff02191690831515021790555081600360006101000a81548173ffffffffffffffffffffffffffffffffffffffff021916908373ffffffffffffffffffffffffffffffffffffffff16021790555080600460006101000a81548173ffffffffffffffffffffffffffffffffffffffff021916908373ffffffffffffffffffffffffffffffffffffffff16021790555050506200080c565b600033905090565b620003fd8160016200044360201b620024b11790919060201c565b8073ffffffffffffffffffffffffffffffffffffffff167f6719d08c1888103bea251a4ed56406bd0c3e69723c8a1686e017e7bbe159b6f860405160405180910390a250565b620004558282620004f660201b60201c565b1562000498576040517f08c379a00000000000000000000000000000000000000000000000000000000081526004016200048f9062000769565b60405180910390fd5b60018260000160008373ffffffffffffffffffffffffffffffffffffffff1673ffffffffffffffffffffffffffffffffffffffff16815260200190815260200160002060006101000a81548160ff0219169083151502179055505050565b60008073ffffffffffffffffffffffffffffffffffffffff168273ffffffffffffffffffffffffffffffffffffffff1614156200056a576040517f08c379a000000000000000000000000000000000000000000000000000000000815260040162000561906200078b565b60405180910390fd5b8260000160008373ffffffffffffffffffffffffffffffffffffffff1673ffffffffffffffffffffffffffffffffffffffff16815260200190815260200160002060009054906101000a900460ff16905092915050565b828054600181600116156101000203166002900490600052602060002090601f016020900481019282601f106200060457805160ff191683800117855562000635565b8280016001018555821562000635579182015b828111156200063457825182559160200191906001019062000617565b5b50905062000644919062000648565b5090565b5b808211156200066357600081600090555060010162000649565b5090565b6000815190506200067881620007f2565b92915050565b600080604083850312156200069257600080fd5b6000620006a28582860162000667565b9250506020620006b58582860162000667565b9150509250929050565b6000620006ce601f83620007ad565b91507f526f6c65733a206163636f756e7420616c72656164792068617320726f6c65006000830152602082019050919050565b600062000710602283620007ad565b91507f526f6c65733a206163636f756e7420697320746865207a65726f20616464726560008301527f73730000000000000000000000000000000000000000000000000000000000006020830152604082019050919050565b600060208201905081810360008301526200078481620006bf565b9050919050565b60006020820190508181036000830152620007a68162000701565b9050919050565b600082825260208201905092915050565b6000620007cb82620007d2565b9050919050565b600073ffffffffffffffffffffffffffffffffffffffff82169050919050565b620007fd81620007be565b81146200080957600080fd5b50565b6159bd806200081c6000396000f3fe608060405234801561001057600080fd5b50600436106102535760003560e01c80638404e6e011610146578063cc70091a116100c3578063df8d2abf11610087578063df8d2abf1461068c578063e04e624b146106aa578063e4c7426f146106da578063f2fde38b146106f8578063fa7ca7ea14610714578063fc4b505d1461074457610253565b8063cc70091a146105b0578063cd541b7a146105e0578063cea2312114610610578063d91be4c214610640578063daeb1cc91461065c57610253565b8063942429e41161010a578063942429e41461050e578063a6ee26e11461053e578063b201a7771461055a578063ba6ad85314610578578063ca196e3c1461059457610253565b80638404e6e01461048c5780638456cb59146104aa5780638da5cb5b146104b45780638e669481146104d25780638f32d59b146104f057610253565b80635a961b15116101d45780636ef8d66d116101985780636ef8d66d146104205780636f3050671461042a578063715018a6146104485780637b1039991461045257806382dc1ec41461047057610253565b80635a961b151461038c5780635b50875a146103aa5780635c975abb146103c85780635f23e09e146103e657806367da3e851461040257610253565b80633f4ba83a1161021b5780633f4ba83a146102ea57806341574b3b146102f457806346fbf68e146103105780634abfa1631461034057806355a2456e1461037057610253565b80630715aa6e1461025857806307728f0f146102765780630990da731461029457806317251ba9146102b057806324547b8a146102cc575b600080fd5b610260610762565b60405161026d91906156da565b60405180910390f35b61027e610775565b60405161028b91906150f6565b60405180910390f35b6102ae60048036038101906102a99190613ecf565b610813565b005b6102ca60048036038101906102c59190613e41565b6109f1565b005b6102d4610bae565b6040516102e191906156da565b60405180910390f35b6102f2610bc1565b005b61030e60048036038101906103099190613c7d565b610cba565b005b61032a60048036038101906103259190613b8a565b6110d6565b6040516103379190615001565b60405180910390f35b61035a60048036038101906103559190613e41565b6110f3565b6040516103679190615001565b60405180910390f35b61038a60048036038101906103859190613b8a565b611113565b005b610394611157565b6040516103a191906150f6565b60405180910390f35b6103b26111f5565b6040516103bf91906156da565b60405180910390f35b6103d0611208565b6040516103dd9190615001565b60405180910390f35b61040060048036038101906103fb9190613f5e565b61121f565b005b61040a611464565b60405161041791906150f6565b60405180910390f35b610428611502565b005b610432611514565b60405161043f91906156da565b60405180910390f35b610450611527565b005b61045a61162c565b60405161046791906150c0565b60405180910390f35b61048a60048036038101906104859190613b8a565b611652565b005b6104946116ad565b6040516104a191906156da565b60405180910390f35b6104b26116c0565b005b6104bc6117ba565b6040516104c99190614fcb565b60405180910390f35b6104da6117e3565b6040516104e791906150f6565b60405180910390f35b6104f8611881565b6040516105059190615001565b60405180910390f35b61052860048036038101906105239190613e41565b6118df565b604051610535919061501c565b60405180910390f35b61055860048036038101906105539190613d99565b61190f565b005b610562611a2d565b60405161056f91906156da565b60405180910390f35b610592600480360381019061058d9190613bdc565b611a40565b005b6105ae60048036038101906105a99190613e41565b611c62565b005b6105ca60048036038101906105c59190613e00565b611eae565b6040516105d7919061501c565b60405180910390f35b6105fa60048036038101906105f59190613d70565b611ede565b604051610607919061501c565b60405180910390f35b61062a60048036038101906106259190613e41565b611f02565b6040516106379190615001565b60405180910390f35b61065a60048036038101906106559190613e93565b611f22565b005b61067660048036038101906106719190613fe7565b61225e565b6040516106839190615001565b60405180910390f35b6106946122a3565b6040516106a191906150a5565b60405180910390f35b6106c460048036038101906106bf9190613d70565b6122c9565b6040516106d191906150f6565b60405180910390f35b6106e2612379565b6040516106ef91906150db565b60405180910390f35b610712600480360381019061070d9190613b8a565b61239f565b005b61072e60048036038101906107299190613e41565b6123f2565b60405161073b919061501c565b60405180910390f35b61074c612413565b60405161075991906150f6565b60405180910390f35b600f60009054906101000a900460ff1681565b600a8054600181600116156101000203166002900480601f01602080910402602001604051908101604052809291908181526020018280546001816001161561010002031660029004801561080b5780601f106107e05761010080835404028352916020019161080b565b820191906000526020600020905b8154815290600101906020018083116107ee57829003601f168201915b505050505081565b600260009054906101000a900460ff1615610863576040517f08c379a000000000000000000000000000000000000000000000000000000000815260040161085a906152ef565b60405180910390fd5b600360009054906101000a900473ffffffffffffffffffffffffffffffffffffffff1673ffffffffffffffffffffffffffffffffffffffff163373ffffffffffffffffffffffffffffffffffffffff16146108f3576040517f08c379a00000000000000000000000000000000000000000000000000000000081526004016108ea906154ef565b60405180910390fd5b8361090f600f60059054906101000a900460ff1660ff166118df565b1461094f576040517f08c379a0000000000000000000000000000000000000000000000000000000008152600401610946906153af565b60405180910390fd5b6005600086815260200190815260200160002060009054906101000a900460ff166109af576040517f08c379a00000000000000000000000000000000000000000000000000000000081526004016109a69061544f565b60405180910390fd5b7f5d4d346a0213ff920be5c680b2dae20438f8a3447c0b4bd37268d1d2f523432a8584846040516109e2939291906156a3565b60405180910390a15050505050565b6109f9611881565b610a38576040517f08c379a0000000000000000000000000000000000000000000000000000000008152600401610a2f906153ef565b60405180910390fd5b600260019054906101000a900473ffffffffffffffffffffffffffffffffffffffff1673ffffffffffffffffffffffffffffffffffffffff1663087d4427826040518263ffffffff1660e01b8152600401610a93919061552f565b60206040518083038186803b158015610aab57600080fd5b505afa158015610abf573d6000803e3d6000fd5b505050506040513d601f19601f82011682018060405250810190610ae39190613d47565b610b22576040517f08c379a0000000000000000000000000000000000000000000000000000000008152600401610b199061532f565b60405180910390fd5b6005600082815260200190815260200160002060009054906101000a900460ff16610bab5760016005600083815260200190815260200160002060006101000a81548160ff0219169083151502179055507fbf594816977ea5809bf299bfeeb10d2cb41e25a998a19fafe5460164b3cdb08b81604051610ba2919061552f565b60405180910390a15b50565b600f60019054906101000a900460ff1681565b610bd1610bcc612559565b6110d6565b610c10576040517f08c379a0000000000000000000000000000000000000000000000000000000008152600401610c07906151cf565b60405180910390fd5b600260009054906101000a900460ff16610c5f576040517f08c379a0000000000000000000000000000000000000000000000000000000008152600401610c569061514f565b60405180910390fd5b6000600260006101000a81548160ff0219169083151502179055507f5db9ee0a495bf2e6ff9c91a7834c1ba4fdd244a5e8aa4e537bd38aeae4b073aa610ca3612559565b604051610cb09190614fe6565b60405180910390a1565b600260009054906101000a900460ff1615610d0a576040517f08c379a0000000000000000000000000000000000000000000000000000000008152600401610d01906152ef565b60405180910390fd5b600360009054906101000a900473ffffffffffffffffffffffffffffffffffffffff1673ffffffffffffffffffffffffffffffffffffffff163373ffffffffffffffffffffffffffffffffffffffff1614610d9a576040517f08c379a0000000000000000000000000000000000000000000000000000000008152600401610d91906154ef565b60405180910390fd5b606081600081518110610da957fe5b6020026020010151905060008411610df6576040517f08c379a0000000000000000000000000000000000000000000000000000000008152600401610ded906152af565b60405180910390fd5b73__RBBLib________________________________63465c4105600a836040518363ffffffff1660e01b8152600401610e30929190615118565b60206040518083038186803b158015610e4857600080fd5b505af4158015610e5c573d6000803e3d6000fd5b505050506040513d601f19601f82011682018060405250810190610e809190613d47565b15610e9a57610e958989898989898989612561565b6110cb565b73__RBBLib________________________________63465c4105600b836040518363ffffffff1660e01b8152600401610ed4929190615118565b60206040518083038186803b158015610eec57600080fd5b505af4158015610f00573d6000803e3d6000fd5b505050506040513d601f19601f82011682018060405250810190610f249190613d47565b15610f3e57610f398989898989898989612962565b6110ca565b73__RBBLib________________________________63465c4105600c836040518363ffffffff1660e01b8152600401610f78929190615118565b60206040518083038186803b158015610f9057600080fd5b505af4158015610fa4573d6000803e3d6000fd5b505050506040513d601f19601f82011682018060405250810190610fc89190613d47565b15610fe257610fdd8989898989898989612cc9565b6110c9565b73__RBBLib________________________________63465c4105600e836040518363ffffffff1660e01b815260040161101c929190615118565b60206040518083038186803b15801561103457600080fd5b505af4158015611048573d6000803e3d6000fd5b505050506040513d601f19601f8201168201806040525081019061106c9190613d47565b15611086576110818989898989898989612f6c565b6110c8565b60006110c7576040517f08c379a00000000000000000000000000000000000000000000000000000000081526004016110be9061542f565b60405180910390fd5b5b5b5b5b505050505050505050565b60006110ec8260016131b190919063ffffffff16565b9050919050565b60056020528060005260406000206000915054906101000a900460ff1681565b80600260016101000a81548173ffffffffffffffffffffffffffffffffffffffff021916908373ffffffffffffffffffffffffffffffffffffffff16021790555050565b600e8054600181600116156101000203166002900480601f0160208091040260200160405190810160405280929190818152602001828054600181600116156101000203166002900480156111ed5780601f106111c2576101008083540402835291602001916111ed565b820191906000526020600020905b8154815290600101906020018083116111d057829003601f168201915b505050505081565b600f60039054906101000a900460ff1681565b6000600260009054906101000a900460ff16905090565b3373ffffffffffffffffffffffffffffffffffffffff16600460009054906101000a900473ffffffffffffffffffffffffffffffffffffffff1673ffffffffffffffffffffffffffffffffffffffff16630b2e8fe96040518163ffffffff1660e01b815260040160206040518083038186803b15801561129e57600080fd5b505afa1580156112b2573d6000803e3d6000fd5b505050506040513d601f19601f820116820180604052508101906112d69190613bb3565b73ffffffffffffffffffffffffffffffffffffffff161461132c576040517f08c379a00000000000000000000000000000000000000000000000000000000081526004016113239061526f565b60405180910390fd5b6113368686613279565b611375576040517f08c379a000000000000000000000000000000000000000000000000000000000815260040161136c9061534f565b60405180910390fd5b61137f8484613279565b6113be576040517f08c379a00000000000000000000000000000000000000000000000000000000081526004016113b59061518f565b60405180910390fd5b600086868686866040516020016113d9959493929190614f6c565b60405160208183030381529060405280519060200120905060098190806001815401808255809150506001900390600052602060002001600090919091909150557f8fbc7818210c8d0cab55b36028efc60a3f6e71aa8ad8a2abb88cd9ba5f81673587878787878760405161145396959493929190615573565b60405180910390a150505050505050565b600c8054600181600116156101000203166002900480601f0160208091040260200160405190810160405280929190818152602001828054600181600116156101000203166002900480156114fa5780601f106114cf576101008083540402835291602001916114fa565b820191906000526020600020905b8154815290600101906020018083116114dd57829003601f168201915b505050505081565b61151261150d612559565b613624565b565b600f60029054906101000a900460ff1681565b61152f611881565b61156e576040517f08c379a0000000000000000000000000000000000000000000000000000000008152600401611565906153ef565b60405180910390fd5b600073ffffffffffffffffffffffffffffffffffffffff1660008054906101000a900473ffffffffffffffffffffffffffffffffffffffff1673ffffffffffffffffffffffffffffffffffffffff167f8be0079c531659141344cd1fd0a4f28419497f9722a3daafe3b4186f6b6457e060405160405180910390a360008060006101000a81548173ffffffffffffffffffffffffffffffffffffffff021916908373ffffffffffffffffffffffffffffffffffffffff160217905550565b600260019054906101000a900473ffffffffffffffffffffffffffffffffffffffff1681565b61166261165d612559565b6110d6565b6116a1576040517f08c379a0000000000000000000000000000000000000000000000000000000008152600401611698906151cf565b60405180910390fd5b6116aa8161367e565b50565b600f60049054906101000a900460ff1681565b6116d06116cb612559565b6110d6565b61170f576040517f08c379a0000000000000000000000000000000000000000000000000000000008152600401611706906151cf565b60405180910390fd5b600260009054906101000a900460ff161561175f576040517f08c379a0000000000000000000000000000000000000000000000000000000008152600401611756906152ef565b60405180910390fd5b6001600260006101000a81548160ff0219169083151502179055507f62e78cea01bee320cd4e420270b5ea74000d11b0c9f74754ebdbfc544b05a2586117a3612559565b6040516117b09190614fe6565b60405180910390a1565b60008060009054906101000a900473ffffffffffffffffffffffffffffffffffffffff16905090565b600b8054600181600116156101000203166002900480601f0160208091040260200160405190810160405280929190818152602001828054600181600116156101000203166002900480156118795780601f1061184e57610100808354040283529160200191611879565b820191906000526020600020905b81548152906001019060200180831161185c57829003601f168201915b505050505081565b60008060009054906101000a900473ffffffffffffffffffffffffffffffffffffffff1673ffffffffffffffffffffffffffffffffffffffff166118c3612559565b73ffffffffffffffffffffffffffffffffffffffff1614905090565b6000816040516020016118f29190614f51565b604051602081830303815290604052805190602001209050919050565b600260009054906101000a900460ff161561195f576040517f08c379a0000000000000000000000000000000000000000000000000000000008152600401611956906152ef565b60405180910390fd5b600360009054906101000a900473ffffffffffffffffffffffffffffffffffffffff1673ffffffffffffffffffffffffffffffffffffffff163373ffffffffffffffffffffffffffffffffffffffff16146119ef576040517f08c379a00000000000000000000000000000000000000000000000000000000081526004016119e6906154ef565b60405180910390fd5b7ff2117f45bb026f7f165d939836d0293bad4b8aaf2e658cb38900da27a81306558383604051611a20929190615037565b60405180910390a1505050565b600f60059054906101000a900460ff1681565b600260009054906101000a900460ff1615611a90576040517f08c379a0000000000000000000000000000000000000000000000000000000008152600401611a87906152ef565b60405180910390fd5b600360009054906101000a900473ffffffffffffffffffffffffffffffffffffffff1673ffffffffffffffffffffffffffffffffffffffff163373ffffffffffffffffffffffffffffffffffffffff1614611b20576040517f08c379a0000000000000000000000000000000000000000000000000000000008152600401611b17906154ef565b60405180910390fd5b60008311611b63576040517f08c379a0000000000000000000000000000000000000000000000000000000008152600401611b5a906152af565b60405180910390fd5b6008600086815260200190815260200160002060009054906101000a900460ff16611bc3576040517f08c379a0000000000000000000000000000000000000000000000000000000008152600401611bba9061528f565b60405180910390fd5b83611bdf600f60049054906101000a900460ff1660ff166118df565b14611c1f576040517f08c379a0000000000000000000000000000000000000000000000000000000008152600401611c16906152cf565b60405180910390fd5b7fb30495d559e05f5f1c993ea722cb239b6d85f70ed9c914b8350c4b94feed7ccd858484604051611c52939291906156a3565b60405180910390a1505050505050565b600460009054906101000a900473ffffffffffffffffffffffffffffffffffffffff1673ffffffffffffffffffffffffffffffffffffffff16638cabf1286040518163ffffffff1660e01b815260040160206040518083038186803b158015611cca57600080fd5b505afa158015611cde573d6000803e3d6000fd5b505050506040513d601f19601f82011682018060405250810190611d029190613bb3565b73ffffffffffffffffffffffffffffffffffffffff163373ffffffffffffffffffffffffffffffffffffffff1614611d6f576040517f08c379a0000000000000000000000000000000000000000000000000000000008152600401611d669061530f565b60405180910390fd5b6008600082815260200190815260200160002060009054906101000a900460ff16611eab5760016008600083815260200190815260200160002060006101000a81548160ff0219169083151502179055507f2757aa27a660ab391745e035b5a23653f6497d768c445f6a9c3df78e1d18727f600260019054906101000a900473ffffffffffffffffffffffffffffffffffffffff1673ffffffffffffffffffffffffffffffffffffffff166365f68c89611e276117ba565b6040518263ffffffff1660e01b8152600401611e439190614fcb565b60206040518083038186803b158015611e5b57600080fd5b505afa158015611e6f573d6000803e3d6000fd5b505050506040513d601f19601f82011682018060405250810190611e939190613e6a565b82604051611ea292919061567a565b60405180910390a15b50565b600081604051602001611ec19190614f3a565b604051602081830303815290604052805190602001209050919050565b6000611efb600f60009054906101000a900460ff1660ff166118df565b9050919050565b60086020528060005260406000206000915054906101000a900460ff1681565b600260009054906101000a900460ff1615611f72576040517f08c379a0000000000000000000000000000000000000000000000000000000008152600401611f69906152ef565b60405180910390fd5b6000600260019054906101000a900473ffffffffffffffffffffffffffffffffffffffff1673ffffffffffffffffffffffffffffffffffffffff166365f68c89336040518263ffffffff1660e01b8152600401611fcf9190614fe6565b60206040518083038186803b158015611fe757600080fd5b505afa158015611ffb573d6000803e3d6000fd5b505050506040513d601f19601f8201168201806040525081019061201f9190613e6a565b90506005600082815260200190815260200160002060009054906101000a900460ff16612081576040517f08c379a0000000000000000000000000000000000000000000000000000000008152600401612078906153cf565b60405180910390fd5b600260019054906101000a900473ffffffffffffffffffffffffffffffffffffffff1673ffffffffffffffffffffffffffffffffffffffff1663087d4427826040518263ffffffff1660e01b81526004016120dc919061552f565b60206040518083038186803b1580156120f457600080fd5b505afa158015612108573d6000803e3d6000fd5b505050506040513d601f19601f8201168201806040525081019061212c9190613d47565b61216b576040517f08c379a00000000000000000000000000000000000000000000000000000000081526004016121629061532f565b60405180910390fd5b6000612188600f60059054906101000a900460ff1660ff166118df565b9050600360009054906101000a900473ffffffffffffffffffffffffffffffffffffffff1673ffffffffffffffffffffffffffffffffffffffff166304cc4d8e828487876040518563ffffffff1660e01b81526004016121eb9493929190615060565b600060405180830381600087803b15801561220557600080fd5b505af1158015612219573d6000803e3d6000fd5b505050507f1bb5ed67b2bbb22aaf99cdcf7dbcf09ad7b4e3999dab8f77fd76c207b6e226da828585604051612250939291906156a3565b60405180910390a150505050565b6006602052816000526040600020818051602081018201805184825260208301602085012081835280955050505050506000915091509054906101000a900460ff1681565b600460009054906101000a900473ffffffffffffffffffffffffffffffffffffffff1681565b60076020528060005260406000206000915090508054600181600116156101000203166002900480601f0160208091040260200160405190810160405280929190818152602001828054600181600116156101000203166002900480156123715780601f1061234657610100808354040283529160200191612371565b820191906000526020600020905b81548152906001019060200180831161235457829003601f168201915b505050505081565b600360009054906101000a900473ffffffffffffffffffffffffffffffffffffffff1681565b6123a7611881565b6123e6576040517f08c379a00000000000000000000000000000000000000000000000000000000081526004016123dd906153ef565b60405180910390fd5b6123ef816136d8565b50565b600981815481106123ff57fe5b906000526020600020016000915090505481565b600d8054600181600116156101000203166002900480601f0160208091040260200160405190810160405280929190818152602001828054600181600116156101000203166002900480156124a95780601f1061247e576101008083540402835291602001916124a9565b820191906000526020600020905b81548152906001019060200180831161248c57829003601f168201915b505050505081565b6124bb82826131b1565b156124fb576040517f08c379a00000000000000000000000000000000000000000000000000000000081526004016124f29061516f565b60405180910390fd5b60018260000160008373ffffffffffffffffffffffffffffffffffffffff1673ffffffffffffffffffffffffffffffffffffffff16815260200190815260200160002060006101000a81548160ff0219169083151502179055505050565b600033905090565b600260009054906101000a900460ff16156125b1576040517f08c379a00000000000000000000000000000000000000000000000000000000081526004016125a8906152ef565b60405180910390fd5b8773ffffffffffffffffffffffffffffffffffffffff16600460009054906101000a900473ffffffffffffffffffffffffffffffffffffffff1673ffffffffffffffffffffffffffffffffffffffff1663329afd3a6040518163ffffffff1660e01b815260040160206040518083038186803b15801561263057600080fd5b505afa158015612644573d6000803e3d6000fd5b505050506040513d601f19601f820116820180604052508101906126689190613bb3565b73ffffffffffffffffffffffffffffffffffffffff16146126be576040517f08c379a00000000000000000000000000000000000000000000000000000000081526004016126b59061546f565b60405180910390fd5b6000600260019054906101000a900473ffffffffffffffffffffffffffffffffffffffff1673ffffffffffffffffffffffffffffffffffffffff166365f68c896127066117ba565b6040518263ffffffff1660e01b81526004016127229190614fcb565b60206040518083038186803b15801561273a57600080fd5b505afa15801561274e573d6000803e3d6000fd5b505050506040513d601f19601f820116820180604052508101906127729190613e6a565b90508088146127b6576040517f08c379a00000000000000000000000000000000000000000000000000000000081526004016127ad906154af565b60405180910390fd5b6127d1600f60009054906101000a900460ff1660ff166118df565b8714612812576040517f08c379a00000000000000000000000000000000000000000000000000000000081526004016128099061548f565b60405180910390fd5b858814612854576040517f08c379a000000000000000000000000000000000000000000000000000000000815260040161284b9061538f565b60405180910390fd5b61286f600f60019054906101000a900460ff1660ff166118df565b8514156128b4577f94d89c2ff047eba28eb56cacf5a8e292f150c43e792d648d54f8b93372849b3c84846040516128a792919061554a565b60405180910390a1612957565b6128cf600f60029054906101000a900460ff1660ff166118df565b851415612914577f7916e578b526c14777538bb519e208901510a7ff7765e2e339258b6ba65272fc848460405161290792919061554a565b60405180910390a1612956565b6000612955576040517f08c379a000000000000000000000000000000000000000000000000000000000815260040161294c906154cf565b60405180910390fd5b5b5b505050505050505050565b600260009054906101000a900460ff16156129b2576040517f08c379a00000000000000000000000000000000000000000000000000000000081526004016129a9906152ef565b60405180910390fd5b6060816001815181106129c157fe5b602002602001015190506000600260019054906101000a900473ffffffffffffffffffffffffffffffffffffffff1673ffffffffffffffffffffffffffffffffffffffff166365f68c89612a136117ba565b6040518263ffffffff1660e01b8152600401612a2f9190614fcb565b60206040518083038186803b158015612a4757600080fd5b505afa158015612a5b573d6000803e3d6000fd5b505050506040513d601f19601f82011682018060405250810190612a7f9190613e6a565b9050600460009054906101000a900473ffffffffffffffffffffffffffffffffffffffff1673ffffffffffffffffffffffffffffffffffffffff16638cabf1286040518163ffffffff1660e01b815260040160206040518083038186803b158015612ae957600080fd5b505afa158015612afd573d6000803e3d6000fd5b505050506040513d601f19601f82011682018060405250810190612b219190613bb3565b73ffffffffffffffffffffffffffffffffffffffff168a73ffffffffffffffffffffffffffffffffffffffff1614612b8e576040517f08c379a0000000000000000000000000000000000000000000000000000000008152600401612b859061530f565b60405180910390fd5b808914612bd0576040517f08c379a0000000000000000000000000000000000000000000000000000000008152600401612bc7906154af565b60405180910390fd5b87612bec600f60019054906101000a900460ff1660ff166118df565b14612c2c576040517f08c379a0000000000000000000000000000000000000000000000000000000008152600401612c239061524f565b60405180910390fd5b85612c3683611eae565b14612c76576040517f08c379a0000000000000000000000000000000000000000000000000000000008152600401612c6d9061550f565b60405180910390fd5b612c808783613805565b7fe08d0d3d48ef9857108be67cfe715057ce9b455eaf3a4d3b66f34bf148311d7a87838787604051612cb594939291906155d4565b60405180910390a150505050505050505050565b600260009054906101000a900460ff1615612d19576040517f08c379a0000000000000000000000000000000000000000000000000000000008152600401612d10906152ef565b60405180910390fd5b606081600181518110612d2857fe5b602002602001015190506006600089815260200190815260200160002081604051612d539190614f3a565b908152602001604051809103902060009054906101000a900460ff16612dae576040517f08c379a0000000000000000000000000000000000000000000000000000000008152600401612da5906151ef565b60405180910390fd5b86612db882611eae565b14612df8576040517f08c379a0000000000000000000000000000000000000000000000000000000008152600401612def9061550f565b60405180910390fd5b84612e14600f60049054906101000a900460ff1660ff166118df565b14612e54576040517f08c379a0000000000000000000000000000000000000000000000000000000008152600401612e4b906152cf565b60405180910390fd5b85881415612e97576040517f08c379a0000000000000000000000000000000000000000000000000000000008152600401612e8e9061522f565b60405180910390fd5b6008600087815260200190815260200160002060009054906101000a900460ff16612f225760016008600088815260200190815260200160002060006101000a81548160ff0219169083151502179055507f2757aa27a660ab391745e035b5a23653f6497d768c445f6a9c3df78e1d18727f8887604051612f1992919061567a565b60405180910390a15b7fdd62ead748da3466d84db25e6f55c3213f29aaf5c159d4d576018cd8420978268882888787604051612f59959493929190615620565b60405180910390a1505050505050505050565b600260009054906101000a900460ff1615612fbc576040517f08c379a0000000000000000000000000000000000000000000000000000000008152600401612fb3906152ef565b60405180910390fd5b612fc68787613279565b613005576040517f08c379a0000000000000000000000000000000000000000000000000000000008152600401612ffc9061534f565b60405180910390fd5b61300f8585613279565b61304e576040517f08c379a00000000000000000000000000000000000000000000000000000000081526004016130459061518f565b60405180910390fd5b60008787878787604051602001613069959493929190614f6c565b6040516020818303038152906040528051906020012090506000805b6009805490508110156130c75782600982815481106130a057fe5b906000526020600020015414156130ba57600191506130c7565b8080600101915050613085565b81613107576040517f08c379a00000000000000000000000000000000000000000000000000000000081526004016130fe906151af565b60405180910390fd5b60096001600980549050038154811061311c57fe5b90600052602060002001546009828154811061313457fe5b9060005260206000200181905550600980548061314d57fe5b600190038181906000526020600020016000905590557fae2b72cc4621b123feac073da32309bdd45fefaa49154814cd8c8b3c7c4d5cb78a8a8a8a8a8a60405161319c96959493929190615573565b60405180910390a15050505050505050505050565b60008073ffffffffffffffffffffffffffffffffffffffff168273ffffffffffffffffffffffffffffffffffffffff161415613222576040517f08c379a00000000000000000000000000000000000000000000000000000000081526004016132199061540f565b60405180910390fd5b8260000160008373ffffffffffffffffffffffffffffffffffffffff1673ffffffffffffffffffffffffffffffffffffffff16815260200190815260200160002060009054906101000a900460ff16905092915050565b6000600115156005600085815260200190815260200160002060009054906101000a900460ff16151514156132b1576001905061361e565b6060600760008481526020019081526020016000208054600181600116156101000203166002900480601f01602080910402602001604051908101604052809291908181526020018280546001816001161561010002031660029004801561335a5780601f1061332f5761010080835404028352916020019161335a565b820191906000526020600020905b81548152906001019060200180831161333d57829003601f168201915b505050505090506001151560066000868152602001908152602001600020826040516133869190614f3a565b908152602001604051809103902060009054906101000a900460ff16151514156133b457600191505061361e565b600115156008600086815260200190815260200160002060009054906101000a900460ff16151514156133eb57600191505061361e565b6000600260019054906101000a900473ffffffffffffffffffffffffffffffffffffffff1673ffffffffffffffffffffffffffffffffffffffff166365f68c896134336117ba565b6040518263ffffffff1660e01b815260040161344f9190614fcb565b60206040518083038186803b15801561346757600080fd5b505afa15801561347b573d6000803e3d6000fd5b505050506040513d601f19601f8201168201806040525081019061349f9190613e6a565b9050848114156134b45760019250505061361e565b6000600260019054906101000a900473ffffffffffffffffffffffffffffffffffffffff1673ffffffffffffffffffffffffffffffffffffffff166365f68c89600360009054906101000a900473ffffffffffffffffffffffffffffffffffffffff1673ffffffffffffffffffffffffffffffffffffffff16638da5cb5b6040518163ffffffff1660e01b815260040160206040518083038186803b15801561355c57600080fd5b505afa158015613570573d6000803e3d6000fd5b505050506040513d601f19601f820116820180604052508101906135949190613bb3565b6040518263ffffffff1660e01b81526004016135b09190614fcb565b60206040518083038186803b1580156135c857600080fd5b505afa1580156135dc573d6000803e3d6000fd5b505050506040513d601f19601f820116820180604052508101906136009190613e6a565b905085811415613616576001935050505061361e565b600093505050505b92915050565b61363881600161390090919063ffffffff16565b8073ffffffffffffffffffffffffffffffffffffffff167fcd265ebaf09df2871cc7bd4133404a235ba12eff2041bb89d9c714a2621c7c7e60405160405180910390a250565b6136928160016124b190919063ffffffff16565b8073ffffffffffffffffffffffffffffffffffffffff167f6719d08c1888103bea251a4ed56406bd0c3e69723c8a1686e017e7bbe159b6f860405160405180910390a250565b600073ffffffffffffffffffffffffffffffffffffffff168173ffffffffffffffffffffffffffffffffffffffff161415613748576040517f08c379a000000000000000000000000000000000000000000000000000000000815260040161373f9061520f565b60405180910390fd5b8073ffffffffffffffffffffffffffffffffffffffff1660008054906101000a900473ffffffffffffffffffffffffffffffffffffffff1673ffffffffffffffffffffffffffffffffffffffff167f8be0079c531659141344cd1fd0a4f28419497f9722a3daafe3b4186f6b6457e060405160405180910390a3806000806101000a81548173ffffffffffffffffffffffffffffffffffffffff021916908373ffffffffffffffffffffffffffffffffffffffff16021790555050565b60066000838152602001908152602001600020816040516138269190614f3a565b908152602001604051809103902060009054906101000a900460ff166138fc57600160066000848152602001908152602001600020826040516138699190614f3a565b908152602001604051809103902060006101000a81548160ff021916908315150217905550600061389982611eae565b9050816007600083815260200190815260200160002090805190602001906138c29291906139a7565b507f448b0dd714fa3713f69988b8ee8bad3ac840e06e3d93c970086a3d490d61c629836040516138f2919061552f565b60405180910390a1505b5050565b61390a82826131b1565b613949576040517f08c379a00000000000000000000000000000000000000000000000000000000081526004016139409061536f565b60405180910390fd5b60008260000160008373ffffffffffffffffffffffffffffffffffffffff1673ffffffffffffffffffffffffffffffffffffffff16815260200190815260200160002060006101000a81548160ff0219169083151502179055505050565b828054600181600116156101000203166002900490600052602060002090601f016020900481019282601f106139e857805160ff1916838001178555613a16565b82800160010185558215613a16579182015b82811115613a155782518255916020019190600101906139fa565b5b509050613a239190613a27565b5090565b5b80821115613a40576000816000905550600101613a28565b5090565b600081359050613a538161592b565b92915050565b600081519050613a688161592b565b92915050565b600082601f830112613a7f57600080fd5b8135613a92613a8d82615722565b6156f5565b9150818183526020840193506020810190508360005b83811015613ad85781358601613abe8882613b0c565b845260208401935060208301925050600181019050613aa8565b5050505092915050565b600081519050613af181615942565b92915050565b600081359050613b0681615959565b92915050565b600082601f830112613b1d57600080fd5b8135613b30613b2b8261574a565b6156f5565b91508082526020830160208301858383011115613b4c57600080fd5b613b578382846158c4565b50505092915050565b600081359050613b6f81615970565b92915050565b600081519050613b8481615970565b92915050565b600060208284031215613b9c57600080fd5b6000613baa84828501613a44565b91505092915050565b600060208284031215613bc557600080fd5b6000613bd384828501613a59565b91505092915050565b60008060008060008060c08789031215613bf557600080fd5b6000613c0389828a01613a44565b9650506020613c1489828a01613b60565b9550506040613c2589828a01613af7565b9450506060613c3689828a01613b60565b9350506080613c4789828a01613af7565b92505060a087013567ffffffffffffffff811115613c6457600080fd5b613c7089828a01613a6e565b9150509295509295509295565b600080600080600080600080610100898b031215613c9a57600080fd5b6000613ca88b828c01613a44565b9850506020613cb98b828c01613b60565b9750506040613cca8b828c01613af7565b9650506060613cdb8b828c01613b60565b9550506080613cec8b828c01613af7565b94505060a0613cfd8b828c01613b60565b93505060c0613d0e8b828c01613af7565b92505060e089013567ffffffffffffffff811115613d2b57600080fd5b613d378b828c01613a6e565b9150509295985092959890939650565b600060208284031215613d5957600080fd5b6000613d6784828501613ae2565b91505092915050565b600060208284031215613d8257600080fd5b6000613d9084828501613af7565b91505092915050565b600080600060608486031215613dae57600080fd5b6000613dbc86828701613af7565b9350506020613dcd86828701613af7565b925050604084013567ffffffffffffffff811115613dea57600080fd5b613df686828701613a6e565b9150509250925092565b600060208284031215613e1257600080fd5b600082013567ffffffffffffffff811115613e2c57600080fd5b613e3884828501613b0c565b91505092915050565b600060208284031215613e5357600080fd5b6000613e6184828501613b60565b91505092915050565b600060208284031215613e7c57600080fd5b6000613e8a84828501613b75565b91505092915050565b60008060408385031215613ea657600080fd5b6000613eb485828601613b60565b9250506020613ec585828601613af7565b9150509250929050565b600080600080600060a08688031215613ee757600080fd5b6000613ef588828901613b60565b9550506020613f0688828901613af7565b9450506040613f1788828901613b60565b9350506060613f2888828901613af7565b925050608086013567ffffffffffffffff811115613f4557600080fd5b613f5188828901613a6e565b9150509295509295909350565b60008060008060008060c08789031215613f7757600080fd5b6000613f8589828a01613b60565b9650506020613f9689828a01613af7565b9550506040613fa789828a01613b60565b9450506060613fb889828a01613af7565b9350506080613fc989828a01613b60565b92505060a0613fda89828a01613af7565b9150509295509295509295565b60008060408385031215613ffa57600080fd5b600061400885828601613b60565b925050602083013567ffffffffffffffff81111561402557600080fd5b61403185828601613b0c565b9150509250929050565b61404481615822565b82525050565b614053816157c3565b82525050565b614062816157d5565b82525050565b614071816157e1565b82525050565b614088614083826157e1565b615906565b82525050565b61409781615834565b82525050565b6140a681615858565b82525050565b6140b58161587c565b82525050565b60006140c68261578b565b6140d08185615796565b93506140e08185602086016158d3565b6140e98161591a565b840191505092915050565b60006140ff8261578b565b61410981856157a7565b93506141198185602086016158d3565b6141228161591a565b840191505092915050565b60006141388261578b565b61414281856157b8565b93506141528185602086016158d3565b80840191505092915050565b60008154600181166000811461417b57600181146141a1576141e5565b607f600283041661418c81876157a7565b955060ff1983168652602086019350506141e5565b600282046141af81876157a7565b95506141ba85615776565b60005b828110156141dc578154818901526001820191506020810190506141bd565b80880195505050505b505092915050565b60006141fa601483615796565b91507f5061757361626c653a206e6f74207061757365640000000000000000000000006000830152602082019050919050565b600061423a601f83615796565b91507f526f6c65733a206163636f756e7420616c72656164792068617320726f6c65006000830152602082019050919050565b600061427a603d83615796565b91507f456e64657265c3a76f2064652064657374696e6f206ec3a36f20696e636c75c360008301527fad646f20636f6d6f20706170656c206e6573736520636164617374726f0000006020830152604082019050919050565b60006142e0603083615796565b91507f496e74657276656ec3a7c3a36f206d616e75616c206ec3a36f2070726576696160008301527f6d656e74652063616461737472616461000000000000000000000000000000006020830152604082019050919050565b6000614346603083615796565b91507f506175736572526f6c653a2063616c6c657220646f6573206e6f74206861766560008301527f207468652050617573657220726f6c65000000000000000000000000000000006020830152604082019050919050565b60006143ac604483615796565b91507f536f6d656e746520636c69656e74657320656d20636f6e747261746f7320636160008301527f646173747261646f7320706f64656d206578656375746172206f20706167616d60208301527f656e746f000000000000000000000000000000000000000000000000000000006040830152606082019050919050565b6000614438602683615796565b91507f4f776e61626c653a206e6577206f776e657220697320746865207a65726f206160008301527f64647265737300000000000000000000000000000000000000000000000000006020830152604082019050919050565b600061449e605f83615796565b91507f556d20434e504a206ec3a36f20706f6465207472616e73666572697220746f6b60008301527f656e20706172612073692c2061696e64612071756520656d20706170c3a9697360208301527f2064697374696e746f732028436c69656e74652f466f726e656365646f7229006040830152606082019050919050565b600061452a602a83615796565b91507f4572726f206e6f2063c3a16c63756c6f20646f206861736820646120636f6e7460008301527f6120646f20424e444553000000000000000000000000000000000000000000006020830152604082019050919050565b6000614590605783615796565b91507f536f6d656e746520756d20726573706f6e73c3a176656c2070656c617320747260008301527f616e73666572c3aa6e636961732065787472616f7264696ec3a172696173207060208301527f6f7220656e766961722061207472616e7361c3a7c3a36f0000000000000000006040830152606082019050919050565b600061461c602f83615796565b91507f536f6d656e746520666f726e656365646f72657320706f64656d20657865637560008301527f746172206f20706167616d656e746f00000000000000000000000000000000006020830152604082019050919050565b6000614682603583615796565b91507f56616c6f72206120736572207472616e736163696f6e61646f2064657665207360008301527f6572206d61696f7220646f20717565207a65726f2e00000000000000000000006020830152604082019050919050565b60006146e8602f83615796565b91507f4572726f206e6f2063c3a16c63756c6f20646f206861736820646120636f6e7460008301527f6120646f20666f726e656365646f7200000000000000000000000000000000006020830152604082019050919050565b600061474e601083615796565b91507f5061757361626c653a20706175736564000000000000000000000000000000006000830152602082019050919050565b600061478e604983615796565b91507f45737461207472616e7361c3a7c3a36f2073c3b320706f64652073657220657860008301527f656375746164612070656c6f20726573706f6e73c3a176656c2070656c6f206460208301527f6573656d626f6c736f00000000000000000000000000000000000000000000006040830152606082019050919050565b600061481a603383615796565b91507f436f6e746120646520646f61646f72207072656369736120657374617220636f60008301527f6d20636164617374726f2076616c696461646f000000000000000000000000006020830152604082019050919050565b6000614880603c83615796565b91507f456e64657265c3a76f206465206f726967656d206ec3a36f20696e636c75c3ad60008301527f646f20636f6d6f20706170656c206e6573736520636164617374726f000000006020830152604082019050919050565b60006148e6602183615796565b91507f526f6c65733a206163636f756e7420646f6573206e6f74206861766520726f6c60008301527f65000000000000000000000000000000000000000000000000000000000000006020830152604082019050919050565b600061494c604583615796565b91507f49642064652064657374696e6f206461207472616e7361c3a7c3a36f206ec3a360008301527f6f20657374c3a120696775616c20616f20646f206f776e657220646f20636f6e60208301527f747261746f0000000000000000000000000000000000000000000000000000006040830152606082019050919050565b60006149d8602483615796565b91507f4572726f206e6f2063c3a16c63756c6f20646f206861736820646120646f61c360008301527fa7c3a36f000000000000000000000000000000000000000000000000000000006020830152604082019050919050565b6000614a3e602683615796565b91507f536f6d656e746520646f61646f72657320706f64656d2066617a657220646f6160008301527fc3a7c3b5657300000000000000000000000000000000000000000000000000006020830152604082019050919050565b6000614aa4602083615796565b91507f4f776e61626c653a2063616c6c6572206973206e6f7420746865206f776e65726000830152602082019050919050565b6000614ae4602283615796565b91507f526f6c65733a206163636f756e7420697320746865207a65726f20616464726560008301527f73730000000000000000000000000000000000000000000000000000000000006020830152604082019050919050565b6000614b4a604283615796565b91507f4e656e68756d61207665726966696361c3a7c3a36f206573706563c3ad66696360008301527f6120656e636f6e747261646120706172612061207472616e73666572c3aa6e6360208301527f69610000000000000000000000000000000000000000000000000000000000006040830152606082019050919050565b6000614bd6604083615796565b91507f536f6d656e746520646f61646f72657320706f64656d2066617a657220646f6160008301527fc3a7c3b565732c20726567697374726f20657374616820696e636f727265746f6020830152604082019050919050565b6000614c3c604c83615796565b91507f536f6d656e746520756d20726573706f6e73c3a176656c2070656c617320616c60008301527f6f6361c3a7c3b5657320696e69636961697320706f646520656e76696172206160208301527f207472616e7361c3a7c3a36f00000000000000000000000000000000000000006040830152606082019050919050565b6000614cc8603083615796565b91507f48617368206465206f726967656d206461207472616e7361c3a7c3a36f206ec360008301527fa36f20657374c3a120636f727265746f000000000000000000000000000000006020830152604082019050919050565b6000614d2e604483615796565b91507f4964206465206f726967656d206461207472616e7361c3a7c3a36f206ec3a36f60008301527f20657374c3a120696775616c20616f20646f206f776e657220646f20636f6e7460208301527f7261746f000000000000000000000000000000000000000000000000000000006040830152606082019050919050565b6000614dba604983615796565b91507f486173682064652064657374696e6f206ec3a36f20657374c3a120636f72726560008301527f73706f6e64656e7465206120636f6e746120646520646573656d626f6c736f2060208301527f6f752064652061646d00000000000000000000000000000000000000000000006040830152606082019050919050565b6000614e46603083615796565b91507f45737365206dc3a9746f646f2073c3b320706f646520736572206368616d616460008301527f6f2070656c6f205242425f546f6b656e000000000000000000000000000000006020830152604082019050919050565b6000614eac602c83615796565b91507f4572726f206e6f2063c3a16c63756c6f20646f206861736820646120636f6e7460008301527f6120646f20636c69656e746500000000000000000000000000000000000000006020830152604082019050919050565b614f0e8161580b565b82525050565b614f25614f208261580b565b615910565b82525050565b614f3481615815565b82525050565b6000614f46828461412d565b915081905092915050565b6000614f5d8284614f14565b60208201915081905092915050565b6000614f788288614f14565b602082019150614f888287614077565b602082019150614f988286614f14565b602082019150614fa88285614077565b602082019150614fb88284614f14565b6020820191508190509695505050505050565b6000602082019050614fe0600083018461404a565b92915050565b6000602082019050614ffb600083018461403b565b92915050565b60006020820190506150166000830184614059565b92915050565b60006020820190506150316000830184614068565b92915050565b600060408201905061504c6000830185614068565b6150596020830184614068565b9392505050565b60006080820190506150756000830187614068565b6150826020830186614f05565b61508f6040830185614f05565b61509c6060830184614068565b95945050505050565b60006020820190506150ba600083018461408e565b92915050565b60006020820190506150d5600083018461409d565b92915050565b60006020820190506150f060008301846140ac565b92915050565b6000602082019050818103600083015261511081846140bb565b905092915050565b60006040820190508181036000830152615132818561415e565b9050818103602083015261514681846140f4565b90509392505050565b60006020820190508181036000830152615168816141ed565b9050919050565b600060208201905081810360008301526151888161422d565b9050919050565b600060208201905081810360008301526151a88161426d565b9050919050565b600060208201905081810360008301526151c8816142d3565b9050919050565b600060208201905081810360008301526151e881614339565b9050919050565b600060208201905081810360008301526152088161439f565b9050919050565b600060208201905081810360008301526152288161442b565b9050919050565b6000602082019050818103600083015261524881614491565b9050919050565b600060208201905081810360008301526152688161451d565b9050919050565b6000602082019050818103600083015261528881614583565b9050919050565b600060208201905081810360008301526152a88161460f565b9050919050565b600060208201905081810360008301526152c881614675565b9050919050565b600060208201905081810360008301526152e8816146db565b9050919050565b6000602082019050818103600083015261530881614741565b9050919050565b6000602082019050818103600083015261532881614781565b9050919050565b600060208201905081810360008301526153488161480d565b9050919050565b6000602082019050818103600083015261536881614873565b9050919050565b60006020820190508181036000830152615388816148d9565b9050919050565b600060208201905081810360008301526153a88161493f565b9050919050565b600060208201905081810360008301526153c8816149cb565b9050919050565b600060208201905081810360008301526153e881614a31565b9050919050565b6000602082019050818103600083015261540881614a97565b9050919050565b6000602082019050818103600083015261542881614ad7565b9050919050565b6000602082019050818103600083015261544881614b3d565b9050919050565b6000602082019050818103600083015261546881614bc9565b9050919050565b6000602082019050818103600083015261548881614c2f565b9050919050565b600060208201905081810360008301526154a881614cbb565b9050919050565b600060208201905081810360008301526154c881614d21565b9050919050565b600060208201905081810360008301526154e881614dad565b9050919050565b6000602082019050818103600083015261550881614e39565b9050919050565b6000602082019050818103600083015261552881614e9f565b9050919050565b60006020820190506155446000830184614f05565b92915050565b600060408201905061555f6000830185614f05565b61556c6020830184614068565b9392505050565b600060c0820190506155886000830189614f05565b6155956020830188614068565b6155a26040830187614f05565b6155af6060830186614068565b6155bc6080830185614f05565b6155c960a0830184614068565b979650505050505050565b60006080820190506155e96000830187614f05565b81810360208301526155fb81866140bb565b905061560a6040830185614f05565b6156176060830184614068565b95945050505050565b600060a0820190506156356000830188614f05565b818103602083015261564781876140bb565b90506156566040830186614f05565b6156636060830185614f05565b6156706080830184614068565b9695505050505050565b600060408201905061568f6000830185614f05565b61569c6020830184614f05565b9392505050565b60006060820190506156b86000830186614f05565b6156c56020830185614f05565b6156d26040830184614068565b949350505050565b60006020820190506156ef6000830184614f2b565b92915050565b6000604051905081810181811067ffffffffffffffff8211171561571857600080fd5b8060405250919050565b600067ffffffffffffffff82111561573957600080fd5b602082029050602081019050919050565b600067ffffffffffffffff82111561576157600080fd5b601f19601f8301169050602081019050919050565b60008190508160005260206000209050919050565b600081519050919050565b600082825260208201905092915050565b600082825260208201905092915050565b600081905092915050565b60006157ce826157eb565b9050919050565b60008115159050919050565b6000819050919050565b600073ffffffffffffffffffffffffffffffffffffffff82169050919050565b6000819050919050565b600060ff82169050919050565b600061582d826158a0565b9050919050565b600061583f82615846565b9050919050565b6000615851826157eb565b9050919050565b60006158638261586a565b9050919050565b6000615875826157eb565b9050919050565b60006158878261588e565b9050919050565b6000615899826157eb565b9050919050565b60006158ab826158b2565b9050919050565b60006158bd826157eb565b9050919050565b82818337600083830152505050565b60005b838110156158f15780820151818401526020810190506158d6565b83811115615900576000848401525b50505050565b6000819050919050565b6000819050919050565b6000601f19601f8301169050919050565b615934816157c3565b811461593f57600080fd5b50565b61594b816157d5565b811461595657600080fd5b50565b615962816157e1565b811461596d57600080fd5b50565b6159798161580b565b811461598457600080fd5b5056fea26469706673582212200d167b47be728fbb8ae93888799cb14c392c0477206309189cc1e0520de19e4d64736f6c634300060c0033",
  "immutableReferences": {},
  "source": "pragma solidity ^0.6.0;\npragma experimental ABIEncoderV2;\n\n\nimport \"./RBBLib.sol\";\nimport \"./RBBRegistry.sol\";\nimport \"./RBBToken.sol\";\nimport \"./SpecificRBBToken.sol\";\nimport \"./FABndesToken_BNDESRoles.sol\";\nimport \"@openzeppelin/contracts/ownership/Ownable.sol\";\nimport \"@openzeppelin/contracts/lifecycle/Pausable.sol\";\nimport \"@openzeppelin/contracts/math/SafeMath.sol\";\n\n\n/*\nTodas as operaes j supem que a entidade de origem e destino esto cadastradas e validadas no RBB_Registry, pois isso  garantido pelo contrato genrico (RBB_Token)\n\nNo includo (TBD):\n------------\n- requisito adicional de o cliente poder resgatar uma parte do valor (ao invs de ter que necessariamente transferir tudo ao fornecedor)\n- ideia de o fornecedor poder sacar mais de um saldo ao mesmo tempo.\n- pedido inicial de financiamento do cliente \n- devoluo de fornecedor para cliente sem anuncia para o BNDES\n- controle que cada doacao realmente se transformou em duas transacoes, uma para a conta adm e outra para a conta usual\nuint admFee = amount.mul(bndesFee).div(100);\n- perodo de validade para as autorizaes de transferncias extraordinrias\n- invalidar doador, cliente e fornecedor (por exemplo, em caso de CNPJ deixar de existir, contrato com BNDES acabar ou periodicamente)\n- permitir criar perfis diferenciados para contas dos clientes e fornecedores\n- incluir possibilidade de remover doadores, clientes e, talvez, fornecedores\n*/\ncontract FABndesToken is SpecificRBBToken {\n\n    RBBToken public rbbToken;\n    FABndesToken_BNDESRoles public bndesRoles;\n\n    //RBBId donor => true/false (registered or not)\n    mapping (uint => bool) public donors;\n\n    //RBBId client => (idFinancialSupportAgreement Client => true/false (registered or not)\n    mapping (uint => mapping (string => bool)) public clients;\n    mapping (bytes32 => string) public hashToIdFinancialSupportAgreement;\n\n    //RBBId supplier => true/false (registered or not)\n    mapping (uint => bool) public suppliers;\n\n    //Hash of approved Extraordinary Transfers\n    bytes32[] public hashApprovedExtraordinaryTransfers;\n\n    // BNDES Fee percentage\n//   uint256 public bndesFee;    \n\n    //Types of transfer operation\n    string public INITIAL_ALLOCATION = \"INITIAL_ALLOCATION\";\n    string public DISBURSEMENT_VERIFICATION = \"DISBURSEMENT_VERIFICATION\";\n    string public CLIENT_PAY_SUPPLIER_VERIFICATION = \"CLIENT_PAY_SUPPLIER_VERIFICATION\";\n    string public BNDES_PAY_SUPPLIER_VERIFICATION = \"BNDES_PAY_SUPPLIER_VERIFICATION\";\n    string public EXTRAORDINARY_TRANSFERS = \"EXTRAORDINARY_TRANSFERS\";\n\n\n    uint8 public RESERVED_MINTED_ACCOUNT = 0;\n    uint8 public RESERVED_USUAL_DISBURSEMENTS_ACCOUNT = 1;\n    uint8 public RESERVED_BNDES_ADMIN_FEE_TO_HASH = 2;\n    uint8 public RESERVED_NO_ADDITIONAL_FIELDS_TO_DONOR = 10;\n    uint8 public RESERVED_NO_ADDITIONAL_FIELDS_TO_SUPPLIER = 20;\n    uint8 public RESERVED_NO_ADDITIONAL_FIELDS_TO_DIFF_MONEY = 30;\n\n    using SafeMath for uint;\n   \n    event FA_DonationBooked(uint idDonor, uint amount, bytes32 docHash);\n    event FA_DonationConfirmed(uint idDonor, uint amount, bytes32 docHash);\n\n    event FA_InitialAllocation_Disbursements(uint amount, bytes32 docHash);\n    event FA_InitialAllocation_Fee(uint amount, bytes32 docHash);\n\n    event FA_Disbursement  (uint idClient, string idFinancialSupportAgreement, uint amount, bytes32 docHash);\n    event FA_TokenTransfer (uint fromCnpj, string fromIdFinancialSupportAgreement, uint toCnpj, uint amount, bytes32 docHash);\n    event FA_BNDES_TokenTransfer(uint toCnpj, uint amount, bytes32 docHash);\n    event FA_RedemptionRequested (uint idClaimer, uint amount, bytes32 docHash);\n    event FA_RedemptionSettlement(bytes32 redemptionTransactionHash, bytes32 docHash);\n \n    event FA_ExtraordinaryTransferAllowed (uint fromId, bytes32 fromHash, uint toId, bytes32 toHash, \n            uint amount, bytes32 docHash);\n    event FA_ExtraordinaryTransferExecuted(uint fromId, bytes32 fromHash, uint toId, bytes32 toHash, \n            uint amount, bytes32 docHash);\n\n//    event FA_ManualIntervention_Fee(uint256 percent, bytes32 docHash);\n\n    event FA_DonorAdded(uint id);\n    event FA_ClientAdded(uint id);\n    event FA_SupplierAdded(uint registeredBy, uint id);\n\n\n    constructor (address newrbbTokenAddr, address addrBndesRoles) public {\n//        require (fee < 100, \"Valor de Fee maior que 100%\");\n\n        rbbToken = RBBToken(newrbbTokenAddr);\n        bndesRoles = FABndesToken_BNDESRoles(addrBndesRoles);\n\n//        bndesFee = fee;\n    }\n\n/*\n    function setBNDESFee(uint256 newBndesFee, bytes32 docHash) public onlyOwner {\n        require (newBndesFee < 100, \"Valor de Fee maior que 100%\");\n        bndesFee = newBndesFee;\n        emit FA_ManualIntervention_Fee(newBndesFee, docHash);\n    }\n*/\n\n    function bookDonation(uint amount, bytes32 docHash) public whenNotPaused  {        \n        \n        uint idDonor = registry.getId(msg.sender);\n\n        require (donors[idDonor], \"Somente doadores podem fazer doaes\");\n        require(registry.isRegistryOperational(idDonor), \"Conta de doador precisa estar com cadastro validado\");\n        \n        bytes32 specificHash = getCalculatedHash(RESERVED_NO_ADDITIONAL_FIELDS_TO_DIFF_MONEY);\n        rbbToken.requestMint(specificHash, idDonor, amount, docHash);\n\n        emit FA_DonationBooked(idDonor, amount, docHash);\n    }\n    \n    /* confirms the donor's donation */\n    function verifyAndActForMint(uint idDonor, bytes32 specificHash, uint amount, bytes32 docHash,\n        string[] memory data) public override whenNotPaused onlyRBBToken {\n\n        require (getCalculatedHash(RESERVED_NO_ADDITIONAL_FIELDS_TO_DIFF_MONEY)==specificHash, \"Erro no clculo do hash da doao\");\n\n        require (donors[idDonor], \"Somente doadores podem fazer doaes, registro estah incorreto\");\n\n        emit FA_DonationConfirmed(idDonor, amount, docHash);\n\n    }\n\n\n    function getHashToMintedAccount(bytes32 specificHash) override public returns (bytes32) {\n        //There is no difference of specificHash, all money should be minted in the same account\n        return getCalculatedHash(RESERVED_MINTED_ACCOUNT);\n    }\n\n    function verifyAndActForTransfer(address originalSender, uint fromId, bytes32 fromHash, uint toId, bytes32 toHash, \n            uint amount, bytes32 docHash, string[] memory data) public override whenNotPaused onlyRBBToken {\n\n        string memory specificMethod = data[0];\n\n        require (amount>0, \"Valor a ser transacionado deve ser maior do que zero.\");\n\n        if (RBBLib.isEqual(INITIAL_ALLOCATION, specificMethod)) {\n            verifyAndActForTransfer_INITIAL_ALLOCATION(originalSender, fromId, fromHash, toId, toHash, amount, docHash, data);\n        }\n        else if (RBBLib.isEqual(DISBURSEMENT_VERIFICATION, specificMethod)) {\n            verifyAndActForTransfer_DISBURSEMENT(originalSender, fromId, fromHash, toId, toHash, amount, docHash, data);\n        }\n        else if (RBBLib.isEqual(CLIENT_PAY_SUPPLIER_VERIFICATION, specificMethod)) {\n            verifyAndActForTransfer_CLIENT_PAY_SUPPLIER(originalSender, fromId, fromHash, toId, toHash, amount, docHash, data);\n        }\n//TODO: descomentar quando aumentar o gas limit\n//        else if (RBBLib.isEqual(BNDES_PAY_SUPPLIER_VERIFICATION, specificMethod)) {\n//            verifyAndActForTransfer_BNDES_PAY_SUPPLIER(originalSender, fromId, fromHash, toId, toHash, amount, docHash, data);\n//        }\n        else if (RBBLib.isEqual(EXTRAORDINARY_TRANSFERS, specificMethod)) {\n            verifyAndActForTransfer_EXTRAORDINARY_TRANSFERS(originalSender, fromId, fromHash, toId, toHash, amount, docHash, data);\n        }\n        else {\n            require (false, \"Nenhuma verificao especfica encontrada para a transferncia\");\n        }\n\n    }\n\n    function verifyAndActForTransfer_INITIAL_ALLOCATION(address originalSender, uint fromId, bytes32 fromHash, uint toId, \n            bytes32 toHash, uint amount, bytes32 docHash, string[] memory data) internal whenNotPaused {\n\n        require (bndesRoles.responsibleForInitialAllocation() == originalSender, \n            \"Somente um responsvel pelas alocaes iniciais pode enviar a transao\");\n\n        uint ownerId = registry.getId(owner());\n        require (fromId == ownerId, \"Id de origem da transao no est igual ao do owner do contrato\");\n        require (fromHash == getCalculatedHash(RESERVED_MINTED_ACCOUNT), \"Hash de origem da transao no est correto\");\n\n        require (fromId == toId, \"Id de destino da transao no est igual ao do owner do contrato\");\n\n        if (toHash == getCalculatedHash(RESERVED_USUAL_DISBURSEMENTS_ACCOUNT)) {\n            emit FA_InitialAllocation_Disbursements(amount, docHash);\n        }\n        else if (toHash == getCalculatedHash(RESERVED_BNDES_ADMIN_FEE_TO_HASH)) {\n            emit FA_InitialAllocation_Fee(amount, docHash);\n        }\n        else {\n            require (false, \"Hash de destino no est correspondente a conta de desembolso ou de adm\");\n        }\n    }\n\n    function verifyAndActForTransfer_DISBURSEMENT(address originalSender, uint fromId, bytes32 fromHash, \n            uint toId, bytes32 toHash, uint amount, bytes32 docHash, string[] memory data) internal whenNotPaused {\n    \n        string memory idFinancialSupportAgreement = data[1];\n        uint ownerId = registry.getId(owner());\n\n        require (originalSender == bndesRoles.responsibleForDisbursement(), \n            \"Esta transao s pode ser executada pelo responsvel pelo desembolso\");\n\n        //Essa eh uma regra especifica visto que outra organizacao pode ter recebido o token no allocate.\n        require (fromId == ownerId, \"Id de origem da transao no est igual ao do owner do contrato\");\n        require (getCalculatedHash(RESERVED_USUAL_DISBURSEMENTS_ACCOUNT)==fromHash, \"Erro no clculo do hash da conta do BNDES\");\n        require (getCalculatedHash(idFinancialSupportAgreement)==toHash, \"Erro no clculo do hash da conta do cliente\");\n\n        addClient(toId, idFinancialSupportAgreement);\n\n        emit FA_Disbursement (toId, idFinancialSupportAgreement, amount, docHash);\n\n    }   \n\n    function verifyAndActForTransfer_CLIENT_PAY_SUPPLIER(address originalSender, uint fromId, bytes32 fromHash, \n            uint toId, bytes32 toHash, uint amount, bytes32 docHash, string[] memory data) internal whenNotPaused {\n    \n        string memory idFinancialSupportAgreement = data[1];\n\n        //nao verifica o sender, dado que o esse contrato nao diferencia as contas do cliente\n\n        require (clients[fromId][idFinancialSupportAgreement], \"Somente clientes em contratos cadastrados podem executar o pagamento\");\n        require (getCalculatedHash(idFinancialSupportAgreement)==fromHash, \"Erro no clculo do hash da conta do cliente\");\n        require (getCalculatedHash(RESERVED_NO_ADDITIONAL_FIELDS_TO_SUPPLIER)==toHash, \"Erro no clculo do hash da conta do fornecedor\");\n\n        require(fromId != toId,\n            \"Um CNPJ no pode transferir token para si, ainda que em papis distintos (Cliente/Fornecedor)\");\n\n        if (!suppliers[toId]) {\n            suppliers[toId] = true; //register the supplier\n            emit FA_SupplierAdded(fromId, toId);\n        }\n\n        emit FA_TokenTransfer (fromId, idFinancialSupportAgreement, toId, amount, docHash);\n\n    }\n\n/*\nTODO: descomentar quando aumentar o tamanho do bloco\n    function verifyAndActForTransfer_BNDES_PAY_SUPPLIER(address originalSender, uint fromId, bytes32 fromHash, \n            uint toId, bytes32 toHash, uint amount, bytes32 docHash, string[] memory data) internal whenNotPaused {\n\n        require (originalSender == bndesRoles.responsibleForDisbursement(), \n            \"Esta transao s pode ser executada pelo responsvel pelo desembolso\");\n\n        require (fromId==registry.getId(owner()), \"Somente o BNDES pode executar o pagamento\");\n        require (getCalculatedHash(RESERVED_BNDES_ADMIN_FEE_TO_HASH)==fromHash, \"Erro no clculo do hash da conta de admin do contrato especifico\");\n        require (getCalculatedHash(RESERVED_NO_ADDITIONAL_FIELDS_TO_SUPPLIER)==toHash, \"Erro no clculo do hash da conta do fornecedor\");\n\n        require(fromId != toId, \"Um BNDES no pode transferir token para si\");\n\n        emit FA_BNDES_TokenTransfer (toId, amount, docHash);\n\n    }\n*/\n    function verifyAndActForRedeem(address originalSender, uint fromId, bytes32 fromHash, uint amount, \n        bytes32 docHash, string[] memory data) public override whenNotPaused onlyRBBToken {\n\n        //nao verifica o sender, dado que o esse contrato nao diferencia as contas do fornecedor\n\n        require (amount>0, \"Valor a ser transacionado deve ser maior do que zero.\");\n        require (suppliers[fromId], \"Somente fornecedores podem executar o pagamento\");\n        require (getCalculatedHash(RESERVED_NO_ADDITIONAL_FIELDS_TO_SUPPLIER)==fromHash, \"Erro no clculo do hash da conta do fornecedor\");\n\n        emit FA_RedemptionRequested (fromId, amount, docHash);\n\n    }\n\n    function verifyAndActForRedemptionSettlement(bytes32 redemptionTransactionHash, bytes32 docHash, \n        string[] memory data)\n        public override whenNotPaused onlyRBBToken {\n\n        emit FA_RedemptionSettlement (redemptionTransactionHash, docHash);\n    }\n\n    modifier onlyRBBToken() {\n        require (msg.sender==address(rbbToken), \"Esse mtodo s pode ser chamado pelo RBB_Token\");\n        _;\n    }\n\n    \n    function getCalculatedHash (uint info) public pure returns (bytes32) {\n        return keccak256(abi.encodePacked(info));\n    }\n\n    function getCalculatedHash (string memory info) public pure returns (bytes32) {\n        return keccak256(abi.encodePacked(info));\n    }\n\n    function authorizeExtraordinaryTransfer (uint fromId, bytes32 fromHash, uint toId, bytes32 toHash, \n                uint amount, bytes32 docHash) public  {\n        \n        require (bndesRoles.resposibleForApproveExtraordinaryTransfers() == msg.sender, \n            \"Somente um responsvel pelas transferncias extraordinrias por enviar a transao\");  \n        require (hasRoleInThisContract(fromId, fromHash), \"Endereo de origem no includo como papel nesse cadastro\");\n        require (hasRoleInThisContract(toId, toHash), \"Endereo de destino no includo como papel nesse cadastro\");\n\n        bytes32 m = keccak256(abi.encodePacked(fromId, fromHash, toId, toHash, amount));\n        hashApprovedExtraordinaryTransfers.push(m);\n\n        emit FA_ExtraordinaryTransferAllowed (fromId, fromHash, toId, toHash, amount, docHash);\n\n    }\n   \n    function verifyAndActForTransfer_EXTRAORDINARY_TRANSFERS(address originalSender, uint fromId, bytes32 fromHash, \n            uint toId, bytes32 toHash, uint amount, bytes32 docHash, string[] memory data) internal whenNotPaused {\n\n        require (hasRoleInThisContract(fromId, fromHash), \"Endereo de origem no includo como papel nesse cadastro\");\n        require (hasRoleInThisContract(toId, toHash), \"Endereo de destino no includo como papel nesse cadastro\");\n\n        bytes32 m = keccak256(abi.encodePacked(fromId, fromHash, toId, toHash, amount));\n\n        bool transferApproved = false;\n        uint index = 0;\n        for (; index<hashApprovedExtraordinaryTransfers.length; index++) {\n            if (hashApprovedExtraordinaryTransfers[index] == m) {\n                transferApproved = true;\n                break;\n            }\n        }\n\n        require (transferApproved, \"Interveno manual no previamente cadastrada\");\n\n        hashApprovedExtraordinaryTransfers[index] \n            = hashApprovedExtraordinaryTransfers [hashApprovedExtraordinaryTransfers.length-1];\n        hashApprovedExtraordinaryTransfers.pop();\n\n        emit FA_ExtraordinaryTransferExecuted (fromId, fromHash, toId, toHash, amount, docHash);\n\n    }\n\n//////////\n\n    function addDonor (uint idDonor) public onlyOwner {\n        require(registry.isRegistryOperational(idDonor), \"Conta de doador precisa estar com cadastro validado\");\n        if(!donors[idDonor]) {\n            donors[idDonor] = true;\n            emit FA_DonorAdded(idDonor);\n        }\n    }\n\n\n    function addClient (uint id, string memory idFinancialSupportAgreement) internal  {\n\n        if (!clients[id][idFinancialSupportAgreement]) {\n            clients[id][idFinancialSupportAgreement] = true; //register the client\n            bytes32 h = getCalculatedHash(idFinancialSupportAgreement);\n            hashToIdFinancialSupportAgreement[h] = idFinancialSupportAgreement;\n            emit FA_ClientAdded(id);\n\n        }\n    }\n\n\n    function addSupplier (uint id) public  {\n\n        require (msg.sender == bndesRoles.responsibleForDisbursement(), \"Esta transao s pode ser executada pelo responsvel pelo desembolso\");\n        if (!suppliers[id]) {\n            suppliers[id] = true; //register the supplier\n            emit FA_SupplierAdded(registry.getId(owner()), id);\n        }\n    }\n\n    function hasRoleInThisContract (uint rbbId, bytes32 hashToAccount) private view returns (bool) {\n\n        if (donors[rbbId]==true) return true;\n\n        string memory idFinancialSupportAgreement = hashToIdFinancialSupportAgreement[hashToAccount];\n        if (clients[rbbId][idFinancialSupportAgreement]==true) return true;\n\n        if (suppliers[rbbId]==true) return true;\n\n        uint ownerId = registry.getId(owner());\n        if (ownerId == rbbId) return true;\n\n        uint rbbTokenOwnerId = registry.getId(rbbToken.owner());\n        if (rbbTokenOwnerId == rbbId) return true;\n\n        return false;\n    }\n\n}",
  "sourcePath": "/Users/suzana.moreno/workspace/rbb-token/Back-Blockchain/contracts/FABndesToken.sol",
  "compiler": {
    "name": "solc",
    "version": "0.6.12+commit.27d51765.Emscripten.clang"
  },
  "schemaVersion": "3.2.5",
  "updatedAt": "2020-10-02T20:24:33.891Z",
  "networkType": "ethereum",
  "devdoc": {
    "kind": "dev",
    "methods": {
      "isOwner()": {
        "details": "Returns true if the caller is the current owner."
      },
      "owner()": {
        "details": "Returns the address of the current owner."
      },
      "pause()": {
        "details": "Called by a pauser to pause, triggers stopped state."
      },
      "paused()": {
        "details": "Returns true if the contract is paused, and false otherwise."
      },
      "renounceOwnership()": {
        "details": "Leaves the contract without owner. It will not be possible to call `onlyOwner` functions anymore. Can only be called by the current owner. NOTE: Renouncing ownership will leave the contract without an owner, thereby removing any functionality that is only available to the owner."
      },
      "transferOwnership(address)": {
        "details": "Transfers ownership of the contract to a new account (`newOwner`). Can only be called by the current owner."
      },
      "unpause()": {
        "details": "Called by a pauser to unpause, returns to normal state."
      }
    },
    "version": 1
  },
  "userdoc": {
    "kind": "user",
    "methods": {},
    "version": 1
  }
}