{
  "contractName": "FABndesToken",
  "abi": [
    {
      "inputs": [
        {
          "internalType": "uint256",
          "name": "fee",
          "type": "uint256"
        }
      ],
      "stateMutability": "nonpayable",
      "type": "constructor"
    },
    {
      "anonymous": false,
      "inputs": [
        {
          "indexed": false,
          "internalType": "string",
          "name": "idDonor",
          "type": "string"
        },
        {
          "indexed": false,
          "internalType": "uint256",
          "name": "amount",
          "type": "uint256"
        }
      ],
      "name": "FA_AdmFeeCharged",
      "type": "event"
    },
    {
      "anonymous": false,
      "inputs": [
        {
          "indexed": false,
          "internalType": "uint256",
          "name": "toCnpj",
          "type": "uint256"
        },
        {
          "indexed": false,
          "internalType": "uint256",
          "name": "amount",
          "type": "uint256"
        }
      ],
      "name": "FA_BNDES_TokenTransfer",
      "type": "event"
    },
    {
      "anonymous": false,
      "inputs": [
        {
          "indexed": false,
          "internalType": "uint256",
          "name": "id",
          "type": "uint256"
        }
      ],
      "name": "FA_ClientAdded",
      "type": "event"
    },
    {
      "anonymous": false,
      "inputs": [
        {
          "indexed": false,
          "internalType": "uint256",
          "name": "idClient",
          "type": "uint256"
        },
        {
          "indexed": false,
          "internalType": "string",
          "name": "idFinancialSupportAgreement",
          "type": "string"
        },
        {
          "indexed": false,
          "internalType": "uint256",
          "name": "amount",
          "type": "uint256"
        }
      ],
      "name": "FA_Disbursement",
      "type": "event"
    },
    {
      "anonymous": false,
      "inputs": [
        {
          "indexed": false,
          "internalType": "uint256",
          "name": "idDonor",
          "type": "uint256"
        },
        {
          "indexed": false,
          "internalType": "uint256",
          "name": "amount",
          "type": "uint256"
        }
      ],
      "name": "FA_DonationBooked",
      "type": "event"
    },
    {
      "anonymous": false,
      "inputs": [
        {
          "indexed": false,
          "internalType": "string",
          "name": "idDonor",
          "type": "string"
        },
        {
          "indexed": false,
          "internalType": "uint256",
          "name": "amount",
          "type": "uint256"
        },
        {
          "indexed": false,
          "internalType": "string",
          "name": "receiptHash",
          "type": "string"
        }
      ],
      "name": "FA_DonationConfirmed",
      "type": "event"
    },
    {
      "anonymous": false,
      "inputs": [
        {
          "indexed": false,
          "internalType": "uint256",
          "name": "id",
          "type": "uint256"
        }
      ],
      "name": "FA_DonorAdded",
      "type": "event"
    },
    {
      "anonymous": false,
      "inputs": [
        {
          "indexed": false,
          "internalType": "uint256",
          "name": "percent",
          "type": "uint256"
        },
        {
          "indexed": false,
          "internalType": "string",
          "name": "description",
          "type": "string"
        }
      ],
      "name": "FA_ManualIntervention_Fee",
      "type": "event"
    },
    {
      "anonymous": false,
      "inputs": [
        {
          "indexed": false,
          "internalType": "address",
          "name": "account",
          "type": "address"
        },
        {
          "indexed": false,
          "internalType": "uint8",
          "name": "eventType",
          "type": "uint8"
        }
      ],
      "name": "FA_ManualIntervention_RoleOrAddress",
      "type": "event"
    },
    {
      "anonymous": false,
      "inputs": [
        {
          "indexed": false,
          "internalType": "uint256",
          "name": "fromId",
          "type": "uint256"
        },
        {
          "indexed": false,
          "internalType": "bytes32",
          "name": "fromHash",
          "type": "bytes32"
        },
        {
          "indexed": false,
          "internalType": "uint256",
          "name": "toId",
          "type": "uint256"
        },
        {
          "indexed": false,
          "internalType": "bytes32",
          "name": "toHash",
          "type": "bytes32"
        },
        {
          "indexed": false,
          "internalType": "uint256",
          "name": "amount",
          "type": "uint256"
        },
        {
          "indexed": false,
          "internalType": "string[]",
          "name": "data",
          "type": "string[]"
        }
      ],
      "name": "FA_ManualIntervention_Transfer",
      "type": "event"
    },
    {
      "anonymous": false,
      "inputs": [
        {
          "indexed": false,
          "internalType": "uint256",
          "name": "fromId",
          "type": "uint256"
        },
        {
          "indexed": false,
          "internalType": "bytes32",
          "name": "fromHash",
          "type": "bytes32"
        },
        {
          "indexed": false,
          "internalType": "uint256",
          "name": "toId",
          "type": "uint256"
        },
        {
          "indexed": false,
          "internalType": "bytes32",
          "name": "toHash",
          "type": "bytes32"
        },
        {
          "indexed": false,
          "internalType": "uint256",
          "name": "amount",
          "type": "uint256"
        }
      ],
      "name": "FA_ManualIntervention_TransferAllowed",
      "type": "event"
    },
    {
      "anonymous": false,
      "inputs": [
        {
          "indexed": false,
          "internalType": "uint256",
          "name": "idClaimer",
          "type": "uint256"
        },
        {
          "indexed": false,
          "internalType": "uint256",
          "name": "amount",
          "type": "uint256"
        }
      ],
      "name": "FA_RedemptionRequested",
      "type": "event"
    },
    {
      "anonymous": false,
      "inputs": [
        {
          "indexed": false,
          "internalType": "string",
          "name": "redemptionTransactionHash",
          "type": "string"
        },
        {
          "indexed": false,
          "internalType": "string",
          "name": "receiptHash",
          "type": "string"
        }
      ],
      "name": "FA_RedemptionSettlement",
      "type": "event"
    },
    {
      "anonymous": false,
      "inputs": [
        {
          "indexed": false,
          "internalType": "uint256",
          "name": "registeredBy",
          "type": "uint256"
        },
        {
          "indexed": false,
          "internalType": "uint256",
          "name": "id",
          "type": "uint256"
        }
      ],
      "name": "FA_SupplierAdded",
      "type": "event"
    },
    {
      "anonymous": false,
      "inputs": [
        {
          "indexed": false,
          "internalType": "uint256",
          "name": "fromCnpj",
          "type": "uint256"
        },
        {
          "indexed": false,
          "internalType": "string",
          "name": "fromIdFinancialSupportAgreement",
          "type": "string"
        },
        {
          "indexed": false,
          "internalType": "uint256",
          "name": "toCnpj",
          "type": "uint256"
        },
        {
          "indexed": false,
          "internalType": "uint256",
          "name": "amount",
          "type": "uint256"
        }
      ],
      "name": "FA_TokenTransfer",
      "type": "event"
    },
    {
      "anonymous": false,
      "inputs": [
        {
          "indexed": true,
          "internalType": "address",
          "name": "previousOwner",
          "type": "address"
        },
        {
          "indexed": true,
          "internalType": "address",
          "name": "newOwner",
          "type": "address"
        }
      ],
      "name": "OwnershipTransferred",
      "type": "event"
    },
    {
      "anonymous": false,
      "inputs": [
        {
          "indexed": false,
          "internalType": "address",
          "name": "account",
          "type": "address"
        }
      ],
      "name": "Paused",
      "type": "event"
    },
    {
      "anonymous": false,
      "inputs": [
        {
          "indexed": true,
          "internalType": "address",
          "name": "account",
          "type": "address"
        }
      ],
      "name": "PauserAdded",
      "type": "event"
    },
    {
      "anonymous": false,
      "inputs": [
        {
          "indexed": true,
          "internalType": "address",
          "name": "account",
          "type": "address"
        }
      ],
      "name": "PauserRemoved",
      "type": "event"
    },
    {
      "anonymous": false,
      "inputs": [
        {
          "indexed": false,
          "internalType": "address",
          "name": "account",
          "type": "address"
        }
      ],
      "name": "Unpaused",
      "type": "event"
    },
    {
      "inputs": [],
      "name": "BNDES_PAY_SUPPLIER_VERIFICATION",
      "outputs": [
        {
          "internalType": "string",
          "name": "",
          "type": "string"
        }
      ],
      "stateMutability": "view",
      "type": "function"
    },
    {
      "inputs": [],
      "name": "CLIENT_PAY_SUPPLIER_VERIFICATION",
      "outputs": [
        {
          "internalType": "string",
          "name": "",
          "type": "string"
        }
      ],
      "stateMutability": "view",
      "type": "function"
    },
    {
      "inputs": [],
      "name": "DISBURSEMENT_VERIFICATION",
      "outputs": [
        {
          "internalType": "string",
          "name": "",
          "type": "string"
        }
      ],
      "stateMutability": "view",
      "type": "function"
    },
    {
      "inputs": [],
      "name": "INITIAL_ALLOCATION",
      "outputs": [
        {
          "internalType": "string",
          "name": "",
          "type": "string"
        }
      ],
      "stateMutability": "view",
      "type": "function"
    },
    {
      "inputs": [],
      "name": "MANUAL_INTERVENTION",
      "outputs": [
        {
          "internalType": "string",
          "name": "",
          "type": "string"
        }
      ],
      "stateMutability": "view",
      "type": "function"
    },
    {
      "inputs": [],
      "name": "RESERVED_BNDES_ADMIN_FEE__TO_HASH",
      "outputs": [
        {
          "internalType": "uint8",
          "name": "",
          "type": "uint8"
        }
      ],
      "stateMutability": "view",
      "type": "function"
    },
    {
      "inputs": [],
      "name": "RESERVED_MINTED_ACCOUNT",
      "outputs": [
        {
          "internalType": "uint8",
          "name": "",
          "type": "uint8"
        }
      ],
      "stateMutability": "view",
      "type": "function"
    },
    {
      "inputs": [],
      "name": "RESERVED_NO_ADDITIONAL_FIELDS_TO_HASH",
      "outputs": [
        {
          "internalType": "uint8",
          "name": "",
          "type": "uint8"
        }
      ],
      "stateMutability": "view",
      "type": "function"
    },
    {
      "inputs": [],
      "name": "RESERVED_TO_USUAL_DISBURSEMENTS_ACCOUNT",
      "outputs": [
        {
          "internalType": "uint8",
          "name": "",
          "type": "uint8"
        }
      ],
      "stateMutability": "view",
      "type": "function"
    },
    {
      "inputs": [
        {
          "internalType": "address",
          "name": "account",
          "type": "address"
        }
      ],
      "name": "addPauser",
      "outputs": [],
      "stateMutability": "nonpayable",
      "type": "function"
    },
    {
      "inputs": [],
      "name": "bndesFee",
      "outputs": [
        {
          "internalType": "uint256",
          "name": "",
          "type": "uint256"
        }
      ],
      "stateMutability": "view",
      "type": "function"
    },
    {
      "inputs": [
        {
          "internalType": "uint256",
          "name": "",
          "type": "uint256"
        },
        {
          "internalType": "string",
          "name": "",
          "type": "string"
        }
      ],
      "name": "clients",
      "outputs": [
        {
          "internalType": "bool",
          "name": "",
          "type": "bool"
        }
      ],
      "stateMutability": "view",
      "type": "function"
    },
    {
      "inputs": [
        {
          "internalType": "uint256",
          "name": "",
          "type": "uint256"
        }
      ],
      "name": "hashManualInterventionOperationApprovedByOwner",
      "outputs": [
        {
          "internalType": "bytes32",
          "name": "",
          "type": "bytes32"
        }
      ],
      "stateMutability": "view",
      "type": "function"
    },
    {
      "inputs": [],
      "name": "isOwner",
      "outputs": [
        {
          "internalType": "bool",
          "name": "",
          "type": "bool"
        }
      ],
      "stateMutability": "view",
      "type": "function"
    },
    {
      "inputs": [
        {
          "internalType": "address",
          "name": "account",
          "type": "address"
        }
      ],
      "name": "isPauser",
      "outputs": [
        {
          "internalType": "bool",
          "name": "",
          "type": "bool"
        }
      ],
      "stateMutability": "view",
      "type": "function"
    },
    {
      "inputs": [],
      "name": "owner",
      "outputs": [
        {
          "internalType": "address",
          "name": "",
          "type": "address"
        }
      ],
      "stateMutability": "view",
      "type": "function"
    },
    {
      "inputs": [],
      "name": "pause",
      "outputs": [],
      "stateMutability": "nonpayable",
      "type": "function"
    },
    {
      "inputs": [],
      "name": "paused",
      "outputs": [
        {
          "internalType": "bool",
          "name": "",
          "type": "bool"
        }
      ],
      "stateMutability": "view",
      "type": "function"
    },
    {
      "inputs": [],
      "name": "rbbToken",
      "outputs": [
        {
          "internalType": "contract RBBToken",
          "name": "",
          "type": "address"
        }
      ],
      "stateMutability": "view",
      "type": "function"
    },
    {
      "inputs": [],
      "name": "registry",
      "outputs": [
        {
          "internalType": "contract RBBRegistry",
          "name": "",
          "type": "address"
        }
      ],
      "stateMutability": "view",
      "type": "function"
    },
    {
      "inputs": [],
      "name": "renounceOwnership",
      "outputs": [],
      "stateMutability": "nonpayable",
      "type": "function"
    },
    {
      "inputs": [],
      "name": "renouncePauser",
      "outputs": [],
      "stateMutability": "nonpayable",
      "type": "function"
    },
    {
      "inputs": [],
      "name": "responsibleForDisbursement",
      "outputs": [
        {
          "internalType": "address",
          "name": "",
          "type": "address"
        }
      ],
      "stateMutability": "view",
      "type": "function"
    },
    {
      "inputs": [],
      "name": "responsibleForDonationConfirmation",
      "outputs": [
        {
          "internalType": "address",
          "name": "",
          "type": "address"
        }
      ],
      "stateMutability": "view",
      "type": "function"
    },
    {
      "inputs": [],
      "name": "responsibleForSettlement",
      "outputs": [
        {
          "internalType": "address",
          "name": "",
          "type": "address"
        }
      ],
      "stateMutability": "view",
      "type": "function"
    },
    {
      "inputs": [],
      "name": "resposibleForExtraordinaryTransfers",
      "outputs": [
        {
          "internalType": "address",
          "name": "",
          "type": "address"
        }
      ],
      "stateMutability": "view",
      "type": "function"
    },
    {
      "inputs": [
        {
          "internalType": "address",
          "name": "newRegistryAddr",
          "type": "address"
        },
        {
          "internalType": "address",
          "name": "newrbbTokenAddr",
          "type": "address"
        }
      ],
      "name": "setInitializationDataDuringRegistration",
      "outputs": [],
      "stateMutability": "nonpayable",
      "type": "function"
    },
    {
      "inputs": [
        {
          "internalType": "address",
          "name": "newOwner",
          "type": "address"
        }
      ],
      "name": "transferOwnership",
      "outputs": [],
      "stateMutability": "nonpayable",
      "type": "function"
    },
    {
      "inputs": [],
      "name": "unpause",
      "outputs": [],
      "stateMutability": "nonpayable",
      "type": "function"
    },
    {
      "inputs": [
        {
          "internalType": "uint256",
          "name": "newBndesFee",
          "type": "uint256"
        },
        {
          "internalType": "string",
          "name": "description",
          "type": "string"
        }
      ],
      "name": "setBNDESFee",
      "outputs": [],
      "stateMutability": "nonpayable",
      "type": "function"
    },
    {
      "inputs": [
        {
          "internalType": "uint256",
          "name": "idDonor",
          "type": "uint256"
        }
      ],
      "name": "addDonor",
      "outputs": [],
      "stateMutability": "nonpayable",
      "type": "function"
    },
    {
      "inputs": [
        {
          "internalType": "uint256",
          "name": "amount",
          "type": "uint256"
        }
      ],
      "name": "bookDonation",
      "outputs": [],
      "stateMutability": "nonpayable",
      "type": "function"
    },
    {
      "inputs": [
        {
          "internalType": "bytes32",
          "name": "specificHash",
          "type": "bytes32"
        },
        {
          "internalType": "uint256",
          "name": "amount",
          "type": "uint256"
        },
        {
          "internalType": "string[]",
          "name": "data",
          "type": "string[]"
        },
        {
          "internalType": "string",
          "name": "docHash",
          "type": "string"
        }
      ],
      "name": "verifyAndActForMint",
      "outputs": [],
      "stateMutability": "nonpayable",
      "type": "function"
    },
    {
      "inputs": [
        {
          "internalType": "bytes32",
          "name": "specificHash",
          "type": "bytes32"
        }
      ],
      "name": "getHashToMintedAccount",
      "outputs": [
        {
          "internalType": "bytes32",
          "name": "",
          "type": "bytes32"
        }
      ],
      "stateMutability": "nonpayable",
      "type": "function"
    },
    {
      "inputs": [
        {
          "internalType": "string",
          "name": "idFinancialSupportAgreement",
          "type": "string"
        }
      ],
      "name": "getDisbusementData",
      "outputs": [
        {
          "internalType": "bytes32",
          "name": "",
          "type": "bytes32"
        },
        {
          "internalType": "bytes32",
          "name": "",
          "type": "bytes32"
        },
        {
          "internalType": "string[]",
          "name": "",
          "type": "string[]"
        }
      ],
      "stateMutability": "view",
      "type": "function"
    },
    {
      "inputs": [
        {
          "internalType": "string",
          "name": "idFinancialSupportAgreement",
          "type": "string"
        }
      ],
      "name": "getPaySupplierData",
      "outputs": [
        {
          "internalType": "bytes32",
          "name": "",
          "type": "bytes32"
        },
        {
          "internalType": "bytes32",
          "name": "",
          "type": "bytes32"
        },
        {
          "internalType": "string[]",
          "name": "",
          "type": "string[]"
        }
      ],
      "stateMutability": "view",
      "type": "function"
    },
    {
      "inputs": [],
      "name": "getRedeemData",
      "outputs": [
        {
          "internalType": "bytes32",
          "name": "",
          "type": "bytes32"
        },
        {
          "internalType": "string[]",
          "name": "",
          "type": "string[]"
        }
      ],
      "stateMutability": "nonpayable",
      "type": "function"
    },
    {
      "inputs": [
        {
          "internalType": "uint256",
          "name": "fromId",
          "type": "uint256"
        },
        {
          "internalType": "bytes32",
          "name": "fromHash",
          "type": "bytes32"
        },
        {
          "internalType": "uint256",
          "name": "toId",
          "type": "uint256"
        },
        {
          "internalType": "bytes32",
          "name": "toHash",
          "type": "bytes32"
        },
        {
          "internalType": "uint256",
          "name": "amount",
          "type": "uint256"
        },
        {
          "internalType": "string[]",
          "name": "data",
          "type": "string[]"
        }
      ],
      "name": "verifyAndActForTransfer",
      "outputs": [],
      "stateMutability": "nonpayable",
      "type": "function"
    },
    {
      "inputs": [
        {
          "internalType": "uint256",
          "name": "id",
          "type": "uint256"
        }
      ],
      "name": "addSupplier",
      "outputs": [],
      "stateMutability": "nonpayable",
      "type": "function"
    },
    {
      "inputs": [
        {
          "internalType": "uint256",
          "name": "fromId",
          "type": "uint256"
        },
        {
          "internalType": "bytes32",
          "name": "fromHash",
          "type": "bytes32"
        },
        {
          "internalType": "uint256",
          "name": "amount",
          "type": "uint256"
        },
        {
          "internalType": "string[]",
          "name": "data",
          "type": "string[]"
        }
      ],
      "name": "verifyAndActForRedeem",
      "outputs": [],
      "stateMutability": "nonpayable",
      "type": "function"
    },
    {
      "inputs": [
        {
          "internalType": "string",
          "name": "redemptionTransactionHash",
          "type": "string"
        },
        {
          "internalType": "string",
          "name": "receiptHash",
          "type": "string"
        },
        {
          "internalType": "string[]",
          "name": "data",
          "type": "string[]"
        }
      ],
      "name": "verifyAndActForRedemptionSettlement",
      "outputs": [],
      "stateMutability": "nonpayable",
      "type": "function"
    },
    {
      "inputs": [
        {
          "internalType": "string",
          "name": "info",
          "type": "string"
        }
      ],
      "name": "getCalculatedHash",
      "outputs": [
        {
          "internalType": "bytes32",
          "name": "",
          "type": "bytes32"
        }
      ],
      "stateMutability": "nonpayable",
      "type": "function"
    },
    {
      "inputs": [
        {
          "internalType": "uint256",
          "name": "fromId",
          "type": "uint256"
        },
        {
          "internalType": "bytes32",
          "name": "fromHash",
          "type": "bytes32"
        },
        {
          "internalType": "uint256",
          "name": "toId",
          "type": "uint256"
        },
        {
          "internalType": "bytes32",
          "name": "toHash",
          "type": "bytes32"
        },
        {
          "internalType": "uint256",
          "name": "amount",
          "type": "uint256"
        }
      ],
      "name": "authorizeExtraordinaryTransfer",
      "outputs": [],
      "stateMutability": "nonpayable",
      "type": "function"
    },
    {
      "inputs": [
        {
          "internalType": "address",
          "name": "rs",
          "type": "address"
        }
      ],
      "name": "setResponsibleForDonationConfirmation",
      "outputs": [],
      "stateMutability": "nonpayable",
      "type": "function"
    },
    {
      "inputs": [
        {
          "internalType": "address",
          "name": "rs",
          "type": "address"
        }
      ],
      "name": "setResponsibleForDisbursement",
      "outputs": [],
      "stateMutability": "nonpayable",
      "type": "function"
    },
    {
      "inputs": [
        {
          "internalType": "address",
          "name": "rs",
          "type": "address"
        }
      ],
      "name": "setResposibleForExtraordinaryTransfers",
      "outputs": [],
      "stateMutability": "nonpayable",
      "type": "function"
    },
    {
      "inputs": [
        {
          "internalType": "address",
          "name": "rs",
          "type": "address"
        }
      ],
      "name": "setResponsibleForSettlement",
      "outputs": [],
      "stateMutability": "nonpayable",
      "type": "function"
    }
  ],
  "bytecode": "0x60806040526040518060400160405280601281526020017f494e495449414c5f414c4c4f434154494f4e0000000000000000000000000000815250600990805190602001906200005192919062000657565b506040518060400160405280601981526020017f44495342555253454d454e545f564552494649434154494f4e00000000000000815250600a90805190602001906200009f92919062000657565b506040518060400160405280602081526020017f434c49454e545f5041595f535550504c4945525f564552494649434154494f4e815250600b9080519060200190620000ed92919062000657565b506040518060400160405280601f81526020017f424e4445535f5041595f535550504c4945525f564552494649434154494f4e00815250600c90805190602001906200013b92919062000657565b506040518060400160405280601381526020017f4d414e55414c5f494e54455256454e54494f4e00000000000000000000000000815250600d90805190602001906200018992919062000657565b506000601160146101000a81548160ff021916908360ff1602179055506001601160156101000a81548160ff021916908360ff1602179055506002601160166101000a81548160ff021916908360ff1602179055506003601160176101000a81548160ff021916908360ff1602179055503480156200020757600080fd5b5060405162006eee38038062006eee83398181016040528101906200022d919062000714565b60006200023f6200047060201b60201c565b9050806000806101000a81548173ffffffffffffffffffffffffffffffffffffffff021916908373ffffffffffffffffffffffffffffffffffffffff1602179055508073ffffffffffffffffffffffffffffffffffffffff16600073ffffffffffffffffffffffffffffffffffffffff167f8be0079c531659141344cd1fd0a4f28419497f9722a3daafe3b4186f6b6457e060405160405180910390a350620002fd620002f16200047060201b60201c565b6200047860201b60201c565b6000600260006101000a81548160ff021916908315150217905550606481106200035e576040517f08c379a000000000000000000000000000000000000000000000000000000000815260040162000355906200082c565b60405180910390fd5b33600e60006101000a81548173ffffffffffffffffffffffffffffffffffffffff021916908373ffffffffffffffffffffffffffffffffffffffff16021790555033600f60006101000a81548173ffffffffffffffffffffffffffffffffffffffff021916908373ffffffffffffffffffffffffffffffffffffffff16021790555033601060006101000a81548173ffffffffffffffffffffffffffffffffffffffff021916908373ffffffffffffffffffffffffffffffffffffffff16021790555033601160006101000a81548173ffffffffffffffffffffffffffffffffffffffff021916908373ffffffffffffffffffffffffffffffffffffffff1602179055508060088190555050620008c7565b600033905090565b62000493816001620004d960201b620031b11790919060201c565b8073ffffffffffffffffffffffffffffffffffffffff167f6719d08c1888103bea251a4ed56406bd0c3e69723c8a1686e017e7bbe159b6f860405160405180910390a250565b620004eb82826200058c60201b60201c565b156200052e576040517f08c379a000000000000000000000000000000000000000000000000000000000815260040162000525906200084e565b60405180910390fd5b60018260000160008373ffffffffffffffffffffffffffffffffffffffff1673ffffffffffffffffffffffffffffffffffffffff16815260200190815260200160002060006101000a81548160ff0219169083151502179055505050565b60008073ffffffffffffffffffffffffffffffffffffffff168273ffffffffffffffffffffffffffffffffffffffff16141562000600576040517f08c379a0000000000000000000000000000000000000000000000000000000008152600401620005f79062000870565b60405180910390fd5b8260000160008373ffffffffffffffffffffffffffffffffffffffff1673ffffffffffffffffffffffffffffffffffffffff16815260200190815260200160002060009054906101000a900460ff16905092915050565b828054600181600116156101000203166002900490600052602060002090601f016020900481019282601f106200069a57805160ff1916838001178555620006cb565b82800160010185558215620006cb579182015b82811115620006ca578251825591602001919060010190620006ad565b5b509050620006da9190620006de565b5090565b5b80821115620006f9576000816000905550600101620006df565b5090565b6000815190506200070e81620008ad565b92915050565b6000602082840312156200072757600080fd5b60006200073784828501620006fd565b91505092915050565b60006200074f601b8362000892565b91507f56616c6f7220646520466565206d61696f7220717565203130302500000000006000830152602082019050919050565b600062000791601f8362000892565b91507f526f6c65733a206163636f756e7420616c72656164792068617320726f6c65006000830152602082019050919050565b6000620007d360228362000892565b91507f526f6c65733a206163636f756e7420697320746865207a65726f20616464726560008301527f73730000000000000000000000000000000000000000000000000000000000006020830152604082019050919050565b60006020820190508181036000830152620008478162000740565b9050919050565b60006020820190508181036000830152620008698162000782565b9050919050565b600060208201905081810360008301526200088b81620007c4565b9050919050565b600082825260208201905092915050565b6000819050919050565b620008b881620008a3565b8114620008c457600080fd5b50565b61661780620008d76000396000f3fe608060405234801561001057600080fd5b50600436106102945760003560e01c80638cabf12811610167578063c8444880116100ce578063e4c7426f11610087578063e4c7426f1461076a578063ee33b0bc14610788578063f2fde38b146107ba578063fb92f74b146107d6578063fc4b505d146107f2578063ffd4d5a61461081057610294565b8063c844488014610670578063c92f4eb0146106a2578063ca196e3c146106be578063cc70091a146106da578063cd541b7a1461070a578063daeb1cc91461073a57610294565b806396b9adfc1161012057806396b9adfc146105c4578063a79a8b2d146105e2578063ad641da6146105fe578063b7404ff51461061c578063bc00776314610638578063c596acc71461065457610294565b80638cabf128146105115780638da5cb5b1461052f5780638e1b808a1461054d5780638e6694811461056c5780638f32d59b1461058a57806390e42c7e146105a857610294565b80633f4ba83a1161020b578063715018a6116101c4578063715018a61461048b5780637b103999146104955780637eabe58a146104b357806382dc1ec4146104cf5780638456cb59146104eb57806388a447ca146104f557610294565b80633f4ba83a146103ef57806346fbf68e146103f95780635c975abb1461042957806367da3e85146104475780636b4dd41f146104655780636ef8d66d1461048157610294565b806317251ba91161025d57806317251ba91461032f57806317fcd0511461034b578063214538001461037b57806327462769146103995780633c01775b146103b55780633dfdcfab146103d357610294565b80626d5fb31461029957806302e01abd146102b75780630715aa6e146102d557806307728f0f146102f35780630a44560914610311575b600080fd5b6102a161082e565b6040516102ae91906162a7565b60405180910390f35b6102bf610841565b6040516102cc91906162a7565b60405180910390f35b6102dd610854565b6040516102ea91906162a7565b60405180910390f35b6102fb610867565b6040516103089190615c19565b60405180910390f35b610319610905565b6040516103269190615a2e565b60405180910390f35b6103496004803603810190610344919061471f565b61092b565b005b6103656004803603810190610360919061471f565b610ae8565b6040516103729190615b23565b60405180910390f35b610383610b09565b6040516103909190615a2e565b60405180910390f35b6103b360048036038101906103ae91906147ec565b610b2f565b005b6103bd610cab565b6040516103ca91906162a7565b60405180910390f35b6103ed60048036038101906103e89190614526565b610cbe565b005b6103f7610d44565b005b610413600480360381019061040e91906144d4565b610e3d565b6040516104209190615b08565b60405180910390f35b610431610e5a565b60405161043e9190615b08565b60405180910390f35b61044f610e71565b60405161045c9190615c19565b60405180910390f35b61047f600480360381019061047a91906145b4565b610f0f565b005b6104896110c1565b005b6104936110d3565b005b61049d6111d8565b6040516104aa9190615be3565b60405180910390f35b6104cd60048036038101906104c89190614904565b6111fe565b005b6104e960048036038101906104e491906144d4565b6112cc565b005b6104f3611327565b005b61050f600480360381019061050a91906144d4565b611421565b005b610519611689565b6040516105269190615a2e565b60405180910390f35b6105376116af565b6040516105449190615a2e565b60405180910390f35b6105556116d8565b604051610563929190615b3e565b60405180910390f35b610574611773565b6040516105819190615c19565b60405180910390f35b610592611811565b60405161059f9190615b08565b60405180910390f35b6105c260048036038101906105bd91906144d4565b61186f565b005b6105cc611ad7565b6040516105d99190615a2e565b60405180910390f35b6105fc60048036038101906105f7919061471f565b611afd565b005b610606611e4f565b60405161061391906160ee565b60405180910390f35b610636600480360381019061063191906144d4565b611e55565b005b610652600480360381019061064d9190614688565b6120bd565b005b61066e60048036038101906106699190614863565b6121db565b005b61068a60048036038101906106859190614647565b6125ed565b60405161069993929190615b6e565b60405180910390f35b6106bc60048036038101906106b79190614771565b612787565b005b6106d860048036038101906106d3919061471f565b6129c0565b005b6106f460048036038101906106ef9190614647565b612b46565b6040516107019190615b23565b60405180910390f35b610724600480360381019061071f919061458b565b612b76565b6040516107319190615b23565b60405180910390f35b610754600480360381019061074f9190614904565b612bb5565b6040516107619190615b08565b60405180910390f35b610772612bfa565b60405161077f9190615bfe565b60405180910390f35b6107a2600480360381019061079d9190614647565b612c20565b6040516107b193929190615b6e565b60405180910390f35b6107d460048036038101906107cf91906144d4565b612dba565b005b6107f060048036038101906107eb91906144d4565b612e0d565b005b6107fa613075565b6040516108079190615c19565b60405180910390f35b610818613113565b6040516108259190615c19565b60405180910390f35b601160179054906101000a900460ff1681565b601160169054906101000a900460ff1681565b601160159054906101000a900460ff1681565b60098054600181600116156101000203166002900480601f0160208091040260200160405190810160405280929190818152602001828054600181600116156101000203166002900480156108fd5780601f106108d2576101008083540402835291602001916108fd565b820191906000526020600020905b8154815290600101906020018083116108e057829003601f168201915b505050505081565b600e60009054906101000a900473ffffffffffffffffffffffffffffffffffffffff1681565b610933611811565b610972576040517f08c379a000000000000000000000000000000000000000000000000000000000815260040161096990615fce565b60405180910390fd5b600260019054906101000a900473ffffffffffffffffffffffffffffffffffffffff1673ffffffffffffffffffffffffffffffffffffffff1663613a7896826040518263ffffffff1660e01b81526004016109cd91906160ee565b60206040518083038186803b1580156109e557600080fd5b505afa1580156109f9573d6000803e3d6000fd5b505050506040513d601f19601f82011682018060405250810190610a1d9190614562565b610a5c576040517f08c379a0000000000000000000000000000000000000000000000000000000008152600401610a5390615f0e565b60405180910390fd5b6004600082815260200190815260200160002060009054906101000a900460ff16610ae55760016004600083815260200190815260200160002060006101000a81548160ff0219169083151502179055507fbf594816977ea5809bf299bfeeb10d2cb41e25a998a19fafe5460164b3cdb08b81604051610adc91906160ee565b60405180910390a15b50565b60078181548110610af557fe5b906000526020600020016000915090505481565b601160009054906101000a900473ffffffffffffffffffffffffffffffffffffffff1681565b610b37611811565b610b76576040517f08c379a0000000000000000000000000000000000000000000000000000000008152600401610b6d90615fce565b60405180910390fd5b610b808585613259565b610bbf576040517f08c379a0000000000000000000000000000000000000000000000000000000008152600401610bb690615f2e565b60405180910390fd5b610bc98383613259565b610c08576040517f08c379a0000000000000000000000000000000000000000000000000000000008152600401610bff90615d4e565b60405180910390fd5b60008585858585604051602001610c239594939291906159b4565b60405160208183030381529060405280519060200120905060078190806001815401808255809150506001900390600052602060002001600090919091909150557f34506436f045f1caefaf1c6acc514c7cd481a941b5e32bb11e6627f1d4ff487c8686868686604051610c9b959493929190616109565b60405180910390a1505050505050565b601160149054906101000a900460ff1681565b81600260016101000a81548173ffffffffffffffffffffffffffffffffffffffff021916908373ffffffffffffffffffffffffffffffffffffffff16021790555080600360006101000a81548173ffffffffffffffffffffffffffffffffffffffff021916908373ffffffffffffffffffffffffffffffffffffffff1602179055505050565b610d54610d4f613507565b610e3d565b610d93576040517f08c379a0000000000000000000000000000000000000000000000000000000008152600401610d8a90615d8e565b60405180910390fd5b600260009054906101000a900460ff16610de2576040517f08c379a0000000000000000000000000000000000000000000000000000000008152600401610dd990615d0e565b60405180910390fd5b6000600260006101000a81548160ff0219169083151502179055507f5db9ee0a495bf2e6ff9c91a7834c1ba4fdd244a5e8aa4e537bd38aeae4b073aa610e26613507565b604051610e339190615a49565b60405180910390a1565b6000610e5382600161350f90919063ffffffff16565b9050919050565b6000600260009054906101000a900460ff16905090565b600b8054600181600116156101000203166002900480601f016020809104026020016040519081016040528092919081815260200182805460018160011615610100020316600290048015610f075780601f10610edc57610100808354040283529160200191610f07565b820191906000526020600020905b815481529060010190602001808311610eea57829003601f168201915b505050505081565b600260009054906101000a900460ff1615610f5f576040517f08c379a0000000000000000000000000000000000000000000000000000000008152600401610f5690615ece565b60405180910390fd5b600360009054906101000a900473ffffffffffffffffffffffffffffffffffffffff1673ffffffffffffffffffffffffffffffffffffffff163373ffffffffffffffffffffffffffffffffffffffff1614610fef576040517f08c379a0000000000000000000000000000000000000000000000000000000008152600401610fe6906160ae565b60405180910390fd5b83601160149054906101000a900460ff166040516020016110109190615a13565b6040516020818303038152906040528051906020012014611066576040517f08c379a000000000000000000000000000000000000000000000000000000000815260040161105d90615f6e565b60405180910390fd5b60608260008151811061107557fe5b602002602001015190507f510b32015cae6bd5a46e63f522b3e72f4899620ab6fb0a038d40f362d6cddfee8185846040516110b293929190615c72565b60405180910390a15050505050565b6110d16110cc613507565b6135d7565b565b6110db611811565b61111a576040517f08c379a000000000000000000000000000000000000000000000000000000000815260040161111190615fce565b60405180910390fd5b600073ffffffffffffffffffffffffffffffffffffffff1660008054906101000a900473ffffffffffffffffffffffffffffffffffffffff1673ffffffffffffffffffffffffffffffffffffffff167f8be0079c531659141344cd1fd0a4f28419497f9722a3daafe3b4186f6b6457e060405160405180910390a360008060006101000a81548173ffffffffffffffffffffffffffffffffffffffff021916908373ffffffffffffffffffffffffffffffffffffffff160217905550565b600260019054906101000a900473ffffffffffffffffffffffffffffffffffffffff1681565b611206611811565b611245576040517f08c379a000000000000000000000000000000000000000000000000000000000815260040161123c90615fce565b60405180910390fd5b60648210611288576040517f08c379a000000000000000000000000000000000000000000000000000000000815260040161127f90615cee565b60405180910390fd5b816008819055507fbd7b604f0ee5042786f0c84c21d83c0229994b71f3a01f3a498aba4da09880e582826040516112c09291906161c4565b60405180910390a15050565b6112dc6112d7613507565b610e3d565b61131b576040517f08c379a000000000000000000000000000000000000000000000000000000000815260040161131290615d8e565b60405180910390fd5b61132481613631565b50565b611337611332613507565b610e3d565b611376576040517f08c379a000000000000000000000000000000000000000000000000000000000815260040161136d90615d8e565b60405180910390fd5b600260009054906101000a900460ff16156113c6576040517f08c379a00000000000000000000000000000000000000000000000000000000081526004016113bd90615ece565b60405180910390fd5b6001600260006101000a81548160ff0219169083151502179055507f62e78cea01bee320cd4e420270b5ea74000d11b0c9f74754ebdbfc544b05a25861140a613507565b6040516114179190615a49565b60405180910390a1565b611429611811565b611468576040517f08c379a000000000000000000000000000000000000000000000000000000000815260040161145f90615fce565b60405180910390fd5b6000600260019054906101000a900473ffffffffffffffffffffffffffffffffffffffff1673ffffffffffffffffffffffffffffffffffffffff166365f68c89836040518263ffffffff1660e01b81526004016114c59190615a2e565b60206040518083038186803b1580156114dd57600080fd5b505afa1580156114f1573d6000803e3d6000fd5b505050506040513d601f19601f820116820180604052508101906115159190614748565b9050600260019054906101000a900473ffffffffffffffffffffffffffffffffffffffff1673ffffffffffffffffffffffffffffffffffffffff166365f68c8961155d6116af565b6040518263ffffffff1660e01b81526004016115799190615a2e565b60206040518083038186803b15801561159157600080fd5b505afa1580156115a5573d6000803e3d6000fd5b505050506040513d601f19601f820116820180604052508101906115c99190614748565b811461160a576040517f08c379a000000000000000000000000000000000000000000000000000000000815260040161160190615dee565b60405180910390fd5b81600e60006101000a81548173ffffffffffffffffffffffffffffffffffffffff021916908373ffffffffffffffffffffffffffffffffffffffff1602179055507f3e3119fbec468368c03e4732985b5a3f373d3a8b8ad5cc0f820357687349b63d82600160405161167d929190615a64565b60405180910390a15050565b600f60009054906101000a900473ffffffffffffffffffffffffffffffffffffffff1681565b60008060009054906101000a900473ffffffffffffffffffffffffffffffffffffffff16905090565b600060606000601160149054906101000a900460ff166040516020016116fe9190615a13565b6040516020818303038152906040528051906020012090506060600067ffffffffffffffff8111801561173057600080fd5b5060405190808252806020026020018201604052801561176457816020015b606081526020019060019003908161174f5790505b50905081819350935050509091565b600a8054600181600116156101000203166002900480601f0160208091040260200160405190810160405280929190818152602001828054600181600116156101000203166002900480156118095780601f106117de57610100808354040283529160200191611809565b820191906000526020600020905b8154815290600101906020018083116117ec57829003601f168201915b505050505081565b60008060009054906101000a900473ffffffffffffffffffffffffffffffffffffffff1673ffffffffffffffffffffffffffffffffffffffff16611853613507565b73ffffffffffffffffffffffffffffffffffffffff1614905090565b611877611811565b6118b6576040517f08c379a00000000000000000000000000000000000000000000000000000000081526004016118ad90615fce565b60405180910390fd5b6000600260019054906101000a900473ffffffffffffffffffffffffffffffffffffffff1673ffffffffffffffffffffffffffffffffffffffff166365f68c89836040518263ffffffff1660e01b81526004016119139190615a2e565b60206040518083038186803b15801561192b57600080fd5b505afa15801561193f573d6000803e3d6000fd5b505050506040513d601f19601f820116820180604052508101906119639190614748565b9050600260019054906101000a900473ffffffffffffffffffffffffffffffffffffffff1673ffffffffffffffffffffffffffffffffffffffff166365f68c896119ab6116af565b6040518263ffffffff1660e01b81526004016119c79190615a2e565b60206040518083038186803b1580156119df57600080fd5b505afa1580156119f3573d6000803e3d6000fd5b505050506040513d601f19601f82011682018060405250810190611a179190614748565b8114611a58576040517f08c379a0000000000000000000000000000000000000000000000000000000008152600401611a4f9061606e565b60405180910390fd5b81600f60006101000a81548173ffffffffffffffffffffffffffffffffffffffff021916908373ffffffffffffffffffffffffffffffffffffffff1602179055507f3e3119fbec468368c03e4732985b5a3f373d3a8b8ad5cc0f820357687349b63d826002604051611acb929190615a8d565b60405180910390a15050565b601060009054906101000a900473ffffffffffffffffffffffffffffffffffffffff1681565b600260009054906101000a900460ff1615611b4d576040517f08c379a0000000000000000000000000000000000000000000000000000000008152600401611b4490615ece565b60405180910390fd5b6000600260019054906101000a900473ffffffffffffffffffffffffffffffffffffffff1673ffffffffffffffffffffffffffffffffffffffff166365f68c89336040518263ffffffff1660e01b8152600401611baa9190615a49565b60206040518083038186803b158015611bc257600080fd5b505afa158015611bd6573d6000803e3d6000fd5b505050506040513d601f19601f82011682018060405250810190611bfa9190614748565b90506004600082815260200190815260200160002060009054906101000a900460ff16611c5c576040517f08c379a0000000000000000000000000000000000000000000000000000000008152600401611c5390615f8e565b60405180910390fd5b600260019054906101000a900473ffffffffffffffffffffffffffffffffffffffff1673ffffffffffffffffffffffffffffffffffffffff1663613a7896826040518263ffffffff1660e01b8152600401611cb791906160ee565b60206040518083038186803b158015611ccf57600080fd5b505afa158015611ce3573d6000803e3d6000fd5b505050506040513d601f19601f82011682018060405250810190611d079190614562565b611d46576040517f08c379a0000000000000000000000000000000000000000000000000000000008152600401611d3d90615f0e565b60405180910390fd5b6000601160149054906101000a900460ff16604051602001611d689190615a13565b604051602081830303815290604052805190602001209050600360009054906101000a900473ffffffffffffffffffffffffffffffffffffffff1673ffffffffffffffffffffffffffffffffffffffff1663173d34a88284866040518463ffffffff1660e01b8152600401611ddf93929190615bac565b600060405180830381600087803b158015611df957600080fd5b505af1158015611e0d573d6000803e3d6000fd5b505050507f6704da9c2ddbb477933c3e18f32636a8782fc7595206d73bb0e8e9608b00d5b18284604051611e4292919061627e565b60405180910390a1505050565b60085481565b611e5d611811565b611e9c576040517f08c379a0000000000000000000000000000000000000000000000000000000008152600401611e9390615fce565b60405180910390fd5b6000600260019054906101000a900473ffffffffffffffffffffffffffffffffffffffff1673ffffffffffffffffffffffffffffffffffffffff166365f68c89836040518263ffffffff1660e01b8152600401611ef99190615a2e565b60206040518083038186803b158015611f1157600080fd5b505afa158015611f25573d6000803e3d6000fd5b505050506040513d601f19601f82011682018060405250810190611f499190614748565b9050600260019054906101000a900473ffffffffffffffffffffffffffffffffffffffff1673ffffffffffffffffffffffffffffffffffffffff166365f68c89611f916116af565b6040518263ffffffff1660e01b8152600401611fad9190615a2e565b60206040518083038186803b158015611fc557600080fd5b505afa158015611fd9573d6000803e3d6000fd5b505050506040513d601f19601f82011682018060405250810190611ffd9190614748565b811461203e576040517f08c379a000000000000000000000000000000000000000000000000000000000815260040161203590615eee565b60405180910390fd5b81601160006101000a81548173ffffffffffffffffffffffffffffffffffffffff021916908373ffffffffffffffffffffffffffffffffffffffff1602179055507f3e3119fbec468368c03e4732985b5a3f373d3a8b8ad5cc0f820357687349b63d8260046040516120b1929190615adf565b60405180910390a15050565b600260009054906101000a900460ff161561210d576040517f08c379a000000000000000000000000000000000000000000000000000000000815260040161210490615ece565b60405180910390fd5b600360009054906101000a900473ffffffffffffffffffffffffffffffffffffffff1673ffffffffffffffffffffffffffffffffffffffff163373ffffffffffffffffffffffffffffffffffffffff161461219d576040517f08c379a0000000000000000000000000000000000000000000000000000000008152600401612194906160ae565b60405180910390fd5b7f8039e7cfe0227655de7f41b85f86a697e1c0cade8eed56b090446c9f7f6afe0783836040516121ce929190615c3b565b60405180910390a1505050565b600260009054906101000a900460ff161561222b576040517f08c379a000000000000000000000000000000000000000000000000000000000815260040161222290615ece565b60405180910390fd5b600360009054906101000a900473ffffffffffffffffffffffffffffffffffffffff1673ffffffffffffffffffffffffffffffffffffffff163373ffffffffffffffffffffffffffffffffffffffff16146122bb576040517f08c379a00000000000000000000000000000000000000000000000000000000081526004016122b2906160ae565b60405180910390fd5b6060816000815181106122ca57fe5b6020026020010151905060008311612317576040517f08c379a000000000000000000000000000000000000000000000000000000000815260040161230e90615e8e565b60405180910390fd5b73__RBBLib________________________________63465c4105600a836040518363ffffffff1660e01b8152600401612351929190615cb7565b60206040518083038186803b15801561236957600080fd5b505af415801561237d573d6000803e3d6000fd5b505050506040513d601f19601f820116820180604052508101906123a19190614562565b156123b9576123b487878787878761368b565b6125e4565b73__RBBLib________________________________63465c4105600b836040518363ffffffff1660e01b81526004016123f3929190615cb7565b60206040518083038186803b15801561240b57600080fd5b505af415801561241f573d6000803e3d6000fd5b505050506040513d601f19601f820116820180604052508101906124439190614562565b1561245b576124568787878787876139d1565b6125e3565b73__RBBLib________________________________63465c4105600c836040518363ffffffff1660e01b8152600401612495929190615cb7565b60206040518083038186803b1580156124ad57600080fd5b505af41580156124c1573d6000803e3d6000fd5b505050506040513d601f19601f820116820180604052508101906124e59190614562565b156124fd576124f8878787878787613ca9565b6125e2565b73__RBBLib________________________________63465c4105600d836040518363ffffffff1660e01b8152600401612537929190615cb7565b60206040518083038186803b15801561254f57600080fd5b505af4158015612563573d6000803e3d6000fd5b505050506040513d601f19601f820116820180604052508101906125879190614562565b1561259f5761259a878787878787613f5e565b6125e1565b60006125e0576040517f08c379a00000000000000000000000000000000000000000000000000000000081526004016125d79061600e565b60405180910390fd5b5b5b5b5b50505050505050565b6000806060600084604051602001612605919061599d565b6040516020818303038152906040528051906020012090506000601160149054906101000a900460ff1660405160200161263f9190615a13565b6040516020818303038152906040528051906020012090506060600267ffffffffffffffff8111801561267157600080fd5b506040519080825280602002602001820160405280156126a557816020015b60608152602001906001900390816126905790505b509050600b8054600181600116156101000203166002900480601f01602080910402602001604051908101604052809291908181526020018280546001816001161561010002031660029004801561273e5780601f106127135761010080835404028352916020019161273e565b820191906000526020600020905b81548152906001019060200180831161272157829003601f168201915b50505050508160008151811061275057fe5b6020026020010181905250868160018151811061276957fe5b60200260200101819052508282829550955095505050509193909250565b600260009054906101000a900460ff16156127d7576040517f08c379a00000000000000000000000000000000000000000000000000000000081526004016127ce90615ece565b60405180910390fd5b600360009054906101000a900473ffffffffffffffffffffffffffffffffffffffff1673ffffffffffffffffffffffffffffffffffffffff163373ffffffffffffffffffffffffffffffffffffffff1614612867576040517f08c379a000000000000000000000000000000000000000000000000000000000815260040161285e906160ae565b60405180910390fd5b600082116128aa576040517f08c379a00000000000000000000000000000000000000000000000000000000081526004016128a190615e8e565b60405180910390fd5b6006600085815260200190815260200160002060009054906101000a900460ff1661290a576040517f08c379a000000000000000000000000000000000000000000000000000000000815260040161290190615e6e565b60405180910390fd5b82601160149054906101000a900460ff1660405160200161292b9190615a13565b6040516020818303038152906040528051906020012014612981576040517f08c379a000000000000000000000000000000000000000000000000000000000815260040161297890615eae565b60405180910390fd5b7fb8f81a5484e20ac6428d9d7788e484b88874539071efc6a3d92c0d701b698ce084836040516129b292919061627e565b60405180910390a150505050565b6129c8611811565b612a07576040517f08c379a00000000000000000000000000000000000000000000000000000000081526004016129fe90615fce565b60405180910390fd5b6006600082815260200190815260200160002060009054906101000a900460ff16612b435760016006600083815260200190815260200160002060006101000a81548160ff0219169083151502179055507f2757aa27a660ab391745e035b5a23653f6497d768c445f6a9c3df78e1d18727f600260019054906101000a900473ffffffffffffffffffffffffffffffffffffffff1673ffffffffffffffffffffffffffffffffffffffff166365f68c89612abf6116af565b6040518263ffffffff1660e01b8152600401612adb9190615a2e565b60206040518083038186803b158015612af357600080fd5b505afa158015612b07573d6000803e3d6000fd5b505050506040513d601f19601f82011682018060405250810190612b2b9190614748565b82604051612b3a92919061627e565b60405180910390a15b50565b600081604051602001612b59919061599d565b604051602081830303815290604052805190602001209050919050565b6000601160159054906101000a900460ff16604051602001612b989190615a13565b604051602081830303815290604052805190602001209050919050565b6005602052816000526040600020818051602081018201805184825260208301602085012081835280955050505050506000915091509054906101000a900460ff1681565b600360009054906101000a900473ffffffffffffffffffffffffffffffffffffffff1681565b60008060606000601160169054906101000a900460ff16604051602001612c479190615a13565b604051602081830303815290604052805190602001209050600085604051602001612c72919061599d565b6040516020818303038152906040528051906020012090506060600267ffffffffffffffff81118015612ca457600080fd5b50604051908082528060200260200182016040528015612cd857816020015b6060815260200190600190039081612cc35790505b509050600a8054600181600116156101000203166002900480601f016020809104026020016040519081016040528092919081815260200182805460018160011615610100020316600290048015612d715780601f10612d4657610100808354040283529160200191612d71565b820191906000526020600020905b815481529060010190602001808311612d5457829003601f168201915b505050505081600081518110612d8357fe5b60200260200101819052508681600181518110612d9c57fe5b60200260200101819052508282829550955095505050509193909250565b612dc2611811565b612e01576040517f08c379a0000000000000000000000000000000000000000000000000000000008152600401612df890615fce565b60405180910390fd5b612e0a816141ba565b50565b612e15611811565b612e54576040517f08c379a0000000000000000000000000000000000000000000000000000000008152600401612e4b90615fce565b60405180910390fd5b6000600260019054906101000a900473ffffffffffffffffffffffffffffffffffffffff1673ffffffffffffffffffffffffffffffffffffffff166365f68c89836040518263ffffffff1660e01b8152600401612eb19190615a2e565b60206040518083038186803b158015612ec957600080fd5b505afa158015612edd573d6000803e3d6000fd5b505050506040513d601f19601f82011682018060405250810190612f019190614748565b9050600260019054906101000a900473ffffffffffffffffffffffffffffffffffffffff1673ffffffffffffffffffffffffffffffffffffffff166365f68c89612f496116af565b6040518263ffffffff1660e01b8152600401612f659190615a2e565b60206040518083038186803b158015612f7d57600080fd5b505afa158015612f91573d6000803e3d6000fd5b505050506040513d601f19601f82011682018060405250810190612fb59190614748565b8114612ff6576040517f08c379a0000000000000000000000000000000000000000000000000000000008152600401612fed90615fae565b60405180910390fd5b81601060006101000a81548173ffffffffffffffffffffffffffffffffffffffff021916908373ffffffffffffffffffffffffffffffffffffffff1602179055507f3e3119fbec468368c03e4732985b5a3f373d3a8b8ad5cc0f820357687349b63d826003604051613069929190615ab6565b60405180910390a15050565b600c8054600181600116156101000203166002900480601f01602080910402602001604051908101604052809291908181526020018280546001816001161561010002031660029004801561310b5780601f106130e05761010080835404028352916020019161310b565b820191906000526020600020905b8154815290600101906020018083116130ee57829003601f168201915b505050505081565b600d8054600181600116156101000203166002900480601f0160208091040260200160405190810160405280929190818152602001828054600181600116156101000203166002900480156131a95780601f1061317e576101008083540402835291602001916131a9565b820191906000526020600020905b81548152906001019060200180831161318c57829003601f168201915b505050505081565b6131bb828261350f565b156131fb576040517f08c379a00000000000000000000000000000000000000000000000000000000081526004016131f290615d2e565b60405180910390fd5b60018260000160008373ffffffffffffffffffffffffffffffffffffffff1673ffffffffffffffffffffffffffffffffffffffff16815260200190815260200160002060006101000a81548160ff0219169083151502179055505050565b60008060009050600115156004600086815260200190815260200160002060009054906101000a900460ff1615151415613297576001915050613501565b600115156006600086815260200190815260200160002060009054906101000a900460ff16151514156132ce576001915050613501565b6000600260019054906101000a900473ffffffffffffffffffffffffffffffffffffffff1673ffffffffffffffffffffffffffffffffffffffff166365f68c896133166116af565b6040518263ffffffff1660e01b81526004016133329190615a2e565b60206040518083038186803b15801561334a57600080fd5b505afa15801561335e573d6000803e3d6000fd5b505050506040513d601f19601f820116820180604052508101906133829190614748565b90508481141561339757600192505050613501565b6000600260019054906101000a900473ffffffffffffffffffffffffffffffffffffffff1673ffffffffffffffffffffffffffffffffffffffff166365f68c89600360009054906101000a900473ffffffffffffffffffffffffffffffffffffffff1673ffffffffffffffffffffffffffffffffffffffff16638da5cb5b6040518163ffffffff1660e01b815260040160206040518083038186803b15801561343f57600080fd5b505afa158015613453573d6000803e3d6000fd5b505050506040513d601f19601f8201168201806040525081019061347791906144fd565b6040518263ffffffff1660e01b81526004016134939190615a2e565b60206040518083038186803b1580156134ab57600080fd5b505afa1580156134bf573d6000803e3d6000fd5b505050506040513d601f19601f820116820180604052508101906134e39190614748565b9050858114156134f95760019350505050613501565b600093505050505b92915050565b600033905090565b60008073ffffffffffffffffffffffffffffffffffffffff168273ffffffffffffffffffffffffffffffffffffffff161415613580576040517f08c379a000000000000000000000000000000000000000000000000000000000815260040161357790615fee565b60405180910390fd5b8260000160008373ffffffffffffffffffffffffffffffffffffffff1673ffffffffffffffffffffffffffffffffffffffff16815260200190815260200160002060009054906101000a900460ff16905092915050565b6135eb8160016142e790919063ffffffff16565b8073ffffffffffffffffffffffffffffffffffffffff167fcd265ebaf09df2871cc7bd4133404a235ba12eff2041bb89d9c714a2621c7c7e60405160405180910390a250565b6136458160016131b190919063ffffffff16565b8073ffffffffffffffffffffffffffffffffffffffff167f6719d08c1888103bea251a4ed56406bd0c3e69723c8a1686e017e7bbe159b6f860405160405180910390a250565b600260009054906101000a900460ff16156136db576040517f08c379a00000000000000000000000000000000000000000000000000000000081526004016136d290615ece565b60405180910390fd5b6060816001815181106136ea57fe5b602002602001015190506000600260019054906101000a900473ffffffffffffffffffffffffffffffffffffffff1673ffffffffffffffffffffffffffffffffffffffff166365f68c8961373c6116af565b6040518263ffffffff1660e01b81526004016137589190615a2e565b60206040518083038186803b15801561377057600080fd5b505afa158015613784573d6000803e3d6000fd5b505050506040513d601f19601f820116820180604052508101906137a89190614748565b90508088146137ec576040517f08c379a00000000000000000000000000000000000000000000000000000000081526004016137e39061608e565b60405180910390fd5b86601160169054906101000a900460ff1660405160200161380d9190615a13565b6040516020818303038152906040528051906020012014613863576040517f08c379a000000000000000000000000000000000000000000000000000000000815260040161385a90615e4e565b60405180910390fd5b8482604051602001613875919061599d565b60405160208183030381529060405280519060200120146138cb576040517f08c379a00000000000000000000000000000000000000000000000000000000081526004016138c2906160ce565b60405180910390fd5b60056000878152602001908152602001600020826040516138ec919061599d565b908152602001604051809103902060009054906101000a900460ff1661398c576001600560008881526020019081526020016000208360405161392f919061599d565b908152602001604051809103902060006101000a81548160ff0219169083151502179055507f448b0dd714fa3713f69988b8ee8bad3ac840e06e3d93c970086a3d490d61c6298660405161398391906160ee565b60405180910390a15b7f6a4c81844df1c2bd4ddc3c212f15b0f89b66e0c623277b45a0c97427a5b164f68683866040516139bf939291906161f4565b60405180910390a15050505050505050565b600260009054906101000a900460ff1615613a21576040517f08c379a0000000000000000000000000000000000000000000000000000000008152600401613a1890615ece565b60405180910390fd5b606081600181518110613a3057fe5b602002602001015190506005600088815260200190815260200160002081604051613a5b919061599d565b908152602001604051809103902060009054906101000a900460ff16613ab6576040517f08c379a0000000000000000000000000000000000000000000000000000000008152600401613aad90615dae565b60405180910390fd5b8581604051602001613ac8919061599d565b6040516020818303038152906040528051906020012014613b1e576040517f08c379a0000000000000000000000000000000000000000000000000000000008152600401613b15906160ce565b60405180910390fd5b83601160149054906101000a900460ff16604051602001613b3f9190615a13565b6040516020818303038152906040528051906020012014613b95576040517f08c379a0000000000000000000000000000000000000000000000000000000008152600401613b8c90615eae565b60405180910390fd5b84871415613bd8576040517f08c379a0000000000000000000000000000000000000000000000000000000008152600401613bcf90615e2e565b60405180910390fd5b6006600086815260200190815260200160002060009054906101000a900460ff16613c635760016006600087815260200190815260200160002060006101000a81548160ff0219169083151502179055507f2757aa27a660ab391745e035b5a23653f6497d768c445f6a9c3df78e1d18727f8786604051613c5a92919061627e565b60405180910390a15b7fb5941224982a8299c916869ca2e62ecbf14906bd1be81700e33cfc4bf401cc9687828786604051613c989493929190616232565b60405180910390a150505050505050565b600260009054906101000a900460ff1615613cf9576040517f08c379a0000000000000000000000000000000000000000000000000000000008152600401613cf090615ece565b60405180910390fd5b600260019054906101000a900473ffffffffffffffffffffffffffffffffffffffff1673ffffffffffffffffffffffffffffffffffffffff166365f68c89613d3f6116af565b6040518263ffffffff1660e01b8152600401613d5b9190615a2e565b60206040518083038186803b158015613d7357600080fd5b505afa158015613d87573d6000803e3d6000fd5b505050506040513d601f19601f82011682018060405250810190613dab9190614748565b8614613dec576040517f08c379a0000000000000000000000000000000000000000000000000000000008152600401613de390615dce565b60405180910390fd5b84601160179054906101000a900460ff16604051602001613e0d9190615a13565b6040516020818303038152906040528051906020012014613e63576040517f08c379a0000000000000000000000000000000000000000000000000000000008152600401613e5a9061604e565b60405180910390fd5b82601160149054906101000a900460ff16604051602001613e849190615a13565b6040516020818303038152906040528051906020012014613eda576040517f08c379a0000000000000000000000000000000000000000000000000000000008152600401613ed190615eae565b60405180910390fd5b83861415613f1d576040517f08c379a0000000000000000000000000000000000000000000000000000000008152600401613f149061602e565b60405180910390fd5b7f4b3bd547410a994881d497bec3e379ca3a0794a470079aef84a6b91df6c8da298483604051613f4e92919061627e565b60405180910390a1505050505050565b600260009054906101000a900460ff1615613fae576040517f08c379a0000000000000000000000000000000000000000000000000000000008152600401613fa590615ece565b60405180910390fd5b613fb88686613259565b613ff7576040517f08c379a0000000000000000000000000000000000000000000000000000000008152600401613fee90615f2e565b60405180910390fd5b6140018484613259565b614040576040517f08c379a000000000000000000000000000000000000000000000000000000000815260040161403790615d4e565b60405180910390fd5b60608160018151811061404f57fe5b60200260200101519050600087878787876040516020016140749594939291906159b4565b6040516020818303038152906040528051906020012090506000805b6007805490508110156140d25782600782815481106140ab57fe5b906000526020600020015414156140c557600191506140d2565b8080600101915050614090565b81614112576040517f08c379a000000000000000000000000000000000000000000000000000000000815260040161410990615d6e565b60405180910390fd5b60076001600780549050038154811061412757fe5b90600052602060002001546007828154811061413f57fe5b9060005260206000200181905550600780548061415857fe5b600190038181906000526020600020016000905590557eccad91f3cae0f24123fb7ae0aab571655c83289f84443b4b9d6ce27acbe30f8a8a8a8a8a8a6040516141a69695949392919061615c565b60405180910390a150505050505050505050565b600073ffffffffffffffffffffffffffffffffffffffff168173ffffffffffffffffffffffffffffffffffffffff16141561422a576040517f08c379a000000000000000000000000000000000000000000000000000000000815260040161422190615e0e565b60405180910390fd5b8073ffffffffffffffffffffffffffffffffffffffff1660008054906101000a900473ffffffffffffffffffffffffffffffffffffffff1673ffffffffffffffffffffffffffffffffffffffff167f8be0079c531659141344cd1fd0a4f28419497f9722a3daafe3b4186f6b6457e060405160405180910390a3806000806101000a81548173ffffffffffffffffffffffffffffffffffffffff021916908373ffffffffffffffffffffffffffffffffffffffff16021790555050565b6142f1828261350f565b614330576040517f08c379a000000000000000000000000000000000000000000000000000000000815260040161432790615f4e565b60405180910390fd5b60008260000160008373ffffffffffffffffffffffffffffffffffffffff1673ffffffffffffffffffffffffffffffffffffffff16815260200190815260200160002060006101000a81548160ff0219169083151502179055505050565b60008135905061439d81616585565b92915050565b6000815190506143b281616585565b92915050565b600082601f8301126143c957600080fd5b81356143dc6143d7826162ef565b6162c2565b9150818183526020840193506020810190508360005b8381101561442257813586016144088882614456565b8452602084019350602083019250506001810190506143f2565b5050505092915050565b60008151905061443b8161659c565b92915050565b600081359050614450816165b3565b92915050565b600082601f83011261446757600080fd5b813561447a61447582616317565b6162c2565b9150808252602083016020830185838301111561449657600080fd5b6144a18382846164ff565b50505092915050565b6000813590506144b9816165ca565b92915050565b6000815190506144ce816165ca565b92915050565b6000602082840312156144e657600080fd5b60006144f48482850161438e565b91505092915050565b60006020828403121561450f57600080fd5b600061451d848285016143a3565b91505092915050565b6000806040838503121561453957600080fd5b60006145478582860161438e565b92505060206145588582860161438e565b9150509250929050565b60006020828403121561457457600080fd5b60006145828482850161442c565b91505092915050565b60006020828403121561459d57600080fd5b60006145ab84828501614441565b91505092915050565b600080600080608085870312156145ca57600080fd5b60006145d887828801614441565b94505060206145e9878288016144aa565b935050604085013567ffffffffffffffff81111561460657600080fd5b614612878288016143b8565b925050606085013567ffffffffffffffff81111561462f57600080fd5b61463b87828801614456565b91505092959194509250565b60006020828403121561465957600080fd5b600082013567ffffffffffffffff81111561467357600080fd5b61467f84828501614456565b91505092915050565b60008060006060848603121561469d57600080fd5b600084013567ffffffffffffffff8111156146b757600080fd5b6146c386828701614456565b935050602084013567ffffffffffffffff8111156146e057600080fd5b6146ec86828701614456565b925050604084013567ffffffffffffffff81111561470957600080fd5b614715868287016143b8565b9150509250925092565b60006020828403121561473157600080fd5b600061473f848285016144aa565b91505092915050565b60006020828403121561475a57600080fd5b6000614768848285016144bf565b91505092915050565b6000806000806080858703121561478757600080fd5b6000614795878288016144aa565b94505060206147a687828801614441565b93505060406147b7878288016144aa565b925050606085013567ffffffffffffffff8111156147d457600080fd5b6147e0878288016143b8565b91505092959194509250565b600080600080600060a0868803121561480457600080fd5b6000614812888289016144aa565b955050602061482388828901614441565b9450506040614834888289016144aa565b935050606061484588828901614441565b9250506080614856888289016144aa565b9150509295509295909350565b60008060008060008060c0878903121561487c57600080fd5b600061488a89828a016144aa565b965050602061489b89828a01614441565b95505060406148ac89828a016144aa565b94505060606148bd89828a01614441565b93505060806148ce89828a016144aa565b92505060a087013567ffffffffffffffff8111156148eb57600080fd5b6148f789828a016143b8565b9150509295509295509295565b6000806040838503121561491757600080fd5b6000614925858286016144aa565b925050602083013567ffffffffffffffff81111561494257600080fd5b61494e85828601614456565b9150509250929050565b60006149648383614a8e565b905092915050565b61497581616439565b82525050565b614984816163da565b82525050565b600061499582616368565b61499f818561638b565b9350836020820285016149b185616343565b8060005b858110156149ed57848403895281516149ce8582614958565b94506149d98361637e565b925060208a019950506001810190506149b5565b50829750879550505050505092915050565b614a08816163ec565b82525050565b614a17816163f8565b82525050565b614a2e614a29826163f8565b616541565b82525050565b614a3d8161644b565b82525050565b614a4c8161646f565b82525050565b614a5b81616493565b82525050565b614a6a816164a5565b82525050565b614a79816164b7565b82525050565b614a88816164c9565b82525050565b6000614a9982616373565b614aa3818561639c565b9350614ab381856020860161650e565b614abc81616567565b840191505092915050565b6000614ad282616373565b614adc81856163ad565b9350614aec81856020860161650e565b614af581616567565b840191505092915050565b6000614b0b82616373565b614b1581856163be565b9350614b2581856020860161650e565b614b2e81616567565b840191505092915050565b6000614b4482616373565b614b4e81856163cf565b9350614b5e81856020860161650e565b80840191505092915050565b600081546001811660008114614b875760018114614bad57614bf1565b607f6002830416614b9881876163be565b955060ff198316865260208601935050614bf1565b60028204614bbb81876163be565b9550614bc685616353565b60005b82811015614be857815481890152600182019150602081019050614bc9565b80880195505050505b505092915050565b6000614c06601b836163ad565b91507f56616c6f7220646520466565206d61696f7220717565203130302500000000006000830152602082019050919050565b6000614c466014836163ad565b91507f5061757361626c653a206e6f74207061757365640000000000000000000000006000830152602082019050919050565b6000614c86601f836163ad565b91507f526f6c65733a206163636f756e7420616c72656164792068617320726f6c65006000830152602082019050919050565b6000614cc6603d836163ad565b91507f456e64657265c3a76f2064652064657374696e6f206ec3a36f20696e636c75c360008301527fad646f20636f6d6f20706170656c206e6573736520636164617374726f0000006020830152604082019050919050565b6000614d2c6030836163ad565b91507f496e74657276656ec3a7c3a36f206d616e75616c206ec3a36f2070726576696160008301527f6d656e74652063616461737472616461000000000000000000000000000000006020830152604082019050919050565b6000614d926030836163ad565b91507f506175736572526f6c653a2063616c6c657220646f6573206e6f74206861766560008301527f207468652050617573657220726f6c65000000000000000000000000000000006020830152604082019050919050565b6000614df86044836163ad565b91507f536f6d656e746520636c69656e74657320656d20636f6e747261746f7320636160008301527f646173747261646f7320706f64656d206578656375746172206f20706167616d60208301527f656e746f000000000000000000000000000000000000000000000000000000006040830152606082019050919050565b6000614e846029836163ad565b91507f536f6d656e7465206f20424e44455320706f6465206578656375746172206f2060008301527f706167616d656e746f00000000000000000000000000000000000000000000006020830152604082019050919050565b6000614eea604f836163ad565b91507f4f20726573706f6e73c3a176656c2070656c6120636f6e6669726d61c3a7c3a360008301527f6f20646f61c3a7c3a36f206465766520736572206461206d65736d6f2052424260208301527f5f494420646f20636f6e747261746f00000000000000000000000000000000006040830152606082019050919050565b6000614f766026836163ad565b91507f4f776e61626c653a206e6577206f776e657220697320746865207a65726f206160008301527f64647265737300000000000000000000000000000000000000000000000000006020830152604082019050919050565b6000614fdc605f836163ad565b91507f556d20434e504a206ec3a36f20706f6465207472616e73666572697220746f6b60008301527f656e20706172612073692c2061696e64612071756520656d20706170c3a9697360208301527f2064697374696e746f732028436c69656e74652f466f726e656365646f7229006040830152606082019050919050565b6000615068602a836163ad565b91507f4572726f206e6f2063c3a16c63756c6f20646f206861736820646120636f6e7460008301527f6120646f20424e444553000000000000000000000000000000000000000000006020830152604082019050919050565b60006150ce602f836163ad565b91507f536f6d656e746520666f726e656365646f72657320706f64656d20657865637560008301527f746172206f20706167616d656e746f00000000000000000000000000000000006020830152604082019050919050565b60006151346035836163ad565b91507f56616c6f72206120736572207472616e736163696f6e61646f2064657665207360008301527f6572206d61696f7220646f20717565207a65726f2e00000000000000000000006020830152604082019050919050565b600061519a602f836163ad565b91507f4572726f206e6f2063c3a16c63756c6f20646f206861736820646120636f6e7460008301527f6120646f20666f726e656365646f7200000000000000000000000000000000006020830152604082019050919050565b60006152006010836163ad565b91507f5061757361626c653a20706175736564000000000000000000000000000000006000830152602082019050919050565b60006152406045836163ad565b91507f4f20726573706f6e73c3a176656c2070656c61206c697175696461c3a7c3a36f60008301527f206465766520736572206461206d65736d6f205242425f494420646f20636f6e60208301527f747261746f0000000000000000000000000000000000000000000000000000006040830152606082019050919050565b60006152cc6033836163ad565b91507f436f6e746120646520646f61646f72207072656369736120657374617220636f60008301527f6d20636164617374726f2076616c696461646f000000000000000000000000006020830152604082019050919050565b6000615332603c836163ad565b91507f456e64657265c3a76f206465206f726967656d206ec3a36f20696e636c75c3ad60008301527f646f20636f6d6f20706170656c206e6573736520636164617374726f000000006020830152604082019050919050565b60006153986021836163ad565b91507f526f6c65733a206163636f756e7420646f6573206e6f74206861766520726f6c60008301527f65000000000000000000000000000000000000000000000000000000000000006020830152604082019050919050565b60006153fe6024836163ad565b91507f4572726f206e6f2063c3a16c63756c6f20646f206861736820646120646f61c360008301527fa7c3a36f000000000000000000000000000000000000000000000000000000006020830152604082019050919050565b60006154646026836163ad565b91507f536f6d656e746520646f61646f72657320706f64656d2066617a657220646f6160008301527fc3a7c3b5657300000000000000000000000000000000000000000000000000006020830152604082019050919050565b60006154ca6069836163ad565b91507f4f20726573706f6e73c3a176656c2070656c6f2063616461737472616d656e7460008301527f6f206465207472616e73666572656e636961732065787472616f7264696ec3a160208301527f72696173206465766520736572206461206d65736d6f205242425f494420646f60408301527f20636f6e747261746f00000000000000000000000000000000000000000000006060830152608082019050919050565b600061557c6020836163ad565b91507f4f776e61626c653a2063616c6c6572206973206e6f7420746865206f776e65726000830152602082019050919050565b60006155bc6022836163ad565b91507f526f6c65733a206163636f756e7420697320746865207a65726f20616464726560008301527f73730000000000000000000000000000000000000000000000000000000000006020830152604082019050919050565b60006156226042836163ad565b91507f4e656e68756d61207665726966696361c3a7c3a36f206573706563c3ad66696360008301527f6120656e636f6e747261646120706172612061207472616e73666572c3aa6e6360208301527f69610000000000000000000000000000000000000000000000000000000000006040830152606082019050919050565b60006156ae602b836163ad565b91507f556d20424e444553206ec3a36f20706f6465207472616e73666572697220746f60008301527f6b656e20706172612073690000000000000000000000000000000000000000006020830152604082019050919050565b60006157146041836163ad565b91507f4572726f206e6f2063c3a16c63756c6f20646f206861736820646120636f6e7460008301527f612064652061646d696e20646f20636f6e747261746f2065737065636966696360208301527f6f000000000000000000000000000000000000000000000000000000000000006040830152606082019050919050565b60006157a06043836163ad565b91507f4f20726573706f6e73c3a176656c2070656c6f20646573656d626f6c736f206460008301527f65766520736572206461206d65736d6f205242425f494420646f20636f6e747260208301527f61746f00000000000000000000000000000000000000000000000000000000006040830152606082019050919050565b600061582c603c836163ad565b91507f526573706f6e73c3a176656c2070656c61206c6962657261c3a7c3a36f20646560008301527f207265637572736f73206ec3a36f20657374c3a120636f727265746f000000006020830152604082019050919050565b60006158926030836163ad565b91507f45737365206dc3a9746f646f2073c3b320706f646520736572206368616d616460008301527f6f2070656c6f205242425f546f6b656e000000000000000000000000000000006020830152604082019050919050565b60006158f8602c836163ad565b91507f4572726f206e6f2063c3a16c63756c6f20646f206861736820646120636f6e7460008301527f6120646f20636c69656e746500000000000000000000000000000000000000006020830152604082019050919050565b61595a81616422565b82525050565b61597161596c82616422565b61654b565b82525050565b6159808161642c565b82525050565b6159976159928261642c565b616555565b82525050565b60006159a98284614b39565b915081905092915050565b60006159c08288615960565b6020820191506159d08287614a1d565b6020820191506159e08286615960565b6020820191506159f08285614a1d565b602082019150615a008284615960565b6020820191508190509695505050505050565b6000615a1f8284615986565b60018201915081905092915050565b6000602082019050615a43600083018461497b565b92915050565b6000602082019050615a5e600083018461496c565b92915050565b6000604082019050615a79600083018561497b565b615a866020830184614a52565b9392505050565b6000604082019050615aa2600083018561497b565b615aaf6020830184614a61565b9392505050565b6000604082019050615acb600083018561497b565b615ad86020830184614a70565b9392505050565b6000604082019050615af4600083018561497b565b615b016020830184614a7f565b9392505050565b6000602082019050615b1d60008301846149ff565b92915050565b6000602082019050615b386000830184614a0e565b92915050565b6000604082019050615b536000830185614a0e565b8181036020830152615b65818461498a565b90509392505050565b6000606082019050615b836000830186614a0e565b615b906020830185614a0e565b8181036040830152615ba2818461498a565b9050949350505050565b6000606082019050615bc16000830186614a0e565b615bce6020830185615951565b615bdb6040830184615951565b949350505050565b6000602082019050615bf86000830184614a34565b92915050565b6000602082019050615c136000830184614a43565b92915050565b60006020820190508181036000830152615c338184614ac7565b905092915050565b60006040820190508181036000830152615c558185614ac7565b90508181036020830152615c698184614ac7565b90509392505050565b60006060820190508181036000830152615c8c8186614ac7565b9050615c9b6020830185615951565b8181036040830152615cad8184614ac7565b9050949350505050565b60006040820190508181036000830152615cd18185614b6a565b90508181036020830152615ce58184614b00565b90509392505050565b60006020820190508181036000830152615d0781614bf9565b9050919050565b60006020820190508181036000830152615d2781614c39565b9050919050565b60006020820190508181036000830152615d4781614c79565b9050919050565b60006020820190508181036000830152615d6781614cb9565b9050919050565b60006020820190508181036000830152615d8781614d1f565b9050919050565b60006020820190508181036000830152615da781614d85565b9050919050565b60006020820190508181036000830152615dc781614deb565b9050919050565b60006020820190508181036000830152615de781614e77565b9050919050565b60006020820190508181036000830152615e0781614edd565b9050919050565b60006020820190508181036000830152615e2781614f69565b9050919050565b60006020820190508181036000830152615e4781614fcf565b9050919050565b60006020820190508181036000830152615e678161505b565b9050919050565b60006020820190508181036000830152615e87816150c1565b9050919050565b60006020820190508181036000830152615ea781615127565b9050919050565b60006020820190508181036000830152615ec78161518d565b9050919050565b60006020820190508181036000830152615ee7816151f3565b9050919050565b60006020820190508181036000830152615f0781615233565b9050919050565b60006020820190508181036000830152615f27816152bf565b9050919050565b60006020820190508181036000830152615f4781615325565b9050919050565b60006020820190508181036000830152615f678161538b565b9050919050565b60006020820190508181036000830152615f87816153f1565b9050919050565b60006020820190508181036000830152615fa781615457565b9050919050565b60006020820190508181036000830152615fc7816154bd565b9050919050565b60006020820190508181036000830152615fe78161556f565b9050919050565b60006020820190508181036000830152616007816155af565b9050919050565b6000602082019050818103600083015261602781615615565b9050919050565b60006020820190508181036000830152616047816156a1565b9050919050565b6000602082019050818103600083015261606781615707565b9050919050565b6000602082019050818103600083015261608781615793565b9050919050565b600060208201905081810360008301526160a78161581f565b9050919050565b600060208201905081810360008301526160c781615885565b9050919050565b600060208201905081810360008301526160e7816158eb565b9050919050565b60006020820190506161036000830184615951565b92915050565b600060a08201905061611e6000830188615951565b61612b6020830187614a0e565b6161386040830186615951565b6161456060830185614a0e565b6161526080830184615951565b9695505050505050565b600060c0820190506161716000830189615951565b61617e6020830188614a0e565b61618b6040830187615951565b6161986060830186614a0e565b6161a56080830185615951565b81810360a08301526161b7818461498a565b9050979650505050505050565b60006040820190506161d96000830185615951565b81810360208301526161eb8184614ac7565b90509392505050565b60006060820190506162096000830186615951565b818103602083015261621b8185614ac7565b905061622a6040830184615951565b949350505050565b60006080820190506162476000830187615951565b81810360208301526162598186614ac7565b90506162686040830185615951565b6162756060830184615951565b95945050505050565b60006040820190506162936000830185615951565b6162a06020830184615951565b9392505050565b60006020820190506162bc6000830184615977565b92915050565b6000604051905081810181811067ffffffffffffffff821117156162e557600080fd5b8060405250919050565b600067ffffffffffffffff82111561630657600080fd5b602082029050602081019050919050565b600067ffffffffffffffff82111561632e57600080fd5b601f19601f8301169050602081019050919050565b6000819050602082019050919050565b60008190508160005260206000209050919050565b600081519050919050565b600081519050919050565b6000602082019050919050565b600082825260208201905092915050565b600082825260208201905092915050565b600082825260208201905092915050565b600082825260208201905092915050565b600081905092915050565b60006163e582616402565b9050919050565b60008115159050919050565b6000819050919050565b600073ffffffffffffffffffffffffffffffffffffffff82169050919050565b6000819050919050565b600060ff82169050919050565b6000616444826164db565b9050919050565b60006164568261645d565b9050919050565b600061646882616402565b9050919050565b600061647a82616481565b9050919050565b600061648c82616402565b9050919050565b600061649e8261642c565b9050919050565b60006164b08261642c565b9050919050565b60006164c28261642c565b9050919050565b60006164d48261642c565b9050919050565b60006164e6826164ed565b9050919050565b60006164f882616402565b9050919050565b82818337600083830152505050565b60005b8381101561652c578082015181840152602081019050616511565b8381111561653b576000848401525b50505050565b6000819050919050565b6000819050919050565b600061656082616578565b9050919050565b6000601f19601f8301169050919050565b60008160f81b9050919050565b61658e816163da565b811461659957600080fd5b50565b6165a5816163ec565b81146165b057600080fd5b50565b6165bc816163f8565b81146165c757600080fd5b50565b6165d381616422565b81146165de57600080fd5b5056fea2646970667358221220d66a08670b080a4b6314bc69ad0d9618bd4b4f1c81d89b25a32bdd182170066664736f6c634300060c0033",
  "immutableReferences": {},
  "source": "pragma solidity ^0.6.0;\npragma experimental ABIEncoderV2;\n\n\nimport \"./RBBLib.sol\";\nimport \"./RBBRegistry.sol\";\nimport \"./RBBToken.sol\";\nimport \"./SpecificRBBToken.sol\";\nimport \"@openzeppelin/contracts/ownership/Ownable.sol\";\nimport \"@openzeppelin/contracts/lifecycle/Pausable.sol\";\nimport \"@openzeppelin/contracts/math/SafeMath.sol\";\n\n\n\n// Pode ter cliente no hash xyz, fornecedor no hash abc\n// clientes no hash xyz so aqueles que bndes informou (set cliente no hash total)\n/*\nRegras especficas\n- Toda vez que o BNDES faz um desembolso, o destinatrio ser associado como CLIENTE para um idFinancialSupportAgreement especfico (se ainda no estiver associado).\n- Somente clientes fazem pagamentos. Toda vez que um CLIENTE de um idFinancialSupportAgreement especfico paga um fornecedor, o destinatrio ser associado como FORNECEDOR (se ainda no estiver associado). \n- Somente FORNECEDORES podem solicitar o resgate.\n\nTodas as operaes j supem que a entidade de origem e destino esto cadastradas e validadas, pois isso  garantido pelo contrato genrico (RBB_Token)\n\nNo includo:\n------------\n- requisito adicional de o cliente poder resgatar uma parte do valor\n- ideia de o fornecedor poder sacar mais de um saldo ao mesmo tempo.\n- pedido inicial de financiamento do cliente \n- devoluo de fornecedor para cliente sem anuncia para o BNDES\n\n*/\n\n\ncontract FABndesToken is SpecificRBBToken {\n\n    //RBBId donor => true/false (registered or not)\n    mapping (uint => bool) donors;\n\n    //RBBId client => (idFinancialSupportAgreement Client => true/false (registered or not)\n    mapping (uint => mapping (string => bool)) public clients;\n\n    //RBBId supplier => true/false (registered or not)\n    mapping (uint => bool) suppliers;\n\n   /* Hash of approved ManualInterventionOperationApprovedByOwner */\n    bytes32[] public hashManualInterventionOperationApprovedByOwner;\n\n\n   /* BNDES Fee percentage */\n    uint256 public bndesFee;    \n\n    string public INITIAL_ALLOCATION = \"INITIAL_ALLOCATION\";\n    string public DISBURSEMENT_VERIFICATION = \"DISBURSEMENT_VERIFICATION\";\n    string public CLIENT_PAY_SUPPLIER_VERIFICATION = \"CLIENT_PAY_SUPPLIER_VERIFICATION\";\n    string public BNDES_PAY_SUPPLIER_VERIFICATION = \"BNDES_PAY_SUPPLIER_VERIFICATION\";\n    string public MANUAL_INTERVENTION = \"MANUAL_INTERVENTION\";\n\n    address public responsibleForDonationConfirmation;\n    address public responsibleForDisbursement;\n    address public resposibleForExtraordinaryTransfers;\n    address public responsibleForSettlement;\n\n    uint8 public RESERVED_NO_ADDITIONAL_FIELDS_TO_HASH = 0;\n    uint8 public RESERVED_MINTED_ACCOUNT = 1;\n    uint8 public RESERVED_TO_USUAL_DISBURSEMENTS_ACCOUNT = 2;\n    uint8 public RESERVED_BNDES_ADMIN_FEE__TO_HASH = 3;\n\n\n//TODO: get para isso ADMIN_FEE\n//TODO: initial allocation transfer do MINTED para RESERVED_TO_USUAL_DISBURSEMENTS_ACCOUNT e ADMIN e \n\n     using SafeMath for uint;\n   \n\n//TODO: rever eventos para BNDES Transparente\n    event FA_Disbursement  (uint idClient, string idFinancialSupportAgreement, uint amount);\n    event FA_TokenTransfer (uint fromCnpj, string fromIdFinancialSupportAgreement, uint toCnpj, uint amount);\n    event FA_RedemptionRequested (uint idClaimer, uint amount);\n    event FA_RedemptionSettlement(string redemptionTransactionHash, string receiptHash);\n    event FA_BNDES_TokenTransfer(uint toCnpj, uint amount);\n\n    event FA_DonationBooked(uint idDonor, uint amount);\n    event FA_DonationConfirmed(string idDonor, uint amount, string receiptHash);\n    event FA_AdmFeeCharged(string idDonor, uint amount);\n    \n\n    event FA_ManualIntervention_TransferAllowed (uint fromId, bytes32 fromHash, uint toId, bytes32 toHash, \n            uint amount);\n    event FA_ManualIntervention_Transfer(uint fromId, bytes32 fromHash, uint toId, bytes32 toHash, \n            uint amount, string[] data);\n    event FA_ManualIntervention_Fee(uint256 percent, string description);\n    event FA_ManualIntervention_RoleOrAddress(address account, uint8 eventType);\n\n    event FA_DonorAdded(uint id);\n    event FA_ClientAdded(uint id);\n    event FA_SupplierAdded(uint registeredBy, uint id);\n\n//TODO: verificar papeis nos metodos abaixo\n    constructor (uint fee) public {\n        require (fee < 100, \"Valor de Fee maior que 100%\");\n\n        responsibleForDonationConfirmation = msg.sender;\n        responsibleForDisbursement = msg.sender;\n        resposibleForExtraordinaryTransfers = msg.sender;\n        responsibleForSettlement = msg.sender;\n\n        bndesFee = fee;\n    }\n\n\n    function setBNDESFee(uint256 newBndesFee, string memory description) public onlyOwner {\n        require (newBndesFee < 100, \"Valor de Fee maior que 100%\");\n        bndesFee = newBndesFee;\n        emit FA_ManualIntervention_Fee(newBndesFee, description);\n    }\n\n    function addDonor (uint idDonor) public onlyOwner {\n        require(registry.isValidatedId(idDonor), \"Conta de doador precisa estar com cadastro validado\");\n        if(!donors[idDonor]) {\n            donors[idDonor] = true;\n            emit FA_DonorAdded(idDonor);\n        }\n    }\n\n    /* Donor books a donation */\n    function bookDonation(uint amount) public whenNotPaused  {        \n        \n        uint idDonor = registry.getId(msg.sender);\n\n        require (donors[idDonor], \"Somente doadores podem fazer doaes\");\n        require(registry.isValidatedId(idDonor), \"Conta de doador precisa estar com cadastro validado\");\n        \n        bytes32 specificHash = keccak256(abi.encodePacked(RESERVED_NO_ADDITIONAL_FIELDS_TO_HASH));\n        rbbToken.requestMint(specificHash, idDonor, amount);\n\n        emit FA_DonationBooked(idDonor, amount);\n    }\n    \n    /* confirms the donor's donation */\n    function verifyAndActForMint(bytes32 specificHash, uint amount, string[] memory data,\n        string memory docHash) public override whenNotPaused onlyRBBToken {\n\n        require (keccak256(abi.encodePacked(RESERVED_NO_ADDITIONAL_FIELDS_TO_HASH))==specificHash, \"Erro no clculo do hash da doao\");\n\n        string memory idDonor = data[0];\n//        require (donors[idDonor], \"Somente doadores podem fazer doaes, registro estah incorreto\");\n\n//TODO: transformar de string para uint de forma a ter eventos soh com uint\n        emit FA_DonationConfirmed(idDonor, amount, docHash);\n\n    }\n\n    //*********** */\n\n    function getHashToMintedAccount(bytes32 specificHash) override public returns (bytes32) {\n        //There is no difference of specificHash, all money should be minted in the same account\n        return keccak256(abi.encodePacked(RESERVED_MINTED_ACCOUNT));\n    }\n\n\n    function getDisbusementData (string memory idFinancialSupportAgreement) public view\n        returns (bytes32, bytes32, string[] memory)  {\n\n        bytes32 fromHash = keccak256(abi.encodePacked(RESERVED_TO_USUAL_DISBURSEMENTS_ACCOUNT));\n        bytes32 toHash = keccak256(abi.encodePacked(idFinancialSupportAgreement));\n\n        string[] memory data = new string[](2);\n        data[0] = DISBURSEMENT_VERIFICATION;\n        data[1] = idFinancialSupportAgreement;\n        return (fromHash, toHash, data);\n    }\n\n    function getPaySupplierData (string memory idFinancialSupportAgreement) public view\n            returns (bytes32, bytes32, string[] memory) {\n\n        bytes32 fromHash = keccak256(abi.encodePacked(idFinancialSupportAgreement));\n        bytes32 toHash = keccak256(abi.encodePacked(RESERVED_NO_ADDITIONAL_FIELDS_TO_HASH));\n\n        string[] memory data = new string[](2);\n        data[0] = CLIENT_PAY_SUPPLIER_VERIFICATION;\n        data[1] = idFinancialSupportAgreement;\n        return (fromHash, toHash, data);\n    }\n\n\n    function getRedeemData () public \n            returns (bytes32, string[] memory) {\n\n        bytes32 fromHash = keccak256(abi.encodePacked(RESERVED_NO_ADDITIONAL_FIELDS_TO_HASH));\n\n        string[] memory data = new string[](0);\n        return (fromHash, data);\n    }\n\n    //*********** */\n\n\n    function verifyAndActForTransfer(uint fromId, bytes32 fromHash, uint toId, bytes32 toHash, \n            uint amount, string[] memory data) public override whenNotPaused onlyRBBToken {\n\n        string memory specificMethod = data[0];\n\n        require (amount>0, \"Valor a ser transacionado deve ser maior do que zero.\");\n\n\n        if (RBBLib.isEqual(DISBURSEMENT_VERIFICATION, specificMethod)) {\n            verifyAndActForTransfer_DISBURSEMENT(fromId, fromHash, toId, toHash, amount, data);\n        }\n        else if (RBBLib.isEqual(CLIENT_PAY_SUPPLIER_VERIFICATION, specificMethod)) {\n            verifyAndActForTransfer_CLIENT_PAY_SUPPLIER(fromId, fromHash, toId, toHash, amount, data);\n        }\n        else if (RBBLib.isEqual(BNDES_PAY_SUPPLIER_VERIFICATION, specificMethod)) {\n            verifyAndActForTransfer_BNDES_PAY_SUPPLIER(fromId, fromHash, toId, toHash, amount, data);\n        }\n        else if (RBBLib.isEqual(MANUAL_INTERVENTION, specificMethod)) {\n            verifyAndActForTransfer_MANUAL_INTERVENTION(fromId, fromHash, toId, toHash, amount, data);\n        }\n        else {\n            require (false, \"Nenhuma verificao especfica encontrada para a transferncia\");\n        }\n\n    }\n\n//        uint admFee = amount.mul(bndesFee).div(100);\n//        rbbToken.burn(admFee);\n\n//terminar isso\n    function verifyAndActForTransfer_INITIAL_ALLOCATION(uint fromId, bytes32 fromHash, uint toId, bytes32 toHash, \n            uint amount, string[] memory data) internal whenNotPaused {\n//TODO: FAZER    \n        uint ownerId = registry.getId(owner());\n\n\n//TODO\n//        emit FA_Disbursement (toId, idFinancialSupportAgreement, amount);\n\n    }\n\n\n//TODO: incluir msg.sender aqui e testar que  o resposibleForSettlement\n    function verifyAndActForTransfer_DISBURSEMENT(uint fromId, bytes32 fromHash, uint toId, bytes32 toHash, \n            uint amount, string[] memory data) internal whenNotPaused {\n    \n        string memory idFinancialSupportAgreement = data[1];\n        uint ownerId = registry.getId(owner());\n\n        //Essa eh uma regra especifica visto que outra organizacao pode ter recebido o token no allocate.\n        require (fromId == ownerId, \"Responsvel pela liberao de recursos no est correto\");\n        require (keccak256(abi.encodePacked(RESERVED_TO_USUAL_DISBURSEMENTS_ACCOUNT))==fromHash, \"Erro no clculo do hash da conta do BNDES\");\n        require (keccak256(abi.encodePacked(idFinancialSupportAgreement))==toHash, \"Erro no clculo do hash da conta do cliente\");\n\n        if (!clients[toId][idFinancialSupportAgreement]) {\n            clients[toId][idFinancialSupportAgreement] = true; //register the client\n            emit FA_ClientAdded(toId);\n\n        }\n\n        emit FA_Disbursement (toId, idFinancialSupportAgreement, amount);\n\n    }\n\n    function verifyAndActForTransfer_CLIENT_PAY_SUPPLIER(uint fromId, bytes32 fromHash, uint toId, bytes32 toHash, \n            uint amount, string[] memory data) internal whenNotPaused {\n    \n        string memory idFinancialSupportAgreement = data[1];\n\n        require (clients[fromId][idFinancialSupportAgreement], \"Somente clientes em contratos cadastrados podem executar o pagamento\");\n        require (keccak256(abi.encodePacked(idFinancialSupportAgreement))==fromHash, \"Erro no clculo do hash da conta do cliente\");\n        require (keccak256(abi.encodePacked(RESERVED_NO_ADDITIONAL_FIELDS_TO_HASH))==toHash, \"Erro no clculo do hash da conta do fornecedor\");\n\n        require(fromId != toId,\n            \"Um CNPJ no pode transferir token para si, ainda que em papis distintos (Cliente/Fornecedor)\");\n\n        if (!suppliers[toId]) {\n            suppliers[toId] = true; //register the supplier\n            emit FA_SupplierAdded(fromId, toId);\n        }\n\n        emit FA_TokenTransfer (fromId, idFinancialSupportAgreement, toId, amount);\n\n    }\n\n\n\n    function verifyAndActForTransfer_BNDES_PAY_SUPPLIER(uint fromId, bytes32 fromHash, uint toId, bytes32 toHash, \n            uint amount, string[] memory data) internal whenNotPaused {\n    \n        require (fromId==registry.getId(owner()), \"Somente o BNDES pode executar o pagamento\");\n        require (keccak256(abi.encodePacked(RESERVED_BNDES_ADMIN_FEE__TO_HASH))==fromHash, \"Erro no clculo do hash da conta de admin do contrato especifico\");\n        require (keccak256(abi.encodePacked(RESERVED_NO_ADDITIONAL_FIELDS_TO_HASH))==toHash, \"Erro no clculo do hash da conta do fornecedor\");\n\n        require(fromId != toId, \"Um BNDES no pode transferir token para si\");\n\n        emit FA_BNDES_TokenTransfer (toId, amount);\n\n    }\n\n    function addSupplier (uint id) public onlyOwner {\n        if (!suppliers[id]) {\n            suppliers[id] = true; //register the supplier\n            emit FA_SupplierAdded(registry.getId(owner()), id);\n        }\n    }\n\n\n    \n\n    function verifyAndActForRedeem(uint fromId, bytes32 fromHash, uint amount, string[] memory data) \n        public override whenNotPaused onlyRBBToken {\n\n        require (amount>0, \"Valor a ser transacionado deve ser maior do que zero.\");\n        require (suppliers[fromId], \"Somente fornecedores podem executar o pagamento\");\n        require (keccak256(abi.encodePacked(RESERVED_NO_ADDITIONAL_FIELDS_TO_HASH))==fromHash, \"Erro no clculo do hash da conta do fornecedor\");\n\n        emit FA_RedemptionRequested (fromId, amount);\n\n    }\n\n    function verifyAndActForRedemptionSettlement(string memory redemptionTransactionHash, string memory receiptHash, \n        string[] memory data)\n        public override whenNotPaused onlyRBBToken {\n\n        emit FA_RedemptionSettlement (redemptionTransactionHash, receiptHash);\n    }\n\n    modifier onlyRBBToken() {\n        require (msg.sender==address(rbbToken), \"Esse mtodo s pode ser chamado pelo RBB_Token\");\n        _;\n    }\n\n    \n    //*********** MANUAL INTERVENTION  */\n\n//TODO: ver se todos os hash sao calculados com uma info e mudar por esse metodo\n    function getCalculatedHash (string memory info) public returns (bytes32) {\n        return keccak256(abi.encodePacked(info));\n    }\n\n//TODO: campo de justificativa\n//TODO: incluir periodo de validade para essa autorizacao\n    function authorizeExtraordinaryTransfer (uint fromId, bytes32 fromHash, uint toId, bytes32 toHash, \n            uint amount) public onlyOwner {\n        \n        require (hasRoleInThisContract(fromId, fromHash), \"Endereo de origem no includo como papel nesse cadastro\");\n        require (hasRoleInThisContract(toId, toHash), \"Endereo de destino no includo como papel nesse cadastro\");\n\n        bytes32 m = keccak256(abi.encodePacked(fromId, fromHash, toId, toHash, amount));\n        hashManualInterventionOperationApprovedByOwner.push(m);\n\n        emit FA_ManualIntervention_TransferAllowed (fromId, fromHash, toId, toHash, amount);\n\n    }\n   \n    function verifyAndActForTransfer_MANUAL_INTERVENTION(uint fromId, bytes32 fromHash, uint toId, bytes32 toHash, \n            uint amount, string[] memory data) internal whenNotPaused {\n\n        require (hasRoleInThisContract(fromId, fromHash), \"Endereo de origem no includo como papel nesse cadastro\");\n        require (hasRoleInThisContract(toId, toHash), \"Endereo de destino no includo como papel nesse cadastro\");\n\n        string memory idFinancialSupportAgreement = data[1];\n        bytes32 m = keccak256(abi.encodePacked(fromId, fromHash, toId, toHash, amount));\n\n        bool interventionExecuted = false;\n        uint index = 0;\n        for (; index<hashManualInterventionOperationApprovedByOwner.length; index++) {\n            if (hashManualInterventionOperationApprovedByOwner[index] == m) {\n                interventionExecuted = true;\n                break;\n            }\n        }\n\n        require (interventionExecuted, \"Interveno manual no previamente cadastrada\");\n\n        hashManualInterventionOperationApprovedByOwner[index] \n            = hashManualInterventionOperationApprovedByOwner [hashManualInterventionOperationApprovedByOwner.length-1];\n        hashManualInterventionOperationApprovedByOwner.pop();\n\n        emit FA_ManualIntervention_Transfer (fromId, fromHash, toId, toHash, amount, data);\n\n    }\n\n    function hasRoleInThisContract (uint rbbId, bytes32 hashToAccount) private returns (bool) {\n\n        bool hasRole = false;\n        if (donors[rbbId]==true) return true;\n\n//TODO: resolver\n//        if (clients[rbbId]!=0) return true;\n        if (suppliers[rbbId]==true) return true;\n\n        uint ownerId = registry.getId(owner());\n        if (ownerId == rbbId) return true;\n\n        uint rbbTokenOwnerId = registry.getId(rbbToken.owner());\n        if (rbbTokenOwnerId == rbbId) return true;\n\n        return false;\n    }\n\n\n /**\n    * By default, the owner is also the Responsible for Donation Confirmation. \n    * The owner can assign other address to be the Responsible for Donation Confirmation. \n    * @param rs Ethereum address to be assigned as Responsible for Donation Confirmation.\n    */\n    function setResponsibleForDonationConfirmation(address rs) onlyOwner public {\n        uint id = registry.getId(rs);\n        require(id==registry.getId(owner()), \"O responsvel pela confirmao doao deve ser da mesmo RBB_ID do contrato\");\n        responsibleForDonationConfirmation = rs;\n        emit FA_ManualIntervention_RoleOrAddress(rs, 1);\n    }\n\n   /**\n    * By default, the owner is also the Responsible for Disbursment. \n    * The owner can assign other address to be the Responsible for Disbursment. \n    * @param rs Ethereum address to be assigned as Responsible for Disbursment.\n    */\n    function setResponsibleForDisbursement(address rs) onlyOwner public {\n        uint id = registry.getId(rs);\n        require(id==registry.getId(owner()), \"O responsvel pelo desembolso deve ser da mesmo RBB_ID do contrato\");\n        responsibleForDisbursement = rs;\n        emit FA_ManualIntervention_RoleOrAddress(rs, 2);\n    }\n\n   /**\n    * By default, the owner is also the Responsible for Extraordinary Transfers. \n    * The owner can assign other address to be the Resposible Extraordinary Transfers. \n    * @param rs Ethereum address to be assigned as Responsible for Extraordinary Transfers.\n    */\n    function setResposibleForExtraordinaryTransfers(address rs) onlyOwner public {\n        uint id = registry.getId(rs);\n        require(id==registry.getId(owner()), \"O responsvel pelo cadastramento de transferencias extraordinrias deve ser da mesmo RBB_ID do contrato\");\n        resposibleForExtraordinaryTransfers = rs;\n        emit FA_ManualIntervention_RoleOrAddress(rs, 3);\n    }\n\n   /**\n    * By default, the owner is also the Responsible for Settlement. \n    * The owner can assign other address to be the Responsible for Settlement. \n    * @param rs Ethereum address to be assigned as Responsible for Settlement.\n    */\n    function setResponsibleForSettlement(address rs) onlyOwner public {\n        uint id = registry.getId(rs);\n        require(id==registry.getId(owner()), \"O responsvel pela liquidao deve ser da mesmo RBB_ID do contrato\");\n        responsibleForSettlement = rs;\n        emit FA_ManualIntervention_RoleOrAddress(rs, 4);\n    }\n\n\n}",
  "sourcePath": "/Users/suzana.moreno/workspace/rbb-token/Back-Blockchain/contracts/FABndesToken.sol",
  "compiler": {
    "name": "solc",
    "version": "0.6.12+commit.27d51765.Emscripten.clang"
  },
  "schemaVersion": "3.2.5",
  "updatedAt": "2020-09-23T22:35:07.593Z",
  "devdoc": {
    "kind": "dev",
    "methods": {
      "isOwner()": {
        "details": "Returns true if the caller is the current owner."
      },
      "owner()": {
        "details": "Returns the address of the current owner."
      },
      "pause()": {
        "details": "Called by a pauser to pause, triggers stopped state."
      },
      "paused()": {
        "details": "Returns true if the contract is paused, and false otherwise."
      },
      "renounceOwnership()": {
        "details": "Leaves the contract without owner. It will not be possible to call `onlyOwner` functions anymore. Can only be called by the current owner. NOTE: Renouncing ownership will leave the contract without an owner, thereby removing any functionality that is only available to the owner."
      },
      "setResponsibleForDisbursement(address)": {
        "params": {
          "rs": "Ethereum address to be assigned as Responsible for Disbursment."
        }
      },
      "setResponsibleForDonationConfirmation(address)": {
        "params": {
          "rs": "Ethereum address to be assigned as Responsible for Donation Confirmation."
        }
      },
      "setResponsibleForSettlement(address)": {
        "params": {
          "rs": "Ethereum address to be assigned as Responsible for Settlement."
        }
      },
      "setResposibleForExtraordinaryTransfers(address)": {
        "params": {
          "rs": "Ethereum address to be assigned as Responsible for Extraordinary Transfers."
        }
      },
      "transferOwnership(address)": {
        "details": "Transfers ownership of the contract to a new account (`newOwner`). Can only be called by the current owner."
      },
      "unpause()": {
        "details": "Called by a pauser to unpause, returns to normal state."
      }
    },
    "version": 1
  },
  "userdoc": {
    "kind": "user",
    "methods": {
      "setResponsibleForDisbursement(address)": {
        "notice": "By default, the owner is also the Responsible for Disbursment.  The owner can assign other address to be the Responsible for Disbursment. "
      },
      "setResponsibleForDonationConfirmation(address)": {
        "notice": "By default, the owner is also the Responsible for Donation Confirmation.  The owner can assign other address to be the Responsible for Donation Confirmation. "
      },
      "setResponsibleForSettlement(address)": {
        "notice": "By default, the owner is also the Responsible for Settlement.  The owner can assign other address to be the Responsible for Settlement. "
      },
      "setResposibleForExtraordinaryTransfers(address)": {
        "notice": "By default, the owner is also the Responsible for Extraordinary Transfers.  The owner can assign other address to be the Resposible Extraordinary Transfers. "
      }
    },
    "version": 1
  }
}