{
  "contractName": "FABndesToken",
  "abi": [
    {
      "inputs": [
        {
          "internalType": "address",
          "name": "newrbbTokenAddr",
          "type": "address"
        },
        {
          "internalType": "address",
          "name": "addrBndesRoles",
          "type": "address"
        }
      ],
      "stateMutability": "nonpayable",
      "type": "constructor"
    },
    {
      "anonymous": false,
      "inputs": [
        {
          "indexed": false,
          "internalType": "uint256",
          "name": "toCnpj",
          "type": "uint256"
        },
        {
          "indexed": false,
          "internalType": "uint256",
          "name": "amount",
          "type": "uint256"
        },
        {
          "indexed": false,
          "internalType": "bytes32",
          "name": "docHash",
          "type": "bytes32"
        }
      ],
      "name": "FA_BNDES_TokenTransfer",
      "type": "event"
    },
    {
      "anonymous": false,
      "inputs": [
        {
          "indexed": false,
          "internalType": "uint256",
          "name": "id",
          "type": "uint256"
        }
      ],
      "name": "FA_ClientAdded",
      "type": "event"
    },
    {
      "anonymous": false,
      "inputs": [
        {
          "indexed": false,
          "internalType": "uint256",
          "name": "idClient",
          "type": "uint256"
        },
        {
          "indexed": false,
          "internalType": "string",
          "name": "idFinancialSupportAgreement",
          "type": "string"
        },
        {
          "indexed": false,
          "internalType": "uint256",
          "name": "amount",
          "type": "uint256"
        },
        {
          "indexed": false,
          "internalType": "bytes32",
          "name": "docHash",
          "type": "bytes32"
        }
      ],
      "name": "FA_Disbursement",
      "type": "event"
    },
    {
      "anonymous": false,
      "inputs": [
        {
          "indexed": false,
          "internalType": "uint256",
          "name": "idDonor",
          "type": "uint256"
        },
        {
          "indexed": false,
          "internalType": "uint256",
          "name": "amount",
          "type": "uint256"
        },
        {
          "indexed": false,
          "internalType": "bytes32",
          "name": "docHash",
          "type": "bytes32"
        }
      ],
      "name": "FA_DonationBooked",
      "type": "event"
    },
    {
      "anonymous": false,
      "inputs": [
        {
          "indexed": false,
          "internalType": "uint256",
          "name": "idDonor",
          "type": "uint256"
        },
        {
          "indexed": false,
          "internalType": "uint256",
          "name": "amount",
          "type": "uint256"
        },
        {
          "indexed": false,
          "internalType": "bytes32",
          "name": "docHash",
          "type": "bytes32"
        }
      ],
      "name": "FA_DonationConfirmed",
      "type": "event"
    },
    {
      "anonymous": false,
      "inputs": [
        {
          "indexed": false,
          "internalType": "uint256",
          "name": "id",
          "type": "uint256"
        }
      ],
      "name": "FA_DonorAdded",
      "type": "event"
    },
    {
      "anonymous": false,
      "inputs": [
        {
          "indexed": false,
          "internalType": "uint256",
          "name": "fromId",
          "type": "uint256"
        },
        {
          "indexed": false,
          "internalType": "bytes32",
          "name": "fromHash",
          "type": "bytes32"
        },
        {
          "indexed": false,
          "internalType": "uint256",
          "name": "toId",
          "type": "uint256"
        },
        {
          "indexed": false,
          "internalType": "bytes32",
          "name": "toHash",
          "type": "bytes32"
        },
        {
          "indexed": false,
          "internalType": "uint256",
          "name": "amount",
          "type": "uint256"
        },
        {
          "indexed": false,
          "internalType": "bytes32",
          "name": "docHash",
          "type": "bytes32"
        }
      ],
      "name": "FA_ExtraordinaryTransferAllowed",
      "type": "event"
    },
    {
      "anonymous": false,
      "inputs": [
        {
          "indexed": false,
          "internalType": "uint256",
          "name": "fromId",
          "type": "uint256"
        },
        {
          "indexed": false,
          "internalType": "bytes32",
          "name": "fromHash",
          "type": "bytes32"
        },
        {
          "indexed": false,
          "internalType": "uint256",
          "name": "toId",
          "type": "uint256"
        },
        {
          "indexed": false,
          "internalType": "bytes32",
          "name": "toHash",
          "type": "bytes32"
        },
        {
          "indexed": false,
          "internalType": "uint256",
          "name": "amount",
          "type": "uint256"
        },
        {
          "indexed": false,
          "internalType": "bytes32",
          "name": "docHash",
          "type": "bytes32"
        }
      ],
      "name": "FA_ExtraordinaryTransferExecuted",
      "type": "event"
    },
    {
      "anonymous": false,
      "inputs": [
        {
          "indexed": false,
          "internalType": "uint256",
          "name": "amount",
          "type": "uint256"
        },
        {
          "indexed": false,
          "internalType": "bytes32",
          "name": "docHash",
          "type": "bytes32"
        }
      ],
      "name": "FA_InitialAllocation_Disbursements",
      "type": "event"
    },
    {
      "anonymous": false,
      "inputs": [
        {
          "indexed": false,
          "internalType": "uint256",
          "name": "amount",
          "type": "uint256"
        },
        {
          "indexed": false,
          "internalType": "bytes32",
          "name": "docHash",
          "type": "bytes32"
        }
      ],
      "name": "FA_InitialAllocation_Fee",
      "type": "event"
    },
    {
      "anonymous": false,
      "inputs": [
        {
          "indexed": false,
          "internalType": "uint256",
          "name": "idClaimer",
          "type": "uint256"
        },
        {
          "indexed": false,
          "internalType": "uint256",
          "name": "amount",
          "type": "uint256"
        },
        {
          "indexed": false,
          "internalType": "bytes32",
          "name": "docHash",
          "type": "bytes32"
        }
      ],
      "name": "FA_RedemptionRequested",
      "type": "event"
    },
    {
      "anonymous": false,
      "inputs": [
        {
          "indexed": false,
          "internalType": "bytes32",
          "name": "redemptionTransactionHash",
          "type": "bytes32"
        },
        {
          "indexed": false,
          "internalType": "bytes32",
          "name": "docHash",
          "type": "bytes32"
        }
      ],
      "name": "FA_RedemptionSettlement",
      "type": "event"
    },
    {
      "anonymous": false,
      "inputs": [
        {
          "indexed": false,
          "internalType": "uint256",
          "name": "registeredBy",
          "type": "uint256"
        },
        {
          "indexed": false,
          "internalType": "uint256",
          "name": "id",
          "type": "uint256"
        }
      ],
      "name": "FA_SupplierAdded",
      "type": "event"
    },
    {
      "anonymous": false,
      "inputs": [
        {
          "indexed": false,
          "internalType": "uint256",
          "name": "fromCnpj",
          "type": "uint256"
        },
        {
          "indexed": false,
          "internalType": "string",
          "name": "fromIdFinancialSupportAgreement",
          "type": "string"
        },
        {
          "indexed": false,
          "internalType": "uint256",
          "name": "toCnpj",
          "type": "uint256"
        },
        {
          "indexed": false,
          "internalType": "uint256",
          "name": "amount",
          "type": "uint256"
        },
        {
          "indexed": false,
          "internalType": "bytes32",
          "name": "docHash",
          "type": "bytes32"
        }
      ],
      "name": "FA_TokenTransfer",
      "type": "event"
    },
    {
      "anonymous": false,
      "inputs": [
        {
          "indexed": true,
          "internalType": "address",
          "name": "previousOwner",
          "type": "address"
        },
        {
          "indexed": true,
          "internalType": "address",
          "name": "newOwner",
          "type": "address"
        }
      ],
      "name": "OwnershipTransferred",
      "type": "event"
    },
    {
      "anonymous": false,
      "inputs": [
        {
          "indexed": false,
          "internalType": "address",
          "name": "account",
          "type": "address"
        }
      ],
      "name": "Paused",
      "type": "event"
    },
    {
      "anonymous": false,
      "inputs": [
        {
          "indexed": true,
          "internalType": "address",
          "name": "account",
          "type": "address"
        }
      ],
      "name": "PauserAdded",
      "type": "event"
    },
    {
      "anonymous": false,
      "inputs": [
        {
          "indexed": true,
          "internalType": "address",
          "name": "account",
          "type": "address"
        }
      ],
      "name": "PauserRemoved",
      "type": "event"
    },
    {
      "anonymous": false,
      "inputs": [
        {
          "indexed": false,
          "internalType": "address",
          "name": "account",
          "type": "address"
        }
      ],
      "name": "Unpaused",
      "type": "event"
    },
    {
      "inputs": [],
      "name": "BNDES_PAY_SUPPLIER_VERIFICATION",
      "outputs": [
        {
          "internalType": "string",
          "name": "",
          "type": "string"
        }
      ],
      "stateMutability": "view",
      "type": "function",
      "constant": true
    },
    {
      "inputs": [],
      "name": "CLIENT_PAY_SUPPLIER_VERIFICATION",
      "outputs": [
        {
          "internalType": "string",
          "name": "",
          "type": "string"
        }
      ],
      "stateMutability": "view",
      "type": "function",
      "constant": true
    },
    {
      "inputs": [],
      "name": "DISBURSEMENT_VERIFICATION",
      "outputs": [
        {
          "internalType": "string",
          "name": "",
          "type": "string"
        }
      ],
      "stateMutability": "view",
      "type": "function",
      "constant": true
    },
    {
      "inputs": [],
      "name": "EXTRAORDINARY_TRANSFERS",
      "outputs": [
        {
          "internalType": "string",
          "name": "",
          "type": "string"
        }
      ],
      "stateMutability": "view",
      "type": "function",
      "constant": true
    },
    {
      "inputs": [],
      "name": "INITIAL_ALLOCATION",
      "outputs": [
        {
          "internalType": "string",
          "name": "",
          "type": "string"
        }
      ],
      "stateMutability": "view",
      "type": "function",
      "constant": true
    },
    {
      "inputs": [],
      "name": "RESERVED_BNDES_ADMIN_FEE_TO_HASH",
      "outputs": [
        {
          "internalType": "uint8",
          "name": "",
          "type": "uint8"
        }
      ],
      "stateMutability": "view",
      "type": "function",
      "constant": true
    },
    {
      "inputs": [],
      "name": "RESERVED_MINTED_ACCOUNT",
      "outputs": [
        {
          "internalType": "uint8",
          "name": "",
          "type": "uint8"
        }
      ],
      "stateMutability": "view",
      "type": "function",
      "constant": true
    },
    {
      "inputs": [],
      "name": "RESERVED_NO_ADDITIONAL_FIELDS_TO_DIFF_MONEY",
      "outputs": [
        {
          "internalType": "uint8",
          "name": "",
          "type": "uint8"
        }
      ],
      "stateMutability": "view",
      "type": "function",
      "constant": true
    },
    {
      "inputs": [],
      "name": "RESERVED_NO_ADDITIONAL_FIELDS_TO_DONOR",
      "outputs": [
        {
          "internalType": "uint8",
          "name": "",
          "type": "uint8"
        }
      ],
      "stateMutability": "view",
      "type": "function",
      "constant": true
    },
    {
      "inputs": [],
      "name": "RESERVED_NO_ADDITIONAL_FIELDS_TO_SUPPLIER",
      "outputs": [
        {
          "internalType": "uint8",
          "name": "",
          "type": "uint8"
        }
      ],
      "stateMutability": "view",
      "type": "function",
      "constant": true
    },
    {
      "inputs": [],
      "name": "RESERVED_USUAL_DISBURSEMENTS_ACCOUNT",
      "outputs": [
        {
          "internalType": "uint8",
          "name": "",
          "type": "uint8"
        }
      ],
      "stateMutability": "view",
      "type": "function",
      "constant": true
    },
    {
      "inputs": [
        {
          "internalType": "address",
          "name": "account",
          "type": "address"
        }
      ],
      "name": "addPauser",
      "outputs": [],
      "stateMutability": "nonpayable",
      "type": "function"
    },
    {
      "inputs": [],
      "name": "bndesRoles",
      "outputs": [
        {
          "internalType": "contract FABndesToken_BNDESRoles",
          "name": "",
          "type": "address"
        }
      ],
      "stateMutability": "view",
      "type": "function",
      "constant": true
    },
    {
      "inputs": [
        {
          "internalType": "uint256",
          "name": "",
          "type": "uint256"
        },
        {
          "internalType": "string",
          "name": "",
          "type": "string"
        }
      ],
      "name": "clients",
      "outputs": [
        {
          "internalType": "bool",
          "name": "",
          "type": "bool"
        }
      ],
      "stateMutability": "view",
      "type": "function",
      "constant": true
    },
    {
      "inputs": [
        {
          "internalType": "uint256",
          "name": "",
          "type": "uint256"
        }
      ],
      "name": "donors",
      "outputs": [
        {
          "internalType": "bool",
          "name": "",
          "type": "bool"
        }
      ],
      "stateMutability": "view",
      "type": "function",
      "constant": true
    },
    {
      "inputs": [
        {
          "internalType": "uint256",
          "name": "",
          "type": "uint256"
        }
      ],
      "name": "hashApprovedExtraordinaryTransfers",
      "outputs": [
        {
          "internalType": "bytes32",
          "name": "",
          "type": "bytes32"
        }
      ],
      "stateMutability": "view",
      "type": "function",
      "constant": true
    },
    {
      "inputs": [
        {
          "internalType": "bytes32",
          "name": "",
          "type": "bytes32"
        }
      ],
      "name": "hashToIdFinancialSupportAgreement",
      "outputs": [
        {
          "internalType": "string",
          "name": "",
          "type": "string"
        }
      ],
      "stateMutability": "view",
      "type": "function",
      "constant": true
    },
    {
      "inputs": [],
      "name": "isOwner",
      "outputs": [
        {
          "internalType": "bool",
          "name": "",
          "type": "bool"
        }
      ],
      "stateMutability": "view",
      "type": "function",
      "constant": true
    },
    {
      "inputs": [
        {
          "internalType": "address",
          "name": "account",
          "type": "address"
        }
      ],
      "name": "isPauser",
      "outputs": [
        {
          "internalType": "bool",
          "name": "",
          "type": "bool"
        }
      ],
      "stateMutability": "view",
      "type": "function",
      "constant": true
    },
    {
      "inputs": [],
      "name": "owner",
      "outputs": [
        {
          "internalType": "address",
          "name": "",
          "type": "address"
        }
      ],
      "stateMutability": "view",
      "type": "function",
      "constant": true
    },
    {
      "inputs": [],
      "name": "pause",
      "outputs": [],
      "stateMutability": "nonpayable",
      "type": "function"
    },
    {
      "inputs": [],
      "name": "paused",
      "outputs": [
        {
          "internalType": "bool",
          "name": "",
          "type": "bool"
        }
      ],
      "stateMutability": "view",
      "type": "function",
      "constant": true
    },
    {
      "inputs": [],
      "name": "rbbToken",
      "outputs": [
        {
          "internalType": "contract RBBToken",
          "name": "",
          "type": "address"
        }
      ],
      "stateMutability": "view",
      "type": "function",
      "constant": true
    },
    {
      "inputs": [],
      "name": "registry",
      "outputs": [
        {
          "internalType": "contract RBBRegistry",
          "name": "",
          "type": "address"
        }
      ],
      "stateMutability": "view",
      "type": "function",
      "constant": true
    },
    {
      "inputs": [],
      "name": "renounceOwnership",
      "outputs": [],
      "stateMutability": "nonpayable",
      "type": "function"
    },
    {
      "inputs": [],
      "name": "renouncePauser",
      "outputs": [],
      "stateMutability": "nonpayable",
      "type": "function"
    },
    {
      "inputs": [
        {
          "internalType": "address",
          "name": "newRegistryAddr",
          "type": "address"
        }
      ],
      "name": "setInitializationDataDuringRegistration",
      "outputs": [],
      "stateMutability": "nonpayable",
      "type": "function"
    },
    {
      "inputs": [
        {
          "internalType": "uint256",
          "name": "",
          "type": "uint256"
        }
      ],
      "name": "suppliers",
      "outputs": [
        {
          "internalType": "bool",
          "name": "",
          "type": "bool"
        }
      ],
      "stateMutability": "view",
      "type": "function",
      "constant": true
    },
    {
      "inputs": [
        {
          "internalType": "address",
          "name": "newOwner",
          "type": "address"
        }
      ],
      "name": "transferOwnership",
      "outputs": [],
      "stateMutability": "nonpayable",
      "type": "function"
    },
    {
      "inputs": [],
      "name": "unpause",
      "outputs": [],
      "stateMutability": "nonpayable",
      "type": "function"
    },
    {
      "inputs": [
        {
          "internalType": "uint256",
          "name": "amount",
          "type": "uint256"
        },
        {
          "internalType": "bytes32",
          "name": "docHash",
          "type": "bytes32"
        }
      ],
      "name": "bookDonation",
      "outputs": [],
      "stateMutability": "nonpayable",
      "type": "function"
    },
    {
      "inputs": [
        {
          "internalType": "uint256",
          "name": "idDonor",
          "type": "uint256"
        },
        {
          "internalType": "bytes32",
          "name": "specificHash",
          "type": "bytes32"
        },
        {
          "internalType": "uint256",
          "name": "amount",
          "type": "uint256"
        },
        {
          "internalType": "bytes32",
          "name": "docHash",
          "type": "bytes32"
        },
        {
          "internalType": "string[]",
          "name": "data",
          "type": "string[]"
        }
      ],
      "name": "verifyAndActForMint",
      "outputs": [],
      "stateMutability": "nonpayable",
      "type": "function"
    },
    {
      "inputs": [
        {
          "internalType": "bytes32",
          "name": "specificHash",
          "type": "bytes32"
        }
      ],
      "name": "getHashToMintedAccount",
      "outputs": [
        {
          "internalType": "bytes32",
          "name": "",
          "type": "bytes32"
        }
      ],
      "stateMutability": "nonpayable",
      "type": "function"
    },
    {
      "inputs": [
        {
          "internalType": "address",
          "name": "originalSender",
          "type": "address"
        },
        {
          "internalType": "uint256",
          "name": "fromId",
          "type": "uint256"
        },
        {
          "internalType": "bytes32",
          "name": "fromHash",
          "type": "bytes32"
        },
        {
          "internalType": "uint256",
          "name": "toId",
          "type": "uint256"
        },
        {
          "internalType": "bytes32",
          "name": "toHash",
          "type": "bytes32"
        },
        {
          "internalType": "uint256",
          "name": "amount",
          "type": "uint256"
        },
        {
          "internalType": "bytes32",
          "name": "docHash",
          "type": "bytes32"
        },
        {
          "internalType": "string[]",
          "name": "data",
          "type": "string[]"
        }
      ],
      "name": "verifyAndActForTransfer",
      "outputs": [],
      "stateMutability": "nonpayable",
      "type": "function"
    },
    {
      "inputs": [
        {
          "internalType": "address",
          "name": "originalSender",
          "type": "address"
        },
        {
          "internalType": "uint256",
          "name": "fromId",
          "type": "uint256"
        },
        {
          "internalType": "bytes32",
          "name": "fromHash",
          "type": "bytes32"
        },
        {
          "internalType": "uint256",
          "name": "amount",
          "type": "uint256"
        },
        {
          "internalType": "bytes32",
          "name": "docHash",
          "type": "bytes32"
        },
        {
          "internalType": "string[]",
          "name": "data",
          "type": "string[]"
        }
      ],
      "name": "verifyAndActForRedeem",
      "outputs": [],
      "stateMutability": "nonpayable",
      "type": "function"
    },
    {
      "inputs": [
        {
          "internalType": "bytes32",
          "name": "redemptionTransactionHash",
          "type": "bytes32"
        },
        {
          "internalType": "bytes32",
          "name": "docHash",
          "type": "bytes32"
        },
        {
          "internalType": "string[]",
          "name": "data",
          "type": "string[]"
        }
      ],
      "name": "verifyAndActForRedemptionSettlement",
      "outputs": [],
      "stateMutability": "nonpayable",
      "type": "function"
    },
    {
      "inputs": [
        {
          "internalType": "uint256",
          "name": "info",
          "type": "uint256"
        }
      ],
      "name": "getCalculatedHash",
      "outputs": [
        {
          "internalType": "bytes32",
          "name": "",
          "type": "bytes32"
        }
      ],
      "stateMutability": "pure",
      "type": "function",
      "constant": true
    },
    {
      "inputs": [
        {
          "internalType": "string",
          "name": "info",
          "type": "string"
        }
      ],
      "name": "getCalculatedHash",
      "outputs": [
        {
          "internalType": "bytes32",
          "name": "",
          "type": "bytes32"
        }
      ],
      "stateMutability": "pure",
      "type": "function",
      "constant": true
    },
    {
      "inputs": [
        {
          "internalType": "uint256",
          "name": "fromId",
          "type": "uint256"
        },
        {
          "internalType": "bytes32",
          "name": "fromHash",
          "type": "bytes32"
        },
        {
          "internalType": "uint256",
          "name": "toId",
          "type": "uint256"
        },
        {
          "internalType": "bytes32",
          "name": "toHash",
          "type": "bytes32"
        },
        {
          "internalType": "uint256",
          "name": "amount",
          "type": "uint256"
        },
        {
          "internalType": "bytes32",
          "name": "docHash",
          "type": "bytes32"
        }
      ],
      "name": "authorizeExtraordinaryTransfer",
      "outputs": [],
      "stateMutability": "nonpayable",
      "type": "function"
    },
    {
      "inputs": [
        {
          "internalType": "uint256",
          "name": "idDonor",
          "type": "uint256"
        }
      ],
      "name": "addDonor",
      "outputs": [],
      "stateMutability": "nonpayable",
      "type": "function"
    },
    {
      "inputs": [
        {
          "internalType": "uint256",
          "name": "id",
          "type": "uint256"
        }
      ],
      "name": "addSupplier",
      "outputs": [],
      "stateMutability": "nonpayable",
      "type": "function"
    }
  ],
  "bytecode": "0x60806040526040518060400160405280601281526020017f494e495449414c5f414c4c4f434154494f4e0000000000000000000000000000815250600a908051906020019062000051929190620005c1565b506040518060400160405280601981526020017f44495342555253454d454e545f564552494649434154494f4e00000000000000815250600b90805190602001906200009f929190620005c1565b506040518060400160405280602081526020017f434c49454e545f5041595f535550504c4945525f564552494649434154494f4e815250600c9080519060200190620000ed929190620005c1565b506040518060400160405280601f81526020017f424e4445535f5041595f535550504c4945525f564552494649434154494f4e00815250600d90805190602001906200013b929190620005c1565b506040518060400160405280601781526020017f45585452414f5244494e4152595f5452414e5346455253000000000000000000815250600e908051906020019062000189929190620005c1565b506000600f60006101000a81548160ff021916908360ff1602179055506001600f60016101000a81548160ff021916908360ff1602179055506002600f60026101000a81548160ff021916908360ff160217905550600a600f60036101000a81548160ff021916908360ff1602179055506014600f60046101000a81548160ff021916908360ff160217905550601e600f60056101000a81548160ff021916908360ff1602179055503480156200023f57600080fd5b50604051620067c6380380620067c683398181016040528101906200026591906200067e565b600062000277620003da60201b60201c565b9050806000806101000a81548173ffffffffffffffffffffffffffffffffffffffff021916908373ffffffffffffffffffffffffffffffffffffffff1602179055508073ffffffffffffffffffffffffffffffffffffffff16600073ffffffffffffffffffffffffffffffffffffffff167f8be0079c531659141344cd1fd0a4f28419497f9722a3daafe3b4186f6b6457e060405160405180910390a3506200033562000329620003da60201b60201c565b620003e260201b60201c565b6000600260006101000a81548160ff02191690831515021790555081600360006101000a81548173ffffffffffffffffffffffffffffffffffffffff021916908373ffffffffffffffffffffffffffffffffffffffff16021790555080600460006101000a81548173ffffffffffffffffffffffffffffffffffffffff021916908373ffffffffffffffffffffffffffffffffffffffff16021790555050506200080c565b600033905090565b620003fd8160016200044360201b620025561790919060201c565b8073ffffffffffffffffffffffffffffffffffffffff167f6719d08c1888103bea251a4ed56406bd0c3e69723c8a1686e017e7bbe159b6f860405160405180910390a250565b620004558282620004f660201b60201c565b1562000498576040517f08c379a00000000000000000000000000000000000000000000000000000000081526004016200048f9062000769565b60405180910390fd5b60018260000160008373ffffffffffffffffffffffffffffffffffffffff1673ffffffffffffffffffffffffffffffffffffffff16815260200190815260200160002060006101000a81548160ff0219169083151502179055505050565b60008073ffffffffffffffffffffffffffffffffffffffff168273ffffffffffffffffffffffffffffffffffffffff1614156200056a576040517f08c379a000000000000000000000000000000000000000000000000000000000815260040162000561906200078b565b60405180910390fd5b8260000160008373ffffffffffffffffffffffffffffffffffffffff1673ffffffffffffffffffffffffffffffffffffffff16815260200190815260200160002060009054906101000a900460ff16905092915050565b828054600181600116156101000203166002900490600052602060002090601f016020900481019282601f106200060457805160ff191683800117855562000635565b8280016001018555821562000635579182015b828111156200063457825182559160200191906001019062000617565b5b50905062000644919062000648565b5090565b5b808211156200066357600081600090555060010162000649565b5090565b6000815190506200067881620007f2565b92915050565b600080604083850312156200069257600080fd5b6000620006a28582860162000667565b9250506020620006b58582860162000667565b9150509250929050565b6000620006ce601f83620007ad565b91507f526f6c65733a206163636f756e7420616c72656164792068617320726f6c65006000830152602082019050919050565b600062000710602283620007ad565b91507f526f6c65733a206163636f756e7420697320746865207a65726f20616464726560008301527f73730000000000000000000000000000000000000000000000000000000000006020830152604082019050919050565b600060208201905081810360008301526200078481620006bf565b9050919050565b60006020820190508181036000830152620007a68162000701565b9050919050565b600082825260208201905092915050565b6000620007cb82620007d2565b9050919050565b600073ffffffffffffffffffffffffffffffffffffffff82169050919050565b620007fd81620007be565b81146200080957600080fd5b50565b615faa806200081c6000396000f3fe608060405234801561001057600080fd5b50600436106102535760003560e01c80638404e6e011610146578063cc70091a116100c3578063df8d2abf11610087578063df8d2abf1461068c578063e04e624b146106aa578063e4c7426f146106da578063f2fde38b146106f8578063fa7ca7ea14610714578063fc4b505d1461074457610253565b8063cc70091a146105b0578063cd541b7a146105e0578063cea2312114610610578063d91be4c214610640578063daeb1cc91461065c57610253565b8063942429e41161010a578063942429e41461050e578063a6ee26e11461053e578063b201a7771461055a578063ba6ad85314610578578063ca196e3c1461059457610253565b80638404e6e01461048c5780638456cb59146104aa5780638da5cb5b146104b45780638e669481146104d25780638f32d59b146104f057610253565b80635a961b15116101d45780636ef8d66d116101985780636ef8d66d146104205780636f3050671461042a578063715018a6146104485780637b1039991461045257806382dc1ec41461047057610253565b80635a961b151461038c5780635b50875a146103aa5780635c975abb146103c85780635f23e09e146103e657806367da3e851461040257610253565b80633f4ba83a1161021b5780633f4ba83a146102ea57806341574b3b146102f457806346fbf68e146103105780634abfa1631461034057806355a2456e1461037057610253565b80630715aa6e1461025857806307728f0f146102765780630990da731461029457806317251ba9146102b057806324547b8a146102cc575b600080fd5b610260610762565b60405161026d9190615cc7565b60405180910390f35b61027e610775565b60405161028b9190615683565b60405180910390f35b6102ae60048036038101906102a99190614304565b610813565b005b6102ca60048036038101906102c59190614276565b6109f1565b005b6102d4610bae565b6040516102e19190615cc7565b60405180910390f35b6102f2610bc1565b005b61030e600480360381019061030991906140b2565b610cba565b005b61032a60048036038101906103259190613fbf565b61117b565b604051610337919061558e565b60405180910390f35b61035a60048036038101906103559190614276565b611198565b604051610367919061558e565b60405180910390f35b61038a60048036038101906103859190613fbf565b6111b8565b005b6103946111fc565b6040516103a19190615683565b60405180910390f35b6103b261129a565b6040516103bf9190615cc7565b60405180910390f35b6103d06112ad565b6040516103dd919061558e565b60405180910390f35b61040060048036038101906103fb9190614393565b6112c4565b005b61040a611509565b6040516104179190615683565b60405180910390f35b6104286115a7565b005b6104326115b9565b60405161043f9190615cc7565b60405180910390f35b6104506115cc565b005b61045a6116d1565b604051610467919061564d565b60405180910390f35b61048a60048036038101906104859190613fbf565b6116f7565b005b610494611752565b6040516104a19190615cc7565b60405180910390f35b6104b2611765565b005b6104bc61185f565b6040516104c99190615558565b60405180910390f35b6104da611888565b6040516104e79190615683565b60405180910390f35b6104f8611926565b604051610505919061558e565b60405180910390f35b61052860048036038101906105239190614276565b611984565b60405161053591906155a9565b60405180910390f35b610558600480360381019061055391906141ce565b6119b4565b005b610562611ad2565b60405161056f9190615cc7565b60405180910390f35b610592600480360381019061058d9190614011565b611ae5565b005b6105ae60048036038101906105a99190614276565b611d07565b005b6105ca60048036038101906105c59190614235565b611f53565b6040516105d791906155a9565b60405180910390f35b6105fa60048036038101906105f591906141a5565b611f83565b60405161060791906155a9565b60405180910390f35b61062a60048036038101906106259190614276565b611fa7565b604051610637919061558e565b60405180910390f35b61065a600480360381019061065591906142c8565b611fc7565b005b6106766004803603810190610671919061441c565b612303565b604051610683919061558e565b60405180910390f35b610694612348565b6040516106a19190615632565b60405180910390f35b6106c460048036038101906106bf91906141a5565b61236e565b6040516106d19190615683565b60405180910390f35b6106e261241e565b6040516106ef9190615668565b60405180910390f35b610712600480360381019061070d9190613fbf565b612444565b005b61072e60048036038101906107299190614276565b612497565b60405161073b91906155a9565b60405180910390f35b61074c6124b8565b6040516107599190615683565b60405180910390f35b600f60009054906101000a900460ff1681565b600a8054600181600116156101000203166002900480601f01602080910402602001604051908101604052809291908181526020018280546001816001161561010002031660029004801561080b5780601f106107e05761010080835404028352916020019161080b565b820191906000526020600020905b8154815290600101906020018083116107ee57829003601f168201915b505050505081565b600260009054906101000a900460ff1615610863576040517f08c379a000000000000000000000000000000000000000000000000000000000815260040161085a9061589c565b60405180910390fd5b600360009054906101000a900473ffffffffffffffffffffffffffffffffffffffff1673ffffffffffffffffffffffffffffffffffffffff163373ffffffffffffffffffffffffffffffffffffffff16146108f3576040517f08c379a00000000000000000000000000000000000000000000000000000000081526004016108ea90615adc565b60405180910390fd5b8361090f600f60059054906101000a900460ff1660ff16611984565b1461094f576040517f08c379a00000000000000000000000000000000000000000000000000000000081526004016109469061595c565b60405180910390fd5b6005600086815260200190815260200160002060009054906101000a900460ff166109af576040517f08c379a00000000000000000000000000000000000000000000000000000000081526004016109a6906159fc565b60405180910390fd5b7f5d4d346a0213ff920be5c680b2dae20438f8a3447c0b4bd37268d1d2f523432a8584846040516109e293929190615c90565b60405180910390a15050505050565b6109f9611926565b610a38576040517f08c379a0000000000000000000000000000000000000000000000000000000008152600401610a2f9061599c565b60405180910390fd5b600260019054906101000a900473ffffffffffffffffffffffffffffffffffffffff1673ffffffffffffffffffffffffffffffffffffffff1663613a7896826040518263ffffffff1660e01b8152600401610a939190615b1c565b60206040518083038186803b158015610aab57600080fd5b505afa158015610abf573d6000803e3d6000fd5b505050506040513d601f19601f82011682018060405250810190610ae3919061417c565b610b22576040517f08c379a0000000000000000000000000000000000000000000000000000000008152600401610b19906158dc565b60405180910390fd5b6005600082815260200190815260200160002060009054906101000a900460ff16610bab5760016005600083815260200190815260200160002060006101000a81548160ff0219169083151502179055507fbf594816977ea5809bf299bfeeb10d2cb41e25a998a19fafe5460164b3cdb08b81604051610ba29190615b1c565b60405180910390a15b50565b600f60019054906101000a900460ff1681565b610bd1610bcc6125fe565b61117b565b610c10576040517f08c379a0000000000000000000000000000000000000000000000000000000008152600401610c079061575c565b60405180910390fd5b600260009054906101000a900460ff16610c5f576040517f08c379a0000000000000000000000000000000000000000000000000000000008152600401610c56906156dc565b60405180910390fd5b6000600260006101000a81548160ff0219169083151502179055507f5db9ee0a495bf2e6ff9c91a7834c1ba4fdd244a5e8aa4e537bd38aeae4b073aa610ca36125fe565b604051610cb09190615573565b60405180910390a1565b600260009054906101000a900460ff1615610d0a576040517f08c379a0000000000000000000000000000000000000000000000000000000008152600401610d019061589c565b60405180910390fd5b600360009054906101000a900473ffffffffffffffffffffffffffffffffffffffff1673ffffffffffffffffffffffffffffffffffffffff163373ffffffffffffffffffffffffffffffffffffffff1614610d9a576040517f08c379a0000000000000000000000000000000000000000000000000000000008152600401610d9190615adc565b60405180910390fd5b606081600081518110610da957fe5b6020026020010151905060008411610df6576040517f08c379a0000000000000000000000000000000000000000000000000000000008152600401610ded9061585c565b60405180910390fd5b73__RBBLib________________________________63465c4105600a836040518363ffffffff1660e01b8152600401610e309291906156a5565b60206040518083038186803b158015610e4857600080fd5b505af4158015610e5c573d6000803e3d6000fd5b505050506040513d601f19601f82011682018060405250810190610e80919061417c565b15610e9a57610e958989898989898989612606565b611170565b73__RBBLib________________________________63465c4105600b836040518363ffffffff1660e01b8152600401610ed49291906156a5565b60206040518083038186803b158015610eec57600080fd5b505af4158015610f00573d6000803e3d6000fd5b505050506040513d601f19601f82011682018060405250810190610f24919061417c565b15610f3e57610f398989898989898989612a07565b61116f565b73__RBBLib________________________________63465c4105600c836040518363ffffffff1660e01b8152600401610f789291906156a5565b60206040518083038186803b158015610f9057600080fd5b505af4158015610fa4573d6000803e3d6000fd5b505050506040513d601f19601f82011682018060405250810190610fc8919061417c565b15610fe257610fdd8989898989898989612d6e565b61116e565b73__RBBLib________________________________63465c4105600d836040518363ffffffff1660e01b815260040161101c9291906156a5565b60206040518083038186803b15801561103457600080fd5b505af4158015611048573d6000803e3d6000fd5b505050506040513d601f19601f8201168201806040525081019061106c919061417c565b15611086576110818989898989898989613011565b61116d565b73__RBBLib________________________________63465c4105600e836040518363ffffffff1660e01b81526004016110c09291906156a5565b60206040518083038186803b1580156110d857600080fd5b505af41580156110ec573d6000803e3d6000fd5b505050506040513d601f19601f82011682018060405250810190611110919061417c565b1561112a5761112589898989898989896133a1565b61116c565b600061116b576040517f08c379a0000000000000000000000000000000000000000000000000000000008152600401611162906159dc565b60405180910390fd5b5b5b5b5b5b505050505050505050565b60006111918260016135e690919063ffffffff16565b9050919050565b60056020528060005260406000206000915054906101000a900460ff1681565b80600260016101000a81548173ffffffffffffffffffffffffffffffffffffffff021916908373ffffffffffffffffffffffffffffffffffffffff16021790555050565b600e8054600181600116156101000203166002900480601f0160208091040260200160405190810160405280929190818152602001828054600181600116156101000203166002900480156112925780601f1061126757610100808354040283529160200191611292565b820191906000526020600020905b81548152906001019060200180831161127557829003601f168201915b505050505081565b600f60039054906101000a900460ff1681565b6000600260009054906101000a900460ff16905090565b3373ffffffffffffffffffffffffffffffffffffffff16600460009054906101000a900473ffffffffffffffffffffffffffffffffffffffff1673ffffffffffffffffffffffffffffffffffffffff16630b2e8fe96040518163ffffffff1660e01b815260040160206040518083038186803b15801561134357600080fd5b505afa158015611357573d6000803e3d6000fd5b505050506040513d601f19601f8201168201806040525081019061137b9190613fe8565b73ffffffffffffffffffffffffffffffffffffffff16146113d1576040517f08c379a00000000000000000000000000000000000000000000000000000000081526004016113c89061581c565b60405180910390fd5b6113db86866136ae565b61141a576040517f08c379a0000000000000000000000000000000000000000000000000000000008152600401611411906158fc565b60405180910390fd5b61142484846136ae565b611463576040517f08c379a000000000000000000000000000000000000000000000000000000000815260040161145a9061571c565b60405180910390fd5b6000868686868660405160200161147e9594939291906154f9565b60405160208183030381529060405280519060200120905060098190806001815401808255809150506001900390600052602060002001600090919091909150557f8fbc7818210c8d0cab55b36028efc60a3f6e71aa8ad8a2abb88cd9ba5f8167358787878787876040516114f896959493929190615b60565b60405180910390a150505050505050565b600c8054600181600116156101000203166002900480601f01602080910402602001604051908101604052809291908181526020018280546001816001161561010002031660029004801561159f5780601f106115745761010080835404028352916020019161159f565b820191906000526020600020905b81548152906001019060200180831161158257829003601f168201915b505050505081565b6115b76115b26125fe565b613a59565b565b600f60029054906101000a900460ff1681565b6115d4611926565b611613576040517f08c379a000000000000000000000000000000000000000000000000000000000815260040161160a9061599c565b60405180910390fd5b600073ffffffffffffffffffffffffffffffffffffffff1660008054906101000a900473ffffffffffffffffffffffffffffffffffffffff1673ffffffffffffffffffffffffffffffffffffffff167f8be0079c531659141344cd1fd0a4f28419497f9722a3daafe3b4186f6b6457e060405160405180910390a360008060006101000a81548173ffffffffffffffffffffffffffffffffffffffff021916908373ffffffffffffffffffffffffffffffffffffffff160217905550565b600260019054906101000a900473ffffffffffffffffffffffffffffffffffffffff1681565b6117076117026125fe565b61117b565b611746576040517f08c379a000000000000000000000000000000000000000000000000000000000815260040161173d9061575c565b60405180910390fd5b61174f81613ab3565b50565b600f60049054906101000a900460ff1681565b6117756117706125fe565b61117b565b6117b4576040517f08c379a00000000000000000000000000000000000000000000000000000000081526004016117ab9061575c565b60405180910390fd5b600260009054906101000a900460ff1615611804576040517f08c379a00000000000000000000000000000000000000000000000000000000081526004016117fb9061589c565b60405180910390fd5b6001600260006101000a81548160ff0219169083151502179055507f62e78cea01bee320cd4e420270b5ea74000d11b0c9f74754ebdbfc544b05a2586118486125fe565b6040516118559190615573565b60405180910390a1565b60008060009054906101000a900473ffffffffffffffffffffffffffffffffffffffff16905090565b600b8054600181600116156101000203166002900480601f01602080910402602001604051908101604052809291908181526020018280546001816001161561010002031660029004801561191e5780601f106118f35761010080835404028352916020019161191e565b820191906000526020600020905b81548152906001019060200180831161190157829003601f168201915b505050505081565b60008060009054906101000a900473ffffffffffffffffffffffffffffffffffffffff1673ffffffffffffffffffffffffffffffffffffffff166119686125fe565b73ffffffffffffffffffffffffffffffffffffffff1614905090565b60008160405160200161199791906154de565b604051602081830303815290604052805190602001209050919050565b600260009054906101000a900460ff1615611a04576040517f08c379a00000000000000000000000000000000000000000000000000000000081526004016119fb9061589c565b60405180910390fd5b600360009054906101000a900473ffffffffffffffffffffffffffffffffffffffff1673ffffffffffffffffffffffffffffffffffffffff163373ffffffffffffffffffffffffffffffffffffffff1614611a94576040517f08c379a0000000000000000000000000000000000000000000000000000000008152600401611a8b90615adc565b60405180910390fd5b7ff2117f45bb026f7f165d939836d0293bad4b8aaf2e658cb38900da27a81306558383604051611ac59291906155c4565b60405180910390a1505050565b600f60059054906101000a900460ff1681565b600260009054906101000a900460ff1615611b35576040517f08c379a0000000000000000000000000000000000000000000000000000000008152600401611b2c9061589c565b60405180910390fd5b600360009054906101000a900473ffffffffffffffffffffffffffffffffffffffff1673ffffffffffffffffffffffffffffffffffffffff163373ffffffffffffffffffffffffffffffffffffffff1614611bc5576040517f08c379a0000000000000000000000000000000000000000000000000000000008152600401611bbc90615adc565b60405180910390fd5b60008311611c08576040517f08c379a0000000000000000000000000000000000000000000000000000000008152600401611bff9061585c565b60405180910390fd5b6008600086815260200190815260200160002060009054906101000a900460ff16611c68576040517f08c379a0000000000000000000000000000000000000000000000000000000008152600401611c5f9061583c565b60405180910390fd5b83611c84600f60049054906101000a900460ff1660ff16611984565b14611cc4576040517f08c379a0000000000000000000000000000000000000000000000000000000008152600401611cbb9061587c565b60405180910390fd5b7fb30495d559e05f5f1c993ea722cb239b6d85f70ed9c914b8350c4b94feed7ccd858484604051611cf793929190615c90565b60405180910390a1505050505050565b600460009054906101000a900473ffffffffffffffffffffffffffffffffffffffff1673ffffffffffffffffffffffffffffffffffffffff16638cabf1286040518163ffffffff1660e01b815260040160206040518083038186803b158015611d6f57600080fd5b505afa158015611d83573d6000803e3d6000fd5b505050506040513d601f19601f82011682018060405250810190611da79190613fe8565b73ffffffffffffffffffffffffffffffffffffffff163373ffffffffffffffffffffffffffffffffffffffff1614611e14576040517f08c379a0000000000000000000000000000000000000000000000000000000008152600401611e0b906158bc565b60405180910390fd5b6008600082815260200190815260200160002060009054906101000a900460ff16611f505760016008600083815260200190815260200160002060006101000a81548160ff0219169083151502179055507f2757aa27a660ab391745e035b5a23653f6497d768c445f6a9c3df78e1d18727f600260019054906101000a900473ffffffffffffffffffffffffffffffffffffffff1673ffffffffffffffffffffffffffffffffffffffff166365f68c89611ecc61185f565b6040518263ffffffff1660e01b8152600401611ee89190615558565b60206040518083038186803b158015611f0057600080fd5b505afa158015611f14573d6000803e3d6000fd5b505050506040513d601f19601f82011682018060405250810190611f38919061429f565b82604051611f47929190615c67565b60405180910390a15b50565b600081604051602001611f6691906154c7565b604051602081830303815290604052805190602001209050919050565b6000611fa0600f60009054906101000a900460ff1660ff16611984565b9050919050565b60086020528060005260406000206000915054906101000a900460ff1681565b600260009054906101000a900460ff1615612017576040517f08c379a000000000000000000000000000000000000000000000000000000000815260040161200e9061589c565b60405180910390fd5b6000600260019054906101000a900473ffffffffffffffffffffffffffffffffffffffff1673ffffffffffffffffffffffffffffffffffffffff166365f68c89336040518263ffffffff1660e01b81526004016120749190615573565b60206040518083038186803b15801561208c57600080fd5b505afa1580156120a0573d6000803e3d6000fd5b505050506040513d601f19601f820116820180604052508101906120c4919061429f565b90506005600082815260200190815260200160002060009054906101000a900460ff16612126576040517f08c379a000000000000000000000000000000000000000000000000000000000815260040161211d9061597c565b60405180910390fd5b600260019054906101000a900473ffffffffffffffffffffffffffffffffffffffff1673ffffffffffffffffffffffffffffffffffffffff1663613a7896826040518263ffffffff1660e01b81526004016121819190615b1c565b60206040518083038186803b15801561219957600080fd5b505afa1580156121ad573d6000803e3d6000fd5b505050506040513d601f19601f820116820180604052508101906121d1919061417c565b612210576040517f08c379a0000000000000000000000000000000000000000000000000000000008152600401612207906158dc565b60405180910390fd5b600061222d600f60059054906101000a900460ff1660ff16611984565b9050600360009054906101000a900473ffffffffffffffffffffffffffffffffffffffff1673ffffffffffffffffffffffffffffffffffffffff166304cc4d8e828487876040518563ffffffff1660e01b815260040161229094939291906155ed565b600060405180830381600087803b1580156122aa57600080fd5b505af11580156122be573d6000803e3d6000fd5b505050507f1bb5ed67b2bbb22aaf99cdcf7dbcf09ad7b4e3999dab8f77fd76c207b6e226da8285856040516122f593929190615c90565b60405180910390a150505050565b6006602052816000526040600020818051602081018201805184825260208301602085012081835280955050505050506000915091509054906101000a900460ff1681565b600460009054906101000a900473ffffffffffffffffffffffffffffffffffffffff1681565b60076020528060005260406000206000915090508054600181600116156101000203166002900480601f0160208091040260200160405190810160405280929190818152602001828054600181600116156101000203166002900480156124165780601f106123eb57610100808354040283529160200191612416565b820191906000526020600020905b8154815290600101906020018083116123f957829003601f168201915b505050505081565b600360009054906101000a900473ffffffffffffffffffffffffffffffffffffffff1681565b61244c611926565b61248b576040517f08c379a00000000000000000000000000000000000000000000000000000000081526004016124829061599c565b60405180910390fd5b61249481613b0d565b50565b600981815481106124a457fe5b906000526020600020016000915090505481565b600d8054600181600116156101000203166002900480601f01602080910402602001604051908101604052809291908181526020018280546001816001161561010002031660029004801561254e5780601f106125235761010080835404028352916020019161254e565b820191906000526020600020905b81548152906001019060200180831161253157829003601f168201915b505050505081565b61256082826135e6565b156125a0576040517f08c379a0000000000000000000000000000000000000000000000000000000008152600401612597906156fc565b60405180910390fd5b60018260000160008373ffffffffffffffffffffffffffffffffffffffff1673ffffffffffffffffffffffffffffffffffffffff16815260200190815260200160002060006101000a81548160ff0219169083151502179055505050565b600033905090565b600260009054906101000a900460ff1615612656576040517f08c379a000000000000000000000000000000000000000000000000000000000815260040161264d9061589c565b60405180910390fd5b8773ffffffffffffffffffffffffffffffffffffffff16600460009054906101000a900473ffffffffffffffffffffffffffffffffffffffff1673ffffffffffffffffffffffffffffffffffffffff1663329afd3a6040518163ffffffff1660e01b815260040160206040518083038186803b1580156126d557600080fd5b505afa1580156126e9573d6000803e3d6000fd5b505050506040513d601f19601f8201168201806040525081019061270d9190613fe8565b73ffffffffffffffffffffffffffffffffffffffff1614612763576040517f08c379a000000000000000000000000000000000000000000000000000000000815260040161275a90615a3c565b60405180910390fd5b6000600260019054906101000a900473ffffffffffffffffffffffffffffffffffffffff1673ffffffffffffffffffffffffffffffffffffffff166365f68c896127ab61185f565b6040518263ffffffff1660e01b81526004016127c79190615558565b60206040518083038186803b1580156127df57600080fd5b505afa1580156127f3573d6000803e3d6000fd5b505050506040513d601f19601f82011682018060405250810190612817919061429f565b905080881461285b576040517f08c379a000000000000000000000000000000000000000000000000000000000815260040161285290615a9c565b60405180910390fd5b612876600f60009054906101000a900460ff1660ff16611984565b87146128b7576040517f08c379a00000000000000000000000000000000000000000000000000000000081526004016128ae90615a7c565b60405180910390fd5b8588146128f9576040517f08c379a00000000000000000000000000000000000000000000000000000000081526004016128f09061593c565b60405180910390fd5b612914600f60019054906101000a900460ff1660ff16611984565b851415612959577f94d89c2ff047eba28eb56cacf5a8e292f150c43e792d648d54f8b93372849b3c848460405161294c929190615b37565b60405180910390a16129fc565b612974600f60029054906101000a900460ff1660ff16611984565b8514156129b9577f7916e578b526c14777538bb519e208901510a7ff7765e2e339258b6ba65272fc84846040516129ac929190615b37565b60405180910390a16129fb565b60006129fa576040517f08c379a00000000000000000000000000000000000000000000000000000000081526004016129f190615abc565b60405180910390fd5b5b5b505050505050505050565b600260009054906101000a900460ff1615612a57576040517f08c379a0000000000000000000000000000000000000000000000000000000008152600401612a4e9061589c565b60405180910390fd5b606081600181518110612a6657fe5b602002602001015190506000600260019054906101000a900473ffffffffffffffffffffffffffffffffffffffff1673ffffffffffffffffffffffffffffffffffffffff166365f68c89612ab861185f565b6040518263ffffffff1660e01b8152600401612ad49190615558565b60206040518083038186803b158015612aec57600080fd5b505afa158015612b00573d6000803e3d6000fd5b505050506040513d601f19601f82011682018060405250810190612b24919061429f565b9050600460009054906101000a900473ffffffffffffffffffffffffffffffffffffffff1673ffffffffffffffffffffffffffffffffffffffff16638cabf1286040518163ffffffff1660e01b815260040160206040518083038186803b158015612b8e57600080fd5b505afa158015612ba2573d6000803e3d6000fd5b505050506040513d601f19601f82011682018060405250810190612bc69190613fe8565b73ffffffffffffffffffffffffffffffffffffffff168a73ffffffffffffffffffffffffffffffffffffffff1614612c33576040517f08c379a0000000000000000000000000000000000000000000000000000000008152600401612c2a906158bc565b60405180910390fd5b808914612c75576040517f08c379a0000000000000000000000000000000000000000000000000000000008152600401612c6c90615a9c565b60405180910390fd5b87612c91600f60019054906101000a900460ff1660ff16611984565b14612cd1576040517f08c379a0000000000000000000000000000000000000000000000000000000008152600401612cc8906157fc565b60405180910390fd5b85612cdb83611f53565b14612d1b576040517f08c379a0000000000000000000000000000000000000000000000000000000008152600401612d1290615afc565b60405180910390fd5b612d258783613c3a565b7fe08d0d3d48ef9857108be67cfe715057ce9b455eaf3a4d3b66f34bf148311d7a87838787604051612d5a9493929190615bc1565b60405180910390a150505050505050505050565b600260009054906101000a900460ff1615612dbe576040517f08c379a0000000000000000000000000000000000000000000000000000000008152600401612db59061589c565b60405180910390fd5b606081600181518110612dcd57fe5b602002602001015190506006600089815260200190815260200160002081604051612df891906154c7565b908152602001604051809103902060009054906101000a900460ff16612e53576040517f08c379a0000000000000000000000000000000000000000000000000000000008152600401612e4a9061577c565b60405180910390fd5b86612e5d82611f53565b14612e9d576040517f08c379a0000000000000000000000000000000000000000000000000000000008152600401612e9490615afc565b60405180910390fd5b84612eb9600f60049054906101000a900460ff1660ff16611984565b14612ef9576040517f08c379a0000000000000000000000000000000000000000000000000000000008152600401612ef09061587c565b60405180910390fd5b85881415612f3c576040517f08c379a0000000000000000000000000000000000000000000000000000000008152600401612f33906157dc565b60405180910390fd5b6008600087815260200190815260200160002060009054906101000a900460ff16612fc75760016008600088815260200190815260200160002060006101000a81548160ff0219169083151502179055507f2757aa27a660ab391745e035b5a23653f6497d768c445f6a9c3df78e1d18727f8887604051612fbe929190615c67565b60405180910390a15b7fdd62ead748da3466d84db25e6f55c3213f29aaf5c159d4d576018cd8420978268882888787604051612ffe959493929190615c0d565b60405180910390a1505050505050505050565b600260009054906101000a900460ff1615613061576040517f08c379a00000000000000000000000000000000000000000000000000000000081526004016130589061589c565b60405180910390fd5b600460009054906101000a900473ffffffffffffffffffffffffffffffffffffffff1673ffffffffffffffffffffffffffffffffffffffff16638cabf1286040518163ffffffff1660e01b815260040160206040518083038186803b1580156130c957600080fd5b505afa1580156130dd573d6000803e3d6000fd5b505050506040513d601f19601f820116820180604052508101906131019190613fe8565b73ffffffffffffffffffffffffffffffffffffffff168873ffffffffffffffffffffffffffffffffffffffff161461316e576040517f08c379a0000000000000000000000000000000000000000000000000000000008152600401613165906158bc565b60405180910390fd5b600260019054906101000a900473ffffffffffffffffffffffffffffffffffffffff1673ffffffffffffffffffffffffffffffffffffffff166365f68c896131b461185f565b6040518263ffffffff1660e01b81526004016131d09190615558565b60206040518083038186803b1580156131e857600080fd5b505afa1580156131fc573d6000803e3d6000fd5b505050506040513d601f19601f82011682018060405250810190613220919061429f565b8714613261576040517f08c379a00000000000000000000000000000000000000000000000000000000081526004016132589061579c565b60405180910390fd5b8561327d600f60029054906101000a900460ff1660ff16611984565b146132bd576040517f08c379a00000000000000000000000000000000000000000000000000000000081526004016132b490615a5c565b60405180910390fd5b836132d9600f60049054906101000a900460ff1660ff16611984565b14613319576040517f08c379a00000000000000000000000000000000000000000000000000000000081526004016133109061587c565b60405180910390fd5b8487141561335c576040517f08c379a000000000000000000000000000000000000000000000000000000000815260040161335390615a1c565b60405180910390fd5b7f8316c04a0a2b1e71f63264f2f0380d43ae9f758672a97012d6880fcedcb5423285848460405161338f93929190615c90565b60405180910390a15050505050505050565b600260009054906101000a900460ff16156133f1576040517f08c379a00000000000000000000000000000000000000000000000000000000081526004016133e89061589c565b60405180910390fd5b6133fb87876136ae565b61343a576040517f08c379a0000000000000000000000000000000000000000000000000000000008152600401613431906158fc565b60405180910390fd5b61344485856136ae565b613483576040517f08c379a000000000000000000000000000000000000000000000000000000000815260040161347a9061571c565b60405180910390fd5b6000878787878760405160200161349e9594939291906154f9565b6040516020818303038152906040528051906020012090506000805b6009805490508110156134fc5782600982815481106134d557fe5b906000526020600020015414156134ef57600191506134fc565b80806001019150506134ba565b8161353c576040517f08c379a00000000000000000000000000000000000000000000000000000000081526004016135339061573c565b60405180910390fd5b60096001600980549050038154811061355157fe5b90600052602060002001546009828154811061356957fe5b9060005260206000200181905550600980548061358257fe5b600190038181906000526020600020016000905590557fae2b72cc4621b123feac073da32309bdd45fefaa49154814cd8c8b3c7c4d5cb78a8a8a8a8a8a6040516135d196959493929190615b60565b60405180910390a15050505050505050505050565b60008073ffffffffffffffffffffffffffffffffffffffff168273ffffffffffffffffffffffffffffffffffffffff161415613657576040517f08c379a000000000000000000000000000000000000000000000000000000000815260040161364e906159bc565b60405180910390fd5b8260000160008373ffffffffffffffffffffffffffffffffffffffff1673ffffffffffffffffffffffffffffffffffffffff16815260200190815260200160002060009054906101000a900460ff16905092915050565b6000600115156005600085815260200190815260200160002060009054906101000a900460ff16151514156136e65760019050613a53565b6060600760008481526020019081526020016000208054600181600116156101000203166002900480601f01602080910402602001604051908101604052809291908181526020018280546001816001161561010002031660029004801561378f5780601f106137645761010080835404028352916020019161378f565b820191906000526020600020905b81548152906001019060200180831161377257829003601f168201915b505050505090506001151560066000868152602001908152602001600020826040516137bb91906154c7565b908152602001604051809103902060009054906101000a900460ff16151514156137e9576001915050613a53565b600115156008600086815260200190815260200160002060009054906101000a900460ff1615151415613820576001915050613a53565b6000600260019054906101000a900473ffffffffffffffffffffffffffffffffffffffff1673ffffffffffffffffffffffffffffffffffffffff166365f68c8961386861185f565b6040518263ffffffff1660e01b81526004016138849190615558565b60206040518083038186803b15801561389c57600080fd5b505afa1580156138b0573d6000803e3d6000fd5b505050506040513d601f19601f820116820180604052508101906138d4919061429f565b9050848114156138e957600192505050613a53565b6000600260019054906101000a900473ffffffffffffffffffffffffffffffffffffffff1673ffffffffffffffffffffffffffffffffffffffff166365f68c89600360009054906101000a900473ffffffffffffffffffffffffffffffffffffffff1673ffffffffffffffffffffffffffffffffffffffff16638da5cb5b6040518163ffffffff1660e01b815260040160206040518083038186803b15801561399157600080fd5b505afa1580156139a5573d6000803e3d6000fd5b505050506040513d601f19601f820116820180604052508101906139c99190613fe8565b6040518263ffffffff1660e01b81526004016139e59190615558565b60206040518083038186803b1580156139fd57600080fd5b505afa158015613a11573d6000803e3d6000fd5b505050506040513d601f19601f82011682018060405250810190613a35919061429f565b905085811415613a4b5760019350505050613a53565b600093505050505b92915050565b613a6d816001613d3590919063ffffffff16565b8073ffffffffffffffffffffffffffffffffffffffff167fcd265ebaf09df2871cc7bd4133404a235ba12eff2041bb89d9c714a2621c7c7e60405160405180910390a250565b613ac781600161255690919063ffffffff16565b8073ffffffffffffffffffffffffffffffffffffffff167f6719d08c1888103bea251a4ed56406bd0c3e69723c8a1686e017e7bbe159b6f860405160405180910390a250565b600073ffffffffffffffffffffffffffffffffffffffff168173ffffffffffffffffffffffffffffffffffffffff161415613b7d576040517f08c379a0000000000000000000000000000000000000000000000000000000008152600401613b74906157bc565b60405180910390fd5b8073ffffffffffffffffffffffffffffffffffffffff1660008054906101000a900473ffffffffffffffffffffffffffffffffffffffff1673ffffffffffffffffffffffffffffffffffffffff167f8be0079c531659141344cd1fd0a4f28419497f9722a3daafe3b4186f6b6457e060405160405180910390a3806000806101000a81548173ffffffffffffffffffffffffffffffffffffffff021916908373ffffffffffffffffffffffffffffffffffffffff16021790555050565b6006600083815260200190815260200160002081604051613c5b91906154c7565b908152602001604051809103902060009054906101000a900460ff16613d315760016006600084815260200190815260200160002082604051613c9e91906154c7565b908152602001604051809103902060006101000a81548160ff0219169083151502179055506000613cce82611f53565b905081600760008381526020019081526020016000209080519060200190613cf7929190613ddc565b507f448b0dd714fa3713f69988b8ee8bad3ac840e06e3d93c970086a3d490d61c62983604051613d279190615b1c565b60405180910390a1505b5050565b613d3f82826135e6565b613d7e576040517f08c379a0000000000000000000000000000000000000000000000000000000008152600401613d759061591c565b60405180910390fd5b60008260000160008373ffffffffffffffffffffffffffffffffffffffff1673ffffffffffffffffffffffffffffffffffffffff16815260200190815260200160002060006101000a81548160ff0219169083151502179055505050565b828054600181600116156101000203166002900490600052602060002090601f016020900481019282601f10613e1d57805160ff1916838001178555613e4b565b82800160010185558215613e4b579182015b82811115613e4a578251825591602001919060010190613e2f565b5b509050613e589190613e5c565b5090565b5b80821115613e75576000816000905550600101613e5d565b5090565b600081359050613e8881615f18565b92915050565b600081519050613e9d81615f18565b92915050565b600082601f830112613eb457600080fd5b8135613ec7613ec282615d0f565b615ce2565b9150818183526020840193506020810190508360005b83811015613f0d5781358601613ef38882613f41565b845260208401935060208301925050600181019050613edd565b5050505092915050565b600081519050613f2681615f2f565b92915050565b600081359050613f3b81615f46565b92915050565b600082601f830112613f5257600080fd5b8135613f65613f6082615d37565b615ce2565b91508082526020830160208301858383011115613f8157600080fd5b613f8c838284615eb1565b50505092915050565b600081359050613fa481615f5d565b92915050565b600081519050613fb981615f5d565b92915050565b600060208284031215613fd157600080fd5b6000613fdf84828501613e79565b91505092915050565b600060208284031215613ffa57600080fd5b600061400884828501613e8e565b91505092915050565b60008060008060008060c0878903121561402a57600080fd5b600061403889828a01613e79565b965050602061404989828a01613f95565b955050604061405a89828a01613f2c565b945050606061406b89828a01613f95565b935050608061407c89828a01613f2c565b92505060a087013567ffffffffffffffff81111561409957600080fd5b6140a589828a01613ea3565b9150509295509295509295565b600080600080600080600080610100898b0312156140cf57600080fd5b60006140dd8b828c01613e79565b98505060206140ee8b828c01613f95565b97505060406140ff8b828c01613f2c565b96505060606141108b828c01613f95565b95505060806141218b828c01613f2c565b94505060a06141328b828c01613f95565b93505060c06141438b828c01613f2c565b92505060e089013567ffffffffffffffff81111561416057600080fd5b61416c8b828c01613ea3565b9150509295985092959890939650565b60006020828403121561418e57600080fd5b600061419c84828501613f17565b91505092915050565b6000602082840312156141b757600080fd5b60006141c584828501613f2c565b91505092915050565b6000806000606084860312156141e357600080fd5b60006141f186828701613f2c565b935050602061420286828701613f2c565b925050604084013567ffffffffffffffff81111561421f57600080fd5b61422b86828701613ea3565b9150509250925092565b60006020828403121561424757600080fd5b600082013567ffffffffffffffff81111561426157600080fd5b61426d84828501613f41565b91505092915050565b60006020828403121561428857600080fd5b600061429684828501613f95565b91505092915050565b6000602082840312156142b157600080fd5b60006142bf84828501613faa565b91505092915050565b600080604083850312156142db57600080fd5b60006142e985828601613f95565b92505060206142fa85828601613f2c565b9150509250929050565b600080600080600060a0868803121561431c57600080fd5b600061432a88828901613f95565b955050602061433b88828901613f2c565b945050604061434c88828901613f95565b935050606061435d88828901613f2c565b925050608086013567ffffffffffffffff81111561437a57600080fd5b61438688828901613ea3565b9150509295509295909350565b60008060008060008060c087890312156143ac57600080fd5b60006143ba89828a01613f95565b96505060206143cb89828a01613f2c565b95505060406143dc89828a01613f95565b94505060606143ed89828a01613f2c565b93505060806143fe89828a01613f95565b92505060a061440f89828a01613f2c565b9150509295509295509295565b6000806040838503121561442f57600080fd5b600061443d85828601613f95565b925050602083013567ffffffffffffffff81111561445a57600080fd5b61446685828601613f41565b9150509250929050565b61447981615e0f565b82525050565b61448881615db0565b82525050565b61449781615dc2565b82525050565b6144a681615dce565b82525050565b6144bd6144b882615dce565b615ef3565b82525050565b6144cc81615e21565b82525050565b6144db81615e45565b82525050565b6144ea81615e69565b82525050565b60006144fb82615d78565b6145058185615d83565b9350614515818560208601615ec0565b61451e81615f07565b840191505092915050565b600061453482615d78565b61453e8185615d94565b935061454e818560208601615ec0565b61455781615f07565b840191505092915050565b600061456d82615d78565b6145778185615da5565b9350614587818560208601615ec0565b80840191505092915050565b6000815460018116600081146145b057600181146145d65761461a565b607f60028304166145c18187615d94565b955060ff19831686526020860193505061461a565b600282046145e48187615d94565b95506145ef85615d63565b60005b82811015614611578154818901526001820191506020810190506145f2565b80880195505050505b505092915050565b600061462f601483615d83565b91507f5061757361626c653a206e6f74207061757365640000000000000000000000006000830152602082019050919050565b600061466f601f83615d83565b91507f526f6c65733a206163636f756e7420616c72656164792068617320726f6c65006000830152602082019050919050565b60006146af603d83615d83565b91507f456e64657265c3a76f2064652064657374696e6f206ec3a36f20696e636c75c360008301527fad646f20636f6d6f20706170656c206e6573736520636164617374726f0000006020830152604082019050919050565b6000614715603083615d83565b91507f496e74657276656ec3a7c3a36f206d616e75616c206ec3a36f2070726576696160008301527f6d656e74652063616461737472616461000000000000000000000000000000006020830152604082019050919050565b600061477b603083615d83565b91507f506175736572526f6c653a2063616c6c657220646f6573206e6f74206861766560008301527f207468652050617573657220726f6c65000000000000000000000000000000006020830152604082019050919050565b60006147e1604483615d83565b91507f536f6d656e746520636c69656e74657320656d20636f6e747261746f7320636160008301527f646173747261646f7320706f64656d206578656375746172206f20706167616d60208301527f656e746f000000000000000000000000000000000000000000000000000000006040830152606082019050919050565b600061486d602983615d83565b91507f536f6d656e7465206f20424e44455320706f6465206578656375746172206f2060008301527f706167616d656e746f00000000000000000000000000000000000000000000006020830152604082019050919050565b60006148d3602683615d83565b91507f4f776e61626c653a206e6577206f776e657220697320746865207a65726f206160008301527f64647265737300000000000000000000000000000000000000000000000000006020830152604082019050919050565b6000614939605f83615d83565b91507f556d20434e504a206ec3a36f20706f6465207472616e73666572697220746f6b60008301527f656e20706172612073692c2061696e64612071756520656d20706170c3a9697360208301527f2064697374696e746f732028436c69656e74652f466f726e656365646f7229006040830152606082019050919050565b60006149c5602a83615d83565b91507f4572726f206e6f2063c3a16c63756c6f20646f206861736820646120636f6e7460008301527f6120646f20424e444553000000000000000000000000000000000000000000006020830152604082019050919050565b6000614a2b605783615d83565b91507f536f6d656e746520756d20726573706f6e73c3a176656c2070656c617320747260008301527f616e73666572c3aa6e636961732065787472616f7264696ec3a172696173207060208301527f6f7220656e766961722061207472616e7361c3a7c3a36f0000000000000000006040830152606082019050919050565b6000614ab7602f83615d83565b91507f536f6d656e746520666f726e656365646f72657320706f64656d20657865637560008301527f746172206f20706167616d656e746f00000000000000000000000000000000006020830152604082019050919050565b6000614b1d603583615d83565b91507f56616c6f72206120736572207472616e736163696f6e61646f2064657665207360008301527f6572206d61696f7220646f20717565207a65726f2e00000000000000000000006020830152604082019050919050565b6000614b83602f83615d83565b91507f4572726f206e6f2063c3a16c63756c6f20646f206861736820646120636f6e7460008301527f6120646f20666f726e656365646f7200000000000000000000000000000000006020830152604082019050919050565b6000614be9601083615d83565b91507f5061757361626c653a20706175736564000000000000000000000000000000006000830152602082019050919050565b6000614c29604983615d83565b91507f45737461207472616e7361c3a7c3a36f2073c3b320706f64652073657220657860008301527f656375746164612070656c6f20726573706f6e73c3a176656c2070656c6f206460208301527f6573656d626f6c736f00000000000000000000000000000000000000000000006040830152606082019050919050565b6000614cb5603383615d83565b91507f436f6e746120646520646f61646f72207072656369736120657374617220636f60008301527f6d20636164617374726f2076616c696461646f000000000000000000000000006020830152604082019050919050565b6000614d1b603c83615d83565b91507f456e64657265c3a76f206465206f726967656d206ec3a36f20696e636c75c3ad60008301527f646f20636f6d6f20706170656c206e6573736520636164617374726f000000006020830152604082019050919050565b6000614d81602183615d83565b91507f526f6c65733a206163636f756e7420646f6573206e6f74206861766520726f6c60008301527f65000000000000000000000000000000000000000000000000000000000000006020830152604082019050919050565b6000614de7604583615d83565b91507f49642064652064657374696e6f206461207472616e7361c3a7c3a36f206ec3a360008301527f6f20657374c3a120696775616c20616f20646f206f776e657220646f20636f6e60208301527f747261746f0000000000000000000000000000000000000000000000000000006040830152606082019050919050565b6000614e73602483615d83565b91507f4572726f206e6f2063c3a16c63756c6f20646f206861736820646120646f61c360008301527fa7c3a36f000000000000000000000000000000000000000000000000000000006020830152604082019050919050565b6000614ed9602683615d83565b91507f536f6d656e746520646f61646f72657320706f64656d2066617a657220646f6160008301527fc3a7c3b5657300000000000000000000000000000000000000000000000000006020830152604082019050919050565b6000614f3f602083615d83565b91507f4f776e61626c653a2063616c6c6572206973206e6f7420746865206f776e65726000830152602082019050919050565b6000614f7f602283615d83565b91507f526f6c65733a206163636f756e7420697320746865207a65726f20616464726560008301527f73730000000000000000000000000000000000000000000000000000000000006020830152604082019050919050565b6000614fe5604283615d83565b91507f4e656e68756d61207665726966696361c3a7c3a36f206573706563c3ad66696360008301527f6120656e636f6e747261646120706172612061207472616e73666572c3aa6e6360208301527f69610000000000000000000000000000000000000000000000000000000000006040830152606082019050919050565b6000615071604083615d83565b91507f536f6d656e746520646f61646f72657320706f64656d2066617a657220646f6160008301527fc3a7c3b565732c20726567697374726f20657374616820696e636f727265746f6020830152604082019050919050565b60006150d7602b83615d83565b91507f556d20424e444553206ec3a36f20706f6465207472616e73666572697220746f60008301527f6b656e20706172612073690000000000000000000000000000000000000000006020830152604082019050919050565b600061513d604c83615d83565b91507f536f6d656e746520756d20726573706f6e73c3a176656c2070656c617320616c60008301527f6f6361c3a7c3b5657320696e69636961697320706f646520656e76696172206160208301527f207472616e7361c3a7c3a36f00000000000000000000000000000000000000006040830152606082019050919050565b60006151c9604183615d83565b91507f4572726f206e6f2063c3a16c63756c6f20646f206861736820646120636f6e7460008301527f612064652061646d696e20646f20636f6e747261746f2065737065636966696360208301527f6f000000000000000000000000000000000000000000000000000000000000006040830152606082019050919050565b6000615255603083615d83565b91507f48617368206465206f726967656d206461207472616e7361c3a7c3a36f206ec360008301527fa36f20657374c3a120636f727265746f000000000000000000000000000000006020830152604082019050919050565b60006152bb604483615d83565b91507f4964206465206f726967656d206461207472616e7361c3a7c3a36f206ec3a36f60008301527f20657374c3a120696775616c20616f20646f206f776e657220646f20636f6e7460208301527f7261746f000000000000000000000000000000000000000000000000000000006040830152606082019050919050565b6000615347604983615d83565b91507f486173682064652064657374696e6f206ec3a36f20657374c3a120636f72726560008301527f73706f6e64656e7465206120636f6e746120646520646573656d626f6c736f2060208301527f6f752064652061646d00000000000000000000000000000000000000000000006040830152606082019050919050565b60006153d3603083615d83565b91507f45737365206dc3a9746f646f2073c3b320706f646520736572206368616d616460008301527f6f2070656c6f205242425f546f6b656e000000000000000000000000000000006020830152604082019050919050565b6000615439602c83615d83565b91507f4572726f206e6f2063c3a16c63756c6f20646f206861736820646120636f6e7460008301527f6120646f20636c69656e746500000000000000000000000000000000000000006020830152604082019050919050565b61549b81615df8565b82525050565b6154b26154ad82615df8565b615efd565b82525050565b6154c181615e02565b82525050565b60006154d38284614562565b915081905092915050565b60006154ea82846154a1565b60208201915081905092915050565b600061550582886154a1565b60208201915061551582876144ac565b60208201915061552582866154a1565b60208201915061553582856144ac565b60208201915061554582846154a1565b6020820191508190509695505050505050565b600060208201905061556d600083018461447f565b92915050565b60006020820190506155886000830184614470565b92915050565b60006020820190506155a3600083018461448e565b92915050565b60006020820190506155be600083018461449d565b92915050565b60006040820190506155d9600083018561449d565b6155e6602083018461449d565b9392505050565b6000608082019050615602600083018761449d565b61560f6020830186615492565b61561c6040830185615492565b615629606083018461449d565b95945050505050565b600060208201905061564760008301846144c3565b92915050565b600060208201905061566260008301846144d2565b92915050565b600060208201905061567d60008301846144e1565b92915050565b6000602082019050818103600083015261569d81846144f0565b905092915050565b600060408201905081810360008301526156bf8185614593565b905081810360208301526156d38184614529565b90509392505050565b600060208201905081810360008301526156f581614622565b9050919050565b6000602082019050818103600083015261571581614662565b9050919050565b60006020820190508181036000830152615735816146a2565b9050919050565b6000602082019050818103600083015261575581614708565b9050919050565b600060208201905081810360008301526157758161476e565b9050919050565b60006020820190508181036000830152615795816147d4565b9050919050565b600060208201905081810360008301526157b581614860565b9050919050565b600060208201905081810360008301526157d5816148c6565b9050919050565b600060208201905081810360008301526157f58161492c565b9050919050565b60006020820190508181036000830152615815816149b8565b9050919050565b6000602082019050818103600083015261583581614a1e565b9050919050565b6000602082019050818103600083015261585581614aaa565b9050919050565b6000602082019050818103600083015261587581614b10565b9050919050565b6000602082019050818103600083015261589581614b76565b9050919050565b600060208201905081810360008301526158b581614bdc565b9050919050565b600060208201905081810360008301526158d581614c1c565b9050919050565b600060208201905081810360008301526158f581614ca8565b9050919050565b6000602082019050818103600083015261591581614d0e565b9050919050565b6000602082019050818103600083015261593581614d74565b9050919050565b6000602082019050818103600083015261595581614dda565b9050919050565b6000602082019050818103600083015261597581614e66565b9050919050565b6000602082019050818103600083015261599581614ecc565b9050919050565b600060208201905081810360008301526159b581614f32565b9050919050565b600060208201905081810360008301526159d581614f72565b9050919050565b600060208201905081810360008301526159f581614fd8565b9050919050565b60006020820190508181036000830152615a1581615064565b9050919050565b60006020820190508181036000830152615a35816150ca565b9050919050565b60006020820190508181036000830152615a5581615130565b9050919050565b60006020820190508181036000830152615a75816151bc565b9050919050565b60006020820190508181036000830152615a9581615248565b9050919050565b60006020820190508181036000830152615ab5816152ae565b9050919050565b60006020820190508181036000830152615ad58161533a565b9050919050565b60006020820190508181036000830152615af5816153c6565b9050919050565b60006020820190508181036000830152615b158161542c565b9050919050565b6000602082019050615b316000830184615492565b92915050565b6000604082019050615b4c6000830185615492565b615b59602083018461449d565b9392505050565b600060c082019050615b756000830189615492565b615b82602083018861449d565b615b8f6040830187615492565b615b9c606083018661449d565b615ba96080830185615492565b615bb660a083018461449d565b979650505050505050565b6000608082019050615bd66000830187615492565b8181036020830152615be881866144f0565b9050615bf76040830185615492565b615c04606083018461449d565b95945050505050565b600060a082019050615c226000830188615492565b8181036020830152615c3481876144f0565b9050615c436040830186615492565b615c506060830185615492565b615c5d608083018461449d565b9695505050505050565b6000604082019050615c7c6000830185615492565b615c896020830184615492565b9392505050565b6000606082019050615ca56000830186615492565b615cb26020830185615492565b615cbf604083018461449d565b949350505050565b6000602082019050615cdc60008301846154b8565b92915050565b6000604051905081810181811067ffffffffffffffff82111715615d0557600080fd5b8060405250919050565b600067ffffffffffffffff821115615d2657600080fd5b602082029050602081019050919050565b600067ffffffffffffffff821115615d4e57600080fd5b601f19601f8301169050602081019050919050565b60008190508160005260206000209050919050565b600081519050919050565b600082825260208201905092915050565b600082825260208201905092915050565b600081905092915050565b6000615dbb82615dd8565b9050919050565b60008115159050919050565b6000819050919050565b600073ffffffffffffffffffffffffffffffffffffffff82169050919050565b6000819050919050565b600060ff82169050919050565b6000615e1a82615e8d565b9050919050565b6000615e2c82615e33565b9050919050565b6000615e3e82615dd8565b9050919050565b6000615e5082615e57565b9050919050565b6000615e6282615dd8565b9050919050565b6000615e7482615e7b565b9050919050565b6000615e8682615dd8565b9050919050565b6000615e9882615e9f565b9050919050565b6000615eaa82615dd8565b9050919050565b82818337600083830152505050565b60005b83811015615ede578082015181840152602081019050615ec3565b83811115615eed576000848401525b50505050565b6000819050919050565b6000819050919050565b6000601f19601f8301169050919050565b615f2181615db0565b8114615f2c57600080fd5b50565b615f3881615dc2565b8114615f4357600080fd5b50565b615f4f81615dce565b8114615f5a57600080fd5b50565b615f6681615df8565b8114615f7157600080fd5b5056fea2646970667358221220fde2a0aa4ea9e4f81150f49c7c2ace346531b6d12d0889f69acd61d4a29bd30864736f6c634300060c0033",
  "immutableReferences": {},
  "source": "pragma solidity ^0.6.0;\npragma experimental ABIEncoderV2;\n\n\nimport \"./RBBLib.sol\";\nimport \"./RBBRegistry.sol\";\nimport \"./RBBToken.sol\";\nimport \"./SpecificRBBToken.sol\";\nimport \"./FABndesToken_BNDESRoles.sol\";\nimport \"@openzeppelin/contracts/ownership/Ownable.sol\";\nimport \"@openzeppelin/contracts/lifecycle/Pausable.sol\";\nimport \"@openzeppelin/contracts/math/SafeMath.sol\";\n\n\n/*\nTodas as operaes j supem que a entidade de origem e destino esto cadastradas e validadas no RBB_Registry, pois isso  garantido pelo contrato genrico (RBB_Token)\n\nNo includo (TBD):\n------------\n- requisito adicional de o cliente poder resgatar uma parte do valor (ao invs de ter que necessariamente transferir tudo ao fornecedor)\n- ideia de o fornecedor poder sacar mais de um saldo ao mesmo tempo.\n- pedido inicial de financiamento do cliente \n- devoluo de fornecedor para cliente sem anuncia para o BNDES\n- controle que cada doacao realmente se transformou em duas transacoes, uma para a conta adm e outra para a conta usual\nuint admFee = amount.mul(bndesFee).div(100);\n- perodo de validade para as autorizaes de transferncias extraordinrias\n- invalidar doador, cliente e fornecedor (por exemplo, em caso de CNPJ deixar de existir, contrato com BNDES acabar ou periodicamente)\n- permitir criar perfis diferenciados para contas dos clientes e fornecedores\n\n*/\ncontract FABndesToken is SpecificRBBToken {\n\n    RBBToken public rbbToken;\n    FABndesToken_BNDESRoles public bndesRoles;\n\n    //RBBId donor => true/false (registered or not)\n    mapping (uint => bool) public donors;\n\n    //RBBId client => (idFinancialSupportAgreement Client => true/false (registered or not)\n    mapping (uint => mapping (string => bool)) public clients;\n    mapping (bytes32 => string) public hashToIdFinancialSupportAgreement;\n\n    //RBBId supplier => true/false (registered or not)\n    mapping (uint => bool) public suppliers;\n\n    //Hash of approved Extraordinary Transfers\n    bytes32[] public hashApprovedExtraordinaryTransfers;\n\n    // BNDES Fee percentage\n//   uint256 public bndesFee;    \n\n    //Types of transfer operation\n    string public INITIAL_ALLOCATION = \"INITIAL_ALLOCATION\";\n    string public DISBURSEMENT_VERIFICATION = \"DISBURSEMENT_VERIFICATION\";\n    string public CLIENT_PAY_SUPPLIER_VERIFICATION = \"CLIENT_PAY_SUPPLIER_VERIFICATION\";\n    string public BNDES_PAY_SUPPLIER_VERIFICATION = \"BNDES_PAY_SUPPLIER_VERIFICATION\";\n    string public EXTRAORDINARY_TRANSFERS = \"EXTRAORDINARY_TRANSFERS\";\n\n\n    uint8 public RESERVED_MINTED_ACCOUNT = 0;\n    uint8 public RESERVED_USUAL_DISBURSEMENTS_ACCOUNT = 1;\n    uint8 public RESERVED_BNDES_ADMIN_FEE_TO_HASH = 2;\n    uint8 public RESERVED_NO_ADDITIONAL_FIELDS_TO_DONOR = 10;\n    uint8 public RESERVED_NO_ADDITIONAL_FIELDS_TO_SUPPLIER = 20;\n    uint8 public RESERVED_NO_ADDITIONAL_FIELDS_TO_DIFF_MONEY = 30;\n\n    using SafeMath for uint;\n   \n    event FA_DonationBooked(uint idDonor, uint amount, bytes32 docHash);\n    event FA_DonationConfirmed(uint idDonor, uint amount, bytes32 docHash);\n\n    event FA_InitialAllocation_Disbursements(uint amount, bytes32 docHash);\n    event FA_InitialAllocation_Fee(uint amount, bytes32 docHash);\n\n    event FA_Disbursement  (uint idClient, string idFinancialSupportAgreement, uint amount, bytes32 docHash);\n    event FA_TokenTransfer (uint fromCnpj, string fromIdFinancialSupportAgreement, uint toCnpj, uint amount, bytes32 docHash);\n    event FA_BNDES_TokenTransfer(uint toCnpj, uint amount, bytes32 docHash);\n    event FA_RedemptionRequested (uint idClaimer, uint amount, bytes32 docHash);\n    event FA_RedemptionSettlement(bytes32 redemptionTransactionHash, bytes32 docHash);\n \n    event FA_ExtraordinaryTransferAllowed (uint fromId, bytes32 fromHash, uint toId, bytes32 toHash, \n            uint amount, bytes32 docHash);\n    event FA_ExtraordinaryTransferExecuted(uint fromId, bytes32 fromHash, uint toId, bytes32 toHash, \n            uint amount, bytes32 docHash);\n\n//    event FA_ManualIntervention_Fee(uint256 percent, bytes32 docHash);\n\n    event FA_DonorAdded(uint id);\n    event FA_ClientAdded(uint id);\n    event FA_SupplierAdded(uint registeredBy, uint id);\n\n\n    constructor (address newrbbTokenAddr, address addrBndesRoles) public {\n//        require (fee < 100, \"Valor de Fee maior que 100%\");\n\n        rbbToken = RBBToken(newrbbTokenAddr);\n        bndesRoles = FABndesToken_BNDESRoles(addrBndesRoles);\n\n//        bndesFee = fee;\n    }\n\n/*\n    function setBNDESFee(uint256 newBndesFee, bytes32 docHash) public onlyOwner {\n        require (newBndesFee < 100, \"Valor de Fee maior que 100%\");\n        bndesFee = newBndesFee;\n        emit FA_ManualIntervention_Fee(newBndesFee, docHash);\n    }\n*/\n\n    function bookDonation(uint amount, bytes32 docHash) public whenNotPaused  {        \n        \n        uint idDonor = registry.getId(msg.sender);\n\n        require (donors[idDonor], \"Somente doadores podem fazer doaes\");\n        require(registry.isValidatedId(idDonor), \"Conta de doador precisa estar com cadastro validado\");\n        \n        bytes32 specificHash = getCalculatedHash(RESERVED_NO_ADDITIONAL_FIELDS_TO_DIFF_MONEY);\n        rbbToken.requestMint(specificHash, idDonor, amount, docHash);\n\n        emit FA_DonationBooked(idDonor, amount, docHash);\n    }\n    \n    /* confirms the donor's donation */\n    function verifyAndActForMint(uint idDonor, bytes32 specificHash, uint amount, bytes32 docHash,\n        string[] memory data) public override whenNotPaused onlyRBBToken {\n\n        require (getCalculatedHash(RESERVED_NO_ADDITIONAL_FIELDS_TO_DIFF_MONEY)==specificHash, \"Erro no clculo do hash da doao\");\n\n        require (donors[idDonor], \"Somente doadores podem fazer doaes, registro estah incorreto\");\n\n        emit FA_DonationConfirmed(idDonor, amount, docHash);\n\n    }\n\n\n    function getHashToMintedAccount(bytes32 specificHash) override public returns (bytes32) {\n        //There is no difference of specificHash, all money should be minted in the same account\n        return getCalculatedHash(RESERVED_MINTED_ACCOUNT);\n    }\n\n    function verifyAndActForTransfer(address originalSender, uint fromId, bytes32 fromHash, uint toId, bytes32 toHash, \n            uint amount, bytes32 docHash, string[] memory data) public override whenNotPaused onlyRBBToken {\n\n        string memory specificMethod = data[0];\n\n        require (amount>0, \"Valor a ser transacionado deve ser maior do que zero.\");\n\n        if (RBBLib.isEqual(INITIAL_ALLOCATION, specificMethod)) {\n            verifyAndActForTransfer_INITIAL_ALLOCATION(originalSender, fromId, fromHash, toId, toHash, amount, docHash, data);\n        }\n        else if (RBBLib.isEqual(DISBURSEMENT_VERIFICATION, specificMethod)) {\n            verifyAndActForTransfer_DISBURSEMENT(originalSender, fromId, fromHash, toId, toHash, amount, docHash, data);\n        }\n        else if (RBBLib.isEqual(CLIENT_PAY_SUPPLIER_VERIFICATION, specificMethod)) {\n            verifyAndActForTransfer_CLIENT_PAY_SUPPLIER(originalSender, fromId, fromHash, toId, toHash, amount, docHash, data);\n        }\n        else if (RBBLib.isEqual(BNDES_PAY_SUPPLIER_VERIFICATION, specificMethod)) {\n            verifyAndActForTransfer_BNDES_PAY_SUPPLIER(originalSender, fromId, fromHash, toId, toHash, amount, docHash, data);\n        }\n        else if (RBBLib.isEqual(EXTRAORDINARY_TRANSFERS, specificMethod)) {\n            verifyAndActForTransfer_EXTRAORDINARY_TRANSFERS(originalSender, fromId, fromHash, toId, toHash, amount, docHash, data);\n        }\n        else {\n            require (false, \"Nenhuma verificao especfica encontrada para a transferncia\");\n        }\n\n    }\n\n    function verifyAndActForTransfer_INITIAL_ALLOCATION(address originalSender, uint fromId, bytes32 fromHash, uint toId, \n            bytes32 toHash, uint amount, bytes32 docHash, string[] memory data) internal whenNotPaused {\n\n        require (bndesRoles.responsibleForInitialAllocation() == originalSender, \n            \"Somente um responsvel pelas alocaes iniciais pode enviar a transao\");\n\n        uint ownerId = registry.getId(owner());\n        require (fromId == ownerId, \"Id de origem da transao no est igual ao do owner do contrato\");\n        require (fromHash == getCalculatedHash(RESERVED_MINTED_ACCOUNT), \"Hash de origem da transao no est correto\");\n\n        require (fromId == toId, \"Id de destino da transao no est igual ao do owner do contrato\");\n\n        if (toHash == getCalculatedHash(RESERVED_USUAL_DISBURSEMENTS_ACCOUNT)) {\n            emit FA_InitialAllocation_Disbursements(amount, docHash);\n        }\n        else if (toHash == getCalculatedHash(RESERVED_BNDES_ADMIN_FEE_TO_HASH)) {\n            emit FA_InitialAllocation_Fee(amount, docHash);\n        }\n        else {\n            require (false, \"Hash de destino no est correspondente a conta de desembolso ou de adm\");\n        }\n    }\n\n    function verifyAndActForTransfer_DISBURSEMENT(address originalSender, uint fromId, bytes32 fromHash, \n            uint toId, bytes32 toHash, uint amount, bytes32 docHash, string[] memory data) internal whenNotPaused {\n    \n        string memory idFinancialSupportAgreement = data[1];\n        uint ownerId = registry.getId(owner());\n\n        require (originalSender == bndesRoles.responsibleForDisbursement(), \n            \"Esta transao s pode ser executada pelo responsvel pelo desembolso\");\n\n        //Essa eh uma regra especifica visto que outra organizacao pode ter recebido o token no allocate.\n        require (fromId == ownerId, \"Id de origem da transao no est igual ao do owner do contrato\");\n        require (getCalculatedHash(RESERVED_USUAL_DISBURSEMENTS_ACCOUNT)==fromHash, \"Erro no clculo do hash da conta do BNDES\");\n        require (getCalculatedHash(idFinancialSupportAgreement)==toHash, \"Erro no clculo do hash da conta do cliente\");\n\n        addClient(toId, idFinancialSupportAgreement);\n\n        emit FA_Disbursement (toId, idFinancialSupportAgreement, amount, docHash);\n\n    }   \n\n    function verifyAndActForTransfer_CLIENT_PAY_SUPPLIER(address originalSender, uint fromId, bytes32 fromHash, \n            uint toId, bytes32 toHash, uint amount, bytes32 docHash, string[] memory data) internal whenNotPaused {\n    \n        string memory idFinancialSupportAgreement = data[1];\n\n        //nao verifica o sender, dado que o esse contrato nao diferencia as contas do cliente\n\n        require (clients[fromId][idFinancialSupportAgreement], \"Somente clientes em contratos cadastrados podem executar o pagamento\");\n        require (getCalculatedHash(idFinancialSupportAgreement)==fromHash, \"Erro no clculo do hash da conta do cliente\");\n        require (getCalculatedHash(RESERVED_NO_ADDITIONAL_FIELDS_TO_SUPPLIER)==toHash, \"Erro no clculo do hash da conta do fornecedor\");\n\n        require(fromId != toId,\n            \"Um CNPJ no pode transferir token para si, ainda que em papis distintos (Cliente/Fornecedor)\");\n\n        if (!suppliers[toId]) {\n            suppliers[toId] = true; //register the supplier\n            emit FA_SupplierAdded(fromId, toId);\n        }\n\n        emit FA_TokenTransfer (fromId, idFinancialSupportAgreement, toId, amount, docHash);\n\n    }\n\n\n    function verifyAndActForTransfer_BNDES_PAY_SUPPLIER(address originalSender, uint fromId, bytes32 fromHash, \n            uint toId, bytes32 toHash, uint amount, bytes32 docHash, string[] memory data) internal whenNotPaused {\n\n        require (originalSender == bndesRoles.responsibleForDisbursement(), \n            \"Esta transao s pode ser executada pelo responsvel pelo desembolso\");\n\n        require (fromId==registry.getId(owner()), \"Somente o BNDES pode executar o pagamento\");\n        require (getCalculatedHash(RESERVED_BNDES_ADMIN_FEE_TO_HASH)==fromHash, \"Erro no clculo do hash da conta de admin do contrato especifico\");\n        require (getCalculatedHash(RESERVED_NO_ADDITIONAL_FIELDS_TO_SUPPLIER)==toHash, \"Erro no clculo do hash da conta do fornecedor\");\n\n        require(fromId != toId, \"Um BNDES no pode transferir token para si\");\n\n        emit FA_BNDES_TokenTransfer (toId, amount, docHash);\n\n    }\n\n    function verifyAndActForRedeem(address originalSender, uint fromId, bytes32 fromHash, uint amount, \n        bytes32 docHash, string[] memory data) public override whenNotPaused onlyRBBToken {\n\n        //nao verifica o sender, dado que o esse contrato nao diferencia as contas do fornecedor\n\n        require (amount>0, \"Valor a ser transacionado deve ser maior do que zero.\");\n        require (suppliers[fromId], \"Somente fornecedores podem executar o pagamento\");\n        require (getCalculatedHash(RESERVED_NO_ADDITIONAL_FIELDS_TO_SUPPLIER)==fromHash, \"Erro no clculo do hash da conta do fornecedor\");\n\n        emit FA_RedemptionRequested (fromId, amount, docHash);\n\n    }\n\n    function verifyAndActForRedemptionSettlement(bytes32 redemptionTransactionHash, bytes32 docHash, \n        string[] memory data)\n        public override whenNotPaused onlyRBBToken {\n\n        emit FA_RedemptionSettlement (redemptionTransactionHash, docHash);\n    }\n\n    modifier onlyRBBToken() {\n        require (msg.sender==address(rbbToken), \"Esse mtodo s pode ser chamado pelo RBB_Token\");\n        _;\n    }\n\n    \n    function getCalculatedHash (uint info) public pure returns (bytes32) {\n        return keccak256(abi.encodePacked(info));\n    }\n\n    function getCalculatedHash (string memory info) public pure returns (bytes32) {\n        return keccak256(abi.encodePacked(info));\n    }\n\n    function authorizeExtraordinaryTransfer (uint fromId, bytes32 fromHash, uint toId, bytes32 toHash, \n                uint amount, bytes32 docHash) public  {\n        \n        require (bndesRoles.resposibleForApproveExtraordinaryTransfers() == msg.sender, \n            \"Somente um responsvel pelas transferncias extraordinrias por enviar a transao\");  \n        require (hasRoleInThisContract(fromId, fromHash), \"Endereo de origem no includo como papel nesse cadastro\");\n        require (hasRoleInThisContract(toId, toHash), \"Endereo de destino no includo como papel nesse cadastro\");\n\n        bytes32 m = keccak256(abi.encodePacked(fromId, fromHash, toId, toHash, amount));\n        hashApprovedExtraordinaryTransfers.push(m);\n\n        emit FA_ExtraordinaryTransferAllowed (fromId, fromHash, toId, toHash, amount, docHash);\n\n    }\n   \n    function verifyAndActForTransfer_EXTRAORDINARY_TRANSFERS(address originalSender, uint fromId, bytes32 fromHash, \n            uint toId, bytes32 toHash, uint amount, bytes32 docHash, string[] memory data) internal whenNotPaused {\n\n        require (hasRoleInThisContract(fromId, fromHash), \"Endereo de origem no includo como papel nesse cadastro\");\n        require (hasRoleInThisContract(toId, toHash), \"Endereo de destino no includo como papel nesse cadastro\");\n\n        bytes32 m = keccak256(abi.encodePacked(fromId, fromHash, toId, toHash, amount));\n\n        bool transferApproved = false;\n        uint index = 0;\n        for (; index<hashApprovedExtraordinaryTransfers.length; index++) {\n            if (hashApprovedExtraordinaryTransfers[index] == m) {\n                transferApproved = true;\n                break;\n            }\n        }\n\n        require (transferApproved, \"Interveno manual no previamente cadastrada\");\n\n        hashApprovedExtraordinaryTransfers[index] \n            = hashApprovedExtraordinaryTransfers [hashApprovedExtraordinaryTransfers.length-1];\n        hashApprovedExtraordinaryTransfers.pop();\n\n        emit FA_ExtraordinaryTransferExecuted (fromId, fromHash, toId, toHash, amount, docHash);\n\n    }\n\n//////////\n\n    function addDonor (uint idDonor) public onlyOwner {\n        require(registry.isValidatedId(idDonor), \"Conta de doador precisa estar com cadastro validado\");\n        if(!donors[idDonor]) {\n            donors[idDonor] = true;\n            emit FA_DonorAdded(idDonor);\n        }\n    }\n\n\n    function addClient (uint id, string memory idFinancialSupportAgreement) internal  {\n\n        if (!clients[id][idFinancialSupportAgreement]) {\n            clients[id][idFinancialSupportAgreement] = true; //register the client\n            bytes32 h = getCalculatedHash(idFinancialSupportAgreement);\n            hashToIdFinancialSupportAgreement[h] = idFinancialSupportAgreement;\n            emit FA_ClientAdded(id);\n\n        }\n    }\n\n\n    function addSupplier (uint id) public  {\n\n        require (msg.sender == bndesRoles.responsibleForDisbursement(), \"Esta transao s pode ser executada pelo responsvel pelo desembolso\");\n        if (!suppliers[id]) {\n            suppliers[id] = true; //register the supplier\n            emit FA_SupplierAdded(registry.getId(owner()), id);\n        }\n    }\n\n    function hasRoleInThisContract (uint rbbId, bytes32 hashToAccount) private view returns (bool) {\n\n        if (donors[rbbId]==true) return true;\n\n        string memory idFinancialSupportAgreement = hashToIdFinancialSupportAgreement[hashToAccount];\n        if (clients[rbbId][idFinancialSupportAgreement]==true) return true;\n\n        if (suppliers[rbbId]==true) return true;\n\n        uint ownerId = registry.getId(owner());\n        if (ownerId == rbbId) return true;\n\n        uint rbbTokenOwnerId = registry.getId(rbbToken.owner());\n        if (rbbTokenOwnerId == rbbId) return true;\n\n        return false;\n    }\n\n}",
  "sourcePath": "/Users/suzana.moreno/workspace/rbb-token/Back-Blockchain/contracts/FABndesToken.sol",
  "compiler": {
    "name": "solc",
    "version": "0.6.12+commit.27d51765.Emscripten.clang"
  },
  "schemaVersion": "3.2.5",
  "updatedAt": "2020-09-29T20:23:32.853Z",
  "networkType": "ethereum",
  "devdoc": {
    "kind": "dev",
    "methods": {
      "isOwner()": {
        "details": "Returns true if the caller is the current owner."
      },
      "owner()": {
        "details": "Returns the address of the current owner."
      },
      "pause()": {
        "details": "Called by a pauser to pause, triggers stopped state."
      },
      "paused()": {
        "details": "Returns true if the contract is paused, and false otherwise."
      },
      "renounceOwnership()": {
        "details": "Leaves the contract without owner. It will not be possible to call `onlyOwner` functions anymore. Can only be called by the current owner. NOTE: Renouncing ownership will leave the contract without an owner, thereby removing any functionality that is only available to the owner."
      },
      "transferOwnership(address)": {
        "details": "Transfers ownership of the contract to a new account (`newOwner`). Can only be called by the current owner."
      },
      "unpause()": {
        "details": "Called by a pauser to unpause, returns to normal state."
      }
    },
    "version": 1
  },
  "userdoc": {
    "kind": "user",
    "methods": {},
    "version": 1
  }
}