{
  "contractName": "FABndesToken",
  "abi": [
    {
      "inputs": [
        {
          "internalType": "address",
          "name": "newrbbTokenAddr",
          "type": "address"
        },
        {
          "internalType": "uint256",
          "name": "fee",
          "type": "uint256"
        }
      ],
      "stateMutability": "nonpayable",
      "type": "constructor"
    },
    {
      "anonymous": false,
      "inputs": [
        {
          "indexed": false,
          "internalType": "uint256",
          "name": "toCnpj",
          "type": "uint256"
        },
        {
          "indexed": false,
          "internalType": "uint256",
          "name": "amount",
          "type": "uint256"
        },
        {
          "indexed": false,
          "internalType": "bytes32",
          "name": "docHash",
          "type": "bytes32"
        }
      ],
      "name": "FA_BNDES_TokenTransfer",
      "type": "event"
    },
    {
      "anonymous": false,
      "inputs": [
        {
          "indexed": false,
          "internalType": "uint256",
          "name": "id",
          "type": "uint256"
        }
      ],
      "name": "FA_ClientAdded",
      "type": "event"
    },
    {
      "anonymous": false,
      "inputs": [
        {
          "indexed": false,
          "internalType": "uint256",
          "name": "idClient",
          "type": "uint256"
        },
        {
          "indexed": false,
          "internalType": "string",
          "name": "idFinancialSupportAgreement",
          "type": "string"
        },
        {
          "indexed": false,
          "internalType": "uint256",
          "name": "amount",
          "type": "uint256"
        },
        {
          "indexed": false,
          "internalType": "bytes32",
          "name": "docHash",
          "type": "bytes32"
        }
      ],
      "name": "FA_Disbursement",
      "type": "event"
    },
    {
      "anonymous": false,
      "inputs": [
        {
          "indexed": false,
          "internalType": "uint256",
          "name": "idDonor",
          "type": "uint256"
        },
        {
          "indexed": false,
          "internalType": "uint256",
          "name": "amount",
          "type": "uint256"
        },
        {
          "indexed": false,
          "internalType": "bytes32",
          "name": "docHash",
          "type": "bytes32"
        }
      ],
      "name": "FA_DonationBooked",
      "type": "event"
    },
    {
      "anonymous": false,
      "inputs": [
        {
          "indexed": false,
          "internalType": "uint256",
          "name": "idDonor",
          "type": "uint256"
        },
        {
          "indexed": false,
          "internalType": "uint256",
          "name": "amount",
          "type": "uint256"
        },
        {
          "indexed": false,
          "internalType": "bytes32",
          "name": "docHash",
          "type": "bytes32"
        }
      ],
      "name": "FA_DonationConfirmed",
      "type": "event"
    },
    {
      "anonymous": false,
      "inputs": [
        {
          "indexed": false,
          "internalType": "uint256",
          "name": "id",
          "type": "uint256"
        }
      ],
      "name": "FA_DonorAdded",
      "type": "event"
    },
    {
      "anonymous": false,
      "inputs": [
        {
          "indexed": false,
          "internalType": "uint256",
          "name": "fromId",
          "type": "uint256"
        },
        {
          "indexed": false,
          "internalType": "bytes32",
          "name": "fromHash",
          "type": "bytes32"
        },
        {
          "indexed": false,
          "internalType": "uint256",
          "name": "toId",
          "type": "uint256"
        },
        {
          "indexed": false,
          "internalType": "bytes32",
          "name": "toHash",
          "type": "bytes32"
        },
        {
          "indexed": false,
          "internalType": "uint256",
          "name": "amount",
          "type": "uint256"
        },
        {
          "indexed": false,
          "internalType": "bytes32",
          "name": "docHash",
          "type": "bytes32"
        }
      ],
      "name": "FA_ExtraordinaryTransferAllowed",
      "type": "event"
    },
    {
      "anonymous": false,
      "inputs": [
        {
          "indexed": false,
          "internalType": "uint256",
          "name": "fromId",
          "type": "uint256"
        },
        {
          "indexed": false,
          "internalType": "bytes32",
          "name": "fromHash",
          "type": "bytes32"
        },
        {
          "indexed": false,
          "internalType": "uint256",
          "name": "toId",
          "type": "uint256"
        },
        {
          "indexed": false,
          "internalType": "bytes32",
          "name": "toHash",
          "type": "bytes32"
        },
        {
          "indexed": false,
          "internalType": "uint256",
          "name": "amount",
          "type": "uint256"
        },
        {
          "indexed": false,
          "internalType": "bytes32",
          "name": "docHash",
          "type": "bytes32"
        }
      ],
      "name": "FA_ExtraordinaryTransferExecuted",
      "type": "event"
    },
    {
      "anonymous": false,
      "inputs": [
        {
          "indexed": false,
          "internalType": "uint256",
          "name": "amount",
          "type": "uint256"
        },
        {
          "indexed": false,
          "internalType": "bytes32",
          "name": "docHash",
          "type": "bytes32"
        }
      ],
      "name": "FA_InitialAllocation_Disbursements",
      "type": "event"
    },
    {
      "anonymous": false,
      "inputs": [
        {
          "indexed": false,
          "internalType": "uint256",
          "name": "amount",
          "type": "uint256"
        },
        {
          "indexed": false,
          "internalType": "bytes32",
          "name": "docHash",
          "type": "bytes32"
        }
      ],
      "name": "FA_InitialAllocation_Fee",
      "type": "event"
    },
    {
      "anonymous": false,
      "inputs": [
        {
          "indexed": false,
          "internalType": "uint256",
          "name": "percent",
          "type": "uint256"
        },
        {
          "indexed": false,
          "internalType": "bytes32",
          "name": "docHash",
          "type": "bytes32"
        }
      ],
      "name": "FA_ManualIntervention_Fee",
      "type": "event"
    },
    {
      "anonymous": false,
      "inputs": [
        {
          "indexed": false,
          "internalType": "address",
          "name": "account",
          "type": "address"
        },
        {
          "indexed": false,
          "internalType": "uint8",
          "name": "eventType",
          "type": "uint8"
        }
      ],
      "name": "FA_ManualIntervention_RoleOrAddress",
      "type": "event"
    },
    {
      "anonymous": false,
      "inputs": [
        {
          "indexed": false,
          "internalType": "uint256",
          "name": "idClaimer",
          "type": "uint256"
        },
        {
          "indexed": false,
          "internalType": "uint256",
          "name": "amount",
          "type": "uint256"
        },
        {
          "indexed": false,
          "internalType": "bytes32",
          "name": "docHash",
          "type": "bytes32"
        }
      ],
      "name": "FA_RedemptionRequested",
      "type": "event"
    },
    {
      "anonymous": false,
      "inputs": [
        {
          "indexed": false,
          "internalType": "bytes32",
          "name": "redemptionTransactionHash",
          "type": "bytes32"
        },
        {
          "indexed": false,
          "internalType": "bytes32",
          "name": "docHash",
          "type": "bytes32"
        }
      ],
      "name": "FA_RedemptionSettlement",
      "type": "event"
    },
    {
      "anonymous": false,
      "inputs": [
        {
          "indexed": false,
          "internalType": "uint256",
          "name": "registeredBy",
          "type": "uint256"
        },
        {
          "indexed": false,
          "internalType": "uint256",
          "name": "id",
          "type": "uint256"
        }
      ],
      "name": "FA_SupplierAdded",
      "type": "event"
    },
    {
      "anonymous": false,
      "inputs": [
        {
          "indexed": false,
          "internalType": "uint256",
          "name": "fromCnpj",
          "type": "uint256"
        },
        {
          "indexed": false,
          "internalType": "string",
          "name": "fromIdFinancialSupportAgreement",
          "type": "string"
        },
        {
          "indexed": false,
          "internalType": "uint256",
          "name": "toCnpj",
          "type": "uint256"
        },
        {
          "indexed": false,
          "internalType": "uint256",
          "name": "amount",
          "type": "uint256"
        },
        {
          "indexed": false,
          "internalType": "bytes32",
          "name": "docHash",
          "type": "bytes32"
        }
      ],
      "name": "FA_TokenTransfer",
      "type": "event"
    },
    {
      "anonymous": false,
      "inputs": [
        {
          "indexed": true,
          "internalType": "address",
          "name": "previousOwner",
          "type": "address"
        },
        {
          "indexed": true,
          "internalType": "address",
          "name": "newOwner",
          "type": "address"
        }
      ],
      "name": "OwnershipTransferred",
      "type": "event"
    },
    {
      "anonymous": false,
      "inputs": [
        {
          "indexed": false,
          "internalType": "address",
          "name": "account",
          "type": "address"
        }
      ],
      "name": "Paused",
      "type": "event"
    },
    {
      "anonymous": false,
      "inputs": [
        {
          "indexed": true,
          "internalType": "address",
          "name": "account",
          "type": "address"
        }
      ],
      "name": "PauserAdded",
      "type": "event"
    },
    {
      "anonymous": false,
      "inputs": [
        {
          "indexed": true,
          "internalType": "address",
          "name": "account",
          "type": "address"
        }
      ],
      "name": "PauserRemoved",
      "type": "event"
    },
    {
      "anonymous": false,
      "inputs": [
        {
          "indexed": false,
          "internalType": "address",
          "name": "account",
          "type": "address"
        }
      ],
      "name": "Unpaused",
      "type": "event"
    },
    {
      "inputs": [],
      "name": "BNDES_PAY_SUPPLIER_VERIFICATION",
      "outputs": [
        {
          "internalType": "string",
          "name": "",
          "type": "string"
        }
      ],
      "stateMutability": "view",
      "type": "function"
    },
    {
      "inputs": [],
      "name": "CLIENT_PAY_SUPPLIER_VERIFICATION",
      "outputs": [
        {
          "internalType": "string",
          "name": "",
          "type": "string"
        }
      ],
      "stateMutability": "view",
      "type": "function"
    },
    {
      "inputs": [],
      "name": "DISBURSEMENT_VERIFICATION",
      "outputs": [
        {
          "internalType": "string",
          "name": "",
          "type": "string"
        }
      ],
      "stateMutability": "view",
      "type": "function"
    },
    {
      "inputs": [],
      "name": "EXTRAORDINARY_TRANSFERS",
      "outputs": [
        {
          "internalType": "string",
          "name": "",
          "type": "string"
        }
      ],
      "stateMutability": "view",
      "type": "function"
    },
    {
      "inputs": [],
      "name": "INITIAL_ALLOCATION",
      "outputs": [
        {
          "internalType": "string",
          "name": "",
          "type": "string"
        }
      ],
      "stateMutability": "view",
      "type": "function"
    },
    {
      "inputs": [],
      "name": "RESERVED_BNDES_ADMIN_FEE_TO_HASH",
      "outputs": [
        {
          "internalType": "uint8",
          "name": "",
          "type": "uint8"
        }
      ],
      "stateMutability": "view",
      "type": "function"
    },
    {
      "inputs": [],
      "name": "RESERVED_MINTED_ACCOUNT",
      "outputs": [
        {
          "internalType": "uint8",
          "name": "",
          "type": "uint8"
        }
      ],
      "stateMutability": "view",
      "type": "function"
    },
    {
      "inputs": [],
      "name": "RESERVED_NO_ADDITIONAL_FIELDS_TO_DIFF_MONEY",
      "outputs": [
        {
          "internalType": "uint8",
          "name": "",
          "type": "uint8"
        }
      ],
      "stateMutability": "view",
      "type": "function"
    },
    {
      "inputs": [],
      "name": "RESERVED_NO_ADDITIONAL_FIELDS_TO_DONOR",
      "outputs": [
        {
          "internalType": "uint8",
          "name": "",
          "type": "uint8"
        }
      ],
      "stateMutability": "view",
      "type": "function"
    },
    {
      "inputs": [],
      "name": "RESERVED_NO_ADDITIONAL_FIELDS_TO_SUPPLIER",
      "outputs": [
        {
          "internalType": "uint8",
          "name": "",
          "type": "uint8"
        }
      ],
      "stateMutability": "view",
      "type": "function"
    },
    {
      "inputs": [],
      "name": "RESERVED_USUAL_DISBURSEMENTS_ACCOUNT",
      "outputs": [
        {
          "internalType": "uint8",
          "name": "",
          "type": "uint8"
        }
      ],
      "stateMutability": "view",
      "type": "function"
    },
    {
      "inputs": [
        {
          "internalType": "address",
          "name": "account",
          "type": "address"
        }
      ],
      "name": "addPauser",
      "outputs": [],
      "stateMutability": "nonpayable",
      "type": "function"
    },
    {
      "inputs": [],
      "name": "bndesFee",
      "outputs": [
        {
          "internalType": "uint256",
          "name": "",
          "type": "uint256"
        }
      ],
      "stateMutability": "view",
      "type": "function"
    },
    {
      "inputs": [
        {
          "internalType": "uint256",
          "name": "",
          "type": "uint256"
        },
        {
          "internalType": "string",
          "name": "",
          "type": "string"
        }
      ],
      "name": "clients",
      "outputs": [
        {
          "internalType": "bool",
          "name": "",
          "type": "bool"
        }
      ],
      "stateMutability": "view",
      "type": "function"
    },
    {
      "inputs": [
        {
          "internalType": "uint256",
          "name": "",
          "type": "uint256"
        }
      ],
      "name": "donors",
      "outputs": [
        {
          "internalType": "bool",
          "name": "",
          "type": "bool"
        }
      ],
      "stateMutability": "view",
      "type": "function"
    },
    {
      "inputs": [
        {
          "internalType": "uint256",
          "name": "",
          "type": "uint256"
        }
      ],
      "name": "hashApprovedExtraordinaryTransfers",
      "outputs": [
        {
          "internalType": "bytes32",
          "name": "",
          "type": "bytes32"
        }
      ],
      "stateMutability": "view",
      "type": "function"
    },
    {
      "inputs": [],
      "name": "isOwner",
      "outputs": [
        {
          "internalType": "bool",
          "name": "",
          "type": "bool"
        }
      ],
      "stateMutability": "view",
      "type": "function"
    },
    {
      "inputs": [
        {
          "internalType": "address",
          "name": "account",
          "type": "address"
        }
      ],
      "name": "isPauser",
      "outputs": [
        {
          "internalType": "bool",
          "name": "",
          "type": "bool"
        }
      ],
      "stateMutability": "view",
      "type": "function"
    },
    {
      "inputs": [],
      "name": "owner",
      "outputs": [
        {
          "internalType": "address",
          "name": "",
          "type": "address"
        }
      ],
      "stateMutability": "view",
      "type": "function"
    },
    {
      "inputs": [],
      "name": "pause",
      "outputs": [],
      "stateMutability": "nonpayable",
      "type": "function"
    },
    {
      "inputs": [],
      "name": "paused",
      "outputs": [
        {
          "internalType": "bool",
          "name": "",
          "type": "bool"
        }
      ],
      "stateMutability": "view",
      "type": "function"
    },
    {
      "inputs": [],
      "name": "rbbToken",
      "outputs": [
        {
          "internalType": "contract RBBToken",
          "name": "",
          "type": "address"
        }
      ],
      "stateMutability": "view",
      "type": "function"
    },
    {
      "inputs": [],
      "name": "registry",
      "outputs": [
        {
          "internalType": "contract RBBRegistry",
          "name": "",
          "type": "address"
        }
      ],
      "stateMutability": "view",
      "type": "function"
    },
    {
      "inputs": [],
      "name": "renounceOwnership",
      "outputs": [],
      "stateMutability": "nonpayable",
      "type": "function"
    },
    {
      "inputs": [],
      "name": "renouncePauser",
      "outputs": [],
      "stateMutability": "nonpayable",
      "type": "function"
    },
    {
      "inputs": [],
      "name": "responsibleForDisbursement",
      "outputs": [
        {
          "internalType": "address",
          "name": "",
          "type": "address"
        }
      ],
      "stateMutability": "view",
      "type": "function"
    },
    {
      "inputs": [],
      "name": "responsibleForInitialAllocation",
      "outputs": [
        {
          "internalType": "address",
          "name": "",
          "type": "address"
        }
      ],
      "stateMutability": "view",
      "type": "function"
    },
    {
      "inputs": [],
      "name": "resposibleForApproveExtraordinaryTransfers",
      "outputs": [
        {
          "internalType": "address",
          "name": "",
          "type": "address"
        }
      ],
      "stateMutability": "view",
      "type": "function"
    },
    {
      "inputs": [
        {
          "internalType": "address",
          "name": "newRegistryAddr",
          "type": "address"
        }
      ],
      "name": "setInitializationDataDuringRegistration",
      "outputs": [],
      "stateMutability": "nonpayable",
      "type": "function"
    },
    {
      "inputs": [
        {
          "internalType": "uint256",
          "name": "",
          "type": "uint256"
        }
      ],
      "name": "suppliers",
      "outputs": [
        {
          "internalType": "bool",
          "name": "",
          "type": "bool"
        }
      ],
      "stateMutability": "view",
      "type": "function"
    },
    {
      "inputs": [
        {
          "internalType": "address",
          "name": "newOwner",
          "type": "address"
        }
      ],
      "name": "transferOwnership",
      "outputs": [],
      "stateMutability": "nonpayable",
      "type": "function"
    },
    {
      "inputs": [],
      "name": "unpause",
      "outputs": [],
      "stateMutability": "nonpayable",
      "type": "function"
    },
    {
      "inputs": [
        {
          "internalType": "uint256",
          "name": "newBndesFee",
          "type": "uint256"
        },
        {
          "internalType": "bytes32",
          "name": "docHash",
          "type": "bytes32"
        }
      ],
      "name": "setBNDESFee",
      "outputs": [],
      "stateMutability": "nonpayable",
      "type": "function"
    },
    {
      "inputs": [
        {
          "internalType": "uint256",
          "name": "idDonor",
          "type": "uint256"
        }
      ],
      "name": "addDonor",
      "outputs": [],
      "stateMutability": "nonpayable",
      "type": "function"
    },
    {
      "inputs": [
        {
          "internalType": "uint256",
          "name": "amount",
          "type": "uint256"
        },
        {
          "internalType": "bytes32",
          "name": "docHash",
          "type": "bytes32"
        }
      ],
      "name": "bookDonation",
      "outputs": [],
      "stateMutability": "nonpayable",
      "type": "function"
    },
    {
      "inputs": [
        {
          "internalType": "bytes32",
          "name": "specificHash",
          "type": "bytes32"
        },
        {
          "internalType": "uint256",
          "name": "amount",
          "type": "uint256"
        },
        {
          "internalType": "bytes32",
          "name": "docHash",
          "type": "bytes32"
        },
        {
          "internalType": "string[]",
          "name": "data",
          "type": "string[]"
        }
      ],
      "name": "verifyAndActForMint",
      "outputs": [],
      "stateMutability": "nonpayable",
      "type": "function"
    },
    {
      "inputs": [
        {
          "internalType": "bytes32",
          "name": "specificHash",
          "type": "bytes32"
        }
      ],
      "name": "getHashToMintedAccount",
      "outputs": [
        {
          "internalType": "bytes32",
          "name": "",
          "type": "bytes32"
        }
      ],
      "stateMutability": "nonpayable",
      "type": "function"
    },
    {
      "inputs": [],
      "name": "getInitialAllocationToDisbusementData",
      "outputs": [
        {
          "internalType": "bytes32",
          "name": "",
          "type": "bytes32"
        },
        {
          "internalType": "bytes32",
          "name": "",
          "type": "bytes32"
        },
        {
          "internalType": "string[]",
          "name": "",
          "type": "string[]"
        }
      ],
      "stateMutability": "view",
      "type": "function"
    },
    {
      "inputs": [],
      "name": "getInitialAllocationToChargeFeeData",
      "outputs": [
        {
          "internalType": "bytes32",
          "name": "",
          "type": "bytes32"
        },
        {
          "internalType": "bytes32",
          "name": "",
          "type": "bytes32"
        },
        {
          "internalType": "string[]",
          "name": "",
          "type": "string[]"
        }
      ],
      "stateMutability": "view",
      "type": "function"
    },
    {
      "inputs": [
        {
          "internalType": "string",
          "name": "idFinancialSupportAgreement",
          "type": "string"
        }
      ],
      "name": "getDisbusementData",
      "outputs": [
        {
          "internalType": "bytes32",
          "name": "",
          "type": "bytes32"
        },
        {
          "internalType": "bytes32",
          "name": "",
          "type": "bytes32"
        },
        {
          "internalType": "string[]",
          "name": "",
          "type": "string[]"
        }
      ],
      "stateMutability": "view",
      "type": "function"
    },
    {
      "inputs": [
        {
          "internalType": "string",
          "name": "idFinancialSupportAgreement",
          "type": "string"
        }
      ],
      "name": "getClientPaySupplierData",
      "outputs": [
        {
          "internalType": "bytes32",
          "name": "",
          "type": "bytes32"
        },
        {
          "internalType": "bytes32",
          "name": "",
          "type": "bytes32"
        },
        {
          "internalType": "string[]",
          "name": "",
          "type": "string[]"
        }
      ],
      "stateMutability": "view",
      "type": "function"
    },
    {
      "inputs": [],
      "name": "getBNDESPaySupplierData",
      "outputs": [
        {
          "internalType": "bytes32",
          "name": "",
          "type": "bytes32"
        },
        {
          "internalType": "bytes32",
          "name": "",
          "type": "bytes32"
        },
        {
          "internalType": "string[]",
          "name": "",
          "type": "string[]"
        }
      ],
      "stateMutability": "view",
      "type": "function"
    },
    {
      "inputs": [],
      "name": "getRedeemData",
      "outputs": [
        {
          "internalType": "bytes32",
          "name": "",
          "type": "bytes32"
        },
        {
          "internalType": "string[]",
          "name": "",
          "type": "string[]"
        }
      ],
      "stateMutability": "nonpayable",
      "type": "function"
    },
    {
      "inputs": [
        {
          "internalType": "address",
          "name": "originalSender",
          "type": "address"
        },
        {
          "internalType": "uint256",
          "name": "fromId",
          "type": "uint256"
        },
        {
          "internalType": "bytes32",
          "name": "fromHash",
          "type": "bytes32"
        },
        {
          "internalType": "uint256",
          "name": "toId",
          "type": "uint256"
        },
        {
          "internalType": "bytes32",
          "name": "toHash",
          "type": "bytes32"
        },
        {
          "internalType": "uint256",
          "name": "amount",
          "type": "uint256"
        },
        {
          "internalType": "bytes32",
          "name": "docHash",
          "type": "bytes32"
        },
        {
          "internalType": "string[]",
          "name": "data",
          "type": "string[]"
        }
      ],
      "name": "verifyAndActForTransfer",
      "outputs": [],
      "stateMutability": "nonpayable",
      "type": "function"
    },
    {
      "inputs": [
        {
          "internalType": "uint256",
          "name": "id",
          "type": "uint256"
        }
      ],
      "name": "addSupplier",
      "outputs": [],
      "stateMutability": "nonpayable",
      "type": "function"
    },
    {
      "inputs": [
        {
          "internalType": "address",
          "name": "originalSender",
          "type": "address"
        },
        {
          "internalType": "uint256",
          "name": "fromId",
          "type": "uint256"
        },
        {
          "internalType": "bytes32",
          "name": "fromHash",
          "type": "bytes32"
        },
        {
          "internalType": "uint256",
          "name": "amount",
          "type": "uint256"
        },
        {
          "internalType": "bytes32",
          "name": "docHash",
          "type": "bytes32"
        },
        {
          "internalType": "string[]",
          "name": "data",
          "type": "string[]"
        }
      ],
      "name": "verifyAndActForRedeem",
      "outputs": [],
      "stateMutability": "nonpayable",
      "type": "function"
    },
    {
      "inputs": [
        {
          "internalType": "bytes32",
          "name": "redemptionTransactionHash",
          "type": "bytes32"
        },
        {
          "internalType": "bytes32",
          "name": "docHash",
          "type": "bytes32"
        },
        {
          "internalType": "string[]",
          "name": "data",
          "type": "string[]"
        }
      ],
      "name": "verifyAndActForRedemptionSettlement",
      "outputs": [],
      "stateMutability": "nonpayable",
      "type": "function"
    },
    {
      "inputs": [
        {
          "internalType": "uint256",
          "name": "info",
          "type": "uint256"
        }
      ],
      "name": "getCalculatedHash",
      "outputs": [
        {
          "internalType": "bytes32",
          "name": "",
          "type": "bytes32"
        }
      ],
      "stateMutability": "view",
      "type": "function"
    },
    {
      "inputs": [
        {
          "internalType": "string",
          "name": "info",
          "type": "string"
        }
      ],
      "name": "getCalculatedHash",
      "outputs": [
        {
          "internalType": "bytes32",
          "name": "",
          "type": "bytes32"
        }
      ],
      "stateMutability": "view",
      "type": "function"
    },
    {
      "inputs": [
        {
          "internalType": "uint256",
          "name": "fromId",
          "type": "uint256"
        },
        {
          "internalType": "bytes32",
          "name": "fromHash",
          "type": "bytes32"
        },
        {
          "internalType": "uint256",
          "name": "toId",
          "type": "uint256"
        },
        {
          "internalType": "bytes32",
          "name": "toHash",
          "type": "bytes32"
        },
        {
          "internalType": "uint256",
          "name": "amount",
          "type": "uint256"
        },
        {
          "internalType": "bytes32",
          "name": "docHash",
          "type": "bytes32"
        }
      ],
      "name": "authorizeExtraordinaryTransfer",
      "outputs": [],
      "stateMutability": "nonpayable",
      "type": "function"
    },
    {
      "inputs": [
        {
          "internalType": "address",
          "name": "rs",
          "type": "address"
        }
      ],
      "name": "setResponsibleForInitialAllocation",
      "outputs": [],
      "stateMutability": "nonpayable",
      "type": "function"
    },
    {
      "inputs": [
        {
          "internalType": "address",
          "name": "rs",
          "type": "address"
        }
      ],
      "name": "setResponsibleForDisbursement",
      "outputs": [],
      "stateMutability": "nonpayable",
      "type": "function"
    },
    {
      "inputs": [
        {
          "internalType": "address",
          "name": "rs",
          "type": "address"
        }
      ],
      "name": "setResposibleForApproveExtraordinaryTransfers",
      "outputs": [],
      "stateMutability": "nonpayable",
      "type": "function"
    }
  ],
  "bytecode": "0x60806040526040518060400160405280601281526020017f494e495449414c5f414c4c4f434154494f4e0000000000000000000000000000815250600990805190602001906200005192919062000690565b506040518060400160405280601981526020017f44495342555253454d454e545f564552494649434154494f4e00000000000000815250600a90805190602001906200009f92919062000690565b506040518060400160405280602081526020017f434c49454e545f5041595f535550504c4945525f564552494649434154494f4e815250600b9080519060200190620000ed92919062000690565b506040518060400160405280601f81526020017f424e4445535f5041595f535550504c4945525f564552494649434154494f4e00815250600c90805190602001906200013b92919062000690565b506040518060400160405280601781526020017f45585452414f5244494e4152595f5452414e5346455253000000000000000000815250600d90805190602001906200018992919062000690565b506000601060146101000a81548160ff021916908360ff1602179055506001601060156101000a81548160ff021916908360ff1602179055506002601060166101000a81548160ff021916908360ff160217905550600a601060176101000a81548160ff021916908360ff1602179055506014601060186101000a81548160ff021916908360ff160217905550601e601060196101000a81548160ff021916908360ff1602179055503480156200023f57600080fd5b5060405162007b8938038062007b89833981810160405281019062000265919062000764565b600062000277620004a960201b60201c565b9050806000806101000a81548173ffffffffffffffffffffffffffffffffffffffff021916908373ffffffffffffffffffffffffffffffffffffffff1602179055508073ffffffffffffffffffffffffffffffffffffffff16600073ffffffffffffffffffffffffffffffffffffffff167f8be0079c531659141344cd1fd0a4f28419497f9722a3daafe3b4186f6b6457e060405160405180910390a3506200033562000329620004a960201b60201c565b620004b160201b60201c565b6000600260006101000a81548160ff0219169083151502179055506064811062000396576040517f08c379a00000000000000000000000000000000000000000000000000000000081526004016200038d9062000891565b60405180910390fd5b81600360006101000a81548173ffffffffffffffffffffffffffffffffffffffff021916908373ffffffffffffffffffffffffffffffffffffffff16021790555033600e60006101000a81548173ffffffffffffffffffffffffffffffffffffffff021916908373ffffffffffffffffffffffffffffffffffffffff16021790555033600f60006101000a81548173ffffffffffffffffffffffffffffffffffffffff021916908373ffffffffffffffffffffffffffffffffffffffff16021790555033601060006101000a81548173ffffffffffffffffffffffffffffffffffffffff021916908373ffffffffffffffffffffffffffffffffffffffff1602179055508060088190555050506200097a565b600033905090565b620004cc8160016200051260201b620036441790919060201c565b8073ffffffffffffffffffffffffffffffffffffffff167f6719d08c1888103bea251a4ed56406bd0c3e69723c8a1686e017e7bbe159b6f860405160405180910390a250565b620005248282620005c560201b60201c565b1562000567576040517f08c379a00000000000000000000000000000000000000000000000000000000081526004016200055e90620008b3565b60405180910390fd5b60018260000160008373ffffffffffffffffffffffffffffffffffffffff1673ffffffffffffffffffffffffffffffffffffffff16815260200190815260200160002060006101000a81548160ff0219169083151502179055505050565b60008073ffffffffffffffffffffffffffffffffffffffff168273ffffffffffffffffffffffffffffffffffffffff16141562000639576040517f08c379a00000000000000000000000000000000000000000000000000000000081526004016200063090620008d5565b60405180910390fd5b8260000160008373ffffffffffffffffffffffffffffffffffffffff1673ffffffffffffffffffffffffffffffffffffffff16815260200190815260200160002060009054906101000a900460ff16905092915050565b828054600181600116156101000203166002900490600052602060002090601f016020900481019282601f10620006d357805160ff191683800117855562000704565b8280016001018555821562000704579182015b8281111562000703578251825591602001919060010190620006e6565b5b50905062000713919062000717565b5090565b5b808211156200073257600081600090555060010162000718565b5090565b600081519050620007478162000946565b92915050565b6000815190506200075e8162000960565b92915050565b600080604083850312156200077857600080fd5b6000620007888582860162000736565b92505060206200079b858286016200074d565b9150509250929050565b6000620007b4601b83620008f7565b91507f56616c6f7220646520466565206d61696f7220717565203130302500000000006000830152602082019050919050565b6000620007f6601f83620008f7565b91507f526f6c65733a206163636f756e7420616c72656164792068617320726f6c65006000830152602082019050919050565b600062000838602283620008f7565b91507f526f6c65733a206163636f756e7420697320746865207a65726f20616464726560008301527f73730000000000000000000000000000000000000000000000000000000000006020830152604082019050919050565b60006020820190508181036000830152620008ac81620007a5565b9050919050565b60006020820190508181036000830152620008ce81620007e7565b9050919050565b60006020820190508181036000830152620008f08162000829565b9050919050565b600082825260208201905092915050565b600062000915826200091c565b9050919050565b600073ffffffffffffffffffffffffffffffffffffffff82169050919050565b6000819050919050565b620009518162000908565b81146200095d57600080fd5b50565b6200096b816200093c565b81146200097757600080fd5b50565b6171ff806200098a6000396000f3fe608060405234801561001057600080fd5b50600436106103275760003560e01c80638404e6e0116101b8578063ba6ad85311610104578063dafc3fad116100a2578063f0ad17db1161007c578063f0ad17db1461092d578063f2fde38b14610949578063fa7ca7ea14610965578063fc4b505d1461099557610327565b8063dafc3fad146108c1578063e4c7426f146108dd578063ee33b0bc146108fb57610327565b8063cd541b7a116100de578063cd541b7a14610815578063cea2312114610845578063d91be4c214610875578063daeb1cc91461089157610327565b8063ba6ad853146107ad578063ca196e3c146107c9578063cc70091a146107e557610327565b80638f32d59b116101715780639a9600521161014b5780639a96005214610739578063a6ee26e114610755578063ad641da614610771578063b201a7771461078f57610327565b80638f32d59b146106cf57806390e42c7e146106ed578063942429e41461070957610327565b80638404e6e01461062e5780638456cb591461064c5780638cabf128146106565780638da5cb5b146106745780638e1b808a146106925780638e669481146106b157610327565b806355a2456e1161027757806367da3e85116102305780636f3050671161020a5780636f305067146105cc578063715018a6146105ea5780637b103999146105f457806382dc1ec41461061257610327565b806367da3e85146105845780636c4282da146105a25780636ef8d66d146105c257610327565b806355a2456e146104d25780635a961b15146104ee5780635b50875a1461050c5780635c975abb1461052a5780635f23e09e14610548578063618547a91461056457610327565b806324547b8a116102e45780633f4ba83a116102be5780633f4ba83a1461044c57806341574b3b1461045657806346fbf68e146104725780634abfa163146104a257610327565b806324547b8a146103f4578063329afd3a146104125780633879b6361461043057610327565b806302fce6991461032c5780630715aa6e1461034c57806307728f0f1461036a5780630b2e8fe9146103885780630c9415b5146103a657806317251ba9146103d8575b600080fd5b6103346109b3565b60405161034393929190616721565b60405180910390f35b610354610b0b565b6040516103619190616ec0565b60405180910390f35b610372610b1e565b60405161037f91906167fc565b60405180910390f35b610390610bbc565b60405161039d91906165e1565b60405180910390f35b6103c060048036038101906103bb9190615063565b610be2565b6040516103cf93929190616721565b60405180910390f35b6103f260048036038101906103ed91906150a4565b610d43565b005b6103fc610f00565b6040516104099190616ec0565b60405180910390f35b61041a610f13565b60405161042791906165e1565b60405180910390f35b61044a60048036038101906104459190614d72565b610f39565b005b6104546111a1565b005b610470600480360381019061046b9190614e65565b61129a565b005b61048c60048036038101906104879190614d72565b61175b565b6040516104999190616692565b60405180910390f35b6104bc60048036038101906104b791906150a4565b611778565b6040516104c99190616692565b60405180910390f35b6104ec60048036038101906104e79190614d72565b611798565b005b6104f66117dc565b60405161050391906167fc565b60405180910390f35b61051461187a565b6040516105219190616ec0565b60405180910390f35b61053261188d565b60405161053f9190616692565b60405180910390f35b610562600480360381019061055d9190615132565b6118a4565b005b61056c611a6c565b60405161057b93929190616721565b60405180910390f35b61058c611bc4565b60405161059991906167fc565b60405180910390f35b6105aa611c62565b6040516105b993929190616721565b60405180910390f35b6105ca611dba565b005b6105d4611dcc565b6040516105e19190616ec0565b60405180910390f35b6105f2611ddf565b005b6105fc611ee4565b60405161060991906167a4565b60405180910390f35b61062c60048036038101906106279190614d72565b611f0a565b005b610636611f65565b6040516106439190616ec0565b60405180910390f35b610654611f78565b005b61065e612072565b60405161066b91906165e1565b60405180910390f35b61067c612098565b60405161068991906165e1565b60405180910390f35b61069a6120c1565b6040516106a89291906166c8565b60405180910390f35b6106b9612141565b6040516106c691906167fc565b60405180910390f35b6106d76121df565b6040516106e49190616692565b60405180910390f35b61070760048036038101906107029190614d72565b61223d565b005b610723600480360381019061071e91906150a4565b6124a5565b60405161073091906166ad565b60405180910390f35b610753600480360381019061074e9190614d72565b6124d5565b005b61076f600480360381019061076a9190614f81565b61273d565b005b61077961285b565b6040516107869190616d15565b60405180910390f35b610797612861565b6040516107a49190616ec0565b60405180910390f35b6107c760048036038101906107c29190614dc4565b612874565b005b6107e360048036038101906107de91906150a4565b612a96565b005b6107ff60048036038101906107fa9190615063565b612c65565b60405161080c91906166ad565b60405180910390f35b61082f600480360381019061082a9190614f58565b612c95565b60405161083c91906166ad565b60405180910390f35b61085f600480360381019061085a91906150a4565b612cb9565b60405161086c9190616692565b60405180910390f35b61088f600480360381019061088a91906150f6565b612cd9565b005b6108ab60048036038101906108a691906151bb565b613015565b6040516108b89190616692565b60405180910390f35b6108db60048036038101906108d691906150f6565b61305a565b005b6108e5613128565b6040516108f291906167bf565b60405180910390f35b61091560048036038101906109109190615063565b61314e565b60405161092493929190616721565b60405180910390f35b61094760048036038101906109429190614fe8565b6132af565b005b610963600480360381019061095e9190614d72565b613532565b005b61097f600480360381019061097a91906150a4565b613585565b60405161098c91906166ad565b60405180910390f35b61099d6135a6565b6040516109aa91906167fc565b60405180910390f35b600080606060006109d5601060149054906101000a900460ff1660ff166124a5565b905060006109f4601060159054906101000a900460ff1660ff166124a5565b90506060600167ffffffffffffffff81118015610a1057600080fd5b50604051908082528060200260200182016040528015610a4457816020015b6060815260200190600190039081610a2f5790505b50905060098054600181600116156101000203166002900480601f016020809104026020016040519081016040528092919081815260200182805460018160011615610100020316600290048015610add5780601f10610ab257610100808354040283529160200191610add565b820191906000526020600020905b815481529060010190602001808311610ac057829003601f168201915b505050505081600081518110610aef57fe5b6020026020010181905250828282955095509550505050909192565b601060149054906101000a900460ff1681565b60098054600181600116156101000203166002900480601f016020809104026020016040519081016040528092919081815260200182805460018160011615610100020316600290048015610bb45780601f10610b8957610100808354040283529160200191610bb4565b820191906000526020600020905b815481529060010190602001808311610b9757829003601f168201915b505050505081565b601060009054906101000a900473ffffffffffffffffffffffffffffffffffffffff1681565b60008060606000610bf285612c65565b90506000610c11601060189054906101000a900460ff1660ff166124a5565b90506060600267ffffffffffffffff81118015610c2d57600080fd5b50604051908082528060200260200182016040528015610c6157816020015b6060815260200190600190039081610c4c5790505b509050600b8054600181600116156101000203166002900480601f016020809104026020016040519081016040528092919081815260200182805460018160011615610100020316600290048015610cfa5780601f10610ccf57610100808354040283529160200191610cfa565b820191906000526020600020905b815481529060010190602001808311610cdd57829003601f168201915b505050505081600081518110610d0c57fe5b60200260200101819052508681600181518110610d2557fe5b60200260200101819052508282829550955095505050509193909250565b610d4b6121df565b610d8a576040517f08c379a0000000000000000000000000000000000000000000000000000000008152600401610d8190616b75565b60405180910390fd5b600260019054906101000a900473ffffffffffffffffffffffffffffffffffffffff1673ffffffffffffffffffffffffffffffffffffffff1663613a7896826040518263ffffffff1660e01b8152600401610de59190616d15565b60206040518083038186803b158015610dfd57600080fd5b505afa158015610e11573d6000803e3d6000fd5b505050506040513d601f19601f82011682018060405250810190610e359190614f2f565b610e74576040517f08c379a0000000000000000000000000000000000000000000000000000000008152600401610e6b90616a95565b60405180910390fd5b6004600082815260200190815260200160002060009054906101000a900460ff16610efd5760016004600083815260200190815260200160002060006101000a81548160ff0219169083151502179055507fbf594816977ea5809bf299bfeeb10d2cb41e25a998a19fafe5460164b3cdb08b81604051610ef49190616d15565b60405180910390a15b50565b601060159054906101000a900460ff1681565b600e60009054906101000a900473ffffffffffffffffffffffffffffffffffffffff1681565b610f416121df565b610f80576040517f08c379a0000000000000000000000000000000000000000000000000000000008152600401610f7790616b75565b60405180910390fd5b6000600260019054906101000a900473ffffffffffffffffffffffffffffffffffffffff1673ffffffffffffffffffffffffffffffffffffffff166365f68c89836040518263ffffffff1660e01b8152600401610fdd91906165e1565b60206040518083038186803b158015610ff557600080fd5b505afa158015611009573d6000803e3d6000fd5b505050506040513d601f19601f8201168201806040525081019061102d91906150cd565b9050600260019054906101000a900473ffffffffffffffffffffffffffffffffffffffff1673ffffffffffffffffffffffffffffffffffffffff166365f68c89611075612098565b6040518263ffffffff1660e01b815260040161109191906165e1565b60206040518083038186803b1580156110a957600080fd5b505afa1580156110bd573d6000803e3d6000fd5b505050506040513d601f19601f820116820180604052508101906110e191906150cd565b8114611122576040517f08c379a000000000000000000000000000000000000000000000000000000000815260040161111990616875565b60405180910390fd5b81600e60006101000a81548173ffffffffffffffffffffffffffffffffffffffff021916908373ffffffffffffffffffffffffffffffffffffffff1602179055507f3e3119fbec468368c03e4732985b5a3f373d3a8b8ad5cc0f820357687349b63d826001604051611195929190616617565b60405180910390a15050565b6111b16111ac6136ec565b61175b565b6111f0576040517f08c379a00000000000000000000000000000000000000000000000000000000081526004016111e790616915565b60405180910390fd5b600260009054906101000a900460ff1661123f576040517f08c379a000000000000000000000000000000000000000000000000000000000815260040161123690616895565b60405180910390fd5b6000600260006101000a81548160ff0219169083151502179055507f5db9ee0a495bf2e6ff9c91a7834c1ba4fdd244a5e8aa4e537bd38aeae4b073aa6112836136ec565b60405161129091906165fc565b60405180910390a1565b600260009054906101000a900460ff16156112ea576040517f08c379a00000000000000000000000000000000000000000000000000000000081526004016112e190616a55565b60405180910390fd5b600360009054906101000a900473ffffffffffffffffffffffffffffffffffffffff1673ffffffffffffffffffffffffffffffffffffffff163373ffffffffffffffffffffffffffffffffffffffff161461137a576040517f08c379a000000000000000000000000000000000000000000000000000000000815260040161137190616cd5565b60405180910390fd5b60608160008151811061138957fe5b60200260200101519050600084116113d6576040517f08c379a00000000000000000000000000000000000000000000000000000000081526004016113cd90616a15565b60405180910390fd5b73__RBBLib________________________________63465c41056009836040518363ffffffff1660e01b815260040161141092919061681e565b60206040518083038186803b15801561142857600080fd5b505af415801561143c573d6000803e3d6000fd5b505050506040513d601f19601f820116820180604052508101906114609190614f2f565b1561147a5761147589898989898989896136f4565b611750565b73__RBBLib________________________________63465c4105600a836040518363ffffffff1660e01b81526004016114b492919061681e565b60206040518083038186803b1580156114cc57600080fd5b505af41580156114e0573d6000803e3d6000fd5b505050506040513d601f19601f820116820180604052508101906115049190614f2f565b1561151e576115198989898989898989613a78565b61174f565b73__RBBLib________________________________63465c4105600b836040518363ffffffff1660e01b815260040161155892919061681e565b60206040518083038186803b15801561157057600080fd5b505af4158015611584573d6000803e3d6000fd5b505050506040513d601f19601f820116820180604052508101906115a89190614f2f565b156115c2576115bd8989898989898989613e19565b61174e565b73__RBBLib________________________________63465c4105600c836040518363ffffffff1660e01b81526004016115fc92919061681e565b60206040518083038186803b15801561161457600080fd5b505af4158015611628573d6000803e3d6000fd5b505050506040513d601f19601f8201168201806040525081019061164c9190614f2f565b156116665761166189898989898989896140bc565b61174d565b73__RBBLib________________________________63465c4105600d836040518363ffffffff1660e01b81526004016116a092919061681e565b60206040518083038186803b1580156116b857600080fd5b505af41580156116cc573d6000803e3d6000fd5b505050506040513d601f19601f820116820180604052508101906116f09190614f2f565b1561170a5761170589898989898989896143cf565b61174c565b600061174b576040517f08c379a000000000000000000000000000000000000000000000000000000000815260040161174290616bb5565b60405180910390fd5b5b5b5b5b5b505050505050505050565b600061177182600161462e90919063ffffffff16565b9050919050565b60046020528060005260406000206000915054906101000a900460ff1681565b80600260016101000a81548173ffffffffffffffffffffffffffffffffffffffff021916908373ffffffffffffffffffffffffffffffffffffffff16021790555050565b600d8054600181600116156101000203166002900480601f0160208091040260200160405190810160405280929190818152602001828054600181600116156101000203166002900480156118725780601f1061184757610100808354040283529160200191611872565b820191906000526020600020905b81548152906001019060200180831161185557829003601f168201915b505050505081565b601060179054906101000a900460ff1681565b6000600260009054906101000a900460ff16905090565b3373ffffffffffffffffffffffffffffffffffffffff16601060009054906101000a900473ffffffffffffffffffffffffffffffffffffffff1673ffffffffffffffffffffffffffffffffffffffff1614611934576040517f08c379a000000000000000000000000000000000000000000000000000000000815260040161192b906169d5565b60405180910390fd5b61193e86866146f6565b61197d576040517f08c379a000000000000000000000000000000000000000000000000000000000815260040161197490616ab5565b60405180910390fd5b61198784846146f6565b6119c6576040517f08c379a00000000000000000000000000000000000000000000000000000000081526004016119bd906168d5565b60405180910390fd5b600086868686866040516020016119e1959493929190616582565b60405160208183030381529060405280519060200120905060078190806001815401808255809150506001900390600052602060002001600090919091909150557f8fbc7818210c8d0cab55b36028efc60a3f6e71aa8ad8a2abb88cd9ba5f816735878787878787604051611a5b96959493929190616d59565b60405180910390a150505050505050565b60008060606000611a8e601060149054906101000a900460ff1660ff166124a5565b90506000611aad601060169054906101000a900460ff1660ff166124a5565b90506060600167ffffffffffffffff81118015611ac957600080fd5b50604051908082528060200260200182016040528015611afd57816020015b6060815260200190600190039081611ae85790505b50905060098054600181600116156101000203166002900480601f016020809104026020016040519081016040528092919081815260200182805460018160011615610100020316600290048015611b965780601f10611b6b57610100808354040283529160200191611b96565b820191906000526020600020905b815481529060010190602001808311611b7957829003601f168201915b505050505081600081518110611ba857fe5b6020026020010181905250828282955095509550505050909192565b600b8054600181600116156101000203166002900480601f016020809104026020016040519081016040528092919081815260200182805460018160011615610100020316600290048015611c5a5780601f10611c2f57610100808354040283529160200191611c5a565b820191906000526020600020905b815481529060010190602001808311611c3d57829003601f168201915b505050505081565b60008060606000611c84601060159054906101000a900460ff1660ff166124a5565b90506000611ca3601060189054906101000a900460ff1660ff166124a5565b90506060600167ffffffffffffffff81118015611cbf57600080fd5b50604051908082528060200260200182016040528015611cf357816020015b6060815260200190600190039081611cde5790505b509050600c8054600181600116156101000203166002900480601f016020809104026020016040519081016040528092919081815260200182805460018160011615610100020316600290048015611d8c5780601f10611d6157610100808354040283529160200191611d8c565b820191906000526020600020905b815481529060010190602001808311611d6f57829003601f168201915b505050505081600081518110611d9e57fe5b6020026020010181905250828282955095509550505050909192565b611dca611dc56136ec565b6149a4565b565b601060169054906101000a900460ff1681565b611de76121df565b611e26576040517f08c379a0000000000000000000000000000000000000000000000000000000008152600401611e1d90616b75565b60405180910390fd5b600073ffffffffffffffffffffffffffffffffffffffff1660008054906101000a900473ffffffffffffffffffffffffffffffffffffffff1673ffffffffffffffffffffffffffffffffffffffff167f8be0079c531659141344cd1fd0a4f28419497f9722a3daafe3b4186f6b6457e060405160405180910390a360008060006101000a81548173ffffffffffffffffffffffffffffffffffffffff021916908373ffffffffffffffffffffffffffffffffffffffff160217905550565b600260019054906101000a900473ffffffffffffffffffffffffffffffffffffffff1681565b611f1a611f156136ec565b61175b565b611f59576040517f08c379a0000000000000000000000000000000000000000000000000000000008152600401611f5090616915565b60405180910390fd5b611f62816149fe565b50565b601060189054906101000a900460ff1681565b611f88611f836136ec565b61175b565b611fc7576040517f08c379a0000000000000000000000000000000000000000000000000000000008152600401611fbe90616915565b60405180910390fd5b600260009054906101000a900460ff1615612017576040517f08c379a000000000000000000000000000000000000000000000000000000000815260040161200e90616a55565b60405180910390fd5b6001600260006101000a81548160ff0219169083151502179055507f62e78cea01bee320cd4e420270b5ea74000d11b0c9f74754ebdbfc544b05a25861205b6136ec565b60405161206891906165fc565b60405180910390a1565b600f60009054906101000a900473ffffffffffffffffffffffffffffffffffffffff1681565b60008060009054906101000a900473ffffffffffffffffffffffffffffffffffffffff16905090565b6000606060006120e2601060189054906101000a900460ff1660ff166124a5565b90506060600067ffffffffffffffff811180156120fe57600080fd5b5060405190808252806020026020018201604052801561213257816020015b606081526020019060019003908161211d5790505b50905081819350935050509091565b600a8054600181600116156101000203166002900480601f0160208091040260200160405190810160405280929190818152602001828054600181600116156101000203166002900480156121d75780601f106121ac576101008083540402835291602001916121d7565b820191906000526020600020905b8154815290600101906020018083116121ba57829003601f168201915b505050505081565b60008060009054906101000a900473ffffffffffffffffffffffffffffffffffffffff1673ffffffffffffffffffffffffffffffffffffffff166122216136ec565b73ffffffffffffffffffffffffffffffffffffffff1614905090565b6122456121df565b612284576040517f08c379a000000000000000000000000000000000000000000000000000000000815260040161227b90616b75565b60405180910390fd5b6000600260019054906101000a900473ffffffffffffffffffffffffffffffffffffffff1673ffffffffffffffffffffffffffffffffffffffff166365f68c89836040518263ffffffff1660e01b81526004016122e191906165e1565b60206040518083038186803b1580156122f957600080fd5b505afa15801561230d573d6000803e3d6000fd5b505050506040513d601f19601f8201168201806040525081019061233191906150cd565b9050600260019054906101000a900473ffffffffffffffffffffffffffffffffffffffff1673ffffffffffffffffffffffffffffffffffffffff166365f68c89612379612098565b6040518263ffffffff1660e01b815260040161239591906165e1565b60206040518083038186803b1580156123ad57600080fd5b505afa1580156123c1573d6000803e3d6000fd5b505050506040513d601f19601f820116820180604052508101906123e591906150cd565b8114612426576040517f08c379a000000000000000000000000000000000000000000000000000000000815260040161241d90616c75565b60405180910390fd5b81600f60006101000a81548173ffffffffffffffffffffffffffffffffffffffff021916908373ffffffffffffffffffffffffffffffffffffffff1602179055507f3e3119fbec468368c03e4732985b5a3f373d3a8b8ad5cc0f820357687349b63d826002604051612499929190616640565b60405180910390a15050565b6000816040516020016124b89190616567565b604051602081830303815290604052805190602001209050919050565b6124dd6121df565b61251c576040517f08c379a000000000000000000000000000000000000000000000000000000000815260040161251390616b75565b60405180910390fd5b6000600260019054906101000a900473ffffffffffffffffffffffffffffffffffffffff1673ffffffffffffffffffffffffffffffffffffffff166365f68c89836040518263ffffffff1660e01b815260040161257991906165e1565b60206040518083038186803b15801561259157600080fd5b505afa1580156125a5573d6000803e3d6000fd5b505050506040513d601f19601f820116820180604052508101906125c991906150cd565b9050600260019054906101000a900473ffffffffffffffffffffffffffffffffffffffff1673ffffffffffffffffffffffffffffffffffffffff166365f68c89612611612098565b6040518263ffffffff1660e01b815260040161262d91906165e1565b60206040518083038186803b15801561264557600080fd5b505afa158015612659573d6000803e3d6000fd5b505050506040513d601f19601f8201168201806040525081019061267d91906150cd565b81146126be576040517f08c379a00000000000000000000000000000000000000000000000000000000081526004016126b590616b55565b60405180910390fd5b81601060006101000a81548173ffffffffffffffffffffffffffffffffffffffff021916908373ffffffffffffffffffffffffffffffffffffffff1602179055507f3e3119fbec468368c03e4732985b5a3f373d3a8b8ad5cc0f820357687349b63d826003604051612731929190616669565b60405180910390a15050565b600260009054906101000a900460ff161561278d576040517f08c379a000000000000000000000000000000000000000000000000000000000815260040161278490616a55565b60405180910390fd5b600360009054906101000a900473ffffffffffffffffffffffffffffffffffffffff1673ffffffffffffffffffffffffffffffffffffffff163373ffffffffffffffffffffffffffffffffffffffff161461281d576040517f08c379a000000000000000000000000000000000000000000000000000000000815260040161281490616cd5565b60405180910390fd5b7ff2117f45bb026f7f165d939836d0293bad4b8aaf2e658cb38900da27a8130655838360405161284e9291906166f8565b60405180910390a1505050565b60085481565b601060199054906101000a900460ff1681565b600260009054906101000a900460ff16156128c4576040517f08c379a00000000000000000000000000000000000000000000000000000000081526004016128bb90616a55565b60405180910390fd5b600360009054906101000a900473ffffffffffffffffffffffffffffffffffffffff1673ffffffffffffffffffffffffffffffffffffffff163373ffffffffffffffffffffffffffffffffffffffff1614612954576040517f08c379a000000000000000000000000000000000000000000000000000000000815260040161294b90616cd5565b60405180910390fd5b60008311612997576040517f08c379a000000000000000000000000000000000000000000000000000000000815260040161298e90616a15565b60405180910390fd5b6006600086815260200190815260200160002060009054906101000a900460ff166129f7576040517f08c379a00000000000000000000000000000000000000000000000000000000081526004016129ee906169f5565b60405180910390fd5b83612a13601060189054906101000a900460ff1660ff166124a5565b14612a53576040517f08c379a0000000000000000000000000000000000000000000000000000000008152600401612a4a90616a35565b60405180910390fd5b7fb30495d559e05f5f1c993ea722cb239b6d85f70ed9c914b8350c4b94feed7ccd858484604051612a8693929190616e89565b60405180910390a1505050505050565b600f60009054906101000a900473ffffffffffffffffffffffffffffffffffffffff1673ffffffffffffffffffffffffffffffffffffffff163373ffffffffffffffffffffffffffffffffffffffff1614612b26576040517f08c379a0000000000000000000000000000000000000000000000000000000008152600401612b1d90616a75565b60405180910390fd5b6006600082815260200190815260200160002060009054906101000a900460ff16612c625760016006600083815260200190815260200160002060006101000a81548160ff0219169083151502179055507f2757aa27a660ab391745e035b5a23653f6497d768c445f6a9c3df78e1d18727f600260019054906101000a900473ffffffffffffffffffffffffffffffffffffffff1673ffffffffffffffffffffffffffffffffffffffff166365f68c89612bde612098565b6040518263ffffffff1660e01b8152600401612bfa91906165e1565b60206040518083038186803b158015612c1257600080fd5b505afa158015612c26573d6000803e3d6000fd5b505050506040513d601f19601f82011682018060405250810190612c4a91906150cd565b82604051612c59929190616e60565b60405180910390a15b50565b600081604051602001612c789190616550565b604051602081830303815290604052805190602001209050919050565b6000612cb2601060149054906101000a900460ff1660ff166124a5565b9050919050565b60066020528060005260406000206000915054906101000a900460ff1681565b600260009054906101000a900460ff1615612d29576040517f08c379a0000000000000000000000000000000000000000000000000000000008152600401612d2090616a55565b60405180910390fd5b6000600260019054906101000a900473ffffffffffffffffffffffffffffffffffffffff1673ffffffffffffffffffffffffffffffffffffffff166365f68c89336040518263ffffffff1660e01b8152600401612d8691906165fc565b60206040518083038186803b158015612d9e57600080fd5b505afa158015612db2573d6000803e3d6000fd5b505050506040513d601f19601f82011682018060405250810190612dd691906150cd565b90506004600082815260200190815260200160002060009054906101000a900460ff16612e38576040517f08c379a0000000000000000000000000000000000000000000000000000000008152600401612e2f90616b35565b60405180910390fd5b600260019054906101000a900473ffffffffffffffffffffffffffffffffffffffff1673ffffffffffffffffffffffffffffffffffffffff1663613a7896826040518263ffffffff1660e01b8152600401612e939190616d15565b60206040518083038186803b158015612eab57600080fd5b505afa158015612ebf573d6000803e3d6000fd5b505050506040513d601f19601f82011682018060405250810190612ee39190614f2f565b612f22576040517f08c379a0000000000000000000000000000000000000000000000000000000008152600401612f1990616a95565b60405180910390fd5b6000612f3f601060199054906101000a900460ff1660ff166124a5565b9050600360009054906101000a900473ffffffffffffffffffffffffffffffffffffffff1673ffffffffffffffffffffffffffffffffffffffff166304cc4d8e828487876040518563ffffffff1660e01b8152600401612fa2949392919061675f565b600060405180830381600087803b158015612fbc57600080fd5b505af1158015612fd0573d6000803e3d6000fd5b505050507f1bb5ed67b2bbb22aaf99cdcf7dbcf09ad7b4e3999dab8f77fd76c207b6e226da82858560405161300793929190616e89565b60405180910390a150505050565b6005602052816000526040600020818051602081018201805184825260208301602085012081835280955050505050506000915091509054906101000a900460ff1681565b6130626121df565b6130a1576040517f08c379a000000000000000000000000000000000000000000000000000000000815260040161309890616b75565b60405180910390fd5b606482106130e4576040517f08c379a00000000000000000000000000000000000000000000000000000000081526004016130db90616855565b60405180910390fd5b816008819055507f94514d602145b96a19d64f0297fc93f891dfa585d0b414185acfe635b073752b828260405161311c929190616d30565b60405180910390a15050565b600360009054906101000a900473ffffffffffffffffffffffffffffffffffffffff1681565b60008060606000613170601060159054906101000a900460ff1660ff166124a5565b9050600061317d86612c65565b90506060600267ffffffffffffffff8111801561319957600080fd5b506040519080825280602002602001820160405280156131cd57816020015b60608152602001906001900390816131b85790505b509050600a8054600181600116156101000203166002900480601f0160208091040260200160405190810160405280929190818152602001828054600181600116156101000203166002900480156132665780601f1061323b57610100808354040283529160200191613266565b820191906000526020600020905b81548152906001019060200180831161324957829003601f168201915b50505050508160008151811061327857fe5b6020026020010181905250868160018151811061329157fe5b60200260200101819052508282829550955095505050509193909250565b600260009054906101000a900460ff16156132ff576040517f08c379a00000000000000000000000000000000000000000000000000000000081526004016132f690616a55565b60405180910390fd5b600360009054906101000a900473ffffffffffffffffffffffffffffffffffffffff1673ffffffffffffffffffffffffffffffffffffffff163373ffffffffffffffffffffffffffffffffffffffff161461338f576040517f08c379a000000000000000000000000000000000000000000000000000000000815260040161338690616cd5565b60405180910390fd5b836133ab601060199054906101000a900460ff1660ff166124a5565b146133eb576040517f08c379a00000000000000000000000000000000000000000000000000000000081526004016133e290616b15565b60405180910390fd5b6060816000815181106133fa57fe5b60200260200101519050600073__RBBLib________________________________633581ee54836040518263ffffffff1660e01b815260040161343d91906167da565b60206040518083038186803b15801561345557600080fd5b505af4158015613469573d6000803e3d6000fd5b505050506040513d601f19601f8201168201806040525081019061348d91906150cd565b90506004600082815260200190815260200160002060009054906101000a900460ff166134ef576040517f08c379a00000000000000000000000000000000000000000000000000000000081526004016134e690616bd5565b60405180910390fd5b7f5d4d346a0213ff920be5c680b2dae20438f8a3447c0b4bd37268d1d2f523432a81868660405161352293929190616e89565b60405180910390a1505050505050565b61353a6121df565b613579576040517f08c379a000000000000000000000000000000000000000000000000000000000815260040161357090616b75565b60405180910390fd5b61358281614a58565b50565b6007818154811061359257fe5b906000526020600020016000915090505481565b600c8054600181600116156101000203166002900480601f01602080910402602001604051908101604052809291908181526020018280546001816001161561010002031660029004801561363c5780601f106136115761010080835404028352916020019161363c565b820191906000526020600020905b81548152906001019060200180831161361f57829003601f168201915b505050505081565b61364e828261462e565b1561368e576040517f08c379a0000000000000000000000000000000000000000000000000000000008152600401613685906168b5565b60405180910390fd5b60018260000160008373ffffffffffffffffffffffffffffffffffffffff1673ffffffffffffffffffffffffffffffffffffffff16815260200190815260200160002060006101000a81548160ff0219169083151502179055505050565b600033905090565b600260009054906101000a900460ff1615613744576040517f08c379a000000000000000000000000000000000000000000000000000000000815260040161373b90616a55565b60405180910390fd5b8773ffffffffffffffffffffffffffffffffffffffff16600e60009054906101000a900473ffffffffffffffffffffffffffffffffffffffff1673ffffffffffffffffffffffffffffffffffffffff16146137d4576040517f08c379a00000000000000000000000000000000000000000000000000000000081526004016137cb90616c15565b60405180910390fd5b6000600260019054906101000a900473ffffffffffffffffffffffffffffffffffffffff1673ffffffffffffffffffffffffffffffffffffffff166365f68c8961381c612098565b6040518263ffffffff1660e01b815260040161383891906165e1565b60206040518083038186803b15801561385057600080fd5b505afa158015613864573d6000803e3d6000fd5b505050506040513d601f19601f8201168201806040525081019061388891906150cd565b90508088146138cc576040517f08c379a00000000000000000000000000000000000000000000000000000000081526004016138c390616c95565b60405180910390fd5b6138e7601060149054906101000a900460ff1660ff166124a5565b8714613928576040517f08c379a000000000000000000000000000000000000000000000000000000000815260040161391f90616c55565b60405180910390fd5b85881461396a576040517f08c379a000000000000000000000000000000000000000000000000000000000815260040161396190616af5565b60405180910390fd5b613985601060159054906101000a900460ff1660ff166124a5565b8514156139ca577f94d89c2ff047eba28eb56cacf5a8e292f150c43e792d648d54f8b93372849b3c84846040516139bd929190616d30565b60405180910390a1613a6d565b6139e5601060169054906101000a900460ff1660ff166124a5565b851415613a2a577f7916e578b526c14777538bb519e208901510a7ff7765e2e339258b6ba65272fc8484604051613a1d929190616d30565b60405180910390a1613a6c565b6000613a6b576040517f08c379a0000000000000000000000000000000000000000000000000000000008152600401613a6290616cb5565b60405180910390fd5b5b5b505050505050505050565b600260009054906101000a900460ff1615613ac8576040517f08c379a0000000000000000000000000000000000000000000000000000000008152600401613abf90616a55565b60405180910390fd5b606081600181518110613ad757fe5b602002602001015190506000600260019054906101000a900473ffffffffffffffffffffffffffffffffffffffff1673ffffffffffffffffffffffffffffffffffffffff166365f68c89613b29612098565b6040518263ffffffff1660e01b8152600401613b4591906165e1565b60206040518083038186803b158015613b5d57600080fd5b505afa158015613b71573d6000803e3d6000fd5b505050506040513d601f19601f82011682018060405250810190613b9591906150cd565b9050600f60009054906101000a900473ffffffffffffffffffffffffffffffffffffffff1673ffffffffffffffffffffffffffffffffffffffff168a73ffffffffffffffffffffffffffffffffffffffff1614613c27576040517f08c379a0000000000000000000000000000000000000000000000000000000008152600401613c1e90616a75565b60405180910390fd5b808914613c69576040517f08c379a0000000000000000000000000000000000000000000000000000000008152600401613c6090616c95565b60405180910390fd5b87613c85601060159054906101000a900460ff1660ff166124a5565b14613cc5576040517f08c379a0000000000000000000000000000000000000000000000000000000008152600401613cbc906169b5565b60405180910390fd5b85613ccf83612c65565b14613d0f576040517f08c379a0000000000000000000000000000000000000000000000000000000008152600401613d0690616cf5565b60405180910390fd5b6005600088815260200190815260200160002082604051613d309190616550565b908152602001604051809103902060009054906101000a900460ff16613dd05760016005600089815260200190815260200160002083604051613d739190616550565b908152602001604051809103902060006101000a81548160ff0219169083151502179055507f448b0dd714fa3713f69988b8ee8bad3ac840e06e3d93c970086a3d490d61c62987604051613dc79190616d15565b60405180910390a15b7fe08d0d3d48ef9857108be67cfe715057ce9b455eaf3a4d3b66f34bf148311d7a87838787604051613e059493929190616dba565b60405180910390a150505050505050505050565b600260009054906101000a900460ff1615613e69576040517f08c379a0000000000000000000000000000000000000000000000000000000008152600401613e6090616a55565b60405180910390fd5b606081600181518110613e7857fe5b602002602001015190506005600089815260200190815260200160002081604051613ea39190616550565b908152602001604051809103902060009054906101000a900460ff16613efe576040517f08c379a0000000000000000000000000000000000000000000000000000000008152600401613ef590616935565b60405180910390fd5b86613f0882612c65565b14613f48576040517f08c379a0000000000000000000000000000000000000000000000000000000008152600401613f3f90616cf5565b60405180910390fd5b84613f64601060189054906101000a900460ff1660ff166124a5565b14613fa4576040517f08c379a0000000000000000000000000000000000000000000000000000000008152600401613f9b90616a35565b60405180910390fd5b85881415613fe7576040517f08c379a0000000000000000000000000000000000000000000000000000000008152600401613fde90616995565b60405180910390fd5b6006600087815260200190815260200160002060009054906101000a900460ff166140725760016006600088815260200190815260200160002060006101000a81548160ff0219169083151502179055507f2757aa27a660ab391745e035b5a23653f6497d768c445f6a9c3df78e1d18727f8887604051614069929190616e60565b60405180910390a15b7fdd62ead748da3466d84db25e6f55c3213f29aaf5c159d4d576018cd84209782688828887876040516140a9959493929190616e06565b60405180910390a1505050505050505050565b600260009054906101000a900460ff161561410c576040517f08c379a000000000000000000000000000000000000000000000000000000000815260040161410390616a55565b60405180910390fd5b600f60009054906101000a900473ffffffffffffffffffffffffffffffffffffffff1673ffffffffffffffffffffffffffffffffffffffff168873ffffffffffffffffffffffffffffffffffffffff161461419c576040517f08c379a000000000000000000000000000000000000000000000000000000000815260040161419390616a75565b60405180910390fd5b600260019054906101000a900473ffffffffffffffffffffffffffffffffffffffff1673ffffffffffffffffffffffffffffffffffffffff166365f68c896141e2612098565b6040518263ffffffff1660e01b81526004016141fe91906165e1565b60206040518083038186803b15801561421657600080fd5b505afa15801561422a573d6000803e3d6000fd5b505050506040513d601f19601f8201168201806040525081019061424e91906150cd565b871461428f576040517f08c379a000000000000000000000000000000000000000000000000000000000815260040161428690616955565b60405180910390fd5b856142ab601060169054906101000a900460ff1660ff166124a5565b146142eb576040517f08c379a00000000000000000000000000000000000000000000000000000000081526004016142e290616c35565b60405180910390fd5b83614307601060189054906101000a900460ff1660ff166124a5565b14614347576040517f08c379a000000000000000000000000000000000000000000000000000000000815260040161433e90616a35565b60405180910390fd5b8487141561438a576040517f08c379a000000000000000000000000000000000000000000000000000000000815260040161438190616bf5565b60405180910390fd5b7f8316c04a0a2b1e71f63264f2f0380d43ae9f758672a97012d6880fcedcb542328584846040516143bd93929190616e89565b60405180910390a15050505050505050565b600260009054906101000a900460ff161561441f576040517f08c379a000000000000000000000000000000000000000000000000000000000815260040161441690616a55565b60405180910390fd5b61442987876146f6565b614468576040517f08c379a000000000000000000000000000000000000000000000000000000000815260040161445f90616ab5565b60405180910390fd5b61447285856146f6565b6144b1576040517f08c379a00000000000000000000000000000000000000000000000000000000081526004016144a8906168d5565b60405180910390fd5b6060816001815181106144c057fe5b60200260200101519050600088888888886040516020016144e5959493929190616582565b6040516020818303038152906040528051906020012090506000805b60078054905081101561454357826007828154811061451c57fe5b906000526020600020015414156145365760019150614543565b8080600101915050614501565b81614583576040517f08c379a000000000000000000000000000000000000000000000000000000000815260040161457a906168f5565b60405180910390fd5b60076001600780549050038154811061459857fe5b9060005260206000200154600782815481106145b057fe5b906000526020600020018190555060078054806145c957fe5b600190038181906000526020600020016000905590557fae2b72cc4621b123feac073da32309bdd45fefaa49154814cd8c8b3c7c4d5cb78b8b8b8b8b8b60405161461896959493929190616d59565b60405180910390a1505050505050505050505050565b60008073ffffffffffffffffffffffffffffffffffffffff168273ffffffffffffffffffffffffffffffffffffffff16141561469f576040517f08c379a000000000000000000000000000000000000000000000000000000000815260040161469690616b95565b60405180910390fd5b8260000160008373ffffffffffffffffffffffffffffffffffffffff1673ffffffffffffffffffffffffffffffffffffffff16815260200190815260200160002060009054906101000a900460ff16905092915050565b60008060009050600115156004600086815260200190815260200160002060009054906101000a900460ff161515141561473457600191505061499e565b600115156006600086815260200190815260200160002060009054906101000a900460ff161515141561476b57600191505061499e565b6000600260019054906101000a900473ffffffffffffffffffffffffffffffffffffffff1673ffffffffffffffffffffffffffffffffffffffff166365f68c896147b3612098565b6040518263ffffffff1660e01b81526004016147cf91906165e1565b60206040518083038186803b1580156147e757600080fd5b505afa1580156147fb573d6000803e3d6000fd5b505050506040513d601f19601f8201168201806040525081019061481f91906150cd565b9050848114156148345760019250505061499e565b6000600260019054906101000a900473ffffffffffffffffffffffffffffffffffffffff1673ffffffffffffffffffffffffffffffffffffffff166365f68c89600360009054906101000a900473ffffffffffffffffffffffffffffffffffffffff1673ffffffffffffffffffffffffffffffffffffffff16638da5cb5b6040518163ffffffff1660e01b815260040160206040518083038186803b1580156148dc57600080fd5b505afa1580156148f0573d6000803e3d6000fd5b505050506040513d601f19601f820116820180604052508101906149149190614d9b565b6040518263ffffffff1660e01b815260040161493091906165e1565b60206040518083038186803b15801561494857600080fd5b505afa15801561495c573d6000803e3d6000fd5b505050506040513d601f19601f8201168201806040525081019061498091906150cd565b905085811415614996576001935050505061499e565b600093505050505b92915050565b6149b8816001614b8590919063ffffffff16565b8073ffffffffffffffffffffffffffffffffffffffff167fcd265ebaf09df2871cc7bd4133404a235ba12eff2041bb89d9c714a2621c7c7e60405160405180910390a250565b614a1281600161364490919063ffffffff16565b8073ffffffffffffffffffffffffffffffffffffffff167f6719d08c1888103bea251a4ed56406bd0c3e69723c8a1686e017e7bbe159b6f860405160405180910390a250565b600073ffffffffffffffffffffffffffffffffffffffff168173ffffffffffffffffffffffffffffffffffffffff161415614ac8576040517f08c379a0000000000000000000000000000000000000000000000000000000008152600401614abf90616975565b60405180910390fd5b8073ffffffffffffffffffffffffffffffffffffffff1660008054906101000a900473ffffffffffffffffffffffffffffffffffffffff1673ffffffffffffffffffffffffffffffffffffffff167f8be0079c531659141344cd1fd0a4f28419497f9722a3daafe3b4186f6b6457e060405160405180910390a3806000806101000a81548173ffffffffffffffffffffffffffffffffffffffff021916908373ffffffffffffffffffffffffffffffffffffffff16021790555050565b614b8f828261462e565b614bce576040517f08c379a0000000000000000000000000000000000000000000000000000000008152600401614bc590616ad5565b60405180910390fd5b60008260000160008373ffffffffffffffffffffffffffffffffffffffff1673ffffffffffffffffffffffffffffffffffffffff16815260200190815260200160002060006101000a81548160ff0219169083151502179055505050565b600081359050614c3b8161716d565b92915050565b600081519050614c508161716d565b92915050565b600082601f830112614c6757600080fd5b8135614c7a614c7582616f08565b616edb565b9150818183526020840193506020810190508360005b83811015614cc05781358601614ca68882614cf4565b845260208401935060208301925050600181019050614c90565b5050505092915050565b600081519050614cd981617184565b92915050565b600081359050614cee8161719b565b92915050565b600082601f830112614d0557600080fd5b8135614d18614d1382616f30565b616edb565b91508082526020830160208301858383011115614d3457600080fd5b614d3f838284617106565b50505092915050565b600081359050614d57816171b2565b92915050565b600081519050614d6c816171b2565b92915050565b600060208284031215614d8457600080fd5b6000614d9284828501614c2c565b91505092915050565b600060208284031215614dad57600080fd5b6000614dbb84828501614c41565b91505092915050565b60008060008060008060c08789031215614ddd57600080fd5b6000614deb89828a01614c2c565b9650506020614dfc89828a01614d48565b9550506040614e0d89828a01614cdf565b9450506060614e1e89828a01614d48565b9350506080614e2f89828a01614cdf565b92505060a087013567ffffffffffffffff811115614e4c57600080fd5b614e5889828a01614c56565b9150509295509295509295565b600080600080600080600080610100898b031215614e8257600080fd5b6000614e908b828c01614c2c565b9850506020614ea18b828c01614d48565b9750506040614eb28b828c01614cdf565b9650506060614ec38b828c01614d48565b9550506080614ed48b828c01614cdf565b94505060a0614ee58b828c01614d48565b93505060c0614ef68b828c01614cdf565b92505060e089013567ffffffffffffffff811115614f1357600080fd5b614f1f8b828c01614c56565b9150509295985092959890939650565b600060208284031215614f4157600080fd5b6000614f4f84828501614cca565b91505092915050565b600060208284031215614f6a57600080fd5b6000614f7884828501614cdf565b91505092915050565b600080600060608486031215614f9657600080fd5b6000614fa486828701614cdf565b9350506020614fb586828701614cdf565b925050604084013567ffffffffffffffff811115614fd257600080fd5b614fde86828701614c56565b9150509250925092565b60008060008060808587031215614ffe57600080fd5b600061500c87828801614cdf565b945050602061501d87828801614d48565b935050604061502e87828801614cdf565b925050606085013567ffffffffffffffff81111561504b57600080fd5b61505787828801614c56565b91505092959194509250565b60006020828403121561507557600080fd5b600082013567ffffffffffffffff81111561508f57600080fd5b61509b84828501614cf4565b91505092915050565b6000602082840312156150b657600080fd5b60006150c484828501614d48565b91505092915050565b6000602082840312156150df57600080fd5b60006150ed84828501614d5d565b91505092915050565b6000806040838503121561510957600080fd5b600061511785828601614d48565b925050602061512885828601614cdf565b9150509250929050565b60008060008060008060c0878903121561514b57600080fd5b600061515989828a01614d48565b965050602061516a89828a01614cdf565b955050604061517b89828a01614d48565b945050606061518c89828a01614cdf565b935050608061519d89828a01614d48565b92505060a06151ae89828a01614cdf565b9150509295509295509295565b600080604083850312156151ce57600080fd5b60006151dc85828601614d48565b925050602083013567ffffffffffffffff8111156151f957600080fd5b61520585828601614cf4565b9150509250929050565b600061521b8383615336565b905092915050565b61522c81617052565b82525050565b61523b81616ff3565b82525050565b600061524c82616f81565b6152568185616fa4565b93508360208202850161526885616f5c565b8060005b858110156152a45784840389528151615285858261520f565b945061529083616f97565b925060208a0199505060018101905061526c565b50829750879550505050505092915050565b6152bf81617005565b82525050565b6152ce81617011565b82525050565b6152e56152e082617011565b617148565b82525050565b6152f481617064565b82525050565b61530381617088565b82525050565b615312816170ac565b82525050565b615321816170be565b82525050565b615330816170d0565b82525050565b600061534182616f8c565b61534b8185616fb5565b935061535b818560208601617115565b6153648161715c565b840191505092915050565b600061537a82616f8c565b6153848185616fc6565b9350615394818560208601617115565b61539d8161715c565b840191505092915050565b60006153b382616f8c565b6153bd8185616fd7565b93506153cd818560208601617115565b6153d68161715c565b840191505092915050565b60006153ec82616f8c565b6153f68185616fe8565b9350615406818560208601617115565b80840191505092915050565b60008154600181166000811461542f576001811461545557615499565b607f60028304166154408187616fd7565b955060ff198316865260208601935050615499565b600282046154638187616fd7565b955061546e85616f6c565b60005b8281101561549057815481890152600182019150602081019050615471565b80880195505050505b505092915050565b60006154ae601b83616fc6565b91507f56616c6f7220646520466565206d61696f7220717565203130302500000000006000830152602082019050919050565b60006154ee604b83616fc6565b91507f4f20726573706f6e73c3a176656c2070656c6120616c6f6361c3a7c3a36f206960008301527f6e696369616c206465766520736572206461206d65736d6f205242425f49442060208301527f646f20636f6e747261746f0000000000000000000000000000000000000000006040830152606082019050919050565b600061557a601483616fc6565b91507f5061757361626c653a206e6f74207061757365640000000000000000000000006000830152602082019050919050565b60006155ba601f83616fc6565b91507f526f6c65733a206163636f756e7420616c72656164792068617320726f6c65006000830152602082019050919050565b60006155fa603d83616fc6565b91507f456e64657265c3a76f2064652064657374696e6f206ec3a36f20696e636c75c360008301527fad646f20636f6d6f20706170656c206e6573736520636164617374726f0000006020830152604082019050919050565b6000615660603083616fc6565b91507f496e74657276656ec3a7c3a36f206d616e75616c206ec3a36f2070726576696160008301527f6d656e74652063616461737472616461000000000000000000000000000000006020830152604082019050919050565b60006156c6603083616fc6565b91507f506175736572526f6c653a2063616c6c657220646f6573206e6f74206861766560008301527f207468652050617573657220726f6c65000000000000000000000000000000006020830152604082019050919050565b600061572c604483616fc6565b91507f536f6d656e746520636c69656e74657320656d20636f6e747261746f7320636160008301527f646173747261646f7320706f64656d206578656375746172206f20706167616d60208301527f656e746f000000000000000000000000000000000000000000000000000000006040830152606082019050919050565b60006157b8602983616fc6565b91507f536f6d656e7465206f20424e44455320706f6465206578656375746172206f2060008301527f706167616d656e746f00000000000000000000000000000000000000000000006020830152604082019050919050565b600061581e602683616fc6565b91507f4f776e61626c653a206e6577206f776e657220697320746865207a65726f206160008301527f64647265737300000000000000000000000000000000000000000000000000006020830152604082019050919050565b6000615884605f83616fc6565b91507f556d20434e504a206ec3a36f20706f6465207472616e73666572697220746f6b60008301527f656e20706172612073692c2061696e64612071756520656d20706170c3a9697360208301527f2064697374696e746f732028436c69656e74652f466f726e656365646f7229006040830152606082019050919050565b6000615910602a83616fc6565b91507f4572726f206e6f2063c3a16c63756c6f20646f206861736820646120636f6e7460008301527f6120646f20424e444553000000000000000000000000000000000000000000006020830152604082019050919050565b6000615976605783616fc6565b91507f536f6d656e746520756d20726573706f6e73c3a176656c2070656c617320747260008301527f616e73666572c3aa6e636961732065787472616f7264696ec3a172696173207060208301527f6f7220656e766961722061207472616e7361c3a7c3a36f0000000000000000006040830152606082019050919050565b6000615a02602f83616fc6565b91507f536f6d656e746520666f726e656365646f72657320706f64656d20657865637560008301527f746172206f20706167616d656e746f00000000000000000000000000000000006020830152604082019050919050565b6000615a68603583616fc6565b91507f56616c6f72206120736572207472616e736163696f6e61646f2064657665207360008301527f6572206d61696f7220646f20717565207a65726f2e00000000000000000000006020830152604082019050919050565b6000615ace602f83616fc6565b91507f4572726f206e6f2063c3a16c63756c6f20646f206861736820646120636f6e7460008301527f6120646f20666f726e656365646f7200000000000000000000000000000000006020830152604082019050919050565b6000615b34601083616fc6565b91507f5061757361626c653a20706175736564000000000000000000000000000000006000830152602082019050919050565b6000615b74604983616fc6565b91507f45737461207472616e7361c3a7c3a36f2073c3b320706f64652073657220657860008301527f656375746164612070656c6f20726573706f6e73c3a176656c2070656c6f206460208301527f6573656d626f6c736f00000000000000000000000000000000000000000000006040830152606082019050919050565b6000615c00603383616fc6565b91507f436f6e746120646520646f61646f72207072656369736120657374617220636f60008301527f6d20636164617374726f2076616c696461646f000000000000000000000000006020830152604082019050919050565b6000615c66603c83616fc6565b91507f456e64657265c3a76f206465206f726967656d206ec3a36f20696e636c75c3ad60008301527f646f20636f6d6f20706170656c206e6573736520636164617374726f000000006020830152604082019050919050565b6000615ccc602183616fc6565b91507f526f6c65733a206163636f756e7420646f6573206e6f74206861766520726f6c60008301527f65000000000000000000000000000000000000000000000000000000000000006020830152604082019050919050565b6000615d32604583616fc6565b91507f49642064652064657374696e6f206461207472616e7361c3a7c3a36f206ec3a360008301527f6f20657374c3a120696775616c20616f20646f206f776e657220646f20636f6e60208301527f747261746f0000000000000000000000000000000000000000000000000000006040830152606082019050919050565b6000615dbe602483616fc6565b91507f4572726f206e6f2063c3a16c63756c6f20646f206861736820646120646f61c360008301527fa7c3a36f000000000000000000000000000000000000000000000000000000006020830152604082019050919050565b6000615e24602683616fc6565b91507f536f6d656e746520646f61646f72657320706f64656d2066617a657220646f6160008301527fc3a7c3b5657300000000000000000000000000000000000000000000000000006020830152604082019050919050565b6000615e8a606983616fc6565b91507f4f20726573706f6e73c3a176656c2070656c6f2063616461737472616d656e7460008301527f6f206465207472616e73666572656e636961732065787472616f7264696ec3a160208301527f72696173206465766520736572206461206d65736d6f205242425f494420646f60408301527f20636f6e747261746f00000000000000000000000000000000000000000000006060830152608082019050919050565b6000615f3c602083616fc6565b91507f4f776e61626c653a2063616c6c6572206973206e6f7420746865206f776e65726000830152602082019050919050565b6000615f7c602283616fc6565b91507f526f6c65733a206163636f756e7420697320746865207a65726f20616464726560008301527f73730000000000000000000000000000000000000000000000000000000000006020830152604082019050919050565b6000615fe2604283616fc6565b91507f4e656e68756d61207665726966696361c3a7c3a36f206573706563c3ad66696360008301527f6120656e636f6e747261646120706172612061207472616e73666572c3aa6e6360208301527f69610000000000000000000000000000000000000000000000000000000000006040830152606082019050919050565b600061606e604083616fc6565b91507f536f6d656e746520646f61646f72657320706f64656d2066617a657220646f6160008301527fc3a7c3b565732c20726567697374726f20657374616820696e636f727265746f6020830152604082019050919050565b60006160d4602b83616fc6565b91507f556d20424e444553206ec3a36f20706f6465207472616e73666572697220746f60008301527f6b656e20706172612073690000000000000000000000000000000000000000006020830152604082019050919050565b600061613a604c83616fc6565b91507f536f6d656e746520756d20726573706f6e73c3a176656c2070656c617320616c60008301527f6f6361c3a7c3b5657320696e69636961697320706f646520656e76696172206160208301527f207472616e7361c3a7c3a36f00000000000000000000000000000000000000006040830152606082019050919050565b60006161c6604183616fc6565b91507f4572726f206e6f2063c3a16c63756c6f20646f206861736820646120636f6e7460008301527f612064652061646d696e20646f20636f6e747261746f2065737065636966696360208301527f6f000000000000000000000000000000000000000000000000000000000000006040830152606082019050919050565b6000616252603083616fc6565b91507f48617368206465206f726967656d206461207472616e7361c3a7c3a36f206ec360008301527fa36f20657374c3a120636f727265746f000000000000000000000000000000006020830152604082019050919050565b60006162b8604383616fc6565b91507f4f20726573706f6e73c3a176656c2070656c6f20646573656d626f6c736f206460008301527f65766520736572206461206d65736d6f205242425f494420646f20636f6e747260208301527f61746f00000000000000000000000000000000000000000000000000000000006040830152606082019050919050565b6000616344604483616fc6565b91507f4964206465206f726967656d206461207472616e7361c3a7c3a36f206ec3a36f60008301527f20657374c3a120696775616c20616f20646f206f776e657220646f20636f6e7460208301527f7261746f000000000000000000000000000000000000000000000000000000006040830152606082019050919050565b60006163d0604983616fc6565b91507f486173682064652064657374696e6f206ec3a36f20657374c3a120636f72726560008301527f73706f6e64656e7465206120636f6e746120646520646573656d626f6c736f2060208301527f6f752064652061646d00000000000000000000000000000000000000000000006040830152606082019050919050565b600061645c603083616fc6565b91507f45737365206dc3a9746f646f2073c3b320706f646520736572206368616d616460008301527f6f2070656c6f205242425f546f6b656e000000000000000000000000000000006020830152604082019050919050565b60006164c2602c83616fc6565b91507f4572726f206e6f2063c3a16c63756c6f20646f206861736820646120636f6e7460008301527f6120646f20636c69656e746500000000000000000000000000000000000000006020830152604082019050919050565b6165248161703b565b82525050565b61653b6165368261703b565b617152565b82525050565b61654a81617045565b82525050565b600061655c82846153e1565b915081905092915050565b6000616573828461652a565b60208201915081905092915050565b600061658e828861652a565b60208201915061659e82876152d4565b6020820191506165ae828661652a565b6020820191506165be82856152d4565b6020820191506165ce828461652a565b6020820191508190509695505050505050565b60006020820190506165f66000830184615232565b92915050565b60006020820190506166116000830184615223565b92915050565b600060408201905061662c6000830185615232565b6166396020830184615309565b9392505050565b60006040820190506166556000830185615232565b6166626020830184615318565b9392505050565b600060408201905061667e6000830185615232565b61668b6020830184615327565b9392505050565b60006020820190506166a760008301846152b6565b92915050565b60006020820190506166c260008301846152c5565b92915050565b60006040820190506166dd60008301856152c5565b81810360208301526166ef8184615241565b90509392505050565b600060408201905061670d60008301856152c5565b61671a60208301846152c5565b9392505050565b600060608201905061673660008301866152c5565b61674360208301856152c5565b81810360408301526167558184615241565b9050949350505050565b600060808201905061677460008301876152c5565b616781602083018661651b565b61678e604083018561651b565b61679b60608301846152c5565b95945050505050565b60006020820190506167b960008301846152eb565b92915050565b60006020820190506167d460008301846152fa565b92915050565b600060208201905081810360008301526167f481846153a8565b905092915050565b60006020820190508181036000830152616816818461536f565b905092915050565b600060408201905081810360008301526168388185615412565b9050818103602083015261684c81846153a8565b90509392505050565b6000602082019050818103600083015261686e816154a1565b9050919050565b6000602082019050818103600083015261688e816154e1565b9050919050565b600060208201905081810360008301526168ae8161556d565b9050919050565b600060208201905081810360008301526168ce816155ad565b9050919050565b600060208201905081810360008301526168ee816155ed565b9050919050565b6000602082019050818103600083015261690e81615653565b9050919050565b6000602082019050818103600083015261692e816156b9565b9050919050565b6000602082019050818103600083015261694e8161571f565b9050919050565b6000602082019050818103600083015261696e816157ab565b9050919050565b6000602082019050818103600083015261698e81615811565b9050919050565b600060208201905081810360008301526169ae81615877565b9050919050565b600060208201905081810360008301526169ce81615903565b9050919050565b600060208201905081810360008301526169ee81615969565b9050919050565b60006020820190508181036000830152616a0e816159f5565b9050919050565b60006020820190508181036000830152616a2e81615a5b565b9050919050565b60006020820190508181036000830152616a4e81615ac1565b9050919050565b60006020820190508181036000830152616a6e81615b27565b9050919050565b60006020820190508181036000830152616a8e81615b67565b9050919050565b60006020820190508181036000830152616aae81615bf3565b9050919050565b60006020820190508181036000830152616ace81615c59565b9050919050565b60006020820190508181036000830152616aee81615cbf565b9050919050565b60006020820190508181036000830152616b0e81615d25565b9050919050565b60006020820190508181036000830152616b2e81615db1565b9050919050565b60006020820190508181036000830152616b4e81615e17565b9050919050565b60006020820190508181036000830152616b6e81615e7d565b9050919050565b60006020820190508181036000830152616b8e81615f2f565b9050919050565b60006020820190508181036000830152616bae81615f6f565b9050919050565b60006020820190508181036000830152616bce81615fd5565b9050919050565b60006020820190508181036000830152616bee81616061565b9050919050565b60006020820190508181036000830152616c0e816160c7565b9050919050565b60006020820190508181036000830152616c2e8161612d565b9050919050565b60006020820190508181036000830152616c4e816161b9565b9050919050565b60006020820190508181036000830152616c6e81616245565b9050919050565b60006020820190508181036000830152616c8e816162ab565b9050919050565b60006020820190508181036000830152616cae81616337565b9050919050565b60006020820190508181036000830152616cce816163c3565b9050919050565b60006020820190508181036000830152616cee8161644f565b9050919050565b60006020820190508181036000830152616d0e816164b5565b9050919050565b6000602082019050616d2a600083018461651b565b92915050565b6000604082019050616d45600083018561651b565b616d5260208301846152c5565b9392505050565b600060c082019050616d6e600083018961651b565b616d7b60208301886152c5565b616d88604083018761651b565b616d9560608301866152c5565b616da2608083018561651b565b616daf60a08301846152c5565b979650505050505050565b6000608082019050616dcf600083018761651b565b8181036020830152616de1818661536f565b9050616df0604083018561651b565b616dfd60608301846152c5565b95945050505050565b600060a082019050616e1b600083018861651b565b8181036020830152616e2d818761536f565b9050616e3c604083018661651b565b616e49606083018561651b565b616e5660808301846152c5565b9695505050505050565b6000604082019050616e75600083018561651b565b616e82602083018461651b565b9392505050565b6000606082019050616e9e600083018661651b565b616eab602083018561651b565b616eb860408301846152c5565b949350505050565b6000602082019050616ed56000830184616541565b92915050565b6000604051905081810181811067ffffffffffffffff82111715616efe57600080fd5b8060405250919050565b600067ffffffffffffffff821115616f1f57600080fd5b602082029050602081019050919050565b600067ffffffffffffffff821115616f4757600080fd5b601f19601f8301169050602081019050919050565b6000819050602082019050919050565b60008190508160005260206000209050919050565b600081519050919050565b600081519050919050565b6000602082019050919050565b600082825260208201905092915050565b600082825260208201905092915050565b600082825260208201905092915050565b600082825260208201905092915050565b600081905092915050565b6000616ffe8261701b565b9050919050565b60008115159050919050565b6000819050919050565b600073ffffffffffffffffffffffffffffffffffffffff82169050919050565b6000819050919050565b600060ff82169050919050565b600061705d826170e2565b9050919050565b600061706f82617076565b9050919050565b60006170818261701b565b9050919050565b60006170938261709a565b9050919050565b60006170a58261701b565b9050919050565b60006170b782617045565b9050919050565b60006170c982617045565b9050919050565b60006170db82617045565b9050919050565b60006170ed826170f4565b9050919050565b60006170ff8261701b565b9050919050565b82818337600083830152505050565b60005b83811015617133578082015181840152602081019050617118565b83811115617142576000848401525b50505050565b6000819050919050565b6000819050919050565b6000601f19601f8301169050919050565b61717681616ff3565b811461718157600080fd5b50565b61718d81617005565b811461719857600080fd5b50565b6171a481617011565b81146171af57600080fd5b50565b6171bb8161703b565b81146171c657600080fd5b5056fea2646970667358221220b7fd9b1525972e0f86653a46b3e811238bbadbc16af6f34a781fdb88af4593b264736f6c634300060c0033",
  "immutableReferences": {},
  "source": "pragma solidity ^0.6.0;\npragma experimental ABIEncoderV2;\n\n\nimport \"./RBBLib.sol\";\nimport \"./RBBRegistry.sol\";\nimport \"./RBBToken.sol\";\nimport \"./SpecificRBBToken.sol\";\nimport \"@openzeppelin/contracts/ownership/Ownable.sol\";\nimport \"@openzeppelin/contracts/lifecycle/Pausable.sol\";\nimport \"@openzeppelin/contracts/math/SafeMath.sol\";\n\n\n\n/*\nTodas as operaes j supem que a entidade de origem e destino esto cadastradas e validadas no RBB_Registry, pois isso  garantido pelo contrato genrico (RBB_Token)\n\nNo includo (TBD):\n------------\n- requisito adicional de o cliente poder resgatar uma parte do valor (ao invs de ter que necessariamente transferir tudo ao fornecedor)\n- ideia de o fornecedor poder sacar mais de um saldo ao mesmo tempo.\n- pedido inicial de financiamento do cliente \n- devoluo de fornecedor para cliente sem anuncia para o BNDES\n- controle que cada doacao realmente se transformou em duas transacoes, uma para a conta adm e outra para a conta usual\nuint admFee = amount.mul(bndesFee).div(100);\n- perodo de validade para as autorizaes de transferncias extraordinrias\n- invalidar doador, cliente e fornecedor (por exemplo, em caso de CNPJ deixar de existir, contrato com BNDES acabar ou periodicamente)\n- permitir criar perfis diferenciados para contas dos clientes e fornecedores\n\n*/\n\n\ncontract FABndesToken is SpecificRBBToken {\n\n    RBBToken public rbbToken;\n\n    //RBBId donor => true/false (registered or not)\n    mapping (uint => bool) public donors;\n\n    //RBBId client => (idFinancialSupportAgreement Client => true/false (registered or not)\n    mapping (uint => mapping (string => bool)) public clients;\n\n    //RBBId supplier => true/false (registered or not)\n    mapping (uint => bool) public suppliers;\n\n    //Hash of approved Extraordinary Transfers\n    bytes32[] public hashApprovedExtraordinaryTransfers;\n\n    // BNDES Fee percentage\n    uint256 public bndesFee;    \n\n    //Types of transfer operation\n    string public INITIAL_ALLOCATION = \"INITIAL_ALLOCATION\";\n    string public DISBURSEMENT_VERIFICATION = \"DISBURSEMENT_VERIFICATION\";\n    string public CLIENT_PAY_SUPPLIER_VERIFICATION = \"CLIENT_PAY_SUPPLIER_VERIFICATION\";\n    string public BNDES_PAY_SUPPLIER_VERIFICATION = \"BNDES_PAY_SUPPLIER_VERIFICATION\";\n    string public EXTRAORDINARY_TRANSFERS = \"EXTRAORDINARY_TRANSFERS\";\n\n    address public responsibleForInitialAllocation;\n    address public responsibleForDisbursement;\n    address public resposibleForApproveExtraordinaryTransfers;\n\n    uint8 public RESERVED_MINTED_ACCOUNT = 0;\n    uint8 public RESERVED_USUAL_DISBURSEMENTS_ACCOUNT = 1;\n    uint8 public RESERVED_BNDES_ADMIN_FEE_TO_HASH = 2;\n    uint8 public RESERVED_NO_ADDITIONAL_FIELDS_TO_DONOR = 10;\n    uint8 public RESERVED_NO_ADDITIONAL_FIELDS_TO_SUPPLIER = 20;\n    uint8 public RESERVED_NO_ADDITIONAL_FIELDS_TO_DIFF_MONEY = 30;\n\n    using SafeMath for uint;\n   \n    event FA_DonationBooked(uint idDonor, uint amount, bytes32 docHash);\n    event FA_DonationConfirmed(uint idDonor, uint amount, bytes32 docHash);\n\n    event FA_InitialAllocation_Disbursements(uint amount, bytes32 docHash);\n    event FA_InitialAllocation_Fee(uint amount, bytes32 docHash);\n\n    event FA_Disbursement  (uint idClient, string idFinancialSupportAgreement, uint amount, bytes32 docHash);\n    event FA_TokenTransfer (uint fromCnpj, string fromIdFinancialSupportAgreement, uint toCnpj, uint amount, bytes32 docHash);\n    event FA_BNDES_TokenTransfer(uint toCnpj, uint amount, bytes32 docHash);\n    event FA_RedemptionRequested (uint idClaimer, uint amount, bytes32 docHash);\n    event FA_RedemptionSettlement(bytes32 redemptionTransactionHash, bytes32 docHash);\n \n    event FA_ExtraordinaryTransferAllowed (uint fromId, bytes32 fromHash, uint toId, bytes32 toHash, \n            uint amount, bytes32 docHash);\n    event FA_ExtraordinaryTransferExecuted(uint fromId, bytes32 fromHash, uint toId, bytes32 toHash, \n            uint amount, bytes32 docHash);\n\n    event FA_ManualIntervention_Fee(uint256 percent, bytes32 docHash);\n    event FA_ManualIntervention_RoleOrAddress(address account, uint8 eventType);\n\n    event FA_DonorAdded(uint id);\n    event FA_ClientAdded(uint id);\n    event FA_SupplierAdded(uint registeredBy, uint id);\n\n\n    constructor (address newrbbTokenAddr, uint fee) public {\n        require (fee < 100, \"Valor de Fee maior que 100%\");\n\n        rbbToken = RBBToken(newrbbTokenAddr);\n\n        responsibleForInitialAllocation = msg.sender;\n        responsibleForDisbursement = msg.sender;\n        resposibleForApproveExtraordinaryTransfers = msg.sender;\n\n        bndesFee = fee;\n    }\n\n\n    function setBNDESFee(uint256 newBndesFee, bytes32 docHash) public onlyOwner {\n        require (newBndesFee < 100, \"Valor de Fee maior que 100%\");\n        bndesFee = newBndesFee;\n        emit FA_ManualIntervention_Fee(newBndesFee, docHash);\n    }\n\n    function addDonor (uint idDonor) public onlyOwner {\n        require(registry.isValidatedId(idDonor), \"Conta de doador precisa estar com cadastro validado\");\n        if(!donors[idDonor]) {\n            donors[idDonor] = true;\n            emit FA_DonorAdded(idDonor);\n        }\n    }\n\n    function bookDonation(uint amount, bytes32 docHash) public whenNotPaused  {        \n        \n        uint idDonor = registry.getId(msg.sender);\n\n        require (donors[idDonor], \"Somente doadores podem fazer doaes\");\n        require(registry.isValidatedId(idDonor), \"Conta de doador precisa estar com cadastro validado\");\n        \n        bytes32 specificHash = getCalculatedHash(RESERVED_NO_ADDITIONAL_FIELDS_TO_DIFF_MONEY);\n        rbbToken.requestMint(specificHash, idDonor, amount, docHash);\n\n        emit FA_DonationBooked(idDonor, amount, docHash);\n    }\n    \n    /* confirms the donor's donation */\n    function verifyAndActForMint(bytes32 specificHash, uint amount, bytes32 docHash,\n        string[] memory data) public override whenNotPaused onlyRBBToken {\n\n        require (getCalculatedHash(RESERVED_NO_ADDITIONAL_FIELDS_TO_DIFF_MONEY)==specificHash, \"Erro no clculo do hash da doao\");\n\n        string memory sidDonor = data[0];\n        uint idDonor = RBBLib.stringtoUint(sidDonor);\n        require (donors[idDonor], \"Somente doadores podem fazer doaes, registro estah incorreto\");\n\n        emit FA_DonationConfirmed(idDonor, amount, docHash);\n\n    }\n\n    /////////////////\n\n    function getHashToMintedAccount(bytes32 specificHash) override public returns (bytes32) {\n        //There is no difference of specificHash, all money should be minted in the same account\n        return getCalculatedHash(RESERVED_MINTED_ACCOUNT);\n    }\n\n\n    function getInitialAllocationToDisbusementData () public view\n        returns (bytes32, bytes32, string[] memory)  {\n\n        bytes32 fromHash = getCalculatedHash(RESERVED_MINTED_ACCOUNT);\n        bytes32 toHash = getCalculatedHash(RESERVED_USUAL_DISBURSEMENTS_ACCOUNT);\n\n        string[] memory data = new string[](1);\n        data[0] = INITIAL_ALLOCATION;\n        return (fromHash, toHash, data);\n    }\n\n    function getInitialAllocationToChargeFeeData () public view\n        returns (bytes32, bytes32, string[] memory)  {\n\n        bytes32 fromHash = getCalculatedHash(RESERVED_MINTED_ACCOUNT);\n        bytes32 toHash = getCalculatedHash(RESERVED_BNDES_ADMIN_FEE_TO_HASH);\n\n        string[] memory data = new string[](1);\n        data[0] = INITIAL_ALLOCATION;\n        return (fromHash, toHash, data);\n    }\n\n    function getDisbusementData (string memory idFinancialSupportAgreement) public view\n        returns (bytes32, bytes32, string[] memory)  {\n\n        bytes32 fromHash = getCalculatedHash(RESERVED_USUAL_DISBURSEMENTS_ACCOUNT);\n        bytes32 toHash = getCalculatedHash(idFinancialSupportAgreement);\n\n        string[] memory data = new string[](2);\n        data[0] = DISBURSEMENT_VERIFICATION;\n        data[1] = idFinancialSupportAgreement;\n        return (fromHash, toHash, data);\n    }\n\n    function getClientPaySupplierData (string memory idFinancialSupportAgreement) public view\n            returns (bytes32, bytes32, string[] memory) {\n\n        bytes32 fromHash = getCalculatedHash(idFinancialSupportAgreement);\n        bytes32 toHash = getCalculatedHash(RESERVED_NO_ADDITIONAL_FIELDS_TO_SUPPLIER);\n\n        string[] memory data = new string[](2);\n        data[0] = CLIENT_PAY_SUPPLIER_VERIFICATION;\n        data[1] = idFinancialSupportAgreement;\n        return (fromHash, toHash, data);\n    }\n\n    function getBNDESPaySupplierData () public view\n            returns (bytes32, bytes32, string[] memory) {\n\n        bytes32 fromHash = getCalculatedHash(RESERVED_USUAL_DISBURSEMENTS_ACCOUNT);\n        bytes32 toHash = getCalculatedHash(RESERVED_NO_ADDITIONAL_FIELDS_TO_SUPPLIER);\n\n        string[] memory data = new string[](1);\n        data[0] = BNDES_PAY_SUPPLIER_VERIFICATION;\n        return (fromHash, toHash, data);\n    }\n\n    function getRedeemData () public \n            returns (bytes32, string[] memory) {\n\n        bytes32 fromHash = getCalculatedHash(RESERVED_NO_ADDITIONAL_FIELDS_TO_SUPPLIER);\n\n        string[] memory data = new string[](0);\n        return (fromHash, data);\n    }\n\n    /////////////////\n\n    function verifyAndActForTransfer(address originalSender, uint fromId, bytes32 fromHash, uint toId, bytes32 toHash, \n            uint amount, bytes32 docHash, string[] memory data) public override whenNotPaused onlyRBBToken {\n\n        string memory specificMethod = data[0];\n\n        require (amount>0, \"Valor a ser transacionado deve ser maior do que zero.\");\n\n        if (RBBLib.isEqual(INITIAL_ALLOCATION, specificMethod)) {\n            verifyAndActForTransfer_INITIAL_ALLOCATION(originalSender, fromId, fromHash, toId, toHash, amount, docHash, data);\n        }\n        else if (RBBLib.isEqual(DISBURSEMENT_VERIFICATION, specificMethod)) {\n            verifyAndActForTransfer_DISBURSEMENT(originalSender, fromId, fromHash, toId, toHash, amount, docHash, data);\n        }\n        else if (RBBLib.isEqual(CLIENT_PAY_SUPPLIER_VERIFICATION, specificMethod)) {\n            verifyAndActForTransfer_CLIENT_PAY_SUPPLIER(originalSender, fromId, fromHash, toId, toHash, amount, docHash, data);\n        }\n        else if (RBBLib.isEqual(BNDES_PAY_SUPPLIER_VERIFICATION, specificMethod)) {\n            verifyAndActForTransfer_BNDES_PAY_SUPPLIER(originalSender, fromId, fromHash, toId, toHash, amount, docHash, data);\n        }\n        else if (RBBLib.isEqual(EXTRAORDINARY_TRANSFERS, specificMethod)) {\n            verifyAndActForTransfer_EXTRAORDINARY_TRANSFERS(originalSender, fromId, fromHash, toId, toHash, amount, docHash, data);\n        }\n        else {\n            require (false, \"Nenhuma verificao especfica encontrada para a transferncia\");\n        }\n\n    }\n\n    function verifyAndActForTransfer_INITIAL_ALLOCATION(address originalSender, uint fromId, bytes32 fromHash, uint toId, \n            bytes32 toHash, uint amount, bytes32 docHash, string[] memory data) internal whenNotPaused {\n\n        require (responsibleForInitialAllocation == originalSender, \n            \"Somente um responsvel pelas alocaes iniciais pode enviar a transao\");\n\n        uint ownerId = registry.getId(owner());\n        require (fromId == ownerId, \"Id de origem da transao no est igual ao do owner do contrato\");\n        require (fromHash == getCalculatedHash(RESERVED_MINTED_ACCOUNT), \"Hash de origem da transao no est correto\");\n\n        require (fromId == toId, \"Id de destino da transao no est igual ao do owner do contrato\");\n\n        if (toHash == getCalculatedHash(RESERVED_USUAL_DISBURSEMENTS_ACCOUNT)) {\n            emit FA_InitialAllocation_Disbursements(amount, docHash);\n        }\n        else if (toHash == getCalculatedHash(RESERVED_BNDES_ADMIN_FEE_TO_HASH)) {\n            emit FA_InitialAllocation_Fee(amount, docHash);\n        }\n        else {\n            require (false, \"Hash de destino no est correspondente a conta de desembolso ou de adm\");\n        }\n    }\n\n    function verifyAndActForTransfer_DISBURSEMENT(address originalSender, uint fromId, bytes32 fromHash, \n            uint toId, bytes32 toHash, uint amount, bytes32 docHash, string[] memory data) internal whenNotPaused {\n    \n        string memory idFinancialSupportAgreement = data[1];\n        uint ownerId = registry.getId(owner());\n\n        require (originalSender == responsibleForDisbursement, \"Esta transao s pode ser executada pelo responsvel pelo desembolso\");\n\n        //Essa eh uma regra especifica visto que outra organizacao pode ter recebido o token no allocate.\n        require (fromId == ownerId, \"Id de origem da transao no est igual ao do owner do contrato\");\n        require (getCalculatedHash(RESERVED_USUAL_DISBURSEMENTS_ACCOUNT)==fromHash, \"Erro no clculo do hash da conta do BNDES\");\n        require (getCalculatedHash(idFinancialSupportAgreement)==toHash, \"Erro no clculo do hash da conta do cliente\");\n\n        if (!clients[toId][idFinancialSupportAgreement]) {\n            clients[toId][idFinancialSupportAgreement] = true; //register the client\n            emit FA_ClientAdded(toId);\n\n        }\n\n        emit FA_Disbursement (toId, idFinancialSupportAgreement, amount, docHash);\n\n    }\n\n    function verifyAndActForTransfer_CLIENT_PAY_SUPPLIER(address originalSender, uint fromId, bytes32 fromHash, \n            uint toId, bytes32 toHash, uint amount, bytes32 docHash, string[] memory data) internal whenNotPaused {\n    \n        string memory idFinancialSupportAgreement = data[1];\n\n        //nao verifica o sender, dado que o esse contrato nao diferencia as contas do cliente\n\n        require (clients[fromId][idFinancialSupportAgreement], \"Somente clientes em contratos cadastrados podem executar o pagamento\");\n        require (getCalculatedHash(idFinancialSupportAgreement)==fromHash, \"Erro no clculo do hash da conta do cliente\");\n        require (getCalculatedHash(RESERVED_NO_ADDITIONAL_FIELDS_TO_SUPPLIER)==toHash, \"Erro no clculo do hash da conta do fornecedor\");\n\n        require(fromId != toId,\n            \"Um CNPJ no pode transferir token para si, ainda que em papis distintos (Cliente/Fornecedor)\");\n\n        if (!suppliers[toId]) {\n            suppliers[toId] = true; //register the supplier\n            emit FA_SupplierAdded(fromId, toId);\n        }\n\n        emit FA_TokenTransfer (fromId, idFinancialSupportAgreement, toId, amount, docHash);\n\n    }\n\n\n    function verifyAndActForTransfer_BNDES_PAY_SUPPLIER(address originalSender, uint fromId, bytes32 fromHash, \n            uint toId, bytes32 toHash, uint amount, bytes32 docHash, string[] memory data) internal whenNotPaused {\n\n        require (originalSender == responsibleForDisbursement, \"Esta transao s pode ser executada pelo responsvel pelo desembolso\");\n\n        require (fromId==registry.getId(owner()), \"Somente o BNDES pode executar o pagamento\");\n        require (getCalculatedHash(RESERVED_BNDES_ADMIN_FEE_TO_HASH)==fromHash, \"Erro no clculo do hash da conta de admin do contrato especifico\");\n        require (getCalculatedHash(RESERVED_NO_ADDITIONAL_FIELDS_TO_SUPPLIER)==toHash, \"Erro no clculo do hash da conta do fornecedor\");\n\n        require(fromId != toId, \"Um BNDES no pode transferir token para si\");\n\n        emit FA_BNDES_TokenTransfer (toId, amount, docHash);\n\n    }\n\n    function addSupplier (uint id) public  {\n\n        require (msg.sender == responsibleForDisbursement, \"Esta transao s pode ser executada pelo responsvel pelo desembolso\");\n        if (!suppliers[id]) {\n            suppliers[id] = true; //register the supplier\n            emit FA_SupplierAdded(registry.getId(owner()), id);\n        }\n    }\n\n    function verifyAndActForRedeem(address originalSender, uint fromId, bytes32 fromHash, uint amount, \n        bytes32 docHash, string[] memory data) public override whenNotPaused onlyRBBToken {\n\n        //nao verifica o sender, dado que o esse contrato nao diferencia as contas do fornecedor\n\n        require (amount>0, \"Valor a ser transacionado deve ser maior do que zero.\");\n        require (suppliers[fromId], \"Somente fornecedores podem executar o pagamento\");\n        require (getCalculatedHash(RESERVED_NO_ADDITIONAL_FIELDS_TO_SUPPLIER)==fromHash, \"Erro no clculo do hash da conta do fornecedor\");\n\n        emit FA_RedemptionRequested (fromId, amount, docHash);\n\n    }\n\n    function verifyAndActForRedemptionSettlement(bytes32 redemptionTransactionHash, bytes32 docHash, \n        string[] memory data)\n        public override whenNotPaused onlyRBBToken {\n\n        emit FA_RedemptionSettlement (redemptionTransactionHash, docHash);\n    }\n\n    modifier onlyRBBToken() {\n        require (msg.sender==address(rbbToken), \"Esse mtodo s pode ser chamado pelo RBB_Token\");\n        _;\n    }\n\n    \n    function getCalculatedHash (uint info) public view returns (bytes32) {\n        return keccak256(abi.encodePacked(info));\n    }\n\n    function getCalculatedHash (string memory info) public view returns (bytes32) {\n        return keccak256(abi.encodePacked(info));\n    }\n\n    function authorizeExtraordinaryTransfer (uint fromId, bytes32 fromHash, uint toId, bytes32 toHash, \n            uint amount, bytes32 docHash) public  {\n        \n        require (resposibleForApproveExtraordinaryTransfers == msg.sender, \"Somente um responsvel pelas transferncias extraordinrias por enviar a transao\");  \n        require (hasRoleInThisContract(fromId, fromHash), \"Endereo de origem no includo como papel nesse cadastro\");\n        require (hasRoleInThisContract(toId, toHash), \"Endereo de destino no includo como papel nesse cadastro\");\n\n        bytes32 m = keccak256(abi.encodePacked(fromId, fromHash, toId, toHash, amount));\n        hashApprovedExtraordinaryTransfers.push(m);\n\n        emit FA_ExtraordinaryTransferAllowed (fromId, fromHash, toId, toHash, amount, docHash);\n\n    }\n   \n    function verifyAndActForTransfer_EXTRAORDINARY_TRANSFERS(address originalSender, uint fromId, bytes32 fromHash, \n            uint toId, bytes32 toHash, uint amount, bytes32 docHash, string[] memory data) internal whenNotPaused {\n\n        require (hasRoleInThisContract(fromId, fromHash), \"Endereo de origem no includo como papel nesse cadastro\");\n        require (hasRoleInThisContract(toId, toHash), \"Endereo de destino no includo como papel nesse cadastro\");\n\n        string memory idFinancialSupportAgreement = data[1];\n        bytes32 m = keccak256(abi.encodePacked(fromId, fromHash, toId, toHash, amount));\n\n        bool transferApproved = false;\n        uint index = 0;\n        for (; index<hashApprovedExtraordinaryTransfers.length; index++) {\n            if (hashApprovedExtraordinaryTransfers[index] == m) {\n                transferApproved = true;\n                break;\n            }\n        }\n\n        require (transferApproved, \"Interveno manual no previamente cadastrada\");\n\n        hashApprovedExtraordinaryTransfers[index] \n            = hashApprovedExtraordinaryTransfers [hashApprovedExtraordinaryTransfers.length-1];\n        hashApprovedExtraordinaryTransfers.pop();\n\n        emit FA_ExtraordinaryTransferExecuted (fromId, fromHash, toId, toHash, amount, docHash);\n\n    }\n\n    function hasRoleInThisContract (uint rbbId, bytes32 hashToAccount) private returns (bool) {\n\n        bool hasRole = false;\n        if (donors[rbbId]==true) return true;\n\n//TODO: resolver -- preciso verificar se esse id jah estah cadastrado no mapping de clients.\n//        if (clients[rbbId]!=0) return true;\n        if (suppliers[rbbId]==true) return true;\n\n        uint ownerId = registry.getId(owner());\n        if (ownerId == rbbId) return true;\n\n        uint rbbTokenOwnerId = registry.getId(rbbToken.owner());\n        if (rbbTokenOwnerId == rbbId) return true;\n\n        return false;\n    }\n\n\n    function setResponsibleForInitialAllocation(address rs) onlyOwner public {\n        uint id = registry.getId(rs);\n        require(id==registry.getId(owner()), \"O responsvel pela alocao inicial deve ser da mesmo RBB_ID do contrato\");\n        responsibleForInitialAllocation = rs;\n        emit FA_ManualIntervention_RoleOrAddress(rs, 1);\n    }\n\n    function setResponsibleForDisbursement(address rs) onlyOwner public {\n        uint id = registry.getId(rs);\n        require(id==registry.getId(owner()), \"O responsvel pelo desembolso deve ser da mesmo RBB_ID do contrato\");\n        responsibleForDisbursement = rs;\n        emit FA_ManualIntervention_RoleOrAddress(rs, 2);\n    }\n\n    function setResposibleForApproveExtraordinaryTransfers(address rs) onlyOwner public {\n        uint id = registry.getId(rs);\n        require(id==registry.getId(owner()), \"O responsvel pelo cadastramento de transferencias extraordinrias deve ser da mesmo RBB_ID do contrato\");\n        resposibleForApproveExtraordinaryTransfers = rs;\n        emit FA_ManualIntervention_RoleOrAddress(rs, 3);\n    }\n\n\n}",
  "sourcePath": "/Users/suzana.moreno/workspace/rbb-token/Back-Blockchain/contracts/FABndesToken.sol",
  "compiler": {
    "name": "solc",
    "version": "0.6.12+commit.27d51765.Emscripten.clang"
  },
  "schemaVersion": "3.2.5",
  "updatedAt": "2020-09-25T20:39:39.543Z",
  "devdoc": {
    "kind": "dev",
    "methods": {
      "isOwner()": {
        "details": "Returns true if the caller is the current owner."
      },
      "owner()": {
        "details": "Returns the address of the current owner."
      },
      "pause()": {
        "details": "Called by a pauser to pause, triggers stopped state."
      },
      "paused()": {
        "details": "Returns true if the contract is paused, and false otherwise."
      },
      "renounceOwnership()": {
        "details": "Leaves the contract without owner. It will not be possible to call `onlyOwner` functions anymore. Can only be called by the current owner. NOTE: Renouncing ownership will leave the contract without an owner, thereby removing any functionality that is only available to the owner."
      },
      "transferOwnership(address)": {
        "details": "Transfers ownership of the contract to a new account (`newOwner`). Can only be called by the current owner."
      },
      "unpause()": {
        "details": "Called by a pauser to unpause, returns to normal state."
      }
    },
    "version": 1
  },
  "userdoc": {
    "kind": "user",
    "methods": {},
    "version": 1
  }
}