{
  "contractName": "FABndesToken",
  "abi": [
    {
      "inputs": [
        {
          "internalType": "address",
          "name": "newRegistryAddr",
          "type": "address"
        },
        {
          "internalType": "uint8",
          "name": "_decimals",
          "type": "uint8"
        },
        {
          "internalType": "uint256",
          "name": "responsibleForDisbursementArg",
          "type": "uint256"
        },
        {
          "internalType": "uint256",
          "name": "responsibleForSettlementArg",
          "type": "uint256"
        }
      ],
      "payable": false,
      "stateMutability": "nonpayable",
      "type": "constructor"
    },
    {
      "anonymous": false,
      "inputs": [
        {
          "indexed": false,
          "internalType": "uint256",
          "name": "idClient",
          "type": "uint256"
        },
        {
          "indexed": false,
          "internalType": "uint256",
          "name": "amount",
          "type": "uint256"
        },
        {
          "indexed": false,
          "internalType": "uint256",
          "name": "idFinancialSupportAgreement",
          "type": "uint256"
        }
      ],
      "name": "Disbursement",
      "type": "event"
    },
    {
      "anonymous": false,
      "inputs": [
        {
          "indexed": false,
          "internalType": "uint256",
          "name": "idClient",
          "type": "uint256"
        },
        {
          "indexed": false,
          "internalType": "uint256",
          "name": "idFinancialSupportAgreement",
          "type": "uint256"
        },
        {
          "indexed": false,
          "internalType": "uint256",
          "name": "amount",
          "type": "uint256"
        },
        {
          "indexed": false,
          "internalType": "string",
          "name": "description",
          "type": "string"
        },
        {
          "indexed": false,
          "internalType": "uint8",
          "name": "eventType",
          "type": "uint8"
        }
      ],
      "name": "ManualInterventionClient_MintAndBurn",
      "type": "event"
    },
    {
      "anonymous": false,
      "inputs": [
        {
          "indexed": true,
          "internalType": "address",
          "name": "previousOwner",
          "type": "address"
        },
        {
          "indexed": true,
          "internalType": "address",
          "name": "newOwner",
          "type": "address"
        }
      ],
      "name": "OwnershipTransferred",
      "type": "event"
    },
    {
      "anonymous": false,
      "inputs": [
        {
          "indexed": false,
          "internalType": "address",
          "name": "account",
          "type": "address"
        }
      ],
      "name": "Paused",
      "type": "event"
    },
    {
      "anonymous": false,
      "inputs": [
        {
          "indexed": true,
          "internalType": "address",
          "name": "account",
          "type": "address"
        }
      ],
      "name": "PauserAdded",
      "type": "event"
    },
    {
      "anonymous": false,
      "inputs": [
        {
          "indexed": true,
          "internalType": "address",
          "name": "account",
          "type": "address"
        }
      ],
      "name": "PauserRemoved",
      "type": "event"
    },
    {
      "anonymous": false,
      "inputs": [
        {
          "indexed": false,
          "internalType": "uint256",
          "name": "idClaimer",
          "type": "uint256"
        },
        {
          "indexed": false,
          "internalType": "uint256",
          "name": "amount",
          "type": "uint256"
        }
      ],
      "name": "RedemptionRequested",
      "type": "event"
    },
    {
      "anonymous": false,
      "inputs": [
        {
          "indexed": false,
          "internalType": "string",
          "name": "redemptionTransactionHash",
          "type": "string"
        },
        {
          "indexed": false,
          "internalType": "string",
          "name": "receiptHash",
          "type": "string"
        }
      ],
      "name": "RedemptionSettlement",
      "type": "event"
    },
    {
      "anonymous": false,
      "inputs": [
        {
          "indexed": false,
          "internalType": "uint256",
          "name": "fromCnpj",
          "type": "uint256"
        },
        {
          "indexed": false,
          "internalType": "uint256",
          "name": "fromIdFinancialSupportAgreement",
          "type": "uint256"
        },
        {
          "indexed": false,
          "internalType": "uint256",
          "name": "toCnpj",
          "type": "uint256"
        },
        {
          "indexed": false,
          "internalType": "uint256",
          "name": "amount",
          "type": "uint256"
        }
      ],
      "name": "TokenTransfer",
      "type": "event"
    },
    {
      "anonymous": false,
      "inputs": [
        {
          "indexed": false,
          "internalType": "address",
          "name": "account",
          "type": "address"
        }
      ],
      "name": "Unpaused",
      "type": "event"
    },
    {
      "constant": false,
      "inputs": [
        {
          "internalType": "address",
          "name": "account",
          "type": "address"
        }
      ],
      "name": "addPauser",
      "outputs": [],
      "payable": false,
      "stateMutability": "nonpayable",
      "type": "function"
    },
    {
      "constant": true,
      "inputs": [
        {
          "internalType": "uint256",
          "name": "",
          "type": "uint256"
        },
        {
          "internalType": "uint256",
          "name": "",
          "type": "uint256"
        }
      ],
      "name": "clientIdFCAmount",
      "outputs": [
        {
          "internalType": "uint256",
          "name": "",
          "type": "uint256"
        }
      ],
      "payable": false,
      "stateMutability": "view",
      "type": "function"
    },
    {
      "constant": true,
      "inputs": [],
      "name": "decimals",
      "outputs": [
        {
          "internalType": "uint8",
          "name": "",
          "type": "uint8"
        }
      ],
      "payable": false,
      "stateMutability": "view",
      "type": "function"
    },
    {
      "constant": true,
      "inputs": [],
      "name": "isOwner",
      "outputs": [
        {
          "internalType": "bool",
          "name": "",
          "type": "bool"
        }
      ],
      "payable": false,
      "stateMutability": "view",
      "type": "function"
    },
    {
      "constant": true,
      "inputs": [
        {
          "internalType": "address",
          "name": "account",
          "type": "address"
        }
      ],
      "name": "isPauser",
      "outputs": [
        {
          "internalType": "bool",
          "name": "",
          "type": "bool"
        }
      ],
      "payable": false,
      "stateMutability": "view",
      "type": "function"
    },
    {
      "constant": true,
      "inputs": [],
      "name": "owner",
      "outputs": [
        {
          "internalType": "address",
          "name": "",
          "type": "address"
        }
      ],
      "payable": false,
      "stateMutability": "view",
      "type": "function"
    },
    {
      "constant": false,
      "inputs": [],
      "name": "pause",
      "outputs": [],
      "payable": false,
      "stateMutability": "nonpayable",
      "type": "function"
    },
    {
      "constant": true,
      "inputs": [],
      "name": "paused",
      "outputs": [
        {
          "internalType": "bool",
          "name": "",
          "type": "bool"
        }
      ],
      "payable": false,
      "stateMutability": "view",
      "type": "function"
    },
    {
      "constant": true,
      "inputs": [],
      "name": "registry",
      "outputs": [
        {
          "internalType": "contract RBBRegistry",
          "name": "",
          "type": "address"
        }
      ],
      "payable": false,
      "stateMutability": "view",
      "type": "function"
    },
    {
      "constant": false,
      "inputs": [],
      "name": "renounceOwnership",
      "outputs": [],
      "payable": false,
      "stateMutability": "nonpayable",
      "type": "function"
    },
    {
      "constant": false,
      "inputs": [],
      "name": "renouncePauser",
      "outputs": [],
      "payable": false,
      "stateMutability": "nonpayable",
      "type": "function"
    },
    {
      "constant": true,
      "inputs": [],
      "name": "responsibleForDisbursement",
      "outputs": [
        {
          "internalType": "uint256",
          "name": "",
          "type": "uint256"
        }
      ],
      "payable": false,
      "stateMutability": "view",
      "type": "function"
    },
    {
      "constant": true,
      "inputs": [],
      "name": "responsibleForSettlement",
      "outputs": [
        {
          "internalType": "uint256",
          "name": "",
          "type": "uint256"
        }
      ],
      "payable": false,
      "stateMutability": "view",
      "type": "function"
    },
    {
      "constant": true,
      "inputs": [
        {
          "internalType": "uint256",
          "name": "",
          "type": "uint256"
        }
      ],
      "name": "supplierAmount",
      "outputs": [
        {
          "internalType": "uint256",
          "name": "",
          "type": "uint256"
        }
      ],
      "payable": false,
      "stateMutability": "view",
      "type": "function"
    },
    {
      "constant": false,
      "inputs": [
        {
          "internalType": "address",
          "name": "newOwner",
          "type": "address"
        }
      ],
      "name": "transferOwnership",
      "outputs": [],
      "payable": false,
      "stateMutability": "nonpayable",
      "type": "function"
    },
    {
      "constant": false,
      "inputs": [],
      "name": "unpause",
      "outputs": [],
      "payable": false,
      "stateMutability": "nonpayable",
      "type": "function"
    },
    {
      "constant": false,
      "inputs": [
        {
          "internalType": "uint256",
          "name": "clientId",
          "type": "uint256"
        },
        {
          "internalType": "uint256",
          "name": "idFinancialSupportAgreement",
          "type": "uint256"
        },
        {
          "internalType": "uint256",
          "name": "amount",
          "type": "uint256"
        }
      ],
      "name": "makeDisbursement",
      "outputs": [],
      "payable": false,
      "stateMutability": "nonpayable",
      "type": "function"
    },
    {
      "constant": false,
      "inputs": [
        {
          "internalType": "uint256",
          "name": "idFinancialSupportAgreement",
          "type": "uint256"
        },
        {
          "internalType": "uint256",
          "name": "amount",
          "type": "uint256"
        },
        {
          "internalType": "uint256",
          "name": "supplierId",
          "type": "uint256"
        }
      ],
      "name": "paySupplier",
      "outputs": [],
      "payable": false,
      "stateMutability": "nonpayable",
      "type": "function"
    },
    {
      "constant": false,
      "inputs": [
        {
          "internalType": "uint256",
          "name": "amount",
          "type": "uint256"
        }
      ],
      "name": "redeem",
      "outputs": [],
      "payable": false,
      "stateMutability": "nonpayable",
      "type": "function"
    },
    {
      "constant": false,
      "inputs": [
        {
          "internalType": "string",
          "name": "redemptionTransactionHash",
          "type": "string"
        },
        {
          "internalType": "string",
          "name": "receiptHash",
          "type": "string"
        }
      ],
      "name": "notifyRedemptionSettlement",
      "outputs": [],
      "payable": false,
      "stateMutability": "nonpayable",
      "type": "function"
    },
    {
      "constant": false,
      "inputs": [
        {
          "internalType": "uint256",
          "name": "clientId",
          "type": "uint256"
        },
        {
          "internalType": "uint256",
          "name": "idFinancialSupportAgreement",
          "type": "uint256"
        },
        {
          "internalType": "uint256",
          "name": "amount",
          "type": "uint256"
        },
        {
          "internalType": "string",
          "name": "description",
          "type": "string"
        }
      ],
      "name": "mintClient",
      "outputs": [],
      "payable": false,
      "stateMutability": "nonpayable",
      "type": "function"
    },
    {
      "constant": false,
      "inputs": [
        {
          "internalType": "uint256",
          "name": "clientId",
          "type": "uint256"
        },
        {
          "internalType": "uint256",
          "name": "idFinancialSupportAgreement",
          "type": "uint256"
        },
        {
          "internalType": "uint256",
          "name": "amount",
          "type": "uint256"
        },
        {
          "internalType": "string",
          "name": "description",
          "type": "string"
        }
      ],
      "name": "burnClient",
      "outputs": [],
      "payable": false,
      "stateMutability": "nonpayable",
      "type": "function"
    },
    {
      "constant": false,
      "inputs": [
        {
          "internalType": "uint256",
          "name": "idResponsible",
          "type": "uint256"
        }
      ],
      "name": "setResponsibleForDisbursement",
      "outputs": [],
      "payable": false,
      "stateMutability": "nonpayable",
      "type": "function"
    },
    {
      "constant": false,
      "inputs": [
        {
          "internalType": "uint256",
          "name": "idResponsible",
          "type": "uint256"
        }
      ],
      "name": "setResponsibleForSettlement",
      "outputs": [],
      "payable": false,
      "stateMutability": "nonpayable",
      "type": "function"
    },
    {
      "constant": true,
      "inputs": [
        {
          "internalType": "address",
          "name": "addr",
          "type": "address"
        }
      ],
      "name": "isResponsibleForDisbursement",
      "outputs": [
        {
          "internalType": "bool",
          "name": "",
          "type": "bool"
        }
      ],
      "payable": false,
      "stateMutability": "view",
      "type": "function"
    },
    {
      "constant": true,
      "inputs": [
        {
          "internalType": "address",
          "name": "addr",
          "type": "address"
        }
      ],
      "name": "isResponsibleForSettlement",
      "outputs": [
        {
          "internalType": "bool",
          "name": "",
          "type": "bool"
        }
      ],
      "payable": false,
      "stateMutability": "view",
      "type": "function"
    },
    {
      "constant": true,
      "inputs": [],
      "name": "getDecimals",
      "outputs": [
        {
          "internalType": "uint8",
          "name": "",
          "type": "uint8"
        }
      ],
      "payable": false,
      "stateMutability": "view",
      "type": "function"
    }
  ],
  "bytecode": "0x608060405260028060156101000a81548160ff021916908360ff1602179055503480156200002c57600080fd5b506040516200330f3803806200330f833981810160405260808110156200005257600080fd5b8101908080519060200190929190805190602001909291908051906020019092919080519060200190929190505050600062000093620001d260201b60201c565b9050806000806101000a81548173ffffffffffffffffffffffffffffffffffffffff021916908373ffffffffffffffffffffffffffffffffffffffff1602179055508073ffffffffffffffffffffffffffffffffffffffff16600073ffffffffffffffffffffffffffffffffffffffff167f8be0079c531659141344cd1fd0a4f28419497f9722a3daafe3b4186f6b6457e060405160405180910390a3506200015162000145620001d260201b60201c565b620001da60201b60201c565b6000600260006101000a81548160ff02191690831515021790555083600260016101000a81548173ffffffffffffffffffffffffffffffffffffffff021916908373ffffffffffffffffffffffffffffffffffffffff16021790555082600260156101000a81548160ff021916908360ff16021790555050505050620003ff565b600033905090565b620001f58160016200023b60201b62002b391790919060201c565b8073ffffffffffffffffffffffffffffffffffffffff167f6719d08c1888103bea251a4ed56406bd0c3e69723c8a1686e017e7bbe159b6f860405160405180910390a250565b6200024d82826200031f60201b60201c565b15620002c1576040517f08c379a000000000000000000000000000000000000000000000000000000000815260040180806020018281038252601f8152602001807f526f6c65733a206163636f756e7420616c72656164792068617320726f6c650081525060200191505060405180910390fd5b60018260000160008373ffffffffffffffffffffffffffffffffffffffff1673ffffffffffffffffffffffffffffffffffffffff16815260200190815260200160002060006101000a81548160ff0219169083151502179055505050565b60008073ffffffffffffffffffffffffffffffffffffffff168273ffffffffffffffffffffffffffffffffffffffff161415620003a8576040517f08c379a0000000000000000000000000000000000000000000000000000000008152600401808060200182810382526022815260200180620032ed6022913960400191505060405180910390fd5b8260000160008373ffffffffffffffffffffffffffffffffffffffff1673ffffffffffffffffffffffffffffffffffffffff16815260200190815260200160002060009054906101000a900460ff16905092915050565b612ede806200040f6000396000f3fe608060405234801561001057600080fd5b50600436106101a95760003560e01c806382dc1ec4116100f9578063a75b6cb911610097578063db006a7511610071578063db006a75146108aa578063edcd58bb146108d8578063f0141d8414610906578063f2fde38b1461092a576101a9565b8063a75b6cb91461074d578063c18b510d1461078f578063c8f50a9c146107d1576101a9565b806387cf6423116100d357806387cf6423146105715780638cabf128146106c35780638da5cb5b146106e15780638f32d59b1461072b576101a9565b806382dc1ec4146104c75780638456cb591461050b57806385fecf9b14610515576101a9565b806346fbf68e116101665780636e5784a4116101405780636e5784a4146103905780636ef8d66d14610469578063715018a6146104735780637b1039991461047d576101a9565b806346fbf68e146102b65780634add3110146103125780635c975abb1461036e576101a9565b80631a9ceb01146101ae5780631c752f42146101dc578063214538001461021e5780632a419e7f1461023c578063313ce567146102885780633f4ba83a146102ac575b600080fd5b6101da600480360360208110156101c457600080fd5b810190808035906020019092919050505061096e565b005b61021c600480360360608110156101f257600080fd5b81019080803590602001909291908035906020019092919080359060200190929190505050610af5565b005b610226610d01565b6040518082815260200191505060405180910390f35b6102726004803603604081101561025257600080fd5b810190808035906020019092919080359060200190929190505050610d07565b6040518082815260200191505060405180910390f35b610290610d2c565b604051808260ff1660ff16815260200191505060405180910390f35b6102b4610d3f565b005b6102f8600480360360208110156102cc57600080fd5b81019080803573ffffffffffffffffffffffffffffffffffffffff169060200190929190505050610ead565b604051808215151515815260200191505060405180910390f35b6103546004803603602081101561032857600080fd5b81019080803573ffffffffffffffffffffffffffffffffffffffff169060200190929190505050610eca565b604051808215151515815260200191505060405180910390f35b610376610fb1565b604051808215151515815260200191505060405180910390f35b610467600480360360808110156103a657600080fd5b81019080803590602001909291908035906020019092919080359060200190929190803590602001906401000000008111156103e157600080fd5b8201836020820111156103f357600080fd5b8035906020019184600183028401116401000000008311171561041557600080fd5b91908080601f016020809104026020016040519081016040528093929190818152602001838380828437600081840152601f19601f820116905080830192505050505050509192919290505050610fc8565b005b610471611284565b005b61047b611296565b005b6104856113cf565b604051808273ffffffffffffffffffffffffffffffffffffffff1673ffffffffffffffffffffffffffffffffffffffff16815260200191505060405180910390f35b610509600480360360208110156104dd57600080fd5b81019080803573ffffffffffffffffffffffffffffffffffffffff1690602001909291905050506113f5565b005b610513611466565b005b6105576004803603602081101561052b57600080fd5b81019080803573ffffffffffffffffffffffffffffffffffffffff1690602001909291905050506115d5565b604051808215151515815260200191505060405180910390f35b6106c16004803603604081101561058757600080fd5b81019080803590602001906401000000008111156105a457600080fd5b8201836020820111156105b657600080fd5b803590602001918460018302840111640100000000831117156105d857600080fd5b91908080601f016020809104026020016040519081016040528093929190818152602001838380828437600081840152601f19601f8201169050808301925050505050505091929192908035906020019064010000000081111561063b57600080fd5b82018360208201111561064d57600080fd5b8035906020019184600183028401116401000000008311171561066f57600080fd5b91908080601f016020809104026020016040519081016040528093929190818152602001838380828437600081840152601f19601f8201169050808301925050505050505091929192905050506116bc565b005b6106cb611a0b565b6040518082815260200191505060405180910390f35b6106e9611a11565b604051808273ffffffffffffffffffffffffffffffffffffffff1673ffffffffffffffffffffffffffffffffffffffff16815260200191505060405180910390f35b610733611a3a565b604051808215151515815260200191505060405180910390f35b61078d6004803603606081101561076357600080fd5b81019080803590602001909291908035906020019092919080359060200190929190505050611a98565b005b6107bb600480360360208110156107a557600080fd5b8101908080359060200190929190505050611ee0565b6040518082815260200191505060405180910390f35b6108a8600480360360808110156107e757600080fd5b810190808035906020019092919080359060200190929190803590602001909291908035906020019064010000000081111561082257600080fd5b82018360208201111561083457600080fd5b8035906020019184600183028401116401000000008311171561085657600080fd5b91908080601f016020809104026020016040519081016040528093929190818152602001838380828437600081840152601f19601f820116905080830192505050505050509192919290505050611ef8565b005b6108d6600480360360208110156108c057600080fd5b810190808035906020019092919050505061219a565b005b610904600480360360208110156108ee57600080fd5b8101908080359060200190929190505050612432565b005b61090e6125b9565b604051808260ff1660ff16815260200191505060405180910390f35b61096c6004803603602081101561094057600080fd5b81019080803573ffffffffffffffffffffffffffffffffffffffff1690602001909291905050506125d0565b005b610976611a3a565b6109e8576040517f08c379a00000000000000000000000000000000000000000000000000000000081526004018080602001828103825260208152602001807f4f776e61626c653a2063616c6c6572206973206e6f7420746865206f776e657281525060200191505060405180910390fd5b600260019054906101000a900473ffffffffffffffffffffffffffffffffffffffff1673ffffffffffffffffffffffffffffffffffffffff1663613a7896826040518263ffffffff1660e01b81526004018082815260200191505060206040518083038186803b158015610a5b57600080fd5b505afa158015610a6f573d6000803e3d6000fd5b505050506040513d6020811015610a8557600080fd5b8101908080519060200190929190505050610aeb576040517f08c379a0000000000000000000000000000000000000000000000000000000008152600401808060200182810382526034815260200180612d316034913960400191505060405180910390fd5b8060058190555050565b610afe33610eca565b610b53576040517f08c379a0000000000000000000000000000000000000000000000000000000008152600401808060200182810382526044815260200180612e306044913960600191505060405180910390fd5b600260019054906101000a900473ffffffffffffffffffffffffffffffffffffffff1673ffffffffffffffffffffffffffffffffffffffff1663613a7896846040518263ffffffff1660e01b81526004018082815260200191505060206040518083038186803b158015610bc657600080fd5b505afa158015610bda573d6000803e3d6000fd5b505050506040513d6020811015610bf057600080fd5b8101908080519060200190929190505050610c56576040517f08c379a0000000000000000000000000000000000000000000000000000000008152600401808060200182810382526033815260200180612dcb6033913960400191505060405180910390fd5b610c8d816003600086815260200190815260200160002060008581526020019081526020016000205461265690919063ffffffff16565b600360008581526020019081526020016000206000848152602001908152602001600020819055507ffbba414a49b8c297dfb35c06bb278bd5a3fa46f39715860edbd030b1ffa81a7d83828460405180848152602001838152602001828152602001935050505060405180910390a1505050565b60055481565b6003602052816000526040600020602052806000526040600020600091509150505481565b600260159054906101000a900460ff1681565b610d4f610d4a6126de565b610ead565b610da4576040517f08c379a0000000000000000000000000000000000000000000000000000000008152600401808060200182810382526030815260200180612c7c6030913960400191505060405180910390fd5b600260009054906101000a900460ff16610e26576040517f08c379a00000000000000000000000000000000000000000000000000000000081526004018080602001828103825260148152602001807f5061757361626c653a206e6f742070617573656400000000000000000000000081525060200191505060405180910390fd5b6000600260006101000a81548160ff0219169083151502179055507f5db9ee0a495bf2e6ff9c91a7834c1ba4fdd244a5e8aa4e537bd38aeae4b073aa610e6a6126de565b604051808273ffffffffffffffffffffffffffffffffffffffff1673ffffffffffffffffffffffffffffffffffffffff16815260200191505060405180910390a1565b6000610ec38260016126e690919063ffffffff16565b9050919050565b6000600654600260019054906101000a900473ffffffffffffffffffffffffffffffffffffffff1673ffffffffffffffffffffffffffffffffffffffff166365f68c89846040518263ffffffff1660e01b8152600401808273ffffffffffffffffffffffffffffffffffffffff1673ffffffffffffffffffffffffffffffffffffffff16815260200191505060206040518083038186803b158015610f6e57600080fd5b505afa158015610f82573d6000803e3d6000fd5b505050506040513d6020811015610f9857600080fd5b8101908080519060200190929190505050149050919050565b6000600260009054906101000a900460ff16905090565b610fd0611a3a565b611042576040517f08c379a00000000000000000000000000000000000000000000000000000000081526004018080602001828103825260208152602001807f4f776e61626c653a2063616c6c6572206973206e6f7420746865206f776e657281525060200191505060405180910390fd5b600260019054906101000a900473ffffffffffffffffffffffffffffffffffffffff1673ffffffffffffffffffffffffffffffffffffffff1663613a7896856040518263ffffffff1660e01b81526004018082815260200191505060206040518083038186803b1580156110b557600080fd5b505afa1580156110c9573d6000803e3d6000fd5b505050506040513d60208110156110df57600080fd5b8101908080519060200190929190505050611145576040517f08c379a0000000000000000000000000000000000000000000000000000000008152600401808060200182810382526033815260200180612dcb6033913960400191505060405180910390fd5b61119682604051806060016040528060228152602001612c5a60229139600360008881526020019081526020016000206000878152602001908152602001600020546127c49092919063ffffffff16565b600360008681526020019081526020016000206000858152602001908152602001600020819055507f2bf5228b5bf0d2337467cdff866d5ac9b0ed7729deed9898985ed199228c0db884848484600260405180868152602001858152602001848152602001806020018360ff168152602001828103825284818151815260200191508051906020019080838360005b83811015611240578082015181840152602081019050611225565b50505050905090810190601f16801561126d5780820380516001836020036101000a031916815260200191505b50965050505050505060405180910390a150505050565b61129461128f6126de565b612884565b565b61129e611a3a565b611310576040517f08c379a00000000000000000000000000000000000000000000000000000000081526004018080602001828103825260208152602001807f4f776e61626c653a2063616c6c6572206973206e6f7420746865206f776e657281525060200191505060405180910390fd5b600073ffffffffffffffffffffffffffffffffffffffff166000809054906101000a900473ffffffffffffffffffffffffffffffffffffffff1673ffffffffffffffffffffffffffffffffffffffff167f8be0079c531659141344cd1fd0a4f28419497f9722a3daafe3b4186f6b6457e060405160405180910390a360008060006101000a81548173ffffffffffffffffffffffffffffffffffffffff021916908373ffffffffffffffffffffffffffffffffffffffff160217905550565b600260019054906101000a900473ffffffffffffffffffffffffffffffffffffffff1681565b6114056114006126de565b610ead565b61145a576040517f08c379a0000000000000000000000000000000000000000000000000000000008152600401808060200182810382526030815260200180612c7c6030913960400191505060405180910390fd5b611463816128de565b50565b6114766114716126de565b610ead565b6114cb576040517f08c379a0000000000000000000000000000000000000000000000000000000008152600401808060200182810382526030815260200180612c7c6030913960400191505060405180910390fd5b600260009054906101000a900460ff161561154e576040517f08c379a00000000000000000000000000000000000000000000000000000000081526004018080602001828103825260108152602001807f5061757361626c653a207061757365640000000000000000000000000000000081525060200191505060405180910390fd5b6001600260006101000a81548160ff0219169083151502179055507f62e78cea01bee320cd4e420270b5ea74000d11b0c9f74754ebdbfc544b05a2586115926126de565b604051808273ffffffffffffffffffffffffffffffffffffffff1673ffffffffffffffffffffffffffffffffffffffff16815260200191505060405180910390a1565b6000600554600260019054906101000a900473ffffffffffffffffffffffffffffffffffffffff1673ffffffffffffffffffffffffffffffffffffffff166365f68c89846040518263ffffffff1660e01b8152600401808273ffffffffffffffffffffffffffffffffffffffff1673ffffffffffffffffffffffffffffffffffffffff16815260200191505060206040518083038186803b15801561167957600080fd5b505afa15801561168d573d6000803e3d6000fd5b505050506040513d60208110156116a357600080fd5b8101908080519060200190929190505050149050919050565b600260009054906101000a900460ff161561173f576040517f08c379a00000000000000000000000000000000000000000000000000000000081526004018080602001828103825260108152602001807f5061757361626c653a207061757365640000000000000000000000000000000081525060200191505060405180910390fd5b611748336115d5565b61179d576040517f08c379a0000000000000000000000000000000000000000000000000000000008152600401808060200182810382526045815260200180612c156045913960600191505060405180910390fd5b73__RBBLib________________________________636edcb12f826040518263ffffffff1660e01b81526004018080602001828103825283818151815260200191508051906020019080838360005b838110156118075780820151818401526020810190506117ec565b50505050905090810190601f1680156118345780820380516001836020036101000a031916815260200191505b509250505060206040518083038186803b15801561185157600080fd5b505af4158015611865573d6000803e3d6000fd5b505050506040513d602081101561187b57600080fd5b81019080805190602001909291905050506118fe576040517f08c379a000000000000000000000000000000000000000000000000000000000815260040180806020018281038252601d8152602001807f4f206861736820646f2072656369626f20c3a920696e76c3a16c69646f00000081525060200191505060405180910390fd5b7fc5c85710ca450311aa550ba9b7404810c70a332cda36f77ae18faa406acb12388282604051808060200180602001838103835285818151815260200191508051906020019080838360005b8381101561196557808201518184015260208101905061194a565b50505050905090810190601f1680156119925780820380516001836020036101000a031916815260200191505b50838103825284818151815260200191508051906020019080838360005b838110156119cb5780820151818401526020810190506119b0565b50505050905090810190601f1680156119f85780820380516001836020036101000a031916815260200191505b5094505050505060405180910390a15050565b60065481565b60008060009054906101000a900473ffffffffffffffffffffffffffffffffffffffff16905090565b60008060009054906101000a900473ffffffffffffffffffffffffffffffffffffffff1673ffffffffffffffffffffffffffffffffffffffff16611a7c6126de565b73ffffffffffffffffffffffffffffffffffffffff1614905090565b6000600260019054906101000a900473ffffffffffffffffffffffffffffffffffffffff1673ffffffffffffffffffffffffffffffffffffffff166365f68c89336040518263ffffffff1660e01b8152600401808273ffffffffffffffffffffffffffffffffffffffff1673ffffffffffffffffffffffffffffffffffffffff16815260200191505060206040518083038186803b158015611b3957600080fd5b505afa158015611b4d573d6000803e3d6000fd5b505050506040513d6020811015611b6357600080fd5b81019080805190602001909291905050509050600260019054906101000a900473ffffffffffffffffffffffffffffffffffffffff1673ffffffffffffffffffffffffffffffffffffffff1663613a7896826040518263ffffffff1660e01b81526004018082815260200191505060206040518083038186803b158015611be957600080fd5b505afa158015611bfd573d6000803e3d6000fd5b505050506040513d6020811015611c1357600080fd5b8101908080519060200190929190505050611c79576040517f08c379a0000000000000000000000000000000000000000000000000000000008152600401808060200182810382526033815260200180612dcb6033913960400191505060405180910390fd5b600260019054906101000a900473ffffffffffffffffffffffffffffffffffffffff1673ffffffffffffffffffffffffffffffffffffffff1663613a7896836040518263ffffffff1660e01b81526004018082815260200191505060206040518083038186803b158015611cec57600080fd5b505afa158015611d00573d6000803e3d6000fd5b505050506040513d6020811015611d1657600080fd5b8101908080519060200190929190505050611d7c576040517f08c379a0000000000000000000000000000000000000000000000000000000008152600401808060200182810382526032815260200180612dfe6032913960400191505060405180910390fd5b81811415611dd5576040517f08c379a000000000000000000000000000000000000000000000000000000000815260040180806020018281038252605f815260200180612cd2605f913960600191505060405180910390fd5b611e2683604051806060016040528060238152602001612d8660239139600360008581526020019081526020016000206000888152602001908152602001600020546127c49092919063ffffffff16565b60036000838152602001908152602001600020600086815260200190815260200160002081905550611e7483600460008581526020019081526020016000205461265690919063ffffffff16565b60046000848152602001908152602001600020819055507febe5f6cd3199aedd4d32bd3ba5a426b5b2ab69ec269aa9582120a07aaced9d82818584866040518085815260200184815260200183815260200182815260200194505050505060405180910390a150505050565b60046020528060005260406000206000915090505481565b611f00611a3a565b611f72576040517f08c379a00000000000000000000000000000000000000000000000000000000081526004018080602001828103825260208152602001807f4f776e61626c653a2063616c6c6572206973206e6f7420746865206f776e657281525060200191505060405180910390fd5b600260019054906101000a900473ffffffffffffffffffffffffffffffffffffffff1673ffffffffffffffffffffffffffffffffffffffff1663613a7896856040518263ffffffff1660e01b81526004018082815260200191505060206040518083038186803b158015611fe557600080fd5b505afa158015611ff9573d6000803e3d6000fd5b505050506040513d602081101561200f57600080fd5b8101908080519060200190929190505050612075576040517f08c379a0000000000000000000000000000000000000000000000000000000008152600401808060200182810382526033815260200180612dcb6033913960400191505060405180910390fd5b6120ac826003600087815260200190815260200160002060008681526020019081526020016000205461265690919063ffffffff16565b600360008681526020019081526020016000206000858152602001908152602001600020819055507f2bf5228b5bf0d2337467cdff866d5ac9b0ed7729deed9898985ed199228c0db884848484600160405180868152602001858152602001848152602001806020018360ff168152602001828103825284818151815260200191508051906020019080838360005b8381101561215657808201518184015260208101905061213b565b50505050905090810190601f1680156121835780820380516001836020036101000a031916815260200191505b50965050505050505060405180910390a150505050565b6000600260019054906101000a900473ffffffffffffffffffffffffffffffffffffffff1673ffffffffffffffffffffffffffffffffffffffff166365f68c89336040518263ffffffff1660e01b8152600401808273ffffffffffffffffffffffffffffffffffffffff1673ffffffffffffffffffffffffffffffffffffffff16815260200191505060206040518083038186803b15801561223b57600080fd5b505afa15801561224f573d6000803e3d6000fd5b505050506040513d602081101561226557600080fd5b81019080805190602001909291905050509050600260019054906101000a900473ffffffffffffffffffffffffffffffffffffffff1673ffffffffffffffffffffffffffffffffffffffff1663613a7896826040518263ffffffff1660e01b81526004018082815260200191505060206040518083038186803b1580156122eb57600080fd5b505afa1580156122ff573d6000803e3d6000fd5b505050506040513d602081101561231557600080fd5b810190808051906020019092919050505061237b576040517f08c379a0000000000000000000000000000000000000000000000000000000008152600401808060200182810382526032815260200180612dfe6032913960400191505060405180910390fd5b6123d8826040518060400160405280601881526020017f73616c646f206ec3a36f20c3a920737566696369656e7465000000000000000081525060046000858152602001908152602001600020546127c49092919063ffffffff16565b60046000838152602001908152602001600020819055507fd5ba0459265c0cfa94aa9d715cc0b5c1305e25f72d371f73e627359065e83fdc8183604051808381526020018281526020019250505060405180910390a15050565b61243a611a3a565b6124ac576040517f08c379a00000000000000000000000000000000000000000000000000000000081526004018080602001828103825260208152602001807f4f776e61626c653a2063616c6c6572206973206e6f7420746865206f776e657281525060200191505060405180910390fd5b600260019054906101000a900473ffffffffffffffffffffffffffffffffffffffff1673ffffffffffffffffffffffffffffffffffffffff1663613a7896826040518263ffffffff1660e01b81526004018082815260200191505060206040518083038186803b15801561251f57600080fd5b505afa158015612533573d6000803e3d6000fd5b505050506040513d602081101561254957600080fd5b81019080805190602001909291905050506125af576040517f08c379a0000000000000000000000000000000000000000000000000000000008152600401808060200182810382526036815260200180612e746036913960400191505060405180910390fd5b8060068190555050565b6000600260159054906101000a900460ff16905090565b6125d8611a3a565b61264a576040517f08c379a00000000000000000000000000000000000000000000000000000000081526004018080602001828103825260208152602001807f4f776e61626c653a2063616c6c6572206973206e6f7420746865206f776e657281525060200191505060405180910390fd5b61265381612938565b50565b6000808284019050838110156126d4576040517f08c379a000000000000000000000000000000000000000000000000000000000815260040180806020018281038252601b8152602001807f536166654d6174683a206164646974696f6e206f766572666c6f77000000000081525060200191505060405180910390fd5b8091505092915050565b600033905090565b60008073ffffffffffffffffffffffffffffffffffffffff168273ffffffffffffffffffffffffffffffffffffffff16141561276d576040517f08c379a0000000000000000000000000000000000000000000000000000000008152600401808060200182810382526022815260200180612da96022913960400191505060405180910390fd5b8260000160008373ffffffffffffffffffffffffffffffffffffffff1673ffffffffffffffffffffffffffffffffffffffff16815260200190815260200160002060009054906101000a900460ff16905092915050565b6000838311158290612871576040517f08c379a00000000000000000000000000000000000000000000000000000000081526004018080602001828103825283818151815260200191508051906020019080838360005b8381101561283657808201518184015260208101905061281b565b50505050905090810190601f1680156128635780820380516001836020036101000a031916815260200191505b509250505060405180910390fd5b5060008385039050809150509392505050565b612898816001612a7c90919063ffffffff16565b8073ffffffffffffffffffffffffffffffffffffffff167fcd265ebaf09df2871cc7bd4133404a235ba12eff2041bb89d9c714a2621c7c7e60405160405180910390a250565b6128f2816001612b3990919063ffffffff16565b8073ffffffffffffffffffffffffffffffffffffffff167f6719d08c1888103bea251a4ed56406bd0c3e69723c8a1686e017e7bbe159b6f860405160405180910390a250565b600073ffffffffffffffffffffffffffffffffffffffff168173ffffffffffffffffffffffffffffffffffffffff1614156129be576040517f08c379a0000000000000000000000000000000000000000000000000000000008152600401808060200182810382526026815260200180612cac6026913960400191505060405180910390fd5b8073ffffffffffffffffffffffffffffffffffffffff166000809054906101000a900473ffffffffffffffffffffffffffffffffffffffff1673ffffffffffffffffffffffffffffffffffffffff167f8be0079c531659141344cd1fd0a4f28419497f9722a3daafe3b4186f6b6457e060405160405180910390a3806000806101000a81548173ffffffffffffffffffffffffffffffffffffffff021916908373ffffffffffffffffffffffffffffffffffffffff16021790555050565b612a8682826126e6565b612adb576040517f08c379a0000000000000000000000000000000000000000000000000000000008152600401808060200182810382526021815260200180612d656021913960400191505060405180910390fd5b60008260000160008373ffffffffffffffffffffffffffffffffffffffff1673ffffffffffffffffffffffffffffffffffffffff16815260200190815260200160002060006101000a81548160ff0219169083151502179055505050565b612b4382826126e6565b15612bb6576040517f08c379a000000000000000000000000000000000000000000000000000000000815260040180806020018281038252601f8152602001807f526f6c65733a206163636f756e7420616c72656164792068617320726f6c650081525060200191505060405180910390fd5b60018260000160008373ffffffffffffffffffffffffffffffffffffffff1673ffffffffffffffffffffffffffffffffffffffff16815260200190815260200160002060006101000a81548160ff021916908315150217905550505056fe4170656e6173206f20726573706f6e73c3a176656c2070656c61206c697175696461c3a7c3a36f20706f64652065786563757461722065737361206f70657261c3a7c3a36f45524332303a206275726e20616d6f756e7420657863656564732062616c616e6365506175736572526f6c653a2063616c6c657220646f6573206e6f742068617665207468652050617573657220726f6c654f776e61626c653a206e6577206f776e657220697320746865207a65726f2061646472657373556d20434e504a206ec3a36f20706f6465207472616e73666572697220746f6b656e20706172612073692c2061696e64612071756520656d20706170c3a969732064697374696e746f732028436c69656e74652f466f726e656365646f7229496420646f20526573706f6e7369626c6520666f7220536574746c656d656e74206ec3a36f20657374c3a12076616c696461646f526f6c65733a206163636f756e7420646f6573206e6f74206861766520726f6c6553616c646f20646f20636c69656e7465206ec3a36f20c3a920737566696369656e7465526f6c65733a206163636f756e7420697320746865207a65726f2061646472657373436c69656e7465207072656369736120657374617220636f6d20636f6e746120626c6f636b636861696e2076616c6964616461466f726e656365646f72207072656369736120657374617220636f6e746120626c6f636b636861696e2076616c69646164614170656e6173206f20726573706f6e73c3a176656c2070656c61206c6962657261c3a7c3a36f20706f64652065786563757461722065737361206f70657261c3a7c3a36f496420646f20526573706f6e7369626c6520666f722044697362757273656d656e74206ec3a36f20657374c3a12076616c696461646fa265627a7a723158204cfc2e4798a0a3b28db9d573eb32b35a1e19781fa2189749c0ab861d1090110464736f6c63430005100032526f6c65733a206163636f756e7420697320746865207a65726f2061646472657373",
  "source": "pragma solidity ^0.5.0;\n\nimport \"./RBBLib.sol\";\nimport \"./RBBRegistry.sol\";\nimport \"@openzeppelin/contracts/ownership/Ownable.sol\";\nimport \"@openzeppelin/contracts/lifecycle/Pausable.sol\";\nimport \"@openzeppelin/contracts/math/SafeMath.sol\";\n\ncontract FABndesToken is Ownable, Pausable {\n\n    using SafeMath for uint;\n\n    RBBRegistry public registry;\n\n    uint8 public decimals = 2;\n\n    //clientId => (financialContract => amount)\n    mapping (uint => mapping (uint => uint)) public clientIdFCAmount;\n    \n    //supplier => amount\n    mapping (uint => uint) public supplierAmount;\n\n    // o id, nao tem como especializar dentro do BNDES. Diferena no front-end\n    uint public responsibleForSettlement;\n    uint public responsibleForDisbursement;\n\n    /*\n    TODO: avaliar o que precisaria ir para o framework de mudanca. Atualizaao do registry e responsaveis\n    precisaria passar por uma mudanca? Para formalismo?\n    Nesse caso, setResposible apenas pelo framework?\n\n    Atualizacao dos saldos precisaria para evitar migracao de dados em caso de regras e para formalismo\n    \n    Avaliar se incluiremos regras de tratamento de erros aqui ou pelo framework de governanca\n\n    */\n\n    //ATENCAO: troquei cnpj por id no argumento do evento e tirei arg de contrato no resgate - impacto no BNDESTransparente\n    event Disbursement  (uint idClient, uint amount, uint idFinancialSupportAgreement);\n    event TokenTransfer (uint fromCnpj, uint fromIdFinancialSupportAgreement, uint toCnpj, uint amount);\n    event RedemptionRequested (uint idClaimer, uint amount);\n    event RedemptionSettlement(string redemptionTransactionHash, string  receiptHash);\n\n    event ManualInterventionClient_MintAndBurn(uint idClient, uint idFinancialSupportAgreement, uint256 amount, string description, uint8 eventType);\n\n\n    constructor (address newRegistryAddr, uint8 _decimals, uint responsibleForDisbursementArg, uint responsibleForSettlementArg)\n    public {\n        registry = RBBRegistry(newRegistryAddr);\n        decimals = _decimals;\n//TODO: descomentar (precisa validar usuario no deploy)\n//        setResponsibleForDisbursement(responsibleForDisbursementArg);\n //       setResponsibleForSettlement(responsibleForSettlementArg);\n    }\n\n    function makeDisbursement(uint clientId, uint idFinancialSupportAgreement, uint amount)\n        public onlyResponsibleForDisbursement {\n\n        require(registry.isValidatedId(clientId), \"Cliente precisa estar com conta blockchain validada\");\n\n        //incluir regras especificas de validacao de cliente e do contrato aqui\n        //****** */\n\n        //altera valores de saldo\n        clientIdFCAmount[clientId][idFinancialSupportAgreement] =\n            clientIdFCAmount[clientId][idFinancialSupportAgreement].add(amount);\n\n        emit Disbursement (clientId, amount, idFinancialSupportAgreement);\n\n    }\n\n    function paySupplier (uint idFinancialSupportAgreement, uint amount, uint supplierId) public {\n        \n        uint clientId = registry.getId(msg.sender);\n        require(registry.isValidatedId(clientId), \"Cliente precisa estar com conta blockchain validada\");\n        require(registry.isValidatedId(supplierId), \"Fornecedor precisa estar conta blockchain validada\");\n        require(clientId != supplierId,\n            \"Um CNPJ no pode transferir token para si, ainda que em papis distintos (Cliente/Fornecedor)\");\n\n        //incluir regras especificas de pagamento aqui\n        //****** */\n\n        //altera valores de saldo\n        clientIdFCAmount[clientId][idFinancialSupportAgreement] = \n            clientIdFCAmount[clientId][idFinancialSupportAgreement].sub(amount, \"Saldo do cliente no  suficiente\");\n        supplierAmount[supplierId] = supplierAmount[supplierId].add(amount);\n\n        emit TokenTransfer (clientId, idFinancialSupportAgreement, supplierId, amount);\n    }\n\n    function redeem(uint amount) public {\n        \n        uint supplierId = registry.getId(msg.sender);\n        require(registry.isValidatedId(supplierId), \"Fornecedor precisa estar conta blockchain validada\");\n\n\n        //incluir regras especificas de resgate aqui\n        //****** */\n        \n        //altera valores de saldo\n        supplierAmount[supplierId] = supplierAmount[supplierId].sub(amount, \"saldo no  suficiente\");\n\n        //TODO: chama metodo para pagamento FIAT (mock?)\n        //****** */\n\n        emit RedemptionRequested (supplierId, amount);\n\n    }\n\n   /**\n    * Using this function, the Responsible for Settlement indicates that he has made the FIAT money transfer.\n    * @param redemptionTransactionHash hash of the redeem transaction in which the FIAT money settlement occurred.\n    * @param receiptHash hash that proof the FIAT money transfer\n    */\n    function notifyRedemptionSettlement(string memory redemptionTransactionHash, string memory receiptHash)\n        public whenNotPaused onlyResponsibleForSettlement {\n\n        require (RBBLib.isValidHash(receiptHash), \"O hash do recibo  invlido\");\n        emit RedemptionSettlement(redemptionTransactionHash, receiptHash);\n    }\n\n    //These methods may be necessary to solve incidents.\n    function mintClient(uint clientId, uint idFinancialSupportAgreement,\n        uint amount, string memory description) public onlyOwner {\n\n        require(registry.isValidatedId(clientId), \"Cliente precisa estar com conta blockchain validada\");\n        clientIdFCAmount[clientId][idFinancialSupportAgreement] = \n            clientIdFCAmount[clientId][idFinancialSupportAgreement].add(amount);\n        emit ManualInterventionClient_MintAndBurn(clientId, idFinancialSupportAgreement, amount, description,1);\n    }\n\n    //These methods may be necessary to solve incidents.\n    function burnClient(uint clientId, uint idFinancialSupportAgreement,\n         uint amount, string memory description) public onlyOwner {\n        \n        require(registry.isValidatedId(clientId), \"Cliente precisa estar com conta blockchain validada\");\n        clientIdFCAmount[clientId][idFinancialSupportAgreement] = \n            clientIdFCAmount[clientId][idFinancialSupportAgreement].sub(amount, \"ERC20: burn amount exceeds balance\");\n\n        emit ManualInterventionClient_MintAndBurn(clientId, idFinancialSupportAgreement, amount, description,2);\n    }\n\n    //TODO: mint e burn para supplier\n\n\n    function setResponsibleForDisbursement(uint idResponsible) onlyOwner public {\n        require (registry.isValidatedId(idResponsible), \"Id do Responsible for Disbursement no est validado\");\n        responsibleForDisbursement = idResponsible;\n    }\n\n    function setResponsibleForSettlement(uint idResponsible) onlyOwner public {\n        require (registry.isValidatedId(idResponsible), \"Id do Responsible for Settlement no est validado\");\n        responsibleForSettlement = idResponsible;\n    }\n\n    function isResponsibleForDisbursement(address addr) public view returns (bool) {\n        return (registry.getId(addr) == responsibleForDisbursement);\n    }\n\n    function isResponsibleForSettlement(address addr) public view returns (bool) {\n        return (registry.getId(addr) == responsibleForSettlement);\n    }\n\n    modifier onlyResponsibleForDisbursement() {\n        require(isResponsibleForDisbursement(msg.sender), \"Apenas o responsvel pela liberao pode executar essa operao\");\n        _;\n    }\n\n    modifier onlyResponsibleForSettlement() {\n        require(isResponsibleForSettlement(msg.sender), \"Apenas o responsvel pela liquidao pode executar essa operao\");\n        _;\n    }\n\n    function getDecimals() public view returns (uint8) {\n        return decimals;\n    }\n\n}",
  "sourcePath": "/Users/suzana.moreno/workspace/rbb-token/Back-Blockchain/contracts/FABndesToken.sol",
  "compiler": {
    "name": "solc",
    "version": "0.5.16+commit.9c3226ce.Emscripten.clang"
  },
  "schemaVersion": "3.0.23",
  "updatedAt": "2020-07-31T21:41:59.225Z",
  "networkType": "ethereum",
  "devdoc": {
    "methods": {
      "isOwner()": {
        "details": "Returns true if the caller is the current owner."
      },
      "notifyRedemptionSettlement(string,string)": {
        "params": {
          "receiptHash": "hash that proof the FIAT money transfer",
          "redemptionTransactionHash": "hash of the redeem transaction in which the FIAT money settlement occurred."
        }
      },
      "owner()": {
        "details": "Returns the address of the current owner."
      },
      "pause()": {
        "details": "Called by a pauser to pause, triggers stopped state."
      },
      "paused()": {
        "details": "Returns true if the contract is paused, and false otherwise."
      },
      "renounceOwnership()": {
        "details": "Leaves the contract without owner. It will not be possible to call `onlyOwner` functions anymore. Can only be called by the current owner.     * NOTE: Renouncing ownership will leave the contract without an owner, thereby removing any functionality that is only available to the owner."
      },
      "transferOwnership(address)": {
        "details": "Transfers ownership of the contract to a new account (`newOwner`). Can only be called by the current owner."
      },
      "unpause()": {
        "details": "Called by a pauser to unpause, returns to normal state."
      }
    }
  },
  "userdoc": {
    "methods": {
      "notifyRedemptionSettlement(string,string)": {
        "notice": "Using this function, the Responsible for Settlement indicates that he has made the FIAT money transfer."
      }
    }
  }
}