{
  "contractName": "FABndesToken",
  "abi": [
    {
      "inputs": [
        {
          "internalType": "uint256",
          "name": "fee",
          "type": "uint256"
        }
      ],
      "stateMutability": "nonpayable",
      "type": "constructor"
    },
    {
      "anonymous": false,
      "inputs": [
        {
          "indexed": false,
          "internalType": "uint256",
          "name": "toCnpj",
          "type": "uint256"
        },
        {
          "indexed": false,
          "internalType": "uint256",
          "name": "amount",
          "type": "uint256"
        }
      ],
      "name": "FA_BNDES_TokenTransfer",
      "type": "event"
    },
    {
      "anonymous": false,
      "inputs": [
        {
          "indexed": false,
          "internalType": "uint256",
          "name": "id",
          "type": "uint256"
        }
      ],
      "name": "FA_ClientAdded",
      "type": "event"
    },
    {
      "anonymous": false,
      "inputs": [
        {
          "indexed": false,
          "internalType": "uint256",
          "name": "idClient",
          "type": "uint256"
        },
        {
          "indexed": false,
          "internalType": "string",
          "name": "idFinancialSupportAgreement",
          "type": "string"
        },
        {
          "indexed": false,
          "internalType": "uint256",
          "name": "amount",
          "type": "uint256"
        }
      ],
      "name": "FA_Disbursement",
      "type": "event"
    },
    {
      "anonymous": false,
      "inputs": [
        {
          "indexed": false,
          "internalType": "uint256",
          "name": "idDonor",
          "type": "uint256"
        },
        {
          "indexed": false,
          "internalType": "uint256",
          "name": "amount",
          "type": "uint256"
        }
      ],
      "name": "FA_DonationBooked",
      "type": "event"
    },
    {
      "anonymous": false,
      "inputs": [
        {
          "indexed": false,
          "internalType": "string",
          "name": "idDonor",
          "type": "string"
        },
        {
          "indexed": false,
          "internalType": "uint256",
          "name": "amount",
          "type": "uint256"
        },
        {
          "indexed": false,
          "internalType": "string",
          "name": "receiptHash",
          "type": "string"
        }
      ],
      "name": "FA_DonationConfirmed",
      "type": "event"
    },
    {
      "anonymous": false,
      "inputs": [
        {
          "indexed": false,
          "internalType": "uint256",
          "name": "id",
          "type": "uint256"
        }
      ],
      "name": "FA_DonorAdded",
      "type": "event"
    },
    {
      "anonymous": false,
      "inputs": [
        {
          "indexed": false,
          "internalType": "uint256",
          "name": "amount",
          "type": "uint256"
        }
      ],
      "name": "FA_InitialAllocation_Disbursements",
      "type": "event"
    },
    {
      "anonymous": false,
      "inputs": [
        {
          "indexed": false,
          "internalType": "uint256",
          "name": "amount",
          "type": "uint256"
        }
      ],
      "name": "FA_InitialAllocation_Fee",
      "type": "event"
    },
    {
      "anonymous": false,
      "inputs": [
        {
          "indexed": false,
          "internalType": "uint256",
          "name": "percent",
          "type": "uint256"
        },
        {
          "indexed": false,
          "internalType": "string",
          "name": "description",
          "type": "string"
        }
      ],
      "name": "FA_ManualIntervention_Fee",
      "type": "event"
    },
    {
      "anonymous": false,
      "inputs": [
        {
          "indexed": false,
          "internalType": "address",
          "name": "account",
          "type": "address"
        },
        {
          "indexed": false,
          "internalType": "uint8",
          "name": "eventType",
          "type": "uint8"
        }
      ],
      "name": "FA_ManualIntervention_RoleOrAddress",
      "type": "event"
    },
    {
      "anonymous": false,
      "inputs": [
        {
          "indexed": false,
          "internalType": "uint256",
          "name": "fromId",
          "type": "uint256"
        },
        {
          "indexed": false,
          "internalType": "bytes32",
          "name": "fromHash",
          "type": "bytes32"
        },
        {
          "indexed": false,
          "internalType": "uint256",
          "name": "toId",
          "type": "uint256"
        },
        {
          "indexed": false,
          "internalType": "bytes32",
          "name": "toHash",
          "type": "bytes32"
        },
        {
          "indexed": false,
          "internalType": "uint256",
          "name": "amount",
          "type": "uint256"
        }
      ],
      "name": "FA_ManualIntervention_Transfer",
      "type": "event"
    },
    {
      "anonymous": false,
      "inputs": [
        {
          "indexed": false,
          "internalType": "uint256",
          "name": "fromId",
          "type": "uint256"
        },
        {
          "indexed": false,
          "internalType": "bytes32",
          "name": "fromHash",
          "type": "bytes32"
        },
        {
          "indexed": false,
          "internalType": "uint256",
          "name": "toId",
          "type": "uint256"
        },
        {
          "indexed": false,
          "internalType": "bytes32",
          "name": "toHash",
          "type": "bytes32"
        },
        {
          "indexed": false,
          "internalType": "uint256",
          "name": "amount",
          "type": "uint256"
        }
      ],
      "name": "FA_ManualIntervention_TransferAllowed",
      "type": "event"
    },
    {
      "anonymous": false,
      "inputs": [
        {
          "indexed": false,
          "internalType": "uint256",
          "name": "idClaimer",
          "type": "uint256"
        },
        {
          "indexed": false,
          "internalType": "uint256",
          "name": "amount",
          "type": "uint256"
        }
      ],
      "name": "FA_RedemptionRequested",
      "type": "event"
    },
    {
      "anonymous": false,
      "inputs": [
        {
          "indexed": false,
          "internalType": "string",
          "name": "redemptionTransactionHash",
          "type": "string"
        },
        {
          "indexed": false,
          "internalType": "string",
          "name": "receiptHash",
          "type": "string"
        }
      ],
      "name": "FA_RedemptionSettlement",
      "type": "event"
    },
    {
      "anonymous": false,
      "inputs": [
        {
          "indexed": false,
          "internalType": "uint256",
          "name": "registeredBy",
          "type": "uint256"
        },
        {
          "indexed": false,
          "internalType": "uint256",
          "name": "id",
          "type": "uint256"
        }
      ],
      "name": "FA_SupplierAdded",
      "type": "event"
    },
    {
      "anonymous": false,
      "inputs": [
        {
          "indexed": false,
          "internalType": "uint256",
          "name": "fromCnpj",
          "type": "uint256"
        },
        {
          "indexed": false,
          "internalType": "string",
          "name": "fromIdFinancialSupportAgreement",
          "type": "string"
        },
        {
          "indexed": false,
          "internalType": "uint256",
          "name": "toCnpj",
          "type": "uint256"
        },
        {
          "indexed": false,
          "internalType": "uint256",
          "name": "amount",
          "type": "uint256"
        }
      ],
      "name": "FA_TokenTransfer",
      "type": "event"
    },
    {
      "anonymous": false,
      "inputs": [
        {
          "indexed": true,
          "internalType": "address",
          "name": "previousOwner",
          "type": "address"
        },
        {
          "indexed": true,
          "internalType": "address",
          "name": "newOwner",
          "type": "address"
        }
      ],
      "name": "OwnershipTransferred",
      "type": "event"
    },
    {
      "anonymous": false,
      "inputs": [
        {
          "indexed": false,
          "internalType": "address",
          "name": "account",
          "type": "address"
        }
      ],
      "name": "Paused",
      "type": "event"
    },
    {
      "anonymous": false,
      "inputs": [
        {
          "indexed": true,
          "internalType": "address",
          "name": "account",
          "type": "address"
        }
      ],
      "name": "PauserAdded",
      "type": "event"
    },
    {
      "anonymous": false,
      "inputs": [
        {
          "indexed": true,
          "internalType": "address",
          "name": "account",
          "type": "address"
        }
      ],
      "name": "PauserRemoved",
      "type": "event"
    },
    {
      "anonymous": false,
      "inputs": [
        {
          "indexed": false,
          "internalType": "address",
          "name": "account",
          "type": "address"
        }
      ],
      "name": "Unpaused",
      "type": "event"
    },
    {
      "inputs": [],
      "name": "BNDES_PAY_SUPPLIER_VERIFICATION",
      "outputs": [
        {
          "internalType": "string",
          "name": "",
          "type": "string"
        }
      ],
      "stateMutability": "view",
      "type": "function"
    },
    {
      "inputs": [],
      "name": "CLIENT_PAY_SUPPLIER_VERIFICATION",
      "outputs": [
        {
          "internalType": "string",
          "name": "",
          "type": "string"
        }
      ],
      "stateMutability": "view",
      "type": "function"
    },
    {
      "inputs": [],
      "name": "DISBURSEMENT_VERIFICATION",
      "outputs": [
        {
          "internalType": "string",
          "name": "",
          "type": "string"
        }
      ],
      "stateMutability": "view",
      "type": "function"
    },
    {
      "inputs": [],
      "name": "INITIAL_ALLOCATION",
      "outputs": [
        {
          "internalType": "string",
          "name": "",
          "type": "string"
        }
      ],
      "stateMutability": "view",
      "type": "function"
    },
    {
      "inputs": [],
      "name": "MANUAL_INTERVENTION",
      "outputs": [
        {
          "internalType": "string",
          "name": "",
          "type": "string"
        }
      ],
      "stateMutability": "view",
      "type": "function"
    },
    {
      "inputs": [],
      "name": "RESERVED_BNDES_ADMIN_FEE_TO_HASH",
      "outputs": [
        {
          "internalType": "uint8",
          "name": "",
          "type": "uint8"
        }
      ],
      "stateMutability": "view",
      "type": "function"
    },
    {
      "inputs": [],
      "name": "RESERVED_MINTED_ACCOUNT",
      "outputs": [
        {
          "internalType": "uint8",
          "name": "",
          "type": "uint8"
        }
      ],
      "stateMutability": "view",
      "type": "function"
    },
    {
      "inputs": [],
      "name": "RESERVED_NO_ADDITIONAL_FIELDS_TO_HASH",
      "outputs": [
        {
          "internalType": "uint8",
          "name": "",
          "type": "uint8"
        }
      ],
      "stateMutability": "view",
      "type": "function"
    },
    {
      "inputs": [],
      "name": "RESERVED_USUAL_DISBURSEMENTS_ACCOUNT",
      "outputs": [
        {
          "internalType": "uint8",
          "name": "",
          "type": "uint8"
        }
      ],
      "stateMutability": "view",
      "type": "function"
    },
    {
      "inputs": [
        {
          "internalType": "address",
          "name": "account",
          "type": "address"
        }
      ],
      "name": "addPauser",
      "outputs": [],
      "stateMutability": "nonpayable",
      "type": "function"
    },
    {
      "inputs": [],
      "name": "bndesFee",
      "outputs": [
        {
          "internalType": "uint256",
          "name": "",
          "type": "uint256"
        }
      ],
      "stateMutability": "view",
      "type": "function"
    },
    {
      "inputs": [
        {
          "internalType": "uint256",
          "name": "",
          "type": "uint256"
        },
        {
          "internalType": "string",
          "name": "",
          "type": "string"
        }
      ],
      "name": "clients",
      "outputs": [
        {
          "internalType": "bool",
          "name": "",
          "type": "bool"
        }
      ],
      "stateMutability": "view",
      "type": "function"
    },
    {
      "inputs": [
        {
          "internalType": "uint256",
          "name": "",
          "type": "uint256"
        }
      ],
      "name": "donors",
      "outputs": [
        {
          "internalType": "bool",
          "name": "",
          "type": "bool"
        }
      ],
      "stateMutability": "view",
      "type": "function"
    },
    {
      "inputs": [
        {
          "internalType": "uint256",
          "name": "",
          "type": "uint256"
        }
      ],
      "name": "hashManualInterventionOperationApprovedByOwner",
      "outputs": [
        {
          "internalType": "bytes32",
          "name": "",
          "type": "bytes32"
        }
      ],
      "stateMutability": "view",
      "type": "function"
    },
    {
      "inputs": [],
      "name": "isOwner",
      "outputs": [
        {
          "internalType": "bool",
          "name": "",
          "type": "bool"
        }
      ],
      "stateMutability": "view",
      "type": "function"
    },
    {
      "inputs": [
        {
          "internalType": "address",
          "name": "account",
          "type": "address"
        }
      ],
      "name": "isPauser",
      "outputs": [
        {
          "internalType": "bool",
          "name": "",
          "type": "bool"
        }
      ],
      "stateMutability": "view",
      "type": "function"
    },
    {
      "inputs": [],
      "name": "owner",
      "outputs": [
        {
          "internalType": "address",
          "name": "",
          "type": "address"
        }
      ],
      "stateMutability": "view",
      "type": "function"
    },
    {
      "inputs": [],
      "name": "pause",
      "outputs": [],
      "stateMutability": "nonpayable",
      "type": "function"
    },
    {
      "inputs": [],
      "name": "paused",
      "outputs": [
        {
          "internalType": "bool",
          "name": "",
          "type": "bool"
        }
      ],
      "stateMutability": "view",
      "type": "function"
    },
    {
      "inputs": [],
      "name": "rbbToken",
      "outputs": [
        {
          "internalType": "contract RBBToken",
          "name": "",
          "type": "address"
        }
      ],
      "stateMutability": "view",
      "type": "function"
    },
    {
      "inputs": [],
      "name": "registry",
      "outputs": [
        {
          "internalType": "contract RBBRegistry",
          "name": "",
          "type": "address"
        }
      ],
      "stateMutability": "view",
      "type": "function"
    },
    {
      "inputs": [],
      "name": "renounceOwnership",
      "outputs": [],
      "stateMutability": "nonpayable",
      "type": "function"
    },
    {
      "inputs": [],
      "name": "renouncePauser",
      "outputs": [],
      "stateMutability": "nonpayable",
      "type": "function"
    },
    {
      "inputs": [],
      "name": "responsibleForDisbursement",
      "outputs": [
        {
          "internalType": "address",
          "name": "",
          "type": "address"
        }
      ],
      "stateMutability": "view",
      "type": "function"
    },
    {
      "inputs": [],
      "name": "responsibleForDonationConfirmation",
      "outputs": [
        {
          "internalType": "address",
          "name": "",
          "type": "address"
        }
      ],
      "stateMutability": "view",
      "type": "function"
    },
    {
      "inputs": [],
      "name": "responsibleForInitialAllocation",
      "outputs": [
        {
          "internalType": "address",
          "name": "",
          "type": "address"
        }
      ],
      "stateMutability": "view",
      "type": "function"
    },
    {
      "inputs": [],
      "name": "responsibleForSettlement",
      "outputs": [
        {
          "internalType": "address",
          "name": "",
          "type": "address"
        }
      ],
      "stateMutability": "view",
      "type": "function"
    },
    {
      "inputs": [],
      "name": "resposibleForExtraordinaryTransfers",
      "outputs": [
        {
          "internalType": "address",
          "name": "",
          "type": "address"
        }
      ],
      "stateMutability": "view",
      "type": "function"
    },
    {
      "inputs": [
        {
          "internalType": "address",
          "name": "newRegistryAddr",
          "type": "address"
        },
        {
          "internalType": "address",
          "name": "newrbbTokenAddr",
          "type": "address"
        }
      ],
      "name": "setInitializationDataDuringRegistration",
      "outputs": [],
      "stateMutability": "nonpayable",
      "type": "function"
    },
    {
      "inputs": [
        {
          "internalType": "uint256",
          "name": "",
          "type": "uint256"
        }
      ],
      "name": "suppliers",
      "outputs": [
        {
          "internalType": "bool",
          "name": "",
          "type": "bool"
        }
      ],
      "stateMutability": "view",
      "type": "function"
    },
    {
      "inputs": [
        {
          "internalType": "address",
          "name": "newOwner",
          "type": "address"
        }
      ],
      "name": "transferOwnership",
      "outputs": [],
      "stateMutability": "nonpayable",
      "type": "function"
    },
    {
      "inputs": [],
      "name": "unpause",
      "outputs": [],
      "stateMutability": "nonpayable",
      "type": "function"
    },
    {
      "inputs": [
        {
          "internalType": "uint256",
          "name": "newBndesFee",
          "type": "uint256"
        },
        {
          "internalType": "string",
          "name": "description",
          "type": "string"
        }
      ],
      "name": "setBNDESFee",
      "outputs": [],
      "stateMutability": "nonpayable",
      "type": "function"
    },
    {
      "inputs": [
        {
          "internalType": "uint256",
          "name": "idDonor",
          "type": "uint256"
        }
      ],
      "name": "addDonor",
      "outputs": [],
      "stateMutability": "nonpayable",
      "type": "function"
    },
    {
      "inputs": [
        {
          "internalType": "uint256",
          "name": "amount",
          "type": "uint256"
        }
      ],
      "name": "bookDonation",
      "outputs": [],
      "stateMutability": "nonpayable",
      "type": "function"
    },
    {
      "inputs": [
        {
          "internalType": "bytes32",
          "name": "specificHash",
          "type": "bytes32"
        },
        {
          "internalType": "uint256",
          "name": "amount",
          "type": "uint256"
        },
        {
          "internalType": "string[]",
          "name": "data",
          "type": "string[]"
        },
        {
          "internalType": "string",
          "name": "docHash",
          "type": "string"
        }
      ],
      "name": "verifyAndActForMint",
      "outputs": [],
      "stateMutability": "nonpayable",
      "type": "function"
    },
    {
      "inputs": [
        {
          "internalType": "bytes32",
          "name": "specificHash",
          "type": "bytes32"
        }
      ],
      "name": "getHashToMintedAccount",
      "outputs": [
        {
          "internalType": "bytes32",
          "name": "",
          "type": "bytes32"
        }
      ],
      "stateMutability": "nonpayable",
      "type": "function"
    },
    {
      "inputs": [
        {
          "internalType": "string",
          "name": "idFinancialSupportAgreement",
          "type": "string"
        }
      ],
      "name": "getDisbusementData",
      "outputs": [
        {
          "internalType": "bytes32",
          "name": "",
          "type": "bytes32"
        },
        {
          "internalType": "bytes32",
          "name": "",
          "type": "bytes32"
        },
        {
          "internalType": "string[]",
          "name": "",
          "type": "string[]"
        }
      ],
      "stateMutability": "view",
      "type": "function"
    },
    {
      "inputs": [
        {
          "internalType": "string",
          "name": "idFinancialSupportAgreement",
          "type": "string"
        }
      ],
      "name": "getPaySupplierData",
      "outputs": [
        {
          "internalType": "bytes32",
          "name": "",
          "type": "bytes32"
        },
        {
          "internalType": "bytes32",
          "name": "",
          "type": "bytes32"
        },
        {
          "internalType": "string[]",
          "name": "",
          "type": "string[]"
        }
      ],
      "stateMutability": "view",
      "type": "function"
    },
    {
      "inputs": [],
      "name": "getRedeemData",
      "outputs": [
        {
          "internalType": "bytes32",
          "name": "",
          "type": "bytes32"
        },
        {
          "internalType": "string[]",
          "name": "",
          "type": "string[]"
        }
      ],
      "stateMutability": "nonpayable",
      "type": "function"
    },
    {
      "inputs": [
        {
          "internalType": "uint256",
          "name": "fromId",
          "type": "uint256"
        },
        {
          "internalType": "bytes32",
          "name": "fromHash",
          "type": "bytes32"
        },
        {
          "internalType": "uint256",
          "name": "toId",
          "type": "uint256"
        },
        {
          "internalType": "bytes32",
          "name": "toHash",
          "type": "bytes32"
        },
        {
          "internalType": "uint256",
          "name": "amount",
          "type": "uint256"
        },
        {
          "internalType": "string[]",
          "name": "data",
          "type": "string[]"
        }
      ],
      "name": "verifyAndActForTransfer",
      "outputs": [],
      "stateMutability": "nonpayable",
      "type": "function"
    },
    {
      "inputs": [
        {
          "internalType": "uint256",
          "name": "id",
          "type": "uint256"
        }
      ],
      "name": "addSupplier",
      "outputs": [],
      "stateMutability": "nonpayable",
      "type": "function"
    },
    {
      "inputs": [
        {
          "internalType": "uint256",
          "name": "fromId",
          "type": "uint256"
        },
        {
          "internalType": "bytes32",
          "name": "fromHash",
          "type": "bytes32"
        },
        {
          "internalType": "uint256",
          "name": "amount",
          "type": "uint256"
        },
        {
          "internalType": "string[]",
          "name": "data",
          "type": "string[]"
        }
      ],
      "name": "verifyAndActForRedeem",
      "outputs": [],
      "stateMutability": "nonpayable",
      "type": "function"
    },
    {
      "inputs": [
        {
          "internalType": "string",
          "name": "redemptionTransactionHash",
          "type": "string"
        },
        {
          "internalType": "string",
          "name": "receiptHash",
          "type": "string"
        },
        {
          "internalType": "string[]",
          "name": "data",
          "type": "string[]"
        }
      ],
      "name": "verifyAndActForRedemptionSettlement",
      "outputs": [],
      "stateMutability": "nonpayable",
      "type": "function"
    },
    {
      "inputs": [
        {
          "internalType": "string",
          "name": "info",
          "type": "string"
        }
      ],
      "name": "getCalculatedHash",
      "outputs": [
        {
          "internalType": "bytes32",
          "name": "",
          "type": "bytes32"
        }
      ],
      "stateMutability": "nonpayable",
      "type": "function"
    },
    {
      "inputs": [
        {
          "internalType": "uint256",
          "name": "fromId",
          "type": "uint256"
        },
        {
          "internalType": "bytes32",
          "name": "fromHash",
          "type": "bytes32"
        },
        {
          "internalType": "uint256",
          "name": "toId",
          "type": "uint256"
        },
        {
          "internalType": "bytes32",
          "name": "toHash",
          "type": "bytes32"
        },
        {
          "internalType": "uint256",
          "name": "amount",
          "type": "uint256"
        }
      ],
      "name": "authorizeExtraordinaryTransfer",
      "outputs": [],
      "stateMutability": "nonpayable",
      "type": "function"
    },
    {
      "inputs": [
        {
          "internalType": "address",
          "name": "rs",
          "type": "address"
        }
      ],
      "name": "setResponsibleForDonationConfirmation",
      "outputs": [],
      "stateMutability": "nonpayable",
      "type": "function"
    },
    {
      "inputs": [
        {
          "internalType": "address",
          "name": "rs",
          "type": "address"
        }
      ],
      "name": "setResponsibleForInitialAllocation",
      "outputs": [],
      "stateMutability": "nonpayable",
      "type": "function"
    },
    {
      "inputs": [
        {
          "internalType": "address",
          "name": "rs",
          "type": "address"
        }
      ],
      "name": "setResponsibleForDisbursement",
      "outputs": [],
      "stateMutability": "nonpayable",
      "type": "function"
    },
    {
      "inputs": [
        {
          "internalType": "address",
          "name": "rs",
          "type": "address"
        }
      ],
      "name": "setResposibleForExtraordinaryTransfers",
      "outputs": [],
      "stateMutability": "nonpayable",
      "type": "function"
    },
    {
      "inputs": [
        {
          "internalType": "address",
          "name": "rs",
          "type": "address"
        }
      ],
      "name": "setResponsibleForSettlement",
      "outputs": [],
      "stateMutability": "nonpayable",
      "type": "function"
    }
  ],
  "bytecode": "0x60806040526040518060400160405280601281526020017f494e495449414c5f414c4c4f434154494f4e0000000000000000000000000000815250600990805190602001906200005192919062000698565b506040518060400160405280601981526020017f44495342555253454d454e545f564552494649434154494f4e00000000000000815250600a90805190602001906200009f92919062000698565b506040518060400160405280602081526020017f434c49454e545f5041595f535550504c4945525f564552494649434154494f4e815250600b9080519060200190620000ed92919062000698565b506040518060400160405280601f81526020017f424e4445535f5041595f535550504c4945525f564552494649434154494f4e00815250600c90805190602001906200013b92919062000698565b506040518060400160405280601381526020017f4d414e55414c5f494e54455256454e54494f4e00000000000000000000000000815250600d90805190602001906200018992919062000698565b506000601260146101000a81548160ff021916908360ff1602179055506001601260156101000a81548160ff021916908360ff1602179055506002601260166101000a81548160ff021916908360ff1602179055506003601260176101000a81548160ff021916908360ff1602179055503480156200020757600080fd5b506040516200749c3803806200749c83398181016040528101906200022d919062000755565b60006200023f620004b160201b60201c565b9050806000806101000a81548173ffffffffffffffffffffffffffffffffffffffff021916908373ffffffffffffffffffffffffffffffffffffffff1602179055508073ffffffffffffffffffffffffffffffffffffffff16600073ffffffffffffffffffffffffffffffffffffffff167f8be0079c531659141344cd1fd0a4f28419497f9722a3daafe3b4186f6b6457e060405160405180910390a350620002fd620002f1620004b160201b60201c565b620004b960201b60201c565b6000600260006101000a81548160ff021916908315150217905550606481106200035e576040517f08c379a000000000000000000000000000000000000000000000000000000000815260040162000355906200086d565b60405180910390fd5b33600e60006101000a81548173ffffffffffffffffffffffffffffffffffffffff021916908373ffffffffffffffffffffffffffffffffffffffff16021790555033600f60006101000a81548173ffffffffffffffffffffffffffffffffffffffff021916908373ffffffffffffffffffffffffffffffffffffffff16021790555033601060006101000a81548173ffffffffffffffffffffffffffffffffffffffff021916908373ffffffffffffffffffffffffffffffffffffffff16021790555033601160006101000a81548173ffffffffffffffffffffffffffffffffffffffff021916908373ffffffffffffffffffffffffffffffffffffffff16021790555033601260006101000a81548173ffffffffffffffffffffffffffffffffffffffff021916908373ffffffffffffffffffffffffffffffffffffffff160217905550806008819055505062000908565b600033905090565b620004d48160016200051a60201b620035bf1790919060201c565b8073ffffffffffffffffffffffffffffffffffffffff167f6719d08c1888103bea251a4ed56406bd0c3e69723c8a1686e017e7bbe159b6f860405160405180910390a250565b6200052c8282620005cd60201b60201c565b156200056f576040517f08c379a000000000000000000000000000000000000000000000000000000000815260040162000566906200088f565b60405180910390fd5b60018260000160008373ffffffffffffffffffffffffffffffffffffffff1673ffffffffffffffffffffffffffffffffffffffff16815260200190815260200160002060006101000a81548160ff0219169083151502179055505050565b60008073ffffffffffffffffffffffffffffffffffffffff168273ffffffffffffffffffffffffffffffffffffffff16141562000641576040517f08c379a00000000000000000000000000000000000000000000000000000000081526004016200063890620008b1565b60405180910390fd5b8260000160008373ffffffffffffffffffffffffffffffffffffffff1673ffffffffffffffffffffffffffffffffffffffff16815260200190815260200160002060009054906101000a900460ff16905092915050565b828054600181600116156101000203166002900490600052602060002090601f016020900481019282601f10620006db57805160ff19168380011785556200070c565b828001600101855582156200070c579182015b828111156200070b578251825591602001919060010190620006ee565b5b5090506200071b91906200071f565b5090565b5b808211156200073a57600081600090555060010162000720565b5090565b6000815190506200074f81620008ee565b92915050565b6000602082840312156200076857600080fd5b600062000778848285016200073e565b91505092915050565b600062000790601b83620008d3565b91507f56616c6f7220646520466565206d61696f7220717565203130302500000000006000830152602082019050919050565b6000620007d2601f83620008d3565b91507f526f6c65733a206163636f756e7420616c72656164792068617320726f6c65006000830152602082019050919050565b600062000814602283620008d3565b91507f526f6c65733a206163636f756e7420697320746865207a65726f20616464726560008301527f73730000000000000000000000000000000000000000000000000000000000006020830152604082019050919050565b60006020820190508181036000830152620008888162000781565b9050919050565b60006020820190508181036000830152620008aa81620007c3565b9050919050565b60006020820190508181036000830152620008cc8162000805565b9050919050565b600082825260208201905092915050565b6000819050919050565b620008f981620008e4565b81146200090557600080fd5b50565b616b8480620009186000396000f3fe608060405234801561001057600080fd5b50600436106102f15760003560e01c806388a447ca1161019d578063c8444880116100e9578063daeb1cc9116100a2578063f2fde38b1161007c578063f2fde38b146108b1578063fb92f74b146108cd578063fc4b505d146108e9578063ffd4d5a614610907576102f1565b8063daeb1cc914610831578063e4c7426f14610861578063ee33b0bc1461087f576102f1565b8063c844488014610737578063c92f4eb014610769578063ca196e3c14610785578063cc70091a146107a1578063cd541b7a146107d1578063cea2312114610801576102f1565b806390e42c7e11610156578063ad641da611610130578063ad641da6146106c5578063b7404ff5146106e3578063bc007763146106ff578063c596acc71461071b576102f1565b806390e42c7e1461066f57806396b9adfc1461068b578063a79a8b2d146106a9576102f1565b806388a447ca146105bc5780638cabf128146105d85780638da5cb5b146105f65780638e1b808a146106145780638e669481146106335780638f32d59b14610651576102f1565b80633f4ba83a1161025c5780636ef8d66d116102155780637b103999116101ef5780637b1039991461055c5780637eabe58a1461057a57806382dc1ec4146105965780638456cb59146105b2576102f1565b80636ef8d66d1461052a5780636f30506714610534578063715018a614610552576102f1565b80633f4ba83a1461046857806346fbf68e146104725780634abfa163146104a25780635c975abb146104d257806367da3e85146104f05780636b4dd41f1461050e576102f1565b806324547b8a116102ae57806324547b8a146103ba57806327462769146103d8578063329afd3a146103f45780633879b636146104125780633c01775b1461042e5780633dfdcfab1461044c576102f1565b80630715aa6e146102f657806307728f0f146103145780630a4456091461033257806317251ba91461035057806317fcd0511461036c578063214538001461039c575b600080fd5b6102fe610925565b60405161030b9190616802565b60405180910390f35b61031c610938565b604051610329919061619c565b60405180910390f35b61033a6109d6565b6040516103479190615f88565b60405180910390f35b61036a60048036038101906103659190614b2c565b6109fc565b005b61038660048036038101906103819190614b2c565b610bb9565b60405161039391906160a6565b60405180910390f35b6103a4610bda565b6040516103b19190615f88565b60405180910390f35b6103c2610c00565b6040516103cf9190616802565b60405180910390f35b6103f260048036038101906103ed9190614bf9565b610c13565b005b6103fc610dd8565b6040516104099190615f88565b60405180910390f35b61042c600480360381019061042791906148e1565b610dfe565b005b610436611066565b6040516104439190616802565b60405180910390f35b61046660048036038101906104619190614933565b611079565b005b6104706110ff565b005b61048c600480360381019061048791906148e1565b6111f8565b604051610499919061608b565b60405180910390f35b6104bc60048036038101906104b79190614b2c565b611215565b6040516104c9919061608b565b60405180910390f35b6104da611235565b6040516104e7919061608b565b60405180910390f35b6104f861124c565b604051610505919061619c565b60405180910390f35b610528600480360381019061052391906149c1565b6112ea565b005b61053261149c565b005b61053c6114ae565b6040516105499190616802565b60405180910390f35b61055a6114c1565b005b6105646115c6565b6040516105719190616166565b60405180910390f35b610594600480360381019061058f9190614d11565b6115ec565b005b6105b060048036038101906105ab91906148e1565b6116ba565b005b6105ba611715565b005b6105d660048036038101906105d191906148e1565b61180f565b005b6105e0611a77565b6040516105ed9190615f88565b60405180910390f35b6105fe611a9d565b60405161060b9190615f88565b60405180910390f35b61061c611ac6565b60405161062a9291906160c1565b60405180910390f35b61063b611b61565b604051610648919061619c565b60405180910390f35b610659611bff565b604051610666919061608b565b60405180910390f35b610689600480360381019061068491906148e1565b611c5d565b005b610693611ec5565b6040516106a09190615f88565b60405180910390f35b6106c360048036038101906106be9190614b2c565b611eeb565b005b6106cd61223d565b6040516106da91906166b1565b60405180910390f35b6106fd60048036038101906106f891906148e1565b612243565b005b61071960048036038101906107149190614a95565b6124ab565b005b61073560048036038101906107309190614c70565b6125c9565b005b610751600480360381019061074c9190614a54565b6129db565b604051610760939291906160f1565b60405180910390f35b610783600480360381019061077e9190614b7e565b612b75565b005b61079f600480360381019061079a9190614b2c565b612dae565b005b6107bb60048036038101906107b69190614a54565b612f34565b6040516107c891906160a6565b60405180910390f35b6107eb60048036038101906107e69190614998565b612f64565b6040516107f891906160a6565b60405180910390f35b61081b60048036038101906108169190614b2c565b612fa3565b604051610828919061608b565b60405180910390f35b61084b60048036038101906108469190614d11565b612fc3565b604051610858919061608b565b60405180910390f35b610869613008565b6040516108769190616181565b60405180910390f35b61089960048036038101906108949190614a54565b61302e565b6040516108a8939291906160f1565b60405180910390f35b6108cb60048036038101906108c691906148e1565b6131c8565b005b6108e760048036038101906108e291906148e1565b61321b565b005b6108f1613483565b6040516108fe919061619c565b60405180910390f35b61090f613521565b60405161091c919061619c565b60405180910390f35b601260159054906101000a900460ff1681565b60098054600181600116156101000203166002900480601f0160208091040260200160405190810160405280929190818152602001828054600181600116156101000203166002900480156109ce5780601f106109a3576101008083540402835291602001916109ce565b820191906000526020600020905b8154815290600101906020018083116109b157829003601f168201915b505050505081565b600e60009054906101000a900473ffffffffffffffffffffffffffffffffffffffff1681565b610a04611bff565b610a43576040517f08c379a0000000000000000000000000000000000000000000000000000000008152600401610a3a90616591565b60405180910390fd5b600260019054906101000a900473ffffffffffffffffffffffffffffffffffffffff1673ffffffffffffffffffffffffffffffffffffffff1663613a7896826040518263ffffffff1660e01b8152600401610a9e91906166b1565b60206040518083038186803b158015610ab657600080fd5b505afa158015610aca573d6000803e3d6000fd5b505050506040513d601f19601f82011682018060405250810190610aee919061496f565b610b2d576040517f08c379a0000000000000000000000000000000000000000000000000000000008152600401610b24906164d1565b60405180910390fd5b6004600082815260200190815260200160002060009054906101000a900460ff16610bb65760016004600083815260200190815260200160002060006101000a81548160ff0219169083151502179055507fbf594816977ea5809bf299bfeeb10d2cb41e25a998a19fafe5460164b3cdb08b81604051610bad91906166b1565b60405180910390a15b50565b60078181548110610bc657fe5b906000526020600020016000915090505481565b601260009054906101000a900473ffffffffffffffffffffffffffffffffffffffff1681565b601260169054906101000a900460ff1681565b3373ffffffffffffffffffffffffffffffffffffffff16601160009054906101000a900473ffffffffffffffffffffffffffffffffffffffff1673ffffffffffffffffffffffffffffffffffffffff1614610ca3576040517f08c379a0000000000000000000000000000000000000000000000000000000008152600401610c9a90616411565b60405180910390fd5b610cad8585613667565b610cec576040517f08c379a0000000000000000000000000000000000000000000000000000000008152600401610ce3906164f1565b60405180910390fd5b610cf68383613667565b610d35576040517f08c379a0000000000000000000000000000000000000000000000000000000008152600401610d2c906162f1565b60405180910390fd5b60008585858585604051602001610d50959493929190615f0e565b60405160208183030381529060405280519060200120905060078190806001815401808255809150506001900390600052602060002001600090919091909150557f34506436f045f1caefaf1c6acc514c7cd481a941b5e32bb11e6627f1d4ff487c8686868686604051610dc89594939291906166cc565b60405180910390a1505050505050565b600f60009054906101000a900473ffffffffffffffffffffffffffffffffffffffff1681565b610e06611bff565b610e45576040517f08c379a0000000000000000000000000000000000000000000000000000000008152600401610e3c90616591565b60405180910390fd5b6000600260019054906101000a900473ffffffffffffffffffffffffffffffffffffffff1673ffffffffffffffffffffffffffffffffffffffff166365f68c89836040518263ffffffff1660e01b8152600401610ea29190615f88565b60206040518083038186803b158015610eba57600080fd5b505afa158015610ece573d6000803e3d6000fd5b505050506040513d601f19601f82011682018060405250810190610ef29190614b55565b9050600260019054906101000a900473ffffffffffffffffffffffffffffffffffffffff1673ffffffffffffffffffffffffffffffffffffffff166365f68c89610f3a611a9d565b6040518263ffffffff1660e01b8152600401610f569190615f88565b60206040518083038186803b158015610f6e57600080fd5b505afa158015610f82573d6000803e3d6000fd5b505050506040513d601f19601f82011682018060405250810190610fa69190614b55565b8114610fe7576040517f08c379a0000000000000000000000000000000000000000000000000000000008152600401610fde90616291565b60405180910390fd5b81600f60006101000a81548173ffffffffffffffffffffffffffffffffffffffff021916908373ffffffffffffffffffffffffffffffffffffffff1602179055507f3e3119fbec468368c03e4732985b5a3f373d3a8b8ad5cc0f820357687349b63d82600260405161105a929190615fe7565b60405180910390a15050565b601260149054906101000a900460ff1681565b81600260016101000a81548173ffffffffffffffffffffffffffffffffffffffff021916908373ffffffffffffffffffffffffffffffffffffffff16021790555080600360006101000a81548173ffffffffffffffffffffffffffffffffffffffff021916908373ffffffffffffffffffffffffffffffffffffffff1602179055505050565b61110f61110a613915565b6111f8565b61114e576040517f08c379a000000000000000000000000000000000000000000000000000000000815260040161114590616331565b60405180910390fd5b600260009054906101000a900460ff1661119d576040517f08c379a0000000000000000000000000000000000000000000000000000000008152600401611194906162b1565b60405180910390fd5b6000600260006101000a81548160ff0219169083151502179055507f5db9ee0a495bf2e6ff9c91a7834c1ba4fdd244a5e8aa4e537bd38aeae4b073aa6111e1613915565b6040516111ee9190615fa3565b60405180910390a1565b600061120e82600161391d90919063ffffffff16565b9050919050565b60046020528060005260406000206000915054906101000a900460ff1681565b6000600260009054906101000a900460ff16905090565b600b8054600181600116156101000203166002900480601f0160208091040260200160405190810160405280929190818152602001828054600181600116156101000203166002900480156112e25780601f106112b7576101008083540402835291602001916112e2565b820191906000526020600020905b8154815290600101906020018083116112c557829003601f168201915b505050505081565b600260009054906101000a900460ff161561133a576040517f08c379a000000000000000000000000000000000000000000000000000000000815260040161133190616491565b60405180910390fd5b600360009054906101000a900473ffffffffffffffffffffffffffffffffffffffff1673ffffffffffffffffffffffffffffffffffffffff163373ffffffffffffffffffffffffffffffffffffffff16146113ca576040517f08c379a00000000000000000000000000000000000000000000000000000000081526004016113c190616671565b60405180910390fd5b83601260149054906101000a900460ff166040516020016113eb9190615f6d565b6040516020818303038152906040528051906020012014611441576040517f08c379a000000000000000000000000000000000000000000000000000000000815260040161143890616531565b60405180910390fd5b60608260008151811061145057fe5b602002602001015190507f510b32015cae6bd5a46e63f522b3e72f4899620ab6fb0a038d40f362d6cddfee81858460405161148d939291906161f5565b60405180910390a15050505050565b6114ac6114a7613915565b6139e5565b565b601260179054906101000a900460ff1681565b6114c9611bff565b611508576040517f08c379a00000000000000000000000000000000000000000000000000000000081526004016114ff90616591565b60405180910390fd5b600073ffffffffffffffffffffffffffffffffffffffff1660008054906101000a900473ffffffffffffffffffffffffffffffffffffffff1673ffffffffffffffffffffffffffffffffffffffff167f8be0079c531659141344cd1fd0a4f28419497f9722a3daafe3b4186f6b6457e060405160405180910390a360008060006101000a81548173ffffffffffffffffffffffffffffffffffffffff021916908373ffffffffffffffffffffffffffffffffffffffff160217905550565b600260019054906101000a900473ffffffffffffffffffffffffffffffffffffffff1681565b6115f4611bff565b611633576040517f08c379a000000000000000000000000000000000000000000000000000000000815260040161162a90616591565b60405180910390fd5b60648210611676576040517f08c379a000000000000000000000000000000000000000000000000000000000815260040161166d90616271565b60405180910390fd5b816008819055507fbd7b604f0ee5042786f0c84c21d83c0229994b71f3a01f3a498aba4da09880e582826040516116ae92919061671f565b60405180910390a15050565b6116ca6116c5613915565b6111f8565b611709576040517f08c379a000000000000000000000000000000000000000000000000000000000815260040161170090616331565b60405180910390fd5b61171281613a3f565b50565b611725611720613915565b6111f8565b611764576040517f08c379a000000000000000000000000000000000000000000000000000000000815260040161175b90616331565b60405180910390fd5b600260009054906101000a900460ff16156117b4576040517f08c379a00000000000000000000000000000000000000000000000000000000081526004016117ab90616491565b60405180910390fd5b6001600260006101000a81548160ff0219169083151502179055507f62e78cea01bee320cd4e420270b5ea74000d11b0c9f74754ebdbfc544b05a2586117f8613915565b6040516118059190615fa3565b60405180910390a1565b611817611bff565b611856576040517f08c379a000000000000000000000000000000000000000000000000000000000815260040161184d90616591565b60405180910390fd5b6000600260019054906101000a900473ffffffffffffffffffffffffffffffffffffffff1673ffffffffffffffffffffffffffffffffffffffff166365f68c89836040518263ffffffff1660e01b81526004016118b39190615f88565b60206040518083038186803b1580156118cb57600080fd5b505afa1580156118df573d6000803e3d6000fd5b505050506040513d601f19601f820116820180604052508101906119039190614b55565b9050600260019054906101000a900473ffffffffffffffffffffffffffffffffffffffff1673ffffffffffffffffffffffffffffffffffffffff166365f68c8961194b611a9d565b6040518263ffffffff1660e01b81526004016119679190615f88565b60206040518083038186803b15801561197f57600080fd5b505afa158015611993573d6000803e3d6000fd5b505050506040513d601f19601f820116820180604052508101906119b79190614b55565b81146119f8576040517f08c379a00000000000000000000000000000000000000000000000000000000081526004016119ef90616391565b60405180910390fd5b81600e60006101000a81548173ffffffffffffffffffffffffffffffffffffffff021916908373ffffffffffffffffffffffffffffffffffffffff1602179055507f3e3119fbec468368c03e4732985b5a3f373d3a8b8ad5cc0f820357687349b63d826001604051611a6b929190615fbe565b60405180910390a15050565b601060009054906101000a900473ffffffffffffffffffffffffffffffffffffffff1681565b60008060009054906101000a900473ffffffffffffffffffffffffffffffffffffffff16905090565b600060606000601260149054906101000a900460ff16604051602001611aec9190615f6d565b6040516020818303038152906040528051906020012090506060600067ffffffffffffffff81118015611b1e57600080fd5b50604051908082528060200260200182016040528015611b5257816020015b6060815260200190600190039081611b3d5790505b50905081819350935050509091565b600a8054600181600116156101000203166002900480601f016020809104026020016040519081016040528092919081815260200182805460018160011615610100020316600290048015611bf75780601f10611bcc57610100808354040283529160200191611bf7565b820191906000526020600020905b815481529060010190602001808311611bda57829003601f168201915b505050505081565b60008060009054906101000a900473ffffffffffffffffffffffffffffffffffffffff1673ffffffffffffffffffffffffffffffffffffffff16611c41613915565b73ffffffffffffffffffffffffffffffffffffffff1614905090565b611c65611bff565b611ca4576040517f08c379a0000000000000000000000000000000000000000000000000000000008152600401611c9b90616591565b60405180910390fd5b6000600260019054906101000a900473ffffffffffffffffffffffffffffffffffffffff1673ffffffffffffffffffffffffffffffffffffffff166365f68c89836040518263ffffffff1660e01b8152600401611d019190615f88565b60206040518083038186803b158015611d1957600080fd5b505afa158015611d2d573d6000803e3d6000fd5b505050506040513d601f19601f82011682018060405250810190611d519190614b55565b9050600260019054906101000a900473ffffffffffffffffffffffffffffffffffffffff1673ffffffffffffffffffffffffffffffffffffffff166365f68c89611d99611a9d565b6040518263ffffffff1660e01b8152600401611db59190615f88565b60206040518083038186803b158015611dcd57600080fd5b505afa158015611de1573d6000803e3d6000fd5b505050506040513d601f19601f82011682018060405250810190611e059190614b55565b8114611e46576040517f08c379a0000000000000000000000000000000000000000000000000000000008152600401611e3d90616631565b60405180910390fd5b81601060006101000a81548173ffffffffffffffffffffffffffffffffffffffff021916908373ffffffffffffffffffffffffffffffffffffffff1602179055507f3e3119fbec468368c03e4732985b5a3f373d3a8b8ad5cc0f820357687349b63d826003604051611eb9929190616010565b60405180910390a15050565b601160009054906101000a900473ffffffffffffffffffffffffffffffffffffffff1681565b600260009054906101000a900460ff1615611f3b576040517f08c379a0000000000000000000000000000000000000000000000000000000008152600401611f3290616491565b60405180910390fd5b6000600260019054906101000a900473ffffffffffffffffffffffffffffffffffffffff1673ffffffffffffffffffffffffffffffffffffffff166365f68c89336040518263ffffffff1660e01b8152600401611f989190615fa3565b60206040518083038186803b158015611fb057600080fd5b505afa158015611fc4573d6000803e3d6000fd5b505050506040513d601f19601f82011682018060405250810190611fe89190614b55565b90506004600082815260200190815260200160002060009054906101000a900460ff1661204a576040517f08c379a000000000000000000000000000000000000000000000000000000000815260040161204190616551565b60405180910390fd5b600260019054906101000a900473ffffffffffffffffffffffffffffffffffffffff1673ffffffffffffffffffffffffffffffffffffffff1663613a7896826040518263ffffffff1660e01b81526004016120a591906166b1565b60206040518083038186803b1580156120bd57600080fd5b505afa1580156120d1573d6000803e3d6000fd5b505050506040513d601f19601f820116820180604052508101906120f5919061496f565b612134576040517f08c379a000000000000000000000000000000000000000000000000000000000815260040161212b906164d1565b60405180910390fd5b6000601260149054906101000a900460ff166040516020016121569190615f6d565b604051602081830303815290604052805190602001209050600360009054906101000a900473ffffffffffffffffffffffffffffffffffffffff1673ffffffffffffffffffffffffffffffffffffffff1663173d34a88284866040518463ffffffff1660e01b81526004016121cd9392919061612f565b600060405180830381600087803b1580156121e757600080fd5b505af11580156121fb573d6000803e3d6000fd5b505050507f6704da9c2ddbb477933c3e18f32636a8782fc7595206d73bb0e8e9608b00d5b182846040516122309291906167d9565b60405180910390a1505050565b60085481565b61224b611bff565b61228a576040517f08c379a000000000000000000000000000000000000000000000000000000000815260040161228190616591565b60405180910390fd5b6000600260019054906101000a900473ffffffffffffffffffffffffffffffffffffffff1673ffffffffffffffffffffffffffffffffffffffff166365f68c89836040518263ffffffff1660e01b81526004016122e79190615f88565b60206040518083038186803b1580156122ff57600080fd5b505afa158015612313573d6000803e3d6000fd5b505050506040513d601f19601f820116820180604052508101906123379190614b55565b9050600260019054906101000a900473ffffffffffffffffffffffffffffffffffffffff1673ffffffffffffffffffffffffffffffffffffffff166365f68c8961237f611a9d565b6040518263ffffffff1660e01b815260040161239b9190615f88565b60206040518083038186803b1580156123b357600080fd5b505afa1580156123c7573d6000803e3d6000fd5b505050506040513d601f19601f820116820180604052508101906123eb9190614b55565b811461242c576040517f08c379a0000000000000000000000000000000000000000000000000000000008152600401612423906164b1565b60405180910390fd5b81601260006101000a81548173ffffffffffffffffffffffffffffffffffffffff021916908373ffffffffffffffffffffffffffffffffffffffff1602179055507f3e3119fbec468368c03e4732985b5a3f373d3a8b8ad5cc0f820357687349b63d82600560405161249f929190616062565b60405180910390a15050565b600260009054906101000a900460ff16156124fb576040517f08c379a00000000000000000000000000000000000000000000000000000000081526004016124f290616491565b60405180910390fd5b600360009054906101000a900473ffffffffffffffffffffffffffffffffffffffff1673ffffffffffffffffffffffffffffffffffffffff163373ffffffffffffffffffffffffffffffffffffffff161461258b576040517f08c379a000000000000000000000000000000000000000000000000000000000815260040161258290616671565b60405180910390fd5b7f8039e7cfe0227655de7f41b85f86a697e1c0cade8eed56b090446c9f7f6afe0783836040516125bc9291906161be565b60405180910390a1505050565b600260009054906101000a900460ff1615612619576040517f08c379a000000000000000000000000000000000000000000000000000000000815260040161261090616491565b60405180910390fd5b600360009054906101000a900473ffffffffffffffffffffffffffffffffffffffff1673ffffffffffffffffffffffffffffffffffffffff163373ffffffffffffffffffffffffffffffffffffffff16146126a9576040517f08c379a00000000000000000000000000000000000000000000000000000000081526004016126a090616671565b60405180910390fd5b6060816000815181106126b857fe5b6020026020010151905060008311612705576040517f08c379a00000000000000000000000000000000000000000000000000000000081526004016126fc90616451565b60405180910390fd5b73__RBBLib________________________________63465c4105600a836040518363ffffffff1660e01b815260040161273f92919061623a565b60206040518083038186803b15801561275757600080fd5b505af415801561276b573d6000803e3d6000fd5b505050506040513d601f19601f8201168201806040525081019061278f919061496f565b156127a7576127a2878787878787613a99565b6129d2565b73__RBBLib________________________________63465c4105600b836040518363ffffffff1660e01b81526004016127e192919061623a565b60206040518083038186803b1580156127f957600080fd5b505af415801561280d573d6000803e3d6000fd5b505050506040513d601f19601f82011682018060405250810190612831919061496f565b1561284957612844878787878787613ddf565b6129d1565b73__RBBLib________________________________63465c4105600c836040518363ffffffff1660e01b815260040161288392919061623a565b60206040518083038186803b15801561289b57600080fd5b505af41580156128af573d6000803e3d6000fd5b505050506040513d601f19601f820116820180604052508101906128d3919061496f565b156128eb576128e68787878787876140b7565b6129d0565b73__RBBLib________________________________63465c4105600d836040518363ffffffff1660e01b815260040161292592919061623a565b60206040518083038186803b15801561293d57600080fd5b505af4158015612951573d6000803e3d6000fd5b505050506040513d601f19601f82011682018060405250810190612975919061496f565b1561298d5761298887878787878761436c565b6129cf565b60006129ce576040517f08c379a00000000000000000000000000000000000000000000000000000000081526004016129c5906165d1565b60405180910390fd5b5b5b5b5b50505050505050565b60008060606000846040516020016129f39190615ef7565b6040516020818303038152906040528051906020012090506000601260149054906101000a900460ff16604051602001612a2d9190615f6d565b6040516020818303038152906040528051906020012090506060600267ffffffffffffffff81118015612a5f57600080fd5b50604051908082528060200260200182016040528015612a9357816020015b6060815260200190600190039081612a7e5790505b509050600b8054600181600116156101000203166002900480601f016020809104026020016040519081016040528092919081815260200182805460018160011615610100020316600290048015612b2c5780601f10612b0157610100808354040283529160200191612b2c565b820191906000526020600020905b815481529060010190602001808311612b0f57829003601f168201915b505050505081600081518110612b3e57fe5b60200260200101819052508681600181518110612b5757fe5b60200260200101819052508282829550955095505050509193909250565b600260009054906101000a900460ff1615612bc5576040517f08c379a0000000000000000000000000000000000000000000000000000000008152600401612bbc90616491565b60405180910390fd5b600360009054906101000a900473ffffffffffffffffffffffffffffffffffffffff1673ffffffffffffffffffffffffffffffffffffffff163373ffffffffffffffffffffffffffffffffffffffff1614612c55576040517f08c379a0000000000000000000000000000000000000000000000000000000008152600401612c4c90616671565b60405180910390fd5b60008211612c98576040517f08c379a0000000000000000000000000000000000000000000000000000000008152600401612c8f90616451565b60405180910390fd5b6006600085815260200190815260200160002060009054906101000a900460ff16612cf8576040517f08c379a0000000000000000000000000000000000000000000000000000000008152600401612cef90616431565b60405180910390fd5b82601260149054906101000a900460ff16604051602001612d199190615f6d565b6040516020818303038152906040528051906020012014612d6f576040517f08c379a0000000000000000000000000000000000000000000000000000000008152600401612d6690616471565b60405180910390fd5b7fb8f81a5484e20ac6428d9d7788e484b88874539071efc6a3d92c0d701b698ce08483604051612da09291906167d9565b60405180910390a150505050565b612db6611bff565b612df5576040517f08c379a0000000000000000000000000000000000000000000000000000000008152600401612dec90616591565b60405180910390fd5b6006600082815260200190815260200160002060009054906101000a900460ff16612f315760016006600083815260200190815260200160002060006101000a81548160ff0219169083151502179055507f2757aa27a660ab391745e035b5a23653f6497d768c445f6a9c3df78e1d18727f600260019054906101000a900473ffffffffffffffffffffffffffffffffffffffff1673ffffffffffffffffffffffffffffffffffffffff166365f68c89612ead611a9d565b6040518263ffffffff1660e01b8152600401612ec99190615f88565b60206040518083038186803b158015612ee157600080fd5b505afa158015612ef5573d6000803e3d6000fd5b505050506040513d601f19601f82011682018060405250810190612f199190614b55565b82604051612f289291906167d9565b60405180910390a15b50565b600081604051602001612f479190615ef7565b604051602081830303815290604052805190602001209050919050565b6000601260159054906101000a900460ff16604051602001612f869190615f6d565b604051602081830303815290604052805190602001209050919050565b60066020528060005260406000206000915054906101000a900460ff1681565b6005602052816000526040600020818051602081018201805184825260208301602085012081835280955050505050506000915091509054906101000a900460ff1681565b600360009054906101000a900473ffffffffffffffffffffffffffffffffffffffff1681565b60008060606000601260169054906101000a900460ff166040516020016130559190615f6d565b6040516020818303038152906040528051906020012090506000856040516020016130809190615ef7565b6040516020818303038152906040528051906020012090506060600267ffffffffffffffff811180156130b257600080fd5b506040519080825280602002602001820160405280156130e657816020015b60608152602001906001900390816130d15790505b509050600a8054600181600116156101000203166002900480601f01602080910402602001604051908101604052809291908181526020018280546001816001161561010002031660029004801561317f5780601f106131545761010080835404028352916020019161317f565b820191906000526020600020905b81548152906001019060200180831161316257829003601f168201915b50505050508160008151811061319157fe5b602002602001018190525086816001815181106131aa57fe5b60200260200101819052508282829550955095505050509193909250565b6131d0611bff565b61320f576040517f08c379a000000000000000000000000000000000000000000000000000000000815260040161320690616591565b60405180910390fd5b613218816145c7565b50565b613223611bff565b613262576040517f08c379a000000000000000000000000000000000000000000000000000000000815260040161325990616591565b60405180910390fd5b6000600260019054906101000a900473ffffffffffffffffffffffffffffffffffffffff1673ffffffffffffffffffffffffffffffffffffffff166365f68c89836040518263ffffffff1660e01b81526004016132bf9190615f88565b60206040518083038186803b1580156132d757600080fd5b505afa1580156132eb573d6000803e3d6000fd5b505050506040513d601f19601f8201168201806040525081019061330f9190614b55565b9050600260019054906101000a900473ffffffffffffffffffffffffffffffffffffffff1673ffffffffffffffffffffffffffffffffffffffff166365f68c89613357611a9d565b6040518263ffffffff1660e01b81526004016133739190615f88565b60206040518083038186803b15801561338b57600080fd5b505afa15801561339f573d6000803e3d6000fd5b505050506040513d601f19601f820116820180604052508101906133c39190614b55565b8114613404576040517f08c379a00000000000000000000000000000000000000000000000000000000081526004016133fb90616571565b60405180910390fd5b81601160006101000a81548173ffffffffffffffffffffffffffffffffffffffff021916908373ffffffffffffffffffffffffffffffffffffffff1602179055507f3e3119fbec468368c03e4732985b5a3f373d3a8b8ad5cc0f820357687349b63d826004604051613477929190616039565b60405180910390a15050565b600c8054600181600116156101000203166002900480601f0160208091040260200160405190810160405280929190818152602001828054600181600116156101000203166002900480156135195780601f106134ee57610100808354040283529160200191613519565b820191906000526020600020905b8154815290600101906020018083116134fc57829003601f168201915b505050505081565b600d8054600181600116156101000203166002900480601f0160208091040260200160405190810160405280929190818152602001828054600181600116156101000203166002900480156135b75780601f1061358c576101008083540402835291602001916135b7565b820191906000526020600020905b81548152906001019060200180831161359a57829003601f168201915b505050505081565b6135c9828261391d565b15613609576040517f08c379a0000000000000000000000000000000000000000000000000000000008152600401613600906162d1565b60405180910390fd5b60018260000160008373ffffffffffffffffffffffffffffffffffffffff1673ffffffffffffffffffffffffffffffffffffffff16815260200190815260200160002060006101000a81548160ff0219169083151502179055505050565b60008060009050600115156004600086815260200190815260200160002060009054906101000a900460ff16151514156136a557600191505061390f565b600115156006600086815260200190815260200160002060009054906101000a900460ff16151514156136dc57600191505061390f565b6000600260019054906101000a900473ffffffffffffffffffffffffffffffffffffffff1673ffffffffffffffffffffffffffffffffffffffff166365f68c89613724611a9d565b6040518263ffffffff1660e01b81526004016137409190615f88565b60206040518083038186803b15801561375857600080fd5b505afa15801561376c573d6000803e3d6000fd5b505050506040513d601f19601f820116820180604052508101906137909190614b55565b9050848114156137a55760019250505061390f565b6000600260019054906101000a900473ffffffffffffffffffffffffffffffffffffffff1673ffffffffffffffffffffffffffffffffffffffff166365f68c89600360009054906101000a900473ffffffffffffffffffffffffffffffffffffffff1673ffffffffffffffffffffffffffffffffffffffff16638da5cb5b6040518163ffffffff1660e01b815260040160206040518083038186803b15801561384d57600080fd5b505afa158015613861573d6000803e3d6000fd5b505050506040513d601f19601f82011682018060405250810190613885919061490a565b6040518263ffffffff1660e01b81526004016138a19190615f88565b60206040518083038186803b1580156138b957600080fd5b505afa1580156138cd573d6000803e3d6000fd5b505050506040513d601f19601f820116820180604052508101906138f19190614b55565b905085811415613907576001935050505061390f565b600093505050505b92915050565b600033905090565b60008073ffffffffffffffffffffffffffffffffffffffff168273ffffffffffffffffffffffffffffffffffffffff16141561398e576040517f08c379a0000000000000000000000000000000000000000000000000000000008152600401613985906165b1565b60405180910390fd5b8260000160008373ffffffffffffffffffffffffffffffffffffffff1673ffffffffffffffffffffffffffffffffffffffff16815260200190815260200160002060009054906101000a900460ff16905092915050565b6139f98160016146f490919063ffffffff16565b8073ffffffffffffffffffffffffffffffffffffffff167fcd265ebaf09df2871cc7bd4133404a235ba12eff2041bb89d9c714a2621c7c7e60405160405180910390a250565b613a538160016135bf90919063ffffffff16565b8073ffffffffffffffffffffffffffffffffffffffff167f6719d08c1888103bea251a4ed56406bd0c3e69723c8a1686e017e7bbe159b6f860405160405180910390a250565b600260009054906101000a900460ff1615613ae9576040517f08c379a0000000000000000000000000000000000000000000000000000000008152600401613ae090616491565b60405180910390fd5b606081600181518110613af857fe5b602002602001015190506000600260019054906101000a900473ffffffffffffffffffffffffffffffffffffffff1673ffffffffffffffffffffffffffffffffffffffff166365f68c89613b4a611a9d565b6040518263ffffffff1660e01b8152600401613b669190615f88565b60206040518083038186803b158015613b7e57600080fd5b505afa158015613b92573d6000803e3d6000fd5b505050506040513d601f19601f82011682018060405250810190613bb69190614b55565b9050808814613bfa576040517f08c379a0000000000000000000000000000000000000000000000000000000008152600401613bf190616651565b60405180910390fd5b86601260169054906101000a900460ff16604051602001613c1b9190615f6d565b6040516020818303038152906040528051906020012014613c71576040517f08c379a0000000000000000000000000000000000000000000000000000000008152600401613c68906163f1565b60405180910390fd5b8482604051602001613c839190615ef7565b6040516020818303038152906040528051906020012014613cd9576040517f08c379a0000000000000000000000000000000000000000000000000000000008152600401613cd090616691565b60405180910390fd5b6005600087815260200190815260200160002082604051613cfa9190615ef7565b908152602001604051809103902060009054906101000a900460ff16613d9a5760016005600088815260200190815260200160002083604051613d3d9190615ef7565b908152602001604051809103902060006101000a81548160ff0219169083151502179055507f448b0dd714fa3713f69988b8ee8bad3ac840e06e3d93c970086a3d490d61c62986604051613d9191906166b1565b60405180910390a15b7f6a4c81844df1c2bd4ddc3c212f15b0f89b66e0c623277b45a0c97427a5b164f6868386604051613dcd9392919061674f565b60405180910390a15050505050505050565b600260009054906101000a900460ff1615613e2f576040517f08c379a0000000000000000000000000000000000000000000000000000000008152600401613e2690616491565b60405180910390fd5b606081600181518110613e3e57fe5b602002602001015190506005600088815260200190815260200160002081604051613e699190615ef7565b908152602001604051809103902060009054906101000a900460ff16613ec4576040517f08c379a0000000000000000000000000000000000000000000000000000000008152600401613ebb90616351565b60405180910390fd5b8581604051602001613ed69190615ef7565b6040516020818303038152906040528051906020012014613f2c576040517f08c379a0000000000000000000000000000000000000000000000000000000008152600401613f2390616691565b60405180910390fd5b83601260149054906101000a900460ff16604051602001613f4d9190615f6d565b6040516020818303038152906040528051906020012014613fa3576040517f08c379a0000000000000000000000000000000000000000000000000000000008152600401613f9a90616471565b60405180910390fd5b84871415613fe6576040517f08c379a0000000000000000000000000000000000000000000000000000000008152600401613fdd906163d1565b60405180910390fd5b6006600086815260200190815260200160002060009054906101000a900460ff166140715760016006600087815260200190815260200160002060006101000a81548160ff0219169083151502179055507f2757aa27a660ab391745e035b5a23653f6497d768c445f6a9c3df78e1d18727f87866040516140689291906167d9565b60405180910390a15b7fb5941224982a8299c916869ca2e62ecbf14906bd1be81700e33cfc4bf401cc96878287866040516140a6949392919061678d565b60405180910390a150505050505050565b600260009054906101000a900460ff1615614107576040517f08c379a00000000000000000000000000000000000000000000000000000000081526004016140fe90616491565b60405180910390fd5b600260019054906101000a900473ffffffffffffffffffffffffffffffffffffffff1673ffffffffffffffffffffffffffffffffffffffff166365f68c8961414d611a9d565b6040518263ffffffff1660e01b81526004016141699190615f88565b60206040518083038186803b15801561418157600080fd5b505afa158015614195573d6000803e3d6000fd5b505050506040513d601f19601f820116820180604052508101906141b99190614b55565b86146141fa576040517f08c379a00000000000000000000000000000000000000000000000000000000081526004016141f190616371565b60405180910390fd5b84601260179054906101000a900460ff1660405160200161421b9190615f6d565b6040516020818303038152906040528051906020012014614271576040517f08c379a000000000000000000000000000000000000000000000000000000000815260040161426890616611565b60405180910390fd5b82601260149054906101000a900460ff166040516020016142929190615f6d565b60405160208183030381529060405280519060200120146142e8576040517f08c379a00000000000000000000000000000000000000000000000000000000081526004016142df90616471565b60405180910390fd5b8386141561432b576040517f08c379a0000000000000000000000000000000000000000000000000000000008152600401614322906165f1565b60405180910390fd5b7f4b3bd547410a994881d497bec3e379ca3a0794a470079aef84a6b91df6c8da29848360405161435c9291906167d9565b60405180910390a1505050505050565b600260009054906101000a900460ff16156143bc576040517f08c379a00000000000000000000000000000000000000000000000000000000081526004016143b390616491565b60405180910390fd5b6143c68686613667565b614405576040517f08c379a00000000000000000000000000000000000000000000000000000000081526004016143fc906164f1565b60405180910390fd5b61440f8484613667565b61444e576040517f08c379a0000000000000000000000000000000000000000000000000000000008152600401614445906162f1565b60405180910390fd5b60608160018151811061445d57fe5b6020026020010151905060008787878787604051602001614482959493929190615f0e565b6040516020818303038152906040528051906020012090506000805b6007805490508110156144e05782600782815481106144b957fe5b906000526020600020015414156144d357600191506144e0565b808060010191505061449e565b81614520576040517f08c379a000000000000000000000000000000000000000000000000000000000815260040161451790616311565b60405180910390fd5b60076001600780549050038154811061453557fe5b90600052602060002001546007828154811061454d57fe5b9060005260206000200181905550600780548061456657fe5b600190038181906000526020600020016000905590557f7546c33f8f6bcff0f310fea5bb044f51115f8e404e9b0e505915287b634e744d8a8a8a8a8a6040516145b39594939291906166cc565b60405180910390a150505050505050505050565b600073ffffffffffffffffffffffffffffffffffffffff168173ffffffffffffffffffffffffffffffffffffffff161415614637576040517f08c379a000000000000000000000000000000000000000000000000000000000815260040161462e906163b1565b60405180910390fd5b8073ffffffffffffffffffffffffffffffffffffffff1660008054906101000a900473ffffffffffffffffffffffffffffffffffffffff1673ffffffffffffffffffffffffffffffffffffffff167f8be0079c531659141344cd1fd0a4f28419497f9722a3daafe3b4186f6b6457e060405160405180910390a3806000806101000a81548173ffffffffffffffffffffffffffffffffffffffff021916908373ffffffffffffffffffffffffffffffffffffffff16021790555050565b6146fe828261391d565b61473d576040517f08c379a000000000000000000000000000000000000000000000000000000000815260040161473490616511565b60405180910390fd5b60008260000160008373ffffffffffffffffffffffffffffffffffffffff1673ffffffffffffffffffffffffffffffffffffffff16815260200190815260200160002060006101000a81548160ff0219169083151502179055505050565b6000813590506147aa81616af2565b92915050565b6000815190506147bf81616af2565b92915050565b600082601f8301126147d657600080fd5b81356147e96147e48261684a565b61681d565b9150818183526020840193506020810190508360005b8381101561482f57813586016148158882614863565b8452602084019350602083019250506001810190506147ff565b5050505092915050565b60008151905061484881616b09565b92915050565b60008135905061485d81616b20565b92915050565b600082601f83011261487457600080fd5b813561488761488282616872565b61681d565b915080825260208301602083018583830111156148a357600080fd5b6148ae838284616a6c565b50505092915050565b6000813590506148c681616b37565b92915050565b6000815190506148db81616b37565b92915050565b6000602082840312156148f357600080fd5b60006149018482850161479b565b91505092915050565b60006020828403121561491c57600080fd5b600061492a848285016147b0565b91505092915050565b6000806040838503121561494657600080fd5b60006149548582860161479b565b92505060206149658582860161479b565b9150509250929050565b60006020828403121561498157600080fd5b600061498f84828501614839565b91505092915050565b6000602082840312156149aa57600080fd5b60006149b88482850161484e565b91505092915050565b600080600080608085870312156149d757600080fd5b60006149e58782880161484e565b94505060206149f6878288016148b7565b935050604085013567ffffffffffffffff811115614a1357600080fd5b614a1f878288016147c5565b925050606085013567ffffffffffffffff811115614a3c57600080fd5b614a4887828801614863565b91505092959194509250565b600060208284031215614a6657600080fd5b600082013567ffffffffffffffff811115614a8057600080fd5b614a8c84828501614863565b91505092915050565b600080600060608486031215614aaa57600080fd5b600084013567ffffffffffffffff811115614ac457600080fd5b614ad086828701614863565b935050602084013567ffffffffffffffff811115614aed57600080fd5b614af986828701614863565b925050604084013567ffffffffffffffff811115614b1657600080fd5b614b22868287016147c5565b9150509250925092565b600060208284031215614b3e57600080fd5b6000614b4c848285016148b7565b91505092915050565b600060208284031215614b6757600080fd5b6000614b75848285016148cc565b91505092915050565b60008060008060808587031215614b9457600080fd5b6000614ba2878288016148b7565b9450506020614bb38782880161484e565b9350506040614bc4878288016148b7565b925050606085013567ffffffffffffffff811115614be157600080fd5b614bed878288016147c5565b91505092959194509250565b600080600080600060a08688031215614c1157600080fd5b6000614c1f888289016148b7565b9550506020614c308882890161484e565b9450506040614c41888289016148b7565b9350506060614c528882890161484e565b9250506080614c63888289016148b7565b9150509295509295909350565b60008060008060008060c08789031215614c8957600080fd5b6000614c9789828a016148b7565b9650506020614ca889828a0161484e565b9550506040614cb989828a016148b7565b9450506060614cca89828a0161484e565b9350506080614cdb89828a016148b7565b92505060a087013567ffffffffffffffff811115614cf857600080fd5b614d0489828a016147c5565b9150509295509295509295565b60008060408385031215614d2457600080fd5b6000614d32858286016148b7565b925050602083013567ffffffffffffffff811115614d4f57600080fd5b614d5b85828601614863565b9150509250929050565b6000614d718383614eaa565b905092915050565b614d8281616994565b82525050565b614d9181616935565b82525050565b6000614da2826168c3565b614dac81856168e6565b935083602082028501614dbe8561689e565b8060005b85811015614dfa5784840389528151614ddb8582614d65565b9450614de6836168d9565b925060208a01995050600181019050614dc2565b50829750879550505050505092915050565b614e1581616947565b82525050565b614e2481616953565b82525050565b614e3b614e3682616953565b616aae565b82525050565b614e4a816169a6565b82525050565b614e59816169ca565b82525050565b614e68816169ee565b82525050565b614e7781616a00565b82525050565b614e8681616a12565b82525050565b614e9581616a24565b82525050565b614ea481616a36565b82525050565b6000614eb5826168ce565b614ebf81856168f7565b9350614ecf818560208601616a7b565b614ed881616ad4565b840191505092915050565b6000614eee826168ce565b614ef88185616908565b9350614f08818560208601616a7b565b614f1181616ad4565b840191505092915050565b6000614f27826168ce565b614f318185616919565b9350614f41818560208601616a7b565b614f4a81616ad4565b840191505092915050565b6000614f60826168ce565b614f6a818561692a565b9350614f7a818560208601616a7b565b80840191505092915050565b600081546001811660008114614fa35760018114614fc95761500d565b607f6002830416614fb48187616919565b955060ff19831686526020860193505061500d565b60028204614fd78187616919565b9550614fe2856168ae565b60005b8281101561500457815481890152600182019150602081019050614fe5565b80880195505050505b505092915050565b6000615022601b83616908565b91507f56616c6f7220646520466565206d61696f7220717565203130302500000000006000830152602082019050919050565b6000615062604b83616908565b91507f4f20726573706f6e73c3a176656c2070656c6120616c6f6361c3a7c3a36f206960008301527f6e696369616c206465766520736572206461206d65736d6f205242425f49442060208301527f646f20636f6e747261746f0000000000000000000000000000000000000000006040830152606082019050919050565b60006150ee601483616908565b91507f5061757361626c653a206e6f74207061757365640000000000000000000000006000830152602082019050919050565b600061512e601f83616908565b91507f526f6c65733a206163636f756e7420616c72656164792068617320726f6c65006000830152602082019050919050565b600061516e603d83616908565b91507f456e64657265c3a76f2064652064657374696e6f206ec3a36f20696e636c75c360008301527fad646f20636f6d6f20706170656c206e6573736520636164617374726f0000006020830152604082019050919050565b60006151d4603083616908565b91507f496e74657276656ec3a7c3a36f206d616e75616c206ec3a36f2070726576696160008301527f6d656e74652063616461737472616461000000000000000000000000000000006020830152604082019050919050565b600061523a603083616908565b91507f506175736572526f6c653a2063616c6c657220646f6573206e6f74206861766560008301527f207468652050617573657220726f6c65000000000000000000000000000000006020830152604082019050919050565b60006152a0604483616908565b91507f536f6d656e746520636c69656e74657320656d20636f6e747261746f7320636160008301527f646173747261646f7320706f64656d206578656375746172206f20706167616d60208301527f656e746f000000000000000000000000000000000000000000000000000000006040830152606082019050919050565b600061532c602983616908565b91507f536f6d656e7465206f20424e44455320706f6465206578656375746172206f2060008301527f706167616d656e746f00000000000000000000000000000000000000000000006020830152604082019050919050565b6000615392604f83616908565b91507f4f20726573706f6e73c3a176656c2070656c6120636f6e6669726d61c3a7c3a360008301527f6f20646f61c3a7c3a36f206465766520736572206461206d65736d6f2052424260208301527f5f494420646f20636f6e747261746f00000000000000000000000000000000006040830152606082019050919050565b600061541e602683616908565b91507f4f776e61626c653a206e6577206f776e657220697320746865207a65726f206160008301527f64647265737300000000000000000000000000000000000000000000000000006020830152604082019050919050565b6000615484605f83616908565b91507f556d20434e504a206ec3a36f20706f6465207472616e73666572697220746f6b60008301527f656e20706172612073692c2061696e64612071756520656d20706170c3a9697360208301527f2064697374696e746f732028436c69656e74652f466f726e656365646f7229006040830152606082019050919050565b6000615510602a83616908565b91507f4572726f206e6f2063c3a16c63756c6f20646f206861736820646120636f6e7460008301527f6120646f20424e444553000000000000000000000000000000000000000000006020830152604082019050919050565b6000615576605783616908565b91507f536f6d656e746520756d20726573706f6e73c3a176656c2070656c617320747260008301527f616e73666572c3aa6e636961732065787472616f7264696ec3a172696173207060208301527f6f7220656e766961722061207472616e7361c3a7c3a36f0000000000000000006040830152606082019050919050565b6000615602602f83616908565b91507f536f6d656e746520666f726e656365646f72657320706f64656d20657865637560008301527f746172206f20706167616d656e746f00000000000000000000000000000000006020830152604082019050919050565b6000615668603583616908565b91507f56616c6f72206120736572207472616e736163696f6e61646f2064657665207360008301527f6572206d61696f7220646f20717565207a65726f2e00000000000000000000006020830152604082019050919050565b60006156ce602f83616908565b91507f4572726f206e6f2063c3a16c63756c6f20646f206861736820646120636f6e7460008301527f6120646f20666f726e656365646f7200000000000000000000000000000000006020830152604082019050919050565b6000615734601083616908565b91507f5061757361626c653a20706175736564000000000000000000000000000000006000830152602082019050919050565b6000615774604583616908565b91507f4f20726573706f6e73c3a176656c2070656c61206c697175696461c3a7c3a36f60008301527f206465766520736572206461206d65736d6f205242425f494420646f20636f6e60208301527f747261746f0000000000000000000000000000000000000000000000000000006040830152606082019050919050565b6000615800603383616908565b91507f436f6e746120646520646f61646f72207072656369736120657374617220636f60008301527f6d20636164617374726f2076616c696461646f000000000000000000000000006020830152604082019050919050565b6000615866603c83616908565b91507f456e64657265c3a76f206465206f726967656d206ec3a36f20696e636c75c3ad60008301527f646f20636f6d6f20706170656c206e6573736520636164617374726f000000006020830152604082019050919050565b60006158cc602183616908565b91507f526f6c65733a206163636f756e7420646f6573206e6f74206861766520726f6c60008301527f65000000000000000000000000000000000000000000000000000000000000006020830152604082019050919050565b6000615932602483616908565b91507f4572726f206e6f2063c3a16c63756c6f20646f206861736820646120646f61c360008301527fa7c3a36f000000000000000000000000000000000000000000000000000000006020830152604082019050919050565b6000615998602683616908565b91507f536f6d656e746520646f61646f72657320706f64656d2066617a657220646f6160008301527fc3a7c3b5657300000000000000000000000000000000000000000000000000006020830152604082019050919050565b60006159fe606983616908565b91507f4f20726573706f6e73c3a176656c2070656c6f2063616461737472616d656e7460008301527f6f206465207472616e73666572656e636961732065787472616f7264696ec3a160208301527f72696173206465766520736572206461206d65736d6f205242425f494420646f60408301527f20636f6e747261746f00000000000000000000000000000000000000000000006060830152608082019050919050565b6000615ab0602083616908565b91507f4f776e61626c653a2063616c6c6572206973206e6f7420746865206f776e65726000830152602082019050919050565b6000615af0602283616908565b91507f526f6c65733a206163636f756e7420697320746865207a65726f20616464726560008301527f73730000000000000000000000000000000000000000000000000000000000006020830152604082019050919050565b6000615b56604283616908565b91507f4e656e68756d61207665726966696361c3a7c3a36f206573706563c3ad66696360008301527f6120656e636f6e747261646120706172612061207472616e73666572c3aa6e6360208301527f69610000000000000000000000000000000000000000000000000000000000006040830152606082019050919050565b6000615be2602b83616908565b91507f556d20424e444553206ec3a36f20706f6465207472616e73666572697220746f60008301527f6b656e20706172612073690000000000000000000000000000000000000000006020830152604082019050919050565b6000615c48604183616908565b91507f4572726f206e6f2063c3a16c63756c6f20646f206861736820646120636f6e7460008301527f612064652061646d696e20646f20636f6e747261746f2065737065636966696360208301527f6f000000000000000000000000000000000000000000000000000000000000006040830152606082019050919050565b6000615cd4604383616908565b91507f4f20726573706f6e73c3a176656c2070656c6f20646573656d626f6c736f206460008301527f65766520736572206461206d65736d6f205242425f494420646f20636f6e747260208301527f61746f00000000000000000000000000000000000000000000000000000000006040830152606082019050919050565b6000615d60604483616908565b91507f4964206465206f726967656d206461207472616e7361c3a7c3a36f206ec3a36f60008301527f20657374c3a120696775616c20616f20646f206f776e657220646f20636f6e7460208301527f7261746f000000000000000000000000000000000000000000000000000000006040830152606082019050919050565b6000615dec603083616908565b91507f45737365206dc3a9746f646f2073c3b320706f646520736572206368616d616460008301527f6f2070656c6f205242425f546f6b656e000000000000000000000000000000006020830152604082019050919050565b6000615e52602c83616908565b91507f4572726f206e6f2063c3a16c63756c6f20646f206861736820646120636f6e7460008301527f6120646f20636c69656e746500000000000000000000000000000000000000006020830152604082019050919050565b615eb48161697d565b82525050565b615ecb615ec68261697d565b616ab8565b82525050565b615eda81616987565b82525050565b615ef1615eec82616987565b616ac2565b82525050565b6000615f038284614f55565b915081905092915050565b6000615f1a8288615eba565b602082019150615f2a8287614e2a565b602082019150615f3a8286615eba565b602082019150615f4a8285614e2a565b602082019150615f5a8284615eba565b6020820191508190509695505050505050565b6000615f798284615ee0565b60018201915081905092915050565b6000602082019050615f9d6000830184614d88565b92915050565b6000602082019050615fb86000830184614d79565b92915050565b6000604082019050615fd36000830185614d88565b615fe06020830184614e5f565b9392505050565b6000604082019050615ffc6000830185614d88565b6160096020830184614e6e565b9392505050565b60006040820190506160256000830185614d88565b6160326020830184614e7d565b9392505050565b600060408201905061604e6000830185614d88565b61605b6020830184614e8c565b9392505050565b60006040820190506160776000830185614d88565b6160846020830184614e9b565b9392505050565b60006020820190506160a06000830184614e0c565b92915050565b60006020820190506160bb6000830184614e1b565b92915050565b60006040820190506160d66000830185614e1b565b81810360208301526160e88184614d97565b90509392505050565b60006060820190506161066000830186614e1b565b6161136020830185614e1b565b81810360408301526161258184614d97565b9050949350505050565b60006060820190506161446000830186614e1b565b6161516020830185615eab565b61615e6040830184615eab565b949350505050565b600060208201905061617b6000830184614e41565b92915050565b60006020820190506161966000830184614e50565b92915050565b600060208201905081810360008301526161b68184614ee3565b905092915050565b600060408201905081810360008301526161d88185614ee3565b905081810360208301526161ec8184614ee3565b90509392505050565b6000606082019050818103600083015261620f8186614ee3565b905061621e6020830185615eab565b81810360408301526162308184614ee3565b9050949350505050565b600060408201905081810360008301526162548185614f86565b905081810360208301526162688184614f1c565b90509392505050565b6000602082019050818103600083015261628a81615015565b9050919050565b600060208201905081810360008301526162aa81615055565b9050919050565b600060208201905081810360008301526162ca816150e1565b9050919050565b600060208201905081810360008301526162ea81615121565b9050919050565b6000602082019050818103600083015261630a81615161565b9050919050565b6000602082019050818103600083015261632a816151c7565b9050919050565b6000602082019050818103600083015261634a8161522d565b9050919050565b6000602082019050818103600083015261636a81615293565b9050919050565b6000602082019050818103600083015261638a8161531f565b9050919050565b600060208201905081810360008301526163aa81615385565b9050919050565b600060208201905081810360008301526163ca81615411565b9050919050565b600060208201905081810360008301526163ea81615477565b9050919050565b6000602082019050818103600083015261640a81615503565b9050919050565b6000602082019050818103600083015261642a81615569565b9050919050565b6000602082019050818103600083015261644a816155f5565b9050919050565b6000602082019050818103600083015261646a8161565b565b9050919050565b6000602082019050818103600083015261648a816156c1565b9050919050565b600060208201905081810360008301526164aa81615727565b9050919050565b600060208201905081810360008301526164ca81615767565b9050919050565b600060208201905081810360008301526164ea816157f3565b9050919050565b6000602082019050818103600083015261650a81615859565b9050919050565b6000602082019050818103600083015261652a816158bf565b9050919050565b6000602082019050818103600083015261654a81615925565b9050919050565b6000602082019050818103600083015261656a8161598b565b9050919050565b6000602082019050818103600083015261658a816159f1565b9050919050565b600060208201905081810360008301526165aa81615aa3565b9050919050565b600060208201905081810360008301526165ca81615ae3565b9050919050565b600060208201905081810360008301526165ea81615b49565b9050919050565b6000602082019050818103600083015261660a81615bd5565b9050919050565b6000602082019050818103600083015261662a81615c3b565b9050919050565b6000602082019050818103600083015261664a81615cc7565b9050919050565b6000602082019050818103600083015261666a81615d53565b9050919050565b6000602082019050818103600083015261668a81615ddf565b9050919050565b600060208201905081810360008301526166aa81615e45565b9050919050565b60006020820190506166c66000830184615eab565b92915050565b600060a0820190506166e16000830188615eab565b6166ee6020830187614e1b565b6166fb6040830186615eab565b6167086060830185614e1b565b6167156080830184615eab565b9695505050505050565b60006040820190506167346000830185615eab565b81810360208301526167468184614ee3565b90509392505050565b60006060820190506167646000830186615eab565b81810360208301526167768185614ee3565b90506167856040830184615eab565b949350505050565b60006080820190506167a26000830187615eab565b81810360208301526167b48186614ee3565b90506167c36040830185615eab565b6167d06060830184615eab565b95945050505050565b60006040820190506167ee6000830185615eab565b6167fb6020830184615eab565b9392505050565b60006020820190506168176000830184615ed1565b92915050565b6000604051905081810181811067ffffffffffffffff8211171561684057600080fd5b8060405250919050565b600067ffffffffffffffff82111561686157600080fd5b602082029050602081019050919050565b600067ffffffffffffffff82111561688957600080fd5b601f19601f8301169050602081019050919050565b6000819050602082019050919050565b60008190508160005260206000209050919050565b600081519050919050565b600081519050919050565b6000602082019050919050565b600082825260208201905092915050565b600082825260208201905092915050565b600082825260208201905092915050565b600082825260208201905092915050565b600081905092915050565b60006169408261695d565b9050919050565b60008115159050919050565b6000819050919050565b600073ffffffffffffffffffffffffffffffffffffffff82169050919050565b6000819050919050565b600060ff82169050919050565b600061699f82616a48565b9050919050565b60006169b1826169b8565b9050919050565b60006169c38261695d565b9050919050565b60006169d5826169dc565b9050919050565b60006169e78261695d565b9050919050565b60006169f982616987565b9050919050565b6000616a0b82616987565b9050919050565b6000616a1d82616987565b9050919050565b6000616a2f82616987565b9050919050565b6000616a4182616987565b9050919050565b6000616a5382616a5a565b9050919050565b6000616a658261695d565b9050919050565b82818337600083830152505050565b60005b83811015616a99578082015181840152602081019050616a7e565b83811115616aa8576000848401525b50505050565b6000819050919050565b6000819050919050565b6000616acd82616ae5565b9050919050565b6000601f19601f8301169050919050565b60008160f81b9050919050565b616afb81616935565b8114616b0657600080fd5b50565b616b1281616947565b8114616b1d57600080fd5b50565b616b2981616953565b8114616b3457600080fd5b50565b616b408161697d565b8114616b4b57600080fd5b5056fea2646970667358221220a1bd0723441514ae7738f788076ad7065049b1055a1054510ee1283231ee9ca064736f6c634300060c0033",
  "immutableReferences": {},
  "source": "pragma solidity ^0.6.0;\npragma experimental ABIEncoderV2;\n\n\nimport \"./RBBLib.sol\";\nimport \"./RBBRegistry.sol\";\nimport \"./RBBToken.sol\";\nimport \"./SpecificRBBToken.sol\";\nimport \"@openzeppelin/contracts/ownership/Ownable.sol\";\nimport \"@openzeppelin/contracts/lifecycle/Pausable.sol\";\nimport \"@openzeppelin/contracts/math/SafeMath.sol\";\n\n\n\n// Pode ter cliente no hash xyz, fornecedor no hash abc\n// clientes no hash xyz so aqueles que bndes informou (set cliente no hash total)\n/*\nRegras especficas\n- Toda vez que o BNDES faz um desembolso, o destinatrio ser associado como CLIENTE para um idFinancialSupportAgreement especfico (se ainda no estiver associado).\n- Somente clientes fazem pagamentos. Toda vez que um CLIENTE de um idFinancialSupportAgreement especfico paga um fornecedor, o destinatrio ser associado como FORNECEDOR (se ainda no estiver associado). \n- Somente FORNECEDORES podem solicitar o resgate.\n\nTodas as operaes j supem que a entidade de origem e destino esto cadastradas e validadas, pois isso  garantido pelo contrato genrico (RBB_Token)\n\nNo includo:\n------------\n- requisito adicional de o cliente poder resgatar uma parte do valor (ao invs de ter que necessariamente transferir tudo ao fornecedor)\n- ideia de o fornecedor poder sacar mais de um saldo ao mesmo tempo.\n- pedido inicial de financiamento do cliente \n- devoluo de fornecedor para cliente sem anuncia para o BNDES\n- controle que cada doacao realmente se transformou em duas transacoes, uma para a conta adm e outra para a conta usual\nuint admFee = amount.mul(bndesFee).div(100);\n- perodo de validade para as autorizaes de transferncias extraordinrias\n*/\n\n\ncontract FABndesToken is SpecificRBBToken {\n\n    //RBBId donor => true/false (registered or not)\n    mapping (uint => bool) public donors;\n\n    //RBBId client => (idFinancialSupportAgreement Client => true/false (registered or not)\n    mapping (uint => mapping (string => bool)) public clients;\n\n    //RBBId supplier => true/false (registered or not)\n    mapping (uint => bool) public suppliers;\n\n    //Hash of approved ManualInterventionOperationApprovedByOwner\n    bytes32[] public hashManualInterventionOperationApprovedByOwner;\n\n    // BNDES Fee percentage\n    uint256 public bndesFee;    \n\n    string public INITIAL_ALLOCATION = \"INITIAL_ALLOCATION\";\n    string public DISBURSEMENT_VERIFICATION = \"DISBURSEMENT_VERIFICATION\";\n    string public CLIENT_PAY_SUPPLIER_VERIFICATION = \"CLIENT_PAY_SUPPLIER_VERIFICATION\";\n    string public BNDES_PAY_SUPPLIER_VERIFICATION = \"BNDES_PAY_SUPPLIER_VERIFICATION\";\n    string public MANUAL_INTERVENTION = \"MANUAL_INTERVENTION\";\n\n    address public responsibleForDonationConfirmation;\n    address public responsibleForInitialAllocation;\n    address public responsibleForDisbursement;\n    address public resposibleForExtraordinaryTransfers;\n    address public responsibleForSettlement;\n\n    uint8 public RESERVED_NO_ADDITIONAL_FIELDS_TO_HASH = 0;\n    uint8 public RESERVED_MINTED_ACCOUNT = 1;\n    uint8 public RESERVED_USUAL_DISBURSEMENTS_ACCOUNT = 2;\n    uint8 public RESERVED_BNDES_ADMIN_FEE_TO_HASH = 3;\n\n\n\n     using SafeMath for uint;\n   \n    event FA_DonationBooked(uint idDonor, uint amount);\n    event FA_DonationConfirmed(string idDonor, uint amount, string receiptHash);\n\n    event FA_InitialAllocation_Disbursements(uint amount);\n    event FA_InitialAllocation_Fee(uint amount);\n\n    event FA_Disbursement  (uint idClient, string idFinancialSupportAgreement, uint amount);\n    event FA_TokenTransfer (uint fromCnpj, string fromIdFinancialSupportAgreement, uint toCnpj, uint amount);\n        event FA_BNDES_TokenTransfer(uint toCnpj, uint amount);\n    event FA_RedemptionRequested (uint idClaimer, uint amount);\n    event FA_RedemptionSettlement(string redemptionTransactionHash, string receiptHash);\n \n    event FA_ManualIntervention_TransferAllowed (uint fromId, bytes32 fromHash, uint toId, bytes32 toHash, \n            uint amount);\n    event FA_ManualIntervention_Transfer(uint fromId, bytes32 fromHash, uint toId, bytes32 toHash, \n            uint amount);\n    event FA_ManualIntervention_Fee(uint256 percent, string description);\n    event FA_ManualIntervention_RoleOrAddress(address account, uint8 eventType);\n\n    event FA_DonorAdded(uint id);\n    event FA_ClientAdded(uint id);\n    event FA_SupplierAdded(uint registeredBy, uint id);\n\n//TODO: verificar papeis nos metodos abaixo\n    constructor (uint fee) public {\n        require (fee < 100, \"Valor de Fee maior que 100%\");\n\n        responsibleForDonationConfirmation = msg.sender;\n        responsibleForInitialAllocation = msg.sender;\n        responsibleForDisbursement = msg.sender;\n        resposibleForExtraordinaryTransfers = msg.sender;\n        responsibleForSettlement = msg.sender;\n\n        bndesFee = fee;\n    }\n\n\n    function setBNDESFee(uint256 newBndesFee, string memory description) public onlyOwner {\n        require (newBndesFee < 100, \"Valor de Fee maior que 100%\");\n        bndesFee = newBndesFee;\n        emit FA_ManualIntervention_Fee(newBndesFee, description);\n    }\n\n    function addDonor (uint idDonor) public onlyOwner {\n        require(registry.isValidatedId(idDonor), \"Conta de doador precisa estar com cadastro validado\");\n        if(!donors[idDonor]) {\n            donors[idDonor] = true;\n            emit FA_DonorAdded(idDonor);\n        }\n    }\n\n    /* Donor books a donation */\n    function bookDonation(uint amount) public whenNotPaused  {        \n        \n        uint idDonor = registry.getId(msg.sender);\n\n        require (donors[idDonor], \"Somente doadores podem fazer doaes\");\n        require(registry.isValidatedId(idDonor), \"Conta de doador precisa estar com cadastro validado\");\n        \n        bytes32 specificHash = keccak256(abi.encodePacked(RESERVED_NO_ADDITIONAL_FIELDS_TO_HASH));\n        rbbToken.requestMint(specificHash, idDonor, amount);\n\n        emit FA_DonationBooked(idDonor, amount);\n    }\n    \n    /* confirms the donor's donation */\n    function verifyAndActForMint(bytes32 specificHash, uint amount, string[] memory data,\n        string memory docHash) public override whenNotPaused onlyRBBToken {\n\n        require (keccak256(abi.encodePacked(RESERVED_NO_ADDITIONAL_FIELDS_TO_HASH))==specificHash, \"Erro no clculo do hash da doao\");\n\n        string memory idDonor = data[0];\n//        require (donors[idDonor], \"Somente doadores podem fazer doaes, registro estah incorreto\");\n\n//TODO: transformar de string para uint de forma a ter eventos soh com uint\n        emit FA_DonationConfirmed(idDonor, amount, docHash);\n\n    }\n\n    //*********** */\n\n    function getHashToMintedAccount(bytes32 specificHash) override public returns (bytes32) {\n        //There is no difference of specificHash, all money should be minted in the same account\n        return keccak256(abi.encodePacked(RESERVED_MINTED_ACCOUNT));\n    }\n\n\n    function getDisbusementData (string memory idFinancialSupportAgreement) public view\n        returns (bytes32, bytes32, string[] memory)  {\n\n        bytes32 fromHash = keccak256(abi.encodePacked(RESERVED_USUAL_DISBURSEMENTS_ACCOUNT));\n        bytes32 toHash = keccak256(abi.encodePacked(idFinancialSupportAgreement));\n\n        string[] memory data = new string[](2);\n        data[0] = DISBURSEMENT_VERIFICATION;\n        data[1] = idFinancialSupportAgreement;\n        return (fromHash, toHash, data);\n    }\n\n    function getPaySupplierData (string memory idFinancialSupportAgreement) public view\n            returns (bytes32, bytes32, string[] memory) {\n\n        bytes32 fromHash = keccak256(abi.encodePacked(idFinancialSupportAgreement));\n        bytes32 toHash = keccak256(abi.encodePacked(RESERVED_NO_ADDITIONAL_FIELDS_TO_HASH));\n\n        string[] memory data = new string[](2);\n        data[0] = CLIENT_PAY_SUPPLIER_VERIFICATION;\n        data[1] = idFinancialSupportAgreement;\n        return (fromHash, toHash, data);\n    }\n\n\n    function getRedeemData () public \n            returns (bytes32, string[] memory) {\n\n        bytes32 fromHash = keccak256(abi.encodePacked(RESERVED_NO_ADDITIONAL_FIELDS_TO_HASH));\n\n        string[] memory data = new string[](0);\n        return (fromHash, data);\n    }\n\n    //*********** */\n\n\n    function verifyAndActForTransfer(uint fromId, bytes32 fromHash, uint toId, bytes32 toHash, \n            uint amount, string[] memory data) public override whenNotPaused onlyRBBToken {\n\n        string memory specificMethod = data[0];\n\n        require (amount>0, \"Valor a ser transacionado deve ser maior do que zero.\");\n\n\n        if (RBBLib.isEqual(DISBURSEMENT_VERIFICATION, specificMethod)) {\n            verifyAndActForTransfer_DISBURSEMENT(fromId, fromHash, toId, toHash, amount, data);\n        }\n        else if (RBBLib.isEqual(CLIENT_PAY_SUPPLIER_VERIFICATION, specificMethod)) {\n            verifyAndActForTransfer_CLIENT_PAY_SUPPLIER(fromId, fromHash, toId, toHash, amount, data);\n        }\n        else if (RBBLib.isEqual(BNDES_PAY_SUPPLIER_VERIFICATION, specificMethod)) {\n            verifyAndActForTransfer_BNDES_PAY_SUPPLIER(fromId, fromHash, toId, toHash, amount, data);\n        }\n        else if (RBBLib.isEqual(MANUAL_INTERVENTION, specificMethod)) {\n            verifyAndActForTransfer_MANUAL_INTERVENTION(fromId, fromHash, toId, toHash, amount, data);\n        }\n        else {\n            require (false, \"Nenhuma verificao especfica encontrada para a transferncia\");\n        }\n\n    }\n\n\n//TODO: get para isso ADMIN_FEE e na conta de desembolso\n\n//nao checa com msg.sender e sim com sender recebido!!!!!!\n    function verifyAndActForTransfer_INITIAL_ALLOCATION(uint fromId, bytes32 fromHash, uint toId, bytes32 toHash, \n            uint amount, string[] memory data) internal whenNotPaused {\n\n        require (responsibleForInitialAllocation == msg.sender, \"Somente um responsvel pelas alocaes iniciais pode enviar a transao\");\n\n        uint ownerId = registry.getId(owner());\n        require (fromId == ownerId, \"Id de origem da transao no est igual ao do owner do contrato\");\n        require (fromHash == keccak256(abi.encodePacked(RESERVED_MINTED_ACCOUNT)), \"Hash de origem da transao no est correto\");\n\n        require (fromId == toId, \"Id de destino da transao no est igual ao do owner do contrato\");\n        require ((toHash == keccak256(abi.encodePacked(RESERVED_USUAL_DISBURSEMENTS_ACCOUNT))\n         || toHash == keccak256(abi.encodePacked(RESERVED_BNDES_ADMIN_FEE_TO_HASH))\n         ), \"Hash de destino no est correspondente a conta de desembolso ou de adm\");\n\n        if (toHash == keccak256(abi.encodePacked(RESERVED_USUAL_DISBURSEMENTS_ACCOUNT))) {\n            emit FA_InitialAllocation_Disbursements(amount);\n        }\n        else {\n            emit FA_InitialAllocation_Fee(amount);\n        }\n    }\n\n\n//TODO: incluir msg.sender aqui e testar que  o resposibleForSettlement\n    function verifyAndActForTransfer_DISBURSEMENT(uint fromId, bytes32 fromHash, uint toId, bytes32 toHash, \n            uint amount, string[] memory data) internal whenNotPaused {\n    \n        string memory idFinancialSupportAgreement = data[1];\n        uint ownerId = registry.getId(owner());\n\n        //Essa eh uma regra especifica visto que outra organizacao pode ter recebido o token no allocate.\n        require (fromId == ownerId, \"Id de origem da transao no est igual ao do owner do contrato\");\n        require (keccak256(abi.encodePacked(RESERVED_USUAL_DISBURSEMENTS_ACCOUNT))==fromHash, \"Erro no clculo do hash da conta do BNDES\");\n        require (keccak256(abi.encodePacked(idFinancialSupportAgreement))==toHash, \"Erro no clculo do hash da conta do cliente\");\n\n        if (!clients[toId][idFinancialSupportAgreement]) {\n            clients[toId][idFinancialSupportAgreement] = true; //register the client\n            emit FA_ClientAdded(toId);\n\n        }\n\n        emit FA_Disbursement (toId, idFinancialSupportAgreement, amount);\n\n    }\n\n    function verifyAndActForTransfer_CLIENT_PAY_SUPPLIER(uint fromId, bytes32 fromHash, uint toId, bytes32 toHash, \n            uint amount, string[] memory data) internal whenNotPaused {\n    \n        string memory idFinancialSupportAgreement = data[1];\n\n        require (clients[fromId][idFinancialSupportAgreement], \"Somente clientes em contratos cadastrados podem executar o pagamento\");\n        require (keccak256(abi.encodePacked(idFinancialSupportAgreement))==fromHash, \"Erro no clculo do hash da conta do cliente\");\n        require (keccak256(abi.encodePacked(RESERVED_NO_ADDITIONAL_FIELDS_TO_HASH))==toHash, \"Erro no clculo do hash da conta do fornecedor\");\n\n        require(fromId != toId,\n            \"Um CNPJ no pode transferir token para si, ainda que em papis distintos (Cliente/Fornecedor)\");\n\n        if (!suppliers[toId]) {\n            suppliers[toId] = true; //register the supplier\n            emit FA_SupplierAdded(fromId, toId);\n        }\n\n        emit FA_TokenTransfer (fromId, idFinancialSupportAgreement, toId, amount);\n\n    }\n\n\n\n    function verifyAndActForTransfer_BNDES_PAY_SUPPLIER(uint fromId, bytes32 fromHash, uint toId, bytes32 toHash, \n            uint amount, string[] memory data) internal whenNotPaused {\n    \n        require (fromId==registry.getId(owner()), \"Somente o BNDES pode executar o pagamento\");\n        require (keccak256(abi.encodePacked(RESERVED_BNDES_ADMIN_FEE_TO_HASH))==fromHash, \"Erro no clculo do hash da conta de admin do contrato especifico\");\n        require (keccak256(abi.encodePacked(RESERVED_NO_ADDITIONAL_FIELDS_TO_HASH))==toHash, \"Erro no clculo do hash da conta do fornecedor\");\n\n        require(fromId != toId, \"Um BNDES no pode transferir token para si\");\n\n        emit FA_BNDES_TokenTransfer (toId, amount);\n\n    }\n\n    function addSupplier (uint id) public onlyOwner {\n        if (!suppliers[id]) {\n            suppliers[id] = true; //register the supplier\n            emit FA_SupplierAdded(registry.getId(owner()), id);\n        }\n    }\n\n    function verifyAndActForRedeem(uint fromId, bytes32 fromHash, uint amount, string[] memory data) \n        public override whenNotPaused onlyRBBToken {\n\n        require (amount>0, \"Valor a ser transacionado deve ser maior do que zero.\");\n        require (suppliers[fromId], \"Somente fornecedores podem executar o pagamento\");\n        require (keccak256(abi.encodePacked(RESERVED_NO_ADDITIONAL_FIELDS_TO_HASH))==fromHash, \"Erro no clculo do hash da conta do fornecedor\");\n\n        emit FA_RedemptionRequested (fromId, amount);\n\n    }\n\n    function verifyAndActForRedemptionSettlement(string memory redemptionTransactionHash, string memory receiptHash, \n        string[] memory data)\n        public override whenNotPaused onlyRBBToken {\n\n        emit FA_RedemptionSettlement (redemptionTransactionHash, receiptHash);\n    }\n\n    modifier onlyRBBToken() {\n        require (msg.sender==address(rbbToken), \"Esse mtodo s pode ser chamado pelo RBB_Token\");\n        _;\n    }\n\n    \n    //*********** MANUAL INTERVENTION  */\n\n//TODO: ver se todos os hash sao calculados com uma info e mudar por esse metodo\n    function getCalculatedHash (string memory info) public returns (bytes32) {\n        return keccak256(abi.encodePacked(info));\n    }\n\n//TODO: campo de justificativa\n    function authorizeExtraordinaryTransfer (uint fromId, bytes32 fromHash, uint toId, bytes32 toHash, \n            uint amount) public  {\n        \n        require (resposibleForExtraordinaryTransfers == msg.sender, \"Somente um responsvel pelas transferncias extraordinrias por enviar a transao\");  \n        require (hasRoleInThisContract(fromId, fromHash), \"Endereo de origem no includo como papel nesse cadastro\");\n        require (hasRoleInThisContract(toId, toHash), \"Endereo de destino no includo como papel nesse cadastro\");\n\n        bytes32 m = keccak256(abi.encodePacked(fromId, fromHash, toId, toHash, amount));\n        hashManualInterventionOperationApprovedByOwner.push(m);\n\n        emit FA_ManualIntervention_TransferAllowed (fromId, fromHash, toId, toHash, amount);\n\n    }\n   \n    function verifyAndActForTransfer_MANUAL_INTERVENTION(uint fromId, bytes32 fromHash, uint toId, bytes32 toHash, \n            uint amount, string[] memory data) internal whenNotPaused {\n\n        require (hasRoleInThisContract(fromId, fromHash), \"Endereo de origem no includo como papel nesse cadastro\");\n        require (hasRoleInThisContract(toId, toHash), \"Endereo de destino no includo como papel nesse cadastro\");\n\n        string memory idFinancialSupportAgreement = data[1];\n        bytes32 m = keccak256(abi.encodePacked(fromId, fromHash, toId, toHash, amount));\n\n        bool interventionExecuted = false;\n        uint index = 0;\n        for (; index<hashManualInterventionOperationApprovedByOwner.length; index++) {\n            if (hashManualInterventionOperationApprovedByOwner[index] == m) {\n                interventionExecuted = true;\n                break;\n            }\n        }\n\n        require (interventionExecuted, \"Interveno manual no previamente cadastrada\");\n\n        hashManualInterventionOperationApprovedByOwner[index] \n            = hashManualInterventionOperationApprovedByOwner [hashManualInterventionOperationApprovedByOwner.length-1];\n        hashManualInterventionOperationApprovedByOwner.pop();\n\n        emit FA_ManualIntervention_Transfer (fromId, fromHash, toId, toHash, amount);\n\n    }\n\n    function hasRoleInThisContract (uint rbbId, bytes32 hashToAccount) private returns (bool) {\n\n        bool hasRole = false;\n        if (donors[rbbId]==true) return true;\n\n//TODO: resolver\n//        if (clients[rbbId]!=0) return true;\n        if (suppliers[rbbId]==true) return true;\n\n        uint ownerId = registry.getId(owner());\n        if (ownerId == rbbId) return true;\n\n        uint rbbTokenOwnerId = registry.getId(rbbToken.owner());\n        if (rbbTokenOwnerId == rbbId) return true;\n\n        return false;\n    }\n\n\n /**\n    * By default, the owner is also the Responsible for Donation Confirmation. \n    * The owner can assign other address to be the Responsible for Donation Confirmation. \n    * @param rs Ethereum address to be assigned as Responsible for Donation Confirmation.\n    */\n    function setResponsibleForDonationConfirmation(address rs) onlyOwner public {\n        uint id = registry.getId(rs);\n        require(id==registry.getId(owner()), \"O responsvel pela confirmao doao deve ser da mesmo RBB_ID do contrato\");\n        responsibleForDonationConfirmation = rs;\n        emit FA_ManualIntervention_RoleOrAddress(rs, 1);\n    }\n\n   /**\n    * By default, the owner is also the Responsible for Initial Allocation. \n    * The owner can assign other address to be the Responsible for Initial Allocation. \n    * @param rs Ethereum address to be assigned as Responsible for Initial Allocation.\n    */\n    function setResponsibleForInitialAllocation(address rs) onlyOwner public {\n        uint id = registry.getId(rs);\n        require(id==registry.getId(owner()), \"O responsvel pela alocao inicial deve ser da mesmo RBB_ID do contrato\");\n        responsibleForInitialAllocation = rs;\n        emit FA_ManualIntervention_RoleOrAddress(rs, 2);\n    }\n\n   /**\n    * By default, the owner is also the Responsible for Disbursment. \n    * The owner can assign other address to be the Responsible for Disbursment. \n    * @param rs Ethereum address to be assigned as Responsible for Disbursment.\n    */\n    function setResponsibleForDisbursement(address rs) onlyOwner public {\n        uint id = registry.getId(rs);\n        require(id==registry.getId(owner()), \"O responsvel pelo desembolso deve ser da mesmo RBB_ID do contrato\");\n        responsibleForDisbursement = rs;\n        emit FA_ManualIntervention_RoleOrAddress(rs, 3);\n    }\n\n   /**\n    * By default, the owner is also the Responsible for Extraordinary Transfers. \n    * The owner can assign other address to be the Resposible Extraordinary Transfers. \n    * @param rs Ethereum address to be assigned as Responsible for Extraordinary Transfers.\n    */\n    function setResposibleForExtraordinaryTransfers(address rs) onlyOwner public {\n        uint id = registry.getId(rs);\n        require(id==registry.getId(owner()), \"O responsvel pelo cadastramento de transferencias extraordinrias deve ser da mesmo RBB_ID do contrato\");\n        resposibleForExtraordinaryTransfers = rs;\n        emit FA_ManualIntervention_RoleOrAddress(rs, 4);\n    }\n\n   /**\n    * By default, the owner is also the Responsible for Settlement. \n    * The owner can assign other address to be the Responsible for Settlement. \n    * @param rs Ethereum address to be assigned as Responsible for Settlement.\n    */\n    function setResponsibleForSettlement(address rs) onlyOwner public {\n        uint id = registry.getId(rs);\n        require(id==registry.getId(owner()), \"O responsvel pela liquidao deve ser da mesmo RBB_ID do contrato\");\n        responsibleForSettlement = rs;\n        emit FA_ManualIntervention_RoleOrAddress(rs, 5);\n    }\n\n\n}",
  "sourcePath": "/Users/suzana.moreno/workspace/rbb-token/Back-Blockchain/contracts/FABndesToken.sol",
  "compiler": {
    "name": "solc",
    "version": "0.6.12+commit.27d51765.Emscripten.clang"
  },
  "schemaVersion": "3.2.5",
  "updatedAt": "2020-09-24T16:57:57.098Z",
  "devdoc": {
    "kind": "dev",
    "methods": {
      "isOwner()": {
        "details": "Returns true if the caller is the current owner."
      },
      "owner()": {
        "details": "Returns the address of the current owner."
      },
      "pause()": {
        "details": "Called by a pauser to pause, triggers stopped state."
      },
      "paused()": {
        "details": "Returns true if the contract is paused, and false otherwise."
      },
      "renounceOwnership()": {
        "details": "Leaves the contract without owner. It will not be possible to call `onlyOwner` functions anymore. Can only be called by the current owner. NOTE: Renouncing ownership will leave the contract without an owner, thereby removing any functionality that is only available to the owner."
      },
      "setResponsibleForDisbursement(address)": {
        "params": {
          "rs": "Ethereum address to be assigned as Responsible for Disbursment."
        }
      },
      "setResponsibleForDonationConfirmation(address)": {
        "params": {
          "rs": "Ethereum address to be assigned as Responsible for Donation Confirmation."
        }
      },
      "setResponsibleForInitialAllocation(address)": {
        "params": {
          "rs": "Ethereum address to be assigned as Responsible for Initial Allocation."
        }
      },
      "setResponsibleForSettlement(address)": {
        "params": {
          "rs": "Ethereum address to be assigned as Responsible for Settlement."
        }
      },
      "setResposibleForExtraordinaryTransfers(address)": {
        "params": {
          "rs": "Ethereum address to be assigned as Responsible for Extraordinary Transfers."
        }
      },
      "transferOwnership(address)": {
        "details": "Transfers ownership of the contract to a new account (`newOwner`). Can only be called by the current owner."
      },
      "unpause()": {
        "details": "Called by a pauser to unpause, returns to normal state."
      }
    },
    "version": 1
  },
  "userdoc": {
    "kind": "user",
    "methods": {
      "setResponsibleForDisbursement(address)": {
        "notice": "By default, the owner is also the Responsible for Disbursment.  The owner can assign other address to be the Responsible for Disbursment. "
      },
      "setResponsibleForDonationConfirmation(address)": {
        "notice": "By default, the owner is also the Responsible for Donation Confirmation.  The owner can assign other address to be the Responsible for Donation Confirmation. "
      },
      "setResponsibleForInitialAllocation(address)": {
        "notice": "By default, the owner is also the Responsible for Initial Allocation.  The owner can assign other address to be the Responsible for Initial Allocation. "
      },
      "setResponsibleForSettlement(address)": {
        "notice": "By default, the owner is also the Responsible for Settlement.  The owner can assign other address to be the Responsible for Settlement. "
      },
      "setResposibleForExtraordinaryTransfers(address)": {
        "notice": "By default, the owner is also the Responsible for Extraordinary Transfers.  The owner can assign other address to be the Resposible Extraordinary Transfers. "
      }
    },
    "version": 1
  }
}