{
  "contractName": "FABndesToken_GetDataToCall",
  "abi": [
    {
      "inputs": [
        {
          "internalType": "address",
          "name": "addr",
          "type": "address"
        }
      ],
      "stateMutability": "nonpayable",
      "type": "constructor"
    },
    {
      "inputs": [],
      "name": "getInitialAllocationToDisbusementData",
      "outputs": [
        {
          "internalType": "bytes32",
          "name": "",
          "type": "bytes32"
        },
        {
          "internalType": "bytes32",
          "name": "",
          "type": "bytes32"
        },
        {
          "internalType": "string[]",
          "name": "",
          "type": "string[]"
        }
      ],
      "stateMutability": "view",
      "type": "function",
      "constant": true
    },
    {
      "inputs": [],
      "name": "getInitialAllocationToChargeFeeData",
      "outputs": [
        {
          "internalType": "bytes32",
          "name": "",
          "type": "bytes32"
        },
        {
          "internalType": "bytes32",
          "name": "",
          "type": "bytes32"
        },
        {
          "internalType": "string[]",
          "name": "",
          "type": "string[]"
        }
      ],
      "stateMutability": "view",
      "type": "function",
      "constant": true
    },
    {
      "inputs": [
        {
          "internalType": "string",
          "name": "idFinancialSupportAgreement",
          "type": "string"
        }
      ],
      "name": "getDisbusementData",
      "outputs": [
        {
          "internalType": "bytes32",
          "name": "",
          "type": "bytes32"
        },
        {
          "internalType": "bytes32",
          "name": "",
          "type": "bytes32"
        },
        {
          "internalType": "string[]",
          "name": "",
          "type": "string[]"
        }
      ],
      "stateMutability": "view",
      "type": "function",
      "constant": true
    },
    {
      "inputs": [
        {
          "internalType": "string",
          "name": "idFinancialSupportAgreement",
          "type": "string"
        }
      ],
      "name": "getClientPaySupplierData",
      "outputs": [
        {
          "internalType": "bytes32",
          "name": "",
          "type": "bytes32"
        },
        {
          "internalType": "bytes32",
          "name": "",
          "type": "bytes32"
        },
        {
          "internalType": "string[]",
          "name": "",
          "type": "string[]"
        }
      ],
      "stateMutability": "view",
      "type": "function",
      "constant": true
    },
    {
      "inputs": [],
      "name": "getBNDESPaySupplierData",
      "outputs": [
        {
          "internalType": "bytes32",
          "name": "",
          "type": "bytes32"
        },
        {
          "internalType": "bytes32",
          "name": "",
          "type": "bytes32"
        },
        {
          "internalType": "string[]",
          "name": "",
          "type": "string[]"
        }
      ],
      "stateMutability": "view",
      "type": "function",
      "constant": true
    },
    {
      "inputs": [],
      "name": "getRedeemData",
      "outputs": [
        {
          "internalType": "bytes32",
          "name": "",
          "type": "bytes32"
        },
        {
          "internalType": "string[]",
          "name": "",
          "type": "string[]"
        }
      ],
      "stateMutability": "view",
      "type": "function",
      "constant": true
    },
    {
      "inputs": [
        {
          "internalType": "uint256",
          "name": "info",
          "type": "uint256"
        }
      ],
      "name": "getCalculatedHash",
      "outputs": [
        {
          "internalType": "bytes32",
          "name": "",
          "type": "bytes32"
        }
      ],
      "stateMutability": "pure",
      "type": "function",
      "constant": true
    },
    {
      "inputs": [
        {
          "internalType": "string",
          "name": "info",
          "type": "string"
        }
      ],
      "name": "getCalculatedHash",
      "outputs": [
        {
          "internalType": "bytes32",
          "name": "",
          "type": "bytes32"
        }
      ],
      "stateMutability": "pure",
      "type": "function",
      "constant": true
    }
  ],
  "bytecode": "0x60806040523480156200001157600080fd5b50604051620014d4380380620014d4833981810160405281019062000037919062000095565b806000806101000a81548173ffffffffffffffffffffffffffffffffffffffff021916908373ffffffffffffffffffffffffffffffffffffffff160217905550506200010f565b6000815190506200008f81620000f5565b92915050565b600060208284031215620000a857600080fd5b6000620000b8848285016200007e565b91505092915050565b6000620000ce82620000d5565b9050919050565b600073ffffffffffffffffffffffffffffffffffffffff82169050919050565b6200010081620000c1565b81146200010c57600080fd5b50565b6113b5806200011f6000396000f3fe608060405234801561001057600080fd5b50600436106100885760003560e01c80638e1b808a1161005b5780638e1b808a1461011f578063942429e41461013e578063cc70091a1461016e578063ee33b0bc1461019e57610088565b806302fce6991461008d5780630c9415b5146100ad578063618547a9146100df5780636c4282da146100ff575b600080fd5b6100956101d0565b6040516100a4939291906111dc565b60405180910390f35b6100c760048036038101906100c29190610f72565b61044c565b6040516100d6939291906111dc565b60405180910390f35b6100e7610643565b6040516100f6939291906111dc565b60405180910390f35b6101076108bf565b604051610116939291906111dc565b60405180910390f35b610127610b3b565b6040516101359291906111ac565b60405180910390f35b61015860048036038101906101539190610ff4565b610c49565b6040516101659190611191565b60405180910390f35b61018860048036038101906101839190610f72565b610c79565b6040516101959190611191565b60405180910390f35b6101b860048036038101906101b39190610f72565b610ca9565b6040516101c7939291906111dc565b60405180910390f35b6000806060600061028060008054906101000a900473ffffffffffffffffffffffffffffffffffffffff1673ffffffffffffffffffffffffffffffffffffffff16630715aa6e6040518163ffffffff1660e01b815260040160206040518083038186803b15801561024057600080fd5b505afa158015610254573d6000803e3d6000fd5b505050506040513d601f19601f82011682018060405250810190610278919061101d565b60ff16610c49565b9050600061032d60008054906101000a900473ffffffffffffffffffffffffffffffffffffffff1673ffffffffffffffffffffffffffffffffffffffff166324547b8a6040518163ffffffff1660e01b815260040160206040518083038186803b1580156102ed57600080fd5b505afa158015610301573d6000803e3d6000fd5b505050506040513d601f19601f82011682018060405250810190610325919061101d565b60ff16610c49565b90506060600167ffffffffffffffff8111801561034957600080fd5b5060405190808252806020026020018201604052801561037d57816020015b60608152602001906001900390816103685790505b50905060008054906101000a900473ffffffffffffffffffffffffffffffffffffffff1673ffffffffffffffffffffffffffffffffffffffff166307728f0f6040518163ffffffff1660e01b815260040160006040518083038186803b1580156103e657600080fd5b505afa1580156103fa573d6000803e3d6000fd5b505050506040513d6000823e3d601f19601f820116820180604052508101906104239190610fb3565b8160008151811061043057fe5b6020026020010181905250828282955095509550505050909192565b6000806060600061045c85610c79565b9050600061050960008054906101000a900473ffffffffffffffffffffffffffffffffffffffff1673ffffffffffffffffffffffffffffffffffffffff16638404e6e06040518163ffffffff1660e01b815260040160206040518083038186803b1580156104c957600080fd5b505afa1580156104dd573d6000803e3d6000fd5b505050506040513d601f19601f82011682018060405250810190610501919061101d565b60ff16610c49565b90506060600267ffffffffffffffff8111801561052557600080fd5b5060405190808252806020026020018201604052801561055957816020015b60608152602001906001900390816105445790505b50905060008054906101000a900473ffffffffffffffffffffffffffffffffffffffff1673ffffffffffffffffffffffffffffffffffffffff166367da3e856040518163ffffffff1660e01b815260040160006040518083038186803b1580156105c257600080fd5b505afa1580156105d6573d6000803e3d6000fd5b505050506040513d6000823e3d601f19601f820116820180604052508101906105ff9190610fb3565b8160008151811061060c57fe5b6020026020010181905250868160018151811061062557fe5b60200260200101819052508282829550955095505050509193909250565b600080606060006106f360008054906101000a900473ffffffffffffffffffffffffffffffffffffffff1673ffffffffffffffffffffffffffffffffffffffff16630715aa6e6040518163ffffffff1660e01b815260040160206040518083038186803b1580156106b357600080fd5b505afa1580156106c7573d6000803e3d6000fd5b505050506040513d601f19601f820116820180604052508101906106eb919061101d565b60ff16610c49565b905060006107a060008054906101000a900473ffffffffffffffffffffffffffffffffffffffff1673ffffffffffffffffffffffffffffffffffffffff16636f3050676040518163ffffffff1660e01b815260040160206040518083038186803b15801561076057600080fd5b505afa158015610774573d6000803e3d6000fd5b505050506040513d601f19601f82011682018060405250810190610798919061101d565b60ff16610c49565b90506060600167ffffffffffffffff811180156107bc57600080fd5b506040519080825280602002602001820160405280156107f057816020015b60608152602001906001900390816107db5790505b50905060008054906101000a900473ffffffffffffffffffffffffffffffffffffffff1673ffffffffffffffffffffffffffffffffffffffff166307728f0f6040518163ffffffff1660e01b815260040160006040518083038186803b15801561085957600080fd5b505afa15801561086d573d6000803e3d6000fd5b505050506040513d6000823e3d601f19601f820116820180604052508101906108969190610fb3565b816000815181106108a357fe5b6020026020010181905250828282955095509550505050909192565b6000806060600061096f60008054906101000a900473ffffffffffffffffffffffffffffffffffffffff1673ffffffffffffffffffffffffffffffffffffffff16636f3050676040518163ffffffff1660e01b815260040160206040518083038186803b15801561092f57600080fd5b505afa158015610943573d6000803e3d6000fd5b505050506040513d601f19601f82011682018060405250810190610967919061101d565b60ff16610c49565b90506000610a1c60008054906101000a900473ffffffffffffffffffffffffffffffffffffffff1673ffffffffffffffffffffffffffffffffffffffff16638404e6e06040518163ffffffff1660e01b815260040160206040518083038186803b1580156109dc57600080fd5b505afa1580156109f0573d6000803e3d6000fd5b505050506040513d601f19601f82011682018060405250810190610a14919061101d565b60ff16610c49565b90506060600167ffffffffffffffff81118015610a3857600080fd5b50604051908082528060200260200182016040528015610a6c57816020015b6060815260200190600190039081610a575790505b50905060008054906101000a900473ffffffffffffffffffffffffffffffffffffffff1673ffffffffffffffffffffffffffffffffffffffff1663fc4b505d6040518163ffffffff1660e01b815260040160006040518083038186803b158015610ad557600080fd5b505afa158015610ae9573d6000803e3d6000fd5b505050506040513d6000823e3d601f19601f82011682018060405250810190610b129190610fb3565b81600081518110610b1f57fe5b6020026020010181905250828282955095509550505050909192565b600060606000610bea60008054906101000a900473ffffffffffffffffffffffffffffffffffffffff1673ffffffffffffffffffffffffffffffffffffffff16638404e6e06040518163ffffffff1660e01b815260040160206040518083038186803b158015610baa57600080fd5b505afa158015610bbe573d6000803e3d6000fd5b505050506040513d601f19601f82011682018060405250810190610be2919061101d565b60ff16610c49565b90506060600067ffffffffffffffff81118015610c0657600080fd5b50604051908082528060200260200182016040528015610c3a57816020015b6060815260200190600190039081610c255790505b50905081819350935050509091565b600081604051602001610c5c9190611176565b604051602081830303815290604052805190602001209050919050565b600081604051602001610c8c919061115f565b604051602081830303815290604052805190602001209050919050565b60008060606000610d5960008054906101000a900473ffffffffffffffffffffffffffffffffffffffff1673ffffffffffffffffffffffffffffffffffffffff166324547b8a6040518163ffffffff1660e01b815260040160206040518083038186803b158015610d1957600080fd5b505afa158015610d2d573d6000803e3d6000fd5b505050506040513d601f19601f82011682018060405250810190610d51919061101d565b60ff16610c49565b90506000610d6686610c79565b90506060600267ffffffffffffffff81118015610d8257600080fd5b50604051908082528060200260200182016040528015610db657816020015b6060815260200190600190039081610da15790505b50905060008054906101000a900473ffffffffffffffffffffffffffffffffffffffff1673ffffffffffffffffffffffffffffffffffffffff16638e6694816040518163ffffffff1660e01b815260040160006040518083038186803b158015610e1f57600080fd5b505afa158015610e33573d6000803e3d6000fd5b505050506040513d6000823e3d601f19601f82011682018060405250810190610e5c9190610fb3565b81600081518110610e6957fe5b60200260200101819052508681600181518110610e8257fe5b60200260200101819052508282829550955095505050509193909250565b600082601f830112610eb157600080fd5b8135610ec4610ebf82611247565b61121a565b91508082526020830160208301858383011115610ee057600080fd5b610eeb8382846112f4565b50505092915050565b600082601f830112610f0557600080fd5b8151610f18610f1382611247565b61121a565b91508082526020830160208301858383011115610f3457600080fd5b610f3f838284611303565b50505092915050565b600081359050610f5781611351565b92915050565b600081519050610f6c81611368565b92915050565b600060208284031215610f8457600080fd5b600082013567ffffffffffffffff811115610f9e57600080fd5b610faa84828501610ea0565b91505092915050565b600060208284031215610fc557600080fd5b600082015167ffffffffffffffff811115610fdf57600080fd5b610feb84828501610ef4565b91505092915050565b60006020828403121561100657600080fd5b600061101484828501610f48565b91505092915050565b60006020828403121561102f57600080fd5b600061103d84828501610f5d565b91505092915050565b600061105283836110de565b905092915050565b600061106582611283565b61106f81856112a6565b93508360208202850161108185611273565b8060005b858110156110bd578484038952815161109e8582611046565b94506110a983611299565b925060208a01995050600181019050611085565b50829750879550505050505092915050565b6110d8816112d3565b82525050565b60006110e98261128e565b6110f381856112b7565b9350611103818560208601611303565b61110c81611340565b840191505092915050565b60006111228261128e565b61112c81856112c8565b935061113c818560208601611303565b80840191505092915050565b611159611154826112dd565b611336565b82525050565b600061116b8284611117565b915081905092915050565b60006111828284611148565b60208201915081905092915050565b60006020820190506111a660008301846110cf565b92915050565b60006040820190506111c160008301856110cf565b81810360208301526111d3818461105a565b90509392505050565b60006060820190506111f160008301866110cf565b6111fe60208301856110cf565b8181036040830152611210818461105a565b9050949350505050565b6000604051905081810181811067ffffffffffffffff8211171561123d57600080fd5b8060405250919050565b600067ffffffffffffffff82111561125e57600080fd5b601f19601f8301169050602081019050919050565b6000819050602082019050919050565b600081519050919050565b600081519050919050565b6000602082019050919050565b600082825260208201905092915050565b600082825260208201905092915050565b600081905092915050565b6000819050919050565b6000819050919050565b600060ff82169050919050565b82818337600083830152505050565b60005b83811015611321578082015181840152602081019050611306565b83811115611330576000848401525b50505050565b6000819050919050565b6000601f19601f8301169050919050565b61135a816112dd565b811461136557600080fd5b50565b611371816112e7565b811461137c57600080fd5b5056fea2646970667358221220e739879776dd951d296c7b9b991e6e56c2a78e6df12994717e02003f7c9f4c2564736f6c634300060c0033",
  "immutableReferences": {},
  "source": "pragma solidity ^0.6.0;\npragma experimental ABIEncoderV2;\n\nimport \"./FABndesToken.sol\";\n\n\ncontract FABndesToken_GetDataToCall  {\n\n    FABndesToken faBndesToken;\n\n    constructor (address addr) public {\n        faBndesToken = FABndesToken(addr);\n    }\n\n    function getInitialAllocationToDisbusementData () public view\n        returns (bytes32, bytes32, string[] memory)  {\n\n        bytes32 fromHash = getCalculatedHash(faBndesToken.RESERVED_MINTED_ACCOUNT());\n        bytes32 toHash = getCalculatedHash(faBndesToken.RESERVED_USUAL_DISBURSEMENTS_ACCOUNT());\n\n        string[] memory data = new string[](1);\n        data[0] = faBndesToken.INITIAL_ALLOCATION();\n        return (fromHash, toHash, data);\n    }\n\n    function getInitialAllocationToChargeFeeData () public view\n        returns (bytes32, bytes32, string[] memory)  {\n\n        bytes32 fromHash = getCalculatedHash(faBndesToken.RESERVED_MINTED_ACCOUNT());\n        bytes32 toHash = getCalculatedHash(faBndesToken.RESERVED_BNDES_ADMIN_FEE_TO_HASH());\n\n        string[] memory data = new string[](1);\n        data[0] = faBndesToken.INITIAL_ALLOCATION();\n        return (fromHash, toHash, data);\n    }\n\n    function getDisbusementData (string memory idFinancialSupportAgreement) public view\n        returns (bytes32, bytes32, string[] memory)  {\n\n        bytes32 fromHash = getCalculatedHash(faBndesToken.RESERVED_USUAL_DISBURSEMENTS_ACCOUNT());\n        bytes32 toHash = getCalculatedHash(idFinancialSupportAgreement);\n\n        string[] memory data = new string[](2);\n        data[0] = faBndesToken.DISBURSEMENT_VERIFICATION();\n        data[1] = idFinancialSupportAgreement;\n        return (fromHash, toHash, data);\n    }\n\n    function getClientPaySupplierData (string memory idFinancialSupportAgreement) public view\n            returns (bytes32, bytes32, string[] memory) {\n\n        bytes32 fromHash = getCalculatedHash(idFinancialSupportAgreement);\n        bytes32 toHash = getCalculatedHash(faBndesToken.RESERVED_NO_ADDITIONAL_FIELDS_TO_SUPPLIER());\n\n        string[] memory data = new string[](2);\n        data[0] = faBndesToken.CLIENT_PAY_SUPPLIER_VERIFICATION();\n        data[1] = idFinancialSupportAgreement;\n        return (fromHash, toHash, data);\n    }\n\n    function getBNDESPaySupplierData () public view\n            returns (bytes32, bytes32, string[] memory) {\n\n        bytes32 fromHash = getCalculatedHash(faBndesToken.RESERVED_BNDES_ADMIN_FEE_TO_HASH());\n        bytes32 toHash = getCalculatedHash(faBndesToken.RESERVED_NO_ADDITIONAL_FIELDS_TO_SUPPLIER());\n\n        string[] memory data = new string[](1);\n        data[0] = faBndesToken.BNDES_PAY_SUPPLIER_VERIFICATION();\n        return (fromHash, toHash, data);\n    }\n\n    function getRedeemData () view public \n            returns (bytes32, string[] memory) {\n\n        bytes32 fromHash = getCalculatedHash(faBndesToken.RESERVED_NO_ADDITIONAL_FIELDS_TO_SUPPLIER());\n\n        string[] memory data = new string[](0);\n        return (fromHash, data);\n    }\n\n    //Não criei getNotifyRedepmtion data porque não tinha nada especifico a fazer.\n\n    function getCalculatedHash (uint info) public pure returns (bytes32) {\n        return keccak256(abi.encodePacked(info));\n    }\n    function getCalculatedHash (string memory info) public pure returns (bytes32) {\n        return keccak256(abi.encodePacked(info));\n    }\n\n\n}\n\n\n",
  "sourcePath": "/Users/suzana.moreno/workspace/rbb-token/Back-Blockchain/contracts/FABndesToken_GetDataToCall.sol",
  "compiler": {
    "name": "solc",
    "version": "0.6.12+commit.27d51765.Emscripten.clang"
  },
  "schemaVersion": "3.2.5",
  "updatedAt": "2020-10-02T20:24:33.914Z",
  "networkType": "ethereum",
  "devdoc": {
    "kind": "dev",
    "methods": {},
    "version": 1
  },
  "userdoc": {
    "kind": "user",
    "methods": {},
    "version": 1
  }
}