{
  "contractName": "FABndesToken",
  "abi": [
    {
      "inputs": [
        {
          "internalType": "uint256",
          "name": "fee",
          "type": "uint256"
        }
      ],
      "stateMutability": "nonpayable",
      "type": "constructor"
    },
    {
      "anonymous": false,
      "inputs": [
        {
          "indexed": false,
          "internalType": "string",
          "name": "idDonor",
          "type": "string"
        },
        {
          "indexed": false,
          "internalType": "uint256",
          "name": "amount",
          "type": "uint256"
        }
      ],
      "name": "FA_AdmFeeCharged",
      "type": "event"
    },
    {
      "anonymous": false,
      "inputs": [
        {
          "indexed": false,
          "internalType": "uint256",
          "name": "id",
          "type": "uint256"
        }
      ],
      "name": "FA_ClientAdded",
      "type": "event"
    },
    {
      "anonymous": false,
      "inputs": [
        {
          "indexed": false,
          "internalType": "uint256",
          "name": "idClient",
          "type": "uint256"
        },
        {
          "indexed": false,
          "internalType": "string",
          "name": "idFinancialSupportAgreement",
          "type": "string"
        },
        {
          "indexed": false,
          "internalType": "uint256",
          "name": "amount",
          "type": "uint256"
        }
      ],
      "name": "FA_Disbursement",
      "type": "event"
    },
    {
      "anonymous": false,
      "inputs": [
        {
          "indexed": false,
          "internalType": "uint256",
          "name": "idDonor",
          "type": "uint256"
        },
        {
          "indexed": false,
          "internalType": "uint256",
          "name": "amount",
          "type": "uint256"
        }
      ],
      "name": "FA_DonationBooked",
      "type": "event"
    },
    {
      "anonymous": false,
      "inputs": [
        {
          "indexed": false,
          "internalType": "string",
          "name": "idDonor",
          "type": "string"
        },
        {
          "indexed": false,
          "internalType": "uint256",
          "name": "amount",
          "type": "uint256"
        },
        {
          "indexed": false,
          "internalType": "string",
          "name": "receiptHash",
          "type": "string"
        }
      ],
      "name": "FA_DonationConfirmed",
      "type": "event"
    },
    {
      "anonymous": false,
      "inputs": [
        {
          "indexed": false,
          "internalType": "uint256",
          "name": "id",
          "type": "uint256"
        }
      ],
      "name": "FA_DonorAdded",
      "type": "event"
    },
    {
      "anonymous": false,
      "inputs": [
        {
          "indexed": false,
          "internalType": "uint256",
          "name": "percent",
          "type": "uint256"
        },
        {
          "indexed": false,
          "internalType": "string",
          "name": "description",
          "type": "string"
        }
      ],
      "name": "FA_ManualIntervention_Fee",
      "type": "event"
    },
    {
      "anonymous": false,
      "inputs": [
        {
          "indexed": false,
          "internalType": "uint256",
          "name": "idClaimer",
          "type": "uint256"
        },
        {
          "indexed": false,
          "internalType": "uint256",
          "name": "amount",
          "type": "uint256"
        }
      ],
      "name": "FA_RedemptionRequested",
      "type": "event"
    },
    {
      "anonymous": false,
      "inputs": [
        {
          "indexed": false,
          "internalType": "string",
          "name": "redemptionTransactionHash",
          "type": "string"
        },
        {
          "indexed": false,
          "internalType": "string",
          "name": "receiptHash",
          "type": "string"
        }
      ],
      "name": "FA_RedemptionSettlement",
      "type": "event"
    },
    {
      "anonymous": false,
      "inputs": [
        {
          "indexed": false,
          "internalType": "uint256",
          "name": "id",
          "type": "uint256"
        }
      ],
      "name": "FA_SupplierAdded",
      "type": "event"
    },
    {
      "anonymous": false,
      "inputs": [
        {
          "indexed": false,
          "internalType": "uint256",
          "name": "fromCnpj",
          "type": "uint256"
        },
        {
          "indexed": false,
          "internalType": "string",
          "name": "fromIdFinancialSupportAgreement",
          "type": "string"
        },
        {
          "indexed": false,
          "internalType": "uint256",
          "name": "toCnpj",
          "type": "uint256"
        },
        {
          "indexed": false,
          "internalType": "uint256",
          "name": "amount",
          "type": "uint256"
        }
      ],
      "name": "FA_TokenTransfer",
      "type": "event"
    },
    {
      "anonymous": false,
      "inputs": [
        {
          "indexed": false,
          "internalType": "address",
          "name": "account",
          "type": "address"
        },
        {
          "indexed": false,
          "internalType": "uint8",
          "name": "eventType",
          "type": "uint8"
        }
      ],
      "name": "ManualIntervention_RoleOrAddress",
      "type": "event"
    },
    {
      "anonymous": false,
      "inputs": [
        {
          "indexed": true,
          "internalType": "address",
          "name": "previousOwner",
          "type": "address"
        },
        {
          "indexed": true,
          "internalType": "address",
          "name": "newOwner",
          "type": "address"
        }
      ],
      "name": "OwnershipTransferred",
      "type": "event"
    },
    {
      "anonymous": false,
      "inputs": [
        {
          "indexed": false,
          "internalType": "address",
          "name": "account",
          "type": "address"
        }
      ],
      "name": "Paused",
      "type": "event"
    },
    {
      "anonymous": false,
      "inputs": [
        {
          "indexed": true,
          "internalType": "address",
          "name": "account",
          "type": "address"
        }
      ],
      "name": "PauserAdded",
      "type": "event"
    },
    {
      "anonymous": false,
      "inputs": [
        {
          "indexed": true,
          "internalType": "address",
          "name": "account",
          "type": "address"
        }
      ],
      "name": "PauserRemoved",
      "type": "event"
    },
    {
      "anonymous": false,
      "inputs": [
        {
          "indexed": false,
          "internalType": "address",
          "name": "account",
          "type": "address"
        }
      ],
      "name": "Unpaused",
      "type": "event"
    },
    {
      "inputs": [],
      "name": "DISBURSEMENT_VERIFICATION",
      "outputs": [
        {
          "internalType": "string",
          "name": "",
          "type": "string"
        }
      ],
      "stateMutability": "view",
      "type": "function"
    },
    {
      "inputs": [],
      "name": "MANUAL_INTERVENTION",
      "outputs": [
        {
          "internalType": "string",
          "name": "",
          "type": "string"
        }
      ],
      "stateMutability": "view",
      "type": "function"
    },
    {
      "inputs": [],
      "name": "PAY_SUPPLIER_VERIFICATION",
      "outputs": [
        {
          "internalType": "string",
          "name": "",
          "type": "string"
        }
      ],
      "stateMutability": "view",
      "type": "function"
    },
    {
      "inputs": [],
      "name": "RESERVED_NO_ADDITIONAL_FIELD_TO_HASH",
      "outputs": [
        {
          "internalType": "uint8",
          "name": "",
          "type": "uint8"
        }
      ],
      "stateMutability": "view",
      "type": "function"
    },
    {
      "inputs": [
        {
          "internalType": "address",
          "name": "account",
          "type": "address"
        }
      ],
      "name": "addPauser",
      "outputs": [],
      "stateMutability": "nonpayable",
      "type": "function"
    },
    {
      "inputs": [],
      "name": "bndesFee",
      "outputs": [
        {
          "internalType": "uint256",
          "name": "",
          "type": "uint256"
        }
      ],
      "stateMutability": "view",
      "type": "function"
    },
    {
      "inputs": [
        {
          "internalType": "uint256",
          "name": "",
          "type": "uint256"
        },
        {
          "internalType": "string",
          "name": "",
          "type": "string"
        }
      ],
      "name": "clients",
      "outputs": [
        {
          "internalType": "bool",
          "name": "",
          "type": "bool"
        }
      ],
      "stateMutability": "view",
      "type": "function"
    },
    {
      "inputs": [
        {
          "internalType": "uint256",
          "name": "",
          "type": "uint256"
        }
      ],
      "name": "hashManualInterventionOperationApprovedByOwner",
      "outputs": [
        {
          "internalType": "bytes32",
          "name": "",
          "type": "bytes32"
        }
      ],
      "stateMutability": "view",
      "type": "function"
    },
    {
      "inputs": [],
      "name": "isOwner",
      "outputs": [
        {
          "internalType": "bool",
          "name": "",
          "type": "bool"
        }
      ],
      "stateMutability": "view",
      "type": "function"
    },
    {
      "inputs": [
        {
          "internalType": "address",
          "name": "account",
          "type": "address"
        }
      ],
      "name": "isPauser",
      "outputs": [
        {
          "internalType": "bool",
          "name": "",
          "type": "bool"
        }
      ],
      "stateMutability": "view",
      "type": "function"
    },
    {
      "inputs": [],
      "name": "owner",
      "outputs": [
        {
          "internalType": "address",
          "name": "",
          "type": "address"
        }
      ],
      "stateMutability": "view",
      "type": "function"
    },
    {
      "inputs": [],
      "name": "pause",
      "outputs": [],
      "stateMutability": "nonpayable",
      "type": "function"
    },
    {
      "inputs": [],
      "name": "paused",
      "outputs": [
        {
          "internalType": "bool",
          "name": "",
          "type": "bool"
        }
      ],
      "stateMutability": "view",
      "type": "function"
    },
    {
      "inputs": [],
      "name": "rbbToken",
      "outputs": [
        {
          "internalType": "contract RBBToken",
          "name": "",
          "type": "address"
        }
      ],
      "stateMutability": "view",
      "type": "function"
    },
    {
      "inputs": [],
      "name": "registry",
      "outputs": [
        {
          "internalType": "contract RBBRegistry",
          "name": "",
          "type": "address"
        }
      ],
      "stateMutability": "view",
      "type": "function"
    },
    {
      "inputs": [],
      "name": "renounceOwnership",
      "outputs": [],
      "stateMutability": "nonpayable",
      "type": "function"
    },
    {
      "inputs": [],
      "name": "renouncePauser",
      "outputs": [],
      "stateMutability": "nonpayable",
      "type": "function"
    },
    {
      "inputs": [],
      "name": "responsibleForDisbursement",
      "outputs": [
        {
          "internalType": "address",
          "name": "",
          "type": "address"
        }
      ],
      "stateMutability": "view",
      "type": "function"
    },
    {
      "inputs": [],
      "name": "responsibleForDonationConfirmation",
      "outputs": [
        {
          "internalType": "address",
          "name": "",
          "type": "address"
        }
      ],
      "stateMutability": "view",
      "type": "function"
    },
    {
      "inputs": [],
      "name": "responsibleForSettlement",
      "outputs": [
        {
          "internalType": "address",
          "name": "",
          "type": "address"
        }
      ],
      "stateMutability": "view",
      "type": "function"
    },
    {
      "inputs": [],
      "name": "resposibleForExtraordinaryTransfers",
      "outputs": [
        {
          "internalType": "address",
          "name": "",
          "type": "address"
        }
      ],
      "stateMutability": "view",
      "type": "function"
    },
    {
      "inputs": [
        {
          "internalType": "address",
          "name": "newRegistryAddr",
          "type": "address"
        },
        {
          "internalType": "address",
          "name": "newrbbTokenAddr",
          "type": "address"
        }
      ],
      "name": "setInitializationDataDuringRegistration",
      "outputs": [],
      "stateMutability": "nonpayable",
      "type": "function"
    },
    {
      "inputs": [
        {
          "internalType": "address",
          "name": "newOwner",
          "type": "address"
        }
      ],
      "name": "transferOwnership",
      "outputs": [],
      "stateMutability": "nonpayable",
      "type": "function"
    },
    {
      "inputs": [],
      "name": "unpause",
      "outputs": [],
      "stateMutability": "nonpayable",
      "type": "function"
    },
    {
      "inputs": [
        {
          "internalType": "uint256",
          "name": "newBndesFee",
          "type": "uint256"
        },
        {
          "internalType": "string",
          "name": "description",
          "type": "string"
        }
      ],
      "name": "setBNDESFee",
      "outputs": [],
      "stateMutability": "nonpayable",
      "type": "function"
    },
    {
      "inputs": [
        {
          "internalType": "uint256",
          "name": "idDonor",
          "type": "uint256"
        }
      ],
      "name": "addDonor",
      "outputs": [],
      "stateMutability": "nonpayable",
      "type": "function"
    },
    {
      "inputs": [
        {
          "internalType": "uint256",
          "name": "amount",
          "type": "uint256"
        }
      ],
      "name": "bookDonation",
      "outputs": [],
      "stateMutability": "nonpayable",
      "type": "function"
    },
    {
      "inputs": [
        {
          "internalType": "bytes32",
          "name": "specificHash",
          "type": "bytes32"
        },
        {
          "internalType": "uint256",
          "name": "amount",
          "type": "uint256"
        },
        {
          "internalType": "string[]",
          "name": "data",
          "type": "string[]"
        },
        {
          "internalType": "string",
          "name": "docHash",
          "type": "string"
        }
      ],
      "name": "verifyAndActForMint",
      "outputs": [],
      "stateMutability": "nonpayable",
      "type": "function"
    },
    {
      "inputs": [
        {
          "internalType": "string",
          "name": "idFinancialSupportAgreement",
          "type": "string"
        }
      ],
      "name": "getDisbusementData",
      "outputs": [
        {
          "internalType": "bytes32",
          "name": "",
          "type": "bytes32"
        },
        {
          "internalType": "bytes32",
          "name": "",
          "type": "bytes32"
        },
        {
          "internalType": "string[]",
          "name": "",
          "type": "string[]"
        }
      ],
      "stateMutability": "view",
      "type": "function"
    },
    {
      "inputs": [
        {
          "internalType": "string",
          "name": "idFinancialSupportAgreement",
          "type": "string"
        }
      ],
      "name": "getPaySupplierData",
      "outputs": [
        {
          "internalType": "bytes32",
          "name": "",
          "type": "bytes32"
        },
        {
          "internalType": "bytes32",
          "name": "",
          "type": "bytes32"
        },
        {
          "internalType": "string[]",
          "name": "",
          "type": "string[]"
        }
      ],
      "stateMutability": "view",
      "type": "function"
    },
    {
      "inputs": [],
      "name": "getRedeemData",
      "outputs": [
        {
          "internalType": "bytes32",
          "name": "",
          "type": "bytes32"
        },
        {
          "internalType": "string[]",
          "name": "",
          "type": "string[]"
        }
      ],
      "stateMutability": "nonpayable",
      "type": "function"
    },
    {
      "inputs": [
        {
          "internalType": "uint256",
          "name": "fromId",
          "type": "uint256"
        },
        {
          "internalType": "bytes32",
          "name": "fromHash",
          "type": "bytes32"
        },
        {
          "internalType": "uint256",
          "name": "toId",
          "type": "uint256"
        },
        {
          "internalType": "bytes32",
          "name": "toHash",
          "type": "bytes32"
        },
        {
          "internalType": "uint256",
          "name": "amount",
          "type": "uint256"
        },
        {
          "internalType": "string[]",
          "name": "data",
          "type": "string[]"
        }
      ],
      "name": "verifyAndActForTransfer",
      "outputs": [],
      "stateMutability": "nonpayable",
      "type": "function"
    },
    {
      "inputs": [
        {
          "internalType": "uint256",
          "name": "fromId",
          "type": "uint256"
        },
        {
          "internalType": "bytes32",
          "name": "fromHash",
          "type": "bytes32"
        },
        {
          "internalType": "uint256",
          "name": "amount",
          "type": "uint256"
        },
        {
          "internalType": "string[]",
          "name": "data",
          "type": "string[]"
        }
      ],
      "name": "verifyAndActForRedeem",
      "outputs": [],
      "stateMutability": "nonpayable",
      "type": "function"
    },
    {
      "inputs": [
        {
          "internalType": "string",
          "name": "redemptionTransactionHash",
          "type": "string"
        },
        {
          "internalType": "string",
          "name": "receiptHash",
          "type": "string"
        },
        {
          "internalType": "string[]",
          "name": "data",
          "type": "string[]"
        }
      ],
      "name": "verifyAndActForRedemptionSettlement",
      "outputs": [],
      "stateMutability": "nonpayable",
      "type": "function"
    },
    {
      "inputs": [
        {
          "internalType": "uint256",
          "name": "fromId",
          "type": "uint256"
        },
        {
          "internalType": "bytes32",
          "name": "fromHash",
          "type": "bytes32"
        },
        {
          "internalType": "uint256",
          "name": "toId",
          "type": "uint256"
        },
        {
          "internalType": "bytes32",
          "name": "toHash",
          "type": "bytes32"
        },
        {
          "internalType": "uint256",
          "name": "amount",
          "type": "uint256"
        }
      ],
      "name": "authorizeExtraordinaryTransfer",
      "outputs": [],
      "stateMutability": "nonpayable",
      "type": "function"
    },
    {
      "inputs": [
        {
          "internalType": "address",
          "name": "rs",
          "type": "address"
        }
      ],
      "name": "setResponsibleForDonationConfirmation",
      "outputs": [],
      "stateMutability": "nonpayable",
      "type": "function"
    },
    {
      "inputs": [
        {
          "internalType": "address",
          "name": "rs",
          "type": "address"
        }
      ],
      "name": "setResponsibleForDisbursement",
      "outputs": [],
      "stateMutability": "nonpayable",
      "type": "function"
    },
    {
      "inputs": [
        {
          "internalType": "address",
          "name": "rs",
          "type": "address"
        }
      ],
      "name": "setResposibleForExtraordinaryTransfers",
      "outputs": [],
      "stateMutability": "nonpayable",
      "type": "function"
    },
    {
      "inputs": [
        {
          "internalType": "address",
          "name": "rs",
          "type": "address"
        }
      ],
      "name": "setResponsibleForSettlement",
      "outputs": [],
      "stateMutability": "nonpayable",
      "type": "function"
    }
  ],
  "bytecode": "0x60806040526040518060400160405280601981526020017f44495342555253454d454e545f564552494649434154494f4e00000000000000815250600990805190602001906200005192919062000567565b506040518060400160405280601981526020017f5041595f535550504c4945525f564552494649434154494f4e00000000000000815250600a90805190602001906200009f92919062000567565b506040518060400160405280601381526020017f4d414e55414c5f494e54455256454e54494f4e00000000000000000000000000815250600b9080519060200190620000ed92919062000567565b506000600f60146101000a81548160ff021916908360ff1602179055503480156200011757600080fd5b5060405162005dab38038062005dab83398181016040528101906200013d919062000624565b60006200014f6200038060201b60201c565b9050806000806101000a81548173ffffffffffffffffffffffffffffffffffffffff021916908373ffffffffffffffffffffffffffffffffffffffff1602179055508073ffffffffffffffffffffffffffffffffffffffff16600073ffffffffffffffffffffffffffffffffffffffff167f8be0079c531659141344cd1fd0a4f28419497f9722a3daafe3b4186f6b6457e060405160405180910390a3506200020d620002016200038060201b60201c565b6200038860201b60201c565b6000600260006101000a81548160ff021916908315150217905550606481106200026e576040517f08c379a000000000000000000000000000000000000000000000000000000000815260040162000265906200073c565b60405180910390fd5b33600c60006101000a81548173ffffffffffffffffffffffffffffffffffffffff021916908373ffffffffffffffffffffffffffffffffffffffff16021790555033600d60006101000a81548173ffffffffffffffffffffffffffffffffffffffff021916908373ffffffffffffffffffffffffffffffffffffffff16021790555033600e60006101000a81548173ffffffffffffffffffffffffffffffffffffffff021916908373ffffffffffffffffffffffffffffffffffffffff16021790555033600f60006101000a81548173ffffffffffffffffffffffffffffffffffffffff021916908373ffffffffffffffffffffffffffffffffffffffff1602179055508060088190555050620007d7565b600033905090565b620003a3816001620003e960201b62002bba1790919060201c565b8073ffffffffffffffffffffffffffffffffffffffff167f6719d08c1888103bea251a4ed56406bd0c3e69723c8a1686e017e7bbe159b6f860405160405180910390a250565b620003fb82826200049c60201b60201c565b156200043e576040517f08c379a000000000000000000000000000000000000000000000000000000000815260040162000435906200075e565b60405180910390fd5b60018260000160008373ffffffffffffffffffffffffffffffffffffffff1673ffffffffffffffffffffffffffffffffffffffff16815260200190815260200160002060006101000a81548160ff0219169083151502179055505050565b60008073ffffffffffffffffffffffffffffffffffffffff168273ffffffffffffffffffffffffffffffffffffffff16141562000510576040517f08c379a0000000000000000000000000000000000000000000000000000000008152600401620005079062000780565b60405180910390fd5b8260000160008373ffffffffffffffffffffffffffffffffffffffff1673ffffffffffffffffffffffffffffffffffffffff16815260200190815260200160002060009054906101000a900460ff16905092915050565b828054600181600116156101000203166002900490600052602060002090601f016020900481019282601f10620005aa57805160ff1916838001178555620005db565b82800160010185558215620005db579182015b82811115620005da578251825591602001919060010190620005bd565b5b509050620005ea9190620005ee565b5090565b5b8082111562000609576000816000905550600101620005ef565b5090565b6000815190506200061e81620007bd565b92915050565b6000602082840312156200063757600080fd5b600062000647848285016200060d565b91505092915050565b60006200065f601b83620007a2565b91507f56616c6f7220646520466565206d61696f7220717565203130302500000000006000830152602082019050919050565b6000620006a1601f83620007a2565b91507f526f6c65733a206163636f756e7420616c72656164792068617320726f6c65006000830152602082019050919050565b6000620006e3602283620007a2565b91507f526f6c65733a206163636f756e7420697320746865207a65726f20616464726560008301527f73730000000000000000000000000000000000000000000000000000000000006020830152604082019050919050565b60006020820190508181036000830152620007578162000650565b9050919050565b60006020820190508181036000830152620007798162000692565b9050919050565b600060208201905081810360008301526200079b81620006d4565b9050919050565b600082825260208201905092915050565b6000819050919050565b620007c881620007b3565b8114620007d457600080fd5b50565b6155c480620007e76000396000f3fe608060405234801561001057600080fd5b506004361061023d5760003560e01c80638da5cb5b1161013b578063bc007763116100b8578063e4c7426f1161007c578063e4c7426f1461061f578063ee33b0bc1461063d578063f2fde38b1461066f578063fb92f74b1461068b578063ffd4d5a6146106a75761023d565b8063bc00776314610569578063c596acc714610585578063c8444880146105a1578063c92f4eb0146105d3578063daeb1cc9146105ef5761023d565b806396b9adfc116100ff57806396b9adfc146104d7578063a5ed0edd146104f5578063a79a8b2d14610513578063ad641da61461052f578063b7404ff51461054d5761023d565b80638da5cb5b146104425780638e1b808a146104605780638e6694811461047f5780638f32d59b1461049d57806390e42c7e146104bb5761023d565b80635c975abb116101c95780637eabe58a1161018d5780637eabe58a146103c657806382dc1ec4146103e25780638456cb59146103fe57806388a447ca146104085780638cabf128146104245761023d565b80635c975abb1461035a5780636b4dd41f146103785780636ef8d66d14610394578063715018a61461039e5780637b103999146103a85761023d565b8063214538001161021057806321453800146102ca57806327462769146102e85780633dfdcfab146103045780633f4ba83a1461032057806346fbf68e1461032a5761023d565b80630a4456091461024257806317251ba91461026057806317fcd0511461027c57806320399741146102ac575b600080fd5b61024a6106c5565b6040516102579190614b06565b60405180910390f35b61027a60048036038101906102759190613a1b565b6106eb565b005b61029660048036038101906102919190613a1b565b6108a8565b6040516102a39190614bfb565b60405180910390f35b6102b46108c9565b6040516102c19190614cf1565b60405180910390f35b6102d2610967565b6040516102df9190614b06565b60405180910390f35b61030260048036038101906102fd9190613ae8565b61098d565b005b61031e6004803603810190610319919061384b565b610a38565b005b610328610abe565b005b610344600480360381019061033f9190613822565b610bb7565b6040516103519190614be0565b60405180910390f35b610362610bd4565b60405161036f9190614be0565b60405180910390f35b610392600480360381019061038d91906138b0565b610beb565b005b61039c610e90565b005b6103a6610ea2565b005b6103b0610fa7565b6040516103bd9190614cbb565b60405180910390f35b6103e060048036038101906103db9190613c00565b610fcd565b005b6103fc60048036038101906103f79190613822565b61109b565b005b6104066110f6565b005b610422600480360381019061041d9190613822565b6111f0565b005b61042c611458565b6040516104399190614b06565b60405180910390f35b61044a61147e565b6040516104579190614b06565b60405180910390f35b6104686114a7565b604051610476929190614c16565b60405180910390f35b610487611542565b6040516104949190614cf1565b60405180910390f35b6104a56115e0565b6040516104b29190614be0565b60405180910390f35b6104d560048036038101906104d09190613822565b61163e565b005b6104df6118a6565b6040516104ec9190614b06565b60405180910390f35b6104fd6118cc565b60405161050a9190615254565b60405180910390f35b61052d60048036038101906105289190613a1b565b6118df565b005b610537611c31565b6040516105449190615156565b60405180910390f35b61056760048036038101906105629190613822565b611c37565b005b610583600480360381019061057e9190613984565b611e9f565b005b61059f600480360381019061059a9190613b5f565b611fbd565b005b6105bb60048036038101906105b69190613943565b612289565b6040516105ca93929190614c46565b60405180910390f35b6105ed60048036038101906105e89190613a6d565b612423565b005b61060960048036038101906106049190613c00565b61265c565b6040516106169190614be0565b60405180910390f35b6106276126a1565b6040516106349190614cd6565b60405180910390f35b61065760048036038101906106529190613943565b6126c7565b60405161066693929190614c46565b60405180910390f35b61068960048036038101906106849190613822565b612861565b005b6106a560048036038101906106a09190613822565b6128b4565b005b6106af612b1c565b6040516106bc9190614cf1565b60405180910390f35b600c60009054906101000a900473ffffffffffffffffffffffffffffffffffffffff1681565b6106f36115e0565b610732576040517f08c379a000000000000000000000000000000000000000000000000000000000815260040161072990615076565b60405180910390fd5b600260019054906101000a900473ffffffffffffffffffffffffffffffffffffffff1673ffffffffffffffffffffffffffffffffffffffff1663613a7896826040518263ffffffff1660e01b815260040161078d9190615156565b60206040518083038186803b1580156107a557600080fd5b505afa1580156107b9573d6000803e3d6000fd5b505050506040513d601f19601f820116820180604052508101906107dd9190613887565b61081c576040517f08c379a000000000000000000000000000000000000000000000000000000000815260040161081390614fb6565b60405180910390fd5b6004600082815260200190815260200160002060009054906101000a900460ff166108a55760016004600083815260200190815260200160002060006101000a81548160ff0219169083151502179055507fbf594816977ea5809bf299bfeeb10d2cb41e25a998a19fafe5460164b3cdb08b8160405161089c9190615156565b60405180910390a15b50565b600781815481106108b557fe5b906000526020600020016000915090505481565b600a8054600181600116156101000203166002900480601f01602080910402602001604051908101604052809291908181526020018280546001816001161561010002031660029004801561095f5780601f106109345761010080835404028352916020019161095f565b820191906000526020600020905b81548152906001019060200180831161094257829003601f168201915b505050505081565b600f60009054906101000a900473ffffffffffffffffffffffffffffffffffffffff1681565b6109956115e0565b6109d4576040517f08c379a00000000000000000000000000000000000000000000000000000000081526004016109cb90615076565b60405180910390fd5b600085858585856040516020016109ef959493929190614a8c565b6040516020818303038152906040528051906020012090506007819080600181540180825580915050600190039060005260206000200160009091909190915055505050505050565b81600260016101000a81548173ffffffffffffffffffffffffffffffffffffffff021916908373ffffffffffffffffffffffffffffffffffffffff16021790555080600360006101000a81548173ffffffffffffffffffffffffffffffffffffffff021916908373ffffffffffffffffffffffffffffffffffffffff1602179055505050565b610ace610ac9612c62565b610bb7565b610b0d576040517f08c379a0000000000000000000000000000000000000000000000000000000008152600401610b0490614e56565b60405180910390fd5b600260009054906101000a900460ff16610b5c576040517f08c379a0000000000000000000000000000000000000000000000000000000008152600401610b5390614e16565b60405180910390fd5b6000600260006101000a81548160ff0219169083151502179055507f5db9ee0a495bf2e6ff9c91a7834c1ba4fdd244a5e8aa4e537bd38aeae4b073aa610ba0612c62565b604051610bad9190614b21565b60405180910390a1565b6000610bcd826001612c6a90919063ffffffff16565b9050919050565b6000600260009054906101000a900460ff16905090565b600260009054906101000a900460ff1615610c3b576040517f08c379a0000000000000000000000000000000000000000000000000000000008152600401610c3290614f76565b60405180910390fd5b600360009054906101000a900473ffffffffffffffffffffffffffffffffffffffff1673ffffffffffffffffffffffffffffffffffffffff163373ffffffffffffffffffffffffffffffffffffffff1614610ccb576040517f08c379a0000000000000000000000000000000000000000000000000000000008152600401610cc290615116565b60405180910390fd5b83600f60149054906101000a900460ff16604051602001610cec9190614aeb565b6040516020818303038152906040528051906020012014610d42576040517f08c379a0000000000000000000000000000000000000000000000000000000008152600401610d3990614ff6565b60405180910390fd5b6000610d6c6064610d5e60085487612d3290919063ffffffff16565b612da290919063ffffffff16565b9050600360009054906101000a900473ffffffffffffffffffffffffffffffffffffffff1673ffffffffffffffffffffffffffffffffffffffff166342966c68826040518263ffffffff1660e01b8152600401610dc99190615156565b600060405180830381600087803b158015610de357600080fd5b505af1158015610df7573d6000803e3d6000fd5b50505050606083600081518110610e0a57fe5b602002602001015190507f510b32015cae6bd5a46e63f522b3e72f4899620ab6fb0a038d40f362d6cddfee818685604051610e4793929190614d7a565b60405180910390a17fdbafbb5ff61a1cd221b878512cc915e367d5888dd3483ca01a9dfd17f3e3d85c8186604051610e80929190614d4a565b60405180910390a1505050505050565b610ea0610e9b612c62565b612dec565b565b610eaa6115e0565b610ee9576040517f08c379a0000000000000000000000000000000000000000000000000000000008152600401610ee090615076565b60405180910390fd5b600073ffffffffffffffffffffffffffffffffffffffff1660008054906101000a900473ffffffffffffffffffffffffffffffffffffffff1673ffffffffffffffffffffffffffffffffffffffff167f8be0079c531659141344cd1fd0a4f28419497f9722a3daafe3b4186f6b6457e060405160405180910390a360008060006101000a81548173ffffffffffffffffffffffffffffffffffffffff021916908373ffffffffffffffffffffffffffffffffffffffff160217905550565b600260019054906101000a900473ffffffffffffffffffffffffffffffffffffffff1681565b610fd56115e0565b611014576040517f08c379a000000000000000000000000000000000000000000000000000000000815260040161100b90615076565b60405180910390fd5b60648210611057576040517f08c379a000000000000000000000000000000000000000000000000000000000815260040161104e90614df6565b60405180910390fd5b816008819055507fbd7b604f0ee5042786f0c84c21d83c0229994b71f3a01f3a498aba4da09880e5828260405161108f929190615171565b60405180910390a15050565b6110ab6110a6612c62565b610bb7565b6110ea576040517f08c379a00000000000000000000000000000000000000000000000000000000081526004016110e190614e56565b60405180910390fd5b6110f381612e46565b50565b611106611101612c62565b610bb7565b611145576040517f08c379a000000000000000000000000000000000000000000000000000000000815260040161113c90614e56565b60405180910390fd5b600260009054906101000a900460ff1615611195576040517f08c379a000000000000000000000000000000000000000000000000000000000815260040161118c90614f76565b60405180910390fd5b6001600260006101000a81548160ff0219169083151502179055507f62e78cea01bee320cd4e420270b5ea74000d11b0c9f74754ebdbfc544b05a2586111d9612c62565b6040516111e69190614b21565b60405180910390a1565b6111f86115e0565b611237576040517f08c379a000000000000000000000000000000000000000000000000000000000815260040161122e90615076565b60405180910390fd5b6000600260019054906101000a900473ffffffffffffffffffffffffffffffffffffffff1673ffffffffffffffffffffffffffffffffffffffff166365f68c89836040518263ffffffff1660e01b81526004016112949190614b06565b60206040518083038186803b1580156112ac57600080fd5b505afa1580156112c0573d6000803e3d6000fd5b505050506040513d601f19601f820116820180604052508101906112e49190613a44565b9050600260019054906101000a900473ffffffffffffffffffffffffffffffffffffffff1673ffffffffffffffffffffffffffffffffffffffff166365f68c8961132c61147e565b6040518263ffffffff1660e01b81526004016113489190614b06565b60206040518083038186803b15801561136057600080fd5b505afa158015611374573d6000803e3d6000fd5b505050506040513d601f19601f820116820180604052508101906113989190613a44565b81146113d9576040517f08c379a00000000000000000000000000000000000000000000000000000000081526004016113d090614e96565b60405180910390fd5b81600c60006101000a81548173ffffffffffffffffffffffffffffffffffffffff021916908373ffffffffffffffffffffffffffffffffffffffff1602179055507faf10d91531a8d27fc602286518b7fd48b5ea40e30a02f824746cd67a2ab488c882600160405161144c929190614b3c565b60405180910390a15050565b600d60009054906101000a900473ffffffffffffffffffffffffffffffffffffffff1681565b60008060009054906101000a900473ffffffffffffffffffffffffffffffffffffffff16905090565b600060606000600f60149054906101000a900460ff166040516020016114cd9190614aeb565b6040516020818303038152906040528051906020012090506060600067ffffffffffffffff811180156114ff57600080fd5b5060405190808252806020026020018201604052801561153357816020015b606081526020019060019003908161151e5790505b50905081819350935050509091565b60098054600181600116156101000203166002900480601f0160208091040260200160405190810160405280929190818152602001828054600181600116156101000203166002900480156115d85780601f106115ad576101008083540402835291602001916115d8565b820191906000526020600020905b8154815290600101906020018083116115bb57829003601f168201915b505050505081565b60008060009054906101000a900473ffffffffffffffffffffffffffffffffffffffff1673ffffffffffffffffffffffffffffffffffffffff16611622612c62565b73ffffffffffffffffffffffffffffffffffffffff1614905090565b6116466115e0565b611685576040517f08c379a000000000000000000000000000000000000000000000000000000000815260040161167c90615076565b60405180910390fd5b6000600260019054906101000a900473ffffffffffffffffffffffffffffffffffffffff1673ffffffffffffffffffffffffffffffffffffffff166365f68c89836040518263ffffffff1660e01b81526004016116e29190614b06565b60206040518083038186803b1580156116fa57600080fd5b505afa15801561170e573d6000803e3d6000fd5b505050506040513d601f19601f820116820180604052508101906117329190613a44565b9050600260019054906101000a900473ffffffffffffffffffffffffffffffffffffffff1673ffffffffffffffffffffffffffffffffffffffff166365f68c8961177a61147e565b6040518263ffffffff1660e01b81526004016117969190614b06565b60206040518083038186803b1580156117ae57600080fd5b505afa1580156117c2573d6000803e3d6000fd5b505050506040513d601f19601f820116820180604052508101906117e69190613a44565b8114611827576040517f08c379a000000000000000000000000000000000000000000000000000000000815260040161181e906150d6565b60405180910390fd5b81600d60006101000a81548173ffffffffffffffffffffffffffffffffffffffff021916908373ffffffffffffffffffffffffffffffffffffffff1602179055507faf10d91531a8d27fc602286518b7fd48b5ea40e30a02f824746cd67a2ab488c882600260405161189a929190614b65565b60405180910390a15050565b600e60009054906101000a900473ffffffffffffffffffffffffffffffffffffffff1681565b600f60149054906101000a900460ff1681565b600260009054906101000a900460ff161561192f576040517f08c379a000000000000000000000000000000000000000000000000000000000815260040161192690614f76565b60405180910390fd5b6000600260019054906101000a900473ffffffffffffffffffffffffffffffffffffffff1673ffffffffffffffffffffffffffffffffffffffff166365f68c89336040518263ffffffff1660e01b815260040161198c9190614b21565b60206040518083038186803b1580156119a457600080fd5b505afa1580156119b8573d6000803e3d6000fd5b505050506040513d601f19601f820116820180604052508101906119dc9190613a44565b90506004600082815260200190815260200160002060009054906101000a900460ff16611a3e576040517f08c379a0000000000000000000000000000000000000000000000000000000008152600401611a3590615016565b60405180910390fd5b600260019054906101000a900473ffffffffffffffffffffffffffffffffffffffff1673ffffffffffffffffffffffffffffffffffffffff1663613a7896826040518263ffffffff1660e01b8152600401611a999190615156565b60206040518083038186803b158015611ab157600080fd5b505afa158015611ac5573d6000803e3d6000fd5b505050506040513d601f19601f82011682018060405250810190611ae99190613887565b611b28576040517f08c379a0000000000000000000000000000000000000000000000000000000008152600401611b1f90614fb6565b60405180910390fd5b6000600f60149054906101000a900460ff16604051602001611b4a9190614aeb565b604051602081830303815290604052805190602001209050600360009054906101000a900473ffffffffffffffffffffffffffffffffffffffff1673ffffffffffffffffffffffffffffffffffffffff1663173d34a88284866040518463ffffffff1660e01b8152600401611bc193929190614c84565b600060405180830381600087803b158015611bdb57600080fd5b505af1158015611bef573d6000803e3d6000fd5b505050507f6704da9c2ddbb477933c3e18f32636a8782fc7595206d73bb0e8e9608b00d5b18284604051611c2492919061522b565b60405180910390a1505050565b60085481565b611c3f6115e0565b611c7e576040517f08c379a0000000000000000000000000000000000000000000000000000000008152600401611c7590615076565b60405180910390fd5b6000600260019054906101000a900473ffffffffffffffffffffffffffffffffffffffff1673ffffffffffffffffffffffffffffffffffffffff166365f68c89836040518263ffffffff1660e01b8152600401611cdb9190614b06565b60206040518083038186803b158015611cf357600080fd5b505afa158015611d07573d6000803e3d6000fd5b505050506040513d601f19601f82011682018060405250810190611d2b9190613a44565b9050600260019054906101000a900473ffffffffffffffffffffffffffffffffffffffff1673ffffffffffffffffffffffffffffffffffffffff166365f68c89611d7361147e565b6040518263ffffffff1660e01b8152600401611d8f9190614b06565b60206040518083038186803b158015611da757600080fd5b505afa158015611dbb573d6000803e3d6000fd5b505050506040513d601f19601f82011682018060405250810190611ddf9190613a44565b8114611e20576040517f08c379a0000000000000000000000000000000000000000000000000000000008152600401611e1790614f96565b60405180910390fd5b81600f60006101000a81548173ffffffffffffffffffffffffffffffffffffffff021916908373ffffffffffffffffffffffffffffffffffffffff1602179055507faf10d91531a8d27fc602286518b7fd48b5ea40e30a02f824746cd67a2ab488c8826004604051611e93929190614bb7565b60405180910390a15050565b600260009054906101000a900460ff1615611eef576040517f08c379a0000000000000000000000000000000000000000000000000000000008152600401611ee690614f76565b60405180910390fd5b600360009054906101000a900473ffffffffffffffffffffffffffffffffffffffff1673ffffffffffffffffffffffffffffffffffffffff163373ffffffffffffffffffffffffffffffffffffffff1614611f7f576040517f08c379a0000000000000000000000000000000000000000000000000000000008152600401611f7690615116565b60405180910390fd5b7f8039e7cfe0227655de7f41b85f86a697e1c0cade8eed56b090446c9f7f6afe078383604051611fb0929190614d13565b60405180910390a1505050565b600260009054906101000a900460ff161561200d576040517f08c379a000000000000000000000000000000000000000000000000000000000815260040161200490614f76565b60405180910390fd5b600360009054906101000a900473ffffffffffffffffffffffffffffffffffffffff1673ffffffffffffffffffffffffffffffffffffffff163373ffffffffffffffffffffffffffffffffffffffff161461209d576040517f08c379a000000000000000000000000000000000000000000000000000000000815260040161209490615116565b60405180910390fd5b6060816000815181106120ac57fe5b60200260200101519050600083116120f9576040517f08c379a00000000000000000000000000000000000000000000000000000000081526004016120f090614f36565b60405180910390fd5b73__RBBLib________________________________63465c41056009836040518363ffffffff1660e01b8152600401612133929190614dbf565b60206040518083038186803b15801561214b57600080fd5b505af415801561215f573d6000803e3d6000fd5b505050506040513d601f19601f820116820180604052508101906121839190613887565b1561219b57612196878787878787612ea0565b612280565b73__RBBLib________________________________63465c4105600a836040518363ffffffff1660e01b81526004016121d5929190614dbf565b60206040518083038186803b1580156121ed57600080fd5b505af4158015612201573d6000803e3d6000fd5b505050506040513d601f19601f820116820180604052508101906122259190613887565b1561223d576122388787878787876131e6565b61227f565b600061227e576040517f08c379a0000000000000000000000000000000000000000000000000000000008152600401612275906150b6565b60405180910390fd5b5b5b50505050505050565b60008060606000846040516020016122a19190614a75565b6040516020818303038152906040528051906020012090506000600f60149054906101000a900460ff166040516020016122db9190614aeb565b6040516020818303038152906040528051906020012090506060600267ffffffffffffffff8111801561230d57600080fd5b5060405190808252806020026020018201604052801561234157816020015b606081526020019060019003908161232c5790505b509050600a8054600181600116156101000203166002900480601f0160208091040260200160405190810160405280929190818152602001828054600181600116156101000203166002900480156123da5780601f106123af576101008083540402835291602001916123da565b820191906000526020600020905b8154815290600101906020018083116123bd57829003601f168201915b5050505050816000815181106123ec57fe5b6020026020010181905250868160018151811061240557fe5b60200260200101819052508282829550955095505050509193909250565b600260009054906101000a900460ff1615612473576040517f08c379a000000000000000000000000000000000000000000000000000000000815260040161246a90614f76565b60405180910390fd5b600360009054906101000a900473ffffffffffffffffffffffffffffffffffffffff1673ffffffffffffffffffffffffffffffffffffffff163373ffffffffffffffffffffffffffffffffffffffff1614612503576040517f08c379a00000000000000000000000000000000000000000000000000000000081526004016124fa90615116565b60405180910390fd5b60008211612546576040517f08c379a000000000000000000000000000000000000000000000000000000000815260040161253d90614f36565b60405180910390fd5b6006600085815260200190815260200160002060009054906101000a900460ff166125a6576040517f08c379a000000000000000000000000000000000000000000000000000000000815260040161259d90614f16565b60405180910390fd5b82600f60149054906101000a900460ff166040516020016125c79190614aeb565b604051602081830303815290604052805190602001201461261d576040517f08c379a000000000000000000000000000000000000000000000000000000000815260040161261490614f56565b60405180910390fd5b7fb8f81a5484e20ac6428d9d7788e484b88874539071efc6a3d92c0d701b698ce0848360405161264e92919061522b565b60405180910390a150505050565b6005602052816000526040600020818051602081018201805184825260208301602085012081835280955050505050506000915091509054906101000a900460ff1681565b600360009054906101000a900473ffffffffffffffffffffffffffffffffffffffff1681565b60008060606000600f60149054906101000a900460ff166040516020016126ee9190614aeb565b6040516020818303038152906040528051906020012090506000856040516020016127199190614a75565b6040516020818303038152906040528051906020012090506060600267ffffffffffffffff8111801561274b57600080fd5b5060405190808252806020026020018201604052801561277f57816020015b606081526020019060019003908161276a5790505b50905060098054600181600116156101000203166002900480601f0160208091040260200160405190810160405280929190818152602001828054600181600116156101000203166002900480156128185780601f106127ed57610100808354040283529160200191612818565b820191906000526020600020905b8154815290600101906020018083116127fb57829003601f168201915b50505050508160008151811061282a57fe5b6020026020010181905250868160018151811061284357fe5b60200260200101819052508282829550955095505050509193909250565b6128696115e0565b6128a8576040517f08c379a000000000000000000000000000000000000000000000000000000000815260040161289f90615076565b60405180910390fd5b6128b1816134bc565b50565b6128bc6115e0565b6128fb576040517f08c379a00000000000000000000000000000000000000000000000000000000081526004016128f290615076565b60405180910390fd5b6000600260019054906101000a900473ffffffffffffffffffffffffffffffffffffffff1673ffffffffffffffffffffffffffffffffffffffff166365f68c89836040518263ffffffff1660e01b81526004016129589190614b06565b60206040518083038186803b15801561297057600080fd5b505afa158015612984573d6000803e3d6000fd5b505050506040513d601f19601f820116820180604052508101906129a89190613a44565b9050600260019054906101000a900473ffffffffffffffffffffffffffffffffffffffff1673ffffffffffffffffffffffffffffffffffffffff166365f68c896129f061147e565b6040518263ffffffff1660e01b8152600401612a0c9190614b06565b60206040518083038186803b158015612a2457600080fd5b505afa158015612a38573d6000803e3d6000fd5b505050506040513d601f19601f82011682018060405250810190612a5c9190613a44565b8114612a9d576040517f08c379a0000000000000000000000000000000000000000000000000000000008152600401612a9490615036565b60405180910390fd5b81600e60006101000a81548173ffffffffffffffffffffffffffffffffffffffff021916908373ffffffffffffffffffffffffffffffffffffffff1602179055507faf10d91531a8d27fc602286518b7fd48b5ea40e30a02f824746cd67a2ab488c8826003604051612b10929190614b8e565b60405180910390a15050565b600b8054600181600116156101000203166002900480601f016020809104026020016040519081016040528092919081815260200182805460018160011615610100020316600290048015612bb25780601f10612b8757610100808354040283529160200191612bb2565b820191906000526020600020905b815481529060010190602001808311612b9557829003601f168201915b505050505081565b612bc48282612c6a565b15612c04576040517f08c379a0000000000000000000000000000000000000000000000000000000008152600401612bfb90614e36565b60405180910390fd5b60018260000160008373ffffffffffffffffffffffffffffffffffffffff1673ffffffffffffffffffffffffffffffffffffffff16815260200190815260200160002060006101000a81548160ff0219169083151502179055505050565b600033905090565b60008073ffffffffffffffffffffffffffffffffffffffff168273ffffffffffffffffffffffffffffffffffffffff161415612cdb576040517f08c379a0000000000000000000000000000000000000000000000000000000008152600401612cd290615096565b60405180910390fd5b8260000160008373ffffffffffffffffffffffffffffffffffffffff1673ffffffffffffffffffffffffffffffffffffffff16815260200190815260200160002060009054906101000a900460ff16905092915050565b600080831415612d455760009050612d9c565b6000828402905082848281612d5657fe5b0414612d97576040517f08c379a0000000000000000000000000000000000000000000000000000000008152600401612d8e90615056565b60405180910390fd5b809150505b92915050565b6000612de483836040518060400160405280601a81526020017f536166654d6174683a206469766973696f6e206279207a65726f0000000000008152506135e9565b905092915050565b612e0081600161364a90919063ffffffff16565b8073ffffffffffffffffffffffffffffffffffffffff167fcd265ebaf09df2871cc7bd4133404a235ba12eff2041bb89d9c714a2621c7c7e60405160405180910390a250565b612e5a816001612bba90919063ffffffff16565b8073ffffffffffffffffffffffffffffffffffffffff167f6719d08c1888103bea251a4ed56406bd0c3e69723c8a1686e017e7bbe159b6f860405160405180910390a250565b600260009054906101000a900460ff1615612ef0576040517f08c379a0000000000000000000000000000000000000000000000000000000008152600401612ee790614f76565b60405180910390fd5b606081600181518110612eff57fe5b602002602001015190506000600260019054906101000a900473ffffffffffffffffffffffffffffffffffffffff1673ffffffffffffffffffffffffffffffffffffffff166365f68c89612f5161147e565b6040518263ffffffff1660e01b8152600401612f6d9190614b06565b60206040518083038186803b158015612f8557600080fd5b505afa158015612f99573d6000803e3d6000fd5b505050506040513d601f19601f82011682018060405250810190612fbd9190613a44565b9050808814613001576040517f08c379a0000000000000000000000000000000000000000000000000000000008152600401612ff8906150f6565b60405180910390fd5b86600f60149054906101000a900460ff166040516020016130229190614aeb565b6040516020818303038152906040528051906020012014613078576040517f08c379a000000000000000000000000000000000000000000000000000000000815260040161306f90614ef6565b60405180910390fd5b848260405160200161308a9190614a75565b60405160208183030381529060405280519060200120146130e0576040517f08c379a00000000000000000000000000000000000000000000000000000000081526004016130d790615136565b60405180910390fd5b60056000878152602001908152602001600020826040516131019190614a75565b908152602001604051809103902060009054906101000a900460ff166131a157600160056000888152602001908152602001600020836040516131449190614a75565b908152602001604051809103902060006101000a81548160ff0219169083151502179055507f448b0dd714fa3713f69988b8ee8bad3ac840e06e3d93c970086a3d490d61c629866040516131989190615156565b60405180910390a15b7f6a4c81844df1c2bd4ddc3c212f15b0f89b66e0c623277b45a0c97427a5b164f68683866040516131d4939291906151a1565b60405180910390a15050505050505050565b600260009054906101000a900460ff1615613236576040517f08c379a000000000000000000000000000000000000000000000000000000000815260040161322d90614f76565b60405180910390fd5b60608160018151811061324557fe5b6020026020010151905060056000888152602001908152602001600020816040516132709190614a75565b908152602001604051809103902060009054906101000a900460ff166132cb576040517f08c379a00000000000000000000000000000000000000000000000000000000081526004016132c290614e76565b60405180910390fd5b85816040516020016132dd9190614a75565b6040516020818303038152906040528051906020012014613333576040517f08c379a000000000000000000000000000000000000000000000000000000000815260040161332a90615136565b60405180910390fd5b85600f60149054906101000a900460ff166040516020016133549190614aeb565b60405160208183030381529060405280519060200120146133aa576040517f08c379a00000000000000000000000000000000000000000000000000000000081526004016133a190614f56565b60405180910390fd5b848714156133ed576040517f08c379a00000000000000000000000000000000000000000000000000000000081526004016133e490614ed6565b60405180910390fd5b6006600086815260200190815260200160002060009054906101000a900460ff166134765760016006600087815260200190815260200160002060006101000a81548160ff0219169083151502179055507fdbd156425e92bcf7929d11aeaf5fe04e177c0ce4edd8e53dc58b0e1838554b498760405161346d9190615156565b60405180910390a15b7fb5941224982a8299c916869ca2e62ecbf14906bd1be81700e33cfc4bf401cc96878287866040516134ab94939291906151df565b60405180910390a150505050505050565b600073ffffffffffffffffffffffffffffffffffffffff168173ffffffffffffffffffffffffffffffffffffffff16141561352c576040517f08c379a000000000000000000000000000000000000000000000000000000000815260040161352390614eb6565b60405180910390fd5b8073ffffffffffffffffffffffffffffffffffffffff1660008054906101000a900473ffffffffffffffffffffffffffffffffffffffff1673ffffffffffffffffffffffffffffffffffffffff167f8be0079c531659141344cd1fd0a4f28419497f9722a3daafe3b4186f6b6457e060405160405180910390a3806000806101000a81548173ffffffffffffffffffffffffffffffffffffffff021916908373ffffffffffffffffffffffffffffffffffffffff16021790555050565b60008083118290613630576040517f08c379a00000000000000000000000000000000000000000000000000000000081526004016136279190614cf1565b60405180910390fd5b50600083858161363c57fe5b049050809150509392505050565b6136548282612c6a565b613693576040517f08c379a000000000000000000000000000000000000000000000000000000000815260040161368a90614fd6565b60405180910390fd5b60008260000160008373ffffffffffffffffffffffffffffffffffffffff1673ffffffffffffffffffffffffffffffffffffffff16815260200190815260200160002060006101000a81548160ff0219169083151502179055505050565b60008135905061370081615532565b92915050565b600082601f83011261371757600080fd5b813561372a6137258261529c565b61526f565b9150818183526020840193506020810190508360005b83811015613770578135860161375688826137a4565b845260208401935060208301925050600181019050613740565b5050505092915050565b60008151905061378981615549565b92915050565b60008135905061379e81615560565b92915050565b600082601f8301126137b557600080fd5b81356137c86137c3826152c4565b61526f565b915080825260208301602083018583830111156137e457600080fd5b6137ef8382846154ac565b50505092915050565b60008135905061380781615577565b92915050565b60008151905061381c81615577565b92915050565b60006020828403121561383457600080fd5b6000613842848285016136f1565b91505092915050565b6000806040838503121561385e57600080fd5b600061386c858286016136f1565b925050602061387d858286016136f1565b9150509250929050565b60006020828403121561389957600080fd5b60006138a78482850161377a565b91505092915050565b600080600080608085870312156138c657600080fd5b60006138d48782880161378f565b94505060206138e5878288016137f8565b935050604085013567ffffffffffffffff81111561390257600080fd5b61390e87828801613706565b925050606085013567ffffffffffffffff81111561392b57600080fd5b613937878288016137a4565b91505092959194509250565b60006020828403121561395557600080fd5b600082013567ffffffffffffffff81111561396f57600080fd5b61397b848285016137a4565b91505092915050565b60008060006060848603121561399957600080fd5b600084013567ffffffffffffffff8111156139b357600080fd5b6139bf868287016137a4565b935050602084013567ffffffffffffffff8111156139dc57600080fd5b6139e8868287016137a4565b925050604084013567ffffffffffffffff811115613a0557600080fd5b613a1186828701613706565b9150509250925092565b600060208284031215613a2d57600080fd5b6000613a3b848285016137f8565b91505092915050565b600060208284031215613a5657600080fd5b6000613a648482850161380d565b91505092915050565b60008060008060808587031215613a8357600080fd5b6000613a91878288016137f8565b9450506020613aa28782880161378f565b9350506040613ab3878288016137f8565b925050606085013567ffffffffffffffff811115613ad057600080fd5b613adc87828801613706565b91505092959194509250565b600080600080600060a08688031215613b0057600080fd5b6000613b0e888289016137f8565b9550506020613b1f8882890161378f565b9450506040613b30888289016137f8565b9350506060613b418882890161378f565b9250506080613b52888289016137f8565b9150509295509295909350565b60008060008060008060c08789031215613b7857600080fd5b6000613b8689828a016137f8565b9650506020613b9789828a0161378f565b9550506040613ba889828a016137f8565b9450506060613bb989828a0161378f565b9350506080613bca89828a016137f8565b92505060a087013567ffffffffffffffff811115613be757600080fd5b613bf389828a01613706565b9150509295509295509295565b60008060408385031215613c1357600080fd5b6000613c21858286016137f8565b925050602083013567ffffffffffffffff811115613c3e57600080fd5b613c4a858286016137a4565b9150509250929050565b6000613c608383613d8a565b905092915050565b613c71816153e6565b82525050565b613c8081615387565b82525050565b6000613c9182615315565b613c9b8185615338565b935083602082028501613cad856152f0565b8060005b85811015613ce95784840389528151613cca8582613c54565b9450613cd58361532b565b925060208a01995050600181019050613cb1565b50829750879550505050505092915050565b613d0481615399565b82525050565b613d13816153a5565b82525050565b613d2a613d25826153a5565b6154ee565b82525050565b613d39816153f8565b82525050565b613d488161541c565b82525050565b613d5781615440565b82525050565b613d6681615452565b82525050565b613d7581615464565b82525050565b613d8481615476565b82525050565b6000613d9582615320565b613d9f8185615349565b9350613daf8185602086016154bb565b613db881615514565b840191505092915050565b6000613dce82615320565b613dd8818561535a565b9350613de88185602086016154bb565b613df181615514565b840191505092915050565b6000613e0782615320565b613e11818561536b565b9350613e218185602086016154bb565b613e2a81615514565b840191505092915050565b6000613e4082615320565b613e4a818561537c565b9350613e5a8185602086016154bb565b80840191505092915050565b600081546001811660008114613e835760018114613ea957613eed565b607f6002830416613e94818761536b565b955060ff198316865260208601935050613eed565b60028204613eb7818761536b565b9550613ec285615300565b60005b82811015613ee457815481890152600182019150602081019050613ec5565b80880195505050505b505092915050565b6000613f02601b8361535a565b91507f56616c6f7220646520466565206d61696f7220717565203130302500000000006000830152602082019050919050565b6000613f4260148361535a565b91507f5061757361626c653a206e6f74207061757365640000000000000000000000006000830152602082019050919050565b6000613f82601f8361535a565b91507f526f6c65733a206163636f756e7420616c72656164792068617320726f6c65006000830152602082019050919050565b6000613fc260308361535a565b91507f506175736572526f6c653a2063616c6c657220646f6573206e6f74206861766560008301527f207468652050617573657220726f6c65000000000000000000000000000000006020830152604082019050919050565b600061402860448361535a565b91507f536f6d656e746520636c69656e74657320656d20636f6e747261746f7320636160008301527f646173747261646f7320706f64656d206578656375746172206f20706167616d60208301527f656e746f000000000000000000000000000000000000000000000000000000006040830152606082019050919050565b60006140b4604f8361535a565b91507f4f20726573706f6e73c3a176656c2070656c6120636f6e6669726d61c3a7c3a360008301527f6f20646f61c3a7c3a36f206465766520736572206461206d65736d6f2052424260208301527f5f494420646f20636f6e747261746f00000000000000000000000000000000006040830152606082019050919050565b600061414060268361535a565b91507f4f776e61626c653a206e6577206f776e657220697320746865207a65726f206160008301527f64647265737300000000000000000000000000000000000000000000000000006020830152604082019050919050565b60006141a6605f8361535a565b91507f556d20434e504a206ec3a36f20706f6465207472616e73666572697220746f6b60008301527f656e20706172612073692c2061696e64612071756520656d20706170c3a9697360208301527f2064697374696e746f732028436c69656e74652f466f726e656365646f7229006040830152606082019050919050565b6000614232602a8361535a565b91507f4572726f206e6f2063c3a16c63756c6f20646f206861736820646120636f6e7460008301527f6120646f20424e444553000000000000000000000000000000000000000000006020830152604082019050919050565b6000614298602f8361535a565b91507f536f6d656e746520666f726e656365646f72657320706f64656d20657865637560008301527f746172206f20706167616d656e746f00000000000000000000000000000000006020830152604082019050919050565b60006142fe60358361535a565b91507f56616c6f72206120736572207472616e736163696f6e61646f2064657665207360008301527f6572206d61696f7220646f20717565207a65726f2e00000000000000000000006020830152604082019050919050565b6000614364602f8361535a565b91507f4572726f206e6f2063c3a16c63756c6f20646f206861736820646120636f6e7460008301527f6120646f20666f726e656365646f7200000000000000000000000000000000006020830152604082019050919050565b60006143ca60108361535a565b91507f5061757361626c653a20706175736564000000000000000000000000000000006000830152602082019050919050565b600061440a60458361535a565b91507f4f20726573706f6e73c3a176656c2070656c61206c697175696461c3a7c3a36f60008301527f206465766520736572206461206d65736d6f205242425f494420646f20636f6e60208301527f747261746f0000000000000000000000000000000000000000000000000000006040830152606082019050919050565b600061449660338361535a565b91507f436f6e746120646520646f61646f72207072656369736120657374617220636f60008301527f6d20636164617374726f2076616c696461646f000000000000000000000000006020830152604082019050919050565b60006144fc60218361535a565b91507f526f6c65733a206163636f756e7420646f6573206e6f74206861766520726f6c60008301527f65000000000000000000000000000000000000000000000000000000000000006020830152604082019050919050565b600061456260248361535a565b91507f4572726f206e6f2063c3a16c63756c6f20646f206861736820646120646f61c360008301527fa7c3a36f000000000000000000000000000000000000000000000000000000006020830152604082019050919050565b60006145c860268361535a565b91507f536f6d656e746520646f61646f72657320706f64656d2066617a657220646f6160008301527fc3a7c3b5657300000000000000000000000000000000000000000000000000006020830152604082019050919050565b600061462e60698361535a565b91507f4f20726573706f6e73c3a176656c2070656c6f2063616461737472616d656e7460008301527f6f206465207472616e73666572656e636961732065787472616f7264696ec3a160208301527f72696173206465766520736572206461206d65736d6f205242425f494420646f60408301527f20636f6e747261746f00000000000000000000000000000000000000000000006060830152608082019050919050565b60006146e060218361535a565b91507f536166654d6174683a206d756c7469706c69636174696f6e206f766572666c6f60008301527f77000000000000000000000000000000000000000000000000000000000000006020830152604082019050919050565b600061474660208361535a565b91507f4f776e61626c653a2063616c6c6572206973206e6f7420746865206f776e65726000830152602082019050919050565b600061478660228361535a565b91507f526f6c65733a206163636f756e7420697320746865207a65726f20616464726560008301527f73730000000000000000000000000000000000000000000000000000000000006020830152604082019050919050565b60006147ec60428361535a565b91507f4e656e68756d61207665726966696361c3a7c3a36f206573706563c3ad66696360008301527f6120656e636f6e747261646120706172612061207472616e73666572c3aa6e6360208301527f69610000000000000000000000000000000000000000000000000000000000006040830152606082019050919050565b600061487860438361535a565b91507f4f20726573706f6e73c3a176656c2070656c6f20646573656d626f6c736f206460008301527f65766520736572206461206d65736d6f205242425f494420646f20636f6e747260208301527f61746f00000000000000000000000000000000000000000000000000000000006040830152606082019050919050565b6000614904603c8361535a565b91507f526573706f6e73c3a176656c2070656c61206c6962657261c3a7c3a36f20646560008301527f207265637572736f73206ec3a36f20657374c3a120636f727265746f000000006020830152604082019050919050565b600061496a60308361535a565b91507f45737365206dc3a9746f646f2073c3b320706f646520736572206368616d616460008301527f6f2070656c6f205242425f546f6b656e000000000000000000000000000000006020830152604082019050919050565b60006149d0602c8361535a565b91507f4572726f206e6f2063c3a16c63756c6f20646f206861736820646120636f6e7460008301527f6120646f20636c69656e746500000000000000000000000000000000000000006020830152604082019050919050565b614a32816153cf565b82525050565b614a49614a44826153cf565b6154f8565b82525050565b614a58816153d9565b82525050565b614a6f614a6a826153d9565b615502565b82525050565b6000614a818284613e35565b915081905092915050565b6000614a988288614a38565b602082019150614aa88287613d19565b602082019150614ab88286614a38565b602082019150614ac88285613d19565b602082019150614ad88284614a38565b6020820191508190509695505050505050565b6000614af78284614a5e565b60018201915081905092915050565b6000602082019050614b1b6000830184613c77565b92915050565b6000602082019050614b366000830184613c68565b92915050565b6000604082019050614b516000830185613c77565b614b5e6020830184613d4e565b9392505050565b6000604082019050614b7a6000830185613c77565b614b876020830184613d5d565b9392505050565b6000604082019050614ba36000830185613c77565b614bb06020830184613d6c565b9392505050565b6000604082019050614bcc6000830185613c77565b614bd96020830184613d7b565b9392505050565b6000602082019050614bf56000830184613cfb565b92915050565b6000602082019050614c106000830184613d0a565b92915050565b6000604082019050614c2b6000830185613d0a565b8181036020830152614c3d8184613c86565b90509392505050565b6000606082019050614c5b6000830186613d0a565b614c686020830185613d0a565b8181036040830152614c7a8184613c86565b9050949350505050565b6000606082019050614c996000830186613d0a565b614ca66020830185614a29565b614cb36040830184614a29565b949350505050565b6000602082019050614cd06000830184613d30565b92915050565b6000602082019050614ceb6000830184613d3f565b92915050565b60006020820190508181036000830152614d0b8184613dc3565b905092915050565b60006040820190508181036000830152614d2d8185613dc3565b90508181036020830152614d418184613dc3565b90509392505050565b60006040820190508181036000830152614d648185613dc3565b9050614d736020830184614a29565b9392505050565b60006060820190508181036000830152614d948186613dc3565b9050614da36020830185614a29565b8181036040830152614db58184613dc3565b9050949350505050565b60006040820190508181036000830152614dd98185613e66565b90508181036020830152614ded8184613dfc565b90509392505050565b60006020820190508181036000830152614e0f81613ef5565b9050919050565b60006020820190508181036000830152614e2f81613f35565b9050919050565b60006020820190508181036000830152614e4f81613f75565b9050919050565b60006020820190508181036000830152614e6f81613fb5565b9050919050565b60006020820190508181036000830152614e8f8161401b565b9050919050565b60006020820190508181036000830152614eaf816140a7565b9050919050565b60006020820190508181036000830152614ecf81614133565b9050919050565b60006020820190508181036000830152614eef81614199565b9050919050565b60006020820190508181036000830152614f0f81614225565b9050919050565b60006020820190508181036000830152614f2f8161428b565b9050919050565b60006020820190508181036000830152614f4f816142f1565b9050919050565b60006020820190508181036000830152614f6f81614357565b9050919050565b60006020820190508181036000830152614f8f816143bd565b9050919050565b60006020820190508181036000830152614faf816143fd565b9050919050565b60006020820190508181036000830152614fcf81614489565b9050919050565b60006020820190508181036000830152614fef816144ef565b9050919050565b6000602082019050818103600083015261500f81614555565b9050919050565b6000602082019050818103600083015261502f816145bb565b9050919050565b6000602082019050818103600083015261504f81614621565b9050919050565b6000602082019050818103600083015261506f816146d3565b9050919050565b6000602082019050818103600083015261508f81614739565b9050919050565b600060208201905081810360008301526150af81614779565b9050919050565b600060208201905081810360008301526150cf816147df565b9050919050565b600060208201905081810360008301526150ef8161486b565b9050919050565b6000602082019050818103600083015261510f816148f7565b9050919050565b6000602082019050818103600083015261512f8161495d565b9050919050565b6000602082019050818103600083015261514f816149c3565b9050919050565b600060208201905061516b6000830184614a29565b92915050565b60006040820190506151866000830185614a29565b81810360208301526151988184613dc3565b90509392505050565b60006060820190506151b66000830186614a29565b81810360208301526151c88185613dc3565b90506151d76040830184614a29565b949350505050565b60006080820190506151f46000830187614a29565b81810360208301526152068186613dc3565b90506152156040830185614a29565b6152226060830184614a29565b95945050505050565b60006040820190506152406000830185614a29565b61524d6020830184614a29565b9392505050565b60006020820190506152696000830184614a4f565b92915050565b6000604051905081810181811067ffffffffffffffff8211171561529257600080fd5b8060405250919050565b600067ffffffffffffffff8211156152b357600080fd5b602082029050602081019050919050565b600067ffffffffffffffff8211156152db57600080fd5b601f19601f8301169050602081019050919050565b6000819050602082019050919050565b60008190508160005260206000209050919050565b600081519050919050565b600081519050919050565b6000602082019050919050565b600082825260208201905092915050565b600082825260208201905092915050565b600082825260208201905092915050565b600082825260208201905092915050565b600081905092915050565b6000615392826153af565b9050919050565b60008115159050919050565b6000819050919050565b600073ffffffffffffffffffffffffffffffffffffffff82169050919050565b6000819050919050565b600060ff82169050919050565b60006153f182615488565b9050919050565b60006154038261540a565b9050919050565b6000615415826153af565b9050919050565b60006154278261542e565b9050919050565b6000615439826153af565b9050919050565b600061544b826153d9565b9050919050565b600061545d826153d9565b9050919050565b600061546f826153d9565b9050919050565b6000615481826153d9565b9050919050565b60006154938261549a565b9050919050565b60006154a5826153af565b9050919050565b82818337600083830152505050565b60005b838110156154d95780820151818401526020810190506154be565b838111156154e8576000848401525b50505050565b6000819050919050565b6000819050919050565b600061550d82615525565b9050919050565b6000601f19601f8301169050919050565b60008160f81b9050919050565b61553b81615387565b811461554657600080fd5b50565b61555281615399565b811461555d57600080fd5b50565b615569816153a5565b811461557457600080fd5b50565b615580816153cf565b811461558b57600080fd5b5056fea26469706673582212209621672d397c5187f500e39833dd0282879807e077cda81f39fa011c8be6317f64736f6c634300060c0033",
  "immutableReferences": {},
  "source": "pragma solidity ^0.6.0;\npragma experimental ABIEncoderV2;\n\n\nimport \"./RBBLib.sol\";\nimport \"./RBBRegistry.sol\";\nimport \"./RBBToken.sol\";\nimport \"./SpecificRBBToken.sol\";\nimport \"@openzeppelin/contracts/ownership/Ownable.sol\";\nimport \"@openzeppelin/contracts/lifecycle/Pausable.sol\";\nimport \"@openzeppelin/contracts/math/SafeMath.sol\";\n\n\n\n// Pode ter cliente no hash xyz, fornecedor no hash abc\n// clientes no hash xyz so aqueles que bndes informou (set cliente no hash total)\n/*\nRegras especficas\n- Toda vez que o BNDES faz um desembolso, o destinatrio ser associado como CLIENTE para um idFinancialSupportAgreement especfico (se ainda no estiver associado).\n- Somente clientes fazem pagamentos. Toda vez que um CLIENTE de um idFinancialSupportAgreement especfico paga um fornecedor, o destinatrio ser associado como FORNECEDOR (se ainda no estiver associado). \n- Somente FORNECEDORES podem solicitar o resgate.\n\nTodas as operaes j supem que a entidade de origem e destino esto cadastradas e validadas, pois isso  garantido pelo contrato genrico (RBB_Token)\n\nNo includo:\n------------\n- requisito adicional de o cliente poder resgatar uma parte do valor\n- possibilidade de devoluo de valores\n    - pode ocorrer no final do contrato, por exemplo, porque sobrou algum valor\n    - pode ocorrer no meio do contrato (glosa) e  normalmente se resolve aprovando uma comprovao da devoluo para a conta bancria do projeto, sem precisar devolver ao BNDES. Mas tem alguns casos de devoluo ao BNDES no meio do contrato, que ocorre em casos mais graves, e quando se quer ter mais controle sobre o uso do recurso\n- ideia de o fornecedor poder sacar mais de um saldo ao mesmo tempo.\n\n- qualquer pessoa do BNDES pode liberar (no  necessrio verificar na blockchain)\n*/\n\n//TODO: teoricamente, o cliente deveria registrar na blockchain o pedido de financiamento do cliente, concordam?\n\ncontract FABndesToken is SpecificRBBToken {\n\n    //RBBId donor => true/false (registered or not)\n    mapping (uint => bool) donors;\n\n    //RBBId client => (idFinancialSupportAgreement Client => true/false (registered or not)\n    mapping (uint => mapping (string => bool)) public clients;\n\n    //RBBId supplier => true/false (registered or not)\n    mapping (uint => bool) suppliers;\n\n   /* Hash of approved ManualInterventionOperationApprovedByOwner */\n    bytes32[] public hashManualInterventionOperationApprovedByOwner;\n\n\n   /* BNDES Fee percentage */\n    uint256 public bndesFee;    \n\n    string public DISBURSEMENT_VERIFICATION = \"DISBURSEMENT_VERIFICATION\";\n    string public PAY_SUPPLIER_VERIFICATION = \"PAY_SUPPLIER_VERIFICATION\";\n\n//precisa ser uma em especial ou pode ficar no mesmo bolo das intervencoes manuais?\n//    string public RETURN_FROM_CLIENT_TO_BNDES_VERIFICATION = \"RETURN_FROM_CLIENT_TO_BNDES_VERIFICATION\";\n\n    string public MANUAL_INTERVENTION = \"MANUAL_INTERVENTION\";\n\n    address public responsibleForDonationConfirmation;\n    address public responsibleForDisbursement;\n    address public resposibleForExtraordinaryTransfers;\n    address public responsibleForSettlement;\n\n    uint8 public RESERVED_NO_ADDITIONAL_FIELD_TO_HASH = 0;\n\n     using SafeMath for uint;\n   \n\n//TODO: rever eventos para BNDES Transparente\n    event FA_Disbursement  (uint idClient, string idFinancialSupportAgreement, uint amount);\n    event FA_TokenTransfer (uint fromCnpj, string fromIdFinancialSupportAgreement, uint toCnpj, uint amount);\n    event FA_RedemptionRequested (uint idClaimer, uint amount);\n    event FA_RedemptionSettlement(string redemptionTransactionHash, string receiptHash);\n\n    event FA_DonationBooked(uint idDonor, uint amount);\n    event FA_DonationConfirmed(string idDonor, uint amount, string receiptHash);\n    event FA_AdmFeeCharged(string idDonor, uint amount);\n\n //   event FAB_ManualIntervention_Returned_Client_BNDES (uint fromId, string idFinancialSupportAgreement, uint amount);\n    event FA_ManualIntervention_Fee(uint256 percent, string description);\n\n    event ManualIntervention_RoleOrAddress(address account, uint8 eventType);\n    event FA_DonorAdded(uint id);\n    event FA_ClientAdded(uint id);\n    event FA_SupplierAdded(uint id);\n\n//TODO: verificar papeis nos metodos abaixo\n    constructor (uint fee) public {\n        require (fee < 100, \"Valor de Fee maior que 100%\");\n\n        responsibleForDonationConfirmation = msg.sender;\n        responsibleForDisbursement = msg.sender;\n        resposibleForExtraordinaryTransfers = msg.sender;\n        responsibleForSettlement = msg.sender;\n\n        bndesFee = fee;\n    }\n\n\n    function setBNDESFee(uint256 newBndesFee, string memory description) public onlyOwner {\n        require (newBndesFee < 100, \"Valor de Fee maior que 100%\");\n        bndesFee = newBndesFee;\n        emit FA_ManualIntervention_Fee(newBndesFee, description);\n    }\n\n    function addDonor (uint idDonor) public onlyOwner {\n        require(registry.isValidatedId(idDonor), \"Conta de doador precisa estar com cadastro validado\");\n        if(!donors[idDonor]) {\n            donors[idDonor] = true;\n            emit FA_DonorAdded(idDonor);\n        }\n    }\n\n    /* Donor books a donation */\n    function bookDonation(uint amount) public whenNotPaused  {        \n        \n        uint idDonor = registry.getId(msg.sender);\n\n        require (donors[idDonor], \"Somente doadores podem fazer doaes\");\n        require(registry.isValidatedId(idDonor), \"Conta de doador precisa estar com cadastro validado\");\n        \n        bytes32 specificHash = keccak256(abi.encodePacked(RESERVED_NO_ADDITIONAL_FIELD_TO_HASH));\n        rbbToken.requestMint(specificHash, idDonor, amount);\n\n        emit FA_DonationBooked(idDonor, amount);\n    }\n    \n    /* confirms the donor's donation */\n    function verifyAndActForMint(bytes32 specificHash, uint amount, string[] memory data,\n        string memory docHash) public override whenNotPaused onlyRBBToken {\n\n        require (keccak256(abi.encodePacked(RESERVED_NO_ADDITIONAL_FIELD_TO_HASH))==specificHash, \"Erro no clculo do hash da doao\");\n\n        uint admFee = amount.mul(bndesFee).div(100);\n        rbbToken.burn(admFee);\n\n        string memory idDonor = data[0];\n//        require (donors[idDonor], \"Somente doadores podem fazer doaes, registro estah incorreto\");\n\n//TODO: transformar de string para uint de forma a ter eventos soh com uint\n        emit FA_DonationConfirmed(idDonor, amount, docHash);\n        emit FA_AdmFeeCharged(idDonor, amount);\n\n    }\n\n    //*********** */\n\n\n    function getDisbusementData (string memory idFinancialSupportAgreement) public view\n        returns (bytes32, bytes32, string[] memory)  {\n\n        bytes32 fromHash = keccak256(abi.encodePacked(RESERVED_NO_ADDITIONAL_FIELD_TO_HASH));\n        bytes32 toHash = keccak256(abi.encodePacked(idFinancialSupportAgreement));\n\n        string[] memory data = new string[](2);\n        data[0] = DISBURSEMENT_VERIFICATION;\n        data[1] = idFinancialSupportAgreement;\n        return (fromHash, toHash, data);\n    }\n\n    function getPaySupplierData (string memory idFinancialSupportAgreement) public view\n            returns (bytes32, bytes32, string[] memory) {\n\n        bytes32 fromHash = keccak256(abi.encodePacked(idFinancialSupportAgreement));\n        bytes32 toHash = keccak256(abi.encodePacked(RESERVED_NO_ADDITIONAL_FIELD_TO_HASH));\n\n        string[] memory data = new string[](2);\n        data[0] = PAY_SUPPLIER_VERIFICATION;\n        data[1] = idFinancialSupportAgreement;\n        return (fromHash, toHash, data);\n    }\n\n\n    function getRedeemData () public \n            returns (bytes32, string[] memory) {\n\n        bytes32 fromHash = keccak256(abi.encodePacked(RESERVED_NO_ADDITIONAL_FIELD_TO_HASH));\n\n        string[] memory data = new string[](0);\n        return (fromHash, data);\n    }\n\n    //*********** */\n\n\n    function verifyAndActForTransfer(uint fromId, bytes32 fromHash, uint toId, bytes32 toHash, \n            uint amount, string[] memory data) public override whenNotPaused onlyRBBToken {\n\n        string memory specificMethod = data[0];\n\n        require (amount>0, \"Valor a ser transacionado deve ser maior do que zero.\");\n\n\n        if (RBBLib.isEqual(DISBURSEMENT_VERIFICATION, specificMethod)) {\n            verifyAndActForTransfer_DISBURSEMENT(fromId, fromHash, toId, toHash, amount, data);\n        }\n        else if (RBBLib.isEqual(PAY_SUPPLIER_VERIFICATION, specificMethod)) {\n            verifyAndActForTransfer_PAY_SUPPLIER(fromId, fromHash, toId, toHash, amount, data);\n        }\n//TODO: incluir intervencao manual. Owner do contrato aprova uma transferencia e o dono da carteira a executa?\n        else {\n            require (false, \"Nenhuma verificao especfica encontrada para a transferncia\");\n        }\n\n    }\n\n//TODO: incluir msg.sender aqui e testar que  o resposibleForSettlement\n//TODO: temos que contemplar pedido de doacao!? Cliente se cadastrando no cadastro. Marcio nao acha critico\n//PREMISSA 1: \n    function verifyAndActForTransfer_DISBURSEMENT(uint fromId, bytes32 fromHash, uint toId, bytes32 toHash, \n            uint amount, string[] memory data) internal whenNotPaused {\n    \n        string memory idFinancialSupportAgreement = data[1];\n        uint ownerId = registry.getId(owner());\n\n        //Essa eh uma regra especifica visto que outra organizacao pode ter recebido o token no allocate.\n        require (fromId == ownerId, \"Responsvel pela liberao de recursos no est correto\");\n        require (keccak256(abi.encodePacked(RESERVED_NO_ADDITIONAL_FIELD_TO_HASH))==fromHash, \"Erro no clculo do hash da conta do BNDES\");\n        require (keccak256(abi.encodePacked(idFinancialSupportAgreement))==toHash, \"Erro no clculo do hash da conta do cliente\");\n\n        if (!clients[toId][idFinancialSupportAgreement]) {\n            clients[toId][idFinancialSupportAgreement] = true; //register the client\n            emit FA_ClientAdded(toId);\n\n        }\n\n        emit FA_Disbursement (toId, idFinancialSupportAgreement, amount);\n\n    }\n\n    function verifyAndActForTransfer_PAY_SUPPLIER(uint fromId, bytes32 fromHash, uint toId, bytes32 toHash, \n            uint amount, string[] memory data) internal whenNotPaused {\n    \n        string memory idFinancialSupportAgreement = data[1];\n\n        require (clients[fromId][idFinancialSupportAgreement], \"Somente clientes em contratos cadastrados podem executar o pagamento\");\n        require (keccak256(abi.encodePacked(idFinancialSupportAgreement))==fromHash, \"Erro no clculo do hash da conta do cliente\");\n        require (keccak256(abi.encodePacked(RESERVED_NO_ADDITIONAL_FIELD_TO_HASH))==fromHash, \"Erro no clculo do hash da conta do fornecedor\");\n\n        require(fromId != toId,\n            \"Um CNPJ no pode transferir token para si, ainda que em papis distintos (Cliente/Fornecedor)\");\n\n        if (!suppliers[toId]) {\n            suppliers[toId] = true; //register the supplier\n            emit FA_SupplierAdded(fromId);\n        }\n\n        emit FA_TokenTransfer (fromId, idFinancialSupportAgreement, toId, amount);\n\n    }\n\n    //TODO: BNDES poder pagar fornecedor usando token\n\n\n    function verifyAndActForRedeem(uint fromId, bytes32 fromHash, uint amount, string[] memory data) \n        public override whenNotPaused onlyRBBToken {\n\n        require (amount>0, \"Valor a ser transacionado deve ser maior do que zero.\");\n        require (suppliers[fromId], \"Somente fornecedores podem executar o pagamento\");\n        require (keccak256(abi.encodePacked(RESERVED_NO_ADDITIONAL_FIELD_TO_HASH))==fromHash, \"Erro no clculo do hash da conta do fornecedor\");\n\n        emit FA_RedemptionRequested (fromId, amount);\n\n    }\n\n    function verifyAndActForRedemptionSettlement(string memory redemptionTransactionHash, string memory receiptHash, \n        string[] memory data)\n        public override whenNotPaused onlyRBBToken {\n\n        emit FA_RedemptionSettlement (redemptionTransactionHash, receiptHash);\n    }\n\n    modifier onlyRBBToken() {\n        require (msg.sender==address(rbbToken), \"Esse mtodo s pode ser chamado pelo RBB_Token\");\n        _;\n    }\n\n    \n    //*********** MANUAL INTERVENTION  */\n\n    function authorizeExtraordinaryTransfer (uint fromId, bytes32 fromHash, uint toId, bytes32 toHash, \n            uint amount) public onlyOwner {\n        \n        //TODO: verificar from e to sao parte do contrato especifico\n\n        bytes32 m = keccak256(abi.encodePacked(fromId, fromHash, toId, toHash, amount));\n        hashManualInterventionOperationApprovedByOwner.push(m);\n\n        //TODO: incluir evento\n        //TODO: criar acao intervencao manual\n    }\n   \n/*\n    function getReturnedClientToBNDESData (string memory idFinancialSupportAgreement) public \n        returns (bytes32, bytes32, string[] memory) {\n\n        bytes32 fromHash = keccak256(abi.encodePacked(idFinancialSupportAgreement));\n        bytes32 toHash = keccak256(abi.encodePacked(RESERVED_NO_ADDITIONAL_FIELD_TO_HASH));\n\n        string[] memory data = new string[](2);\n        data[0] = RETURN_FROM_CLIENT_TO_BNDES_VERIFICATION;\n        data[1] = idFinancialSupportAgreement;\n        return (fromHash, toHash, data);\n    }\n*/   \n\n/*    \n//TODO: incluir no metodo publico, tratar como caso geral de tratamento de erros ou nao?\n    function verifyAndActForTransfer_RETURN_CLIENT_BNDES(uint fromId, bytes32 fromHash, uint toId, bytes32 toHash, \n            uint amount, string[] memory data) internal whenNotPaused {\n    \n        string memory idFinancialSupportAgreement = data[1];\n\n        require (clients[fromId][idFinancialSupportAgreement], \"Somente clientes em contratos cadastrados podem executar o retorno de recursos\");\n        require (keccak256(abi.encodePacked(idFinancialSupportAgreement))==fromHash, \"Erro no clculo do hash da conta do cliente\");\n        require (keccak256(abi.encodePacked(RESERVED_NO_ADDITIONAL_FIELD_TO_HASH))==fromHash, \"Erro no clculo do hash da conta do BNDES\");\n\n        emit FA_ManualIntervention_Returned_Client_BNDES (fromId, idFinancialSupportAgreement, amount);\n\n    }\n*/\n\n\n\n /**\n    * By default, the owner is also the Responsible for Donation Confirmation. \n    * The owner can assign other address to be the Responsible for Donation Confirmation. \n    * @param rs Ethereum address to be assigned as Responsible for Donation Confirmation.\n    */\n    function setResponsibleForDonationConfirmation(address rs) onlyOwner public {\n        uint id = registry.getId(rs);\n        require(id==registry.getId(owner()), \"O responsvel pela confirmao doao deve ser da mesmo RBB_ID do contrato\");\n        responsibleForDonationConfirmation = rs;\n        emit ManualIntervention_RoleOrAddress(rs, 1);\n    }\n\n   /**\n    * By default, the owner is also the Responsible for Disbursment. \n    * The owner can assign other address to be the Responsible for Disbursment. \n    * @param rs Ethereum address to be assigned as Responsible for Disbursment.\n    */\n    function setResponsibleForDisbursement(address rs) onlyOwner public {\n        uint id = registry.getId(rs);\n        require(id==registry.getId(owner()), \"O responsvel pelo desembolso deve ser da mesmo RBB_ID do contrato\");\n        responsibleForDisbursement = rs;\n        emit ManualIntervention_RoleOrAddress(rs, 2);\n    }\n\n   /**\n    * By default, the owner is also the Responsible for Extraordinary Transfers. \n    * The owner can assign other address to be the Resposible Extraordinary Transfers. \n    * @param rs Ethereum address to be assigned as Responsible for Extraordinary Transfers.\n    */\n    function setResposibleForExtraordinaryTransfers(address rs) onlyOwner public {\n        uint id = registry.getId(rs);\n        require(id==registry.getId(owner()), \"O responsvel pelo cadastramento de transferencias extraordinrias deve ser da mesmo RBB_ID do contrato\");\n        resposibleForExtraordinaryTransfers = rs;\n        emit ManualIntervention_RoleOrAddress(rs, 3);\n    }\n\n   /**\n    * By default, the owner is also the Responsible for Settlement. \n    * The owner can assign other address to be the Responsible for Settlement. \n    * @param rs Ethereum address to be assigned as Responsible for Settlement.\n    */\n    function setResponsibleForSettlement(address rs) onlyOwner public {\n        uint id = registry.getId(rs);\n        require(id==registry.getId(owner()), \"O responsvel pela liquidao deve ser da mesmo RBB_ID do contrato\");\n        responsibleForSettlement = rs;\n        emit ManualIntervention_RoleOrAddress(rs, 4);\n    }\n\n/*\n\n(2) O mtodo que faz a confirmao da doao faz queima 3% do valor recebido.  isso mesmo ou prefere transferir os 3% para uma conta do BNDES naquele contrato + viabilizar a possibilidade de o BNDES pagar seus fornecedores? Qual a melhor soluo para agora? @Marcio Onodera Bndes \n(3)  Todos os mtodos podero receber hashs de informaes offchain, correto? BookDonation, transfer, etc?\n(4) Faz sentido existir uma ao de burn no associada a outro evento, como um Redeem?\n(5)  necessrio separar o cadastro de uma empresa do papel cliente em um contrato financeiro (nesse caso, a empresa se auto-cadastraria para esse contrato financeiro) ou podemos simplificar e dizer que o cadastro ocorre no contexto de um desembolso? Percebam que com o novo RBB_Id, no temos mais a afirmao do cliente associada ao contrato financeiro. No entanto, o BNDES possui documentos no mundo offchain que o enquadram como cliente e, por isso, poderamos simplificar permitir que o cliente fosse adicionado durante uma operao de desembolso.\n\n\n2. Acho que, simplesmente, queimar no  mesmo bom, no. O dinheiro foi parar em algum lugar e esse lugar tinha que ser transparente! Alis, o contrato especfico sequer deveria poder fazer isso, pensando melhor, n? Isso talvez mude algumas coisas, no?\n3. Todos? Os que precisarem de comprovao... No est claro para mim que todos precisam. S olhando com mais detalhes.\n4. A ser executada por quem? Ele vai queimar dinheiro que est com quem? Se for dinheiro que est na conta do BNDES, pode ser razovel, embora no saiba para que isso sirva, a princpio. \n5. No saquei, mas  coisa do token especfico, no ?\n\n\n\n2. Deveria mintar os 100% e separar os 3% para a reserva para gastos administrativos. O BNDES deveria decidir se queima tudo no incio (passei para a minha reserva e ponto), queima  medida que vai pagando despesas em FIAT e se explica offchain, ou passa a pagar seus fornecedores com Token tb.\n3. Bom, o hash  para incorporar  blockchain uma informao ou um conjunto de informaes relativas a eventos ou documentos offcain, certo? Acho que pode haver elementos desses que no pensamos em documentar, associados a esses mtodos e que, com esse artifcio, pudessem enriquecer o processo.\n4. Acho que sim. Talvez seja isso a ser feito, pensando no que deveria seria feito caso o BNDES tivesse que devolver o dinheiro no utilizado para os doadores do Fundo Amaznia, por exemplo. Acho q pode acontecer de devolver os fundos para outros casos tb, como o BNDES devolve est devolvendo ao FAT agora.\n5. Tenho receio de no ter entendido direito o impacto da deciso, mas fica a questo que  necessrio associar o cliente, ao contrato e ao desembolso. Entendo que a associao  necessriamente prvia, mas se ela ser on-chain ou receber essa garantia de outro sistema externo, creio que o efeito  o mesmo se no houver risco de trasnferncia indevida.\n\n\nCriar um hash especfico para representar o valor dos 3%\n*/\n\n\n}",
  "sourcePath": "/Users/suzana.moreno/workspace/rbb-token/Back-Blockchain/contracts/FABndesToken.sol",
  "compiler": {
    "name": "solc",
    "version": "0.6.12+commit.27d51765.Emscripten.clang"
  },
  "schemaVersion": "3.2.5",
  "updatedAt": "2020-09-22T22:28:45.014Z",
  "devdoc": {
    "kind": "dev",
    "methods": {
      "isOwner()": {
        "details": "Returns true if the caller is the current owner."
      },
      "owner()": {
        "details": "Returns the address of the current owner."
      },
      "pause()": {
        "details": "Called by a pauser to pause, triggers stopped state."
      },
      "paused()": {
        "details": "Returns true if the contract is paused, and false otherwise."
      },
      "renounceOwnership()": {
        "details": "Leaves the contract without owner. It will not be possible to call `onlyOwner` functions anymore. Can only be called by the current owner. NOTE: Renouncing ownership will leave the contract without an owner, thereby removing any functionality that is only available to the owner."
      },
      "setResponsibleForDisbursement(address)": {
        "params": {
          "rs": "Ethereum address to be assigned as Responsible for Disbursment."
        }
      },
      "setResponsibleForDonationConfirmation(address)": {
        "params": {
          "rs": "Ethereum address to be assigned as Responsible for Donation Confirmation."
        }
      },
      "setResponsibleForSettlement(address)": {
        "params": {
          "rs": "Ethereum address to be assigned as Responsible for Settlement."
        }
      },
      "setResposibleForExtraordinaryTransfers(address)": {
        "params": {
          "rs": "Ethereum address to be assigned as Responsible for Extraordinary Transfers."
        }
      },
      "transferOwnership(address)": {
        "details": "Transfers ownership of the contract to a new account (`newOwner`). Can only be called by the current owner."
      },
      "unpause()": {
        "details": "Called by a pauser to unpause, returns to normal state."
      }
    },
    "version": 1
  },
  "userdoc": {
    "kind": "user",
    "methods": {
      "setResponsibleForDisbursement(address)": {
        "notice": "By default, the owner is also the Responsible for Disbursment.  The owner can assign other address to be the Responsible for Disbursment. "
      },
      "setResponsibleForDonationConfirmation(address)": {
        "notice": "By default, the owner is also the Responsible for Donation Confirmation.  The owner can assign other address to be the Responsible for Donation Confirmation. "
      },
      "setResponsibleForSettlement(address)": {
        "notice": "By default, the owner is also the Responsible for Settlement.  The owner can assign other address to be the Responsible for Settlement. "
      },
      "setResposibleForExtraordinaryTransfers(address)": {
        "notice": "By default, the owner is also the Responsible for Extraordinary Transfers.  The owner can assign other address to be the Resposible Extraordinary Transfers. "
      }
    },
    "version": 1
  }
}