{
  "contractName": "RBBLib",
  "abi": [
    {
      "constant": true,
      "inputs": [
        {
          "internalType": "string",
          "name": "str",
          "type": "string"
        }
      ],
      "name": "isValidHash",
      "outputs": [
        {
          "internalType": "bool",
          "name": "",
          "type": "bool"
        }
      ],
      "payable": false,
      "stateMutability": "pure",
      "type": "function"
    }
  ],
  "bytecode": "0x610328610026600b82828239805160001a60731461001957fe5b30600052607381538281f3fe73000000000000000000000000000000000000000030146080604052600436106100355760003560e01c80636edcb12f1461003a575b600080fd5b6100f36004803603602081101561005057600080fd5b810190808035906020019064010000000081111561006d57600080fd5b82018360208201111561007f57600080fd5b803590602001918460018302840111640100000000831117156100a157600080fd5b91908080601f016020809104026020016040519081016040528093929190818152602001838380828437600081840152601f19601f82011690508083019250505050505050919291929050505061010d565b604051808215151515815260200191505060405180910390f35b6000606082905060408151146101275760009150506102ee565b60008090505b60408110156102e7577f300000000000000000000000000000000000000000000000000000000000000082828151811061016357fe5b602001015160f81c60f81b7effffffffffffffffffffffffffffffffffffffffffffffffffffffffffffff191610156101a1576000925050506102ee565b7f39000000000000000000000000000000000000000000000000000000000000008282815181106101ce57fe5b602001015160f81c60f81b7effffffffffffffffffffffffffffffffffffffffffffffffffffffffffffff191611801561025f57507f610000000000000000000000000000000000000000000000000000000000000082828151811061023057fe5b602001015160f81c60f81b7effffffffffffffffffffffffffffffffffffffffffffffffffffffffffffff1916105b1561026f576000925050506102ee565b7f660000000000000000000000000000000000000000000000000000000000000082828151811061029c57fe5b602001015160f81c60f81b7effffffffffffffffffffffffffffffffffffffffffffffffffffffffffffff191611156102da576000925050506102ee565b808060010191505061012d565b5060019150505b91905056fea265627a7a7231582095c7ccfe329e0b2813b51f3f6eb1493090e92b70c3a15182a02f9cdcd952f16064736f6c63430005100032",
  "source": "\npragma solidity ^0.5.0;\n\nlibrary RBBLib {\n\n  function isValidHash(string memory str) public pure returns (bool)  {\n\n    bytes memory b = bytes(str);\n    if(b.length != 64) return false;\n\n    for (uint i = 0; i < 64; i++) {\n        if (b[i] < \"0\") return false;\n        if (b[i] > \"9\" && b[i] < \"a\") return false;\n        if (b[i] > \"f\") return false;\n    }\n\n    return true;\n  }\n\n}",
  "sourcePath": "/Users/suzana.moreno/workspace/identifiedToken/Back-Blockchain/contracts/Utils.sol",
  "compiler": {
    "name": "solc",
    "version": "0.5.16+commit.9c3226ce.Emscripten.clang"
  },
  "schemaVersion": "3.0.23",
  "updatedAt": "2020-07-06T19:50:30.295Z",
  "devdoc": {
    "methods": {}
  },
  "userdoc": {
    "methods": {}
  }
}