{
  "contractName": "RBBLib",
  "abi": [
    {
      "constant": true,
      "inputs": [
        {
          "internalType": "string",
          "name": "str",
          "type": "string"
        }
      ],
      "name": "isValidHash",
      "outputs": [
        {
          "internalType": "bool",
          "name": "",
          "type": "bool"
        }
      ],
      "payable": false,
      "stateMutability": "pure",
      "type": "function"
    },
    {
      "constant": true,
      "inputs": [
        {
          "internalType": "string",
          "name": "a",
          "type": "string"
        },
        {
          "internalType": "string",
          "name": "b",
          "type": "string"
        }
      ],
      "name": "isEqual",
      "outputs": [
        {
          "internalType": "bool",
          "name": "",
          "type": "bool"
        }
      ],
      "payable": false,
      "stateMutability": "pure",
      "type": "function"
    }
  ],
  "bytecode": "0x610591610026600b82828239805160001a60731461001957fe5b30600052607381538281f3fe73000000000000000000000000000000000000000030146080604052600436106100405760003560e01c8063465c4105146100455780636edcb12f146101af575b600080fd5b6101956004803603604081101561005b57600080fd5b810190808035906020019064010000000081111561007857600080fd5b82018360208201111561008a57600080fd5b803590602001918460018302840111640100000000831117156100ac57600080fd5b91908080601f016020809104026020016040519081016040528093929190818152602001838380828437600081840152601f19601f8201169050808301925050505050505091929192908035906020019064010000000081111561010f57600080fd5b82018360208201111561012157600080fd5b8035906020019184600183028401116401000000008311171561014357600080fd5b91908080601f016020809104026020016040519081016040528093929190818152602001838380828437600081840152601f19601f820116905080830192505050505050509192919290505050610282565b604051808215151515815260200191505060405180910390f35b610268600480360360208110156101c557600080fd5b81019080803590602001906401000000008111156101e257600080fd5b8201836020820111156101f457600080fd5b8035906020019184600183028401116401000000008311171561021657600080fd5b91908080601f016020809104026020016040519081016040528093929190818152602001838380828437600081840152601f19601f820116905080830192505050505050509192919290505050610376565b604051808215151515815260200191505060405180910390f35b600080826040516020018082805190602001908083835b602083106102bc5780518252602082019150602081019050602083039250610299565b6001836020036101000a03801982511681845116808217855250505050505090500191505060405160208183030381529060405280519060200120846040516020018082805190602001908083835b6020831061032e578051825260208201915060208101905060208303925061030b565b6001836020036101000a038019825116818451168082178552505050505050905001915050604051602081830303815290604052805190602001201490508091505092915050565b600060608290506040815114610390576000915050610557565b60008090505b6040811015610550577f30000000000000000000000000000000000000000000000000000000000000008282815181106103cc57fe5b602001015160f81c60f81b7effffffffffffffffffffffffffffffffffffffffffffffffffffffffffffff1916101561040a57600092505050610557565b7f390000000000000000000000000000000000000000000000000000000000000082828151811061043757fe5b602001015160f81c60f81b7effffffffffffffffffffffffffffffffffffffffffffffffffffffffffffff19161180156104c857507f610000000000000000000000000000000000000000000000000000000000000082828151811061049957fe5b602001015160f81c60f81b7effffffffffffffffffffffffffffffffffffffffffffffffffffffffffffff1916105b156104d857600092505050610557565b7f660000000000000000000000000000000000000000000000000000000000000082828151811061050557fe5b602001015160f81c60f81b7effffffffffffffffffffffffffffffffffffffffffffffffffffffffffffff1916111561054357600092505050610557565b8080600101915050610396565b5060019150505b91905056fea265627a7a7231582091875ba61a643854fe414c357eb4f90c4347f1245538ee8be9fd63d6c4f3b04364736f6c63430005100032",
  "source": "\npragma solidity ^0.5.0;\n\nlibrary RBBLib {\n\n  function isValidHash(string memory str) public pure returns (bool)  {\n\n    bytes memory b = bytes(str);\n    if(b.length != 64) return false;\n\n    for (uint i = 0; i < 64; i++) {\n        if (b[i] < \"0\") return false;\n        if (b[i] > \"9\" && b[i] < \"a\") return false;\n        if (b[i] > \"f\") return false;\n    }\n\n    return true;\n  }\n\n  function isEqual(string memory a, string memory b) public pure returns (bool) {\n    bool r = keccak256(abi.encodePacked(a)) == keccak256(abi.encodePacked(b));\n    return r;\n  }\n\n    \n\n}",
  "sourcePath": "/Users/suzana.moreno/workspace/rbb-token/Back-Blockchain/contracts/RBBLib.sol",
  "compiler": {
    "name": "solc",
    "version": "0.5.16+commit.9c3226ce.Emscripten.clang"
  },
  "schemaVersion": "3.0.23",
  "updatedAt": "2020-09-15T15:33:35.320Z",
  "devdoc": {
    "methods": {}
  },
  "userdoc": {
    "methods": {}
  }
}