{
  "contractName": "RBBLib",
  "abi": [
    {
      "inputs": [
        {
          "internalType": "string",
          "name": "str",
          "type": "string"
        }
      ],
      "name": "isValidHash",
      "outputs": [
        {
          "internalType": "bool",
          "name": "",
          "type": "bool"
        }
      ],
      "stateMutability": "pure",
      "type": "function"
    },
    {
      "inputs": [
        {
          "internalType": "string",
          "name": "a",
          "type": "string"
        },
        {
          "internalType": "string",
          "name": "b",
          "type": "string"
        }
      ],
      "name": "isEqual",
      "outputs": [
        {
          "internalType": "bool",
          "name": "",
          "type": "bool"
        }
      ],
      "stateMutability": "pure",
      "type": "function"
    }
  ],
  "bytecode": "0x61058b610026600b82828239805160001a60731461001957fe5b30600052607381538281f3fe73000000000000000000000000000000000000000030146080604052600436106100405760003560e01c8063465c4105146100455780636edcb12f146101ad575b600080fd5b6101956004803603604081101561005b57600080fd5b810190808035906020019064010000000081111561007857600080fd5b82018360208201111561008a57600080fd5b803590602001918460018302840111640100000000831117156100ac57600080fd5b91908080601f016020809104026020016040519081016040528093929190818152602001838380828437600081840152601f19601f8201169050808301925050505050505091929192908035906020019064010000000081111561010f57600080fd5b82018360208201111561012157600080fd5b8035906020019184600183028401116401000000008311171561014357600080fd5b91908080601f016020809104026020016040519081016040528093929190818152602001838380828437600081840152601f19601f82011690508083019250505050505050919291929050505061027e565b60405180821515815260200191505060405180910390f35b610266600480360360208110156101c357600080fd5b81019080803590602001906401000000008111156101e057600080fd5b8201836020820111156101f257600080fd5b8035906020019184600183028401116401000000008311171561021457600080fd5b91908080601f016020809104026020016040519081016040528093929190818152602001838380828437600081840152601f19601f820116905080830192505050505050509192919290505050610372565b60405180821515815260200191505060405180910390f35b600080826040516020018082805190602001908083835b602083106102b85780518252602082019150602081019050602083039250610295565b6001836020036101000a03801982511681845116808217855250505050505090500191505060405160208183030381529060405280519060200120846040516020018082805190602001908083835b6020831061032a5780518252602082019150602081019050602083039250610307565b6001836020036101000a038019825116818451168082178552505050505050905001915050604051602081830303815290604052805190602001201490508091505092915050565b60006060829050604081511461038c576000915050610550565b60005b6040811015610549577f30000000000000000000000000000000000000000000000000000000000000008282815181106103c557fe5b602001015160f81c60f81b7effffffffffffffffffffffffffffffffffffffffffffffffffffffffffffff1916101561040357600092505050610550565b7f390000000000000000000000000000000000000000000000000000000000000082828151811061043057fe5b602001015160f81c60f81b7effffffffffffffffffffffffffffffffffffffffffffffffffffffffffffff19161180156104c157507f610000000000000000000000000000000000000000000000000000000000000082828151811061049257fe5b602001015160f81c60f81b7effffffffffffffffffffffffffffffffffffffffffffffffffffffffffffff1916105b156104d157600092505050610550565b7f66000000000000000000000000000000000000000000000000000000000000008282815181106104fe57fe5b602001015160f81c60f81b7effffffffffffffffffffffffffffffffffffffffffffffffffffffffffffff1916111561053c57600092505050610550565b808060010191505061038f565b5060019150505b91905056fea2646970667358221220035155fbbb34b4f32a3ccc1a655a09c30678121745c36926a2c4924326e856cf64736f6c634300060c0033",
  "immutableReferences": {},
  "source": "\npragma solidity ^0.6.0;\n\nlibrary RBBLib {\n\n  function isValidHash(string memory str) public pure returns (bool)  {\n\n    bytes memory b = bytes(str);\n    if(b.length != 64) return false;\n\n    for (uint i = 0; i < 64; i++) {\n        if (b[i] < \"0\") return false;\n        if (b[i] > \"9\" && b[i] < \"a\") return false;\n        if (b[i] > \"f\") return false;\n    }\n\n    return true;\n  }\n\n  function isEqual(string memory a, string memory b) public pure returns (bool) {\n    bool r = keccak256(abi.encodePacked(a)) == keccak256(abi.encodePacked(b));\n    return r;\n  }\n\n    \n\n}",
  "sourcePath": "/Users/suzana.moreno/workspace/rbb-token/Back-Blockchain/contracts/RBBLib.sol",
  "compiler": {
    "name": "solc",
    "version": "0.6.12+commit.27d51765.Emscripten.clang"
  },
  "schemaVersion": "3.2.5",
  "updatedAt": "2020-09-22T22:24:32.248Z",
  "devdoc": {
    "kind": "dev",
    "methods": {},
    "version": 1
  },
  "userdoc": {
    "kind": "user",
    "methods": {},
    "version": 1
  }
}