{
  "contractName": "RBBRegistry",
  "abi": [
    {
      "inputs": [
        {
          "internalType": "uint256",
          "name": "idResposibleForValidation",
          "type": "uint256"
        }
      ],
      "stateMutability": "nonpayable",
      "type": "constructor"
    },
    {
      "anonymous": false,
      "inputs": [
        {
          "indexed": true,
          "internalType": "address",
          "name": "previousOwner",
          "type": "address"
        },
        {
          "indexed": true,
          "internalType": "address",
          "name": "newOwner",
          "type": "address"
        }
      ],
      "name": "OwnershipTransferred",
      "type": "event"
    },
    {
      "inputs": [],
      "name": "isOwner",
      "outputs": [
        {
          "internalType": "bool",
          "name": "",
          "type": "bool"
        }
      ],
      "stateMutability": "view",
      "type": "function",
      "constant": true
    },
    {
      "inputs": [
        {
          "internalType": "address",
          "name": "",
          "type": "address"
        }
      ],
      "name": "legalEntitiesChangeAccount",
      "outputs": [
        {
          "internalType": "bool",
          "name": "",
          "type": "bool"
        }
      ],
      "stateMutability": "view",
      "type": "function",
      "constant": true
    },
    {
      "inputs": [
        {
          "internalType": "address",
          "name": "",
          "type": "address"
        }
      ],
      "name": "legalEntitiesInfo",
      "outputs": [
        {
          "internalType": "uint256",
          "name": "id",
          "type": "uint256"
        },
        {
          "internalType": "bytes32",
          "name": "idProofHash",
          "type": "bytes32"
        },
        {
          "internalType": "enum RBBRegistry.BlockchainAccountState",
          "name": "state",
          "type": "uint8"
        }
      ],
      "stateMutability": "view",
      "type": "function",
      "constant": true
    },
    {
      "inputs": [],
      "name": "owner",
      "outputs": [
        {
          "internalType": "address",
          "name": "",
          "type": "address"
        }
      ],
      "stateMutability": "view",
      "type": "function",
      "constant": true
    },
    {
      "inputs": [],
      "name": "renounceOwnership",
      "outputs": [],
      "stateMutability": "nonpayable",
      "type": "function"
    },
    {
      "inputs": [
        {
          "internalType": "address",
          "name": "newOwner",
          "type": "address"
        }
      ],
      "name": "transferOwnership",
      "outputs": [],
      "stateMutability": "nonpayable",
      "type": "function"
    },
    {
      "inputs": [
        {
          "internalType": "address",
          "name": "addr",
          "type": "address"
        }
      ],
      "name": "isValidatedAccount",
      "outputs": [
        {
          "internalType": "bool",
          "name": "",
          "type": "bool"
        }
      ],
      "stateMutability": "view",
      "type": "function",
      "constant": true
    },
    {
      "inputs": [
        {
          "internalType": "uint256",
          "name": "id",
          "type": "uint256"
        }
      ],
      "name": "isValidatedId",
      "outputs": [
        {
          "internalType": "bool",
          "name": "",
          "type": "bool"
        }
      ],
      "stateMutability": "view",
      "type": "function",
      "constant": true
    },
    {
      "inputs": [
        {
          "internalType": "address",
          "name": "addr",
          "type": "address"
        }
      ],
      "name": "getId",
      "outputs": [
        {
          "internalType": "uint256",
          "name": "",
          "type": "uint256"
        }
      ],
      "stateMutability": "view",
      "type": "function",
      "constant": true
    },
    {
      "inputs": [
        {
          "internalType": "uint256",
          "name": "cnpj",
          "type": "uint256"
        }
      ],
      "name": "getBlockchainAccount",
      "outputs": [
        {
          "internalType": "address",
          "name": "",
          "type": "address"
        }
      ],
      "stateMutability": "view",
      "type": "function",
      "constant": true
    },
    {
      "inputs": [
        {
          "internalType": "uint256",
          "name": "cnpj",
          "type": "uint256"
        }
      ],
      "name": "registryMock",
      "outputs": [],
      "stateMutability": "nonpayable",
      "type": "function"
    }
  ],
  "bytecode": "0x608060405234801561001057600080fd5b50604051610c6c380380610c6c8339818101604052602081101561003357600080fd5b8101908080519060200190929190505050600061005461025760201b60201c565b9050806000806101000a81548173ffffffffffffffffffffffffffffffffffffffff021916908373ffffffffffffffffffffffffffffffffffffffff1602179055508073ffffffffffffffffffffffffffffffffffffffff16600073ffffffffffffffffffffffffffffffffffffffff167f8be0079c531659141344cd1fd0a4f28419497f9722a3daafe3b4186f6b6457e060405160405180910390a35033600160006101000a81548173ffffffffffffffffffffffffffffffffffffffff021916908373ffffffffffffffffffffffffffffffffffffffff1602179055506040518060600160405280828152602001600080191681526020016002600481111561015b57fe5b815250600260003373ffffffffffffffffffffffffffffffffffffffff1673ffffffffffffffffffffffffffffffffffffffff168152602001908152602001600020600082015181600001556020820151816001015560408201518160020160006101000a81548160ff021916908360048111156101d557fe5b0217905550905050600160009054906101000a900473ffffffffffffffffffffffffffffffffffffffff166003600083815260200190815260200160002060006101000a81548173ffffffffffffffffffffffffffffffffffffffff021916908373ffffffffffffffffffffffffffffffffffffffff1602179055505061025f565b600033905090565b6109fe8061026e6000396000f3fe608060405234801561001057600080fd5b50600436106100a95760003560e01c8063715018a611610071578063715018a61461026f5780637f157cad146102795780638da5cb5b146102d15780638f32d59b14610305578063e81bb70c14610325578063f2fde38b14610353576100a9565b806326ff4794146100ae578063576590cb1461011f578063613a7896146101795780636426a116146101bd57806365f68c8914610217575b600080fd5b6100f0600480360360208110156100c457600080fd5b81019080803573ffffffffffffffffffffffffffffffffffffffff169060200190929190505050610397565b6040518084815260200183815260200182600481111561010c57fe5b8152602001935050505060405180910390f35b6101616004803603602081101561013557600080fd5b81019080803573ffffffffffffffffffffffffffffffffffffffff1690602001909291905050506103ce565b60405180821515815260200191505060405180910390f35b6101a56004803603602081101561018f57600080fd5b81019080803590602001909291905050506103ee565b60405180821515815260200191505060405180910390f35b6101ff600480360360208110156101d357600080fd5b81019080803573ffffffffffffffffffffffffffffffffffffffff16906020019092919050505061040d565b60405180821515815260200191505060405180910390f35b6102596004803603602081101561022d57600080fd5b81019080803573ffffffffffffffffffffffffffffffffffffffff16906020019092919050505061047f565b6040518082815260200191505060405180910390f35b6102776104cb565b005b6102a56004803603602081101561028f57600080fd5b8101908080359060200190929190505050610603565b604051808273ffffffffffffffffffffffffffffffffffffffff16815260200191505060405180910390f35b6102d9610640565b604051808273ffffffffffffffffffffffffffffffffffffffff16815260200191505060405180910390f35b61030d610669565b60405180821515815260200191505060405180910390f35b6103516004803603602081101561033b57600080fd5b81019080803590602001909291905050506106c7565b005b6103956004803603602081101561036957600080fd5b81019080803573ffffffffffffffffffffffffffffffffffffffff1690602001909291905050506107d1565b005b60026020528060005260406000206000915090508060000154908060010154908060020160009054906101000a900460ff16905083565b60046020528060005260406000206000915054906101000a900460ff1681565b6000806103fa83610603565b90506104058161040d565b915050919050565b60006002600481111561041c57fe5b600260008473ffffffffffffffffffffffffffffffffffffffff1673ffffffffffffffffffffffffffffffffffffffff16815260200190815260200160002060020160009054906101000a900460ff16600481111561047757fe5b149050919050565b6000600260008373ffffffffffffffffffffffffffffffffffffffff1673ffffffffffffffffffffffffffffffffffffffff168152602001908152602001600020600001549050919050565b6104d3610669565b610545576040517f08c379a00000000000000000000000000000000000000000000000000000000081526004018080602001828103825260208152602001807f4f776e61626c653a2063616c6c6572206973206e6f7420746865206f776e657281525060200191505060405180910390fd5b600073ffffffffffffffffffffffffffffffffffffffff1660008054906101000a900473ffffffffffffffffffffffffffffffffffffffff1673ffffffffffffffffffffffffffffffffffffffff167f8be0079c531659141344cd1fd0a4f28419497f9722a3daafe3b4186f6b6457e060405160405180910390a360008060006101000a81548173ffffffffffffffffffffffffffffffffffffffff021916908373ffffffffffffffffffffffffffffffffffffffff160217905550565b60006003600083815260200190815260200160002060009054906101000a900473ffffffffffffffffffffffffffffffffffffffff169050919050565b60008060009054906101000a900473ffffffffffffffffffffffffffffffffffffffff16905090565b60008060009054906101000a900473ffffffffffffffffffffffffffffffffffffffff1673ffffffffffffffffffffffffffffffffffffffff166106ab610857565b73ffffffffffffffffffffffffffffffffffffffff1614905090565b600033905060008060001b90506040518060600160405280848152602001828152602001600260048111156106f857fe5b815250600260008473ffffffffffffffffffffffffffffffffffffffff1673ffffffffffffffffffffffffffffffffffffffff168152602001908152602001600020600082015181600001556020820151816001015560408201518160020160006101000a81548160ff0219169083600481111561077257fe5b0217905550905050816003600085815260200190815260200160002060006101000a81548173ffffffffffffffffffffffffffffffffffffffff021916908373ffffffffffffffffffffffffffffffffffffffff160217905550505050565b6107d9610669565b61084b576040517f08c379a00000000000000000000000000000000000000000000000000000000081526004018080602001828103825260208152602001807f4f776e61626c653a2063616c6c6572206973206e6f7420746865206f776e657281525060200191505060405180910390fd5b6108548161085f565b50565b600033905090565b600073ffffffffffffffffffffffffffffffffffffffff168173ffffffffffffffffffffffffffffffffffffffff1614156108e5576040517f08c379a00000000000000000000000000000000000000000000000000000000081526004018080602001828103825260268152602001806109a36026913960400191505060405180910390fd5b8073ffffffffffffffffffffffffffffffffffffffff1660008054906101000a900473ffffffffffffffffffffffffffffffffffffffff1673ffffffffffffffffffffffffffffffffffffffff167f8be0079c531659141344cd1fd0a4f28419497f9722a3daafe3b4186f6b6457e060405160405180910390a3806000806101000a81548173ffffffffffffffffffffffffffffffffffffffff021916908373ffffffffffffffffffffffffffffffffffffffff1602179055505056fe4f776e61626c653a206e6577206f776e657220697320746865207a65726f2061646472657373a264697066735822122028d1934c4dd1f872366c1937dea0074b044f90a3d827f40efd1960b442ff944164736f6c634300060c0033",
  "immutableReferences": {},
  "source": "pragma solidity ^0.6.0;\n\nimport \"@openzeppelin/contracts/ownership/Ownable.sol\";\nimport \"./RBBLib.sol\";\n\n/*\nAcho que LegalEntityInfo deveria conter id, ao invés de cnpj\nNo caso de pessoa jurídica, o id é o cnpj\nNo caso de pessoa física, um link para um cpf (por causa da LGPD).\n*/\ncontract RBBRegistry is Ownable() {\n\n    /**\n        The account of clients and suppliers are assigned to states.\n        AVAILABLE - The account is not yet assigned any role.\n        WAITING_VALIDATION - The account was linked to a legal entity but it still needs to be validated\n        VALIDATED - The account was validated\n        INVALIDATED_BY_VALIDATOR - The account was invalidated\n        INVALIDATED_BY_CHANGE - The client or supplier changed the ethereum account so the original one must be invalidated.\n     */\n    enum BlockchainAccountState {AVAILABLE,WAITING_VALIDATION,VALIDATED,INVALIDATED_BY_VALIDATOR,INVALIDATED_BY_CHANGE}\n    BlockchainAccountState blockchainState; //Not used. Defined to create the enum type.\n\n//TODO: deverá ser um conjunto de validadores, com possibilidade de incluir/remover novos,\n//TODO: owner n pode ser BNDES\n//Tratar como address ou como id?\n    address responsibleForRegistryValidation;\n\n    //todo: avaliar criacao de papel de invalidador para casos ad-hoc\n\n    /**\n        Describes the Legal Entity - clients or suppliers\n     */\n    struct LegalEntityInfo {\n        uint id; //Brazilian identification of legal entity\n        bytes32 idProofHash; //hash of declaration\n        BlockchainAccountState state;\n    }\n\n    /**\n        Links Ethereum addresses to LegalEntityInfo\n     */\n    mapping(address => LegalEntityInfo) public legalEntitiesInfo;\n\n    /**\n        Links Legal Entity to Ethereum address.\n     */\n    mapping(uint => address) legalEntityId_To_Addr;\n\n\n    /**\n        Links Ethereum addresses to the possibility to change the account\n        Since the Ethereum account can be changed once, it is not necessary to put the bool to false.\n        TODO: Discuss later what is the best solution to this\n     */\n    mapping(address => bool) public legalEntitiesChangeAccount;\n\n/*\n    event AccountRegistration(address addr, uint id,  string idProofHash);\n    event AccountChange(address oldAddr, address newAddr, uint id, string idProofHash);\n    event AccountValidation(address addr, uint id);\n    event AccountInvalidation(address addr, uint id);\n*/\n    constructor (uint idResposibleForValidation) public {\n        responsibleForRegistryValidation = msg.sender;\n        legalEntitiesInfo[msg.sender] = LegalEntityInfo(idResposibleForValidation, \"\", BlockchainAccountState.VALIDATED);\n        legalEntityId_To_Addr[idResposibleForValidation] = responsibleForRegistryValidation;\n//        emit AccountRegistration(msg.sender, idResposibleForValidation, \"\");\n    }\n\n/*\n    function registryLegalEntity(uint cnpj, bytes32 idProofHash)\n        public {\n        \n        address addr = msg.sender;\n\n        // Endereço não pode ter sido cadastrado anteriormente\n        require (isAvailableAccount(addr), \"Endereço não pode ter sido cadastrado anteriormente\");\n\n//?? Avaliar se essa verificacao serah feita\n\n        address account = getBlockchainAccount(cnpj);\n\n        require (isAvailableAccount(account), \"CNPJ Já está associado. Use a função Troca.\");\n\n        legalEntitiesInfo[addr] = LegalEntityInfo(cnpj, idProofHash, BlockchainAccountState.WAITING_VALIDATION);\n\n        legalEntityId_To_Addr[cnpj] = addr;\n\n        emit AccountRegistration(addr, cnpj, idProofHash);\n    }\n\n\n\n    function setResponsibleForRegistryValidation(address rs) public onlyOwner {\n        responsibleForRegistryValidation = rs;\n        //TODOO: evento quando trocar papeis\n    }\n\n\n\n\n    function isResponsibleForRegistryValidation(address addr) public view returns (bool) {\n        return (addr == responsibleForRegistryValidation);\n    }\n\n    function isOwner(address addr) public view returns (bool) {\n        return owner()==addr;\n    }\n\n    function isAvailableAccount(address addr) public view returns (bool) {\n        return legalEntitiesInfo[addr].state == BlockchainAccountState.AVAILABLE;\n    }\n\n//TODO: eh necessario ter metodos que verificam se id ou address estao validos\n\n    function isWaitingValidationAccount(address addr) public view returns (bool) {\n        return legalEntitiesInfo[addr].state == BlockchainAccountState.WAITING_VALIDATION;\n    }\n*/\n    function isValidatedAccount(address addr) public view returns (bool) {\n        return legalEntitiesInfo[addr].state == BlockchainAccountState.VALIDATED;\n    }\n\n    function isValidatedId(uint id) public view returns (bool) {\n        address addr = getBlockchainAccount(id);\n        return isValidatedAccount(addr);\n    }\n/*\n    function isInvalidatedByValidatorAccount(address addr) public view returns (bool) {\n        return legalEntitiesInfo[addr].state == BlockchainAccountState.INVALIDATED_BY_VALIDATOR;\n    }\n\n    function isInvalidatedByChangeAccount(address addr) public view returns (bool) {\n        return legalEntitiesInfo[addr].state == BlockchainAccountState.INVALIDATED_BY_CHANGE;\n    }\n\n    function getResponsibleForRegistryValidation() public view returns (address) {\n        return responsibleForRegistryValidation;\n    }\n*/\n    function getId (address addr) public view returns (uint) {\n        return legalEntitiesInfo[addr].id;\n    }\n/*\n    function getLegalEntityInfo (address addr) public view returns (uint, string memory, uint, address) {\n        return (legalEntitiesInfo[addr].id, legalEntitiesInfo[addr].idProofHash, (uint) (legalEntitiesInfo[addr].state),\n             addr);\n    }\n*/\n    function getBlockchainAccount(uint cnpj) public view returns (address) {\n        return legalEntityId_To_Addr[cnpj];\n    }\n/*\n    function getLegalEntityInfoById (uint cnpj) public view\n        returns (uint, string memory, uint, address) {\n        \n        address addr = getBlockchainAccount(cnpj);\n        return getLegalEntityInfo (addr);\n    }\n\n    function getAccountState(address addr) public view returns (int) {\n        return ((int) (legalEntitiesInfo[addr].state));\n    }\n*/\n    function registryMock(uint cnpj)\n        public {\n        \n        address addr = msg.sender;\n        bytes32 idProofHash = 0x00;\n\n        legalEntitiesInfo[addr] = LegalEntityInfo(cnpj, idProofHash, BlockchainAccountState.VALIDATED);\n\n        legalEntityId_To_Addr[cnpj] = addr;\n\n//        emit AccountRegistration(addr, cnpj, idProofHash);\n    }\n\n\n}",
  "sourcePath": "/Users/suzana.moreno/workspace/rbb-token/Back-Blockchain/contracts/RBBRegistry.sol",
  "compiler": {
    "name": "solc",
    "version": "0.6.12+commit.27d51765.Emscripten.clang"
  },
  "schemaVersion": "3.2.5",
  "updatedAt": "2020-09-25T20:17:44.571Z",
  "networkType": "ethereum",
  "devdoc": {
    "kind": "dev",
    "methods": {
      "isOwner()": {
        "details": "Returns true if the caller is the current owner."
      },
      "owner()": {
        "details": "Returns the address of the current owner."
      },
      "renounceOwnership()": {
        "details": "Leaves the contract without owner. It will not be possible to call `onlyOwner` functions anymore. Can only be called by the current owner. NOTE: Renouncing ownership will leave the contract without an owner, thereby removing any functionality that is only available to the owner."
      },
      "transferOwnership(address)": {
        "details": "Transfers ownership of the contract to a new account (`newOwner`). Can only be called by the current owner."
      }
    },
    "version": 1
  },
  "userdoc": {
    "kind": "user",
    "methods": {
      "legalEntitiesChangeAccount(address)": {
        "notice": "Links Ethereum addresses to the possibility to change the account Since the Ethereum account can be changed once, it is not necessary to put the bool to false. TODO: Discuss later what is the best solution to this"
      },
      "legalEntitiesInfo(address)": {
        "notice": "Links Ethereum addresses to LegalEntityInfo"
      }
    },
    "version": 1
  }
}