{
  "contractName": "RBBRegistry",
  "abi": [
    {
      "inputs": [
        {
          "internalType": "uint256",
          "name": "CNPJSUPADMIN",
          "type": "uint256"
        },
        {
          "internalType": "string",
          "name": "proofHashSUPADMIN",
          "type": "string"
        },
        {
          "internalType": "uint256",
          "name": "daysToExpire",
          "type": "uint256"
        }
      ],
      "stateMutability": "nonpayable",
      "type": "constructor"
    },
    {
      "anonymous": false,
      "inputs": [
        {
          "indexed": false,
          "internalType": "address",
          "name": "addr",
          "type": "address"
        },
        {
          "indexed": false,
          "internalType": "uint256",
          "name": "RBBId",
          "type": "uint256"
        },
        {
          "indexed": false,
          "internalType": "uint256",
          "name": "CNPJ",
          "type": "uint256"
        },
        {
          "indexed": false,
          "internalType": "address",
          "name": "responsible",
          "type": "address"
        }
      ],
      "name": "AccountInvalidation",
      "type": "event"
    },
    {
      "anonymous": false,
      "inputs": [
        {
          "indexed": false,
          "internalType": "address",
          "name": "addr",
          "type": "address"
        },
        {
          "indexed": false,
          "internalType": "uint256",
          "name": "RBBId",
          "type": "uint256"
        },
        {
          "indexed": false,
          "internalType": "uint256",
          "name": "CNPJ",
          "type": "uint256"
        },
        {
          "indexed": false,
          "internalType": "address",
          "name": "responsible",
          "type": "address"
        }
      ],
      "name": "AccountPaused",
      "type": "event"
    },
    {
      "anonymous": false,
      "inputs": [
        {
          "indexed": false,
          "internalType": "address",
          "name": "addr",
          "type": "address"
        },
        {
          "indexed": false,
          "internalType": "uint256",
          "name": "RBBId",
          "type": "uint256"
        },
        {
          "indexed": false,
          "internalType": "uint256",
          "name": "CNPJ",
          "type": "uint256"
        },
        {
          "indexed": false,
          "internalType": "bytes32",
          "name": "hashProof",
          "type": "bytes32"
        },
        {
          "indexed": false,
          "internalType": "uint256",
          "name": "dateTimeExpiration",
          "type": "uint256"
        }
      ],
      "name": "AccountRegistration",
      "type": "event"
    },
    {
      "anonymous": false,
      "inputs": [
        {
          "indexed": false,
          "internalType": "address",
          "name": "addr",
          "type": "address"
        },
        {
          "indexed": false,
          "internalType": "uint256",
          "name": "RBBId",
          "type": "uint256"
        },
        {
          "indexed": false,
          "internalType": "uint256",
          "name": "CNPJ",
          "type": "uint256"
        },
        {
          "indexed": false,
          "internalType": "address",
          "name": "responsible",
          "type": "address"
        },
        {
          "indexed": false,
          "internalType": "enum RBBRegistry.BlockchainAccountRole",
          "name": "roleBefore",
          "type": "uint8"
        },
        {
          "indexed": false,
          "internalType": "enum RBBRegistry.BlockchainAccountRole",
          "name": "roleNew",
          "type": "uint8"
        }
      ],
      "name": "AccountRoleChange",
      "type": "event"
    },
    {
      "anonymous": false,
      "inputs": [
        {
          "indexed": false,
          "internalType": "address",
          "name": "addr",
          "type": "address"
        },
        {
          "indexed": false,
          "internalType": "uint256",
          "name": "RBBId",
          "type": "uint256"
        },
        {
          "indexed": false,
          "internalType": "uint256",
          "name": "CNPJ",
          "type": "uint256"
        },
        {
          "indexed": false,
          "internalType": "address",
          "name": "responsible",
          "type": "address"
        }
      ],
      "name": "AccountUnpaused",
      "type": "event"
    },
    {
      "anonymous": false,
      "inputs": [
        {
          "indexed": false,
          "internalType": "address",
          "name": "addr",
          "type": "address"
        },
        {
          "indexed": false,
          "internalType": "uint256",
          "name": "RBBId",
          "type": "uint256"
        },
        {
          "indexed": false,
          "internalType": "uint256",
          "name": "CNPJ",
          "type": "uint256"
        },
        {
          "indexed": false,
          "internalType": "address",
          "name": "responsible",
          "type": "address"
        }
      ],
      "name": "AccountValidation",
      "type": "event"
    },
    {
      "anonymous": false,
      "inputs": [
        {
          "indexed": true,
          "internalType": "address",
          "name": "previousOwner",
          "type": "address"
        },
        {
          "indexed": true,
          "internalType": "address",
          "name": "newOwner",
          "type": "address"
        }
      ],
      "name": "OwnershipTransferred",
      "type": "event"
    },
    {
      "anonymous": false,
      "inputs": [
        {
          "indexed": false,
          "internalType": "address",
          "name": "addr",
          "type": "address"
        },
        {
          "indexed": false,
          "internalType": "uint256",
          "name": "dateTimeExpirationBefore",
          "type": "uint256"
        },
        {
          "indexed": false,
          "internalType": "uint256",
          "name": "dateTimeExpirationNew",
          "type": "uint256"
        }
      ],
      "name": "RegistryExpirationChange",
      "type": "event"
    },
    {
      "inputs": [
        {
          "internalType": "uint256",
          "name": "",
          "type": "uint256"
        }
      ],
      "name": "CNPJ_RBBId",
      "outputs": [
        {
          "internalType": "uint256",
          "name": "",
          "type": "uint256"
        }
      ],
      "stateMutability": "view",
      "type": "function"
    },
    {
      "inputs": [
        {
          "internalType": "uint256",
          "name": "",
          "type": "uint256"
        },
        {
          "internalType": "uint256",
          "name": "",
          "type": "uint256"
        }
      ],
      "name": "RBBId_addresses",
      "outputs": [
        {
          "internalType": "address",
          "name": "",
          "type": "address"
        }
      ],
      "stateMutability": "view",
      "type": "function"
    },
    {
      "inputs": [],
      "name": "currentRBBId",
      "outputs": [
        {
          "internalType": "uint256",
          "name": "",
          "type": "uint256"
        }
      ],
      "stateMutability": "view",
      "type": "function"
    },
    {
      "inputs": [],
      "name": "defaultDateTimeExpiration",
      "outputs": [
        {
          "internalType": "uint256",
          "name": "",
          "type": "uint256"
        }
      ],
      "stateMutability": "view",
      "type": "function"
    },
    {
      "inputs": [
        {
          "internalType": "address",
          "name": "",
          "type": "address"
        }
      ],
      "name": "legalEntitiesInfo",
      "outputs": [
        {
          "internalType": "uint256",
          "name": "RBBId",
          "type": "uint256"
        },
        {
          "internalType": "uint256",
          "name": "CNPJ",
          "type": "uint256"
        },
        {
          "internalType": "bytes32",
          "name": "hashProof",
          "type": "bytes32"
        },
        {
          "internalType": "enum RBBRegistry.BlockchainAccountState",
          "name": "state",
          "type": "uint8"
        },
        {
          "internalType": "enum RBBRegistry.BlockchainAccountRole",
          "name": "role",
          "type": "uint8"
        },
        {
          "internalType": "bool",
          "name": "paused",
          "type": "bool"
        },
        {
          "internalType": "uint256",
          "name": "dateTimeExpiration",
          "type": "uint256"
        }
      ],
      "stateMutability": "view",
      "type": "function"
    },
    {
      "inputs": [],
      "name": "owner",
      "outputs": [
        {
          "internalType": "address",
          "name": "",
          "type": "address"
        }
      ],
      "stateMutability": "view",
      "type": "function"
    },
    {
      "inputs": [],
      "name": "renounceOwnership",
      "outputs": [],
      "stateMutability": "nonpayable",
      "type": "function"
    },
    {
      "inputs": [
        {
          "internalType": "address",
          "name": "newOwner",
          "type": "address"
        }
      ],
      "name": "transferOwnership",
      "outputs": [],
      "stateMutability": "nonpayable",
      "type": "function"
    },
    {
      "inputs": [
        {
          "internalType": "uint256",
          "name": "CNPJ",
          "type": "uint256"
        },
        {
          "internalType": "bytes32",
          "name": "CNPJProofHash",
          "type": "bytes32"
        }
      ],
      "name": "registryLegalEntity",
      "outputs": [],
      "stateMutability": "nonpayable",
      "type": "function"
    },
    {
      "inputs": [
        {
          "internalType": "address",
          "name": "userAddr",
          "type": "address"
        }
      ],
      "name": "validateRegistrySameOrg",
      "outputs": [],
      "stateMutability": "nonpayable",
      "type": "function"
    },
    {
      "inputs": [
        {
          "internalType": "address",
          "name": "userAddr",
          "type": "address"
        }
      ],
      "name": "validateRegistry",
      "outputs": [],
      "stateMutability": "nonpayable",
      "type": "function"
    },
    {
      "inputs": [
        {
          "internalType": "address",
          "name": "addr",
          "type": "address"
        }
      ],
      "name": "pauseAddress",
      "outputs": [],
      "stateMutability": "nonpayable",
      "type": "function"
    },
    {
      "inputs": [
        {
          "internalType": "uint256",
          "name": "RBBId",
          "type": "uint256"
        }
      ],
      "name": "pauseLegalEntity",
      "outputs": [],
      "stateMutability": "nonpayable",
      "type": "function"
    },
    {
      "inputs": [
        {
          "internalType": "address",
          "name": "addr",
          "type": "address"
        }
      ],
      "name": "unpauseAddress",
      "outputs": [],
      "stateMutability": "nonpayable",
      "type": "function"
    },
    {
      "inputs": [
        {
          "internalType": "address",
          "name": "addr",
          "type": "address"
        }
      ],
      "name": "invalidateRegistry",
      "outputs": [],
      "stateMutability": "nonpayable",
      "type": "function"
    },
    {
      "inputs": [
        {
          "internalType": "address",
          "name": "addr",
          "type": "address"
        }
      ],
      "name": "isSortOfAdmin",
      "outputs": [
        {
          "internalType": "bool",
          "name": "",
          "type": "bool"
        }
      ],
      "stateMutability": "view",
      "type": "function"
    },
    {
      "inputs": [
        {
          "internalType": "address",
          "name": "addr",
          "type": "address"
        }
      ],
      "name": "isOwner",
      "outputs": [
        {
          "internalType": "bool",
          "name": "",
          "type": "bool"
        }
      ],
      "stateMutability": "view",
      "type": "function"
    },
    {
      "inputs": [
        {
          "internalType": "address",
          "name": "addr",
          "type": "address"
        }
      ],
      "name": "isAvailableAccount",
      "outputs": [
        {
          "internalType": "bool",
          "name": "",
          "type": "bool"
        }
      ],
      "stateMutability": "view",
      "type": "function"
    },
    {
      "inputs": [
        {
          "internalType": "address",
          "name": "addr",
          "type": "address"
        }
      ],
      "name": "isWaitingValidationAccount",
      "outputs": [
        {
          "internalType": "bool",
          "name": "",
          "type": "bool"
        }
      ],
      "stateMutability": "view",
      "type": "function"
    },
    {
      "inputs": [
        {
          "internalType": "address",
          "name": "addr",
          "type": "address"
        }
      ],
      "name": "isValidatedAccount",
      "outputs": [
        {
          "internalType": "bool",
          "name": "",
          "type": "bool"
        }
      ],
      "stateMutability": "view",
      "type": "function"
    },
    {
      "inputs": [
        {
          "internalType": "address",
          "name": "addr",
          "type": "address"
        }
      ],
      "name": "isInvalidated",
      "outputs": [
        {
          "internalType": "bool",
          "name": "",
          "type": "bool"
        }
      ],
      "stateMutability": "view",
      "type": "function"
    },
    {
      "inputs": [
        {
          "internalType": "address",
          "name": "a",
          "type": "address"
        },
        {
          "internalType": "address",
          "name": "b",
          "type": "address"
        }
      ],
      "name": "isTheSameID",
      "outputs": [
        {
          "internalType": "bool",
          "name": "",
          "type": "bool"
        }
      ],
      "stateMutability": "view",
      "type": "function"
    },
    {
      "inputs": [
        {
          "internalType": "address",
          "name": "addr",
          "type": "address"
        }
      ],
      "name": "isPaused",
      "outputs": [
        {
          "internalType": "bool",
          "name": "",
          "type": "bool"
        }
      ],
      "stateMutability": "view",
      "type": "function"
    },
    {
      "inputs": [
        {
          "internalType": "address",
          "name": "addr",
          "type": "address"
        }
      ],
      "name": "isOperational",
      "outputs": [
        {
          "internalType": "bool",
          "name": "",
          "type": "bool"
        }
      ],
      "stateMutability": "view",
      "type": "function"
    },
    {
      "inputs": [
        {
          "internalType": "uint256",
          "name": "RBBId",
          "type": "uint256"
        }
      ],
      "name": "isRegistryOperational",
      "outputs": [
        {
          "internalType": "bool",
          "name": "",
          "type": "bool"
        }
      ],
      "stateMutability": "view",
      "type": "function"
    },
    {
      "inputs": [
        {
          "internalType": "address",
          "name": "addr",
          "type": "address"
        }
      ],
      "name": "getId",
      "outputs": [
        {
          "internalType": "uint256",
          "name": "",
          "type": "uint256"
        }
      ],
      "stateMutability": "view",
      "type": "function"
    },
    {
      "inputs": [
        {
          "internalType": "address",
          "name": "addr",
          "type": "address"
        }
      ],
      "name": "getRBBIdRaw",
      "outputs": [
        {
          "internalType": "uint256",
          "name": "",
          "type": "uint256"
        }
      ],
      "stateMutability": "view",
      "type": "function"
    },
    {
      "inputs": [
        {
          "internalType": "address",
          "name": "addr",
          "type": "address"
        }
      ],
      "name": "getCNPJ",
      "outputs": [
        {
          "internalType": "uint256",
          "name": "",
          "type": "uint256"
        }
      ],
      "stateMutability": "view",
      "type": "function"
    },
    {
      "inputs": [
        {
          "internalType": "address",
          "name": "addr",
          "type": "address"
        }
      ],
      "name": "getRegistry",
      "outputs": [
        {
          "internalType": "uint256",
          "name": "",
          "type": "uint256"
        },
        {
          "internalType": "uint256",
          "name": "",
          "type": "uint256"
        },
        {
          "internalType": "bytes32",
          "name": "",
          "type": "bytes32"
        },
        {
          "internalType": "uint256",
          "name": "",
          "type": "uint256"
        },
        {
          "internalType": "uint256",
          "name": "",
          "type": "uint256"
        },
        {
          "internalType": "bool",
          "name": "",
          "type": "bool"
        },
        {
          "internalType": "uint256",
          "name": "",
          "type": "uint256"
        }
      ],
      "stateMutability": "view",
      "type": "function"
    },
    {
      "inputs": [
        {
          "internalType": "uint256",
          "name": "RBBId",
          "type": "uint256"
        }
      ],
      "name": "getBlockchainAccounts",
      "outputs": [
        {
          "internalType": "address[]",
          "name": "",
          "type": "address[]"
        }
      ],
      "stateMutability": "view",
      "type": "function"
    },
    {
      "inputs": [
        {
          "internalType": "address",
          "name": "addr",
          "type": "address"
        }
      ],
      "name": "getAccountState",
      "outputs": [
        {
          "internalType": "int256",
          "name": "",
          "type": "int256"
        }
      ],
      "stateMutability": "view",
      "type": "function"
    },
    {
      "inputs": [
        {
          "internalType": "address",
          "name": "addr",
          "type": "address"
        }
      ],
      "name": "getAccountRole",
      "outputs": [
        {
          "internalType": "int256",
          "name": "",
          "type": "int256"
        }
      ],
      "stateMutability": "view",
      "type": "function"
    },
    {
      "inputs": [
        {
          "internalType": "uint256",
          "name": "cnpj",
          "type": "uint256"
        }
      ],
      "name": "getIdFromCNPJ",
      "outputs": [
        {
          "internalType": "uint256",
          "name": "",
          "type": "uint256"
        }
      ],
      "stateMutability": "view",
      "type": "function"
    },
    {
      "inputs": [
        {
          "internalType": "address",
          "name": "addr",
          "type": "address"
        }
      ],
      "name": "setRoleSupAdmin",
      "outputs": [],
      "stateMutability": "nonpayable",
      "type": "function"
    },
    {
      "inputs": [
        {
          "internalType": "uint256",
          "name": "dateTimeExpirationNew",
          "type": "uint256"
        }
      ],
      "name": "setDefaultDateTimeExpiration",
      "outputs": [],
      "stateMutability": "nonpayable",
      "type": "function"
    }
  ],
  "bytecode": "0x608060405260006001556301e133806002553480156200001e57600080fd5b5060405162004d4e38038062004d4e833981810160405260608110156200004457600080fd5b8101908080519060200190929190805160405193929190846401000000008211156200006f57600080fd5b838201915060208201858111156200008657600080fd5b8251866001820283011164010000000082111715620000a457600080fd5b8083526020830192505050908051906020019080838360005b83811015620000da578082015181840152602081019050620000bd565b50505050905090810190601f168015620001085780820380516001836020036101000a031916815260200191505b506040526020018051906020019092919050505060006200012e6200050660201b60201c565b9050806000806101000a81548173ffffffffffffffffffffffffffffffffffffffff021916908373ffffffffffffffffffffffffffffffffffffffff1602179055508073ffffffffffffffffffffffffffffffffffffffff16600073ffffffffffffffffffffffffffffffffffffffff167f8be0079c531659141344cd1fd0a4f28419497f9722a3daafe3b4186f6b6457e060405160405180910390a3506000339050600073__RBBLib________________________________63592c80ee856040518263ffffffff1660e01b81526004018080602001828103825283818151815260200191508051906020019080838360005b838110156200023f57808201518184015260208101905062000222565b50505050905090810190601f1680156200026d5780820380516001836020036101000a031916815260200191505b509250505060206040518083038186803b1580156200028b57600080fd5b505af4158015620002a0573d6000803e3d6000fd5b505050506040513d6020811015620002b757600080fd5b810190808051906020019092919050505090506000620151808402420190506000620002e9876200050e60201b60201c565b90506040518060e00160405280828152602001888152602001848152602001600260038111156200031657fe5b81526020016002808111156200032857fe5b815260200160001515815260200183815250600360008673ffffffffffffffffffffffffffffffffffffffff1673ffffffffffffffffffffffffffffffffffffffff16815260200190815260200160002060008201518160000155602082015181600101556040820151816002015560608201518160030160006101000a81548160ff02191690836003811115620003bc57fe5b021790555060808201518160030160016101000a81548160ff02191690836002811115620003e657fe5b021790555060a08201518160030160026101000a81548160ff02191690831515021790555060c0820151816004015590505060046000828152602001908152602001600020849080600181540180825580915050600190039060005260206000200160009091909190916101000a81548173ffffffffffffffffffffffffffffffffffffffff021916908373ffffffffffffffffffffffffffffffffffffffff1602179055507f4aa43cf10b603c9a80bec1e701073c460c5378a975e89e185c0bb22ac75e77378482898686604051808673ffffffffffffffffffffffffffffffffffffffff1681526020018581526020018481526020018381526020018281526020019550505050505060405180910390a1505050505050506200056e565b600033905090565b60008060056000848152602001908152602001600020541415620005535760016000815460010191905081905560056000848152602001908152602001600020819055505b60056000838152602001908152602001600020549050919050565b6147d0806200057e6000396000f3fe608060405234801561001057600080fd5b50600436106102115760003560e01c806377df472c11610125578063bb393086116100ad578063e7e4fec81161007c578063e7e4fec814610b75578063f2fde38b14610ba3578063f582202714610be7578063f818f70f14610c2b578063f971d77c14610c4957610211565b8063bb39308614610a41578063be49b78d14610abb578063c616f4c014610b13578063caa7922c14610b3157610211565b80638e97637e116100f45780638e97637e146108795780639ee2735b146108d3578063a3d884531461092b578063b6fc41fa14610985578063b8e175b1146109e757610211565b806377df472c1461077b57806381d66b23146107bf5780638c879eb1146108175780638da5cb5b1461084557610211565b8063457385f2116101a85780636426a116116101775780636426a1161461063957806365f68c891461069357806367b03549146106eb5780636d5686711461072f578063715018a61461077157610211565b8063457385f2146105095780634646a0c0146105635780634f16ce0c1461059b5780635b14f183146105df57610211565b80632dc913a6116101e45780632dc913a6146103d15780632f54bf6e1461041357806331cc10ce1461046d57806339b38939146104c557610211565b8063087d4427146102165780630bf20e011461025a5780630c4471bd146102dd57806326ff479414610337575b600080fd5b6102426004803603602081101561022c57600080fd5b8101908080359060200190929190505050610ccd565b60405180821515815260200191505060405180910390f35b6102866004803603602081101561027057600080fd5b8101908080359060200190929190505050610ddc565b6040518080602001828103825283818151815260200191508051906020019060200280838360005b838110156102c95780820151818401526020810190506102ae565b505050509050019250505060405180910390f35b61031f600480360360208110156102f357600080fd5b81019080803573ffffffffffffffffffffffffffffffffffffffff169060200190929190505050610e7d565b60405180821515815260200191505060405180910390f35b6103796004803603602081101561034d57600080fd5b81019080803573ffffffffffffffffffffffffffffffffffffffff169060200190929190505050610eef565b6040518088815260200187815260200186815260200185600381111561039b57fe5b81526020018460028111156103ac57fe5b8152602001831515815260200182815260200197505050505050505060405180910390f35b6103fd600480360360208110156103e757600080fd5b8101908080359060200190929190505050610f58565b6040518082815260200191505060405180910390f35b6104556004803603602081101561042957600080fd5b81019080803573ffffffffffffffffffffffffffffffffffffffff169060200190929190505050610f70565b60405180821515815260200191505060405180910390f35b6104af6004803603602081101561048357600080fd5b81019080803573ffffffffffffffffffffffffffffffffffffffff169060200190929190505050610faf565b6040518082815260200191505060405180910390f35b610507600480360360208110156104db57600080fd5b81019080803573ffffffffffffffffffffffffffffffffffffffff169060200190929190505050610ffb565b005b61054b6004803603602081101561051f57600080fd5b81019080803573ffffffffffffffffffffffffffffffffffffffff169060200190929190505050611359565b60405180821515815260200191505060405180910390f35b6105996004803603604081101561057957600080fd5b81019080803590602001909291908035906020019092919050505061137d565b005b6105dd600480360360208110156105b157600080fd5b81019080803573ffffffffffffffffffffffffffffffffffffffff169060200190929190505050611749565b005b610621600480360360208110156105f557600080fd5b81019080803573ffffffffffffffffffffffffffffffffffffffff169060200190929190505050611d13565b60405180821515815260200191505060405180910390f35b61067b6004803603602081101561064f57600080fd5b81019080803573ffffffffffffffffffffffffffffffffffffffff169060200190929190505050611d6c565b60405180821515815260200191505060405180910390f35b6106d5600480360360208110156106a957600080fd5b81019080803573ffffffffffffffffffffffffffffffffffffffff169060200190929190505050611dde565b6040518082815260200191505060405180910390f35b61072d6004803603602081101561070157600080fd5b81019080803573ffffffffffffffffffffffffffffffffffffffff169060200190929190505050611e53565b005b61075b6004803603602081101561074557600080fd5b8101908080359060200190929190505050612338565b6040518082815260200191505060405180910390f35b610779612355565b005b6107bd6004803603602081101561079157600080fd5b81019080803573ffffffffffffffffffffffffffffffffffffffff1690602001909291905050506124db565b005b610801600480360360208110156107d557600080fd5b81019080803573ffffffffffffffffffffffffffffffffffffffff16906020019092919050505061298c565b6040518082815260200191505060405180910390f35b6108436004803603602081101561082d57600080fd5b81019080803590602001909291905050506129f0565b005b61084d612ed6565b604051808273ffffffffffffffffffffffffffffffffffffffff16815260200191505060405180910390f35b6108bb6004803603602081101561088f57600080fd5b81019080803573ffffffffffffffffffffffffffffffffffffffff169060200190929190505050612eff565b60405180821515815260200191505060405180910390f35b610915600480360360208110156108e957600080fd5b81019080803573ffffffffffffffffffffffffffffffffffffffff169060200190929190505050612f70565b6040518082815260200191505060405180910390f35b61096d6004803603602081101561094157600080fd5b81019080803573ffffffffffffffffffffffffffffffffffffffff169060200190929190505050612fd4565b60405180821515815260200191505060405180910390f35b6109bb6004803603604081101561099b57600080fd5b810190808035906020019092919080359060200190929190505050613045565b604051808273ffffffffffffffffffffffffffffffffffffffff16815260200191505060405180910390f35b610a29600480360360208110156109fd57600080fd5b81019080803573ffffffffffffffffffffffffffffffffffffffff169060200190929190505050613090565b60405180821515815260200191505060405180910390f35b610aa360048036036040811015610a5757600080fd5b81019080803573ffffffffffffffffffffffffffffffffffffffff169060200190929190803573ffffffffffffffffffffffffffffffffffffffff169060200190929190505050613171565b60405180821515815260200191505060405180910390f35b610afd60048036036020811015610ad157600080fd5b81019080803573ffffffffffffffffffffffffffffffffffffffff169060200190929190505050613202565b6040518082815260200191505060405180910390f35b610b1b61324e565b6040518082815260200191505060405180910390f35b610b7360048036036020811015610b4757600080fd5b81019080803573ffffffffffffffffffffffffffffffffffffffff169060200190929190505050613254565b005b610ba160048036036020811015610b8b57600080fd5b8101908080359060200190929190505050613739565b005b610be560048036036020811015610bb957600080fd5b81019080803573ffffffffffffffffffffffffffffffffffffffff169060200190929190505050613867565b005b610c2960048036036020811015610bfd57600080fd5b81019080803573ffffffffffffffffffffffffffffffffffffffff169060200190929190505050613a72565b005b610c33613f6b565b6040518082815260200191505060405180910390f35b610c8b60048036036020811015610c5f57600080fd5b81019080803573ffffffffffffffffffffffffffffffffffffffff169060200190929190505050613f71565b60405180888152602001878152602001868152602001858152602001848152602001831515815260200182815260200197505050505050505060405180910390f35b6000606060046000848152602001908152602001600020805480602002602001604051908101604052809291908181526020018280548015610d6457602002820191906000526020600020905b8160009054906101000a900473ffffffffffffffffffffffffffffffffffffffff1673ffffffffffffffffffffffffffffffffffffffff1681526020019060010190808311610d1a575b5050505050905060005b8151811015610dd457610d93828281518110610d8657fe5b6020026020010151611359565b8015610db75750610db6828281518110610da957fe5b6020026020010151613090565b5b15610dc757600192505050610dd7565b8080600101915050610d6e565b50505b919050565b606060046000838152602001908152602001600020805480602002602001604051908101604052809291908181526020018280548015610e7157602002820191906000526020600020905b8160009054906101000a900473ffffffffffffffffffffffffffffffffffffffff1673ffffffffffffffffffffffffffffffffffffffff1681526020019060010190808311610e27575b50505050509050919050565b600060016003811115610e8c57fe5b600360008473ffffffffffffffffffffffffffffffffffffffff1673ffffffffffffffffffffffffffffffffffffffff16815260200190815260200160002060030160009054906101000a900460ff166003811115610ee757fe5b149050919050565b60036020528060005260406000206000915090508060000154908060010154908060020154908060030160009054906101000a900460ff16908060030160019054906101000a900460ff16908060030160029054906101000a900460ff16908060040154905087565b60056020528060005260406000206000915090505481565b60008173ffffffffffffffffffffffffffffffffffffffff16610f91612ed6565b73ffffffffffffffffffffffffffffffffffffffff16149050919050565b6000600360008373ffffffffffffffffffffffffffffffffffffffff1673ffffffffffffffffffffffffffffffffffffffff168152602001908152602001600020600001549050919050565b6110036140c0565b73ffffffffffffffffffffffffffffffffffffffff1660008054906101000a900473ffffffffffffffffffffffffffffffffffffffff1673ffffffffffffffffffffffffffffffffffffffff16146110c3576040517f08c379a00000000000000000000000000000000000000000000000000000000081526004018080602001828103825260208152602001807f4f776e61626c653a2063616c6c6572206973206e6f7420746865206f776e657281525060200191505060405180910390fd5b6110d46110ce612ed6565b82613171565b611129576040517f08c379a000000000000000000000000000000000000000000000000000000000815260040180806020018281038252604881526020018061435a6048913960600191505060405180910390fd5b6000600360008373ffffffffffffffffffffffffffffffffffffffff1673ffffffffffffffffffffffffffffffffffffffff16815260200190815260200160002060030160019054906101000a900460ff1690506002600360008473ffffffffffffffffffffffffffffffffffffffff1673ffffffffffffffffffffffffffffffffffffffff16815260200190815260200160002060030160016101000a81548160ff021916908360028111156111dc57fe5b02179055507f13382921d3a6e392cd7bac34288a59fabe1f26f801f24defc12dc8ee3c1fb34b82600360008573ffffffffffffffffffffffffffffffffffffffff1673ffffffffffffffffffffffffffffffffffffffff16815260200190815260200160002060000154600360008673ffffffffffffffffffffffffffffffffffffffff1673ffffffffffffffffffffffffffffffffffffffff168152602001908152602001600020600101543385600360008973ffffffffffffffffffffffffffffffffffffffff1673ffffffffffffffffffffffffffffffffffffffff16815260200190815260200160002060030160019054906101000a900460ff16604051808773ffffffffffffffffffffffffffffffffffffffff1681526020018681526020018581526020018473ffffffffffffffffffffffffffffffffffffffff16815260200183600281111561132f57fe5b815260200182600281111561134057fe5b8152602001965050505050505060405180910390a15050565b600061136482611d6c565b8015611376575061137482611d13565b155b9050919050565b60003390506000829050600060025442019050600061139b866140c8565b90506113a684612fd4565b6113fb576040517f08c379a00000000000000000000000000000000000000000000000000000000081526004018080602001828103825260358152602001806145c96035913960400191505060405180910390fd5b6000801b831415611535576040518060e001604052808281526020018781526020018481526020016001600381111561143057fe5b81526020016000600281111561144257fe5b815260200160001515815260200183815250600360008673ffffffffffffffffffffffffffffffffffffffff1673ffffffffffffffffffffffffffffffffffffffff16815260200190815260200160002060008201518160000155602082015181600101556040820151816002015560608201518160030160006101000a81548160ff021916908360038111156114d557fe5b021790555060808201518160030160016101000a81548160ff021916908360028111156114fe57fe5b021790555060a08201518160030160026101000a81548160ff02191690831515021790555060c08201518160040155905050611660565b6040518060e001604052808281526020018781526020018481526020016001600381111561155f57fe5b81526020016001600281111561157157fe5b815260200160001515815260200183815250600360008673ffffffffffffffffffffffffffffffffffffffff1673ffffffffffffffffffffffffffffffffffffffff16815260200190815260200160002060008201518160000155602082015181600101556040820151816002015560608201518160030160006101000a81548160ff0219169083600381111561160457fe5b021790555060808201518160030160016101000a81548160ff0219169083600281111561162d57fe5b021790555060a08201518160030160026101000a81548160ff02191690831515021790555060c082015181600401559050505b60046000828152602001908152602001600020849080600181540180825580915050600190039060005260206000200160009091909190916101000a81548173ffffffffffffffffffffffffffffffffffffffff021916908373ffffffffffffffffffffffffffffffffffffffff1602179055507f4aa43cf10b603c9a80bec1e701073c460c5378a975e89e185c0bb22ac75e77378482888686604051808673ffffffffffffffffffffffffffffffffffffffff1681526020018581526020018481526020018381526020018281526020019550505050505060405180910390a1505050505050565b600360003373ffffffffffffffffffffffffffffffffffffffff1673ffffffffffffffffffffffffffffffffffffffff16815260200190815260200160002060030160029054906101000a900460ff16156117ef576040517f08c379a000000000000000000000000000000000000000000000000000000000815260040180806020018281038252602b815260200180614180602b913960400191505060405180910390fd5b42600360003373ffffffffffffffffffffffffffffffffffffffff1673ffffffffffffffffffffffffffffffffffffffff1681526020019081526020016000206004015411611889576040517f08c379a00000000000000000000000000000000000000000000000000000000081526004018080602001828103825260478152602001806145fe6047913960600191505060405180910390fd5b60003390508173ffffffffffffffffffffffffffffffffffffffff168173ffffffffffffffffffffffffffffffffffffffff161415611913576040517f08c379a00000000000000000000000000000000000000000000000000000000081526004018080602001828103825260448152602001806141e16044913960600191505060405180910390fd5b6001600281111561192057fe5b600360008373ffffffffffffffffffffffffffffffffffffffff1673ffffffffffffffffffffffffffffffffffffffff16815260200190815260200160002060030160019054906101000a900460ff16600281111561197b57fe5b146119d1576040517f08c379a00000000000000000000000000000000000000000000000000000000081526004018080602001828103825260368152602001806146a16036913960400191505060405180910390fd5b6119db8183613171565b611a30576040517f08c379a000000000000000000000000000000000000000000000000000000000815260040180806020018281038252604c815260200180614553604c913960600191505060405180910390fd5b60006002811115611a3d57fe5b600360008473ffffffffffffffffffffffffffffffffffffffff1673ffffffffffffffffffffffffffffffffffffffff16815260200190815260200160002060030160019054906101000a900460ff166002811115611a9857fe5b14611aee576040517f08c379a00000000000000000000000000000000000000000000000000000000081526004018080602001828103825260328152602001806146d76032913960400191505060405180910390fd5b60016003811115611afb57fe5b600360008473ffffffffffffffffffffffffffffffffffffffff1673ffffffffffffffffffffffffffffffffffffffff16815260200190815260200160002060030160009054906101000a900460ff166003811115611b5657fe5b14611bac576040517f08c379a00000000000000000000000000000000000000000000000000000000081526004018080602001828103825260408152602001806143cf6040913960400191505060405180910390fd5b6002600360008473ffffffffffffffffffffffffffffffffffffffff1673ffffffffffffffffffffffffffffffffffffffff16815260200190815260200160002060030160006101000a81548160ff02191690836003811115611c0b57fe5b02179055507f073fc7b5012ce389e8ee332d8cb39b41a44a08b42ee9260a78dd3a757a66c11182600360008573ffffffffffffffffffffffffffffffffffffffff1673ffffffffffffffffffffffffffffffffffffffff16815260200190815260200160002060000154600360008673ffffffffffffffffffffffffffffffffffffffff1673ffffffffffffffffffffffffffffffffffffffff1681526020019081526020016000206001015484604051808573ffffffffffffffffffffffffffffffffffffffff1681526020018481526020018381526020018273ffffffffffffffffffffffffffffffffffffffff16815260200194505050505060405180910390a15050565b6000600360008373ffffffffffffffffffffffffffffffffffffffff1673ffffffffffffffffffffffffffffffffffffffff16815260200190815260200160002060030160029054906101000a900460ff169050919050565b600060026003811115611d7b57fe5b600360008473ffffffffffffffffffffffffffffffffffffffff1673ffffffffffffffffffffffffffffffffffffffff16815260200190815260200160002060030160009054906101000a900460ff166003811115611dd657fe5b149050919050565b600080611dea83610faf565b9050611df581610ccd565b611e4a576040517f08c379a00000000000000000000000000000000000000000000000000000000081526004018080602001828103825260228152602001806147796022913960400191505060405180910390fd5b80915050919050565b600360003373ffffffffffffffffffffffffffffffffffffffff1673ffffffffffffffffffffffffffffffffffffffff16815260200190815260200160002060030160029054906101000a900460ff1615611ef9576040517f08c379a000000000000000000000000000000000000000000000000000000000815260040180806020018281038252602b815260200180614180602b913960400191505060405180910390fd5b42600360003373ffffffffffffffffffffffffffffffffffffffff1673ffffffffffffffffffffffffffffffffffffffff1681526020019081526020016000206004015411611f93576040517f08c379a00000000000000000000000000000000000000000000000000000000081526004018080602001828103825260478152602001806145fe6047913960600191505060405180910390fd5b600033905060016002811115611fa557fe5b600360008373ffffffffffffffffffffffffffffffffffffffff1673ffffffffffffffffffffffffffffffffffffffff16815260200190815260200160002060030160019054906101000a900460ff16600281111561200057fe5b14612056576040517f08c379a000000000000000000000000000000000000000000000000000000000815260040180806020018281038252602a81526020018061459f602a913960400191505060405180910390fd5b60028081111561206257fe5b600360008473ffffffffffffffffffffffffffffffffffffffff1673ffffffffffffffffffffffffffffffffffffffff16815260200190815260200160002060030160019054906101000a900460ff1660028111156120bd57fe5b1415612114576040517f08c379a00000000000000000000000000000000000000000000000000000000081526004018080602001828103825260298152602001806142cd6029913960400191505060405180910390fd5b60038081111561212057fe5b600360008473ffffffffffffffffffffffffffffffffffffffff1673ffffffffffffffffffffffffffffffffffffffff16815260200190815260200160002060030160009054906101000a900460ff16600381111561217b57fe5b14156121d2576040517f08c379a00000000000000000000000000000000000000000000000000000000081526004018080602001828103825260238152602001806143376023913960400191505060405180910390fd5b60038060008473ffffffffffffffffffffffffffffffffffffffff1673ffffffffffffffffffffffffffffffffffffffff16815260200190815260200160002060030160006101000a81548160ff0219169083600381111561223057fe5b02179055507fe54094ed206f2d050c7d5065f566c98e3c67d5f94c76971e8e73b392f8314ae282600360008573ffffffffffffffffffffffffffffffffffffffff1673ffffffffffffffffffffffffffffffffffffffff16815260200190815260200160002060000154600360008673ffffffffffffffffffffffffffffffffffffffff1673ffffffffffffffffffffffffffffffffffffffff1681526020019081526020016000206001015484604051808573ffffffffffffffffffffffffffffffffffffffff1681526020018481526020018381526020018273ffffffffffffffffffffffffffffffffffffffff16815260200194505050505060405180910390a15050565b600060056000838152602001908152602001600020549050919050565b61235d6140c0565b73ffffffffffffffffffffffffffffffffffffffff1660008054906101000a900473ffffffffffffffffffffffffffffffffffffffff1673ffffffffffffffffffffffffffffffffffffffff161461241d576040517f08c379a00000000000000000000000000000000000000000000000000000000081526004018080602001828103825260208152602001807f4f776e61626c653a2063616c6c6572206973206e6f7420746865206f776e657281525060200191505060405180910390fd5b600073ffffffffffffffffffffffffffffffffffffffff1660008054906101000a900473ffffffffffffffffffffffffffffffffffffffff1673ffffffffffffffffffffffffffffffffffffffff167f8be0079c531659141344cd1fd0a4f28419497f9722a3daafe3b4186f6b6457e060405160405180910390a360008060006101000a81548173ffffffffffffffffffffffffffffffffffffffff021916908373ffffffffffffffffffffffffffffffffffffffff160217905550565b600360003373ffffffffffffffffffffffffffffffffffffffff1673ffffffffffffffffffffffffffffffffffffffff16815260200190815260200160002060030160029054906101000a900460ff1615612581576040517f08c379a000000000000000000000000000000000000000000000000000000000815260040180806020018281038252602b815260200180614180602b913960400191505060405180910390fd5b600033905060028081111561259257fe5b600360008473ffffffffffffffffffffffffffffffffffffffff1673ffffffffffffffffffffffffffffffffffffffff16815260200190815260200160002060030160019054906101000a900460ff1660028111156125ed57fe5b1415612644576040517f08c379a00000000000000000000000000000000000000000000000000000000081526004018080602001828103825260268152602001806144ad6026913960400191505060405180910390fd5b61264e8183613171565b806126bd575060028081111561266057fe5b600360008373ffffffffffffffffffffffffffffffffffffffff1673ffffffffffffffffffffffffffffffffffffffff16815260200190815260200160002060030160019054906101000a900460ff1660028111156126bb57fe5b145b612712576040517f08c379a000000000000000000000000000000000000000000000000000000000815260040180806020018281038252605581526020018061440f6055913960600191505060405180910390fd5b61271b82611d6c565b612770576040517f08c379a000000000000000000000000000000000000000000000000000000000815260040180806020018281038252602a815260200180614709602a913960400191505060405180910390fd5b6002600381111561277d57fe5b600360008373ffffffffffffffffffffffffffffffffffffffff1673ffffffffffffffffffffffffffffffffffffffff16815260200190815260200160002060030160009054906101000a900460ff1660038111156127d857fe5b1461282e576040517f08c379a000000000000000000000000000000000000000000000000000000000815260040180806020018281038252602d8152602001806143a2602d913960400191505060405180910390fd5b6001600360008473ffffffffffffffffffffffffffffffffffffffff1673ffffffffffffffffffffffffffffffffffffffff16815260200190815260200160002060030160026101000a81548160ff0219169083151502179055507feab44e925fe37efdf7a6b9681f2daf982a47f4e64e2d592e8ee4309b986df6a782600360008573ffffffffffffffffffffffffffffffffffffffff1673ffffffffffffffffffffffffffffffffffffffff16815260200190815260200160002060000154600360008673ffffffffffffffffffffffffffffffffffffffff1673ffffffffffffffffffffffffffffffffffffffff1681526020019081526020016000206001015484604051808573ffffffffffffffffffffffffffffffffffffffff1681526020018481526020018381526020018273ffffffffffffffffffffffffffffffffffffffff16815260200194505050505060405180910390a15050565b6000600360008373ffffffffffffffffffffffffffffffffffffffff1673ffffffffffffffffffffffffffffffffffffffff16815260200190815260200160002060030160019054906101000a900460ff1660028111156129e957fe5b9050919050565b600360003373ffffffffffffffffffffffffffffffffffffffff1673ffffffffffffffffffffffffffffffffffffffff16815260200190815260200160002060030160029054906101000a900460ff1615612a96576040517f08c379a000000000000000000000000000000000000000000000000000000000815260040180806020018281038252602b815260200180614180602b913960400191505060405180910390fd5b6000339050606060046000848152602001908152602001600020805480602002602001604051908101604052809291908181526020018280548015612b3057602002820191906000526020600020905b8160009054906101000a900473ffffffffffffffffffffffffffffffffffffffff1673ffffffffffffffffffffffffffffffffffffffff1681526020019060010190808311612ae6575b5050505050905060026003811115612b4457fe5b600360008473ffffffffffffffffffffffffffffffffffffffff1673ffffffffffffffffffffffffffffffffffffffff16815260200190815260200160002060030160009054906101000a900460ff166003811115612b9f57fe5b14612bf5576040517f08c379a000000000000000000000000000000000000000000000000000000000815260040180806020018281038252602d8152602001806143a2602d913960400191505060405180910390fd5b612bfe82613090565b612c53576040517f08c379a00000000000000000000000000000000000000000000000000000000081526004018080602001828103825260378152602001806142256037913960400191505060405180910390fd5b612c718282600081518110612c6457fe5b6020026020010151613171565b80612ce05750600280811115612c8357fe5b600360008473ffffffffffffffffffffffffffffffffffffffff1673ffffffffffffffffffffffffffffffffffffffff16815260200190815260200160002060030160019054906101000a900460ff166002811115612cde57fe5b145b612d35576040517f08c379a00000000000000000000000000000000000000000000000000000000081526004018080602001828103825260498152602001806144646049913960600191505060405180910390fd5b60005b8151811015612ed0576000828281518110612d4f57fe5b60200260200101519050612d6281611d6c565b15612ec2576001600360008373ffffffffffffffffffffffffffffffffffffffff1673ffffffffffffffffffffffffffffffffffffffff16815260200190815260200160002060030160026101000a81548160ff0219169083151502179055507feab44e925fe37efdf7a6b9681f2daf982a47f4e64e2d592e8ee4309b986df6a781600360008473ffffffffffffffffffffffffffffffffffffffff1673ffffffffffffffffffffffffffffffffffffffff16815260200190815260200160002060000154600360008573ffffffffffffffffffffffffffffffffffffffff1673ffffffffffffffffffffffffffffffffffffffff1681526020019081526020016000206001015487604051808573ffffffffffffffffffffffffffffffffffffffff1681526020018481526020018381526020018273ffffffffffffffffffffffffffffffffffffffff16815260200194505050505060405180910390a15b508080600101915050612d38565b50505050565b60008060009054906101000a900473ffffffffffffffffffffffffffffffffffffffff16905090565b6000600380811115612f0d57fe5b600360008473ffffffffffffffffffffffffffffffffffffffff1673ffffffffffffffffffffffffffffffffffffffff16815260200190815260200160002060030160009054906101000a900460ff166003811115612f6857fe5b149050919050565b6000600360008373ffffffffffffffffffffffffffffffffffffffff1673ffffffffffffffffffffffffffffffffffffffff16815260200190815260200160002060030160009054906101000a900460ff166003811115612fcd57fe5b9050919050565b6000806003811115612fe257fe5b600360008473ffffffffffffffffffffffffffffffffffffffff1673ffffffffffffffffffffffffffffffffffffffff16815260200190815260200160002060030160009054906101000a900460ff16600381111561303d57fe5b149050919050565b6004602052816000526040600020818154811061305e57fe5b906000526020600020016000915091509054906101000a900473ffffffffffffffffffffffffffffffffffffffff1681565b60006001600281111561309f57fe5b600360008473ffffffffffffffffffffffffffffffffffffffff1673ffffffffffffffffffffffffffffffffffffffff16815260200190815260200160002060030160019054906101000a900460ff1660028111156130fa57fe5b148061316a575060028081111561310d57fe5b600360008473ffffffffffffffffffffffffffffffffffffffff1673ffffffffffffffffffffffffffffffffffffffff16815260200190815260200160002060030160019054906101000a900460ff16600281111561316857fe5b145b9050919050565b6000600360008373ffffffffffffffffffffffffffffffffffffffff1673ffffffffffffffffffffffffffffffffffffffff16815260200190815260200160002060010154600360008573ffffffffffffffffffffffffffffffffffffffff1673ffffffffffffffffffffffffffffffffffffffff1681526020019081526020016000206001015414905092915050565b6000600360008373ffffffffffffffffffffffffffffffffffffffff1673ffffffffffffffffffffffffffffffffffffffff168152602001908152602001600020600101549050919050565b60015481565b600360003373ffffffffffffffffffffffffffffffffffffffff1673ffffffffffffffffffffffffffffffffffffffff16815260200190815260200160002060030160029054906101000a900460ff16156132fa576040517f08c379a000000000000000000000000000000000000000000000000000000000815260040180806020018281038252602b815260200180614180602b913960400191505060405180910390fd5b42600360003373ffffffffffffffffffffffffffffffffffffffff1673ffffffffffffffffffffffffffffffffffffffff1681526020019081526020016000206004015411613394576040517f08c379a00000000000000000000000000000000000000000000000000000000081526004018080602001828103825260478152602001806145fe6047913960600191505060405180910390fd5b60003390506002808111156133a557fe5b600360008373ffffffffffffffffffffffffffffffffffffffff1673ffffffffffffffffffffffffffffffffffffffff16815260200190815260200160002060030160019054906101000a900460ff16600281111561340057fe5b14613456576040517f08c379a00000000000000000000000000000000000000000000000000000000081526004018080602001828103825260318152602001806146706031913960400191505060405180910390fd5b6001600281111561346357fe5b600360008473ffffffffffffffffffffffffffffffffffffffff1673ffffffffffffffffffffffffffffffffffffffff16815260200190815260200160002060030160019054906101000a900460ff1660028111156134be57fe5b14613514576040517f08c379a000000000000000000000000000000000000000000000000000000000815260040180806020018281038252602b815260200180614645602b913960400191505060405180910390fd5b6001600381111561352157fe5b600360008473ffffffffffffffffffffffffffffffffffffffff1673ffffffffffffffffffffffffffffffffffffffff16815260200190815260200160002060030160009054906101000a900460ff16600381111561357c57fe5b146135d2576040517f08c379a00000000000000000000000000000000000000000000000000000000081526004018080602001828103825260368152602001806141ab6036913960400191505060405180910390fd5b6002600360008473ffffffffffffffffffffffffffffffffffffffff1673ffffffffffffffffffffffffffffffffffffffff16815260200190815260200160002060030160006101000a81548160ff0219169083600381111561363157fe5b02179055507f073fc7b5012ce389e8ee332d8cb39b41a44a08b42ee9260a78dd3a757a66c11182600360008573ffffffffffffffffffffffffffffffffffffffff1673ffffffffffffffffffffffffffffffffffffffff16815260200190815260200160002060000154600360008673ffffffffffffffffffffffffffffffffffffffff1673ffffffffffffffffffffffffffffffffffffffff1681526020019081526020016000206001015484604051808573ffffffffffffffffffffffffffffffffffffffff1681526020018481526020018381526020018273ffffffffffffffffffffffffffffffffffffffff16815260200194505050505060405180910390a15050565b60028081111561374557fe5b600360003373ffffffffffffffffffffffffffffffffffffffff1673ffffffffffffffffffffffffffffffffffffffff16815260200190815260200160002060030160019054906101000a900460ff1660028111156137a057fe5b146137f6576040517f08c379a000000000000000000000000000000000000000000000000000000000815260040180806020018281038252604b815260200180614282604b913960600191505060405180910390fd5b60006002549050816002819055507f33e73778e90a0a7d35d5d4332f4668b1fcff659529950c30f760a39ba49fafec3382600254604051808473ffffffffffffffffffffffffffffffffffffffff168152602001838152602001828152602001935050505060405180910390a15050565b61386f6140c0565b73ffffffffffffffffffffffffffffffffffffffff1660008054906101000a900473ffffffffffffffffffffffffffffffffffffffff1673ffffffffffffffffffffffffffffffffffffffff161461392f576040517f08c379a00000000000000000000000000000000000000000000000000000000081526004018080602001828103825260208152602001807f4f776e61626c653a2063616c6c6572206973206e6f7420746865206f776e657281525060200191505060405180910390fd5b600073ffffffffffffffffffffffffffffffffffffffff168173ffffffffffffffffffffffffffffffffffffffff1614156139b5576040517f08c379a000000000000000000000000000000000000000000000000000000000815260040180806020018281038252602681526020018061425c6026913960400191505060405180910390fd5b8073ffffffffffffffffffffffffffffffffffffffff1660008054906101000a900473ffffffffffffffffffffffffffffffffffffffff1673ffffffffffffffffffffffffffffffffffffffff167f8be0079c531659141344cd1fd0a4f28419497f9722a3daafe3b4186f6b6457e060405160405180910390a3806000806101000a81548173ffffffffffffffffffffffffffffffffffffffff021916908373ffffffffffffffffffffffffffffffffffffffff16021790555050565b600360003373ffffffffffffffffffffffffffffffffffffffff1673ffffffffffffffffffffffffffffffffffffffff16815260200190815260200160002060030160029054906101000a900460ff1615613b18576040517f08c379a000000000000000000000000000000000000000000000000000000000815260040180806020018281038252602b815260200180614180602b913960400191505060405180910390fd5b42600360003373ffffffffffffffffffffffffffffffffffffffff1673ffffffffffffffffffffffffffffffffffffffff1681526020019081526020016000206004015411613bb2576040517f08c379a00000000000000000000000000000000000000000000000000000000081526004018080602001828103825260478152602001806145fe6047913960600191505060405180910390fd5b60003390508173ffffffffffffffffffffffffffffffffffffffff168173ffffffffffffffffffffffffffffffffffffffff161415613c3c576040517f08c379a00000000000000000000000000000000000000000000000000000000081526004018080602001828103825260418152602001806142f66041913960600191505060405180910390fd5b613c4581613090565b613c9a576040517f08c379a00000000000000000000000000000000000000000000000000000000081526004018080602001828103825260468152602001806147336046913960600191505060405180910390fd5b613ca48183613171565b80613d135750600280811115613cb657fe5b600360008373ffffffffffffffffffffffffffffffffffffffff1673ffffffffffffffffffffffffffffffffffffffff16815260200190815260200160002060030160019054906101000a900460ff166002811115613d1157fe5b145b613d68576040517f08c379a00000000000000000000000000000000000000000000000000000000081526004018080602001828103825260538152602001806144d36053913960600191505060405180910390fd5b600360008373ffffffffffffffffffffffffffffffffffffffff1673ffffffffffffffffffffffffffffffffffffffff16815260200190815260200160002060030160029054906101000a900460ff16613e0d576040517f08c379a000000000000000000000000000000000000000000000000000000000815260040180806020018281038252602d815260200180614526602d913960400191505060405180910390fd5b6000600360008473ffffffffffffffffffffffffffffffffffffffff1673ffffffffffffffffffffffffffffffffffffffff16815260200190815260200160002060030160026101000a81548160ff0219169083151502179055507fede461371ad2055987ffee3f03ac6bbad8c1e32130b99e9a87eaff68abdef50c82600360008573ffffffffffffffffffffffffffffffffffffffff1673ffffffffffffffffffffffffffffffffffffffff16815260200190815260200160002060000154600360008673ffffffffffffffffffffffffffffffffffffffff1673ffffffffffffffffffffffffffffffffffffffff1681526020019081526020016000206001015484604051808573ffffffffffffffffffffffffffffffffffffffff1681526020018481526020018381526020018273ffffffffffffffffffffffffffffffffffffffff16815260200194505050505060405180910390a15050565b60025481565b6000806000806000806000613f84614127565b600360008a73ffffffffffffffffffffffffffffffffffffffff1673ffffffffffffffffffffffffffffffffffffffff1681526020019081526020016000206040518060e00160405290816000820154815260200160018201548152602001600282015481526020016003820160009054906101000a900460ff16600381111561400a57fe5b600381111561401557fe5b81526020016003820160019054906101000a900460ff16600281111561403757fe5b600281111561404257fe5b81526020016003820160029054906101000a900460ff1615151515815260200160048201548152505090508060000151816020015182604001518360600151600381111561408c57fe5b8460800151600281111561409c57fe5b8560a001518660c00151975097509750975097509750975050919395979092949650565b600033905090565b6000806005600084815260200190815260200160002054141561410c5760016000815460010191905081905560056000848152602001908152602001600020819055505b60056000838152602001908152602001600020549050919050565b6040518060e001604052806000815260200160008152602001600080191681526020016000600381111561415757fe5b81526020016000600281111561416957fe5b815260200160001515815260200160008152509056fe4170656e6173207175656d206ec3a36f20657374c3a1207061757361646120706f646520616365737361724120636f6e74612070726563697361206573746172206e6f2065737461646f20416775617264616e646f2056616c696461c3a7c3a36f4f20726573706f6e73c3a176656c2070656c612076616c696461c3a7c3a36f206ec3a36f20706f64652076616c6964617220737561207072c3b37072696120636f6e74614f20726573706f6e73c3a176656c206465766520706f737375697220756d6120636f6e74612041444d494e206f752053555041444d494e4f776e61626c653a206e6577206f776e657220697320746865207a65726f20616464726573734170656e6173206f2053555041444d494e20706f646520646566696e6972206e6f766f2074656d706f20646520657870697261c3a7c3a36f206465206e6f766f7320726567697374726f734120636f6e74612053555041444d494e206ec3a36f20706f64652073657220696e76616c6964616461556d6120706573736f61206ec3a36f20c3a920636170617a2064652072657469726172206f20706175736520646520737561207072c3b37072696120636f6e74614120636f6e746120666f6920696e76616c6964616461207072657669616d656e74652e4f776e65722073c3b320706f646572c3a1206174726962756972206f20706170656c2064652053555041444d494e207061726120636f6e74617320646f206d65736d6f20434e504a4f20726573706f6e73c3a176656c206465766520706f737375697220756d6120636f6e74612056c3a16c6964614120636f6e746120612076616c696461722070726563697361206573746172206e6f2065737461646f20416775617264616e646f2056616c696461c3a7c3a36f536f6d656e746520706f64652070617573617220756d6120636f6e7461207175656d20666f72206461206d65736d61206f7267616e697a61c3a7c3a36f206f752053797374656d2041646d696e6973747261746f72536f6d656e746520706f64652070617573617220756d6120636f6e7461207175656d20666f72206461206d65736d61206f7267616e697a61c3a7c3a36f206f752053555041444d494e4120636f6e74612053555041444d494e206ec3a36f20706f6465207365722070617573616461536f6d656e746520706f6465207265746972617220706175736120646520756d6120636f6e7461207175656d20666f72206461206d65736d61206f7267616e697a61c3a7c3a36f206f752053555041444d494e536f6d656e746520756d6120636f6e7461207061757361646120706f64652073657220646573706175736164614f20726573706f6e73c3a176656c2070656c612076616c696461c3a7c3a36f206465766520736572206461206d65736d61206f7267616e697a61c3a7c3a36f20286d65736d6f20434e504a294170656e617320636f6e74612041444d494e20706f646520696e76616c6964617220636f6e7461732e20456e64657265c3a76f206ec3a36f20706f646520746572207369646f206361646173747261646f20616e746572696f726d656e74654170656e617320636f6e74617320636f6d206465636c617261c3a7c3b565732063756a6f7320636572746966696361646f732061696e64612073c3a36f2076c3a16c69646f732e4120636f6e746120612076616c69646172206465766520746572206f20706170656c2064652041444d494e4f20726573706f6e73c3a176656c2070656c612076616c696461c3a7c3a36f2064657665207365722053555041444d494e4f20726573706f6e73c3a176656c2070656c612076616c696461c3a7c3a36f206465766520746572206f20706170656c2041444d494e4f20757375c3a172696f2061207365722076616c696461646f206465766520746572206f20706170656c20524547554c4152536f6d656e746520756d6120636f6e74612076c3a16c69646120706f6465207365722070617573616461536f6d656e746520756d6120636f6e746120726573706f6e73c3a176656c2076616c696461646f726120706f646520646573706175736172206f757472617320636f6e74617341206f7267616e697a6163616f206e616f2065737461206f7065726163696f6e616ca26469706673582212207ac6c19299799330eff8925b14786cfd7ed66796d85ee1dfec9b90d76ff475fd64736f6c634300060c0033",
  "immutableReferences": {},
  "source": "pragma solidity ^0.6.0;\n\nimport \"@openzeppelin/contracts/access/Ownable.sol\";\nimport \"./RBBLib.sol\";\n\ncontract RBBRegistry is Ownable() {\n\n    enum BlockchainAccountState {AVAILABLE,WAITING_VALIDATION,VALIDATED,INVALIDATED}\n    BlockchainAccountState blockchainState; /* Variable not used, only defined to create the enum type. */\n                                \n    /**\n    REGULAR  - operates \n    ADMIN    - validates the regular.\n    SUPADMIN - validates the ADMIN. Contract Owner can set multiple SUPADMINs (including himself, machines and human accounts).\n     */\n    enum BlockchainAccountRole {REGULAR, ADMIN, SUPADMIN} \n    BlockchainAccountRole blockchainRole;  /* Variable not used, only defined to create the enum type. */\n\n    /* This is a helper variable to emulate a sequence and autoincrement Ids*/\n    uint public currentRBBId = 0;\n\n     /**\n        This registry is about a company representative information\n     */    \n    struct Registry {\n        uint RBBId; //uma proxy para o CNPJ\n        uint CNPJ; //Brazilian identification of legal entity\n        bytes32 hashProof; //hash of declaration\n        BlockchainAccountState state;\n        BlockchainAccountRole role;\n        bool paused;\n        uint256 dateTimeExpiration; //vai ser outro momento de expirao diferente do ECNPJ\n    }\n\n    uint256 public defaultDateTimeExpiration = 365 days; \n\n    /**\n        Links Ethereum addresses to Registry\n     */\n    mapping(address => Registry) public legalEntitiesInfo;\n\n    /**\n        Links RBBID to Ethereum addresses.\n     */\n    mapping(uint => address[]) public RBBId_addresses;\n    \n    /**\n     * Links CNPJ to its RBBID\n     */\n    mapping (uint => uint) public CNPJ_RBBId;\n\n    event AccountRegistration       (address addr, uint RBBId, uint CNPJ, bytes32 hashProof, uint256 dateTimeExpiration);\n    event AccountValidation         (address addr, uint RBBId, uint CNPJ, address responsible);\n    event AccountInvalidation       (address addr, uint RBBId, uint CNPJ, address responsible);\n    event AccountPaused             (address addr, uint RBBId, uint CNPJ, address responsible);\n    event AccountUnpaused           (address addr, uint RBBId, uint CNPJ, address responsible);\n    event AccountRoleChange         (address addr, uint RBBId, uint CNPJ, address responsible, BlockchainAccountRole roleBefore, BlockchainAccountRole roleNew);\n    event RegistryExpirationChange  (address addr, uint256 dateTimeExpirationBefore, uint256 dateTimeExpirationNew);\n\n    /* The responsible for the System-Admin is the Owner. It could be or not be the same address (SUPADMIN=owner) */\n    constructor (uint CNPJSUPADMIN, string memory proofHashSUPADMIN, uint daysToExpire) public {                \n        address addrSUPADMIN = msg.sender;\n        bytes32 proofHash = RBBLib.stringBytes32(proofHashSUPADMIN);\n        uint256 dateTimeExpiration = now + daysToExpire * 1 days; \n        uint RBBId = calculaProximoRBBID(CNPJSUPADMIN);\n        legalEntitiesInfo[addrSUPADMIN] = Registry( RBBId, \n                                                    CNPJSUPADMIN, \n                                                    proofHash, \n                                                    BlockchainAccountState.VALIDATED, \n                                                    BlockchainAccountRole.SUPADMIN, \n                                                    false, \n                                                    dateTimeExpiration     );\n        RBBId_addresses[RBBId].push(addrSUPADMIN);\n        emit AccountRegistration(addrSUPADMIN, RBBId, CNPJSUPADMIN, proofHash, dateTimeExpiration); \n        \n    }\n\n   /**\n    * Link blockchain address with CNPJ\n    * @param CNPJ Brazilian identifier to legal entities\n    * @param CNPJProofHash The legal entities have to send BNDES a PDF where it assumes as responsible for an Ethereum account.\n    *                   This PDF is signed with eCNPJ and send to BNDES.\n    */\n    function registryLegalEntity(uint CNPJ, bytes32 CNPJProofHash) public {\n        \n        address addr = msg.sender;\n        bytes32 proofHash = CNPJProofHash;\n        uint256 dateTimeExpiration = now + defaultDateTimeExpiration;\n        uint RBBId = calculaProximoRBBID(CNPJ);\n\n        require (isAvailableAccount(addr), \"Endereo no pode ter sido cadastrado anteriormente\");\n\n        if ( proofHash == 0 ) { \n            legalEntitiesInfo[addr] = Registry( RBBId,\n                                                CNPJ, \n                                                proofHash, \n                                                BlockchainAccountState.WAITING_VALIDATION, \n                                                BlockchainAccountRole.REGULAR,\n                                                false,\n                                                dateTimeExpiration );\n        } else {\n            legalEntitiesInfo[addr] = Registry( RBBId,\n                                                CNPJ, \n                                                proofHash, \n                                                BlockchainAccountState.WAITING_VALIDATION, \n                                                BlockchainAccountRole.ADMIN,\n                                                false,\n                                                dateTimeExpiration );\n        }\n\n        RBBId_addresses[RBBId].push(addr);\n        emit AccountRegistration(addr, RBBId, CNPJ, proofHash, dateTimeExpiration);\n    }\n\n    modifier onlyWhenNotPaused() { \n        require( ! legalEntitiesInfo[msg.sender].paused , \"Apenas quem no est pausada pode acessar\" );\n        _;\n    }\n\n    modifier onlyWhenNotExpired() { \n        require( legalEntitiesInfo[msg.sender].dateTimeExpiration > now , \"Apenas contas com declaraes cujos certificados ainda so vlidos.\" );\n        _;\n    }\n\n   /**\n    * Validates the initial registry of your own LegalEntity\n    * @param userAddr Ethereum address that needs to be validated\n    */\n    function validateRegistrySameOrg(address userAddr) public onlyWhenNotPaused onlyWhenNotExpired {\n\n        address responsible = msg.sender;\n\n        require ( responsible != userAddr, \"O responsvel pela validao no pode validar sua prpria conta\");\n\n        require ( legalEntitiesInfo[responsible].role == BlockchainAccountRole.ADMIN , \n                   \"O responsvel pela validao deve ter o papel ADMIN\" );\n\n        require ( isTheSameID(responsible, userAddr) , \n                   \"O responsvel pela validao deve ser da mesma organizao (mesmo CNPJ)\" );\n\n        require ( legalEntitiesInfo[userAddr].role == BlockchainAccountRole.REGULAR , \n                   \"O usurio a ser validado deve ter o papel REGULAR\" );\n\n\n        require( legalEntitiesInfo[userAddr].state == BlockchainAccountState.WAITING_VALIDATION,\n                   \"A conta a validar precisa estar no estado Aguardando Validao\");\n\n        legalEntitiesInfo[userAddr].state = BlockchainAccountState.VALIDATED;\n\n        emit AccountValidation( userAddr, \n                                legalEntitiesInfo[userAddr].RBBId, \n                                legalEntitiesInfo[userAddr].CNPJ, \n                                responsible);\n    }\n\n/**\n    * Validates the initial registry of others LegalEntities\n    * @param userAddr Ethereum address that needs to be validated\n    */\n    function validateRegistry(address userAddr) public onlyWhenNotPaused onlyWhenNotExpired {\n\n        address responsible = msg.sender;\n        \n        require ( legalEntitiesInfo[responsible].role == BlockchainAccountRole.SUPADMIN \n            , \"O responsvel pela validao deve ser SUPADMIN\" );\n\n        require ( legalEntitiesInfo[userAddr].role == BlockchainAccountRole.ADMIN  \n            , \"A conta a validar deve ter o papel de ADMIN\" );\n\n        require(legalEntitiesInfo[userAddr].state == BlockchainAccountState.WAITING_VALIDATION,\n            \"A conta precisa estar no estado Aguardando Validao\");\n\n        legalEntitiesInfo[userAddr].state = BlockchainAccountState.VALIDATED;\n\n        emit AccountValidation( userAddr, \n                                legalEntitiesInfo[userAddr].RBBId, \n                                legalEntitiesInfo[userAddr].CNPJ, \n                                responsible);\n    }    \n\n/**\n    * Pause an account     \n    * @param addr Ethereum address that needs to be paused\n    */\n    function pauseAddress(address addr) public onlyWhenNotPaused {\n\n        address responsible = msg.sender;\n\n        require ( legalEntitiesInfo[addr].role != BlockchainAccountRole.SUPADMIN , \"A conta SUPADMIN no pode ser pausada\");\n        require( isTheSameID(responsible, addr) || legalEntitiesInfo[responsible].role == BlockchainAccountRole.SUPADMIN, \"Somente pode pausar uma conta quem for da mesma organizao ou System Administrator\" );\n        require( isValidatedAccount(addr) , \"Somente uma conta vlida pode ser pausada\");\n        require( legalEntitiesInfo[responsible].state == BlockchainAccountState.VALIDATED, \"O responsvel deve possuir uma conta Vlida\" );\n\n        legalEntitiesInfo[addr].paused = true;\n        \n        emit AccountPaused( addr, \n                            legalEntitiesInfo[addr].RBBId,\n                            legalEntitiesInfo[addr].CNPJ, \n                            responsible);\n    }\n\n    function pauseLegalEntity(uint RBBId) public onlyWhenNotPaused {\n\n        address responsible = msg.sender;\n        address[] memory addresses  = RBBId_addresses[RBBId];\n\n        require( legalEntitiesInfo[responsible].state == BlockchainAccountState.VALIDATED, \"O responsvel deve possuir uma conta Vlida\" );\n        require( ( isSortOfAdmin(responsible) ), \"O responsvel deve possuir uma conta ADMIN ou SUPADMIN\" );\n        require( isTheSameID(responsible, addresses[0]) \n                    || legalEntitiesInfo[responsible].role == BlockchainAccountRole.SUPADMIN , \"Somente pode pausar uma conta quem for da mesma organizao ou SUPADMIN\" );\n\n        for (uint i=0; i < addresses.length ; i++) {\n            address candidate = addresses[i];\n            if( isValidatedAccount( candidate ) ) {\n                legalEntitiesInfo[candidate].paused = true;\n                emit AccountPaused( candidate, \n                                    legalEntitiesInfo[candidate].RBBId,\n                                    legalEntitiesInfo[candidate].CNPJ, \n                                    responsible );\n            }\n        }   \n    }\n\n/**\n    * Unpause an account     \n    * @param addr Ethereum address that needs to be validated\n    */\n    function unpauseAddress(address addr) public onlyWhenNotPaused onlyWhenNotExpired {\n\n        address responsible = msg.sender;\n\n        require ( responsible != addr , \"Uma pessoa no  capaz de retirar o pause de sua prpria conta\");\n        require( isSortOfAdmin(responsible) , \"Somente uma conta responsvel validadora pode despausar outras contas\" );        \n        require( isTheSameID(responsible, addr) \n                    || legalEntitiesInfo[responsible].role == BlockchainAccountRole.SUPADMIN , \"Somente pode retirar pausa de uma conta quem for da mesma organizao ou SUPADMIN\" );\n        require( legalEntitiesInfo[addr].paused  , \"Somente uma conta pausada pode ser despausada\" ); \n\n        legalEntitiesInfo[addr].paused = false;\n        \n        emit AccountUnpaused(   addr, \n                                legalEntitiesInfo[addr].RBBId,\n                                legalEntitiesInfo[addr].CNPJ, \n                                responsible);\n    }\n\n   /**\n    * Invalidates the initial registry of a legal entity or the change of its registry\n    * The invalidation can be called at any time in the lifecycle of the address (not only when it is WAITING_VALIDATION)\n    * @param addr Ethereum address that needs to be validated\n    */\n    function invalidateRegistry(address addr) public onlyWhenNotPaused onlyWhenNotExpired {\n\n        address responsible = msg.sender;\n\n        require( legalEntitiesInfo[responsible].role == BlockchainAccountRole.ADMIN, \"Apenas conta ADMIN pode invalidar contas. \");\n        require( legalEntitiesInfo[addr].role != BlockchainAccountRole.SUPADMIN , \"A conta SUPADMIN no pode ser invalidada\");\n        require( legalEntitiesInfo[addr].state != BlockchainAccountState.INVALIDATED, \"A conta foi invalidada previamente.\" );\n\n        legalEntitiesInfo[addr].state = BlockchainAccountState.INVALIDATED;\n        \n        emit AccountInvalidation(   addr, \n                                    legalEntitiesInfo[addr].RBBId, \n                                    legalEntitiesInfo[addr].CNPJ, \n                                    responsible );\n    }\n\n    function isSortOfAdmin(address addr) public view returns (bool) {\n        return ( legalEntitiesInfo[addr].role == BlockchainAccountRole.ADMIN || \n                 legalEntitiesInfo[addr].role == BlockchainAccountRole.SUPADMIN   );\n    }\n\n    function isOwner(address addr) public view returns (bool) {\n        return owner()==addr;\n    }\n\n    function isAvailableAccount(address addr) public view returns (bool) {\n        return legalEntitiesInfo[addr].state == BlockchainAccountState.AVAILABLE;\n    }\n\n    function isWaitingValidationAccount(address addr) public view returns (bool) {\n        return legalEntitiesInfo[addr].state == BlockchainAccountState.WAITING_VALIDATION;\n    }\n\n    function isValidatedAccount(address addr) public view returns (bool) {\n        return legalEntitiesInfo[addr].state == BlockchainAccountState.VALIDATED;\n    }\n\n    function isInvalidated(address addr) public view returns (bool) {\n        return legalEntitiesInfo[addr].state == BlockchainAccountState.INVALIDATED;\n    }\n\n    function isTheSameID(address a, address b) public view returns (bool) {\n        return legalEntitiesInfo[a].CNPJ == legalEntitiesInfo[b].CNPJ ;\n    }\n\n    function isPaused(address addr) public view returns (bool) {\n        return legalEntitiesInfo[addr].paused;\n    }\n\n    function isOperational(address addr) public view returns (bool) {\n        return isValidatedAccount(addr) && !isPaused(addr);\n    }\n\n    function isRegistryOperational(uint RBBId) public view returns (bool) {\n        address[] memory addresses  = RBBId_addresses[RBBId];\n\n        for (uint i=0; i < addresses.length ; i++) {\n            if ( isOperational( addresses[i] ) && isSortOfAdmin(addresses[i]) ) {\n                    return true;\n            }\n        }\n    }\n\n    function getId (address addr) public view returns (uint) {\n        uint RBBId = getRBBIdRaw(addr);\n        require ( isRegistryOperational( RBBId ) , \"A organizacao nao esta operacional\" );\n        return RBBId;\n    }\n\n    function getRBBIdRaw (address addr) public view returns (uint) {\n        return legalEntitiesInfo[addr].RBBId;\n    }\n\n    function getCNPJ (address addr) public view returns (uint) {\n        return legalEntitiesInfo[addr].CNPJ;\n    }    \n\n    function getRegistry (address addr) public view returns (uint, uint, bytes32, uint, uint, bool, uint256) {\n        Registry memory reg = legalEntitiesInfo[addr];\n\n        return (  reg.RBBId,\n                  reg.CNPJ, \n                  reg.hashProof, \n                  (uint) (reg.state),\n                  (uint) (reg.role),\n                  reg.paused,\n                  reg.dateTimeExpiration\n                );\n    }\n\n    function getBlockchainAccounts(uint RBBId) public view returns (address[] memory) {\n        return RBBId_addresses[RBBId];\n    }\n\n    function getAccountState(address addr) public view returns (int) {\n        return ((int) (legalEntitiesInfo[addr].state));\n    }\n\n    function getAccountRole(address addr) public view returns (int) {\n        return ((int) (legalEntitiesInfo[addr].role));\n    }\n\n    function getIdFromCNPJ(uint cnpj) public view returns (uint) {\n        return CNPJ_RBBId[cnpj];\n    }\n    \n   /**\n    * The Owner can assign role SUPADMIN to anyone in the same LegalEntity\n    * @param addr Ethereum address to be assigned the new role\n    */\n    function setRoleSupAdmin(address addr) public onlyOwner {\n        require ( isTheSameID( owner(), addr ), \"Owner s poder atribuir o papel de SUPADMIN para contas do mesmo CNPJ\" );\n\n        BlockchainAccountRole roleBefore = legalEntitiesInfo[addr].role;\n        legalEntitiesInfo[addr].role     = BlockchainAccountRole.SUPADMIN;                \n\n        emit AccountRoleChange(   addr, \n                                  legalEntitiesInfo[addr].RBBId, \n                                  legalEntitiesInfo[addr].CNPJ, \n                                  msg.sender,\n                                  roleBefore, \n                                  legalEntitiesInfo[addr].role  );\n    }\n\n    /**\n    * The Owner can assign new default expiration time for future registries\n    * @param dateTimeExpirationNew the new default expiration time \n    */\n    function setDefaultDateTimeExpiration(uint256 dateTimeExpirationNew) public {\n\n        require( legalEntitiesInfo[msg.sender].role == BlockchainAccountRole.SUPADMIN, \"Apenas o SUPADMIN pode definir novo tempo de expirao de novos registros\");\n\n        uint256 dateTimeExpirationOld = defaultDateTimeExpiration;\n        defaultDateTimeExpiration = dateTimeExpirationNew;\n        \n        emit RegistryExpirationChange(   msg.sender, \n                                         dateTimeExpirationOld, \n                                         defaultDateTimeExpiration );        \n    }\n\n    function calculaProximoRBBID(uint CNPJ) private returns (uint) {\n\n        if ( CNPJ_RBBId[CNPJ] == 0 ) //se nao existir rbbid para este CNPJ\n            CNPJ_RBBId[CNPJ] = ++currentRBBId;\n\n        return CNPJ_RBBId[CNPJ];\n    } \n \n\n}",
  "sourcePath": "/Users/suzana.moreno/workspace/rbb-token/Back-Blockchain/contracts/RBBRegistry.sol",
  "compiler": {
    "name": "solc",
    "version": "0.6.12+commit.27d51765.Emscripten.clang"
  },
  "schemaVersion": "3.2.5",
  "updatedAt": "2020-11-11T14:47:56.736Z",
  "devdoc": {
    "kind": "dev",
    "methods": {
      "invalidateRegistry(address)": {
        "params": {
          "addr": "Ethereum address that needs to be validated"
        }
      },
      "owner()": {
        "details": "Returns the address of the current owner."
      },
      "pauseAddress(address)": {
        "params": {
          "addr": "Ethereum address that needs to be paused"
        }
      },
      "registryLegalEntity(uint256,bytes32)": {
        "params": {
          "CNPJ": "Brazilian identifier to legal entities",
          "CNPJProofHash": "The legal entities have to send BNDES a PDF where it assumes as responsible for an Ethereum account.                   This PDF is signed with eCNPJ and send to BNDES."
        }
      },
      "renounceOwnership()": {
        "details": "Leaves the contract without owner. It will not be possible to call `onlyOwner` functions anymore. Can only be called by the current owner. NOTE: Renouncing ownership will leave the contract without an owner, thereby removing any functionality that is only available to the owner."
      },
      "setDefaultDateTimeExpiration(uint256)": {
        "params": {
          "dateTimeExpirationNew": "the new default expiration time "
        }
      },
      "setRoleSupAdmin(address)": {
        "params": {
          "addr": "Ethereum address to be assigned the new role"
        }
      },
      "transferOwnership(address)": {
        "details": "Transfers ownership of the contract to a new account (`newOwner`). Can only be called by the current owner."
      },
      "unpauseAddress(address)": {
        "params": {
          "addr": "Ethereum address that needs to be validated"
        }
      },
      "validateRegistry(address)": {
        "params": {
          "userAddr": "Ethereum address that needs to be validated"
        }
      },
      "validateRegistrySameOrg(address)": {
        "params": {
          "userAddr": "Ethereum address that needs to be validated"
        }
      }
    },
    "version": 1
  },
  "userdoc": {
    "kind": "user",
    "methods": {
      "CNPJ_RBBId(uint256)": {
        "notice": "Links CNPJ to its RBBID"
      },
      "RBBId_addresses(uint256,uint256)": {
        "notice": "Links RBBID to Ethereum addresses."
      },
      "invalidateRegistry(address)": {
        "notice": "Invalidates the initial registry of a legal entity or the change of its registry The invalidation can be called at any time in the lifecycle of the address (not only when it is WAITING_VALIDATION)"
      },
      "legalEntitiesInfo(address)": {
        "notice": "Links Ethereum addresses to Registry"
      },
      "pauseAddress(address)": {
        "notice": "Pause an account     "
      },
      "registryLegalEntity(uint256,bytes32)": {
        "notice": "Link blockchain address with CNPJ"
      },
      "setDefaultDateTimeExpiration(uint256)": {
        "notice": "The Owner can assign new default expiration time for future registries"
      },
      "setRoleSupAdmin(address)": {
        "notice": "The Owner can assign role SUPADMIN to anyone in the same LegalEntity"
      },
      "unpauseAddress(address)": {
        "notice": "Unpause an account     "
      },
      "validateRegistry(address)": {
        "notice": "Validates the initial registry of others LegalEntities"
      },
      "validateRegistrySameOrg(address)": {
        "notice": "Validates the initial registry of your own LegalEntity"
      }
    },
    "version": 1
  }
}