{
  "contractName": "RBBRegistry",
  "abi": [
    {
      "inputs": [
        {
          "internalType": "uint256",
          "name": "idResposibleForValidation",
          "type": "uint256"
        }
      ],
      "stateMutability": "nonpayable",
      "type": "constructor"
    },
    {
      "anonymous": false,
      "inputs": [
        {
          "indexed": false,
          "internalType": "address",
          "name": "oldAddr",
          "type": "address"
        },
        {
          "indexed": false,
          "internalType": "address",
          "name": "newAddr",
          "type": "address"
        },
        {
          "indexed": false,
          "internalType": "uint256",
          "name": "id",
          "type": "uint256"
        },
        {
          "indexed": false,
          "internalType": "string",
          "name": "idProofHash",
          "type": "string"
        }
      ],
      "name": "AccountChange",
      "type": "event"
    },
    {
      "anonymous": false,
      "inputs": [
        {
          "indexed": false,
          "internalType": "address",
          "name": "addr",
          "type": "address"
        },
        {
          "indexed": false,
          "internalType": "uint256",
          "name": "id",
          "type": "uint256"
        }
      ],
      "name": "AccountInvalidation",
      "type": "event"
    },
    {
      "anonymous": false,
      "inputs": [
        {
          "indexed": false,
          "internalType": "address",
          "name": "addr",
          "type": "address"
        },
        {
          "indexed": false,
          "internalType": "uint256",
          "name": "id",
          "type": "uint256"
        },
        {
          "indexed": false,
          "internalType": "string",
          "name": "idProofHash",
          "type": "string"
        }
      ],
      "name": "AccountRegistration",
      "type": "event"
    },
    {
      "anonymous": false,
      "inputs": [
        {
          "indexed": false,
          "internalType": "address",
          "name": "addr",
          "type": "address"
        },
        {
          "indexed": false,
          "internalType": "uint256",
          "name": "id",
          "type": "uint256"
        }
      ],
      "name": "AccountValidation",
      "type": "event"
    },
    {
      "anonymous": false,
      "inputs": [
        {
          "indexed": true,
          "internalType": "address",
          "name": "previousOwner",
          "type": "address"
        },
        {
          "indexed": true,
          "internalType": "address",
          "name": "newOwner",
          "type": "address"
        }
      ],
      "name": "OwnershipTransferred",
      "type": "event"
    },
    {
      "inputs": [
        {
          "internalType": "address",
          "name": "",
          "type": "address"
        }
      ],
      "name": "legalEntitiesChangeAccount",
      "outputs": [
        {
          "internalType": "bool",
          "name": "",
          "type": "bool"
        }
      ],
      "stateMutability": "view",
      "type": "function"
    },
    {
      "inputs": [
        {
          "internalType": "address",
          "name": "",
          "type": "address"
        }
      ],
      "name": "legalEntitiesInfo",
      "outputs": [
        {
          "internalType": "uint256",
          "name": "id",
          "type": "uint256"
        },
        {
          "internalType": "string",
          "name": "idProofHash",
          "type": "string"
        },
        {
          "internalType": "enum RBBRegistry.BlockchainAccountState",
          "name": "state",
          "type": "uint8"
        }
      ],
      "stateMutability": "view",
      "type": "function"
    },
    {
      "inputs": [],
      "name": "owner",
      "outputs": [
        {
          "internalType": "address",
          "name": "",
          "type": "address"
        }
      ],
      "stateMutability": "view",
      "type": "function"
    },
    {
      "inputs": [],
      "name": "renounceOwnership",
      "outputs": [],
      "stateMutability": "nonpayable",
      "type": "function"
    },
    {
      "inputs": [
        {
          "internalType": "address",
          "name": "newOwner",
          "type": "address"
        }
      ],
      "name": "transferOwnership",
      "outputs": [],
      "stateMutability": "nonpayable",
      "type": "function"
    },
    {
      "inputs": [
        {
          "internalType": "uint256",
          "name": "cnpj",
          "type": "uint256"
        },
        {
          "internalType": "string",
          "name": "idProofHash",
          "type": "string"
        }
      ],
      "name": "registryLegalEntity",
      "outputs": [],
      "stateMutability": "nonpayable",
      "type": "function"
    },
    {
      "inputs": [
        {
          "internalType": "address",
          "name": "rs",
          "type": "address"
        }
      ],
      "name": "setResponsibleForRegistryValidation",
      "outputs": [],
      "stateMutability": "nonpayable",
      "type": "function"
    },
    {
      "inputs": [
        {
          "internalType": "address",
          "name": "addr",
          "type": "address"
        }
      ],
      "name": "isResponsibleForRegistryValidation",
      "outputs": [
        {
          "internalType": "bool",
          "name": "",
          "type": "bool"
        }
      ],
      "stateMutability": "view",
      "type": "function"
    },
    {
      "inputs": [
        {
          "internalType": "address",
          "name": "addr",
          "type": "address"
        }
      ],
      "name": "isOwner",
      "outputs": [
        {
          "internalType": "bool",
          "name": "",
          "type": "bool"
        }
      ],
      "stateMutability": "view",
      "type": "function"
    },
    {
      "inputs": [],
      "name": "isOwner",
      "outputs": [
        {
          "internalType": "bool",
          "name": "",
          "type": "bool"
        }
      ],
      "stateMutability": "view",
      "type": "function"
    },
    {
      "inputs": [
        {
          "internalType": "address",
          "name": "addr",
          "type": "address"
        }
      ],
      "name": "isAvailableAccount",
      "outputs": [
        {
          "internalType": "bool",
          "name": "",
          "type": "bool"
        }
      ],
      "stateMutability": "view",
      "type": "function"
    },
    {
      "inputs": [
        {
          "internalType": "address",
          "name": "addr",
          "type": "address"
        }
      ],
      "name": "isWaitingValidationAccount",
      "outputs": [
        {
          "internalType": "bool",
          "name": "",
          "type": "bool"
        }
      ],
      "stateMutability": "view",
      "type": "function"
    },
    {
      "inputs": [
        {
          "internalType": "address",
          "name": "addr",
          "type": "address"
        }
      ],
      "name": "isValidatedAccount",
      "outputs": [
        {
          "internalType": "bool",
          "name": "",
          "type": "bool"
        }
      ],
      "stateMutability": "view",
      "type": "function"
    },
    {
      "inputs": [
        {
          "internalType": "uint256",
          "name": "id",
          "type": "uint256"
        }
      ],
      "name": "isValidatedId",
      "outputs": [
        {
          "internalType": "bool",
          "name": "",
          "type": "bool"
        }
      ],
      "stateMutability": "view",
      "type": "function"
    },
    {
      "inputs": [
        {
          "internalType": "address",
          "name": "addr",
          "type": "address"
        }
      ],
      "name": "isInvalidatedByValidatorAccount",
      "outputs": [
        {
          "internalType": "bool",
          "name": "",
          "type": "bool"
        }
      ],
      "stateMutability": "view",
      "type": "function"
    },
    {
      "inputs": [
        {
          "internalType": "address",
          "name": "addr",
          "type": "address"
        }
      ],
      "name": "isInvalidatedByChangeAccount",
      "outputs": [
        {
          "internalType": "bool",
          "name": "",
          "type": "bool"
        }
      ],
      "stateMutability": "view",
      "type": "function"
    },
    {
      "inputs": [],
      "name": "getResponsibleForRegistryValidation",
      "outputs": [
        {
          "internalType": "address",
          "name": "",
          "type": "address"
        }
      ],
      "stateMutability": "view",
      "type": "function"
    },
    {
      "inputs": [
        {
          "internalType": "address",
          "name": "addr",
          "type": "address"
        }
      ],
      "name": "getId",
      "outputs": [
        {
          "internalType": "uint256",
          "name": "",
          "type": "uint256"
        }
      ],
      "stateMutability": "view",
      "type": "function"
    },
    {
      "inputs": [
        {
          "internalType": "address",
          "name": "addr",
          "type": "address"
        }
      ],
      "name": "getLegalEntityInfo",
      "outputs": [
        {
          "internalType": "uint256",
          "name": "",
          "type": "uint256"
        },
        {
          "internalType": "string",
          "name": "",
          "type": "string"
        },
        {
          "internalType": "uint256",
          "name": "",
          "type": "uint256"
        },
        {
          "internalType": "address",
          "name": "",
          "type": "address"
        }
      ],
      "stateMutability": "view",
      "type": "function"
    },
    {
      "inputs": [
        {
          "internalType": "uint256",
          "name": "cnpj",
          "type": "uint256"
        }
      ],
      "name": "getBlockchainAccount",
      "outputs": [
        {
          "internalType": "address",
          "name": "",
          "type": "address"
        }
      ],
      "stateMutability": "view",
      "type": "function"
    },
    {
      "inputs": [
        {
          "internalType": "uint256",
          "name": "cnpj",
          "type": "uint256"
        }
      ],
      "name": "getLegalEntityInfoById",
      "outputs": [
        {
          "internalType": "uint256",
          "name": "",
          "type": "uint256"
        },
        {
          "internalType": "string",
          "name": "",
          "type": "string"
        },
        {
          "internalType": "uint256",
          "name": "",
          "type": "uint256"
        },
        {
          "internalType": "address",
          "name": "",
          "type": "address"
        }
      ],
      "stateMutability": "view",
      "type": "function"
    },
    {
      "inputs": [
        {
          "internalType": "address",
          "name": "addr",
          "type": "address"
        }
      ],
      "name": "getAccountState",
      "outputs": [
        {
          "internalType": "int256",
          "name": "",
          "type": "int256"
        }
      ],
      "stateMutability": "view",
      "type": "function"
    },
    {
      "inputs": [
        {
          "internalType": "uint256",
          "name": "cnpj",
          "type": "uint256"
        }
      ],
      "name": "registryMock",
      "outputs": [],
      "stateMutability": "nonpayable",
      "type": "function"
    }
  ],
  "bytecode": "0x60806040523480156200001157600080fd5b506040516200200638038062002006833981810160405260208110156200003757600080fd5b810190808051906020019092919050505060006200005a620002e960201b60201c565b9050806000806101000a81548173ffffffffffffffffffffffffffffffffffffffff021916908373ffffffffffffffffffffffffffffffffffffffff1602179055508073ffffffffffffffffffffffffffffffffffffffff16600073ffffffffffffffffffffffffffffffffffffffff167f8be0079c531659141344cd1fd0a4f28419497f9722a3daafe3b4186f6b6457e060405160405180910390a35033600160006101000a81548173ffffffffffffffffffffffffffffffffffffffff021916908373ffffffffffffffffffffffffffffffffffffffff1602179055506040518060600160405280828152602001604051806020016040528060008152508152602001600260048111156200016d57fe5b815250600260003373ffffffffffffffffffffffffffffffffffffffff1673ffffffffffffffffffffffffffffffffffffffff168152602001908152602001600020600082015181600001556020820151816001019080519060200190620001d7929190620002f1565b5060408201518160020160006101000a81548160ff02191690836004811115620001fd57fe5b0217905550905050600160009054906101000a900473ffffffffffffffffffffffffffffffffffffffff166003600083815260200190815260200160002060006101000a81548173ffffffffffffffffffffffffffffffffffffffff021916908373ffffffffffffffffffffffffffffffffffffffff1602179055507f7d514f6cd4f59c504878340337caf06d04ffd8469e3f5ab8ff9d774770feb6103382604051808373ffffffffffffffffffffffffffffffffffffffff16815260200182815260200180602001828103825260008152602001602001935050505060405180910390a15062000397565b600033905090565b828054600181600116156101000203166002900490600052602060002090601f016020900481019282601f106200033457805160ff191683800117855562000365565b8280016001018555821562000365579182015b828111156200036457825182559160200191906001019062000347565b5b50905062000374919062000378565b5090565b5b808211156200039357600081600090555060010162000379565b5090565b611c5f80620003a76000396000f3fe608060405234801561001057600080fd5b506004361061014d5760003560e01c8063845283de116100c3578063a3d884531161007c578063a3d88453146107ec578063b7196f3714610846578063b8e7c21d1461087a578063e81bb70c146108d4578063f24b1add14610902578063f2fde38b146109c75761014d565b8063845283de146105ba5780638cbd258f146106145780638da5cb5b146106585780638f32d59b1461068c5780639ee2735b146106ac5780639f5e1ddd146107045761014d565b8063613a789611610115578063613a7896146103905780636426a116146103d457806365f68c891461042e578063715018a6146104865780637892322f146104905780637f157cad146105625761014d565b80630c4471bd1461015257806326ff4794146101ac5780632f54bf6e146102825780633abba2ef146102dc578063576590cb14610336575b600080fd5b6101946004803603602081101561016857600080fd5b81019080803573ffffffffffffffffffffffffffffffffffffffff169060200190929190505050610a0b565b60405180821515815260200191505060405180910390f35b6101ee600480360360208110156101c257600080fd5b81019080803573ffffffffffffffffffffffffffffffffffffffff169060200190929190505050610a7d565b604051808481526020018060200183600481111561020857fe5b8152602001828103825284818151815260200191508051906020019080838360005b8381101561024557808201518184015260208101905061022a565b50505050905090810190601f1680156102725780820380516001836020036101000a031916815260200191505b5094505050505060405180910390f35b6102c46004803603602081101561029857600080fd5b81019080803573ffffffffffffffffffffffffffffffffffffffff169060200190929190505050610b4c565b60405180821515815260200191505060405180910390f35b61031e600480360360208110156102f257600080fd5b81019080803573ffffffffffffffffffffffffffffffffffffffff169060200190929190505050610b8b565b60405180821515815260200191505060405180910390f35b6103786004803603602081101561034c57600080fd5b81019080803573ffffffffffffffffffffffffffffffffffffffff169060200190929190505050610be5565b60405180821515815260200191505060405180910390f35b6103bc600480360360208110156103a657600080fd5b8101908080359060200190929190505050610c05565b60405180821515815260200191505060405180910390f35b610416600480360360208110156103ea57600080fd5b81019080803573ffffffffffffffffffffffffffffffffffffffff169060200190929190505050610c24565b60405180821515815260200191505060405180910390f35b6104706004803603602081101561044457600080fd5b81019080803573ffffffffffffffffffffffffffffffffffffffff169060200190929190505050610c96565b6040518082815260200191505060405180910390f35b61048e610ce2565b005b6104bc600480360360208110156104a657600080fd5b8101908080359060200190929190505050610e1a565b60405180858152602001806020018481526020018373ffffffffffffffffffffffffffffffffffffffff168152602001828103825285818151815260200191508051906020019080838360005b83811015610524578082015181840152602081019050610509565b50505050905090810190601f1680156105515780820380516001836020036101000a031916815260200191505b509550505050505060405180910390f35b61058e6004803603602081101561057857600080fd5b8101908080359060200190929190505050610e47565b604051808273ffffffffffffffffffffffffffffffffffffffff16815260200191505060405180910390f35b6105fc600480360360208110156105d057600080fd5b81019080803573ffffffffffffffffffffffffffffffffffffffff169060200190929190505050610e84565b60405180821515815260200191505060405180910390f35b6106566004803603602081101561062a57600080fd5b81019080803573ffffffffffffffffffffffffffffffffffffffff169060200190929190505050610ef6565b005b610660610fb4565b604051808273ffffffffffffffffffffffffffffffffffffffff16815260200191505060405180910390f35b610694610fdd565b60405180821515815260200191505060405180910390f35b6106ee600480360360208110156106c257600080fd5b81019080803573ffffffffffffffffffffffffffffffffffffffff16906020019092919050505061103b565b6040518082815260200191505060405180910390f35b6107466004803603602081101561071a57600080fd5b81019080803573ffffffffffffffffffffffffffffffffffffffff16906020019092919050505061109f565b60405180858152602001806020018481526020018373ffffffffffffffffffffffffffffffffffffffff168152602001828103825285818151815260200191508051906020019080838360005b838110156107ae578082015181840152602081019050610793565b50505050905090810190601f1680156107db5780820380516001836020036101000a031916815260200191505b509550505050505060405180910390f35b61082e6004803603602081101561080257600080fd5b81019080803573ffffffffffffffffffffffffffffffffffffffff169060200190929190505050611232565b60405180821515815260200191505060405180910390f35b61084e6112a3565b604051808273ffffffffffffffffffffffffffffffffffffffff16815260200191505060405180910390f35b6108bc6004803603602081101561089057600080fd5b81019080803573ffffffffffffffffffffffffffffffffffffffff1690602001909291905050506112cd565b60405180821515815260200191505060405180910390f35b610900600480360360208110156108ea57600080fd5b810190808035906020019092919050505061133e565b005b6109c56004803603604081101561091857600080fd5b81019080803590602001909291908035906020019064010000000081111561093f57600080fd5b82018360208201111561095157600080fd5b8035906020019184600183028401116401000000008311171561097357600080fd5b91908080601f016020809104026020016040519081016040528093929190818152602001838380828437600081840152601f19601f820116905080830192505050505050509192919290505050611529565b005b610a09600480360360208110156109dd57600080fd5b81019080803573ffffffffffffffffffffffffffffffffffffffff16906020019092919050505061190e565b005b600060016004811115610a1a57fe5b600260008473ffffffffffffffffffffffffffffffffffffffff1673ffffffffffffffffffffffffffffffffffffffff16815260200190815260200160002060020160009054906101000a900460ff166004811115610a7557fe5b149050919050565b6002602052806000526040600020600091509050806000015490806001018054600181600116156101000203166002900480601f016020809104026020016040519081016040528092919081815260200182805460018160011615610100020316600290048015610b2f5780601f10610b0457610100808354040283529160200191610b2f565b820191906000526020600020905b815481529060010190602001808311610b1257829003601f168201915b5050505050908060020160009054906101000a900460ff16905083565b60008173ffffffffffffffffffffffffffffffffffffffff16610b6d610fb4565b73ffffffffffffffffffffffffffffffffffffffff16149050919050565b6000600160009054906101000a900473ffffffffffffffffffffffffffffffffffffffff1673ffffffffffffffffffffffffffffffffffffffff168273ffffffffffffffffffffffffffffffffffffffff16149050919050565b60046020528060005260406000206000915054906101000a900460ff1681565b600080610c1183610e47565b9050610c1c81610c24565b915050919050565b600060026004811115610c3357fe5b600260008473ffffffffffffffffffffffffffffffffffffffff1673ffffffffffffffffffffffffffffffffffffffff16815260200190815260200160002060020160009054906101000a900460ff166004811115610c8e57fe5b149050919050565b6000600260008373ffffffffffffffffffffffffffffffffffffffff1673ffffffffffffffffffffffffffffffffffffffff168152602001908152602001600020600001549050919050565b610cea610fdd565b610d5c576040517f08c379a00000000000000000000000000000000000000000000000000000000081526004018080602001828103825260208152602001807f4f776e61626c653a2063616c6c6572206973206e6f7420746865206f776e657281525060200191505060405180910390fd5b600073ffffffffffffffffffffffffffffffffffffffff1660008054906101000a900473ffffffffffffffffffffffffffffffffffffffff1673ffffffffffffffffffffffffffffffffffffffff167f8be0079c531659141344cd1fd0a4f28419497f9722a3daafe3b4186f6b6457e060405160405180910390a360008060006101000a81548173ffffffffffffffffffffffffffffffffffffffff021916908373ffffffffffffffffffffffffffffffffffffffff160217905550565b600060606000806000610e2c86610e47565b9050610e378161109f565b9450945094509450509193509193565b60006003600083815260200190815260200160002060009054906101000a900473ffffffffffffffffffffffffffffffffffffffff169050919050565b600060036004811115610e9357fe5b600260008473ffffffffffffffffffffffffffffffffffffffff1673ffffffffffffffffffffffffffffffffffffffff16815260200190815260200160002060020160009054906101000a900460ff166004811115610eee57fe5b149050919050565b610efe610fdd565b610f70576040517f08c379a00000000000000000000000000000000000000000000000000000000081526004018080602001828103825260208152602001807f4f776e61626c653a2063616c6c6572206973206e6f7420746865206f776e657281525060200191505060405180910390fd5b80600160006101000a81548173ffffffffffffffffffffffffffffffffffffffff021916908373ffffffffffffffffffffffffffffffffffffffff16021790555050565b60008060009054906101000a900473ffffffffffffffffffffffffffffffffffffffff16905090565b60008060009054906101000a900473ffffffffffffffffffffffffffffffffffffffff1673ffffffffffffffffffffffffffffffffffffffff1661101f611994565b73ffffffffffffffffffffffffffffffffffffffff1614905090565b6000600260008373ffffffffffffffffffffffffffffffffffffffff1673ffffffffffffffffffffffffffffffffffffffff16815260200190815260200160002060020160009054906101000a900460ff16600481111561109857fe5b9050919050565b60006060600080600260008673ffffffffffffffffffffffffffffffffffffffff1673ffffffffffffffffffffffffffffffffffffffff16815260200190815260200160002060000154600260008773ffffffffffffffffffffffffffffffffffffffff1673ffffffffffffffffffffffffffffffffffffffff168152602001908152602001600020600101600260008873ffffffffffffffffffffffffffffffffffffffff1673ffffffffffffffffffffffffffffffffffffffff16815260200190815260200160002060020160009054906101000a900460ff16600481111561118657fe5b87828054600181600116156101000203166002900480601f01602080910402602001604051908101604052809291908181526020018280546001816001161561010002031660029004801561121c5780601f106111f15761010080835404028352916020019161121c565b820191906000526020600020905b8154815290600101906020018083116111ff57829003601f168201915b5050505050925093509350935093509193509193565b600080600481111561124057fe5b600260008473ffffffffffffffffffffffffffffffffffffffff1673ffffffffffffffffffffffffffffffffffffffff16815260200190815260200160002060020160009054906101000a900460ff16600481111561129b57fe5b149050919050565b6000600160009054906101000a900473ffffffffffffffffffffffffffffffffffffffff16905090565b60006004808111156112db57fe5b600260008473ffffffffffffffffffffffffffffffffffffffff1673ffffffffffffffffffffffffffffffffffffffff16815260200190815260200160002060020160009054906101000a900460ff16600481111561133657fe5b149050919050565b6000339050606060405180602001604052806000815250905060405180606001604052808481526020018281526020016002600481111561137b57fe5b815250600260008473ffffffffffffffffffffffffffffffffffffffff1673ffffffffffffffffffffffffffffffffffffffff1681526020019081526020016000206000820151816000015560208201518160010190805190602001906113e3929190611adf565b5060408201518160020160006101000a81548160ff0219169083600481111561140857fe5b0217905550905050816003600085815260200190815260200160002060006101000a81548173ffffffffffffffffffffffffffffffffffffffff021916908373ffffffffffffffffffffffffffffffffffffffff1602179055507f7d514f6cd4f59c504878340337caf06d04ffd8469e3f5ab8ff9d774770feb610828483604051808473ffffffffffffffffffffffffffffffffffffffff16815260200183815260200180602001828103825283818151815260200191508051906020019080838360005b838110156114e85780820151818401526020810190506114cd565b50505050905090810190601f1680156115155780820380516001836020036101000a031916815260200191505b5094505050505060405180910390a1505050565b600033905061153781611232565b61158c576040517f08c379a0000000000000000000000000000000000000000000000000000000008152600401808060200182810382526035815260200180611bf56035913960400191505060405180910390fd5b73__RBBLib________________________________636edcb12f836040518263ffffffff1660e01b81526004018080602001828103825283818151815260200191508051906020019080838360005b838110156115f65780820151818401526020810190506115db565b50505050905090810190601f1680156116235780820380516001836020036101000a031916815260200191505b509250505060206040518083038186803b15801561164057600080fd5b505af4158015611654573d6000803e3d6000fd5b505050506040513d602081101561166a57600080fd5b81019080805190602001909291905050506116d0576040517f08c379a0000000000000000000000000000000000000000000000000000000008152600401808060200182810382526023815260200180611bd26023913960400191505060405180910390fd5b60006116db84610e47565b90506116e681611232565b61173b576040517f08c379a000000000000000000000000000000000000000000000000000000000815260040180806020018281038252602f815260200180611ba3602f913960400191505060405180910390fd5b60405180606001604052808581526020018481526020016001600481111561175f57fe5b815250600260008473ffffffffffffffffffffffffffffffffffffffff1673ffffffffffffffffffffffffffffffffffffffff1681526020019081526020016000206000820151816000015560208201518160010190805190602001906117c7929190611adf565b5060408201518160020160006101000a81548160ff021916908360048111156117ec57fe5b0217905550905050816003600086815260200190815260200160002060006101000a81548173ffffffffffffffffffffffffffffffffffffffff021916908373ffffffffffffffffffffffffffffffffffffffff1602179055507f7d514f6cd4f59c504878340337caf06d04ffd8469e3f5ab8ff9d774770feb610828585604051808473ffffffffffffffffffffffffffffffffffffffff16815260200183815260200180602001828103825283818151815260200191508051906020019080838360005b838110156118cc5780820151818401526020810190506118b1565b50505050905090810190601f1680156118f95780820380516001836020036101000a031916815260200191505b5094505050505060405180910390a150505050565b611916610fdd565b611988576040517f08c379a00000000000000000000000000000000000000000000000000000000081526004018080602001828103825260208152602001807f4f776e61626c653a2063616c6c6572206973206e6f7420746865206f776e657281525060200191505060405180910390fd5b6119918161199c565b50565b600033905090565b600073ffffffffffffffffffffffffffffffffffffffff168173ffffffffffffffffffffffffffffffffffffffff161415611a22576040517f08c379a0000000000000000000000000000000000000000000000000000000008152600401808060200182810382526026815260200180611b7d6026913960400191505060405180910390fd5b8073ffffffffffffffffffffffffffffffffffffffff1660008054906101000a900473ffffffffffffffffffffffffffffffffffffffff1673ffffffffffffffffffffffffffffffffffffffff167f8be0079c531659141344cd1fd0a4f28419497f9722a3daafe3b4186f6b6457e060405160405180910390a3806000806101000a81548173ffffffffffffffffffffffffffffffffffffffff021916908373ffffffffffffffffffffffffffffffffffffffff16021790555050565b828054600181600116156101000203166002900490600052602060002090601f016020900481019282601f10611b2057805160ff1916838001178555611b4e565b82800160010185558215611b4e579182015b82811115611b4d578251825591602001919060010190611b32565b5b509050611b5b9190611b5f565b5090565b5b80821115611b78576000816000905550600101611b60565b509056fe4f776e61626c653a206e6577206f776e657220697320746865207a65726f2061646472657373434e504a204ac3a120657374c3a1206173736f636961646f2e2055736520612066756ec3a7c3a36f2054726f63612e4f2068617368206461206465636c617261c3a7c3a36f20c3a920696e76c3a16c69646f456e64657265c3a76f206ec3a36f20706f646520746572207369646f206361646173747261646f20616e746572696f726d656e7465a2646970667358221220bc10ad1172e1c5a8351645863ded563df5c0491d817e41288a3999a8176ecd8764736f6c634300060c0033",
  "immutableReferences": {},
  "source": "pragma solidity ^0.6.0;\n\nimport \"@openzeppelin/contracts/ownership/Ownable.sol\";\nimport \"./RBBLib.sol\";\n\n/*\nAcho que LegalEntityInfo deveria conter id, ao invs de cnpj\nNo caso de pessoa jurdica, o id  o cnpj\nNo caso de pessoa fsica, um link para um cpf (por causa da LGPD).\n*/\ncontract RBBRegistry is Ownable() {\n\n    /**\n        The account of clients and suppliers are assigned to states.\n        AVAILABLE - The account is not yet assigned any role.\n        WAITING_VALIDATION - The account was linked to a legal entity but it still needs to be validated\n        VALIDATED - The account was validated\n        INVALIDATED_BY_VALIDATOR - The account was invalidated\n        INVALIDATED_BY_CHANGE - The client or supplier changed the ethereum account so the original one must be invalidated.\n     */\n    enum BlockchainAccountState {AVAILABLE,WAITING_VALIDATION,VALIDATED,INVALIDATED_BY_VALIDATOR,INVALIDATED_BY_CHANGE}\n    BlockchainAccountState blockchainState; //Not used. Defined to create the enum type.\n\n//TODO: dever ser um conjunto de validadores, com possibilidade de incluir/remover novos,\n//TODO: owner n pode ser BNDES\n//Tratar como address ou como id?\n    address responsibleForRegistryValidation;\n\n    //todo: avaliar criacao de papel de invalidador para casos ad-hoc\n\n    /**\n        Describes the Legal Entity - clients or suppliers\n     */\n    struct LegalEntityInfo {\n        uint id; //Brazilian identification of legal entity\n        string idProofHash; //hash of declaration\n        BlockchainAccountState state;\n    }\n\n    /**\n        Links Ethereum addresses to LegalEntityInfo\n     */\n    mapping(address => LegalEntityInfo) public legalEntitiesInfo;\n\n    /**\n        Links Legal Entity to Ethereum address.\n     */\n    mapping(uint => address) legalEntityId_To_Addr;\n\n\n    /**\n        Links Ethereum addresses to the possibility to change the account\n        Since the Ethereum account can be changed once, it is not necessary to put the bool to false.\n        TODO: Discuss later what is the best solution to this\n     */\n    mapping(address => bool) public legalEntitiesChangeAccount;\n\n\n    event AccountRegistration(address addr, uint id,  string idProofHash);\n    event AccountChange(address oldAddr, address newAddr, uint id, string idProofHash);\n    event AccountValidation(address addr, uint id);\n    event AccountInvalidation(address addr, uint id);\n\n    constructor (uint idResposibleForValidation) public {\n        responsibleForRegistryValidation = msg.sender;\n        legalEntitiesInfo[msg.sender] = LegalEntityInfo(idResposibleForValidation, \"\", BlockchainAccountState.VALIDATED);\n        legalEntityId_To_Addr[idResposibleForValidation] = responsibleForRegistryValidation;\n        emit AccountRegistration(msg.sender, idResposibleForValidation, \"\");\n    }\n\n   /**\n    * Link blockchain address with ID - It can be a cliente or a supplier\n    * The link still needs to be validated by BNDES\n    * This method can only be called by BNDESToken contract because BNDESToken can pause.\n    * @param cnpj Brazilian identifier to legal entities\n    * @param idProofHash The legal entities have to send BNDES a PDF where it assumes as responsible for an Ethereum account.\n    *                   This PDF is signed with eCNPJ and send to BNDES.\n    */\n    function registryLegalEntity(uint cnpj, string memory idProofHash)\n        public {\n        \n        address addr = msg.sender;\n\n        // Endereo no pode ter sido cadastrado anteriormente\n        require (isAvailableAccount(addr), \"Endereo no pode ter sido cadastrado anteriormente\");\n\n        require (RBBLib.isValidHash(idProofHash), \"O hash da declarao  invlido\");\n\n//?? Avaliar se essa verificacao serah feita\n\n        address account = getBlockchainAccount(cnpj);\n\n        require (isAvailableAccount(account), \"CNPJ J est associado. Use a funo Troca.\");\n\n        legalEntitiesInfo[addr] = LegalEntityInfo(cnpj, idProofHash, BlockchainAccountState.WAITING_VALIDATION);\n\n        legalEntityId_To_Addr[cnpj] = addr;\n\n        emit AccountRegistration(addr, cnpj, idProofHash);\n    }\n\n\n\n\n\n   /**\n    * By default, the owner is also the Responsible for Validation.\n    * The owner can assign other address to be the Responsible for Validation.\n    * @param rs Ethereum address to be assigned as Responsible for Validation.\n    */\n    function setResponsibleForRegistryValidation(address rs) public onlyOwner {\n        responsibleForRegistryValidation = rs;\n        //TODOO: evento quando trocar papeis\n    }\n\n\n\n\n    function isResponsibleForRegistryValidation(address addr) public view returns (bool) {\n        return (addr == responsibleForRegistryValidation);\n    }\n\n    function isOwner(address addr) public view returns (bool) {\n        return owner()==addr;\n    }\n\n    function isAvailableAccount(address addr) public view returns (bool) {\n        return legalEntitiesInfo[addr].state == BlockchainAccountState.AVAILABLE;\n    }\n\n//TODO: eh necessario ter metodos que verificam se id ou address estao validos\n\n    function isWaitingValidationAccount(address addr) public view returns (bool) {\n        return legalEntitiesInfo[addr].state == BlockchainAccountState.WAITING_VALIDATION;\n    }\n\n    function isValidatedAccount(address addr) public view returns (bool) {\n        return legalEntitiesInfo[addr].state == BlockchainAccountState.VALIDATED;\n    }\n\n    function isValidatedId(uint id) public view returns (bool) {\n        address addr = getBlockchainAccount(id);\n        return isValidatedAccount(addr);\n    }\n\n    function isInvalidatedByValidatorAccount(address addr) public view returns (bool) {\n        return legalEntitiesInfo[addr].state == BlockchainAccountState.INVALIDATED_BY_VALIDATOR;\n    }\n\n    function isInvalidatedByChangeAccount(address addr) public view returns (bool) {\n        return legalEntitiesInfo[addr].state == BlockchainAccountState.INVALIDATED_BY_CHANGE;\n    }\n\n    function getResponsibleForRegistryValidation() public view returns (address) {\n        return responsibleForRegistryValidation;\n    }\n\n    function getId (address addr) public view returns (uint) {\n        return legalEntitiesInfo[addr].id;\n    }\n\n    function getLegalEntityInfo (address addr) public view returns (uint, string memory, uint, address) {\n        return (legalEntitiesInfo[addr].id, legalEntitiesInfo[addr].idProofHash, (uint) (legalEntitiesInfo[addr].state),\n             addr);\n    }\n\n    function getBlockchainAccount(uint cnpj) public view returns (address) {\n        return legalEntityId_To_Addr[cnpj];\n    }\n\n    function getLegalEntityInfoById (uint cnpj) public view\n        returns (uint, string memory, uint, address) {\n        \n        address addr = getBlockchainAccount(cnpj);\n        return getLegalEntityInfo (addr);\n    }\n\n    function getAccountState(address addr) public view returns (int) {\n        return ((int) (legalEntitiesInfo[addr].state));\n    }\n\n    function registryMock(uint cnpj)\n        public {\n        \n        address addr = msg.sender;\n        string memory idProofHash = \"\";\n\n        legalEntitiesInfo[addr] = LegalEntityInfo(cnpj, idProofHash, BlockchainAccountState.VALIDATED);\n\n        legalEntityId_To_Addr[cnpj] = addr;\n\n        emit AccountRegistration(addr, cnpj, idProofHash);\n    }\n\n\n}",
  "sourcePath": "/Users/suzana.moreno/workspace/rbb-token/Back-Blockchain/contracts/RBBRegistry.sol",
  "compiler": {
    "name": "solc",
    "version": "0.6.12+commit.27d51765.Emscripten.clang"
  },
  "schemaVersion": "3.2.5",
  "updatedAt": "2020-09-22T22:24:32.259Z",
  "devdoc": {
    "kind": "dev",
    "methods": {
      "isOwner()": {
        "details": "Returns true if the caller is the current owner."
      },
      "owner()": {
        "details": "Returns the address of the current owner."
      },
      "registryLegalEntity(uint256,string)": {
        "params": {
          "cnpj": "Brazilian identifier to legal entities",
          "idProofHash": "The legal entities have to send BNDES a PDF where it assumes as responsible for an Ethereum account.                   This PDF is signed with eCNPJ and send to BNDES."
        }
      },
      "renounceOwnership()": {
        "details": "Leaves the contract without owner. It will not be possible to call `onlyOwner` functions anymore. Can only be called by the current owner. NOTE: Renouncing ownership will leave the contract without an owner, thereby removing any functionality that is only available to the owner."
      },
      "setResponsibleForRegistryValidation(address)": {
        "params": {
          "rs": "Ethereum address to be assigned as Responsible for Validation."
        }
      },
      "transferOwnership(address)": {
        "details": "Transfers ownership of the contract to a new account (`newOwner`). Can only be called by the current owner."
      }
    },
    "version": 1
  },
  "userdoc": {
    "kind": "user",
    "methods": {
      "legalEntitiesChangeAccount(address)": {
        "notice": "Links Ethereum addresses to the possibility to change the account Since the Ethereum account can be changed once, it is not necessary to put the bool to false. TODO: Discuss later what is the best solution to this"
      },
      "legalEntitiesInfo(address)": {
        "notice": "Links Ethereum addresses to LegalEntityInfo"
      },
      "registryLegalEntity(uint256,string)": {
        "notice": "Link blockchain address with ID - It can be a cliente or a supplier The link still needs to be validated by BNDES This method can only be called by BNDESToken contract because BNDESToken can pause."
      },
      "setResponsibleForRegistryValidation(address)": {
        "notice": "By default, the owner is also the Responsible for Validation. The owner can assign other address to be the Responsible for Validation."
      }
    },
    "version": 1
  }
}