{
  "contractName": "RBBRegistry",
  "abi": [
    {
      "inputs": [
        {
          "internalType": "uint256",
          "name": "CNPJSUPADMIN",
          "type": "uint256"
        },
        {
          "internalType": "string",
          "name": "proofHashSUPADMIN",
          "type": "string"
        },
        {
          "internalType": "uint256",
          "name": "daysToExpire",
          "type": "uint256"
        }
      ],
      "stateMutability": "nonpayable",
      "type": "constructor"
    },
    {
      "anonymous": false,
      "inputs": [
        {
          "indexed": false,
          "internalType": "address",
          "name": "addr",
          "type": "address"
        },
        {
          "indexed": false,
          "internalType": "uint256",
          "name": "RBBId",
          "type": "uint256"
        },
        {
          "indexed": false,
          "internalType": "uint256",
          "name": "CNPJ",
          "type": "uint256"
        },
        {
          "indexed": false,
          "internalType": "address",
          "name": "responsible",
          "type": "address"
        }
      ],
      "name": "AccountInvalidation",
      "type": "event"
    },
    {
      "anonymous": false,
      "inputs": [
        {
          "indexed": false,
          "internalType": "address",
          "name": "addr",
          "type": "address"
        },
        {
          "indexed": false,
          "internalType": "uint256",
          "name": "RBBId",
          "type": "uint256"
        },
        {
          "indexed": false,
          "internalType": "uint256",
          "name": "CNPJ",
          "type": "uint256"
        },
        {
          "indexed": false,
          "internalType": "address",
          "name": "responsible",
          "type": "address"
        }
      ],
      "name": "AccountPaused",
      "type": "event"
    },
    {
      "anonymous": false,
      "inputs": [
        {
          "indexed": false,
          "internalType": "address",
          "name": "addr",
          "type": "address"
        },
        {
          "indexed": false,
          "internalType": "uint256",
          "name": "RBBId",
          "type": "uint256"
        },
        {
          "indexed": false,
          "internalType": "uint256",
          "name": "CNPJ",
          "type": "uint256"
        },
        {
          "indexed": false,
          "internalType": "bytes32",
          "name": "hashProof",
          "type": "bytes32"
        },
        {
          "indexed": false,
          "internalType": "uint256",
          "name": "dateTimeExpiration",
          "type": "uint256"
        }
      ],
      "name": "AccountRegistration",
      "type": "event"
    },
    {
      "anonymous": false,
      "inputs": [
        {
          "indexed": false,
          "internalType": "address",
          "name": "addr",
          "type": "address"
        },
        {
          "indexed": false,
          "internalType": "uint256",
          "name": "RBBId",
          "type": "uint256"
        },
        {
          "indexed": false,
          "internalType": "uint256",
          "name": "CNPJ",
          "type": "uint256"
        },
        {
          "indexed": false,
          "internalType": "address",
          "name": "responsible",
          "type": "address"
        },
        {
          "indexed": false,
          "internalType": "enum RBBRegistry.BlockchainAccountRole",
          "name": "roleBefore",
          "type": "uint8"
        },
        {
          "indexed": false,
          "internalType": "enum RBBRegistry.BlockchainAccountRole",
          "name": "roleNew",
          "type": "uint8"
        }
      ],
      "name": "AccountRoleChange",
      "type": "event"
    },
    {
      "anonymous": false,
      "inputs": [
        {
          "indexed": false,
          "internalType": "address",
          "name": "addr",
          "type": "address"
        },
        {
          "indexed": false,
          "internalType": "uint256",
          "name": "RBBId",
          "type": "uint256"
        },
        {
          "indexed": false,
          "internalType": "uint256",
          "name": "CNPJ",
          "type": "uint256"
        },
        {
          "indexed": false,
          "internalType": "address",
          "name": "responsible",
          "type": "address"
        }
      ],
      "name": "AccountUnpaused",
      "type": "event"
    },
    {
      "anonymous": false,
      "inputs": [
        {
          "indexed": false,
          "internalType": "address",
          "name": "addr",
          "type": "address"
        },
        {
          "indexed": false,
          "internalType": "uint256",
          "name": "RBBId",
          "type": "uint256"
        },
        {
          "indexed": false,
          "internalType": "uint256",
          "name": "CNPJ",
          "type": "uint256"
        },
        {
          "indexed": false,
          "internalType": "address",
          "name": "responsible",
          "type": "address"
        }
      ],
      "name": "AccountValidation",
      "type": "event"
    },
    {
      "anonymous": false,
      "inputs": [
        {
          "indexed": true,
          "internalType": "address",
          "name": "previousOwner",
          "type": "address"
        },
        {
          "indexed": true,
          "internalType": "address",
          "name": "newOwner",
          "type": "address"
        }
      ],
      "name": "OwnershipTransferred",
      "type": "event"
    },
    {
      "anonymous": false,
      "inputs": [
        {
          "indexed": false,
          "internalType": "address",
          "name": "addr",
          "type": "address"
        },
        {
          "indexed": false,
          "internalType": "uint256",
          "name": "dateTimeExpirationBefore",
          "type": "uint256"
        },
        {
          "indexed": false,
          "internalType": "uint256",
          "name": "dateTimeExpirationNew",
          "type": "uint256"
        }
      ],
      "name": "RegistryExpirationChange",
      "type": "event"
    },
    {
      "inputs": [
        {
          "internalType": "uint256",
          "name": "",
          "type": "uint256"
        }
      ],
      "name": "CNPJ_RBBId",
      "outputs": [
        {
          "internalType": "uint256",
          "name": "",
          "type": "uint256"
        }
      ],
      "stateMutability": "view",
      "type": "function"
    },
    {
      "inputs": [
        {
          "internalType": "uint256",
          "name": "",
          "type": "uint256"
        },
        {
          "internalType": "uint256",
          "name": "",
          "type": "uint256"
        }
      ],
      "name": "RBBId_addresses",
      "outputs": [
        {
          "internalType": "address",
          "name": "",
          "type": "address"
        }
      ],
      "stateMutability": "view",
      "type": "function"
    },
    {
      "inputs": [],
      "name": "currentRBBId",
      "outputs": [
        {
          "internalType": "uint256",
          "name": "",
          "type": "uint256"
        }
      ],
      "stateMutability": "view",
      "type": "function"
    },
    {
      "inputs": [],
      "name": "defaultDateTimeExpiration",
      "outputs": [
        {
          "internalType": "uint256",
          "name": "",
          "type": "uint256"
        }
      ],
      "stateMutability": "view",
      "type": "function"
    },
    {
      "inputs": [
        {
          "internalType": "address",
          "name": "",
          "type": "address"
        }
      ],
      "name": "legalEntitiesInfo",
      "outputs": [
        {
          "internalType": "uint256",
          "name": "RBBId",
          "type": "uint256"
        },
        {
          "internalType": "uint256",
          "name": "CNPJ",
          "type": "uint256"
        },
        {
          "internalType": "bytes32",
          "name": "hashProof",
          "type": "bytes32"
        },
        {
          "internalType": "enum RBBRegistry.BlockchainAccountState",
          "name": "state",
          "type": "uint8"
        },
        {
          "internalType": "enum RBBRegistry.BlockchainAccountRole",
          "name": "role",
          "type": "uint8"
        },
        {
          "internalType": "bool",
          "name": "paused",
          "type": "bool"
        },
        {
          "internalType": "uint256",
          "name": "dateTimeExpiration",
          "type": "uint256"
        }
      ],
      "stateMutability": "view",
      "type": "function"
    },
    {
      "inputs": [],
      "name": "owner",
      "outputs": [
        {
          "internalType": "address",
          "name": "",
          "type": "address"
        }
      ],
      "stateMutability": "view",
      "type": "function"
    },
    {
      "inputs": [],
      "name": "renounceOwnership",
      "outputs": [],
      "stateMutability": "nonpayable",
      "type": "function"
    },
    {
      "inputs": [
        {
          "internalType": "address",
          "name": "newOwner",
          "type": "address"
        }
      ],
      "name": "transferOwnership",
      "outputs": [],
      "stateMutability": "nonpayable",
      "type": "function"
    },
    {
      "inputs": [
        {
          "internalType": "uint256",
          "name": "CNPJ",
          "type": "uint256"
        },
        {
          "internalType": "bytes32",
          "name": "CNPJProofHash",
          "type": "bytes32"
        }
      ],
      "name": "registryLegalEntity",
      "outputs": [],
      "stateMutability": "nonpayable",
      "type": "function"
    },
    {
      "inputs": [
        {
          "internalType": "address",
          "name": "userAddr",
          "type": "address"
        }
      ],
      "name": "validateRegistrySameOrg",
      "outputs": [],
      "stateMutability": "nonpayable",
      "type": "function"
    },
    {
      "inputs": [
        {
          "internalType": "address",
          "name": "userAddr",
          "type": "address"
        }
      ],
      "name": "validateRegistry",
      "outputs": [],
      "stateMutability": "nonpayable",
      "type": "function"
    },
    {
      "inputs": [
        {
          "internalType": "address",
          "name": "addr",
          "type": "address"
        }
      ],
      "name": "pauseAddress",
      "outputs": [],
      "stateMutability": "nonpayable",
      "type": "function"
    },
    {
      "inputs": [
        {
          "internalType": "uint256",
          "name": "RBBId",
          "type": "uint256"
        }
      ],
      "name": "pauseLegalEntity",
      "outputs": [],
      "stateMutability": "nonpayable",
      "type": "function"
    },
    {
      "inputs": [
        {
          "internalType": "address",
          "name": "addr",
          "type": "address"
        }
      ],
      "name": "unpauseAddress",
      "outputs": [],
      "stateMutability": "nonpayable",
      "type": "function"
    },
    {
      "inputs": [
        {
          "internalType": "address",
          "name": "addr",
          "type": "address"
        }
      ],
      "name": "invalidateRegistry",
      "outputs": [],
      "stateMutability": "nonpayable",
      "type": "function"
    },
    {
      "inputs": [
        {
          "internalType": "address",
          "name": "addr",
          "type": "address"
        }
      ],
      "name": "isSortOfAdmin",
      "outputs": [
        {
          "internalType": "bool",
          "name": "",
          "type": "bool"
        }
      ],
      "stateMutability": "view",
      "type": "function"
    },
    {
      "inputs": [
        {
          "internalType": "address",
          "name": "addr",
          "type": "address"
        }
      ],
      "name": "isOwner",
      "outputs": [
        {
          "internalType": "bool",
          "name": "",
          "type": "bool"
        }
      ],
      "stateMutability": "view",
      "type": "function"
    },
    {
      "inputs": [
        {
          "internalType": "address",
          "name": "addr",
          "type": "address"
        }
      ],
      "name": "isAvailableAccount",
      "outputs": [
        {
          "internalType": "bool",
          "name": "",
          "type": "bool"
        }
      ],
      "stateMutability": "view",
      "type": "function"
    },
    {
      "inputs": [
        {
          "internalType": "address",
          "name": "addr",
          "type": "address"
        }
      ],
      "name": "isWaitingValidationAccount",
      "outputs": [
        {
          "internalType": "bool",
          "name": "",
          "type": "bool"
        }
      ],
      "stateMutability": "view",
      "type": "function"
    },
    {
      "inputs": [
        {
          "internalType": "address",
          "name": "addr",
          "type": "address"
        }
      ],
      "name": "isValidatedAccount",
      "outputs": [
        {
          "internalType": "bool",
          "name": "",
          "type": "bool"
        }
      ],
      "stateMutability": "view",
      "type": "function"
    },
    {
      "inputs": [
        {
          "internalType": "address",
          "name": "addr",
          "type": "address"
        }
      ],
      "name": "isInvalidated",
      "outputs": [
        {
          "internalType": "bool",
          "name": "",
          "type": "bool"
        }
      ],
      "stateMutability": "view",
      "type": "function"
    },
    {
      "inputs": [
        {
          "internalType": "address",
          "name": "a",
          "type": "address"
        },
        {
          "internalType": "address",
          "name": "b",
          "type": "address"
        }
      ],
      "name": "isTheSameID",
      "outputs": [
        {
          "internalType": "bool",
          "name": "",
          "type": "bool"
        }
      ],
      "stateMutability": "view",
      "type": "function"
    },
    {
      "inputs": [
        {
          "internalType": "address",
          "name": "addr",
          "type": "address"
        }
      ],
      "name": "isPaused",
      "outputs": [
        {
          "internalType": "bool",
          "name": "",
          "type": "bool"
        }
      ],
      "stateMutability": "view",
      "type": "function"
    },
    {
      "inputs": [
        {
          "internalType": "address",
          "name": "addr",
          "type": "address"
        }
      ],
      "name": "isOperational",
      "outputs": [
        {
          "internalType": "bool",
          "name": "",
          "type": "bool"
        }
      ],
      "stateMutability": "view",
      "type": "function"
    },
    {
      "inputs": [
        {
          "internalType": "uint256",
          "name": "RBBId",
          "type": "uint256"
        }
      ],
      "name": "isRegistryOperational",
      "outputs": [
        {
          "internalType": "bool",
          "name": "",
          "type": "bool"
        }
      ],
      "stateMutability": "view",
      "type": "function"
    },
    {
      "inputs": [
        {
          "internalType": "address",
          "name": "addr",
          "type": "address"
        }
      ],
      "name": "getId",
      "outputs": [
        {
          "internalType": "uint256",
          "name": "",
          "type": "uint256"
        }
      ],
      "stateMutability": "view",
      "type": "function"
    },
    {
      "inputs": [
        {
          "internalType": "address",
          "name": "addr",
          "type": "address"
        }
      ],
      "name": "getRBBIdRaw",
      "outputs": [
        {
          "internalType": "uint256",
          "name": "",
          "type": "uint256"
        }
      ],
      "stateMutability": "view",
      "type": "function"
    },
    {
      "inputs": [
        {
          "internalType": "address",
          "name": "addr",
          "type": "address"
        }
      ],
      "name": "getCNPJ",
      "outputs": [
        {
          "internalType": "uint256",
          "name": "",
          "type": "uint256"
        }
      ],
      "stateMutability": "view",
      "type": "function"
    },
    {
      "inputs": [
        {
          "internalType": "address",
          "name": "addr",
          "type": "address"
        }
      ],
      "name": "getRegistry",
      "outputs": [
        {
          "internalType": "uint256",
          "name": "",
          "type": "uint256"
        },
        {
          "internalType": "uint256",
          "name": "",
          "type": "uint256"
        },
        {
          "internalType": "bytes32",
          "name": "",
          "type": "bytes32"
        },
        {
          "internalType": "uint256",
          "name": "",
          "type": "uint256"
        },
        {
          "internalType": "uint256",
          "name": "",
          "type": "uint256"
        },
        {
          "internalType": "bool",
          "name": "",
          "type": "bool"
        },
        {
          "internalType": "uint256",
          "name": "",
          "type": "uint256"
        }
      ],
      "stateMutability": "view",
      "type": "function"
    },
    {
      "inputs": [
        {
          "internalType": "uint256",
          "name": "RBBId",
          "type": "uint256"
        }
      ],
      "name": "getBlockchainAccounts",
      "outputs": [
        {
          "internalType": "address[]",
          "name": "",
          "type": "address[]"
        }
      ],
      "stateMutability": "view",
      "type": "function"
    },
    {
      "inputs": [
        {
          "internalType": "address",
          "name": "addr",
          "type": "address"
        }
      ],
      "name": "getAccountState",
      "outputs": [
        {
          "internalType": "int256",
          "name": "",
          "type": "int256"
        }
      ],
      "stateMutability": "view",
      "type": "function"
    },
    {
      "inputs": [
        {
          "internalType": "address",
          "name": "addr",
          "type": "address"
        }
      ],
      "name": "getAccountRole",
      "outputs": [
        {
          "internalType": "int256",
          "name": "",
          "type": "int256"
        }
      ],
      "stateMutability": "view",
      "type": "function"
    },
    {
      "inputs": [
        {
          "internalType": "uint256",
          "name": "cnpj",
          "type": "uint256"
        }
      ],
      "name": "getIdFromCNPJ",
      "outputs": [
        {
          "internalType": "uint256",
          "name": "",
          "type": "uint256"
        }
      ],
      "stateMutability": "view",
      "type": "function"
    },
    {
      "inputs": [
        {
          "internalType": "address",
          "name": "addr",
          "type": "address"
        }
      ],
      "name": "setRoleSupAdmin",
      "outputs": [],
      "stateMutability": "nonpayable",
      "type": "function"
    },
    {
      "inputs": [
        {
          "internalType": "uint256",
          "name": "dateTimeExpirationNew",
          "type": "uint256"
        }
      ],
      "name": "setDefaultDateTimeExpiration",
      "outputs": [],
      "stateMutability": "nonpayable",
      "type": "function"
    },
    {
      "inputs": [
        {
          "internalType": "uint256",
          "name": "Id",
          "type": "uint256"
        }
      ],
      "name": "getCNPJbyID",
      "outputs": [
        {
          "internalType": "uint256",
          "name": "",
          "type": "uint256"
        }
      ],
      "stateMutability": "view",
      "type": "function"
    }
  ],
  "bytecode": "0x608060405260006001556301e133806002553480156200001e57600080fd5b5060405162004e3538038062004e35833981810160405260608110156200004457600080fd5b8101908080519060200190929190805160405193929190846401000000008211156200006f57600080fd5b838201915060208201858111156200008657600080fd5b8251866001820283011164010000000082111715620000a457600080fd5b8083526020830192505050908051906020019080838360005b83811015620000da578082015181840152602081019050620000bd565b50505050905090810190601f168015620001085780820380516001836020036101000a031916815260200191505b506040526020018051906020019092919050505060006200012e6200050660201b60201c565b9050806000806101000a81548173ffffffffffffffffffffffffffffffffffffffff021916908373ffffffffffffffffffffffffffffffffffffffff1602179055508073ffffffffffffffffffffffffffffffffffffffff16600073ffffffffffffffffffffffffffffffffffffffff167f8be0079c531659141344cd1fd0a4f28419497f9722a3daafe3b4186f6b6457e060405160405180910390a3506000339050600073__RBBLib________________________________63592c80ee856040518263ffffffff1660e01b81526004018080602001828103825283818151815260200191508051906020019080838360005b838110156200023f57808201518184015260208101905062000222565b50505050905090810190601f1680156200026d5780820380516001836020036101000a031916815260200191505b509250505060206040518083038186803b1580156200028b57600080fd5b505af4158015620002a0573d6000803e3d6000fd5b505050506040513d6020811015620002b757600080fd5b810190808051906020019092919050505090506000620151808402420190506000620002e9876200050e60201b60201c565b90506040518060e00160405280828152602001888152602001848152602001600260038111156200031657fe5b81526020016002808111156200032857fe5b815260200160001515815260200183815250600360008673ffffffffffffffffffffffffffffffffffffffff1673ffffffffffffffffffffffffffffffffffffffff16815260200190815260200160002060008201518160000155602082015181600101556040820151816002015560608201518160030160006101000a81548160ff02191690836003811115620003bc57fe5b021790555060808201518160030160016101000a81548160ff02191690836002811115620003e657fe5b021790555060a08201518160030160026101000a81548160ff02191690831515021790555060c0820151816004015590505060046000828152602001908152602001600020849080600181540180825580915050600190039060005260206000200160009091909190916101000a81548173ffffffffffffffffffffffffffffffffffffffff021916908373ffffffffffffffffffffffffffffffffffffffff1602179055507f4aa43cf10b603c9a80bec1e701073c460c5378a975e89e185c0bb22ac75e77378482898686604051808673ffffffffffffffffffffffffffffffffffffffff1681526020018581526020018481526020018381526020018281526020019550505050505060405180910390a1505050505050506200056e565b600033905090565b60008060056000848152602001908152602001600020541415620005535760016000815460010191905081905560056000848152602001908152602001600020819055505b60056000838152602001908152602001600020549050919050565b6148b7806200057e6000396000f3fe608060405234801561001057600080fd5b506004361061021c5760003560e01c806381d66b2311610125578063be49b78d116100ad578063e7e4fec81161007c578063e7e4fec814610bc2578063f2fde38b14610bf0578063f582202714610c34578063f818f70f14610c78578063f971d77c14610c965761021c565b8063be49b78d14610ac6578063c616f4c014610b1e578063caa7922c14610b3c578063d208665714610b805761021c565b80639ee2735b116100f45780639ee2735b146108de578063a3d8845314610936578063b6fc41fa14610990578063b8e175b1146109f2578063bb39308614610a4c5761021c565b806381d66b23146107ca5780638c879eb1146108225780638da5cb5b146108505780638e97637e146108845761021c565b80634646a0c0116101a857806365f68c891161017757806365f68c891461069e57806367b03549146106f65780636d5686711461073a578063715018a61461077c57806377df472c146107865761021c565b80634646a0c01461056e5780634f16ce0c146105a65780635b14f183146105ea5780636426a116146106445761021c565b80632dc913a6116101ef5780632dc913a6146103dc5780632f54bf6e1461041e57806331cc10ce1461047857806339b38939146104d0578063457385f2146105145761021c565b8063087d4427146102215780630bf20e01146102655780630c4471bd146102e857806326ff479414610342575b600080fd5b61024d6004803603602081101561023757600080fd5b8101908080359060200190929190505050610d1a565b60405180821515815260200191505060405180910390f35b6102916004803603602081101561027b57600080fd5b8101908080359060200190929190505050610e29565b6040518080602001828103825283818151815260200191508051906020019060200280838360005b838110156102d45780820151818401526020810190506102b9565b505050509050019250505060405180910390f35b61032a600480360360208110156102fe57600080fd5b81019080803573ffffffffffffffffffffffffffffffffffffffff169060200190929190505050610eca565b60405180821515815260200191505060405180910390f35b6103846004803603602081101561035857600080fd5b81019080803573ffffffffffffffffffffffffffffffffffffffff169060200190929190505050610f3c565b604051808881526020018781526020018681526020018560038111156103a657fe5b81526020018460028111156103b757fe5b8152602001831515815260200182815260200197505050505050505060405180910390f35b610408600480360360208110156103f257600080fd5b8101908080359060200190929190505050610fa5565b6040518082815260200191505060405180910390f35b6104606004803603602081101561043457600080fd5b81019080803573ffffffffffffffffffffffffffffffffffffffff169060200190929190505050610fbd565b60405180821515815260200191505060405180910390f35b6104ba6004803603602081101561048e57600080fd5b81019080803573ffffffffffffffffffffffffffffffffffffffff169060200190929190505050610ffc565b6040518082815260200191505060405180910390f35b610512600480360360208110156104e657600080fd5b81019080803573ffffffffffffffffffffffffffffffffffffffff169060200190929190505050611048565b005b6105566004803603602081101561052a57600080fd5b81019080803573ffffffffffffffffffffffffffffffffffffffff1690602001909291905050506113a6565b60405180821515815260200191505060405180910390f35b6105a46004803603604081101561058457600080fd5b8101908080359060200190929190803590602001909291905050506113ca565b005b6105e8600480360360208110156105bc57600080fd5b81019080803573ffffffffffffffffffffffffffffffffffffffff169060200190929190505050611796565b005b61062c6004803603602081101561060057600080fd5b81019080803573ffffffffffffffffffffffffffffffffffffffff169060200190929190505050611d60565b60405180821515815260200191505060405180910390f35b6106866004803603602081101561065a57600080fd5b81019080803573ffffffffffffffffffffffffffffffffffffffff169060200190929190505050611db9565b60405180821515815260200191505060405180910390f35b6106e0600480360360208110156106b457600080fd5b81019080803573ffffffffffffffffffffffffffffffffffffffff169060200190929190505050611e2b565b6040518082815260200191505060405180910390f35b6107386004803603602081101561070c57600080fd5b81019080803573ffffffffffffffffffffffffffffffffffffffff169060200190929190505050611ea0565b005b6107666004803603602081101561075057600080fd5b8101908080359060200190929190505050612385565b6040518082815260200191505060405180910390f35b6107846123a2565b005b6107c86004803603602081101561079c57600080fd5b81019080803573ffffffffffffffffffffffffffffffffffffffff169060200190929190505050612528565b005b61080c600480360360208110156107e057600080fd5b81019080803573ffffffffffffffffffffffffffffffffffffffff1690602001909291905050506129d9565b6040518082815260200191505060405180910390f35b61084e6004803603602081101561083857600080fd5b8101908080359060200190929190505050612a3d565b005b610858612f23565b604051808273ffffffffffffffffffffffffffffffffffffffff16815260200191505060405180910390f35b6108c66004803603602081101561089a57600080fd5b81019080803573ffffffffffffffffffffffffffffffffffffffff169060200190929190505050612f4c565b60405180821515815260200191505060405180910390f35b610920600480360360208110156108f457600080fd5b81019080803573ffffffffffffffffffffffffffffffffffffffff169060200190929190505050612fbd565b6040518082815260200191505060405180910390f35b6109786004803603602081101561094c57600080fd5b81019080803573ffffffffffffffffffffffffffffffffffffffff169060200190929190505050613021565b60405180821515815260200191505060405180910390f35b6109c6600480360360408110156109a657600080fd5b810190808035906020019092919080359060200190929190505050613092565b604051808273ffffffffffffffffffffffffffffffffffffffff16815260200191505060405180910390f35b610a3460048036036020811015610a0857600080fd5b81019080803573ffffffffffffffffffffffffffffffffffffffff1690602001909291905050506130dd565b60405180821515815260200191505060405180910390f35b610aae60048036036040811015610a6257600080fd5b81019080803573ffffffffffffffffffffffffffffffffffffffff169060200190929190803573ffffffffffffffffffffffffffffffffffffffff1690602001909291905050506131be565b60405180821515815260200191505060405180910390f35b610b0860048036036020811015610adc57600080fd5b81019080803573ffffffffffffffffffffffffffffffffffffffff16906020019092919050505061324f565b6040518082815260200191505060405180910390f35b610b2661329b565b6040518082815260200191505060405180910390f35b610b7e60048036036020811015610b5257600080fd5b81019080803573ffffffffffffffffffffffffffffffffffffffff1690602001909291905050506132a1565b005b610bac60048036036020811015610b9657600080fd5b8101908080359060200190929190505050613786565b6040518082815260200191505060405180910390f35b610bee60048036036020811015610bd857600080fd5b8101908080359060200190929190505050613820565b005b610c3260048036036020811015610c0657600080fd5b81019080803573ffffffffffffffffffffffffffffffffffffffff16906020019092919050505061394e565b005b610c7660048036036020811015610c4a57600080fd5b81019080803573ffffffffffffffffffffffffffffffffffffffff169060200190929190505050613b59565b005b610c80614052565b6040518082815260200191505060405180910390f35b610cd860048036036020811015610cac57600080fd5b81019080803573ffffffffffffffffffffffffffffffffffffffff169060200190929190505050614058565b60405180888152602001878152602001868152602001858152602001848152602001831515815260200182815260200197505050505050505060405180910390f35b6000606060046000848152602001908152602001600020805480602002602001604051908101604052809291908181526020018280548015610db157602002820191906000526020600020905b8160009054906101000a900473ffffffffffffffffffffffffffffffffffffffff1673ffffffffffffffffffffffffffffffffffffffff1681526020019060010190808311610d67575b5050505050905060005b8151811015610e2157610de0828281518110610dd357fe5b60200260200101516113a6565b8015610e045750610e03828281518110610df657fe5b60200260200101516130dd565b5b15610e1457600192505050610e24565b8080600101915050610dbb565b50505b919050565b606060046000838152602001908152602001600020805480602002602001604051908101604052809291908181526020018280548015610ebe57602002820191906000526020600020905b8160009054906101000a900473ffffffffffffffffffffffffffffffffffffffff1673ffffffffffffffffffffffffffffffffffffffff1681526020019060010190808311610e74575b50505050509050919050565b600060016003811115610ed957fe5b600360008473ffffffffffffffffffffffffffffffffffffffff1673ffffffffffffffffffffffffffffffffffffffff16815260200190815260200160002060030160009054906101000a900460ff166003811115610f3457fe5b149050919050565b60036020528060005260406000206000915090508060000154908060010154908060020154908060030160009054906101000a900460ff16908060030160019054906101000a900460ff16908060030160029054906101000a900460ff16908060040154905087565b60056020528060005260406000206000915090505481565b60008173ffffffffffffffffffffffffffffffffffffffff16610fde612f23565b73ffffffffffffffffffffffffffffffffffffffff16149050919050565b6000600360008373ffffffffffffffffffffffffffffffffffffffff1673ffffffffffffffffffffffffffffffffffffffff168152602001908152602001600020600001549050919050565b6110506141a7565b73ffffffffffffffffffffffffffffffffffffffff1660008054906101000a900473ffffffffffffffffffffffffffffffffffffffff1673ffffffffffffffffffffffffffffffffffffffff1614611110576040517f08c379a00000000000000000000000000000000000000000000000000000000081526004018080602001828103825260208152602001807f4f776e61626c653a2063616c6c6572206973206e6f7420746865206f776e657281525060200191505060405180910390fd5b61112161111b612f23565b826131be565b611176576040517f08c379a00000000000000000000000000000000000000000000000000000000081526004018080602001828103825260488152602001806144416048913960600191505060405180910390fd5b6000600360008373ffffffffffffffffffffffffffffffffffffffff1673ffffffffffffffffffffffffffffffffffffffff16815260200190815260200160002060030160019054906101000a900460ff1690506002600360008473ffffffffffffffffffffffffffffffffffffffff1673ffffffffffffffffffffffffffffffffffffffff16815260200190815260200160002060030160016101000a81548160ff0219169083600281111561122957fe5b02179055507f13382921d3a6e392cd7bac34288a59fabe1f26f801f24defc12dc8ee3c1fb34b82600360008573ffffffffffffffffffffffffffffffffffffffff1673ffffffffffffffffffffffffffffffffffffffff16815260200190815260200160002060000154600360008673ffffffffffffffffffffffffffffffffffffffff1673ffffffffffffffffffffffffffffffffffffffff168152602001908152602001600020600101543385600360008973ffffffffffffffffffffffffffffffffffffffff1673ffffffffffffffffffffffffffffffffffffffff16815260200190815260200160002060030160019054906101000a900460ff16604051808773ffffffffffffffffffffffffffffffffffffffff1681526020018681526020018581526020018473ffffffffffffffffffffffffffffffffffffffff16815260200183600281111561137c57fe5b815260200182600281111561138d57fe5b8152602001965050505050505060405180910390a15050565b60006113b182611db9565b80156113c357506113c182611d60565b155b9050919050565b6000339050600082905060006002544201905060006113e8866141af565b90506113f384613021565b611448576040517f08c379a00000000000000000000000000000000000000000000000000000000081526004018080602001828103825260358152602001806146b06035913960400191505060405180910390fd5b6000801b831415611582576040518060e001604052808281526020018781526020018481526020016001600381111561147d57fe5b81526020016000600281111561148f57fe5b815260200160001515815260200183815250600360008673ffffffffffffffffffffffffffffffffffffffff1673ffffffffffffffffffffffffffffffffffffffff16815260200190815260200160002060008201518160000155602082015181600101556040820151816002015560608201518160030160006101000a81548160ff0219169083600381111561152257fe5b021790555060808201518160030160016101000a81548160ff0219169083600281111561154b57fe5b021790555060a08201518160030160026101000a81548160ff02191690831515021790555060c082015181600401559050506116ad565b6040518060e00160405280828152602001878152602001848152602001600160038111156115ac57fe5b8152602001600160028111156115be57fe5b815260200160001515815260200183815250600360008673ffffffffffffffffffffffffffffffffffffffff1673ffffffffffffffffffffffffffffffffffffffff16815260200190815260200160002060008201518160000155602082015181600101556040820151816002015560608201518160030160006101000a81548160ff0219169083600381111561165157fe5b021790555060808201518160030160016101000a81548160ff0219169083600281111561167a57fe5b021790555060a08201518160030160026101000a81548160ff02191690831515021790555060c082015181600401559050505b60046000828152602001908152602001600020849080600181540180825580915050600190039060005260206000200160009091909190916101000a81548173ffffffffffffffffffffffffffffffffffffffff021916908373ffffffffffffffffffffffffffffffffffffffff1602179055507f4aa43cf10b603c9a80bec1e701073c460c5378a975e89e185c0bb22ac75e77378482888686604051808673ffffffffffffffffffffffffffffffffffffffff1681526020018581526020018481526020018381526020018281526020019550505050505060405180910390a1505050505050565b600360003373ffffffffffffffffffffffffffffffffffffffff1673ffffffffffffffffffffffffffffffffffffffff16815260200190815260200160002060030160029054906101000a900460ff161561183c576040517f08c379a000000000000000000000000000000000000000000000000000000000815260040180806020018281038252602b815260200180614267602b913960400191505060405180910390fd5b42600360003373ffffffffffffffffffffffffffffffffffffffff1673ffffffffffffffffffffffffffffffffffffffff16815260200190815260200160002060040154116118d6576040517f08c379a00000000000000000000000000000000000000000000000000000000081526004018080602001828103825260478152602001806146e56047913960600191505060405180910390fd5b60003390508173ffffffffffffffffffffffffffffffffffffffff168173ffffffffffffffffffffffffffffffffffffffff161415611960576040517f08c379a00000000000000000000000000000000000000000000000000000000081526004018080602001828103825260448152602001806142c86044913960600191505060405180910390fd5b6001600281111561196d57fe5b600360008373ffffffffffffffffffffffffffffffffffffffff1673ffffffffffffffffffffffffffffffffffffffff16815260200190815260200160002060030160019054906101000a900460ff1660028111156119c857fe5b14611a1e576040517f08c379a00000000000000000000000000000000000000000000000000000000081526004018080602001828103825260368152602001806147886036913960400191505060405180910390fd5b611a2881836131be565b611a7d576040517f08c379a000000000000000000000000000000000000000000000000000000000815260040180806020018281038252604c81526020018061463a604c913960600191505060405180910390fd5b60006002811115611a8a57fe5b600360008473ffffffffffffffffffffffffffffffffffffffff1673ffffffffffffffffffffffffffffffffffffffff16815260200190815260200160002060030160019054906101000a900460ff166002811115611ae557fe5b14611b3b576040517f08c379a00000000000000000000000000000000000000000000000000000000081526004018080602001828103825260328152602001806147be6032913960400191505060405180910390fd5b60016003811115611b4857fe5b600360008473ffffffffffffffffffffffffffffffffffffffff1673ffffffffffffffffffffffffffffffffffffffff16815260200190815260200160002060030160009054906101000a900460ff166003811115611ba357fe5b14611bf9576040517f08c379a00000000000000000000000000000000000000000000000000000000081526004018080602001828103825260408152602001806144b66040913960400191505060405180910390fd5b6002600360008473ffffffffffffffffffffffffffffffffffffffff1673ffffffffffffffffffffffffffffffffffffffff16815260200190815260200160002060030160006101000a81548160ff02191690836003811115611c5857fe5b02179055507f073fc7b5012ce389e8ee332d8cb39b41a44a08b42ee9260a78dd3a757a66c11182600360008573ffffffffffffffffffffffffffffffffffffffff1673ffffffffffffffffffffffffffffffffffffffff16815260200190815260200160002060000154600360008673ffffffffffffffffffffffffffffffffffffffff1673ffffffffffffffffffffffffffffffffffffffff1681526020019081526020016000206001015484604051808573ffffffffffffffffffffffffffffffffffffffff1681526020018481526020018381526020018273ffffffffffffffffffffffffffffffffffffffff16815260200194505050505060405180910390a15050565b6000600360008373ffffffffffffffffffffffffffffffffffffffff1673ffffffffffffffffffffffffffffffffffffffff16815260200190815260200160002060030160029054906101000a900460ff169050919050565b600060026003811115611dc857fe5b600360008473ffffffffffffffffffffffffffffffffffffffff1673ffffffffffffffffffffffffffffffffffffffff16815260200190815260200160002060030160009054906101000a900460ff166003811115611e2357fe5b149050919050565b600080611e3783610ffc565b9050611e4281610d1a565b611e97576040517f08c379a00000000000000000000000000000000000000000000000000000000081526004018080602001828103825260228152602001806148606022913960400191505060405180910390fd5b80915050919050565b600360003373ffffffffffffffffffffffffffffffffffffffff1673ffffffffffffffffffffffffffffffffffffffff16815260200190815260200160002060030160029054906101000a900460ff1615611f46576040517f08c379a000000000000000000000000000000000000000000000000000000000815260040180806020018281038252602b815260200180614267602b913960400191505060405180910390fd5b42600360003373ffffffffffffffffffffffffffffffffffffffff1673ffffffffffffffffffffffffffffffffffffffff1681526020019081526020016000206004015411611fe0576040517f08c379a00000000000000000000000000000000000000000000000000000000081526004018080602001828103825260478152602001806146e56047913960600191505060405180910390fd5b600033905060016002811115611ff257fe5b600360008373ffffffffffffffffffffffffffffffffffffffff1673ffffffffffffffffffffffffffffffffffffffff16815260200190815260200160002060030160019054906101000a900460ff16600281111561204d57fe5b146120a3576040517f08c379a000000000000000000000000000000000000000000000000000000000815260040180806020018281038252602a815260200180614686602a913960400191505060405180910390fd5b6002808111156120af57fe5b600360008473ffffffffffffffffffffffffffffffffffffffff1673ffffffffffffffffffffffffffffffffffffffff16815260200190815260200160002060030160019054906101000a900460ff16600281111561210a57fe5b1415612161576040517f08c379a00000000000000000000000000000000000000000000000000000000081526004018080602001828103825260298152602001806143b46029913960400191505060405180910390fd5b60038081111561216d57fe5b600360008473ffffffffffffffffffffffffffffffffffffffff1673ffffffffffffffffffffffffffffffffffffffff16815260200190815260200160002060030160009054906101000a900460ff1660038111156121c857fe5b141561221f576040517f08c379a000000000000000000000000000000000000000000000000000000000815260040180806020018281038252602381526020018061441e6023913960400191505060405180910390fd5b60038060008473ffffffffffffffffffffffffffffffffffffffff1673ffffffffffffffffffffffffffffffffffffffff16815260200190815260200160002060030160006101000a81548160ff0219169083600381111561227d57fe5b02179055507fe54094ed206f2d050c7d5065f566c98e3c67d5f94c76971e8e73b392f8314ae282600360008573ffffffffffffffffffffffffffffffffffffffff1673ffffffffffffffffffffffffffffffffffffffff16815260200190815260200160002060000154600360008673ffffffffffffffffffffffffffffffffffffffff1673ffffffffffffffffffffffffffffffffffffffff1681526020019081526020016000206001015484604051808573ffffffffffffffffffffffffffffffffffffffff1681526020018481526020018381526020018273ffffffffffffffffffffffffffffffffffffffff16815260200194505050505060405180910390a15050565b600060056000838152602001908152602001600020549050919050565b6123aa6141a7565b73ffffffffffffffffffffffffffffffffffffffff1660008054906101000a900473ffffffffffffffffffffffffffffffffffffffff1673ffffffffffffffffffffffffffffffffffffffff161461246a576040517f08c379a00000000000000000000000000000000000000000000000000000000081526004018080602001828103825260208152602001807f4f776e61626c653a2063616c6c6572206973206e6f7420746865206f776e657281525060200191505060405180910390fd5b600073ffffffffffffffffffffffffffffffffffffffff1660008054906101000a900473ffffffffffffffffffffffffffffffffffffffff1673ffffffffffffffffffffffffffffffffffffffff167f8be0079c531659141344cd1fd0a4f28419497f9722a3daafe3b4186f6b6457e060405160405180910390a360008060006101000a81548173ffffffffffffffffffffffffffffffffffffffff021916908373ffffffffffffffffffffffffffffffffffffffff160217905550565b600360003373ffffffffffffffffffffffffffffffffffffffff1673ffffffffffffffffffffffffffffffffffffffff16815260200190815260200160002060030160029054906101000a900460ff16156125ce576040517f08c379a000000000000000000000000000000000000000000000000000000000815260040180806020018281038252602b815260200180614267602b913960400191505060405180910390fd5b60003390506002808111156125df57fe5b600360008473ffffffffffffffffffffffffffffffffffffffff1673ffffffffffffffffffffffffffffffffffffffff16815260200190815260200160002060030160019054906101000a900460ff16600281111561263a57fe5b1415612691576040517f08c379a00000000000000000000000000000000000000000000000000000000081526004018080602001828103825260268152602001806145946026913960400191505060405180910390fd5b61269b81836131be565b8061270a57506002808111156126ad57fe5b600360008373ffffffffffffffffffffffffffffffffffffffff1673ffffffffffffffffffffffffffffffffffffffff16815260200190815260200160002060030160019054906101000a900460ff16600281111561270857fe5b145b61275f576040517f08c379a00000000000000000000000000000000000000000000000000000000081526004018080602001828103825260558152602001806144f66055913960600191505060405180910390fd5b61276882611db9565b6127bd576040517f08c379a000000000000000000000000000000000000000000000000000000000815260040180806020018281038252602a8152602001806147f0602a913960400191505060405180910390fd5b600260038111156127ca57fe5b600360008373ffffffffffffffffffffffffffffffffffffffff1673ffffffffffffffffffffffffffffffffffffffff16815260200190815260200160002060030160009054906101000a900460ff16600381111561282557fe5b1461287b576040517f08c379a000000000000000000000000000000000000000000000000000000000815260040180806020018281038252602d815260200180614489602d913960400191505060405180910390fd5b6001600360008473ffffffffffffffffffffffffffffffffffffffff1673ffffffffffffffffffffffffffffffffffffffff16815260200190815260200160002060030160026101000a81548160ff0219169083151502179055507feab44e925fe37efdf7a6b9681f2daf982a47f4e64e2d592e8ee4309b986df6a782600360008573ffffffffffffffffffffffffffffffffffffffff1673ffffffffffffffffffffffffffffffffffffffff16815260200190815260200160002060000154600360008673ffffffffffffffffffffffffffffffffffffffff1673ffffffffffffffffffffffffffffffffffffffff1681526020019081526020016000206001015484604051808573ffffffffffffffffffffffffffffffffffffffff1681526020018481526020018381526020018273ffffffffffffffffffffffffffffffffffffffff16815260200194505050505060405180910390a15050565b6000600360008373ffffffffffffffffffffffffffffffffffffffff1673ffffffffffffffffffffffffffffffffffffffff16815260200190815260200160002060030160019054906101000a900460ff166002811115612a3657fe5b9050919050565b600360003373ffffffffffffffffffffffffffffffffffffffff1673ffffffffffffffffffffffffffffffffffffffff16815260200190815260200160002060030160029054906101000a900460ff1615612ae3576040517f08c379a000000000000000000000000000000000000000000000000000000000815260040180806020018281038252602b815260200180614267602b913960400191505060405180910390fd5b6000339050606060046000848152602001908152602001600020805480602002602001604051908101604052809291908181526020018280548015612b7d57602002820191906000526020600020905b8160009054906101000a900473ffffffffffffffffffffffffffffffffffffffff1673ffffffffffffffffffffffffffffffffffffffff1681526020019060010190808311612b33575b5050505050905060026003811115612b9157fe5b600360008473ffffffffffffffffffffffffffffffffffffffff1673ffffffffffffffffffffffffffffffffffffffff16815260200190815260200160002060030160009054906101000a900460ff166003811115612bec57fe5b14612c42576040517f08c379a000000000000000000000000000000000000000000000000000000000815260040180806020018281038252602d815260200180614489602d913960400191505060405180910390fd5b612c4b826130dd565b612ca0576040517f08c379a000000000000000000000000000000000000000000000000000000000815260040180806020018281038252603781526020018061430c6037913960400191505060405180910390fd5b612cbe8282600081518110612cb157fe5b60200260200101516131be565b80612d2d5750600280811115612cd057fe5b600360008473ffffffffffffffffffffffffffffffffffffffff1673ffffffffffffffffffffffffffffffffffffffff16815260200190815260200160002060030160019054906101000a900460ff166002811115612d2b57fe5b145b612d82576040517f08c379a000000000000000000000000000000000000000000000000000000000815260040180806020018281038252604981526020018061454b6049913960600191505060405180910390fd5b60005b8151811015612f1d576000828281518110612d9c57fe5b60200260200101519050612daf81611db9565b15612f0f576001600360008373ffffffffffffffffffffffffffffffffffffffff1673ffffffffffffffffffffffffffffffffffffffff16815260200190815260200160002060030160026101000a81548160ff0219169083151502179055507feab44e925fe37efdf7a6b9681f2daf982a47f4e64e2d592e8ee4309b986df6a781600360008473ffffffffffffffffffffffffffffffffffffffff1673ffffffffffffffffffffffffffffffffffffffff16815260200190815260200160002060000154600360008573ffffffffffffffffffffffffffffffffffffffff1673ffffffffffffffffffffffffffffffffffffffff1681526020019081526020016000206001015487604051808573ffffffffffffffffffffffffffffffffffffffff1681526020018481526020018381526020018273ffffffffffffffffffffffffffffffffffffffff16815260200194505050505060405180910390a15b508080600101915050612d85565b50505050565b60008060009054906101000a900473ffffffffffffffffffffffffffffffffffffffff16905090565b6000600380811115612f5a57fe5b600360008473ffffffffffffffffffffffffffffffffffffffff1673ffffffffffffffffffffffffffffffffffffffff16815260200190815260200160002060030160009054906101000a900460ff166003811115612fb557fe5b149050919050565b6000600360008373ffffffffffffffffffffffffffffffffffffffff1673ffffffffffffffffffffffffffffffffffffffff16815260200190815260200160002060030160009054906101000a900460ff16600381111561301a57fe5b9050919050565b600080600381111561302f57fe5b600360008473ffffffffffffffffffffffffffffffffffffffff1673ffffffffffffffffffffffffffffffffffffffff16815260200190815260200160002060030160009054906101000a900460ff16600381111561308a57fe5b149050919050565b600460205281600052604060002081815481106130ab57fe5b906000526020600020016000915091509054906101000a900473ffffffffffffffffffffffffffffffffffffffff1681565b6000600160028111156130ec57fe5b600360008473ffffffffffffffffffffffffffffffffffffffff1673ffffffffffffffffffffffffffffffffffffffff16815260200190815260200160002060030160019054906101000a900460ff16600281111561314757fe5b14806131b7575060028081111561315a57fe5b600360008473ffffffffffffffffffffffffffffffffffffffff1673ffffffffffffffffffffffffffffffffffffffff16815260200190815260200160002060030160019054906101000a900460ff1660028111156131b557fe5b145b9050919050565b6000600360008373ffffffffffffffffffffffffffffffffffffffff1673ffffffffffffffffffffffffffffffffffffffff16815260200190815260200160002060010154600360008573ffffffffffffffffffffffffffffffffffffffff1673ffffffffffffffffffffffffffffffffffffffff1681526020019081526020016000206001015414905092915050565b6000600360008373ffffffffffffffffffffffffffffffffffffffff1673ffffffffffffffffffffffffffffffffffffffff168152602001908152602001600020600101549050919050565b60015481565b600360003373ffffffffffffffffffffffffffffffffffffffff1673ffffffffffffffffffffffffffffffffffffffff16815260200190815260200160002060030160029054906101000a900460ff1615613347576040517f08c379a000000000000000000000000000000000000000000000000000000000815260040180806020018281038252602b815260200180614267602b913960400191505060405180910390fd5b42600360003373ffffffffffffffffffffffffffffffffffffffff1673ffffffffffffffffffffffffffffffffffffffff16815260200190815260200160002060040154116133e1576040517f08c379a00000000000000000000000000000000000000000000000000000000081526004018080602001828103825260478152602001806146e56047913960600191505060405180910390fd5b60003390506002808111156133f257fe5b600360008373ffffffffffffffffffffffffffffffffffffffff1673ffffffffffffffffffffffffffffffffffffffff16815260200190815260200160002060030160019054906101000a900460ff16600281111561344d57fe5b146134a3576040517f08c379a00000000000000000000000000000000000000000000000000000000081526004018080602001828103825260318152602001806147576031913960400191505060405180910390fd5b600160028111156134b057fe5b600360008473ffffffffffffffffffffffffffffffffffffffff1673ffffffffffffffffffffffffffffffffffffffff16815260200190815260200160002060030160019054906101000a900460ff16600281111561350b57fe5b14613561576040517f08c379a000000000000000000000000000000000000000000000000000000000815260040180806020018281038252602b81526020018061472c602b913960400191505060405180910390fd5b6001600381111561356e57fe5b600360008473ffffffffffffffffffffffffffffffffffffffff1673ffffffffffffffffffffffffffffffffffffffff16815260200190815260200160002060030160009054906101000a900460ff1660038111156135c957fe5b1461361f576040517f08c379a00000000000000000000000000000000000000000000000000000000081526004018080602001828103825260368152602001806142926036913960400191505060405180910390fd5b6002600360008473ffffffffffffffffffffffffffffffffffffffff1673ffffffffffffffffffffffffffffffffffffffff16815260200190815260200160002060030160006101000a81548160ff0219169083600381111561367e57fe5b02179055507f073fc7b5012ce389e8ee332d8cb39b41a44a08b42ee9260a78dd3a757a66c11182600360008573ffffffffffffffffffffffffffffffffffffffff1673ffffffffffffffffffffffffffffffffffffffff16815260200190815260200160002060000154600360008673ffffffffffffffffffffffffffffffffffffffff1673ffffffffffffffffffffffffffffffffffffffff1681526020019081526020016000206001015484604051808573ffffffffffffffffffffffffffffffffffffffff1681526020018481526020018381526020018273ffffffffffffffffffffffffffffffffffffffff16815260200194505050505060405180910390a15050565b600080600460008481526020019081526020016000206000815481106137a857fe5b9060005260206000200160009054906101000a900473ffffffffffffffffffffffffffffffffffffffff169050600360008273ffffffffffffffffffffffffffffffffffffffff1673ffffffffffffffffffffffffffffffffffffffff16815260200190815260200160002060010154915050919050565b60028081111561382c57fe5b600360003373ffffffffffffffffffffffffffffffffffffffff1673ffffffffffffffffffffffffffffffffffffffff16815260200190815260200160002060030160019054906101000a900460ff16600281111561388757fe5b146138dd576040517f08c379a000000000000000000000000000000000000000000000000000000000815260040180806020018281038252604b815260200180614369604b913960600191505060405180910390fd5b60006002549050816002819055507f33e73778e90a0a7d35d5d4332f4668b1fcff659529950c30f760a39ba49fafec3382600254604051808473ffffffffffffffffffffffffffffffffffffffff168152602001838152602001828152602001935050505060405180910390a15050565b6139566141a7565b73ffffffffffffffffffffffffffffffffffffffff1660008054906101000a900473ffffffffffffffffffffffffffffffffffffffff1673ffffffffffffffffffffffffffffffffffffffff1614613a16576040517f08c379a00000000000000000000000000000000000000000000000000000000081526004018080602001828103825260208152602001807f4f776e61626c653a2063616c6c6572206973206e6f7420746865206f776e657281525060200191505060405180910390fd5b600073ffffffffffffffffffffffffffffffffffffffff168173ffffffffffffffffffffffffffffffffffffffff161415613a9c576040517f08c379a00000000000000000000000000000000000000000000000000000000081526004018080602001828103825260268152602001806143436026913960400191505060405180910390fd5b8073ffffffffffffffffffffffffffffffffffffffff1660008054906101000a900473ffffffffffffffffffffffffffffffffffffffff1673ffffffffffffffffffffffffffffffffffffffff167f8be0079c531659141344cd1fd0a4f28419497f9722a3daafe3b4186f6b6457e060405160405180910390a3806000806101000a81548173ffffffffffffffffffffffffffffffffffffffff021916908373ffffffffffffffffffffffffffffffffffffffff16021790555050565b600360003373ffffffffffffffffffffffffffffffffffffffff1673ffffffffffffffffffffffffffffffffffffffff16815260200190815260200160002060030160029054906101000a900460ff1615613bff576040517f08c379a000000000000000000000000000000000000000000000000000000000815260040180806020018281038252602b815260200180614267602b913960400191505060405180910390fd5b42600360003373ffffffffffffffffffffffffffffffffffffffff1673ffffffffffffffffffffffffffffffffffffffff1681526020019081526020016000206004015411613c99576040517f08c379a00000000000000000000000000000000000000000000000000000000081526004018080602001828103825260478152602001806146e56047913960600191505060405180910390fd5b60003390508173ffffffffffffffffffffffffffffffffffffffff168173ffffffffffffffffffffffffffffffffffffffff161415613d23576040517f08c379a00000000000000000000000000000000000000000000000000000000081526004018080602001828103825260418152602001806143dd6041913960600191505060405180910390fd5b613d2c816130dd565b613d81576040517f08c379a000000000000000000000000000000000000000000000000000000000815260040180806020018281038252604681526020018061481a6046913960600191505060405180910390fd5b613d8b81836131be565b80613dfa5750600280811115613d9d57fe5b600360008373ffffffffffffffffffffffffffffffffffffffff1673ffffffffffffffffffffffffffffffffffffffff16815260200190815260200160002060030160019054906101000a900460ff166002811115613df857fe5b145b613e4f576040517f08c379a00000000000000000000000000000000000000000000000000000000081526004018080602001828103825260538152602001806145ba6053913960600191505060405180910390fd5b600360008373ffffffffffffffffffffffffffffffffffffffff1673ffffffffffffffffffffffffffffffffffffffff16815260200190815260200160002060030160029054906101000a900460ff16613ef4576040517f08c379a000000000000000000000000000000000000000000000000000000000815260040180806020018281038252602d81526020018061460d602d913960400191505060405180910390fd5b6000600360008473ffffffffffffffffffffffffffffffffffffffff1673ffffffffffffffffffffffffffffffffffffffff16815260200190815260200160002060030160026101000a81548160ff0219169083151502179055507fede461371ad2055987ffee3f03ac6bbad8c1e32130b99e9a87eaff68abdef50c82600360008573ffffffffffffffffffffffffffffffffffffffff1673ffffffffffffffffffffffffffffffffffffffff16815260200190815260200160002060000154600360008673ffffffffffffffffffffffffffffffffffffffff1673ffffffffffffffffffffffffffffffffffffffff1681526020019081526020016000206001015484604051808573ffffffffffffffffffffffffffffffffffffffff1681526020018481526020018381526020018273ffffffffffffffffffffffffffffffffffffffff16815260200194505050505060405180910390a15050565b60025481565b600080600080600080600061406b61420e565b600360008a73ffffffffffffffffffffffffffffffffffffffff1673ffffffffffffffffffffffffffffffffffffffff1681526020019081526020016000206040518060e00160405290816000820154815260200160018201548152602001600282015481526020016003820160009054906101000a900460ff1660038111156140f157fe5b60038111156140fc57fe5b81526020016003820160019054906101000a900460ff16600281111561411e57fe5b600281111561412957fe5b81526020016003820160029054906101000a900460ff1615151515815260200160048201548152505090508060000151816020015182604001518360600151600381111561417357fe5b8460800151600281111561418357fe5b8560a001518660c00151975097509750975097509750975050919395979092949650565b600033905090565b600080600560008481526020019081526020016000205414156141f35760016000815460010191905081905560056000848152602001908152602001600020819055505b60056000838152602001908152602001600020549050919050565b6040518060e001604052806000815260200160008152602001600080191681526020016000600381111561423e57fe5b81526020016000600281111561425057fe5b815260200160001515815260200160008152509056fe4170656e6173207175656d206ec3a36f20657374c3a1207061757361646120706f646520616365737361724120636f6e74612070726563697361206573746172206e6f2065737461646f20416775617264616e646f2056616c696461c3a7c3a36f4f20726573706f6e73c3a176656c2070656c612076616c696461c3a7c3a36f206ec3a36f20706f64652076616c6964617220737561207072c3b37072696120636f6e74614f20726573706f6e73c3a176656c206465766520706f737375697220756d6120636f6e74612041444d494e206f752053555041444d494e4f776e61626c653a206e6577206f776e657220697320746865207a65726f20616464726573734170656e6173206f2053555041444d494e20706f646520646566696e6972206e6f766f2074656d706f20646520657870697261c3a7c3a36f206465206e6f766f7320726567697374726f734120636f6e74612053555041444d494e206ec3a36f20706f64652073657220696e76616c6964616461556d6120706573736f61206ec3a36f20c3a920636170617a2064652072657469726172206f20706175736520646520737561207072c3b37072696120636f6e74614120636f6e746120666f6920696e76616c6964616461207072657669616d656e74652e4f776e65722073c3b320706f646572c3a1206174726962756972206f20706170656c2064652053555041444d494e207061726120636f6e74617320646f206d65736d6f20434e504a4f20726573706f6e73c3a176656c206465766520706f737375697220756d6120636f6e74612056c3a16c6964614120636f6e746120612076616c696461722070726563697361206573746172206e6f2065737461646f20416775617264616e646f2056616c696461c3a7c3a36f536f6d656e746520706f64652070617573617220756d6120636f6e7461207175656d20666f72206461206d65736d61206f7267616e697a61c3a7c3a36f206f752053797374656d2041646d696e6973747261746f72536f6d656e746520706f64652070617573617220756d6120636f6e7461207175656d20666f72206461206d65736d61206f7267616e697a61c3a7c3a36f206f752053555041444d494e4120636f6e74612053555041444d494e206ec3a36f20706f6465207365722070617573616461536f6d656e746520706f6465207265746972617220706175736120646520756d6120636f6e7461207175656d20666f72206461206d65736d61206f7267616e697a61c3a7c3a36f206f752053555041444d494e536f6d656e746520756d6120636f6e7461207061757361646120706f64652073657220646573706175736164614f20726573706f6e73c3a176656c2070656c612076616c696461c3a7c3a36f206465766520736572206461206d65736d61206f7267616e697a61c3a7c3a36f20286d65736d6f20434e504a294170656e617320636f6e74612041444d494e20706f646520696e76616c6964617220636f6e7461732e20456e64657265c3a76f206ec3a36f20706f646520746572207369646f206361646173747261646f20616e746572696f726d656e74654170656e617320636f6e74617320636f6d206465636c617261c3a7c3b565732063756a6f7320636572746966696361646f732061696e64612073c3a36f2076c3a16c69646f732e4120636f6e746120612076616c69646172206465766520746572206f20706170656c2064652041444d494e4f20726573706f6e73c3a176656c2070656c612076616c696461c3a7c3a36f2064657665207365722053555041444d494e4f20726573706f6e73c3a176656c2070656c612076616c696461c3a7c3a36f206465766520746572206f20706170656c2041444d494e4f20757375c3a172696f2061207365722076616c696461646f206465766520746572206f20706170656c20524547554c4152536f6d656e746520756d6120636f6e74612076c3a16c69646120706f6465207365722070617573616461536f6d656e746520756d6120636f6e746120726573706f6e73c3a176656c2076616c696461646f726120706f646520646573706175736172206f757472617320636f6e74617341206f7267616e697a6163616f206e616f2065737461206f7065726163696f6e616ca264697066735822122029bbad3074e4ee8c7e5f4b04b5f19ddd6f9fd7173cfeacf1dde8dfcdfae8793864736f6c634300060c0033",
  "immutableReferences": {},
  "source": "pragma solidity ^0.6.0;\n\nimport \"./IRBBRegistry.sol\";\nimport \"@openzeppelin/contracts/access/Ownable.sol\";\nimport \"./RBBLib.sol\";\n\ncontract RBBRegistry is IRBBRegistry, Ownable() {\n\n    enum BlockchainAccountState {AVAILABLE,WAITING_VALIDATION,VALIDATED,INVALIDATED}\n    BlockchainAccountState blockchainState; /* Variable not used, only defined to create the enum type. */\n                                \n    /**\n    REGULAR  - operates \n    ADMIN    - validates the regular.\n    SUPADMIN - validates the ADMIN. Contract Owner can set multiple SUPADMINs (including himself, machines and human accounts).\n     */\n    enum BlockchainAccountRole {REGULAR, ADMIN, SUPADMIN} \n    BlockchainAccountRole blockchainRole;  /* Variable not used, only defined to create the enum type. */\n\n    /* This is a helper variable to emulate a sequence and autoincrement Ids*/\n    uint public currentRBBId = 0;\n\n     /**\n        This registry is about a company representative information\n     */    \n    struct Registry {\n        uint RBBId; //uma proxy para o CNPJ\n        uint CNPJ; //Brazilian identification of legal entity\n        bytes32 hashProof; //hash of declaration\n        BlockchainAccountState state;\n        BlockchainAccountRole role;\n        bool paused;\n        uint256 dateTimeExpiration; //vai ser outro momento de expirao diferente do ECNPJ\n    }\n\n    uint256 public defaultDateTimeExpiration = 365 days; \n\n    /**\n        Links Ethereum addresses to Registry\n     */\n    mapping(address => Registry) public legalEntitiesInfo;\n\n    /**\n        Links RBBID to Ethereum addresses.\n     */\n    mapping(uint => address[]) public RBBId_addresses;\n    \n    /**\n     * Links CNPJ to its RBBID\n     */\n    mapping (uint => uint) public CNPJ_RBBId;\n\n    event AccountRegistration       (address addr, uint RBBId, uint CNPJ, bytes32 hashProof, uint256 dateTimeExpiration);\n    event AccountValidation         (address addr, uint RBBId, uint CNPJ, address responsible);\n    event AccountInvalidation       (address addr, uint RBBId, uint CNPJ, address responsible);\n    event AccountPaused             (address addr, uint RBBId, uint CNPJ, address responsible);\n    event AccountUnpaused           (address addr, uint RBBId, uint CNPJ, address responsible);\n    event AccountRoleChange         (address addr, uint RBBId, uint CNPJ, address responsible, BlockchainAccountRole roleBefore, BlockchainAccountRole roleNew);\n    event RegistryExpirationChange  (address addr, uint256 dateTimeExpirationBefore, uint256 dateTimeExpirationNew);\n\n    /* The responsible for the System-Admin is the Owner. It could be or not be the same address (SUPADMIN=owner) */\n    constructor (uint CNPJSUPADMIN, string memory proofHashSUPADMIN, uint daysToExpire) public {                \n        address addrSUPADMIN = msg.sender;\n        bytes32 proofHash = RBBLib.stringBytes32(proofHashSUPADMIN);\n        uint256 dateTimeExpiration = now + daysToExpire * 1 days; \n        uint RBBId = calculaProximoRBBID(CNPJSUPADMIN);\n        legalEntitiesInfo[addrSUPADMIN] = Registry( RBBId, \n                                                    CNPJSUPADMIN, \n                                                    proofHash, \n                                                    BlockchainAccountState.VALIDATED, \n                                                    BlockchainAccountRole.SUPADMIN, \n                                                    false, \n                                                    dateTimeExpiration     );\n        RBBId_addresses[RBBId].push(addrSUPADMIN);\n        emit AccountRegistration(addrSUPADMIN, RBBId, CNPJSUPADMIN, proofHash, dateTimeExpiration); \n        \n    }\n\n   /**\n    * Link blockchain address with CNPJ\n    * @param CNPJ Brazilian identifier to legal entities\n    * @param CNPJProofHash The legal entities have to send BNDES a PDF where it assumes as responsible for an Ethereum account.\n    *                   This PDF is signed with eCNPJ and send to BNDES.\n    */\n    function registryLegalEntity(uint CNPJ, bytes32 CNPJProofHash) public {\n        \n        address addr = msg.sender;\n        bytes32 proofHash = CNPJProofHash;\n        uint256 dateTimeExpiration = now + defaultDateTimeExpiration;\n        uint RBBId = calculaProximoRBBID(CNPJ);\n\n        require (isAvailableAccount(addr), \"Endereo no pode ter sido cadastrado anteriormente\");\n\n        if ( proofHash == 0 ) { \n            legalEntitiesInfo[addr] = Registry( RBBId,\n                                                CNPJ, \n                                                proofHash, \n                                                BlockchainAccountState.WAITING_VALIDATION, \n                                                BlockchainAccountRole.REGULAR,\n                                                false,\n                                                dateTimeExpiration );\n        } else {\n            legalEntitiesInfo[addr] = Registry( RBBId,\n                                                CNPJ, \n                                                proofHash, \n                                                BlockchainAccountState.WAITING_VALIDATION, \n                                                BlockchainAccountRole.ADMIN,\n                                                false,\n                                                dateTimeExpiration );\n        }\n\n        RBBId_addresses[RBBId].push(addr);\n        emit AccountRegistration(addr, RBBId, CNPJ, proofHash, dateTimeExpiration);\n    }\n\n    modifier onlyWhenNotPaused() { \n        require( ! legalEntitiesInfo[msg.sender].paused , \"Apenas quem no est pausada pode acessar\" );\n        _;\n    }\n\n    modifier onlyWhenNotExpired() { \n        require( legalEntitiesInfo[msg.sender].dateTimeExpiration > now , \"Apenas contas com declaraes cujos certificados ainda so vlidos.\" );\n        _;\n    }\n\n   /**\n    * Validates the initial registry of your own LegalEntity\n    * @param userAddr Ethereum address that needs to be validated\n    */\n    function validateRegistrySameOrg(address userAddr) public onlyWhenNotPaused onlyWhenNotExpired {\n\n        address responsible = msg.sender;\n\n        require ( responsible != userAddr, \"O responsvel pela validao no pode validar sua prpria conta\");\n\n        require ( legalEntitiesInfo[responsible].role == BlockchainAccountRole.ADMIN , \n                   \"O responsvel pela validao deve ter o papel ADMIN\" );\n\n        require ( isTheSameID(responsible, userAddr) , \n                   \"O responsvel pela validao deve ser da mesma organizao (mesmo CNPJ)\" );\n\n        require ( legalEntitiesInfo[userAddr].role == BlockchainAccountRole.REGULAR , \n                   \"O usurio a ser validado deve ter o papel REGULAR\" );\n\n\n        require( legalEntitiesInfo[userAddr].state == BlockchainAccountState.WAITING_VALIDATION,\n                   \"A conta a validar precisa estar no estado Aguardando Validao\");\n\n        legalEntitiesInfo[userAddr].state = BlockchainAccountState.VALIDATED;\n\n        emit AccountValidation( userAddr, \n                                legalEntitiesInfo[userAddr].RBBId, \n                                legalEntitiesInfo[userAddr].CNPJ, \n                                responsible);\n    }\n\n/**\n    * Validates the initial registry of others LegalEntities\n    * @param userAddr Ethereum address that needs to be validated\n    */\n    function validateRegistry(address userAddr) public onlyWhenNotPaused onlyWhenNotExpired {\n\n        address responsible = msg.sender;\n        \n        require ( legalEntitiesInfo[responsible].role == BlockchainAccountRole.SUPADMIN \n            , \"O responsvel pela validao deve ser SUPADMIN\" );\n\n        require ( legalEntitiesInfo[userAddr].role == BlockchainAccountRole.ADMIN  \n            , \"A conta a validar deve ter o papel de ADMIN\" );\n\n        require(legalEntitiesInfo[userAddr].state == BlockchainAccountState.WAITING_VALIDATION,\n            \"A conta precisa estar no estado Aguardando Validao\");\n\n        legalEntitiesInfo[userAddr].state = BlockchainAccountState.VALIDATED;\n\n        emit AccountValidation( userAddr, \n                                legalEntitiesInfo[userAddr].RBBId, \n                                legalEntitiesInfo[userAddr].CNPJ, \n                                responsible);\n    }    \n\n/**\n    * Pause an account     \n    * @param addr Ethereum address that needs to be paused\n    */\n    function pauseAddress(address addr) public onlyWhenNotPaused {\n\n        address responsible = msg.sender;\n\n        require ( legalEntitiesInfo[addr].role != BlockchainAccountRole.SUPADMIN , \"A conta SUPADMIN no pode ser pausada\");\n        require( isTheSameID(responsible, addr) || legalEntitiesInfo[responsible].role == BlockchainAccountRole.SUPADMIN, \"Somente pode pausar uma conta quem for da mesma organizao ou System Administrator\" );\n        require( isValidatedAccount(addr) , \"Somente uma conta vlida pode ser pausada\");\n        require( legalEntitiesInfo[responsible].state == BlockchainAccountState.VALIDATED, \"O responsvel deve possuir uma conta Vlida\" );\n\n        legalEntitiesInfo[addr].paused = true;\n        \n        emit AccountPaused( addr, \n                            legalEntitiesInfo[addr].RBBId,\n                            legalEntitiesInfo[addr].CNPJ, \n                            responsible);\n    }\n\n    function pauseLegalEntity(uint RBBId) public onlyWhenNotPaused {\n\n        address responsible = msg.sender;\n        address[] memory addresses  = RBBId_addresses[RBBId];\n\n        require( legalEntitiesInfo[responsible].state == BlockchainAccountState.VALIDATED, \"O responsvel deve possuir uma conta Vlida\" );\n        require( ( isSortOfAdmin(responsible) ), \"O responsvel deve possuir uma conta ADMIN ou SUPADMIN\" );\n        require( isTheSameID(responsible, addresses[0]) \n                    || legalEntitiesInfo[responsible].role == BlockchainAccountRole.SUPADMIN , \"Somente pode pausar uma conta quem for da mesma organizao ou SUPADMIN\" );\n\n        for (uint i=0; i < addresses.length ; i++) {\n            address candidate = addresses[i];\n            if( isValidatedAccount( candidate ) ) {\n                legalEntitiesInfo[candidate].paused = true;\n                emit AccountPaused( candidate, \n                                    legalEntitiesInfo[candidate].RBBId,\n                                    legalEntitiesInfo[candidate].CNPJ, \n                                    responsible );\n            }\n        }   \n    }\n\n/**\n    * Unpause an account     \n    * @param addr Ethereum address that needs to be validated\n    */\n    function unpauseAddress(address addr) public onlyWhenNotPaused onlyWhenNotExpired {\n\n        address responsible = msg.sender;\n\n        require ( responsible != addr , \"Uma pessoa no  capaz de retirar o pause de sua prpria conta\");\n        require( isSortOfAdmin(responsible) , \"Somente uma conta responsvel validadora pode despausar outras contas\" );        \n        require( isTheSameID(responsible, addr) \n                    || legalEntitiesInfo[responsible].role == BlockchainAccountRole.SUPADMIN , \"Somente pode retirar pausa de uma conta quem for da mesma organizao ou SUPADMIN\" );\n        require( legalEntitiesInfo[addr].paused  , \"Somente uma conta pausada pode ser despausada\" ); \n\n        legalEntitiesInfo[addr].paused = false;\n        \n        emit AccountUnpaused(   addr, \n                                legalEntitiesInfo[addr].RBBId,\n                                legalEntitiesInfo[addr].CNPJ, \n                                responsible);\n    }\n\n   /**\n    * Invalidates the initial registry of a legal entity or the change of its registry\n    * The invalidation can be called at any time in the lifecycle of the address (not only when it is WAITING_VALIDATION)\n    * @param addr Ethereum address that needs to be validated\n    */\n    function invalidateRegistry(address addr) public onlyWhenNotPaused onlyWhenNotExpired {\n\n        address responsible = msg.sender;\n\n        require( legalEntitiesInfo[responsible].role == BlockchainAccountRole.ADMIN, \"Apenas conta ADMIN pode invalidar contas. \");\n        require( legalEntitiesInfo[addr].role != BlockchainAccountRole.SUPADMIN , \"A conta SUPADMIN no pode ser invalidada\");\n        require( legalEntitiesInfo[addr].state != BlockchainAccountState.INVALIDATED, \"A conta foi invalidada previamente.\" );\n\n        legalEntitiesInfo[addr].state = BlockchainAccountState.INVALIDATED;\n        \n        emit AccountInvalidation(   addr, \n                                    legalEntitiesInfo[addr].RBBId, \n                                    legalEntitiesInfo[addr].CNPJ, \n                                    responsible );\n    }\n\n    function isSortOfAdmin(address addr) public view returns (bool) {\n        return ( legalEntitiesInfo[addr].role == BlockchainAccountRole.ADMIN || \n                 legalEntitiesInfo[addr].role == BlockchainAccountRole.SUPADMIN   );\n    }\n\n    function isOwner(address addr) public view returns (bool) {\n        return owner()==addr;\n    }\n\n    function isAvailableAccount(address addr) public view returns (bool) {\n        return legalEntitiesInfo[addr].state == BlockchainAccountState.AVAILABLE;\n    }\n\n    function isWaitingValidationAccount(address addr) public view returns (bool) {\n        return legalEntitiesInfo[addr].state == BlockchainAccountState.WAITING_VALIDATION;\n    }\n\n    function isValidatedAccount(address addr) public view returns (bool) {\n        return legalEntitiesInfo[addr].state == BlockchainAccountState.VALIDATED;\n    }\n\n    function isInvalidated(address addr) public view returns (bool) {\n        return legalEntitiesInfo[addr].state == BlockchainAccountState.INVALIDATED;\n    }\n\n    function isTheSameID(address a, address b) public view returns (bool) {\n        return legalEntitiesInfo[a].CNPJ == legalEntitiesInfo[b].CNPJ ;\n    }\n\n    function isPaused(address addr) public view returns (bool) {\n        return legalEntitiesInfo[addr].paused;\n    }\n\n    function isOperational(address addr) public view returns (bool) {\n        return isValidatedAccount(addr) && !isPaused(addr);\n    }\n\n    function isRegistryOperational(uint RBBId) public view override returns (bool) {\n        address[] memory addresses  = RBBId_addresses[RBBId];\n\n        for (uint i=0; i < addresses.length ; i++) {\n            if ( isOperational( addresses[i] ) && isSortOfAdmin(addresses[i]) ) {\n                    return true;\n            }\n        }\n    }\n\n    function getId (address addr) override public view returns (uint) {\n        uint RBBId = getRBBIdRaw(addr);\n        require ( isRegistryOperational( RBBId ) , \"A organizacao nao esta operacional\" );\n        return RBBId;\n    }\n\n    function getRBBIdRaw (address addr) public view returns (uint) {\n        return legalEntitiesInfo[addr].RBBId;\n    }\n\n    function getCNPJ (address addr) public view returns (uint) {\n        return legalEntitiesInfo[addr].CNPJ;\n    }    \n\n    function getRegistry (address addr) public view override returns (uint, uint, bytes32, uint, uint, bool, uint256) {\n        Registry memory reg = legalEntitiesInfo[addr];\n\n        return (  reg.RBBId,\n                  reg.CNPJ, \n                  reg.hashProof, \n                  (uint) (reg.state),\n                  (uint) (reg.role),\n                  reg.paused,\n                  reg.dateTimeExpiration\n                );\n    }\n\n    function getBlockchainAccounts(uint RBBId) public view returns (address[] memory) {\n        return RBBId_addresses[RBBId];\n    }\n\n    function getAccountState(address addr) public view returns (int) {\n        return ((int) (legalEntitiesInfo[addr].state));\n    }\n\n    function getAccountRole(address addr) public view returns (int) {\n        return ((int) (legalEntitiesInfo[addr].role));\n    }\n\n    function getIdFromCNPJ(uint cnpj) public view override returns (uint) {\n        return CNPJ_RBBId[cnpj];\n    }\n    \n   /**\n    * The Owner can assign role SUPADMIN to anyone in the same LegalEntity\n    * @param addr Ethereum address to be assigned the new role\n    */\n    function setRoleSupAdmin(address addr) public onlyOwner {\n        require ( isTheSameID( owner(), addr ), \"Owner s poder atribuir o papel de SUPADMIN para contas do mesmo CNPJ\" );\n\n        BlockchainAccountRole roleBefore = legalEntitiesInfo[addr].role;\n        legalEntitiesInfo[addr].role     = BlockchainAccountRole.SUPADMIN;                \n\n        emit AccountRoleChange(   addr, \n                                  legalEntitiesInfo[addr].RBBId, \n                                  legalEntitiesInfo[addr].CNPJ, \n                                  msg.sender,\n                                  roleBefore, \n                                  legalEntitiesInfo[addr].role  );\n    }\n\n    /**\n    * The Owner can assign new default expiration time for future registries\n    * @param dateTimeExpirationNew the new default expiration time \n    */\n    function setDefaultDateTimeExpiration(uint256 dateTimeExpirationNew) public {\n\n        require( legalEntitiesInfo[msg.sender].role == BlockchainAccountRole.SUPADMIN, \"Apenas o SUPADMIN pode definir novo tempo de expirao de novos registros\");\n\n        uint256 dateTimeExpirationOld = defaultDateTimeExpiration;\n        defaultDateTimeExpiration = dateTimeExpirationNew;\n        \n        emit RegistryExpirationChange(   msg.sender, \n                                         dateTimeExpirationOld, \n                                         defaultDateTimeExpiration );        \n    }\n\n    function calculaProximoRBBID(uint CNPJ) private returns (uint) {\n\n        if ( CNPJ_RBBId[CNPJ] == 0 ) //se nao existir rbbid para este CNPJ\n            CNPJ_RBBId[CNPJ] = ++currentRBBId;\n\n        return CNPJ_RBBId[CNPJ];\n    } \n/* funo que pega o cnpj passando o id */\n    function getCNPJbyID(uint Id) public view override returns (uint ) {\n        address addr =RBBId_addresses[Id][0];\n        \n        return legalEntitiesInfo[addr].CNPJ;\n    }\n\n    \n \n\n}\n",
  "sourcePath": "/Users/suzana.moreno/workspace/rbb-token/Back-Blockchain/contracts/RBBRegistry.sol",
  "compiler": {
    "name": "solc",
    "version": "0.6.12+commit.27d51765.Emscripten.clang"
  },
  "schemaVersion": "3.2.5",
  "updatedAt": "2020-12-16T18:40:04.937Z",
  "devdoc": {
    "kind": "dev",
    "methods": {
      "invalidateRegistry(address)": {
        "params": {
          "addr": "Ethereum address that needs to be validated"
        }
      },
      "owner()": {
        "details": "Returns the address of the current owner."
      },
      "pauseAddress(address)": {
        "params": {
          "addr": "Ethereum address that needs to be paused"
        }
      },
      "registryLegalEntity(uint256,bytes32)": {
        "params": {
          "CNPJ": "Brazilian identifier to legal entities",
          "CNPJProofHash": "The legal entities have to send BNDES a PDF where it assumes as responsible for an Ethereum account.                   This PDF is signed with eCNPJ and send to BNDES."
        }
      },
      "renounceOwnership()": {
        "details": "Leaves the contract without owner. It will not be possible to call `onlyOwner` functions anymore. Can only be called by the current owner. NOTE: Renouncing ownership will leave the contract without an owner, thereby removing any functionality that is only available to the owner."
      },
      "setDefaultDateTimeExpiration(uint256)": {
        "params": {
          "dateTimeExpirationNew": "the new default expiration time "
        }
      },
      "setRoleSupAdmin(address)": {
        "params": {
          "addr": "Ethereum address to be assigned the new role"
        }
      },
      "transferOwnership(address)": {
        "details": "Transfers ownership of the contract to a new account (`newOwner`). Can only be called by the current owner."
      },
      "unpauseAddress(address)": {
        "params": {
          "addr": "Ethereum address that needs to be validated"
        }
      },
      "validateRegistry(address)": {
        "params": {
          "userAddr": "Ethereum address that needs to be validated"
        }
      },
      "validateRegistrySameOrg(address)": {
        "params": {
          "userAddr": "Ethereum address that needs to be validated"
        }
      }
    },
    "version": 1
  },
  "userdoc": {
    "kind": "user",
    "methods": {
      "CNPJ_RBBId(uint256)": {
        "notice": "Links CNPJ to its RBBID"
      },
      "RBBId_addresses(uint256,uint256)": {
        "notice": "Links RBBID to Ethereum addresses."
      },
      "invalidateRegistry(address)": {
        "notice": "Invalidates the initial registry of a legal entity or the change of its registry The invalidation can be called at any time in the lifecycle of the address (not only when it is WAITING_VALIDATION)"
      },
      "legalEntitiesInfo(address)": {
        "notice": "Links Ethereum addresses to Registry"
      },
      "pauseAddress(address)": {
        "notice": "Pause an account     "
      },
      "registryLegalEntity(uint256,bytes32)": {
        "notice": "Link blockchain address with CNPJ"
      },
      "setDefaultDateTimeExpiration(uint256)": {
        "notice": "The Owner can assign new default expiration time for future registries"
      },
      "setRoleSupAdmin(address)": {
        "notice": "The Owner can assign role SUPADMIN to anyone in the same LegalEntity"
      },
      "unpauseAddress(address)": {
        "notice": "Unpause an account     "
      },
      "validateRegistry(address)": {
        "notice": "Validates the initial registry of others LegalEntities"
      },
      "validateRegistrySameOrg(address)": {
        "notice": "Validates the initial registry of your own LegalEntity"
      }
    },
    "version": 1
  }
}