{
  "contractName": "RBBToken",
  "abi": [
    {
      "inputs": [
        {
          "internalType": "address",
          "name": "newRegistryAddr",
          "type": "address"
        },
        {
          "internalType": "address",
          "name": "newSpecificRBBTokenAddr",
          "type": "address"
        },
        {
          "internalType": "uint8",
          "name": "_decimals",
          "type": "uint8"
        }
      ],
      "stateMutability": "nonpayable",
      "type": "constructor"
    },
    {
      "anonymous": false,
      "inputs": [
        {
          "indexed": false,
          "internalType": "address",
          "name": "account",
          "type": "address"
        },
        {
          "indexed": false,
          "internalType": "uint8",
          "name": "eventType",
          "type": "uint8"
        }
      ],
      "name": "ManualIntervention_RoleOrAddress",
      "type": "event"
    },
    {
      "anonymous": false,
      "inputs": [
        {
          "indexed": true,
          "internalType": "address",
          "name": "previousOwner",
          "type": "address"
        },
        {
          "indexed": true,
          "internalType": "address",
          "name": "newOwner",
          "type": "address"
        }
      ],
      "name": "OwnershipTransferred",
      "type": "event"
    },
    {
      "anonymous": false,
      "inputs": [
        {
          "indexed": false,
          "internalType": "address",
          "name": "account",
          "type": "address"
        }
      ],
      "name": "Paused",
      "type": "event"
    },
    {
      "anonymous": false,
      "inputs": [
        {
          "indexed": false,
          "internalType": "address",
          "name": "specificTokenAddr",
          "type": "address"
        },
        {
          "indexed": false,
          "internalType": "address",
          "name": "originalSender",
          "type": "address"
        },
        {
          "indexed": false,
          "internalType": "uint256",
          "name": "fromId",
          "type": "uint256"
        },
        {
          "indexed": false,
          "internalType": "bytes32",
          "name": "fromHash",
          "type": "bytes32"
        },
        {
          "indexed": false,
          "internalType": "uint256",
          "name": "amount",
          "type": "uint256"
        },
        {
          "indexed": false,
          "internalType": "bytes32",
          "name": "docHash",
          "type": "bytes32"
        }
      ],
      "name": "RBBTokenBurn",
      "type": "event"
    },
    {
      "anonymous": false,
      "inputs": [
        {
          "indexed": false,
          "internalType": "address",
          "name": "specificTokenAddr",
          "type": "address"
        },
        {
          "indexed": false,
          "internalType": "bytes32",
          "name": "specificHash",
          "type": "bytes32"
        },
        {
          "indexed": false,
          "internalType": "uint256",
          "name": "amount",
          "type": "uint256"
        },
        {
          "indexed": false,
          "internalType": "bytes32",
          "name": "docHash",
          "type": "bytes32"
        },
        {
          "indexed": false,
          "internalType": "string[]",
          "name": "data",
          "type": "string[]"
        }
      ],
      "name": "RBBTokenMint",
      "type": "event"
    },
    {
      "anonymous": false,
      "inputs": [
        {
          "indexed": false,
          "internalType": "address",
          "name": "specificTokenAddr",
          "type": "address"
        },
        {
          "indexed": false,
          "internalType": "bytes32",
          "name": "specificHash",
          "type": "bytes32"
        },
        {
          "indexed": false,
          "internalType": "uint256",
          "name": "idInvestor",
          "type": "uint256"
        },
        {
          "indexed": false,
          "internalType": "uint256",
          "name": "amount",
          "type": "uint256"
        },
        {
          "indexed": false,
          "internalType": "bytes32",
          "name": "docHash",
          "type": "bytes32"
        }
      ],
      "name": "RBBTokenMintRequested",
      "type": "event"
    },
    {
      "anonymous": false,
      "inputs": [
        {
          "indexed": false,
          "internalType": "address",
          "name": "specificTokenAddr",
          "type": "address"
        },
        {
          "indexed": false,
          "internalType": "address",
          "name": "originalSender",
          "type": "address"
        },
        {
          "indexed": false,
          "internalType": "uint256",
          "name": "fromId",
          "type": "uint256"
        },
        {
          "indexed": false,
          "internalType": "bytes32",
          "name": "fromHash",
          "type": "bytes32"
        },
        {
          "indexed": false,
          "internalType": "uint256",
          "name": "amount",
          "type": "uint256"
        },
        {
          "indexed": false,
          "internalType": "bytes32",
          "name": "docHash",
          "type": "bytes32"
        },
        {
          "indexed": false,
          "internalType": "string[]",
          "name": "data",
          "type": "string[]"
        }
      ],
      "name": "RBBTokenRedemptionRequested",
      "type": "event"
    },
    {
      "anonymous": false,
      "inputs": [
        {
          "indexed": false,
          "internalType": "address",
          "name": "specificTokenAddr",
          "type": "address"
        },
        {
          "indexed": false,
          "internalType": "bytes32",
          "name": "redemptionTransactionHash",
          "type": "bytes32"
        },
        {
          "indexed": false,
          "internalType": "bytes32",
          "name": "docHash",
          "type": "bytes32"
        },
        {
          "indexed": false,
          "internalType": "string[]",
          "name": "data",
          "type": "string[]"
        }
      ],
      "name": "RBBTokenRedemptionSettlement",
      "type": "event"
    },
    {
      "anonymous": false,
      "inputs": [
        {
          "indexed": false,
          "internalType": "address",
          "name": "specificTokenAddr",
          "type": "address"
        },
        {
          "indexed": false,
          "internalType": "address",
          "name": "originalSender",
          "type": "address"
        },
        {
          "indexed": false,
          "internalType": "uint256",
          "name": "fromId",
          "type": "uint256"
        },
        {
          "indexed": false,
          "internalType": "bytes32",
          "name": "fromHash",
          "type": "bytes32"
        },
        {
          "indexed": false,
          "internalType": "uint256",
          "name": "toId",
          "type": "uint256"
        },
        {
          "indexed": false,
          "internalType": "bytes32",
          "name": "toHash",
          "type": "bytes32"
        },
        {
          "indexed": false,
          "internalType": "uint256",
          "name": "amount",
          "type": "uint256"
        },
        {
          "indexed": false,
          "internalType": "bytes32",
          "name": "docHash",
          "type": "bytes32"
        },
        {
          "indexed": false,
          "internalType": "string[]",
          "name": "data",
          "type": "string[]"
        }
      ],
      "name": "RBBTokenTransfer",
      "type": "event"
    },
    {
      "anonymous": false,
      "inputs": [
        {
          "indexed": false,
          "internalType": "address",
          "name": "account",
          "type": "address"
        }
      ],
      "name": "Unpaused",
      "type": "event"
    },
    {
      "inputs": [
        {
          "internalType": "uint256",
          "name": "",
          "type": "uint256"
        },
        {
          "internalType": "bytes32",
          "name": "",
          "type": "bytes32"
        }
      ],
      "name": "balanceRequestedTokens",
      "outputs": [
        {
          "internalType": "uint256",
          "name": "",
          "type": "uint256"
        }
      ],
      "stateMutability": "view",
      "type": "function"
    },
    {
      "inputs": [],
      "name": "decimals",
      "outputs": [
        {
          "internalType": "uint8",
          "name": "",
          "type": "uint8"
        }
      ],
      "stateMutability": "view",
      "type": "function"
    },
    {
      "inputs": [],
      "name": "owner",
      "outputs": [
        {
          "internalType": "address",
          "name": "",
          "type": "address"
        }
      ],
      "stateMutability": "view",
      "type": "function"
    },
    {
      "inputs": [],
      "name": "paused",
      "outputs": [
        {
          "internalType": "bool",
          "name": "",
          "type": "bool"
        }
      ],
      "stateMutability": "view",
      "type": "function"
    },
    {
      "inputs": [
        {
          "internalType": "uint256",
          "name": "",
          "type": "uint256"
        },
        {
          "internalType": "uint256",
          "name": "",
          "type": "uint256"
        },
        {
          "internalType": "bytes32",
          "name": "",
          "type": "bytes32"
        }
      ],
      "name": "rbbBalances",
      "outputs": [
        {
          "internalType": "uint256",
          "name": "",
          "type": "uint256"
        }
      ],
      "stateMutability": "view",
      "type": "function"
    },
    {
      "inputs": [],
      "name": "registry",
      "outputs": [
        {
          "internalType": "contract RBBRegistry",
          "name": "",
          "type": "address"
        }
      ],
      "stateMutability": "view",
      "type": "function"
    },
    {
      "inputs": [],
      "name": "renounceOwnership",
      "outputs": [],
      "stateMutability": "nonpayable",
      "type": "function"
    },
    {
      "inputs": [],
      "name": "responsibleForInvestmentConfirmation",
      "outputs": [
        {
          "internalType": "address",
          "name": "",
          "type": "address"
        }
      ],
      "stateMutability": "view",
      "type": "function"
    },
    {
      "inputs": [],
      "name": "responsibleForSettlement",
      "outputs": [
        {
          "internalType": "address",
          "name": "",
          "type": "address"
        }
      ],
      "stateMutability": "view",
      "type": "function"
    },
    {
      "inputs": [],
      "name": "tokenRegistry",
      "outputs": [
        {
          "internalType": "contract SpecificRBBTokenRegistry",
          "name": "",
          "type": "address"
        }
      ],
      "stateMutability": "view",
      "type": "function"
    },
    {
      "inputs": [
        {
          "internalType": "address",
          "name": "newOwner",
          "type": "address"
        }
      ],
      "name": "transferOwnership",
      "outputs": [],
      "stateMutability": "nonpayable",
      "type": "function"
    },
    {
      "inputs": [
        {
          "internalType": "bytes32",
          "name": "specificInvestimentHash",
          "type": "bytes32"
        },
        {
          "internalType": "uint256",
          "name": "idInvestor",
          "type": "uint256"
        },
        {
          "internalType": "uint256",
          "name": "amount",
          "type": "uint256"
        },
        {
          "internalType": "bytes32",
          "name": "docHash",
          "type": "bytes32"
        }
      ],
      "name": "requestMint",
      "outputs": [],
      "stateMutability": "nonpayable",
      "type": "function"
    },
    {
      "inputs": [
        {
          "internalType": "address",
          "name": "specificTokenAddr",
          "type": "address"
        },
        {
          "internalType": "uint256",
          "name": "idInvestor",
          "type": "uint256"
        },
        {
          "internalType": "bytes32",
          "name": "specificHash",
          "type": "bytes32"
        },
        {
          "internalType": "uint256",
          "name": "amount",
          "type": "uint256"
        },
        {
          "internalType": "bytes32",
          "name": "docHash",
          "type": "bytes32"
        },
        {
          "internalType": "string[]",
          "name": "data",
          "type": "string[]"
        }
      ],
      "name": "mint",
      "outputs": [],
      "stateMutability": "nonpayable",
      "type": "function"
    },
    {
      "inputs": [
        {
          "internalType": "address",
          "name": "originalSender",
          "type": "address"
        },
        {
          "internalType": "bytes32",
          "name": "hashToBurn",
          "type": "bytes32"
        },
        {
          "internalType": "uint256",
          "name": "amount",
          "type": "uint256"
        },
        {
          "internalType": "bytes32",
          "name": "docHash",
          "type": "bytes32"
        }
      ],
      "name": "burnOwnTokenBySpecificTokens",
      "outputs": [],
      "stateMutability": "nonpayable",
      "type": "function"
    },
    {
      "inputs": [
        {
          "internalType": "address",
          "name": "specificTokenAddr",
          "type": "address"
        },
        {
          "internalType": "bytes32",
          "name": "hashToBurn",
          "type": "bytes32"
        },
        {
          "internalType": "uint256",
          "name": "amount",
          "type": "uint256"
        },
        {
          "internalType": "bytes32",
          "name": "docHash",
          "type": "bytes32"
        }
      ],
      "name": "burnOwnToken",
      "outputs": [],
      "stateMutability": "nonpayable",
      "type": "function"
    },
    {
      "inputs": [
        {
          "internalType": "address",
          "name": "specificTokenAddr",
          "type": "address"
        },
        {
          "internalType": "bytes32",
          "name": "fromHash",
          "type": "bytes32"
        },
        {
          "internalType": "uint256",
          "name": "toId",
          "type": "uint256"
        },
        {
          "internalType": "bytes32",
          "name": "toHash",
          "type": "bytes32"
        },
        {
          "internalType": "uint256",
          "name": "amount",
          "type": "uint256"
        },
        {
          "internalType": "bytes32",
          "name": "docHash",
          "type": "bytes32"
        },
        {
          "internalType": "string[]",
          "name": "data",
          "type": "string[]"
        }
      ],
      "name": "transfer",
      "outputs": [],
      "stateMutability": "nonpayable",
      "type": "function"
    },
    {
      "inputs": [
        {
          "internalType": "address",
          "name": "specificTokenAddr",
          "type": "address"
        },
        {
          "internalType": "bytes32",
          "name": "fromHash",
          "type": "bytes32"
        },
        {
          "internalType": "uint256",
          "name": "amount",
          "type": "uint256"
        },
        {
          "internalType": "bytes32",
          "name": "docHash",
          "type": "bytes32"
        },
        {
          "internalType": "string[]",
          "name": "data",
          "type": "string[]"
        }
      ],
      "name": "redeem",
      "outputs": [],
      "stateMutability": "nonpayable",
      "type": "function"
    },
    {
      "inputs": [
        {
          "internalType": "address",
          "name": "specificTokenAddr",
          "type": "address"
        },
        {
          "internalType": "bytes32",
          "name": "redemptionTransactionHash",
          "type": "bytes32"
        },
        {
          "internalType": "bytes32",
          "name": "docHash",
          "type": "bytes32"
        },
        {
          "internalType": "string[]",
          "name": "data",
          "type": "string[]"
        }
      ],
      "name": "notifyRedemptionSettlement",
      "outputs": [],
      "stateMutability": "nonpayable",
      "type": "function"
    },
    {
      "inputs": [],
      "name": "getDecimals",
      "outputs": [
        {
          "internalType": "uint8",
          "name": "",
          "type": "uint8"
        }
      ],
      "stateMutability": "view",
      "type": "function"
    },
    {
      "inputs": [],
      "name": "getBndesId",
      "outputs": [
        {
          "internalType": "uint256",
          "name": "",
          "type": "uint256"
        }
      ],
      "stateMutability": "view",
      "type": "function"
    },
    {
      "inputs": [
        {
          "internalType": "address",
          "name": "rs",
          "type": "address"
        }
      ],
      "name": "setResponsibleForInvestmentConfirmation",
      "outputs": [],
      "stateMutability": "nonpayable",
      "type": "function"
    },
    {
      "inputs": [
        {
          "internalType": "address",
          "name": "rs",
          "type": "address"
        }
      ],
      "name": "setResponsibleForSettlement",
      "outputs": [],
      "stateMutability": "nonpayable",
      "type": "function"
    }
  ],
  "bytecode": "0x608060405260028060146101000a81548160ff021916908360ff1602179055503480156200002c57600080fd5b5060405162003c4d38038062003c4d83398181016040528101906200005291906200027b565b60008060006101000a81548160ff02191690831515021790555060006200007e6200024560201b60201c565b905080600060016101000a81548173ffffffffffffffffffffffffffffffffffffffff021916908373ffffffffffffffffffffffffffffffffffffffff1602179055508073ffffffffffffffffffffffffffffffffffffffff16600073ffffffffffffffffffffffffffffffffffffffff167f8be0079c531659141344cd1fd0a4f28419497f9722a3daafe3b4186f6b6457e060405160405180910390a35082600260006101000a81548173ffffffffffffffffffffffffffffffffffffffff021916908373ffffffffffffffffffffffffffffffffffffffff16021790555081600160006101000a81548173ffffffffffffffffffffffffffffffffffffffff021916908373ffffffffffffffffffffffffffffffffffffffff16021790555080600260146101000a81548160ff021916908360ff16021790555033600360006101000a81548173ffffffffffffffffffffffffffffffffffffffff021916908373ffffffffffffffffffffffffffffffffffffffff16021790555033600460006101000a81548173ffffffffffffffffffffffffffffffffffffffff021916908373ffffffffffffffffffffffffffffffffffffffff16021790555050505062000346565b600033905090565b6000815190506200025e8162000312565b92915050565b60008151905062000275816200032c565b92915050565b6000806000606084860312156200029157600080fd5b6000620002a1868287016200024d565b9350506020620002b4868287016200024d565b9250506040620002c78682870162000264565b9150509250925092565b6000620002de82620002e5565b9050919050565b600073ffffffffffffffffffffffffffffffffffffffff82169050919050565b600060ff82169050919050565b6200031d81620002d1565b81146200032957600080fd5b50565b620003378162000305565b81146200034357600080fd5b50565b6138f780620003566000396000f3fe608060405234801561001057600080fd5b50600436106101425760003560e01c8063715018a6116100b8578063a6a9ba881161007c578063a6a9ba881461032b578063b7404ff514610349578063d9a428fe14610365578063e67b02a414610381578063f0141d841461039d578063f2fde38b146103bb57610142565b8063715018a6146102ab5780637b103999146102b55780638da5cb5b146102d35780639d23c4c7146102f1578063a1ccae971461030f57610142565b8063313ce5671161010a578063313ce567146101e95780633d05817a146102075780634a47f599146102235780635c975abb146102415780635d09022c1461025f5780636b5691931461027b57610142565b806304cc4d8e146101475780630bb91394146101635780630faf5eb21461017f578063214538001461019b57806330b49983146101b9575b600080fd5b610161600480360381019061015c91906127a4565b6103d7565b005b61017d60048036038101906101789190612532565b6105ff565b005b61019960048036038101906101949190612624565b610754565b005b6101a3610b78565b6040516101b09190612f10565b60405180910390f35b6101d360048036038101906101ce91906128a8565b610b9e565b6040516101e09190613515565b60405180910390f35b6101f1610bd0565b6040516101fe919061358a565b60405180910390f35b610221600480360381019061021c91906126da565b610be3565b005b61022b61103e565b6040516102389190613515565b60405180910390f35b6102496110fc565b60405161025691906132e9565b60405180910390f35b6102796004803603810190610274919061248e565b611112565b005b61029560048036038101906102909190612830565b6113ca565b6040516102a29190613515565b60405180910390f35b6102b36113ef565b005b6102bd611546565b6040516102ca919061335d565b60405180910390f35b6102db61156c565b6040516102e89190612f10565b60405180910390f35b6102f9611595565b6040516103069190613378565b60405180910390f35b61032960048036038101906103249190612532565b6115bb565b005b61033361170a565b6040516103409190612f10565b60405180910390f35b610363600480360381019061035e919061248e565b611730565b005b61037f600480360381019061037a91906124b7565b6119e8565b005b61039b60048036038101906103969190612595565b611c09565b005b6103a5611ea8565b6040516103b2919061358a565b60405180910390f35b6103d560048036038101906103d0919061248e565b611ebf565b005b6000821161041a576040517f08c379a000000000000000000000000000000000000000000000000000000000815260040161041190613415565b60405180910390fd5b6000339050600160009054906101000a900473ffffffffffffffffffffffffffffffffffffffff1673ffffffffffffffffffffffffffffffffffffffff1663d06d86eb826040518263ffffffff1660e01b815260040161047a9190612f10565b60006040518083038186803b15801561049257600080fd5b505afa1580156104a6573d6000803e3d6000fd5b505050506000600160009054906101000a900473ffffffffffffffffffffffffffffffffffffffff1673ffffffffffffffffffffffffffffffffffffffff166324370167836040518263ffffffff1660e01b81526004016105079190612f10565b60206040518083038186803b15801561051f57600080fd5b505afa158015610533573d6000803e3d6000fd5b505050506040513d601f19601f820116820180604052508101906105579190612807565b9050610590846006600084815260200190815260200160002060008981526020019081526020016000205461208690919063ffffffff16565b600660008381526020019081526020016000206000888152602001908152602001600020819055507fb5d8f9b160e3756e6a72237700498d57cf4fc736169d86a72e2389a6d24a7df182878787876040516105ef959493929190613244565b60405180910390a1505050505050565b6000339050600160009054906101000a900473ffffffffffffffffffffffffffffffffffffffff1673ffffffffffffffffffffffffffffffffffffffff1663d06d86eb826040518263ffffffff1660e01b815260040161065f9190612f10565b60006040518083038186803b15801561067757600080fd5b505afa15801561068b573d6000803e3d6000fd5b505050506000600160009054906101000a900473ffffffffffffffffffffffffffffffffffffffff1673ffffffffffffffffffffffffffffffffffffffff1663c2c7ea79836040518263ffffffff1660e01b81526004016106ec9190612f10565b60206040518083038186803b15801561070457600080fd5b505afa158015610718573d6000803e3d6000fd5b505050506040513d601f19601f8201168201806040525081019061073c9190612807565b905061074c8287838888886120db565b505050505050565b60008054906101000a900460ff16156107a2576040517f08c379a000000000000000000000000000000000000000000000000000000000815260040161079990613455565b60405180910390fd5b6000600260009054906101000a900473ffffffffffffffffffffffffffffffffffffffff1673ffffffffffffffffffffffffffffffffffffffff166365f68c89336040518263ffffffff1660e01b81526004016107ff9190612f2b565b60206040518083038186803b15801561081757600080fd5b505afa15801561082b573d6000803e3d6000fd5b505050506040513d601f19601f8201168201806040525081019061084f9190612807565b9050600160009054906101000a900473ffffffffffffffffffffffffffffffffffffffff1673ffffffffffffffffffffffffffffffffffffffff1663d06d86eb896040518263ffffffff1660e01b81526004016108ac9190612f10565b60006040518083038186803b1580156108c457600080fd5b505afa1580156108d8573d6000803e3d6000fd5b505050506000600160009054906101000a900473ffffffffffffffffffffffffffffffffffffffff1673ffffffffffffffffffffffffffffffffffffffff1663243701678a6040518263ffffffff1660e01b81526004016109399190612f10565b60206040518083038186803b15801561095157600080fd5b505afa158015610965573d6000803e3d6000fd5b505050506040513d601f19601f820116820180604052508101906109899190612807565b905060008990508073ffffffffffffffffffffffffffffffffffffffff166341574b3b33858c8c8c8c8c8c6040518963ffffffff1660e01b81526004016109d7989796959493929190612fae565b600060405180830381600087803b1580156109f157600080fd5b505af1158015610a05573d6000803e3d6000fd5b50505050610a6b8660405180606001604052806038815260200161388a6038913960056000868152602001908152602001600020600087815260200190815260200160002060008d8152602001908152602001600020546122fa9092919063ffffffff16565b60056000848152602001908152602001600020600085815260200190815260200160002060008b815260200190815260200160002081905550610aec866005600085815260200190815260200160002060008b815260200190815260200160002060008a81526020019081526020016000205461208690919063ffffffff16565b6005600084815260200190815260200160002060008a81526020019081526020016000206000898152602001908152602001600020819055507fbdea818d4f1687df74b09fdbb5d86c436785fb62b1374ee6b3497ebe39e6f5258a33858c8c8c8c8c8c604051610b64999897969594939291906130a9565b60405180910390a150505050505050505050565b600460009054906101000a900473ffffffffffffffffffffffffffffffffffffffff1681565b600560205282600052604060002060205281600052604060002060205280600052604060002060009250925050505481565b600260149054906101000a900460ff1681565b600160009054906101000a900473ffffffffffffffffffffffffffffffffffffffff1673ffffffffffffffffffffffffffffffffffffffff1663d06d86eb876040518263ffffffff1660e01b8152600401610c3e9190612f10565b60006040518083038186803b158015610c5657600080fd5b505afa158015610c6a573d6000803e3d6000fd5b505050503373ffffffffffffffffffffffffffffffffffffffff16600360009054906101000a900473ffffffffffffffffffffffffffffffffffffffff1673ffffffffffffffffffffffffffffffffffffffff1614610cfe576040517f08c379a0000000000000000000000000000000000000000000000000000000008152600401610cf590613435565b60405180910390fd5b60008311610d41576040517f08c379a0000000000000000000000000000000000000000000000000000000008152600401610d38906134f5565b60405180910390fd5b600080600160009054906101000a900473ffffffffffffffffffffffffffffffffffffffff1673ffffffffffffffffffffffffffffffffffffffff16638264f978896040518263ffffffff1660e01b8152600401610d9f9190612f10565b604080518083038186803b158015610db657600080fd5b505afa158015610dca573d6000803e3d6000fd5b505050506040513d601f19601f82011682018060405250810190610dee919061286c565b91509150610e4385604051806060016040528060298152602001613826602991396006600086815260200190815260200160002060008a8152602001908152602001600020546122fa9092919063ffffffff16565b60066000848152602001908152602001600020600088815260200190815260200160002081905550600088905060008173ffffffffffffffffffffffffffffffffffffffff1663cd541b7a896040518263ffffffff1660e01b8152600401610eab9190613304565b602060405180830381600087803b158015610ec557600080fd5b505af1158015610ed9573d6000803e3d6000fd5b505050506040513d601f19601f82011682018060405250810190610efd919061277b565b9050610f478760056000878152602001908152602001600020600086815260200190815260200160002060008481526020019081526020016000205461208690919063ffffffff16565b6005600086815260200190815260200160002060008581526020019081526020016000206000838152602001908152602001600020819055508173ffffffffffffffffffffffffffffffffffffffff16630990da738a8a8a8a8a6040518663ffffffff1660e01b8152600401610fc1959493929190613530565b600060405180830381600087803b158015610fdb57600080fd5b505af1158015610fef573d6000803e3d6000fd5b505050507f3f0f1f541f704191af92125dcf03aa5ef8ed27b996d6b2ba3c3c91e1351c5c0e8a8989898960405161102a9594939291906131ea565b60405180910390a150505050505050505050565b600080600260009054906101000a900473ffffffffffffffffffffffffffffffffffffffff1673ffffffffffffffffffffffffffffffffffffffff166365f68c8961108761156c565b6040518263ffffffff1660e01b81526004016110a39190612f10565b60206040518083038186803b1580156110bb57600080fd5b505afa1580156110cf573d6000803e3d6000fd5b505050506040513d601f19601f820116820180604052508101906110f39190612807565b90508091505090565b60008060009054906101000a900460ff16905090565b61111a612355565b73ffffffffffffffffffffffffffffffffffffffff16600060019054906101000a900473ffffffffffffffffffffffffffffffffffffffff1673ffffffffffffffffffffffffffffffffffffffff16146111a9576040517f08c379a00000000000000000000000000000000000000000000000000000000081526004016111a0906134d5565b60405180910390fd5b6000600260009054906101000a900473ffffffffffffffffffffffffffffffffffffffff1673ffffffffffffffffffffffffffffffffffffffff166365f68c89836040518263ffffffff1660e01b81526004016112069190612f10565b60206040518083038186803b15801561121e57600080fd5b505afa158015611232573d6000803e3d6000fd5b505050506040513d601f19601f820116820180604052508101906112569190612807565b9050600260009054906101000a900473ffffffffffffffffffffffffffffffffffffffff1673ffffffffffffffffffffffffffffffffffffffff166365f68c8961129e61156c565b6040518263ffffffff1660e01b81526004016112ba9190612f10565b60206040518083038186803b1580156112d257600080fd5b505afa1580156112e6573d6000803e3d6000fd5b505050506040513d601f19601f8201168201806040525081019061130a9190612807565b811461134b576040517f08c379a0000000000000000000000000000000000000000000000000000000008152600401611342906133b5565b60405180910390fd5b81600360006101000a81548173ffffffffffffffffffffffffffffffffffffffff021916908373ffffffffffffffffffffffffffffffffffffffff1602179055507faf10d91531a8d27fc602286518b7fd48b5ea40e30a02f824746cd67a2ab488c88260016040516113be929190613297565b60405180910390a15050565b6006602052816000526040600020602052806000526040600020600091509150505481565b6113f7612355565b73ffffffffffffffffffffffffffffffffffffffff16600060019054906101000a900473ffffffffffffffffffffffffffffffffffffffff1673ffffffffffffffffffffffffffffffffffffffff1614611486576040517f08c379a000000000000000000000000000000000000000000000000000000000815260040161147d906134d5565b60405180910390fd5b600073ffffffffffffffffffffffffffffffffffffffff16600060019054906101000a900473ffffffffffffffffffffffffffffffffffffffff1673ffffffffffffffffffffffffffffffffffffffff167f8be0079c531659141344cd1fd0a4f28419497f9722a3daafe3b4186f6b6457e060405160405180910390a360008060016101000a81548173ffffffffffffffffffffffffffffffffffffffff021916908373ffffffffffffffffffffffffffffffffffffffff160217905550565b600260009054906101000a900473ffffffffffffffffffffffffffffffffffffffff1681565b60008060019054906101000a900473ffffffffffffffffffffffffffffffffffffffff16905090565b600160009054906101000a900473ffffffffffffffffffffffffffffffffffffffff1681565b600160009054906101000a900473ffffffffffffffffffffffffffffffffffffffff1673ffffffffffffffffffffffffffffffffffffffff1663d06d86eb856040518263ffffffff1660e01b81526004016116169190612f10565b60006040518083038186803b15801561162e57600080fd5b505afa158015611642573d6000803e3d6000fd5b505050506000600260009054906101000a900473ffffffffffffffffffffffffffffffffffffffff1673ffffffffffffffffffffffffffffffffffffffff166365f68c89336040518263ffffffff1660e01b81526004016116a39190612f2b565b60206040518083038186803b1580156116bb57600080fd5b505afa1580156116cf573d6000803e3d6000fd5b505050506040513d601f19601f820116820180604052508101906116f39190612807565b90506117038533838787876120db565b5050505050565b600360009054906101000a900473ffffffffffffffffffffffffffffffffffffffff1681565b611738612355565b73ffffffffffffffffffffffffffffffffffffffff16600060019054906101000a900473ffffffffffffffffffffffffffffffffffffffff1673ffffffffffffffffffffffffffffffffffffffff16146117c7576040517f08c379a00000000000000000000000000000000000000000000000000000000081526004016117be906134d5565b60405180910390fd5b6000600260009054906101000a900473ffffffffffffffffffffffffffffffffffffffff1673ffffffffffffffffffffffffffffffffffffffff166365f68c89836040518263ffffffff1660e01b81526004016118249190612f10565b60206040518083038186803b15801561183c57600080fd5b505afa158015611850573d6000803e3d6000fd5b505050506040513d601f19601f820116820180604052508101906118749190612807565b9050600260009054906101000a900473ffffffffffffffffffffffffffffffffffffffff1673ffffffffffffffffffffffffffffffffffffffff166365f68c896118bc61156c565b6040518263ffffffff1660e01b81526004016118d89190612f10565b60206040518083038186803b1580156118f057600080fd5b505afa158015611904573d6000803e3d6000fd5b505050506040513d601f19601f820116820180604052508101906119289190612807565b8114611969576040517f08c379a000000000000000000000000000000000000000000000000000000000815260040161196090613475565b60405180910390fd5b81600460006101000a81548173ffffffffffffffffffffffffffffffffffffffff021916908373ffffffffffffffffffffffffffffffffffffffff1602179055507faf10d91531a8d27fc602286518b7fd48b5ea40e30a02f824746cd67a2ab488c88260026040516119dc9291906132c0565b60405180910390a15050565b60008054906101000a900460ff1615611a36576040517f08c379a0000000000000000000000000000000000000000000000000000000008152600401611a2d90613455565b60405180910390fd5b600160009054906101000a900473ffffffffffffffffffffffffffffffffffffffff1673ffffffffffffffffffffffffffffffffffffffff1663d06d86eb856040518263ffffffff1660e01b8152600401611a919190612f10565b60006040518083038186803b158015611aa957600080fd5b505afa158015611abd573d6000803e3d6000fd5b505050503373ffffffffffffffffffffffffffffffffffffffff16600460009054906101000a900473ffffffffffffffffffffffffffffffffffffffff1673ffffffffffffffffffffffffffffffffffffffff1614611b51576040517f08c379a0000000000000000000000000000000000000000000000000000000008152600401611b48906134b5565b60405180910390fd5b60008490508073ffffffffffffffffffffffffffffffffffffffff1663a6ee26e18585856040518463ffffffff1660e01b8152600401611b939392919061331f565b600060405180830381600087803b158015611bad57600080fd5b505af1158015611bc1573d6000803e3d6000fd5b505050507f6b9ae09d6ab882c931047d5687aa3a062d69d6b6caf4b04af6cb9df81245ab5185858585604051611bfa949392919061319e565b60405180910390a15050505050565b60008054906101000a900460ff1615611c57576040517f08c379a0000000000000000000000000000000000000000000000000000000008152600401611c4e90613455565b60405180910390fd5b6000600260009054906101000a900473ffffffffffffffffffffffffffffffffffffffff1673ffffffffffffffffffffffffffffffffffffffff166365f68c89336040518263ffffffff1660e01b8152600401611cb49190612f2b565b60206040518083038186803b158015611ccc57600080fd5b505afa158015611ce0573d6000803e3d6000fd5b505050506040513d601f19601f82011682018060405250810190611d049190612807565b9050600160009054906101000a900473ffffffffffffffffffffffffffffffffffffffff1673ffffffffffffffffffffffffffffffffffffffff1663d06d86eb876040518263ffffffff1660e01b8152600401611d619190612f10565b60006040518083038186803b158015611d7957600080fd5b505afa158015611d8d573d6000803e3d6000fd5b5050505060008411611dd4576040517f08c379a0000000000000000000000000000000000000000000000000000000008152600401611dcb90613495565b60405180910390fd5b60008690508073ffffffffffffffffffffffffffffffffffffffff1663ba6ad8533384898989896040518763ffffffff1660e01b8152600401611e1c96959493929190612f46565b600060405180830381600087803b158015611e3657600080fd5b505af1158015611e4a573d6000803e3d6000fd5b505050507f3115381baa8fda8997478031f1bd9f852965a6be640620b542c229a91e0302ab87338489898989604051611e899796959493929190613033565b60405180910390a1611e9f8733848989896120db565b50505050505050565b6000600260149054906101000a900460ff16905090565b611ec7612355565b73ffffffffffffffffffffffffffffffffffffffff16600060019054906101000a900473ffffffffffffffffffffffffffffffffffffffff1673ffffffffffffffffffffffffffffffffffffffff1614611f56576040517f08c379a0000000000000000000000000000000000000000000000000000000008152600401611f4d906134d5565b60405180910390fd5b600073ffffffffffffffffffffffffffffffffffffffff168173ffffffffffffffffffffffffffffffffffffffff161415611fc6576040517f08c379a0000000000000000000000000000000000000000000000000000000008152600401611fbd906133d5565b60405180910390fd5b8073ffffffffffffffffffffffffffffffffffffffff16600060019054906101000a900473ffffffffffffffffffffffffffffffffffffffff1673ffffffffffffffffffffffffffffffffffffffff167f8be0079c531659141344cd1fd0a4f28419497f9722a3daafe3b4186f6b6457e060405160405180910390a380600060016101000a81548173ffffffffffffffffffffffffffffffffffffffff021916908373ffffffffffffffffffffffffffffffffffffffff16021790555050565b6000808284019050838110156120d1576040517f08c379a00000000000000000000000000000000000000000000000000000000081526004016120c8906133f5565b60405180910390fd5b8091505092915050565b600160009054906101000a900473ffffffffffffffffffffffffffffffffffffffff1673ffffffffffffffffffffffffffffffffffffffff1663d06d86eb876040518263ffffffff1660e01b81526004016121369190612f10565b60006040518083038186803b15801561214e57600080fd5b505afa158015612162573d6000803e3d6000fd5b505050506000600160009054906101000a900473ffffffffffffffffffffffffffffffffffffffff1673ffffffffffffffffffffffffffffffffffffffff166324370167886040518263ffffffff1660e01b81526004016121c39190612f10565b60206040518083038186803b1580156121db57600080fd5b505afa1580156121ef573d6000803e3d6000fd5b505050506040513d601f19601f820116820180604052508101906122139190612807565b9050612277836040518060600160405280603b815260200161384f603b91396005600085815260200190815260200160002060008981526020019081526020016000206000888152602001908152602001600020546122fa9092919063ffffffff16565b6005600083815260200190815260200160002060008781526020019081526020016000206000868152602001908152602001600020819055507f92f02b400db4c2c442eac2df8de068b8e835d18b96ba11a431c69c468cd441c38787878787876040516122e99695949392919061313d565b60405180910390a150505050505050565b6000838311158290612342576040517f08c379a00000000000000000000000000000000000000000000000000000000081526004016123399190613393565b60405180910390fd5b5060008385039050809150509392505050565b600033905090565b60008135905061236c816137e0565b92915050565b600082601f83011261238357600080fd5b8135612396612391826135d2565b6135a5565b9150818183526020840193506020810190508360005b838110156123dc57813586016123c28882612410565b8452602084019350602083019250506001810190506123ac565b5050505092915050565b6000813590506123f5816137f7565b92915050565b60008151905061240a816137f7565b92915050565b600082601f83011261242157600080fd5b813561243461242f826135fa565b6135a5565b9150808252602083016020830185838301111561245057600080fd5b61245b83828461378d565b50505092915050565b6000813590506124738161380e565b92915050565b6000815190506124888161380e565b92915050565b6000602082840312156124a057600080fd5b60006124ae8482850161235d565b91505092915050565b600080600080608085870312156124cd57600080fd5b60006124db8782880161235d565b94505060206124ec878288016123e6565b93505060406124fd878288016123e6565b925050606085013567ffffffffffffffff81111561251a57600080fd5b61252687828801612372565b91505092959194509250565b6000806000806080858703121561254857600080fd5b60006125568782880161235d565b9450506020612567878288016123e6565b935050604061257887828801612464565b9250506060612589878288016123e6565b91505092959194509250565b600080600080600060a086880312156125ad57600080fd5b60006125bb8882890161235d565b95505060206125cc888289016123e6565b94505060406125dd88828901612464565b93505060606125ee888289016123e6565b925050608086013567ffffffffffffffff81111561260b57600080fd5b61261788828901612372565b9150509295509295909350565b600080600080600080600060e0888a03121561263f57600080fd5b600061264d8a828b0161235d565b975050602061265e8a828b016123e6565b965050604061266f8a828b01612464565b95505060606126808a828b016123e6565b94505060806126918a828b01612464565b93505060a06126a28a828b016123e6565b92505060c088013567ffffffffffffffff8111156126bf57600080fd5b6126cb8a828b01612372565b91505092959891949750929550565b60008060008060008060c087890312156126f357600080fd5b600061270189828a0161235d565b965050602061271289828a01612464565b955050604061272389828a016123e6565b945050606061273489828a01612464565b935050608061274589828a016123e6565b92505060a087013567ffffffffffffffff81111561276257600080fd5b61276e89828a01612372565b9150509295509295509295565b60006020828403121561278d57600080fd5b600061279b848285016123fb565b91505092915050565b600080600080608085870312156127ba57600080fd5b60006127c8878288016123e6565b94505060206127d987828801612464565b93505060406127ea87828801612464565b92505060606127fb878288016123e6565b91505092959194509250565b60006020828403121561281957600080fd5b600061282784828501612479565b91505092915050565b6000806040838503121561284357600080fd5b600061285185828601612464565b9250506020612862858286016123e6565b9150509250929050565b6000806040838503121561287f57600080fd5b600061288d85828601612479565b925050602061289e85828601612479565b9150509250929050565b6000806000606084860312156128bd57600080fd5b60006128cb86828701612464565b93505060206128dc86828701612464565b92505060406128ed868287016123e6565b9150509250925092565b600061290383836129f8565b905092915050565b612914816136eb565b82525050565b6129238161368c565b82525050565b600061293482613636565b61293e8185613659565b93508360208202850161295085613626565b8060005b8581101561298c578484038952815161296d85826128f7565b94506129788361364c565b925060208a01995050600181019050612954565b50829750879550505050505092915050565b6129a78161369e565b82525050565b6129b6816136aa565b82525050565b6129c5816136fd565b82525050565b6129d481613721565b82525050565b6129e381613745565b82525050565b6129f281613757565b82525050565b6000612a0382613641565b612a0d818561366a565b9350612a1d81856020860161379c565b612a26816137cf565b840191505092915050565b6000612a3c82613641565b612a46818561367b565b9350612a5681856020860161379c565b612a5f816137cf565b840191505092915050565b6000612a7760568361367b565b91507f4f20726573706f6e73c3a176656c2070656c6120636f6e6669726d61c3a7c3a360008301527f6f20646f20696e76657374696d656e746f20646576652073657220646f206d6560208301527f736d6f205242425f494420646f20636f6e747261746f000000000000000000006040830152606082019050919050565b6000612b0360268361367b565b91507f4f776e61626c653a206e6577206f776e657220697320746865207a65726f206160008301527f64647265737300000000000000000000000000000000000000000000000000006020830152604082019050919050565b6000612b69601b8361367b565b91507f536166654d6174683a206164646974696f6e206f766572666c6f7700000000006000830152602082019050919050565b6000612ba960358361367b565b91507f56616c6f72206120736572207472616e736163696f6e61646f2064657665207360008301527f6572206d61696f7220646f20717565207a65726f2e00000000000000000000006020830152604082019050919050565b6000612c0f60548361367b565b91507f536f6d656e746520756d20726573706f6e73c3a176656c2070656c6120636f6e60008301527f6669726d61c3a7c3a36f20646520696e76657374696d656e746f20706f64652060208301527f656e766961722061207472616e7361c3a7c3a36f0000000000000000000000006040830152606082019050919050565b6000612c9b60108361367b565b91507f5061757361626c653a20706175736564000000000000000000000000000000006000830152602082019050919050565b6000612cdb60458361367b565b91507f4f20726573706f6e73c3a176656c2070656c61206c697175696461c3a7c3a36f60008301527f206465766520736572206461206d65736d6f205242425f494420646f20636f6e60208301527f747261746f0000000000000000000000000000000000000000000000000000006040830152606082019050919050565b6000612d67602b8361367b565b91507f56616c6f722061207265736761746172206465766520736572206d61696f722060008301527f646f20717565207a65726f0000000000000000000000000000000000000000006020830152604082019050919050565b6000612dcd60438361367b565b91507f536f6d656e746520756d20726573706f6e73c3a176656c2070656c61206c697160008301527f75696469c3a7c3a36f20706f646520656e766961722061207472616e7361c3a760208301527fc3a36f00000000000000000000000000000000000000000000000000000000006040830152606082019050919050565b6000612e5960208361367b565b91507f4f776e61626c653a2063616c6c6572206973206e6f7420746865206f776e65726000830152602082019050919050565b6000612e9960298361367b565b91507f56616c6f722061206d696e746172206465766520736572206d61696f7220646f60008301527f20717565207a65726f00000000000000000000000000000000000000000000006020830152604082019050919050565b612efb816136d4565b82525050565b612f0a816136de565b82525050565b6000602082019050612f25600083018461291a565b92915050565b6000602082019050612f40600083018461290b565b92915050565b600060c082019050612f5b600083018961290b565b612f686020830188612ef2565b612f7560408301876129ad565b612f826060830186612ef2565b612f8f60808301856129ad565b81810360a0830152612fa18184612929565b9050979650505050505050565b600061010082019050612fc4600083018b61290b565b612fd1602083018a612ef2565b612fde60408301896129ad565b612feb6060830188612ef2565b612ff860808301876129ad565b61300560a0830186612ef2565b61301260c08301856129ad565b81810360e08301526130248184612929565b90509998505050505050505050565b600060e082019050613048600083018a61291a565b613055602083018961290b565b6130626040830188612ef2565b61306f60608301876129ad565b61307c6080830186612ef2565b61308960a08301856129ad565b81810360c083015261309b8184612929565b905098975050505050505050565b6000610120820190506130bf600083018c61291a565b6130cc602083018b61290b565b6130d9604083018a612ef2565b6130e660608301896129ad565b6130f36080830188612ef2565b61310060a08301876129ad565b61310d60c0830186612ef2565b61311a60e08301856129ad565b81810361010083015261312d8184612929565b90509a9950505050505050505050565b600060c082019050613152600083018961291a565b61315f602083018861291a565b61316c6040830187612ef2565b61317960608301866129ad565b6131866080830185612ef2565b61319360a08301846129ad565b979650505050505050565b60006080820190506131b3600083018761291a565b6131c060208301866129ad565b6131cd60408301856129ad565b81810360608301526131df8184612929565b905095945050505050565b600060a0820190506131ff600083018861291a565b61320c60208301876129ad565b6132196040830186612ef2565b61322660608301856129ad565b81810360808301526132388184612929565b90509695505050505050565b600060a082019050613259600083018861291a565b61326660208301876129ad565b6132736040830186612ef2565b6132806060830185612ef2565b61328d60808301846129ad565b9695505050505050565b60006040820190506132ac600083018561291a565b6132b960208301846129da565b9392505050565b60006040820190506132d5600083018561291a565b6132e260208301846129e9565b9392505050565b60006020820190506132fe600083018461299e565b92915050565b600060208201905061331960008301846129ad565b92915050565b600060608201905061333460008301866129ad565b61334160208301856129ad565b81810360408301526133538184612929565b9050949350505050565b600060208201905061337260008301846129bc565b92915050565b600060208201905061338d60008301846129cb565b92915050565b600060208201905081810360008301526133ad8184612a31565b905092915050565b600060208201905081810360008301526133ce81612a6a565b9050919050565b600060208201905081810360008301526133ee81612af6565b9050919050565b6000602082019050818103600083015261340e81612b5c565b9050919050565b6000602082019050818103600083015261342e81612b9c565b9050919050565b6000602082019050818103600083015261344e81612c02565b9050919050565b6000602082019050818103600083015261346e81612c8e565b9050919050565b6000602082019050818103600083015261348e81612cce565b9050919050565b600060208201905081810360008301526134ae81612d5a565b9050919050565b600060208201905081810360008301526134ce81612dc0565b9050919050565b600060208201905081810360008301526134ee81612e4c565b9050919050565b6000602082019050818103600083015261350e81612e8c565b9050919050565b600060208201905061352a6000830184612ef2565b92915050565b600060a0820190506135456000830188612ef2565b61355260208301876129ad565b61355f6040830186612ef2565b61356c60608301856129ad565b818103608083015261357e8184612929565b90509695505050505050565b600060208201905061359f6000830184612f01565b92915050565b6000604051905081810181811067ffffffffffffffff821117156135c857600080fd5b8060405250919050565b600067ffffffffffffffff8211156135e957600080fd5b602082029050602081019050919050565b600067ffffffffffffffff82111561361157600080fd5b601f19601f8301169050602081019050919050565b6000819050602082019050919050565b600081519050919050565b600081519050919050565b6000602082019050919050565b600082825260208201905092915050565b600082825260208201905092915050565b600082825260208201905092915050565b6000613697826136b4565b9050919050565b60008115159050919050565b6000819050919050565b600073ffffffffffffffffffffffffffffffffffffffff82169050919050565b6000819050919050565b600060ff82169050919050565b60006136f682613769565b9050919050565b60006137088261370f565b9050919050565b600061371a826136b4565b9050919050565b600061372c82613733565b9050919050565b600061373e826136b4565b9050919050565b6000613750826136de565b9050919050565b6000613762826136de565b9050919050565b60006137748261377b565b9050919050565b6000613786826136b4565b9050919050565b82818337600083830152505050565b60005b838110156137ba57808201518184015260208101905061379f565b838111156137c9576000848401525b50505050565b6000601f19601f8301169050919050565b6137e98161368c565b81146137f457600080fd5b50565b613800816136aa565b811461380b57600080fd5b50565b613817816136d4565b811461382257600080fd5b5056fe546f74616c20646520656d697373c3a36f206578636564652076616c6f7220736f6c6963697461646f546f74616c20646520746f6b656e73206120736572656d20717565696d61646f7320c3a9206d61696f7220646f20717565206f2062616c616e636553616c646f206461206f726967656d206ec3a36f20c3a920737566696369656e746520706172612061207472616e73666572c3aa6e636961a2646970667358221220597ea4aa1374ae901449d5349dcbe40805ef4d065c523f9231541a13077ea24964736f6c634300060c0033",
  "immutableReferences": {},
  "source": "pragma solidity ^0.6.0;\npragma experimental ABIEncoderV2;\n\nimport \"./RBBRegistry.sol\";\nimport \"./SpecificRBBToken.sol\";\nimport \"./SpecificRBBTokenRegistry.sol\";\nimport \"@openzeppelin/contracts/access/Ownable.sol\";\nimport \"@openzeppelin/contracts/utils/Pausable.sol\";\nimport \"@openzeppelin/contracts/math/SafeMath.sol\";\n\n\ncontract RBBToken is Pausable, Ownable {\n\n//TODO: avaliar se deveria ter um set para modificar esses atributos. Ideal seria mudar apenas pela governanca\n    SpecificRBBTokenRegistry public tokenRegistry;\n    RBBRegistry public registry;\n\n\n    using SafeMath for uint;\n\n    uint8 public decimals = 2;\n\n    address public responsibleForInvestmentConfirmation;\n    address public responsibleForSettlement;\n\n\n    //specificTokenId => (RBBid => (specificHash => amount)\n    mapping (uint => mapping (uint => mapping (bytes32 => uint))) public rbbBalances;\n\n    //specificTokenId => (specificHash => amount)\n    mapping (uint => mapping (bytes32 => uint)) public balanceRequestedTokens;\n\n    event RBBTokenMintRequested(address specificTokenAddr, bytes32 specificHash, uint idInvestor, \n            uint amount, bytes32 docHash);\n    event RBBTokenMint(address specificTokenAddr, bytes32 specificHash, uint amount, bytes32 docHash, string[] data);\n    event RBBTokenBurn(address specificTokenAddr, address originalSender, uint fromId, bytes32 fromHash, \n            uint amount, bytes32 docHash);\n    event RBBTokenTransfer (address specificTokenAddr, address originalSender, uint fromId, bytes32 fromHash, uint toId,\n            bytes32 toHash, uint amount, bytes32 docHash, string[] data);\n    event RBBTokenRedemptionRequested (address specificTokenAddr, address originalSender, uint fromId, bytes32 fromHash, \n            uint amount, bytes32 docHash, string[] data);\n    event RBBTokenRedemptionSettlement(address specificTokenAddr, bytes32 redemptionTransactionHash, \n            bytes32 docHash, string[] data);\n\n    event ManualIntervention_RoleOrAddress(address account, uint8 eventType);\n\n\n    constructor (address newRegistryAddr, address newSpecificRBBTokenAddr, uint8 _decimals) public {\n        registry = RBBRegistry(newRegistryAddr);\n        tokenRegistry = SpecificRBBTokenRegistry(newSpecificRBBTokenAddr);\n        decimals = _decimals;\n        responsibleForInvestmentConfirmation = msg.sender;\n        responsibleForSettlement = msg.sender;\n\n    }\n\n///******************************************************************* */\n\n    function requestMint(bytes32 specificInvestimentHash, uint idInvestor, uint amount, bytes32 docHash) \n        public {\n    \n        require (amount>0, \"Valor a ser transacionado deve ser maior do que zero.\");\n        address specificTokenAddr = msg.sender;\n\n        tokenRegistry.verifyTokenIsRegisteredAndActive(specificTokenAddr);\n        \n        uint specificTokenId = tokenRegistry.getSpecificRBBTokenId(specificTokenAddr);\n\n        balanceRequestedTokens[specificTokenId][specificInvestimentHash] = \n            balanceRequestedTokens[specificTokenId][specificInvestimentHash].add(amount);\n    \n        emit RBBTokenMintRequested(specificTokenAddr, specificInvestimentHash, idInvestor, amount, docHash);\n\n    }\n\n    function mint(address specificTokenAddr, uint idInvestor, bytes32 specificHash, uint amount, bytes32 docHash,\n        string[] memory data) public {\n\n        tokenRegistry.verifyTokenIsRegisteredAndActive(specificTokenAddr);\n\n        require (responsibleForInvestmentConfirmation == msg.sender, \n            \"Somente um responsvel pela confirmao de investimento pode enviar a transao\");\n\n        require(amount>0, \"Valor a mintar deve ser maior do que zero\");\n\n        (uint specificTokenId, uint specificTokenOwnerId) = \n                    tokenRegistry.getSpecificRBBTokenIdAndOwnerId(specificTokenAddr);\n\n        balanceRequestedTokens[specificTokenId][specificHash] \n            = balanceRequestedTokens[specificTokenId][specificHash].sub(amount, \"Total de emisso excede valor solicitado\");\n\n        SpecificRBBToken specificToken = SpecificRBBToken(specificTokenAddr);\n\n        //Retorna a conta de mint associada ao hash especifico. \n        bytes32 calcHash = specificToken.getHashToMintedAccount(specificHash);\n\n        rbbBalances[specificTokenId][specificTokenOwnerId][calcHash] = \n            rbbBalances[specificTokenId][specificTokenOwnerId][calcHash].add(amount);\n\n        specificToken.verifyAndActForMint(idInvestor, specificHash, amount, docHash, data);\n\n        emit RBBTokenMint(specificTokenAddr, specificHash, amount, docHash, data);\n    }\n\n\n    function burnOwnTokenBySpecificTokens (address originalSender, bytes32 hashToBurn, uint amount, \n        bytes32 docHash) public {\n\n        address specificTokenAddr = msg.sender;\n        tokenRegistry.verifyTokenIsRegisteredAndActive(specificTokenAddr);\n\n        uint specificTokenOwnerId = tokenRegistry.getSpecificOwnerId(specificTokenAddr);\n        \n        _burn(specificTokenAddr, originalSender, specificTokenOwnerId, hashToBurn, amount, docHash);\n\n    }\n\n\n    function burnOwnToken (address specificTokenAddr, bytes32 hashToBurn, uint amount, bytes32 docHash) \n        public {\n\n        tokenRegistry.verifyTokenIsRegisteredAndActive(specificTokenAddr);\n\n        uint idToBurn = registry.getId(msg.sender);\n\n        _burn(specificTokenAddr, msg.sender, idToBurn, hashToBurn, amount, docHash);\n\n    }\n\n    function _burn(address specificTokenAddr, address originalSender, uint fromId, bytes32 fromHash, \n        uint amount, bytes32 docHash) internal {\n        \n        tokenRegistry.verifyTokenIsRegisteredAndActive(specificTokenAddr);\n//        require(amount>0, \"Valor a queimar deve ser maior do que zero\");\n\n        uint specificTokenId = tokenRegistry.getSpecificRBBTokenId(specificTokenAddr);\n\n        rbbBalances[specificTokenId][fromId][fromHash] = \n            rbbBalances[specificTokenId][fromId][fromHash].sub(amount, \"Total de tokens a serem queimados  maior do que o balance\");\n\n        emit RBBTokenBurn(specificTokenAddr, originalSender, fromId, fromHash, amount, docHash);\n    }\n\n///******************************************************************* */\n\n\n    function transfer (address specificTokenAddr, bytes32 fromHash, uint toId, bytes32 toHash, \n            uint amount, bytes32 docHash, string[] memory data) public whenNotPaused {\n\n        uint fromId = registry.getId(msg.sender);\n\n        tokenRegistry.verifyTokenIsRegisteredAndActive(specificTokenAddr);\n\n//        require(registry.isRegistryOperational(fromId), \"Conta de origem precisa estar com cadastro validado\");\n//        require(registry.isRegistryOperational(toId), \"Conta de destino precisa estar com cadastro validado\");\n        uint specificTokenId = tokenRegistry.getSpecificRBBTokenId(specificTokenAddr);\n\n        SpecificRBBToken specificToken = SpecificRBBToken(specificTokenAddr);\n        specificToken.verifyAndActForTransfer(msg.sender, fromId, fromHash, toId, toHash, amount, docHash, data);\n\n        //altera valores de saldo\n        rbbBalances[specificTokenId][fromId][fromHash] =\n                rbbBalances[specificTokenId][fromId][fromHash].sub(amount, \"Saldo da origem no  suficiente para a transferncia\");\n        rbbBalances[specificTokenId][toId][toHash] = rbbBalances[specificTokenId][toId][toHash].add(amount);\n\n        emit RBBTokenTransfer (specificTokenAddr, msg.sender, fromId, fromHash, toId, toHash, amount, docHash, data);\n\n    }\n\n    function redeem (address specificTokenAddr, bytes32 fromHash, uint amount, \n        bytes32 docHash, string[] memory data) public whenNotPaused  {\n\n            uint fromId = registry.getId(msg.sender);\n\n            tokenRegistry.verifyTokenIsRegisteredAndActive(specificTokenAddr);\n\n//            require(registry.isRegistryOperational(fromId), \"Conta solicitante do redeem precisa estar com cadastro validado\");\n            require(amount>0, \"Valor a resgatar deve ser maior do que zero\");\n    \n            SpecificRBBToken specificToken = SpecificRBBToken(specificTokenAddr);\n            specificToken.verifyAndActForRedeem(msg.sender, fromId, fromHash, amount, docHash, data);\n\n            emit RBBTokenRedemptionRequested(specificTokenAddr, msg.sender, fromId, fromHash, amount, docHash, data);\n            _burn(specificTokenAddr, msg.sender, fromId, fromHash, amount, docHash);\n    }\n\n   /**\n    * Using this function, the Responsible for Settlement indicates that he has made the FIAT money transfer.\n    * @ param redemptionTransactionHash hash of the redeem transaction in which the FIAT money settlement occurred.\n    * @ param receiptHash hash that proof the FIAT money transfer\n    */ \n    function notifyRedemptionSettlement(address specificTokenAddr, bytes32 redemptionTransactionHash, \n        bytes32 docHash, string[] memory data) public whenNotPaused {\n\n        tokenRegistry.verifyTokenIsRegisteredAndActive(specificTokenAddr);\n\n        require (responsibleForSettlement == msg.sender, \n            \"Somente um responsvel pela liquidio pode enviar a transao\");\n\n        SpecificRBBToken specificToken = SpecificRBBToken(specificTokenAddr);\n        specificToken.verifyAndActForRedemptionSettlement(redemptionTransactionHash, docHash, data);\n\n        emit RBBTokenRedemptionSettlement(specificTokenAddr, redemptionTransactionHash, docHash, data);\n    }\n    \n\n///******************************************************************* */\n\n    function getDecimals() public view returns (uint8) {\n        return decimals;\n    }\n\n    function getBndesId() view public returns (uint) {\n        uint bndesId = registry.getId(owner());\n        return bndesId;\n    }\n\n    function setResponsibleForInvestmentConfirmation(address rs) onlyOwner public {\n        uint id = registry.getId(rs);\n        require(id==registry.getId(owner()), \"O responsvel pela confirmao do investimento deve ser do mesmo RBB_ID do contrato\");\n        responsibleForInvestmentConfirmation = rs;\n        emit ManualIntervention_RoleOrAddress(rs, 1);\n    }\n\n    function setResponsibleForSettlement(address rs) onlyOwner public {\n        uint id = registry.getId(rs);\n        require(id==registry.getId(owner()), \"O responsvel pela liquidao deve ser da mesmo RBB_ID do contrato\");\n        responsibleForSettlement = rs;\n        emit ManualIntervention_RoleOrAddress(rs, 2);\n    }\n\n\n}\n",
  "sourcePath": "/Users/suzana.moreno/workspace/rbb-token/Back-Blockchain/contracts/RBBToken.sol",
  "compiler": {
    "name": "solc",
    "version": "0.6.12+commit.27d51765.Emscripten.clang"
  },
  "schemaVersion": "3.2.5",
  "updatedAt": "2020-11-11T14:55:40.784Z",
  "devdoc": {
    "kind": "dev",
    "methods": {
      "owner()": {
        "details": "Returns the address of the current owner."
      },
      "paused()": {
        "details": "Returns true if the contract is paused, and false otherwise."
      },
      "renounceOwnership()": {
        "details": "Leaves the contract without owner. It will not be possible to call `onlyOwner` functions anymore. Can only be called by the current owner. NOTE: Renouncing ownership will leave the contract without an owner, thereby removing any functionality that is only available to the owner."
      },
      "transferOwnership(address)": {
        "details": "Transfers ownership of the contract to a new account (`newOwner`). Can only be called by the current owner."
      }
    },
    "version": 1
  },
  "userdoc": {
    "kind": "user",
    "methods": {
      "getDecimals()": {
        "notice": "******************************************************************* */"
      },
      "notifyRedemptionSettlement(address,bytes32,bytes32,string[])": {
        "notice": "Using this function, the Responsible for Settlement indicates that he has made the FIAT money transfer. param redemptionTransactionHash hash of the redeem transaction in which the FIAT money settlement occurred. param receiptHash hash that proof the FIAT money transfer"
      },
      "requestMint(bytes32,uint256,uint256,bytes32)": {
        "notice": "******************************************************************* */"
      },
      "transfer(address,bytes32,uint256,bytes32,uint256,bytes32,string[])": {
        "notice": "******************************************************************* */"
      }
    },
    "version": 1
  }
}