{
  "contractName": "RBBToken",
  "abi": [
    {
      "inputs": [
        {
          "internalType": "address",
          "name": "newRegistryAddr",
          "type": "address"
        },
        {
          "internalType": "address",
          "name": "newSpecificRBBTokenAddr",
          "type": "address"
        },
        {
          "internalType": "uint8",
          "name": "_decimals",
          "type": "uint8"
        }
      ],
      "stateMutability": "nonpayable",
      "type": "constructor"
    },
    {
      "anonymous": false,
      "inputs": [
        {
          "indexed": false,
          "internalType": "address",
          "name": "account",
          "type": "address"
        },
        {
          "indexed": false,
          "internalType": "uint8",
          "name": "eventType",
          "type": "uint8"
        }
      ],
      "name": "ManualIntervention_RoleOrAddress",
      "type": "event"
    },
    {
      "anonymous": false,
      "inputs": [
        {
          "indexed": true,
          "internalType": "address",
          "name": "previousOwner",
          "type": "address"
        },
        {
          "indexed": true,
          "internalType": "address",
          "name": "newOwner",
          "type": "address"
        }
      ],
      "name": "OwnershipTransferred",
      "type": "event"
    },
    {
      "anonymous": false,
      "inputs": [
        {
          "indexed": false,
          "internalType": "address",
          "name": "account",
          "type": "address"
        }
      ],
      "name": "Paused",
      "type": "event"
    },
    {
      "anonymous": false,
      "inputs": [
        {
          "indexed": true,
          "internalType": "address",
          "name": "account",
          "type": "address"
        }
      ],
      "name": "PauserAdded",
      "type": "event"
    },
    {
      "anonymous": false,
      "inputs": [
        {
          "indexed": true,
          "internalType": "address",
          "name": "account",
          "type": "address"
        }
      ],
      "name": "PauserRemoved",
      "type": "event"
    },
    {
      "anonymous": false,
      "inputs": [
        {
          "indexed": false,
          "internalType": "address",
          "name": "specificTokenAddr",
          "type": "address"
        },
        {
          "indexed": false,
          "internalType": "address",
          "name": "originalSender",
          "type": "address"
        },
        {
          "indexed": false,
          "internalType": "uint256",
          "name": "fromId",
          "type": "uint256"
        },
        {
          "indexed": false,
          "internalType": "bytes32",
          "name": "fromHash",
          "type": "bytes32"
        },
        {
          "indexed": false,
          "internalType": "uint256",
          "name": "amount",
          "type": "uint256"
        },
        {
          "indexed": false,
          "internalType": "bytes32",
          "name": "docHash",
          "type": "bytes32"
        }
      ],
      "name": "RBBTokenBurn",
      "type": "event"
    },
    {
      "anonymous": false,
      "inputs": [
        {
          "indexed": false,
          "internalType": "address",
          "name": "specificTokenAddr",
          "type": "address"
        },
        {
          "indexed": false,
          "internalType": "bytes32",
          "name": "specificHash",
          "type": "bytes32"
        },
        {
          "indexed": false,
          "internalType": "uint256",
          "name": "amount",
          "type": "uint256"
        },
        {
          "indexed": false,
          "internalType": "bytes32",
          "name": "docHash",
          "type": "bytes32"
        },
        {
          "indexed": false,
          "internalType": "string[]",
          "name": "data",
          "type": "string[]"
        }
      ],
      "name": "RBBTokenMint",
      "type": "event"
    },
    {
      "anonymous": false,
      "inputs": [
        {
          "indexed": false,
          "internalType": "address",
          "name": "specificTokenAddr",
          "type": "address"
        },
        {
          "indexed": false,
          "internalType": "bytes32",
          "name": "specificHash",
          "type": "bytes32"
        },
        {
          "indexed": false,
          "internalType": "uint256",
          "name": "idInvestor",
          "type": "uint256"
        },
        {
          "indexed": false,
          "internalType": "uint256",
          "name": "amount",
          "type": "uint256"
        },
        {
          "indexed": false,
          "internalType": "bytes32",
          "name": "docHash",
          "type": "bytes32"
        }
      ],
      "name": "RBBTokenMintRequested",
      "type": "event"
    },
    {
      "anonymous": false,
      "inputs": [
        {
          "indexed": false,
          "internalType": "address",
          "name": "specificTokenAddr",
          "type": "address"
        },
        {
          "indexed": false,
          "internalType": "address",
          "name": "originalSender",
          "type": "address"
        },
        {
          "indexed": false,
          "internalType": "uint256",
          "name": "fromId",
          "type": "uint256"
        },
        {
          "indexed": false,
          "internalType": "bytes32",
          "name": "fromHash",
          "type": "bytes32"
        },
        {
          "indexed": false,
          "internalType": "uint256",
          "name": "amount",
          "type": "uint256"
        },
        {
          "indexed": false,
          "internalType": "bytes32",
          "name": "docHash",
          "type": "bytes32"
        },
        {
          "indexed": false,
          "internalType": "string[]",
          "name": "data",
          "type": "string[]"
        }
      ],
      "name": "RBBTokenRedemptionRequested",
      "type": "event"
    },
    {
      "anonymous": false,
      "inputs": [
        {
          "indexed": false,
          "internalType": "address",
          "name": "specificTokenAddr",
          "type": "address"
        },
        {
          "indexed": false,
          "internalType": "bytes32",
          "name": "redemptionTransactionHash",
          "type": "bytes32"
        },
        {
          "indexed": false,
          "internalType": "bytes32",
          "name": "docHash",
          "type": "bytes32"
        },
        {
          "indexed": false,
          "internalType": "string[]",
          "name": "data",
          "type": "string[]"
        }
      ],
      "name": "RBBTokenRedemptionSettlement",
      "type": "event"
    },
    {
      "anonymous": false,
      "inputs": [
        {
          "indexed": false,
          "internalType": "address",
          "name": "specificTokenAddr",
          "type": "address"
        },
        {
          "indexed": false,
          "internalType": "address",
          "name": "originalSender",
          "type": "address"
        },
        {
          "indexed": false,
          "internalType": "uint256",
          "name": "fromId",
          "type": "uint256"
        },
        {
          "indexed": false,
          "internalType": "bytes32",
          "name": "fromHash",
          "type": "bytes32"
        },
        {
          "indexed": false,
          "internalType": "uint256",
          "name": "toId",
          "type": "uint256"
        },
        {
          "indexed": false,
          "internalType": "bytes32",
          "name": "toHash",
          "type": "bytes32"
        },
        {
          "indexed": false,
          "internalType": "uint256",
          "name": "amount",
          "type": "uint256"
        },
        {
          "indexed": false,
          "internalType": "bytes32",
          "name": "docHash",
          "type": "bytes32"
        },
        {
          "indexed": false,
          "internalType": "string[]",
          "name": "data",
          "type": "string[]"
        }
      ],
      "name": "RBBTokenTransfer",
      "type": "event"
    },
    {
      "anonymous": false,
      "inputs": [
        {
          "indexed": false,
          "internalType": "address",
          "name": "account",
          "type": "address"
        }
      ],
      "name": "Unpaused",
      "type": "event"
    },
    {
      "inputs": [
        {
          "internalType": "address",
          "name": "account",
          "type": "address"
        }
      ],
      "name": "addPauser",
      "outputs": [],
      "stateMutability": "nonpayable",
      "type": "function"
    },
    {
      "inputs": [
        {
          "internalType": "uint256",
          "name": "",
          "type": "uint256"
        },
        {
          "internalType": "bytes32",
          "name": "",
          "type": "bytes32"
        }
      ],
      "name": "balanceRequestedTokens",
      "outputs": [
        {
          "internalType": "uint256",
          "name": "",
          "type": "uint256"
        }
      ],
      "stateMutability": "view",
      "type": "function",
      "constant": true
    },
    {
      "inputs": [],
      "name": "decimals",
      "outputs": [
        {
          "internalType": "uint8",
          "name": "",
          "type": "uint8"
        }
      ],
      "stateMutability": "view",
      "type": "function",
      "constant": true
    },
    {
      "inputs": [],
      "name": "isOwner",
      "outputs": [
        {
          "internalType": "bool",
          "name": "",
          "type": "bool"
        }
      ],
      "stateMutability": "view",
      "type": "function",
      "constant": true
    },
    {
      "inputs": [
        {
          "internalType": "address",
          "name": "account",
          "type": "address"
        }
      ],
      "name": "isPauser",
      "outputs": [
        {
          "internalType": "bool",
          "name": "",
          "type": "bool"
        }
      ],
      "stateMutability": "view",
      "type": "function",
      "constant": true
    },
    {
      "inputs": [],
      "name": "owner",
      "outputs": [
        {
          "internalType": "address",
          "name": "",
          "type": "address"
        }
      ],
      "stateMutability": "view",
      "type": "function",
      "constant": true
    },
    {
      "inputs": [],
      "name": "pause",
      "outputs": [],
      "stateMutability": "nonpayable",
      "type": "function"
    },
    {
      "inputs": [],
      "name": "paused",
      "outputs": [
        {
          "internalType": "bool",
          "name": "",
          "type": "bool"
        }
      ],
      "stateMutability": "view",
      "type": "function",
      "constant": true
    },
    {
      "inputs": [
        {
          "internalType": "uint256",
          "name": "",
          "type": "uint256"
        },
        {
          "internalType": "uint256",
          "name": "",
          "type": "uint256"
        },
        {
          "internalType": "bytes32",
          "name": "",
          "type": "bytes32"
        }
      ],
      "name": "rbbBalances",
      "outputs": [
        {
          "internalType": "uint256",
          "name": "",
          "type": "uint256"
        }
      ],
      "stateMutability": "view",
      "type": "function",
      "constant": true
    },
    {
      "inputs": [],
      "name": "registry",
      "outputs": [
        {
          "internalType": "contract RBBRegistry",
          "name": "",
          "type": "address"
        }
      ],
      "stateMutability": "view",
      "type": "function",
      "constant": true
    },
    {
      "inputs": [],
      "name": "renounceOwnership",
      "outputs": [],
      "stateMutability": "nonpayable",
      "type": "function"
    },
    {
      "inputs": [],
      "name": "renouncePauser",
      "outputs": [],
      "stateMutability": "nonpayable",
      "type": "function"
    },
    {
      "inputs": [],
      "name": "responsibleForInvestmentConfirmation",
      "outputs": [
        {
          "internalType": "address",
          "name": "",
          "type": "address"
        }
      ],
      "stateMutability": "view",
      "type": "function",
      "constant": true
    },
    {
      "inputs": [],
      "name": "responsibleForSettlement",
      "outputs": [
        {
          "internalType": "address",
          "name": "",
          "type": "address"
        }
      ],
      "stateMutability": "view",
      "type": "function",
      "constant": true
    },
    {
      "inputs": [
        {
          "internalType": "address",
          "name": "newOwner",
          "type": "address"
        }
      ],
      "name": "transferOwnership",
      "outputs": [],
      "stateMutability": "nonpayable",
      "type": "function"
    },
    {
      "inputs": [],
      "name": "unpause",
      "outputs": [],
      "stateMutability": "nonpayable",
      "type": "function"
    },
    {
      "inputs": [
        {
          "internalType": "bytes32",
          "name": "specificInvestimentHash",
          "type": "bytes32"
        },
        {
          "internalType": "uint256",
          "name": "idInvestor",
          "type": "uint256"
        },
        {
          "internalType": "uint256",
          "name": "amount",
          "type": "uint256"
        },
        {
          "internalType": "bytes32",
          "name": "docHash",
          "type": "bytes32"
        }
      ],
      "name": "requestMint",
      "outputs": [],
      "stateMutability": "nonpayable",
      "type": "function"
    },
    {
      "inputs": [
        {
          "internalType": "address",
          "name": "specificTokenAddr",
          "type": "address"
        },
        {
          "internalType": "uint256",
          "name": "idInvestor",
          "type": "uint256"
        },
        {
          "internalType": "bytes32",
          "name": "specificHash",
          "type": "bytes32"
        },
        {
          "internalType": "uint256",
          "name": "amount",
          "type": "uint256"
        },
        {
          "internalType": "bytes32",
          "name": "docHash",
          "type": "bytes32"
        },
        {
          "internalType": "string[]",
          "name": "data",
          "type": "string[]"
        }
      ],
      "name": "mint",
      "outputs": [],
      "stateMutability": "nonpayable",
      "type": "function"
    },
    {
      "inputs": [
        {
          "internalType": "address",
          "name": "originalSender",
          "type": "address"
        },
        {
          "internalType": "bytes32",
          "name": "hashToBurn",
          "type": "bytes32"
        },
        {
          "internalType": "uint256",
          "name": "amount",
          "type": "uint256"
        },
        {
          "internalType": "bytes32",
          "name": "docHash",
          "type": "bytes32"
        }
      ],
      "name": "burnOwnTokenBySpecificTokens",
      "outputs": [],
      "stateMutability": "nonpayable",
      "type": "function"
    },
    {
      "inputs": [
        {
          "internalType": "address",
          "name": "specificTokenAddr",
          "type": "address"
        },
        {
          "internalType": "bytes32",
          "name": "hashToBurn",
          "type": "bytes32"
        },
        {
          "internalType": "uint256",
          "name": "amount",
          "type": "uint256"
        },
        {
          "internalType": "bytes32",
          "name": "docHash",
          "type": "bytes32"
        }
      ],
      "name": "burnOwnToken",
      "outputs": [],
      "stateMutability": "nonpayable",
      "type": "function"
    },
    {
      "inputs": [
        {
          "internalType": "address",
          "name": "specificTokenAddr",
          "type": "address"
        },
        {
          "internalType": "bytes32",
          "name": "fromHash",
          "type": "bytes32"
        },
        {
          "internalType": "uint256",
          "name": "toId",
          "type": "uint256"
        },
        {
          "internalType": "bytes32",
          "name": "toHash",
          "type": "bytes32"
        },
        {
          "internalType": "uint256",
          "name": "amount",
          "type": "uint256"
        },
        {
          "internalType": "bytes32",
          "name": "docHash",
          "type": "bytes32"
        },
        {
          "internalType": "string[]",
          "name": "data",
          "type": "string[]"
        }
      ],
      "name": "transfer",
      "outputs": [],
      "stateMutability": "nonpayable",
      "type": "function"
    },
    {
      "inputs": [
        {
          "internalType": "address",
          "name": "specificTokenAddr",
          "type": "address"
        },
        {
          "internalType": "bytes32",
          "name": "fromHash",
          "type": "bytes32"
        },
        {
          "internalType": "uint256",
          "name": "amount",
          "type": "uint256"
        },
        {
          "internalType": "bytes32",
          "name": "docHash",
          "type": "bytes32"
        },
        {
          "internalType": "string[]",
          "name": "data",
          "type": "string[]"
        }
      ],
      "name": "redeem",
      "outputs": [],
      "stateMutability": "nonpayable",
      "type": "function"
    },
    {
      "inputs": [
        {
          "internalType": "address",
          "name": "specificTokenAddr",
          "type": "address"
        },
        {
          "internalType": "bytes32",
          "name": "redemptionTransactionHash",
          "type": "bytes32"
        },
        {
          "internalType": "bytes32",
          "name": "docHash",
          "type": "bytes32"
        },
        {
          "internalType": "string[]",
          "name": "data",
          "type": "string[]"
        }
      ],
      "name": "notifyRedemptionSettlement",
      "outputs": [],
      "stateMutability": "nonpayable",
      "type": "function"
    },
    {
      "inputs": [],
      "name": "getDecimals",
      "outputs": [
        {
          "internalType": "uint8",
          "name": "",
          "type": "uint8"
        }
      ],
      "stateMutability": "view",
      "type": "function",
      "constant": true
    },
    {
      "inputs": [],
      "name": "getBndesId",
      "outputs": [
        {
          "internalType": "uint256",
          "name": "",
          "type": "uint256"
        }
      ],
      "stateMutability": "view",
      "type": "function",
      "constant": true
    },
    {
      "inputs": [
        {
          "internalType": "address",
          "name": "rs",
          "type": "address"
        }
      ],
      "name": "setResponsibleForInvestmentConfirmation",
      "outputs": [],
      "stateMutability": "nonpayable",
      "type": "function"
    },
    {
      "inputs": [
        {
          "internalType": "address",
          "name": "rs",
          "type": "address"
        }
      ],
      "name": "setResponsibleForSettlement",
      "outputs": [],
      "stateMutability": "nonpayable",
      "type": "function"
    }
  ],
  "bytecode": "0x60806040526002600360146101000a81548160ff021916908360ff1602179055503480156200002d57600080fd5b5060405162004b1438038062004b1483398181016040528101906200005391906200047b565b62000073620000676200026660201b60201c565b6200026e60201b60201c565b6000600160006101000a81548160ff0219169083151502179055506000620000a06200026660201b60201c565b9050806001806101000a81548173ffffffffffffffffffffffffffffffffffffffff021916908373ffffffffffffffffffffffffffffffffffffffff1602179055508073ffffffffffffffffffffffffffffffffffffffff16600073ffffffffffffffffffffffffffffffffffffffff167f8be0079c531659141344cd1fd0a4f28419497f9722a3daafe3b4186f6b6457e060405160405180910390a35082600360006101000a81548173ffffffffffffffffffffffffffffffffffffffff021916908373ffffffffffffffffffffffffffffffffffffffff16021790555081600260006101000a81548173ffffffffffffffffffffffffffffffffffffffff021916908373ffffffffffffffffffffffffffffffffffffffff16021790555080600360146101000a81548160ff021916908360ff16021790555033600460006101000a81548173ffffffffffffffffffffffffffffffffffffffff021916908373ffffffffffffffffffffffffffffffffffffffff16021790555033600560006101000a81548173ffffffffffffffffffffffffffffffffffffffff021916908373ffffffffffffffffffffffffffffffffffffffff16021790555050505062000645565b600033905090565b62000289816000620002cf60201b6200246b1790919060201c565b8073ffffffffffffffffffffffffffffffffffffffff167f6719d08c1888103bea251a4ed56406bd0c3e69723c8a1686e017e7bbe159b6f860405160405180910390a250565b620002e182826200038260201b60201c565b1562000324576040517f08c379a00000000000000000000000000000000000000000000000000000000081526004016200031b906200057b565b60405180910390fd5b60018260000160008373ffffffffffffffffffffffffffffffffffffffff1673ffffffffffffffffffffffffffffffffffffffff16815260200190815260200160002060006101000a81548160ff0219169083151502179055505050565b60008073ffffffffffffffffffffffffffffffffffffffff168273ffffffffffffffffffffffffffffffffffffffff161415620003f6576040517f08c379a0000000000000000000000000000000000000000000000000000000008152600401620003ed906200059d565b60405180910390fd5b8260000160008373ffffffffffffffffffffffffffffffffffffffff1673ffffffffffffffffffffffffffffffffffffffff16815260200190815260200160002060009054906101000a900460ff16905092915050565b6000815190506200045e8162000611565b92915050565b60008151905062000475816200062b565b92915050565b6000806000606084860312156200049157600080fd5b6000620004a1868287016200044d565b9350506020620004b4868287016200044d565b9250506040620004c78682870162000464565b9150509250925092565b6000620004e0601f83620005bf565b91507f526f6c65733a206163636f756e7420616c72656164792068617320726f6c65006000830152602082019050919050565b600062000522602283620005bf565b91507f526f6c65733a206163636f756e7420697320746865207a65726f20616464726560008301527f73730000000000000000000000000000000000000000000000000000000000006020830152604082019050919050565b600060208201905081810360008301526200059681620004d1565b9050919050565b60006020820190508181036000830152620005b88162000513565b9050919050565b600082825260208201905092915050565b6000620005dd82620005e4565b9050919050565b600073ffffffffffffffffffffffffffffffffffffffff82169050919050565b600060ff82169050919050565b6200061c81620005d0565b81146200062857600080fd5b50565b620006368162000604565b81146200064257600080fd5b50565b6144bf80620006556000396000f3fe608060405234801561001057600080fd5b50600436106101a95760003560e01c80636ef8d66d116100f9578063a1ccae9711610097578063d9a428fe11610071578063d9a428fe14610436578063e67b02a414610452578063f0141d841461046e578063f2fde38b1461048c576101a9565b8063a1ccae97146103e0578063a6a9ba88146103fc578063b7404ff51461041a576101a9565b806382dc1ec4116100d357806382dc1ec41461037e5780638456cb591461039a5780638da5cb5b146103a45780638f32d59b146103c2576101a9565b80636ef8d66d1461034c578063715018a6146103565780637b10399914610360576101a9565b80633d05817a116101665780634a47f599116101405780634a47f599146102c45780635c975abb146102e25780635d09022c146103005780636b5691931461031c576101a9565b80633d05817a1461026e5780633f4ba83a1461028a57806346fbf68e14610294576101a9565b806304cc4d8e146101ae5780630bb91394146101ca5780630faf5eb2146101e6578063214538001461020257806330b4998314610220578063313ce56714610250575b600080fd5b6101c860048036038101906101c39190612fbf565b6104a8565b005b6101e460048036038101906101df9190612d24565b6106d0565b005b61020060048036038101906101fb9190612e16565b610828565b005b61020a610e22565b6040516102179190613a00565b60405180910390f35b61023a600480360381019061023591906130c3565b610e48565b60405161024791906140ea565b60405180910390f35b610258610e7a565b604051610265919061415f565b60405180910390f35b61028860048036038101906102839190612ecc565b610e8d565b005b6102926112e8565b005b6102ae60048036038101906102a99190612c80565b6113e1565b6040516102bb9190613dd9565b60405180910390f35b6102cc6113fe565b6040516102d991906140ea565b60405180910390f35b6102ea6114bc565b6040516102f79190613dd9565b60405180910390f35b61031a60048036038101906103159190612c80565b6114d3565b005b6103366004803603810190610331919061304b565b61173b565b60405161034391906140ea565b60405180910390f35b610354611760565b005b61035e611772565b005b610368611877565b6040516103759190613e4d565b60405180910390f35b61039860048036038101906103939190612c80565b61189d565b005b6103a26118f8565b005b6103ac6119f1565b6040516103b99190613a00565b60405180910390f35b6103ca611a19565b6040516103d79190613dd9565b60405180910390f35b6103fa60048036038101906103f59190612d24565b611a76565b005b610404611bc5565b6040516104119190613a00565b60405180910390f35b610434600480360381019061042f9190612c80565b611beb565b005b610450600480360381019061044b9190612ca9565b611e53565b005b61046c60048036038101906104679190612d87565b612076565b005b610476612401565b604051610483919061415f565b60405180910390f35b6104a660048036038101906104a19190612c80565b612418565b005b600082116104eb576040517f08c379a00000000000000000000000000000000000000000000000000000000081526004016104e290613f4a565b60405180910390fd5b6000339050600260009054906101000a900473ffffffffffffffffffffffffffffffffffffffff1673ffffffffffffffffffffffffffffffffffffffff1663d06d86eb826040518263ffffffff1660e01b815260040161054b9190613a00565b60006040518083038186803b15801561056357600080fd5b505afa158015610577573d6000803e3d6000fd5b505050506000600260009054906101000a900473ffffffffffffffffffffffffffffffffffffffff1673ffffffffffffffffffffffffffffffffffffffff166324370167836040518263ffffffff1660e01b81526004016105d89190613a00565b60206040518083038186803b1580156105f057600080fd5b505afa158015610604573d6000803e3d6000fd5b505050506040513d601f19601f820116820180604052508101906106289190613022565b9050610661846007600084815260200190815260200160002060008981526020019081526020016000205461251390919063ffffffff16565b600760008381526020019081526020016000206000888152602001908152602001600020819055507fb5d8f9b160e3756e6a72237700498d57cf4fc736169d86a72e2389a6d24a7df182878787876040516106c0959493929190613d34565b60405180910390a1505050505050565b6000339050600260009054906101000a900473ffffffffffffffffffffffffffffffffffffffff1673ffffffffffffffffffffffffffffffffffffffff1663d06d86eb826040518263ffffffff1660e01b81526004016107309190613a00565b60006040518083038186803b15801561074857600080fd5b505afa15801561075c573d6000803e3d6000fd5b50505050600080600260009054906101000a900473ffffffffffffffffffffffffffffffffffffffff1673ffffffffffffffffffffffffffffffffffffffff16638264f978846040518263ffffffff1660e01b81526004016107be9190613a00565b604080518083038186803b1580156107d557600080fd5b505afa1580156107e9573d6000803e3d6000fd5b505050506040513d601f19601f8201168201806040525081019061080d9190613087565b9150915061081f838883898989612568565b50505050505050565b600160009054906101000a900460ff1615610878576040517f08c379a000000000000000000000000000000000000000000000000000000000815260040161086f90613f8a565b60405180910390fd5b6000600360009054906101000a900473ffffffffffffffffffffffffffffffffffffffff1673ffffffffffffffffffffffffffffffffffffffff166365f68c89336040518263ffffffff1660e01b81526004016108d59190613a1b565b60206040518083038186803b1580156108ed57600080fd5b505afa158015610901573d6000803e3d6000fd5b505050506040513d601f19601f820116820180604052508101906109259190613022565b9050600260009054906101000a900473ffffffffffffffffffffffffffffffffffffffff1673ffffffffffffffffffffffffffffffffffffffff1663d06d86eb896040518263ffffffff1660e01b81526004016109829190613a00565b60006040518083038186803b15801561099a57600080fd5b505afa1580156109ae573d6000803e3d6000fd5b50505050600360009054906101000a900473ffffffffffffffffffffffffffffffffffffffff1673ffffffffffffffffffffffffffffffffffffffff1663613a7896826040518263ffffffff1660e01b8152600401610a0d91906140ea565b60206040518083038186803b158015610a2557600080fd5b505afa158015610a39573d6000803e3d6000fd5b505050506040513d601f19601f82011682018060405250810190610a5d9190612f6d565b610a9c576040517f08c379a0000000000000000000000000000000000000000000000000000000008152600401610a939061408a565b60405180910390fd5b600360009054906101000a900473ffffffffffffffffffffffffffffffffffffffff1673ffffffffffffffffffffffffffffffffffffffff1663613a7896876040518263ffffffff1660e01b8152600401610af791906140ea565b60206040518083038186803b158015610b0f57600080fd5b505afa158015610b23573d6000803e3d6000fd5b505050506040513d601f19601f82011682018060405250810190610b479190612f6d565b610b86576040517f08c379a0000000000000000000000000000000000000000000000000000000008152600401610b7d906140ca565b60405180910390fd5b6000600260009054906101000a900473ffffffffffffffffffffffffffffffffffffffff1673ffffffffffffffffffffffffffffffffffffffff1663243701678a6040518263ffffffff1660e01b8152600401610be39190613a00565b60206040518083038186803b158015610bfb57600080fd5b505afa158015610c0f573d6000803e3d6000fd5b505050506040513d601f19601f82011682018060405250810190610c339190613022565b905060008990508073ffffffffffffffffffffffffffffffffffffffff166341574b3b33858c8c8c8c8c8c6040518963ffffffff1660e01b8152600401610c81989796959493929190613a9e565b600060405180830381600087803b158015610c9b57600080fd5b505af1158015610caf573d6000803e3d6000fd5b50505050610d15866040518060600160405280603881526020016144526038913960066000868152602001908152602001600020600087815260200190815260200160002060008d8152602001908152602001600020546127879092919063ffffffff16565b60066000848152602001908152602001600020600085815260200190815260200160002060008b815260200190815260200160002081905550610d96866006600085815260200190815260200160002060008b815260200190815260200160002060008a81526020019081526020016000205461251390919063ffffffff16565b6006600084815260200190815260200160002060008a81526020019081526020016000206000898152602001908152602001600020819055507fbdea818d4f1687df74b09fdbb5d86c436785fb62b1374ee6b3497ebe39e6f5258a33858c8c8c8c8c8c604051610e0e99989796959493929190613b99565b60405180910390a150505050505050505050565b600560009054906101000a900473ffffffffffffffffffffffffffffffffffffffff1681565b600660205282600052604060002060205281600052604060002060205280600052604060002060009250925050505481565b600360149054906101000a900460ff1681565b600260009054906101000a900473ffffffffffffffffffffffffffffffffffffffff1673ffffffffffffffffffffffffffffffffffffffff1663d06d86eb876040518263ffffffff1660e01b8152600401610ee89190613a00565b60006040518083038186803b158015610f0057600080fd5b505afa158015610f14573d6000803e3d6000fd5b505050503373ffffffffffffffffffffffffffffffffffffffff16600460009054906101000a900473ffffffffffffffffffffffffffffffffffffffff1673ffffffffffffffffffffffffffffffffffffffff1614610fa8576040517f08c379a0000000000000000000000000000000000000000000000000000000008152600401610f9f90613f6a565b60405180910390fd5b60008311610feb576040517f08c379a0000000000000000000000000000000000000000000000000000000008152600401610fe29061406a565b60405180910390fd5b600080600260009054906101000a900473ffffffffffffffffffffffffffffffffffffffff1673ffffffffffffffffffffffffffffffffffffffff16638264f978896040518263ffffffff1660e01b81526004016110499190613a00565b604080518083038186803b15801561106057600080fd5b505afa158015611074573d6000803e3d6000fd5b505050506040513d601f19601f820116820180604052508101906110989190613087565b915091506110ed856040518060600160405280602981526020016143ee602991396007600086815260200190815260200160002060008a8152602001908152602001600020546127879092919063ffffffff16565b60076000848152602001908152602001600020600088815260200190815260200160002081905550600088905060008173ffffffffffffffffffffffffffffffffffffffff1663cd541b7a896040518263ffffffff1660e01b81526004016111559190613df4565b602060405180830381600087803b15801561116f57600080fd5b505af1158015611183573d6000803e3d6000fd5b505050506040513d601f19601f820116820180604052508101906111a79190612f96565b90506111f18760066000878152602001908152602001600020600086815260200190815260200160002060008481526020019081526020016000205461251390919063ffffffff16565b6006600086815260200190815260200160002060008581526020019081526020016000206000838152602001908152602001600020819055508173ffffffffffffffffffffffffffffffffffffffff16630990da738a8a8a8a8a6040518663ffffffff1660e01b815260040161126b959493929190614105565b600060405180830381600087803b15801561128557600080fd5b505af1158015611299573d6000803e3d6000fd5b505050507f3f0f1f541f704191af92125dcf03aa5ef8ed27b996d6b2ba3c3c91e1351c5c0e8a898989896040516112d4959493929190613cda565b60405180910390a150505050505050505050565b6112f86112f36127e2565b6113e1565b611337576040517f08c379a000000000000000000000000000000000000000000000000000000000815260040161132e90613eea565b60405180910390fd5b600160009054906101000a900460ff16611386576040517f08c379a000000000000000000000000000000000000000000000000000000000815260040161137d90613eaa565b60405180910390fd5b6000600160006101000a81548160ff0219169083151502179055507f5db9ee0a495bf2e6ff9c91a7834c1ba4fdd244a5e8aa4e537bd38aeae4b073aa6113ca6127e2565b6040516113d79190613a1b565b60405180910390a1565b60006113f78260006127ea90919063ffffffff16565b9050919050565b600080600360009054906101000a900473ffffffffffffffffffffffffffffffffffffffff1673ffffffffffffffffffffffffffffffffffffffff166365f68c896114476119f1565b6040518263ffffffff1660e01b81526004016114639190613a00565b60206040518083038186803b15801561147b57600080fd5b505afa15801561148f573d6000803e3d6000fd5b505050506040513d601f19601f820116820180604052508101906114b39190613022565b90508091505090565b6000600160009054906101000a900460ff16905090565b6114db611a19565b61151a576040517f08c379a00000000000000000000000000000000000000000000000000000000081526004016115119061402a565b60405180910390fd5b6000600360009054906101000a900473ffffffffffffffffffffffffffffffffffffffff1673ffffffffffffffffffffffffffffffffffffffff166365f68c89836040518263ffffffff1660e01b81526004016115779190613a00565b60206040518083038186803b15801561158f57600080fd5b505afa1580156115a3573d6000803e3d6000fd5b505050506040513d601f19601f820116820180604052508101906115c79190613022565b9050600360009054906101000a900473ffffffffffffffffffffffffffffffffffffffff1673ffffffffffffffffffffffffffffffffffffffff166365f68c8961160f6119f1565b6040518263ffffffff1660e01b815260040161162b9190613a00565b60206040518083038186803b15801561164357600080fd5b505afa158015611657573d6000803e3d6000fd5b505050506040513d601f19601f8201168201806040525081019061167b9190613022565b81146116bc576040517f08c379a00000000000000000000000000000000000000000000000000000000081526004016116b390613e8a565b60405180910390fd5b81600460006101000a81548173ffffffffffffffffffffffffffffffffffffffff021916908373ffffffffffffffffffffffffffffffffffffffff1602179055507faf10d91531a8d27fc602286518b7fd48b5ea40e30a02f824746cd67a2ab488c882600160405161172f929190613d87565b60405180910390a15050565b6007602052816000526040600020602052806000526040600020600091509150505481565b61177061176b6127e2565b6128b2565b565b61177a611a19565b6117b9576040517f08c379a00000000000000000000000000000000000000000000000000000000081526004016117b09061402a565b60405180910390fd5b600073ffffffffffffffffffffffffffffffffffffffff1660018054906101000a900473ffffffffffffffffffffffffffffffffffffffff1673ffffffffffffffffffffffffffffffffffffffff167f8be0079c531659141344cd1fd0a4f28419497f9722a3daafe3b4186f6b6457e060405160405180910390a360006001806101000a81548173ffffffffffffffffffffffffffffffffffffffff021916908373ffffffffffffffffffffffffffffffffffffffff160217905550565b600360009054906101000a900473ffffffffffffffffffffffffffffffffffffffff1681565b6118ad6118a86127e2565b6113e1565b6118ec576040517f08c379a00000000000000000000000000000000000000000000000000000000081526004016118e390613eea565b60405180910390fd5b6118f58161290c565b50565b6119086119036127e2565b6113e1565b611947576040517f08c379a000000000000000000000000000000000000000000000000000000000815260040161193e90613eea565b60405180910390fd5b600160009054906101000a900460ff1615611997576040517f08c379a000000000000000000000000000000000000000000000000000000000815260040161198e90613f8a565b60405180910390fd5b60018060006101000a81548160ff0219169083151502179055507f62e78cea01bee320cd4e420270b5ea74000d11b0c9f74754ebdbfc544b05a2586119da6127e2565b6040516119e79190613a1b565b60405180910390a1565b600060018054906101000a900473ffffffffffffffffffffffffffffffffffffffff16905090565b600060018054906101000a900473ffffffffffffffffffffffffffffffffffffffff1673ffffffffffffffffffffffffffffffffffffffff16611a5a6127e2565b73ffffffffffffffffffffffffffffffffffffffff1614905090565b600260009054906101000a900473ffffffffffffffffffffffffffffffffffffffff1673ffffffffffffffffffffffffffffffffffffffff1663d06d86eb856040518263ffffffff1660e01b8152600401611ad19190613a00565b60006040518083038186803b158015611ae957600080fd5b505afa158015611afd573d6000803e3d6000fd5b505050506000600360009054906101000a900473ffffffffffffffffffffffffffffffffffffffff1673ffffffffffffffffffffffffffffffffffffffff166365f68c89336040518263ffffffff1660e01b8152600401611b5e9190613a1b565b60206040518083038186803b158015611b7657600080fd5b505afa158015611b8a573d6000803e3d6000fd5b505050506040513d601f19601f82011682018060405250810190611bae9190613022565b9050611bbe853383878787612568565b5050505050565b600460009054906101000a900473ffffffffffffffffffffffffffffffffffffffff1681565b611bf3611a19565b611c32576040517f08c379a0000000000000000000000000000000000000000000000000000000008152600401611c299061402a565b60405180910390fd5b6000600360009054906101000a900473ffffffffffffffffffffffffffffffffffffffff1673ffffffffffffffffffffffffffffffffffffffff166365f68c89836040518263ffffffff1660e01b8152600401611c8f9190613a00565b60206040518083038186803b158015611ca757600080fd5b505afa158015611cbb573d6000803e3d6000fd5b505050506040513d601f19601f82011682018060405250810190611cdf9190613022565b9050600360009054906101000a900473ffffffffffffffffffffffffffffffffffffffff1673ffffffffffffffffffffffffffffffffffffffff166365f68c89611d276119f1565b6040518263ffffffff1660e01b8152600401611d439190613a00565b60206040518083038186803b158015611d5b57600080fd5b505afa158015611d6f573d6000803e3d6000fd5b505050506040513d601f19601f82011682018060405250810190611d939190613022565b8114611dd4576040517f08c379a0000000000000000000000000000000000000000000000000000000008152600401611dcb90613faa565b60405180910390fd5b81600560006101000a81548173ffffffffffffffffffffffffffffffffffffffff021916908373ffffffffffffffffffffffffffffffffffffffff1602179055507faf10d91531a8d27fc602286518b7fd48b5ea40e30a02f824746cd67a2ab488c8826002604051611e47929190613db0565b60405180910390a15050565b600160009054906101000a900460ff1615611ea3576040517f08c379a0000000000000000000000000000000000000000000000000000000008152600401611e9a90613f8a565b60405180910390fd5b600260009054906101000a900473ffffffffffffffffffffffffffffffffffffffff1673ffffffffffffffffffffffffffffffffffffffff1663d06d86eb856040518263ffffffff1660e01b8152600401611efe9190613a00565b60006040518083038186803b158015611f1657600080fd5b505afa158015611f2a573d6000803e3d6000fd5b505050503373ffffffffffffffffffffffffffffffffffffffff16600560009054906101000a900473ffffffffffffffffffffffffffffffffffffffff1673ffffffffffffffffffffffffffffffffffffffff1614611fbe576040517f08c379a0000000000000000000000000000000000000000000000000000000008152600401611fb59061400a565b60405180910390fd5b60008490508073ffffffffffffffffffffffffffffffffffffffff1663a6ee26e18585856040518463ffffffff1660e01b815260040161200093929190613e0f565b600060405180830381600087803b15801561201a57600080fd5b505af115801561202e573d6000803e3d6000fd5b505050507f6b9ae09d6ab882c931047d5687aa3a062d69d6b6caf4b04af6cb9df81245ab51858585856040516120679493929190613c8e565b60405180910390a15050505050565b600160009054906101000a900460ff16156120c6576040517f08c379a00000000000000000000000000000000000000000000000000000000081526004016120bd90613f8a565b60405180910390fd5b6000600360009054906101000a900473ffffffffffffffffffffffffffffffffffffffff1673ffffffffffffffffffffffffffffffffffffffff166365f68c89336040518263ffffffff1660e01b81526004016121239190613a1b565b60206040518083038186803b15801561213b57600080fd5b505afa15801561214f573d6000803e3d6000fd5b505050506040513d601f19601f820116820180604052508101906121739190613022565b9050600260009054906101000a900473ffffffffffffffffffffffffffffffffffffffff1673ffffffffffffffffffffffffffffffffffffffff1663d06d86eb876040518263ffffffff1660e01b81526004016121d09190613a00565b60006040518083038186803b1580156121e857600080fd5b505afa1580156121fc573d6000803e3d6000fd5b50505050600360009054906101000a900473ffffffffffffffffffffffffffffffffffffffff1673ffffffffffffffffffffffffffffffffffffffff1663613a7896826040518263ffffffff1660e01b815260040161225b91906140ea565b60206040518083038186803b15801561227357600080fd5b505afa158015612287573d6000803e3d6000fd5b505050506040513d601f19601f820116820180604052508101906122ab9190612f6d565b6122ea576040517f08c379a00000000000000000000000000000000000000000000000000000000081526004016122e1906140aa565b60405180910390fd5b6000841161232d576040517f08c379a000000000000000000000000000000000000000000000000000000000815260040161232490613fca565b60405180910390fd5b60008690508073ffffffffffffffffffffffffffffffffffffffff1663ba6ad8533384898989896040518763ffffffff1660e01b815260040161237596959493929190613a36565b600060405180830381600087803b15801561238f57600080fd5b505af11580156123a3573d6000803e3d6000fd5b505050507f3115381baa8fda8997478031f1bd9f852965a6be640620b542c229a91e0302ab873384898989896040516123e29796959493929190613b23565b60405180910390a16123f8873384898989612568565b50505050505050565b6000600360149054906101000a900460ff16905090565b612420611a19565b61245f576040517f08c379a00000000000000000000000000000000000000000000000000000000081526004016124569061402a565b60405180910390fd5b61246881612966565b50565b61247582826127ea565b156124b5576040517f08c379a00000000000000000000000000000000000000000000000000000000081526004016124ac90613eca565b60405180910390fd5b60018260000160008373ffffffffffffffffffffffffffffffffffffffff1673ffffffffffffffffffffffffffffffffffffffff16815260200190815260200160002060006101000a81548160ff0219169083151502179055505050565b60008082840190508381101561255e576040517f08c379a000000000000000000000000000000000000000000000000000000000815260040161255590613f2a565b60405180910390fd5b8091505092915050565b600260009054906101000a900473ffffffffffffffffffffffffffffffffffffffff1673ffffffffffffffffffffffffffffffffffffffff1663d06d86eb876040518263ffffffff1660e01b81526004016125c39190613a00565b60006040518083038186803b1580156125db57600080fd5b505afa1580156125ef573d6000803e3d6000fd5b505050506000600260009054906101000a900473ffffffffffffffffffffffffffffffffffffffff1673ffffffffffffffffffffffffffffffffffffffff166324370167886040518263ffffffff1660e01b81526004016126509190613a00565b60206040518083038186803b15801561266857600080fd5b505afa15801561267c573d6000803e3d6000fd5b505050506040513d601f19601f820116820180604052508101906126a09190613022565b9050612704836040518060600160405280603b8152602001614417603b91396006600085815260200190815260200160002060008981526020019081526020016000206000888152602001908152602001600020546127879092919063ffffffff16565b6006600083815260200190815260200160002060008781526020019081526020016000206000868152602001908152602001600020819055507f92f02b400db4c2c442eac2df8de068b8e835d18b96ba11a431c69c468cd441c387878787878760405161277696959493929190613c2d565b60405180910390a150505050505050565b60008383111582906127cf576040517f08c379a00000000000000000000000000000000000000000000000000000000081526004016127c69190613e68565b60405180910390fd5b5060008385039050809150509392505050565b600033905090565b60008073ffffffffffffffffffffffffffffffffffffffff168273ffffffffffffffffffffffffffffffffffffffff16141561285b576040517f08c379a00000000000000000000000000000000000000000000000000000000081526004016128529061404a565b60405180910390fd5b8260000160008373ffffffffffffffffffffffffffffffffffffffff1673ffffffffffffffffffffffffffffffffffffffff16815260200190815260200160002060009054906101000a900460ff16905092915050565b6128c6816000612a9390919063ffffffff16565b8073ffffffffffffffffffffffffffffffffffffffff167fcd265ebaf09df2871cc7bd4133404a235ba12eff2041bb89d9c714a2621c7c7e60405160405180910390a250565b61292081600061246b90919063ffffffff16565b8073ffffffffffffffffffffffffffffffffffffffff167f6719d08c1888103bea251a4ed56406bd0c3e69723c8a1686e017e7bbe159b6f860405160405180910390a250565b600073ffffffffffffffffffffffffffffffffffffffff168173ffffffffffffffffffffffffffffffffffffffff1614156129d6576040517f08c379a00000000000000000000000000000000000000000000000000000000081526004016129cd90613f0a565b60405180910390fd5b8073ffffffffffffffffffffffffffffffffffffffff1660018054906101000a900473ffffffffffffffffffffffffffffffffffffffff1673ffffffffffffffffffffffffffffffffffffffff167f8be0079c531659141344cd1fd0a4f28419497f9722a3daafe3b4186f6b6457e060405160405180910390a3806001806101000a81548173ffffffffffffffffffffffffffffffffffffffff021916908373ffffffffffffffffffffffffffffffffffffffff16021790555050565b612a9d82826127ea565b612adc576040517f08c379a0000000000000000000000000000000000000000000000000000000008152600401612ad390613fea565b60405180910390fd5b60008260000160008373ffffffffffffffffffffffffffffffffffffffff1673ffffffffffffffffffffffffffffffffffffffff16815260200190815260200160002060006101000a81548160ff0219169083151502179055505050565b600081359050612b4981614391565b92915050565b600082601f830112612b6057600080fd5b8135612b73612b6e826141a7565b61417a565b9150818183526020840193506020810190508360005b83811015612bb95781358601612b9f8882612c02565b845260208401935060208301925050600181019050612b89565b5050505092915050565b600081519050612bd2816143a8565b92915050565b600081359050612be7816143bf565b92915050565b600081519050612bfc816143bf565b92915050565b600082601f830112612c1357600080fd5b8135612c26612c21826141cf565b61417a565b91508082526020830160208301858383011115612c4257600080fd5b612c4d83828461433e565b50505092915050565b600081359050612c65816143d6565b92915050565b600081519050612c7a816143d6565b92915050565b600060208284031215612c9257600080fd5b6000612ca084828501612b3a565b91505092915050565b60008060008060808587031215612cbf57600080fd5b6000612ccd87828801612b3a565b9450506020612cde87828801612bd8565b9350506040612cef87828801612bd8565b925050606085013567ffffffffffffffff811115612d0c57600080fd5b612d1887828801612b4f565b91505092959194509250565b60008060008060808587031215612d3a57600080fd5b6000612d4887828801612b3a565b9450506020612d5987828801612bd8565b9350506040612d6a87828801612c56565b9250506060612d7b87828801612bd8565b91505092959194509250565b600080600080600060a08688031215612d9f57600080fd5b6000612dad88828901612b3a565b9550506020612dbe88828901612bd8565b9450506040612dcf88828901612c56565b9350506060612de088828901612bd8565b925050608086013567ffffffffffffffff811115612dfd57600080fd5b612e0988828901612b4f565b9150509295509295909350565b600080600080600080600060e0888a031215612e3157600080fd5b6000612e3f8a828b01612b3a565b9750506020612e508a828b01612bd8565b9650506040612e618a828b01612c56565b9550506060612e728a828b01612bd8565b9450506080612e838a828b01612c56565b93505060a0612e948a828b01612bd8565b92505060c088013567ffffffffffffffff811115612eb157600080fd5b612ebd8a828b01612b4f565b91505092959891949750929550565b60008060008060008060c08789031215612ee557600080fd5b6000612ef389828a01612b3a565b9650506020612f0489828a01612c56565b9550506040612f1589828a01612bd8565b9450506060612f2689828a01612c56565b9350506080612f3789828a01612bd8565b92505060a087013567ffffffffffffffff811115612f5457600080fd5b612f6089828a01612b4f565b9150509295509295509295565b600060208284031215612f7f57600080fd5b6000612f8d84828501612bc3565b91505092915050565b600060208284031215612fa857600080fd5b6000612fb684828501612bed565b91505092915050565b60008060008060808587031215612fd557600080fd5b6000612fe387828801612bd8565b9450506020612ff487828801612c56565b935050604061300587828801612c56565b925050606061301687828801612bd8565b91505092959194509250565b60006020828403121561303457600080fd5b600061304284828501612c6b565b91505092915050565b6000806040838503121561305e57600080fd5b600061306c85828601612c56565b925050602061307d85828601612bd8565b9150509250929050565b6000806040838503121561309a57600080fd5b60006130a885828601612c6b565b92505060206130b985828601612c6b565b9150509250929050565b6000806000606084860312156130d857600080fd5b60006130e686828701612c56565b93505060206130f786828701612c56565b925050604061310886828701612bd8565b9150509250925092565b600061311e8383613204565b905092915050565b61312f816142c0565b82525050565b61313e81614261565b82525050565b600061314f8261420b565b613159818561422e565b93508360208202850161316b856141fb565b8060005b858110156131a757848403895281516131888582613112565b945061319383614221565b925060208a0199505060018101905061316f565b50829750879550505050505092915050565b6131c281614273565b82525050565b6131d18161427f565b82525050565b6131e0816142d2565b82525050565b6131ef816142f6565b82525050565b6131fe81614308565b82525050565b600061320f82614216565b613219818561423f565b935061322981856020860161434d565b61323281614380565b840191505092915050565b600061324882614216565b6132528185614250565b935061326281856020860161434d565b61326b81614380565b840191505092915050565b6000613283605683614250565b91507f4f20726573706f6e73c3a176656c2070656c6120636f6e6669726d61c3a7c3a360008301527f6f20646f20696e76657374696d656e746f20646576652073657220646f206d6560208301527f736d6f205242425f494420646f20636f6e747261746f000000000000000000006040830152606082019050919050565b600061330f601483614250565b91507f5061757361626c653a206e6f74207061757365640000000000000000000000006000830152602082019050919050565b600061334f601f83614250565b91507f526f6c65733a206163636f756e7420616c72656164792068617320726f6c65006000830152602082019050919050565b600061338f603083614250565b91507f506175736572526f6c653a2063616c6c657220646f6573206e6f74206861766560008301527f207468652050617573657220726f6c65000000000000000000000000000000006020830152604082019050919050565b60006133f5602683614250565b91507f4f776e61626c653a206e6577206f776e657220697320746865207a65726f206160008301527f64647265737300000000000000000000000000000000000000000000000000006020830152604082019050919050565b600061345b601b83614250565b91507f536166654d6174683a206164646974696f6e206f766572666c6f7700000000006000830152602082019050919050565b600061349b603583614250565b91507f56616c6f72206120736572207472616e736163696f6e61646f2064657665207360008301527f6572206d61696f7220646f20717565207a65726f2e00000000000000000000006020830152604082019050919050565b6000613501605483614250565b91507f536f6d656e746520756d20726573706f6e73c3a176656c2070656c6120636f6e60008301527f6669726d61c3a7c3a36f20646520696e76657374696d656e746f20706f64652060208301527f656e766961722061207472616e7361c3a7c3a36f0000000000000000000000006040830152606082019050919050565b600061358d601083614250565b91507f5061757361626c653a20706175736564000000000000000000000000000000006000830152602082019050919050565b60006135cd604583614250565b91507f4f20726573706f6e73c3a176656c2070656c61206c697175696461c3a7c3a36f60008301527f206465766520736572206461206d65736d6f205242425f494420646f20636f6e60208301527f747261746f0000000000000000000000000000000000000000000000000000006040830152606082019050919050565b6000613659602b83614250565b91507f56616c6f722061207265736761746172206465766520736572206d61696f722060008301527f646f20717565207a65726f0000000000000000000000000000000000000000006020830152604082019050919050565b60006136bf602183614250565b91507f526f6c65733a206163636f756e7420646f6573206e6f74206861766520726f6c60008301527f65000000000000000000000000000000000000000000000000000000000000006020830152604082019050919050565b6000613725604383614250565b91507f536f6d656e746520756d20726573706f6e73c3a176656c2070656c61206c697160008301527f75696469c3a7c3a36f20706f646520656e766961722061207472616e7361c3a760208301527fc3a36f00000000000000000000000000000000000000000000000000000000006040830152606082019050919050565b60006137b1602083614250565b91507f4f776e61626c653a2063616c6c6572206973206e6f7420746865206f776e65726000830152602082019050919050565b60006137f1602283614250565b91507f526f6c65733a206163636f756e7420697320746865207a65726f20616464726560008301527f73730000000000000000000000000000000000000000000000000000000000006020830152604082019050919050565b6000613857602983614250565b91507f56616c6f722061206d696e746172206465766520736572206d61696f7220646f60008301527f20717565207a65726f00000000000000000000000000000000000000000000006020830152604082019050919050565b60006138bd603383614250565b91507f436f6e7461206465206f726967656d207072656369736120657374617220636f60008301527f6d20636164617374726f2076616c696461646f000000000000000000000000006020830152604082019050919050565b6000613923603f83614250565b91507f436f6e746120736f6c69636974616e746520646f2072656465656d207072656360008301527f69736120657374617220636f6d20636164617374726f2076616c696461646f006020830152604082019050919050565b6000613989603483614250565b91507f436f6e74612064652064657374696e6f2070726563697361206573746172206360008301527f6f6d20636164617374726f2076616c696461646f0000000000000000000000006020830152604082019050919050565b6139eb816142a9565b82525050565b6139fa816142b3565b82525050565b6000602082019050613a156000830184613135565b92915050565b6000602082019050613a306000830184613126565b92915050565b600060c082019050613a4b6000830189613126565b613a5860208301886139e2565b613a6560408301876131c8565b613a7260608301866139e2565b613a7f60808301856131c8565b81810360a0830152613a918184613144565b9050979650505050505050565b600061010082019050613ab4600083018b613126565b613ac1602083018a6139e2565b613ace60408301896131c8565b613adb60608301886139e2565b613ae860808301876131c8565b613af560a08301866139e2565b613b0260c08301856131c8565b81810360e0830152613b148184613144565b90509998505050505050505050565b600060e082019050613b38600083018a613135565b613b456020830189613126565b613b5260408301886139e2565b613b5f60608301876131c8565b613b6c60808301866139e2565b613b7960a08301856131c8565b81810360c0830152613b8b8184613144565b905098975050505050505050565b600061012082019050613baf600083018c613135565b613bbc602083018b613126565b613bc9604083018a6139e2565b613bd660608301896131c8565b613be360808301886139e2565b613bf060a08301876131c8565b613bfd60c08301866139e2565b613c0a60e08301856131c8565b818103610100830152613c1d8184613144565b90509a9950505050505050505050565b600060c082019050613c426000830189613135565b613c4f6020830188613135565b613c5c60408301876139e2565b613c6960608301866131c8565b613c7660808301856139e2565b613c8360a08301846131c8565b979650505050505050565b6000608082019050613ca36000830187613135565b613cb060208301866131c8565b613cbd60408301856131c8565b8181036060830152613ccf8184613144565b905095945050505050565b600060a082019050613cef6000830188613135565b613cfc60208301876131c8565b613d0960408301866139e2565b613d1660608301856131c8565b8181036080830152613d288184613144565b90509695505050505050565b600060a082019050613d496000830188613135565b613d5660208301876131c8565b613d6360408301866139e2565b613d7060608301856139e2565b613d7d60808301846131c8565b9695505050505050565b6000604082019050613d9c6000830185613135565b613da960208301846131e6565b9392505050565b6000604082019050613dc56000830185613135565b613dd260208301846131f5565b9392505050565b6000602082019050613dee60008301846131b9565b92915050565b6000602082019050613e0960008301846131c8565b92915050565b6000606082019050613e2460008301866131c8565b613e3160208301856131c8565b8181036040830152613e438184613144565b9050949350505050565b6000602082019050613e6260008301846131d7565b92915050565b60006020820190508181036000830152613e82818461323d565b905092915050565b60006020820190508181036000830152613ea381613276565b9050919050565b60006020820190508181036000830152613ec381613302565b9050919050565b60006020820190508181036000830152613ee381613342565b9050919050565b60006020820190508181036000830152613f0381613382565b9050919050565b60006020820190508181036000830152613f23816133e8565b9050919050565b60006020820190508181036000830152613f438161344e565b9050919050565b60006020820190508181036000830152613f638161348e565b9050919050565b60006020820190508181036000830152613f83816134f4565b9050919050565b60006020820190508181036000830152613fa381613580565b9050919050565b60006020820190508181036000830152613fc3816135c0565b9050919050565b60006020820190508181036000830152613fe38161364c565b9050919050565b60006020820190508181036000830152614003816136b2565b9050919050565b6000602082019050818103600083015261402381613718565b9050919050565b60006020820190508181036000830152614043816137a4565b9050919050565b60006020820190508181036000830152614063816137e4565b9050919050565b600060208201905081810360008301526140838161384a565b9050919050565b600060208201905081810360008301526140a3816138b0565b9050919050565b600060208201905081810360008301526140c381613916565b9050919050565b600060208201905081810360008301526140e38161397c565b9050919050565b60006020820190506140ff60008301846139e2565b92915050565b600060a08201905061411a60008301886139e2565b61412760208301876131c8565b61413460408301866139e2565b61414160608301856131c8565b81810360808301526141538184613144565b90509695505050505050565b600060208201905061417460008301846139f1565b92915050565b6000604051905081810181811067ffffffffffffffff8211171561419d57600080fd5b8060405250919050565b600067ffffffffffffffff8211156141be57600080fd5b602082029050602081019050919050565b600067ffffffffffffffff8211156141e657600080fd5b601f19601f8301169050602081019050919050565b6000819050602082019050919050565b600081519050919050565b600081519050919050565b6000602082019050919050565b600082825260208201905092915050565b600082825260208201905092915050565b600082825260208201905092915050565b600061426c82614289565b9050919050565b60008115159050919050565b6000819050919050565b600073ffffffffffffffffffffffffffffffffffffffff82169050919050565b6000819050919050565b600060ff82169050919050565b60006142cb8261431a565b9050919050565b60006142dd826142e4565b9050919050565b60006142ef82614289565b9050919050565b6000614301826142b3565b9050919050565b6000614313826142b3565b9050919050565b60006143258261432c565b9050919050565b600061433782614289565b9050919050565b82818337600083830152505050565b60005b8381101561436b578082015181840152602081019050614350565b8381111561437a576000848401525b50505050565b6000601f19601f8301169050919050565b61439a81614261565b81146143a557600080fd5b50565b6143b181614273565b81146143bc57600080fd5b50565b6143c88161427f565b81146143d357600080fd5b50565b6143df816142a9565b81146143ea57600080fd5b5056fe546f74616c20646520656d697373c3a36f206578636564652076616c6f7220736f6c6963697461646f546f74616c20646520746f6b656e73206120736572656d20717565696d61646f7320c3a9206d61696f7220646f20717565206f2062616c616e636553616c646f206461206f726967656d206ec3a36f20c3a920737566696369656e746520706172612061207472616e73666572c3aa6e636961a26469706673582212204fc0d7aeda0454e089ff47c35e95dfadd5e96c696ade8b3ba5f79d720a3b016364736f6c634300060c0033",
  "immutableReferences": {},
  "source": "pragma solidity ^0.6.0;\npragma experimental ABIEncoderV2;\n\nimport \"./RBBRegistry.sol\";\nimport \"./SpecificRBBToken.sol\";\nimport \"./SpecificRBBTokenRegistry.sol\";\nimport \"@openzeppelin/contracts/ownership/Ownable.sol\";\nimport \"@openzeppelin/contracts/lifecycle/Pausable.sol\";\nimport \"@openzeppelin/contracts/math/SafeMath.sol\";\n\n\ncontract RBBToken is Pausable, Ownable {\n\n//TODO: avaliar se deveria ter um set para modificar esses atributos\n    SpecificRBBTokenRegistry tokenRegistry;\n    RBBRegistry public registry;\n\n\n    using SafeMath for uint;\n\n    uint8 public decimals = 2;\n\n    address public responsibleForInvestmentConfirmation;\n    address public responsibleForSettlement;\n\n\n    //specificTokenId => (RBBid => (specificHash => amount)\n    mapping (uint => mapping (uint => mapping (bytes32 => uint))) public rbbBalances;\n\n    //specificTokenId => (specificHash => amount)\n    mapping (uint => mapping (bytes32 => uint)) public balanceRequestedTokens;\n\n    event RBBTokenMintRequested(address specificTokenAddr, bytes32 specificHash, uint idInvestor, \n            uint amount, bytes32 docHash);\n    event RBBTokenMint(address specificTokenAddr, bytes32 specificHash, uint amount, bytes32 docHash, string[] data);\n    event RBBTokenBurn(address specificTokenAddr, address originalSender, uint fromId, bytes32 fromHash, \n            uint amount, bytes32 docHash);\n    event RBBTokenTransfer (address specificTokenAddr, address originalSender, uint fromId, bytes32 fromHash, uint toId,\n            bytes32 toHash, uint amount, bytes32 docHash, string[] data);\n    event RBBTokenRedemptionRequested (address specificTokenAddr, address originalSender, uint fromId, bytes32 fromHash, \n            uint amount, bytes32 docHash, string[] data);\n    event RBBTokenRedemptionSettlement(address specificTokenAddr, bytes32 redemptionTransactionHash, \n            bytes32 docHash, string[] data);\n\n    event ManualIntervention_RoleOrAddress(address account, uint8 eventType);\n\n\n    constructor (address newRegistryAddr, address newSpecificRBBTokenAddr, uint8 _decimals) public {\n        registry = RBBRegistry(newRegistryAddr);\n        tokenRegistry = SpecificRBBTokenRegistry(newSpecificRBBTokenAddr);\n        decimals = _decimals;\n        responsibleForInvestmentConfirmation = msg.sender;\n        responsibleForSettlement = msg.sender;\n\n    }\n\n///******************************************************************* */\n\n    function requestMint(bytes32 specificInvestimentHash, uint idInvestor, uint amount, bytes32 docHash) \n        public {\n    \n        require (amount>0, \"Valor a ser transacionado deve ser maior do que zero.\");\n        address specificTokenAddr = msg.sender;\n\n        tokenRegistry.verifyTokenIsRegisteredAndActive(specificTokenAddr);\n        \n        uint specificTokenId = tokenRegistry.getSpecificRBBTokenId(specificTokenAddr);\n\n        balanceRequestedTokens[specificTokenId][specificInvestimentHash] = \n            balanceRequestedTokens[specificTokenId][specificInvestimentHash].add(amount);\n    \n        emit RBBTokenMintRequested(specificTokenAddr, specificInvestimentHash, idInvestor, amount, docHash);\n\n    }\n\n    function mint(address specificTokenAddr, uint idInvestor, bytes32 specificHash, uint amount, bytes32 docHash,\n        string[] memory data) public {\n\n        tokenRegistry.verifyTokenIsRegisteredAndActive(specificTokenAddr);\n\n        require (responsibleForInvestmentConfirmation == msg.sender, \n            \"Somente um responsvel pela confirmao de investimento pode enviar a transao\");\n\n        require(amount>0, \"Valor a mintar deve ser maior do que zero\");\n\n        (uint specificTokenId, uint businessContractOwnerId) = \n                    tokenRegistry.getSpecificRBBTokenIdAndOwnerId(specificTokenAddr);\n\n        balanceRequestedTokens[specificTokenId][specificHash] \n            = balanceRequestedTokens[specificTokenId][specificHash].sub(amount, \"Total de emisso excede valor solicitado\");\n\n        SpecificRBBToken specificToken = SpecificRBBToken(specificTokenAddr);\n\n        //Retorna a conta de mint associada ao hash especifico. \n        bytes32 calcHash = specificToken.getHashToMintedAccount(specificHash);\n\n        rbbBalances[specificTokenId][businessContractOwnerId][calcHash] = \n            rbbBalances[specificTokenId][businessContractOwnerId][calcHash].add(amount);\n\n        specificToken.verifyAndActForMint(idInvestor, specificHash, amount, docHash, data);\n\n        emit RBBTokenMint(specificTokenAddr, specificHash, amount, docHash, data);\n    }\n\n\n    function burnOwnTokenBySpecificTokens (address originalSender, bytes32 hashToBurn, uint amount, \n        bytes32 docHash) public {\n\n        address specificTokenAddr = msg.sender;\n        tokenRegistry.verifyTokenIsRegisteredAndActive(specificTokenAddr);\n\n        (uint specificTokenId, uint businessContractOwnerId) = \n                    tokenRegistry.getSpecificRBBTokenIdAndOwnerId(specificTokenAddr);\n        \n        _burn(specificTokenAddr, originalSender, businessContractOwnerId, hashToBurn, amount, docHash);\n\n    }\n\n\n    function burnOwnToken (address specificTokenAddr, bytes32 hashToBurn, uint amount, bytes32 docHash) \n        public {\n\n        tokenRegistry.verifyTokenIsRegisteredAndActive(specificTokenAddr);\n\n        uint idToBurn = registry.getId(msg.sender);\n\n        _burn(specificTokenAddr, msg.sender, idToBurn, hashToBurn, amount, docHash);\n\n    }\n\n    function _burn(address specificTokenAddr, address originalSender, uint fromId, bytes32 fromHash, \n        uint amount, bytes32 docHash) internal {\n        \n        tokenRegistry.verifyTokenIsRegisteredAndActive(specificTokenAddr);\n//        require(amount>0, \"Valor a queimar deve ser maior do que zero\");\n\n        uint specificTokenId = tokenRegistry.getSpecificRBBTokenId(specificTokenAddr);\n\n        rbbBalances[specificTokenId][fromId][fromHash] = \n            rbbBalances[specificTokenId][fromId][fromHash].sub(amount, \"Total de tokens a serem queimados  maior do que o balance\");\n\n        emit RBBTokenBurn(specificTokenAddr, originalSender, fromId, fromHash, amount, docHash);\n    }\n\n///******************************************************************* */\n\n\n    function transfer (address specificTokenAddr, bytes32 fromHash, uint toId, bytes32 toHash, \n            uint amount, bytes32 docHash, string[] memory data) public whenNotPaused {\n\n        uint fromId = registry.getId(msg.sender);\n\n        tokenRegistry.verifyTokenIsRegisteredAndActive(specificTokenAddr);\n\n        require(registry.isValidatedId(fromId), \"Conta de origem precisa estar com cadastro validado\");\n        require(registry.isValidatedId(toId), \"Conta de destino precisa estar com cadastro validado\");\n        uint specificTokenId = tokenRegistry.getSpecificRBBTokenId(specificTokenAddr);\n\n        SpecificRBBToken specificToken = SpecificRBBToken(specificTokenAddr);\n        specificToken.verifyAndActForTransfer(msg.sender, fromId, fromHash, toId, toHash, amount, docHash, data);\n\n        //altera valores de saldo\n        rbbBalances[specificTokenId][fromId][fromHash] =\n                rbbBalances[specificTokenId][fromId][fromHash].sub(amount, \"Saldo da origem no  suficiente para a transferncia\");\n        rbbBalances[specificTokenId][toId][toHash] = rbbBalances[specificTokenId][toId][toHash].add(amount);\n\n        emit RBBTokenTransfer (specificTokenAddr, msg.sender, fromId, fromHash, toId, toHash, amount, docHash, data);\n\n    }\n\n    function redeem (address specificTokenAddr, bytes32 fromHash, uint amount, \n        bytes32 docHash, string[] memory data) public whenNotPaused  {\n\n            uint fromId = registry.getId(msg.sender);\n\n            tokenRegistry.verifyTokenIsRegisteredAndActive(specificTokenAddr);\n\n            require(registry.isValidatedId(fromId), \"Conta solicitante do redeem precisa estar com cadastro validado\");\n            require(amount>0, \"Valor a resgatar deve ser maior do que zero\");\n    \n            SpecificRBBToken specificToken = SpecificRBBToken(specificTokenAddr);\n            specificToken.verifyAndActForRedeem(msg.sender, fromId, fromHash, amount, docHash, data);\n\n            emit RBBTokenRedemptionRequested(specificTokenAddr, msg.sender, fromId, fromHash, amount, docHash, data);\n            _burn(specificTokenAddr, msg.sender, fromId, fromHash, amount, docHash);\n    }\n\n   /**\n    * Using this function, the Responsible for Settlement indicates that he has made the FIAT money transfer.\n    * @ param redemptionTransactionHash hash of the redeem transaction in which the FIAT money settlement occurred.\n    * @ param receiptHash hash that proof the FIAT money transfer\n    */ \n    function notifyRedemptionSettlement(address specificTokenAddr, bytes32 redemptionTransactionHash, \n        bytes32 docHash, string[] memory data) public whenNotPaused {\n\n        tokenRegistry.verifyTokenIsRegisteredAndActive(specificTokenAddr);\n\n        require (responsibleForSettlement == msg.sender, \n            \"Somente um responsvel pela liquidio pode enviar a transao\");\n\n        SpecificRBBToken specificToken = SpecificRBBToken(specificTokenAddr);\n        specificToken.verifyAndActForRedemptionSettlement(redemptionTransactionHash, docHash, data);\n\n        emit RBBTokenRedemptionSettlement(specificTokenAddr, redemptionTransactionHash, docHash, data);\n    }\n    \n\n///******************************************************************* */\n\n    function getDecimals() public view returns (uint8) {\n        return decimals;\n    }\n\n    function getBndesId() view public returns (uint) {\n        uint bndesId = registry.getId(owner());\n        return bndesId;\n    }\n\n    function setResponsibleForInvestmentConfirmation(address rs) onlyOwner public {\n        uint id = registry.getId(rs);\n        require(id==registry.getId(owner()), \"O responsvel pela confirmao do investimento deve ser do mesmo RBB_ID do contrato\");\n        responsibleForInvestmentConfirmation = rs;\n        emit ManualIntervention_RoleOrAddress(rs, 1);\n    }\n\n    function setResponsibleForSettlement(address rs) onlyOwner public {\n        uint id = registry.getId(rs);\n        require(id==registry.getId(owner()), \"O responsvel pela liquidao deve ser da mesmo RBB_ID do contrato\");\n        responsibleForSettlement = rs;\n        emit ManualIntervention_RoleOrAddress(rs, 2);\n    }\n\n\n}",
  "sourcePath": "/Users/suzana.moreno/workspace/rbb-token/Back-Blockchain/contracts/RBBToken.sol",
  "compiler": {
    "name": "solc",
    "version": "0.6.12+commit.27d51765.Emscripten.clang"
  },
  "schemaVersion": "3.2.5",
  "updatedAt": "2020-09-29T20:23:32.831Z",
  "networkType": "ethereum",
  "devdoc": {
    "kind": "dev",
    "methods": {
      "isOwner()": {
        "details": "Returns true if the caller is the current owner."
      },
      "owner()": {
        "details": "Returns the address of the current owner."
      },
      "pause()": {
        "details": "Called by a pauser to pause, triggers stopped state."
      },
      "paused()": {
        "details": "Returns true if the contract is paused, and false otherwise."
      },
      "renounceOwnership()": {
        "details": "Leaves the contract without owner. It will not be possible to call `onlyOwner` functions anymore. Can only be called by the current owner. NOTE: Renouncing ownership will leave the contract without an owner, thereby removing any functionality that is only available to the owner."
      },
      "transferOwnership(address)": {
        "details": "Transfers ownership of the contract to a new account (`newOwner`). Can only be called by the current owner."
      },
      "unpause()": {
        "details": "Called by a pauser to unpause, returns to normal state."
      }
    },
    "version": 1
  },
  "userdoc": {
    "kind": "user",
    "methods": {
      "getDecimals()": {
        "notice": "******************************************************************* */"
      },
      "notifyRedemptionSettlement(address,bytes32,bytes32,string[])": {
        "notice": "Using this function, the Responsible for Settlement indicates that he has made the FIAT money transfer. param redemptionTransactionHash hash of the redeem transaction in which the FIAT money settlement occurred. param receiptHash hash that proof the FIAT money transfer"
      },
      "requestMint(bytes32,uint256,uint256,bytes32)": {
        "notice": "******************************************************************* */"
      },
      "transfer(address,bytes32,uint256,bytes32,uint256,bytes32,string[])": {
        "notice": "******************************************************************* */"
      }
    },
    "version": 1
  }
}