{
  "contractName": "RBBToken",
  "abi": [
    {
      "inputs": [
        {
          "internalType": "address",
          "name": "newRegistryAddr",
          "type": "address"
        },
        {
          "internalType": "uint8",
          "name": "_decimals",
          "type": "uint8"
        }
      ],
      "payable": false,
      "stateMutability": "nonpayable",
      "type": "constructor"
    },
    {
      "anonymous": false,
      "inputs": [
        {
          "indexed": false,
          "internalType": "uint256",
          "name": "id",
          "type": "uint256"
        },
        {
          "indexed": false,
          "internalType": "address",
          "name": "addr",
          "type": "address"
        }
      ],
      "name": "BusinessContractRegistration",
      "type": "event"
    },
    {
      "anonymous": false,
      "inputs": [
        {
          "indexed": false,
          "internalType": "uint256",
          "name": "id",
          "type": "uint256"
        },
        {
          "indexed": false,
          "internalType": "bool",
          "name": "state",
          "type": "bool"
        }
      ],
      "name": "BusinessContractStateChange",
      "type": "event"
    },
    {
      "anonymous": false,
      "inputs": [
        {
          "indexed": true,
          "internalType": "address",
          "name": "previousOwner",
          "type": "address"
        },
        {
          "indexed": true,
          "internalType": "address",
          "name": "newOwner",
          "type": "address"
        }
      ],
      "name": "OwnershipTransferred",
      "type": "event"
    },
    {
      "anonymous": false,
      "inputs": [
        {
          "indexed": false,
          "internalType": "address",
          "name": "account",
          "type": "address"
        }
      ],
      "name": "Paused",
      "type": "event"
    },
    {
      "anonymous": false,
      "inputs": [
        {
          "indexed": true,
          "internalType": "address",
          "name": "account",
          "type": "address"
        }
      ],
      "name": "PauserAdded",
      "type": "event"
    },
    {
      "anonymous": false,
      "inputs": [
        {
          "indexed": true,
          "internalType": "address",
          "name": "account",
          "type": "address"
        }
      ],
      "name": "PauserRemoved",
      "type": "event"
    },
    {
      "anonymous": false,
      "inputs": [
        {
          "indexed": false,
          "internalType": "uint256",
          "name": "businessContractId",
          "type": "uint256"
        },
        {
          "indexed": false,
          "internalType": "uint256",
          "name": "amount",
          "type": "uint256"
        }
      ],
      "name": "RBBMintRequest",
      "type": "event"
    },
    {
      "anonymous": false,
      "inputs": [
        {
          "indexed": false,
          "internalType": "uint256",
          "name": "businessContractId",
          "type": "uint256"
        },
        {
          "indexed": false,
          "internalType": "uint256",
          "name": "amount",
          "type": "uint256"
        }
      ],
      "name": "RBBTokenBurn",
      "type": "event"
    },
    {
      "anonymous": false,
      "inputs": [
        {
          "indexed": false,
          "internalType": "uint256",
          "name": "businessContractId",
          "type": "uint256"
        },
        {
          "indexed": false,
          "internalType": "uint256",
          "name": "amount",
          "type": "uint256"
        }
      ],
      "name": "RBBTokenMint",
      "type": "event"
    },
    {
      "anonymous": false,
      "inputs": [
        {
          "indexed": false,
          "internalType": "uint256",
          "name": "businessContractId",
          "type": "uint256"
        },
        {
          "indexed": false,
          "internalType": "uint256",
          "name": "fromId",
          "type": "uint256"
        },
        {
          "indexed": false,
          "internalType": "bytes32",
          "name": "fromHash",
          "type": "bytes32"
        },
        {
          "indexed": false,
          "internalType": "uint256",
          "name": "toId",
          "type": "uint256"
        },
        {
          "indexed": false,
          "internalType": "bytes32",
          "name": "toHash",
          "type": "bytes32"
        },
        {
          "indexed": false,
          "internalType": "uint256",
          "name": "amount",
          "type": "uint256"
        }
      ],
      "name": "RBBTokenTransfer",
      "type": "event"
    },
    {
      "anonymous": false,
      "inputs": [
        {
          "indexed": false,
          "internalType": "address",
          "name": "account",
          "type": "address"
        }
      ],
      "name": "Unpaused",
      "type": "event"
    },
    {
      "constant": true,
      "inputs": [],
      "name": "RESERVED_HASH_VALUE",
      "outputs": [
        {
          "internalType": "bytes32",
          "name": "",
          "type": "bytes32"
        }
      ],
      "payable": false,
      "stateMutability": "view",
      "type": "function"
    },
    {
      "constant": true,
      "inputs": [],
      "name": "RESERVED_ID_VALUE",
      "outputs": [
        {
          "internalType": "uint8",
          "name": "",
          "type": "uint8"
        }
      ],
      "payable": false,
      "stateMutability": "view",
      "type": "function"
    },
    {
      "constant": false,
      "inputs": [
        {
          "internalType": "address",
          "name": "account",
          "type": "address"
        }
      ],
      "name": "addPauser",
      "outputs": [],
      "payable": false,
      "stateMutability": "nonpayable",
      "type": "function"
    },
    {
      "constant": true,
      "inputs": [
        {
          "internalType": "address",
          "name": "",
          "type": "address"
        }
      ],
      "name": "businessContractsRegistry",
      "outputs": [
        {
          "internalType": "uint256",
          "name": "id",
          "type": "uint256"
        },
        {
          "internalType": "bool",
          "name": "isActive",
          "type": "bool"
        }
      ],
      "payable": false,
      "stateMutability": "view",
      "type": "function"
    },
    {
      "constant": true,
      "inputs": [
        {
          "internalType": "address",
          "name": "addr",
          "type": "address"
        }
      ],
      "name": "containsBusinessContract",
      "outputs": [
        {
          "internalType": "bool",
          "name": "",
          "type": "bool"
        }
      ],
      "payable": false,
      "stateMutability": "view",
      "type": "function"
    },
    {
      "constant": true,
      "inputs": [],
      "name": "decimals",
      "outputs": [
        {
          "internalType": "uint8",
          "name": "",
          "type": "uint8"
        }
      ],
      "payable": false,
      "stateMutability": "view",
      "type": "function"
    },
    {
      "constant": true,
      "inputs": [
        {
          "internalType": "address",
          "name": "addr",
          "type": "address"
        }
      ],
      "name": "getBusinessContractId",
      "outputs": [
        {
          "internalType": "uint256",
          "name": "",
          "type": "uint256"
        }
      ],
      "payable": false,
      "stateMutability": "view",
      "type": "function"
    },
    {
      "constant": true,
      "inputs": [],
      "name": "idCount",
      "outputs": [
        {
          "internalType": "uint256",
          "name": "",
          "type": "uint256"
        }
      ],
      "payable": false,
      "stateMutability": "view",
      "type": "function"
    },
    {
      "constant": true,
      "inputs": [
        {
          "internalType": "address",
          "name": "addr",
          "type": "address"
        }
      ],
      "name": "isBusinessContractActive",
      "outputs": [
        {
          "internalType": "bool",
          "name": "",
          "type": "bool"
        }
      ],
      "payable": false,
      "stateMutability": "view",
      "type": "function"
    },
    {
      "constant": true,
      "inputs": [],
      "name": "isOwner",
      "outputs": [
        {
          "internalType": "bool",
          "name": "",
          "type": "bool"
        }
      ],
      "payable": false,
      "stateMutability": "view",
      "type": "function"
    },
    {
      "constant": true,
      "inputs": [
        {
          "internalType": "address",
          "name": "account",
          "type": "address"
        }
      ],
      "name": "isPauser",
      "outputs": [
        {
          "internalType": "bool",
          "name": "",
          "type": "bool"
        }
      ],
      "payable": false,
      "stateMutability": "view",
      "type": "function"
    },
    {
      "constant": true,
      "inputs": [],
      "name": "owner",
      "outputs": [
        {
          "internalType": "address",
          "name": "",
          "type": "address"
        }
      ],
      "payable": false,
      "stateMutability": "view",
      "type": "function"
    },
    {
      "constant": false,
      "inputs": [],
      "name": "pause",
      "outputs": [],
      "payable": false,
      "stateMutability": "nonpayable",
      "type": "function"
    },
    {
      "constant": true,
      "inputs": [],
      "name": "paused",
      "outputs": [
        {
          "internalType": "bool",
          "name": "",
          "type": "bool"
        }
      ],
      "payable": false,
      "stateMutability": "view",
      "type": "function"
    },
    {
      "constant": true,
      "inputs": [
        {
          "internalType": "uint256",
          "name": "",
          "type": "uint256"
        },
        {
          "internalType": "uint256",
          "name": "",
          "type": "uint256"
        },
        {
          "internalType": "bytes32",
          "name": "",
          "type": "bytes32"
        }
      ],
      "name": "rbbBalances",
      "outputs": [
        {
          "internalType": "uint256",
          "name": "",
          "type": "uint256"
        }
      ],
      "payable": false,
      "stateMutability": "view",
      "type": "function"
    },
    {
      "constant": false,
      "inputs": [
        {
          "internalType": "address",
          "name": "addr",
          "type": "address"
        }
      ],
      "name": "registerBusinessContract",
      "outputs": [
        {
          "internalType": "uint256",
          "name": "",
          "type": "uint256"
        }
      ],
      "payable": false,
      "stateMutability": "nonpayable",
      "type": "function"
    },
    {
      "constant": true,
      "inputs": [],
      "name": "registry",
      "outputs": [
        {
          "internalType": "contract RBBRegistry",
          "name": "",
          "type": "address"
        }
      ],
      "payable": false,
      "stateMutability": "view",
      "type": "function"
    },
    {
      "constant": false,
      "inputs": [],
      "name": "renounceOwnership",
      "outputs": [],
      "payable": false,
      "stateMutability": "nonpayable",
      "type": "function"
    },
    {
      "constant": false,
      "inputs": [],
      "name": "renouncePauser",
      "outputs": [],
      "payable": false,
      "stateMutability": "nonpayable",
      "type": "function"
    },
    {
      "constant": false,
      "inputs": [
        {
          "internalType": "address",
          "name": "addr",
          "type": "address"
        },
        {
          "internalType": "bool",
          "name": "status",
          "type": "bool"
        }
      ],
      "name": "setStatus",
      "outputs": [
        {
          "internalType": "bool",
          "name": "",
          "type": "bool"
        }
      ],
      "payable": false,
      "stateMutability": "nonpayable",
      "type": "function"
    },
    {
      "constant": false,
      "inputs": [
        {
          "internalType": "address",
          "name": "newOwner",
          "type": "address"
        }
      ],
      "name": "transferOwnership",
      "outputs": [],
      "payable": false,
      "stateMutability": "nonpayable",
      "type": "function"
    },
    {
      "constant": false,
      "inputs": [],
      "name": "unpause",
      "outputs": [],
      "payable": false,
      "stateMutability": "nonpayable",
      "type": "function"
    },
    {
      "constant": false,
      "inputs": [
        {
          "internalType": "uint256",
          "name": "toId",
          "type": "uint256"
        },
        {
          "internalType": "bytes32",
          "name": "toHash",
          "type": "bytes32"
        },
        {
          "internalType": "uint256",
          "name": "amount",
          "type": "uint256"
        }
      ],
      "name": "allocate",
      "outputs": [],
      "payable": false,
      "stateMutability": "nonpayable",
      "type": "function"
    },
    {
      "constant": false,
      "inputs": [
        {
          "internalType": "uint256",
          "name": "fromId",
          "type": "uint256"
        },
        {
          "internalType": "bytes32",
          "name": "fromHash",
          "type": "bytes32"
        },
        {
          "internalType": "uint256",
          "name": "toId",
          "type": "uint256"
        },
        {
          "internalType": "bytes32",
          "name": "toHash",
          "type": "bytes32"
        },
        {
          "internalType": "uint256",
          "name": "amount",
          "type": "uint256"
        }
      ],
      "name": "transfer",
      "outputs": [],
      "payable": false,
      "stateMutability": "nonpayable",
      "type": "function"
    },
    {
      "constant": false,
      "inputs": [
        {
          "internalType": "uint256",
          "name": "fromId",
          "type": "uint256"
        },
        {
          "internalType": "bytes32",
          "name": "fromHash",
          "type": "bytes32"
        },
        {
          "internalType": "uint256",
          "name": "amount",
          "type": "uint256"
        }
      ],
      "name": "deallocate",
      "outputs": [],
      "payable": false,
      "stateMutability": "nonpayable",
      "type": "function"
    },
    {
      "constant": false,
      "inputs": [
        {
          "internalType": "uint256",
          "name": "amount",
          "type": "uint256"
        }
      ],
      "name": "askForMint",
      "outputs": [],
      "payable": false,
      "stateMutability": "nonpayable",
      "type": "function"
    },
    {
      "constant": false,
      "inputs": [
        {
          "internalType": "address",
          "name": "businessContractAddr",
          "type": "address"
        },
        {
          "internalType": "uint256",
          "name": "amount",
          "type": "uint256"
        }
      ],
      "name": "mint",
      "outputs": [],
      "payable": false,
      "stateMutability": "nonpayable",
      "type": "function"
    },
    {
      "constant": false,
      "inputs": [
        {
          "internalType": "address",
          "name": "businessContractAddr",
          "type": "address"
        },
        {
          "internalType": "uint256",
          "name": "amount",
          "type": "uint256"
        }
      ],
      "name": "burn",
      "outputs": [],
      "payable": false,
      "stateMutability": "nonpayable",
      "type": "function"
    },
    {
      "constant": true,
      "inputs": [],
      "name": "getDecimals",
      "outputs": [
        {
          "internalType": "uint8",
          "name": "",
          "type": "uint8"
        }
      ],
      "payable": false,
      "stateMutability": "view",
      "type": "function"
    }
  ],
  "bytecode": "0x608060405260016002556002600460146101000a81548160ff021916908360ff1602179055506000600460156101000a81548160ff021916908360ff1602179055506000801b6005553480156200005557600080fd5b5060405162002f3438038062002f34833981810160405260408110156200007b57600080fd5b810190808051906020019092919080519060200190929190505050620000b6620000aa620001e560201b60201c565b620001ed60201b60201c565b6000600160006101000a81548160ff0219169083151502179055506000620000e3620001e560201b60201c565b9050806001806101000a81548173ffffffffffffffffffffffffffffffffffffffff021916908373ffffffffffffffffffffffffffffffffffffffff1602179055508073ffffffffffffffffffffffffffffffffffffffff16600073ffffffffffffffffffffffffffffffffffffffff167f8be0079c531659141344cd1fd0a4f28419497f9722a3daafe3b4186f6b6457e060405160405180910390a35081600460006101000a81548173ffffffffffffffffffffffffffffffffffffffff021916908373ffffffffffffffffffffffffffffffffffffffff16021790555080600460146101000a81548160ff021916908360ff160217905550505062000412565b600033905090565b620002088160006200024e60201b620027ae1790919060201c565b8073ffffffffffffffffffffffffffffffffffffffff167f6719d08c1888103bea251a4ed56406bd0c3e69723c8a1686e017e7bbe159b6f860405160405180910390a250565b6200026082826200033260201b60201c565b15620002d4576040517f08c379a000000000000000000000000000000000000000000000000000000000815260040180806020018281038252601f8152602001807f526f6c65733a206163636f756e7420616c72656164792068617320726f6c650081525060200191505060405180910390fd5b60018260000160008373ffffffffffffffffffffffffffffffffffffffff1673ffffffffffffffffffffffffffffffffffffffff16815260200190815260200160002060006101000a81548160ff0219169083151502179055505050565b60008073ffffffffffffffffffffffffffffffffffffffff168273ffffffffffffffffffffffffffffffffffffffff161415620003bb576040517f08c379a000000000000000000000000000000000000000000000000000000000815260040180806020018281038252602281526020018062002f126022913960400191505060405180910390fd5b8260000160008373ffffffffffffffffffffffffffffffffffffffff1673ffffffffffffffffffffffffffffffffffffffff16815260200190815260200160002060009054906101000a900460ff16905092915050565b612af080620004226000396000f3fe608060405234801561001057600080fd5b50600436106101cf5760003560e01c806382dc1ec411610104578063b304f21c116100a2578063e0a08b7311610071578063e0a08b73146107af578063e6e4623814610807578063f0141d8414610825578063f2fde38b14610849576101cf565b8063b304f21c1461064c578063c5b2f6a9146106b4578063ca1cf72d14610717578063d5219c061461076d576101cf565b80638da5cb5b116100de5780638da5cb5b146105745780638f32d59b146105be5780639ca0daed146105e05780639dc29fac146105fe576101cf565b806382dc1ec4146104ca5780638456cb591461050e57806388431f7a14610518576101cf565b806353d5f7cf116101715780636873a5041161014b5780636873a5041461042a5780636ef8d66d1461046c578063715018a6146104765780637b10399914610480576101cf565b806353d5f7cf1461037e57806359563b4b146103da5780635c975abb14610408576101cf565b8063368ce3bd116101ad578063368ce3bd146102725780633f4ba83a146102ca57806340c10f19146102d457806346fbf68e14610322576101cf565b806316b2f073146101d457806330b49983146101f8578063313ce5671461024e575b600080fd5b6101dc61088d565b604051808260ff1660ff16815260200191505060405180910390f35b6102386004803603606081101561020e57600080fd5b810190808035906020019092919080359060200190929190803590602001909291905050506108a0565b6040518082815260200191505060405180910390f35b6102566108d2565b604051808260ff1660ff16815260200191505060405180910390f35b6102b46004803603602081101561028857600080fd5b81019080803573ffffffffffffffffffffffffffffffffffffffff1690602001909291905050506108e5565b6040518082815260200191505060405180910390f35b6102d2610ae7565b005b610320600480360360408110156102ea57600080fd5b81019080803573ffffffffffffffffffffffffffffffffffffffff16906020019092919080359060200190929190505050610c55565b005b6103646004803603602081101561033857600080fd5b81019080803573ffffffffffffffffffffffffffffffffffffffff169060200190929190505050610e44565b604051808215151515815260200191505060405180910390f35b6103c06004803603602081101561039457600080fd5b81019080803573ffffffffffffffffffffffffffffffffffffffff169060200190929190505050610e61565b604051808215151515815260200191505060405180910390f35b610406600480360360208110156103f057600080fd5b8101908080359060200190929190505050610f47565b005b6104106110b2565b604051808215151515815260200191505060405180910390f35b61046a6004803603606081101561044057600080fd5b810190808035906020019092919080359060200190929190803590602001909291905050506110c9565b005b61047461122e565b005b61047e611240565b005b610488611379565b604051808273ffffffffffffffffffffffffffffffffffffffff1673ffffffffffffffffffffffffffffffffffffffff16815260200191505060405180910390f35b61050c600480360360208110156104e057600080fd5b81019080803573ffffffffffffffffffffffffffffffffffffffff16906020019092919050505061139f565b005b610516611410565b005b61055a6004803603602081101561052e57600080fd5b81019080803573ffffffffffffffffffffffffffffffffffffffff16906020019092919050505061157e565b604051808215151515815260200191505060405180910390f35b61057c61161a565b604051808273ffffffffffffffffffffffffffffffffffffffff1673ffffffffffffffffffffffffffffffffffffffff16815260200191505060405180910390f35b6105c6611643565b604051808215151515815260200191505060405180910390f35b6105e86116a1565b6040518082815260200191505060405180910390f35b61064a6004803603604081101561061457600080fd5b81019080803573ffffffffffffffffffffffffffffffffffffffff169060200190929190803590602001909291905050506116a7565b005b61069a6004803603604081101561066257600080fd5b81019080803573ffffffffffffffffffffffffffffffffffffffff1690602001909291908035151590602001909291905050506118cd565b604051808215151515815260200191505060405180910390f35b6106f6600480360360208110156106ca57600080fd5b81019080803573ffffffffffffffffffffffffffffffffffffffff169060200190929190505050611a65565b60405180838152602001821515151581526020019250505060405180910390f35b61076b600480360360a081101561072d57600080fd5b810190808035906020019092919080359060200190929190803590602001909291908035906020019092919080359060200190929190505050611a96565b005b6107ad6004803603606081101561078357600080fd5b81019080803590602001909291908035906020019092919080359060200190929190505050611ffe565b005b6107f1600480360360208110156107c557600080fd5b81019080803573ffffffffffffffffffffffffffffffffffffffff169060200190929190505050612142565b6040518082815260200191505060405180910390f35b61080f612228565b6040518082815260200191505060405180910390f35b61082d61222e565b604051808260ff1660ff16815260200191505060405180910390f35b61088b6004803603602081101561085f57600080fd5b81019080803573ffffffffffffffffffffffffffffffffffffffff169060200190929190505050612245565b005b600460159054906101000a900460ff1681565b600660205282600052604060002060205281600052604060002060205280600052604060002060009250925050505481565b600460149054906101000a900460ff1681565b60006108ef611643565b610961576040517f08c379a00000000000000000000000000000000000000000000000000000000081526004018080602001828103825260208152602001807f4f776e61626c653a2063616c6c6572206973206e6f7420746865206f776e657281525060200191505060405180910390fd5b61096a8261157e565b156109dd576040517f08c379a00000000000000000000000000000000000000000000000000000000081526004018080602001828103825260178152602001807f436f6e747261746f206ac3a1207265676973747261646f00000000000000000081525060200191505060405180910390fd5b6040518060400160405280600254815260200160011515815250600360008473ffffffffffffffffffffffffffffffffffffffff1673ffffffffffffffffffffffffffffffffffffffff1681526020019081526020016000206000820151816000015560208201518160010160006101000a81548160ff0219169083151502179055509050507fa22f5616b644041e8b44d688b08bf9f26634f60aa7c34d988147fec254badb4660025483604051808381526020018273ffffffffffffffffffffffffffffffffffffffff1673ffffffffffffffffffffffffffffffffffffffff1681526020019250505060405180910390a1600260008154809291906001019190505550919050565b610af7610af26122cb565b610e44565b610b4c576040517f08c379a00000000000000000000000000000000000000000000000000000000081526004018080602001828103825260308152602001806128a66030913960400191505060405180910390fd5b600160009054906101000a900460ff16610bce576040517f08c379a00000000000000000000000000000000000000000000000000000000081526004018080602001828103825260148152602001807f5061757361626c653a206e6f742070617573656400000000000000000000000081525060200191505060405180910390fd5b6000600160006101000a81548160ff0219169083151502179055507f5db9ee0a495bf2e6ff9c91a7834c1ba4fdd244a5e8aa4e537bd38aeae4b073aa610c126122cb565b604051808273ffffffffffffffffffffffffffffffffffffffff1673ffffffffffffffffffffffffffffffffffffffff16815260200191505060405180910390a1565b610c5d611643565b610ccf576040517f08c379a00000000000000000000000000000000000000000000000000000000081526004018080602001828103825260208152602001807f4f776e61626c653a2063616c6c6572206973206e6f7420746865206f776e657281525060200191505060405180910390fd5b610cd882610e61565b610d4a576040517f08c379a000000000000000000000000000000000000000000000000000000000815260040180806020018281038252601c8152602001807f436f6e747261746f207072656369736120657374617220617469766f0000000081525060200191505060405180910390fd5b6000610d5583612142565b9050610db382600660008481526020019081526020016000206000600460159054906101000a900460ff1660ff16815260200190815260200160002060006005548152602001908152602001600020546122d390919063ffffffff16565b600660008381526020019081526020016000206000600460159054906101000a900460ff1660ff16815260200190815260200160002060006005548152602001908152602001600020819055507f2675afe9351d52cfb5e67e69d355234962a118578f08ed9b752e9182ba45b7a28183604051808381526020018281526020019250505060405180910390a1505050565b6000610e5a82600061235b90919063ffffffff16565b9050919050565b6000610e6c8261157e565b610ec1576040517f08c379a00000000000000000000000000000000000000000000000000000000081526004018080602001828103825260228152602001806129316022913960400191505060405180910390fd5b610ec9612889565b600360008473ffffffffffffffffffffffffffffffffffffffff1673ffffffffffffffffffffffffffffffffffffffff168152602001908152602001600020604051806040016040529081600082015481526020016001820160009054906101000a900460ff16151515158152505090508060200151915050919050565b610f503361157e565b610fa5576040517f08c379a000000000000000000000000000000000000000000000000000000000815260040180806020018281038252604c815260200180612974604c913960600191505060405180910390fd5b610fae33610e61565b611003576040517f08c379a000000000000000000000000000000000000000000000000000000000815260040180806020018281038252603b815260200180612a1a603b913960400191505060405180910390fd5b6000811161105c576040517f08c379a00000000000000000000000000000000000000000000000000000000081526004018080602001828103825260358152602001806128fc6035913960400191505060405180910390fd5b6000339050600061106c82612142565b90507f663d75767bd700082ffab70ea55e0e3044fefe296f536958a655b250ecc4efb18184604051808381526020018281526020019250505060405180910390a1505050565b6000600160009054906101000a900460ff16905090565b600160009054906101000a900460ff161561114c576040517f08c379a00000000000000000000000000000000000000000000000000000000081526004018080602001828103825260108152602001807f5061757361626c653a207061757365640000000000000000000000000000000081525060200191505060405180910390fd5b6111553361157e565b6111aa576040517f08c379a000000000000000000000000000000000000000000000000000000000815260040180806020018281038252604c815260200180612974604c913960600191505060405180910390fd5b6111b333610e61565b611208576040517f08c379a000000000000000000000000000000000000000000000000000000000815260040180806020018281038252603b815260200180612a1a603b913960400191505060405180910390fd5b611229600460159054906101000a900460ff1660ff16600554858585611a96565b505050565b61123e6112396122cb565b612439565b565b611248611643565b6112ba576040517f08c379a00000000000000000000000000000000000000000000000000000000081526004018080602001828103825260208152602001807f4f776e61626c653a2063616c6c6572206973206e6f7420746865206f776e657281525060200191505060405180910390fd5b600073ffffffffffffffffffffffffffffffffffffffff166001809054906101000a900473ffffffffffffffffffffffffffffffffffffffff1673ffffffffffffffffffffffffffffffffffffffff167f8be0079c531659141344cd1fd0a4f28419497f9722a3daafe3b4186f6b6457e060405160405180910390a360006001806101000a81548173ffffffffffffffffffffffffffffffffffffffff021916908373ffffffffffffffffffffffffffffffffffffffff160217905550565b600460009054906101000a900473ffffffffffffffffffffffffffffffffffffffff1681565b6113af6113aa6122cb565b610e44565b611404576040517f08c379a00000000000000000000000000000000000000000000000000000000081526004018080602001828103825260308152602001806128a66030913960400191505060405180910390fd5b61140d81612493565b50565b61142061141b6122cb565b610e44565b611475576040517f08c379a00000000000000000000000000000000000000000000000000000000081526004018080602001828103825260308152602001806128a66030913960400191505060405180910390fd5b600160009054906101000a900460ff16156114f8576040517f08c379a00000000000000000000000000000000000000000000000000000000081526004018080602001828103825260108152602001807f5061757361626c653a207061757365640000000000000000000000000000000081525060200191505060405180910390fd5b60018060006101000a81548160ff0219169083151502179055507f62e78cea01bee320cd4e420270b5ea74000d11b0c9f74754ebdbfc544b05a25861153b6122cb565b604051808273ffffffffffffffffffffffffffffffffffffffff1673ffffffffffffffffffffffffffffffffffffffff16815260200191505060405180910390a1565b6000611588612889565b600360008473ffffffffffffffffffffffffffffffffffffffff1673ffffffffffffffffffffffffffffffffffffffff168152602001908152602001600020604051806040016040529081600082015481526020016001820160009054906101000a900460ff1615151515815250509050600081600001511461160f576001915050611615565b60009150505b919050565b60006001809054906101000a900473ffffffffffffffffffffffffffffffffffffffff16905090565b60006001809054906101000a900473ffffffffffffffffffffffffffffffffffffffff1673ffffffffffffffffffffffffffffffffffffffff166116856122cb565b73ffffffffffffffffffffffffffffffffffffffff1614905090565b60055481565b6116af611643565b611721576040517f08c379a00000000000000000000000000000000000000000000000000000000081526004018080602001828103825260208152602001807f4f776e61626c653a2063616c6c6572206973206e6f7420746865206f776e657281525060200191505060405180910390fd5b61172a82610e61565b61179c576040517f08c379a000000000000000000000000000000000000000000000000000000000815260040180806020018281038252601c8152602001807f436f6e747261746f207072656369736120657374617220617469766f0000000081525060200191505060405180910390fd5b60006117a783612142565b905061183c826040518060400160405280601b81526020017f4275726e20616d6f756e7420657863656564732062616c616e63650000000000815250600660008581526020019081526020016000206000600460159054906101000a900460ff1660ff16815260200190815260200160002060006005548152602001908152602001600020546124ed9092919063ffffffff16565b600660008381526020019081526020016000206000600460159054906101000a900460ff1660ff16815260200190815260200160002060006005548152602001908152602001600020819055507fa63bdbe93bc807572f07ad2d679e8014207ae350e900ca803c6b192b2c5864d08183604051808381526020018281526020019250505060405180910390a1505050565b60006118d7611643565b611949576040517f08c379a00000000000000000000000000000000000000000000000000000000081526004018080602001828103825260208152602001807f4f776e61626c653a2063616c6c6572206973206e6f7420746865206f776e657281525060200191505060405180910390fd5b6119528361157e565b6119a7576040517f08c379a00000000000000000000000000000000000000000000000000000000081526004018080602001828103825260228152602001806129316022913960400191505060405180910390fd5b6000600360008573ffffffffffffffffffffffffffffffffffffffff1673ffffffffffffffffffffffffffffffffffffffff1681526020019081526020016000209050828160010160006101000a81548160ff0219169083151502179055507f28a61818d188a7856821431ff0deb7650c2cc34ee4b7b97616a415fa0a3dfeff81600001548260010160009054906101000a900460ff1660405180838152602001821515151581526020019250505060405180910390a15092915050565b60036020528060005260406000206000915090508060000154908060010160009054906101000a900460ff16905082565b600160009054906101000a900460ff1615611b19576040517f08c379a00000000000000000000000000000000000000000000000000000000081526004018080602001828103825260108152602001807f5061757361626c653a207061757365640000000000000000000000000000000081525060200191505060405180910390fd5b611b223361157e565b611b77576040517f08c379a000000000000000000000000000000000000000000000000000000000815260040180806020018281038252604c815260200180612974604c913960600191505060405180910390fd5b611b8033610e61565b611bd5576040517f08c379a000000000000000000000000000000000000000000000000000000000815260040180806020018281038252603b815260200180612a1a603b913960400191505060405180910390fd5b60008111611c2e576040517f08c379a00000000000000000000000000000000000000000000000000000000081526004018080602001828103825260358152602001806128fc6035913960400191505060405180910390fd5b60003390506000611c3e82612142565b9050600460159054906101000a900460ff1660ff168714611d5d57600460009054906101000a900473ffffffffffffffffffffffffffffffffffffffff1673ffffffffffffffffffffffffffffffffffffffff1663613a7896886040518263ffffffff1660e01b81526004018082815260200191505060206040518083038186803b158015611ccc57600080fd5b505afa158015611ce0573d6000803e3d6000fd5b505050506040513d6020811015611cf657600080fd5b8101908080519060200190929190505050611d5c576040517f08c379a0000000000000000000000000000000000000000000000000000000008152600401808060200182810382526033815260200180612a556033913960400191505060405180910390fd5b5b600460159054906101000a900460ff1660ff168514611e7a57600460009054906101000a900473ffffffffffffffffffffffffffffffffffffffff1673ffffffffffffffffffffffffffffffffffffffff1663613a7896866040518263ffffffff1660e01b81526004018082815260200191505060206040518083038186803b158015611de957600080fd5b505afa158015611dfd573d6000803e3d6000fd5b505050506040513d6020811015611e1357600080fd5b8101908080519060200190929190505050611e79576040517f08c379a0000000000000000000000000000000000000000000000000000000008152600401808060200182810382526034815260200180612a886034913960400191505060405180910390fd5b5b611edc836040518060600160405280603881526020016129e2603891396006600085815260200190815260200160002060008b815260200190815260200160002060008a8152602001908152602001600020546124ed9092919063ffffffff16565b600660008381526020019081526020016000206000898152602001908152602001600020600088815260200190815260200160002081905550611f5d836006600084815260200190815260200160002060008881526020019081526020016000206000878152602001908152602001600020546122d390919063ffffffff16565b6006600083815260200190815260200160002060008781526020019081526020016000206000868152602001908152602001600020819055507ff204b88e182e4c89175e0fe7356c473c56e0c4ca1e541334670899bf09e50cda81888888888860405180878152602001868152602001858152602001848152602001838152602001828152602001965050505050505060405180910390a150505050505050565b600160009054906101000a900460ff1615612081576040517f08c379a00000000000000000000000000000000000000000000000000000000081526004018080602001828103825260108152602001807f5061757361626c653a207061757365640000000000000000000000000000000081525060200191505060405180910390fd5b61208a3361157e565b6120df576040517f08c379a000000000000000000000000000000000000000000000000000000000815260040180806020018281038252604c815260200180612974604c913960600191505060405180910390fd5b6120e833610e61565b61213d576040517f08c379a000000000000000000000000000000000000000000000000000000000815260040180806020018281038252603b815260200180612a1a603b913960400191505060405180910390fd5b505050565b600061214d8261157e565b6121a2576040517f08c379a00000000000000000000000000000000000000000000000000000000081526004018080602001828103825260228152602001806129316022913960400191505060405180910390fd5b6121aa612889565b600360008473ffffffffffffffffffffffffffffffffffffffff1673ffffffffffffffffffffffffffffffffffffffff168152602001908152602001600020604051806040016040529081600082015481526020016001820160009054906101000a900460ff16151515158152505090508060000151915050919050565b60025481565b6000600460149054906101000a900460ff16905090565b61224d611643565b6122bf576040517f08c379a00000000000000000000000000000000000000000000000000000000081526004018080602001828103825260208152602001807f4f776e61626c653a2063616c6c6572206973206e6f7420746865206f776e657281525060200191505060405180910390fd5b6122c8816125ad565b50565b600033905090565b600080828401905083811015612351576040517f08c379a000000000000000000000000000000000000000000000000000000000815260040180806020018281038252601b8152602001807f536166654d6174683a206164646974696f6e206f766572666c6f77000000000081525060200191505060405180910390fd5b8091505092915050565b60008073ffffffffffffffffffffffffffffffffffffffff168273ffffffffffffffffffffffffffffffffffffffff1614156123e2576040517f08c379a00000000000000000000000000000000000000000000000000000000081526004018080602001828103825260228152602001806129c06022913960400191505060405180910390fd5b8260000160008373ffffffffffffffffffffffffffffffffffffffff1673ffffffffffffffffffffffffffffffffffffffff16815260200190815260200160002060009054906101000a900460ff16905092915050565b61244d8160006126f190919063ffffffff16565b8073ffffffffffffffffffffffffffffffffffffffff167fcd265ebaf09df2871cc7bd4133404a235ba12eff2041bb89d9c714a2621c7c7e60405160405180910390a250565b6124a78160006127ae90919063ffffffff16565b8073ffffffffffffffffffffffffffffffffffffffff167f6719d08c1888103bea251a4ed56406bd0c3e69723c8a1686e017e7bbe159b6f860405160405180910390a250565b600083831115829061259a576040517f08c379a00000000000000000000000000000000000000000000000000000000081526004018080602001828103825283818151815260200191508051906020019080838360005b8381101561255f578082015181840152602081019050612544565b50505050905090810190601f16801561258c5780820380516001836020036101000a031916815260200191505b509250505060405180910390fd5b5060008385039050809150509392505050565b600073ffffffffffffffffffffffffffffffffffffffff168173ffffffffffffffffffffffffffffffffffffffff161415612633576040517f08c379a00000000000000000000000000000000000000000000000000000000081526004018080602001828103825260268152602001806128d66026913960400191505060405180910390fd5b8073ffffffffffffffffffffffffffffffffffffffff166001809054906101000a900473ffffffffffffffffffffffffffffffffffffffff1673ffffffffffffffffffffffffffffffffffffffff167f8be0079c531659141344cd1fd0a4f28419497f9722a3daafe3b4186f6b6457e060405160405180910390a3806001806101000a81548173ffffffffffffffffffffffffffffffffffffffff021916908373ffffffffffffffffffffffffffffffffffffffff16021790555050565b6126fb828261235b565b612750576040517f08c379a00000000000000000000000000000000000000000000000000000000081526004018080602001828103825260218152602001806129536021913960400191505060405180910390fd5b60008260000160008373ffffffffffffffffffffffffffffffffffffffff1673ffffffffffffffffffffffffffffffffffffffff16815260200190815260200160002060006101000a81548160ff0219169083151502179055505050565b6127b8828261235b565b1561282b576040517f08c379a000000000000000000000000000000000000000000000000000000000815260040180806020018281038252601f8152602001807f526f6c65733a206163636f756e7420616c72656164792068617320726f6c650081525060200191505060405180910390fd5b60018260000160008373ffffffffffffffffffffffffffffffffffffffff1673ffffffffffffffffffffffffffffffffffffffff16815260200190815260200160002060006101000a81548160ff0219169083151502179055505050565b604051806040016040528060008152602001600015158152509056fe506175736572526f6c653a2063616c6c657220646f6573206e6f742068617665207468652050617573657220726f6c654f776e61626c653a206e6577206f776e657220697320746865207a65726f206164647265737356616c6f72206120736572207472616e736163696f6e61646f206465766520736572206d61696f7220646f20717565207a65726f2e436f6e747261746f206465206e65676f63696f206e616f207265676973747261646f526f6c65733a206163636f756e7420646f6573206e6f74206861766520726f6c654dc3a9746f646f2073c3b320706f646520736572206368616d61646f20706f7220636f6e747261746f206465206e6567c3b363696f207072657669616d656e7465206361646173747261646f526f6c65733a206163636f756e7420697320746865207a65726f206164647265737353616c646f206461206f726967656d206ec3a36f20c3a920737566696369656e746520706172612061207472616e73666572c3aa6e6369614dc3a9746f646f2073c3b320706f646520736572206368616d61646f20706f7220636f6e747261746f206465206e6567c3b363696f20617469766f436f6e7461206465206f726967656d207072656369736120657374617220636f6d20636164617374726f2076616c696461646f436f6e74612064652064657374696e6f207072656369736120657374617220636f6d20636164617374726f2076616c696461646fa265627a7a72315820751b422e6d9616e491278f8ebff1ac48d19756568465981e8565c4e5c044cb3164736f6c63430005100032526f6c65733a206163636f756e7420697320746865207a65726f2061646472657373",
  "source": "pragma solidity ^0.5.0;\n\nimport \"./RBBLib.sol\";\nimport \"./RBBRegistry.sol\";\nimport \"@openzeppelin/contracts/ownership/Ownable.sol\";\nimport \"@openzeppelin/contracts/lifecycle/Pausable.sol\";\nimport \"@openzeppelin/contracts/math/SafeMath.sol\";\n\n    \ncontract BusinessContractRegistry is Ownable {\n\n    //It starts with 1, because 0 is the id value returned when the item is not found in the businessContractsRegistry\n    uint public idCount = 1;\n\n    struct BusinessContractInfo {\n        uint id;\n        bool isActive;\n    }\n\n    event BusinessContractRegistration (uint id, address addr);\n    event BusinessContractStateChange (uint id, bool state);\n\n    //indexado pelo address pq serah a forma mais usada para consulta.\n    mapping (address => BusinessContractInfo) public businessContractsRegistry;\n\n    modifier onlyByRegisteredAndActiveContracts {\n        require(containsBusinessContract(msg.sender), \"Mtodo s pode ser chamado por contrato de negcio previamente cadastrado\");\n        require(isBusinessContractActive(msg.sender), \"Mtodo s pode ser chamado por contrato de negcio ativo\");\n        _;\n    }\n\n    function registerBusinessContract (address addr) public onlyOwner returns (uint)  {\n        require (!containsBusinessContract(addr), \"Contrato j registrado\");\n        businessContractsRegistry[addr] = BusinessContractInfo(idCount, true);\n        emit BusinessContractRegistration (idCount, addr);\n        idCount++;\n    }\n\n    function getBusinessContractId (address addr) public view returns (uint) {\n        require (containsBusinessContract(addr), \"Contrato de negocio nao registrado\");\n        BusinessContractInfo memory info = businessContractsRegistry[addr];\n        return info.id;\n    }\n    \n    function containsBusinessContract(address addr) public view returns (bool) {\n        BusinessContractInfo memory info = businessContractsRegistry[addr];\n        if (info.id!=0) return true;\n        else return false;\n    }\n\n    function isBusinessContractActive(address addr) public view returns (bool) {\n        require (containsBusinessContract(addr), \"Contrato de negocio nao registrado\");\n        BusinessContractInfo memory info = businessContractsRegistry[addr];\n        return info.isActive;\n    }\n\n    function setStatus(address addr, bool status) public onlyOwner returns (bool) {\n        require (containsBusinessContract(addr), \"Contrato de negocio nao registrado\");\n        BusinessContractInfo storage info = businessContractsRegistry[addr];\n        info.isActive = status;\n        emit BusinessContractStateChange(info.id, info.isActive);\n    }\n}\n\n//TODO: pensar - se precisasse fazer upgrade de um contrato, seria somente registrar um contrato com id do anterior. Criar um metodo para facilitar isso para facilitar o cdigo de mudanas?\ncontract RBBToken is Pausable, BusinessContractRegistry {\n\n    using SafeMath for uint;\n\n    RBBRegistry public registry;\n\n    uint8 public decimals = 2;\n    uint8 public RESERVED_ID_VALUE = 0;\n    bytes32 public RESERVED_HASH_VALUE = 0x0000000000000000000000000000000000000000000000000000000000000000;\n\n    //businessContractId => (RBBid => (specificHash => amount)\n    mapping (uint => mapping (uint => mapping (bytes32 => uint))) public rbbBalances;\n\n    event RBBMintRequest(uint businessContractId, uint amount);\n    event RBBTokenMint(uint businessContractId, uint amount);\n    event RBBTokenBurn(uint businessContractId, uint amount);\n    event RBBTokenTransfer (uint businessContractId, uint fromId, bytes32 fromHash, uint toId,\n                            bytes32 toHash, uint amount);\n\n\n    constructor (address newRegistryAddr, uint8 _decimals) public {\n        registry = RBBRegistry(newRegistryAddr);\n        decimals = _decimals;\n    }\n\n    function allocate (uint toId, bytes32 toHash, uint amount) public \n        whenNotPaused onlyByRegisteredAndActiveContracts {\n            transfer(RESERVED_ID_VALUE, RESERVED_HASH_VALUE, toId, toHash, amount);\n    }\n\n\n//TODO: avaliar se deve incluir um objeto genrico para registrar informacoes (ou deixa apenas nos contratos especificos)\n    function transfer (uint fromId, bytes32 fromHash, uint toId, bytes32 toHash, uint amount)\n                        public whenNotPaused onlyByRegisteredAndActiveContracts {\n\n        require (amount>0, \"Valor a ser transacionado deve ser maior do que zero.\");\n        address businessContractAddr = msg.sender;\n        uint businessContractId = getBusinessContractId(businessContractAddr);\n\n        if (fromId!=RESERVED_ID_VALUE) {\n            require(registry.isValidatedId(fromId), \"Conta de origem precisa estar com cadastro validado\");\n        }\n        if (toId!=RESERVED_ID_VALUE) {\n            require(registry.isValidatedId(toId), \"Conta de destino precisa estar com cadastro validado\");\n        }\n\n        //altera valores de saldo\n        rbbBalances[businessContractId][fromId][fromHash] =\n                rbbBalances[businessContractId][fromId][fromHash].sub(amount, \"Saldo da origem no  suficiente para a transferncia\");\n        rbbBalances[businessContractId][toId][toHash] = rbbBalances[businessContractId][toId][toHash].add(amount);\n\n        emit RBBTokenTransfer (businessContractId, fromId, fromHash, toId, toHash, amount);\n    }\n\n    function deallocate (uint fromId, bytes32 fromHash, uint amount) public \n        whenNotPaused onlyByRegisteredAndActiveContracts {\n//queima?\n//Nao volta para reserva. Apenas queima?\n//            transfer(fromId, fromHash, RESERVED_ID_VALUE, RESERVED_HASH_VALUE, amount;\n    }\n\n    function askForMint(uint amount) public onlyByRegisteredAndActiveContracts {\n    \n        require (amount>0, \"Valor a ser transacionado deve ser maior do que zero.\");\n        address businessContractAddr = msg.sender;\n        uint businessContractId = getBusinessContractId(businessContractAddr);\n    \n    //precisa guardar em uma estrutuda de dados?\n        emit RBBMintRequest(businessContractId, amount);\n\n    }\n\n    //whenNotPaused?\n    //poderah tambem ser chamada por contratos autorizados\n    function mint(address businessContractAddr, uint amount) public onlyOwner {\n\n        require(isBusinessContractActive(businessContractAddr), \"Contrato precisa estar ativo\");\n        uint businessContractId = getBusinessContractId(businessContractAddr);\n        rbbBalances[businessContractId][RESERVED_ID_VALUE][RESERVED_HASH_VALUE] = \n            rbbBalances[businessContractId][RESERVED_ID_VALUE][RESERVED_HASH_VALUE].add(amount);\n        emit RBBTokenMint(businessContractId, amount);\n        \n    }\n\n    //whenNotPaused?\n    function burn (address businessContractAddr, uint amount) public onlyOwner {\n        \n        require(isBusinessContractActive(businessContractAddr), \"Contrato precisa estar ativo\");\n        uint businessContractId = getBusinessContractId(businessContractAddr);\n        rbbBalances[businessContractId][RESERVED_ID_VALUE][RESERVED_HASH_VALUE] = \n            rbbBalances[businessContractId][RESERVED_ID_VALUE][RESERVED_HASH_VALUE].sub(amount, \"Burn amount exceeds balance\");\n        emit RBBTokenBurn(businessContractId, amount);\n    }\n\n/*    \n    function getReservedBalanceByBusinessContract(address businessContractAddr) view public returns (uint) {\n        uint businessContractId = getBusinessContractId(businessContractAddr);\n        return rbbBalances[businessContractId][RESERVED_ID_VALUE][RESERVED_HASH_VALUE];\n    }\n*/\n    function getDecimals() public view returns (uint8) {\n        return decimals;\n    }\n\n}",
  "sourcePath": "/Users/suzana.moreno/workspace/rbb-token/Back-Blockchain/contracts/RBBToken.sol",
  "compiler": {
    "name": "solc",
    "version": "0.5.16+commit.9c3226ce.Emscripten.clang"
  },
  "schemaVersion": "3.0.23",
  "updatedAt": "2020-08-24T16:39:54.467Z",
  "devdoc": {
    "methods": {
      "isOwner()": {
        "details": "Returns true if the caller is the current owner."
      },
      "owner()": {
        "details": "Returns the address of the current owner."
      },
      "pause()": {
        "details": "Called by a pauser to pause, triggers stopped state."
      },
      "paused()": {
        "details": "Returns true if the contract is paused, and false otherwise."
      },
      "renounceOwnership()": {
        "details": "Leaves the contract without owner. It will not be possible to call `onlyOwner` functions anymore. Can only be called by the current owner.     * NOTE: Renouncing ownership will leave the contract without an owner, thereby removing any functionality that is only available to the owner."
      },
      "transferOwnership(address)": {
        "details": "Transfers ownership of the contract to a new account (`newOwner`). Can only be called by the current owner."
      },
      "unpause()": {
        "details": "Called by a pauser to unpause, returns to normal state."
      }
    }
  },
  "userdoc": {
    "methods": {}
  }
}