{
  "contractName": "RBBToken",
  "abi": [
    {
      "inputs": [
        {
          "internalType": "address",
          "name": "newRegistryAddr",
          "type": "address"
        },
        {
          "internalType": "uint8",
          "name": "_decimals",
          "type": "uint8"
        }
      ],
      "payable": false,
      "stateMutability": "nonpayable",
      "type": "constructor"
    },
    {
      "anonymous": false,
      "inputs": [
        {
          "indexed": false,
          "internalType": "uint256",
          "name": "id",
          "type": "uint256"
        },
        {
          "indexed": false,
          "internalType": "uint256",
          "name": "ownerId",
          "type": "uint256"
        },
        {
          "indexed": false,
          "internalType": "address",
          "name": "addr",
          "type": "address"
        }
      ],
      "name": "BusinessContractRegistration",
      "type": "event"
    },
    {
      "anonymous": false,
      "inputs": [
        {
          "indexed": false,
          "internalType": "uint256",
          "name": "id",
          "type": "uint256"
        },
        {
          "indexed": false,
          "internalType": "bool",
          "name": "state",
          "type": "bool"
        }
      ],
      "name": "BusinessContractStateChange",
      "type": "event"
    },
    {
      "anonymous": false,
      "inputs": [
        {
          "indexed": true,
          "internalType": "address",
          "name": "previousOwner",
          "type": "address"
        },
        {
          "indexed": true,
          "internalType": "address",
          "name": "newOwner",
          "type": "address"
        }
      ],
      "name": "OwnershipTransferred",
      "type": "event"
    },
    {
      "anonymous": false,
      "inputs": [
        {
          "indexed": false,
          "internalType": "address",
          "name": "account",
          "type": "address"
        }
      ],
      "name": "Paused",
      "type": "event"
    },
    {
      "anonymous": false,
      "inputs": [
        {
          "indexed": true,
          "internalType": "address",
          "name": "account",
          "type": "address"
        }
      ],
      "name": "PauserAdded",
      "type": "event"
    },
    {
      "anonymous": false,
      "inputs": [
        {
          "indexed": true,
          "internalType": "address",
          "name": "account",
          "type": "address"
        }
      ],
      "name": "PauserRemoved",
      "type": "event"
    },
    {
      "anonymous": false,
      "inputs": [
        {
          "indexed": false,
          "internalType": "address",
          "name": "businessContractAddr",
          "type": "address"
        },
        {
          "indexed": false,
          "internalType": "uint256",
          "name": "amount",
          "type": "uint256"
        }
      ],
      "name": "RBBMintRequest",
      "type": "event"
    },
    {
      "anonymous": false,
      "inputs": [
        {
          "indexed": false,
          "internalType": "address",
          "name": "businessContractAddr",
          "type": "address"
        },
        {
          "indexed": false,
          "internalType": "uint256",
          "name": "fromId",
          "type": "uint256"
        },
        {
          "indexed": false,
          "internalType": "bytes32",
          "name": "fromHash",
          "type": "bytes32"
        },
        {
          "indexed": false,
          "internalType": "uint256",
          "name": "amount",
          "type": "uint256"
        }
      ],
      "name": "RBBRedemptionRequested",
      "type": "event"
    },
    {
      "anonymous": false,
      "inputs": [
        {
          "indexed": false,
          "internalType": "address",
          "name": "businessContractAddr",
          "type": "address"
        },
        {
          "indexed": false,
          "internalType": "string",
          "name": "redemptionTransactionHash",
          "type": "string"
        },
        {
          "indexed": false,
          "internalType": "string",
          "name": "receiptHash",
          "type": "string"
        }
      ],
      "name": "RBBRedemptionSettlement",
      "type": "event"
    },
    {
      "anonymous": false,
      "inputs": [
        {
          "indexed": false,
          "internalType": "address",
          "name": "businessContractAddr",
          "type": "address"
        },
        {
          "indexed": false,
          "internalType": "uint256",
          "name": "amount",
          "type": "uint256"
        }
      ],
      "name": "RBBTokenBurn",
      "type": "event"
    },
    {
      "anonymous": false,
      "inputs": [
        {
          "indexed": false,
          "internalType": "address",
          "name": "businessContractAddr",
          "type": "address"
        },
        {
          "indexed": false,
          "internalType": "uint256",
          "name": "amount",
          "type": "uint256"
        }
      ],
      "name": "RBBTokenMint",
      "type": "event"
    },
    {
      "anonymous": false,
      "inputs": [
        {
          "indexed": false,
          "internalType": "address",
          "name": "businessContractAddr",
          "type": "address"
        },
        {
          "indexed": false,
          "internalType": "uint256",
          "name": "fromId",
          "type": "uint256"
        },
        {
          "indexed": false,
          "internalType": "bytes32",
          "name": "fromHash",
          "type": "bytes32"
        },
        {
          "indexed": false,
          "internalType": "uint256",
          "name": "toId",
          "type": "uint256"
        },
        {
          "indexed": false,
          "internalType": "bytes32",
          "name": "toHash",
          "type": "bytes32"
        },
        {
          "indexed": false,
          "internalType": "uint256",
          "name": "amount",
          "type": "uint256"
        }
      ],
      "name": "RBBTokenTransfer",
      "type": "event"
    },
    {
      "anonymous": false,
      "inputs": [
        {
          "indexed": false,
          "internalType": "address",
          "name": "account",
          "type": "address"
        }
      ],
      "name": "Unpaused",
      "type": "event"
    },
    {
      "constant": true,
      "inputs": [],
      "name": "RESERVED_HASH_VALUE",
      "outputs": [
        {
          "internalType": "bytes32",
          "name": "",
          "type": "bytes32"
        }
      ],
      "payable": false,
      "stateMutability": "view",
      "type": "function"
    },
    {
      "constant": false,
      "inputs": [
        {
          "internalType": "address",
          "name": "account",
          "type": "address"
        }
      ],
      "name": "addPauser",
      "outputs": [],
      "payable": false,
      "stateMutability": "nonpayable",
      "type": "function"
    },
    {
      "constant": true,
      "inputs": [
        {
          "internalType": "uint256",
          "name": "",
          "type": "uint256"
        },
        {
          "internalType": "bytes32",
          "name": "",
          "type": "bytes32"
        }
      ],
      "name": "balanceTokensToMint",
      "outputs": [
        {
          "internalType": "uint256",
          "name": "",
          "type": "uint256"
        }
      ],
      "payable": false,
      "stateMutability": "view",
      "type": "function"
    },
    {
      "constant": true,
      "inputs": [
        {
          "internalType": "address",
          "name": "",
          "type": "address"
        }
      ],
      "name": "businessContractsRegistry",
      "outputs": [
        {
          "internalType": "uint256",
          "name": "id",
          "type": "uint256"
        },
        {
          "internalType": "uint256",
          "name": "ownerId",
          "type": "uint256"
        },
        {
          "internalType": "bool",
          "name": "isActive",
          "type": "bool"
        }
      ],
      "payable": false,
      "stateMutability": "view",
      "type": "function"
    },
    {
      "constant": true,
      "inputs": [
        {
          "internalType": "address",
          "name": "addr",
          "type": "address"
        }
      ],
      "name": "containsBusinessContract",
      "outputs": [
        {
          "internalType": "bool",
          "name": "",
          "type": "bool"
        }
      ],
      "payable": false,
      "stateMutability": "view",
      "type": "function"
    },
    {
      "constant": true,
      "inputs": [],
      "name": "decimals",
      "outputs": [
        {
          "internalType": "uint8",
          "name": "",
          "type": "uint8"
        }
      ],
      "payable": false,
      "stateMutability": "view",
      "type": "function"
    },
    {
      "constant": true,
      "inputs": [
        {
          "internalType": "address",
          "name": "addr",
          "type": "address"
        }
      ],
      "name": "getBusinessContractId",
      "outputs": [
        {
          "internalType": "uint256",
          "name": "",
          "type": "uint256"
        }
      ],
      "payable": false,
      "stateMutability": "view",
      "type": "function"
    },
    {
      "constant": true,
      "inputs": [
        {
          "internalType": "address",
          "name": "addr",
          "type": "address"
        }
      ],
      "name": "getBusinessContractIdAndOwnerId",
      "outputs": [
        {
          "internalType": "uint256",
          "name": "",
          "type": "uint256"
        },
        {
          "internalType": "uint256",
          "name": "",
          "type": "uint256"
        }
      ],
      "payable": false,
      "stateMutability": "view",
      "type": "function"
    },
    {
      "constant": true,
      "inputs": [],
      "name": "idCount",
      "outputs": [
        {
          "internalType": "uint256",
          "name": "",
          "type": "uint256"
        }
      ],
      "payable": false,
      "stateMutability": "view",
      "type": "function"
    },
    {
      "constant": true,
      "inputs": [
        {
          "internalType": "address",
          "name": "addr",
          "type": "address"
        }
      ],
      "name": "isBusinessContractActive",
      "outputs": [
        {
          "internalType": "bool",
          "name": "",
          "type": "bool"
        }
      ],
      "payable": false,
      "stateMutability": "view",
      "type": "function"
    },
    {
      "constant": true,
      "inputs": [],
      "name": "isOwner",
      "outputs": [
        {
          "internalType": "bool",
          "name": "",
          "type": "bool"
        }
      ],
      "payable": false,
      "stateMutability": "view",
      "type": "function"
    },
    {
      "constant": true,
      "inputs": [
        {
          "internalType": "address",
          "name": "account",
          "type": "address"
        }
      ],
      "name": "isPauser",
      "outputs": [
        {
          "internalType": "bool",
          "name": "",
          "type": "bool"
        }
      ],
      "payable": false,
      "stateMutability": "view",
      "type": "function"
    },
    {
      "constant": true,
      "inputs": [],
      "name": "owner",
      "outputs": [
        {
          "internalType": "address",
          "name": "",
          "type": "address"
        }
      ],
      "payable": false,
      "stateMutability": "view",
      "type": "function"
    },
    {
      "constant": false,
      "inputs": [],
      "name": "pause",
      "outputs": [],
      "payable": false,
      "stateMutability": "nonpayable",
      "type": "function"
    },
    {
      "constant": true,
      "inputs": [],
      "name": "paused",
      "outputs": [
        {
          "internalType": "bool",
          "name": "",
          "type": "bool"
        }
      ],
      "payable": false,
      "stateMutability": "view",
      "type": "function"
    },
    {
      "constant": true,
      "inputs": [
        {
          "internalType": "uint256",
          "name": "",
          "type": "uint256"
        },
        {
          "internalType": "uint256",
          "name": "",
          "type": "uint256"
        },
        {
          "internalType": "bytes32",
          "name": "",
          "type": "bytes32"
        }
      ],
      "name": "rbbBalances",
      "outputs": [
        {
          "internalType": "uint256",
          "name": "",
          "type": "uint256"
        }
      ],
      "payable": false,
      "stateMutability": "view",
      "type": "function"
    },
    {
      "constant": false,
      "inputs": [
        {
          "internalType": "address",
          "name": "businessContractAddr",
          "type": "address"
        },
        {
          "internalType": "uint256",
          "name": "ownerId",
          "type": "uint256"
        }
      ],
      "name": "registerBusinessContract",
      "outputs": [
        {
          "internalType": "uint256",
          "name": "",
          "type": "uint256"
        }
      ],
      "payable": false,
      "stateMutability": "nonpayable",
      "type": "function"
    },
    {
      "constant": true,
      "inputs": [],
      "name": "registry",
      "outputs": [
        {
          "internalType": "contract RBBRegistry",
          "name": "",
          "type": "address"
        }
      ],
      "payable": false,
      "stateMutability": "view",
      "type": "function"
    },
    {
      "constant": false,
      "inputs": [],
      "name": "renounceOwnership",
      "outputs": [],
      "payable": false,
      "stateMutability": "nonpayable",
      "type": "function"
    },
    {
      "constant": false,
      "inputs": [],
      "name": "renouncePauser",
      "outputs": [],
      "payable": false,
      "stateMutability": "nonpayable",
      "type": "function"
    },
    {
      "constant": false,
      "inputs": [
        {
          "internalType": "address",
          "name": "addr",
          "type": "address"
        },
        {
          "internalType": "bool",
          "name": "status",
          "type": "bool"
        }
      ],
      "name": "setStatus",
      "outputs": [
        {
          "internalType": "bool",
          "name": "",
          "type": "bool"
        }
      ],
      "payable": false,
      "stateMutability": "nonpayable",
      "type": "function"
    },
    {
      "constant": false,
      "inputs": [
        {
          "internalType": "address",
          "name": "newOwner",
          "type": "address"
        }
      ],
      "name": "transferOwnership",
      "outputs": [],
      "payable": false,
      "stateMutability": "nonpayable",
      "type": "function"
    },
    {
      "constant": false,
      "inputs": [],
      "name": "unpause",
      "outputs": [],
      "payable": false,
      "stateMutability": "nonpayable",
      "type": "function"
    },
    {
      "constant": true,
      "inputs": [],
      "name": "getBndesId",
      "outputs": [
        {
          "internalType": "uint256",
          "name": "",
          "type": "uint256"
        }
      ],
      "payable": false,
      "stateMutability": "view",
      "type": "function"
    },
    {
      "constant": false,
      "inputs": [
        {
          "internalType": "uint256",
          "name": "amount",
          "type": "uint256"
        },
        {
          "internalType": "bytes32",
          "name": "specificHash",
          "type": "bytes32"
        }
      ],
      "name": "requestMint",
      "outputs": [],
      "payable": false,
      "stateMutability": "nonpayable",
      "type": "function"
    },
    {
      "constant": false,
      "inputs": [
        {
          "internalType": "address",
          "name": "businessContractAddr",
          "type": "address"
        },
        {
          "internalType": "bytes32",
          "name": "specificHash",
          "type": "bytes32"
        },
        {
          "internalType": "uint256",
          "name": "amount",
          "type": "uint256"
        },
        {
          "internalType": "string[]",
          "name": "data",
          "type": "string[]"
        },
        {
          "internalType": "string",
          "name": "docHash",
          "type": "string"
        }
      ],
      "name": "mint",
      "outputs": [],
      "payable": false,
      "stateMutability": "nonpayable",
      "type": "function"
    },
    {
      "constant": false,
      "inputs": [
        {
          "internalType": "address",
          "name": "businessContractAddr",
          "type": "address"
        },
        {
          "internalType": "uint256",
          "name": "amount",
          "type": "uint256"
        }
      ],
      "name": "burn",
      "outputs": [],
      "payable": false,
      "stateMutability": "nonpayable",
      "type": "function"
    },
    {
      "constant": false,
      "inputs": [
        {
          "internalType": "address",
          "name": "businessContractAddr",
          "type": "address"
        },
        {
          "internalType": "bytes32",
          "name": "fromHash",
          "type": "bytes32"
        },
        {
          "internalType": "uint256",
          "name": "toId",
          "type": "uint256"
        },
        {
          "internalType": "bytes32",
          "name": "toHash",
          "type": "bytes32"
        },
        {
          "internalType": "uint256",
          "name": "amount",
          "type": "uint256"
        },
        {
          "internalType": "string[]",
          "name": "data",
          "type": "string[]"
        }
      ],
      "name": "transfer",
      "outputs": [],
      "payable": false,
      "stateMutability": "nonpayable",
      "type": "function"
    },
    {
      "constant": false,
      "inputs": [
        {
          "internalType": "address",
          "name": "businessContractAddr",
          "type": "address"
        },
        {
          "internalType": "uint256",
          "name": "toId",
          "type": "uint256"
        },
        {
          "internalType": "bytes32",
          "name": "toHash",
          "type": "bytes32"
        },
        {
          "internalType": "uint256",
          "name": "amount",
          "type": "uint256"
        },
        {
          "internalType": "string[]",
          "name": "data",
          "type": "string[]"
        }
      ],
      "name": "allocate",
      "outputs": [],
      "payable": false,
      "stateMutability": "nonpayable",
      "type": "function"
    },
    {
      "constant": false,
      "inputs": [
        {
          "internalType": "address",
          "name": "businessContractAddr",
          "type": "address"
        },
        {
          "internalType": "uint256",
          "name": "fromId",
          "type": "uint256"
        },
        {
          "internalType": "bytes32",
          "name": "fromHash",
          "type": "bytes32"
        },
        {
          "internalType": "uint256",
          "name": "amount",
          "type": "uint256"
        },
        {
          "internalType": "string[]",
          "name": "data",
          "type": "string[]"
        }
      ],
      "name": "redeem",
      "outputs": [],
      "payable": false,
      "stateMutability": "nonpayable",
      "type": "function"
    },
    {
      "constant": false,
      "inputs": [
        {
          "internalType": "address",
          "name": "businessContractAddr",
          "type": "address"
        },
        {
          "internalType": "string",
          "name": "redemptionTransactionHash",
          "type": "string"
        },
        {
          "internalType": "string",
          "name": "receiptHash",
          "type": "string"
        },
        {
          "internalType": "string[]",
          "name": "data",
          "type": "string[]"
        }
      ],
      "name": "notifyRedemptionSettlement",
      "outputs": [],
      "payable": false,
      "stateMutability": "nonpayable",
      "type": "function"
    },
    {
      "constant": true,
      "inputs": [
        {
          "internalType": "address",
          "name": "businessContractAddr",
          "type": "address"
        }
      ],
      "name": "getReservedBalanceByBusinessContract",
      "outputs": [
        {
          "internalType": "uint256",
          "name": "",
          "type": "uint256"
        }
      ],
      "payable": false,
      "stateMutability": "view",
      "type": "function"
    },
    {
      "constant": true,
      "inputs": [],
      "name": "getDecimals",
      "outputs": [
        {
          "internalType": "uint8",
          "name": "",
          "type": "uint8"
        }
      ],
      "payable": false,
      "stateMutability": "view",
      "type": "function"
    }
  ],
  "bytecode": "0x608060405260016003556002600560006101000a81548160ff021916908360ff1602179055506000801b6006553480156200003957600080fd5b50604051620049783803806200497883398181016040526200005f9190810190620003c3565b6200007f62000073620001ae60201b60201c565b620001b660201b60201c565b6000600160006101000a81548160ff0219169083151502179055506000620000ac620001ae60201b60201c565b9050806001806101000a81548173ffffffffffffffffffffffffffffffffffffffff021916908373ffffffffffffffffffffffffffffffffffffffff1602179055508073ffffffffffffffffffffffffffffffffffffffff16600073ffffffffffffffffffffffffffffffffffffffff167f8be0079c531659141344cd1fd0a4f28419497f9722a3daafe3b4186f6b6457e060405160405180910390a35081600260006101000a81548173ffffffffffffffffffffffffffffffffffffffff021916908373ffffffffffffffffffffffffffffffffffffffff16021790555080600560006101000a81548160ff021916908360ff160217905550505062000578565b600033905090565b620001d18160006200021760201b6200287b1790919060201c565b8073ffffffffffffffffffffffffffffffffffffffff167f6719d08c1888103bea251a4ed56406bd0c3e69723c8a1686e017e7bbe159b6f860405160405180910390a250565b620002298282620002ca60201b60201c565b156200026c576040517f08c379a00000000000000000000000000000000000000000000000000000000081526004016200026390620004ae565b60405180910390fd5b60018260000160008373ffffffffffffffffffffffffffffffffffffffff1673ffffffffffffffffffffffffffffffffffffffff16815260200190815260200160002060006101000a81548160ff0219169083151502179055505050565b60008073ffffffffffffffffffffffffffffffffffffffff168273ffffffffffffffffffffffffffffffffffffffff1614156200033e576040517f08c379a00000000000000000000000000000000000000000000000000000000081526004016200033590620004d0565b60405180910390fd5b8260000160008373ffffffffffffffffffffffffffffffffffffffff1673ffffffffffffffffffffffffffffffffffffffff16815260200190815260200160002060009054906101000a900460ff16905092915050565b600081519050620003a68162000544565b92915050565b600081519050620003bd816200055e565b92915050565b60008060408385031215620003d757600080fd5b6000620003e78582860162000395565b9250506020620003fa85828601620003ac565b9150509250929050565b600062000413601f83620004f2565b91507f526f6c65733a206163636f756e7420616c72656164792068617320726f6c65006000830152602082019050919050565b600062000455602283620004f2565b91507f526f6c65733a206163636f756e7420697320746865207a65726f20616464726560008301527f73730000000000000000000000000000000000000000000000000000000000006020830152604082019050919050565b60006020820190508181036000830152620004c98162000404565b9050919050565b60006020820190508181036000830152620004eb8162000446565b9050919050565b600082825260208201905092915050565b6000620005108262000517565b9050919050565b600073ffffffffffffffffffffffffffffffffffffffff82169050919050565b600060ff82169050919050565b6200054f8162000503565b81146200055b57600080fd5b50565b620005698162000537565b81146200057557600080fd5b50565b6143f080620005886000396000f3fe608060405234801561001057600080fd5b50600436106101fb5760003560e01c80638da5cb5b1161011a578063b987afcb116100ad578063e0a08b731161007c578063e0a08b731461058d578063e6e46238146105bd578063f0141d84146105db578063f2fde38b146105f9578063f777d2b914610615576101fb565b8063b987afcb146104f3578063c5b2f6a91461050f578063d508636d14610541578063debfb78214610571576101fb565b806396b7bb1c116100e957806396b7bb1c1461046d5780639ca0daed146104895780639dc29fac146104a7578063b304f21c146104c3576101fb565b80638da5cb5b146103f95780638f18ccdc146104175780638f32d59b14610433578063963a62cb14610451576101fb565b80636db5c8531161019257806382dc1ec41161016157806382dc1ec4146103725780638456cb591461038e57806388431f7a146103985780638b214c00146103c8576101fb565b80636db5c853146103245780636ef8d66d14610340578063715018a61461034a5780637b10399914610354576101fb565b806346fbf68e116101ce57806346fbf68e146102885780634a47f599146102b857806353d5f7cf146102d65780635c975abb14610306576101fb565b80631b0721181461020057806330b4998314610230578063313ce567146102605780633f4ba83a1461027e575b600080fd5b61021a60048036036102159190810190612ae0565b610645565b6040516102279190613ed0565b60405180910390f35b61024a60048036036102459190810190612e91565b610698565b6040516102579190613ed0565b60405180910390f35b6102686106ca565b604051610275919061405f565b60405180910390f35b6102866106dd565b005b6102a2600480360361029d9190810190612ae0565b6107d6565b6040516102af9190613a9c565b60405180910390f35b6102c06107f3565b6040516102cd9190613ed0565b60405180910390f35b6102f060048036036102eb9190810190612ae0565b6108b1565b6040516102fd9190613a9c565b60405180910390f35b61030e61098b565b60405161031b9190613a9c565b60405180910390f35b61033e60048036036103399190810190612e55565b6109a2565b005b610348610b29565b005b610352610b3b565b005b61035c610c41565b6040516103699190613b25565b60405180910390f35b61038c60048036036103879190810190612ae0565b610c67565b005b610396610cc2565b005b6103b260048036036103ad9190810190612ae0565b610dbb565b6040516103bf9190613a9c565b60405180910390f35b6103e260048036036103dd9190810190612ae0565b610e61565b6040516103f0929190613fc8565b60405180910390f35b610401610f43565b60405161040e9190613929565b60405180910390f35b610431600480360361042c9190810190612bec565b610f6c565b005b61043b6114be565b6040516104489190613a9c565b60405180910390f35b61046b60048036036104669190810190612d74565b61151c565b005b61048760048036036104829190810190612d74565b611687565b005b61049161189a565b60405161049e9190613ab7565b60405180910390f35b6104c160048036036104bc9190810190612d38565b6118a0565b005b6104dd60048036036104d89190810190612b09565b61190b565b6040516104ea9190613a9c565b60405180910390f35b61050d60048036036105089190810190612c8d565b611a50565b005b61052960048036036105249190810190612ae0565b611c63565b60405161053893929190614028565b60405180910390f35b61055b60048036036105569190810190612d38565b611c9a565b6040516105689190613ed0565b60405180910390f35b61058b60048036036105869190810190612b45565b611eac565b005b6105a760048036036105a29190810190612ae0565b6121c8565b6040516105b49190613ed0565b60405180910390f35b6105c56122a2565b6040516105d29190613ed0565b60405180910390f35b6105e36122a8565b6040516105f0919061405f565b60405180910390f35b610613600480360361060e9190810190612ae0565b6122bf565b005b61062f600480360361062a9190810190612e55565b612312565b60405161063c9190613ed0565b60405180910390f35b600080600061065384610e61565b91509150600760008381526020019081526020016000206000828152602001908152602001600020600060065481526020019081526020016000205492505050919050565b600760205282600052604060002060205281600052604060002060205280600052604060002060009250925050505481565b600560009054906101000a900460ff1681565b6106ed6106e8612337565b6107d6565b61072c576040517f08c379a000000000000000000000000000000000000000000000000000000000815260040161072390613c50565b60405180910390fd5b600160009054906101000a900460ff1661077b576040517f08c379a000000000000000000000000000000000000000000000000000000000815260040161077290613bd0565b60405180910390fd5b6000600160006101000a81548160ff0219169083151502179055507f5db9ee0a495bf2e6ff9c91a7834c1ba4fdd244a5e8aa4e537bd38aeae4b073aa6107bf612337565b6040516107cc9190613944565b60405180910390a1565b60006107ec82600061233f90919063ffffffff16565b9050919050565b600080600260009054906101000a900473ffffffffffffffffffffffffffffffffffffffff1673ffffffffffffffffffffffffffffffffffffffff166365f68c8961083c610f43565b6040518263ffffffff1660e01b81526004016108589190613929565b60206040518083038186803b15801561087057600080fd5b505afa158015610884573d6000803e3d6000fd5b505050506040513d601f19601f820116820180604052506108a89190810190612e2c565b90508091505090565b60006108bc82610dbb565b6108fb576040517f08c379a00000000000000000000000000000000000000000000000000000000081526004016108f290613cf0565b60405180910390fd5b610903612923565b600460008473ffffffffffffffffffffffffffffffffffffffff1673ffffffffffffffffffffffffffffffffffffffff16815260200190815260200160002060405180606001604052908160008201548152602001600182015481526020016002820160009054906101000a900460ff16151515158152505090508060400151915050919050565b6000600160009054906101000a900460ff16905090565b6109ab33610dbb565b6109ea576040517f08c379a00000000000000000000000000000000000000000000000000000000081526004016109e190613db0565b60405180910390fd5b6109f3336108b1565b610a32576040517f08c379a0000000000000000000000000000000000000000000000000000000008152600401610a2990613df0565b60405180910390fd5b60008211610a75576040517f08c379a0000000000000000000000000000000000000000000000000000000008152600401610a6c90613cd0565b60405180910390fd5b6000339050600080610a8683610e61565b91509150610ac1856008600085815260200190815260200160002060008781526020019081526020016000205461240790919063ffffffff16565b600860008481526020019081526020016000206000868152602001908152602001600020819055507f758409a40cd738fca35b823ed8ee2a5d7f0aacbdfb99dea99a92c9d3a6f3288b8386604051610b1a9291906139cd565b60405180910390a15050505050565b610b39610b34612337565b61245c565b565b610b436114be565b610b82576040517f08c379a0000000000000000000000000000000000000000000000000000000008152600401610b7990613d90565b60405180910390fd5b600073ffffffffffffffffffffffffffffffffffffffff166001809054906101000a900473ffffffffffffffffffffffffffffffffffffffff1673ffffffffffffffffffffffffffffffffffffffff167f8be0079c531659141344cd1fd0a4f28419497f9722a3daafe3b4186f6b6457e060405160405180910390a360006001806101000a81548173ffffffffffffffffffffffffffffffffffffffff021916908373ffffffffffffffffffffffffffffffffffffffff160217905550565b600260009054906101000a900473ffffffffffffffffffffffffffffffffffffffff1681565b610c77610c72612337565b6107d6565b610cb6576040517f08c379a0000000000000000000000000000000000000000000000000000000008152600401610cad90613c50565b60405180910390fd5b610cbf816124b6565b50565b610cd2610ccd612337565b6107d6565b610d11576040517f08c379a0000000000000000000000000000000000000000000000000000000008152600401610d0890613c50565b60405180910390fd5b600160009054906101000a900460ff1615610d61576040517f08c379a0000000000000000000000000000000000000000000000000000000008152600401610d5890613d30565b60405180910390fd5b60018060006101000a81548160ff0219169083151502179055507f62e78cea01bee320cd4e420270b5ea74000d11b0c9f74754ebdbfc544b05a258610da4612337565b604051610db19190613944565b60405180910390a1565b6000610dc5612923565b600460008473ffffffffffffffffffffffffffffffffffffffff1673ffffffffffffffffffffffffffffffffffffffff16815260200190815260200160002060405180606001604052908160008201548152602001600182015481526020016002820160009054906101000a900460ff16151515158152505090506000816000015114610e56576001915050610e5c565b60009150505b919050565b600080610e6d83610dbb565b610eac576040517f08c379a0000000000000000000000000000000000000000000000000000000008152600401610ea390613cf0565b60405180910390fd5b610eb4612923565b600460008573ffffffffffffffffffffffffffffffffffffffff1673ffffffffffffffffffffffffffffffffffffffff16815260200190815260200160002060405180606001604052908160008201548152602001600182015481526020016002820160009054906101000a900460ff1615151515815250509050806000015181602001519250925050915091565b60006001809054906101000a900473ffffffffffffffffffffffffffffffffffffffff16905090565b600160009054906101000a900460ff1615610fbc576040517f08c379a0000000000000000000000000000000000000000000000000000000008152600401610fb390613d30565b60405180910390fd5b6000600260009054906101000a900473ffffffffffffffffffffffffffffffffffffffff1673ffffffffffffffffffffffffffffffffffffffff166365f68c89336040518263ffffffff1660e01b81526004016110199190613944565b60206040518083038186803b15801561103157600080fd5b505afa158015611045573d6000803e3d6000fd5b505050506040513d601f19601f820116820180604052506110699190810190612e2c565b905061107487610dbb565b6110b3576040517f08c379a00000000000000000000000000000000000000000000000000000000081526004016110aa90613e30565b60405180910390fd5b6110bc876108b1565b6110fb576040517f08c379a00000000000000000000000000000000000000000000000000000000081526004016110f290613c10565b60405180910390fd5b600260009054906101000a900473ffffffffffffffffffffffffffffffffffffffff1673ffffffffffffffffffffffffffffffffffffffff1663613a7896826040518263ffffffff1660e01b81526004016111569190613ed0565b60206040518083038186803b15801561116e57600080fd5b505afa158015611182573d6000803e3d6000fd5b505050506040513d601f19601f820116820180604052506111a69190810190612e03565b6111e5576040517f08c379a00000000000000000000000000000000000000000000000000000000081526004016111dc90613e50565b60405180910390fd5b600260009054906101000a900473ffffffffffffffffffffffffffffffffffffffff1673ffffffffffffffffffffffffffffffffffffffff1663613a7896866040518263ffffffff1660e01b81526004016112409190613ed0565b60206040518083038186803b15801561125857600080fd5b505afa15801561126c573d6000803e3d6000fd5b505050506040513d601f19601f820116820180604052506112909190810190612e03565b6112cf576040517f08c379a00000000000000000000000000000000000000000000000000000000081526004016112c690613e90565b60405180910390fd5b60006112da886121c8565b905060008890508073ffffffffffffffffffffffffffffffffffffffff1663c596acc7848a8a8a8a8a6040518763ffffffff1660e01b815260040161132496959493929190613f60565b600060405180830381600087803b15801561133e57600080fd5b505af1158015611352573d6000803e3d6000fd5b505050506113b8856040518060600160405280603881526020016143766038913960076000868152602001908152602001600020600087815260200190815260200160002060008c8152602001908152602001600020546125109092919063ffffffff16565b60076000848152602001908152602001600020600085815260200190815260200160002060008a815260200190815260200160002081905550611439856007600085815260200190815260200160002060008a815260200190815260200160002060008981526020019081526020016000205461240790919063ffffffff16565b6007600084815260200190815260200160002060008981526020019081526020016000206000888152602001908152602001600020819055507f1e4883fb9a1c3e23fd361abd4a0b4eaf05538367d6d79c9387417871b17b660889848a8a8a8a6040516114ab96959493929190613a3b565b60405180910390a1505050505050505050565b60006001809054906101000a900473ffffffffffffffffffffffffffffffffffffffff1673ffffffffffffffffffffffffffffffffffffffff16611500612337565b73ffffffffffffffffffffffffffffffffffffffff1614905090565b600160009054906101000a900460ff161561156c576040517f08c379a000000000000000000000000000000000000000000000000000000000815260040161156390613d30565b60405180910390fd5b60008061157887610e61565b915091506000600260009054906101000a900473ffffffffffffffffffffffffffffffffffffffff1673ffffffffffffffffffffffffffffffffffffffff166365f68c89336040518263ffffffff1660e01b81526004016115d99190613944565b60206040518083038186803b1580156115f157600080fd5b505afa158015611605573d6000803e3d6000fd5b505050506040513d601f19601f820116820180604052506116299190810190612e2c565b905081811461166d576040517f08c379a000000000000000000000000000000000000000000000000000000000815260040161166490613eb0565b60405180910390fd5b61167d8860065489898989610f6c565b5050505050505050565b600160009054906101000a900460ff16156116d7576040517f08c379a00000000000000000000000000000000000000000000000000000000081526004016116ce90613d30565b60405180910390fd5b6000806116e387610e61565b91509150600260009054906101000a900473ffffffffffffffffffffffffffffffffffffffff1673ffffffffffffffffffffffffffffffffffffffff1663613a7896876040518263ffffffff1660e01b81526004016117429190613ed0565b60206040518083038186803b15801561175a57600080fd5b505afa15801561176e573d6000803e3d6000fd5b505050506040513d601f19601f820116820180604052506117929190810190612e03565b6117d1576040517f08c379a00000000000000000000000000000000000000000000000000000000081526004016117c890613e70565b60405180910390fd5b60008790508073ffffffffffffffffffffffffffffffffffffffff1663c92f4eb0888888886040518563ffffffff1660e01b81526004016118159493929190613f14565b600060405180830381600087803b15801561182f57600080fd5b505af1158015611843573d6000803e3d6000fd5b505050507fde46616d7a75dfda3dee1c69b73bc284982f0a5386046991389f4921c8ca53a38888888860405161187c94939291906139f6565b60405180910390a16118908888888861256b565b5050505050505050565b60065481565b6118a86114be565b6118e7576040517f08c379a00000000000000000000000000000000000000000000000000000000081526004016118de90613d90565b60405180910390fd5b6000806118f384610e61565b9150915061190584826006548661256b565b50505050565b60006119156114be565b611954576040517f08c379a000000000000000000000000000000000000000000000000000000000815260040161194b90613d90565b60405180910390fd5b61195d83610dbb565b61199c576040517f08c379a000000000000000000000000000000000000000000000000000000000815260040161199390613cf0565b60405180910390fd5b6000600460008573ffffffffffffffffffffffffffffffffffffffff1673ffffffffffffffffffffffffffffffffffffffff1681526020019081526020016000209050828160020160006101000a81548160ff0219169083151502179055507f28a61818d188a7856821431ff0deb7650c2cc34ee4b7b97616a415fa0a3dfeff81600001548260020160009054906101000a900460ff16604051611a41929190613eeb565b60405180910390a15092915050565b600160009054906101000a900460ff1615611aa0576040517f08c379a0000000000000000000000000000000000000000000000000000000008152600401611a9790613d30565b60405180910390fd5b611aa86114be565b611ae7576040517f08c379a0000000000000000000000000000000000000000000000000000000008152600401611ade90613d90565b60405180910390fd5b73__RBBLib________________________________636edcb12f836040518263ffffffff1660e01b8152600401611b1e9190613b62565b60206040518083038186803b158015611b3657600080fd5b505af4158015611b4a573d6000803e3d6000fd5b505050506040513d601f19601f82011682018060405250611b6e9190810190612e03565b611bad576040517f08c379a0000000000000000000000000000000000000000000000000000000008152600401611ba490613d10565b60405180910390fd5b60008490508073ffffffffffffffffffffffffffffffffffffffff1663bc0077638585856040518463ffffffff1660e01b8152600401611bef93929190613b84565b600060405180830381600087803b158015611c0957600080fd5b505af1158015611c1d573d6000803e3d6000fd5b505050507fbb044857baface794d30db16705eab4c8758338578ce37364c86e9a60e891bd2858585604051611c5493929190613988565b60405180910390a15050505050565b60046020528060005260406000206000915090508060000154908060010154908060020160009054906101000a900460ff16905083565b6000611ca46114be565b611ce3576040517f08c379a0000000000000000000000000000000000000000000000000000000008152600401611cda90613d90565b60405180910390fd5b611cec83610dbb565b15611d2c576040517f08c379a0000000000000000000000000000000000000000000000000000000008152600401611d2390613c90565b60405180910390fd5b60008390508073ffffffffffffffffffffffffffffffffffffffff16633dfdcfab600260009054906101000a900473ffffffffffffffffffffffffffffffffffffffff16306040518363ffffffff1660e01b8152600401611d8e92919061395f565b600060405180830381600087803b158015611da857600080fd5b505af1158015611dbc573d6000803e3d6000fd5b505050506040518060600160405280600354815260200184815260200160011515815250600460008673ffffffffffffffffffffffffffffffffffffffff1673ffffffffffffffffffffffffffffffffffffffff168152602001908152602001600020600082015181600001556020820151816001015560408201518160020160006101000a81548160ff0219169083151502179055509050507f20837d6e0b7236235210e8dcb5168dc3712b7652ca9b5f328e9aaecdd6f386cd6003548486604051611e8b93929190613ff1565b60405180910390a16003600081548092919060010191905055505092915050565b611eb46114be565b611ef3576040517f08c379a0000000000000000000000000000000000000000000000000000000008152600401611eea90613d90565b60405180910390fd5b611efc856108b1565b611f3b576040517f08c379a0000000000000000000000000000000000000000000000000000000008152600401611f3290613c30565b60405180910390fd5b73__RBBLib________________________________636edcb12f826040518263ffffffff1660e01b8152600401611f729190613b62565b60206040518083038186803b158015611f8a57600080fd5b505af4158015611f9e573d6000803e3d6000fd5b505050506040513d601f19601f82011682018060405250611fc29190810190612e03565b612001576040517f08c379a0000000000000000000000000000000000000000000000000000000008152600401611ff890613d10565b60405180910390fd5b60008061200d87610e61565b9150915061206285604051806060016040528060298152602001614312602991396008600086815260200190815260200160002060008a8152602001908152602001600020546125109092919063ffffffff16565b600860008481526020019081526020016000206000888152602001908152602001600020819055506120d485600760008581526020019081526020016000206000848152602001908152602001600020600060065481526020019081526020016000205461240790919063ffffffff16565b600760008481526020019081526020016000206000838152602001908152602001600020600060065481526020019081526020016000208190555060008790508073ffffffffffffffffffffffffffffffffffffffff16636b4dd41f888888886040518563ffffffff1660e01b81526004016121539493929190613ad2565b600060405180830381600087803b15801561216d57600080fd5b505af1158015612181573d6000803e3d6000fd5b505050507f7024bd6ed1bb480dda5a99fd890504f3e8488be0da9e123eaae799a0e08a55b188876040516121b69291906139cd565b60405180910390a15050505050505050565b60006121d382610dbb565b612212576040517f08c379a000000000000000000000000000000000000000000000000000000000815260040161220990613cf0565b60405180910390fd5b61221a612923565b600460008473ffffffffffffffffffffffffffffffffffffffff1673ffffffffffffffffffffffffffffffffffffffff16815260200190815260200160002060405180606001604052908160008201548152602001600182015481526020016002820160009054906101000a900460ff16151515158152505090508060000151915050919050565b60035481565b6000600560009054906101000a900460ff16905090565b6122c76114be565b612306576040517f08c379a00000000000000000000000000000000000000000000000000000000081526004016122fd90613d90565b60405180910390fd5b61230f816126a6565b50565b6008602052816000526040600020602052806000526040600020600091509150505481565b600033905090565b60008073ffffffffffffffffffffffffffffffffffffffff168273ffffffffffffffffffffffffffffffffffffffff1614156123b0576040517f08c379a00000000000000000000000000000000000000000000000000000000081526004016123a790613dd0565b60405180910390fd5b8260000160008373ffffffffffffffffffffffffffffffffffffffff1673ffffffffffffffffffffffffffffffffffffffff16815260200190815260200160002060009054906101000a900460ff16905092915050565b600080828401905083811015612452576040517f08c379a000000000000000000000000000000000000000000000000000000000815260040161244990613cb0565b60405180910390fd5b8091505092915050565b6124708160006127d490919063ffffffff16565b8073ffffffffffffffffffffffffffffffffffffffff167fcd265ebaf09df2871cc7bd4133404a235ba12eff2041bb89d9c714a2621c7c7e60405160405180910390a250565b6124ca81600061287b90919063ffffffff16565b8073ffffffffffffffffffffffffffffffffffffffff167f6719d08c1888103bea251a4ed56406bd0c3e69723c8a1686e017e7bbe159b6f860405160405180910390a250565b6000838311158290612558576040517f08c379a000000000000000000000000000000000000000000000000000000000815260040161254f9190613b40565b60405180910390fd5b5060008385039050809150509392505050565b612574846108b1565b6125b3576040517f08c379a00000000000000000000000000000000000000000000000000000000081526004016125aa90613d70565b60405180910390fd5b600081116125f6576040517f08c379a00000000000000000000000000000000000000000000000000000000081526004016125ed90613e10565b60405180910390fd5b6000612601856121c8565b9050612665826040518060600160405280603b815260200161433b603b91396007600085815260200190815260200160002060008881526020019081526020016000206000878152602001908152602001600020546125109092919063ffffffff16565b507f7098974186624b12ad4b12c5ed305de24868251bf0d86c81baa4c904cc9b1a9685836040516126979291906139cd565b60405180910390a15050505050565b600073ffffffffffffffffffffffffffffffffffffffff168173ffffffffffffffffffffffffffffffffffffffff161415612716576040517f08c379a000000000000000000000000000000000000000000000000000000000815260040161270d90613c70565b60405180910390fd5b8073ffffffffffffffffffffffffffffffffffffffff166001809054906101000a900473ffffffffffffffffffffffffffffffffffffffff1673ffffffffffffffffffffffffffffffffffffffff167f8be0079c531659141344cd1fd0a4f28419497f9722a3daafe3b4186f6b6457e060405160405180910390a3806001806101000a81548173ffffffffffffffffffffffffffffffffffffffff021916908373ffffffffffffffffffffffffffffffffffffffff16021790555050565b6127de828261233f565b61281d576040517f08c379a000000000000000000000000000000000000000000000000000000000815260040161281490613d50565b60405180910390fd5b60008260000160008373ffffffffffffffffffffffffffffffffffffffff1673ffffffffffffffffffffffffffffffffffffffff16815260200190815260200160002060006101000a81548160ff0219169083151502179055505050565b612885828261233f565b156128c5576040517f08c379a00000000000000000000000000000000000000000000000000000000081526004016128bc90613bf0565b60405180910390fd5b60018260000160008373ffffffffffffffffffffffffffffffffffffffff1673ffffffffffffffffffffffffffffffffffffffff16815260200190815260200160002060006101000a81548160ff0219169083151502179055505050565b604051806060016040528060008152602001600081526020016000151581525090565b600081359050612955816142b5565b92915050565b600082601f83011261296c57600080fd5b813561297f61297a826140a7565b61407a565b9150818183526020840193506020810190508360005b838110156129c557813586016129ab8882612a0e565b845260208401935060208301925050600181019050612995565b5050505092915050565b6000813590506129de816142cc565b92915050565b6000815190506129f3816142cc565b92915050565b600081359050612a08816142e3565b92915050565b600082601f830112612a1f57600080fd5b8135612a32612a2d826140cf565b61407a565b91508082526020830160208301858383011115612a4e57600080fd5b612a59838284614262565b50505092915050565b600082601f830112612a7357600080fd5b8135612a86612a81826140fb565b61407a565b91508082526020830160208301858383011115612aa257600080fd5b612aad838284614262565b50505092915050565b600081359050612ac5816142fa565b92915050565b600081519050612ada816142fa565b92915050565b600060208284031215612af257600080fd5b6000612b0084828501612946565b91505092915050565b60008060408385031215612b1c57600080fd5b6000612b2a85828601612946565b9250506020612b3b858286016129cf565b9150509250929050565b600080600080600060a08688031215612b5d57600080fd5b6000612b6b88828901612946565b9550506020612b7c888289016129f9565b9450506040612b8d88828901612ab6565b935050606086013567ffffffffffffffff811115612baa57600080fd5b612bb68882890161295b565b925050608086013567ffffffffffffffff811115612bd357600080fd5b612bdf88828901612a62565b9150509295509295909350565b60008060008060008060c08789031215612c0557600080fd5b6000612c1389828a01612946565b9650506020612c2489828a016129f9565b9550506040612c3589828a01612ab6565b9450506060612c4689828a016129f9565b9350506080612c5789828a01612ab6565b92505060a087013567ffffffffffffffff811115612c7457600080fd5b612c8089828a0161295b565b9150509295509295509295565b60008060008060808587031215612ca357600080fd5b6000612cb187828801612946565b945050602085013567ffffffffffffffff811115612cce57600080fd5b612cda87828801612a62565b935050604085013567ffffffffffffffff811115612cf757600080fd5b612d0387828801612a62565b925050606085013567ffffffffffffffff811115612d2057600080fd5b612d2c8782880161295b565b91505092959194509250565b60008060408385031215612d4b57600080fd5b6000612d5985828601612946565b9250506020612d6a85828601612ab6565b9150509250929050565b600080600080600060a08688031215612d8c57600080fd5b6000612d9a88828901612946565b9550506020612dab88828901612ab6565b9450506040612dbc888289016129f9565b9350506060612dcd88828901612ab6565b925050608086013567ffffffffffffffff811115612dea57600080fd5b612df68882890161295b565b9150509295509295909350565b600060208284031215612e1557600080fd5b6000612e23848285016129e4565b91505092915050565b600060208284031215612e3e57600080fd5b6000612e4c84828501612acb565b91505092915050565b60008060408385031215612e6857600080fd5b6000612e7685828601612ab6565b9250506020612e87858286016129f9565b9150509250929050565b600080600060608486031215612ea657600080fd5b6000612eb486828701612ab6565b9350506020612ec586828701612ab6565b9250506040612ed6868287016129f9565b9150509250925092565b6000612eec8383613026565b905092915050565b612efd81614208565b82525050565b612f0c816141a9565b82525050565b6000612f1d82614137565b612f278185614165565b935083602082028501612f3985614127565b8060005b85811015612f755784840389528151612f568582612ee0565b9450612f6183614158565b925060208a01995050600181019050612f3d565b50829750879550505050505092915050565b612f90816141bb565b82525050565b612f9f816141c7565b82525050565b612fae8161421a565b82525050565b6000612fbf8261414d565b612fc98185614187565b9350612fd9818560208601614271565b612fe2816142a4565b840191505092915050565b6000612ff88261414d565b6130028185614198565b9350613012818560208601614271565b61301b816142a4565b840191505092915050565b600061303182614142565b61303b8185614176565b935061304b818560208601614271565b613054816142a4565b840191505092915050565b600061306c601483614187565b91507f5061757361626c653a206e6f74207061757365640000000000000000000000006000830152602082019050919050565b60006130ac601f83614187565b91507f526f6c65733a206163636f756e7420616c72656164792068617320726f6c65006000830152602082019050919050565b60006130ec602583614187565b91507f436f6e747261746f206573706563c3ad6669636f206ec3a36f20657374c3a12060008301527f617469766f0000000000000000000000000000000000000000000000000000006020830152604082019050919050565b6000613152601c83614187565b91507f436f6e747261746f207072656369736120657374617220617469766f000000006000830152602082019050919050565b6000613192603083614187565b91507f506175736572526f6c653a2063616c6c657220646f6573206e6f74206861766560008301527f207468652050617573657220726f6c65000000000000000000000000000000006020830152604082019050919050565b60006131f8602683614187565b91507f4f776e61626c653a206e6577206f776e657220697320746865207a65726f206160008301527f64647265737300000000000000000000000000000000000000000000000000006020830152604082019050919050565b600061325e601783614187565b91507f436f6e747261746f206ac3a1207265676973747261646f0000000000000000006000830152602082019050919050565b600061329e601b83614187565b91507f536166654d6174683a206164646974696f6e206f766572666c6f7700000000006000830152602082019050919050565b60006132de603583614187565b91507f56616c6f72206120736572207472616e736163696f6e61646f2064657665207360008301527f6572206d61696f7220646f20717565207a65726f2e00000000000000000000006020830152604082019050919050565b6000613344602283614187565b91507f436f6e747261746f206465206e65676f63696f206e616f20726567697374726160008301527f646f0000000000000000000000000000000000000000000000000000000000006020830152604082019050919050565b60006133aa602483614187565b91507f4f206861736820646120636f6d70726f7661c3a7c3a36f20c3a920696e76c3a160008301527f6c69646f000000000000000000000000000000000000000000000000000000006020830152604082019050919050565b6000613410601083614187565b91507f5061757361626c653a20706175736564000000000000000000000000000000006000830152602082019050919050565b6000613450602183614187565b91507f526f6c65733a206163636f756e7420646f6573206e6f74206861766520726f6c60008301527f65000000000000000000000000000000000000000000000000000000000000006020830152604082019050919050565b60006134b6602c83614187565b91507f436f6e747261746f207072656369736120657374617220617469766f2070617260008301527f61206861766572206275726e00000000000000000000000000000000000000006020830152604082019050919050565b600061351c602083614187565b91507f4f776e61626c653a2063616c6c6572206973206e6f7420746865206f776e65726000830152602082019050919050565b600061355c604c83614187565b91507f4dc3a9746f646f2073c3b320706f646520736572206368616d61646f20706f7260008301527f20636f6e747261746f206465206e6567c3b363696f207072657669616d656e7460208301527f65206361646173747261646f00000000000000000000000000000000000000006040830152606082019050919050565b60006135e8602283614187565b91507f526f6c65733a206163636f756e7420697320746865207a65726f20616464726560008301527f73730000000000000000000000000000000000000000000000000000000000006020830152604082019050919050565b600061364e603b83614187565b91507f4dc3a9746f646f2073c3b320706f646520736572206368616d61646f20706f7260008301527f20636f6e747261746f206465206e6567c3b363696f20617469766f00000000006020830152604082019050919050565b60006136b4602a83614187565b91507f56616c6f72206120717565696d6172206465766520736572206d61696f72206460008301527f6f20717565207a65726f000000000000000000000000000000000000000000006020830152604082019050919050565b600061371a603783614187565b91507f436f6e747261746f206573706563c3ad6669636f20657370656369666963616460008301527f6f206ec3a36f20657374c3a1207265676973747261646f0000000000000000006020830152604082019050919050565b6000613780603383614187565b91507f436f6e7461206465206f726967656d207072656369736120657374617220636f60008301527f6d20636164617374726f2076616c696461646f000000000000000000000000006020830152604082019050919050565b60006137e6603f83614187565b91507f436f6e746120736f6c69636974616e746520646f2072656465656d207072656360008301527f69736120657374617220636f6d20636164617374726f2076616c696461646f006020830152604082019050919050565b600061384c603483614187565b91507f436f6e74612064652064657374696e6f2070726563697361206573746172206360008301527f6f6d20636164617374726f2076616c696461646f0000000000000000000000006020830152604082019050919050565b60006138b2604083614187565b91507f536f6d656e7465206f204f776e657220646f20636f6e747261746f206573706560008301527f63c3ad6669636f20706f6465206368616d61722065737365206dc3a9746f646f6020830152604082019050919050565b613914816141f1565b82525050565b613923816141fb565b82525050565b600060208201905061393e6000830184612f03565b92915050565b60006020820190506139596000830184612ef4565b92915050565b60006040820190506139746000830185612f03565b6139816020830184612f03565b9392505050565b600060608201905061399d6000830186612f03565b81810360208301526139af8185612fb4565b905081810360408301526139c38184612fb4565b9050949350505050565b60006040820190506139e26000830185612f03565b6139ef602083018461390b565b9392505050565b6000608082019050613a0b6000830187612f03565b613a18602083018661390b565b613a256040830185612f96565b613a32606083018461390b565b95945050505050565b600060c082019050613a506000830189612f03565b613a5d602083018861390b565b613a6a6040830187612f96565b613a77606083018661390b565b613a846080830185612f96565b613a9160a083018461390b565b979650505050505050565b6000602082019050613ab16000830184612f87565b92915050565b6000602082019050613acc6000830184612f96565b92915050565b6000608082019050613ae76000830187612f96565b613af4602083018661390b565b8181036040830152613b068185612f12565b90508181036060830152613b1a8184612fb4565b905095945050505050565b6000602082019050613b3a6000830184612fa5565b92915050565b60006020820190508181036000830152613b5a8184612fb4565b905092915050565b60006020820190508181036000830152613b7c8184612fed565b905092915050565b60006060820190508181036000830152613b9e8186612fb4565b90508181036020830152613bb28185612fb4565b90508181036040830152613bc68184612f12565b9050949350505050565b60006020820190508181036000830152613be98161305f565b9050919050565b60006020820190508181036000830152613c098161309f565b9050919050565b60006020820190508181036000830152613c29816130df565b9050919050565b60006020820190508181036000830152613c4981613145565b9050919050565b60006020820190508181036000830152613c6981613185565b9050919050565b60006020820190508181036000830152613c89816131eb565b9050919050565b60006020820190508181036000830152613ca981613251565b9050919050565b60006020820190508181036000830152613cc981613291565b9050919050565b60006020820190508181036000830152613ce9816132d1565b9050919050565b60006020820190508181036000830152613d0981613337565b9050919050565b60006020820190508181036000830152613d298161339d565b9050919050565b60006020820190508181036000830152613d4981613403565b9050919050565b60006020820190508181036000830152613d6981613443565b9050919050565b60006020820190508181036000830152613d89816134a9565b9050919050565b60006020820190508181036000830152613da98161350f565b9050919050565b60006020820190508181036000830152613dc98161354f565b9050919050565b60006020820190508181036000830152613de9816135db565b9050919050565b60006020820190508181036000830152613e0981613641565b9050919050565b60006020820190508181036000830152613e29816136a7565b9050919050565b60006020820190508181036000830152613e498161370d565b9050919050565b60006020820190508181036000830152613e6981613773565b9050919050565b60006020820190508181036000830152613e89816137d9565b9050919050565b60006020820190508181036000830152613ea98161383f565b9050919050565b60006020820190508181036000830152613ec9816138a5565b9050919050565b6000602082019050613ee5600083018461390b565b92915050565b6000604082019050613f00600083018561390b565b613f0d6020830184612f87565b9392505050565b6000608082019050613f29600083018761390b565b613f366020830186612f96565b613f43604083018561390b565b8181036060830152613f558184612f12565b905095945050505050565b600060c082019050613f75600083018961390b565b613f826020830188612f96565b613f8f604083018761390b565b613f9c6060830186612f96565b613fa9608083018561390b565b81810360a0830152613fbb8184612f12565b9050979650505050505050565b6000604082019050613fdd600083018561390b565b613fea602083018461390b565b9392505050565b6000606082019050614006600083018661390b565b614013602083018561390b565b6140206040830184612f03565b949350505050565b600060608201905061403d600083018661390b565b61404a602083018561390b565b6140576040830184612f87565b949350505050565b6000602082019050614074600083018461391a565b92915050565b6000604051905081810181811067ffffffffffffffff8211171561409d57600080fd5b8060405250919050565b600067ffffffffffffffff8211156140be57600080fd5b602082029050602081019050919050565b600067ffffffffffffffff8211156140e657600080fd5b601f19601f8301169050602081019050919050565b600067ffffffffffffffff82111561411257600080fd5b601f19601f8301169050602081019050919050565b6000819050602082019050919050565b600081519050919050565b600081519050919050565b600081519050919050565b6000602082019050919050565b600082825260208201905092915050565b600082825260208201905092915050565b600082825260208201905092915050565b600082825260208201905092915050565b60006141b4826141d1565b9050919050565b60008115159050919050565b6000819050919050565b600073ffffffffffffffffffffffffffffffffffffffff82169050919050565b6000819050919050565b600060ff82169050919050565b60006142138261423e565b9050919050565b60006142258261422c565b9050919050565b6000614237826141d1565b9050919050565b600061424982614250565b9050919050565b600061425b826141d1565b9050919050565b82818337600083830152505050565b60005b8381101561428f578082015181840152602081019050614274565b8381111561429e576000848401525b50505050565b6000601f19601f8301169050919050565b6142be816141a9565b81146142c957600080fd5b50565b6142d5816141bb565b81146142e057600080fd5b50565b6142ec816141c7565b81146142f757600080fd5b50565b614303816141f1565b811461430e57600080fd5b5056fe546f74616c20646520656d697373c3a36f206578636564652076616c6f7220736f6c6963697461646f546f74616c20646520746f6b656e73206120736572656d20717565696d61646f7320c3a9206d61696f7220646f20717565206f2062616c616e636553616c646f206461206f726967656d206ec3a36f20c3a920737566696369656e746520706172612061207472616e73666572c3aa6e636961a365627a7a72315820971e71171bc1183ffefaf23cad215ec6d5d64fd037b6074183ff2ffed93d2d7a6c6578706572696d656e74616cf564736f6c63430005100040",
  "source": "pragma solidity ^0.5.0;\npragma experimental ABIEncoderV2;\n\n\nimport \"./RBBLib.sol\";\nimport \"./RBBRegistry.sol\";\nimport \"./SpecificRBBToken.sol\";\nimport \"@openzeppelin/contracts/ownership/Ownable.sol\";\nimport \"@openzeppelin/contracts/lifecycle/Pausable.sol\";\nimport \"@openzeppelin/contracts/math/SafeMath.sol\";\n\n//TODO: framework de mudanca e gestao descentralizada de mints e burns\ncontract BusinessContractRegistry is Ownable {\n\n    RBBRegistry public registry;\n\n    //It starts with 1, because 0 is the id value returned when the item is not found in the businessContractsRegistry\n    uint public idCount = 1;\n\n    struct BusinessContractInfo {\n        uint id;\n        uint ownerId;\n        bool isActive;\n    }\n\n    event BusinessContractRegistration (uint id, uint ownerId, address addr);\n    event BusinessContractStateChange (uint id, bool state);\n\n    //indexado pelo address pq serah a forma mais usada para consulta.\n    mapping (address => BusinessContractInfo) public businessContractsRegistry;\n\n    modifier onlyByRegisteredAndActiveContracts {\n        require(containsBusinessContract(msg.sender), \"Mtodo s pode ser chamado por contrato de negcio previamente cadastrado\");\n        require(isBusinessContractActive(msg.sender), \"Mtodo s pode ser chamado por contrato de negcio ativo\");\n        _;\n    }\n\n//TODO: adicionar como ponto positivo do contrato genrico no PPT. nao eh possivel mudar o uint do owner sem mudar o contrato\n    function registerBusinessContract (address businessContractAddr, uint ownerId) public onlyOwner returns (uint)  {\n        require (!containsBusinessContract(businessContractAddr), \"Contrato j registrado\");\n\n        SpecificRBBToken specificContract = SpecificRBBToken(businessContractAddr);\n        specificContract.setInitializationDataDuringRegistration(address(registry), address(this));\n\n\n        businessContractsRegistry[businessContractAddr] = BusinessContractInfo(idCount, ownerId, true);\n        emit BusinessContractRegistration (idCount, ownerId, businessContractAddr);\n        idCount++;\n    }\n\n    function getBusinessContractId (address addr) public view returns (uint) {\n        require (containsBusinessContract(addr), \"Contrato de negocio nao registrado\");\n        BusinessContractInfo memory info = businessContractsRegistry[addr];\n        return info.id;\n    }\n\n    function getBusinessContractIdAndOwnerId (address addr) public view returns (uint, uint) {\n        require (containsBusinessContract(addr), \"Contrato de negocio nao registrado\");\n        BusinessContractInfo memory info = businessContractsRegistry[addr];\n        return (info.id, info.ownerId);\n    }\n    \n    function containsBusinessContract(address addr) public view returns (bool) {\n        BusinessContractInfo memory info = businessContractsRegistry[addr];\n        if (info.id!=0) return true;\n        else return false;\n    }\n\n    function isBusinessContractActive(address addr) public view returns (bool) {\n        require (containsBusinessContract(addr), \"Contrato de negocio nao registrado\");\n        BusinessContractInfo memory info = businessContractsRegistry[addr];\n        return info.isActive;\n    }\n\n    function setStatus(address addr, bool status) public onlyOwner returns (bool) {\n        require (containsBusinessContract(addr), \"Contrato de negocio nao registrado\");\n        BusinessContractInfo storage info = businessContractsRegistry[addr];\n        info.isActive = status;\n        emit BusinessContractStateChange(info.id, info.isActive);\n    }\n}\n\n//TODO: pensar - se precisasse fazer upgrade de um contrato, seria somente registrar um contrato com id do anterior. Criar um metodo para facilitar isso para facilitar o cdigo de mudanas?\ncontract RBBToken is Pausable, BusinessContractRegistry {\n\n    using SafeMath for uint;\n\n    uint8 public decimals = 2;\n    bytes32 public RESERVED_HASH_VALUE = 0x0000000000000000000000000000000000000000000000000000000000000000;\n\n    //businessContractId => (RBBid => (specificHash => amount)\n    mapping (uint => mapping (uint => mapping (bytes32 => uint))) public rbbBalances;\n\n    //businessContractId => (specificHash => amount)\n    mapping (uint => mapping (bytes32 => uint)) public balanceTokensToMint;\n\n//TODO: incluir parametro de data nos eventos de transfer e redeem? -- AVALIAR\n    event RBBMintRequest(address businessContractAddr, uint amount);\n    event RBBTokenMint(address businessContractAddr, uint amount);\n    event RBBTokenBurn(address businessContractAddr, uint amount);\n    event RBBRedemptionRequested (address businessContractAddr, uint fromId, bytes32 fromHash, uint amount);\n\n    event RBBTokenTransfer (address businessContractAddr, uint fromId, bytes32 fromHash, uint toId,\n                            bytes32 toHash, uint amount);\n    event RBBRedemptionSettlement(address businessContractAddr, string redemptionTransactionHash, string receiptHash);\n\n\n    constructor (address newRegistryAddr, uint8 _decimals) public {\n        registry = RBBRegistry(newRegistryAddr);\n        decimals = _decimals;\n    }\n\n//TODO: AVALIAR como identifica BNDES\n    function getBndesId() view public returns (uint) {\n        uint bndesId = registry.getId(owner());\n        return bndesId;\n    }\n\n///******************************************************************* */\n\n    function requestMint(uint amount, bytes32 specificHash) public onlyByRegisteredAndActiveContracts {\n    \n        require (amount>0, \"Valor a ser transacionado deve ser maior do que zero.\");\n        address businessContractAddr = msg.sender;\n\n        (uint businessContractId, uint businessContractOwnerId) = \n                    getBusinessContractIdAndOwnerId(businessContractAddr);\n\n        balanceTokensToMint[businessContractId][specificHash] = \n            balanceTokensToMint[businessContractId][specificHash].add(amount);\n    \n        emit RBBMintRequest(businessContractAddr, amount);\n\n    }\n\n    function mint(address businessContractAddr, bytes32 specificHash, uint amount, string[] memory data, \n        string memory docHash) public onlyOwner {\n\n        require(isBusinessContractActive(businessContractAddr), \"Contrato precisa estar ativo\");\n        require (RBBLib.isValidHash(docHash), \"O hash da comprovao  invlido\");\n\n        (uint businessContractId, uint businessContractOwnerId) = \n                    getBusinessContractIdAndOwnerId(businessContractAddr);\n\n        balanceTokensToMint[businessContractId][specificHash] \n            = balanceTokensToMint[businessContractId][specificHash].sub(amount, \"Total de emisso excede valor solicitado\");\n\n        rbbBalances[businessContractId][businessContractOwnerId][RESERVED_HASH_VALUE] = \n            rbbBalances[businessContractId][businessContractOwnerId][RESERVED_HASH_VALUE].add(amount);\n\n        SpecificRBBToken specificContract = SpecificRBBToken(businessContractAddr);\n        specificContract.verifyAndActForMint(specificHash, amount, data, docHash);\n\n        emit RBBTokenMint(businessContractAddr, amount);\n    }\n\n    function burn (address businessContractAddr, uint amount) public onlyOwner {\n\n        (uint businessContractId, uint businessContractOwnerId) = \n                    getBusinessContractIdAndOwnerId(businessContractAddr);\n//TODO: confirmar que contrato no precisa ter cadastro ativo para ter esse burn\n        _burn(businessContractAddr, businessContractOwnerId, RESERVED_HASH_VALUE, amount);\n\n    }\n\n    function _burn(address businessContractAddr, uint fromId, bytes32 fromHash, uint amount) internal {\n        \n        require(isBusinessContractActive(businessContractAddr), \"Contrato precisa estar ativo para haver burn\");\n        require(amount>0, \"Valor a queimar deve ser maior do que zero\");\n        \n        uint businessContractId = getBusinessContractId(businessContractAddr);\n\n        rbbBalances[businessContractId][fromId][fromHash].sub(amount, \"Total de tokens a serem queimados  maior do que o balance\");\n\n        emit RBBTokenBurn(businessContractAddr, amount);\n    }\n\n///******************************************************************* */\n\n\n//chamados de interveno manual tambm seriam feitos pelo transfer, com verificao de intervencao manual\n\n//TODO: incluir hash de registro um objeto genrico para registrar informacoes\n    function transfer (address businessContractAddr, bytes32 fromHash, uint toId, bytes32 toHash, \n            uint amount, string[] memory data) public whenNotPaused {\n\n        uint fromId = registry.getId(msg.sender);\n\n//TODO: ver se essas duas linhas seguintes devem estar em outros metodos\n        require(containsBusinessContract(businessContractAddr), \"Contrato especfico especificado no est registrado\");\n        require(isBusinessContractActive(businessContractAddr), \"Contrato especfico no est ativo\");\n\n        require(registry.isValidatedId(fromId), \"Conta de origem precisa estar com cadastro validado\");\n        require(registry.isValidatedId(toId), \"Conta de destino precisa estar com cadastro validado\");\n        uint businessContractId = getBusinessContractId(businessContractAddr);\n\n        SpecificRBBToken specificContract = SpecificRBBToken(businessContractAddr);\n        specificContract.verifyAndActForTransfer(fromId, fromHash, toId, toHash, amount, data);\n\n        //altera valores de saldo\n        rbbBalances[businessContractId][fromId][fromHash] =\n                rbbBalances[businessContractId][fromId][fromHash].sub(amount, \"Saldo da origem no  suficiente para a transferncia\");\n        rbbBalances[businessContractId][toId][toHash] = rbbBalances[businessContractId][toId][toHash].add(amount);\n\n        emit RBBTokenTransfer (businessContractAddr, fromId, fromHash, toId, toHash, amount);\n\n    }\n\n    function allocate (address businessContractAddr, uint toId, bytes32 toHash, uint amount, string[] memory data) public \n        whenNotPaused {\n\n\n            (uint businessContractId, uint businessContractOwnerId) = \n                    getBusinessContractIdAndOwnerId(businessContractAddr);\n            uint fromId = registry.getId(msg.sender);\n            require (fromId==businessContractOwnerId, \"Somente o Owner do contrato especfico pode chamar esse mtodo\");\n\n            transfer(businessContractAddr, RESERVED_HASH_VALUE, toId, toHash, amount, data);\n    }\n\n    function redeem (address businessContractAddr, uint fromId, bytes32 fromHash, uint amount, string[] memory data) public \n        whenNotPaused  {\n\n            (uint businessContractId, uint businessContractOwnerId) = \n                    getBusinessContractIdAndOwnerId(businessContractAddr);\n\n            require(registry.isValidatedId(fromId), \"Conta solicitante do redeem precisa estar com cadastro validado\");\n\n            SpecificRBBToken specificContract = SpecificRBBToken(businessContractAddr);\n            specificContract.verifyAndActForRedeem(fromId, fromHash, amount, data);\n\n            emit RBBRedemptionRequested(businessContractAddr, fromId, fromHash, amount);\n            _burn(businessContractAddr, fromId, fromHash, amount);\n    }\n\n   /**\n    * Using this function, the Responsible for Settlement indicates that he has made the FIAT money transfer.\n    * @ param redemptionTransactionHash hash of the redeem transaction in which the FIAT money settlement occurred.\n    * @ param receiptHash hash that proof the FIAT money transfer\n    */ \n    function notifyRedemptionSettlement(address businessContractAddr, string memory redemptionTransactionHash, \n        string memory receiptHash, string[] memory data)\n        public whenNotPaused onlyOwner {\n\n        require (RBBLib.isValidHash(receiptHash), \"O hash da comprovao  invlido\");\n\n        SpecificRBBToken specificContract = SpecificRBBToken(businessContractAddr);\n        specificContract.verifyAndActForRedemptionSettlement(redemptionTransactionHash, receiptHash, data);\n\n        emit RBBRedemptionSettlement(businessContractAddr, redemptionTransactionHash, receiptHash);\n    }\n    \n\n///******************************************************************* */\n\n    function getReservedBalanceByBusinessContract(address businessContractAddr) view public returns (uint) {\n\n        (uint businessContractId, uint businessContractOwnerId) = \n                getBusinessContractIdAndOwnerId(businessContractAddr);\n        return rbbBalances[businessContractId][businessContractOwnerId][RESERVED_HASH_VALUE];\n    }\n\n    function getDecimals() public view returns (uint8) {\n        return decimals;\n    }\n\n}",
  "sourcePath": "/Users/suzana.moreno/workspace/rbb-token/Back-Blockchain/contracts/RBBToken.sol",
  "compiler": {
    "name": "solc",
    "version": "0.5.16+commit.9c3226ce.Emscripten.clang"
  },
  "schemaVersion": "3.0.23",
  "updatedAt": "2020-09-16T18:46:36.269Z",
  "devdoc": {
    "methods": {
      "isOwner()": {
        "details": "Returns true if the caller is the current owner."
      },
      "owner()": {
        "details": "Returns the address of the current owner."
      },
      "pause()": {
        "details": "Called by a pauser to pause, triggers stopped state."
      },
      "paused()": {
        "details": "Returns true if the contract is paused, and false otherwise."
      },
      "renounceOwnership()": {
        "details": "Leaves the contract without owner. It will not be possible to call `onlyOwner` functions anymore. Can only be called by the current owner.     * NOTE: Renouncing ownership will leave the contract without an owner, thereby removing any functionality that is only available to the owner."
      },
      "transferOwnership(address)": {
        "details": "Transfers ownership of the contract to a new account (`newOwner`). Can only be called by the current owner."
      },
      "unpause()": {
        "details": "Called by a pauser to unpause, returns to normal state."
      }
    }
  },
  "userdoc": {
    "methods": {
      "getReservedBalanceByBusinessContract(address)": {
        "notice": "******************************************************************* */"
      },
      "notifyRedemptionSettlement(address,string,string,string[])": {
        "notice": "Using this function, the Responsible for Settlement indicates that he has made the FIAT money transfer. param redemptionTransactionHash hash of the redeem transaction in which the FIAT money settlement occurred. param receiptHash hash that proof the FIAT money transfer"
      },
      "requestMint(uint256,bytes32)": {
        "notice": "******************************************************************* */"
      },
      "transfer(address,bytes32,uint256,bytes32,uint256,string[])": {
        "notice": "******************************************************************* */"
      }
    }
  }
}