{
  "contractName": "RBBToken",
  "abi": [
    {
      "inputs": [
        {
          "internalType": "address",
          "name": "newRegistryAddr",
          "type": "address"
        },
        {
          "internalType": "uint8",
          "name": "_decimals",
          "type": "uint8"
        }
      ],
      "payable": false,
      "stateMutability": "nonpayable",
      "type": "constructor"
    },
    {
      "anonymous": false,
      "inputs": [
        {
          "indexed": false,
          "internalType": "uint256",
          "name": "id",
          "type": "uint256"
        },
        {
          "indexed": false,
          "internalType": "uint256",
          "name": "ownerId",
          "type": "uint256"
        },
        {
          "indexed": false,
          "internalType": "address",
          "name": "addr",
          "type": "address"
        }
      ],
      "name": "BusinessContractRegistration",
      "type": "event"
    },
    {
      "anonymous": false,
      "inputs": [
        {
          "indexed": false,
          "internalType": "uint256",
          "name": "id",
          "type": "uint256"
        },
        {
          "indexed": false,
          "internalType": "bool",
          "name": "state",
          "type": "bool"
        }
      ],
      "name": "BusinessContractStateChange",
      "type": "event"
    },
    {
      "anonymous": false,
      "inputs": [
        {
          "indexed": true,
          "internalType": "address",
          "name": "previousOwner",
          "type": "address"
        },
        {
          "indexed": true,
          "internalType": "address",
          "name": "newOwner",
          "type": "address"
        }
      ],
      "name": "OwnershipTransferred",
      "type": "event"
    },
    {
      "anonymous": false,
      "inputs": [
        {
          "indexed": false,
          "internalType": "address",
          "name": "account",
          "type": "address"
        }
      ],
      "name": "Paused",
      "type": "event"
    },
    {
      "anonymous": false,
      "inputs": [
        {
          "indexed": true,
          "internalType": "address",
          "name": "account",
          "type": "address"
        }
      ],
      "name": "PauserAdded",
      "type": "event"
    },
    {
      "anonymous": false,
      "inputs": [
        {
          "indexed": true,
          "internalType": "address",
          "name": "account",
          "type": "address"
        }
      ],
      "name": "PauserRemoved",
      "type": "event"
    },
    {
      "anonymous": false,
      "inputs": [
        {
          "indexed": false,
          "internalType": "address",
          "name": "businessContractAddr",
          "type": "address"
        },
        {
          "indexed": false,
          "internalType": "uint256",
          "name": "fromId",
          "type": "uint256"
        },
        {
          "indexed": false,
          "internalType": "bytes32",
          "name": "fromHash",
          "type": "bytes32"
        },
        {
          "indexed": false,
          "internalType": "uint256",
          "name": "amount",
          "type": "uint256"
        }
      ],
      "name": "RBBTokenBurn",
      "type": "event"
    },
    {
      "anonymous": false,
      "inputs": [
        {
          "indexed": false,
          "internalType": "address",
          "name": "businessContractAddr",
          "type": "address"
        },
        {
          "indexed": false,
          "internalType": "bytes32",
          "name": "specificHash",
          "type": "bytes32"
        },
        {
          "indexed": false,
          "internalType": "uint256",
          "name": "amount",
          "type": "uint256"
        },
        {
          "indexed": false,
          "internalType": "string",
          "name": "docHash",
          "type": "string"
        },
        {
          "indexed": false,
          "internalType": "string[]",
          "name": "data",
          "type": "string[]"
        }
      ],
      "name": "RBBTokenMint",
      "type": "event"
    },
    {
      "anonymous": false,
      "inputs": [
        {
          "indexed": false,
          "internalType": "address",
          "name": "businessContractAddr",
          "type": "address"
        },
        {
          "indexed": false,
          "internalType": "bytes32",
          "name": "specificHash",
          "type": "bytes32"
        },
        {
          "indexed": false,
          "internalType": "uint256",
          "name": "idInvestor",
          "type": "uint256"
        },
        {
          "indexed": false,
          "internalType": "uint256",
          "name": "amount",
          "type": "uint256"
        }
      ],
      "name": "RBBTokenMintRequest",
      "type": "event"
    },
    {
      "anonymous": false,
      "inputs": [
        {
          "indexed": false,
          "internalType": "address",
          "name": "businessContractAddr",
          "type": "address"
        },
        {
          "indexed": false,
          "internalType": "uint256",
          "name": "fromId",
          "type": "uint256"
        },
        {
          "indexed": false,
          "internalType": "bytes32",
          "name": "fromHash",
          "type": "bytes32"
        },
        {
          "indexed": false,
          "internalType": "uint256",
          "name": "amount",
          "type": "uint256"
        },
        {
          "indexed": false,
          "internalType": "string[]",
          "name": "data",
          "type": "string[]"
        }
      ],
      "name": "RBBTokenRedemptionRequested",
      "type": "event"
    },
    {
      "anonymous": false,
      "inputs": [
        {
          "indexed": false,
          "internalType": "address",
          "name": "businessContractAddr",
          "type": "address"
        },
        {
          "indexed": false,
          "internalType": "string",
          "name": "redemptionTransactionHash",
          "type": "string"
        },
        {
          "indexed": false,
          "internalType": "string",
          "name": "receiptHash",
          "type": "string"
        },
        {
          "indexed": false,
          "internalType": "string[]",
          "name": "data",
          "type": "string[]"
        }
      ],
      "name": "RBBTokenRedemptionSettlement",
      "type": "event"
    },
    {
      "anonymous": false,
      "inputs": [
        {
          "indexed": false,
          "internalType": "address",
          "name": "businessContractAddr",
          "type": "address"
        },
        {
          "indexed": false,
          "internalType": "uint256",
          "name": "fromId",
          "type": "uint256"
        },
        {
          "indexed": false,
          "internalType": "bytes32",
          "name": "fromHash",
          "type": "bytes32"
        },
        {
          "indexed": false,
          "internalType": "uint256",
          "name": "toId",
          "type": "uint256"
        },
        {
          "indexed": false,
          "internalType": "bytes32",
          "name": "toHash",
          "type": "bytes32"
        },
        {
          "indexed": false,
          "internalType": "uint256",
          "name": "amount",
          "type": "uint256"
        },
        {
          "indexed": false,
          "internalType": "string[]",
          "name": "data",
          "type": "string[]"
        }
      ],
      "name": "RBBTokenTransfer",
      "type": "event"
    },
    {
      "anonymous": false,
      "inputs": [
        {
          "indexed": false,
          "internalType": "address",
          "name": "account",
          "type": "address"
        }
      ],
      "name": "Unpaused",
      "type": "event"
    },
    {
      "constant": true,
      "inputs": [],
      "name": "RESERVED_HASH_VALUE",
      "outputs": [
        {
          "internalType": "bytes32",
          "name": "",
          "type": "bytes32"
        }
      ],
      "payable": false,
      "stateMutability": "view",
      "type": "function"
    },
    {
      "constant": false,
      "inputs": [
        {
          "internalType": "address",
          "name": "account",
          "type": "address"
        }
      ],
      "name": "addPauser",
      "outputs": [],
      "payable": false,
      "stateMutability": "nonpayable",
      "type": "function"
    },
    {
      "constant": true,
      "inputs": [
        {
          "internalType": "uint256",
          "name": "",
          "type": "uint256"
        },
        {
          "internalType": "bytes32",
          "name": "",
          "type": "bytes32"
        }
      ],
      "name": "balaceRequestedTokens",
      "outputs": [
        {
          "internalType": "uint256",
          "name": "",
          "type": "uint256"
        }
      ],
      "payable": false,
      "stateMutability": "view",
      "type": "function"
    },
    {
      "constant": true,
      "inputs": [
        {
          "internalType": "address",
          "name": "",
          "type": "address"
        }
      ],
      "name": "businessContractsRegistry",
      "outputs": [
        {
          "internalType": "uint256",
          "name": "id",
          "type": "uint256"
        },
        {
          "internalType": "uint256",
          "name": "ownerId",
          "type": "uint256"
        },
        {
          "internalType": "bool",
          "name": "isActive",
          "type": "bool"
        }
      ],
      "payable": false,
      "stateMutability": "view",
      "type": "function"
    },
    {
      "constant": true,
      "inputs": [
        {
          "internalType": "address",
          "name": "addr",
          "type": "address"
        }
      ],
      "name": "containsBusinessContract",
      "outputs": [
        {
          "internalType": "bool",
          "name": "",
          "type": "bool"
        }
      ],
      "payable": false,
      "stateMutability": "view",
      "type": "function"
    },
    {
      "constant": true,
      "inputs": [],
      "name": "decimals",
      "outputs": [
        {
          "internalType": "uint8",
          "name": "",
          "type": "uint8"
        }
      ],
      "payable": false,
      "stateMutability": "view",
      "type": "function"
    },
    {
      "constant": true,
      "inputs": [
        {
          "internalType": "address",
          "name": "addr",
          "type": "address"
        }
      ],
      "name": "getBusinessContractId",
      "outputs": [
        {
          "internalType": "uint256",
          "name": "",
          "type": "uint256"
        }
      ],
      "payable": false,
      "stateMutability": "view",
      "type": "function"
    },
    {
      "constant": true,
      "inputs": [
        {
          "internalType": "address",
          "name": "addr",
          "type": "address"
        }
      ],
      "name": "getBusinessContractIdAndOwnerId",
      "outputs": [
        {
          "internalType": "uint256",
          "name": "",
          "type": "uint256"
        },
        {
          "internalType": "uint256",
          "name": "",
          "type": "uint256"
        }
      ],
      "payable": false,
      "stateMutability": "view",
      "type": "function"
    },
    {
      "constant": true,
      "inputs": [],
      "name": "idCount",
      "outputs": [
        {
          "internalType": "uint256",
          "name": "",
          "type": "uint256"
        }
      ],
      "payable": false,
      "stateMutability": "view",
      "type": "function"
    },
    {
      "constant": true,
      "inputs": [
        {
          "internalType": "address",
          "name": "addr",
          "type": "address"
        }
      ],
      "name": "isBusinessContractActive",
      "outputs": [
        {
          "internalType": "bool",
          "name": "",
          "type": "bool"
        }
      ],
      "payable": false,
      "stateMutability": "view",
      "type": "function"
    },
    {
      "constant": true,
      "inputs": [],
      "name": "isOwner",
      "outputs": [
        {
          "internalType": "bool",
          "name": "",
          "type": "bool"
        }
      ],
      "payable": false,
      "stateMutability": "view",
      "type": "function"
    },
    {
      "constant": true,
      "inputs": [
        {
          "internalType": "address",
          "name": "account",
          "type": "address"
        }
      ],
      "name": "isPauser",
      "outputs": [
        {
          "internalType": "bool",
          "name": "",
          "type": "bool"
        }
      ],
      "payable": false,
      "stateMutability": "view",
      "type": "function"
    },
    {
      "constant": true,
      "inputs": [],
      "name": "owner",
      "outputs": [
        {
          "internalType": "address",
          "name": "",
          "type": "address"
        }
      ],
      "payable": false,
      "stateMutability": "view",
      "type": "function"
    },
    {
      "constant": false,
      "inputs": [],
      "name": "pause",
      "outputs": [],
      "payable": false,
      "stateMutability": "nonpayable",
      "type": "function"
    },
    {
      "constant": true,
      "inputs": [],
      "name": "paused",
      "outputs": [
        {
          "internalType": "bool",
          "name": "",
          "type": "bool"
        }
      ],
      "payable": false,
      "stateMutability": "view",
      "type": "function"
    },
    {
      "constant": true,
      "inputs": [
        {
          "internalType": "uint256",
          "name": "",
          "type": "uint256"
        },
        {
          "internalType": "uint256",
          "name": "",
          "type": "uint256"
        },
        {
          "internalType": "bytes32",
          "name": "",
          "type": "bytes32"
        }
      ],
      "name": "rbbBalances",
      "outputs": [
        {
          "internalType": "uint256",
          "name": "",
          "type": "uint256"
        }
      ],
      "payable": false,
      "stateMutability": "view",
      "type": "function"
    },
    {
      "constant": false,
      "inputs": [
        {
          "internalType": "address",
          "name": "businessContractAddr",
          "type": "address"
        },
        {
          "internalType": "uint256",
          "name": "ownerId",
          "type": "uint256"
        }
      ],
      "name": "registerBusinessContract",
      "outputs": [
        {
          "internalType": "uint256",
          "name": "",
          "type": "uint256"
        }
      ],
      "payable": false,
      "stateMutability": "nonpayable",
      "type": "function"
    },
    {
      "constant": true,
      "inputs": [],
      "name": "registry",
      "outputs": [
        {
          "internalType": "contract RBBRegistry",
          "name": "",
          "type": "address"
        }
      ],
      "payable": false,
      "stateMutability": "view",
      "type": "function"
    },
    {
      "constant": false,
      "inputs": [],
      "name": "renounceOwnership",
      "outputs": [],
      "payable": false,
      "stateMutability": "nonpayable",
      "type": "function"
    },
    {
      "constant": false,
      "inputs": [],
      "name": "renouncePauser",
      "outputs": [],
      "payable": false,
      "stateMutability": "nonpayable",
      "type": "function"
    },
    {
      "constant": false,
      "inputs": [
        {
          "internalType": "address",
          "name": "addr",
          "type": "address"
        },
        {
          "internalType": "bool",
          "name": "status",
          "type": "bool"
        }
      ],
      "name": "setStatus",
      "outputs": [
        {
          "internalType": "bool",
          "name": "",
          "type": "bool"
        }
      ],
      "payable": false,
      "stateMutability": "nonpayable",
      "type": "function"
    },
    {
      "constant": false,
      "inputs": [
        {
          "internalType": "address",
          "name": "newOwner",
          "type": "address"
        }
      ],
      "name": "transferOwnership",
      "outputs": [],
      "payable": false,
      "stateMutability": "nonpayable",
      "type": "function"
    },
    {
      "constant": false,
      "inputs": [],
      "name": "unpause",
      "outputs": [],
      "payable": false,
      "stateMutability": "nonpayable",
      "type": "function"
    },
    {
      "constant": false,
      "inputs": [
        {
          "internalType": "bytes32",
          "name": "specificHash",
          "type": "bytes32"
        },
        {
          "internalType": "uint256",
          "name": "idInvestor",
          "type": "uint256"
        },
        {
          "internalType": "uint256",
          "name": "amount",
          "type": "uint256"
        }
      ],
      "name": "requestMint",
      "outputs": [],
      "payable": false,
      "stateMutability": "nonpayable",
      "type": "function"
    },
    {
      "constant": false,
      "inputs": [
        {
          "internalType": "address",
          "name": "businessContractAddr",
          "type": "address"
        },
        {
          "internalType": "bytes32",
          "name": "specificHash",
          "type": "bytes32"
        },
        {
          "internalType": "uint256",
          "name": "amount",
          "type": "uint256"
        },
        {
          "internalType": "string",
          "name": "docHash",
          "type": "string"
        },
        {
          "internalType": "string[]",
          "name": "data",
          "type": "string[]"
        }
      ],
      "name": "mint",
      "outputs": [],
      "payable": false,
      "stateMutability": "nonpayable",
      "type": "function"
    },
    {
      "constant": false,
      "inputs": [
        {
          "internalType": "uint256",
          "name": "amount",
          "type": "uint256"
        }
      ],
      "name": "burn",
      "outputs": [],
      "payable": false,
      "stateMutability": "nonpayable",
      "type": "function"
    },
    {
      "constant": false,
      "inputs": [
        {
          "internalType": "address",
          "name": "businessContractAddr",
          "type": "address"
        },
        {
          "internalType": "uint256",
          "name": "amount",
          "type": "uint256"
        }
      ],
      "name": "burn",
      "outputs": [],
      "payable": false,
      "stateMutability": "nonpayable",
      "type": "function"
    },
    {
      "constant": false,
      "inputs": [
        {
          "internalType": "address",
          "name": "businessContractAddr",
          "type": "address"
        },
        {
          "internalType": "bytes32",
          "name": "fromHash",
          "type": "bytes32"
        },
        {
          "internalType": "uint256",
          "name": "toId",
          "type": "uint256"
        },
        {
          "internalType": "bytes32",
          "name": "toHash",
          "type": "bytes32"
        },
        {
          "internalType": "uint256",
          "name": "amount",
          "type": "uint256"
        },
        {
          "internalType": "string[]",
          "name": "data",
          "type": "string[]"
        }
      ],
      "name": "transfer",
      "outputs": [],
      "payable": false,
      "stateMutability": "nonpayable",
      "type": "function"
    },
    {
      "constant": false,
      "inputs": [
        {
          "internalType": "address",
          "name": "businessContractAddr",
          "type": "address"
        },
        {
          "internalType": "uint256",
          "name": "fromId",
          "type": "uint256"
        },
        {
          "internalType": "bytes32",
          "name": "fromHash",
          "type": "bytes32"
        },
        {
          "internalType": "uint256",
          "name": "amount",
          "type": "uint256"
        },
        {
          "internalType": "string[]",
          "name": "data",
          "type": "string[]"
        }
      ],
      "name": "redeem",
      "outputs": [],
      "payable": false,
      "stateMutability": "nonpayable",
      "type": "function"
    },
    {
      "constant": false,
      "inputs": [
        {
          "internalType": "address",
          "name": "businessContractAddr",
          "type": "address"
        },
        {
          "internalType": "string",
          "name": "redemptionTransactionHash",
          "type": "string"
        },
        {
          "internalType": "string",
          "name": "receiptHash",
          "type": "string"
        },
        {
          "internalType": "string[]",
          "name": "data",
          "type": "string[]"
        }
      ],
      "name": "notifyRedemptionSettlement",
      "outputs": [],
      "payable": false,
      "stateMutability": "nonpayable",
      "type": "function"
    },
    {
      "constant": true,
      "inputs": [
        {
          "internalType": "address",
          "name": "businessContractAddr",
          "type": "address"
        }
      ],
      "name": "getReservedBalanceByBusinessContract",
      "outputs": [
        {
          "internalType": "uint256",
          "name": "",
          "type": "uint256"
        }
      ],
      "payable": false,
      "stateMutability": "view",
      "type": "function"
    },
    {
      "constant": true,
      "inputs": [],
      "name": "getDecimals",
      "outputs": [
        {
          "internalType": "uint8",
          "name": "",
          "type": "uint8"
        }
      ],
      "payable": false,
      "stateMutability": "view",
      "type": "function"
    }
  ],
  "bytecode": "0x608060405260016003556002600560006101000a81548160ff021916908360ff1602179055506000801b6006553480156200003957600080fd5b50604051620049ec380380620049ec83398181016040526200005f9190810190620003c3565b6200007f62000073620001ae60201b60201c565b620001b660201b60201c565b6000600160006101000a81548160ff0219169083151502179055506000620000ac620001ae60201b60201c565b9050806001806101000a81548173ffffffffffffffffffffffffffffffffffffffff021916908373ffffffffffffffffffffffffffffffffffffffff1602179055508073ffffffffffffffffffffffffffffffffffffffff16600073ffffffffffffffffffffffffffffffffffffffff167f8be0079c531659141344cd1fd0a4f28419497f9722a3daafe3b4186f6b6457e060405160405180910390a35081600260006101000a81548173ffffffffffffffffffffffffffffffffffffffff021916908373ffffffffffffffffffffffffffffffffffffffff16021790555080600560006101000a81548160ff021916908360ff160217905550505062000578565b600033905090565b620001d18160006200021760201b620028e21790919060201c565b8073ffffffffffffffffffffffffffffffffffffffff167f6719d08c1888103bea251a4ed56406bd0c3e69723c8a1686e017e7bbe159b6f860405160405180910390a250565b620002298282620002ca60201b60201c565b156200026c576040517f08c379a00000000000000000000000000000000000000000000000000000000081526004016200026390620004ae565b60405180910390fd5b60018260000160008373ffffffffffffffffffffffffffffffffffffffff1673ffffffffffffffffffffffffffffffffffffffff16815260200190815260200160002060006101000a81548160ff0219169083151502179055505050565b60008073ffffffffffffffffffffffffffffffffffffffff168273ffffffffffffffffffffffffffffffffffffffff1614156200033e576040517f08c379a00000000000000000000000000000000000000000000000000000000081526004016200033590620004d0565b60405180910390fd5b8260000160008373ffffffffffffffffffffffffffffffffffffffff1673ffffffffffffffffffffffffffffffffffffffff16815260200190815260200160002060009054906101000a900460ff16905092915050565b600081519050620003a68162000544565b92915050565b600081519050620003bd816200055e565b92915050565b60008060408385031215620003d757600080fd5b6000620003e78582860162000395565b9250506020620003fa85828601620003ac565b9150509250929050565b600062000413601f83620004f2565b91507f526f6c65733a206163636f756e7420616c72656164792068617320726f6c65006000830152602082019050919050565b600062000455602283620004f2565b91507f526f6c65733a206163636f756e7420697320746865207a65726f20616464726560008301527f73730000000000000000000000000000000000000000000000000000000000006020830152604082019050919050565b60006020820190508181036000830152620004c98162000404565b9050919050565b60006020820190508181036000830152620004eb8162000446565b9050919050565b600082825260208201905092915050565b6000620005108262000517565b9050919050565b600073ffffffffffffffffffffffffffffffffffffffff82169050919050565b600060ff82169050919050565b6200054f8162000503565b81146200055b57600080fd5b50565b620005698162000537565b81146200057557600080fd5b50565b61446480620005886000396000f3fe608060405234801561001057600080fd5b50600436106101f05760003560e01c80638da5cb5b1161010f578063c5b2f6a9116100a2578063e0ef4a6a11610071578063e0ef4a6a146105a8578063e6e46238146105c4578063f0141d84146105e2578063f2fde38b14610600576101f0565b8063c5b2f6a9146104e6578063cf13a0b514610518578063d508636d14610548578063e0a08b7314610578576101f0565b80639ca0daed116100de5780639ca0daed146104605780639dc29fac1461047e578063b304f21c1461049a578063b987afcb146104ca576101f0565b80638da5cb5b146103ec5780638f18ccdc1461040a5780638f32d59b1461042657806396b7bb1c14610444576101f0565b80635c975abb1161018757806382dc1ec41161015657806382dc1ec4146103655780638456cb591461038157806388431f7a1461038b5780638b214c00146103bb576101f0565b80635c975abb146103155780636ef8d66d14610333578063715018a61461033d5780637b10399914610347576101f0565b80633f4ba83a116101c35780633f4ba83a1461028f57806342966c681461029957806346fbf68e146102b557806353d5f7cf146102e5576101f0565b8063173d34a8146101f55780631b0721181461021157806330b4998314610241578063313ce56714610271575b600080fd5b61020f600480360361020a9190810190612e93565b61061c565b005b61022b60048036036102269190810190612b47565b610838565b6040516102389190613f44565b60405180910390f35b61025b60048036036102569190810190612f70565b61088b565b6040516102689190613f44565b60405180910390f35b6102796108bd565b60405161028691906140d3565b60405180910390f35b6102976108d0565b005b6102b360048036036102ae9190810190612ee2565b6109c9565b005b6102cf60048036036102ca9190810190612b47565b610a82565b6040516102dc9190613b70565b60405180910390f35b6102ff60048036036102fa9190810190612b47565b610a9f565b60405161030c9190613b70565b60405180910390f35b61031d610b79565b60405161032a9190613b70565b60405180910390f35b61033b610b90565b005b610345610ba2565b005b61034f610ca8565b60405161035c9190613bf9565b60405180910390f35b61037f600480360361037a9190810190612b47565b610cce565b005b610389610d29565b005b6103a560048036036103a09190810190612b47565b610e22565b6040516103b29190613b70565b60405180910390f35b6103d560048036036103d09190810190612b47565b610ec8565b6040516103e392919061403c565b60405180910390f35b6103f4610faa565b60405161040191906138fc565b60405180910390f35b610424600480360361041f9190810190612bac565b610fd3565b005b61042e611527565b60405161043b9190613b70565b60405180910390f35b61045e60048036036104599190810190612ddb565b611585565b005b610468611818565b6040516104759190613b8b565b60405180910390f35b61049860048036036104939190810190612d9f565b61181e565b005b6104b460048036036104af9190810190612b70565b611889565b6040516104c19190613b70565b60405180910390f35b6104e460048036036104df9190810190612cf4565b6119ce565b005b61050060048036036104fb9190810190612b47565b611c73565b60405161050f9392919061409c565b60405180910390f35b610532600480360361052d9190810190612f34565b611caa565b60405161053f9190613f44565b60405180910390f35b610562600480360361055d9190810190612d9f565b611ccf565b60405161056f9190613f44565b60405180910390f35b610592600480360361058d9190810190612b47565b611ee1565b60405161059f9190613f44565b60405180910390f35b6105c260048036036105bd9190810190612c4d565b611fbb565b005b6105cc612325565b6040516105d99190613f44565b60405180910390f35b6105ea61232b565b6040516105f791906140d3565b60405180910390f35b61061a60048036036106159190810190612b47565b612342565b005b61062533610e22565b610664576040517f08c379a000000000000000000000000000000000000000000000000000000000815260040161065b90613e64565b60405180910390fd5b61066d33610a9f565b6106ac576040517f08c379a00000000000000000000000000000000000000000000000000000000081526004016106a390613ea4565b60405180910390fd5b600081116106ef576040517f08c379a00000000000000000000000000000000000000000000000000000000081526004016106e690613d84565b60405180910390fd5b60003390506106fd81610e22565b61073c576040517f08c379a000000000000000000000000000000000000000000000000000000000815260040161073390613ec4565b60405180910390fd5b61074581610a9f565b610784576040517f08c379a000000000000000000000000000000000000000000000000000000000815260040161077b90613ce4565b60405180910390fd5b60008061079083610ec8565b915091506107cb846008600085815260200190815260200160002060008981526020019081526020016000205461239590919063ffffffff16565b600860008481526020019081526020016000206000888152602001908152602001600020819055507f20e5c426031bbf4a72750a5a2e7ba9ac82d5a16e1d5ccb393e054ca4949754858387878760405161082894939291906139bc565b60405180910390a1505050505050565b600080600061084684610ec8565b91509150600760008381526020019081526020016000206000828152602001908152602001600020600060065481526020019081526020016000205492505050919050565b600760205282600052604060002060205281600052604060002060205280600052604060002060009250925050505481565b600560009054906101000a900460ff1681565b6108e06108db6123ea565b610a82565b61091f576040517f08c379a000000000000000000000000000000000000000000000000000000000815260040161091690613d04565b60405180910390fd5b600160009054906101000a900460ff1661096e576040517f08c379a000000000000000000000000000000000000000000000000000000000815260040161096590613ca4565b60405180910390fd5b6000600160006101000a81548160ff0219169083151502179055507f5db9ee0a495bf2e6ff9c91a7834c1ba4fdd244a5e8aa4e537bd38aeae4b073aa6109b26123ea565b6040516109bf9190613917565b60405180910390a1565b6109d233610e22565b610a11576040517f08c379a0000000000000000000000000000000000000000000000000000000008152600401610a0890613e64565b60405180910390fd5b610a1a33610a9f565b610a59576040517f08c379a0000000000000000000000000000000000000000000000000000000008152600401610a5090613ea4565b60405180910390fd5b6000339050600080610a6a83610ec8565b91509150610a7c8382600654876123f2565b50505050565b6000610a9882600061253690919063ffffffff16565b9050919050565b6000610aaa82610e22565b610ae9576040517f08c379a0000000000000000000000000000000000000000000000000000000008152600401610ae090613da4565b60405180910390fd5b610af161298a565b600460008473ffffffffffffffffffffffffffffffffffffffff1673ffffffffffffffffffffffffffffffffffffffff16815260200190815260200160002060405180606001604052908160008201548152602001600182015481526020016002820160009054906101000a900460ff16151515158152505090508060400151915050919050565b6000600160009054906101000a900460ff16905090565b610ba0610b9b6123ea565b6125fe565b565b610baa611527565b610be9576040517f08c379a0000000000000000000000000000000000000000000000000000000008152600401610be090613e44565b60405180910390fd5b600073ffffffffffffffffffffffffffffffffffffffff166001809054906101000a900473ffffffffffffffffffffffffffffffffffffffff1673ffffffffffffffffffffffffffffffffffffffff167f8be0079c531659141344cd1fd0a4f28419497f9722a3daafe3b4186f6b6457e060405160405180910390a360006001806101000a81548173ffffffffffffffffffffffffffffffffffffffff021916908373ffffffffffffffffffffffffffffffffffffffff160217905550565b600260009054906101000a900473ffffffffffffffffffffffffffffffffffffffff1681565b610cde610cd96123ea565b610a82565b610d1d576040517f08c379a0000000000000000000000000000000000000000000000000000000008152600401610d1490613d04565b60405180910390fd5b610d2681612658565b50565b610d39610d346123ea565b610a82565b610d78576040517f08c379a0000000000000000000000000000000000000000000000000000000008152600401610d6f90613d04565b60405180910390fd5b600160009054906101000a900460ff1615610dc8576040517f08c379a0000000000000000000000000000000000000000000000000000000008152600401610dbf90613de4565b60405180910390fd5b60018060006101000a81548160ff0219169083151502179055507f62e78cea01bee320cd4e420270b5ea74000d11b0c9f74754ebdbfc544b05a258610e0b6123ea565b604051610e189190613917565b60405180910390a1565b6000610e2c61298a565b600460008473ffffffffffffffffffffffffffffffffffffffff1673ffffffffffffffffffffffffffffffffffffffff16815260200190815260200160002060405180606001604052908160008201548152602001600182015481526020016002820160009054906101000a900460ff16151515158152505090506000816000015114610ebd576001915050610ec3565b60009150505b919050565b600080610ed483610e22565b610f13576040517f08c379a0000000000000000000000000000000000000000000000000000000008152600401610f0a90613da4565b60405180910390fd5b610f1b61298a565b600460008573ffffffffffffffffffffffffffffffffffffffff1673ffffffffffffffffffffffffffffffffffffffff16815260200190815260200160002060405180606001604052908160008201548152602001600182015481526020016002820160009054906101000a900460ff1615151515815250509050806000015181602001519250925050915091565b60006001809054906101000a900473ffffffffffffffffffffffffffffffffffffffff16905090565b600160009054906101000a900460ff1615611023576040517f08c379a000000000000000000000000000000000000000000000000000000000815260040161101a90613de4565b60405180910390fd5b6000600260009054906101000a900473ffffffffffffffffffffffffffffffffffffffff1673ffffffffffffffffffffffffffffffffffffffff166365f68c89336040518263ffffffff1660e01b81526004016110809190613917565b60206040518083038186803b15801561109857600080fd5b505afa1580156110ac573d6000803e3d6000fd5b505050506040513d601f19601f820116820180604052506110d09190810190612f0b565b90506110db87610e22565b61111a576040517f08c379a000000000000000000000000000000000000000000000000000000000815260040161111190613ec4565b60405180910390fd5b61112387610a9f565b611162576040517f08c379a000000000000000000000000000000000000000000000000000000000815260040161115990613ce4565b60405180910390fd5b600260009054906101000a900473ffffffffffffffffffffffffffffffffffffffff1673ffffffffffffffffffffffffffffffffffffffff1663613a7896826040518263ffffffff1660e01b81526004016111bd9190613f44565b60206040518083038186803b1580156111d557600080fd5b505afa1580156111e9573d6000803e3d6000fd5b505050506040513d601f19601f8201168201806040525061120d9190810190612e6a565b61124c576040517f08c379a000000000000000000000000000000000000000000000000000000000815260040161124390613ee4565b60405180910390fd5b600260009054906101000a900473ffffffffffffffffffffffffffffffffffffffff1673ffffffffffffffffffffffffffffffffffffffff1663613a7896866040518263ffffffff1660e01b81526004016112a79190613f44565b60206040518083038186803b1580156112bf57600080fd5b505afa1580156112d3573d6000803e3d6000fd5b505050506040513d601f19601f820116820180604052506112f79190810190612e6a565b611336576040517f08c379a000000000000000000000000000000000000000000000000000000000815260040161132d90613f24565b60405180910390fd5b600061134188611ee1565b905060008890508073ffffffffffffffffffffffffffffffffffffffff1663c596acc7848a8a8a8a8a6040518763ffffffff1660e01b815260040161138b96959493929190613fd4565b600060405180830381600087803b1580156113a557600080fd5b505af11580156113b9573d6000803e3d6000fd5b5050505061141f856040518060600160405280603881526020016143ea6038913960076000868152602001908152602001600020600087815260200190815260200160002060008c8152602001908152602001600020546126b29092919063ffffffff16565b60076000848152602001908152602001600020600085815260200190815260200160002060008a8152602001908152602001600020819055506114a0856007600085815260200190815260200160002060008a815260200190815260200160002060008981526020019081526020016000205461239590919063ffffffff16565b6007600084815260200190815260200160002060008981526020019081526020016000206000888152602001908152602001600020819055507f9fbb7cb56ecba529d9d3d69bf53e20211dc815c9b635ee45c263dd4101f0cbdd89848a8a8a8a8a6040516115149796959493929190613afa565b60405180910390a1505050505050505050565b60006001809054906101000a900473ffffffffffffffffffffffffffffffffffffffff1673ffffffffffffffffffffffffffffffffffffffff166115696123ea565b73ffffffffffffffffffffffffffffffffffffffff1614905090565b600160009054906101000a900460ff16156115d5576040517f08c379a00000000000000000000000000000000000000000000000000000000081526004016115cc90613de4565b60405180910390fd5b6115de85610e22565b61161d576040517f08c379a000000000000000000000000000000000000000000000000000000000815260040161161490613ec4565b60405180910390fd5b61162685610a9f565b611665576040517f08c379a000000000000000000000000000000000000000000000000000000000815260040161165c90613e24565b60405180910390fd5b600260009054906101000a900473ffffffffffffffffffffffffffffffffffffffff1673ffffffffffffffffffffffffffffffffffffffff1663613a7896856040518263ffffffff1660e01b81526004016116c09190613f44565b60206040518083038186803b1580156116d857600080fd5b505afa1580156116ec573d6000803e3d6000fd5b505050506040513d601f19601f820116820180604052506117109190810190612e6a565b61174f576040517f08c379a000000000000000000000000000000000000000000000000000000000815260040161174690613f04565b60405180910390fd5b60008590508073ffffffffffffffffffffffffffffffffffffffff1663c92f4eb0868686866040518563ffffffff1660e01b81526004016117939493929190613f88565b600060405180830381600087803b1580156117ad57600080fd5b505af11580156117c1573d6000803e3d6000fd5b505050507f6e812c2818181269bc8b7b868519e62a203a792b53f99e06c8b2357d01e86d9c86868686866040516117fc959493929190613aa0565b60405180910390a1611810868686866123f2565b505050505050565b60065481565b611826611527565b611865576040517f08c379a000000000000000000000000000000000000000000000000000000000815260040161185c90613e44565b60405180910390fd5b60008061187184610ec8565b915091506118838482600654866123f2565b50505050565b6000611893611527565b6118d2576040517f08c379a00000000000000000000000000000000000000000000000000000000081526004016118c990613e44565b60405180910390fd5b6118db83610e22565b61191a576040517f08c379a000000000000000000000000000000000000000000000000000000000815260040161191190613da4565b60405180910390fd5b6000600460008573ffffffffffffffffffffffffffffffffffffffff1673ffffffffffffffffffffffffffffffffffffffff1681526020019081526020016000209050828160020160006101000a81548160ff0219169083151502179055507f28a61818d188a7856821431ff0deb7650c2cc34ee4b7b97616a415fa0a3dfeff81600001548260020160009054906101000a900460ff166040516119bf929190613f5f565b60405180910390a15092915050565b600160009054906101000a900460ff1615611a1e576040517f08c379a0000000000000000000000000000000000000000000000000000000008152600401611a1590613de4565b60405180910390fd5b611a26611527565b611a65576040517f08c379a0000000000000000000000000000000000000000000000000000000008152600401611a5c90613e44565b60405180910390fd5b611a6e84610e22565b611aad576040517f08c379a0000000000000000000000000000000000000000000000000000000008152600401611aa490613ec4565b60405180910390fd5b611ab684610a9f565b611af5576040517f08c379a0000000000000000000000000000000000000000000000000000000008152600401611aec90613e24565b60405180910390fd5b73__RBBLib________________________________636edcb12f836040518263ffffffff1660e01b8152600401611b2c9190613c36565b60206040518083038186803b158015611b4457600080fd5b505af4158015611b58573d6000803e3d6000fd5b505050506040513d601f19601f82011682018060405250611b7c9190810190612e6a565b611bbb576040517f08c379a0000000000000000000000000000000000000000000000000000000008152600401611bb290613dc4565b60405180910390fd5b60008490508073ffffffffffffffffffffffffffffffffffffffff1663bc0077638585856040518463ffffffff1660e01b8152600401611bfd93929190613c58565b600060405180830381600087803b158015611c1757600080fd5b505af1158015611c2b573d6000803e3d6000fd5b505050507f2f2fd572c80ae93bda9f55fe54d703939c0eebc4bc2c5d24a4a1e3dcf23f469f85858585604051611c649493929190613a01565b60405180910390a15050505050565b60046020528060005260406000206000915090508060000154908060010154908060020160009054906101000a900460ff16905083565b6008602052816000526040600020602052806000526040600020600091509150505481565b6000611cd9611527565b611d18576040517f08c379a0000000000000000000000000000000000000000000000000000000008152600401611d0f90613e44565b60405180910390fd5b611d2183610e22565b15611d61576040517f08c379a0000000000000000000000000000000000000000000000000000000008152600401611d5890613d44565b60405180910390fd5b60008390508073ffffffffffffffffffffffffffffffffffffffff16633dfdcfab600260009054906101000a900473ffffffffffffffffffffffffffffffffffffffff16306040518363ffffffff1660e01b8152600401611dc3929190613932565b600060405180830381600087803b158015611ddd57600080fd5b505af1158015611df1573d6000803e3d6000fd5b505050506040518060600160405280600354815260200184815260200160011515815250600460008673ffffffffffffffffffffffffffffffffffffffff1673ffffffffffffffffffffffffffffffffffffffff168152602001908152602001600020600082015181600001556020820151816001015560408201518160020160006101000a81548160ff0219169083151502179055509050507f20837d6e0b7236235210e8dcb5168dc3712b7652ca9b5f328e9aaecdd6f386cd6003548486604051611ec093929190614065565b60405180910390a16003600081548092919060010191905055505092915050565b6000611eec82610e22565b611f2b576040517f08c379a0000000000000000000000000000000000000000000000000000000008152600401611f2290613da4565b60405180910390fd5b611f3361298a565b600460008473ffffffffffffffffffffffffffffffffffffffff1673ffffffffffffffffffffffffffffffffffffffff16815260200190815260200160002060405180606001604052908160008201548152602001600182015481526020016002820160009054906101000a900460ff16151515158152505090508060000151915050919050565b611fc3611527565b612002576040517f08c379a0000000000000000000000000000000000000000000000000000000008152600401611ff990613e44565b60405180910390fd5b61200b85610e22565b61204a576040517f08c379a000000000000000000000000000000000000000000000000000000000815260040161204190613ec4565b60405180910390fd5b61205385610a9f565b612092576040517f08c379a000000000000000000000000000000000000000000000000000000000815260040161208990613ce4565b60405180910390fd5b73__RBBLib________________________________636edcb12f836040518263ffffffff1660e01b81526004016120c99190613c36565b60206040518083038186803b1580156120e157600080fd5b505af41580156120f5573d6000803e3d6000fd5b505050506040513d601f19601f820116820180604052506121199190810190612e6a565b612158576040517f08c379a000000000000000000000000000000000000000000000000000000000815260040161214f90613dc4565b60405180910390fd5b60008061216487610ec8565b915091506121b985604051806060016040528060298152602001614386602991396008600086815260200190815260200160002060008a8152602001908152602001600020546126b29092919063ffffffff16565b6008600084815260200190815260200160002060008881526020019081526020016000208190555061222b85600760008581526020019081526020016000206000848152602001908152602001600020600060065481526020019081526020016000205461239590919063ffffffff16565b600760008481526020019081526020016000206000838152602001908152602001600020600060065481526020019081526020016000208190555060008790508073ffffffffffffffffffffffffffffffffffffffff16636b4dd41f888887896040518563ffffffff1660e01b81526004016122aa9493929190613ba6565b600060405180830381600087803b1580156122c457600080fd5b505af11580156122d8573d6000803e3d6000fd5b505050507fef1c42fc8b3e4dbc907ef5506ed8fbfd24e2102fb73b3e66bccf15def6bb4fd8888888888860405161231395949392919061395b565b60405180910390a15050505050505050565b60035481565b6000600560009054906101000a900460ff16905090565b61234a611527565b612389576040517f08c379a000000000000000000000000000000000000000000000000000000000815260040161238090613e44565b60405180910390fd5b6123928161270d565b50565b6000808284019050838110156123e0576040517f08c379a00000000000000000000000000000000000000000000000000000000081526004016123d790613d64565b60405180910390fd5b8091505092915050565b600033905090565b6123fb84610e22565b61243a576040517f08c379a000000000000000000000000000000000000000000000000000000000815260040161243190613ec4565b60405180910390fd5b61244384610a9f565b612482576040517f08c379a000000000000000000000000000000000000000000000000000000000815260040161247990613e24565b60405180910390fd5b600061248d85611ee1565b90506124f1826040518060600160405280603b81526020016143af603b91396007600085815260200190815260200160002060008881526020019081526020016000206000878152602001908152602001600020546126b29092919063ffffffff16565b507fbb1ad37219830377dfb06065e971d1cb26d7099497b73445398977b1ccc99c86858585856040516125279493929190613a5b565b60405180910390a15050505050565b60008073ffffffffffffffffffffffffffffffffffffffff168273ffffffffffffffffffffffffffffffffffffffff1614156125a7576040517f08c379a000000000000000000000000000000000000000000000000000000000815260040161259e90613e84565b60405180910390fd5b8260000160008373ffffffffffffffffffffffffffffffffffffffff1673ffffffffffffffffffffffffffffffffffffffff16815260200190815260200160002060009054906101000a900460ff16905092915050565b61261281600061283b90919063ffffffff16565b8073ffffffffffffffffffffffffffffffffffffffff167fcd265ebaf09df2871cc7bd4133404a235ba12eff2041bb89d9c714a2621c7c7e60405160405180910390a250565b61266c8160006128e290919063ffffffff16565b8073ffffffffffffffffffffffffffffffffffffffff167f6719d08c1888103bea251a4ed56406bd0c3e69723c8a1686e017e7bbe159b6f860405160405180910390a250565b60008383111582906126fa576040517f08c379a00000000000000000000000000000000000000000000000000000000081526004016126f19190613c14565b60405180910390fd5b5060008385039050809150509392505050565b600073ffffffffffffffffffffffffffffffffffffffff168173ffffffffffffffffffffffffffffffffffffffff16141561277d576040517f08c379a000000000000000000000000000000000000000000000000000000000815260040161277490613d24565b60405180910390fd5b8073ffffffffffffffffffffffffffffffffffffffff166001809054906101000a900473ffffffffffffffffffffffffffffffffffffffff1673ffffffffffffffffffffffffffffffffffffffff167f8be0079c531659141344cd1fd0a4f28419497f9722a3daafe3b4186f6b6457e060405160405180910390a3806001806101000a81548173ffffffffffffffffffffffffffffffffffffffff021916908373ffffffffffffffffffffffffffffffffffffffff16021790555050565b6128458282612536565b612884576040517f08c379a000000000000000000000000000000000000000000000000000000000815260040161287b90613e04565b60405180910390fd5b60008260000160008373ffffffffffffffffffffffffffffffffffffffff1673ffffffffffffffffffffffffffffffffffffffff16815260200190815260200160002060006101000a81548160ff0219169083151502179055505050565b6128ec8282612536565b1561292c576040517f08c379a000000000000000000000000000000000000000000000000000000000815260040161292390613cc4565b60405180910390fd5b60018260000160008373ffffffffffffffffffffffffffffffffffffffff1673ffffffffffffffffffffffffffffffffffffffff16815260200190815260200160002060006101000a81548160ff0219169083151502179055505050565b604051806060016040528060008152602001600081526020016000151581525090565b6000813590506129bc81614329565b92915050565b600082601f8301126129d357600080fd5b81356129e66129e18261411b565b6140ee565b9150818183526020840193506020810190508360005b83811015612a2c5781358601612a128882612a75565b8452602084019350602083019250506001810190506129fc565b5050505092915050565b600081359050612a4581614340565b92915050565b600081519050612a5a81614340565b92915050565b600081359050612a6f81614357565b92915050565b600082601f830112612a8657600080fd5b8135612a99612a9482614143565b6140ee565b91508082526020830160208301858383011115612ab557600080fd5b612ac08382846142d6565b50505092915050565b600082601f830112612ada57600080fd5b8135612aed612ae88261416f565b6140ee565b91508082526020830160208301858383011115612b0957600080fd5b612b148382846142d6565b50505092915050565b600081359050612b2c8161436e565b92915050565b600081519050612b418161436e565b92915050565b600060208284031215612b5957600080fd5b6000612b67848285016129ad565b91505092915050565b60008060408385031215612b8357600080fd5b6000612b91858286016129ad565b9250506020612ba285828601612a36565b9150509250929050565b60008060008060008060c08789031215612bc557600080fd5b6000612bd389828a016129ad565b9650506020612be489828a01612a60565b9550506040612bf589828a01612b1d565b9450506060612c0689828a01612a60565b9350506080612c1789828a01612b1d565b92505060a087013567ffffffffffffffff811115612c3457600080fd5b612c4089828a016129c2565b9150509295509295509295565b600080600080600060a08688031215612c6557600080fd5b6000612c73888289016129ad565b9550506020612c8488828901612a60565b9450506040612c9588828901612b1d565b935050606086013567ffffffffffffffff811115612cb257600080fd5b612cbe88828901612ac9565b925050608086013567ffffffffffffffff811115612cdb57600080fd5b612ce7888289016129c2565b9150509295509295909350565b60008060008060808587031215612d0a57600080fd5b6000612d18878288016129ad565b945050602085013567ffffffffffffffff811115612d3557600080fd5b612d4187828801612ac9565b935050604085013567ffffffffffffffff811115612d5e57600080fd5b612d6a87828801612ac9565b925050606085013567ffffffffffffffff811115612d8757600080fd5b612d93878288016129c2565b91505092959194509250565b60008060408385031215612db257600080fd5b6000612dc0858286016129ad565b9250506020612dd185828601612b1d565b9150509250929050565b600080600080600060a08688031215612df357600080fd5b6000612e01888289016129ad565b9550506020612e1288828901612b1d565b9450506040612e2388828901612a60565b9350506060612e3488828901612b1d565b925050608086013567ffffffffffffffff811115612e5157600080fd5b612e5d888289016129c2565b9150509295509295909350565b600060208284031215612e7c57600080fd5b6000612e8a84828501612a4b565b91505092915050565b600080600060608486031215612ea857600080fd5b6000612eb686828701612a60565b9350506020612ec786828701612b1d565b9250506040612ed886828701612b1d565b9150509250925092565b600060208284031215612ef457600080fd5b6000612f0284828501612b1d565b91505092915050565b600060208284031215612f1d57600080fd5b6000612f2b84828501612b32565b91505092915050565b60008060408385031215612f4757600080fd5b6000612f5585828601612b1d565b9250506020612f6685828601612a60565b9150509250929050565b600080600060608486031215612f8557600080fd5b6000612f9386828701612b1d565b9350506020612fa486828701612b1d565b9250506040612fb586828701612a60565b9150509250925092565b6000612fcb8383613105565b905092915050565b612fdc8161427c565b82525050565b612feb8161421d565b82525050565b6000612ffc826141ab565b61300681856141d9565b9350836020820285016130188561419b565b8060005b8581101561305457848403895281516130358582612fbf565b9450613040836141cc565b925060208a0199505060018101905061301c565b50829750879550505050505092915050565b61306f8161422f565b82525050565b61307e8161423b565b82525050565b61308d8161428e565b82525050565b600061309e826141c1565b6130a881856141fb565b93506130b88185602086016142e5565b6130c181614318565b840191505092915050565b60006130d7826141c1565b6130e1818561420c565b93506130f18185602086016142e5565b6130fa81614318565b840191505092915050565b6000613110826141b6565b61311a81856141ea565b935061312a8185602086016142e5565b61313381614318565b840191505092915050565b600061314b6014836141fb565b91507f5061757361626c653a206e6f74207061757365640000000000000000000000006000830152602082019050919050565b600061318b601f836141fb565b91507f526f6c65733a206163636f756e7420616c72656164792068617320726f6c65006000830152602082019050919050565b60006131cb6025836141fb565b91507f436f6e747261746f206573706563c3ad6669636f206ec3a36f20657374c3a12060008301527f617469766f0000000000000000000000000000000000000000000000000000006020830152604082019050919050565b60006132316030836141fb565b91507f506175736572526f6c653a2063616c6c657220646f6573206e6f74206861766560008301527f207468652050617573657220726f6c65000000000000000000000000000000006020830152604082019050919050565b60006132976026836141fb565b91507f4f776e61626c653a206e6577206f776e657220697320746865207a65726f206160008301527f64647265737300000000000000000000000000000000000000000000000000006020830152604082019050919050565b60006132fd6017836141fb565b91507f436f6e747261746f206ac3a1207265676973747261646f0000000000000000006000830152602082019050919050565b600061333d601b836141fb565b91507f536166654d6174683a206164646974696f6e206f766572666c6f7700000000006000830152602082019050919050565b600061337d6035836141fb565b91507f56616c6f72206120736572207472616e736163696f6e61646f2064657665207360008301527f6572206d61696f7220646f20717565207a65726f2e00000000000000000000006020830152604082019050919050565b60006133e36022836141fb565b91507f436f6e747261746f206465206e65676f63696f206e616f20726567697374726160008301527f646f0000000000000000000000000000000000000000000000000000000000006020830152604082019050919050565b60006134496024836141fb565b91507f4f206861736820646120636f6d70726f7661c3a7c3a36f20c3a920696e76c3a160008301527f6c69646f000000000000000000000000000000000000000000000000000000006020830152604082019050919050565b60006134af6010836141fb565b91507f5061757361626c653a20706175736564000000000000000000000000000000006000830152602082019050919050565b60006134ef6021836141fb565b91507f526f6c65733a206163636f756e7420646f6573206e6f74206861766520726f6c60008301527f65000000000000000000000000000000000000000000000000000000000000006020830152604082019050919050565b6000613555602c836141fb565b91507f436f6e747261746f207072656369736120657374617220617469766f2070617260008301527f61206861766572206275726e00000000000000000000000000000000000000006020830152604082019050919050565b60006135bb6020836141fb565b91507f4f776e61626c653a2063616c6c6572206973206e6f7420746865206f776e65726000830152602082019050919050565b60006135fb604c836141fb565b91507f4dc3a9746f646f2073c3b320706f646520736572206368616d61646f20706f7260008301527f20636f6e747261746f206465206e6567c3b363696f207072657669616d656e7460208301527f65206361646173747261646f00000000000000000000000000000000000000006040830152606082019050919050565b60006136876022836141fb565b91507f526f6c65733a206163636f756e7420697320746865207a65726f20616464726560008301527f73730000000000000000000000000000000000000000000000000000000000006020830152604082019050919050565b60006136ed603b836141fb565b91507f4dc3a9746f646f2073c3b320706f646520736572206368616d61646f20706f7260008301527f20636f6e747261746f206465206e6567c3b363696f20617469766f00000000006020830152604082019050919050565b6000613753602a836141fb565b91507f436f6e747261746f206573706563c3ad6669636f206ec3a36f20657374c3a12060008301527f7265676973747261646f000000000000000000000000000000000000000000006020830152604082019050919050565b60006137b96033836141fb565b91507f436f6e7461206465206f726967656d207072656369736120657374617220636f60008301527f6d20636164617374726f2076616c696461646f000000000000000000000000006020830152604082019050919050565b600061381f603f836141fb565b91507f436f6e746120736f6c69636974616e746520646f2072656465656d207072656360008301527f69736120657374617220636f6d20636164617374726f2076616c696461646f006020830152604082019050919050565b60006138856034836141fb565b91507f436f6e74612064652064657374696e6f2070726563697361206573746172206360008301527f6f6d20636164617374726f2076616c696461646f0000000000000000000000006020830152604082019050919050565b6138e781614265565b82525050565b6138f68161426f565b82525050565b60006020820190506139116000830184612fe2565b92915050565b600060208201905061392c6000830184612fd3565b92915050565b60006040820190506139476000830185612fe2565b6139546020830184612fe2565b9392505050565b600060a0820190506139706000830188612fe2565b61397d6020830187613075565b61398a60408301866138de565b818103606083015261399c8185613093565b905081810360808301526139b08184612ff1565b90509695505050505050565b60006080820190506139d16000830187612fe2565b6139de6020830186613075565b6139eb60408301856138de565b6139f860608301846138de565b95945050505050565b6000608082019050613a166000830187612fe2565b8181036020830152613a288186613093565b90508181036040830152613a3c8185613093565b90508181036060830152613a508184612ff1565b905095945050505050565b6000608082019050613a706000830187612fe2565b613a7d60208301866138de565b613a8a6040830185613075565b613a9760608301846138de565b95945050505050565b600060a082019050613ab56000830188612fe2565b613ac260208301876138de565b613acf6040830186613075565b613adc60608301856138de565b8181036080830152613aee8184612ff1565b90509695505050505050565b600060e082019050613b0f600083018a612fe2565b613b1c60208301896138de565b613b296040830188613075565b613b3660608301876138de565b613b436080830186613075565b613b5060a08301856138de565b81810360c0830152613b628184612ff1565b905098975050505050505050565b6000602082019050613b856000830184613066565b92915050565b6000602082019050613ba06000830184613075565b92915050565b6000608082019050613bbb6000830187613075565b613bc860208301866138de565b8181036040830152613bda8185612ff1565b90508181036060830152613bee8184613093565b905095945050505050565b6000602082019050613c0e6000830184613084565b92915050565b60006020820190508181036000830152613c2e8184613093565b905092915050565b60006020820190508181036000830152613c5081846130cc565b905092915050565b60006060820190508181036000830152613c728186613093565b90508181036020830152613c868185613093565b90508181036040830152613c9a8184612ff1565b9050949350505050565b60006020820190508181036000830152613cbd8161313e565b9050919050565b60006020820190508181036000830152613cdd8161317e565b9050919050565b60006020820190508181036000830152613cfd816131be565b9050919050565b60006020820190508181036000830152613d1d81613224565b9050919050565b60006020820190508181036000830152613d3d8161328a565b9050919050565b60006020820190508181036000830152613d5d816132f0565b9050919050565b60006020820190508181036000830152613d7d81613330565b9050919050565b60006020820190508181036000830152613d9d81613370565b9050919050565b60006020820190508181036000830152613dbd816133d6565b9050919050565b60006020820190508181036000830152613ddd8161343c565b9050919050565b60006020820190508181036000830152613dfd816134a2565b9050919050565b60006020820190508181036000830152613e1d816134e2565b9050919050565b60006020820190508181036000830152613e3d81613548565b9050919050565b60006020820190508181036000830152613e5d816135ae565b9050919050565b60006020820190508181036000830152613e7d816135ee565b9050919050565b60006020820190508181036000830152613e9d8161367a565b9050919050565b60006020820190508181036000830152613ebd816136e0565b9050919050565b60006020820190508181036000830152613edd81613746565b9050919050565b60006020820190508181036000830152613efd816137ac565b9050919050565b60006020820190508181036000830152613f1d81613812565b9050919050565b60006020820190508181036000830152613f3d81613878565b9050919050565b6000602082019050613f5960008301846138de565b92915050565b6000604082019050613f7460008301856138de565b613f816020830184613066565b9392505050565b6000608082019050613f9d60008301876138de565b613faa6020830186613075565b613fb760408301856138de565b8181036060830152613fc98184612ff1565b905095945050505050565b600060c082019050613fe960008301896138de565b613ff66020830188613075565b61400360408301876138de565b6140106060830186613075565b61401d60808301856138de565b81810360a083015261402f8184612ff1565b9050979650505050505050565b600060408201905061405160008301856138de565b61405e60208301846138de565b9392505050565b600060608201905061407a60008301866138de565b61408760208301856138de565b6140946040830184612fe2565b949350505050565b60006060820190506140b160008301866138de565b6140be60208301856138de565b6140cb6040830184613066565b949350505050565b60006020820190506140e860008301846138ed565b92915050565b6000604051905081810181811067ffffffffffffffff8211171561411157600080fd5b8060405250919050565b600067ffffffffffffffff82111561413257600080fd5b602082029050602081019050919050565b600067ffffffffffffffff82111561415a57600080fd5b601f19601f8301169050602081019050919050565b600067ffffffffffffffff82111561418657600080fd5b601f19601f8301169050602081019050919050565b6000819050602082019050919050565b600081519050919050565b600081519050919050565b600081519050919050565b6000602082019050919050565b600082825260208201905092915050565b600082825260208201905092915050565b600082825260208201905092915050565b600082825260208201905092915050565b600061422882614245565b9050919050565b60008115159050919050565b6000819050919050565b600073ffffffffffffffffffffffffffffffffffffffff82169050919050565b6000819050919050565b600060ff82169050919050565b6000614287826142b2565b9050919050565b6000614299826142a0565b9050919050565b60006142ab82614245565b9050919050565b60006142bd826142c4565b9050919050565b60006142cf82614245565b9050919050565b82818337600083830152505050565b60005b838110156143035780820151818401526020810190506142e8565b83811115614312576000848401525b50505050565b6000601f19601f8301169050919050565b6143328161421d565b811461433d57600080fd5b50565b6143498161422f565b811461435457600080fd5b50565b6143608161423b565b811461436b57600080fd5b50565b61437781614265565b811461438257600080fd5b5056fe546f74616c20646520656d697373c3a36f206578636564652076616c6f7220736f6c6963697461646f546f74616c20646520746f6b656e73206120736572656d20717565696d61646f7320c3a9206d61696f7220646f20717565206f2062616c616e636553616c646f206461206f726967656d206ec3a36f20c3a920737566696369656e746520706172612061207472616e73666572c3aa6e636961a365627a7a723158209dd3323eea87f7216cb3c031e5049552824a97ad9e386a8e21280092c48107e46c6578706572696d656e74616cf564736f6c63430005100040",
  "source": "pragma solidity ^0.5.0;\npragma experimental ABIEncoderV2;\n\n\nimport \"./RBBLib.sol\";\nimport \"./RBBRegistry.sol\";\nimport \"./SpecificRBBToken.sol\";\nimport \"@openzeppelin/contracts/ownership/Ownable.sol\";\nimport \"@openzeppelin/contracts/lifecycle/Pausable.sol\";\nimport \"@openzeppelin/contracts/math/SafeMath.sol\";\n\n//TODO: framework de mudanca e como incluir um business contract com um id especfico\n//TODO: avaliar se precisa ter totalSupply de cada contrato ou outras info derivadas para aumentar programabilidade\n//TODO: Alterar Owner para id e address, ao inves de somente address? BAIXA PRIORIDADE\n//TODO: pensar em mudanas de CNPJ por motivos de negcio (compra de empresa por exemplo) --- Nogueira\ncontract BusinessContractRegistry is Ownable {\n\n    RBBRegistry public registry;\n\n    //It starts with 1, because 0 is the id value returned when the item is not found in the businessContractsRegistry\n    uint public idCount = 1;\n\n    struct BusinessContractInfo {\n        uint id;\n        uint ownerId;\n        bool isActive;\n    }\n\n    event BusinessContractRegistration (uint id, uint ownerId, address addr);\n    event BusinessContractStateChange (uint id, bool state);\n\n    //indexado pelo address pq serah a forma mais usada para consulta.\n    mapping (address => BusinessContractInfo) public businessContractsRegistry;\n\n    modifier onlyByRegisteredAndActiveContracts {\n        require(containsBusinessContract(msg.sender), \"Mtodo s pode ser chamado por contrato de negcio previamente cadastrado\");\n        require(isBusinessContractActive(msg.sender), \"Mtodo s pode ser chamado por contrato de negcio ativo\");\n        _;\n    }\n\n//TODO: adicionar como ponto positivo do contrato genrico no PPT. nao eh possivel mudar o uint do owner sem mudar o contrato\n    function registerBusinessContract (address businessContractAddr, uint ownerId) public onlyOwner returns (uint)  {\n        require (!containsBusinessContract(businessContractAddr), \"Contrato j registrado\");\n\n        SpecificRBBToken specificContract = SpecificRBBToken(businessContractAddr);\n        specificContract.setInitializationDataDuringRegistration(address(registry), address(this));\n\n\n        businessContractsRegistry[businessContractAddr] = BusinessContractInfo(idCount, ownerId, true);\n        emit BusinessContractRegistration (idCount, ownerId, businessContractAddr);\n        idCount++;\n    }\n\n    function getBusinessContractId (address addr) public view returns (uint) {\n        require (containsBusinessContract(addr), \"Contrato de negocio nao registrado\");\n        BusinessContractInfo memory info = businessContractsRegistry[addr];\n        return info.id;\n    }\n\n    function getBusinessContractIdAndOwnerId (address addr) public view returns (uint, uint) {\n        require (containsBusinessContract(addr), \"Contrato de negocio nao registrado\");\n        BusinessContractInfo memory info = businessContractsRegistry[addr];\n        return (info.id, info.ownerId);\n    }\n    \n    function containsBusinessContract(address addr) public view returns (bool) {\n        BusinessContractInfo memory info = businessContractsRegistry[addr];\n        if (info.id!=0) return true;\n        else return false;\n    }\n\n    function isBusinessContractActive(address addr) public view returns (bool) {\n        require (containsBusinessContract(addr), \"Contrato de negocio nao registrado\");\n        BusinessContractInfo memory info = businessContractsRegistry[addr];\n        return info.isActive;\n    }\n\n    function setStatus(address addr, bool status) public onlyOwner returns (bool) {\n        require (containsBusinessContract(addr), \"Contrato de negocio nao registrado\");\n        BusinessContractInfo storage info = businessContractsRegistry[addr];\n        info.isActive = status;\n        emit BusinessContractStateChange(info.id, info.isActive);\n    }\n}\n\ncontract RBBToken is Pausable, BusinessContractRegistry {\n\n    using SafeMath for uint;\n\n    uint8 public decimals = 2;\n    bytes32 public RESERVED_HASH_VALUE = 0x0000000000000000000000000000000000000000000000000000000000000000;\n\n    //businessContractId => (RBBid => (specificHash => amount)\n    mapping (uint => mapping (uint => mapping (bytes32 => uint))) public rbbBalances;\n\n    //businessContractId => (specificHash => amount)\n    mapping (uint => mapping (bytes32 => uint)) public balaceRequestedTokens;\n\n    event RBBTokenMintRequest(address businessContractAddr, bytes32 specificHash, uint idInvestor, uint amount);\n    event RBBTokenMint(address businessContractAddr, bytes32 specificHash, uint amount, string docHash, string[] data);\n    event RBBTokenBurn(address businessContractAddr, uint fromId, bytes32 fromHash, uint amount);\n    event RBBTokenTransfer (address businessContractAddr, uint fromId, bytes32 fromHash, uint toId,\n                            bytes32 toHash, uint amount, string[] data);\n    event RBBTokenRedemptionRequested (address businessContractAddr, uint fromId, bytes32 fromHash, \n                            uint amount, string[] data);\n    event RBBTokenRedemptionSettlement(address businessContractAddr, string redemptionTransactionHash, \n                            string receiptHash, string[] data);\n\n\n    constructor (address newRegistryAddr, uint8 _decimals) public {\n        registry = RBBRegistry(newRegistryAddr);\n        decimals = _decimals;\n    }\n\n\n\n///******************************************************************* */\n\n//TODO: incluir idFonteRecurso, incluir novo hash aqui?\n    function requestMint(bytes32 specificHash, uint idInvestor, uint amount) public onlyByRegisteredAndActiveContracts {\n    \n        require (amount>0, \"Valor a ser transacionado deve ser maior do que zero.\");\n        address businessContractAddr = msg.sender;\n\n        require(containsBusinessContract(businessContractAddr), \"Contrato especfico no est registrado\");\n        require(isBusinessContractActive(businessContractAddr), \"Contrato especfico no est ativo\");\n\n        (uint businessContractId, uint businessContractOwnerId) = \n                    getBusinessContractIdAndOwnerId(businessContractAddr);\n\n        balaceRequestedTokens[businessContractId][specificHash] = \n            balaceRequestedTokens[businessContractId][specificHash].add(amount);\n    \n        emit RBBTokenMintRequest(businessContractAddr, specificHash, idInvestor, amount);\n\n    }\n\n    function mint(address businessContractAddr, bytes32 specificHash, uint amount, string memory docHash,\n        string[] memory data) public onlyOwner {\n\n        require(containsBusinessContract(businessContractAddr), \"Contrato especfico no est registrado\");\n        require(isBusinessContractActive(businessContractAddr), \"Contrato especfico no est ativo\");\n//        require(amount>0, \"Valor a queimar deve ser maior do que zero\");\n\n        require (RBBLib.isValidHash(docHash), \"O hash da comprovao  invlido\");\n\n        (uint businessContractId, uint businessContractOwnerId) = \n                    getBusinessContractIdAndOwnerId(businessContractAddr);\n\n        balaceRequestedTokens[businessContractId][specificHash] \n            = balaceRequestedTokens[businessContractId][specificHash].sub(amount, \"Total de emisso excede valor solicitado\");\n\n        rbbBalances[businessContractId][businessContractOwnerId][RESERVED_HASH_VALUE] = \n            rbbBalances[businessContractId][businessContractOwnerId][RESERVED_HASH_VALUE].add(amount);\n\n        SpecificRBBToken specificContract = SpecificRBBToken(businessContractAddr);\n        specificContract.verifyAndActForMint(specificHash, amount, data, docHash);\n\n        emit RBBTokenMint(businessContractAddr, specificHash, amount, docHash, data);\n    }\n\n    function burn (address businessContractAddr, uint amount) public onlyOwner {\n\n        (uint businessContractId, uint businessContractOwnerId) = \n                    getBusinessContractIdAndOwnerId(businessContractAddr);\n        _burn(businessContractAddr, businessContractOwnerId, RESERVED_HASH_VALUE, amount);\n\n    }\n\n    function burn (uint amount) public onlyByRegisteredAndActiveContracts {\n\n        address businessContractAddr = msg.sender;\n        (uint businessContractId, uint businessContractOwnerId) = \n                    getBusinessContractIdAndOwnerId(businessContractAddr);\n        \n        _burn(businessContractAddr, businessContractOwnerId, RESERVED_HASH_VALUE, amount);\n\n    }\n\n    function _burn(address businessContractAddr, uint fromId, bytes32 fromHash, uint amount) internal {\n        \n        require(containsBusinessContract(businessContractAddr), \"Contrato especfico no est registrado\");\n        require(isBusinessContractActive(businessContractAddr), \"Contrato precisa estar ativo para haver burn\");\n//        require(amount>0, \"Valor a queimar deve ser maior do que zero\");\n\n        uint businessContractId = getBusinessContractId(businessContractAddr);\n\n        rbbBalances[businessContractId][fromId][fromHash].sub(amount, \"Total de tokens a serem queimados  maior do que o balance\");\n\n        emit RBBTokenBurn(businessContractAddr, fromId, fromHash, amount);\n    }\n\n///******************************************************************* */\n\n\n//chamados de interveno manual tambm seriam feitos pelo transfer, com verificao de intervencao manual\n\n//TODO: incluir hash de registro um objeto genrico para registrar informacoes\n    function transfer (address businessContractAddr, bytes32 fromHash, uint toId, bytes32 toHash, \n            uint amount, string[] memory data) public whenNotPaused {\n\n        uint fromId = registry.getId(msg.sender);\n\n        require(containsBusinessContract(businessContractAddr), \"Contrato especfico no est registrado\");\n        require(isBusinessContractActive(businessContractAddr), \"Contrato especfico no est ativo\");\n\n        require(registry.isValidatedId(fromId), \"Conta de origem precisa estar com cadastro validado\");\n        require(registry.isValidatedId(toId), \"Conta de destino precisa estar com cadastro validado\");\n        uint businessContractId = getBusinessContractId(businessContractAddr);\n\n        SpecificRBBToken specificContract = SpecificRBBToken(businessContractAddr);\n        specificContract.verifyAndActForTransfer(fromId, fromHash, toId, toHash, amount, data);\n\n        //altera valores de saldo\n        rbbBalances[businessContractId][fromId][fromHash] =\n                rbbBalances[businessContractId][fromId][fromHash].sub(amount, \"Saldo da origem no  suficiente para a transferncia\");\n        rbbBalances[businessContractId][toId][toHash] = rbbBalances[businessContractId][toId][toHash].add(amount);\n\n        emit RBBTokenTransfer (businessContractAddr, fromId, fromHash, toId, toHash, amount, data);\n\n    }\n\n    function redeem (address businessContractAddr, uint fromId, bytes32 fromHash, uint amount, string[] memory data) public \n        whenNotPaused  {\n\n            require(containsBusinessContract(businessContractAddr), \"Contrato especfico no est registrado\");\n            require(isBusinessContractActive(businessContractAddr), \"Contrato precisa estar ativo para haver burn\");\n            require(registry.isValidatedId(fromId), \"Conta solicitante do redeem precisa estar com cadastro validado\");\n//        require(amount>0, \"Valor a queimar deve ser maior do que zero\");\n    \n            SpecificRBBToken specificContract = SpecificRBBToken(businessContractAddr);\n            specificContract.verifyAndActForRedeem(fromId, fromHash, amount, data);\n\n            emit RBBTokenRedemptionRequested(businessContractAddr, fromId, fromHash, amount, data);\n            _burn(businessContractAddr, fromId, fromHash, amount);\n    }\n\n   /**\n    * Using this function, the Responsible for Settlement indicates that he has made the FIAT money transfer.\n    * @ param redemptionTransactionHash hash of the redeem transaction in which the FIAT money settlement occurred.\n    * @ param receiptHash hash that proof the FIAT money transfer\n    */ \n    function notifyRedemptionSettlement(address businessContractAddr, string memory redemptionTransactionHash, \n        string memory receiptHash, string[] memory data)\n        public whenNotPaused onlyOwner {\n\n        require(containsBusinessContract(businessContractAddr), \"Contrato especfico no est registrado\");\n        require(isBusinessContractActive(businessContractAddr), \"Contrato precisa estar ativo para haver burn\");\n        require (RBBLib.isValidHash(receiptHash), \"O hash da comprovao  invlido\");\n\n        SpecificRBBToken specificContract = SpecificRBBToken(businessContractAddr);\n        specificContract.verifyAndActForRedemptionSettlement(redemptionTransactionHash, receiptHash, data);\n\n        emit RBBTokenRedemptionSettlement(businessContractAddr, redemptionTransactionHash, receiptHash, data);\n    }\n    \n\n///******************************************************************* */\n\n    function getReservedBalanceByBusinessContract(address businessContractAddr) view public returns (uint) {\n\n        (uint businessContractId, uint businessContractOwnerId) = \n                getBusinessContractIdAndOwnerId(businessContractAddr);\n        return rbbBalances[businessContractId][businessContractOwnerId][RESERVED_HASH_VALUE];\n    }\n\n    function getDecimals() public view returns (uint8) {\n        return decimals;\n    }\n\n/*\n    function getBndesId() view public returns (uint) {\n        uint bndesId = registry.getId(owner());\n        return bndesId;\n    }\n*/    \n\n}",
  "sourcePath": "/Users/suzana.moreno/workspace/rbb-token/Back-Blockchain/contracts/RBBToken.sol",
  "compiler": {
    "name": "solc",
    "version": "0.5.16+commit.9c3226ce.Emscripten.clang"
  },
  "schemaVersion": "3.0.23",
  "updatedAt": "2020-09-18T17:16:10.271Z",
  "devdoc": {
    "methods": {
      "isOwner()": {
        "details": "Returns true if the caller is the current owner."
      },
      "owner()": {
        "details": "Returns the address of the current owner."
      },
      "pause()": {
        "details": "Called by a pauser to pause, triggers stopped state."
      },
      "paused()": {
        "details": "Returns true if the contract is paused, and false otherwise."
      },
      "renounceOwnership()": {
        "details": "Leaves the contract without owner. It will not be possible to call `onlyOwner` functions anymore. Can only be called by the current owner.     * NOTE: Renouncing ownership will leave the contract without an owner, thereby removing any functionality that is only available to the owner."
      },
      "transferOwnership(address)": {
        "details": "Transfers ownership of the contract to a new account (`newOwner`). Can only be called by the current owner."
      },
      "unpause()": {
        "details": "Called by a pauser to unpause, returns to normal state."
      }
    }
  },
  "userdoc": {
    "methods": {
      "getReservedBalanceByBusinessContract(address)": {
        "notice": "******************************************************************* */"
      },
      "notifyRedemptionSettlement(address,string,string,string[])": {
        "notice": "Using this function, the Responsible for Settlement indicates that he has made the FIAT money transfer. param redemptionTransactionHash hash of the redeem transaction in which the FIAT money settlement occurred. param receiptHash hash that proof the FIAT money transfer"
      },
      "requestMint(bytes32,uint256,uint256)": {
        "notice": "******************************************************************* */"
      },
      "transfer(address,bytes32,uint256,bytes32,uint256,string[])": {
        "notice": "******************************************************************* */"
      }
    }
  }
}