{
  "contractName": "RBBToken",
  "abi": [
    {
      "inputs": [
        {
          "internalType": "address",
          "name": "newRegistryAddr",
          "type": "address"
        },
        {
          "internalType": "uint8",
          "name": "_decimals",
          "type": "uint8"
        }
      ],
      "payable": false,
      "stateMutability": "nonpayable",
      "type": "constructor"
    },
    {
      "anonymous": false,
      "inputs": [
        {
          "indexed": false,
          "internalType": "uint256",
          "name": "id",
          "type": "uint256"
        },
        {
          "indexed": false,
          "internalType": "uint256",
          "name": "ownerId",
          "type": "uint256"
        },
        {
          "indexed": false,
          "internalType": "address",
          "name": "addr",
          "type": "address"
        }
      ],
      "name": "BusinessContractRegistration",
      "type": "event"
    },
    {
      "anonymous": false,
      "inputs": [
        {
          "indexed": false,
          "internalType": "uint256",
          "name": "id",
          "type": "uint256"
        },
        {
          "indexed": false,
          "internalType": "bool",
          "name": "state",
          "type": "bool"
        }
      ],
      "name": "BusinessContractStateChange",
      "type": "event"
    },
    {
      "anonymous": false,
      "inputs": [
        {
          "indexed": true,
          "internalType": "address",
          "name": "previousOwner",
          "type": "address"
        },
        {
          "indexed": true,
          "internalType": "address",
          "name": "newOwner",
          "type": "address"
        }
      ],
      "name": "OwnershipTransferred",
      "type": "event"
    },
    {
      "anonymous": false,
      "inputs": [
        {
          "indexed": false,
          "internalType": "address",
          "name": "account",
          "type": "address"
        }
      ],
      "name": "Paused",
      "type": "event"
    },
    {
      "anonymous": false,
      "inputs": [
        {
          "indexed": true,
          "internalType": "address",
          "name": "account",
          "type": "address"
        }
      ],
      "name": "PauserAdded",
      "type": "event"
    },
    {
      "anonymous": false,
      "inputs": [
        {
          "indexed": true,
          "internalType": "address",
          "name": "account",
          "type": "address"
        }
      ],
      "name": "PauserRemoved",
      "type": "event"
    },
    {
      "anonymous": false,
      "inputs": [
        {
          "indexed": false,
          "internalType": "uint256",
          "name": "businessContractId",
          "type": "uint256"
        },
        {
          "indexed": false,
          "internalType": "uint256",
          "name": "amount",
          "type": "uint256"
        }
      ],
      "name": "RBBMintRequest",
      "type": "event"
    },
    {
      "anonymous": false,
      "inputs": [
        {
          "indexed": false,
          "internalType": "uint256",
          "name": "businessContractId",
          "type": "uint256"
        },
        {
          "indexed": false,
          "internalType": "uint256",
          "name": "fromId",
          "type": "uint256"
        },
        {
          "indexed": false,
          "internalType": "bytes32",
          "name": "fromHash",
          "type": "bytes32"
        },
        {
          "indexed": false,
          "internalType": "uint256",
          "name": "amount",
          "type": "uint256"
        }
      ],
      "name": "RBBRedemptionRequested",
      "type": "event"
    },
    {
      "anonymous": false,
      "inputs": [
        {
          "indexed": false,
          "internalType": "uint256",
          "name": "businessContractId",
          "type": "uint256"
        },
        {
          "indexed": false,
          "internalType": "uint256",
          "name": "amount",
          "type": "uint256"
        }
      ],
      "name": "RBBTokenBurn",
      "type": "event"
    },
    {
      "anonymous": false,
      "inputs": [
        {
          "indexed": false,
          "internalType": "uint256",
          "name": "businessContractId",
          "type": "uint256"
        },
        {
          "indexed": false,
          "internalType": "uint256",
          "name": "amount",
          "type": "uint256"
        }
      ],
      "name": "RBBTokenMint",
      "type": "event"
    },
    {
      "anonymous": false,
      "inputs": [
        {
          "indexed": false,
          "internalType": "uint256",
          "name": "businessContractId",
          "type": "uint256"
        },
        {
          "indexed": false,
          "internalType": "uint256",
          "name": "fromId",
          "type": "uint256"
        },
        {
          "indexed": false,
          "internalType": "bytes32",
          "name": "fromHash",
          "type": "bytes32"
        },
        {
          "indexed": false,
          "internalType": "uint256",
          "name": "toId",
          "type": "uint256"
        },
        {
          "indexed": false,
          "internalType": "bytes32",
          "name": "toHash",
          "type": "bytes32"
        },
        {
          "indexed": false,
          "internalType": "uint256",
          "name": "amount",
          "type": "uint256"
        }
      ],
      "name": "RBBTokenTransfer",
      "type": "event"
    },
    {
      "anonymous": false,
      "inputs": [
        {
          "indexed": false,
          "internalType": "address",
          "name": "account",
          "type": "address"
        }
      ],
      "name": "Unpaused",
      "type": "event"
    },
    {
      "constant": true,
      "inputs": [],
      "name": "RESERVED_HASH_VALUE",
      "outputs": [
        {
          "internalType": "bytes32",
          "name": "",
          "type": "bytes32"
        }
      ],
      "payable": false,
      "stateMutability": "view",
      "type": "function"
    },
    {
      "constant": false,
      "inputs": [
        {
          "internalType": "address",
          "name": "account",
          "type": "address"
        }
      ],
      "name": "addPauser",
      "outputs": [],
      "payable": false,
      "stateMutability": "nonpayable",
      "type": "function"
    },
    {
      "constant": true,
      "inputs": [
        {
          "internalType": "address",
          "name": "",
          "type": "address"
        }
      ],
      "name": "businessContractsRegistry",
      "outputs": [
        {
          "internalType": "uint256",
          "name": "id",
          "type": "uint256"
        },
        {
          "internalType": "uint256",
          "name": "ownerId",
          "type": "uint256"
        },
        {
          "internalType": "bool",
          "name": "isActive",
          "type": "bool"
        }
      ],
      "payable": false,
      "stateMutability": "view",
      "type": "function"
    },
    {
      "constant": true,
      "inputs": [
        {
          "internalType": "address",
          "name": "addr",
          "type": "address"
        }
      ],
      "name": "containsBusinessContract",
      "outputs": [
        {
          "internalType": "bool",
          "name": "",
          "type": "bool"
        }
      ],
      "payable": false,
      "stateMutability": "view",
      "type": "function"
    },
    {
      "constant": true,
      "inputs": [],
      "name": "decimals",
      "outputs": [
        {
          "internalType": "uint8",
          "name": "",
          "type": "uint8"
        }
      ],
      "payable": false,
      "stateMutability": "view",
      "type": "function"
    },
    {
      "constant": true,
      "inputs": [
        {
          "internalType": "address",
          "name": "addr",
          "type": "address"
        }
      ],
      "name": "getBusinessContractId",
      "outputs": [
        {
          "internalType": "uint256",
          "name": "",
          "type": "uint256"
        }
      ],
      "payable": false,
      "stateMutability": "view",
      "type": "function"
    },
    {
      "constant": true,
      "inputs": [
        {
          "internalType": "address",
          "name": "addr",
          "type": "address"
        }
      ],
      "name": "getBusinessContractIdAndOwnerId",
      "outputs": [
        {
          "internalType": "uint256",
          "name": "",
          "type": "uint256"
        },
        {
          "internalType": "uint256",
          "name": "",
          "type": "uint256"
        }
      ],
      "payable": false,
      "stateMutability": "view",
      "type": "function"
    },
    {
      "constant": true,
      "inputs": [],
      "name": "idCount",
      "outputs": [
        {
          "internalType": "uint256",
          "name": "",
          "type": "uint256"
        }
      ],
      "payable": false,
      "stateMutability": "view",
      "type": "function"
    },
    {
      "constant": true,
      "inputs": [
        {
          "internalType": "address",
          "name": "addr",
          "type": "address"
        }
      ],
      "name": "isBusinessContractActive",
      "outputs": [
        {
          "internalType": "bool",
          "name": "",
          "type": "bool"
        }
      ],
      "payable": false,
      "stateMutability": "view",
      "type": "function"
    },
    {
      "constant": true,
      "inputs": [],
      "name": "isOwner",
      "outputs": [
        {
          "internalType": "bool",
          "name": "",
          "type": "bool"
        }
      ],
      "payable": false,
      "stateMutability": "view",
      "type": "function"
    },
    {
      "constant": true,
      "inputs": [
        {
          "internalType": "address",
          "name": "account",
          "type": "address"
        }
      ],
      "name": "isPauser",
      "outputs": [
        {
          "internalType": "bool",
          "name": "",
          "type": "bool"
        }
      ],
      "payable": false,
      "stateMutability": "view",
      "type": "function"
    },
    {
      "constant": true,
      "inputs": [],
      "name": "owner",
      "outputs": [
        {
          "internalType": "address",
          "name": "",
          "type": "address"
        }
      ],
      "payable": false,
      "stateMutability": "view",
      "type": "function"
    },
    {
      "constant": false,
      "inputs": [],
      "name": "pause",
      "outputs": [],
      "payable": false,
      "stateMutability": "nonpayable",
      "type": "function"
    },
    {
      "constant": true,
      "inputs": [],
      "name": "paused",
      "outputs": [
        {
          "internalType": "bool",
          "name": "",
          "type": "bool"
        }
      ],
      "payable": false,
      "stateMutability": "view",
      "type": "function"
    },
    {
      "constant": true,
      "inputs": [
        {
          "internalType": "uint256",
          "name": "",
          "type": "uint256"
        },
        {
          "internalType": "uint256",
          "name": "",
          "type": "uint256"
        },
        {
          "internalType": "bytes32",
          "name": "",
          "type": "bytes32"
        }
      ],
      "name": "rbbBalances",
      "outputs": [
        {
          "internalType": "uint256",
          "name": "",
          "type": "uint256"
        }
      ],
      "payable": false,
      "stateMutability": "view",
      "type": "function"
    },
    {
      "constant": false,
      "inputs": [
        {
          "internalType": "address",
          "name": "addr",
          "type": "address"
        },
        {
          "internalType": "uint256",
          "name": "ownerId",
          "type": "uint256"
        }
      ],
      "name": "registerBusinessContract",
      "outputs": [
        {
          "internalType": "uint256",
          "name": "",
          "type": "uint256"
        }
      ],
      "payable": false,
      "stateMutability": "nonpayable",
      "type": "function"
    },
    {
      "constant": true,
      "inputs": [],
      "name": "registry",
      "outputs": [
        {
          "internalType": "contract RBBRegistry",
          "name": "",
          "type": "address"
        }
      ],
      "payable": false,
      "stateMutability": "view",
      "type": "function"
    },
    {
      "constant": false,
      "inputs": [],
      "name": "renounceOwnership",
      "outputs": [],
      "payable": false,
      "stateMutability": "nonpayable",
      "type": "function"
    },
    {
      "constant": false,
      "inputs": [],
      "name": "renouncePauser",
      "outputs": [],
      "payable": false,
      "stateMutability": "nonpayable",
      "type": "function"
    },
    {
      "constant": false,
      "inputs": [
        {
          "internalType": "address",
          "name": "addr",
          "type": "address"
        },
        {
          "internalType": "bool",
          "name": "status",
          "type": "bool"
        }
      ],
      "name": "setStatus",
      "outputs": [
        {
          "internalType": "bool",
          "name": "",
          "type": "bool"
        }
      ],
      "payable": false,
      "stateMutability": "nonpayable",
      "type": "function"
    },
    {
      "constant": false,
      "inputs": [
        {
          "internalType": "address",
          "name": "newOwner",
          "type": "address"
        }
      ],
      "name": "transferOwnership",
      "outputs": [],
      "payable": false,
      "stateMutability": "nonpayable",
      "type": "function"
    },
    {
      "constant": false,
      "inputs": [],
      "name": "unpause",
      "outputs": [],
      "payable": false,
      "stateMutability": "nonpayable",
      "type": "function"
    },
    {
      "constant": false,
      "inputs": [
        {
          "internalType": "uint256",
          "name": "amount",
          "type": "uint256"
        }
      ],
      "name": "requestMint",
      "outputs": [],
      "payable": false,
      "stateMutability": "nonpayable",
      "type": "function"
    },
    {
      "constant": false,
      "inputs": [
        {
          "internalType": "address",
          "name": "businessContractAddr",
          "type": "address"
        },
        {
          "internalType": "uint256",
          "name": "amount",
          "type": "uint256"
        }
      ],
      "name": "mint",
      "outputs": [],
      "payable": false,
      "stateMutability": "nonpayable",
      "type": "function"
    },
    {
      "constant": false,
      "inputs": [
        {
          "internalType": "address",
          "name": "businessContractAddr",
          "type": "address"
        },
        {
          "internalType": "uint256",
          "name": "amount",
          "type": "uint256"
        }
      ],
      "name": "burn",
      "outputs": [],
      "payable": false,
      "stateMutability": "nonpayable",
      "type": "function"
    },
    {
      "constant": false,
      "inputs": [
        {
          "internalType": "uint256",
          "name": "businessContractId",
          "type": "uint256"
        },
        {
          "internalType": "uint256",
          "name": "fromId",
          "type": "uint256"
        },
        {
          "internalType": "bytes32",
          "name": "fromHash",
          "type": "bytes32"
        },
        {
          "internalType": "uint256",
          "name": "toId",
          "type": "uint256"
        },
        {
          "internalType": "bytes32",
          "name": "toHash",
          "type": "bytes32"
        },
        {
          "internalType": "uint256",
          "name": "amount",
          "type": "uint256"
        },
        {
          "internalType": "string[]",
          "name": "data",
          "type": "string[]"
        }
      ],
      "name": "transfer",
      "outputs": [],
      "payable": false,
      "stateMutability": "nonpayable",
      "type": "function"
    },
    {
      "constant": false,
      "inputs": [
        {
          "internalType": "address",
          "name": "businessContractAddress",
          "type": "address"
        },
        {
          "internalType": "uint256",
          "name": "toId",
          "type": "uint256"
        },
        {
          "internalType": "bytes32",
          "name": "toHash",
          "type": "bytes32"
        },
        {
          "internalType": "uint256",
          "name": "amount",
          "type": "uint256"
        },
        {
          "internalType": "string[]",
          "name": "data",
          "type": "string[]"
        }
      ],
      "name": "allocate",
      "outputs": [],
      "payable": false,
      "stateMutability": "nonpayable",
      "type": "function"
    },
    {
      "constant": false,
      "inputs": [
        {
          "internalType": "address",
          "name": "businessContractAddr",
          "type": "address"
        },
        {
          "internalType": "uint256",
          "name": "fromId",
          "type": "uint256"
        },
        {
          "internalType": "bytes32",
          "name": "fromHash",
          "type": "bytes32"
        },
        {
          "internalType": "uint256",
          "name": "amount",
          "type": "uint256"
        },
        {
          "internalType": "string[]",
          "name": "data",
          "type": "string[]"
        }
      ],
      "name": "redeem",
      "outputs": [],
      "payable": false,
      "stateMutability": "nonpayable",
      "type": "function"
    },
    {
      "constant": true,
      "inputs": [],
      "name": "getDecimals",
      "outputs": [
        {
          "internalType": "uint8",
          "name": "",
          "type": "uint8"
        }
      ],
      "payable": false,
      "stateMutability": "view",
      "type": "function"
    }
  ],
  "bytecode": "0x608060405260016002556002600460146101000a81548160ff021916908360ff1602179055506000801b6005553480156200003957600080fd5b50604051620039003803806200390083398181016040526200005f9190810190620003c3565b6200007f62000073620001ae60201b60201c565b620001b660201b60201c565b6000600160006101000a81548160ff0219169083151502179055506000620000ac620001ae60201b60201c565b9050806001806101000a81548173ffffffffffffffffffffffffffffffffffffffff021916908373ffffffffffffffffffffffffffffffffffffffff1602179055508073ffffffffffffffffffffffffffffffffffffffff16600073ffffffffffffffffffffffffffffffffffffffff167f8be0079c531659141344cd1fd0a4f28419497f9722a3daafe3b4186f6b6457e060405160405180910390a35081600460006101000a81548173ffffffffffffffffffffffffffffffffffffffff021916908373ffffffffffffffffffffffffffffffffffffffff16021790555080600460146101000a81548160ff021916908360ff160217905550505062000578565b600033905090565b620001d18160006200021760201b62001fd41790919060201c565b8073ffffffffffffffffffffffffffffffffffffffff167f6719d08c1888103bea251a4ed56406bd0c3e69723c8a1686e017e7bbe159b6f860405160405180910390a250565b620002298282620002ca60201b60201c565b156200026c576040517f08c379a00000000000000000000000000000000000000000000000000000000081526004016200026390620004ae565b60405180910390fd5b60018260000160008373ffffffffffffffffffffffffffffffffffffffff1673ffffffffffffffffffffffffffffffffffffffff16815260200190815260200160002060006101000a81548160ff0219169083151502179055505050565b60008073ffffffffffffffffffffffffffffffffffffffff168273ffffffffffffffffffffffffffffffffffffffff1614156200033e576040517f08c379a00000000000000000000000000000000000000000000000000000000081526004016200033590620004d0565b60405180910390fd5b8260000160008373ffffffffffffffffffffffffffffffffffffffff1673ffffffffffffffffffffffffffffffffffffffff16815260200190815260200160002060009054906101000a900460ff16905092915050565b600081519050620003a68162000544565b92915050565b600081519050620003bd816200055e565b92915050565b60008060408385031215620003d757600080fd5b6000620003e78582860162000395565b9250506020620003fa85828601620003ac565b9150509250929050565b600062000413601f83620004f2565b91507f526f6c65733a206163636f756e7420616c72656164792068617320726f6c65006000830152602082019050919050565b600062000455602283620004f2565b91507f526f6c65733a206163636f756e7420697320746865207a65726f20616464726560008301527f73730000000000000000000000000000000000000000000000000000000000006020830152604082019050919050565b60006020820190508181036000830152620004c98162000404565b9050919050565b60006020820190508181036000830152620004eb8162000446565b9050919050565b600082825260208201905092915050565b6000620005108262000517565b9050919050565b600073ffffffffffffffffffffffffffffffffffffffff82169050919050565b600060ff82169050919050565b6200054f8162000503565b81146200055b57600080fd5b50565b620005698162000537565b81146200057557600080fd5b50565b61337880620005886000396000f3fe608060405234801561001057600080fd5b50600436106101cf5760003560e01c80638b214c0011610104578063b2550015116100a2578063e0a08b7311610071578063e0a08b73146104f7578063e6e4623814610527578063f0141d8414610545578063f2fde38b14610563576101cf565b8063b255001514610449578063b304f21c14610465578063c5b2f6a914610495578063d508636d146104c7576101cf565b8063963a62cb116100de578063963a62cb146103d757806396b7bb1c146103f35780639ca0daed1461040f5780639dc29fac1461042d576101cf565b80638b214c001461036a5780638da5cb5b1461039b5780638f32d59b146103b9576101cf565b80635c975abb116101715780637b1039991161014b5780637b103999146102f657806382dc1ec4146103145780638456cb591461033057806388431f7a1461033a576101cf565b80635c975abb146102c45780636ef8d66d146102e2578063715018a6146102ec576101cf565b806340c10f19116101ad57806340c10f191461022c57806346fbf68e1461024857806349733d041461027857806353d5f7cf14610294576101cf565b806330b49983146101d4578063313ce567146102045780633f4ba83a14610222575b600080fd5b6101ee60048036036101e99190810190612352565b61057f565b6040516101fb9190612f5c565b60405180910390f35b61020c6105b1565b60405161021991906130dd565b60405180910390f35b61022a6105c4565b005b61024660048036036102419190810190612235565b6106bd565b005b610262600480360361025d91908101906121d0565b610820565b60405161026f9190612c69565b60405180910390f35b610292600480360361028d9190810190612329565b61083d565b005b6102ae60048036036102a991908101906121d0565b610960565b6040516102bb9190612c69565b60405180910390f35b6102cc610a3a565b6040516102d99190612c69565b60405180910390f35b6102ea610a51565b005b6102f4610a63565b005b6102fe610b69565b60405161030b9190612c9f565b60405180910390f35b61032e600480360361032991908101906121d0565b610b8f565b005b610338610bea565b005b610354600480360361034f91908101906121d0565b610ce3565b6040516103619190612c69565b60405180910390f35b610384600480360361037f91908101906121d0565b610d89565b604051610392929190612fa0565b60405180910390f35b6103a3610e6b565b6040516103b09190612c33565b60405180910390f35b6103c1610e94565b6040516103ce9190612c69565b60405180910390f35b6103f160048036036103ec9190810190612271565b610ef2565b005b61040d60048036036104089190810190612271565b611056565b005b6104176111f2565b6040516104249190612c84565b60405180910390f35b61044760048036036104429190810190612235565b6111f8565b005b610463600480360361045e91908101906123a1565b611263565b005b61047f600480360361047a91908101906121f9565b611630565b60405161048c9190612c69565b60405180910390f35b6104af60048036036104aa91908101906121d0565b611775565b6040516104be93929190613000565b60405180910390f35b6104e160048036036104dc9190810190612235565b6117ac565b6040516104ee9190612f5c565b60405180910390f35b610511600480360361050c91908101906121d0565b611929565b60405161051e9190612f5c565b60405180910390f35b61052f611a03565b60405161053c9190612f5c565b60405180910390f35b61054d611a09565b60405161055a91906130dd565b60405180910390f35b61057d600480360361057891908101906121d0565b611a20565b005b600660205282600052604060002060205281600052604060002060205280600052604060002060009250925050505481565b600460149054906101000a900460ff1681565b6105d46105cf611a73565b610820565b610613576040517f08c379a000000000000000000000000000000000000000000000000000000000815260040161060a90612d3c565b60405180910390fd5b600160009054906101000a900460ff16610662576040517f08c379a000000000000000000000000000000000000000000000000000000000815260040161065990612cdc565b60405180910390fd5b6000600160006101000a81548160ff0219169083151502179055507f5db9ee0a495bf2e6ff9c91a7834c1ba4fdd244a5e8aa4e537bd38aeae4b073aa6106a6611a73565b6040516106b39190612c4e565b60405180910390a1565b6106c5610e94565b610704576040517f08c379a00000000000000000000000000000000000000000000000000000000081526004016106fb90612e5c565b60405180910390fd5b61070d82610960565b61074c576040517f08c379a000000000000000000000000000000000000000000000000000000000815260040161074390612d1c565b60405180910390fd5b60008061075884610d89565b915091506107a6836006600085815260200190815260200160002060008481526020019081526020016000206000600554815260200190815260200160002054611a7b90919063ffffffff16565b60066000848152602001908152602001600020600083815260200190815260200160002060006005548152602001908152602001600020819055507f2675afe9351d52cfb5e67e69d355234962a118578f08ed9b752e9182ba45b7a28284604051610812929190612fa0565b60405180910390a150505050565b6000610836826000611ad090919063ffffffff16565b9050919050565b61084633610ce3565b610885576040517f08c379a000000000000000000000000000000000000000000000000000000000815260040161087c90612e7c565b60405180910390fd5b61088e33610960565b6108cd576040517f08c379a00000000000000000000000000000000000000000000000000000000081526004016108c490612edc565b60405180910390fd5b60008111610910576040517f08c379a000000000000000000000000000000000000000000000000000000000815260040161090790612dbc565b60405180910390fd5b6000339050600061092082611929565b90507f663d75767bd700082ffab70ea55e0e3044fefe296f536958a655b250ecc4efb18184604051610953929190612fa0565b60405180910390a1505050565b600061096b82610ce3565b6109aa576040517f08c379a00000000000000000000000000000000000000000000000000000000081526004016109a190612ddc565b60405180910390fd5b6109b261207c565b600360008473ffffffffffffffffffffffffffffffffffffffff1673ffffffffffffffffffffffffffffffffffffffff16815260200190815260200160002060405180606001604052908160008201548152602001600182015481526020016002820160009054906101000a900460ff16151515158152505090508060400151915050919050565b6000600160009054906101000a900460ff16905090565b610a61610a5c611a73565b611b98565b565b610a6b610e94565b610aaa576040517f08c379a0000000000000000000000000000000000000000000000000000000008152600401610aa190612e5c565b60405180910390fd5b600073ffffffffffffffffffffffffffffffffffffffff166001809054906101000a900473ffffffffffffffffffffffffffffffffffffffff1673ffffffffffffffffffffffffffffffffffffffff167f8be0079c531659141344cd1fd0a4f28419497f9722a3daafe3b4186f6b6457e060405160405180910390a360006001806101000a81548173ffffffffffffffffffffffffffffffffffffffff021916908373ffffffffffffffffffffffffffffffffffffffff160217905550565b600460009054906101000a900473ffffffffffffffffffffffffffffffffffffffff1681565b610b9f610b9a611a73565b610820565b610bde576040517f08c379a0000000000000000000000000000000000000000000000000000000008152600401610bd590612d3c565b60405180910390fd5b610be781611bf2565b50565b610bfa610bf5611a73565b610820565b610c39576040517f08c379a0000000000000000000000000000000000000000000000000000000008152600401610c3090612d3c565b60405180910390fd5b600160009054906101000a900460ff1615610c89576040517f08c379a0000000000000000000000000000000000000000000000000000000008152600401610c8090612dfc565b60405180910390fd5b60018060006101000a81548160ff0219169083151502179055507f62e78cea01bee320cd4e420270b5ea74000d11b0c9f74754ebdbfc544b05a258610ccc611a73565b604051610cd99190612c4e565b60405180910390a1565b6000610ced61207c565b600360008473ffffffffffffffffffffffffffffffffffffffff1673ffffffffffffffffffffffffffffffffffffffff16815260200190815260200160002060405180606001604052908160008201548152602001600182015481526020016002820160009054906101000a900460ff16151515158152505090506000816000015114610d7e576001915050610d84565b60009150505b919050565b600080610d9583610ce3565b610dd4576040517f08c379a0000000000000000000000000000000000000000000000000000000008152600401610dcb90612ddc565b60405180910390fd5b610ddc61207c565b600360008573ffffffffffffffffffffffffffffffffffffffff1673ffffffffffffffffffffffffffffffffffffffff16815260200190815260200160002060405180606001604052908160008201548152602001600182015481526020016002820160009054906101000a900460ff1615151515815250509050806000015181602001519250925050915091565b60006001809054906101000a900473ffffffffffffffffffffffffffffffffffffffff16905090565b60006001809054906101000a900473ffffffffffffffffffffffffffffffffffffffff1673ffffffffffffffffffffffffffffffffffffffff16610ed6611a73565b73ffffffffffffffffffffffffffffffffffffffff1614905090565b600160009054906101000a900460ff1615610f42576040517f08c379a0000000000000000000000000000000000000000000000000000000008152600401610f3990612dfc565b60405180910390fd5b600080610f4e87610d89565b91509150600460009054906101000a900473ffffffffffffffffffffffffffffffffffffffff1673ffffffffffffffffffffffffffffffffffffffff1663613a7896826040518263ffffffff1660e01b8152600401610fad9190612f5c565b60206040518083038186803b158015610fc557600080fd5b505afa158015610fd9573d6000803e3d6000fd5b505050506040513d601f19601f82011682018060405250610ffd9190810190612300565b61103c576040517f08c379a000000000000000000000000000000000000000000000000000000000815260040161103390612ebc565b60405180910390fd5b61104d828260055489898989611263565b50505050505050565b600160009054906101000a900460ff16156110a6576040517f08c379a000000000000000000000000000000000000000000000000000000000815260040161109d90612dfc565b60405180910390fd5b6000806110b287610d89565b91509150600460009054906101000a900473ffffffffffffffffffffffffffffffffffffffff1673ffffffffffffffffffffffffffffffffffffffff1663613a7896826040518263ffffffff1660e01b81526004016111119190612f5c565b60206040518083038186803b15801561112957600080fd5b505afa15801561113d573d6000803e3d6000fd5b505050506040513d601f19601f820116820180604052506111619190810190612300565b6111a0576040517f08c379a000000000000000000000000000000000000000000000000000000000815260040161119790612ebc565b60405180910390fd5b7fecba3f9ac80bda7c08881d49d8717e1f7fad26568e119e7737f7417f7ea3bbdc828787876040516111d59493929190613037565b60405180910390a16111e987878787611c4c565b50505050505050565b60055481565b611200610e94565b61123f576040517f08c379a000000000000000000000000000000000000000000000000000000000815260040161123690612e5c565b60405180910390fd5b60008061124b84610d89565b9150915061125d848260055486611c4c565b50505050565b600160009054906101000a900460ff16156112b3576040517f08c379a00000000000000000000000000000000000000000000000000000000081526004016112aa90612dfc565b60405180910390fd5b600082116112f6576040517f08c379a00000000000000000000000000000000000000000000000000000000081526004016112ed90612dbc565b60405180910390fd5b600460009054906101000a900473ffffffffffffffffffffffffffffffffffffffff1673ffffffffffffffffffffffffffffffffffffffff1663613a7896876040518263ffffffff1660e01b81526004016113519190612f5c565b60206040518083038186803b15801561136957600080fd5b505afa15801561137d573d6000803e3d6000fd5b505050506040513d601f19601f820116820180604052506113a19190810190612300565b6113e0576040517f08c379a00000000000000000000000000000000000000000000000000000000081526004016113d790612f1c565b60405180910390fd5b600460009054906101000a900473ffffffffffffffffffffffffffffffffffffffff1673ffffffffffffffffffffffffffffffffffffffff1663613a7896856040518263ffffffff1660e01b815260040161143b9190612f5c565b60206040518083038186803b15801561145357600080fd5b505afa158015611467573d6000803e3d6000fd5b505050506040513d601f19601f8201168201806040525061148b9190810190612300565b6114ca576040517f08c379a00000000000000000000000000000000000000000000000000000000081526004016114c190612f3c565b60405180910390fd5b61152c826040518060600160405280603881526020016132fe60389139600660008b815260200190815260200160002060008a8152602001908152602001600020600089815260200190815260200160002054611da49092919063ffffffff16565b6006600089815260200190815260200160002060008881526020019081526020016000206000878152602001908152602001600020819055506115ad82600660008a81526020019081526020016000206000878152602001908152602001600020600086815260200190815260200160002054611a7b90919063ffffffff16565b6006600089815260200190815260200160002060008681526020019081526020016000206000858152602001908152602001600020819055507ff204b88e182e4c89175e0fe7356c473c56e0c4ca1e541334670899bf09e50cda87878787878760405161161f9695949392919061307c565b60405180910390a150505050505050565b600061163a610e94565b611679576040517f08c379a000000000000000000000000000000000000000000000000000000000815260040161167090612e5c565b60405180910390fd5b61168283610ce3565b6116c1576040517f08c379a00000000000000000000000000000000000000000000000000000000081526004016116b890612ddc565b60405180910390fd5b6000600360008573ffffffffffffffffffffffffffffffffffffffff1673ffffffffffffffffffffffffffffffffffffffff1681526020019081526020016000209050828160020160006101000a81548160ff0219169083151502179055507f28a61818d188a7856821431ff0deb7650c2cc34ee4b7b97616a415fa0a3dfeff81600001548260020160009054906101000a900460ff16604051611766929190612f77565b60405180910390a15092915050565b60036020528060005260406000206000915090508060000154908060010154908060020160009054906101000a900460ff16905083565b60006117b6610e94565b6117f5576040517f08c379a00000000000000000000000000000000000000000000000000000000081526004016117ec90612e5c565b60405180910390fd5b6117fe83610ce3565b1561183e576040517f08c379a000000000000000000000000000000000000000000000000000000000815260040161183590612d7c565b60405180910390fd5b6040518060600160405280600254815260200183815260200160011515815250600360008573ffffffffffffffffffffffffffffffffffffffff1673ffffffffffffffffffffffffffffffffffffffff168152602001908152602001600020600082015181600001556020820151816001015560408201518160020160006101000a81548160ff0219169083151502179055509050507f20837d6e0b7236235210e8dcb5168dc3712b7652ca9b5f328e9aaecdd6f386cd600254838560405161190993929190612fc9565b60405180910390a160026000815480929190600101919050555092915050565b600061193482610ce3565b611973576040517f08c379a000000000000000000000000000000000000000000000000000000000815260040161196a90612ddc565b60405180910390fd5b61197b61207c565b600360008473ffffffffffffffffffffffffffffffffffffffff1673ffffffffffffffffffffffffffffffffffffffff16815260200190815260200160002060405180606001604052908160008201548152602001600182015481526020016002820160009054906101000a900460ff16151515158152505090508060000151915050919050565b60025481565b6000600460149054906101000a900460ff16905090565b611a28610e94565b611a67576040517f08c379a0000000000000000000000000000000000000000000000000000000008152600401611a5e90612e5c565b60405180910390fd5b611a7081611dff565b50565b600033905090565b600080828401905083811015611ac6576040517f08c379a0000000000000000000000000000000000000000000000000000000008152600401611abd90612d9c565b60405180910390fd5b8091505092915050565b60008073ffffffffffffffffffffffffffffffffffffffff168273ffffffffffffffffffffffffffffffffffffffff161415611b41576040517f08c379a0000000000000000000000000000000000000000000000000000000008152600401611b3890612e9c565b60405180910390fd5b8260000160008373ffffffffffffffffffffffffffffffffffffffff1673ffffffffffffffffffffffffffffffffffffffff16815260200190815260200160002060009054906101000a900460ff16905092915050565b611bac816000611f2d90919063ffffffff16565b8073ffffffffffffffffffffffffffffffffffffffff167fcd265ebaf09df2871cc7bd4133404a235ba12eff2041bb89d9c714a2621c7c7e60405160405180910390a250565b611c06816000611fd490919063ffffffff16565b8073ffffffffffffffffffffffffffffffffffffffff167f6719d08c1888103bea251a4ed56406bd0c3e69723c8a1686e017e7bbe159b6f860405160405180910390a250565b611c5584610960565b611c94576040517f08c379a0000000000000000000000000000000000000000000000000000000008152600401611c8b90612e3c565b60405180910390fd5b60008111611cd7576040517f08c379a0000000000000000000000000000000000000000000000000000000008152600401611cce90612efc565b60405180910390fd5b6000611ce285611929565b9050611d63826040518060400160405280601b81526020017f4275726e20616d6f756e7420657863656564732062616c616e63650000000000815250600660008581526020019081526020016000206000888152602001908152602001600020600087815260200190815260200160002054611da49092919063ffffffff16565b507fa63bdbe93bc807572f07ad2d679e8014207ae350e900ca803c6b192b2c5864d08183604051611d95929190612fa0565b60405180910390a15050505050565b6000838311158290611dec576040517f08c379a0000000000000000000000000000000000000000000000000000000008152600401611de39190612cba565b60405180910390fd5b5060008385039050809150509392505050565b600073ffffffffffffffffffffffffffffffffffffffff168173ffffffffffffffffffffffffffffffffffffffff161415611e6f576040517f08c379a0000000000000000000000000000000000000000000000000000000008152600401611e6690612d5c565b60405180910390fd5b8073ffffffffffffffffffffffffffffffffffffffff166001809054906101000a900473ffffffffffffffffffffffffffffffffffffffff1673ffffffffffffffffffffffffffffffffffffffff167f8be0079c531659141344cd1fd0a4f28419497f9722a3daafe3b4186f6b6457e060405160405180910390a3806001806101000a81548173ffffffffffffffffffffffffffffffffffffffff021916908373ffffffffffffffffffffffffffffffffffffffff16021790555050565b611f378282611ad0565b611f76576040517f08c379a0000000000000000000000000000000000000000000000000000000008152600401611f6d90612e1c565b60405180910390fd5b60008260000160008373ffffffffffffffffffffffffffffffffffffffff1673ffffffffffffffffffffffffffffffffffffffff16815260200190815260200160002060006101000a81548160ff0219169083151502179055505050565b611fde8282611ad0565b1561201e576040517f08c379a000000000000000000000000000000000000000000000000000000000815260040161201590612cfc565b60405180910390fd5b60018260000160008373ffffffffffffffffffffffffffffffffffffffff1673ffffffffffffffffffffffffffffffffffffffff16815260200190815260200160002060006101000a81548160ff0219169083151502179055505050565b604051806060016040528060008152602001600081526020016000151581525090565b6000813590506120ae816132a1565b92915050565b600082601f8301126120c557600080fd5b81356120d86120d382613125565b6130f8565b9150818183526020840193506020810190508360005b8381101561211e57813586016121048882612167565b8452602084019350602083019250506001810190506120ee565b5050505092915050565b600081359050612137816132b8565b92915050565b60008151905061214c816132b8565b92915050565b600081359050612161816132cf565b92915050565b600082601f83011261217857600080fd5b813561218b6121868261314d565b6130f8565b915080825260208301602083018583830111156121a757600080fd5b6121b283828461324e565b50505092915050565b6000813590506121ca816132e6565b92915050565b6000602082840312156121e257600080fd5b60006121f08482850161209f565b91505092915050565b6000806040838503121561220c57600080fd5b600061221a8582860161209f565b925050602061222b85828601612128565b9150509250929050565b6000806040838503121561224857600080fd5b60006122568582860161209f565b9250506020612267858286016121bb565b9150509250929050565b600080600080600060a0868803121561228957600080fd5b60006122978882890161209f565b95505060206122a8888289016121bb565b94505060406122b988828901612152565b93505060606122ca888289016121bb565b925050608086013567ffffffffffffffff8111156122e757600080fd5b6122f3888289016120b4565b9150509295509295909350565b60006020828403121561231257600080fd5b60006123208482850161213d565b91505092915050565b60006020828403121561233b57600080fd5b6000612349848285016121bb565b91505092915050565b60008060006060848603121561236757600080fd5b6000612375868287016121bb565b9350506020612386868287016121bb565b925050604061239786828701612152565b9150509250925092565b600080600080600080600060e0888a0312156123bc57600080fd5b60006123ca8a828b016121bb565b97505060206123db8a828b016121bb565b96505060406123ec8a828b01612152565b95505060606123fd8a828b016121bb565b945050608061240e8a828b01612152565b93505060a061241f8a828b016121bb565b92505060c088013567ffffffffffffffff81111561243c57600080fd5b6124488a828b016120b4565b91505092959891949750929550565b612460816131f4565b82525050565b61246f81613195565b82525050565b61247e816131a7565b82525050565b61248d816131b3565b82525050565b61249c81613206565b82525050565b60006124ad82613179565b6124b78185613184565b93506124c781856020860161325d565b6124d081613290565b840191505092915050565b60006124e8601483613184565b91507f5061757361626c653a206e6f74207061757365640000000000000000000000006000830152602082019050919050565b6000612528601f83613184565b91507f526f6c65733a206163636f756e7420616c72656164792068617320726f6c65006000830152602082019050919050565b6000612568601c83613184565b91507f436f6e747261746f207072656369736120657374617220617469766f000000006000830152602082019050919050565b60006125a8603083613184565b91507f506175736572526f6c653a2063616c6c657220646f6573206e6f74206861766560008301527f207468652050617573657220726f6c65000000000000000000000000000000006020830152604082019050919050565b600061260e602683613184565b91507f4f776e61626c653a206e6577206f776e657220697320746865207a65726f206160008301527f64647265737300000000000000000000000000000000000000000000000000006020830152604082019050919050565b6000612674601783613184565b91507f436f6e747261746f206ac3a1207265676973747261646f0000000000000000006000830152602082019050919050565b60006126b4601b83613184565b91507f536166654d6174683a206164646974696f6e206f766572666c6f7700000000006000830152602082019050919050565b60006126f4603583613184565b91507f56616c6f72206120736572207472616e736163696f6e61646f2064657665207360008301527f6572206d61696f7220646f20717565207a65726f2e00000000000000000000006020830152604082019050919050565b600061275a602283613184565b91507f436f6e747261746f206465206e65676f63696f206e616f20726567697374726160008301527f646f0000000000000000000000000000000000000000000000000000000000006020830152604082019050919050565b60006127c0601083613184565b91507f5061757361626c653a20706175736564000000000000000000000000000000006000830152602082019050919050565b6000612800602183613184565b91507f526f6c65733a206163636f756e7420646f6573206e6f74206861766520726f6c60008301527f65000000000000000000000000000000000000000000000000000000000000006020830152604082019050919050565b6000612866602c83613184565b91507f436f6e747261746f207072656369736120657374617220617469766f2070617260008301527f61206861766572206275726e00000000000000000000000000000000000000006020830152604082019050919050565b60006128cc602083613184565b91507f4f776e61626c653a2063616c6c6572206973206e6f7420746865206f776e65726000830152602082019050919050565b600061290c604c83613184565b91507f4dc3a9746f646f2073c3b320706f646520736572206368616d61646f20706f7260008301527f20636f6e747261746f206465206e6567c3b363696f207072657669616d656e7460208301527f65206361646173747261646f00000000000000000000000000000000000000006040830152606082019050919050565b6000612998602283613184565b91507f526f6c65733a206163636f756e7420697320746865207a65726f20616464726560008301527f73730000000000000000000000000000000000000000000000000000000000006020830152604082019050919050565b60006129fe604a83613184565b91507f436f6e746120646f206f776e657220646f20636f6e747261746f20657370656360008301527fc3ad6669636f207072656369736120657374617220636f6d206361646173747260208301527f6f2076616c696461646f000000000000000000000000000000000000000000006040830152606082019050919050565b6000612a8a603b83613184565b91507f4dc3a9746f646f2073c3b320706f646520736572206368616d61646f20706f7260008301527f20636f6e747261746f206465206e6567c3b363696f20617469766f00000000006020830152604082019050919050565b6000612af0602a83613184565b91507f56616c6f72206120717565696d6172206465766520736572206d61696f72206460008301527f6f20717565207a65726f000000000000000000000000000000000000000000006020830152604082019050919050565b6000612b56603383613184565b91507f436f6e7461206465206f726967656d207072656369736120657374617220636f60008301527f6d20636164617374726f2076616c696461646f000000000000000000000000006020830152604082019050919050565b6000612bbc603483613184565b91507f436f6e74612064652064657374696e6f2070726563697361206573746172206360008301527f6f6d20636164617374726f2076616c696461646f0000000000000000000000006020830152604082019050919050565b612c1e816131dd565b82525050565b612c2d816131e7565b82525050565b6000602082019050612c486000830184612466565b92915050565b6000602082019050612c636000830184612457565b92915050565b6000602082019050612c7e6000830184612475565b92915050565b6000602082019050612c996000830184612484565b92915050565b6000602082019050612cb46000830184612493565b92915050565b60006020820190508181036000830152612cd481846124a2565b905092915050565b60006020820190508181036000830152612cf5816124db565b9050919050565b60006020820190508181036000830152612d158161251b565b9050919050565b60006020820190508181036000830152612d358161255b565b9050919050565b60006020820190508181036000830152612d558161259b565b9050919050565b60006020820190508181036000830152612d7581612601565b9050919050565b60006020820190508181036000830152612d9581612667565b9050919050565b60006020820190508181036000830152612db5816126a7565b9050919050565b60006020820190508181036000830152612dd5816126e7565b9050919050565b60006020820190508181036000830152612df58161274d565b9050919050565b60006020820190508181036000830152612e15816127b3565b9050919050565b60006020820190508181036000830152612e35816127f3565b9050919050565b60006020820190508181036000830152612e5581612859565b9050919050565b60006020820190508181036000830152612e75816128bf565b9050919050565b60006020820190508181036000830152612e95816128ff565b9050919050565b60006020820190508181036000830152612eb58161298b565b9050919050565b60006020820190508181036000830152612ed5816129f1565b9050919050565b60006020820190508181036000830152612ef581612a7d565b9050919050565b60006020820190508181036000830152612f1581612ae3565b9050919050565b60006020820190508181036000830152612f3581612b49565b9050919050565b60006020820190508181036000830152612f5581612baf565b9050919050565b6000602082019050612f716000830184612c15565b92915050565b6000604082019050612f8c6000830185612c15565b612f996020830184612475565b9392505050565b6000604082019050612fb56000830185612c15565b612fc26020830184612c15565b9392505050565b6000606082019050612fde6000830186612c15565b612feb6020830185612c15565b612ff86040830184612466565b949350505050565b60006060820190506130156000830186612c15565b6130226020830185612c15565b61302f6040830184612475565b949350505050565b600060808201905061304c6000830187612c15565b6130596020830186612c15565b6130666040830185612484565b6130736060830184612c15565b95945050505050565b600060c0820190506130916000830189612c15565b61309e6020830188612c15565b6130ab6040830187612484565b6130b86060830186612c15565b6130c56080830185612484565b6130d260a0830184612c15565b979650505050505050565b60006020820190506130f26000830184612c24565b92915050565b6000604051905081810181811067ffffffffffffffff8211171561311b57600080fd5b8060405250919050565b600067ffffffffffffffff82111561313c57600080fd5b602082029050602081019050919050565b600067ffffffffffffffff82111561316457600080fd5b601f19601f8301169050602081019050919050565b600081519050919050565b600082825260208201905092915050565b60006131a0826131bd565b9050919050565b60008115159050919050565b6000819050919050565b600073ffffffffffffffffffffffffffffffffffffffff82169050919050565b6000819050919050565b600060ff82169050919050565b60006131ff8261322a565b9050919050565b600061321182613218565b9050919050565b6000613223826131bd565b9050919050565b60006132358261323c565b9050919050565b6000613247826131bd565b9050919050565b82818337600083830152505050565b60005b8381101561327b578082015181840152602081019050613260565b8381111561328a576000848401525b50505050565b6000601f19601f8301169050919050565b6132aa81613195565b81146132b557600080fd5b50565b6132c1816131a7565b81146132cc57600080fd5b50565b6132d8816131b3565b81146132e357600080fd5b50565b6132ef816131dd565b81146132fa57600080fd5b5056fe53616c646f206461206f726967656d206ec3a36f20c3a920737566696369656e746520706172612061207472616e73666572c3aa6e636961a365627a7a72315820078e62718b18d11819dc03381dce99024b6bfd9f736123a2d83be06b52d01a336c6578706572696d656e74616cf564736f6c63430005100040",
  "source": "pragma solidity ^0.5.0;\npragma experimental ABIEncoderV2;\n\n\nimport \"./RBBLib.sol\";\nimport \"./RBBRegistry.sol\";\nimport \"@openzeppelin/contracts/ownership/Ownable.sol\";\nimport \"@openzeppelin/contracts/lifecycle/Pausable.sol\";\nimport \"@openzeppelin/contracts/math/SafeMath.sol\";\n\n    \n//TODO: framework de mudanca e gestao descentralizada de mints e burns\ncontract BusinessContractRegistry is Ownable {\n\n    //It starts with 1, because 0 is the id value returned when the item is not found in the businessContractsRegistry\n    uint public idCount = 1;\n\n    struct BusinessContractInfo {\n        uint id;\n        uint ownerId;\n        bool isActive;\n    }\n\n    event BusinessContractRegistration (uint id, uint ownerId, address addr);\n    event BusinessContractStateChange (uint id, bool state);\n\n    //indexado pelo address pq serah a forma mais usada para consulta.\n    mapping (address => BusinessContractInfo) public businessContractsRegistry;\n\n    modifier onlyByRegisteredAndActiveContracts {\n        require(containsBusinessContract(msg.sender), \"Mtodo s pode ser chamado por contrato de negcio previamente cadastrado\");\n        require(isBusinessContractActive(msg.sender), \"Mtodo s pode ser chamado por contrato de negcio ativo\");\n        _;\n    }\n\n//TODO: adicionar como ponto positivo do contrato genrico no PPT. nao eh possivel mudar o uint do owner sem mudar o contrato\n    function registerBusinessContract (address addr, uint ownerId) public onlyOwner returns (uint)  {\n        require (!containsBusinessContract(addr), \"Contrato j registrado\");\n        businessContractsRegistry[addr] = BusinessContractInfo(idCount, ownerId, true);\n        emit BusinessContractRegistration (idCount, ownerId, addr);\n        idCount++;\n    }\n\n    function getBusinessContractId (address addr) public view returns (uint) {\n        require (containsBusinessContract(addr), \"Contrato de negocio nao registrado\");\n        BusinessContractInfo memory info = businessContractsRegistry[addr];\n        return info.id;\n    }\n\n    function getBusinessContractIdAndOwnerId (address addr) public view returns (uint, uint) {\n        require (containsBusinessContract(addr), \"Contrato de negocio nao registrado\");\n        BusinessContractInfo memory info = businessContractsRegistry[addr];\n        return (info.id, info.ownerId);\n    }\n    \n    function containsBusinessContract(address addr) public view returns (bool) {\n        BusinessContractInfo memory info = businessContractsRegistry[addr];\n        if (info.id!=0) return true;\n        else return false;\n    }\n\n    function isBusinessContractActive(address addr) public view returns (bool) {\n        require (containsBusinessContract(addr), \"Contrato de negocio nao registrado\");\n        BusinessContractInfo memory info = businessContractsRegistry[addr];\n        return info.isActive;\n    }\n\n    function setStatus(address addr, bool status) public onlyOwner returns (bool) {\n        require (containsBusinessContract(addr), \"Contrato de negocio nao registrado\");\n        BusinessContractInfo storage info = businessContractsRegistry[addr];\n        info.isActive = status;\n        emit BusinessContractStateChange(info.id, info.isActive);\n    }\n}\n\n//TODO: pensar - se precisasse fazer upgrade de um contrato, seria somente registrar um contrato com id do anterior. Criar um metodo para facilitar isso para facilitar o cdigo de mudanas?\ncontract RBBToken is Pausable, BusinessContractRegistry {\n\n    using SafeMath for uint;\n\n    RBBRegistry public registry;\n\n    uint8 public decimals = 2;\n//    uint8 public RESERVED_ID_VALUE = 0;\n    bytes32 public RESERVED_HASH_VALUE = 0x0000000000000000000000000000000000000000000000000000000000000000;\n\n    //businessContractId => (RBBid => (specificHash => amount)\n    mapping (uint => mapping (uint => mapping (bytes32 => uint))) public rbbBalances;\n\n//todo: incluir parametro de data nos eventos de transfer e redeem\n    event RBBMintRequest(uint businessContractId, uint amount);\n    event RBBTokenMint(uint businessContractId, uint amount);\n    event RBBTokenBurn(uint businessContractId, uint amount);\n    event RBBRedemptionRequested (uint businessContractId, uint fromId, bytes32 fromHash, uint amount);\n\n    event RBBTokenTransfer (uint businessContractId, uint fromId, bytes32 fromHash, uint toId,\n                            bytes32 toHash, uint amount);\n\n\n    constructor (address newRegistryAddr, uint8 _decimals) public {\n        registry = RBBRegistry(newRegistryAddr);\n        decimals = _decimals;\n    }\n\n///******************************************************************* */\n\n    function requestMint(uint amount) public onlyByRegisteredAndActiveContracts {\n    \n        require (amount>0, \"Valor a ser transacionado deve ser maior do que zero.\");\n        address businessContractAddr = msg.sender;\n        uint businessContractId = getBusinessContractId(businessContractAddr);\n    \n    //TODO: precisa guardar em uma estrutuda de dados?\n        emit RBBMintRequest(businessContractId, amount);\n\n    }\n\n    function mint(address businessContractAddr, uint amount) public onlyOwner {\n\n        require(isBusinessContractActive(businessContractAddr), \"Contrato precisa estar ativo\");\n        (uint businessContractId, uint businessContractOwnerId) = \n                    getBusinessContractIdAndOwnerId(businessContractAddr);\n        rbbBalances[businessContractId][businessContractOwnerId][RESERVED_HASH_VALUE] = \n            rbbBalances[businessContractId][businessContractOwnerId][RESERVED_HASH_VALUE].add(amount);\n        emit RBBTokenMint(businessContractId, amount);\n    }\n\n    function burn (address businessContractAddr, uint amount) public onlyOwner {\n\n        (uint businessContractId, uint businessContractOwnerId) = \n                    getBusinessContractIdAndOwnerId(businessContractAddr);\n//TODO: confirmar que no precisa ter cadastro validado para ter esse burn\n        _burn(businessContractAddr, businessContractOwnerId, RESERVED_HASH_VALUE, amount);\n\n    }\n\n    function _burn(address businessContractAddr, uint fromId, bytes32 fromHash, uint amount) internal {\n        \n        require(isBusinessContractActive(businessContractAddr), \"Contrato precisa estar ativo para haver burn\");\n        require(amount>0, \"Valor a queimar deve ser maior do que zero\");\n        \n        uint businessContractId = getBusinessContractId(businessContractAddr);\n\n        rbbBalances[businessContractId][fromId][fromHash].sub(amount, \"Burn amount exceeds balance\");\n\n        emit RBBTokenBurn(businessContractId, amount);\n    }\n\n///******************************************************************* */\n\n\n//myContract.call(bytes4(sha3(\"myFunction(uint256,bytes32,string)\")), 42, 0xabc, \"hello\")\n//chamados de interveno manual tambm seriam feitos pelo transfer, com verificao de intervencao manual\n\n//TODO: avaliar se deve incluir um objeto genrico para registrar informacoes (ou deixa apenas nos contratos especificos)\n    function transfer (uint businessContractId, uint fromId, bytes32 fromHash, uint toId, bytes32 toHash, \n            uint amount, string[] memory data) public whenNotPaused {\n\n//https://ethereum.stackexchange.com/questions/8912/calling-other-contracts-function-dynamically\n//businessContractId, selector, dados                             \n\n        require (amount>0, \"Valor a ser transacionado deve ser maior do que zero.\");\n //       address businessContractAddr = msg.sender;\n //       uint businessContractId = getBusinessContractId(businessContractAddr);\n\n        require(registry.isValidatedId(fromId), \"Conta de origem precisa estar com cadastro validado\");\n        require(registry.isValidatedId(toId), \"Conta de destino precisa estar com cadastro validado\");\n\n        //altera valores de saldo\n        rbbBalances[businessContractId][fromId][fromHash] =\n                rbbBalances[businessContractId][fromId][fromHash].sub(amount, \"Saldo da origem no  suficiente para a transferncia\");\n        rbbBalances[businessContractId][toId][toHash] = rbbBalances[businessContractId][toId][toHash].add(amount);\n\n        emit RBBTokenTransfer (businessContractId, fromId, fromHash, toId, toHash, amount);\n    }\n\n    function allocate (address businessContractAddress, uint toId, bytes32 toHash, uint amount, string[] memory data) public \n        whenNotPaused {\n\n            (uint businessContractId, uint businessContractOwnerId) = \n                    getBusinessContractIdAndOwnerId(businessContractAddress);\n\n            require(registry.isValidatedId(businessContractOwnerId), \"Conta do owner do contrato especfico precisa estar com cadastro validado\");\n            transfer(businessContractId, businessContractOwnerId, RESERVED_HASH_VALUE, toId, toHash, amount, data);\n    }\n\n    function redeem (address businessContractAddr, uint fromId, bytes32 fromHash, uint amount, string[] memory data) public \n        whenNotPaused  {\n\n            (uint businessContractId, uint businessContractOwnerId) = \n                    getBusinessContractIdAndOwnerId(businessContractAddr);\n\n            require(registry.isValidatedId(businessContractOwnerId), \"Conta do owner do contrato especfico precisa estar com cadastro validado\");\n\n            //?? Burn deveria ser de qq conta ou somente da conta reserva? conta reserva do BNDES? refletir no allocate?\n            //transfer(businessContractId, fromId, fromHash, RESERVED_ID_VALUE, RESERVED_HASH_VALUE, amount);\n            emit RBBRedemptionRequested(businessContractId, fromId, fromHash, amount);\n            _burn(businessContractAddr, fromId, fromHash, amount);\n    }\n\n///******************************************************************* */\n\n\n/*    \n    function getReservedBalanceByBusinessContract(address businessContractAddr) view public returns (uint) {\n        uint businessContractId = getBusinessContractId(businessContractAddr);\n        return rbbBalances[businessContractId][RESERVED_ID_VALUE][RESERVED_HASH_VALUE];\n    }\n*/\n    function getDecimals() public view returns (uint8) {\n        return decimals;\n    }\n\n}",
  "sourcePath": "/Users/suzana.moreno/workspace/rbb-token/Back-Blockchain/contracts/RBBToken.sol",
  "compiler": {
    "name": "solc",
    "version": "0.5.16+commit.9c3226ce.Emscripten.clang"
  },
  "schemaVersion": "3.0.23",
  "updatedAt": "2020-09-10T20:34:23.344Z",
  "devdoc": {
    "methods": {
      "isOwner()": {
        "details": "Returns true if the caller is the current owner."
      },
      "owner()": {
        "details": "Returns the address of the current owner."
      },
      "pause()": {
        "details": "Called by a pauser to pause, triggers stopped state."
      },
      "paused()": {
        "details": "Returns true if the contract is paused, and false otherwise."
      },
      "renounceOwnership()": {
        "details": "Leaves the contract without owner. It will not be possible to call `onlyOwner` functions anymore. Can only be called by the current owner.     * NOTE: Renouncing ownership will leave the contract without an owner, thereby removing any functionality that is only available to the owner."
      },
      "transferOwnership(address)": {
        "details": "Transfers ownership of the contract to a new account (`newOwner`). Can only be called by the current owner."
      },
      "unpause()": {
        "details": "Called by a pauser to unpause, returns to normal state."
      }
    }
  },
  "userdoc": {
    "methods": {
      "getDecimals()": {
        "notice": "******************************************************************* */"
      },
      "requestMint(uint256)": {
        "notice": "******************************************************************* */"
      },
      "transfer(uint256,uint256,bytes32,uint256,bytes32,uint256,string[])": {
        "notice": "******************************************************************* */"
      }
    }
  }
}