{
  "contractName": "RBBToken",
  "abi": [
    {
      "inputs": [
        {
          "internalType": "address",
          "name": "newRegistryAddr",
          "type": "address"
        },
        {
          "internalType": "uint8",
          "name": "_decimals",
          "type": "uint8"
        }
      ],
      "stateMutability": "nonpayable",
      "type": "constructor"
    },
    {
      "anonymous": false,
      "inputs": [
        {
          "indexed": false,
          "internalType": "uint256",
          "name": "id",
          "type": "uint256"
        },
        {
          "indexed": false,
          "internalType": "uint256",
          "name": "ownerId",
          "type": "uint256"
        },
        {
          "indexed": false,
          "internalType": "address",
          "name": "addr",
          "type": "address"
        }
      ],
      "name": "BusinessContractRegistration",
      "type": "event"
    },
    {
      "anonymous": false,
      "inputs": [
        {
          "indexed": false,
          "internalType": "uint256",
          "name": "id",
          "type": "uint256"
        },
        {
          "indexed": false,
          "internalType": "bool",
          "name": "state",
          "type": "bool"
        }
      ],
      "name": "BusinessContractStateChange",
      "type": "event"
    },
    {
      "anonymous": false,
      "inputs": [
        {
          "indexed": true,
          "internalType": "address",
          "name": "previousOwner",
          "type": "address"
        },
        {
          "indexed": true,
          "internalType": "address",
          "name": "newOwner",
          "type": "address"
        }
      ],
      "name": "OwnershipTransferred",
      "type": "event"
    },
    {
      "anonymous": false,
      "inputs": [
        {
          "indexed": false,
          "internalType": "address",
          "name": "account",
          "type": "address"
        }
      ],
      "name": "Paused",
      "type": "event"
    },
    {
      "anonymous": false,
      "inputs": [
        {
          "indexed": true,
          "internalType": "address",
          "name": "account",
          "type": "address"
        }
      ],
      "name": "PauserAdded",
      "type": "event"
    },
    {
      "anonymous": false,
      "inputs": [
        {
          "indexed": true,
          "internalType": "address",
          "name": "account",
          "type": "address"
        }
      ],
      "name": "PauserRemoved",
      "type": "event"
    },
    {
      "anonymous": false,
      "inputs": [
        {
          "indexed": false,
          "internalType": "address",
          "name": "businessContractAddr",
          "type": "address"
        },
        {
          "indexed": false,
          "internalType": "uint256",
          "name": "fromId",
          "type": "uint256"
        },
        {
          "indexed": false,
          "internalType": "bytes32",
          "name": "fromHash",
          "type": "bytes32"
        },
        {
          "indexed": false,
          "internalType": "uint256",
          "name": "amount",
          "type": "uint256"
        }
      ],
      "name": "RBBTokenBurn",
      "type": "event"
    },
    {
      "anonymous": false,
      "inputs": [
        {
          "indexed": false,
          "internalType": "address",
          "name": "businessContractAddr",
          "type": "address"
        },
        {
          "indexed": false,
          "internalType": "bytes32",
          "name": "specificHash",
          "type": "bytes32"
        },
        {
          "indexed": false,
          "internalType": "uint256",
          "name": "amount",
          "type": "uint256"
        },
        {
          "indexed": false,
          "internalType": "string",
          "name": "docHash",
          "type": "string"
        },
        {
          "indexed": false,
          "internalType": "string[]",
          "name": "data",
          "type": "string[]"
        }
      ],
      "name": "RBBTokenMint",
      "type": "event"
    },
    {
      "anonymous": false,
      "inputs": [
        {
          "indexed": false,
          "internalType": "address",
          "name": "businessContractAddr",
          "type": "address"
        },
        {
          "indexed": false,
          "internalType": "bytes32",
          "name": "specificHash",
          "type": "bytes32"
        },
        {
          "indexed": false,
          "internalType": "uint256",
          "name": "idInvestor",
          "type": "uint256"
        },
        {
          "indexed": false,
          "internalType": "uint256",
          "name": "amount",
          "type": "uint256"
        }
      ],
      "name": "RBBTokenMintRequest",
      "type": "event"
    },
    {
      "anonymous": false,
      "inputs": [
        {
          "indexed": false,
          "internalType": "address",
          "name": "businessContractAddr",
          "type": "address"
        },
        {
          "indexed": false,
          "internalType": "uint256",
          "name": "fromId",
          "type": "uint256"
        },
        {
          "indexed": false,
          "internalType": "bytes32",
          "name": "fromHash",
          "type": "bytes32"
        },
        {
          "indexed": false,
          "internalType": "uint256",
          "name": "amount",
          "type": "uint256"
        },
        {
          "indexed": false,
          "internalType": "string[]",
          "name": "data",
          "type": "string[]"
        }
      ],
      "name": "RBBTokenRedemptionRequested",
      "type": "event"
    },
    {
      "anonymous": false,
      "inputs": [
        {
          "indexed": false,
          "internalType": "address",
          "name": "businessContractAddr",
          "type": "address"
        },
        {
          "indexed": false,
          "internalType": "string",
          "name": "redemptionTransactionHash",
          "type": "string"
        },
        {
          "indexed": false,
          "internalType": "string",
          "name": "receiptHash",
          "type": "string"
        },
        {
          "indexed": false,
          "internalType": "string[]",
          "name": "data",
          "type": "string[]"
        }
      ],
      "name": "RBBTokenRedemptionSettlement",
      "type": "event"
    },
    {
      "anonymous": false,
      "inputs": [
        {
          "indexed": false,
          "internalType": "address",
          "name": "businessContractAddr",
          "type": "address"
        },
        {
          "indexed": false,
          "internalType": "uint256",
          "name": "fromId",
          "type": "uint256"
        },
        {
          "indexed": false,
          "internalType": "bytes32",
          "name": "fromHash",
          "type": "bytes32"
        },
        {
          "indexed": false,
          "internalType": "uint256",
          "name": "toId",
          "type": "uint256"
        },
        {
          "indexed": false,
          "internalType": "bytes32",
          "name": "toHash",
          "type": "bytes32"
        },
        {
          "indexed": false,
          "internalType": "uint256",
          "name": "amount",
          "type": "uint256"
        },
        {
          "indexed": false,
          "internalType": "string[]",
          "name": "data",
          "type": "string[]"
        }
      ],
      "name": "RBBTokenTransfer",
      "type": "event"
    },
    {
      "anonymous": false,
      "inputs": [
        {
          "indexed": false,
          "internalType": "address",
          "name": "account",
          "type": "address"
        }
      ],
      "name": "Unpaused",
      "type": "event"
    },
    {
      "inputs": [
        {
          "internalType": "address",
          "name": "account",
          "type": "address"
        }
      ],
      "name": "addPauser",
      "outputs": [],
      "stateMutability": "nonpayable",
      "type": "function"
    },
    {
      "inputs": [
        {
          "internalType": "uint256",
          "name": "",
          "type": "uint256"
        },
        {
          "internalType": "bytes32",
          "name": "",
          "type": "bytes32"
        }
      ],
      "name": "balaceRequestedTokens",
      "outputs": [
        {
          "internalType": "uint256",
          "name": "",
          "type": "uint256"
        }
      ],
      "stateMutability": "view",
      "type": "function"
    },
    {
      "inputs": [
        {
          "internalType": "address",
          "name": "",
          "type": "address"
        }
      ],
      "name": "businessContractsRegistry",
      "outputs": [
        {
          "internalType": "uint256",
          "name": "id",
          "type": "uint256"
        },
        {
          "internalType": "bool",
          "name": "isActive",
          "type": "bool"
        }
      ],
      "stateMutability": "view",
      "type": "function"
    },
    {
      "inputs": [],
      "name": "decimals",
      "outputs": [
        {
          "internalType": "uint8",
          "name": "",
          "type": "uint8"
        }
      ],
      "stateMutability": "view",
      "type": "function"
    },
    {
      "inputs": [
        {
          "internalType": "address",
          "name": "addr",
          "type": "address"
        }
      ],
      "name": "getBusinessContractId",
      "outputs": [
        {
          "internalType": "uint256",
          "name": "",
          "type": "uint256"
        }
      ],
      "stateMutability": "view",
      "type": "function"
    },
    {
      "inputs": [
        {
          "internalType": "address",
          "name": "addr",
          "type": "address"
        }
      ],
      "name": "getBusinessContractIdAndOwnerId",
      "outputs": [
        {
          "internalType": "uint256",
          "name": "",
          "type": "uint256"
        },
        {
          "internalType": "uint256",
          "name": "",
          "type": "uint256"
        }
      ],
      "stateMutability": "view",
      "type": "function"
    },
    {
      "inputs": [],
      "name": "idCount",
      "outputs": [
        {
          "internalType": "uint256",
          "name": "",
          "type": "uint256"
        }
      ],
      "stateMutability": "view",
      "type": "function"
    },
    {
      "inputs": [
        {
          "internalType": "address",
          "name": "addr",
          "type": "address"
        }
      ],
      "name": "isBusinessContractActive",
      "outputs": [
        {
          "internalType": "bool",
          "name": "",
          "type": "bool"
        }
      ],
      "stateMutability": "view",
      "type": "function"
    },
    {
      "inputs": [],
      "name": "isOwner",
      "outputs": [
        {
          "internalType": "bool",
          "name": "",
          "type": "bool"
        }
      ],
      "stateMutability": "view",
      "type": "function"
    },
    {
      "inputs": [
        {
          "internalType": "address",
          "name": "account",
          "type": "address"
        }
      ],
      "name": "isPauser",
      "outputs": [
        {
          "internalType": "bool",
          "name": "",
          "type": "bool"
        }
      ],
      "stateMutability": "view",
      "type": "function"
    },
    {
      "inputs": [],
      "name": "owner",
      "outputs": [
        {
          "internalType": "address",
          "name": "",
          "type": "address"
        }
      ],
      "stateMutability": "view",
      "type": "function"
    },
    {
      "inputs": [],
      "name": "pause",
      "outputs": [],
      "stateMutability": "nonpayable",
      "type": "function"
    },
    {
      "inputs": [],
      "name": "paused",
      "outputs": [
        {
          "internalType": "bool",
          "name": "",
          "type": "bool"
        }
      ],
      "stateMutability": "view",
      "type": "function"
    },
    {
      "inputs": [
        {
          "internalType": "uint256",
          "name": "",
          "type": "uint256"
        },
        {
          "internalType": "uint256",
          "name": "",
          "type": "uint256"
        },
        {
          "internalType": "bytes32",
          "name": "",
          "type": "bytes32"
        }
      ],
      "name": "rbbBalances",
      "outputs": [
        {
          "internalType": "uint256",
          "name": "",
          "type": "uint256"
        }
      ],
      "stateMutability": "view",
      "type": "function"
    },
    {
      "inputs": [
        {
          "internalType": "address",
          "name": "businessContractAddr",
          "type": "address"
        }
      ],
      "name": "registerBusinessContract",
      "outputs": [
        {
          "internalType": "uint256",
          "name": "",
          "type": "uint256"
        }
      ],
      "stateMutability": "nonpayable",
      "type": "function"
    },
    {
      "inputs": [],
      "name": "registry",
      "outputs": [
        {
          "internalType": "contract RBBRegistry",
          "name": "",
          "type": "address"
        }
      ],
      "stateMutability": "view",
      "type": "function"
    },
    {
      "inputs": [],
      "name": "renounceOwnership",
      "outputs": [],
      "stateMutability": "nonpayable",
      "type": "function"
    },
    {
      "inputs": [],
      "name": "renouncePauser",
      "outputs": [],
      "stateMutability": "nonpayable",
      "type": "function"
    },
    {
      "inputs": [
        {
          "internalType": "address",
          "name": "addr",
          "type": "address"
        },
        {
          "internalType": "bool",
          "name": "status",
          "type": "bool"
        }
      ],
      "name": "setStatus",
      "outputs": [
        {
          "internalType": "bool",
          "name": "",
          "type": "bool"
        }
      ],
      "stateMutability": "nonpayable",
      "type": "function"
    },
    {
      "inputs": [
        {
          "internalType": "address",
          "name": "newOwner",
          "type": "address"
        }
      ],
      "name": "transferOwnership",
      "outputs": [],
      "stateMutability": "nonpayable",
      "type": "function"
    },
    {
      "inputs": [],
      "name": "unpause",
      "outputs": [],
      "stateMutability": "nonpayable",
      "type": "function"
    },
    {
      "inputs": [
        {
          "internalType": "address",
          "name": "addr",
          "type": "address"
        }
      ],
      "name": "verifyContractIsRegisteredAndActive",
      "outputs": [],
      "stateMutability": "nonpayable",
      "type": "function"
    },
    {
      "inputs": [
        {
          "internalType": "bytes32",
          "name": "specificHash",
          "type": "bytes32"
        },
        {
          "internalType": "uint256",
          "name": "idInvestor",
          "type": "uint256"
        },
        {
          "internalType": "uint256",
          "name": "amount",
          "type": "uint256"
        }
      ],
      "name": "requestMint",
      "outputs": [],
      "stateMutability": "nonpayable",
      "type": "function"
    },
    {
      "inputs": [
        {
          "internalType": "address",
          "name": "businessContractAddr",
          "type": "address"
        },
        {
          "internalType": "bytes32",
          "name": "specificHash",
          "type": "bytes32"
        },
        {
          "internalType": "uint256",
          "name": "amount",
          "type": "uint256"
        },
        {
          "internalType": "string",
          "name": "docHash",
          "type": "string"
        },
        {
          "internalType": "string[]",
          "name": "data",
          "type": "string[]"
        }
      ],
      "name": "mint",
      "outputs": [],
      "stateMutability": "nonpayable",
      "type": "function"
    },
    {
      "inputs": [
        {
          "internalType": "bytes32",
          "name": "hashToBurn",
          "type": "bytes32"
        },
        {
          "internalType": "uint256",
          "name": "amount",
          "type": "uint256"
        }
      ],
      "name": "burnOwnTokenBySpecificContracts",
      "outputs": [],
      "stateMutability": "nonpayable",
      "type": "function"
    },
    {
      "inputs": [
        {
          "internalType": "address",
          "name": "businessContractAddr",
          "type": "address"
        },
        {
          "internalType": "bytes32",
          "name": "hashToBurn",
          "type": "bytes32"
        },
        {
          "internalType": "uint256",
          "name": "amount",
          "type": "uint256"
        }
      ],
      "name": "burnOwnToken",
      "outputs": [],
      "stateMutability": "nonpayable",
      "type": "function"
    },
    {
      "inputs": [
        {
          "internalType": "address",
          "name": "businessContractAddr",
          "type": "address"
        },
        {
          "internalType": "bytes32",
          "name": "fromHash",
          "type": "bytes32"
        },
        {
          "internalType": "uint256",
          "name": "toId",
          "type": "uint256"
        },
        {
          "internalType": "bytes32",
          "name": "toHash",
          "type": "bytes32"
        },
        {
          "internalType": "uint256",
          "name": "amount",
          "type": "uint256"
        },
        {
          "internalType": "string[]",
          "name": "data",
          "type": "string[]"
        }
      ],
      "name": "transfer",
      "outputs": [],
      "stateMutability": "nonpayable",
      "type": "function"
    },
    {
      "inputs": [
        {
          "internalType": "address",
          "name": "businessContractAddr",
          "type": "address"
        },
        {
          "internalType": "uint256",
          "name": "fromId",
          "type": "uint256"
        },
        {
          "internalType": "bytes32",
          "name": "fromHash",
          "type": "bytes32"
        },
        {
          "internalType": "uint256",
          "name": "amount",
          "type": "uint256"
        },
        {
          "internalType": "string[]",
          "name": "data",
          "type": "string[]"
        }
      ],
      "name": "redeem",
      "outputs": [],
      "stateMutability": "nonpayable",
      "type": "function"
    },
    {
      "inputs": [
        {
          "internalType": "address",
          "name": "businessContractAddr",
          "type": "address"
        },
        {
          "internalType": "string",
          "name": "redemptionTransactionHash",
          "type": "string"
        },
        {
          "internalType": "string",
          "name": "receiptHash",
          "type": "string"
        },
        {
          "internalType": "string[]",
          "name": "data",
          "type": "string[]"
        }
      ],
      "name": "notifyRedemptionSettlement",
      "outputs": [],
      "stateMutability": "nonpayable",
      "type": "function"
    },
    {
      "inputs": [],
      "name": "getDecimals",
      "outputs": [
        {
          "internalType": "uint8",
          "name": "",
          "type": "uint8"
        }
      ],
      "stateMutability": "view",
      "type": "function"
    },
    {
      "inputs": [],
      "name": "getBndesId",
      "outputs": [
        {
          "internalType": "uint256",
          "name": "",
          "type": "uint256"
        }
      ],
      "stateMutability": "view",
      "type": "function"
    }
  ],
  "bytecode": "0x608060405260016003556002600560006101000a81548160ff021916908360ff1602179055503480156200003257600080fd5b5060405162004935380380620049358339818101604052810190620000589190620003bc565b620000786200006c620001a760201b60201c565b620001af60201b60201c565b6000600160006101000a81548160ff0219169083151502179055506000620000a5620001a760201b60201c565b9050806001806101000a81548173ffffffffffffffffffffffffffffffffffffffff021916908373ffffffffffffffffffffffffffffffffffffffff1602179055508073ffffffffffffffffffffffffffffffffffffffff16600073ffffffffffffffffffffffffffffffffffffffff167f8be0079c531659141344cd1fd0a4f28419497f9722a3daafe3b4186f6b6457e060405160405180910390a35081600260006101000a81548173ffffffffffffffffffffffffffffffffffffffff021916908373ffffffffffffffffffffffffffffffffffffffff16021790555080600560006101000a81548160ff021916908360ff160217905550505062000571565b600033905090565b620001ca8160006200021060201b6200238b1790919060201c565b8073ffffffffffffffffffffffffffffffffffffffff167f6719d08c1888103bea251a4ed56406bd0c3e69723c8a1686e017e7bbe159b6f860405160405180910390a250565b620002228282620002c360201b60201c565b1562000265576040517f08c379a00000000000000000000000000000000000000000000000000000000081526004016200025c90620004a7565b60405180910390fd5b60018260000160008373ffffffffffffffffffffffffffffffffffffffff1673ffffffffffffffffffffffffffffffffffffffff16815260200190815260200160002060006101000a81548160ff0219169083151502179055505050565b60008073ffffffffffffffffffffffffffffffffffffffff168273ffffffffffffffffffffffffffffffffffffffff16141562000337576040517f08c379a00000000000000000000000000000000000000000000000000000000081526004016200032e90620004c9565b60405180910390fd5b8260000160008373ffffffffffffffffffffffffffffffffffffffff1673ffffffffffffffffffffffffffffffffffffffff16815260200190815260200160002060009054906101000a900460ff16905092915050565b6000815190506200039f816200053d565b92915050565b600081519050620003b68162000557565b92915050565b60008060408385031215620003d057600080fd5b6000620003e0858286016200038e565b9250506020620003f385828601620003a5565b9150509250929050565b60006200040c601f83620004eb565b91507f526f6c65733a206163636f756e7420616c72656164792068617320726f6c65006000830152602082019050919050565b60006200044e602283620004eb565b91507f526f6c65733a206163636f756e7420697320746865207a65726f20616464726560008301527f73730000000000000000000000000000000000000000000000000000000000006020830152604082019050919050565b60006020820190508181036000830152620004c281620003fd565b9050919050565b60006020820190508181036000830152620004e4816200043f565b9050919050565b600082825260208201905092915050565b6000620005098262000510565b9050919050565b600073ffffffffffffffffffffffffffffffffffffffff82169050919050565b600060ff82169050919050565b6200054881620004fc565b81146200055457600080fd5b50565b620005628162000530565b81146200056e57600080fd5b50565b6143b480620005816000396000f3fe608060405234801561001057600080fd5b50600436106101e55760003560e01c80638b214c001161010f578063cf13a0b5116100a2578063e66ea0b911610071578063e66ea0b914610558578063e6e4623814610574578063f0141d8414610592578063f2fde38b146105b0576101e5565b8063cf13a0b5146104c0578063d25748eb146104f0578063e0a08b731461050c578063e0ef4a6a1461053c576101e5565b806396b7bb1c116100de57806396b7bb1c14610427578063b304f21c14610443578063b987afcb14610473578063c5b2f6a91461048f576101e5565b80638b214c001461039e5780638da5cb5b146103cf5780638f18ccdc146103ed5780638f32d59b14610409576101e5565b806353d5f7cf11610187578063715018a611610156578063715018a6146103505780637b1039991461035a57806382dc1ec4146103785780638456cb5914610394576101e5565b806353d5f7cf146102dc5780635c975abb1461030c5780636105c6ea1461032a5780636ef8d66d14610346576101e5565b8063368ce3bd116101c3578063368ce3bd146102545780633f4ba83a1461028457806346fbf68e1461028e5780634a47f599146102be576101e5565b8063173d34a8146101ea57806330b4998314610206578063313ce56714610236575b600080fd5b61020460048036038101906101ff9190612f0d565b6105cc565b005b610220600480360381019061021b9190612fc1565b6106d6565b60405161022d9190613f0f565b60405180910390f35b61023e610708565b60405161024b9190614067565b60405180910390f35b61026e60048036038101906102699190612b20565b61071b565b60405161027b9190613f0f565b60405180910390f35b61028c610a4f565b005b6102a860048036038101906102a39190612b20565b610b48565b6040516102b59190613b5b565b60405180910390f35b6102c6610b65565b6040516102d39190613f0f565b60405180910390f35b6102f660048036038101906102f19190612b20565b610c23565b6040516103039190613b5b565b60405180910390f35b610314610cf3565b6040516103219190613b5b565b60405180910390f35b610344600480360381019061033f9190612bae565b610d0a565b005b61034e610ddd565b005b610358610def565b005b610362610ef4565b60405161036f9190613be4565b60405180910390f35b610392600480360381019061038d9190612b20565b610f1a565b005b61039c610f75565b005b6103b860048036038101906103b39190612b20565b61106e565b6040516103c6929190614007565b60405180910390f35b6103d761127b565b6040516103e491906138e7565b60405180910390f35b61040760048036038101906104029190612bfd565b6112a3565b005b610411611770565b60405161041e9190613b5b565b60405180910390f35b610441600480360381019061043c9190612df0565b6117cd565b005b61045d60048036038101906104589190612b72565b611a1c565b60405161046a9190613b5b565b60405180910390f35b61048d60048036038101906104889190612d45565b611b61565b005b6104a960048036038101906104a49190612b20565b611d7f565b6040516104b7929190613f2a565b60405180910390f35b6104da60048036038101906104d59190612f85565b611db0565b6040516104e79190613f0f565b60405180910390f35b61050a60048036038101906105059190612b20565b611dd5565b005b61052660048036038101906105219190612b20565b611e68565b6040516105339190613f0f565b60405180910390f35b61055660048036038101906105519190612c9e565b611f38565b005b610572600480360381019061056d9190612ed1565b6122ea565b005b61057c61231b565b6040516105899190613f0f565b60405180910390f35b61059a612321565b6040516105a79190614067565b60405180910390f35b6105ca60048036038101906105c59190612b20565b612338565b005b6105d533611dd5565b60008111610618576040517f08c379a000000000000000000000000000000000000000000000000000000000815260040161060f90613d4f565b60405180910390fd5b600033905061062681611dd5565b600061063182611e68565b905061066a836007600084815260200190815260200160002060008881526020019081526020016000205461243390919063ffffffff16565b600760008381526020019081526020016000206000878152602001908152602001600020819055507f20e5c426031bbf4a72750a5a2e7ba9ac82d5a16e1d5ccb393e054ca494975485828686866040516106c794939291906139a7565b60405180910390a15050505050565b600660205282600052604060002060205281600052604060002060205280600052604060002060009250925050505481565b600560009054906101000a900460ff1681565b6000610725611770565b610764576040517f08c379a000000000000000000000000000000000000000000000000000000000815260040161075b90613e0f565b60405180910390fd5b61076d82612488565b156107ad576040517f08c379a00000000000000000000000000000000000000000000000000000000081526004016107a490613d0f565b60405180910390fd5b60008290508073ffffffffffffffffffffffffffffffffffffffff16633dfdcfab600260009054906101000a900473ffffffffffffffffffffffffffffffffffffffff16306040518363ffffffff1660e01b815260040161080f92919061391d565b600060405180830381600087803b15801561082957600080fd5b505af115801561083d573d6000803e3d6000fd5b5050505060008173ffffffffffffffffffffffffffffffffffffffff16638da5cb5b6040518163ffffffff1660e01b815260040160206040518083038186803b15801561088957600080fd5b505afa15801561089d573d6000803e3d6000fd5b505050506040513d601f19601f820116820180604052508101906108c19190612b49565b90506000600260009054906101000a900473ffffffffffffffffffffffffffffffffffffffff1673ffffffffffffffffffffffffffffffffffffffff166365f68c89836040518263ffffffff1660e01b815260040161092091906138e7565b60206040518083038186803b15801561093857600080fd5b505afa15801561094c573d6000803e3d6000fd5b505050506040513d601f19601f820116820180604052508101906109709190612f5c565b90506040518060400160405280600354815260200160011515815250600460008773ffffffffffffffffffffffffffffffffffffffff1673ffffffffffffffffffffffffffffffffffffffff1681526020019081526020016000206000820151816000015560208201518160010160006101000a81548160ff0219169083151502179055509050507f20837d6e0b7236235210e8dcb5168dc3712b7652ca9b5f328e9aaecdd6f386cd6003548287604051610a2d93929190614030565b60405180910390a1600360008154809291906001019190505550505050919050565b610a5f610a5a612524565b610b48565b610a9e576040517f08c379a0000000000000000000000000000000000000000000000000000000008152600401610a9590613ccf565b60405180910390fd5b600160009054906101000a900460ff16610aed576040517f08c379a0000000000000000000000000000000000000000000000000000000008152600401610ae490613c8f565b60405180910390fd5b6000600160006101000a81548160ff0219169083151502179055507f5db9ee0a495bf2e6ff9c91a7834c1ba4fdd244a5e8aa4e537bd38aeae4b073aa610b31612524565b604051610b3e9190613902565b60405180910390a1565b6000610b5e82600061252c90919063ffffffff16565b9050919050565b600080600260009054906101000a900473ffffffffffffffffffffffffffffffffffffffff1673ffffffffffffffffffffffffffffffffffffffff166365f68c89610bae61127b565b6040518263ffffffff1660e01b8152600401610bca91906138e7565b60206040518083038186803b158015610be257600080fd5b505afa158015610bf6573d6000803e3d6000fd5b505050506040513d601f19601f82011682018060405250810190610c1a9190612f5c565b90508091505090565b6000610c2e82612488565b610c6d576040517f08c379a0000000000000000000000000000000000000000000000000000000008152600401610c6490613d6f565b60405180910390fd5b610c75612994565b600460008473ffffffffffffffffffffffffffffffffffffffff1673ffffffffffffffffffffffffffffffffffffffff168152602001908152602001600020604051806040016040529081600082015481526020016001820160009054906101000a900460ff16151515158152505090508060200151915050919050565b6000600160009054906101000a900460ff16905090565b610d1333611dd5565b610d1c83611dd5565b6000600260009054906101000a900473ffffffffffffffffffffffffffffffffffffffff1673ffffffffffffffffffffffffffffffffffffffff166365f68c89336040518263ffffffff1660e01b8152600401610d799190613902565b60206040518083038186803b158015610d9157600080fd5b505afa158015610da5573d6000803e3d6000fd5b505050506040513d601f19601f82011682018060405250810190610dc99190612f5c565b9050610dd7848285856125f4565b50505050565b610ded610de8612524565b6126b1565b565b610df7611770565b610e36576040517f08c379a0000000000000000000000000000000000000000000000000000000008152600401610e2d90613e0f565b60405180910390fd5b600073ffffffffffffffffffffffffffffffffffffffff1660018054906101000a900473ffffffffffffffffffffffffffffffffffffffff1673ffffffffffffffffffffffffffffffffffffffff167f8be0079c531659141344cd1fd0a4f28419497f9722a3daafe3b4186f6b6457e060405160405180910390a360006001806101000a81548173ffffffffffffffffffffffffffffffffffffffff021916908373ffffffffffffffffffffffffffffffffffffffff160217905550565b600260009054906101000a900473ffffffffffffffffffffffffffffffffffffffff1681565b610f2a610f25612524565b610b48565b610f69576040517f08c379a0000000000000000000000000000000000000000000000000000000008152600401610f6090613ccf565b60405180910390fd5b610f728161270b565b50565b610f85610f80612524565b610b48565b610fc4576040517f08c379a0000000000000000000000000000000000000000000000000000000008152600401610fbb90613ccf565b60405180910390fd5b600160009054906101000a900460ff1615611014576040517f08c379a000000000000000000000000000000000000000000000000000000000815260040161100b90613daf565b60405180910390fd5b60018060006101000a81548160ff0219169083151502179055507f62e78cea01bee320cd4e420270b5ea74000d11b0c9f74754ebdbfc544b05a258611057612524565b6040516110649190613902565b60405180910390a1565b60008061107a83612488565b6110b9576040517f08c379a00000000000000000000000000000000000000000000000000000000081526004016110b090613d6f565b60405180910390fd5b6110c1612994565b600460008573ffffffffffffffffffffffffffffffffffffffff1673ffffffffffffffffffffffffffffffffffffffff168152602001908152602001600020604051806040016040529081600082015481526020016001820160009054906101000a900460ff1615151515815250509050600084905060008173ffffffffffffffffffffffffffffffffffffffff16638da5cb5b6040518163ffffffff1660e01b815260040160206040518083038186803b15801561117f57600080fd5b505afa158015611193573d6000803e3d6000fd5b505050506040513d601f19601f820116820180604052508101906111b79190612b49565b90506000600260009054906101000a900473ffffffffffffffffffffffffffffffffffffffff1673ffffffffffffffffffffffffffffffffffffffff166365f68c89836040518263ffffffff1660e01b815260040161121691906138e7565b60206040518083038186803b15801561122e57600080fd5b505afa158015611242573d6000803e3d6000fd5b505050506040513d601f19601f820116820180604052508101906112669190612f5c565b90508360000151819550955050505050915091565b600060018054906101000a900473ffffffffffffffffffffffffffffffffffffffff16905090565b600160009054906101000a900460ff16156112f3576040517f08c379a00000000000000000000000000000000000000000000000000000000081526004016112ea90613daf565b60405180910390fd5b6000600260009054906101000a900473ffffffffffffffffffffffffffffffffffffffff1673ffffffffffffffffffffffffffffffffffffffff166365f68c89336040518263ffffffff1660e01b81526004016113509190613902565b60206040518083038186803b15801561136857600080fd5b505afa15801561137c573d6000803e3d6000fd5b505050506040513d601f19601f820116820180604052508101906113a09190612f5c565b90506113ab87611dd5565b600260009054906101000a900473ffffffffffffffffffffffffffffffffffffffff1673ffffffffffffffffffffffffffffffffffffffff1663613a7896826040518263ffffffff1660e01b81526004016114069190613f0f565b60206040518083038186803b15801561141e57600080fd5b505afa158015611432573d6000803e3d6000fd5b505050506040513d601f19601f820116820180604052508101906114569190612e7f565b611495576040517f08c379a000000000000000000000000000000000000000000000000000000000815260040161148c90613eaf565b60405180910390fd5b600260009054906101000a900473ffffffffffffffffffffffffffffffffffffffff1673ffffffffffffffffffffffffffffffffffffffff1663613a7896866040518263ffffffff1660e01b81526004016114f09190613f0f565b60206040518083038186803b15801561150857600080fd5b505afa15801561151c573d6000803e3d6000fd5b505050506040513d601f19601f820116820180604052508101906115409190612e7f565b61157f576040517f08c379a000000000000000000000000000000000000000000000000000000000815260040161157690613eef565b60405180910390fd5b600061158a88611e68565b905060008890508073ffffffffffffffffffffffffffffffffffffffff1663c596acc7848a8a8a8a8a6040518763ffffffff1660e01b81526004016115d496959493929190613f9f565b600060405180830381600087803b1580156115ee57600080fd5b505af1158015611602573d6000803e3d6000fd5b50505050611668856040518060600160405280603881526020016143476038913960066000868152602001908152602001600020600087815260200190815260200160002060008c8152602001908152602001600020546127659092919063ffffffff16565b60066000848152602001908152602001600020600085815260200190815260200160002060008a8152602001908152602001600020819055506116e9856006600085815260200190815260200160002060008a815260200190815260200160002060008981526020019081526020016000205461243390919063ffffffff16565b6006600084815260200190815260200160002060008981526020019081526020016000206000888152602001908152602001600020819055507f9fbb7cb56ecba529d9d3d69bf53e20211dc815c9b635ee45c263dd4101f0cbdd89848a8a8a8a8a60405161175d9796959493929190613ae5565b60405180910390a1505050505050505050565b600060018054906101000a900473ffffffffffffffffffffffffffffffffffffffff1673ffffffffffffffffffffffffffffffffffffffff166117b1612524565b73ffffffffffffffffffffffffffffffffffffffff1614905090565b600160009054906101000a900460ff161561181d576040517f08c379a000000000000000000000000000000000000000000000000000000000815260040161181490613daf565b60405180910390fd5b61182685611dd5565b600260009054906101000a900473ffffffffffffffffffffffffffffffffffffffff1673ffffffffffffffffffffffffffffffffffffffff1663613a7896856040518263ffffffff1660e01b81526004016118819190613f0f565b60206040518083038186803b15801561189957600080fd5b505afa1580156118ad573d6000803e3d6000fd5b505050506040513d601f19601f820116820180604052508101906118d19190612e7f565b611910576040517f08c379a000000000000000000000000000000000000000000000000000000000815260040161190790613ecf565b60405180910390fd5b60008211611953576040517f08c379a000000000000000000000000000000000000000000000000000000000815260040161194a90613dcf565b60405180910390fd5b60008590508073ffffffffffffffffffffffffffffffffffffffff1663c92f4eb0868686866040518563ffffffff1660e01b81526004016119979493929190613f53565b600060405180830381600087803b1580156119b157600080fd5b505af11580156119c5573d6000803e3d6000fd5b505050507f6e812c2818181269bc8b7b868519e62a203a792b53f99e06c8b2357d01e86d9c8686868686604051611a00959493929190613a8b565b60405180910390a1611a14868686866125f4565b505050505050565b6000611a26611770565b611a65576040517f08c379a0000000000000000000000000000000000000000000000000000000008152600401611a5c90613e0f565b60405180910390fd5b611a6e83612488565b611aad576040517f08c379a0000000000000000000000000000000000000000000000000000000008152600401611aa490613d6f565b60405180910390fd5b6000600460008573ffffffffffffffffffffffffffffffffffffffff1673ffffffffffffffffffffffffffffffffffffffff1681526020019081526020016000209050828160010160006101000a81548160ff0219169083151502179055507f28a61818d188a7856821431ff0deb7650c2cc34ee4b7b97616a415fa0a3dfeff81600001548260010160009054906101000a900460ff16604051611b52929190613f2a565b60405180910390a15092915050565b600160009054906101000a900460ff1615611bb1576040517f08c379a0000000000000000000000000000000000000000000000000000000008152600401611ba890613daf565b60405180910390fd5b611bb9611770565b611bf8576040517f08c379a0000000000000000000000000000000000000000000000000000000008152600401611bef90613e0f565b60405180910390fd5b611c0184611dd5565b73__RBBLib________________________________636edcb12f836040518263ffffffff1660e01b8152600401611c389190613bff565b60206040518083038186803b158015611c5057600080fd5b505af4158015611c64573d6000803e3d6000fd5b505050506040513d601f19601f82011682018060405250810190611c889190612e7f565b611cc7576040517f08c379a0000000000000000000000000000000000000000000000000000000008152600401611cbe90613d8f565b60405180910390fd5b60008490508073ffffffffffffffffffffffffffffffffffffffff1663bc0077638585856040518463ffffffff1660e01b8152600401611d0993929190613c43565b600060405180830381600087803b158015611d2357600080fd5b505af1158015611d37573d6000803e3d6000fd5b505050507f2f2fd572c80ae93bda9f55fe54d703939c0eebc4bc2c5d24a4a1e3dcf23f469f85858585604051611d7094939291906139ec565b60405180910390a15050505050565b60046020528060005260406000206000915090508060000154908060010160009054906101000a900460ff16905082565b6007602052816000526040600020602052806000526040600020600091509150505481565b611dde81612488565b611e1d576040517f08c379a0000000000000000000000000000000000000000000000000000000008152600401611e1490613e2f565b60405180910390fd5b611e2681610c23565b611e65576040517f08c379a0000000000000000000000000000000000000000000000000000000008152600401611e5c90613e8f565b60405180910390fd5b50565b6000611e7382612488565b611eb2576040517f08c379a0000000000000000000000000000000000000000000000000000000008152600401611ea990613d6f565b60405180910390fd5b611eba612994565b600460008473ffffffffffffffffffffffffffffffffffffffff1673ffffffffffffffffffffffffffffffffffffffff168152602001908152602001600020604051806040016040529081600082015481526020016001820160009054906101000a900460ff16151515158152505090508060000151915050919050565b611f40611770565b611f7f576040517f08c379a0000000000000000000000000000000000000000000000000000000008152600401611f7690613e0f565b60405180910390fd5b611f8885611dd5565b60008311611fcb576040517f08c379a0000000000000000000000000000000000000000000000000000000008152600401611fc290613e6f565b60405180910390fd5b73__RBBLib________________________________636edcb12f836040518263ffffffff1660e01b81526004016120029190613bff565b60206040518083038186803b15801561201a57600080fd5b505af415801561202e573d6000803e3d6000fd5b505050506040513d601f19601f820116820180604052508101906120529190612e7f565b612091576040517f08c379a000000000000000000000000000000000000000000000000000000000815260040161208890613d8f565b60405180910390fd5b60008061209d8761106e565b915091506120f2856040518060600160405280602981526020016142e3602991396007600086815260200190815260200160002060008a8152602001908152602001600020546127659092919063ffffffff16565b60076000848152602001908152602001600020600088815260200190815260200160002081905550600087905060008173ffffffffffffffffffffffffffffffffffffffff1663cd541b7a896040518263ffffffff1660e01b815260040161215a9190613b76565b602060405180830381600087803b15801561217457600080fd5b505af1158015612188573d6000803e3d6000fd5b505050506040513d601f19601f820116820180604052508101906121ac9190612ea8565b90506121f68760066000878152602001908152602001600020600086815260200190815260200160002060008481526020019081526020016000205461243390919063ffffffff16565b6006600086815260200190815260200160002060008581526020019081526020016000206000838152602001908152602001600020819055508173ffffffffffffffffffffffffffffffffffffffff16636b4dd41f8989888a6040518563ffffffff1660e01b815260040161226e9493929190613b91565b600060405180830381600087803b15801561228857600080fd5b505af115801561229c573d6000803e3d6000fd5b505050507fef1c42fc8b3e4dbc907ef5506ed8fbfd24e2102fb73b3e66bccf15def6bb4fd889898989896040516122d7959493929190613946565b60405180910390a1505050505050505050565b6122f333611dd5565b60003390506000806123048361106e565b91509150612314838287876125f4565b5050505050565b60035481565b6000600560009054906101000a900460ff16905090565b612340611770565b61237f576040517f08c379a000000000000000000000000000000000000000000000000000000000815260040161237690613e0f565b60405180910390fd5b612388816127c0565b50565b612395828261252c565b156123d5576040517f08c379a00000000000000000000000000000000000000000000000000000000081526004016123cc90613caf565b60405180910390fd5b60018260000160008373ffffffffffffffffffffffffffffffffffffffff1673ffffffffffffffffffffffffffffffffffffffff16815260200190815260200160002060006101000a81548160ff0219169083151502179055505050565b60008082840190508381101561247e576040517f08c379a000000000000000000000000000000000000000000000000000000000815260040161247590613d2f565b60405180910390fd5b8091505092915050565b6000612492612994565b600460008473ffffffffffffffffffffffffffffffffffffffff1673ffffffffffffffffffffffffffffffffffffffff168152602001908152602001600020604051806040016040529081600082015481526020016001820160009054906101000a900460ff1615151515815250509050600081600001511461251957600191505061251f565b60009150505b919050565b600033905090565b60008073ffffffffffffffffffffffffffffffffffffffff168273ffffffffffffffffffffffffffffffffffffffff16141561259d576040517f08c379a000000000000000000000000000000000000000000000000000000000815260040161259490613e4f565b60405180910390fd5b8260000160008373ffffffffffffffffffffffffffffffffffffffff1673ffffffffffffffffffffffffffffffffffffffff16815260200190815260200160002060009054906101000a900460ff16905092915050565b6125fd84611dd5565b600061260885611e68565b905061266c826040518060600160405280603b815260200161430c603b91396006600085815260200190815260200160002060008881526020019081526020016000206000878152602001908152602001600020546127659092919063ffffffff16565b507fbb1ad37219830377dfb06065e971d1cb26d7099497b73445398977b1ccc99c86858585856040516126a29493929190613a46565b60405180910390a15050505050565b6126c58160006128ed90919063ffffffff16565b8073ffffffffffffffffffffffffffffffffffffffff167fcd265ebaf09df2871cc7bd4133404a235ba12eff2041bb89d9c714a2621c7c7e60405160405180910390a250565b61271f81600061238b90919063ffffffff16565b8073ffffffffffffffffffffffffffffffffffffffff167f6719d08c1888103bea251a4ed56406bd0c3e69723c8a1686e017e7bbe159b6f860405160405180910390a250565b60008383111582906127ad576040517f08c379a00000000000000000000000000000000000000000000000000000000081526004016127a49190613c21565b60405180910390fd5b5060008385039050809150509392505050565b600073ffffffffffffffffffffffffffffffffffffffff168173ffffffffffffffffffffffffffffffffffffffff161415612830576040517f08c379a000000000000000000000000000000000000000000000000000000000815260040161282790613cef565b60405180910390fd5b8073ffffffffffffffffffffffffffffffffffffffff1660018054906101000a900473ffffffffffffffffffffffffffffffffffffffff1673ffffffffffffffffffffffffffffffffffffffff167f8be0079c531659141344cd1fd0a4f28419497f9722a3daafe3b4186f6b6457e060405160405180910390a3806001806101000a81548173ffffffffffffffffffffffffffffffffffffffff021916908373ffffffffffffffffffffffffffffffffffffffff16021790555050565b6128f7828261252c565b612936576040517f08c379a000000000000000000000000000000000000000000000000000000000815260040161292d90613def565b60405180910390fd5b60008260000160008373ffffffffffffffffffffffffffffffffffffffff1673ffffffffffffffffffffffffffffffffffffffff16815260200190815260200160002060006101000a81548160ff0219169083151502179055505050565b6040518060400160405280600081526020016000151581525090565b6000813590506129bf81614286565b92915050565b6000815190506129d481614286565b92915050565b600082601f8301126129eb57600080fd5b81356129fe6129f9826140af565b614082565b9150818183526020840193506020810190508360005b83811015612a445781358601612a2a8882612aa2565b845260208401935060208301925050600181019050612a14565b5050505092915050565b600081359050612a5d8161429d565b92915050565b600081519050612a728161429d565b92915050565b600081359050612a87816142b4565b92915050565b600081519050612a9c816142b4565b92915050565b600082601f830112612ab357600080fd5b8135612ac6612ac1826140d7565b614082565b91508082526020830160208301858383011115612ae257600080fd5b612aed838284614233565b50505092915050565b600081359050612b05816142cb565b92915050565b600081519050612b1a816142cb565b92915050565b600060208284031215612b3257600080fd5b6000612b40848285016129b0565b91505092915050565b600060208284031215612b5b57600080fd5b6000612b69848285016129c5565b91505092915050565b60008060408385031215612b8557600080fd5b6000612b93858286016129b0565b9250506020612ba485828601612a4e565b9150509250929050565b600080600060608486031215612bc357600080fd5b6000612bd1868287016129b0565b9350506020612be286828701612a78565b9250506040612bf386828701612af6565b9150509250925092565b60008060008060008060c08789031215612c1657600080fd5b6000612c2489828a016129b0565b9650506020612c3589828a01612a78565b9550506040612c4689828a01612af6565b9450506060612c5789828a01612a78565b9350506080612c6889828a01612af6565b92505060a087013567ffffffffffffffff811115612c8557600080fd5b612c9189828a016129da565b9150509295509295509295565b600080600080600060a08688031215612cb657600080fd5b6000612cc4888289016129b0565b9550506020612cd588828901612a78565b9450506040612ce688828901612af6565b935050606086013567ffffffffffffffff811115612d0357600080fd5b612d0f88828901612aa2565b925050608086013567ffffffffffffffff811115612d2c57600080fd5b612d38888289016129da565b9150509295509295909350565b60008060008060808587031215612d5b57600080fd5b6000612d69878288016129b0565b945050602085013567ffffffffffffffff811115612d8657600080fd5b612d9287828801612aa2565b935050604085013567ffffffffffffffff811115612daf57600080fd5b612dbb87828801612aa2565b925050606085013567ffffffffffffffff811115612dd857600080fd5b612de4878288016129da565b91505092959194509250565b600080600080600060a08688031215612e0857600080fd5b6000612e16888289016129b0565b9550506020612e2788828901612af6565b9450506040612e3888828901612a78565b9350506060612e4988828901612af6565b925050608086013567ffffffffffffffff811115612e6657600080fd5b612e72888289016129da565b9150509295509295909350565b600060208284031215612e9157600080fd5b6000612e9f84828501612a63565b91505092915050565b600060208284031215612eba57600080fd5b6000612ec884828501612a8d565b91505092915050565b60008060408385031215612ee457600080fd5b6000612ef285828601612a78565b9250506020612f0385828601612af6565b9150509250929050565b600080600060608486031215612f2257600080fd5b6000612f3086828701612a78565b9350506020612f4186828701612af6565b9250506040612f5286828701612af6565b9150509250925092565b600060208284031215612f6e57600080fd5b6000612f7c84828501612b0b565b91505092915050565b60008060408385031215612f9857600080fd5b6000612fa685828601612af6565b9250506020612fb785828601612a78565b9150509250929050565b600080600060608486031215612fd657600080fd5b6000612fe486828701612af6565b9350506020612ff586828701612af6565b925050604061300686828701612a78565b9150509250925092565b600061301c83836130e4565b905092915050565b61302d816141d9565b82525050565b61303c8161417a565b82525050565b600061304d82614113565b6130578185614136565b93508360208202850161306985614103565b8060005b858110156130a557848403895281516130868582613010565b945061309183614129565b925060208a0199505060018101905061306d565b50829750879550505050505092915050565b6130c08161418c565b82525050565b6130cf81614198565b82525050565b6130de816141eb565b82525050565b60006130ef8261411e565b6130f98185614147565b9350613109818560208601614242565b61311281614275565b840191505092915050565b60006131288261411e565b6131328185614158565b9350613142818560208601614242565b61314b81614275565b840191505092915050565b60006131618261411e565b61316b8185614169565b935061317b818560208601614242565b61318481614275565b840191505092915050565b600061319c601483614158565b91507f5061757361626c653a206e6f74207061757365640000000000000000000000006000830152602082019050919050565b60006131dc601f83614158565b91507f526f6c65733a206163636f756e7420616c72656164792068617320726f6c65006000830152602082019050919050565b600061321c603083614158565b91507f506175736572526f6c653a2063616c6c657220646f6573206e6f74206861766560008301527f207468652050617573657220726f6c65000000000000000000000000000000006020830152604082019050919050565b6000613282602683614158565b91507f4f776e61626c653a206e6577206f776e657220697320746865207a65726f206160008301527f64647265737300000000000000000000000000000000000000000000000000006020830152604082019050919050565b60006132e8601783614158565b91507f436f6e747261746f206ac3a1207265676973747261646f0000000000000000006000830152602082019050919050565b6000613328601b83614158565b91507f536166654d6174683a206164646974696f6e206f766572666c6f7700000000006000830152602082019050919050565b6000613368603583614158565b91507f56616c6f72206120736572207472616e736163696f6e61646f2064657665207360008301527f6572206d61696f7220646f20717565207a65726f2e00000000000000000000006020830152604082019050919050565b60006133ce602283614158565b91507f436f6e747261746f206465206e65676f63696f206e616f20726567697374726160008301527f646f0000000000000000000000000000000000000000000000000000000000006020830152604082019050919050565b6000613434602483614158565b91507f4f206861736820646120636f6d70726f7661c3a7c3a36f20c3a920696e76c3a160008301527f6c69646f000000000000000000000000000000000000000000000000000000006020830152604082019050919050565b600061349a601083614158565b91507f5061757361626c653a20706175736564000000000000000000000000000000006000830152602082019050919050565b60006134da602b83614158565b91507f56616c6f722061207265736761746172206465766520736572206d61696f722060008301527f646f20717565207a65726f0000000000000000000000000000000000000000006020830152604082019050919050565b6000613540602183614158565b91507f526f6c65733a206163636f756e7420646f6573206e6f74206861766520726f6c60008301527f65000000000000000000000000000000000000000000000000000000000000006020830152604082019050919050565b60006135a6602083614158565b91507f4f776e61626c653a2063616c6c6572206973206e6f7420746865206f776e65726000830152602082019050919050565b60006135e6604c83614158565b91507f4dc3a9746f646f2073c3b320706f646520736572206368616d61646f20706f7260008301527f20636f6e747261746f206465206e6567c3b363696f207072657669616d656e7460208301527f65206361646173747261646f00000000000000000000000000000000000000006040830152606082019050919050565b6000613672602283614158565b91507f526f6c65733a206163636f756e7420697320746865207a65726f20616464726560008301527f73730000000000000000000000000000000000000000000000000000000000006020830152604082019050919050565b60006136d8602983614158565b91507f56616c6f722061206d696e746172206465766520736572206d61696f7220646f60008301527f20717565207a65726f00000000000000000000000000000000000000000000006020830152604082019050919050565b600061373e603b83614158565b91507f4dc3a9746f646f2073c3b320706f646520736572206368616d61646f20706f7260008301527f20636f6e747261746f206465206e6567c3b363696f20617469766f00000000006020830152604082019050919050565b60006137a4603383614158565b91507f436f6e7461206465206f726967656d207072656369736120657374617220636f60008301527f6d20636164617374726f2076616c696461646f000000000000000000000000006020830152604082019050919050565b600061380a603f83614158565b91507f436f6e746120736f6c69636974616e746520646f2072656465656d207072656360008301527f69736120657374617220636f6d20636164617374726f2076616c696461646f006020830152604082019050919050565b6000613870603483614158565b91507f436f6e74612064652064657374696e6f2070726563697361206573746172206360008301527f6f6d20636164617374726f2076616c696461646f0000000000000000000000006020830152604082019050919050565b6138d2816141c2565b82525050565b6138e1816141cc565b82525050565b60006020820190506138fc6000830184613033565b92915050565b60006020820190506139176000830184613024565b92915050565b60006040820190506139326000830185613033565b61393f6020830184613033565b9392505050565b600060a08201905061395b6000830188613033565b61396860208301876130c6565b61397560408301866138c9565b8181036060830152613987818561311d565b9050818103608083015261399b8184613042565b90509695505050505050565b60006080820190506139bc6000830187613033565b6139c960208301866130c6565b6139d660408301856138c9565b6139e360608301846138c9565b95945050505050565b6000608082019050613a016000830187613033565b8181036020830152613a13818661311d565b90508181036040830152613a27818561311d565b90508181036060830152613a3b8184613042565b905095945050505050565b6000608082019050613a5b6000830187613033565b613a6860208301866138c9565b613a7560408301856130c6565b613a8260608301846138c9565b95945050505050565b600060a082019050613aa06000830188613033565b613aad60208301876138c9565b613aba60408301866130c6565b613ac760608301856138c9565b8181036080830152613ad98184613042565b90509695505050505050565b600060e082019050613afa600083018a613033565b613b0760208301896138c9565b613b1460408301886130c6565b613b2160608301876138c9565b613b2e60808301866130c6565b613b3b60a08301856138c9565b81810360c0830152613b4d8184613042565b905098975050505050505050565b6000602082019050613b7060008301846130b7565b92915050565b6000602082019050613b8b60008301846130c6565b92915050565b6000608082019050613ba660008301876130c6565b613bb360208301866138c9565b8181036040830152613bc58185613042565b90508181036060830152613bd9818461311d565b905095945050505050565b6000602082019050613bf960008301846130d5565b92915050565b60006020820190508181036000830152613c198184613156565b905092915050565b60006020820190508181036000830152613c3b818461311d565b905092915050565b60006060820190508181036000830152613c5d818661311d565b90508181036020830152613c71818561311d565b90508181036040830152613c858184613042565b9050949350505050565b60006020820190508181036000830152613ca88161318f565b9050919050565b60006020820190508181036000830152613cc8816131cf565b9050919050565b60006020820190508181036000830152613ce88161320f565b9050919050565b60006020820190508181036000830152613d0881613275565b9050919050565b60006020820190508181036000830152613d28816132db565b9050919050565b60006020820190508181036000830152613d488161331b565b9050919050565b60006020820190508181036000830152613d688161335b565b9050919050565b60006020820190508181036000830152613d88816133c1565b9050919050565b60006020820190508181036000830152613da881613427565b9050919050565b60006020820190508181036000830152613dc88161348d565b9050919050565b60006020820190508181036000830152613de8816134cd565b9050919050565b60006020820190508181036000830152613e0881613533565b9050919050565b60006020820190508181036000830152613e2881613599565b9050919050565b60006020820190508181036000830152613e48816135d9565b9050919050565b60006020820190508181036000830152613e6881613665565b9050919050565b60006020820190508181036000830152613e88816136cb565b9050919050565b60006020820190508181036000830152613ea881613731565b9050919050565b60006020820190508181036000830152613ec881613797565b9050919050565b60006020820190508181036000830152613ee8816137fd565b9050919050565b60006020820190508181036000830152613f0881613863565b9050919050565b6000602082019050613f2460008301846138c9565b92915050565b6000604082019050613f3f60008301856138c9565b613f4c60208301846130b7565b9392505050565b6000608082019050613f6860008301876138c9565b613f7560208301866130c6565b613f8260408301856138c9565b8181036060830152613f948184613042565b905095945050505050565b600060c082019050613fb460008301896138c9565b613fc160208301886130c6565b613fce60408301876138c9565b613fdb60608301866130c6565b613fe860808301856138c9565b81810360a0830152613ffa8184613042565b9050979650505050505050565b600060408201905061401c60008301856138c9565b61402960208301846138c9565b9392505050565b600060608201905061404560008301866138c9565b61405260208301856138c9565b61405f6040830184613033565b949350505050565b600060208201905061407c60008301846138d8565b92915050565b6000604051905081810181811067ffffffffffffffff821117156140a557600080fd5b8060405250919050565b600067ffffffffffffffff8211156140c657600080fd5b602082029050602081019050919050565b600067ffffffffffffffff8211156140ee57600080fd5b601f19601f8301169050602081019050919050565b6000819050602082019050919050565b600081519050919050565b600081519050919050565b6000602082019050919050565b600082825260208201905092915050565b600082825260208201905092915050565b600082825260208201905092915050565b600082825260208201905092915050565b6000614185826141a2565b9050919050565b60008115159050919050565b6000819050919050565b600073ffffffffffffffffffffffffffffffffffffffff82169050919050565b6000819050919050565b600060ff82169050919050565b60006141e48261420f565b9050919050565b60006141f6826141fd565b9050919050565b6000614208826141a2565b9050919050565b600061421a82614221565b9050919050565b600061422c826141a2565b9050919050565b82818337600083830152505050565b60005b83811015614260578082015181840152602081019050614245565b8381111561426f576000848401525b50505050565b6000601f19601f8301169050919050565b61428f8161417a565b811461429a57600080fd5b50565b6142a68161418c565b81146142b157600080fd5b50565b6142bd81614198565b81146142c857600080fd5b50565b6142d4816141c2565b81146142df57600080fd5b5056fe546f74616c20646520656d697373c3a36f206578636564652076616c6f7220736f6c6963697461646f546f74616c20646520746f6b656e73206120736572656d20717565696d61646f7320c3a9206d61696f7220646f20717565206f2062616c616e636553616c646f206461206f726967656d206ec3a36f20c3a920737566696369656e746520706172612061207472616e73666572c3aa6e636961a26469706673582212205bfd5797ce35f4fa7ffbebb7b0b4a7ee6e685d853365eb90423471c949b2b54064736f6c634300060c0033",
  "immutableReferences": {},
  "source": "pragma solidity ^0.6.0;\npragma experimental ABIEncoderV2;\n\n\nimport \"./RBBLib.sol\";\nimport \"./RBBRegistry.sol\";\nimport \"./SpecificRBBToken.sol\";\nimport \"@openzeppelin/contracts/ownership/Ownable.sol\";\nimport \"@openzeppelin/contracts/lifecycle/Pausable.sol\";\nimport \"@openzeppelin/contracts/math/SafeMath.sol\";\n\n//TODO: framework de mudanca e como incluir um business contract com um id especfico\n//TODO: avaliar se precisa ter totalSupply de cada contrato ou outras info derivadas para aumentar programabilidade\ncontract BusinessContractRegistry is Ownable {\n\n    RBBRegistry public registry;\n\n    //It starts with 1, because 0 is the id value returned when the item is not found in the businessContractsRegistry\n    uint public idCount = 1;\n\n    struct BusinessContractInfo {\n        uint id;\n        bool isActive;\n    }\n\n    event BusinessContractRegistration (uint id, uint ownerId, address addr);\n    event BusinessContractStateChange (uint id, bool state);\n\n    //indexado pelo address pq serah a forma mais usada para consulta.\n    mapping (address => BusinessContractInfo) public businessContractsRegistry;\n\n    modifier onlyByRegisteredAndActiveContracts {\n        verifyContractIsRegisteredAndActive(msg.sender);\n        _;\n    }\n\n    function verifyContractIsRegisteredAndActive(address addr) public {\n        require(containsBusinessContract(addr), \"Mtodo s pode ser chamado por contrato de negcio previamente cadastrado\");\n        require(isBusinessContractActive(addr), \"Mtodo s pode ser chamado por contrato de negcio ativo\");\n    }\n\n    function registerBusinessContract (address businessContractAddr) public onlyOwner returns (uint)  {\n        require (!containsBusinessContract(businessContractAddr), \"Contrato j registrado\");\n\n        SpecificRBBToken specificContract = SpecificRBBToken(businessContractAddr);\n        specificContract.setInitializationDataDuringRegistration(address(registry), address(this));\n        address scOwnerAddr = specificContract.owner();\n        uint scOwnerId = registry.getId(scOwnerAddr);\n\n\n        businessContractsRegistry[businessContractAddr] = BusinessContractInfo(idCount, true);\n        emit BusinessContractRegistration (idCount, scOwnerId, businessContractAddr);\n        idCount++;\n    }\n\n    function getBusinessContractId (address addr) public view returns (uint) {\n        require (containsBusinessContract(addr), \"Contrato de negocio nao registrado\");\n        BusinessContractInfo memory info = businessContractsRegistry[addr];\n        return info.id;\n    }\n\n    function getBusinessContractIdAndOwnerId (address addr) public view returns (uint, uint) {\n        require (containsBusinessContract(addr), \"Contrato de negocio nao registrado\");\n        BusinessContractInfo memory info = businessContractsRegistry[addr];\n        SpecificRBBToken specificContract = SpecificRBBToken(addr);\n        address scOwnerAddr = specificContract.owner();\n        uint scOwnerId = registry.getId(scOwnerAddr);\n\n        return (info.id, scOwnerId);\n    }\n    \n    function containsBusinessContract(address addr) private view returns (bool) {\n        BusinessContractInfo memory info = businessContractsRegistry[addr];\n        if (info.id!=0) return true;\n        else return false;\n    }\n\n    function isBusinessContractActive(address addr) public view returns (bool) {\n        require (containsBusinessContract(addr), \"Contrato de negocio nao registrado\");\n        BusinessContractInfo memory info = businessContractsRegistry[addr];\n        return info.isActive;\n    }\n\n    function setStatus(address addr, bool status) public onlyOwner returns (bool) {\n        require (containsBusinessContract(addr), \"Contrato de negocio nao registrado\");\n        BusinessContractInfo storage info = businessContractsRegistry[addr];\n        info.isActive = status;\n        emit BusinessContractStateChange(info.id, info.isActive);\n    }\n}\n\ncontract RBBToken is Pausable, BusinessContractRegistry {\n\n    using SafeMath for uint;\n\n    uint8 public decimals = 2;\n\n    //businessContractId => (RBBid => (specificHash => amount)\n    mapping (uint => mapping (uint => mapping (bytes32 => uint))) public rbbBalances;\n\n    //businessContractId => (specificHash => amount)\n    mapping (uint => mapping (bytes32 => uint)) public balaceRequestedTokens;\n\n    event RBBTokenMintRequest(address businessContractAddr, bytes32 specificHash, uint idInvestor, uint amount);\n    event RBBTokenMint(address businessContractAddr, bytes32 specificHash, uint amount, string docHash, string[] data);\n    event RBBTokenBurn(address businessContractAddr, uint fromId, bytes32 fromHash, uint amount);\n    event RBBTokenTransfer (address businessContractAddr, uint fromId, bytes32 fromHash, uint toId,\n                            bytes32 toHash, uint amount, string[] data);\n    event RBBTokenRedemptionRequested (address businessContractAddr, uint fromId, bytes32 fromHash, \n                            uint amount, string[] data);\n    event RBBTokenRedemptionSettlement(address businessContractAddr, string redemptionTransactionHash, \n                            string receiptHash, string[] data);\n\n\n    constructor (address newRegistryAddr, uint8 _decimals) public {\n        registry = RBBRegistry(newRegistryAddr);\n        decimals = _decimals;\n    }\n\n\n\n///******************************************************************* */\n\n//TODO: incluir novo hash aqui?\n    function requestMint(bytes32 specificHash, uint idInvestor, uint amount) public onlyByRegisteredAndActiveContracts {\n    \n        require (amount>0, \"Valor a ser transacionado deve ser maior do que zero.\");\n        address businessContractAddr = msg.sender;\n\n        verifyContractIsRegisteredAndActive(businessContractAddr);\n        \n        uint businessContractId = getBusinessContractId(businessContractAddr);\n\n        balaceRequestedTokens[businessContractId][specificHash] = \n            balaceRequestedTokens[businessContractId][specificHash].add(amount);\n    \n        emit RBBTokenMintRequest(businessContractAddr, specificHash, idInvestor, amount);\n\n    }\n\n    function mint(address businessContractAddr, bytes32 specificHash, uint amount, string memory docHash,\n        string[] memory data) public onlyOwner {\n\n        verifyContractIsRegisteredAndActive(businessContractAddr);\n        require(amount>0, \"Valor a mintar deve ser maior do que zero\");\n\n        require (RBBLib.isValidHash(docHash), \"O hash da comprovao  invlido\");\n\n        (uint businessContractId, uint businessContractOwnerId) = \n                    getBusinessContractIdAndOwnerId(businessContractAddr);\n\n        balaceRequestedTokens[businessContractId][specificHash] \n            = balaceRequestedTokens[businessContractId][specificHash].sub(amount, \"Total de emisso excede valor solicitado\");\n\n        SpecificRBBToken specificContract = SpecificRBBToken(businessContractAddr);\n        bytes32 calcHash = specificContract.getHashToMintedAccount(specificHash);\n\n        rbbBalances[businessContractId][businessContractOwnerId][calcHash] = \n            rbbBalances[businessContractId][businessContractOwnerId][calcHash].add(amount);\n\n        specificContract.verifyAndActForMint(specificHash, amount, data, docHash);\n\n        emit RBBTokenMint(businessContractAddr, specificHash, amount, docHash, data);\n    }\n\n    function burnOwnTokenBySpecificContracts (bytes32 hashToBurn, uint amount) public onlyByRegisteredAndActiveContracts {\n\n        address businessContractAddr = msg.sender;\n        (uint businessContractId, uint businessContractOwnerId) = \n                    getBusinessContractIdAndOwnerId(businessContractAddr);\n        \n        _burn(businessContractAddr, businessContractOwnerId, hashToBurn, amount);\n\n    }\n\n\n    function burnOwnToken (address businessContractAddr, bytes32 hashToBurn, uint amount) public onlyByRegisteredAndActiveContracts {\n\n        verifyContractIsRegisteredAndActive(businessContractAddr);\n\n        uint idToBurn = registry.getId(msg.sender);\n\n        _burn(businessContractAddr, idToBurn, hashToBurn, amount);\n\n    }\n\n    function _burn(address businessContractAddr, uint fromId, bytes32 fromHash, uint amount) internal {\n        \n        verifyContractIsRegisteredAndActive(businessContractAddr);\n//        require(amount>0, \"Valor a queimar deve ser maior do que zero\");\n\n        uint businessContractId = getBusinessContractId(businessContractAddr);\n\n        rbbBalances[businessContractId][fromId][fromHash].sub(amount, \"Total de tokens a serem queimados  maior do que o balance\");\n\n        emit RBBTokenBurn(businessContractAddr, fromId, fromHash, amount);\n    }\n\n///******************************************************************* */\n\n\n//TODO: incluir hash de registro um objeto genrico para registrar informacoes\n    function transfer (address businessContractAddr, bytes32 fromHash, uint toId, bytes32 toHash, \n            uint amount, string[] memory data) public whenNotPaused {\n\n        uint fromId = registry.getId(msg.sender);\n\n        verifyContractIsRegisteredAndActive(businessContractAddr);\n\n        require(registry.isValidatedId(fromId), \"Conta de origem precisa estar com cadastro validado\");\n        require(registry.isValidatedId(toId), \"Conta de destino precisa estar com cadastro validado\");\n        uint businessContractId = getBusinessContractId(businessContractAddr);\n\n        SpecificRBBToken specificContract = SpecificRBBToken(businessContractAddr);\n        specificContract.verifyAndActForTransfer(fromId, fromHash, toId, toHash, amount, data);\n\n        //altera valores de saldo\n        rbbBalances[businessContractId][fromId][fromHash] =\n                rbbBalances[businessContractId][fromId][fromHash].sub(amount, \"Saldo da origem no  suficiente para a transferncia\");\n        rbbBalances[businessContractId][toId][toHash] = rbbBalances[businessContractId][toId][toHash].add(amount);\n\n        emit RBBTokenTransfer (businessContractAddr, fromId, fromHash, toId, toHash, amount, data);\n\n    }\n\n    function redeem (address businessContractAddr, uint fromId, bytes32 fromHash, uint amount, string[] memory data) public \n        whenNotPaused  {\n\n            verifyContractIsRegisteredAndActive(businessContractAddr);\n            require(registry.isValidatedId(fromId), \"Conta solicitante do redeem precisa estar com cadastro validado\");\n            require(amount>0, \"Valor a resgatar deve ser maior do que zero\");\n    \n            SpecificRBBToken specificContract = SpecificRBBToken(businessContractAddr);\n            specificContract.verifyAndActForRedeem(fromId, fromHash, amount, data);\n\n            emit RBBTokenRedemptionRequested(businessContractAddr, fromId, fromHash, amount, data);\n            _burn(businessContractAddr, fromId, fromHash, amount);\n    }\n\n   /**\n    * Using this function, the Responsible for Settlement indicates that he has made the FIAT money transfer.\n    * @ param redemptionTransactionHash hash of the redeem transaction in which the FIAT money settlement occurred.\n    * @ param receiptHash hash that proof the FIAT money transfer\n    */ \n    function notifyRedemptionSettlement(address businessContractAddr, string memory redemptionTransactionHash, \n        string memory receiptHash, string[] memory data)\n        public whenNotPaused onlyOwner {\n\n        verifyContractIsRegisteredAndActive(businessContractAddr);\n        require (RBBLib.isValidHash(receiptHash), \"O hash da comprovao  invlido\");\n\n        SpecificRBBToken specificContract = SpecificRBBToken(businessContractAddr);\n        specificContract.verifyAndActForRedemptionSettlement(redemptionTransactionHash, receiptHash, data);\n\n        emit RBBTokenRedemptionSettlement(businessContractAddr, redemptionTransactionHash, receiptHash, data);\n    }\n    \n\n///******************************************************************* */\n\n    function getDecimals() public view returns (uint8) {\n        return decimals;\n    }\n\n    function getBndesId() view public returns (uint) {\n        uint bndesId = registry.getId(owner());\n        return bndesId;\n    }\n\n}",
  "sourcePath": "/Users/suzana.moreno/workspace/rbb-token/Back-Blockchain/contracts/RBBToken.sol",
  "compiler": {
    "name": "solc",
    "version": "0.6.12+commit.27d51765.Emscripten.clang"
  },
  "schemaVersion": "3.2.5",
  "updatedAt": "2020-09-24T16:57:57.148Z",
  "devdoc": {
    "kind": "dev",
    "methods": {
      "isOwner()": {
        "details": "Returns true if the caller is the current owner."
      },
      "owner()": {
        "details": "Returns the address of the current owner."
      },
      "pause()": {
        "details": "Called by a pauser to pause, triggers stopped state."
      },
      "paused()": {
        "details": "Returns true if the contract is paused, and false otherwise."
      },
      "renounceOwnership()": {
        "details": "Leaves the contract without owner. It will not be possible to call `onlyOwner` functions anymore. Can only be called by the current owner. NOTE: Renouncing ownership will leave the contract without an owner, thereby removing any functionality that is only available to the owner."
      },
      "transferOwnership(address)": {
        "details": "Transfers ownership of the contract to a new account (`newOwner`). Can only be called by the current owner."
      },
      "unpause()": {
        "details": "Called by a pauser to unpause, returns to normal state."
      }
    },
    "version": 1
  },
  "userdoc": {
    "kind": "user",
    "methods": {
      "getDecimals()": {
        "notice": "******************************************************************* */"
      },
      "notifyRedemptionSettlement(address,string,string,string[])": {
        "notice": "Using this function, the Responsible for Settlement indicates that he has made the FIAT money transfer. param redemptionTransactionHash hash of the redeem transaction in which the FIAT money settlement occurred. param receiptHash hash that proof the FIAT money transfer"
      },
      "requestMint(bytes32,uint256,uint256)": {
        "notice": "******************************************************************* */"
      },
      "transfer(address,bytes32,uint256,bytes32,uint256,string[])": {
        "notice": "******************************************************************* */"
      }
    },
    "version": 1
  }
}