{
  "contractName": "RBBToken",
  "abi": [
    {
      "inputs": [
        {
          "internalType": "address",
          "name": "newRegistryAddr",
          "type": "address"
        },
        {
          "internalType": "address",
          "name": "newSpecificRBBTokenAddr",
          "type": "address"
        },
        {
          "internalType": "uint8",
          "name": "_decimals",
          "type": "uint8"
        }
      ],
      "stateMutability": "nonpayable",
      "type": "constructor"
    },
    {
      "anonymous": false,
      "inputs": [
        {
          "indexed": false,
          "internalType": "address",
          "name": "account",
          "type": "address"
        },
        {
          "indexed": false,
          "internalType": "uint8",
          "name": "eventType",
          "type": "uint8"
        }
      ],
      "name": "ManualIntervention_RoleOrAddress",
      "type": "event"
    },
    {
      "anonymous": false,
      "inputs": [
        {
          "indexed": true,
          "internalType": "address",
          "name": "previousOwner",
          "type": "address"
        },
        {
          "indexed": true,
          "internalType": "address",
          "name": "newOwner",
          "type": "address"
        }
      ],
      "name": "OwnershipTransferred",
      "type": "event"
    },
    {
      "anonymous": false,
      "inputs": [
        {
          "indexed": false,
          "internalType": "address",
          "name": "account",
          "type": "address"
        }
      ],
      "name": "Paused",
      "type": "event"
    },
    {
      "anonymous": false,
      "inputs": [
        {
          "indexed": true,
          "internalType": "address",
          "name": "account",
          "type": "address"
        }
      ],
      "name": "PauserAdded",
      "type": "event"
    },
    {
      "anonymous": false,
      "inputs": [
        {
          "indexed": true,
          "internalType": "address",
          "name": "account",
          "type": "address"
        }
      ],
      "name": "PauserRemoved",
      "type": "event"
    },
    {
      "anonymous": false,
      "inputs": [
        {
          "indexed": false,
          "internalType": "address",
          "name": "specificTokenAddr",
          "type": "address"
        },
        {
          "indexed": false,
          "internalType": "address",
          "name": "originalSender",
          "type": "address"
        },
        {
          "indexed": false,
          "internalType": "uint256",
          "name": "fromId",
          "type": "uint256"
        },
        {
          "indexed": false,
          "internalType": "bytes32",
          "name": "fromHash",
          "type": "bytes32"
        },
        {
          "indexed": false,
          "internalType": "uint256",
          "name": "amount",
          "type": "uint256"
        },
        {
          "indexed": false,
          "internalType": "bytes32",
          "name": "docHash",
          "type": "bytes32"
        }
      ],
      "name": "RBBTokenBurn",
      "type": "event"
    },
    {
      "anonymous": false,
      "inputs": [
        {
          "indexed": false,
          "internalType": "address",
          "name": "specificTokenAddr",
          "type": "address"
        },
        {
          "indexed": false,
          "internalType": "bytes32",
          "name": "specificHash",
          "type": "bytes32"
        },
        {
          "indexed": false,
          "internalType": "uint256",
          "name": "amount",
          "type": "uint256"
        },
        {
          "indexed": false,
          "internalType": "bytes32",
          "name": "docHash",
          "type": "bytes32"
        },
        {
          "indexed": false,
          "internalType": "string[]",
          "name": "data",
          "type": "string[]"
        }
      ],
      "name": "RBBTokenMint",
      "type": "event"
    },
    {
      "anonymous": false,
      "inputs": [
        {
          "indexed": false,
          "internalType": "address",
          "name": "specificTokenAddr",
          "type": "address"
        },
        {
          "indexed": false,
          "internalType": "bytes32",
          "name": "specificHash",
          "type": "bytes32"
        },
        {
          "indexed": false,
          "internalType": "uint256",
          "name": "idInvestor",
          "type": "uint256"
        },
        {
          "indexed": false,
          "internalType": "uint256",
          "name": "amount",
          "type": "uint256"
        },
        {
          "indexed": false,
          "internalType": "bytes32",
          "name": "docHash",
          "type": "bytes32"
        }
      ],
      "name": "RBBTokenMintRequested",
      "type": "event"
    },
    {
      "anonymous": false,
      "inputs": [
        {
          "indexed": false,
          "internalType": "address",
          "name": "specificTokenAddr",
          "type": "address"
        },
        {
          "indexed": false,
          "internalType": "address",
          "name": "originalSender",
          "type": "address"
        },
        {
          "indexed": false,
          "internalType": "uint256",
          "name": "fromId",
          "type": "uint256"
        },
        {
          "indexed": false,
          "internalType": "bytes32",
          "name": "fromHash",
          "type": "bytes32"
        },
        {
          "indexed": false,
          "internalType": "uint256",
          "name": "amount",
          "type": "uint256"
        },
        {
          "indexed": false,
          "internalType": "bytes32",
          "name": "docHash",
          "type": "bytes32"
        },
        {
          "indexed": false,
          "internalType": "string[]",
          "name": "data",
          "type": "string[]"
        }
      ],
      "name": "RBBTokenRedemptionRequested",
      "type": "event"
    },
    {
      "anonymous": false,
      "inputs": [
        {
          "indexed": false,
          "internalType": "address",
          "name": "specificTokenAddr",
          "type": "address"
        },
        {
          "indexed": false,
          "internalType": "bytes32",
          "name": "redemptionTransactionHash",
          "type": "bytes32"
        },
        {
          "indexed": false,
          "internalType": "bytes32",
          "name": "docHash",
          "type": "bytes32"
        },
        {
          "indexed": false,
          "internalType": "string[]",
          "name": "data",
          "type": "string[]"
        }
      ],
      "name": "RBBTokenRedemptionSettlement",
      "type": "event"
    },
    {
      "anonymous": false,
      "inputs": [
        {
          "indexed": false,
          "internalType": "address",
          "name": "specificTokenAddr",
          "type": "address"
        },
        {
          "indexed": false,
          "internalType": "address",
          "name": "originalSender",
          "type": "address"
        },
        {
          "indexed": false,
          "internalType": "uint256",
          "name": "fromId",
          "type": "uint256"
        },
        {
          "indexed": false,
          "internalType": "bytes32",
          "name": "fromHash",
          "type": "bytes32"
        },
        {
          "indexed": false,
          "internalType": "uint256",
          "name": "toId",
          "type": "uint256"
        },
        {
          "indexed": false,
          "internalType": "bytes32",
          "name": "toHash",
          "type": "bytes32"
        },
        {
          "indexed": false,
          "internalType": "uint256",
          "name": "amount",
          "type": "uint256"
        },
        {
          "indexed": false,
          "internalType": "bytes32",
          "name": "docHash",
          "type": "bytes32"
        },
        {
          "indexed": false,
          "internalType": "string[]",
          "name": "data",
          "type": "string[]"
        }
      ],
      "name": "RBBTokenTransfer",
      "type": "event"
    },
    {
      "anonymous": false,
      "inputs": [
        {
          "indexed": false,
          "internalType": "address",
          "name": "account",
          "type": "address"
        }
      ],
      "name": "Unpaused",
      "type": "event"
    },
    {
      "inputs": [
        {
          "internalType": "address",
          "name": "account",
          "type": "address"
        }
      ],
      "name": "addPauser",
      "outputs": [],
      "stateMutability": "nonpayable",
      "type": "function"
    },
    {
      "inputs": [
        {
          "internalType": "uint256",
          "name": "",
          "type": "uint256"
        },
        {
          "internalType": "bytes32",
          "name": "",
          "type": "bytes32"
        }
      ],
      "name": "balanceRequestedTokens",
      "outputs": [
        {
          "internalType": "uint256",
          "name": "",
          "type": "uint256"
        }
      ],
      "stateMutability": "view",
      "type": "function",
      "constant": true
    },
    {
      "inputs": [],
      "name": "decimals",
      "outputs": [
        {
          "internalType": "uint8",
          "name": "",
          "type": "uint8"
        }
      ],
      "stateMutability": "view",
      "type": "function",
      "constant": true
    },
    {
      "inputs": [],
      "name": "isOwner",
      "outputs": [
        {
          "internalType": "bool",
          "name": "",
          "type": "bool"
        }
      ],
      "stateMutability": "view",
      "type": "function",
      "constant": true
    },
    {
      "inputs": [
        {
          "internalType": "address",
          "name": "account",
          "type": "address"
        }
      ],
      "name": "isPauser",
      "outputs": [
        {
          "internalType": "bool",
          "name": "",
          "type": "bool"
        }
      ],
      "stateMutability": "view",
      "type": "function",
      "constant": true
    },
    {
      "inputs": [],
      "name": "owner",
      "outputs": [
        {
          "internalType": "address",
          "name": "",
          "type": "address"
        }
      ],
      "stateMutability": "view",
      "type": "function",
      "constant": true
    },
    {
      "inputs": [],
      "name": "pause",
      "outputs": [],
      "stateMutability": "nonpayable",
      "type": "function"
    },
    {
      "inputs": [],
      "name": "paused",
      "outputs": [
        {
          "internalType": "bool",
          "name": "",
          "type": "bool"
        }
      ],
      "stateMutability": "view",
      "type": "function",
      "constant": true
    },
    {
      "inputs": [
        {
          "internalType": "uint256",
          "name": "",
          "type": "uint256"
        },
        {
          "internalType": "uint256",
          "name": "",
          "type": "uint256"
        },
        {
          "internalType": "bytes32",
          "name": "",
          "type": "bytes32"
        }
      ],
      "name": "rbbBalances",
      "outputs": [
        {
          "internalType": "uint256",
          "name": "",
          "type": "uint256"
        }
      ],
      "stateMutability": "view",
      "type": "function",
      "constant": true
    },
    {
      "inputs": [],
      "name": "registry",
      "outputs": [
        {
          "internalType": "contract RBBRegistry",
          "name": "",
          "type": "address"
        }
      ],
      "stateMutability": "view",
      "type": "function",
      "constant": true
    },
    {
      "inputs": [],
      "name": "renounceOwnership",
      "outputs": [],
      "stateMutability": "nonpayable",
      "type": "function"
    },
    {
      "inputs": [],
      "name": "renouncePauser",
      "outputs": [],
      "stateMutability": "nonpayable",
      "type": "function"
    },
    {
      "inputs": [],
      "name": "responsibleForInvestmentConfirmation",
      "outputs": [
        {
          "internalType": "address",
          "name": "",
          "type": "address"
        }
      ],
      "stateMutability": "view",
      "type": "function",
      "constant": true
    },
    {
      "inputs": [],
      "name": "responsibleForSettlement",
      "outputs": [
        {
          "internalType": "address",
          "name": "",
          "type": "address"
        }
      ],
      "stateMutability": "view",
      "type": "function",
      "constant": true
    },
    {
      "inputs": [],
      "name": "tokenRegistry",
      "outputs": [
        {
          "internalType": "contract SpecificRBBTokenRegistry",
          "name": "",
          "type": "address"
        }
      ],
      "stateMutability": "view",
      "type": "function",
      "constant": true
    },
    {
      "inputs": [
        {
          "internalType": "address",
          "name": "newOwner",
          "type": "address"
        }
      ],
      "name": "transferOwnership",
      "outputs": [],
      "stateMutability": "nonpayable",
      "type": "function"
    },
    {
      "inputs": [],
      "name": "unpause",
      "outputs": [],
      "stateMutability": "nonpayable",
      "type": "function"
    },
    {
      "inputs": [
        {
          "internalType": "bytes32",
          "name": "specificInvestimentHash",
          "type": "bytes32"
        },
        {
          "internalType": "uint256",
          "name": "idInvestor",
          "type": "uint256"
        },
        {
          "internalType": "uint256",
          "name": "amount",
          "type": "uint256"
        },
        {
          "internalType": "bytes32",
          "name": "docHash",
          "type": "bytes32"
        }
      ],
      "name": "requestMint",
      "outputs": [],
      "stateMutability": "nonpayable",
      "type": "function"
    },
    {
      "inputs": [
        {
          "internalType": "address",
          "name": "specificTokenAddr",
          "type": "address"
        },
        {
          "internalType": "uint256",
          "name": "idInvestor",
          "type": "uint256"
        },
        {
          "internalType": "bytes32",
          "name": "specificHash",
          "type": "bytes32"
        },
        {
          "internalType": "uint256",
          "name": "amount",
          "type": "uint256"
        },
        {
          "internalType": "bytes32",
          "name": "docHash",
          "type": "bytes32"
        },
        {
          "internalType": "string[]",
          "name": "data",
          "type": "string[]"
        }
      ],
      "name": "mint",
      "outputs": [],
      "stateMutability": "nonpayable",
      "type": "function"
    },
    {
      "inputs": [
        {
          "internalType": "address",
          "name": "originalSender",
          "type": "address"
        },
        {
          "internalType": "bytes32",
          "name": "hashToBurn",
          "type": "bytes32"
        },
        {
          "internalType": "uint256",
          "name": "amount",
          "type": "uint256"
        },
        {
          "internalType": "bytes32",
          "name": "docHash",
          "type": "bytes32"
        }
      ],
      "name": "burnOwnTokenBySpecificTokens",
      "outputs": [],
      "stateMutability": "nonpayable",
      "type": "function"
    },
    {
      "inputs": [
        {
          "internalType": "address",
          "name": "specificTokenAddr",
          "type": "address"
        },
        {
          "internalType": "bytes32",
          "name": "hashToBurn",
          "type": "bytes32"
        },
        {
          "internalType": "uint256",
          "name": "amount",
          "type": "uint256"
        },
        {
          "internalType": "bytes32",
          "name": "docHash",
          "type": "bytes32"
        }
      ],
      "name": "burnOwnToken",
      "outputs": [],
      "stateMutability": "nonpayable",
      "type": "function"
    },
    {
      "inputs": [
        {
          "internalType": "address",
          "name": "specificTokenAddr",
          "type": "address"
        },
        {
          "internalType": "bytes32",
          "name": "fromHash",
          "type": "bytes32"
        },
        {
          "internalType": "uint256",
          "name": "toId",
          "type": "uint256"
        },
        {
          "internalType": "bytes32",
          "name": "toHash",
          "type": "bytes32"
        },
        {
          "internalType": "uint256",
          "name": "amount",
          "type": "uint256"
        },
        {
          "internalType": "bytes32",
          "name": "docHash",
          "type": "bytes32"
        },
        {
          "internalType": "string[]",
          "name": "data",
          "type": "string[]"
        }
      ],
      "name": "transfer",
      "outputs": [],
      "stateMutability": "nonpayable",
      "type": "function"
    },
    {
      "inputs": [
        {
          "internalType": "address",
          "name": "specificTokenAddr",
          "type": "address"
        },
        {
          "internalType": "bytes32",
          "name": "fromHash",
          "type": "bytes32"
        },
        {
          "internalType": "uint256",
          "name": "amount",
          "type": "uint256"
        },
        {
          "internalType": "bytes32",
          "name": "docHash",
          "type": "bytes32"
        },
        {
          "internalType": "string[]",
          "name": "data",
          "type": "string[]"
        }
      ],
      "name": "redeem",
      "outputs": [],
      "stateMutability": "nonpayable",
      "type": "function"
    },
    {
      "inputs": [
        {
          "internalType": "address",
          "name": "specificTokenAddr",
          "type": "address"
        },
        {
          "internalType": "bytes32",
          "name": "redemptionTransactionHash",
          "type": "bytes32"
        },
        {
          "internalType": "bytes32",
          "name": "docHash",
          "type": "bytes32"
        },
        {
          "internalType": "string[]",
          "name": "data",
          "type": "string[]"
        }
      ],
      "name": "notifyRedemptionSettlement",
      "outputs": [],
      "stateMutability": "nonpayable",
      "type": "function"
    },
    {
      "inputs": [],
      "name": "getDecimals",
      "outputs": [
        {
          "internalType": "uint8",
          "name": "",
          "type": "uint8"
        }
      ],
      "stateMutability": "view",
      "type": "function",
      "constant": true
    },
    {
      "inputs": [],
      "name": "getBndesId",
      "outputs": [
        {
          "internalType": "uint256",
          "name": "",
          "type": "uint256"
        }
      ],
      "stateMutability": "view",
      "type": "function",
      "constant": true
    },
    {
      "inputs": [
        {
          "internalType": "address",
          "name": "rs",
          "type": "address"
        }
      ],
      "name": "setResponsibleForInvestmentConfirmation",
      "outputs": [],
      "stateMutability": "nonpayable",
      "type": "function"
    },
    {
      "inputs": [
        {
          "internalType": "address",
          "name": "rs",
          "type": "address"
        }
      ],
      "name": "setResponsibleForSettlement",
      "outputs": [],
      "stateMutability": "nonpayable",
      "type": "function"
    }
  ],
  "bytecode": "0x60806040526002600360146101000a81548160ff021916908360ff1602179055503480156200002d57600080fd5b5060405162004bbe38038062004bbe83398181016040528101906200005391906200047b565b62000073620000676200026660201b60201c565b6200026e60201b60201c565b6000600160006101000a81548160ff0219169083151502179055506000620000a06200026660201b60201c565b9050806001806101000a81548173ffffffffffffffffffffffffffffffffffffffff021916908373ffffffffffffffffffffffffffffffffffffffff1602179055508073ffffffffffffffffffffffffffffffffffffffff16600073ffffffffffffffffffffffffffffffffffffffff167f8be0079c531659141344cd1fd0a4f28419497f9722a3daafe3b4186f6b6457e060405160405180910390a35082600360006101000a81548173ffffffffffffffffffffffffffffffffffffffff021916908373ffffffffffffffffffffffffffffffffffffffff16021790555081600260006101000a81548173ffffffffffffffffffffffffffffffffffffffff021916908373ffffffffffffffffffffffffffffffffffffffff16021790555080600360146101000a81548160ff021916908360ff16021790555033600460006101000a81548173ffffffffffffffffffffffffffffffffffffffff021916908373ffffffffffffffffffffffffffffffffffffffff16021790555033600560006101000a81548173ffffffffffffffffffffffffffffffffffffffff021916908373ffffffffffffffffffffffffffffffffffffffff16021790555050505062000645565b600033905090565b62000289816000620002cf60201b620024c71790919060201c565b8073ffffffffffffffffffffffffffffffffffffffff167f6719d08c1888103bea251a4ed56406bd0c3e69723c8a1686e017e7bbe159b6f860405160405180910390a250565b620002e182826200038260201b60201c565b1562000324576040517f08c379a00000000000000000000000000000000000000000000000000000000081526004016200031b906200057b565b60405180910390fd5b60018260000160008373ffffffffffffffffffffffffffffffffffffffff1673ffffffffffffffffffffffffffffffffffffffff16815260200190815260200160002060006101000a81548160ff0219169083151502179055505050565b60008073ffffffffffffffffffffffffffffffffffffffff168273ffffffffffffffffffffffffffffffffffffffff161415620003f6576040517f08c379a0000000000000000000000000000000000000000000000000000000008152600401620003ed906200059d565b60405180910390fd5b8260000160008373ffffffffffffffffffffffffffffffffffffffff1673ffffffffffffffffffffffffffffffffffffffff16815260200190815260200160002060009054906101000a900460ff16905092915050565b6000815190506200045e8162000611565b92915050565b60008151905062000475816200062b565b92915050565b6000806000606084860312156200049157600080fd5b6000620004a1868287016200044d565b9350506020620004b4868287016200044d565b9250506040620004c78682870162000464565b9150509250925092565b6000620004e0601f83620005bf565b91507f526f6c65733a206163636f756e7420616c72656164792068617320726f6c65006000830152602082019050919050565b600062000522602283620005bf565b91507f526f6c65733a206163636f756e7420697320746865207a65726f20616464726560008301527f73730000000000000000000000000000000000000000000000000000000000006020830152604082019050919050565b600060208201905081810360008301526200059681620004d1565b9050919050565b60006020820190508181036000830152620005b88162000513565b9050919050565b600082825260208201905092915050565b6000620005dd82620005e4565b9050919050565b600073ffffffffffffffffffffffffffffffffffffffff82169050919050565b600060ff82169050919050565b6200061c81620005d0565b81146200062857600080fd5b50565b620006368162000604565b81146200064257600080fd5b50565b61456980620006556000396000f3fe608060405234801561001057600080fd5b50600436106101c45760003560e01c8063715018a6116100f9578063a1ccae9711610097578063d9a428fe11610071578063d9a428fe1461046f578063e67b02a41461048b578063f0141d84146104a7578063f2fde38b146104c5576101c4565b8063a1ccae9714610419578063a6a9ba8814610435578063b7404ff514610453576101c4565b80638456cb59116100d35780638456cb59146103b55780638da5cb5b146103bf5780638f32d59b146103dd5780639d23c4c7146103fb576101c4565b8063715018a6146103715780637b1039991461037b57806382dc1ec414610399576101c4565b80633f4ba83a116101665780635c975abb116101405780635c975abb146102fd5780635d09022c1461031b5780636b569193146103375780636ef8d66d14610367576101c4565b80633f4ba83a146102a557806346fbf68e146102af5780634a47f599146102df576101c4565b806321453800116101a2578063214538001461021d57806330b499831461023b578063313ce5671461026b5780633d05817a14610289576101c4565b806304cc4d8e146101c95780630bb91394146101e55780630faf5eb214610201575b600080fd5b6101e360048036038101906101de919061301b565b6104e1565b005b6101ff60048036038101906101fa9190612d80565b610709565b005b61021b60048036038101906102169190612e72565b61085e565b005b610225610e58565b6040516102329190613a6b565b60405180910390f35b6102556004803603810190610250919061311f565b610e7e565b6040516102629190614170565b60405180910390f35b610273610eb0565b60405161028091906141e5565b60405180910390f35b6102a3600480360381019061029e9190612f28565b610ec3565b005b6102ad61131e565b005b6102c960048036038101906102c49190612cdc565b611417565b6040516102d69190613e44565b60405180910390f35b6102e7611434565b6040516102f49190614170565b60405180910390f35b6103056114f2565b6040516103129190613e44565b60405180910390f35b61033560048036038101906103309190612cdc565b611509565b005b610351600480360381019061034c91906130a7565b611771565b60405161035e9190614170565b60405180910390f35b61036f611796565b005b6103796117a8565b005b6103836118ad565b6040516103909190613eb8565b60405180910390f35b6103b360048036038101906103ae9190612cdc565b6118d3565b005b6103bd61192e565b005b6103c7611a27565b6040516103d49190613a6b565b60405180910390f35b6103e5611a4f565b6040516103f29190613e44565b60405180910390f35b610403611aac565b6040516104109190613ed3565b60405180910390f35b610433600480360381019061042e9190612d80565b611ad2565b005b61043d611c21565b60405161044a9190613a6b565b60405180910390f35b61046d60048036038101906104689190612cdc565b611c47565b005b61048960048036038101906104849190612d05565b611eaf565b005b6104a560048036038101906104a09190612de3565b6120d2565b005b6104af61245d565b6040516104bc91906141e5565b60405180910390f35b6104df60048036038101906104da9190612cdc565b612474565b005b60008211610524576040517f08c379a000000000000000000000000000000000000000000000000000000000815260040161051b90613fd0565b60405180910390fd5b6000339050600260009054906101000a900473ffffffffffffffffffffffffffffffffffffffff1673ffffffffffffffffffffffffffffffffffffffff1663d06d86eb826040518263ffffffff1660e01b81526004016105849190613a6b565b60006040518083038186803b15801561059c57600080fd5b505afa1580156105b0573d6000803e3d6000fd5b505050506000600260009054906101000a900473ffffffffffffffffffffffffffffffffffffffff1673ffffffffffffffffffffffffffffffffffffffff166324370167836040518263ffffffff1660e01b81526004016106119190613a6b565b60206040518083038186803b15801561062957600080fd5b505afa15801561063d573d6000803e3d6000fd5b505050506040513d601f19601f82011682018060405250810190610661919061307e565b905061069a846007600084815260200190815260200160002060008981526020019081526020016000205461256f90919063ffffffff16565b600760008381526020019081526020016000206000888152602001908152602001600020819055507fb5d8f9b160e3756e6a72237700498d57cf4fc736169d86a72e2389a6d24a7df182878787876040516106f9959493929190613d9f565b60405180910390a1505050505050565b6000339050600260009054906101000a900473ffffffffffffffffffffffffffffffffffffffff1673ffffffffffffffffffffffffffffffffffffffff1663d06d86eb826040518263ffffffff1660e01b81526004016107699190613a6b565b60006040518083038186803b15801561078157600080fd5b505afa158015610795573d6000803e3d6000fd5b505050506000600260009054906101000a900473ffffffffffffffffffffffffffffffffffffffff1673ffffffffffffffffffffffffffffffffffffffff1663c2c7ea79836040518263ffffffff1660e01b81526004016107f69190613a6b565b60206040518083038186803b15801561080e57600080fd5b505afa158015610822573d6000803e3d6000fd5b505050506040513d601f19601f82011682018060405250810190610846919061307e565b90506108568287838888886125c4565b505050505050565b600160009054906101000a900460ff16156108ae576040517f08c379a00000000000000000000000000000000000000000000000000000000081526004016108a590614010565b60405180910390fd5b6000600360009054906101000a900473ffffffffffffffffffffffffffffffffffffffff1673ffffffffffffffffffffffffffffffffffffffff166365f68c89336040518263ffffffff1660e01b815260040161090b9190613a86565b60206040518083038186803b15801561092357600080fd5b505afa158015610937573d6000803e3d6000fd5b505050506040513d601f19601f8201168201806040525081019061095b919061307e565b9050600260009054906101000a900473ffffffffffffffffffffffffffffffffffffffff1673ffffffffffffffffffffffffffffffffffffffff1663d06d86eb896040518263ffffffff1660e01b81526004016109b89190613a6b565b60006040518083038186803b1580156109d057600080fd5b505afa1580156109e4573d6000803e3d6000fd5b50505050600360009054906101000a900473ffffffffffffffffffffffffffffffffffffffff1673ffffffffffffffffffffffffffffffffffffffff1663087d4427826040518263ffffffff1660e01b8152600401610a439190614170565b60206040518083038186803b158015610a5b57600080fd5b505afa158015610a6f573d6000803e3d6000fd5b505050506040513d601f19601f82011682018060405250810190610a939190612fc9565b610ad2576040517f08c379a0000000000000000000000000000000000000000000000000000000008152600401610ac990614110565b60405180910390fd5b600360009054906101000a900473ffffffffffffffffffffffffffffffffffffffff1673ffffffffffffffffffffffffffffffffffffffff1663087d4427876040518263ffffffff1660e01b8152600401610b2d9190614170565b60206040518083038186803b158015610b4557600080fd5b505afa158015610b59573d6000803e3d6000fd5b505050506040513d601f19601f82011682018060405250810190610b7d9190612fc9565b610bbc576040517f08c379a0000000000000000000000000000000000000000000000000000000008152600401610bb390614150565b60405180910390fd5b6000600260009054906101000a900473ffffffffffffffffffffffffffffffffffffffff1673ffffffffffffffffffffffffffffffffffffffff1663243701678a6040518263ffffffff1660e01b8152600401610c199190613a6b565b60206040518083038186803b158015610c3157600080fd5b505afa158015610c45573d6000803e3d6000fd5b505050506040513d601f19601f82011682018060405250810190610c69919061307e565b905060008990508073ffffffffffffffffffffffffffffffffffffffff166341574b3b33858c8c8c8c8c8c6040518963ffffffff1660e01b8152600401610cb7989796959493929190613b09565b600060405180830381600087803b158015610cd157600080fd5b505af1158015610ce5573d6000803e3d6000fd5b50505050610d4b866040518060600160405280603881526020016144fc6038913960066000868152602001908152602001600020600087815260200190815260200160002060008d8152602001908152602001600020546127e39092919063ffffffff16565b60066000848152602001908152602001600020600085815260200190815260200160002060008b815260200190815260200160002081905550610dcc866006600085815260200190815260200160002060008b815260200190815260200160002060008a81526020019081526020016000205461256f90919063ffffffff16565b6006600084815260200190815260200160002060008a81526020019081526020016000206000898152602001908152602001600020819055507fbdea818d4f1687df74b09fdbb5d86c436785fb62b1374ee6b3497ebe39e6f5258a33858c8c8c8c8c8c604051610e4499989796959493929190613c04565b60405180910390a150505050505050505050565b600560009054906101000a900473ffffffffffffffffffffffffffffffffffffffff1681565b600660205282600052604060002060205281600052604060002060205280600052604060002060009250925050505481565b600360149054906101000a900460ff1681565b600260009054906101000a900473ffffffffffffffffffffffffffffffffffffffff1673ffffffffffffffffffffffffffffffffffffffff1663d06d86eb876040518263ffffffff1660e01b8152600401610f1e9190613a6b565b60006040518083038186803b158015610f3657600080fd5b505afa158015610f4a573d6000803e3d6000fd5b505050503373ffffffffffffffffffffffffffffffffffffffff16600460009054906101000a900473ffffffffffffffffffffffffffffffffffffffff1673ffffffffffffffffffffffffffffffffffffffff1614610fde576040517f08c379a0000000000000000000000000000000000000000000000000000000008152600401610fd590613ff0565b60405180910390fd5b60008311611021576040517f08c379a0000000000000000000000000000000000000000000000000000000008152600401611018906140f0565b60405180910390fd5b600080600260009054906101000a900473ffffffffffffffffffffffffffffffffffffffff1673ffffffffffffffffffffffffffffffffffffffff16638264f978896040518263ffffffff1660e01b815260040161107f9190613a6b565b604080518083038186803b15801561109657600080fd5b505afa1580156110aa573d6000803e3d6000fd5b505050506040513d601f19601f820116820180604052508101906110ce91906130e3565b9150915061112385604051806060016040528060298152602001614498602991396007600086815260200190815260200160002060008a8152602001908152602001600020546127e39092919063ffffffff16565b60076000848152602001908152602001600020600088815260200190815260200160002081905550600088905060008173ffffffffffffffffffffffffffffffffffffffff1663cd541b7a896040518263ffffffff1660e01b815260040161118b9190613e5f565b602060405180830381600087803b1580156111a557600080fd5b505af11580156111b9573d6000803e3d6000fd5b505050506040513d601f19601f820116820180604052508101906111dd9190612ff2565b90506112278760066000878152602001908152602001600020600086815260200190815260200160002060008481526020019081526020016000205461256f90919063ffffffff16565b6006600086815260200190815260200160002060008581526020019081526020016000206000838152602001908152602001600020819055508173ffffffffffffffffffffffffffffffffffffffff16630990da738a8a8a8a8a6040518663ffffffff1660e01b81526004016112a195949392919061418b565b600060405180830381600087803b1580156112bb57600080fd5b505af11580156112cf573d6000803e3d6000fd5b505050507f3f0f1f541f704191af92125dcf03aa5ef8ed27b996d6b2ba3c3c91e1351c5c0e8a8989898960405161130a959493929190613d45565b60405180910390a150505050505050505050565b61132e61132961283e565b611417565b61136d576040517f08c379a000000000000000000000000000000000000000000000000000000000815260040161136490613f70565b60405180910390fd5b600160009054906101000a900460ff166113bc576040517f08c379a00000000000000000000000000000000000000000000000000000000081526004016113b390613f30565b60405180910390fd5b6000600160006101000a81548160ff0219169083151502179055507f5db9ee0a495bf2e6ff9c91a7834c1ba4fdd244a5e8aa4e537bd38aeae4b073aa61140061283e565b60405161140d9190613a86565b60405180910390a1565b600061142d82600061284690919063ffffffff16565b9050919050565b600080600360009054906101000a900473ffffffffffffffffffffffffffffffffffffffff1673ffffffffffffffffffffffffffffffffffffffff166365f68c8961147d611a27565b6040518263ffffffff1660e01b81526004016114999190613a6b565b60206040518083038186803b1580156114b157600080fd5b505afa1580156114c5573d6000803e3d6000fd5b505050506040513d601f19601f820116820180604052508101906114e9919061307e565b90508091505090565b6000600160009054906101000a900460ff16905090565b611511611a4f565b611550576040517f08c379a0000000000000000000000000000000000000000000000000000000008152600401611547906140b0565b60405180910390fd5b6000600360009054906101000a900473ffffffffffffffffffffffffffffffffffffffff1673ffffffffffffffffffffffffffffffffffffffff166365f68c89836040518263ffffffff1660e01b81526004016115ad9190613a6b565b60206040518083038186803b1580156115c557600080fd5b505afa1580156115d9573d6000803e3d6000fd5b505050506040513d601f19601f820116820180604052508101906115fd919061307e565b9050600360009054906101000a900473ffffffffffffffffffffffffffffffffffffffff1673ffffffffffffffffffffffffffffffffffffffff166365f68c89611645611a27565b6040518263ffffffff1660e01b81526004016116619190613a6b565b60206040518083038186803b15801561167957600080fd5b505afa15801561168d573d6000803e3d6000fd5b505050506040513d601f19601f820116820180604052508101906116b1919061307e565b81146116f2576040517f08c379a00000000000000000000000000000000000000000000000000000000081526004016116e990613f10565b60405180910390fd5b81600460006101000a81548173ffffffffffffffffffffffffffffffffffffffff021916908373ffffffffffffffffffffffffffffffffffffffff1602179055507faf10d91531a8d27fc602286518b7fd48b5ea40e30a02f824746cd67a2ab488c8826001604051611765929190613df2565b60405180910390a15050565b6007602052816000526040600020602052806000526040600020600091509150505481565b6117a66117a161283e565b61290e565b565b6117b0611a4f565b6117ef576040517f08c379a00000000000000000000000000000000000000000000000000000000081526004016117e6906140b0565b60405180910390fd5b600073ffffffffffffffffffffffffffffffffffffffff1660018054906101000a900473ffffffffffffffffffffffffffffffffffffffff1673ffffffffffffffffffffffffffffffffffffffff167f8be0079c531659141344cd1fd0a4f28419497f9722a3daafe3b4186f6b6457e060405160405180910390a360006001806101000a81548173ffffffffffffffffffffffffffffffffffffffff021916908373ffffffffffffffffffffffffffffffffffffffff160217905550565b600360009054906101000a900473ffffffffffffffffffffffffffffffffffffffff1681565b6118e36118de61283e565b611417565b611922576040517f08c379a000000000000000000000000000000000000000000000000000000000815260040161191990613f70565b60405180910390fd5b61192b81612968565b50565b61193e61193961283e565b611417565b61197d576040517f08c379a000000000000000000000000000000000000000000000000000000000815260040161197490613f70565b60405180910390fd5b600160009054906101000a900460ff16156119cd576040517f08c379a00000000000000000000000000000000000000000000000000000000081526004016119c490614010565b60405180910390fd5b60018060006101000a81548160ff0219169083151502179055507f62e78cea01bee320cd4e420270b5ea74000d11b0c9f74754ebdbfc544b05a258611a1061283e565b604051611a1d9190613a86565b60405180910390a1565b600060018054906101000a900473ffffffffffffffffffffffffffffffffffffffff16905090565b600060018054906101000a900473ffffffffffffffffffffffffffffffffffffffff1673ffffffffffffffffffffffffffffffffffffffff16611a9061283e565b73ffffffffffffffffffffffffffffffffffffffff1614905090565b600260009054906101000a900473ffffffffffffffffffffffffffffffffffffffff1681565b600260009054906101000a900473ffffffffffffffffffffffffffffffffffffffff1673ffffffffffffffffffffffffffffffffffffffff1663d06d86eb856040518263ffffffff1660e01b8152600401611b2d9190613a6b565b60006040518083038186803b158015611b4557600080fd5b505afa158015611b59573d6000803e3d6000fd5b505050506000600360009054906101000a900473ffffffffffffffffffffffffffffffffffffffff1673ffffffffffffffffffffffffffffffffffffffff166365f68c89336040518263ffffffff1660e01b8152600401611bba9190613a86565b60206040518083038186803b158015611bd257600080fd5b505afa158015611be6573d6000803e3d6000fd5b505050506040513d601f19601f82011682018060405250810190611c0a919061307e565b9050611c1a8533838787876125c4565b5050505050565b600460009054906101000a900473ffffffffffffffffffffffffffffffffffffffff1681565b611c4f611a4f565b611c8e576040517f08c379a0000000000000000000000000000000000000000000000000000000008152600401611c85906140b0565b60405180910390fd5b6000600360009054906101000a900473ffffffffffffffffffffffffffffffffffffffff1673ffffffffffffffffffffffffffffffffffffffff166365f68c89836040518263ffffffff1660e01b8152600401611ceb9190613a6b565b60206040518083038186803b158015611d0357600080fd5b505afa158015611d17573d6000803e3d6000fd5b505050506040513d601f19601f82011682018060405250810190611d3b919061307e565b9050600360009054906101000a900473ffffffffffffffffffffffffffffffffffffffff1673ffffffffffffffffffffffffffffffffffffffff166365f68c89611d83611a27565b6040518263ffffffff1660e01b8152600401611d9f9190613a6b565b60206040518083038186803b158015611db757600080fd5b505afa158015611dcb573d6000803e3d6000fd5b505050506040513d601f19601f82011682018060405250810190611def919061307e565b8114611e30576040517f08c379a0000000000000000000000000000000000000000000000000000000008152600401611e2790614030565b60405180910390fd5b81600560006101000a81548173ffffffffffffffffffffffffffffffffffffffff021916908373ffffffffffffffffffffffffffffffffffffffff1602179055507faf10d91531a8d27fc602286518b7fd48b5ea40e30a02f824746cd67a2ab488c8826002604051611ea3929190613e1b565b60405180910390a15050565b600160009054906101000a900460ff1615611eff576040517f08c379a0000000000000000000000000000000000000000000000000000000008152600401611ef690614010565b60405180910390fd5b600260009054906101000a900473ffffffffffffffffffffffffffffffffffffffff1673ffffffffffffffffffffffffffffffffffffffff1663d06d86eb856040518263ffffffff1660e01b8152600401611f5a9190613a6b565b60006040518083038186803b158015611f7257600080fd5b505afa158015611f86573d6000803e3d6000fd5b505050503373ffffffffffffffffffffffffffffffffffffffff16600560009054906101000a900473ffffffffffffffffffffffffffffffffffffffff1673ffffffffffffffffffffffffffffffffffffffff161461201a576040517f08c379a000000000000000000000000000000000000000000000000000000000815260040161201190614090565b60405180910390fd5b60008490508073ffffffffffffffffffffffffffffffffffffffff1663a6ee26e18585856040518463ffffffff1660e01b815260040161205c93929190613e7a565b600060405180830381600087803b15801561207657600080fd5b505af115801561208a573d6000803e3d6000fd5b505050507f6b9ae09d6ab882c931047d5687aa3a062d69d6b6caf4b04af6cb9df81245ab51858585856040516120c39493929190613cf9565b60405180910390a15050505050565b600160009054906101000a900460ff1615612122576040517f08c379a000000000000000000000000000000000000000000000000000000000815260040161211990614010565b60405180910390fd5b6000600360009054906101000a900473ffffffffffffffffffffffffffffffffffffffff1673ffffffffffffffffffffffffffffffffffffffff166365f68c89336040518263ffffffff1660e01b815260040161217f9190613a86565b60206040518083038186803b15801561219757600080fd5b505afa1580156121ab573d6000803e3d6000fd5b505050506040513d601f19601f820116820180604052508101906121cf919061307e565b9050600260009054906101000a900473ffffffffffffffffffffffffffffffffffffffff1673ffffffffffffffffffffffffffffffffffffffff1663d06d86eb876040518263ffffffff1660e01b815260040161222c9190613a6b565b60006040518083038186803b15801561224457600080fd5b505afa158015612258573d6000803e3d6000fd5b50505050600360009054906101000a900473ffffffffffffffffffffffffffffffffffffffff1673ffffffffffffffffffffffffffffffffffffffff1663087d4427826040518263ffffffff1660e01b81526004016122b79190614170565b60206040518083038186803b1580156122cf57600080fd5b505afa1580156122e3573d6000803e3d6000fd5b505050506040513d601f19601f820116820180604052508101906123079190612fc9565b612346576040517f08c379a000000000000000000000000000000000000000000000000000000000815260040161233d90614130565b60405180910390fd5b60008411612389576040517f08c379a000000000000000000000000000000000000000000000000000000000815260040161238090614050565b60405180910390fd5b60008690508073ffffffffffffffffffffffffffffffffffffffff1663ba6ad8533384898989896040518763ffffffff1660e01b81526004016123d196959493929190613aa1565b600060405180830381600087803b1580156123eb57600080fd5b505af11580156123ff573d6000803e3d6000fd5b505050507f3115381baa8fda8997478031f1bd9f852965a6be640620b542c229a91e0302ab8733848989898960405161243e9796959493929190613b8e565b60405180910390a16124548733848989896125c4565b50505050505050565b6000600360149054906101000a900460ff16905090565b61247c611a4f565b6124bb576040517f08c379a00000000000000000000000000000000000000000000000000000000081526004016124b2906140b0565b60405180910390fd5b6124c4816129c2565b50565b6124d18282612846565b15612511576040517f08c379a000000000000000000000000000000000000000000000000000000000815260040161250890613f50565b60405180910390fd5b60018260000160008373ffffffffffffffffffffffffffffffffffffffff1673ffffffffffffffffffffffffffffffffffffffff16815260200190815260200160002060006101000a81548160ff0219169083151502179055505050565b6000808284019050838110156125ba576040517f08c379a00000000000000000000000000000000000000000000000000000000081526004016125b190613fb0565b60405180910390fd5b8091505092915050565b600260009054906101000a900473ffffffffffffffffffffffffffffffffffffffff1673ffffffffffffffffffffffffffffffffffffffff1663d06d86eb876040518263ffffffff1660e01b815260040161261f9190613a6b565b60006040518083038186803b15801561263757600080fd5b505afa15801561264b573d6000803e3d6000fd5b505050506000600260009054906101000a900473ffffffffffffffffffffffffffffffffffffffff1673ffffffffffffffffffffffffffffffffffffffff166324370167886040518263ffffffff1660e01b81526004016126ac9190613a6b565b60206040518083038186803b1580156126c457600080fd5b505afa1580156126d8573d6000803e3d6000fd5b505050506040513d601f19601f820116820180604052508101906126fc919061307e565b9050612760836040518060600160405280603b81526020016144c1603b91396006600085815260200190815260200160002060008981526020019081526020016000206000888152602001908152602001600020546127e39092919063ffffffff16565b6006600083815260200190815260200160002060008781526020019081526020016000206000868152602001908152602001600020819055507f92f02b400db4c2c442eac2df8de068b8e835d18b96ba11a431c69c468cd441c38787878787876040516127d296959493929190613c98565b60405180910390a150505050505050565b600083831115829061282b576040517f08c379a00000000000000000000000000000000000000000000000000000000081526004016128229190613eee565b60405180910390fd5b5060008385039050809150509392505050565b600033905090565b60008073ffffffffffffffffffffffffffffffffffffffff168273ffffffffffffffffffffffffffffffffffffffff1614156128b7576040517f08c379a00000000000000000000000000000000000000000000000000000000081526004016128ae906140d0565b60405180910390fd5b8260000160008373ffffffffffffffffffffffffffffffffffffffff1673ffffffffffffffffffffffffffffffffffffffff16815260200190815260200160002060009054906101000a900460ff16905092915050565b612922816000612aef90919063ffffffff16565b8073ffffffffffffffffffffffffffffffffffffffff167fcd265ebaf09df2871cc7bd4133404a235ba12eff2041bb89d9c714a2621c7c7e60405160405180910390a250565b61297c8160006124c790919063ffffffff16565b8073ffffffffffffffffffffffffffffffffffffffff167f6719d08c1888103bea251a4ed56406bd0c3e69723c8a1686e017e7bbe159b6f860405160405180910390a250565b600073ffffffffffffffffffffffffffffffffffffffff168173ffffffffffffffffffffffffffffffffffffffff161415612a32576040517f08c379a0000000000000000000000000000000000000000000000000000000008152600401612a2990613f90565b60405180910390fd5b8073ffffffffffffffffffffffffffffffffffffffff1660018054906101000a900473ffffffffffffffffffffffffffffffffffffffff1673ffffffffffffffffffffffffffffffffffffffff167f8be0079c531659141344cd1fd0a4f28419497f9722a3daafe3b4186f6b6457e060405160405180910390a3806001806101000a81548173ffffffffffffffffffffffffffffffffffffffff021916908373ffffffffffffffffffffffffffffffffffffffff16021790555050565b612af98282612846565b612b38576040517f08c379a0000000000000000000000000000000000000000000000000000000008152600401612b2f90614070565b60405180910390fd5b60008260000160008373ffffffffffffffffffffffffffffffffffffffff1673ffffffffffffffffffffffffffffffffffffffff16815260200190815260200160002060006101000a81548160ff0219169083151502179055505050565b600081359050612ba58161443b565b92915050565b600082601f830112612bbc57600080fd5b8135612bcf612bca8261422d565b614200565b9150818183526020840193506020810190508360005b83811015612c155781358601612bfb8882612c5e565b845260208401935060208301925050600181019050612be5565b5050505092915050565b600081519050612c2e81614452565b92915050565b600081359050612c4381614469565b92915050565b600081519050612c5881614469565b92915050565b600082601f830112612c6f57600080fd5b8135612c82612c7d82614255565b614200565b91508082526020830160208301858383011115612c9e57600080fd5b612ca98382846143e8565b50505092915050565b600081359050612cc181614480565b92915050565b600081519050612cd681614480565b92915050565b600060208284031215612cee57600080fd5b6000612cfc84828501612b96565b91505092915050565b60008060008060808587031215612d1b57600080fd5b6000612d2987828801612b96565b9450506020612d3a87828801612c34565b9350506040612d4b87828801612c34565b925050606085013567ffffffffffffffff811115612d6857600080fd5b612d7487828801612bab565b91505092959194509250565b60008060008060808587031215612d9657600080fd5b6000612da487828801612b96565b9450506020612db587828801612c34565b9350506040612dc687828801612cb2565b9250506060612dd787828801612c34565b91505092959194509250565b600080600080600060a08688031215612dfb57600080fd5b6000612e0988828901612b96565b9550506020612e1a88828901612c34565b9450506040612e2b88828901612cb2565b9350506060612e3c88828901612c34565b925050608086013567ffffffffffffffff811115612e5957600080fd5b612e6588828901612bab565b9150509295509295909350565b600080600080600080600060e0888a031215612e8d57600080fd5b6000612e9b8a828b01612b96565b9750506020612eac8a828b01612c34565b9650506040612ebd8a828b01612cb2565b9550506060612ece8a828b01612c34565b9450506080612edf8a828b01612cb2565b93505060a0612ef08a828b01612c34565b92505060c088013567ffffffffffffffff811115612f0d57600080fd5b612f198a828b01612bab565b91505092959891949750929550565b60008060008060008060c08789031215612f4157600080fd5b6000612f4f89828a01612b96565b9650506020612f6089828a01612cb2565b9550506040612f7189828a01612c34565b9450506060612f8289828a01612cb2565b9350506080612f9389828a01612c34565b92505060a087013567ffffffffffffffff811115612fb057600080fd5b612fbc89828a01612bab565b9150509295509295509295565b600060208284031215612fdb57600080fd5b6000612fe984828501612c1f565b91505092915050565b60006020828403121561300457600080fd5b600061301284828501612c49565b91505092915050565b6000806000806080858703121561303157600080fd5b600061303f87828801612c34565b945050602061305087828801612cb2565b935050604061306187828801612cb2565b925050606061307287828801612c34565b91505092959194509250565b60006020828403121561309057600080fd5b600061309e84828501612cc7565b91505092915050565b600080604083850312156130ba57600080fd5b60006130c885828601612cb2565b92505060206130d985828601612c34565b9150509250929050565b600080604083850312156130f657600080fd5b600061310485828601612cc7565b925050602061311585828601612cc7565b9150509250929050565b60008060006060848603121561313457600080fd5b600061314286828701612cb2565b935050602061315386828701612cb2565b925050604061316486828701612c34565b9150509250925092565b600061317a838361326f565b905092915050565b61318b81614346565b82525050565b61319a816142e7565b82525050565b60006131ab82614291565b6131b581856142b4565b9350836020820285016131c785614281565b8060005b8581101561320357848403895281516131e4858261316e565b94506131ef836142a7565b925060208a019950506001810190506131cb565b50829750879550505050505092915050565b61321e816142f9565b82525050565b61322d81614305565b82525050565b61323c81614358565b82525050565b61324b8161437c565b82525050565b61325a816143a0565b82525050565b613269816143b2565b82525050565b600061327a8261429c565b61328481856142c5565b93506132948185602086016143f7565b61329d8161442a565b840191505092915050565b60006132b38261429c565b6132bd81856142d6565b93506132cd8185602086016143f7565b6132d68161442a565b840191505092915050565b60006132ee6056836142d6565b91507f4f20726573706f6e73c3a176656c2070656c6120636f6e6669726d61c3a7c3a360008301527f6f20646f20696e76657374696d656e746f20646576652073657220646f206d6560208301527f736d6f205242425f494420646f20636f6e747261746f000000000000000000006040830152606082019050919050565b600061337a6014836142d6565b91507f5061757361626c653a206e6f74207061757365640000000000000000000000006000830152602082019050919050565b60006133ba601f836142d6565b91507f526f6c65733a206163636f756e7420616c72656164792068617320726f6c65006000830152602082019050919050565b60006133fa6030836142d6565b91507f506175736572526f6c653a2063616c6c657220646f6573206e6f74206861766560008301527f207468652050617573657220726f6c65000000000000000000000000000000006020830152604082019050919050565b60006134606026836142d6565b91507f4f776e61626c653a206e6577206f776e657220697320746865207a65726f206160008301527f64647265737300000000000000000000000000000000000000000000000000006020830152604082019050919050565b60006134c6601b836142d6565b91507f536166654d6174683a206164646974696f6e206f766572666c6f7700000000006000830152602082019050919050565b60006135066035836142d6565b91507f56616c6f72206120736572207472616e736163696f6e61646f2064657665207360008301527f6572206d61696f7220646f20717565207a65726f2e00000000000000000000006020830152604082019050919050565b600061356c6054836142d6565b91507f536f6d656e746520756d20726573706f6e73c3a176656c2070656c6120636f6e60008301527f6669726d61c3a7c3a36f20646520696e76657374696d656e746f20706f64652060208301527f656e766961722061207472616e7361c3a7c3a36f0000000000000000000000006040830152606082019050919050565b60006135f86010836142d6565b91507f5061757361626c653a20706175736564000000000000000000000000000000006000830152602082019050919050565b60006136386045836142d6565b91507f4f20726573706f6e73c3a176656c2070656c61206c697175696461c3a7c3a36f60008301527f206465766520736572206461206d65736d6f205242425f494420646f20636f6e60208301527f747261746f0000000000000000000000000000000000000000000000000000006040830152606082019050919050565b60006136c4602b836142d6565b91507f56616c6f722061207265736761746172206465766520736572206d61696f722060008301527f646f20717565207a65726f0000000000000000000000000000000000000000006020830152604082019050919050565b600061372a6021836142d6565b91507f526f6c65733a206163636f756e7420646f6573206e6f74206861766520726f6c60008301527f65000000000000000000000000000000000000000000000000000000000000006020830152604082019050919050565b60006137906043836142d6565b91507f536f6d656e746520756d20726573706f6e73c3a176656c2070656c61206c697160008301527f75696469c3a7c3a36f20706f646520656e766961722061207472616e7361c3a760208301527fc3a36f00000000000000000000000000000000000000000000000000000000006040830152606082019050919050565b600061381c6020836142d6565b91507f4f776e61626c653a2063616c6c6572206973206e6f7420746865206f776e65726000830152602082019050919050565b600061385c6022836142d6565b91507f526f6c65733a206163636f756e7420697320746865207a65726f20616464726560008301527f73730000000000000000000000000000000000000000000000000000000000006020830152604082019050919050565b60006138c26029836142d6565b91507f56616c6f722061206d696e746172206465766520736572206d61696f7220646f60008301527f20717565207a65726f00000000000000000000000000000000000000000000006020830152604082019050919050565b60006139286033836142d6565b91507f436f6e7461206465206f726967656d207072656369736120657374617220636f60008301527f6d20636164617374726f2076616c696461646f000000000000000000000000006020830152604082019050919050565b600061398e603f836142d6565b91507f436f6e746120736f6c69636974616e746520646f2072656465656d207072656360008301527f69736120657374617220636f6d20636164617374726f2076616c696461646f006020830152604082019050919050565b60006139f46034836142d6565b91507f436f6e74612064652064657374696e6f2070726563697361206573746172206360008301527f6f6d20636164617374726f2076616c696461646f0000000000000000000000006020830152604082019050919050565b613a568161432f565b82525050565b613a6581614339565b82525050565b6000602082019050613a806000830184613191565b92915050565b6000602082019050613a9b6000830184613182565b92915050565b600060c082019050613ab66000830189613182565b613ac36020830188613a4d565b613ad06040830187613224565b613add6060830186613a4d565b613aea6080830185613224565b81810360a0830152613afc81846131a0565b9050979650505050505050565b600061010082019050613b1f600083018b613182565b613b2c602083018a613a4d565b613b396040830189613224565b613b466060830188613a4d565b613b536080830187613224565b613b6060a0830186613a4d565b613b6d60c0830185613224565b81810360e0830152613b7f81846131a0565b90509998505050505050505050565b600060e082019050613ba3600083018a613191565b613bb06020830189613182565b613bbd6040830188613a4d565b613bca6060830187613224565b613bd76080830186613a4d565b613be460a0830185613224565b81810360c0830152613bf681846131a0565b905098975050505050505050565b600061012082019050613c1a600083018c613191565b613c27602083018b613182565b613c34604083018a613a4d565b613c416060830189613224565b613c4e6080830188613a4d565b613c5b60a0830187613224565b613c6860c0830186613a4d565b613c7560e0830185613224565b818103610100830152613c8881846131a0565b90509a9950505050505050505050565b600060c082019050613cad6000830189613191565b613cba6020830188613191565b613cc76040830187613a4d565b613cd46060830186613224565b613ce16080830185613a4d565b613cee60a0830184613224565b979650505050505050565b6000608082019050613d0e6000830187613191565b613d1b6020830186613224565b613d286040830185613224565b8181036060830152613d3a81846131a0565b905095945050505050565b600060a082019050613d5a6000830188613191565b613d676020830187613224565b613d746040830186613a4d565b613d816060830185613224565b8181036080830152613d9381846131a0565b90509695505050505050565b600060a082019050613db46000830188613191565b613dc16020830187613224565b613dce6040830186613a4d565b613ddb6060830185613a4d565b613de86080830184613224565b9695505050505050565b6000604082019050613e076000830185613191565b613e146020830184613251565b9392505050565b6000604082019050613e306000830185613191565b613e3d6020830184613260565b9392505050565b6000602082019050613e596000830184613215565b92915050565b6000602082019050613e746000830184613224565b92915050565b6000606082019050613e8f6000830186613224565b613e9c6020830185613224565b8181036040830152613eae81846131a0565b9050949350505050565b6000602082019050613ecd6000830184613233565b92915050565b6000602082019050613ee86000830184613242565b92915050565b60006020820190508181036000830152613f0881846132a8565b905092915050565b60006020820190508181036000830152613f29816132e1565b9050919050565b60006020820190508181036000830152613f498161336d565b9050919050565b60006020820190508181036000830152613f69816133ad565b9050919050565b60006020820190508181036000830152613f89816133ed565b9050919050565b60006020820190508181036000830152613fa981613453565b9050919050565b60006020820190508181036000830152613fc9816134b9565b9050919050565b60006020820190508181036000830152613fe9816134f9565b9050919050565b600060208201905081810360008301526140098161355f565b9050919050565b60006020820190508181036000830152614029816135eb565b9050919050565b600060208201905081810360008301526140498161362b565b9050919050565b60006020820190508181036000830152614069816136b7565b9050919050565b600060208201905081810360008301526140898161371d565b9050919050565b600060208201905081810360008301526140a981613783565b9050919050565b600060208201905081810360008301526140c98161380f565b9050919050565b600060208201905081810360008301526140e98161384f565b9050919050565b60006020820190508181036000830152614109816138b5565b9050919050565b600060208201905081810360008301526141298161391b565b9050919050565b6000602082019050818103600083015261414981613981565b9050919050565b60006020820190508181036000830152614169816139e7565b9050919050565b60006020820190506141856000830184613a4d565b92915050565b600060a0820190506141a06000830188613a4d565b6141ad6020830187613224565b6141ba6040830186613a4d565b6141c76060830185613224565b81810360808301526141d981846131a0565b90509695505050505050565b60006020820190506141fa6000830184613a5c565b92915050565b6000604051905081810181811067ffffffffffffffff8211171561422357600080fd5b8060405250919050565b600067ffffffffffffffff82111561424457600080fd5b602082029050602081019050919050565b600067ffffffffffffffff82111561426c57600080fd5b601f19601f8301169050602081019050919050565b6000819050602082019050919050565b600081519050919050565b600081519050919050565b6000602082019050919050565b600082825260208201905092915050565b600082825260208201905092915050565b600082825260208201905092915050565b60006142f28261430f565b9050919050565b60008115159050919050565b6000819050919050565b600073ffffffffffffffffffffffffffffffffffffffff82169050919050565b6000819050919050565b600060ff82169050919050565b6000614351826143c4565b9050919050565b60006143638261436a565b9050919050565b60006143758261430f565b9050919050565b60006143878261438e565b9050919050565b60006143998261430f565b9050919050565b60006143ab82614339565b9050919050565b60006143bd82614339565b9050919050565b60006143cf826143d6565b9050919050565b60006143e18261430f565b9050919050565b82818337600083830152505050565b60005b838110156144155780820151818401526020810190506143fa565b83811115614424576000848401525b50505050565b6000601f19601f8301169050919050565b614444816142e7565b811461444f57600080fd5b50565b61445b816142f9565b811461446657600080fd5b50565b61447281614305565b811461447d57600080fd5b50565b6144898161432f565b811461449457600080fd5b5056fe546f74616c20646520656d697373c3a36f206578636564652076616c6f7220736f6c6963697461646f546f74616c20646520746f6b656e73206120736572656d20717565696d61646f7320c3a9206d61696f7220646f20717565206f2062616c616e636553616c646f206461206f726967656d206ec3a36f20c3a920737566696369656e746520706172612061207472616e73666572c3aa6e636961a26469706673582212208ad638c38f4d6dd147a85a0b628c15e7f1c652ae78fd87ff04f5ac4a6cce63b664736f6c634300060c0033",
  "immutableReferences": {},
  "source": "pragma solidity ^0.6.0;\npragma experimental ABIEncoderV2;\n\nimport \"./RBBRegistry.sol\";\nimport \"./SpecificRBBToken.sol\";\nimport \"./SpecificRBBTokenRegistry.sol\";\nimport \"@openzeppelin/contracts/ownership/Ownable.sol\";\nimport \"@openzeppelin/contracts/lifecycle/Pausable.sol\";\nimport \"@openzeppelin/contracts/math/SafeMath.sol\";\n\n\ncontract RBBToken is Pausable, Ownable {\n\n//TODO: avaliar se deveria ter um set para modificar esses atributos. Ideal seria mudar apenas pela governanca\n    SpecificRBBTokenRegistry public tokenRegistry;\n    RBBRegistry public registry;\n\n\n    using SafeMath for uint;\n\n    uint8 public decimals = 2;\n\n    address public responsibleForInvestmentConfirmation;\n    address public responsibleForSettlement;\n\n\n    //specificTokenId => (RBBid => (specificHash => amount)\n    mapping (uint => mapping (uint => mapping (bytes32 => uint))) public rbbBalances;\n\n    //specificTokenId => (specificHash => amount)\n    mapping (uint => mapping (bytes32 => uint)) public balanceRequestedTokens;\n\n    event RBBTokenMintRequested(address specificTokenAddr, bytes32 specificHash, uint idInvestor, \n            uint amount, bytes32 docHash);\n    event RBBTokenMint(address specificTokenAddr, bytes32 specificHash, uint amount, bytes32 docHash, string[] data);\n    event RBBTokenBurn(address specificTokenAddr, address originalSender, uint fromId, bytes32 fromHash, \n            uint amount, bytes32 docHash);\n    event RBBTokenTransfer (address specificTokenAddr, address originalSender, uint fromId, bytes32 fromHash, uint toId,\n            bytes32 toHash, uint amount, bytes32 docHash, string[] data);\n    event RBBTokenRedemptionRequested (address specificTokenAddr, address originalSender, uint fromId, bytes32 fromHash, \n            uint amount, bytes32 docHash, string[] data);\n    event RBBTokenRedemptionSettlement(address specificTokenAddr, bytes32 redemptionTransactionHash, \n            bytes32 docHash, string[] data);\n\n    event ManualIntervention_RoleOrAddress(address account, uint8 eventType);\n\n\n    constructor (address newRegistryAddr, address newSpecificRBBTokenAddr, uint8 _decimals) public {\n        registry = RBBRegistry(newRegistryAddr);\n        tokenRegistry = SpecificRBBTokenRegistry(newSpecificRBBTokenAddr);\n        decimals = _decimals;\n        responsibleForInvestmentConfirmation = msg.sender;\n        responsibleForSettlement = msg.sender;\n\n    }\n\n///******************************************************************* */\n\n    function requestMint(bytes32 specificInvestimentHash, uint idInvestor, uint amount, bytes32 docHash) \n        public {\n    \n        require (amount>0, \"Valor a ser transacionado deve ser maior do que zero.\");\n        address specificTokenAddr = msg.sender;\n\n        tokenRegistry.verifyTokenIsRegisteredAndActive(specificTokenAddr);\n        \n        uint specificTokenId = tokenRegistry.getSpecificRBBTokenId(specificTokenAddr);\n\n        balanceRequestedTokens[specificTokenId][specificInvestimentHash] = \n            balanceRequestedTokens[specificTokenId][specificInvestimentHash].add(amount);\n    \n        emit RBBTokenMintRequested(specificTokenAddr, specificInvestimentHash, idInvestor, amount, docHash);\n\n    }\n\n    function mint(address specificTokenAddr, uint idInvestor, bytes32 specificHash, uint amount, bytes32 docHash,\n        string[] memory data) public {\n\n        tokenRegistry.verifyTokenIsRegisteredAndActive(specificTokenAddr);\n\n        require (responsibleForInvestmentConfirmation == msg.sender, \n            \"Somente um responsvel pela confirmao de investimento pode enviar a transao\");\n\n        require(amount>0, \"Valor a mintar deve ser maior do que zero\");\n\n        (uint specificTokenId, uint specificTokenOwnerId) = \n                    tokenRegistry.getSpecificRBBTokenIdAndOwnerId(specificTokenAddr);\n\n        balanceRequestedTokens[specificTokenId][specificHash] \n            = balanceRequestedTokens[specificTokenId][specificHash].sub(amount, \"Total de emisso excede valor solicitado\");\n\n        SpecificRBBToken specificToken = SpecificRBBToken(specificTokenAddr);\n\n        //Retorna a conta de mint associada ao hash especifico. \n        bytes32 calcHash = specificToken.getHashToMintedAccount(specificHash);\n\n        rbbBalances[specificTokenId][specificTokenOwnerId][calcHash] = \n            rbbBalances[specificTokenId][specificTokenOwnerId][calcHash].add(amount);\n\n        specificToken.verifyAndActForMint(idInvestor, specificHash, amount, docHash, data);\n\n        emit RBBTokenMint(specificTokenAddr, specificHash, amount, docHash, data);\n    }\n\n\n    function burnOwnTokenBySpecificTokens (address originalSender, bytes32 hashToBurn, uint amount, \n        bytes32 docHash) public {\n\n        address specificTokenAddr = msg.sender;\n        tokenRegistry.verifyTokenIsRegisteredAndActive(specificTokenAddr);\n\n        uint specificTokenOwnerId = tokenRegistry.getSpecificOwnerId(specificTokenAddr);\n        \n        _burn(specificTokenAddr, originalSender, specificTokenOwnerId, hashToBurn, amount, docHash);\n\n    }\n\n\n    function burnOwnToken (address specificTokenAddr, bytes32 hashToBurn, uint amount, bytes32 docHash) \n        public {\n\n        tokenRegistry.verifyTokenIsRegisteredAndActive(specificTokenAddr);\n\n        uint idToBurn = registry.getId(msg.sender);\n\n        _burn(specificTokenAddr, msg.sender, idToBurn, hashToBurn, amount, docHash);\n\n    }\n\n    function _burn(address specificTokenAddr, address originalSender, uint fromId, bytes32 fromHash, \n        uint amount, bytes32 docHash) internal {\n        \n        tokenRegistry.verifyTokenIsRegisteredAndActive(specificTokenAddr);\n//        require(amount>0, \"Valor a queimar deve ser maior do que zero\");\n\n        uint specificTokenId = tokenRegistry.getSpecificRBBTokenId(specificTokenAddr);\n\n        rbbBalances[specificTokenId][fromId][fromHash] = \n            rbbBalances[specificTokenId][fromId][fromHash].sub(amount, \"Total de tokens a serem queimados  maior do que o balance\");\n\n        emit RBBTokenBurn(specificTokenAddr, originalSender, fromId, fromHash, amount, docHash);\n    }\n\n///******************************************************************* */\n\n\n    function transfer (address specificTokenAddr, bytes32 fromHash, uint toId, bytes32 toHash, \n            uint amount, bytes32 docHash, string[] memory data) public whenNotPaused {\n\n        uint fromId = registry.getId(msg.sender);\n\n        tokenRegistry.verifyTokenIsRegisteredAndActive(specificTokenAddr);\n\n        require(registry.isRegistryOperational(fromId), \"Conta de origem precisa estar com cadastro validado\");\n        require(registry.isRegistryOperational(toId), \"Conta de destino precisa estar com cadastro validado\");\n        uint specificTokenId = tokenRegistry.getSpecificRBBTokenId(specificTokenAddr);\n\n        SpecificRBBToken specificToken = SpecificRBBToken(specificTokenAddr);\n        specificToken.verifyAndActForTransfer(msg.sender, fromId, fromHash, toId, toHash, amount, docHash, data);\n\n        //altera valores de saldo\n        rbbBalances[specificTokenId][fromId][fromHash] =\n                rbbBalances[specificTokenId][fromId][fromHash].sub(amount, \"Saldo da origem no  suficiente para a transferncia\");\n        rbbBalances[specificTokenId][toId][toHash] = rbbBalances[specificTokenId][toId][toHash].add(amount);\n\n        emit RBBTokenTransfer (specificTokenAddr, msg.sender, fromId, fromHash, toId, toHash, amount, docHash, data);\n\n    }\n\n    function redeem (address specificTokenAddr, bytes32 fromHash, uint amount, \n        bytes32 docHash, string[] memory data) public whenNotPaused  {\n\n            uint fromId = registry.getId(msg.sender);\n\n            tokenRegistry.verifyTokenIsRegisteredAndActive(specificTokenAddr);\n\n            require(registry.isRegistryOperational(fromId), \"Conta solicitante do redeem precisa estar com cadastro validado\");\n            require(amount>0, \"Valor a resgatar deve ser maior do que zero\");\n    \n            SpecificRBBToken specificToken = SpecificRBBToken(specificTokenAddr);\n            specificToken.verifyAndActForRedeem(msg.sender, fromId, fromHash, amount, docHash, data);\n\n            emit RBBTokenRedemptionRequested(specificTokenAddr, msg.sender, fromId, fromHash, amount, docHash, data);\n            _burn(specificTokenAddr, msg.sender, fromId, fromHash, amount, docHash);\n    }\n\n   /**\n    * Using this function, the Responsible for Settlement indicates that he has made the FIAT money transfer.\n    * @ param redemptionTransactionHash hash of the redeem transaction in which the FIAT money settlement occurred.\n    * @ param receiptHash hash that proof the FIAT money transfer\n    */ \n    function notifyRedemptionSettlement(address specificTokenAddr, bytes32 redemptionTransactionHash, \n        bytes32 docHash, string[] memory data) public whenNotPaused {\n\n        tokenRegistry.verifyTokenIsRegisteredAndActive(specificTokenAddr);\n\n        require (responsibleForSettlement == msg.sender, \n            \"Somente um responsvel pela liquidio pode enviar a transao\");\n\n        SpecificRBBToken specificToken = SpecificRBBToken(specificTokenAddr);\n        specificToken.verifyAndActForRedemptionSettlement(redemptionTransactionHash, docHash, data);\n\n        emit RBBTokenRedemptionSettlement(specificTokenAddr, redemptionTransactionHash, docHash, data);\n    }\n    \n\n///******************************************************************* */\n\n    function getDecimals() public view returns (uint8) {\n        return decimals;\n    }\n\n    function getBndesId() view public returns (uint) {\n        uint bndesId = registry.getId(owner());\n        return bndesId;\n    }\n\n    function setResponsibleForInvestmentConfirmation(address rs) onlyOwner public {\n        uint id = registry.getId(rs);\n        require(id==registry.getId(owner()), \"O responsvel pela confirmao do investimento deve ser do mesmo RBB_ID do contrato\");\n        responsibleForInvestmentConfirmation = rs;\n        emit ManualIntervention_RoleOrAddress(rs, 1);\n    }\n\n    function setResponsibleForSettlement(address rs) onlyOwner public {\n        uint id = registry.getId(rs);\n        require(id==registry.getId(owner()), \"O responsvel pela liquidao deve ser da mesmo RBB_ID do contrato\");\n        responsibleForSettlement = rs;\n        emit ManualIntervention_RoleOrAddress(rs, 2);\n    }\n\n\n}",
  "sourcePath": "/Users/suzana.moreno/workspace/rbb-token/Back-Blockchain/contracts/RBBToken.sol",
  "compiler": {
    "name": "solc",
    "version": "0.6.12+commit.27d51765.Emscripten.clang"
  },
  "schemaVersion": "3.2.5",
  "updatedAt": "2020-10-02T20:24:33.868Z",
  "networkType": "ethereum",
  "devdoc": {
    "kind": "dev",
    "methods": {
      "isOwner()": {
        "details": "Returns true if the caller is the current owner."
      },
      "owner()": {
        "details": "Returns the address of the current owner."
      },
      "pause()": {
        "details": "Called by a pauser to pause, triggers stopped state."
      },
      "paused()": {
        "details": "Returns true if the contract is paused, and false otherwise."
      },
      "renounceOwnership()": {
        "details": "Leaves the contract without owner. It will not be possible to call `onlyOwner` functions anymore. Can only be called by the current owner. NOTE: Renouncing ownership will leave the contract without an owner, thereby removing any functionality that is only available to the owner."
      },
      "transferOwnership(address)": {
        "details": "Transfers ownership of the contract to a new account (`newOwner`). Can only be called by the current owner."
      },
      "unpause()": {
        "details": "Called by a pauser to unpause, returns to normal state."
      }
    },
    "version": 1
  },
  "userdoc": {
    "kind": "user",
    "methods": {
      "getDecimals()": {
        "notice": "******************************************************************* */"
      },
      "notifyRedemptionSettlement(address,bytes32,bytes32,string[])": {
        "notice": "Using this function, the Responsible for Settlement indicates that he has made the FIAT money transfer. param redemptionTransactionHash hash of the redeem transaction in which the FIAT money settlement occurred. param receiptHash hash that proof the FIAT money transfer"
      },
      "requestMint(bytes32,uint256,uint256,bytes32)": {
        "notice": "******************************************************************* */"
      },
      "transfer(address,bytes32,uint256,bytes32,uint256,bytes32,string[])": {
        "notice": "******************************************************************* */"
      }
    },
    "version": 1
  }
}