{
  "contractName": "RBBToken",
  "abi": [
    {
      "inputs": [
        {
          "internalType": "address",
          "name": "newRegistryAddr",
          "type": "address"
        },
        {
          "internalType": "uint8",
          "name": "_decimals",
          "type": "uint8"
        }
      ],
      "payable": false,
      "stateMutability": "nonpayable",
      "type": "constructor"
    },
    {
      "anonymous": false,
      "inputs": [
        {
          "indexed": false,
          "internalType": "uint256",
          "name": "id",
          "type": "uint256"
        },
        {
          "indexed": false,
          "internalType": "uint256",
          "name": "ownerId",
          "type": "uint256"
        },
        {
          "indexed": false,
          "internalType": "address",
          "name": "addr",
          "type": "address"
        }
      ],
      "name": "BusinessContractRegistration",
      "type": "event"
    },
    {
      "anonymous": false,
      "inputs": [
        {
          "indexed": false,
          "internalType": "uint256",
          "name": "id",
          "type": "uint256"
        },
        {
          "indexed": false,
          "internalType": "bool",
          "name": "state",
          "type": "bool"
        }
      ],
      "name": "BusinessContractStateChange",
      "type": "event"
    },
    {
      "anonymous": false,
      "inputs": [
        {
          "indexed": true,
          "internalType": "address",
          "name": "previousOwner",
          "type": "address"
        },
        {
          "indexed": true,
          "internalType": "address",
          "name": "newOwner",
          "type": "address"
        }
      ],
      "name": "OwnershipTransferred",
      "type": "event"
    },
    {
      "anonymous": false,
      "inputs": [
        {
          "indexed": false,
          "internalType": "address",
          "name": "account",
          "type": "address"
        }
      ],
      "name": "Paused",
      "type": "event"
    },
    {
      "anonymous": false,
      "inputs": [
        {
          "indexed": true,
          "internalType": "address",
          "name": "account",
          "type": "address"
        }
      ],
      "name": "PauserAdded",
      "type": "event"
    },
    {
      "anonymous": false,
      "inputs": [
        {
          "indexed": true,
          "internalType": "address",
          "name": "account",
          "type": "address"
        }
      ],
      "name": "PauserRemoved",
      "type": "event"
    },
    {
      "anonymous": false,
      "inputs": [
        {
          "indexed": false,
          "internalType": "address",
          "name": "businessContractAddr",
          "type": "address"
        },
        {
          "indexed": false,
          "internalType": "uint256",
          "name": "fromId",
          "type": "uint256"
        },
        {
          "indexed": false,
          "internalType": "bytes32",
          "name": "fromHash",
          "type": "bytes32"
        },
        {
          "indexed": false,
          "internalType": "uint256",
          "name": "amount",
          "type": "uint256"
        }
      ],
      "name": "RBBTokenBurn",
      "type": "event"
    },
    {
      "anonymous": false,
      "inputs": [
        {
          "indexed": false,
          "internalType": "address",
          "name": "businessContractAddr",
          "type": "address"
        },
        {
          "indexed": false,
          "internalType": "bytes32",
          "name": "specificHash",
          "type": "bytes32"
        },
        {
          "indexed": false,
          "internalType": "uint256",
          "name": "amount",
          "type": "uint256"
        },
        {
          "indexed": false,
          "internalType": "string",
          "name": "docHash",
          "type": "string"
        },
        {
          "indexed": false,
          "internalType": "string[]",
          "name": "data",
          "type": "string[]"
        }
      ],
      "name": "RBBTokenMint",
      "type": "event"
    },
    {
      "anonymous": false,
      "inputs": [
        {
          "indexed": false,
          "internalType": "address",
          "name": "businessContractAddr",
          "type": "address"
        },
        {
          "indexed": false,
          "internalType": "bytes32",
          "name": "specificHash",
          "type": "bytes32"
        },
        {
          "indexed": false,
          "internalType": "uint256",
          "name": "amount",
          "type": "uint256"
        }
      ],
      "name": "RBBTokenMintRequest",
      "type": "event"
    },
    {
      "anonymous": false,
      "inputs": [
        {
          "indexed": false,
          "internalType": "address",
          "name": "businessContractAddr",
          "type": "address"
        },
        {
          "indexed": false,
          "internalType": "uint256",
          "name": "fromId",
          "type": "uint256"
        },
        {
          "indexed": false,
          "internalType": "bytes32",
          "name": "fromHash",
          "type": "bytes32"
        },
        {
          "indexed": false,
          "internalType": "uint256",
          "name": "amount",
          "type": "uint256"
        },
        {
          "indexed": false,
          "internalType": "string[]",
          "name": "data",
          "type": "string[]"
        }
      ],
      "name": "RBBTokenRedemptionRequested",
      "type": "event"
    },
    {
      "anonymous": false,
      "inputs": [
        {
          "indexed": false,
          "internalType": "address",
          "name": "businessContractAddr",
          "type": "address"
        },
        {
          "indexed": false,
          "internalType": "string",
          "name": "redemptionTransactionHash",
          "type": "string"
        },
        {
          "indexed": false,
          "internalType": "string",
          "name": "receiptHash",
          "type": "string"
        },
        {
          "indexed": false,
          "internalType": "string[]",
          "name": "data",
          "type": "string[]"
        }
      ],
      "name": "RBBTokenRedemptionSettlement",
      "type": "event"
    },
    {
      "anonymous": false,
      "inputs": [
        {
          "indexed": false,
          "internalType": "address",
          "name": "businessContractAddr",
          "type": "address"
        },
        {
          "indexed": false,
          "internalType": "uint256",
          "name": "fromId",
          "type": "uint256"
        },
        {
          "indexed": false,
          "internalType": "bytes32",
          "name": "fromHash",
          "type": "bytes32"
        },
        {
          "indexed": false,
          "internalType": "uint256",
          "name": "toId",
          "type": "uint256"
        },
        {
          "indexed": false,
          "internalType": "bytes32",
          "name": "toHash",
          "type": "bytes32"
        },
        {
          "indexed": false,
          "internalType": "uint256",
          "name": "amount",
          "type": "uint256"
        },
        {
          "indexed": false,
          "internalType": "string[]",
          "name": "data",
          "type": "string[]"
        }
      ],
      "name": "RBBTokenTransfer",
      "type": "event"
    },
    {
      "anonymous": false,
      "inputs": [
        {
          "indexed": false,
          "internalType": "address",
          "name": "account",
          "type": "address"
        }
      ],
      "name": "Unpaused",
      "type": "event"
    },
    {
      "constant": true,
      "inputs": [],
      "name": "RESERVED_HASH_VALUE",
      "outputs": [
        {
          "internalType": "bytes32",
          "name": "",
          "type": "bytes32"
        }
      ],
      "payable": false,
      "stateMutability": "view",
      "type": "function"
    },
    {
      "constant": false,
      "inputs": [
        {
          "internalType": "address",
          "name": "account",
          "type": "address"
        }
      ],
      "name": "addPauser",
      "outputs": [],
      "payable": false,
      "stateMutability": "nonpayable",
      "type": "function"
    },
    {
      "constant": true,
      "inputs": [
        {
          "internalType": "uint256",
          "name": "",
          "type": "uint256"
        },
        {
          "internalType": "bytes32",
          "name": "",
          "type": "bytes32"
        }
      ],
      "name": "balaceRequestedTokens",
      "outputs": [
        {
          "internalType": "uint256",
          "name": "",
          "type": "uint256"
        }
      ],
      "payable": false,
      "stateMutability": "view",
      "type": "function"
    },
    {
      "constant": true,
      "inputs": [
        {
          "internalType": "address",
          "name": "",
          "type": "address"
        }
      ],
      "name": "businessContractsRegistry",
      "outputs": [
        {
          "internalType": "uint256",
          "name": "id",
          "type": "uint256"
        },
        {
          "internalType": "uint256",
          "name": "ownerId",
          "type": "uint256"
        },
        {
          "internalType": "bool",
          "name": "isActive",
          "type": "bool"
        }
      ],
      "payable": false,
      "stateMutability": "view",
      "type": "function"
    },
    {
      "constant": true,
      "inputs": [
        {
          "internalType": "address",
          "name": "addr",
          "type": "address"
        }
      ],
      "name": "containsBusinessContract",
      "outputs": [
        {
          "internalType": "bool",
          "name": "",
          "type": "bool"
        }
      ],
      "payable": false,
      "stateMutability": "view",
      "type": "function"
    },
    {
      "constant": true,
      "inputs": [],
      "name": "decimals",
      "outputs": [
        {
          "internalType": "uint8",
          "name": "",
          "type": "uint8"
        }
      ],
      "payable": false,
      "stateMutability": "view",
      "type": "function"
    },
    {
      "constant": true,
      "inputs": [
        {
          "internalType": "address",
          "name": "addr",
          "type": "address"
        }
      ],
      "name": "getBusinessContractId",
      "outputs": [
        {
          "internalType": "uint256",
          "name": "",
          "type": "uint256"
        }
      ],
      "payable": false,
      "stateMutability": "view",
      "type": "function"
    },
    {
      "constant": true,
      "inputs": [
        {
          "internalType": "address",
          "name": "addr",
          "type": "address"
        }
      ],
      "name": "getBusinessContractIdAndOwnerId",
      "outputs": [
        {
          "internalType": "uint256",
          "name": "",
          "type": "uint256"
        },
        {
          "internalType": "uint256",
          "name": "",
          "type": "uint256"
        }
      ],
      "payable": false,
      "stateMutability": "view",
      "type": "function"
    },
    {
      "constant": true,
      "inputs": [],
      "name": "idCount",
      "outputs": [
        {
          "internalType": "uint256",
          "name": "",
          "type": "uint256"
        }
      ],
      "payable": false,
      "stateMutability": "view",
      "type": "function"
    },
    {
      "constant": true,
      "inputs": [
        {
          "internalType": "address",
          "name": "addr",
          "type": "address"
        }
      ],
      "name": "isBusinessContractActive",
      "outputs": [
        {
          "internalType": "bool",
          "name": "",
          "type": "bool"
        }
      ],
      "payable": false,
      "stateMutability": "view",
      "type": "function"
    },
    {
      "constant": true,
      "inputs": [],
      "name": "isOwner",
      "outputs": [
        {
          "internalType": "bool",
          "name": "",
          "type": "bool"
        }
      ],
      "payable": false,
      "stateMutability": "view",
      "type": "function"
    },
    {
      "constant": true,
      "inputs": [
        {
          "internalType": "address",
          "name": "account",
          "type": "address"
        }
      ],
      "name": "isPauser",
      "outputs": [
        {
          "internalType": "bool",
          "name": "",
          "type": "bool"
        }
      ],
      "payable": false,
      "stateMutability": "view",
      "type": "function"
    },
    {
      "constant": true,
      "inputs": [],
      "name": "owner",
      "outputs": [
        {
          "internalType": "address",
          "name": "",
          "type": "address"
        }
      ],
      "payable": false,
      "stateMutability": "view",
      "type": "function"
    },
    {
      "constant": false,
      "inputs": [],
      "name": "pause",
      "outputs": [],
      "payable": false,
      "stateMutability": "nonpayable",
      "type": "function"
    },
    {
      "constant": true,
      "inputs": [],
      "name": "paused",
      "outputs": [
        {
          "internalType": "bool",
          "name": "",
          "type": "bool"
        }
      ],
      "payable": false,
      "stateMutability": "view",
      "type": "function"
    },
    {
      "constant": true,
      "inputs": [
        {
          "internalType": "uint256",
          "name": "",
          "type": "uint256"
        },
        {
          "internalType": "uint256",
          "name": "",
          "type": "uint256"
        },
        {
          "internalType": "bytes32",
          "name": "",
          "type": "bytes32"
        }
      ],
      "name": "rbbBalances",
      "outputs": [
        {
          "internalType": "uint256",
          "name": "",
          "type": "uint256"
        }
      ],
      "payable": false,
      "stateMutability": "view",
      "type": "function"
    },
    {
      "constant": false,
      "inputs": [
        {
          "internalType": "address",
          "name": "businessContractAddr",
          "type": "address"
        },
        {
          "internalType": "uint256",
          "name": "ownerId",
          "type": "uint256"
        }
      ],
      "name": "registerBusinessContract",
      "outputs": [
        {
          "internalType": "uint256",
          "name": "",
          "type": "uint256"
        }
      ],
      "payable": false,
      "stateMutability": "nonpayable",
      "type": "function"
    },
    {
      "constant": true,
      "inputs": [],
      "name": "registry",
      "outputs": [
        {
          "internalType": "contract RBBRegistry",
          "name": "",
          "type": "address"
        }
      ],
      "payable": false,
      "stateMutability": "view",
      "type": "function"
    },
    {
      "constant": false,
      "inputs": [],
      "name": "renounceOwnership",
      "outputs": [],
      "payable": false,
      "stateMutability": "nonpayable",
      "type": "function"
    },
    {
      "constant": false,
      "inputs": [],
      "name": "renouncePauser",
      "outputs": [],
      "payable": false,
      "stateMutability": "nonpayable",
      "type": "function"
    },
    {
      "constant": false,
      "inputs": [
        {
          "internalType": "address",
          "name": "addr",
          "type": "address"
        },
        {
          "internalType": "bool",
          "name": "status",
          "type": "bool"
        }
      ],
      "name": "setStatus",
      "outputs": [
        {
          "internalType": "bool",
          "name": "",
          "type": "bool"
        }
      ],
      "payable": false,
      "stateMutability": "nonpayable",
      "type": "function"
    },
    {
      "constant": false,
      "inputs": [
        {
          "internalType": "address",
          "name": "newOwner",
          "type": "address"
        }
      ],
      "name": "transferOwnership",
      "outputs": [],
      "payable": false,
      "stateMutability": "nonpayable",
      "type": "function"
    },
    {
      "constant": false,
      "inputs": [],
      "name": "unpause",
      "outputs": [],
      "payable": false,
      "stateMutability": "nonpayable",
      "type": "function"
    },
    {
      "constant": false,
      "inputs": [
        {
          "internalType": "bytes32",
          "name": "specificHash",
          "type": "bytes32"
        },
        {
          "internalType": "uint256",
          "name": "amount",
          "type": "uint256"
        }
      ],
      "name": "requestMint",
      "outputs": [],
      "payable": false,
      "stateMutability": "nonpayable",
      "type": "function"
    },
    {
      "constant": false,
      "inputs": [
        {
          "internalType": "address",
          "name": "businessContractAddr",
          "type": "address"
        },
        {
          "internalType": "bytes32",
          "name": "specificHash",
          "type": "bytes32"
        },
        {
          "internalType": "uint256",
          "name": "amount",
          "type": "uint256"
        },
        {
          "internalType": "string",
          "name": "docHash",
          "type": "string"
        },
        {
          "internalType": "string[]",
          "name": "data",
          "type": "string[]"
        }
      ],
      "name": "mint",
      "outputs": [],
      "payable": false,
      "stateMutability": "nonpayable",
      "type": "function"
    },
    {
      "constant": false,
      "inputs": [
        {
          "internalType": "address",
          "name": "businessContractAddr",
          "type": "address"
        },
        {
          "internalType": "uint256",
          "name": "amount",
          "type": "uint256"
        }
      ],
      "name": "burn",
      "outputs": [],
      "payable": false,
      "stateMutability": "nonpayable",
      "type": "function"
    },
    {
      "constant": false,
      "inputs": [
        {
          "internalType": "address",
          "name": "businessContractAddr",
          "type": "address"
        },
        {
          "internalType": "bytes32",
          "name": "fromHash",
          "type": "bytes32"
        },
        {
          "internalType": "uint256",
          "name": "toId",
          "type": "uint256"
        },
        {
          "internalType": "bytes32",
          "name": "toHash",
          "type": "bytes32"
        },
        {
          "internalType": "uint256",
          "name": "amount",
          "type": "uint256"
        },
        {
          "internalType": "string[]",
          "name": "data",
          "type": "string[]"
        }
      ],
      "name": "transfer",
      "outputs": [],
      "payable": false,
      "stateMutability": "nonpayable",
      "type": "function"
    },
    {
      "constant": false,
      "inputs": [
        {
          "internalType": "address",
          "name": "businessContractAddr",
          "type": "address"
        },
        {
          "internalType": "uint256",
          "name": "toId",
          "type": "uint256"
        },
        {
          "internalType": "bytes32",
          "name": "toHash",
          "type": "bytes32"
        },
        {
          "internalType": "uint256",
          "name": "amount",
          "type": "uint256"
        },
        {
          "internalType": "string[]",
          "name": "data",
          "type": "string[]"
        }
      ],
      "name": "allocate",
      "outputs": [],
      "payable": false,
      "stateMutability": "nonpayable",
      "type": "function"
    },
    {
      "constant": false,
      "inputs": [
        {
          "internalType": "address",
          "name": "businessContractAddr",
          "type": "address"
        },
        {
          "internalType": "uint256",
          "name": "fromId",
          "type": "uint256"
        },
        {
          "internalType": "bytes32",
          "name": "fromHash",
          "type": "bytes32"
        },
        {
          "internalType": "uint256",
          "name": "amount",
          "type": "uint256"
        },
        {
          "internalType": "string[]",
          "name": "data",
          "type": "string[]"
        }
      ],
      "name": "redeem",
      "outputs": [],
      "payable": false,
      "stateMutability": "nonpayable",
      "type": "function"
    },
    {
      "constant": false,
      "inputs": [
        {
          "internalType": "address",
          "name": "businessContractAddr",
          "type": "address"
        },
        {
          "internalType": "string",
          "name": "redemptionTransactionHash",
          "type": "string"
        },
        {
          "internalType": "string",
          "name": "receiptHash",
          "type": "string"
        },
        {
          "internalType": "string[]",
          "name": "data",
          "type": "string[]"
        }
      ],
      "name": "notifyRedemptionSettlement",
      "outputs": [],
      "payable": false,
      "stateMutability": "nonpayable",
      "type": "function"
    },
    {
      "constant": true,
      "inputs": [
        {
          "internalType": "address",
          "name": "businessContractAddr",
          "type": "address"
        }
      ],
      "name": "getReservedBalanceByBusinessContract",
      "outputs": [
        {
          "internalType": "uint256",
          "name": "",
          "type": "uint256"
        }
      ],
      "payable": false,
      "stateMutability": "view",
      "type": "function"
    },
    {
      "constant": true,
      "inputs": [],
      "name": "getDecimals",
      "outputs": [
        {
          "internalType": "uint8",
          "name": "",
          "type": "uint8"
        }
      ],
      "payable": false,
      "stateMutability": "view",
      "type": "function"
    }
  ],
  "bytecode": "0x608060405260016003556002600560006101000a81548160ff021916908360ff1602179055506000801b6006553480156200003957600080fd5b5060405162004ad738038062004ad783398181016040526200005f9190810190620003c3565b6200007f62000073620001ae60201b60201c565b620001b660201b60201c565b6000600160006101000a81548160ff0219169083151502179055506000620000ac620001ae60201b60201c565b9050806001806101000a81548173ffffffffffffffffffffffffffffffffffffffff021916908373ffffffffffffffffffffffffffffffffffffffff1602179055508073ffffffffffffffffffffffffffffffffffffffff16600073ffffffffffffffffffffffffffffffffffffffff167f8be0079c531659141344cd1fd0a4f28419497f9722a3daafe3b4186f6b6457e060405160405180910390a35081600260006101000a81548173ffffffffffffffffffffffffffffffffffffffff021916908373ffffffffffffffffffffffffffffffffffffffff16021790555080600560006101000a81548160ff021916908360ff160217905550505062000578565b600033905090565b620001d18160006200021760201b620029911790919060201c565b8073ffffffffffffffffffffffffffffffffffffffff167f6719d08c1888103bea251a4ed56406bd0c3e69723c8a1686e017e7bbe159b6f860405160405180910390a250565b620002298282620002ca60201b60201c565b156200026c576040517f08c379a00000000000000000000000000000000000000000000000000000000081526004016200026390620004ae565b60405180910390fd5b60018260000160008373ffffffffffffffffffffffffffffffffffffffff1673ffffffffffffffffffffffffffffffffffffffff16815260200190815260200160002060006101000a81548160ff0219169083151502179055505050565b60008073ffffffffffffffffffffffffffffffffffffffff168273ffffffffffffffffffffffffffffffffffffffff1614156200033e576040517f08c379a00000000000000000000000000000000000000000000000000000000081526004016200033590620004d0565b60405180910390fd5b8260000160008373ffffffffffffffffffffffffffffffffffffffff1673ffffffffffffffffffffffffffffffffffffffff16815260200190815260200160002060009054906101000a900460ff16905092915050565b600081519050620003a68162000544565b92915050565b600081519050620003bd816200055e565b92915050565b60008060408385031215620003d757600080fd5b6000620003e78582860162000395565b9250506020620003fa85828601620003ac565b9150509250929050565b600062000413601f83620004f2565b91507f526f6c65733a206163636f756e7420616c72656164792068617320726f6c65006000830152602082019050919050565b600062000455602283620004f2565b91507f526f6c65733a206163636f756e7420697320746865207a65726f20616464726560008301527f73730000000000000000000000000000000000000000000000000000000000006020830152604082019050919050565b60006020820190508181036000830152620004c98162000404565b9050919050565b60006020820190508181036000830152620004eb8162000446565b9050919050565b600082825260208201905092915050565b6000620005108262000517565b9050919050565b600073ffffffffffffffffffffffffffffffffffffffff82169050919050565b600060ff82169050919050565b6200054f8162000503565b81146200055b57600080fd5b50565b620005698162000537565b81146200057557600080fd5b50565b61454f80620005886000396000f3fe608060405234801561001057600080fd5b50600436106101f05760003560e01c80638f32d59b1161010f578063c5b2f6a9116100a2578063e0ef4a6a11610071578063e0ef4a6a146105a8578063e6e46238146105c4578063f0141d84146105e2578063f2fde38b14610600576101f0565b8063c5b2f6a9146104e6578063cf13a0b514610518578063d508636d14610548578063e0a08b7314610578576101f0565b80639ca0daed116100de5780639ca0daed146104605780639dc29fac1461047e578063b304f21c1461049a578063b987afcb146104ca576101f0565b80638f32d59b146103ee578063963a62cb1461040c57806396b7bb1c146104285780639752cbe614610444576101f0565b8063715018a61161018757806388431f7a1161015657806388431f7a146103535780638b214c00146103835780638da5cb5b146103b45780638f18ccdc146103d2576101f0565b8063715018a6146103055780637b1039991461030f57806382dc1ec41461032d5780638456cb5914610349576101f0565b806346fbf68e116101c357806346fbf68e1461027d57806353d5f7cf146102ad5780635c975abb146102dd5780636ef8d66d146102fb576101f0565b80631b072118146101f557806330b4998314610225578063313ce567146102555780633f4ba83a14610273575b600080fd5b61020f600480360361020a9190810190612bf6565b61061c565b60405161021c919061402f565b60405180910390f35b61023f600480360361023a9190810190612fe3565b61066f565b60405161024c919061402f565b60405180910390f35b61025d6106a1565b60405161026a91906141be565b60405180910390f35b61027b6106b4565b005b61029760048036036102929190810190612bf6565b6107ad565b6040516102a49190613c3b565b60405180910390f35b6102c760048036036102c29190810190612bf6565b6107ca565b6040516102d49190613c3b565b60405180910390f35b6102e56108a4565b6040516102f29190613c3b565b60405180910390f35b6103036108bb565b005b61030d6108cd565b005b6103176109d3565b6040516103249190613cc4565b60405180910390f35b61034760048036036103429190810190612bf6565b6109f9565b005b610351610a54565b005b61036d60048036036103689190810190612bf6565b610b4d565b60405161037a9190613c3b565b60405180910390f35b61039d60048036036103989190810190612bf6565b610bf3565b6040516103ab929190614127565b60405180910390f35b6103bc610cd5565b6040516103c991906139d5565b60405180910390f35b6103ec60048036036103e79190810190612c5b565b610cfe565b005b6103f6611252565b6040516104039190613c3b565b60405180910390f35b61042660048036036104219190810190612e8a565b6112b0565b005b610442600480360361043d9190810190612e8a565b61141b565b005b61045e60048036036104599190810190612f42565b6116ae565b005b6104686118c7565b6040516104759190613c56565b60405180910390f35b61049860048036036104939190810190612e4e565b6118cd565b005b6104b460048036036104af9190810190612c1f565b611938565b6040516104c19190613c3b565b60405180910390f35b6104e460048036036104df9190810190612da3565b611a7d565b005b61050060048036036104fb9190810190612bf6565b611d22565b60405161050f93929190614187565b60405180910390f35b610532600480360361052d9190810190612fa7565b611d59565b60405161053f919061402f565b60405180910390f35b610562600480360361055d9190810190612e4e565b611d7e565b60405161056f919061402f565b60405180910390f35b610592600480360361058d9190810190612bf6565b611f90565b60405161059f919061402f565b60405180910390f35b6105c260048036036105bd9190810190612cfc565b61206a565b005b6105cc6123d4565b6040516105d9919061402f565b60405180910390f35b6105ea6123da565b6040516105f791906141be565b60405180910390f35b61061a60048036036106159190810190612bf6565b6123f1565b005b600080600061062a84610bf3565b91509150600760008381526020019081526020016000206000828152602001908152602001600020600060065481526020019081526020016000205492505050919050565b600760205282600052604060002060205281600052604060002060205280600052604060002060009250925050505481565b600560009054906101000a900460ff1681565b6106c46106bf612444565b6107ad565b610703576040517f08c379a00000000000000000000000000000000000000000000000000000000081526004016106fa90613dcf565b60405180910390fd5b600160009054906101000a900460ff16610752576040517f08c379a000000000000000000000000000000000000000000000000000000000815260040161074990613d6f565b60405180910390fd5b6000600160006101000a81548160ff0219169083151502179055507f5db9ee0a495bf2e6ff9c91a7834c1ba4fdd244a5e8aa4e537bd38aeae4b073aa610796612444565b6040516107a391906139f0565b60405180910390a1565b60006107c382600061244c90919063ffffffff16565b9050919050565b60006107d582610b4d565b610814576040517f08c379a000000000000000000000000000000000000000000000000000000000815260040161080b90613e6f565b60405180910390fd5b61081c612a39565b600460008473ffffffffffffffffffffffffffffffffffffffff1673ffffffffffffffffffffffffffffffffffffffff16815260200190815260200160002060405180606001604052908160008201548152602001600182015481526020016002820160009054906101000a900460ff16151515158152505090508060400151915050919050565b6000600160009054906101000a900460ff16905090565b6108cb6108c6612444565b612514565b565b6108d5611252565b610914576040517f08c379a000000000000000000000000000000000000000000000000000000000815260040161090b90613f0f565b60405180910390fd5b600073ffffffffffffffffffffffffffffffffffffffff166001809054906101000a900473ffffffffffffffffffffffffffffffffffffffff1673ffffffffffffffffffffffffffffffffffffffff167f8be0079c531659141344cd1fd0a4f28419497f9722a3daafe3b4186f6b6457e060405160405180910390a360006001806101000a81548173ffffffffffffffffffffffffffffffffffffffff021916908373ffffffffffffffffffffffffffffffffffffffff160217905550565b600260009054906101000a900473ffffffffffffffffffffffffffffffffffffffff1681565b610a09610a04612444565b6107ad565b610a48576040517f08c379a0000000000000000000000000000000000000000000000000000000008152600401610a3f90613dcf565b60405180910390fd5b610a518161256e565b50565b610a64610a5f612444565b6107ad565b610aa3576040517f08c379a0000000000000000000000000000000000000000000000000000000008152600401610a9a90613dcf565b60405180910390fd5b600160009054906101000a900460ff1615610af3576040517f08c379a0000000000000000000000000000000000000000000000000000000008152600401610aea90613eaf565b60405180910390fd5b60018060006101000a81548160ff0219169083151502179055507f62e78cea01bee320cd4e420270b5ea74000d11b0c9f74754ebdbfc544b05a258610b36612444565b604051610b4391906139f0565b60405180910390a1565b6000610b57612a39565b600460008473ffffffffffffffffffffffffffffffffffffffff1673ffffffffffffffffffffffffffffffffffffffff16815260200190815260200160002060405180606001604052908160008201548152602001600182015481526020016002820160009054906101000a900460ff16151515158152505090506000816000015114610be8576001915050610bee565b60009150505b919050565b600080610bff83610b4d565b610c3e576040517f08c379a0000000000000000000000000000000000000000000000000000000008152600401610c3590613e6f565b60405180910390fd5b610c46612a39565b600460008573ffffffffffffffffffffffffffffffffffffffff1673ffffffffffffffffffffffffffffffffffffffff16815260200190815260200160002060405180606001604052908160008201548152602001600182015481526020016002820160009054906101000a900460ff1615151515815250509050806000015181602001519250925050915091565b60006001809054906101000a900473ffffffffffffffffffffffffffffffffffffffff16905090565b600160009054906101000a900460ff1615610d4e576040517f08c379a0000000000000000000000000000000000000000000000000000000008152600401610d4590613eaf565b60405180910390fd5b6000600260009054906101000a900473ffffffffffffffffffffffffffffffffffffffff1673ffffffffffffffffffffffffffffffffffffffff166365f68c89336040518263ffffffff1660e01b8152600401610dab91906139f0565b60206040518083038186803b158015610dc357600080fd5b505afa158015610dd7573d6000803e3d6000fd5b505050506040513d601f19601f82011682018060405250610dfb9190810190612f7e565b9050610e0687610b4d565b610e45576040517f08c379a0000000000000000000000000000000000000000000000000000000008152600401610e3c90613f8f565b60405180910390fd5b610e4e876107ca565b610e8d576040517f08c379a0000000000000000000000000000000000000000000000000000000008152600401610e8490613daf565b60405180910390fd5b600260009054906101000a900473ffffffffffffffffffffffffffffffffffffffff1673ffffffffffffffffffffffffffffffffffffffff1663613a7896826040518263ffffffff1660e01b8152600401610ee8919061402f565b60206040518083038186803b158015610f0057600080fd5b505afa158015610f14573d6000803e3d6000fd5b505050506040513d601f19601f82011682018060405250610f389190810190612f19565b610f77576040517f08c379a0000000000000000000000000000000000000000000000000000000008152600401610f6e90613faf565b60405180910390fd5b600260009054906101000a900473ffffffffffffffffffffffffffffffffffffffff1673ffffffffffffffffffffffffffffffffffffffff1663613a7896866040518263ffffffff1660e01b8152600401610fd2919061402f565b60206040518083038186803b158015610fea57600080fd5b505afa158015610ffe573d6000803e3d6000fd5b505050506040513d601f19601f820116820180604052506110229190810190612f19565b611061576040517f08c379a000000000000000000000000000000000000000000000000000000000815260040161105890613fef565b60405180910390fd5b600061106c88611f90565b905060008890508073ffffffffffffffffffffffffffffffffffffffff1663c596acc7848a8a8a8a8a6040518763ffffffff1660e01b81526004016110b6969594939291906140bf565b600060405180830381600087803b1580156110d057600080fd5b505af11580156110e4573d6000803e3d6000fd5b5050505061114a856040518060600160405280603881526020016144d56038913960076000868152602001908152602001600020600087815260200190815260200160002060008c8152602001908152602001600020546125c89092919063ffffffff16565b60076000848152602001908152602001600020600085815260200190815260200160002060008a8152602001908152602001600020819055506111cb856007600085815260200190815260200160002060008a815260200190815260200160002060008981526020019081526020016000205461262390919063ffffffff16565b6007600084815260200190815260200160002060008981526020019081526020016000206000888152602001908152602001600020819055507f9fbb7cb56ecba529d9d3d69bf53e20211dc815c9b635ee45c263dd4101f0cbdd89848a8a8a8a8a60405161123f9796959493929190613bc5565b60405180910390a1505050505050505050565b60006001809054906101000a900473ffffffffffffffffffffffffffffffffffffffff1673ffffffffffffffffffffffffffffffffffffffff16611294612444565b73ffffffffffffffffffffffffffffffffffffffff1614905090565b600160009054906101000a900460ff1615611300576040517f08c379a00000000000000000000000000000000000000000000000000000000081526004016112f790613eaf565b60405180910390fd5b60008061130c87610bf3565b915091506000600260009054906101000a900473ffffffffffffffffffffffffffffffffffffffff1673ffffffffffffffffffffffffffffffffffffffff166365f68c89336040518263ffffffff1660e01b815260040161136d91906139f0565b60206040518083038186803b15801561138557600080fd5b505afa158015611399573d6000803e3d6000fd5b505050506040513d601f19601f820116820180604052506113bd9190810190612f7e565b9050818114611401576040517f08c379a00000000000000000000000000000000000000000000000000000000081526004016113f89061400f565b60405180910390fd5b6114118860065489898989610cfe565b5050505050505050565b600160009054906101000a900460ff161561146b576040517f08c379a000000000000000000000000000000000000000000000000000000000815260040161146290613eaf565b60405180910390fd5b61147485610b4d565b6114b3576040517f08c379a00000000000000000000000000000000000000000000000000000000081526004016114aa90613f8f565b60405180910390fd5b6114bc856107ca565b6114fb576040517f08c379a00000000000000000000000000000000000000000000000000000000081526004016114f290613eef565b60405180910390fd5b600260009054906101000a900473ffffffffffffffffffffffffffffffffffffffff1673ffffffffffffffffffffffffffffffffffffffff1663613a7896856040518263ffffffff1660e01b8152600401611556919061402f565b60206040518083038186803b15801561156e57600080fd5b505afa158015611582573d6000803e3d6000fd5b505050506040513d601f19601f820116820180604052506115a69190810190612f19565b6115e5576040517f08c379a00000000000000000000000000000000000000000000000000000000081526004016115dc90613fcf565b60405180910390fd5b60008590508073ffffffffffffffffffffffffffffffffffffffff1663c92f4eb0868686866040518563ffffffff1660e01b81526004016116299493929190614073565b600060405180830381600087803b15801561164357600080fd5b505af1158015611657573d6000803e3d6000fd5b505050507f6e812c2818181269bc8b7b868519e62a203a792b53f99e06c8b2357d01e86d9c8686868686604051611692959493929190613b6b565b60405180910390a16116a686868686612678565b505050505050565b6116b733610b4d565b6116f6576040517f08c379a00000000000000000000000000000000000000000000000000000000081526004016116ed90613f2f565b60405180910390fd5b6116ff336107ca565b61173e576040517f08c379a000000000000000000000000000000000000000000000000000000000815260040161173590613f6f565b60405180910390fd5b60008111611781576040517f08c379a000000000000000000000000000000000000000000000000000000000815260040161177890613e4f565b60405180910390fd5b600033905061178f81610b4d565b6117ce576040517f08c379a00000000000000000000000000000000000000000000000000000000081526004016117c590613f8f565b60405180910390fd5b6117d7816107ca565b611816576040517f08c379a000000000000000000000000000000000000000000000000000000000815260040161180d90613daf565b60405180910390fd5b60008061182283610bf3565b9150915061185d846008600085815260200190815260200160002060008881526020019081526020016000205461262390919063ffffffff16565b600860008481526020019081526020016000206000878152602001908152602001600020819055507f5b286976292a8b33306336f89f6975faf74bb07c420d46593c739d0d0f6c9ec68386866040516118b893929190613a34565b60405180910390a15050505050565b60065481565b6118d5611252565b611914576040517f08c379a000000000000000000000000000000000000000000000000000000000815260040161190b90613f0f565b60405180910390fd5b60008061192084610bf3565b91509150611932848260065486612678565b50505050565b6000611942611252565b611981576040517f08c379a000000000000000000000000000000000000000000000000000000000815260040161197890613f0f565b60405180910390fd5b61198a83610b4d565b6119c9576040517f08c379a00000000000000000000000000000000000000000000000000000000081526004016119c090613e6f565b60405180910390fd5b6000600460008573ffffffffffffffffffffffffffffffffffffffff1673ffffffffffffffffffffffffffffffffffffffff1681526020019081526020016000209050828160020160006101000a81548160ff0219169083151502179055507f28a61818d188a7856821431ff0deb7650c2cc34ee4b7b97616a415fa0a3dfeff81600001548260020160009054906101000a900460ff16604051611a6e92919061404a565b60405180910390a15092915050565b600160009054906101000a900460ff1615611acd576040517f08c379a0000000000000000000000000000000000000000000000000000000008152600401611ac490613eaf565b60405180910390fd5b611ad5611252565b611b14576040517f08c379a0000000000000000000000000000000000000000000000000000000008152600401611b0b90613f0f565b60405180910390fd5b611b1d84610b4d565b611b5c576040517f08c379a0000000000000000000000000000000000000000000000000000000008152600401611b5390613f8f565b60405180910390fd5b611b65846107ca565b611ba4576040517f08c379a0000000000000000000000000000000000000000000000000000000008152600401611b9b90613eef565b60405180910390fd5b73__RBBLib________________________________636edcb12f836040518263ffffffff1660e01b8152600401611bdb9190613d01565b60206040518083038186803b158015611bf357600080fd5b505af4158015611c07573d6000803e3d6000fd5b505050506040513d601f19601f82011682018060405250611c2b9190810190612f19565b611c6a576040517f08c379a0000000000000000000000000000000000000000000000000000000008152600401611c6190613e8f565b60405180910390fd5b60008490508073ffffffffffffffffffffffffffffffffffffffff1663bc0077638585856040518463ffffffff1660e01b8152600401611cac93929190613d23565b600060405180830381600087803b158015611cc657600080fd5b505af1158015611cda573d6000803e3d6000fd5b505050507f2f2fd572c80ae93bda9f55fe54d703939c0eebc4bc2c5d24a4a1e3dcf23f469f85858585604051611d139493929190613acc565b60405180910390a15050505050565b60046020528060005260406000206000915090508060000154908060010154908060020160009054906101000a900460ff16905083565b6008602052816000526040600020602052806000526040600020600091509150505481565b6000611d88611252565b611dc7576040517f08c379a0000000000000000000000000000000000000000000000000000000008152600401611dbe90613f0f565b60405180910390fd5b611dd083610b4d565b15611e10576040517f08c379a0000000000000000000000000000000000000000000000000000000008152600401611e0790613e0f565b60405180910390fd5b60008390508073ffffffffffffffffffffffffffffffffffffffff16633dfdcfab600260009054906101000a900473ffffffffffffffffffffffffffffffffffffffff16306040518363ffffffff1660e01b8152600401611e72929190613a0b565b600060405180830381600087803b158015611e8c57600080fd5b505af1158015611ea0573d6000803e3d6000fd5b505050506040518060600160405280600354815260200184815260200160011515815250600460008673ffffffffffffffffffffffffffffffffffffffff1673ffffffffffffffffffffffffffffffffffffffff168152602001908152602001600020600082015181600001556020820151816001015560408201518160020160006101000a81548160ff0219169083151502179055509050507f20837d6e0b7236235210e8dcb5168dc3712b7652ca9b5f328e9aaecdd6f386cd6003548486604051611f6f93929190614150565b60405180910390a16003600081548092919060010191905055505092915050565b6000611f9b82610b4d565b611fda576040517f08c379a0000000000000000000000000000000000000000000000000000000008152600401611fd190613e6f565b60405180910390fd5b611fe2612a39565b600460008473ffffffffffffffffffffffffffffffffffffffff1673ffffffffffffffffffffffffffffffffffffffff16815260200190815260200160002060405180606001604052908160008201548152602001600182015481526020016002820160009054906101000a900460ff16151515158152505090508060000151915050919050565b612072611252565b6120b1576040517f08c379a00000000000000000000000000000000000000000000000000000000081526004016120a890613f0f565b60405180910390fd5b6120ba85610b4d565b6120f9576040517f08c379a00000000000000000000000000000000000000000000000000000000081526004016120f090613f8f565b60405180910390fd5b612102856107ca565b612141576040517f08c379a000000000000000000000000000000000000000000000000000000000815260040161213890613daf565b60405180910390fd5b73__RBBLib________________________________636edcb12f836040518263ffffffff1660e01b81526004016121789190613d01565b60206040518083038186803b15801561219057600080fd5b505af41580156121a4573d6000803e3d6000fd5b505050506040513d601f19601f820116820180604052506121c89190810190612f19565b612207576040517f08c379a00000000000000000000000000000000000000000000000000000000081526004016121fe90613e8f565b60405180910390fd5b60008061221387610bf3565b9150915061226885604051806060016040528060298152602001614471602991396008600086815260200190815260200160002060008a8152602001908152602001600020546125c89092919063ffffffff16565b600860008481526020019081526020016000206000888152602001908152602001600020819055506122da85600760008581526020019081526020016000206000848152602001908152602001600020600060065481526020019081526020016000205461262390919063ffffffff16565b600760008481526020019081526020016000206000838152602001908152602001600020600060065481526020019081526020016000208190555060008790508073ffffffffffffffffffffffffffffffffffffffff16636b4dd41f888887896040518563ffffffff1660e01b81526004016123599493929190613c71565b600060405180830381600087803b15801561237357600080fd5b505af1158015612387573d6000803e3d6000fd5b505050507fef1c42fc8b3e4dbc907ef5506ed8fbfd24e2102fb73b3e66bccf15def6bb4fd888888888886040516123c2959493929190613a6b565b60405180910390a15050505050505050565b60035481565b6000600560009054906101000a900460ff16905090565b6123f9611252565b612438576040517f08c379a000000000000000000000000000000000000000000000000000000000815260040161242f90613f0f565b60405180910390fd5b612441816127bc565b50565b600033905090565b60008073ffffffffffffffffffffffffffffffffffffffff168273ffffffffffffffffffffffffffffffffffffffff1614156124bd576040517f08c379a00000000000000000000000000000000000000000000000000000000081526004016124b490613f4f565b60405180910390fd5b8260000160008373ffffffffffffffffffffffffffffffffffffffff1673ffffffffffffffffffffffffffffffffffffffff16815260200190815260200160002060009054906101000a900460ff16905092915050565b6125288160006128ea90919063ffffffff16565b8073ffffffffffffffffffffffffffffffffffffffff167fcd265ebaf09df2871cc7bd4133404a235ba12eff2041bb89d9c714a2621c7c7e60405160405180910390a250565b61258281600061299190919063ffffffff16565b8073ffffffffffffffffffffffffffffffffffffffff167f6719d08c1888103bea251a4ed56406bd0c3e69723c8a1686e017e7bbe159b6f860405160405180910390a250565b6000838311158290612610576040517f08c379a00000000000000000000000000000000000000000000000000000000081526004016126079190613cdf565b60405180910390fd5b5060008385039050809150509392505050565b60008082840190508381101561266e576040517f08c379a000000000000000000000000000000000000000000000000000000000815260040161266590613e2f565b60405180910390fd5b8091505092915050565b61268184610b4d565b6126c0576040517f08c379a00000000000000000000000000000000000000000000000000000000081526004016126b790613f8f565b60405180910390fd5b6126c9846107ca565b612708576040517f08c379a00000000000000000000000000000000000000000000000000000000081526004016126ff90613eef565b60405180910390fd5b600061271385611f90565b9050612777826040518060600160405280603b815260200161449a603b91396007600085815260200190815260200160002060008881526020019081526020016000206000878152602001908152602001600020546125c89092919063ffffffff16565b507fbb1ad37219830377dfb06065e971d1cb26d7099497b73445398977b1ccc99c86858585856040516127ad9493929190613b26565b60405180910390a15050505050565b600073ffffffffffffffffffffffffffffffffffffffff168173ffffffffffffffffffffffffffffffffffffffff16141561282c576040517f08c379a000000000000000000000000000000000000000000000000000000000815260040161282390613def565b60405180910390fd5b8073ffffffffffffffffffffffffffffffffffffffff166001809054906101000a900473ffffffffffffffffffffffffffffffffffffffff1673ffffffffffffffffffffffffffffffffffffffff167f8be0079c531659141344cd1fd0a4f28419497f9722a3daafe3b4186f6b6457e060405160405180910390a3806001806101000a81548173ffffffffffffffffffffffffffffffffffffffff021916908373ffffffffffffffffffffffffffffffffffffffff16021790555050565b6128f4828261244c565b612933576040517f08c379a000000000000000000000000000000000000000000000000000000000815260040161292a90613ecf565b60405180910390fd5b60008260000160008373ffffffffffffffffffffffffffffffffffffffff1673ffffffffffffffffffffffffffffffffffffffff16815260200190815260200160002060006101000a81548160ff0219169083151502179055505050565b61299b828261244c565b156129db576040517f08c379a00000000000000000000000000000000000000000000000000000000081526004016129d290613d8f565b60405180910390fd5b60018260000160008373ffffffffffffffffffffffffffffffffffffffff1673ffffffffffffffffffffffffffffffffffffffff16815260200190815260200160002060006101000a81548160ff0219169083151502179055505050565b604051806060016040528060008152602001600081526020016000151581525090565b600081359050612a6b81614414565b92915050565b600082601f830112612a8257600080fd5b8135612a95612a9082614206565b6141d9565b9150818183526020840193506020810190508360005b83811015612adb5781358601612ac18882612b24565b845260208401935060208301925050600181019050612aab565b5050505092915050565b600081359050612af48161442b565b92915050565b600081519050612b098161442b565b92915050565b600081359050612b1e81614442565b92915050565b600082601f830112612b3557600080fd5b8135612b48612b438261422e565b6141d9565b91508082526020830160208301858383011115612b6457600080fd5b612b6f8382846143c1565b50505092915050565b600082601f830112612b8957600080fd5b8135612b9c612b978261425a565b6141d9565b91508082526020830160208301858383011115612bb857600080fd5b612bc38382846143c1565b50505092915050565b600081359050612bdb81614459565b92915050565b600081519050612bf081614459565b92915050565b600060208284031215612c0857600080fd5b6000612c1684828501612a5c565b91505092915050565b60008060408385031215612c3257600080fd5b6000612c4085828601612a5c565b9250506020612c5185828601612ae5565b9150509250929050565b60008060008060008060c08789031215612c7457600080fd5b6000612c8289828a01612a5c565b9650506020612c9389828a01612b0f565b9550506040612ca489828a01612bcc565b9450506060612cb589828a01612b0f565b9350506080612cc689828a01612bcc565b92505060a087013567ffffffffffffffff811115612ce357600080fd5b612cef89828a01612a71565b9150509295509295509295565b600080600080600060a08688031215612d1457600080fd5b6000612d2288828901612a5c565b9550506020612d3388828901612b0f565b9450506040612d4488828901612bcc565b935050606086013567ffffffffffffffff811115612d6157600080fd5b612d6d88828901612b78565b925050608086013567ffffffffffffffff811115612d8a57600080fd5b612d9688828901612a71565b9150509295509295909350565b60008060008060808587031215612db957600080fd5b6000612dc787828801612a5c565b945050602085013567ffffffffffffffff811115612de457600080fd5b612df087828801612b78565b935050604085013567ffffffffffffffff811115612e0d57600080fd5b612e1987828801612b78565b925050606085013567ffffffffffffffff811115612e3657600080fd5b612e4287828801612a71565b91505092959194509250565b60008060408385031215612e6157600080fd5b6000612e6f85828601612a5c565b9250506020612e8085828601612bcc565b9150509250929050565b600080600080600060a08688031215612ea257600080fd5b6000612eb088828901612a5c565b9550506020612ec188828901612bcc565b9450506040612ed288828901612b0f565b9350506060612ee388828901612bcc565b925050608086013567ffffffffffffffff811115612f0057600080fd5b612f0c88828901612a71565b9150509295509295909350565b600060208284031215612f2b57600080fd5b6000612f3984828501612afa565b91505092915050565b60008060408385031215612f5557600080fd5b6000612f6385828601612b0f565b9250506020612f7485828601612bcc565b9150509250929050565b600060208284031215612f9057600080fd5b6000612f9e84828501612be1565b91505092915050565b60008060408385031215612fba57600080fd5b6000612fc885828601612bcc565b9250506020612fd985828601612b0f565b9150509250929050565b600080600060608486031215612ff857600080fd5b600061300686828701612bcc565b935050602061301786828701612bcc565b925050604061302886828701612b0f565b9150509250925092565b600061303e8383613178565b905092915050565b61304f81614367565b82525050565b61305e81614308565b82525050565b600061306f82614296565b61307981856142c4565b93508360208202850161308b85614286565b8060005b858110156130c757848403895281516130a88582613032565b94506130b3836142b7565b925060208a0199505060018101905061308f565b50829750879550505050505092915050565b6130e28161431a565b82525050565b6130f181614326565b82525050565b61310081614379565b82525050565b6000613111826142ac565b61311b81856142e6565b935061312b8185602086016143d0565b61313481614403565b840191505092915050565b600061314a826142ac565b61315481856142f7565b93506131648185602086016143d0565b61316d81614403565b840191505092915050565b6000613183826142a1565b61318d81856142d5565b935061319d8185602086016143d0565b6131a681614403565b840191505092915050565b60006131be6014836142e6565b91507f5061757361626c653a206e6f74207061757365640000000000000000000000006000830152602082019050919050565b60006131fe601f836142e6565b91507f526f6c65733a206163636f756e7420616c72656164792068617320726f6c65006000830152602082019050919050565b600061323e6025836142e6565b91507f436f6e747261746f206573706563c3ad6669636f206ec3a36f20657374c3a12060008301527f617469766f0000000000000000000000000000000000000000000000000000006020830152604082019050919050565b60006132a46030836142e6565b91507f506175736572526f6c653a2063616c6c657220646f6573206e6f74206861766560008301527f207468652050617573657220726f6c65000000000000000000000000000000006020830152604082019050919050565b600061330a6026836142e6565b91507f4f776e61626c653a206e6577206f776e657220697320746865207a65726f206160008301527f64647265737300000000000000000000000000000000000000000000000000006020830152604082019050919050565b60006133706017836142e6565b91507f436f6e747261746f206ac3a1207265676973747261646f0000000000000000006000830152602082019050919050565b60006133b0601b836142e6565b91507f536166654d6174683a206164646974696f6e206f766572666c6f7700000000006000830152602082019050919050565b60006133f06035836142e6565b91507f56616c6f72206120736572207472616e736163696f6e61646f2064657665207360008301527f6572206d61696f7220646f20717565207a65726f2e00000000000000000000006020830152604082019050919050565b60006134566022836142e6565b91507f436f6e747261746f206465206e65676f63696f206e616f20726567697374726160008301527f646f0000000000000000000000000000000000000000000000000000000000006020830152604082019050919050565b60006134bc6024836142e6565b91507f4f206861736820646120636f6d70726f7661c3a7c3a36f20c3a920696e76c3a160008301527f6c69646f000000000000000000000000000000000000000000000000000000006020830152604082019050919050565b60006135226010836142e6565b91507f5061757361626c653a20706175736564000000000000000000000000000000006000830152602082019050919050565b60006135626021836142e6565b91507f526f6c65733a206163636f756e7420646f6573206e6f74206861766520726f6c60008301527f65000000000000000000000000000000000000000000000000000000000000006020830152604082019050919050565b60006135c8602c836142e6565b91507f436f6e747261746f207072656369736120657374617220617469766f2070617260008301527f61206861766572206275726e00000000000000000000000000000000000000006020830152604082019050919050565b600061362e6020836142e6565b91507f4f776e61626c653a2063616c6c6572206973206e6f7420746865206f776e65726000830152602082019050919050565b600061366e604c836142e6565b91507f4dc3a9746f646f2073c3b320706f646520736572206368616d61646f20706f7260008301527f20636f6e747261746f206465206e6567c3b363696f207072657669616d656e7460208301527f65206361646173747261646f00000000000000000000000000000000000000006040830152606082019050919050565b60006136fa6022836142e6565b91507f526f6c65733a206163636f756e7420697320746865207a65726f20616464726560008301527f73730000000000000000000000000000000000000000000000000000000000006020830152604082019050919050565b6000613760603b836142e6565b91507f4dc3a9746f646f2073c3b320706f646520736572206368616d61646f20706f7260008301527f20636f6e747261746f206465206e6567c3b363696f20617469766f00000000006020830152604082019050919050565b60006137c6602a836142e6565b91507f436f6e747261746f206573706563c3ad6669636f206ec3a36f20657374c3a12060008301527f7265676973747261646f000000000000000000000000000000000000000000006020830152604082019050919050565b600061382c6033836142e6565b91507f436f6e7461206465206f726967656d207072656369736120657374617220636f60008301527f6d20636164617374726f2076616c696461646f000000000000000000000000006020830152604082019050919050565b6000613892603f836142e6565b91507f436f6e746120736f6c69636974616e746520646f2072656465656d207072656360008301527f69736120657374617220636f6d20636164617374726f2076616c696461646f006020830152604082019050919050565b60006138f86034836142e6565b91507f436f6e74612064652064657374696e6f2070726563697361206573746172206360008301527f6f6d20636164617374726f2076616c696461646f0000000000000000000000006020830152604082019050919050565b600061395e6040836142e6565b91507f536f6d656e7465206f204f776e657220646f20636f6e747261746f206573706560008301527f63c3ad6669636f20706f6465206368616d61722065737365206dc3a9746f646f6020830152604082019050919050565b6139c081614350565b82525050565b6139cf8161435a565b82525050565b60006020820190506139ea6000830184613055565b92915050565b6000602082019050613a056000830184613046565b92915050565b6000604082019050613a206000830185613055565b613a2d6020830184613055565b9392505050565b6000606082019050613a496000830186613055565b613a5660208301856130e8565b613a6360408301846139b7565b949350505050565b600060a082019050613a806000830188613055565b613a8d60208301876130e8565b613a9a60408301866139b7565b8181036060830152613aac8185613106565b90508181036080830152613ac08184613064565b90509695505050505050565b6000608082019050613ae16000830187613055565b8181036020830152613af38186613106565b90508181036040830152613b078185613106565b90508181036060830152613b1b8184613064565b905095945050505050565b6000608082019050613b3b6000830187613055565b613b4860208301866139b7565b613b5560408301856130e8565b613b6260608301846139b7565b95945050505050565b600060a082019050613b806000830188613055565b613b8d60208301876139b7565b613b9a60408301866130e8565b613ba760608301856139b7565b8181036080830152613bb98184613064565b90509695505050505050565b600060e082019050613bda600083018a613055565b613be760208301896139b7565b613bf460408301886130e8565b613c0160608301876139b7565b613c0e60808301866130e8565b613c1b60a08301856139b7565b81810360c0830152613c2d8184613064565b905098975050505050505050565b6000602082019050613c5060008301846130d9565b92915050565b6000602082019050613c6b60008301846130e8565b92915050565b6000608082019050613c8660008301876130e8565b613c9360208301866139b7565b8181036040830152613ca58185613064565b90508181036060830152613cb98184613106565b905095945050505050565b6000602082019050613cd960008301846130f7565b92915050565b60006020820190508181036000830152613cf98184613106565b905092915050565b60006020820190508181036000830152613d1b818461313f565b905092915050565b60006060820190508181036000830152613d3d8186613106565b90508181036020830152613d518185613106565b90508181036040830152613d658184613064565b9050949350505050565b60006020820190508181036000830152613d88816131b1565b9050919050565b60006020820190508181036000830152613da8816131f1565b9050919050565b60006020820190508181036000830152613dc881613231565b9050919050565b60006020820190508181036000830152613de881613297565b9050919050565b60006020820190508181036000830152613e08816132fd565b9050919050565b60006020820190508181036000830152613e2881613363565b9050919050565b60006020820190508181036000830152613e48816133a3565b9050919050565b60006020820190508181036000830152613e68816133e3565b9050919050565b60006020820190508181036000830152613e8881613449565b9050919050565b60006020820190508181036000830152613ea8816134af565b9050919050565b60006020820190508181036000830152613ec881613515565b9050919050565b60006020820190508181036000830152613ee881613555565b9050919050565b60006020820190508181036000830152613f08816135bb565b9050919050565b60006020820190508181036000830152613f2881613621565b9050919050565b60006020820190508181036000830152613f4881613661565b9050919050565b60006020820190508181036000830152613f68816136ed565b9050919050565b60006020820190508181036000830152613f8881613753565b9050919050565b60006020820190508181036000830152613fa8816137b9565b9050919050565b60006020820190508181036000830152613fc88161381f565b9050919050565b60006020820190508181036000830152613fe881613885565b9050919050565b60006020820190508181036000830152614008816138eb565b9050919050565b6000602082019050818103600083015261402881613951565b9050919050565b600060208201905061404460008301846139b7565b92915050565b600060408201905061405f60008301856139b7565b61406c60208301846130d9565b9392505050565b600060808201905061408860008301876139b7565b61409560208301866130e8565b6140a260408301856139b7565b81810360608301526140b48184613064565b905095945050505050565b600060c0820190506140d460008301896139b7565b6140e160208301886130e8565b6140ee60408301876139b7565b6140fb60608301866130e8565b61410860808301856139b7565b81810360a083015261411a8184613064565b9050979650505050505050565b600060408201905061413c60008301856139b7565b61414960208301846139b7565b9392505050565b600060608201905061416560008301866139b7565b61417260208301856139b7565b61417f6040830184613055565b949350505050565b600060608201905061419c60008301866139b7565b6141a960208301856139b7565b6141b660408301846130d9565b949350505050565b60006020820190506141d360008301846139c6565b92915050565b6000604051905081810181811067ffffffffffffffff821117156141fc57600080fd5b8060405250919050565b600067ffffffffffffffff82111561421d57600080fd5b602082029050602081019050919050565b600067ffffffffffffffff82111561424557600080fd5b601f19601f8301169050602081019050919050565b600067ffffffffffffffff82111561427157600080fd5b601f19601f8301169050602081019050919050565b6000819050602082019050919050565b600081519050919050565b600081519050919050565b600081519050919050565b6000602082019050919050565b600082825260208201905092915050565b600082825260208201905092915050565b600082825260208201905092915050565b600082825260208201905092915050565b600061431382614330565b9050919050565b60008115159050919050565b6000819050919050565b600073ffffffffffffffffffffffffffffffffffffffff82169050919050565b6000819050919050565b600060ff82169050919050565b60006143728261439d565b9050919050565b60006143848261438b565b9050919050565b600061439682614330565b9050919050565b60006143a8826143af565b9050919050565b60006143ba82614330565b9050919050565b82818337600083830152505050565b60005b838110156143ee5780820151818401526020810190506143d3565b838111156143fd576000848401525b50505050565b6000601f19601f8301169050919050565b61441d81614308565b811461442857600080fd5b50565b6144348161431a565b811461443f57600080fd5b50565b61444b81614326565b811461445657600080fd5b50565b61446281614350565b811461446d57600080fd5b5056fe546f74616c20646520656d697373c3a36f206578636564652076616c6f7220736f6c6963697461646f546f74616c20646520746f6b656e73206120736572656d20717565696d61646f7320c3a9206d61696f7220646f20717565206f2062616c616e636553616c646f206461206f726967656d206ec3a36f20c3a920737566696369656e746520706172612061207472616e73666572c3aa6e636961a365627a7a72315820019a413cd2ee1963616defe7890e1ac836881e172c7e563e1c3fc96bac62f4a46c6578706572696d656e74616cf564736f6c63430005100040",
  "source": "pragma solidity ^0.5.0;\npragma experimental ABIEncoderV2;\n\n\nimport \"./RBBLib.sol\";\nimport \"./RBBRegistry.sol\";\nimport \"./SpecificRBBToken.sol\";\nimport \"@openzeppelin/contracts/ownership/Ownable.sol\";\nimport \"@openzeppelin/contracts/lifecycle/Pausable.sol\";\nimport \"@openzeppelin/contracts/math/SafeMath.sol\";\n\n//TODO: framework de mudanca e como incluir um business contract com um id especfico\n//TODO: avaliar se precisa ter totalSupply de cada contrato ou outras info derivadas para aumentar programabilidade\n//TODO: Alterar Owner para id e address, ao inves de somente address?\n//TODO: pensar em mudanas de CNPJ por motivos de negcio (compra de empresa por exemplo)\ncontract BusinessContractRegistry is Ownable {\n\n    RBBRegistry public registry;\n\n    //It starts with 1, because 0 is the id value returned when the item is not found in the businessContractsRegistry\n    uint public idCount = 1;\n\n    struct BusinessContractInfo {\n        uint id;\n        uint ownerId;\n        bool isActive;\n    }\n\n    event BusinessContractRegistration (uint id, uint ownerId, address addr);\n    event BusinessContractStateChange (uint id, bool state);\n\n    //indexado pelo address pq serah a forma mais usada para consulta.\n    mapping (address => BusinessContractInfo) public businessContractsRegistry;\n\n    modifier onlyByRegisteredAndActiveContracts {\n        require(containsBusinessContract(msg.sender), \"Mtodo s pode ser chamado por contrato de negcio previamente cadastrado\");\n        require(isBusinessContractActive(msg.sender), \"Mtodo s pode ser chamado por contrato de negcio ativo\");\n        _;\n    }\n\n//TODO: adicionar como ponto positivo do contrato genrico no PPT. nao eh possivel mudar o uint do owner sem mudar o contrato\n    function registerBusinessContract (address businessContractAddr, uint ownerId) public onlyOwner returns (uint)  {\n        require (!containsBusinessContract(businessContractAddr), \"Contrato j registrado\");\n\n        SpecificRBBToken specificContract = SpecificRBBToken(businessContractAddr);\n        specificContract.setInitializationDataDuringRegistration(address(registry), address(this));\n\n\n        businessContractsRegistry[businessContractAddr] = BusinessContractInfo(idCount, ownerId, true);\n        emit BusinessContractRegistration (idCount, ownerId, businessContractAddr);\n        idCount++;\n    }\n\n    function getBusinessContractId (address addr) public view returns (uint) {\n        require (containsBusinessContract(addr), \"Contrato de negocio nao registrado\");\n        BusinessContractInfo memory info = businessContractsRegistry[addr];\n        return info.id;\n    }\n\n    function getBusinessContractIdAndOwnerId (address addr) public view returns (uint, uint) {\n        require (containsBusinessContract(addr), \"Contrato de negocio nao registrado\");\n        BusinessContractInfo memory info = businessContractsRegistry[addr];\n        return (info.id, info.ownerId);\n    }\n    \n    function containsBusinessContract(address addr) public view returns (bool) {\n        BusinessContractInfo memory info = businessContractsRegistry[addr];\n        if (info.id!=0) return true;\n        else return false;\n    }\n\n    function isBusinessContractActive(address addr) public view returns (bool) {\n        require (containsBusinessContract(addr), \"Contrato de negocio nao registrado\");\n        BusinessContractInfo memory info = businessContractsRegistry[addr];\n        return info.isActive;\n    }\n\n    function setStatus(address addr, bool status) public onlyOwner returns (bool) {\n        require (containsBusinessContract(addr), \"Contrato de negocio nao registrado\");\n        BusinessContractInfo storage info = businessContractsRegistry[addr];\n        info.isActive = status;\n        emit BusinessContractStateChange(info.id, info.isActive);\n    }\n}\n\ncontract RBBToken is Pausable, BusinessContractRegistry {\n\n    using SafeMath for uint;\n\n    uint8 public decimals = 2;\n    bytes32 public RESERVED_HASH_VALUE = 0x0000000000000000000000000000000000000000000000000000000000000000;\n\n    //businessContractId => (RBBid => (specificHash => amount)\n    mapping (uint => mapping (uint => mapping (bytes32 => uint))) public rbbBalances;\n\n    //businessContractId => (specificHash => amount)\n    mapping (uint => mapping (bytes32 => uint)) public balaceRequestedTokens;\n\n    event RBBTokenMintRequest(address businessContractAddr, bytes32 specificHash, uint amount);\n    event RBBTokenMint(address businessContractAddr, bytes32 specificHash, uint amount, string docHash, string[] data);\n    event RBBTokenBurn(address businessContractAddr, uint fromId, bytes32 fromHash, uint amount);\n    event RBBTokenTransfer (address businessContractAddr, uint fromId, bytes32 fromHash, uint toId,\n                            bytes32 toHash, uint amount, string[] data);\n    event RBBTokenRedemptionRequested (address businessContractAddr, uint fromId, bytes32 fromHash, \n                            uint amount, string[] data);\n    event RBBTokenRedemptionSettlement(address businessContractAddr, string redemptionTransactionHash, \n                            string receiptHash, string[] data);\n\n\n    constructor (address newRegistryAddr, uint8 _decimals) public {\n        registry = RBBRegistry(newRegistryAddr);\n        decimals = _decimals;\n    }\n\n\n\n///******************************************************************* */\n\n//TODO: incluir novo hash aqui?\n    function requestMint(bytes32 specificHash, uint amount) public onlyByRegisteredAndActiveContracts {\n    \n        require (amount>0, \"Valor a ser transacionado deve ser maior do que zero.\");\n        address businessContractAddr = msg.sender;\n\n        require(containsBusinessContract(businessContractAddr), \"Contrato especfico no est registrado\");\n        require(isBusinessContractActive(businessContractAddr), \"Contrato especfico no est ativo\");\n\n        (uint businessContractId, uint businessContractOwnerId) = \n                    getBusinessContractIdAndOwnerId(businessContractAddr);\n\n        balaceRequestedTokens[businessContractId][specificHash] = \n            balaceRequestedTokens[businessContractId][specificHash].add(amount);\n    \n        emit RBBTokenMintRequest(businessContractAddr, specificHash, amount);\n\n    }\n\n    function mint(address businessContractAddr, bytes32 specificHash, uint amount, string memory docHash,\n        string[] memory data) public onlyOwner {\n\n        require(containsBusinessContract(businessContractAddr), \"Contrato especfico no est registrado\");\n        require(isBusinessContractActive(businessContractAddr), \"Contrato especfico no est ativo\");\n//        require(amount>0, \"Valor a queimar deve ser maior do que zero\");\n\n        require (RBBLib.isValidHash(docHash), \"O hash da comprovao  invlido\");\n\n        (uint businessContractId, uint businessContractOwnerId) = \n                    getBusinessContractIdAndOwnerId(businessContractAddr);\n\n        balaceRequestedTokens[businessContractId][specificHash] \n            = balaceRequestedTokens[businessContractId][specificHash].sub(amount, \"Total de emisso excede valor solicitado\");\n\n        rbbBalances[businessContractId][businessContractOwnerId][RESERVED_HASH_VALUE] = \n            rbbBalances[businessContractId][businessContractOwnerId][RESERVED_HASH_VALUE].add(amount);\n\n        SpecificRBBToken specificContract = SpecificRBBToken(businessContractAddr);\n        specificContract.verifyAndActForMint(specificHash, amount, data, docHash);\n\n        emit RBBTokenMint(businessContractAddr, specificHash, amount, docHash, data);\n    }\n\n    function burn (address businessContractAddr, uint amount) public onlyOwner {\n\n        (uint businessContractId, uint businessContractOwnerId) = \n                    getBusinessContractIdAndOwnerId(businessContractAddr);\n        _burn(businessContractAddr, businessContractOwnerId, RESERVED_HASH_VALUE, amount);\n\n    }\n\n    function _burn(address businessContractAddr, uint fromId, bytes32 fromHash, uint amount) internal {\n        \n        require(containsBusinessContract(businessContractAddr), \"Contrato especfico no est registrado\");\n        require(isBusinessContractActive(businessContractAddr), \"Contrato precisa estar ativo para haver burn\");\n//        require(amount>0, \"Valor a queimar deve ser maior do que zero\");\n\n        uint businessContractId = getBusinessContractId(businessContractAddr);\n\n        rbbBalances[businessContractId][fromId][fromHash].sub(amount, \"Total de tokens a serem queimados  maior do que o balance\");\n\n        emit RBBTokenBurn(businessContractAddr, fromId, fromHash, amount);\n    }\n\n///******************************************************************* */\n\n\n//chamados de interveno manual tambm seriam feitos pelo transfer, com verificao de intervencao manual\n\n//TODO: incluir hash de registro um objeto genrico para registrar informacoes\n    function transfer (address businessContractAddr, bytes32 fromHash, uint toId, bytes32 toHash, \n            uint amount, string[] memory data) public whenNotPaused {\n\n        uint fromId = registry.getId(msg.sender);\n\n        require(containsBusinessContract(businessContractAddr), \"Contrato especfico no est registrado\");\n        require(isBusinessContractActive(businessContractAddr), \"Contrato especfico no est ativo\");\n\n        require(registry.isValidatedId(fromId), \"Conta de origem precisa estar com cadastro validado\");\n        require(registry.isValidatedId(toId), \"Conta de destino precisa estar com cadastro validado\");\n        uint businessContractId = getBusinessContractId(businessContractAddr);\n\n        SpecificRBBToken specificContract = SpecificRBBToken(businessContractAddr);\n        specificContract.verifyAndActForTransfer(fromId, fromHash, toId, toHash, amount, data);\n\n        //altera valores de saldo\n        rbbBalances[businessContractId][fromId][fromHash] =\n                rbbBalances[businessContractId][fromId][fromHash].sub(amount, \"Saldo da origem no  suficiente para a transferncia\");\n        rbbBalances[businessContractId][toId][toHash] = rbbBalances[businessContractId][toId][toHash].add(amount);\n\n        emit RBBTokenTransfer (businessContractAddr, fromId, fromHash, toId, toHash, amount, data);\n\n    }\n\n    function allocate (address businessContractAddr, uint toId, bytes32 toHash, uint amount, string[] memory data) public \n        whenNotPaused {\n\n\n            (uint businessContractId, uint businessContractOwnerId) = \n                    getBusinessContractIdAndOwnerId(businessContractAddr);\n            uint fromId = registry.getId(msg.sender);\n            require (fromId==businessContractOwnerId, \"Somente o Owner do contrato especfico pode chamar esse mtodo\");\n\n            transfer(businessContractAddr, RESERVED_HASH_VALUE, toId, toHash, amount, data);\n    }\n\n    function redeem (address businessContractAddr, uint fromId, bytes32 fromHash, uint amount, string[] memory data) public \n        whenNotPaused  {\n\n            require(containsBusinessContract(businessContractAddr), \"Contrato especfico no est registrado\");\n            require(isBusinessContractActive(businessContractAddr), \"Contrato precisa estar ativo para haver burn\");\n            require(registry.isValidatedId(fromId), \"Conta solicitante do redeem precisa estar com cadastro validado\");\n//        require(amount>0, \"Valor a queimar deve ser maior do que zero\");\n    \n            SpecificRBBToken specificContract = SpecificRBBToken(businessContractAddr);\n            specificContract.verifyAndActForRedeem(fromId, fromHash, amount, data);\n\n            emit RBBTokenRedemptionRequested(businessContractAddr, fromId, fromHash, amount, data);\n            _burn(businessContractAddr, fromId, fromHash, amount);\n    }\n\n   /**\n    * Using this function, the Responsible for Settlement indicates that he has made the FIAT money transfer.\n    * @ param redemptionTransactionHash hash of the redeem transaction in which the FIAT money settlement occurred.\n    * @ param receiptHash hash that proof the FIAT money transfer\n    */ \n    function notifyRedemptionSettlement(address businessContractAddr, string memory redemptionTransactionHash, \n        string memory receiptHash, string[] memory data)\n        public whenNotPaused onlyOwner {\n\n        require(containsBusinessContract(businessContractAddr), \"Contrato especfico no est registrado\");\n        require(isBusinessContractActive(businessContractAddr), \"Contrato precisa estar ativo para haver burn\");\n        require (RBBLib.isValidHash(receiptHash), \"O hash da comprovao  invlido\");\n\n        SpecificRBBToken specificContract = SpecificRBBToken(businessContractAddr);\n        specificContract.verifyAndActForRedemptionSettlement(redemptionTransactionHash, receiptHash, data);\n\n        emit RBBTokenRedemptionSettlement(businessContractAddr, redemptionTransactionHash, receiptHash, data);\n    }\n    \n\n///******************************************************************* */\n\n    function getReservedBalanceByBusinessContract(address businessContractAddr) view public returns (uint) {\n\n        (uint businessContractId, uint businessContractOwnerId) = \n                getBusinessContractIdAndOwnerId(businessContractAddr);\n        return rbbBalances[businessContractId][businessContractOwnerId][RESERVED_HASH_VALUE];\n    }\n\n    function getDecimals() public view returns (uint8) {\n        return decimals;\n    }\n\n/*\n    function getBndesId() view public returns (uint) {\n        uint bndesId = registry.getId(owner());\n        return bndesId;\n    }\n*/    \n\n}",
  "sourcePath": "/Users/suzana.moreno/workspace/rbb-token/Back-Blockchain/contracts/RBBToken.sol",
  "compiler": {
    "name": "solc",
    "version": "0.5.16+commit.9c3226ce.Emscripten.clang"
  },
  "schemaVersion": "3.0.23",
  "updatedAt": "2020-09-17T17:22:52.683Z",
  "devdoc": {
    "methods": {
      "isOwner()": {
        "details": "Returns true if the caller is the current owner."
      },
      "owner()": {
        "details": "Returns the address of the current owner."
      },
      "pause()": {
        "details": "Called by a pauser to pause, triggers stopped state."
      },
      "paused()": {
        "details": "Returns true if the contract is paused, and false otherwise."
      },
      "renounceOwnership()": {
        "details": "Leaves the contract without owner. It will not be possible to call `onlyOwner` functions anymore. Can only be called by the current owner.     * NOTE: Renouncing ownership will leave the contract without an owner, thereby removing any functionality that is only available to the owner."
      },
      "transferOwnership(address)": {
        "details": "Transfers ownership of the contract to a new account (`newOwner`). Can only be called by the current owner."
      },
      "unpause()": {
        "details": "Called by a pauser to unpause, returns to normal state."
      }
    }
  },
  "userdoc": {
    "methods": {
      "getReservedBalanceByBusinessContract(address)": {
        "notice": "******************************************************************* */"
      },
      "notifyRedemptionSettlement(address,string,string,string[])": {
        "notice": "Using this function, the Responsible for Settlement indicates that he has made the FIAT money transfer. param redemptionTransactionHash hash of the redeem transaction in which the FIAT money settlement occurred. param receiptHash hash that proof the FIAT money transfer"
      },
      "requestMint(bytes32,uint256)": {
        "notice": "******************************************************************* */"
      },
      "transfer(address,bytes32,uint256,bytes32,uint256,string[])": {
        "notice": "******************************************************************* */"
      }
    }
  }
}