{
  "contractName": "RBBToken",
  "abi": [
    {
      "inputs": [
        {
          "internalType": "address",
          "name": "newRegistryAddr",
          "type": "address"
        },
        {
          "internalType": "uint8",
          "name": "_decimals",
          "type": "uint8"
        }
      ],
      "payable": false,
      "stateMutability": "nonpayable",
      "type": "constructor"
    },
    {
      "anonymous": false,
      "inputs": [
        {
          "indexed": false,
          "internalType": "uint256",
          "name": "id",
          "type": "uint256"
        },
        {
          "indexed": false,
          "internalType": "uint256",
          "name": "ownerId",
          "type": "uint256"
        },
        {
          "indexed": false,
          "internalType": "address",
          "name": "addr",
          "type": "address"
        }
      ],
      "name": "BusinessContractRegistration",
      "type": "event"
    },
    {
      "anonymous": false,
      "inputs": [
        {
          "indexed": false,
          "internalType": "uint256",
          "name": "id",
          "type": "uint256"
        },
        {
          "indexed": false,
          "internalType": "bool",
          "name": "state",
          "type": "bool"
        }
      ],
      "name": "BusinessContractStateChange",
      "type": "event"
    },
    {
      "anonymous": false,
      "inputs": [
        {
          "indexed": true,
          "internalType": "address",
          "name": "previousOwner",
          "type": "address"
        },
        {
          "indexed": true,
          "internalType": "address",
          "name": "newOwner",
          "type": "address"
        }
      ],
      "name": "OwnershipTransferred",
      "type": "event"
    },
    {
      "anonymous": false,
      "inputs": [
        {
          "indexed": false,
          "internalType": "address",
          "name": "account",
          "type": "address"
        }
      ],
      "name": "Paused",
      "type": "event"
    },
    {
      "anonymous": false,
      "inputs": [
        {
          "indexed": true,
          "internalType": "address",
          "name": "account",
          "type": "address"
        }
      ],
      "name": "PauserAdded",
      "type": "event"
    },
    {
      "anonymous": false,
      "inputs": [
        {
          "indexed": true,
          "internalType": "address",
          "name": "account",
          "type": "address"
        }
      ],
      "name": "PauserRemoved",
      "type": "event"
    },
    {
      "anonymous": false,
      "inputs": [
        {
          "indexed": false,
          "internalType": "address",
          "name": "businessContractAddr",
          "type": "address"
        },
        {
          "indexed": false,
          "internalType": "uint256",
          "name": "amount",
          "type": "uint256"
        }
      ],
      "name": "RBBMintRequest",
      "type": "event"
    },
    {
      "anonymous": false,
      "inputs": [
        {
          "indexed": false,
          "internalType": "address",
          "name": "businessContractAddr",
          "type": "address"
        },
        {
          "indexed": false,
          "internalType": "uint256",
          "name": "fromId",
          "type": "uint256"
        },
        {
          "indexed": false,
          "internalType": "bytes32",
          "name": "fromHash",
          "type": "bytes32"
        },
        {
          "indexed": false,
          "internalType": "uint256",
          "name": "amount",
          "type": "uint256"
        }
      ],
      "name": "RBBRedemptionRequested",
      "type": "event"
    },
    {
      "anonymous": false,
      "inputs": [
        {
          "indexed": false,
          "internalType": "address",
          "name": "businessContractAddr",
          "type": "address"
        },
        {
          "indexed": false,
          "internalType": "string",
          "name": "redemptionTransactionHash",
          "type": "string"
        },
        {
          "indexed": false,
          "internalType": "string",
          "name": "receiptHash",
          "type": "string"
        }
      ],
      "name": "RBBRedemptionSettlement",
      "type": "event"
    },
    {
      "anonymous": false,
      "inputs": [
        {
          "indexed": false,
          "internalType": "address",
          "name": "businessContractAddr",
          "type": "address"
        },
        {
          "indexed": false,
          "internalType": "uint256",
          "name": "amount",
          "type": "uint256"
        }
      ],
      "name": "RBBTokenBurn",
      "type": "event"
    },
    {
      "anonymous": false,
      "inputs": [
        {
          "indexed": false,
          "internalType": "address",
          "name": "businessContractAddr",
          "type": "address"
        },
        {
          "indexed": false,
          "internalType": "uint256",
          "name": "amount",
          "type": "uint256"
        }
      ],
      "name": "RBBTokenMint",
      "type": "event"
    },
    {
      "anonymous": false,
      "inputs": [
        {
          "indexed": false,
          "internalType": "address",
          "name": "businessContractAddr",
          "type": "address"
        },
        {
          "indexed": false,
          "internalType": "uint256",
          "name": "fromId",
          "type": "uint256"
        },
        {
          "indexed": false,
          "internalType": "bytes32",
          "name": "fromHash",
          "type": "bytes32"
        },
        {
          "indexed": false,
          "internalType": "uint256",
          "name": "toId",
          "type": "uint256"
        },
        {
          "indexed": false,
          "internalType": "bytes32",
          "name": "toHash",
          "type": "bytes32"
        },
        {
          "indexed": false,
          "internalType": "uint256",
          "name": "amount",
          "type": "uint256"
        }
      ],
      "name": "RBBTokenTransfer",
      "type": "event"
    },
    {
      "anonymous": false,
      "inputs": [
        {
          "indexed": false,
          "internalType": "address",
          "name": "account",
          "type": "address"
        }
      ],
      "name": "Unpaused",
      "type": "event"
    },
    {
      "constant": true,
      "inputs": [],
      "name": "RESERVED_HASH_VALUE",
      "outputs": [
        {
          "internalType": "bytes32",
          "name": "",
          "type": "bytes32"
        }
      ],
      "payable": false,
      "stateMutability": "view",
      "type": "function"
    },
    {
      "constant": false,
      "inputs": [
        {
          "internalType": "address",
          "name": "account",
          "type": "address"
        }
      ],
      "name": "addPauser",
      "outputs": [],
      "payable": false,
      "stateMutability": "nonpayable",
      "type": "function"
    },
    {
      "constant": true,
      "inputs": [
        {
          "internalType": "uint256",
          "name": "",
          "type": "uint256"
        },
        {
          "internalType": "bytes32",
          "name": "",
          "type": "bytes32"
        }
      ],
      "name": "balanceTokensToMint",
      "outputs": [
        {
          "internalType": "uint256",
          "name": "",
          "type": "uint256"
        }
      ],
      "payable": false,
      "stateMutability": "view",
      "type": "function"
    },
    {
      "constant": true,
      "inputs": [
        {
          "internalType": "address",
          "name": "",
          "type": "address"
        }
      ],
      "name": "businessContractsRegistry",
      "outputs": [
        {
          "internalType": "uint256",
          "name": "id",
          "type": "uint256"
        },
        {
          "internalType": "uint256",
          "name": "ownerId",
          "type": "uint256"
        },
        {
          "internalType": "bool",
          "name": "isActive",
          "type": "bool"
        }
      ],
      "payable": false,
      "stateMutability": "view",
      "type": "function"
    },
    {
      "constant": true,
      "inputs": [
        {
          "internalType": "address",
          "name": "addr",
          "type": "address"
        }
      ],
      "name": "containsBusinessContract",
      "outputs": [
        {
          "internalType": "bool",
          "name": "",
          "type": "bool"
        }
      ],
      "payable": false,
      "stateMutability": "view",
      "type": "function"
    },
    {
      "constant": true,
      "inputs": [],
      "name": "decimals",
      "outputs": [
        {
          "internalType": "uint8",
          "name": "",
          "type": "uint8"
        }
      ],
      "payable": false,
      "stateMutability": "view",
      "type": "function"
    },
    {
      "constant": true,
      "inputs": [
        {
          "internalType": "address",
          "name": "addr",
          "type": "address"
        }
      ],
      "name": "getBusinessContractId",
      "outputs": [
        {
          "internalType": "uint256",
          "name": "",
          "type": "uint256"
        }
      ],
      "payable": false,
      "stateMutability": "view",
      "type": "function"
    },
    {
      "constant": true,
      "inputs": [
        {
          "internalType": "address",
          "name": "addr",
          "type": "address"
        }
      ],
      "name": "getBusinessContractIdAndOwnerId",
      "outputs": [
        {
          "internalType": "uint256",
          "name": "",
          "type": "uint256"
        },
        {
          "internalType": "uint256",
          "name": "",
          "type": "uint256"
        }
      ],
      "payable": false,
      "stateMutability": "view",
      "type": "function"
    },
    {
      "constant": true,
      "inputs": [],
      "name": "idCount",
      "outputs": [
        {
          "internalType": "uint256",
          "name": "",
          "type": "uint256"
        }
      ],
      "payable": false,
      "stateMutability": "view",
      "type": "function"
    },
    {
      "constant": true,
      "inputs": [
        {
          "internalType": "address",
          "name": "addr",
          "type": "address"
        }
      ],
      "name": "isBusinessContractActive",
      "outputs": [
        {
          "internalType": "bool",
          "name": "",
          "type": "bool"
        }
      ],
      "payable": false,
      "stateMutability": "view",
      "type": "function"
    },
    {
      "constant": true,
      "inputs": [],
      "name": "isOwner",
      "outputs": [
        {
          "internalType": "bool",
          "name": "",
          "type": "bool"
        }
      ],
      "payable": false,
      "stateMutability": "view",
      "type": "function"
    },
    {
      "constant": true,
      "inputs": [
        {
          "internalType": "address",
          "name": "account",
          "type": "address"
        }
      ],
      "name": "isPauser",
      "outputs": [
        {
          "internalType": "bool",
          "name": "",
          "type": "bool"
        }
      ],
      "payable": false,
      "stateMutability": "view",
      "type": "function"
    },
    {
      "constant": true,
      "inputs": [],
      "name": "owner",
      "outputs": [
        {
          "internalType": "address",
          "name": "",
          "type": "address"
        }
      ],
      "payable": false,
      "stateMutability": "view",
      "type": "function"
    },
    {
      "constant": false,
      "inputs": [],
      "name": "pause",
      "outputs": [],
      "payable": false,
      "stateMutability": "nonpayable",
      "type": "function"
    },
    {
      "constant": true,
      "inputs": [],
      "name": "paused",
      "outputs": [
        {
          "internalType": "bool",
          "name": "",
          "type": "bool"
        }
      ],
      "payable": false,
      "stateMutability": "view",
      "type": "function"
    },
    {
      "constant": true,
      "inputs": [
        {
          "internalType": "uint256",
          "name": "",
          "type": "uint256"
        },
        {
          "internalType": "uint256",
          "name": "",
          "type": "uint256"
        },
        {
          "internalType": "bytes32",
          "name": "",
          "type": "bytes32"
        }
      ],
      "name": "rbbBalances",
      "outputs": [
        {
          "internalType": "uint256",
          "name": "",
          "type": "uint256"
        }
      ],
      "payable": false,
      "stateMutability": "view",
      "type": "function"
    },
    {
      "constant": false,
      "inputs": [
        {
          "internalType": "address",
          "name": "businessContractAddr",
          "type": "address"
        },
        {
          "internalType": "uint256",
          "name": "ownerId",
          "type": "uint256"
        }
      ],
      "name": "registerBusinessContract",
      "outputs": [
        {
          "internalType": "uint256",
          "name": "",
          "type": "uint256"
        }
      ],
      "payable": false,
      "stateMutability": "nonpayable",
      "type": "function"
    },
    {
      "constant": true,
      "inputs": [],
      "name": "registry",
      "outputs": [
        {
          "internalType": "contract RBBRegistry",
          "name": "",
          "type": "address"
        }
      ],
      "payable": false,
      "stateMutability": "view",
      "type": "function"
    },
    {
      "constant": false,
      "inputs": [],
      "name": "renounceOwnership",
      "outputs": [],
      "payable": false,
      "stateMutability": "nonpayable",
      "type": "function"
    },
    {
      "constant": false,
      "inputs": [],
      "name": "renouncePauser",
      "outputs": [],
      "payable": false,
      "stateMutability": "nonpayable",
      "type": "function"
    },
    {
      "constant": false,
      "inputs": [
        {
          "internalType": "address",
          "name": "addr",
          "type": "address"
        },
        {
          "internalType": "bool",
          "name": "status",
          "type": "bool"
        }
      ],
      "name": "setStatus",
      "outputs": [
        {
          "internalType": "bool",
          "name": "",
          "type": "bool"
        }
      ],
      "payable": false,
      "stateMutability": "nonpayable",
      "type": "function"
    },
    {
      "constant": false,
      "inputs": [
        {
          "internalType": "address",
          "name": "newOwner",
          "type": "address"
        }
      ],
      "name": "transferOwnership",
      "outputs": [],
      "payable": false,
      "stateMutability": "nonpayable",
      "type": "function"
    },
    {
      "constant": false,
      "inputs": [],
      "name": "unpause",
      "outputs": [],
      "payable": false,
      "stateMutability": "nonpayable",
      "type": "function"
    },
    {
      "constant": true,
      "inputs": [],
      "name": "getBndesId",
      "outputs": [
        {
          "internalType": "uint256",
          "name": "",
          "type": "uint256"
        }
      ],
      "payable": false,
      "stateMutability": "view",
      "type": "function"
    },
    {
      "constant": false,
      "inputs": [
        {
          "internalType": "uint256",
          "name": "amount",
          "type": "uint256"
        },
        {
          "internalType": "bytes32",
          "name": "specificHash",
          "type": "bytes32"
        }
      ],
      "name": "requestMint",
      "outputs": [],
      "payable": false,
      "stateMutability": "nonpayable",
      "type": "function"
    },
    {
      "constant": false,
      "inputs": [
        {
          "internalType": "address",
          "name": "businessContractAddr",
          "type": "address"
        },
        {
          "internalType": "bytes32",
          "name": "specificHash",
          "type": "bytes32"
        },
        {
          "internalType": "uint256",
          "name": "amount",
          "type": "uint256"
        },
        {
          "internalType": "string",
          "name": "docHash",
          "type": "string"
        }
      ],
      "name": "mint",
      "outputs": [],
      "payable": false,
      "stateMutability": "nonpayable",
      "type": "function"
    },
    {
      "constant": false,
      "inputs": [
        {
          "internalType": "address",
          "name": "businessContractAddr",
          "type": "address"
        },
        {
          "internalType": "uint256",
          "name": "amount",
          "type": "uint256"
        }
      ],
      "name": "burn",
      "outputs": [],
      "payable": false,
      "stateMutability": "nonpayable",
      "type": "function"
    },
    {
      "constant": false,
      "inputs": [
        {
          "internalType": "address",
          "name": "businessContractAddr",
          "type": "address"
        },
        {
          "internalType": "uint256",
          "name": "fromId",
          "type": "uint256"
        },
        {
          "internalType": "bytes32",
          "name": "fromHash",
          "type": "bytes32"
        },
        {
          "internalType": "uint256",
          "name": "toId",
          "type": "uint256"
        },
        {
          "internalType": "bytes32",
          "name": "toHash",
          "type": "bytes32"
        },
        {
          "internalType": "uint256",
          "name": "amount",
          "type": "uint256"
        },
        {
          "internalType": "string[]",
          "name": "data",
          "type": "string[]"
        }
      ],
      "name": "transfer",
      "outputs": [],
      "payable": false,
      "stateMutability": "nonpayable",
      "type": "function"
    },
    {
      "constant": false,
      "inputs": [
        {
          "internalType": "address",
          "name": "businessContractAddr",
          "type": "address"
        },
        {
          "internalType": "uint256",
          "name": "toId",
          "type": "uint256"
        },
        {
          "internalType": "bytes32",
          "name": "toHash",
          "type": "bytes32"
        },
        {
          "internalType": "uint256",
          "name": "amount",
          "type": "uint256"
        },
        {
          "internalType": "string[]",
          "name": "data",
          "type": "string[]"
        }
      ],
      "name": "allocate",
      "outputs": [],
      "payable": false,
      "stateMutability": "nonpayable",
      "type": "function"
    },
    {
      "constant": false,
      "inputs": [
        {
          "internalType": "address",
          "name": "businessContractAddr",
          "type": "address"
        },
        {
          "internalType": "uint256",
          "name": "fromId",
          "type": "uint256"
        },
        {
          "internalType": "bytes32",
          "name": "fromHash",
          "type": "bytes32"
        },
        {
          "internalType": "uint256",
          "name": "amount",
          "type": "uint256"
        },
        {
          "internalType": "string[]",
          "name": "data",
          "type": "string[]"
        }
      ],
      "name": "redeem",
      "outputs": [],
      "payable": false,
      "stateMutability": "nonpayable",
      "type": "function"
    },
    {
      "constant": false,
      "inputs": [
        {
          "internalType": "address",
          "name": "businessContractAddr",
          "type": "address"
        },
        {
          "internalType": "string",
          "name": "redemptionTransactionHash",
          "type": "string"
        },
        {
          "internalType": "string",
          "name": "receiptHash",
          "type": "string"
        },
        {
          "internalType": "string[]",
          "name": "data",
          "type": "string[]"
        }
      ],
      "name": "notifyRedemptionSettlement",
      "outputs": [],
      "payable": false,
      "stateMutability": "nonpayable",
      "type": "function"
    },
    {
      "constant": true,
      "inputs": [
        {
          "internalType": "address",
          "name": "businessContractAddr",
          "type": "address"
        }
      ],
      "name": "getReservedBalanceByBusinessContract",
      "outputs": [
        {
          "internalType": "uint256",
          "name": "",
          "type": "uint256"
        }
      ],
      "payable": false,
      "stateMutability": "view",
      "type": "function"
    },
    {
      "constant": true,
      "inputs": [],
      "name": "getDecimals",
      "outputs": [
        {
          "internalType": "uint8",
          "name": "",
          "type": "uint8"
        }
      ],
      "payable": false,
      "stateMutability": "view",
      "type": "function"
    }
  ],
  "bytecode": "0x608060405260016003556002600560006101000a81548160ff021916908360ff1602179055506000801b6006553480156200003957600080fd5b506040516200484c3803806200484c83398181016040526200005f9190810190620003c3565b6200007f62000073620001ae60201b60201c565b620001b660201b60201c565b6000600160006101000a81548160ff0219169083151502179055506000620000ac620001ae60201b60201c565b9050806001806101000a81548173ffffffffffffffffffffffffffffffffffffffff021916908373ffffffffffffffffffffffffffffffffffffffff1602179055508073ffffffffffffffffffffffffffffffffffffffff16600073ffffffffffffffffffffffffffffffffffffffff167f8be0079c531659141344cd1fd0a4f28419497f9722a3daafe3b4186f6b6457e060405160405180910390a35081600260006101000a81548173ffffffffffffffffffffffffffffffffffffffff021916908373ffffffffffffffffffffffffffffffffffffffff16021790555080600560006101000a81548160ff021916908360ff160217905550505062000578565b600033905090565b620001d18160006200021760201b6200277b1790919060201c565b8073ffffffffffffffffffffffffffffffffffffffff167f6719d08c1888103bea251a4ed56406bd0c3e69723c8a1686e017e7bbe159b6f860405160405180910390a250565b620002298282620002ca60201b60201c565b156200026c576040517f08c379a00000000000000000000000000000000000000000000000000000000081526004016200026390620004ae565b60405180910390fd5b60018260000160008373ffffffffffffffffffffffffffffffffffffffff1673ffffffffffffffffffffffffffffffffffffffff16815260200190815260200160002060006101000a81548160ff0219169083151502179055505050565b60008073ffffffffffffffffffffffffffffffffffffffff168273ffffffffffffffffffffffffffffffffffffffff1614156200033e576040517f08c379a00000000000000000000000000000000000000000000000000000000081526004016200033590620004d0565b60405180910390fd5b8260000160008373ffffffffffffffffffffffffffffffffffffffff1673ffffffffffffffffffffffffffffffffffffffff16815260200190815260200160002060009054906101000a900460ff16905092915050565b600081519050620003a68162000544565b92915050565b600081519050620003bd816200055e565b92915050565b60008060408385031215620003d757600080fd5b6000620003e78582860162000395565b9250506020620003fa85828601620003ac565b9150509250929050565b600062000413601f83620004f2565b91507f526f6c65733a206163636f756e7420616c72656164792068617320726f6c65006000830152602082019050919050565b600062000455602283620004f2565b91507f526f6c65733a206163636f756e7420697320746865207a65726f20616464726560008301527f73730000000000000000000000000000000000000000000000000000000000006020830152604082019050919050565b60006020820190508181036000830152620004c98162000404565b9050919050565b60006020820190508181036000830152620004eb8162000446565b9050919050565b600082825260208201905092915050565b6000620005108262000517565b9050919050565b600073ffffffffffffffffffffffffffffffffffffffff82169050919050565b600060ff82169050919050565b6200054f8162000503565b81146200055b57600080fd5b50565b620005698162000537565b81146200057557600080fd5b50565b6142c480620005886000396000f3fe608060405234801561001057600080fd5b50600436106101fb5760003560e01c806388431f7a1161011a578063b304f21c116100ad578063e0a08b731161007c578063e0a08b731461058d578063e6e46238146105bd578063f0141d84146105db578063f2fde38b146105f9578063f777d2b914610615576101fb565b8063b304f21c146104df578063b987afcb1461050f578063c5b2f6a91461052b578063d508636d1461055d576101fb565b8063963a62cb116100e9578063963a62cb1461046d57806396b7bb1c146104895780639ca0daed146104a55780639dc29fac146104c3576101fb565b806388431f7a146103d05780638b214c00146104005780638da5cb5b146104315780638f32d59b1461044f576101fb565b80635c975abb116101925780637b103999116101615780637b103999146103705780638136b72a1461038e57806382dc1ec4146103aa5780638456cb59146103c6576101fb565b80635c975abb146103225780636db5c853146103405780636ef8d66d1461035c578063715018a614610366576101fb565b80633f4ba83a116101ce5780633f4ba83a1461029a57806346fbf68e146102a45780634a47f599146102d457806353d5f7cf146102f2576101fb565b8063035868b4146102005780631b0721181461021c57806330b499831461024c578063313ce5671461027c575b600080fd5b61021a60048036036102159190810190612a45565b610645565b005b610236600480360361023191908101906129e0565b61095e565b6040516102439190613da4565b60405180910390f35b61026660048036036102619190810190612d7a565b6109b1565b6040516102739190613da4565b60405180910390f35b6102846109e3565b6040516102919190613f33565b60405180910390f35b6102a26109f6565b005b6102be60048036036102b991908101906129e0565b610aef565b6040516102cb9190613985565b60405180910390f35b6102dc610b0c565b6040516102e99190613da4565b60405180910390f35b61030c600480360361030791908101906129e0565b610bca565b6040516103199190613985565b60405180910390f35b61032a610ca4565b6040516103379190613985565b60405180910390f35b61035a60048036036103559190810190612d3e565b610cbb565b005b610364610e42565b005b61036e610e54565b005b610378610f5a565b60405161038591906139f9565b60405180910390f35b6103a860048036036103a39190810190612c36565b610f80565b005b6103c460048036036103bf91908101906129e0565b611423565b005b6103ce61147e565b005b6103ea60048036036103e591908101906129e0565b611577565b6040516103f79190613985565b60405180910390f35b61041a600480360361041591908101906129e0565b61161d565b604051610428929190613e9c565b60405180910390f35b6104396116ff565b6040516104469190613812565b60405180910390f35b610457611728565b6040516104649190613985565b60405180910390f35b61048760048036036104829190810190612ba7565b611786565b005b6104a3600480360361049e9190810190612ba7565b6118ea565b005b6104ad611afd565b6040516104ba91906139a0565b60405180910390f35b6104dd60048036036104d89190810190612b6b565b611b03565b005b6104f960048036036104f49190810190612a09565b611b6e565b6040516105069190613985565b60405180910390f35b61052960048036036105249190810190612ac0565b611cb3565b005b610545600480360361054091908101906129e0565b611e7f565b60405161055493929190613efc565b60405180910390f35b61057760048036036105729190810190612b6b565b611eb6565b6040516105849190613da4565b60405180910390f35b6105a760048036036105a291908101906129e0565b6120c8565b6040516105b49190613da4565b60405180910390f35b6105c56121a2565b6040516105d29190613da4565b60405180910390f35b6105e36121a8565b6040516105f09190613f33565b60405180910390f35b610613600480360361060e91908101906129e0565b6121bf565b005b61062f600480360361062a9190810190612d3e565b612212565b60405161063c9190613da4565b60405180910390f35b61064d611728565b61068c576040517f08c379a000000000000000000000000000000000000000000000000000000000815260040161068390613c84565b60405180910390fd5b61069584610bca565b6106d4576040517f08c379a00000000000000000000000000000000000000000000000000000000081526004016106cb90613b04565b60405180910390fd5b73__RBBLib________________________________636edcb12f826040518263ffffffff1660e01b815260040161070b9190613a36565b60206040518083038186803b15801561072357600080fd5b505af4158015610737573d6000803e3d6000fd5b505050506040513d601f19601f8201168201806040525061075b9190810190612cec565b61079a576040517f08c379a000000000000000000000000000000000000000000000000000000000815260040161079190613be4565b60405180910390fd5b6000806107a68661161d565b915091506107fb846040518060600160405280602981526020016141e660299139600860008681526020019081526020016000206000898152602001908152602001600020546122379092919063ffffffff16565b6008600084815260200190815260200160002060008781526020019081526020016000208190555061086d84600760008581526020019081526020016000206000848152602001908152602001600020600060065481526020019081526020016000205461229290919063ffffffff16565b600760008481526020019081526020016000206000838152602001908152602001600020600060065481526020019081526020016000208190555060008690508073ffffffffffffffffffffffffffffffffffffffff1663c656464c8787876040518463ffffffff1660e01b81526004016108ea939291906139bb565b600060405180830381600087803b15801561090457600080fd5b505af1158015610918573d6000803e3d6000fd5b505050507f7024bd6ed1bb480dda5a99fd890504f3e8488be0da9e123eaae799a0e08a55b1878660405161094d9291906138b6565b60405180910390a150505050505050565b600080600061096c8461161d565b91509150600760008381526020019081526020016000206000828152602001908152602001600020600060065481526020019081526020016000205492505050919050565b600760205282600052604060002060205281600052604060002060205280600052604060002060009250925050505481565b600560009054906101000a900460ff1681565b610a06610a016122e7565b610aef565b610a45576040517f08c379a0000000000000000000000000000000000000000000000000000000008152600401610a3c90613b24565b60405180910390fd5b600160009054906101000a900460ff16610a94576040517f08c379a0000000000000000000000000000000000000000000000000000000008152600401610a8b90613aa4565b60405180910390fd5b6000600160006101000a81548160ff0219169083151502179055507f5db9ee0a495bf2e6ff9c91a7834c1ba4fdd244a5e8aa4e537bd38aeae4b073aa610ad86122e7565b604051610ae5919061382d565b60405180910390a1565b6000610b058260006122ef90919063ffffffff16565b9050919050565b600080600260009054906101000a900473ffffffffffffffffffffffffffffffffffffffff1673ffffffffffffffffffffffffffffffffffffffff166365f68c89610b556116ff565b6040518263ffffffff1660e01b8152600401610b719190613812565b60206040518083038186803b158015610b8957600080fd5b505afa158015610b9d573d6000803e3d6000fd5b505050506040513d601f19601f82011682018060405250610bc19190810190612d15565b90508091505090565b6000610bd582611577565b610c14576040517f08c379a0000000000000000000000000000000000000000000000000000000008152600401610c0b90613bc4565b60405180910390fd5b610c1c612823565b600460008473ffffffffffffffffffffffffffffffffffffffff1673ffffffffffffffffffffffffffffffffffffffff16815260200190815260200160002060405180606001604052908160008201548152602001600182015481526020016002820160009054906101000a900460ff16151515158152505090508060400151915050919050565b6000600160009054906101000a900460ff16905090565b610cc433611577565b610d03576040517f08c379a0000000000000000000000000000000000000000000000000000000008152600401610cfa90613ca4565b60405180910390fd5b610d0c33610bca565b610d4b576040517f08c379a0000000000000000000000000000000000000000000000000000000008152600401610d4290613d04565b60405180910390fd5b60008211610d8e576040517f08c379a0000000000000000000000000000000000000000000000000000000008152600401610d8590613ba4565b60405180910390fd5b6000339050600080610d9f8361161d565b91509150610dda856008600085815260200190815260200160002060008781526020019081526020016000205461229290919063ffffffff16565b600860008481526020019081526020016000206000868152602001908152602001600020819055507f758409a40cd738fca35b823ed8ee2a5d7f0aacbdfb99dea99a92c9d3a6f3288b8386604051610e339291906138b6565b60405180910390a15050505050565b610e52610e4d6122e7565b6123b7565b565b610e5c611728565b610e9b576040517f08c379a0000000000000000000000000000000000000000000000000000000008152600401610e9290613c84565b60405180910390fd5b600073ffffffffffffffffffffffffffffffffffffffff166001809054906101000a900473ffffffffffffffffffffffffffffffffffffffff1673ffffffffffffffffffffffffffffffffffffffff167f8be0079c531659141344cd1fd0a4f28419497f9722a3daafe3b4186f6b6457e060405160405180910390a360006001806101000a81548173ffffffffffffffffffffffffffffffffffffffff021916908373ffffffffffffffffffffffffffffffffffffffff160217905550565b600260009054906101000a900473ffffffffffffffffffffffffffffffffffffffff1681565b600160009054906101000a900460ff1615610fd0576040517f08c379a0000000000000000000000000000000000000000000000000000000008152600401610fc790613c24565b60405180910390fd5b610fd987611577565b611018576040517f08c379a000000000000000000000000000000000000000000000000000000000815260040161100f90613d44565b60405180910390fd5b61102187610bca565b611060576040517f08c379a000000000000000000000000000000000000000000000000000000000815260040161105790613ae4565b60405180910390fd5b600260009054906101000a900473ffffffffffffffffffffffffffffffffffffffff1673ffffffffffffffffffffffffffffffffffffffff1663613a7896876040518263ffffffff1660e01b81526004016110bb9190613da4565b60206040518083038186803b1580156110d357600080fd5b505afa1580156110e7573d6000803e3d6000fd5b505050506040513d601f19601f8201168201806040525061110b9190810190612cec565b61114a576040517f08c379a000000000000000000000000000000000000000000000000000000000815260040161114190613d64565b60405180910390fd5b600260009054906101000a900473ffffffffffffffffffffffffffffffffffffffff1673ffffffffffffffffffffffffffffffffffffffff1663613a7896856040518263ffffffff1660e01b81526004016111a59190613da4565b60206040518083038186803b1580156111bd57600080fd5b505afa1580156111d1573d6000803e3d6000fd5b505050506040513d601f19601f820116820180604052506111f59190810190612cec565b611234576040517f08c379a000000000000000000000000000000000000000000000000000000000815260040161122b90613d84565b60405180910390fd5b600061123f886120c8565b905060008890508073ffffffffffffffffffffffffffffffffffffffff1663c596acc78989898989896040518763ffffffff1660e01b815260040161128996959493929190613e34565b600060405180830381600087803b1580156112a357600080fd5b505af11580156112b7573d6000803e3d6000fd5b5050505061131d8460405180606001604052806038815260200161424a603891396007600086815260200190815260200160002060008c815260200190815260200160002060008b8152602001908152602001600020546122379092919063ffffffff16565b6007600084815260200190815260200160002060008a815260200190815260200160002060008981526020019081526020016000208190555061139e8460076000858152602001908152602001600020600089815260200190815260200160002060008881526020019081526020016000205461229290919063ffffffff16565b6007600084815260200190815260200160002060008881526020019081526020016000206000878152602001908152602001600020819055507f1e4883fb9a1c3e23fd361abd4a0b4eaf05538367d6d79c9387417871b17b660889898989898960405161141096959493929190613924565b60405180910390a1505050505050505050565b61143361142e6122e7565b610aef565b611472576040517f08c379a000000000000000000000000000000000000000000000000000000000815260040161146990613b24565b60405180910390fd5b61147b81612411565b50565b61148e6114896122e7565b610aef565b6114cd576040517f08c379a00000000000000000000000000000000000000000000000000000000081526004016114c490613b24565b60405180910390fd5b600160009054906101000a900460ff161561151d576040517f08c379a000000000000000000000000000000000000000000000000000000000815260040161151490613c24565b60405180910390fd5b60018060006101000a81548160ff0219169083151502179055507f62e78cea01bee320cd4e420270b5ea74000d11b0c9f74754ebdbfc544b05a2586115606122e7565b60405161156d919061382d565b60405180910390a1565b6000611581612823565b600460008473ffffffffffffffffffffffffffffffffffffffff1673ffffffffffffffffffffffffffffffffffffffff16815260200190815260200160002060405180606001604052908160008201548152602001600182015481526020016002820160009054906101000a900460ff16151515158152505090506000816000015114611612576001915050611618565b60009150505b919050565b60008061162983611577565b611668576040517f08c379a000000000000000000000000000000000000000000000000000000000815260040161165f90613bc4565b60405180910390fd5b611670612823565b600460008573ffffffffffffffffffffffffffffffffffffffff1673ffffffffffffffffffffffffffffffffffffffff16815260200190815260200160002060405180606001604052908160008201548152602001600182015481526020016002820160009054906101000a900460ff1615151515815250509050806000015181602001519250925050915091565b60006001809054906101000a900473ffffffffffffffffffffffffffffffffffffffff16905090565b60006001809054906101000a900473ffffffffffffffffffffffffffffffffffffffff1673ffffffffffffffffffffffffffffffffffffffff1661176a6122e7565b73ffffffffffffffffffffffffffffffffffffffff1614905090565b600160009054906101000a900460ff16156117d6576040517f08c379a00000000000000000000000000000000000000000000000000000000081526004016117cd90613c24565b60405180910390fd5b6000806117e28761161d565b91509150600260009054906101000a900473ffffffffffffffffffffffffffffffffffffffff1673ffffffffffffffffffffffffffffffffffffffff1663613a7896826040518263ffffffff1660e01b81526004016118419190613da4565b60206040518083038186803b15801561185957600080fd5b505afa15801561186d573d6000803e3d6000fd5b505050506040513d601f19601f820116820180604052506118919190810190612cec565b6118d0576040517f08c379a00000000000000000000000000000000000000000000000000000000081526004016118c790613ce4565b60405180910390fd5b6118e1878260065489898989610f80565b50505050505050565b600160009054906101000a900460ff161561193a576040517f08c379a000000000000000000000000000000000000000000000000000000000815260040161193190613c24565b60405180910390fd5b6000806119468761161d565b91509150600260009054906101000a900473ffffffffffffffffffffffffffffffffffffffff1673ffffffffffffffffffffffffffffffffffffffff1663613a7896826040518263ffffffff1660e01b81526004016119a59190613da4565b60206040518083038186803b1580156119bd57600080fd5b505afa1580156119d1573d6000803e3d6000fd5b505050506040513d601f19601f820116820180604052506119f59190810190612cec565b611a34576040517f08c379a0000000000000000000000000000000000000000000000000000000008152600401611a2b90613ce4565b60405180910390fd5b60008790508073ffffffffffffffffffffffffffffffffffffffff1663c92f4eb0888888886040518563ffffffff1660e01b8152600401611a789493929190613de8565b600060405180830381600087803b158015611a9257600080fd5b505af1158015611aa6573d6000803e3d6000fd5b505050507fde46616d7a75dfda3dee1c69b73bc284982f0a5386046991389f4921c8ca53a388888888604051611adf94939291906138df565b60405180910390a1611af38888888861246b565b5050505050505050565b60065481565b611b0b611728565b611b4a576040517f08c379a0000000000000000000000000000000000000000000000000000000008152600401611b4190613c84565b60405180910390fd5b600080611b568461161d565b91509150611b6884826006548661246b565b50505050565b6000611b78611728565b611bb7576040517f08c379a0000000000000000000000000000000000000000000000000000000008152600401611bae90613c84565b60405180910390fd5b611bc083611577565b611bff576040517f08c379a0000000000000000000000000000000000000000000000000000000008152600401611bf690613bc4565b60405180910390fd5b6000600460008573ffffffffffffffffffffffffffffffffffffffff1673ffffffffffffffffffffffffffffffffffffffff1681526020019081526020016000209050828160020160006101000a81548160ff0219169083151502179055507f28a61818d188a7856821431ff0deb7650c2cc34ee4b7b97616a415fa0a3dfeff81600001548260020160009054906101000a900460ff16604051611ca4929190613dbf565b60405180910390a15092915050565b600160009054906101000a900460ff1615611d03576040517f08c379a0000000000000000000000000000000000000000000000000000000008152600401611cfa90613c24565b60405180910390fd5b73__RBBLib________________________________636edcb12f836040518263ffffffff1660e01b8152600401611d3a9190613a36565b60206040518083038186803b158015611d5257600080fd5b505af4158015611d66573d6000803e3d6000fd5b505050506040513d601f19601f82011682018060405250611d8a9190810190612cec565b611dc9576040517f08c379a0000000000000000000000000000000000000000000000000000000008152600401611dc090613c04565b60405180910390fd5b60008490508073ffffffffffffffffffffffffffffffffffffffff1663bc0077638585856040518463ffffffff1660e01b8152600401611e0b93929190613a58565b600060405180830381600087803b158015611e2557600080fd5b505af1158015611e39573d6000803e3d6000fd5b505050507fbb044857baface794d30db16705eab4c8758338578ce37364c86e9a60e891bd2858585604051611e7093929190613871565b60405180910390a15050505050565b60046020528060005260406000206000915090508060000154908060010154908060020160009054906101000a900460ff16905083565b6000611ec0611728565b611eff576040517f08c379a0000000000000000000000000000000000000000000000000000000008152600401611ef690613c84565b60405180910390fd5b611f0883611577565b15611f48576040517f08c379a0000000000000000000000000000000000000000000000000000000008152600401611f3f90613b64565b60405180910390fd5b60008390508073ffffffffffffffffffffffffffffffffffffffff16633dfdcfab600260009054906101000a900473ffffffffffffffffffffffffffffffffffffffff16306040518363ffffffff1660e01b8152600401611faa929190613848565b600060405180830381600087803b158015611fc457600080fd5b505af1158015611fd8573d6000803e3d6000fd5b505050506040518060600160405280600354815260200184815260200160011515815250600460008673ffffffffffffffffffffffffffffffffffffffff1673ffffffffffffffffffffffffffffffffffffffff168152602001908152602001600020600082015181600001556020820151816001015560408201518160020160006101000a81548160ff0219169083151502179055509050507f20837d6e0b7236235210e8dcb5168dc3712b7652ca9b5f328e9aaecdd6f386cd60035484866040516120a793929190613ec5565b60405180910390a16003600081548092919060010191905055505092915050565b60006120d382611577565b612112576040517f08c379a000000000000000000000000000000000000000000000000000000000815260040161210990613bc4565b60405180910390fd5b61211a612823565b600460008473ffffffffffffffffffffffffffffffffffffffff1673ffffffffffffffffffffffffffffffffffffffff16815260200190815260200160002060405180606001604052908160008201548152602001600182015481526020016002820160009054906101000a900460ff16151515158152505090508060000151915050919050565b60035481565b6000600560009054906101000a900460ff16905090565b6121c7611728565b612206576040517f08c379a00000000000000000000000000000000000000000000000000000000081526004016121fd90613c84565b60405180910390fd5b61220f816125a6565b50565b6008602052816000526040600020602052806000526040600020600091509150505481565b600083831115829061227f576040517f08c379a00000000000000000000000000000000000000000000000000000000081526004016122769190613a14565b60405180910390fd5b5060008385039050809150509392505050565b6000808284019050838110156122dd576040517f08c379a00000000000000000000000000000000000000000000000000000000081526004016122d490613b84565b60405180910390fd5b8091505092915050565b600033905090565b60008073ffffffffffffffffffffffffffffffffffffffff168273ffffffffffffffffffffffffffffffffffffffff161415612360576040517f08c379a000000000000000000000000000000000000000000000000000000000815260040161235790613cc4565b60405180910390fd5b8260000160008373ffffffffffffffffffffffffffffffffffffffff1673ffffffffffffffffffffffffffffffffffffffff16815260200190815260200160002060009054906101000a900460ff16905092915050565b6123cb8160006126d490919063ffffffff16565b8073ffffffffffffffffffffffffffffffffffffffff167fcd265ebaf09df2871cc7bd4133404a235ba12eff2041bb89d9c714a2621c7c7e60405160405180910390a250565b61242581600061277b90919063ffffffff16565b8073ffffffffffffffffffffffffffffffffffffffff167f6719d08c1888103bea251a4ed56406bd0c3e69723c8a1686e017e7bbe159b6f860405160405180910390a250565b61247484610bca565b6124b3576040517f08c379a00000000000000000000000000000000000000000000000000000000081526004016124aa90613c64565b60405180910390fd5b600081116124f6576040517f08c379a00000000000000000000000000000000000000000000000000000000081526004016124ed90613d24565b60405180910390fd5b6000612501856120c8565b9050612565826040518060600160405280603b815260200161420f603b91396007600085815260200190815260200160002060008881526020019081526020016000206000878152602001908152602001600020546122379092919063ffffffff16565b507f7098974186624b12ad4b12c5ed305de24868251bf0d86c81baa4c904cc9b1a9685836040516125979291906138b6565b60405180910390a15050505050565b600073ffffffffffffffffffffffffffffffffffffffff168173ffffffffffffffffffffffffffffffffffffffff161415612616576040517f08c379a000000000000000000000000000000000000000000000000000000000815260040161260d90613b44565b60405180910390fd5b8073ffffffffffffffffffffffffffffffffffffffff166001809054906101000a900473ffffffffffffffffffffffffffffffffffffffff1673ffffffffffffffffffffffffffffffffffffffff167f8be0079c531659141344cd1fd0a4f28419497f9722a3daafe3b4186f6b6457e060405160405180910390a3806001806101000a81548173ffffffffffffffffffffffffffffffffffffffff021916908373ffffffffffffffffffffffffffffffffffffffff16021790555050565b6126de82826122ef565b61271d576040517f08c379a000000000000000000000000000000000000000000000000000000000815260040161271490613c44565b60405180910390fd5b60008260000160008373ffffffffffffffffffffffffffffffffffffffff1673ffffffffffffffffffffffffffffffffffffffff16815260200190815260200160002060006101000a81548160ff0219169083151502179055505050565b61278582826122ef565b156127c5576040517f08c379a00000000000000000000000000000000000000000000000000000000081526004016127bc90613ac4565b60405180910390fd5b60018260000160008373ffffffffffffffffffffffffffffffffffffffff1673ffffffffffffffffffffffffffffffffffffffff16815260200190815260200160002060006101000a81548160ff0219169083151502179055505050565b604051806060016040528060008152602001600081526020016000151581525090565b60008135905061285581614189565b92915050565b600082601f83011261286c57600080fd5b813561287f61287a82613f7b565b613f4e565b9150818183526020840193506020810190508360005b838110156128c557813586016128ab888261290e565b845260208401935060208301925050600181019050612895565b5050505092915050565b6000813590506128de816141a0565b92915050565b6000815190506128f3816141a0565b92915050565b600081359050612908816141b7565b92915050565b600082601f83011261291f57600080fd5b813561293261292d82613fa3565b613f4e565b9150808252602083016020830185838301111561294e57600080fd5b612959838284614136565b50505092915050565b600082601f83011261297357600080fd5b813561298661298182613fcf565b613f4e565b915080825260208301602083018583830111156129a257600080fd5b6129ad838284614136565b50505092915050565b6000813590506129c5816141ce565b92915050565b6000815190506129da816141ce565b92915050565b6000602082840312156129f257600080fd5b6000612a0084828501612846565b91505092915050565b60008060408385031215612a1c57600080fd5b6000612a2a85828601612846565b9250506020612a3b858286016128cf565b9150509250929050565b60008060008060808587031215612a5b57600080fd5b6000612a6987828801612846565b9450506020612a7a878288016128f9565b9350506040612a8b878288016129b6565b925050606085013567ffffffffffffffff811115612aa857600080fd5b612ab487828801612962565b91505092959194509250565b60008060008060808587031215612ad657600080fd5b6000612ae487828801612846565b945050602085013567ffffffffffffffff811115612b0157600080fd5b612b0d87828801612962565b935050604085013567ffffffffffffffff811115612b2a57600080fd5b612b3687828801612962565b925050606085013567ffffffffffffffff811115612b5357600080fd5b612b5f8782880161285b565b91505092959194509250565b60008060408385031215612b7e57600080fd5b6000612b8c85828601612846565b9250506020612b9d858286016129b6565b9150509250929050565b600080600080600060a08688031215612bbf57600080fd5b6000612bcd88828901612846565b9550506020612bde888289016129b6565b9450506040612bef888289016128f9565b9350506060612c00888289016129b6565b925050608086013567ffffffffffffffff811115612c1d57600080fd5b612c298882890161285b565b9150509295509295909350565b600080600080600080600060e0888a031215612c5157600080fd5b6000612c5f8a828b01612846565b9750506020612c708a828b016129b6565b9650506040612c818a828b016128f9565b9550506060612c928a828b016129b6565b9450506080612ca38a828b016128f9565b93505060a0612cb48a828b016129b6565b92505060c088013567ffffffffffffffff811115612cd157600080fd5b612cdd8a828b0161285b565b91505092959891949750929550565b600060208284031215612cfe57600080fd5b6000612d0c848285016128e4565b91505092915050565b600060208284031215612d2757600080fd5b6000612d35848285016129cb565b91505092915050565b60008060408385031215612d5157600080fd5b6000612d5f858286016129b6565b9250506020612d70858286016128f9565b9150509250929050565b600080600060608486031215612d8f57600080fd5b6000612d9d868287016129b6565b9350506020612dae868287016129b6565b9250506040612dbf868287016128f9565b9150509250925092565b6000612dd58383612f0f565b905092915050565b612de6816140dc565b82525050565b612df58161407d565b82525050565b6000612e068261400b565b612e108185614039565b935083602082028501612e2285613ffb565b8060005b85811015612e5e5784840389528151612e3f8582612dc9565b9450612e4a8361402c565b925060208a01995050600181019050612e26565b50829750879550505050505092915050565b612e798161408f565b82525050565b612e888161409b565b82525050565b612e97816140ee565b82525050565b6000612ea882614021565b612eb2818561405b565b9350612ec2818560208601614145565b612ecb81614178565b840191505092915050565b6000612ee182614021565b612eeb818561406c565b9350612efb818560208601614145565b612f0481614178565b840191505092915050565b6000612f1a82614016565b612f24818561404a565b9350612f34818560208601614145565b612f3d81614178565b840191505092915050565b6000612f5560148361405b565b91507f5061757361626c653a206e6f74207061757365640000000000000000000000006000830152602082019050919050565b6000612f95601f8361405b565b91507f526f6c65733a206163636f756e7420616c72656164792068617320726f6c65006000830152602082019050919050565b6000612fd560258361405b565b91507f436f6e747261746f206573706563c3ad6669636f206ec3a36f20657374c3a12060008301527f617469766f0000000000000000000000000000000000000000000000000000006020830152604082019050919050565b600061303b601c8361405b565b91507f436f6e747261746f207072656369736120657374617220617469766f000000006000830152602082019050919050565b600061307b60308361405b565b91507f506175736572526f6c653a2063616c6c657220646f6573206e6f74206861766560008301527f207468652050617573657220726f6c65000000000000000000000000000000006020830152604082019050919050565b60006130e160268361405b565b91507f4f776e61626c653a206e6577206f776e657220697320746865207a65726f206160008301527f64647265737300000000000000000000000000000000000000000000000000006020830152604082019050919050565b600061314760178361405b565b91507f436f6e747261746f206ac3a1207265676973747261646f0000000000000000006000830152602082019050919050565b6000613187601b8361405b565b91507f536166654d6174683a206164646974696f6e206f766572666c6f7700000000006000830152602082019050919050565b60006131c760358361405b565b91507f56616c6f72206120736572207472616e736163696f6e61646f2064657665207360008301527f6572206d61696f7220646f20717565207a65726f2e00000000000000000000006020830152604082019050919050565b600061322d60228361405b565b91507f436f6e747261746f206465206e65676f63696f206e616f20726567697374726160008301527f646f0000000000000000000000000000000000000000000000000000000000006020830152604082019050919050565b600061329360248361405b565b91507f4f206861736820646120636f6d70726f7661c3a7c3a36f20c3a920696e76c3a160008301527f6c69646f000000000000000000000000000000000000000000000000000000006020830152604082019050919050565b60006132f9601d8361405b565b91507f4f206861736820646f2072656369626f20c3a920696e76c3a16c69646f0000006000830152602082019050919050565b600061333960108361405b565b91507f5061757361626c653a20706175736564000000000000000000000000000000006000830152602082019050919050565b600061337960218361405b565b91507f526f6c65733a206163636f756e7420646f6573206e6f74206861766520726f6c60008301527f65000000000000000000000000000000000000000000000000000000000000006020830152604082019050919050565b60006133df602c8361405b565b91507f436f6e747261746f207072656369736120657374617220617469766f2070617260008301527f61206861766572206275726e00000000000000000000000000000000000000006020830152604082019050919050565b600061344560208361405b565b91507f4f776e61626c653a2063616c6c6572206973206e6f7420746865206f776e65726000830152602082019050919050565b6000613485604c8361405b565b91507f4dc3a9746f646f2073c3b320706f646520736572206368616d61646f20706f7260008301527f20636f6e747261746f206465206e6567c3b363696f207072657669616d656e7460208301527f65206361646173747261646f00000000000000000000000000000000000000006040830152606082019050919050565b600061351160228361405b565b91507f526f6c65733a206163636f756e7420697320746865207a65726f20616464726560008301527f73730000000000000000000000000000000000000000000000000000000000006020830152604082019050919050565b6000613577604a8361405b565b91507f436f6e746120646f206f776e657220646f20636f6e747261746f20657370656360008301527fc3ad6669636f207072656369736120657374617220636f6d206361646173747260208301527f6f2076616c696461646f000000000000000000000000000000000000000000006040830152606082019050919050565b6000613603603b8361405b565b91507f4dc3a9746f646f2073c3b320706f646520736572206368616d61646f20706f7260008301527f20636f6e747261746f206465206e6567c3b363696f20617469766f00000000006020830152604082019050919050565b6000613669602a8361405b565b91507f56616c6f72206120717565696d6172206465766520736572206d61696f72206460008301527f6f20717565207a65726f000000000000000000000000000000000000000000006020830152604082019050919050565b60006136cf60378361405b565b91507f436f6e747261746f206573706563c3ad6669636f20657370656369666963616460008301527f6f206ec3a36f20657374c3a1207265676973747261646f0000000000000000006020830152604082019050919050565b600061373560338361405b565b91507f436f6e7461206465206f726967656d207072656369736120657374617220636f60008301527f6d20636164617374726f2076616c696461646f000000000000000000000000006020830152604082019050919050565b600061379b60348361405b565b91507f436f6e74612064652064657374696e6f2070726563697361206573746172206360008301527f6f6d20636164617374726f2076616c696461646f0000000000000000000000006020830152604082019050919050565b6137fd816140c5565b82525050565b61380c816140cf565b82525050565b60006020820190506138276000830184612dec565b92915050565b60006020820190506138426000830184612ddd565b92915050565b600060408201905061385d6000830185612dec565b61386a6020830184612dec565b9392505050565b60006060820190506138866000830186612dec565b81810360208301526138988185612e9d565b905081810360408301526138ac8184612e9d565b9050949350505050565b60006040820190506138cb6000830185612dec565b6138d860208301846137f4565b9392505050565b60006080820190506138f46000830187612dec565b61390160208301866137f4565b61390e6040830185612e7f565b61391b60608301846137f4565b95945050505050565b600060c0820190506139396000830189612dec565b61394660208301886137f4565b6139536040830187612e7f565b61396060608301866137f4565b61396d6080830185612e7f565b61397a60a08301846137f4565b979650505050505050565b600060208201905061399a6000830184612e70565b92915050565b60006020820190506139b56000830184612e7f565b92915050565b60006060820190506139d06000830186612e7f565b6139dd60208301856137f4565b81810360408301526139ef8184612e9d565b9050949350505050565b6000602082019050613a0e6000830184612e8e565b92915050565b60006020820190508181036000830152613a2e8184612e9d565b905092915050565b60006020820190508181036000830152613a508184612ed6565b905092915050565b60006060820190508181036000830152613a728186612e9d565b90508181036020830152613a868185612e9d565b90508181036040830152613a9a8184612dfb565b9050949350505050565b60006020820190508181036000830152613abd81612f48565b9050919050565b60006020820190508181036000830152613add81612f88565b9050919050565b60006020820190508181036000830152613afd81612fc8565b9050919050565b60006020820190508181036000830152613b1d8161302e565b9050919050565b60006020820190508181036000830152613b3d8161306e565b9050919050565b60006020820190508181036000830152613b5d816130d4565b9050919050565b60006020820190508181036000830152613b7d8161313a565b9050919050565b60006020820190508181036000830152613b9d8161317a565b9050919050565b60006020820190508181036000830152613bbd816131ba565b9050919050565b60006020820190508181036000830152613bdd81613220565b9050919050565b60006020820190508181036000830152613bfd81613286565b9050919050565b60006020820190508181036000830152613c1d816132ec565b9050919050565b60006020820190508181036000830152613c3d8161332c565b9050919050565b60006020820190508181036000830152613c5d8161336c565b9050919050565b60006020820190508181036000830152613c7d816133d2565b9050919050565b60006020820190508181036000830152613c9d81613438565b9050919050565b60006020820190508181036000830152613cbd81613478565b9050919050565b60006020820190508181036000830152613cdd81613504565b9050919050565b60006020820190508181036000830152613cfd8161356a565b9050919050565b60006020820190508181036000830152613d1d816135f6565b9050919050565b60006020820190508181036000830152613d3d8161365c565b9050919050565b60006020820190508181036000830152613d5d816136c2565b9050919050565b60006020820190508181036000830152613d7d81613728565b9050919050565b60006020820190508181036000830152613d9d8161378e565b9050919050565b6000602082019050613db960008301846137f4565b92915050565b6000604082019050613dd460008301856137f4565b613de16020830184612e70565b9392505050565b6000608082019050613dfd60008301876137f4565b613e0a6020830186612e7f565b613e1760408301856137f4565b8181036060830152613e298184612dfb565b905095945050505050565b600060c082019050613e4960008301896137f4565b613e566020830188612e7f565b613e6360408301876137f4565b613e706060830186612e7f565b613e7d60808301856137f4565b81810360a0830152613e8f8184612dfb565b9050979650505050505050565b6000604082019050613eb160008301856137f4565b613ebe60208301846137f4565b9392505050565b6000606082019050613eda60008301866137f4565b613ee760208301856137f4565b613ef46040830184612dec565b949350505050565b6000606082019050613f1160008301866137f4565b613f1e60208301856137f4565b613f2b6040830184612e70565b949350505050565b6000602082019050613f486000830184613803565b92915050565b6000604051905081810181811067ffffffffffffffff82111715613f7157600080fd5b8060405250919050565b600067ffffffffffffffff821115613f9257600080fd5b602082029050602081019050919050565b600067ffffffffffffffff821115613fba57600080fd5b601f19601f8301169050602081019050919050565b600067ffffffffffffffff821115613fe657600080fd5b601f19601f8301169050602081019050919050565b6000819050602082019050919050565b600081519050919050565b600081519050919050565b600081519050919050565b6000602082019050919050565b600082825260208201905092915050565b600082825260208201905092915050565b600082825260208201905092915050565b600082825260208201905092915050565b6000614088826140a5565b9050919050565b60008115159050919050565b6000819050919050565b600073ffffffffffffffffffffffffffffffffffffffff82169050919050565b6000819050919050565b600060ff82169050919050565b60006140e782614112565b9050919050565b60006140f982614100565b9050919050565b600061410b826140a5565b9050919050565b600061411d82614124565b9050919050565b600061412f826140a5565b9050919050565b82818337600083830152505050565b60005b83811015614163578082015181840152602081019050614148565b83811115614172576000848401525b50505050565b6000601f19601f8301169050919050565b6141928161407d565b811461419d57600080fd5b50565b6141a98161408f565b81146141b457600080fd5b50565b6141c08161409b565b81146141cb57600080fd5b50565b6141d7816140c5565b81146141e257600080fd5b5056fe546f74616c20646520656d697373c3a36f206578636564652076616c6f7220736f6c6963697461646f546f74616c20646520746f6b656e73206120736572656d20717565696d61646f7320c3a9206d61696f7220646f20717565206f2062616c616e636553616c646f206461206f726967656d206ec3a36f20c3a920737566696369656e746520706172612061207472616e73666572c3aa6e636961a365627a7a723158203130212858a3d65e0e1691b501c0c7c6e91344b0eb588c8a465b62eb358752ec6c6578706572696d656e74616cf564736f6c63430005100040",
  "source": "pragma solidity ^0.5.0;\npragma experimental ABIEncoderV2;\n\n\nimport \"./RBBLib.sol\";\nimport \"./RBBRegistry.sol\";\nimport \"./SpecificRBBToken.sol\";\nimport \"@openzeppelin/contracts/ownership/Ownable.sol\";\nimport \"@openzeppelin/contracts/lifecycle/Pausable.sol\";\nimport \"@openzeppelin/contracts/math/SafeMath.sol\";\n\n//TODO: framework de mudanca e gestao descentralizada de mints e burns\ncontract BusinessContractRegistry is Ownable {\n\n    RBBRegistry public registry;\n\n    //It starts with 1, because 0 is the id value returned when the item is not found in the businessContractsRegistry\n    uint public idCount = 1;\n\n    struct BusinessContractInfo {\n        uint id;\n        uint ownerId;\n        bool isActive;\n    }\n\n    event BusinessContractRegistration (uint id, uint ownerId, address addr);\n    event BusinessContractStateChange (uint id, bool state);\n\n    //indexado pelo address pq serah a forma mais usada para consulta.\n    mapping (address => BusinessContractInfo) public businessContractsRegistry;\n\n    modifier onlyByRegisteredAndActiveContracts {\n        require(containsBusinessContract(msg.sender), \"Mtodo s pode ser chamado por contrato de negcio previamente cadastrado\");\n        require(isBusinessContractActive(msg.sender), \"Mtodo s pode ser chamado por contrato de negcio ativo\");\n        _;\n    }\n\n//TODO: adicionar como ponto positivo do contrato genrico no PPT. nao eh possivel mudar o uint do owner sem mudar o contrato\n    function registerBusinessContract (address businessContractAddr, uint ownerId) public onlyOwner returns (uint)  {\n        require (!containsBusinessContract(businessContractAddr), \"Contrato j registrado\");\n\n        SpecificRBBToken specificContract = SpecificRBBToken(businessContractAddr);\n        specificContract.setInitializationDataDuringRegistration(address(registry), address(this));\n\n\n        businessContractsRegistry[businessContractAddr] = BusinessContractInfo(idCount, ownerId, true);\n        emit BusinessContractRegistration (idCount, ownerId, businessContractAddr);\n        idCount++;\n    }\n\n    function getBusinessContractId (address addr) public view returns (uint) {\n        require (containsBusinessContract(addr), \"Contrato de negocio nao registrado\");\n        BusinessContractInfo memory info = businessContractsRegistry[addr];\n        return info.id;\n    }\n\n    function getBusinessContractIdAndOwnerId (address addr) public view returns (uint, uint) {\n        require (containsBusinessContract(addr), \"Contrato de negocio nao registrado\");\n        BusinessContractInfo memory info = businessContractsRegistry[addr];\n        return (info.id, info.ownerId);\n    }\n    \n    function containsBusinessContract(address addr) public view returns (bool) {\n        BusinessContractInfo memory info = businessContractsRegistry[addr];\n        if (info.id!=0) return true;\n        else return false;\n    }\n\n    function isBusinessContractActive(address addr) public view returns (bool) {\n        require (containsBusinessContract(addr), \"Contrato de negocio nao registrado\");\n        BusinessContractInfo memory info = businessContractsRegistry[addr];\n        return info.isActive;\n    }\n\n    function setStatus(address addr, bool status) public onlyOwner returns (bool) {\n        require (containsBusinessContract(addr), \"Contrato de negocio nao registrado\");\n        BusinessContractInfo storage info = businessContractsRegistry[addr];\n        info.isActive = status;\n        emit BusinessContractStateChange(info.id, info.isActive);\n    }\n}\n\n//TODO: pensar - se precisasse fazer upgrade de um contrato, seria somente registrar um contrato com id do anterior. Criar um metodo para facilitar isso para facilitar o cdigo de mudanas?\ncontract RBBToken is Pausable, BusinessContractRegistry {\n\n    using SafeMath for uint;\n\n    uint8 public decimals = 2;\n    bytes32 public RESERVED_HASH_VALUE = 0x0000000000000000000000000000000000000000000000000000000000000000;\n\n    //businessContractId => (RBBid => (specificHash => amount)\n    mapping (uint => mapping (uint => mapping (bytes32 => uint))) public rbbBalances;\n\n    //businessContractId => (specificHash => amount)\n    mapping (uint => mapping (bytes32 => uint)) public balanceTokensToMint;\n\n//todo: incluir parametro de data nos eventos de transfer e redeem? -- PERGUNTAR\n    event RBBMintRequest(address businessContractAddr, uint amount);\n    event RBBTokenMint(address businessContractAddr, uint amount);\n    event RBBTokenBurn(address businessContractAddr, uint amount);\n    event RBBRedemptionRequested (address businessContractAddr, uint fromId, bytes32 fromHash, uint amount);\n\n    event RBBTokenTransfer (address businessContractAddr, uint fromId, bytes32 fromHash, uint toId,\n                            bytes32 toHash, uint amount);\n    event RBBRedemptionSettlement(address businessContractAddr, string redemptionTransactionHash, string receiptHash);\n\n\n    constructor (address newRegistryAddr, uint8 _decimals) public {\n        registry = RBBRegistry(newRegistryAddr);\n        decimals = _decimals;\n    }\n\n//AVALIAR como identifica BNDES\n    function getBndesId() view public returns (uint) {\n        uint bndesId = registry.getId(owner());\n        return bndesId;\n    }\n\n///******************************************************************* */\n\n    function requestMint(uint amount, bytes32 specificHash) public onlyByRegisteredAndActiveContracts {\n    \n        require (amount>0, \"Valor a ser transacionado deve ser maior do que zero.\");\n        address businessContractAddr = msg.sender;\n\n        (uint businessContractId, uint businessContractOwnerId) = \n                    getBusinessContractIdAndOwnerId(businessContractAddr);\n\n        balanceTokensToMint[businessContractId][specificHash] = \n            balanceTokensToMint[businessContractId][specificHash].add(amount);\n    \n        emit RBBMintRequest(businessContractAddr, amount);\n\n    }\n\n    function mint(address businessContractAddr, bytes32 specificHash, uint amount, string memory docHash) public onlyOwner {\n\n        require(isBusinessContractActive(businessContractAddr), \"Contrato precisa estar ativo\");\n        require (RBBLib.isValidHash(docHash), \"O hash da comprovao  invlido\");\n\n        (uint businessContractId, uint businessContractOwnerId) = \n                    getBusinessContractIdAndOwnerId(businessContractAddr);\n\n        balanceTokensToMint[businessContractId][specificHash] \n            = balanceTokensToMint[businessContractId][specificHash].sub(amount, \"Total de emisso excede valor solicitado\");\n\n        rbbBalances[businessContractId][businessContractOwnerId][RESERVED_HASH_VALUE] = \n            rbbBalances[businessContractId][businessContractOwnerId][RESERVED_HASH_VALUE].add(amount);\n\n        SpecificRBBToken specificContract = SpecificRBBToken(businessContractAddr);\n        specificContract.verifyAndActForMint(specificHash, amount, docHash);\n\n        emit RBBTokenMint(businessContractAddr, amount);\n    }\n\n    function burn (address businessContractAddr, uint amount) public onlyOwner {\n\n        (uint businessContractId, uint businessContractOwnerId) = \n                    getBusinessContractIdAndOwnerId(businessContractAddr);\n//TODO: confirmar que contrato no precisa ter cadastro ativo para ter esse burn\n        _burn(businessContractAddr, businessContractOwnerId, RESERVED_HASH_VALUE, amount);\n\n    }\n\n    function _burn(address businessContractAddr, uint fromId, bytes32 fromHash, uint amount) internal {\n        \n        require(isBusinessContractActive(businessContractAddr), \"Contrato precisa estar ativo para haver burn\");\n        require(amount>0, \"Valor a queimar deve ser maior do que zero\");\n        \n        uint businessContractId = getBusinessContractId(businessContractAddr);\n\n        rbbBalances[businessContractId][fromId][fromHash].sub(amount, \"Total de tokens a serem queimados  maior do que o balance\");\n\n        emit RBBTokenBurn(businessContractAddr, amount);\n    }\n\n///******************************************************************* */\n\n\n//chamados de interveno manual tambm seriam feitos pelo transfer, com verificao de intervencao manual\n\n//TODO: incluir hash de registro um objeto genrico para registrar informacoes\n    function transfer (address businessContractAddr, uint fromId, bytes32 fromHash, uint toId, bytes32 toHash, \n            uint amount, string[] memory data) public whenNotPaused {\n\n        require(containsBusinessContract(businessContractAddr), \"Contrato especfico especificado no est registrado\");\n        require(isBusinessContractActive(businessContractAddr), \"Contrato especfico no est ativo\");\n        require(registry.isValidatedId(fromId), \"Conta de origem precisa estar com cadastro validado\");\n        require(registry.isValidatedId(toId), \"Conta de destino precisa estar com cadastro validado\");\n        uint businessContractId = getBusinessContractId(businessContractAddr);\n\n        SpecificRBBToken specificContract = SpecificRBBToken(businessContractAddr);\n        specificContract.verifyAndActForTransfer(fromId, fromHash, toId, toHash, amount, data);\n\n        //altera valores de saldo\n        rbbBalances[businessContractId][fromId][fromHash] =\n                rbbBalances[businessContractId][fromId][fromHash].sub(amount, \"Saldo da origem no  suficiente para a transferncia\");\n        rbbBalances[businessContractId][toId][toHash] = rbbBalances[businessContractId][toId][toHash].add(amount);\n\n        emit RBBTokenTransfer (businessContractAddr, fromId, fromHash, toId, toHash, amount);\n\n    }\n\n    function allocate (address businessContractAddr, uint toId, bytes32 toHash, uint amount, string[] memory data) public \n        whenNotPaused {\n\n            (uint businessContractId, uint businessContractOwnerId) = \n                    getBusinessContractIdAndOwnerId(businessContractAddr);\n\n            require(registry.isValidatedId(businessContractOwnerId), \"Conta do owner do contrato especfico precisa estar com cadastro validado\");\n            transfer(businessContractAddr, businessContractOwnerId, RESERVED_HASH_VALUE, toId, toHash, amount, data);\n    }\n\n    function redeem (address businessContractAddr, uint fromId, bytes32 fromHash, uint amount, string[] memory data) public \n        whenNotPaused  {\n\n            (uint businessContractId, uint businessContractOwnerId) = \n                    getBusinessContractIdAndOwnerId(businessContractAddr);\n\n            require(registry.isValidatedId(businessContractOwnerId), \"Conta do owner do contrato especfico precisa estar com cadastro validado\");\n\n            SpecificRBBToken specificContract = SpecificRBBToken(businessContractAddr);\n            specificContract.verifyAndActForRedeem(fromId, fromHash, amount, data);\n\n            emit RBBRedemptionRequested(businessContractAddr, fromId, fromHash, amount);\n            _burn(businessContractAddr, fromId, fromHash, amount);\n    }\n\n   /**\n    * Using this function, the Responsible for Settlement indicates that he has made the FIAT money transfer.\n    * @ param redemptionTransactionHash hash of the redeem transaction in which the FIAT money settlement occurred.\n    * @ param receiptHash hash that proof the FIAT money transfer\n    */ \n    function notifyRedemptionSettlement(address businessContractAddr, string memory redemptionTransactionHash, \n        string memory receiptHash, string[] memory data)\n        public whenNotPaused  {\n\n        require (RBBLib.isValidHash(receiptHash), \"O hash do recibo  invlido\");\n\n        SpecificRBBToken specificContract = SpecificRBBToken(businessContractAddr);\n        specificContract.verifyAndActForRedemptionSettlement(redemptionTransactionHash, receiptHash, data);\n\n        emit RBBRedemptionSettlement(businessContractAddr, redemptionTransactionHash, receiptHash);\n    }\n    \n\n///******************************************************************* */\n\n    function getReservedBalanceByBusinessContract(address businessContractAddr) view public returns (uint) {\n\n        (uint businessContractId, uint businessContractOwnerId) = \n                getBusinessContractIdAndOwnerId(businessContractAddr);\n        return rbbBalances[businessContractId][businessContractOwnerId][RESERVED_HASH_VALUE];\n    }\n\n    function getDecimals() public view returns (uint8) {\n        return decimals;\n    }\n\n}",
  "sourcePath": "/Users/suzana.moreno/workspace/rbb-token/Back-Blockchain/contracts/RBBToken.sol",
  "compiler": {
    "name": "solc",
    "version": "0.5.16+commit.9c3226ce.Emscripten.clang"
  },
  "schemaVersion": "3.0.23",
  "updatedAt": "2020-09-16T17:39:55.040Z",
  "devdoc": {
    "methods": {
      "isOwner()": {
        "details": "Returns true if the caller is the current owner."
      },
      "owner()": {
        "details": "Returns the address of the current owner."
      },
      "pause()": {
        "details": "Called by a pauser to pause, triggers stopped state."
      },
      "paused()": {
        "details": "Returns true if the contract is paused, and false otherwise."
      },
      "renounceOwnership()": {
        "details": "Leaves the contract without owner. It will not be possible to call `onlyOwner` functions anymore. Can only be called by the current owner.     * NOTE: Renouncing ownership will leave the contract without an owner, thereby removing any functionality that is only available to the owner."
      },
      "transferOwnership(address)": {
        "details": "Transfers ownership of the contract to a new account (`newOwner`). Can only be called by the current owner."
      },
      "unpause()": {
        "details": "Called by a pauser to unpause, returns to normal state."
      }
    }
  },
  "userdoc": {
    "methods": {
      "getReservedBalanceByBusinessContract(address)": {
        "notice": "******************************************************************* */"
      },
      "notifyRedemptionSettlement(address,string,string,string[])": {
        "notice": "Using this function, the Responsible for Settlement indicates that he has made the FIAT money transfer. param redemptionTransactionHash hash of the redeem transaction in which the FIAT money settlement occurred. param receiptHash hash that proof the FIAT money transfer"
      },
      "requestMint(uint256,bytes32)": {
        "notice": "******************************************************************* */"
      },
      "transfer(address,uint256,bytes32,uint256,bytes32,uint256,string[])": {
        "notice": "******************************************************************* */"
      }
    }
  }
}