{
  "contractName": "RBBToken",
  "abi": [
    {
      "inputs": [
        {
          "internalType": "address",
          "name": "newRegistryAddr",
          "type": "address"
        },
        {
          "internalType": "uint8",
          "name": "_decimals",
          "type": "uint8"
        }
      ],
      "stateMutability": "nonpayable",
      "type": "constructor"
    },
    {
      "anonymous": false,
      "inputs": [
        {
          "indexed": false,
          "internalType": "uint256",
          "name": "id",
          "type": "uint256"
        },
        {
          "indexed": false,
          "internalType": "uint256",
          "name": "ownerId",
          "type": "uint256"
        },
        {
          "indexed": false,
          "internalType": "address",
          "name": "addr",
          "type": "address"
        }
      ],
      "name": "BusinessContractRegistration",
      "type": "event"
    },
    {
      "anonymous": false,
      "inputs": [
        {
          "indexed": false,
          "internalType": "uint256",
          "name": "id",
          "type": "uint256"
        },
        {
          "indexed": false,
          "internalType": "bool",
          "name": "state",
          "type": "bool"
        }
      ],
      "name": "BusinessContractStateChange",
      "type": "event"
    },
    {
      "anonymous": false,
      "inputs": [
        {
          "indexed": true,
          "internalType": "address",
          "name": "previousOwner",
          "type": "address"
        },
        {
          "indexed": true,
          "internalType": "address",
          "name": "newOwner",
          "type": "address"
        }
      ],
      "name": "OwnershipTransferred",
      "type": "event"
    },
    {
      "anonymous": false,
      "inputs": [
        {
          "indexed": false,
          "internalType": "address",
          "name": "account",
          "type": "address"
        }
      ],
      "name": "Paused",
      "type": "event"
    },
    {
      "anonymous": false,
      "inputs": [
        {
          "indexed": true,
          "internalType": "address",
          "name": "account",
          "type": "address"
        }
      ],
      "name": "PauserAdded",
      "type": "event"
    },
    {
      "anonymous": false,
      "inputs": [
        {
          "indexed": true,
          "internalType": "address",
          "name": "account",
          "type": "address"
        }
      ],
      "name": "PauserRemoved",
      "type": "event"
    },
    {
      "anonymous": false,
      "inputs": [
        {
          "indexed": false,
          "internalType": "address",
          "name": "businessContractAddr",
          "type": "address"
        },
        {
          "indexed": false,
          "internalType": "uint256",
          "name": "fromId",
          "type": "uint256"
        },
        {
          "indexed": false,
          "internalType": "bytes32",
          "name": "fromHash",
          "type": "bytes32"
        },
        {
          "indexed": false,
          "internalType": "uint256",
          "name": "amount",
          "type": "uint256"
        }
      ],
      "name": "RBBTokenBurn",
      "type": "event"
    },
    {
      "anonymous": false,
      "inputs": [
        {
          "indexed": false,
          "internalType": "address",
          "name": "businessContractAddr",
          "type": "address"
        },
        {
          "indexed": false,
          "internalType": "bytes32",
          "name": "specificHash",
          "type": "bytes32"
        },
        {
          "indexed": false,
          "internalType": "uint256",
          "name": "amount",
          "type": "uint256"
        },
        {
          "indexed": false,
          "internalType": "string",
          "name": "docHash",
          "type": "string"
        },
        {
          "indexed": false,
          "internalType": "string[]",
          "name": "data",
          "type": "string[]"
        }
      ],
      "name": "RBBTokenMint",
      "type": "event"
    },
    {
      "anonymous": false,
      "inputs": [
        {
          "indexed": false,
          "internalType": "address",
          "name": "businessContractAddr",
          "type": "address"
        },
        {
          "indexed": false,
          "internalType": "bytes32",
          "name": "specificHash",
          "type": "bytes32"
        },
        {
          "indexed": false,
          "internalType": "uint256",
          "name": "idInvestor",
          "type": "uint256"
        },
        {
          "indexed": false,
          "internalType": "uint256",
          "name": "amount",
          "type": "uint256"
        }
      ],
      "name": "RBBTokenMintRequest",
      "type": "event"
    },
    {
      "anonymous": false,
      "inputs": [
        {
          "indexed": false,
          "internalType": "address",
          "name": "businessContractAddr",
          "type": "address"
        },
        {
          "indexed": false,
          "internalType": "uint256",
          "name": "fromId",
          "type": "uint256"
        },
        {
          "indexed": false,
          "internalType": "bytes32",
          "name": "fromHash",
          "type": "bytes32"
        },
        {
          "indexed": false,
          "internalType": "uint256",
          "name": "amount",
          "type": "uint256"
        },
        {
          "indexed": false,
          "internalType": "string[]",
          "name": "data",
          "type": "string[]"
        }
      ],
      "name": "RBBTokenRedemptionRequested",
      "type": "event"
    },
    {
      "anonymous": false,
      "inputs": [
        {
          "indexed": false,
          "internalType": "address",
          "name": "businessContractAddr",
          "type": "address"
        },
        {
          "indexed": false,
          "internalType": "string",
          "name": "redemptionTransactionHash",
          "type": "string"
        },
        {
          "indexed": false,
          "internalType": "string",
          "name": "receiptHash",
          "type": "string"
        },
        {
          "indexed": false,
          "internalType": "string[]",
          "name": "data",
          "type": "string[]"
        }
      ],
      "name": "RBBTokenRedemptionSettlement",
      "type": "event"
    },
    {
      "anonymous": false,
      "inputs": [
        {
          "indexed": false,
          "internalType": "address",
          "name": "businessContractAddr",
          "type": "address"
        },
        {
          "indexed": false,
          "internalType": "uint256",
          "name": "fromId",
          "type": "uint256"
        },
        {
          "indexed": false,
          "internalType": "bytes32",
          "name": "fromHash",
          "type": "bytes32"
        },
        {
          "indexed": false,
          "internalType": "uint256",
          "name": "toId",
          "type": "uint256"
        },
        {
          "indexed": false,
          "internalType": "bytes32",
          "name": "toHash",
          "type": "bytes32"
        },
        {
          "indexed": false,
          "internalType": "uint256",
          "name": "amount",
          "type": "uint256"
        },
        {
          "indexed": false,
          "internalType": "string[]",
          "name": "data",
          "type": "string[]"
        }
      ],
      "name": "RBBTokenTransfer",
      "type": "event"
    },
    {
      "anonymous": false,
      "inputs": [
        {
          "indexed": false,
          "internalType": "address",
          "name": "account",
          "type": "address"
        }
      ],
      "name": "Unpaused",
      "type": "event"
    },
    {
      "inputs": [
        {
          "internalType": "address",
          "name": "account",
          "type": "address"
        }
      ],
      "name": "addPauser",
      "outputs": [],
      "stateMutability": "nonpayable",
      "type": "function"
    },
    {
      "inputs": [
        {
          "internalType": "uint256",
          "name": "",
          "type": "uint256"
        },
        {
          "internalType": "bytes32",
          "name": "",
          "type": "bytes32"
        }
      ],
      "name": "balaceRequestedTokens",
      "outputs": [
        {
          "internalType": "uint256",
          "name": "",
          "type": "uint256"
        }
      ],
      "stateMutability": "view",
      "type": "function"
    },
    {
      "inputs": [
        {
          "internalType": "address",
          "name": "",
          "type": "address"
        }
      ],
      "name": "businessContractsRegistry",
      "outputs": [
        {
          "internalType": "uint256",
          "name": "id",
          "type": "uint256"
        },
        {
          "internalType": "bool",
          "name": "isActive",
          "type": "bool"
        }
      ],
      "stateMutability": "view",
      "type": "function"
    },
    {
      "inputs": [
        {
          "internalType": "address",
          "name": "addr",
          "type": "address"
        }
      ],
      "name": "containsBusinessContract",
      "outputs": [
        {
          "internalType": "bool",
          "name": "",
          "type": "bool"
        }
      ],
      "stateMutability": "view",
      "type": "function"
    },
    {
      "inputs": [],
      "name": "decimals",
      "outputs": [
        {
          "internalType": "uint8",
          "name": "",
          "type": "uint8"
        }
      ],
      "stateMutability": "view",
      "type": "function"
    },
    {
      "inputs": [
        {
          "internalType": "address",
          "name": "addr",
          "type": "address"
        }
      ],
      "name": "getBusinessContractId",
      "outputs": [
        {
          "internalType": "uint256",
          "name": "",
          "type": "uint256"
        }
      ],
      "stateMutability": "view",
      "type": "function"
    },
    {
      "inputs": [
        {
          "internalType": "address",
          "name": "addr",
          "type": "address"
        }
      ],
      "name": "getBusinessContractIdAndOwnerId",
      "outputs": [
        {
          "internalType": "uint256",
          "name": "",
          "type": "uint256"
        },
        {
          "internalType": "uint256",
          "name": "",
          "type": "uint256"
        }
      ],
      "stateMutability": "view",
      "type": "function"
    },
    {
      "inputs": [],
      "name": "idCount",
      "outputs": [
        {
          "internalType": "uint256",
          "name": "",
          "type": "uint256"
        }
      ],
      "stateMutability": "view",
      "type": "function"
    },
    {
      "inputs": [
        {
          "internalType": "address",
          "name": "addr",
          "type": "address"
        }
      ],
      "name": "isBusinessContractActive",
      "outputs": [
        {
          "internalType": "bool",
          "name": "",
          "type": "bool"
        }
      ],
      "stateMutability": "view",
      "type": "function"
    },
    {
      "inputs": [],
      "name": "isOwner",
      "outputs": [
        {
          "internalType": "bool",
          "name": "",
          "type": "bool"
        }
      ],
      "stateMutability": "view",
      "type": "function"
    },
    {
      "inputs": [
        {
          "internalType": "address",
          "name": "account",
          "type": "address"
        }
      ],
      "name": "isPauser",
      "outputs": [
        {
          "internalType": "bool",
          "name": "",
          "type": "bool"
        }
      ],
      "stateMutability": "view",
      "type": "function"
    },
    {
      "inputs": [],
      "name": "owner",
      "outputs": [
        {
          "internalType": "address",
          "name": "",
          "type": "address"
        }
      ],
      "stateMutability": "view",
      "type": "function"
    },
    {
      "inputs": [],
      "name": "pause",
      "outputs": [],
      "stateMutability": "nonpayable",
      "type": "function"
    },
    {
      "inputs": [],
      "name": "paused",
      "outputs": [
        {
          "internalType": "bool",
          "name": "",
          "type": "bool"
        }
      ],
      "stateMutability": "view",
      "type": "function"
    },
    {
      "inputs": [
        {
          "internalType": "uint256",
          "name": "",
          "type": "uint256"
        },
        {
          "internalType": "uint256",
          "name": "",
          "type": "uint256"
        },
        {
          "internalType": "bytes32",
          "name": "",
          "type": "bytes32"
        }
      ],
      "name": "rbbBalances",
      "outputs": [
        {
          "internalType": "uint256",
          "name": "",
          "type": "uint256"
        }
      ],
      "stateMutability": "view",
      "type": "function"
    },
    {
      "inputs": [
        {
          "internalType": "address",
          "name": "businessContractAddr",
          "type": "address"
        }
      ],
      "name": "registerBusinessContract",
      "outputs": [
        {
          "internalType": "uint256",
          "name": "",
          "type": "uint256"
        }
      ],
      "stateMutability": "nonpayable",
      "type": "function"
    },
    {
      "inputs": [],
      "name": "registry",
      "outputs": [
        {
          "internalType": "contract RBBRegistry",
          "name": "",
          "type": "address"
        }
      ],
      "stateMutability": "view",
      "type": "function"
    },
    {
      "inputs": [],
      "name": "renounceOwnership",
      "outputs": [],
      "stateMutability": "nonpayable",
      "type": "function"
    },
    {
      "inputs": [],
      "name": "renouncePauser",
      "outputs": [],
      "stateMutability": "nonpayable",
      "type": "function"
    },
    {
      "inputs": [
        {
          "internalType": "address",
          "name": "addr",
          "type": "address"
        },
        {
          "internalType": "bool",
          "name": "status",
          "type": "bool"
        }
      ],
      "name": "setStatus",
      "outputs": [
        {
          "internalType": "bool",
          "name": "",
          "type": "bool"
        }
      ],
      "stateMutability": "nonpayable",
      "type": "function"
    },
    {
      "inputs": [
        {
          "internalType": "address",
          "name": "newOwner",
          "type": "address"
        }
      ],
      "name": "transferOwnership",
      "outputs": [],
      "stateMutability": "nonpayable",
      "type": "function"
    },
    {
      "inputs": [],
      "name": "unpause",
      "outputs": [],
      "stateMutability": "nonpayable",
      "type": "function"
    },
    {
      "inputs": [
        {
          "internalType": "bytes32",
          "name": "specificHash",
          "type": "bytes32"
        },
        {
          "internalType": "uint256",
          "name": "idInvestor",
          "type": "uint256"
        },
        {
          "internalType": "uint256",
          "name": "amount",
          "type": "uint256"
        }
      ],
      "name": "requestMint",
      "outputs": [],
      "stateMutability": "nonpayable",
      "type": "function"
    },
    {
      "inputs": [
        {
          "internalType": "address",
          "name": "businessContractAddr",
          "type": "address"
        },
        {
          "internalType": "bytes32",
          "name": "specificHash",
          "type": "bytes32"
        },
        {
          "internalType": "uint256",
          "name": "amount",
          "type": "uint256"
        },
        {
          "internalType": "string",
          "name": "docHash",
          "type": "string"
        },
        {
          "internalType": "string[]",
          "name": "data",
          "type": "string[]"
        }
      ],
      "name": "mint",
      "outputs": [],
      "stateMutability": "nonpayable",
      "type": "function"
    },
    {
      "inputs": [
        {
          "internalType": "uint256",
          "name": "amount",
          "type": "uint256"
        },
        {
          "internalType": "bytes32",
          "name": "hashToBurn",
          "type": "bytes32"
        }
      ],
      "name": "burn",
      "outputs": [],
      "stateMutability": "nonpayable",
      "type": "function"
    },
    {
      "inputs": [
        {
          "internalType": "address",
          "name": "businessContractAddr",
          "type": "address"
        },
        {
          "internalType": "bytes32",
          "name": "fromHash",
          "type": "bytes32"
        },
        {
          "internalType": "uint256",
          "name": "toId",
          "type": "uint256"
        },
        {
          "internalType": "bytes32",
          "name": "toHash",
          "type": "bytes32"
        },
        {
          "internalType": "uint256",
          "name": "amount",
          "type": "uint256"
        },
        {
          "internalType": "string[]",
          "name": "data",
          "type": "string[]"
        }
      ],
      "name": "transfer",
      "outputs": [],
      "stateMutability": "nonpayable",
      "type": "function"
    },
    {
      "inputs": [
        {
          "internalType": "address",
          "name": "businessContractAddr",
          "type": "address"
        },
        {
          "internalType": "uint256",
          "name": "fromId",
          "type": "uint256"
        },
        {
          "internalType": "bytes32",
          "name": "fromHash",
          "type": "bytes32"
        },
        {
          "internalType": "uint256",
          "name": "amount",
          "type": "uint256"
        },
        {
          "internalType": "string[]",
          "name": "data",
          "type": "string[]"
        }
      ],
      "name": "redeem",
      "outputs": [],
      "stateMutability": "nonpayable",
      "type": "function"
    },
    {
      "inputs": [
        {
          "internalType": "address",
          "name": "businessContractAddr",
          "type": "address"
        },
        {
          "internalType": "string",
          "name": "redemptionTransactionHash",
          "type": "string"
        },
        {
          "internalType": "string",
          "name": "receiptHash",
          "type": "string"
        },
        {
          "internalType": "string[]",
          "name": "data",
          "type": "string[]"
        }
      ],
      "name": "notifyRedemptionSettlement",
      "outputs": [],
      "stateMutability": "nonpayable",
      "type": "function"
    },
    {
      "inputs": [],
      "name": "getDecimals",
      "outputs": [
        {
          "internalType": "uint8",
          "name": "",
          "type": "uint8"
        }
      ],
      "stateMutability": "view",
      "type": "function"
    }
  ],
  "bytecode": "0x608060405260016003556002600560006101000a81548160ff021916908360ff1602179055503480156200003257600080fd5b5060405162004b4b38038062004b4b8339818101604052810190620000589190620003bc565b620000786200006c620001a760201b60201c565b620001af60201b60201c565b6000600160006101000a81548160ff0219169083151502179055506000620000a5620001a760201b60201c565b9050806001806101000a81548173ffffffffffffffffffffffffffffffffffffffff021916908373ffffffffffffffffffffffffffffffffffffffff1602179055508073ffffffffffffffffffffffffffffffffffffffff16600073ffffffffffffffffffffffffffffffffffffffff167f8be0079c531659141344cd1fd0a4f28419497f9722a3daafe3b4186f6b6457e060405160405180910390a35081600260006101000a81548173ffffffffffffffffffffffffffffffffffffffff021916908373ffffffffffffffffffffffffffffffffffffffff16021790555080600560006101000a81548160ff021916908360ff160217905550505062000571565b600033905090565b620001ca8160006200021060201b620025351790919060201c565b8073ffffffffffffffffffffffffffffffffffffffff167f6719d08c1888103bea251a4ed56406bd0c3e69723c8a1686e017e7bbe159b6f860405160405180910390a250565b620002228282620002c360201b60201c565b1562000265576040517f08c379a00000000000000000000000000000000000000000000000000000000081526004016200025c90620004a7565b60405180910390fd5b60018260000160008373ffffffffffffffffffffffffffffffffffffffff1673ffffffffffffffffffffffffffffffffffffffff16815260200190815260200160002060006101000a81548160ff0219169083151502179055505050565b60008073ffffffffffffffffffffffffffffffffffffffff168273ffffffffffffffffffffffffffffffffffffffff16141562000337576040517f08c379a00000000000000000000000000000000000000000000000000000000081526004016200032e90620004c9565b60405180910390fd5b8260000160008373ffffffffffffffffffffffffffffffffffffffff1673ffffffffffffffffffffffffffffffffffffffff16815260200190815260200160002060009054906101000a900460ff16905092915050565b6000815190506200039f816200053d565b92915050565b600081519050620003b68162000557565b92915050565b60008060408385031215620003d057600080fd5b6000620003e0858286016200038e565b9250506020620003f385828601620003a5565b9150509250929050565b60006200040c601f83620004eb565b91507f526f6c65733a206163636f756e7420616c72656164792068617320726f6c65006000830152602082019050919050565b60006200044e602283620004eb565b91507f526f6c65733a206163636f756e7420697320746865207a65726f20616464726560008301527f73730000000000000000000000000000000000000000000000000000000000006020830152604082019050919050565b60006020820190508181036000830152620004c281620003fd565b9050919050565b60006020820190508181036000830152620004e4816200043f565b9050919050565b600082825260208201905092915050565b6000620005098262000510565b9050919050565b600073ffffffffffffffffffffffffffffffffffffffff82169050919050565b600060ff82169050919050565b6200054881620004fc565b81146200055457600080fd5b50565b620005628162000530565b81146200056e57600080fd5b50565b6145ca80620005816000396000f3fe608060405234801561001057600080fd5b50600436106101cf5760003560e01c80638b214c0011610104578063bcf64e05116100a2578063e0ef4a6a11610071578063e0ef4a6a1461051c578063e6e4623814610538578063f0141d8414610556578063f2fde38b14610574576101cf565b8063bcf64e051461046f578063c5b2f6a91461048b578063cf13a0b5146104bc578063e0a08b73146104ec576101cf565b80638f32d59b116100de5780638f32d59b146103e957806396b7bb1c14610407578063b304f21c14610423578063b987afcb14610453576101cf565b80638b214c001461037e5780638da5cb5b146103af5780638f18ccdc146103cd576101cf565b80635c975abb116101715780637b1039991161014b5780637b1039991461030a57806382dc1ec4146103285780638456cb591461034457806388431f7a1461034e576101cf565b80635c975abb146102d85780636ef8d66d146102f6578063715018a614610300576101cf565b8063368ce3bd116101ad578063368ce3bd1461023e5780633f4ba83a1461026e57806346fbf68e1461027857806353d5f7cf146102a8576101cf565b8063173d34a8146101d457806330b49983146101f0578063313ce56714610220575b600080fd5b6101ee60048036038101906101e99190613017565b610590565b005b61020a600480360381019061020591906130cb565b6107a8565b6040516102179190614125565b60405180910390f35b6102286107da565b604051610235919061427d565b60405180910390f35b61025860048036038101906102539190612cb5565b6107ed565b6040516102659190614125565b60405180910390f35b610276610b21565b005b610292600480360381019061028d9190612cb5565b610c1a565b60405161029f9190613d31565b60405180910390f35b6102c260048036038101906102bd9190612cb5565b610c37565b6040516102cf9190613d31565b60405180910390f35b6102e0610d07565b6040516102ed9190613d31565b60405180910390f35b6102fe610d1e565b005b610308610d30565b005b610312610e35565b60405161031f9190613dba565b60405180910390f35b610342600480360381019061033d9190612cb5565b610e5b565b005b61034c610eb6565b005b61036860048036038101906103639190612cb5565b610faf565b6040516103759190613d31565b60405180910390f35b61039860048036038101906103939190612cb5565b61104b565b6040516103a692919061421d565b60405180910390f35b6103b7611258565b6040516103c49190613abd565b60405180910390f35b6103e760048036038101906103e29190612d43565b611280565b005b6103f16117d4565b6040516103fe9190613d31565b60405180910390f35b610421600480360381019061041c9190612f36565b611831565b005b61043d60048036038101906104389190612d07565b611ac4565b60405161044a9190613d31565b60405180910390f35b61046d60048036038101906104689190612e8b565b611c09565b005b6104896004803603810190610484919061308f565b611eae565b005b6104a560048036038101906104a09190612cb5565b611f66565b6040516104b3929190614140565b60405180910390f35b6104d660048036038101906104d1919061308f565b611f97565b6040516104e39190614125565b60405180910390f35b61050660048036038101906105019190612cb5565b611fbc565b6040516105139190614125565b60405180910390f35b61053660048036038101906105319190612de4565b61208c565b005b6105406124c5565b60405161054d9190614125565b60405180910390f35b61055e6124cb565b60405161056b919061427d565b60405180910390f35b61058e60048036038101906105899190612cb5565b6124e2565b005b61059933610faf565b6105d8576040517f08c379a00000000000000000000000000000000000000000000000000000000081526004016105cf90614025565b60405180910390fd5b6105e133610c37565b610620576040517f08c379a000000000000000000000000000000000000000000000000000000000815260040161061790614085565b60405180910390fd5b60008111610663576040517f08c379a000000000000000000000000000000000000000000000000000000000815260040161065a90613f45565b60405180910390fd5b600033905061067181610faf565b6106b0576040517f08c379a00000000000000000000000000000000000000000000000000000000081526004016106a7906140a5565b60405180910390fd5b6106b981610c37565b6106f8576040517f08c379a00000000000000000000000000000000000000000000000000000000081526004016106ef90613ea5565b60405180910390fd5b600061070382611fbc565b905061073c83600760008481526020019081526020016000206000888152602001908152602001600020546125dd90919063ffffffff16565b600760008381526020019081526020016000206000878152602001908152602001600020819055507f20e5c426031bbf4a72750a5a2e7ba9ac82d5a16e1d5ccb393e054ca494975485828686866040516107999493929190613b7d565b60405180910390a15050505050565b600660205282600052604060002060205281600052604060002060205280600052604060002060009250925050505481565b600560009054906101000a900460ff1681565b60006107f76117d4565b610836576040517f08c379a000000000000000000000000000000000000000000000000000000000815260040161082d90614005565b60405180910390fd5b61083f82610faf565b1561087f576040517f08c379a000000000000000000000000000000000000000000000000000000000815260040161087690613f05565b60405180910390fd5b60008290508073ffffffffffffffffffffffffffffffffffffffff16633dfdcfab600260009054906101000a900473ffffffffffffffffffffffffffffffffffffffff16306040518363ffffffff1660e01b81526004016108e1929190613af3565b600060405180830381600087803b1580156108fb57600080fd5b505af115801561090f573d6000803e3d6000fd5b5050505060008173ffffffffffffffffffffffffffffffffffffffff16638da5cb5b6040518163ffffffff1660e01b815260040160206040518083038186803b15801561095b57600080fd5b505afa15801561096f573d6000803e3d6000fd5b505050506040513d601f19601f820116820180604052508101906109939190612cde565b90506000600260009054906101000a900473ffffffffffffffffffffffffffffffffffffffff1673ffffffffffffffffffffffffffffffffffffffff166365f68c89836040518263ffffffff1660e01b81526004016109f29190613abd565b60206040518083038186803b158015610a0a57600080fd5b505afa158015610a1e573d6000803e3d6000fd5b505050506040513d601f19601f82011682018060405250810190610a429190613066565b90506040518060400160405280600354815260200160011515815250600460008773ffffffffffffffffffffffffffffffffffffffff1673ffffffffffffffffffffffffffffffffffffffff1681526020019081526020016000206000820151816000015560208201518160010160006101000a81548160ff0219169083151502179055509050507f20837d6e0b7236235210e8dcb5168dc3712b7652ca9b5f328e9aaecdd6f386cd6003548287604051610aff93929190614246565b60405180910390a1600360008154809291906001019190505550505050919050565b610b31610b2c612632565b610c1a565b610b70576040517f08c379a0000000000000000000000000000000000000000000000000000000008152600401610b6790613ec5565b60405180910390fd5b600160009054906101000a900460ff16610bbf576040517f08c379a0000000000000000000000000000000000000000000000000000000008152600401610bb690613e65565b60405180910390fd5b6000600160006101000a81548160ff0219169083151502179055507f5db9ee0a495bf2e6ff9c91a7834c1ba4fdd244a5e8aa4e537bd38aeae4b073aa610c03612632565b604051610c109190613ad8565b60405180910390a1565b6000610c3082600061263a90919063ffffffff16565b9050919050565b6000610c4282610faf565b610c81576040517f08c379a0000000000000000000000000000000000000000000000000000000008152600401610c7890613f65565b60405180910390fd5b610c89612b29565b600460008473ffffffffffffffffffffffffffffffffffffffff1673ffffffffffffffffffffffffffffffffffffffff168152602001908152602001600020604051806040016040529081600082015481526020016001820160009054906101000a900460ff16151515158152505090508060200151915050919050565b6000600160009054906101000a900460ff16905090565b610d2e610d29612632565b612702565b565b610d386117d4565b610d77576040517f08c379a0000000000000000000000000000000000000000000000000000000008152600401610d6e90614005565b60405180910390fd5b600073ffffffffffffffffffffffffffffffffffffffff1660018054906101000a900473ffffffffffffffffffffffffffffffffffffffff1673ffffffffffffffffffffffffffffffffffffffff167f8be0079c531659141344cd1fd0a4f28419497f9722a3daafe3b4186f6b6457e060405160405180910390a360006001806101000a81548173ffffffffffffffffffffffffffffffffffffffff021916908373ffffffffffffffffffffffffffffffffffffffff160217905550565b600260009054906101000a900473ffffffffffffffffffffffffffffffffffffffff1681565b610e6b610e66612632565b610c1a565b610eaa576040517f08c379a0000000000000000000000000000000000000000000000000000000008152600401610ea190613ec5565b60405180910390fd5b610eb38161275c565b50565b610ec6610ec1612632565b610c1a565b610f05576040517f08c379a0000000000000000000000000000000000000000000000000000000008152600401610efc90613ec5565b60405180910390fd5b600160009054906101000a900460ff1615610f55576040517f08c379a0000000000000000000000000000000000000000000000000000000008152600401610f4c90613fa5565b60405180910390fd5b60018060006101000a81548160ff0219169083151502179055507f62e78cea01bee320cd4e420270b5ea74000d11b0c9f74754ebdbfc544b05a258610f98612632565b604051610fa59190613ad8565b60405180910390a1565b6000610fb9612b29565b600460008473ffffffffffffffffffffffffffffffffffffffff1673ffffffffffffffffffffffffffffffffffffffff168152602001908152602001600020604051806040016040529081600082015481526020016001820160009054906101000a900460ff16151515158152505090506000816000015114611040576001915050611046565b60009150505b919050565b60008061105783610faf565b611096576040517f08c379a000000000000000000000000000000000000000000000000000000000815260040161108d90613f65565b60405180910390fd5b61109e612b29565b600460008573ffffffffffffffffffffffffffffffffffffffff1673ffffffffffffffffffffffffffffffffffffffff168152602001908152602001600020604051806040016040529081600082015481526020016001820160009054906101000a900460ff1615151515815250509050600084905060008173ffffffffffffffffffffffffffffffffffffffff16638da5cb5b6040518163ffffffff1660e01b815260040160206040518083038186803b15801561115c57600080fd5b505afa158015611170573d6000803e3d6000fd5b505050506040513d601f19601f820116820180604052508101906111949190612cde565b90506000600260009054906101000a900473ffffffffffffffffffffffffffffffffffffffff1673ffffffffffffffffffffffffffffffffffffffff166365f68c89836040518263ffffffff1660e01b81526004016111f39190613abd565b60206040518083038186803b15801561120b57600080fd5b505afa15801561121f573d6000803e3d6000fd5b505050506040513d601f19601f820116820180604052508101906112439190613066565b90508360000151819550955050505050915091565b600060018054906101000a900473ffffffffffffffffffffffffffffffffffffffff16905090565b600160009054906101000a900460ff16156112d0576040517f08c379a00000000000000000000000000000000000000000000000000000000081526004016112c790613fa5565b60405180910390fd5b6000600260009054906101000a900473ffffffffffffffffffffffffffffffffffffffff1673ffffffffffffffffffffffffffffffffffffffff166365f68c89336040518263ffffffff1660e01b815260040161132d9190613ad8565b60206040518083038186803b15801561134557600080fd5b505afa158015611359573d6000803e3d6000fd5b505050506040513d601f19601f8201168201806040525081019061137d9190613066565b905061138887610faf565b6113c7576040517f08c379a00000000000000000000000000000000000000000000000000000000081526004016113be906140a5565b60405180910390fd5b6113d087610c37565b61140f576040517f08c379a000000000000000000000000000000000000000000000000000000000815260040161140690613ea5565b60405180910390fd5b600260009054906101000a900473ffffffffffffffffffffffffffffffffffffffff1673ffffffffffffffffffffffffffffffffffffffff1663613a7896826040518263ffffffff1660e01b815260040161146a9190614125565b60206040518083038186803b15801561148257600080fd5b505afa158015611496573d6000803e3d6000fd5b505050506040513d601f19601f820116820180604052508101906114ba9190612fc5565b6114f9576040517f08c379a00000000000000000000000000000000000000000000000000000000081526004016114f0906140c5565b60405180910390fd5b600260009054906101000a900473ffffffffffffffffffffffffffffffffffffffff1673ffffffffffffffffffffffffffffffffffffffff1663613a7896866040518263ffffffff1660e01b81526004016115549190614125565b60206040518083038186803b15801561156c57600080fd5b505afa158015611580573d6000803e3d6000fd5b505050506040513d601f19601f820116820180604052508101906115a49190612fc5565b6115e3576040517f08c379a00000000000000000000000000000000000000000000000000000000081526004016115da90614105565b60405180910390fd5b60006115ee88611fbc565b905060008890508073ffffffffffffffffffffffffffffffffffffffff1663c596acc7848a8a8a8a8a6040518763ffffffff1660e01b8152600401611638969594939291906141b5565b600060405180830381600087803b15801561165257600080fd5b505af1158015611666573d6000803e3d6000fd5b505050506116cc8560405180606001604052806038815260200161455d6038913960066000868152602001908152602001600020600087815260200190815260200160002060008c8152602001908152602001600020546127b69092919063ffffffff16565b60066000848152602001908152602001600020600085815260200190815260200160002060008a81526020019081526020016000208190555061174d856006600085815260200190815260200160002060008a81526020019081526020016000206000898152602001908152602001600020546125dd90919063ffffffff16565b6006600084815260200190815260200160002060008981526020019081526020016000206000888152602001908152602001600020819055507f9fbb7cb56ecba529d9d3d69bf53e20211dc815c9b635ee45c263dd4101f0cbdd89848a8a8a8a8a6040516117c19796959493929190613cbb565b60405180910390a1505050505050505050565b600060018054906101000a900473ffffffffffffffffffffffffffffffffffffffff1673ffffffffffffffffffffffffffffffffffffffff16611815612632565b73ffffffffffffffffffffffffffffffffffffffff1614905090565b600160009054906101000a900460ff1615611881576040517f08c379a000000000000000000000000000000000000000000000000000000000815260040161187890613fa5565b60405180910390fd5b61188a85610faf565b6118c9576040517f08c379a00000000000000000000000000000000000000000000000000000000081526004016118c0906140a5565b60405180910390fd5b6118d285610c37565b611911576040517f08c379a000000000000000000000000000000000000000000000000000000000815260040161190890613fe5565b60405180910390fd5b600260009054906101000a900473ffffffffffffffffffffffffffffffffffffffff1673ffffffffffffffffffffffffffffffffffffffff1663613a7896856040518263ffffffff1660e01b815260040161196c9190614125565b60206040518083038186803b15801561198457600080fd5b505afa158015611998573d6000803e3d6000fd5b505050506040513d601f19601f820116820180604052508101906119bc9190612fc5565b6119fb576040517f08c379a00000000000000000000000000000000000000000000000000000000081526004016119f2906140e5565b60405180910390fd5b60008590508073ffffffffffffffffffffffffffffffffffffffff1663c92f4eb0868686866040518563ffffffff1660e01b8152600401611a3f9493929190614169565b600060405180830381600087803b158015611a5957600080fd5b505af1158015611a6d573d6000803e3d6000fd5b505050507f6e812c2818181269bc8b7b868519e62a203a792b53f99e06c8b2357d01e86d9c8686868686604051611aa8959493929190613c61565b60405180910390a1611abc86868686612811565b505050505050565b6000611ace6117d4565b611b0d576040517f08c379a0000000000000000000000000000000000000000000000000000000008152600401611b0490614005565b60405180910390fd5b611b1683610faf565b611b55576040517f08c379a0000000000000000000000000000000000000000000000000000000008152600401611b4c90613f65565b60405180910390fd5b6000600460008573ffffffffffffffffffffffffffffffffffffffff1673ffffffffffffffffffffffffffffffffffffffff1681526020019081526020016000209050828160010160006101000a81548160ff0219169083151502179055507f28a61818d188a7856821431ff0deb7650c2cc34ee4b7b97616a415fa0a3dfeff81600001548260010160009054906101000a900460ff16604051611bfa929190614140565b60405180910390a15092915050565b600160009054906101000a900460ff1615611c59576040517f08c379a0000000000000000000000000000000000000000000000000000000008152600401611c5090613fa5565b60405180910390fd5b611c616117d4565b611ca0576040517f08c379a0000000000000000000000000000000000000000000000000000000008152600401611c9790614005565b60405180910390fd5b611ca984610faf565b611ce8576040517f08c379a0000000000000000000000000000000000000000000000000000000008152600401611cdf906140a5565b60405180910390fd5b611cf184610c37565b611d30576040517f08c379a0000000000000000000000000000000000000000000000000000000008152600401611d2790613fe5565b60405180910390fd5b73__RBBLib________________________________636edcb12f836040518263ffffffff1660e01b8152600401611d679190613dd5565b60206040518083038186803b158015611d7f57600080fd5b505af4158015611d93573d6000803e3d6000fd5b505050506040513d601f19601f82011682018060405250810190611db79190612fc5565b611df6576040517f08c379a0000000000000000000000000000000000000000000000000000000008152600401611ded90613f85565b60405180910390fd5b60008490508073ffffffffffffffffffffffffffffffffffffffff1663bc0077638585856040518463ffffffff1660e01b8152600401611e3893929190613e19565b600060405180830381600087803b158015611e5257600080fd5b505af1158015611e66573d6000803e3d6000fd5b505050507f2f2fd572c80ae93bda9f55fe54d703939c0eebc4bc2c5d24a4a1e3dcf23f469f85858585604051611e9f9493929190613bc2565b60405180910390a15050505050565b611eb733610faf565b611ef6576040517f08c379a0000000000000000000000000000000000000000000000000000000008152600401611eed90614025565b60405180910390fd5b611eff33610c37565b611f3e576040517f08c379a0000000000000000000000000000000000000000000000000000000008152600401611f3590614085565b60405180910390fd5b6000339050600080611f4f8361104b565b91509150611f5f83828688612811565b5050505050565b60046020528060005260406000206000915090508060000154908060010160009054906101000a900460ff16905082565b6007602052816000526040600020602052806000526040600020600091509150505481565b6000611fc782610faf565b612006576040517f08c379a0000000000000000000000000000000000000000000000000000000008152600401611ffd90613f65565b60405180910390fd5b61200e612b29565b600460008473ffffffffffffffffffffffffffffffffffffffff1673ffffffffffffffffffffffffffffffffffffffff168152602001908152602001600020604051806040016040529081600082015481526020016001820160009054906101000a900460ff16151515158152505090508060000151915050919050565b6120946117d4565b6120d3576040517f08c379a00000000000000000000000000000000000000000000000000000000081526004016120ca90614005565b60405180910390fd5b6120dc85610faf565b61211b576040517f08c379a0000000000000000000000000000000000000000000000000000000008152600401612112906140a5565b60405180910390fd5b61212485610c37565b612163576040517f08c379a000000000000000000000000000000000000000000000000000000000815260040161215a90613ea5565b60405180910390fd5b600083116121a6576040517f08c379a000000000000000000000000000000000000000000000000000000000815260040161219d90614065565b60405180910390fd5b73__RBBLib________________________________636edcb12f836040518263ffffffff1660e01b81526004016121dd9190613dd5565b60206040518083038186803b1580156121f557600080fd5b505af4158015612209573d6000803e3d6000fd5b505050506040513d601f19601f8201168201806040525081019061222d9190612fc5565b61226c576040517f08c379a000000000000000000000000000000000000000000000000000000000815260040161226390613f85565b60405180910390fd5b6000806122788761104b565b915091506122cd856040518060600160405280602981526020016144f9602991396007600086815260200190815260200160002060008a8152602001908152602001600020546127b69092919063ffffffff16565b60076000848152602001908152602001600020600088815260200190815260200160002081905550600087905060008173ffffffffffffffffffffffffffffffffffffffff1663cd541b7a896040518263ffffffff1660e01b81526004016123359190613d4c565b602060405180830381600087803b15801561234f57600080fd5b505af1158015612363573d6000803e3d6000fd5b505050506040513d601f19601f820116820180604052508101906123879190612fee565b90506123d1876006600087815260200190815260200160002060008681526020019081526020016000206000848152602001908152602001600020546125dd90919063ffffffff16565b6006600086815260200190815260200160002060008581526020019081526020016000206000838152602001908152602001600020819055508173ffffffffffffffffffffffffffffffffffffffff16636b4dd41f8989888a6040518563ffffffff1660e01b81526004016124499493929190613d67565b600060405180830381600087803b15801561246357600080fd5b505af1158015612477573d6000803e3d6000fd5b505050507fef1c42fc8b3e4dbc907ef5506ed8fbfd24e2102fb73b3e66bccf15def6bb4fd889898989896040516124b2959493929190613b1c565b60405180910390a1505050505050505050565b60035481565b6000600560009054906101000a900460ff16905090565b6124ea6117d4565b612529576040517f08c379a000000000000000000000000000000000000000000000000000000000815260040161252090614005565b60405180910390fd5b61253281612955565b50565b61253f828261263a565b1561257f576040517f08c379a000000000000000000000000000000000000000000000000000000000815260040161257690613e85565b60405180910390fd5b60018260000160008373ffffffffffffffffffffffffffffffffffffffff1673ffffffffffffffffffffffffffffffffffffffff16815260200190815260200160002060006101000a81548160ff0219169083151502179055505050565b600080828401905083811015612628576040517f08c379a000000000000000000000000000000000000000000000000000000000815260040161261f90613f25565b60405180910390fd5b8091505092915050565b600033905090565b60008073ffffffffffffffffffffffffffffffffffffffff168273ffffffffffffffffffffffffffffffffffffffff1614156126ab576040517f08c379a00000000000000000000000000000000000000000000000000000000081526004016126a290614045565b60405180910390fd5b8260000160008373ffffffffffffffffffffffffffffffffffffffff1673ffffffffffffffffffffffffffffffffffffffff16815260200190815260200160002060009054906101000a900460ff16905092915050565b612716816000612a8290919063ffffffff16565b8073ffffffffffffffffffffffffffffffffffffffff167fcd265ebaf09df2871cc7bd4133404a235ba12eff2041bb89d9c714a2621c7c7e60405160405180910390a250565b61277081600061253590919063ffffffff16565b8073ffffffffffffffffffffffffffffffffffffffff167f6719d08c1888103bea251a4ed56406bd0c3e69723c8a1686e017e7bbe159b6f860405160405180910390a250565b60008383111582906127fe576040517f08c379a00000000000000000000000000000000000000000000000000000000081526004016127f59190613df7565b60405180910390fd5b5060008385039050809150509392505050565b61281a84610faf565b612859576040517f08c379a0000000000000000000000000000000000000000000000000000000008152600401612850906140a5565b60405180910390fd5b61286284610c37565b6128a1576040517f08c379a000000000000000000000000000000000000000000000000000000000815260040161289890613fe5565b60405180910390fd5b60006128ac85611fbc565b9050612910826040518060600160405280603b8152602001614522603b91396006600085815260200190815260200160002060008881526020019081526020016000206000878152602001908152602001600020546127b69092919063ffffffff16565b507fbb1ad37219830377dfb06065e971d1cb26d7099497b73445398977b1ccc99c86858585856040516129469493929190613c1c565b60405180910390a15050505050565b600073ffffffffffffffffffffffffffffffffffffffff168173ffffffffffffffffffffffffffffffffffffffff1614156129c5576040517f08c379a00000000000000000000000000000000000000000000000000000000081526004016129bc90613ee5565b60405180910390fd5b8073ffffffffffffffffffffffffffffffffffffffff1660018054906101000a900473ffffffffffffffffffffffffffffffffffffffff1673ffffffffffffffffffffffffffffffffffffffff167f8be0079c531659141344cd1fd0a4f28419497f9722a3daafe3b4186f6b6457e060405160405180910390a3806001806101000a81548173ffffffffffffffffffffffffffffffffffffffff021916908373ffffffffffffffffffffffffffffffffffffffff16021790555050565b612a8c828261263a565b612acb576040517f08c379a0000000000000000000000000000000000000000000000000000000008152600401612ac290613fc5565b60405180910390fd5b60008260000160008373ffffffffffffffffffffffffffffffffffffffff1673ffffffffffffffffffffffffffffffffffffffff16815260200190815260200160002060006101000a81548160ff0219169083151502179055505050565b6040518060400160405280600081526020016000151581525090565b600081359050612b548161449c565b92915050565b600081519050612b698161449c565b92915050565b600082601f830112612b8057600080fd5b8135612b93612b8e826142c5565b614298565b9150818183526020840193506020810190508360005b83811015612bd95781358601612bbf8882612c37565b845260208401935060208301925050600181019050612ba9565b5050505092915050565b600081359050612bf2816144b3565b92915050565b600081519050612c07816144b3565b92915050565b600081359050612c1c816144ca565b92915050565b600081519050612c31816144ca565b92915050565b600082601f830112612c4857600080fd5b8135612c5b612c56826142ed565b614298565b91508082526020830160208301858383011115612c7757600080fd5b612c82838284614449565b50505092915050565b600081359050612c9a816144e1565b92915050565b600081519050612caf816144e1565b92915050565b600060208284031215612cc757600080fd5b6000612cd584828501612b45565b91505092915050565b600060208284031215612cf057600080fd5b6000612cfe84828501612b5a565b91505092915050565b60008060408385031215612d1a57600080fd5b6000612d2885828601612b45565b9250506020612d3985828601612be3565b9150509250929050565b60008060008060008060c08789031215612d5c57600080fd5b6000612d6a89828a01612b45565b9650506020612d7b89828a01612c0d565b9550506040612d8c89828a01612c8b565b9450506060612d9d89828a01612c0d565b9350506080612dae89828a01612c8b565b92505060a087013567ffffffffffffffff811115612dcb57600080fd5b612dd789828a01612b6f565b9150509295509295509295565b600080600080600060a08688031215612dfc57600080fd5b6000612e0a88828901612b45565b9550506020612e1b88828901612c0d565b9450506040612e2c88828901612c8b565b935050606086013567ffffffffffffffff811115612e4957600080fd5b612e5588828901612c37565b925050608086013567ffffffffffffffff811115612e7257600080fd5b612e7e88828901612b6f565b9150509295509295909350565b60008060008060808587031215612ea157600080fd5b6000612eaf87828801612b45565b945050602085013567ffffffffffffffff811115612ecc57600080fd5b612ed887828801612c37565b935050604085013567ffffffffffffffff811115612ef557600080fd5b612f0187828801612c37565b925050606085013567ffffffffffffffff811115612f1e57600080fd5b612f2a87828801612b6f565b91505092959194509250565b600080600080600060a08688031215612f4e57600080fd5b6000612f5c88828901612b45565b9550506020612f6d88828901612c8b565b9450506040612f7e88828901612c0d565b9350506060612f8f88828901612c8b565b925050608086013567ffffffffffffffff811115612fac57600080fd5b612fb888828901612b6f565b9150509295509295909350565b600060208284031215612fd757600080fd5b6000612fe584828501612bf8565b91505092915050565b60006020828403121561300057600080fd5b600061300e84828501612c22565b91505092915050565b60008060006060848603121561302c57600080fd5b600061303a86828701612c0d565b935050602061304b86828701612c8b565b925050604061305c86828701612c8b565b9150509250925092565b60006020828403121561307857600080fd5b600061308684828501612ca0565b91505092915050565b600080604083850312156130a257600080fd5b60006130b085828601612c8b565b92505060206130c185828601612c0d565b9150509250929050565b6000806000606084860312156130e057600080fd5b60006130ee86828701612c8b565b93505060206130ff86828701612c8b565b925050604061311086828701612c0d565b9150509250925092565b600061312683836131ee565b905092915050565b613137816143ef565b82525050565b61314681614390565b82525050565b600061315782614329565b613161818561434c565b93508360208202850161317385614319565b8060005b858110156131af5784840389528151613190858261311a565b945061319b8361433f565b925060208a01995050600181019050613177565b50829750879550505050505092915050565b6131ca816143a2565b82525050565b6131d9816143ae565b82525050565b6131e881614401565b82525050565b60006131f982614334565b613203818561435d565b9350613213818560208601614458565b61321c8161448b565b840191505092915050565b600061323282614334565b61323c818561436e565b935061324c818560208601614458565b6132558161448b565b840191505092915050565b600061326b82614334565b613275818561437f565b9350613285818560208601614458565b61328e8161448b565b840191505092915050565b60006132a660148361436e565b91507f5061757361626c653a206e6f74207061757365640000000000000000000000006000830152602082019050919050565b60006132e6601f8361436e565b91507f526f6c65733a206163636f756e7420616c72656164792068617320726f6c65006000830152602082019050919050565b600061332660258361436e565b91507f436f6e747261746f206573706563c3ad6669636f206ec3a36f20657374c3a12060008301527f617469766f0000000000000000000000000000000000000000000000000000006020830152604082019050919050565b600061338c60308361436e565b91507f506175736572526f6c653a2063616c6c657220646f6573206e6f74206861766560008301527f207468652050617573657220726f6c65000000000000000000000000000000006020830152604082019050919050565b60006133f260268361436e565b91507f4f776e61626c653a206e6577206f776e657220697320746865207a65726f206160008301527f64647265737300000000000000000000000000000000000000000000000000006020830152604082019050919050565b600061345860178361436e565b91507f436f6e747261746f206ac3a1207265676973747261646f0000000000000000006000830152602082019050919050565b6000613498601b8361436e565b91507f536166654d6174683a206164646974696f6e206f766572666c6f7700000000006000830152602082019050919050565b60006134d860358361436e565b91507f56616c6f72206120736572207472616e736163696f6e61646f2064657665207360008301527f6572206d61696f7220646f20717565207a65726f2e00000000000000000000006020830152604082019050919050565b600061353e60228361436e565b91507f436f6e747261746f206465206e65676f63696f206e616f20726567697374726160008301527f646f0000000000000000000000000000000000000000000000000000000000006020830152604082019050919050565b60006135a460248361436e565b91507f4f206861736820646120636f6d70726f7661c3a7c3a36f20c3a920696e76c3a160008301527f6c69646f000000000000000000000000000000000000000000000000000000006020830152604082019050919050565b600061360a60108361436e565b91507f5061757361626c653a20706175736564000000000000000000000000000000006000830152602082019050919050565b600061364a60218361436e565b91507f526f6c65733a206163636f756e7420646f6573206e6f74206861766520726f6c60008301527f65000000000000000000000000000000000000000000000000000000000000006020830152604082019050919050565b60006136b0602c8361436e565b91507f436f6e747261746f207072656369736120657374617220617469766f2070617260008301527f61206861766572206275726e00000000000000000000000000000000000000006020830152604082019050919050565b600061371660208361436e565b91507f4f776e61626c653a2063616c6c6572206973206e6f7420746865206f776e65726000830152602082019050919050565b6000613756604c8361436e565b91507f4dc3a9746f646f2073c3b320706f646520736572206368616d61646f20706f7260008301527f20636f6e747261746f206465206e6567c3b363696f207072657669616d656e7460208301527f65206361646173747261646f00000000000000000000000000000000000000006040830152606082019050919050565b60006137e260228361436e565b91507f526f6c65733a206163636f756e7420697320746865207a65726f20616464726560008301527f73730000000000000000000000000000000000000000000000000000000000006020830152604082019050919050565b600061384860298361436e565b91507f56616c6f722061206d696e746172206465766520736572206d61696f7220646f60008301527f20717565207a65726f00000000000000000000000000000000000000000000006020830152604082019050919050565b60006138ae603b8361436e565b91507f4dc3a9746f646f2073c3b320706f646520736572206368616d61646f20706f7260008301527f20636f6e747261746f206465206e6567c3b363696f20617469766f00000000006020830152604082019050919050565b6000613914602a8361436e565b91507f436f6e747261746f206573706563c3ad6669636f206ec3a36f20657374c3a12060008301527f7265676973747261646f000000000000000000000000000000000000000000006020830152604082019050919050565b600061397a60338361436e565b91507f436f6e7461206465206f726967656d207072656369736120657374617220636f60008301527f6d20636164617374726f2076616c696461646f000000000000000000000000006020830152604082019050919050565b60006139e0603f8361436e565b91507f436f6e746120736f6c69636974616e746520646f2072656465656d207072656360008301527f69736120657374617220636f6d20636164617374726f2076616c696461646f006020830152604082019050919050565b6000613a4660348361436e565b91507f436f6e74612064652064657374696e6f2070726563697361206573746172206360008301527f6f6d20636164617374726f2076616c696461646f0000000000000000000000006020830152604082019050919050565b613aa8816143d8565b82525050565b613ab7816143e2565b82525050565b6000602082019050613ad2600083018461313d565b92915050565b6000602082019050613aed600083018461312e565b92915050565b6000604082019050613b08600083018561313d565b613b15602083018461313d565b9392505050565b600060a082019050613b31600083018861313d565b613b3e60208301876131d0565b613b4b6040830186613a9f565b8181036060830152613b5d8185613227565b90508181036080830152613b71818461314c565b90509695505050505050565b6000608082019050613b92600083018761313d565b613b9f60208301866131d0565b613bac6040830185613a9f565b613bb96060830184613a9f565b95945050505050565b6000608082019050613bd7600083018761313d565b8181036020830152613be98186613227565b90508181036040830152613bfd8185613227565b90508181036060830152613c11818461314c565b905095945050505050565b6000608082019050613c31600083018761313d565b613c3e6020830186613a9f565b613c4b60408301856131d0565b613c586060830184613a9f565b95945050505050565b600060a082019050613c76600083018861313d565b613c836020830187613a9f565b613c9060408301866131d0565b613c9d6060830185613a9f565b8181036080830152613caf818461314c565b90509695505050505050565b600060e082019050613cd0600083018a61313d565b613cdd6020830189613a9f565b613cea60408301886131d0565b613cf76060830187613a9f565b613d0460808301866131d0565b613d1160a0830185613a9f565b81810360c0830152613d23818461314c565b905098975050505050505050565b6000602082019050613d4660008301846131c1565b92915050565b6000602082019050613d6160008301846131d0565b92915050565b6000608082019050613d7c60008301876131d0565b613d896020830186613a9f565b8181036040830152613d9b818561314c565b90508181036060830152613daf8184613227565b905095945050505050565b6000602082019050613dcf60008301846131df565b92915050565b60006020820190508181036000830152613def8184613260565b905092915050565b60006020820190508181036000830152613e118184613227565b905092915050565b60006060820190508181036000830152613e338186613227565b90508181036020830152613e478185613227565b90508181036040830152613e5b818461314c565b9050949350505050565b60006020820190508181036000830152613e7e81613299565b9050919050565b60006020820190508181036000830152613e9e816132d9565b9050919050565b60006020820190508181036000830152613ebe81613319565b9050919050565b60006020820190508181036000830152613ede8161337f565b9050919050565b60006020820190508181036000830152613efe816133e5565b9050919050565b60006020820190508181036000830152613f1e8161344b565b9050919050565b60006020820190508181036000830152613f3e8161348b565b9050919050565b60006020820190508181036000830152613f5e816134cb565b9050919050565b60006020820190508181036000830152613f7e81613531565b9050919050565b60006020820190508181036000830152613f9e81613597565b9050919050565b60006020820190508181036000830152613fbe816135fd565b9050919050565b60006020820190508181036000830152613fde8161363d565b9050919050565b60006020820190508181036000830152613ffe816136a3565b9050919050565b6000602082019050818103600083015261401e81613709565b9050919050565b6000602082019050818103600083015261403e81613749565b9050919050565b6000602082019050818103600083015261405e816137d5565b9050919050565b6000602082019050818103600083015261407e8161383b565b9050919050565b6000602082019050818103600083015261409e816138a1565b9050919050565b600060208201905081810360008301526140be81613907565b9050919050565b600060208201905081810360008301526140de8161396d565b9050919050565b600060208201905081810360008301526140fe816139d3565b9050919050565b6000602082019050818103600083015261411e81613a39565b9050919050565b600060208201905061413a6000830184613a9f565b92915050565b60006040820190506141556000830185613a9f565b61416260208301846131c1565b9392505050565b600060808201905061417e6000830187613a9f565b61418b60208301866131d0565b6141986040830185613a9f565b81810360608301526141aa818461314c565b905095945050505050565b600060c0820190506141ca6000830189613a9f565b6141d760208301886131d0565b6141e46040830187613a9f565b6141f160608301866131d0565b6141fe6080830185613a9f565b81810360a0830152614210818461314c565b9050979650505050505050565b60006040820190506142326000830185613a9f565b61423f6020830184613a9f565b9392505050565b600060608201905061425b6000830186613a9f565b6142686020830185613a9f565b614275604083018461313d565b949350505050565b60006020820190506142926000830184613aae565b92915050565b6000604051905081810181811067ffffffffffffffff821117156142bb57600080fd5b8060405250919050565b600067ffffffffffffffff8211156142dc57600080fd5b602082029050602081019050919050565b600067ffffffffffffffff82111561430457600080fd5b601f19601f8301169050602081019050919050565b6000819050602082019050919050565b600081519050919050565b600081519050919050565b6000602082019050919050565b600082825260208201905092915050565b600082825260208201905092915050565b600082825260208201905092915050565b600082825260208201905092915050565b600061439b826143b8565b9050919050565b60008115159050919050565b6000819050919050565b600073ffffffffffffffffffffffffffffffffffffffff82169050919050565b6000819050919050565b600060ff82169050919050565b60006143fa82614425565b9050919050565b600061440c82614413565b9050919050565b600061441e826143b8565b9050919050565b600061443082614437565b9050919050565b6000614442826143b8565b9050919050565b82818337600083830152505050565b60005b8381101561447657808201518184015260208101905061445b565b83811115614485576000848401525b50505050565b6000601f19601f8301169050919050565b6144a581614390565b81146144b057600080fd5b50565b6144bc816143a2565b81146144c757600080fd5b50565b6144d3816143ae565b81146144de57600080fd5b50565b6144ea816143d8565b81146144f557600080fd5b5056fe546f74616c20646520656d697373c3a36f206578636564652076616c6f7220736f6c6963697461646f546f74616c20646520746f6b656e73206120736572656d20717565696d61646f7320c3a9206d61696f7220646f20717565206f2062616c616e636553616c646f206461206f726967656d206ec3a36f20c3a920737566696369656e746520706172612061207472616e73666572c3aa6e636961a26469706673582212207dd98612a957efad5ab15b6f5c908149baa8a27f14a301ce6277de031cc0d62f64736f6c634300060c0033",
  "immutableReferences": {},
  "source": "pragma solidity ^0.6.0;\npragma experimental ABIEncoderV2;\n\n\nimport \"./RBBLib.sol\";\nimport \"./RBBRegistry.sol\";\nimport \"./SpecificRBBToken.sol\";\nimport \"@openzeppelin/contracts/ownership/Ownable.sol\";\nimport \"@openzeppelin/contracts/lifecycle/Pausable.sol\";\nimport \"@openzeppelin/contracts/math/SafeMath.sol\";\n\n//TODO: framework de mudanca e como incluir um business contract com um id especfico\n//TODO: avaliar se precisa ter totalSupply de cada contrato ou outras info derivadas para aumentar programabilidade\ncontract BusinessContractRegistry is Ownable {\n\n    RBBRegistry public registry;\n\n    //It starts with 1, because 0 is the id value returned when the item is not found in the businessContractsRegistry\n    uint public idCount = 1;\n\n    struct BusinessContractInfo {\n        uint id;\n        bool isActive;\n    }\n\n    event BusinessContractRegistration (uint id, uint ownerId, address addr);\n    event BusinessContractStateChange (uint id, bool state);\n\n    //indexado pelo address pq serah a forma mais usada para consulta.\n    mapping (address => BusinessContractInfo) public businessContractsRegistry;\n\n    modifier onlyByRegisteredAndActiveContracts {\n        require(containsBusinessContract(msg.sender), \"Mtodo s pode ser chamado por contrato de negcio previamente cadastrado\");\n        require(isBusinessContractActive(msg.sender), \"Mtodo s pode ser chamado por contrato de negcio ativo\");\n        _;\n    }\n\n    function registerBusinessContract (address businessContractAddr) public onlyOwner returns (uint)  {\n        require (!containsBusinessContract(businessContractAddr), \"Contrato j registrado\");\n\n        SpecificRBBToken specificContract = SpecificRBBToken(businessContractAddr);\n        specificContract.setInitializationDataDuringRegistration(address(registry), address(this));\n        address scOwnerAddr = specificContract.owner();\n        uint scOwnerId = registry.getId(scOwnerAddr);\n\n\n        businessContractsRegistry[businessContractAddr] = BusinessContractInfo(idCount, true);\n        emit BusinessContractRegistration (idCount, scOwnerId, businessContractAddr);\n        idCount++;\n    }\n\n    function getBusinessContractId (address addr) public view returns (uint) {\n        require (containsBusinessContract(addr), \"Contrato de negocio nao registrado\");\n        BusinessContractInfo memory info = businessContractsRegistry[addr];\n        return info.id;\n    }\n\n    function getBusinessContractIdAndOwnerId (address addr) public view returns (uint, uint) {\n        require (containsBusinessContract(addr), \"Contrato de negocio nao registrado\");\n        BusinessContractInfo memory info = businessContractsRegistry[addr];\n        SpecificRBBToken specificContract = SpecificRBBToken(addr);\n        address scOwnerAddr = specificContract.owner();\n        uint scOwnerId = registry.getId(scOwnerAddr);\n\n        return (info.id, scOwnerId);\n    }\n    \n    function containsBusinessContract(address addr) public view returns (bool) {\n        BusinessContractInfo memory info = businessContractsRegistry[addr];\n        if (info.id!=0) return true;\n        else return false;\n    }\n\n    function isBusinessContractActive(address addr) public view returns (bool) {\n        require (containsBusinessContract(addr), \"Contrato de negocio nao registrado\");\n        BusinessContractInfo memory info = businessContractsRegistry[addr];\n        return info.isActive;\n    }\n\n    function setStatus(address addr, bool status) public onlyOwner returns (bool) {\n        require (containsBusinessContract(addr), \"Contrato de negocio nao registrado\");\n        BusinessContractInfo storage info = businessContractsRegistry[addr];\n        info.isActive = status;\n        emit BusinessContractStateChange(info.id, info.isActive);\n    }\n}\n\ncontract RBBToken is Pausable, BusinessContractRegistry {\n\n    using SafeMath for uint;\n\n    uint8 public decimals = 2;\n\n    //businessContractId => (RBBid => (specificHash => amount)\n    mapping (uint => mapping (uint => mapping (bytes32 => uint))) public rbbBalances;\n\n    //businessContractId => (specificHash => amount)\n    mapping (uint => mapping (bytes32 => uint)) public balaceRequestedTokens;\n\n    event RBBTokenMintRequest(address businessContractAddr, bytes32 specificHash, uint idInvestor, uint amount);\n    event RBBTokenMint(address businessContractAddr, bytes32 specificHash, uint amount, string docHash, string[] data);\n    event RBBTokenBurn(address businessContractAddr, uint fromId, bytes32 fromHash, uint amount);\n    event RBBTokenTransfer (address businessContractAddr, uint fromId, bytes32 fromHash, uint toId,\n                            bytes32 toHash, uint amount, string[] data);\n    event RBBTokenRedemptionRequested (address businessContractAddr, uint fromId, bytes32 fromHash, \n                            uint amount, string[] data);\n    event RBBTokenRedemptionSettlement(address businessContractAddr, string redemptionTransactionHash, \n                            string receiptHash, string[] data);\n\n\n    constructor (address newRegistryAddr, uint8 _decimals) public {\n        registry = RBBRegistry(newRegistryAddr);\n        decimals = _decimals;\n    }\n\n\n\n///******************************************************************* */\n\n//TODO: incluir novo hash aqui?\n    function requestMint(bytes32 specificHash, uint idInvestor, uint amount) public onlyByRegisteredAndActiveContracts {\n    \n        require (amount>0, \"Valor a ser transacionado deve ser maior do que zero.\");\n        address businessContractAddr = msg.sender;\n\n        require(containsBusinessContract(businessContractAddr), \"Contrato especfico no est registrado\");\n        require(isBusinessContractActive(businessContractAddr), \"Contrato especfico no est ativo\");\n\n        uint businessContractId = getBusinessContractId(businessContractAddr);\n\n        balaceRequestedTokens[businessContractId][specificHash] = \n            balaceRequestedTokens[businessContractId][specificHash].add(amount);\n    \n        emit RBBTokenMintRequest(businessContractAddr, specificHash, idInvestor, amount);\n\n    }\n\n    function mint(address businessContractAddr, bytes32 specificHash, uint amount, string memory docHash,\n        string[] memory data) public onlyOwner {\n\n        require(containsBusinessContract(businessContractAddr), \"Contrato especfico no est registrado\");\n        require(isBusinessContractActive(businessContractAddr), \"Contrato especfico no est ativo\");\n        require(amount>0, \"Valor a mintar deve ser maior do que zero\");\n\n        require (RBBLib.isValidHash(docHash), \"O hash da comprovao  invlido\");\n\n        (uint businessContractId, uint businessContractOwnerId) = \n                    getBusinessContractIdAndOwnerId(businessContractAddr);\n\n        balaceRequestedTokens[businessContractId][specificHash] \n            = balaceRequestedTokens[businessContractId][specificHash].sub(amount, \"Total de emisso excede valor solicitado\");\n\n        SpecificRBBToken specificContract = SpecificRBBToken(businessContractAddr);\n        bytes32 calcHash = specificContract.getHashToMintedAccount(specificHash);\n\n        rbbBalances[businessContractId][businessContractOwnerId][calcHash] = \n            rbbBalances[businessContractId][businessContractOwnerId][calcHash].add(amount);\n\n        specificContract.verifyAndActForMint(specificHash, amount, data, docHash);\n\n        emit RBBTokenMint(businessContractAddr, specificHash, amount, docHash, data);\n    }\n\n/*\n    function burn (address businessContractAddr, uint amount) public onlyOwner {\n\n        (uint businessContractId, uint businessContractOwnerId) = \n                    getBusinessContractIdAndOwnerId(businessContractAddr);\n        \n        _burn(businessContractAddr, businessContractOwnerId, RESERVED_HASH_VALUE, amount);\n\n    }\n*/\n\n//TODO: avaliar se qq um poderia queimar o seu dinheiro (e nao apenas contratos)\n    function burn (uint amount, bytes32 hashToBurn) public onlyByRegisteredAndActiveContracts {\n\n        address businessContractAddr = msg.sender;\n        (uint businessContractId, uint businessContractOwnerId) = \n                    getBusinessContractIdAndOwnerId(businessContractAddr);\n        \n        _burn(businessContractAddr, businessContractOwnerId, hashToBurn, amount);\n\n    }\n\n    function _burn(address businessContractAddr, uint fromId, bytes32 fromHash, uint amount) internal {\n        \n        require(containsBusinessContract(businessContractAddr), \"Contrato especfico no est registrado\");\n        require(isBusinessContractActive(businessContractAddr), \"Contrato precisa estar ativo para haver burn\");\n//        require(amount>0, \"Valor a queimar deve ser maior do que zero\");\n\n        uint businessContractId = getBusinessContractId(businessContractAddr);\n\n        rbbBalances[businessContractId][fromId][fromHash].sub(amount, \"Total de tokens a serem queimados  maior do que o balance\");\n\n        emit RBBTokenBurn(businessContractAddr, fromId, fromHash, amount);\n    }\n\n///******************************************************************* */\n\n\n//TODO: incluir hash de registro um objeto genrico para registrar informacoes\n    function transfer (address businessContractAddr, bytes32 fromHash, uint toId, bytes32 toHash, \n            uint amount, string[] memory data) public whenNotPaused {\n\n        uint fromId = registry.getId(msg.sender);\n\n        require(containsBusinessContract(businessContractAddr), \"Contrato especfico no est registrado\");\n        require(isBusinessContractActive(businessContractAddr), \"Contrato especfico no est ativo\");\n\n        require(registry.isValidatedId(fromId), \"Conta de origem precisa estar com cadastro validado\");\n        require(registry.isValidatedId(toId), \"Conta de destino precisa estar com cadastro validado\");\n        uint businessContractId = getBusinessContractId(businessContractAddr);\n\n        SpecificRBBToken specificContract = SpecificRBBToken(businessContractAddr);\n        specificContract.verifyAndActForTransfer(fromId, fromHash, toId, toHash, amount, data);\n\n        //altera valores de saldo\n        rbbBalances[businessContractId][fromId][fromHash] =\n                rbbBalances[businessContractId][fromId][fromHash].sub(amount, \"Saldo da origem no  suficiente para a transferncia\");\n        rbbBalances[businessContractId][toId][toHash] = rbbBalances[businessContractId][toId][toHash].add(amount);\n\n        emit RBBTokenTransfer (businessContractAddr, fromId, fromHash, toId, toHash, amount, data);\n\n    }\n\n    function redeem (address businessContractAddr, uint fromId, bytes32 fromHash, uint amount, string[] memory data) public \n        whenNotPaused  {\n\n            require(containsBusinessContract(businessContractAddr), \"Contrato especfico no est registrado\");\n            require(isBusinessContractActive(businessContractAddr), \"Contrato precisa estar ativo para haver burn\");\n            require(registry.isValidatedId(fromId), \"Conta solicitante do redeem precisa estar com cadastro validado\");\n//        require(amount>0, \"Valor a queimar deve ser maior do que zero\");\n    \n            SpecificRBBToken specificContract = SpecificRBBToken(businessContractAddr);\n            specificContract.verifyAndActForRedeem(fromId, fromHash, amount, data);\n\n            emit RBBTokenRedemptionRequested(businessContractAddr, fromId, fromHash, amount, data);\n            _burn(businessContractAddr, fromId, fromHash, amount);\n    }\n\n   /**\n    * Using this function, the Responsible for Settlement indicates that he has made the FIAT money transfer.\n    * @ param redemptionTransactionHash hash of the redeem transaction in which the FIAT money settlement occurred.\n    * @ param receiptHash hash that proof the FIAT money transfer\n    */ \n    function notifyRedemptionSettlement(address businessContractAddr, string memory redemptionTransactionHash, \n        string memory receiptHash, string[] memory data)\n        public whenNotPaused onlyOwner {\n\n        require(containsBusinessContract(businessContractAddr), \"Contrato especfico no est registrado\");\n        require(isBusinessContractActive(businessContractAddr), \"Contrato precisa estar ativo para haver burn\");\n        require (RBBLib.isValidHash(receiptHash), \"O hash da comprovao  invlido\");\n\n        SpecificRBBToken specificContract = SpecificRBBToken(businessContractAddr);\n        specificContract.verifyAndActForRedemptionSettlement(redemptionTransactionHash, receiptHash, data);\n\n        emit RBBTokenRedemptionSettlement(businessContractAddr, redemptionTransactionHash, receiptHash, data);\n    }\n    \n\n///******************************************************************* */\n\n    function getDecimals() public view returns (uint8) {\n        return decimals;\n    }\n\n/*\n    function getBndesId() view public returns (uint) {\n        uint bndesId = registry.getId(owner());\n        return bndesId;\n    }\n*/\n\n}",
  "sourcePath": "/Users/suzana.moreno/workspace/rbb-token/Back-Blockchain/contracts/RBBToken.sol",
  "compiler": {
    "name": "solc",
    "version": "0.6.12+commit.27d51765.Emscripten.clang"
  },
  "schemaVersion": "3.2.5",
  "updatedAt": "2020-09-23T22:35:07.642Z",
  "devdoc": {
    "kind": "dev",
    "methods": {
      "isOwner()": {
        "details": "Returns true if the caller is the current owner."
      },
      "owner()": {
        "details": "Returns the address of the current owner."
      },
      "pause()": {
        "details": "Called by a pauser to pause, triggers stopped state."
      },
      "paused()": {
        "details": "Returns true if the contract is paused, and false otherwise."
      },
      "renounceOwnership()": {
        "details": "Leaves the contract without owner. It will not be possible to call `onlyOwner` functions anymore. Can only be called by the current owner. NOTE: Renouncing ownership will leave the contract without an owner, thereby removing any functionality that is only available to the owner."
      },
      "transferOwnership(address)": {
        "details": "Transfers ownership of the contract to a new account (`newOwner`). Can only be called by the current owner."
      },
      "unpause()": {
        "details": "Called by a pauser to unpause, returns to normal state."
      }
    },
    "version": 1
  },
  "userdoc": {
    "kind": "user",
    "methods": {
      "getDecimals()": {
        "notice": "******************************************************************* */"
      },
      "notifyRedemptionSettlement(address,string,string,string[])": {
        "notice": "Using this function, the Responsible for Settlement indicates that he has made the FIAT money transfer. param redemptionTransactionHash hash of the redeem transaction in which the FIAT money settlement occurred. param receiptHash hash that proof the FIAT money transfer"
      },
      "requestMint(bytes32,uint256,uint256)": {
        "notice": "******************************************************************* */"
      },
      "transfer(address,bytes32,uint256,bytes32,uint256,string[])": {
        "notice": "******************************************************************* */"
      }
    },
    "version": 1
  }
}