{
  "contractName": "RBBToken",
  "abi": [
    {
      "inputs": [
        {
          "internalType": "address",
          "name": "newRegistryAddr",
          "type": "address"
        },
        {
          "internalType": "uint8",
          "name": "_decimals",
          "type": "uint8"
        }
      ],
      "payable": false,
      "stateMutability": "nonpayable",
      "type": "constructor"
    },
    {
      "anonymous": false,
      "inputs": [
        {
          "indexed": false,
          "internalType": "uint256",
          "name": "id",
          "type": "uint256"
        },
        {
          "indexed": false,
          "internalType": "uint256",
          "name": "ownerId",
          "type": "uint256"
        },
        {
          "indexed": false,
          "internalType": "address",
          "name": "addr",
          "type": "address"
        }
      ],
      "name": "BusinessContractRegistration",
      "type": "event"
    },
    {
      "anonymous": false,
      "inputs": [
        {
          "indexed": false,
          "internalType": "uint256",
          "name": "id",
          "type": "uint256"
        },
        {
          "indexed": false,
          "internalType": "bool",
          "name": "state",
          "type": "bool"
        }
      ],
      "name": "BusinessContractStateChange",
      "type": "event"
    },
    {
      "anonymous": false,
      "inputs": [
        {
          "indexed": true,
          "internalType": "address",
          "name": "previousOwner",
          "type": "address"
        },
        {
          "indexed": true,
          "internalType": "address",
          "name": "newOwner",
          "type": "address"
        }
      ],
      "name": "OwnershipTransferred",
      "type": "event"
    },
    {
      "anonymous": false,
      "inputs": [
        {
          "indexed": false,
          "internalType": "address",
          "name": "account",
          "type": "address"
        }
      ],
      "name": "Paused",
      "type": "event"
    },
    {
      "anonymous": false,
      "inputs": [
        {
          "indexed": true,
          "internalType": "address",
          "name": "account",
          "type": "address"
        }
      ],
      "name": "PauserAdded",
      "type": "event"
    },
    {
      "anonymous": false,
      "inputs": [
        {
          "indexed": true,
          "internalType": "address",
          "name": "account",
          "type": "address"
        }
      ],
      "name": "PauserRemoved",
      "type": "event"
    },
    {
      "anonymous": false,
      "inputs": [
        {
          "indexed": false,
          "internalType": "uint256",
          "name": "businessContractId",
          "type": "uint256"
        },
        {
          "indexed": false,
          "internalType": "uint256",
          "name": "amount",
          "type": "uint256"
        }
      ],
      "name": "RBBMintRequest",
      "type": "event"
    },
    {
      "anonymous": false,
      "inputs": [
        {
          "indexed": false,
          "internalType": "uint256",
          "name": "businessContractId",
          "type": "uint256"
        },
        {
          "indexed": false,
          "internalType": "uint256",
          "name": "fromId",
          "type": "uint256"
        },
        {
          "indexed": false,
          "internalType": "bytes32",
          "name": "fromHash",
          "type": "bytes32"
        },
        {
          "indexed": false,
          "internalType": "uint256",
          "name": "amount",
          "type": "uint256"
        }
      ],
      "name": "RBBRedemptionRequested",
      "type": "event"
    },
    {
      "anonymous": false,
      "inputs": [
        {
          "indexed": false,
          "internalType": "uint256",
          "name": "businessContractId",
          "type": "uint256"
        },
        {
          "indexed": false,
          "internalType": "uint256",
          "name": "amount",
          "type": "uint256"
        }
      ],
      "name": "RBBTokenBurn",
      "type": "event"
    },
    {
      "anonymous": false,
      "inputs": [
        {
          "indexed": false,
          "internalType": "uint256",
          "name": "businessContractId",
          "type": "uint256"
        },
        {
          "indexed": false,
          "internalType": "uint256",
          "name": "amount",
          "type": "uint256"
        }
      ],
      "name": "RBBTokenMint",
      "type": "event"
    },
    {
      "anonymous": false,
      "inputs": [
        {
          "indexed": false,
          "internalType": "uint256",
          "name": "businessContractId",
          "type": "uint256"
        },
        {
          "indexed": false,
          "internalType": "uint256",
          "name": "fromId",
          "type": "uint256"
        },
        {
          "indexed": false,
          "internalType": "bytes32",
          "name": "fromHash",
          "type": "bytes32"
        },
        {
          "indexed": false,
          "internalType": "uint256",
          "name": "toId",
          "type": "uint256"
        },
        {
          "indexed": false,
          "internalType": "bytes32",
          "name": "toHash",
          "type": "bytes32"
        },
        {
          "indexed": false,
          "internalType": "uint256",
          "name": "amount",
          "type": "uint256"
        }
      ],
      "name": "RBBTokenTransfer",
      "type": "event"
    },
    {
      "anonymous": false,
      "inputs": [
        {
          "indexed": false,
          "internalType": "address",
          "name": "account",
          "type": "address"
        }
      ],
      "name": "Unpaused",
      "type": "event"
    },
    {
      "constant": true,
      "inputs": [],
      "name": "RESERVED_HASH_VALUE",
      "outputs": [
        {
          "internalType": "bytes32",
          "name": "",
          "type": "bytes32"
        }
      ],
      "payable": false,
      "stateMutability": "view",
      "type": "function"
    },
    {
      "constant": false,
      "inputs": [
        {
          "internalType": "address",
          "name": "account",
          "type": "address"
        }
      ],
      "name": "addPauser",
      "outputs": [],
      "payable": false,
      "stateMutability": "nonpayable",
      "type": "function"
    },
    {
      "constant": true,
      "inputs": [
        {
          "internalType": "address",
          "name": "",
          "type": "address"
        }
      ],
      "name": "businessContractsRegistry",
      "outputs": [
        {
          "internalType": "uint256",
          "name": "id",
          "type": "uint256"
        },
        {
          "internalType": "uint256",
          "name": "ownerId",
          "type": "uint256"
        },
        {
          "internalType": "bool",
          "name": "isActive",
          "type": "bool"
        }
      ],
      "payable": false,
      "stateMutability": "view",
      "type": "function"
    },
    {
      "constant": true,
      "inputs": [
        {
          "internalType": "address",
          "name": "addr",
          "type": "address"
        }
      ],
      "name": "containsBusinessContract",
      "outputs": [
        {
          "internalType": "bool",
          "name": "",
          "type": "bool"
        }
      ],
      "payable": false,
      "stateMutability": "view",
      "type": "function"
    },
    {
      "constant": true,
      "inputs": [],
      "name": "decimals",
      "outputs": [
        {
          "internalType": "uint8",
          "name": "",
          "type": "uint8"
        }
      ],
      "payable": false,
      "stateMutability": "view",
      "type": "function"
    },
    {
      "constant": true,
      "inputs": [
        {
          "internalType": "address",
          "name": "addr",
          "type": "address"
        }
      ],
      "name": "getBusinessContractId",
      "outputs": [
        {
          "internalType": "uint256",
          "name": "",
          "type": "uint256"
        }
      ],
      "payable": false,
      "stateMutability": "view",
      "type": "function"
    },
    {
      "constant": true,
      "inputs": [
        {
          "internalType": "address",
          "name": "addr",
          "type": "address"
        }
      ],
      "name": "getBusinessContractIdAndOwnerId",
      "outputs": [
        {
          "internalType": "uint256",
          "name": "",
          "type": "uint256"
        },
        {
          "internalType": "uint256",
          "name": "",
          "type": "uint256"
        }
      ],
      "payable": false,
      "stateMutability": "view",
      "type": "function"
    },
    {
      "constant": true,
      "inputs": [],
      "name": "idCount",
      "outputs": [
        {
          "internalType": "uint256",
          "name": "",
          "type": "uint256"
        }
      ],
      "payable": false,
      "stateMutability": "view",
      "type": "function"
    },
    {
      "constant": true,
      "inputs": [
        {
          "internalType": "address",
          "name": "addr",
          "type": "address"
        }
      ],
      "name": "isBusinessContractActive",
      "outputs": [
        {
          "internalType": "bool",
          "name": "",
          "type": "bool"
        }
      ],
      "payable": false,
      "stateMutability": "view",
      "type": "function"
    },
    {
      "constant": true,
      "inputs": [],
      "name": "isOwner",
      "outputs": [
        {
          "internalType": "bool",
          "name": "",
          "type": "bool"
        }
      ],
      "payable": false,
      "stateMutability": "view",
      "type": "function"
    },
    {
      "constant": true,
      "inputs": [
        {
          "internalType": "address",
          "name": "account",
          "type": "address"
        }
      ],
      "name": "isPauser",
      "outputs": [
        {
          "internalType": "bool",
          "name": "",
          "type": "bool"
        }
      ],
      "payable": false,
      "stateMutability": "view",
      "type": "function"
    },
    {
      "constant": true,
      "inputs": [],
      "name": "owner",
      "outputs": [
        {
          "internalType": "address",
          "name": "",
          "type": "address"
        }
      ],
      "payable": false,
      "stateMutability": "view",
      "type": "function"
    },
    {
      "constant": false,
      "inputs": [],
      "name": "pause",
      "outputs": [],
      "payable": false,
      "stateMutability": "nonpayable",
      "type": "function"
    },
    {
      "constant": true,
      "inputs": [],
      "name": "paused",
      "outputs": [
        {
          "internalType": "bool",
          "name": "",
          "type": "bool"
        }
      ],
      "payable": false,
      "stateMutability": "view",
      "type": "function"
    },
    {
      "constant": true,
      "inputs": [
        {
          "internalType": "uint256",
          "name": "",
          "type": "uint256"
        },
        {
          "internalType": "uint256",
          "name": "",
          "type": "uint256"
        },
        {
          "internalType": "bytes32",
          "name": "",
          "type": "bytes32"
        }
      ],
      "name": "rbbBalances",
      "outputs": [
        {
          "internalType": "uint256",
          "name": "",
          "type": "uint256"
        }
      ],
      "payable": false,
      "stateMutability": "view",
      "type": "function"
    },
    {
      "constant": false,
      "inputs": [
        {
          "internalType": "address",
          "name": "addr",
          "type": "address"
        },
        {
          "internalType": "uint256",
          "name": "ownerId",
          "type": "uint256"
        }
      ],
      "name": "registerBusinessContract",
      "outputs": [
        {
          "internalType": "uint256",
          "name": "",
          "type": "uint256"
        }
      ],
      "payable": false,
      "stateMutability": "nonpayable",
      "type": "function"
    },
    {
      "constant": true,
      "inputs": [],
      "name": "registry",
      "outputs": [
        {
          "internalType": "contract RBBRegistry",
          "name": "",
          "type": "address"
        }
      ],
      "payable": false,
      "stateMutability": "view",
      "type": "function"
    },
    {
      "constant": false,
      "inputs": [],
      "name": "renounceOwnership",
      "outputs": [],
      "payable": false,
      "stateMutability": "nonpayable",
      "type": "function"
    },
    {
      "constant": false,
      "inputs": [],
      "name": "renouncePauser",
      "outputs": [],
      "payable": false,
      "stateMutability": "nonpayable",
      "type": "function"
    },
    {
      "constant": false,
      "inputs": [
        {
          "internalType": "address",
          "name": "addr",
          "type": "address"
        },
        {
          "internalType": "bool",
          "name": "status",
          "type": "bool"
        }
      ],
      "name": "setStatus",
      "outputs": [
        {
          "internalType": "bool",
          "name": "",
          "type": "bool"
        }
      ],
      "payable": false,
      "stateMutability": "nonpayable",
      "type": "function"
    },
    {
      "constant": false,
      "inputs": [
        {
          "internalType": "address",
          "name": "newOwner",
          "type": "address"
        }
      ],
      "name": "transferOwnership",
      "outputs": [],
      "payable": false,
      "stateMutability": "nonpayable",
      "type": "function"
    },
    {
      "constant": false,
      "inputs": [],
      "name": "unpause",
      "outputs": [],
      "payable": false,
      "stateMutability": "nonpayable",
      "type": "function"
    },
    {
      "constant": false,
      "inputs": [
        {
          "internalType": "uint256",
          "name": "amount",
          "type": "uint256"
        }
      ],
      "name": "requestMint",
      "outputs": [],
      "payable": false,
      "stateMutability": "nonpayable",
      "type": "function"
    },
    {
      "constant": false,
      "inputs": [
        {
          "internalType": "address",
          "name": "businessContractAddr",
          "type": "address"
        },
        {
          "internalType": "uint256",
          "name": "amount",
          "type": "uint256"
        }
      ],
      "name": "mint",
      "outputs": [],
      "payable": false,
      "stateMutability": "nonpayable",
      "type": "function"
    },
    {
      "constant": false,
      "inputs": [
        {
          "internalType": "address",
          "name": "businessContractAddr",
          "type": "address"
        },
        {
          "internalType": "uint256",
          "name": "amount",
          "type": "uint256"
        }
      ],
      "name": "burn",
      "outputs": [],
      "payable": false,
      "stateMutability": "nonpayable",
      "type": "function"
    },
    {
      "constant": false,
      "inputs": [
        {
          "internalType": "address",
          "name": "businessContractAddr",
          "type": "address"
        },
        {
          "internalType": "uint256",
          "name": "fromId",
          "type": "uint256"
        },
        {
          "internalType": "bytes32",
          "name": "fromHash",
          "type": "bytes32"
        },
        {
          "internalType": "uint256",
          "name": "toId",
          "type": "uint256"
        },
        {
          "internalType": "bytes32",
          "name": "toHash",
          "type": "bytes32"
        },
        {
          "internalType": "uint256",
          "name": "amount",
          "type": "uint256"
        },
        {
          "internalType": "string[]",
          "name": "data",
          "type": "string[]"
        }
      ],
      "name": "transfer",
      "outputs": [],
      "payable": false,
      "stateMutability": "nonpayable",
      "type": "function"
    },
    {
      "constant": false,
      "inputs": [
        {
          "internalType": "address",
          "name": "businessContractAddr",
          "type": "address"
        },
        {
          "internalType": "uint256",
          "name": "toId",
          "type": "uint256"
        },
        {
          "internalType": "bytes32",
          "name": "toHash",
          "type": "bytes32"
        },
        {
          "internalType": "uint256",
          "name": "amount",
          "type": "uint256"
        },
        {
          "internalType": "string[]",
          "name": "data",
          "type": "string[]"
        }
      ],
      "name": "allocate",
      "outputs": [],
      "payable": false,
      "stateMutability": "nonpayable",
      "type": "function"
    },
    {
      "constant": false,
      "inputs": [
        {
          "internalType": "address",
          "name": "businessContractAddr",
          "type": "address"
        },
        {
          "internalType": "uint256",
          "name": "fromId",
          "type": "uint256"
        },
        {
          "internalType": "bytes32",
          "name": "fromHash",
          "type": "bytes32"
        },
        {
          "internalType": "uint256",
          "name": "amount",
          "type": "uint256"
        },
        {
          "internalType": "string[]",
          "name": "data",
          "type": "string[]"
        }
      ],
      "name": "redeem",
      "outputs": [],
      "payable": false,
      "stateMutability": "nonpayable",
      "type": "function"
    },
    {
      "constant": true,
      "inputs": [],
      "name": "getDecimals",
      "outputs": [
        {
          "internalType": "uint8",
          "name": "",
          "type": "uint8"
        }
      ],
      "payable": false,
      "stateMutability": "view",
      "type": "function"
    }
  ],
  "bytecode": "0x608060405260016002556002600460146101000a81548160ff021916908360ff1602179055506000801b6005553480156200003957600080fd5b5060405162003c6138038062003c6183398181016040526200005f9190810190620003c3565b6200007f62000073620001ae60201b60201c565b620001b660201b60201c565b6000600160006101000a81548160ff0219169083151502179055506000620000ac620001ae60201b60201c565b9050806001806101000a81548173ffffffffffffffffffffffffffffffffffffffff021916908373ffffffffffffffffffffffffffffffffffffffff1602179055508073ffffffffffffffffffffffffffffffffffffffff16600073ffffffffffffffffffffffffffffffffffffffff167f8be0079c531659141344cd1fd0a4f28419497f9722a3daafe3b4186f6b6457e060405160405180910390a35081600460006101000a81548173ffffffffffffffffffffffffffffffffffffffff021916908373ffffffffffffffffffffffffffffffffffffffff16021790555080600460146101000a81548160ff021916908360ff160217905550505062000578565b600033905090565b620001d18160006200021760201b620020aa1790919060201c565b8073ffffffffffffffffffffffffffffffffffffffff167f6719d08c1888103bea251a4ed56406bd0c3e69723c8a1686e017e7bbe159b6f860405160405180910390a250565b620002298282620002ca60201b60201c565b156200026c576040517f08c379a00000000000000000000000000000000000000000000000000000000081526004016200026390620004ae565b60405180910390fd5b60018260000160008373ffffffffffffffffffffffffffffffffffffffff1673ffffffffffffffffffffffffffffffffffffffff16815260200190815260200160002060006101000a81548160ff0219169083151502179055505050565b60008073ffffffffffffffffffffffffffffffffffffffff168273ffffffffffffffffffffffffffffffffffffffff1614156200033e576040517f08c379a00000000000000000000000000000000000000000000000000000000081526004016200033590620004d0565b60405180910390fd5b8260000160008373ffffffffffffffffffffffffffffffffffffffff1673ffffffffffffffffffffffffffffffffffffffff16815260200190815260200160002060009054906101000a900460ff16905092915050565b600081519050620003a68162000544565b92915050565b600081519050620003bd816200055e565b92915050565b60008060408385031215620003d757600080fd5b6000620003e78582860162000395565b9250506020620003fa85828601620003ac565b9150509250929050565b600062000413601f83620004f2565b91507f526f6c65733a206163636f756e7420616c72656164792068617320726f6c65006000830152602082019050919050565b600062000455602283620004f2565b91507f526f6c65733a206163636f756e7420697320746865207a65726f20616464726560008301527f73730000000000000000000000000000000000000000000000000000000000006020830152604082019050919050565b60006020820190508181036000830152620004c98162000404565b9050919050565b60006020820190508181036000830152620004eb8162000446565b9050919050565b600082825260208201905092915050565b6000620005108262000517565b9050919050565b600073ffffffffffffffffffffffffffffffffffffffff82169050919050565b600060ff82169050919050565b6200054f8162000503565b81146200055b57600080fd5b50565b620005698162000537565b81146200057557600080fd5b50565b6136d980620005886000396000f3fe608060405234801561001057600080fd5b50600436106101cf5760003560e01c806388431f7a116101045780639dc29fac116100a2578063e0a08b7311610071578063e0a08b73146104f7578063e6e4623814610527578063f0141d8414610545578063f2fde38b14610563576101cf565b80639dc29fac14610449578063b304f21c14610465578063c5b2f6a914610495578063d508636d146104c7576101cf565b80638f32d59b116100de5780638f32d59b146103d5578063963a62cb146103f357806396b7bb1c1461040f5780639ca0daed1461042b576101cf565b806388431f7a146103565780638b214c00146103865780638da5cb5b146103b7576101cf565b80635c975abb116101715780637b1039991161014b5780637b103999146102f65780638136b72a1461031457806382dc1ec4146103305780638456cb591461034c576101cf565b80635c975abb146102c45780636ef8d66d146102e2578063715018a6146102ec576101cf565b806340c10f19116101ad57806340c10f191461022c57806346fbf68e1461024857806349733d041461027857806353d5f7cf14610294576101cf565b806330b49983146101d4578063313ce567146102045780633f4ba83a14610222575b600080fd5b6101ee60048036036101e991908101906124de565b61057f565b6040516101fb9190613200565b60405180910390f35b61020c6105b1565b60405161021991906133e9565b60405180910390f35b61022a6105c4565b005b6102466004803603610241919081019061230b565b6106bd565b005b610262600480360361025d91908101906122a6565b610820565b60405161026f9190612ecd565b60405180910390f35b610292600480360361028d91908101906124b5565b61083d565b005b6102ae60048036036102a991908101906122a6565b610960565b6040516102bb9190612ecd565b60405180910390f35b6102cc610a3a565b6040516102d99190612ecd565b60405180910390f35b6102ea610a51565b005b6102f4610a63565b005b6102fe610b69565b60405161030b9190612f03565b60405180910390f35b61032e600480360361032991908101906123d6565b610b8f565b005b61034a600480360361034591908101906122a6565b611032565b005b61035461108d565b005b610370600480360361036b91908101906122a6565b611186565b60405161037d9190612ecd565b60405180910390f35b6103a0600480360361039b91908101906122a6565b61122c565b6040516103ae9291906132ac565b60405180910390f35b6103bf61130e565b6040516103cc9190612e97565b60405180910390f35b6103dd611337565b6040516103ea9190612ecd565b60405180910390f35b61040d60048036036104089190810190612347565b611395565b005b61042960048036036104249190810190612347565b6114f9565b005b610433611695565b6040516104409190612ee8565b60405180910390f35b610463600480360361045e919081019061230b565b61169b565b005b61047f600480360361047a91908101906122cf565b611706565b60405161048c9190612ecd565b60405180910390f35b6104af60048036036104aa91908101906122a6565b61184b565b6040516104be9392919061330c565b60405180910390f35b6104e160048036036104dc919081019061230b565b611882565b6040516104ee9190613200565b60405180910390f35b610511600480360361050c91908101906122a6565b6119ff565b60405161051e9190613200565b60405180910390f35b61052f611ad9565b60405161053c9190613200565b60405180910390f35b61054d611adf565b60405161055a91906133e9565b60405180910390f35b61057d600480360361057891908101906122a6565b611af6565b005b600660205282600052604060002060205281600052604060002060205280600052604060002060009250925050505481565b600460149054906101000a900460ff1681565b6105d46105cf611b49565b610820565b610613576040517f08c379a000000000000000000000000000000000000000000000000000000000815260040161060a90612fc0565b60405180910390fd5b600160009054906101000a900460ff16610662576040517f08c379a000000000000000000000000000000000000000000000000000000000815260040161065990612f40565b60405180910390fd5b6000600160006101000a81548160ff0219169083151502179055507f5db9ee0a495bf2e6ff9c91a7834c1ba4fdd244a5e8aa4e537bd38aeae4b073aa6106a6611b49565b6040516106b39190612eb2565b60405180910390a1565b6106c5611337565b610704576040517f08c379a00000000000000000000000000000000000000000000000000000000081526004016106fb906130e0565b60405180910390fd5b61070d82610960565b61074c576040517f08c379a000000000000000000000000000000000000000000000000000000000815260040161074390612fa0565b60405180910390fd5b6000806107588461122c565b915091506107a6836006600085815260200190815260200160002060008481526020019081526020016000206000600554815260200190815260200160002054611b5190919063ffffffff16565b60066000848152602001908152602001600020600083815260200190815260200160002060006005548152602001908152602001600020819055507f2675afe9351d52cfb5e67e69d355234962a118578f08ed9b752e9182ba45b7a282846040516108129291906132ac565b60405180910390a150505050565b6000610836826000611ba690919063ffffffff16565b9050919050565b61084633611186565b610885576040517f08c379a000000000000000000000000000000000000000000000000000000000815260040161087c90613100565b60405180910390fd5b61088e33610960565b6108cd576040517f08c379a00000000000000000000000000000000000000000000000000000000081526004016108c490613160565b60405180910390fd5b60008111610910576040517f08c379a000000000000000000000000000000000000000000000000000000000815260040161090790613040565b60405180910390fd5b60003390506000610920826119ff565b90507f663d75767bd700082ffab70ea55e0e3044fefe296f536958a655b250ecc4efb181846040516109539291906132ac565b60405180910390a1505050565b600061096b82611186565b6109aa576040517f08c379a00000000000000000000000000000000000000000000000000000000081526004016109a190613060565b60405180910390fd5b6109b2612152565b600360008473ffffffffffffffffffffffffffffffffffffffff1673ffffffffffffffffffffffffffffffffffffffff16815260200190815260200160002060405180606001604052908160008201548152602001600182015481526020016002820160009054906101000a900460ff16151515158152505090508060400151915050919050565b6000600160009054906101000a900460ff16905090565b610a61610a5c611b49565b611c6e565b565b610a6b611337565b610aaa576040517f08c379a0000000000000000000000000000000000000000000000000000000008152600401610aa1906130e0565b60405180910390fd5b600073ffffffffffffffffffffffffffffffffffffffff166001809054906101000a900473ffffffffffffffffffffffffffffffffffffffff1673ffffffffffffffffffffffffffffffffffffffff167f8be0079c531659141344cd1fd0a4f28419497f9722a3daafe3b4186f6b6457e060405160405180910390a360006001806101000a81548173ffffffffffffffffffffffffffffffffffffffff021916908373ffffffffffffffffffffffffffffffffffffffff160217905550565b600460009054906101000a900473ffffffffffffffffffffffffffffffffffffffff1681565b600160009054906101000a900460ff1615610bdf576040517f08c379a0000000000000000000000000000000000000000000000000000000008152600401610bd690613080565b60405180910390fd5b610be887611186565b610c27576040517f08c379a0000000000000000000000000000000000000000000000000000000008152600401610c1e906131a0565b60405180910390fd5b610c3087610960565b610c6f576040517f08c379a0000000000000000000000000000000000000000000000000000000008152600401610c6690612f80565b60405180910390fd5b600460009054906101000a900473ffffffffffffffffffffffffffffffffffffffff1673ffffffffffffffffffffffffffffffffffffffff1663613a7896876040518263ffffffff1660e01b8152600401610cca9190613200565b60206040518083038186803b158015610ce257600080fd5b505afa158015610cf6573d6000803e3d6000fd5b505050506040513d601f19601f82011682018060405250610d1a919081019061248c565b610d59576040517f08c379a0000000000000000000000000000000000000000000000000000000008152600401610d50906131c0565b60405180910390fd5b600460009054906101000a900473ffffffffffffffffffffffffffffffffffffffff1673ffffffffffffffffffffffffffffffffffffffff1663613a7896856040518263ffffffff1660e01b8152600401610db49190613200565b60206040518083038186803b158015610dcc57600080fd5b505afa158015610de0573d6000803e3d6000fd5b505050506040513d601f19601f82011682018060405250610e04919081019061248c565b610e43576040517f08c379a0000000000000000000000000000000000000000000000000000000008152600401610e3a906131e0565b60405180910390fd5b6000610e4e886119ff565b905060008890508073ffffffffffffffffffffffffffffffffffffffff1663c596acc78989898989896040518763ffffffff1660e01b8152600401610e9896959493929190613244565b600060405180830381600087803b158015610eb257600080fd5b505af1158015610ec6573d6000803e3d6000fd5b50505050610f2c8460405180606001604052806038815260200161365f603891396006600086815260200190815260200160002060008c815260200190815260200160002060008b815260200190815260200160002054611cc89092919063ffffffff16565b6006600084815260200190815260200160002060008a8152602001908152602001600020600089815260200190815260200160002081905550610fad84600660008581526020019081526020016000206000898152602001908152602001600020600088815260200190815260200160002054611b5190919063ffffffff16565b6006600084815260200190815260200160002060008881526020019081526020016000206000878152602001908152602001600020819055507ff204b88e182e4c89175e0fe7356c473c56e0c4ca1e541334670899bf09e50cda82898989898960405161101f96959493929190613388565b60405180910390a1505050505050505050565b61104261103d611b49565b610820565b611081576040517f08c379a000000000000000000000000000000000000000000000000000000000815260040161107890612fc0565b60405180910390fd5b61108a81611d23565b50565b61109d611098611b49565b610820565b6110dc576040517f08c379a00000000000000000000000000000000000000000000000000000000081526004016110d390612fc0565b60405180910390fd5b600160009054906101000a900460ff161561112c576040517f08c379a000000000000000000000000000000000000000000000000000000000815260040161112390613080565b60405180910390fd5b60018060006101000a81548160ff0219169083151502179055507f62e78cea01bee320cd4e420270b5ea74000d11b0c9f74754ebdbfc544b05a25861116f611b49565b60405161117c9190612eb2565b60405180910390a1565b6000611190612152565b600360008473ffffffffffffffffffffffffffffffffffffffff1673ffffffffffffffffffffffffffffffffffffffff16815260200190815260200160002060405180606001604052908160008201548152602001600182015481526020016002820160009054906101000a900460ff16151515158152505090506000816000015114611221576001915050611227565b60009150505b919050565b60008061123883611186565b611277576040517f08c379a000000000000000000000000000000000000000000000000000000000815260040161126e90613060565b60405180910390fd5b61127f612152565b600360008573ffffffffffffffffffffffffffffffffffffffff1673ffffffffffffffffffffffffffffffffffffffff16815260200190815260200160002060405180606001604052908160008201548152602001600182015481526020016002820160009054906101000a900460ff1615151515815250509050806000015181602001519250925050915091565b60006001809054906101000a900473ffffffffffffffffffffffffffffffffffffffff16905090565b60006001809054906101000a900473ffffffffffffffffffffffffffffffffffffffff1673ffffffffffffffffffffffffffffffffffffffff16611379611b49565b73ffffffffffffffffffffffffffffffffffffffff1614905090565b600160009054906101000a900460ff16156113e5576040517f08c379a00000000000000000000000000000000000000000000000000000000081526004016113dc90613080565b60405180910390fd5b6000806113f18761122c565b91509150600460009054906101000a900473ffffffffffffffffffffffffffffffffffffffff1673ffffffffffffffffffffffffffffffffffffffff1663613a7896826040518263ffffffff1660e01b81526004016114509190613200565b60206040518083038186803b15801561146857600080fd5b505afa15801561147c573d6000803e3d6000fd5b505050506040513d601f19601f820116820180604052506114a0919081019061248c565b6114df576040517f08c379a00000000000000000000000000000000000000000000000000000000081526004016114d690613140565b60405180910390fd5b6114f0878260055489898989610b8f565b50505050505050565b600160009054906101000a900460ff1615611549576040517f08c379a000000000000000000000000000000000000000000000000000000000815260040161154090613080565b60405180910390fd5b6000806115558761122c565b91509150600460009054906101000a900473ffffffffffffffffffffffffffffffffffffffff1673ffffffffffffffffffffffffffffffffffffffff1663613a7896826040518263ffffffff1660e01b81526004016115b49190613200565b60206040518083038186803b1580156115cc57600080fd5b505afa1580156115e0573d6000803e3d6000fd5b505050506040513d601f19601f82011682018060405250611604919081019061248c565b611643576040517f08c379a000000000000000000000000000000000000000000000000000000000815260040161163a90613140565b60405180910390fd5b7fecba3f9ac80bda7c08881d49d8717e1f7fad26568e119e7737f7417f7ea3bbdc828787876040516116789493929190613343565b60405180910390a161168c87878787611d7d565b50505050505050565b60055481565b6116a3611337565b6116e2576040517f08c379a00000000000000000000000000000000000000000000000000000000081526004016116d9906130e0565b60405180910390fd5b6000806116ee8461122c565b91509150611700848260055486611d7d565b50505050565b6000611710611337565b61174f576040517f08c379a0000000000000000000000000000000000000000000000000000000008152600401611746906130e0565b60405180910390fd5b61175883611186565b611797576040517f08c379a000000000000000000000000000000000000000000000000000000000815260040161178e90613060565b60405180910390fd5b6000600360008573ffffffffffffffffffffffffffffffffffffffff1673ffffffffffffffffffffffffffffffffffffffff1681526020019081526020016000209050828160020160006101000a81548160ff0219169083151502179055507f28a61818d188a7856821431ff0deb7650c2cc34ee4b7b97616a415fa0a3dfeff81600001548260020160009054906101000a900460ff1660405161183c92919061321b565b60405180910390a15092915050565b60036020528060005260406000206000915090508060000154908060010154908060020160009054906101000a900460ff16905083565b600061188c611337565b6118cb576040517f08c379a00000000000000000000000000000000000000000000000000000000081526004016118c2906130e0565b60405180910390fd5b6118d483611186565b15611914576040517f08c379a000000000000000000000000000000000000000000000000000000000815260040161190b90613000565b60405180910390fd5b6040518060600160405280600254815260200183815260200160011515815250600360008573ffffffffffffffffffffffffffffffffffffffff1673ffffffffffffffffffffffffffffffffffffffff168152602001908152602001600020600082015181600001556020820151816001015560408201518160020160006101000a81548160ff0219169083151502179055509050507f20837d6e0b7236235210e8dcb5168dc3712b7652ca9b5f328e9aaecdd6f386cd60025483856040516119df939291906132d5565b60405180910390a160026000815480929190600101919050555092915050565b6000611a0a82611186565b611a49576040517f08c379a0000000000000000000000000000000000000000000000000000000008152600401611a4090613060565b60405180910390fd5b611a51612152565b600360008473ffffffffffffffffffffffffffffffffffffffff1673ffffffffffffffffffffffffffffffffffffffff16815260200190815260200160002060405180606001604052908160008201548152602001600182015481526020016002820160009054906101000a900460ff16151515158152505090508060000151915050919050565b60025481565b6000600460149054906101000a900460ff16905090565b611afe611337565b611b3d576040517f08c379a0000000000000000000000000000000000000000000000000000000008152600401611b34906130e0565b60405180910390fd5b611b4681611ed5565b50565b600033905090565b600080828401905083811015611b9c576040517f08c379a0000000000000000000000000000000000000000000000000000000008152600401611b9390613020565b60405180910390fd5b8091505092915050565b60008073ffffffffffffffffffffffffffffffffffffffff168273ffffffffffffffffffffffffffffffffffffffff161415611c17576040517f08c379a0000000000000000000000000000000000000000000000000000000008152600401611c0e90613120565b60405180910390fd5b8260000160008373ffffffffffffffffffffffffffffffffffffffff1673ffffffffffffffffffffffffffffffffffffffff16815260200190815260200160002060009054906101000a900460ff16905092915050565b611c8281600061200390919063ffffffff16565b8073ffffffffffffffffffffffffffffffffffffffff167fcd265ebaf09df2871cc7bd4133404a235ba12eff2041bb89d9c714a2621c7c7e60405160405180910390a250565b6000838311158290611d10576040517f08c379a0000000000000000000000000000000000000000000000000000000008152600401611d079190612f1e565b60405180910390fd5b5060008385039050809150509392505050565b611d378160006120aa90919063ffffffff16565b8073ffffffffffffffffffffffffffffffffffffffff167f6719d08c1888103bea251a4ed56406bd0c3e69723c8a1686e017e7bbe159b6f860405160405180910390a250565b611d8684610960565b611dc5576040517f08c379a0000000000000000000000000000000000000000000000000000000008152600401611dbc906130c0565b60405180910390fd5b60008111611e08576040517f08c379a0000000000000000000000000000000000000000000000000000000008152600401611dff90613180565b60405180910390fd5b6000611e13856119ff565b9050611e94826040518060400160405280601b81526020017f4275726e20616d6f756e7420657863656564732062616c616e63650000000000815250600660008581526020019081526020016000206000888152602001908152602001600020600087815260200190815260200160002054611cc89092919063ffffffff16565b507fa63bdbe93bc807572f07ad2d679e8014207ae350e900ca803c6b192b2c5864d08183604051611ec69291906132ac565b60405180910390a15050505050565b600073ffffffffffffffffffffffffffffffffffffffff168173ffffffffffffffffffffffffffffffffffffffff161415611f45576040517f08c379a0000000000000000000000000000000000000000000000000000000008152600401611f3c90612fe0565b60405180910390fd5b8073ffffffffffffffffffffffffffffffffffffffff166001809054906101000a900473ffffffffffffffffffffffffffffffffffffffff1673ffffffffffffffffffffffffffffffffffffffff167f8be0079c531659141344cd1fd0a4f28419497f9722a3daafe3b4186f6b6457e060405160405180910390a3806001806101000a81548173ffffffffffffffffffffffffffffffffffffffff021916908373ffffffffffffffffffffffffffffffffffffffff16021790555050565b61200d8282611ba6565b61204c576040517f08c379a0000000000000000000000000000000000000000000000000000000008152600401612043906130a0565b60405180910390fd5b60008260000160008373ffffffffffffffffffffffffffffffffffffffff1673ffffffffffffffffffffffffffffffffffffffff16815260200190815260200160002060006101000a81548160ff0219169083151502179055505050565b6120b48282611ba6565b156120f4576040517f08c379a00000000000000000000000000000000000000000000000000000000081526004016120eb90612f60565b60405180910390fd5b60018260000160008373ffffffffffffffffffffffffffffffffffffffff1673ffffffffffffffffffffffffffffffffffffffff16815260200190815260200160002060006101000a81548160ff0219169083151502179055505050565b604051806060016040528060008152602001600081526020016000151581525090565b60008135905061218481613602565b92915050565b600082601f83011261219b57600080fd5b81356121ae6121a982613431565b613404565b9150818183526020840193506020810190508360005b838110156121f457813586016121da888261223d565b8452602084019350602083019250506001810190506121c4565b5050505092915050565b60008135905061220d81613619565b92915050565b60008151905061222281613619565b92915050565b60008135905061223781613630565b92915050565b600082601f83011261224e57600080fd5b813561226161225c82613459565b613404565b9150808252602083016020830185838301111561227d57600080fd5b6122888382846135af565b50505092915050565b6000813590506122a081613647565b92915050565b6000602082840312156122b857600080fd5b60006122c684828501612175565b91505092915050565b600080604083850312156122e257600080fd5b60006122f085828601612175565b9250506020612301858286016121fe565b9150509250929050565b6000806040838503121561231e57600080fd5b600061232c85828601612175565b925050602061233d85828601612291565b9150509250929050565b600080600080600060a0868803121561235f57600080fd5b600061236d88828901612175565b955050602061237e88828901612291565b945050604061238f88828901612228565b93505060606123a088828901612291565b925050608086013567ffffffffffffffff8111156123bd57600080fd5b6123c98882890161218a565b9150509295509295909350565b600080600080600080600060e0888a0312156123f157600080fd5b60006123ff8a828b01612175565b97505060206124108a828b01612291565b96505060406124218a828b01612228565b95505060606124328a828b01612291565b94505060806124438a828b01612228565b93505060a06124548a828b01612291565b92505060c088013567ffffffffffffffff81111561247157600080fd5b61247d8a828b0161218a565b91505092959891949750929550565b60006020828403121561249e57600080fd5b60006124ac84828501612213565b91505092915050565b6000602082840312156124c757600080fd5b60006124d584828501612291565b91505092915050565b6000806000606084860312156124f357600080fd5b600061250186828701612291565b935050602061251286828701612291565b925050604061252386828701612228565b9150509250925092565b6000612539838361263a565b905092915050565b61254a81613555565b82525050565b612559816134f6565b82525050565b600061256a82613495565b61257481856134c3565b93508360208202850161258685613485565b8060005b858110156125c257848403895281516125a3858261252d565b94506125ae836134b6565b925060208a0199505060018101905061258a565b50829750879550505050505092915050565b6125dd81613508565b82525050565b6125ec81613514565b82525050565b6125fb81613567565b82525050565b600061260c826134ab565b61261681856134e5565b93506126268185602086016135be565b61262f816135f1565b840191505092915050565b6000612645826134a0565b61264f81856134d4565b935061265f8185602086016135be565b612668816135f1565b840191505092915050565b60006126806014836134e5565b91507f5061757361626c653a206e6f74207061757365640000000000000000000000006000830152602082019050919050565b60006126c0601f836134e5565b91507f526f6c65733a206163636f756e7420616c72656164792068617320726f6c65006000830152602082019050919050565b60006127006025836134e5565b91507f436f6e747261746f206573706563c3ad6669636f206ec3a36f20657374c3a12060008301527f617469766f0000000000000000000000000000000000000000000000000000006020830152604082019050919050565b6000612766601c836134e5565b91507f436f6e747261746f207072656369736120657374617220617469766f000000006000830152602082019050919050565b60006127a66030836134e5565b91507f506175736572526f6c653a2063616c6c657220646f6573206e6f74206861766560008301527f207468652050617573657220726f6c65000000000000000000000000000000006020830152604082019050919050565b600061280c6026836134e5565b91507f4f776e61626c653a206e6577206f776e657220697320746865207a65726f206160008301527f64647265737300000000000000000000000000000000000000000000000000006020830152604082019050919050565b60006128726017836134e5565b91507f436f6e747261746f206ac3a1207265676973747261646f0000000000000000006000830152602082019050919050565b60006128b2601b836134e5565b91507f536166654d6174683a206164646974696f6e206f766572666c6f7700000000006000830152602082019050919050565b60006128f26035836134e5565b91507f56616c6f72206120736572207472616e736163696f6e61646f2064657665207360008301527f6572206d61696f7220646f20717565207a65726f2e00000000000000000000006020830152604082019050919050565b60006129586022836134e5565b91507f436f6e747261746f206465206e65676f63696f206e616f20726567697374726160008301527f646f0000000000000000000000000000000000000000000000000000000000006020830152604082019050919050565b60006129be6010836134e5565b91507f5061757361626c653a20706175736564000000000000000000000000000000006000830152602082019050919050565b60006129fe6021836134e5565b91507f526f6c65733a206163636f756e7420646f6573206e6f74206861766520726f6c60008301527f65000000000000000000000000000000000000000000000000000000000000006020830152604082019050919050565b6000612a64602c836134e5565b91507f436f6e747261746f207072656369736120657374617220617469766f2070617260008301527f61206861766572206275726e00000000000000000000000000000000000000006020830152604082019050919050565b6000612aca6020836134e5565b91507f4f776e61626c653a2063616c6c6572206973206e6f7420746865206f776e65726000830152602082019050919050565b6000612b0a604c836134e5565b91507f4dc3a9746f646f2073c3b320706f646520736572206368616d61646f20706f7260008301527f20636f6e747261746f206465206e6567c3b363696f207072657669616d656e7460208301527f65206361646173747261646f00000000000000000000000000000000000000006040830152606082019050919050565b6000612b966022836134e5565b91507f526f6c65733a206163636f756e7420697320746865207a65726f20616464726560008301527f73730000000000000000000000000000000000000000000000000000000000006020830152604082019050919050565b6000612bfc604a836134e5565b91507f436f6e746120646f206f776e657220646f20636f6e747261746f20657370656360008301527fc3ad6669636f207072656369736120657374617220636f6d206361646173747260208301527f6f2076616c696461646f000000000000000000000000000000000000000000006040830152606082019050919050565b6000612c88603b836134e5565b91507f4dc3a9746f646f2073c3b320706f646520736572206368616d61646f20706f7260008301527f20636f6e747261746f206465206e6567c3b363696f20617469766f00000000006020830152604082019050919050565b6000612cee602a836134e5565b91507f56616c6f72206120717565696d6172206465766520736572206d61696f72206460008301527f6f20717565207a65726f000000000000000000000000000000000000000000006020830152604082019050919050565b6000612d546037836134e5565b91507f436f6e747261746f206573706563c3ad6669636f20657370656369666963616460008301527f6f206ec3a36f20657374c3a1207265676973747261646f0000000000000000006020830152604082019050919050565b6000612dba6033836134e5565b91507f436f6e7461206465206f726967656d207072656369736120657374617220636f60008301527f6d20636164617374726f2076616c696461646f000000000000000000000000006020830152604082019050919050565b6000612e206034836134e5565b91507f436f6e74612064652064657374696e6f2070726563697361206573746172206360008301527f6f6d20636164617374726f2076616c696461646f0000000000000000000000006020830152604082019050919050565b612e828161353e565b82525050565b612e9181613548565b82525050565b6000602082019050612eac6000830184612550565b92915050565b6000602082019050612ec76000830184612541565b92915050565b6000602082019050612ee260008301846125d4565b92915050565b6000602082019050612efd60008301846125e3565b92915050565b6000602082019050612f1860008301846125f2565b92915050565b60006020820190508181036000830152612f388184612601565b905092915050565b60006020820190508181036000830152612f5981612673565b9050919050565b60006020820190508181036000830152612f79816126b3565b9050919050565b60006020820190508181036000830152612f99816126f3565b9050919050565b60006020820190508181036000830152612fb981612759565b9050919050565b60006020820190508181036000830152612fd981612799565b9050919050565b60006020820190508181036000830152612ff9816127ff565b9050919050565b6000602082019050818103600083015261301981612865565b9050919050565b60006020820190508181036000830152613039816128a5565b9050919050565b60006020820190508181036000830152613059816128e5565b9050919050565b600060208201905081810360008301526130798161294b565b9050919050565b60006020820190508181036000830152613099816129b1565b9050919050565b600060208201905081810360008301526130b9816129f1565b9050919050565b600060208201905081810360008301526130d981612a57565b9050919050565b600060208201905081810360008301526130f981612abd565b9050919050565b6000602082019050818103600083015261311981612afd565b9050919050565b6000602082019050818103600083015261313981612b89565b9050919050565b6000602082019050818103600083015261315981612bef565b9050919050565b6000602082019050818103600083015261317981612c7b565b9050919050565b6000602082019050818103600083015261319981612ce1565b9050919050565b600060208201905081810360008301526131b981612d47565b9050919050565b600060208201905081810360008301526131d981612dad565b9050919050565b600060208201905081810360008301526131f981612e13565b9050919050565b60006020820190506132156000830184612e79565b92915050565b60006040820190506132306000830185612e79565b61323d60208301846125d4565b9392505050565b600060c0820190506132596000830189612e79565b61326660208301886125e3565b6132736040830187612e79565b61328060608301866125e3565b61328d6080830185612e79565b81810360a083015261329f818461255f565b9050979650505050505050565b60006040820190506132c16000830185612e79565b6132ce6020830184612e79565b9392505050565b60006060820190506132ea6000830186612e79565b6132f76020830185612e79565b6133046040830184612550565b949350505050565b60006060820190506133216000830186612e79565b61332e6020830185612e79565b61333b60408301846125d4565b949350505050565b60006080820190506133586000830187612e79565b6133656020830186612e79565b61337260408301856125e3565b61337f6060830184612e79565b95945050505050565b600060c08201905061339d6000830189612e79565b6133aa6020830188612e79565b6133b760408301876125e3565b6133c46060830186612e79565b6133d160808301856125e3565b6133de60a0830184612e79565b979650505050505050565b60006020820190506133fe6000830184612e88565b92915050565b6000604051905081810181811067ffffffffffffffff8211171561342757600080fd5b8060405250919050565b600067ffffffffffffffff82111561344857600080fd5b602082029050602081019050919050565b600067ffffffffffffffff82111561347057600080fd5b601f19601f8301169050602081019050919050565b6000819050602082019050919050565b600081519050919050565b600081519050919050565b600081519050919050565b6000602082019050919050565b600082825260208201905092915050565b600082825260208201905092915050565b600082825260208201905092915050565b60006135018261351e565b9050919050565b60008115159050919050565b6000819050919050565b600073ffffffffffffffffffffffffffffffffffffffff82169050919050565b6000819050919050565b600060ff82169050919050565b60006135608261358b565b9050919050565b600061357282613579565b9050919050565b60006135848261351e565b9050919050565b60006135968261359d565b9050919050565b60006135a88261351e565b9050919050565b82818337600083830152505050565b60005b838110156135dc5780820151818401526020810190506135c1565b838111156135eb576000848401525b50505050565b6000601f19601f8301169050919050565b61360b816134f6565b811461361657600080fd5b50565b61362281613508565b811461362d57600080fd5b50565b61363981613514565b811461364457600080fd5b50565b6136508161353e565b811461365b57600080fd5b5056fe53616c646f206461206f726967656d206ec3a36f20c3a920737566696369656e746520706172612061207472616e73666572c3aa6e636961a365627a7a72315820f8ed81d17892ccb84ea836a4d7f38970969be53eb2438cdaf6676fcf0cab687c6c6578706572696d656e74616cf564736f6c63430005100040",
  "source": "pragma solidity ^0.5.0;\npragma experimental ABIEncoderV2;\n\n\nimport \"./RBBLib.sol\";\nimport \"./RBBRegistry.sol\";\nimport \"./SpecificRBBToken.sol\";\nimport \"@openzeppelin/contracts/ownership/Ownable.sol\";\nimport \"@openzeppelin/contracts/lifecycle/Pausable.sol\";\nimport \"@openzeppelin/contracts/math/SafeMath.sol\";\n\n//todo: decidir usar id or addr para os contratos especificos\n//TODO: framework de mudanca e gestao descentralizada de mints e burns\ncontract BusinessContractRegistry is Ownable {\n\n    //It starts with 1, because 0 is the id value returned when the item is not found in the businessContractsRegistry\n    uint public idCount = 1;\n\n    struct BusinessContractInfo {\n        uint id;\n        uint ownerId;\n        bool isActive;\n    }\n\n    event BusinessContractRegistration (uint id, uint ownerId, address addr);\n    event BusinessContractStateChange (uint id, bool state);\n\n    //indexado pelo address pq serah a forma mais usada para consulta.\n    mapping (address => BusinessContractInfo) public businessContractsRegistry;\n\n    modifier onlyByRegisteredAndActiveContracts {\n        require(containsBusinessContract(msg.sender), \"Mtodo s pode ser chamado por contrato de negcio previamente cadastrado\");\n        require(isBusinessContractActive(msg.sender), \"Mtodo s pode ser chamado por contrato de negcio ativo\");\n        _;\n    }\n\n//TODO: adicionar como ponto positivo do contrato genrico no PPT. nao eh possivel mudar o uint do owner sem mudar o contrato\n    function registerBusinessContract (address addr, uint ownerId) public onlyOwner returns (uint)  {\n        require (!containsBusinessContract(addr), \"Contrato j registrado\");\n        businessContractsRegistry[addr] = BusinessContractInfo(idCount, ownerId, true);\n        emit BusinessContractRegistration (idCount, ownerId, addr);\n        idCount++;\n    }\n\n    function getBusinessContractId (address addr) public view returns (uint) {\n        require (containsBusinessContract(addr), \"Contrato de negocio nao registrado\");\n        BusinessContractInfo memory info = businessContractsRegistry[addr];\n        return info.id;\n    }\n\n    function getBusinessContractIdAndOwnerId (address addr) public view returns (uint, uint) {\n        require (containsBusinessContract(addr), \"Contrato de negocio nao registrado\");\n        BusinessContractInfo memory info = businessContractsRegistry[addr];\n        return (info.id, info.ownerId);\n    }\n    \n    function containsBusinessContract(address addr) public view returns (bool) {\n        BusinessContractInfo memory info = businessContractsRegistry[addr];\n        if (info.id!=0) return true;\n        else return false;\n    }\n\n    function isBusinessContractActive(address addr) public view returns (bool) {\n        require (containsBusinessContract(addr), \"Contrato de negocio nao registrado\");\n        BusinessContractInfo memory info = businessContractsRegistry[addr];\n        return info.isActive;\n    }\n\n    function setStatus(address addr, bool status) public onlyOwner returns (bool) {\n        require (containsBusinessContract(addr), \"Contrato de negocio nao registrado\");\n        BusinessContractInfo storage info = businessContractsRegistry[addr];\n        info.isActive = status;\n        emit BusinessContractStateChange(info.id, info.isActive);\n    }\n}\n\n//TODO: pensar - se precisasse fazer upgrade de um contrato, seria somente registrar um contrato com id do anterior. Criar um metodo para facilitar isso para facilitar o cdigo de mudanas?\ncontract RBBToken is Pausable, BusinessContractRegistry {\n\n    using SafeMath for uint;\n\n    RBBRegistry public registry;\n\n    uint8 public decimals = 2;\n//    uint8 public RESERVED_ID_VALUE = 0;\n    bytes32 public RESERVED_HASH_VALUE = 0x0000000000000000000000000000000000000000000000000000000000000000;\n\n    //businessContractId => (RBBid => (specificHash => amount)\n    mapping (uint => mapping (uint => mapping (bytes32 => uint))) public rbbBalances;\n\n//todo: incluir parametro de data nos eventos de transfer e redeem\n    event RBBMintRequest(uint businessContractId, uint amount);\n    event RBBTokenMint(uint businessContractId, uint amount);\n    event RBBTokenBurn(uint businessContractId, uint amount);\n    event RBBRedemptionRequested (uint businessContractId, uint fromId, bytes32 fromHash, uint amount);\n\n    event RBBTokenTransfer (uint businessContractId, uint fromId, bytes32 fromHash, uint toId,\n                            bytes32 toHash, uint amount);\n\n\n    constructor (address newRegistryAddr, uint8 _decimals) public {\n        registry = RBBRegistry(newRegistryAddr);\n        decimals = _decimals;\n    }\n\n///******************************************************************* */\n\n    function requestMint(uint amount) public onlyByRegisteredAndActiveContracts {\n    \n        require (amount>0, \"Valor a ser transacionado deve ser maior do que zero.\");\n        address businessContractAddr = msg.sender;\n        uint businessContractId = getBusinessContractId(businessContractAddr);\n    \n    //TODO: precisa guardar em uma estrutuda de dados?\n        emit RBBMintRequest(businessContractId, amount);\n\n    }\n\n    function mint(address businessContractAddr, uint amount) public onlyOwner {\n\n        require(isBusinessContractActive(businessContractAddr), \"Contrato precisa estar ativo\");\n        (uint businessContractId, uint businessContractOwnerId) = \n                    getBusinessContractIdAndOwnerId(businessContractAddr);\n        rbbBalances[businessContractId][businessContractOwnerId][RESERVED_HASH_VALUE] = \n            rbbBalances[businessContractId][businessContractOwnerId][RESERVED_HASH_VALUE].add(amount);\n        emit RBBTokenMint(businessContractId, amount);\n    }\n\n    function burn (address businessContractAddr, uint amount) public onlyOwner {\n\n        (uint businessContractId, uint businessContractOwnerId) = \n                    getBusinessContractIdAndOwnerId(businessContractAddr);\n//TODO: confirmar que no contrato precisa ter cadastro validado para ter esse burn\n        _burn(businessContractAddr, businessContractOwnerId, RESERVED_HASH_VALUE, amount);\n\n    }\n\n    function _burn(address businessContractAddr, uint fromId, bytes32 fromHash, uint amount) internal {\n        \n        require(isBusinessContractActive(businessContractAddr), \"Contrato precisa estar ativo para haver burn\");\n        require(amount>0, \"Valor a queimar deve ser maior do que zero\");\n        \n        uint businessContractId = getBusinessContractId(businessContractAddr);\n\n        rbbBalances[businessContractId][fromId][fromHash].sub(amount, \"Burn amount exceeds balance\");\n\n        emit RBBTokenBurn(businessContractId, amount);\n    }\n\n///******************************************************************* */\n\n\n//myContract.call(bytes4(sha3(\"myFunction(uint256,bytes32,string)\")), 42, 0xabc, \"hello\")\n//chamados de interveno manual tambm seriam feitos pelo transfer, com verificao de intervencao manual\n\n//TODO: incluir hash de registro um objeto genrico para registrar informacoes\n    function transfer (address businessContractAddr, uint fromId, bytes32 fromHash, uint toId, bytes32 toHash, \n            uint amount, string[] memory data) public whenNotPaused {\n\n        require(containsBusinessContract(businessContractAddr), \"Contrato especfico especificado no est registrado\");\n        require(isBusinessContractActive(businessContractAddr), \"Contrato especfico no est ativo\");\n        require(registry.isValidatedId(fromId), \"Conta de origem precisa estar com cadastro validado\");\n        require(registry.isValidatedId(toId), \"Conta de destino precisa estar com cadastro validado\");\n        uint businessContractId = getBusinessContractId(businessContractAddr);\n\n\n        SpecificRBBToken specificContract = SpecificRBBToken(businessContractAddr);\n        specificContract.verifyAndActForTransfer(fromId, fromHash, toId, toHash, amount, data);\n\n//        require (amount>0, \"Valor a ser transacionado deve ser maior do que zero.\");\n        //altera valores de saldo\n        rbbBalances[businessContractId][fromId][fromHash] =\n                rbbBalances[businessContractId][fromId][fromHash].sub(amount, \"Saldo da origem no  suficiente para a transferncia\");\n        rbbBalances[businessContractId][toId][toHash] = rbbBalances[businessContractId][toId][toHash].add(amount);\n\n        emit RBBTokenTransfer (businessContractId, fromId, fromHash, toId, toHash, amount);\n\n\n    }\n\n    function allocate (address businessContractAddr, uint toId, bytes32 toHash, uint amount, string[] memory data) public \n        whenNotPaused {\n\n            (uint businessContractId, uint businessContractOwnerId) = \n                    getBusinessContractIdAndOwnerId(businessContractAddr);\n\n            require(registry.isValidatedId(businessContractOwnerId), \"Conta do owner do contrato especfico precisa estar com cadastro validado\");\n            transfer(businessContractAddr, businessContractOwnerId, RESERVED_HASH_VALUE, toId, toHash, amount, data);\n    }\n\n    function redeem (address businessContractAddr, uint fromId, bytes32 fromHash, uint amount, string[] memory data) public \n        whenNotPaused  {\n\n            (uint businessContractId, uint businessContractOwnerId) = \n                    getBusinessContractIdAndOwnerId(businessContractAddr);\n\n            require(registry.isValidatedId(businessContractOwnerId), \"Conta do owner do contrato especfico precisa estar com cadastro validado\");\n\n            //?? Burn deveria ser de qq conta ou somente da conta reserva? conta reserva do BNDES? refletir no allocate?\n            //transfer(businessContractId, fromId, fromHash, RESERVED_ID_VALUE, RESERVED_HASH_VALUE, amount);\n            emit RBBRedemptionRequested(businessContractId, fromId, fromHash, amount);\n            _burn(businessContractAddr, fromId, fromHash, amount);\n    }\n\n///******************************************************************* */\n\n\n/*    \n    function getReservedBalanceByBusinessContract(address businessContractAddr) view public returns (uint) {\n        uint businessContractId = getBusinessContractId(businessContractAddr);\n        return rbbBalances[businessContractId][RESERVED_ID_VALUE][RESERVED_HASH_VALUE];\n    }\n*/\n    function getDecimals() public view returns (uint8) {\n        return decimals;\n    }\n\n}",
  "sourcePath": "/Users/suzana.moreno/workspace/rbb-token/Back-Blockchain/contracts/RBBToken.sol",
  "compiler": {
    "name": "solc",
    "version": "0.5.16+commit.9c3226ce.Emscripten.clang"
  },
  "schemaVersion": "3.0.23",
  "updatedAt": "2020-09-14T22:28:32.116Z",
  "devdoc": {
    "methods": {
      "isOwner()": {
        "details": "Returns true if the caller is the current owner."
      },
      "owner()": {
        "details": "Returns the address of the current owner."
      },
      "pause()": {
        "details": "Called by a pauser to pause, triggers stopped state."
      },
      "paused()": {
        "details": "Returns true if the contract is paused, and false otherwise."
      },
      "renounceOwnership()": {
        "details": "Leaves the contract without owner. It will not be possible to call `onlyOwner` functions anymore. Can only be called by the current owner.     * NOTE: Renouncing ownership will leave the contract without an owner, thereby removing any functionality that is only available to the owner."
      },
      "transferOwnership(address)": {
        "details": "Transfers ownership of the contract to a new account (`newOwner`). Can only be called by the current owner."
      },
      "unpause()": {
        "details": "Called by a pauser to unpause, returns to normal state."
      }
    }
  },
  "userdoc": {
    "methods": {
      "getDecimals()": {
        "notice": "******************************************************************* */"
      },
      "requestMint(uint256)": {
        "notice": "******************************************************************* */"
      },
      "transfer(address,uint256,bytes32,uint256,bytes32,uint256,string[])": {
        "notice": "******************************************************************* */"
      }
    }
  }
}