{
  "contractName": "RBBToken",
  "abi": [
    {
      "inputs": [
        {
          "internalType": "address",
          "name": "newRegistryAddr",
          "type": "address"
        },
        {
          "internalType": "address",
          "name": "newSpecificRBBTokenAddr",
          "type": "address"
        },
        {
          "internalType": "uint8",
          "name": "_decimals",
          "type": "uint8"
        }
      ],
      "stateMutability": "nonpayable",
      "type": "constructor"
    },
    {
      "anonymous": false,
      "inputs": [
        {
          "indexed": false,
          "internalType": "address",
          "name": "account",
          "type": "address"
        },
        {
          "indexed": false,
          "internalType": "uint8",
          "name": "eventType",
          "type": "uint8"
        }
      ],
      "name": "ManualIntervention_RoleOrAddress",
      "type": "event"
    },
    {
      "anonymous": false,
      "inputs": [
        {
          "indexed": true,
          "internalType": "address",
          "name": "previousOwner",
          "type": "address"
        },
        {
          "indexed": true,
          "internalType": "address",
          "name": "newOwner",
          "type": "address"
        }
      ],
      "name": "OwnershipTransferred",
      "type": "event"
    },
    {
      "anonymous": false,
      "inputs": [
        {
          "indexed": false,
          "internalType": "address",
          "name": "account",
          "type": "address"
        }
      ],
      "name": "Paused",
      "type": "event"
    },
    {
      "anonymous": false,
      "inputs": [
        {
          "indexed": false,
          "internalType": "address",
          "name": "specificTokenAddr",
          "type": "address"
        },
        {
          "indexed": false,
          "internalType": "address",
          "name": "originalSender",
          "type": "address"
        },
        {
          "indexed": false,
          "internalType": "uint256",
          "name": "fromId",
          "type": "uint256"
        },
        {
          "indexed": false,
          "internalType": "bytes32",
          "name": "fromHash",
          "type": "bytes32"
        },
        {
          "indexed": false,
          "internalType": "uint256",
          "name": "amount",
          "type": "uint256"
        },
        {
          "indexed": false,
          "internalType": "bytes32",
          "name": "docHash",
          "type": "bytes32"
        }
      ],
      "name": "RBBTokenBurn",
      "type": "event"
    },
    {
      "anonymous": false,
      "inputs": [
        {
          "indexed": false,
          "internalType": "address",
          "name": "specificTokenAddr",
          "type": "address"
        },
        {
          "indexed": false,
          "internalType": "bytes32",
          "name": "specificHash",
          "type": "bytes32"
        },
        {
          "indexed": false,
          "internalType": "uint256",
          "name": "amount",
          "type": "uint256"
        },
        {
          "indexed": false,
          "internalType": "bytes32",
          "name": "docHash",
          "type": "bytes32"
        },
        {
          "indexed": false,
          "internalType": "string[]",
          "name": "data",
          "type": "string[]"
        }
      ],
      "name": "RBBTokenMint",
      "type": "event"
    },
    {
      "anonymous": false,
      "inputs": [
        {
          "indexed": false,
          "internalType": "address",
          "name": "specificTokenAddr",
          "type": "address"
        },
        {
          "indexed": false,
          "internalType": "bytes32",
          "name": "specificHash",
          "type": "bytes32"
        },
        {
          "indexed": false,
          "internalType": "uint256",
          "name": "idInvestor",
          "type": "uint256"
        },
        {
          "indexed": false,
          "internalType": "uint256",
          "name": "amount",
          "type": "uint256"
        },
        {
          "indexed": false,
          "internalType": "bytes32",
          "name": "docHash",
          "type": "bytes32"
        }
      ],
      "name": "RBBTokenMintRequested",
      "type": "event"
    },
    {
      "anonymous": false,
      "inputs": [
        {
          "indexed": false,
          "internalType": "address",
          "name": "specificTokenAddr",
          "type": "address"
        },
        {
          "indexed": false,
          "internalType": "address",
          "name": "originalSender",
          "type": "address"
        },
        {
          "indexed": false,
          "internalType": "uint256",
          "name": "fromId",
          "type": "uint256"
        },
        {
          "indexed": false,
          "internalType": "bytes32",
          "name": "fromHash",
          "type": "bytes32"
        },
        {
          "indexed": false,
          "internalType": "uint256",
          "name": "amount",
          "type": "uint256"
        },
        {
          "indexed": false,
          "internalType": "bytes32",
          "name": "docHash",
          "type": "bytes32"
        },
        {
          "indexed": false,
          "internalType": "string[]",
          "name": "data",
          "type": "string[]"
        }
      ],
      "name": "RBBTokenRedemptionRequested",
      "type": "event"
    },
    {
      "anonymous": false,
      "inputs": [
        {
          "indexed": false,
          "internalType": "address",
          "name": "specificTokenAddr",
          "type": "address"
        },
        {
          "indexed": false,
          "internalType": "bytes32",
          "name": "redemptionTransactionHash",
          "type": "bytes32"
        },
        {
          "indexed": false,
          "internalType": "bytes32",
          "name": "docHash",
          "type": "bytes32"
        },
        {
          "indexed": false,
          "internalType": "string[]",
          "name": "data",
          "type": "string[]"
        }
      ],
      "name": "RBBTokenRedemptionSettlement",
      "type": "event"
    },
    {
      "anonymous": false,
      "inputs": [
        {
          "indexed": false,
          "internalType": "address",
          "name": "specificTokenAddr",
          "type": "address"
        },
        {
          "indexed": false,
          "internalType": "address",
          "name": "originalSender",
          "type": "address"
        },
        {
          "indexed": false,
          "internalType": "uint256",
          "name": "fromId",
          "type": "uint256"
        },
        {
          "indexed": false,
          "internalType": "bytes32",
          "name": "fromHash",
          "type": "bytes32"
        },
        {
          "indexed": false,
          "internalType": "uint256",
          "name": "toId",
          "type": "uint256"
        },
        {
          "indexed": false,
          "internalType": "bytes32",
          "name": "toHash",
          "type": "bytes32"
        },
        {
          "indexed": false,
          "internalType": "uint256",
          "name": "amount",
          "type": "uint256"
        },
        {
          "indexed": false,
          "internalType": "bytes32",
          "name": "docHash",
          "type": "bytes32"
        },
        {
          "indexed": false,
          "internalType": "string[]",
          "name": "data",
          "type": "string[]"
        }
      ],
      "name": "RBBTokenTransfer",
      "type": "event"
    },
    {
      "anonymous": false,
      "inputs": [
        {
          "indexed": false,
          "internalType": "address",
          "name": "account",
          "type": "address"
        }
      ],
      "name": "Unpaused",
      "type": "event"
    },
    {
      "inputs": [
        {
          "internalType": "uint256",
          "name": "",
          "type": "uint256"
        },
        {
          "internalType": "uint256",
          "name": "",
          "type": "uint256"
        },
        {
          "internalType": "bytes32",
          "name": "",
          "type": "bytes32"
        }
      ],
      "name": "balanceRequestedTokens",
      "outputs": [
        {
          "internalType": "uint256",
          "name": "",
          "type": "uint256"
        }
      ],
      "stateMutability": "view",
      "type": "function"
    },
    {
      "inputs": [],
      "name": "decimals",
      "outputs": [
        {
          "internalType": "uint8",
          "name": "",
          "type": "uint8"
        }
      ],
      "stateMutability": "view",
      "type": "function"
    },
    {
      "inputs": [],
      "name": "owner",
      "outputs": [
        {
          "internalType": "address",
          "name": "",
          "type": "address"
        }
      ],
      "stateMutability": "view",
      "type": "function"
    },
    {
      "inputs": [],
      "name": "paused",
      "outputs": [
        {
          "internalType": "bool",
          "name": "",
          "type": "bool"
        }
      ],
      "stateMutability": "view",
      "type": "function"
    },
    {
      "inputs": [
        {
          "internalType": "uint256",
          "name": "",
          "type": "uint256"
        },
        {
          "internalType": "uint256",
          "name": "",
          "type": "uint256"
        },
        {
          "internalType": "bytes32",
          "name": "",
          "type": "bytes32"
        }
      ],
      "name": "rbbBalances",
      "outputs": [
        {
          "internalType": "uint256",
          "name": "",
          "type": "uint256"
        }
      ],
      "stateMutability": "view",
      "type": "function"
    },
    {
      "inputs": [],
      "name": "registry",
      "outputs": [
        {
          "internalType": "contract RBBRegistry",
          "name": "",
          "type": "address"
        }
      ],
      "stateMutability": "view",
      "type": "function"
    },
    {
      "inputs": [],
      "name": "renounceOwnership",
      "outputs": [],
      "stateMutability": "nonpayable",
      "type": "function"
    },
    {
      "inputs": [],
      "name": "responsibleForInvestmentConfirmation",
      "outputs": [
        {
          "internalType": "address",
          "name": "",
          "type": "address"
        }
      ],
      "stateMutability": "view",
      "type": "function"
    },
    {
      "inputs": [],
      "name": "responsibleForSettlement",
      "outputs": [
        {
          "internalType": "address",
          "name": "",
          "type": "address"
        }
      ],
      "stateMutability": "view",
      "type": "function"
    },
    {
      "inputs": [],
      "name": "tokenRegistry",
      "outputs": [
        {
          "internalType": "contract SpecificRBBTokenRegistry",
          "name": "",
          "type": "address"
        }
      ],
      "stateMutability": "view",
      "type": "function"
    },
    {
      "inputs": [
        {
          "internalType": "address",
          "name": "newOwner",
          "type": "address"
        }
      ],
      "name": "transferOwnership",
      "outputs": [],
      "stateMutability": "nonpayable",
      "type": "function"
    },
    {
      "inputs": [
        {
          "internalType": "bytes32",
          "name": "specificInvestimentHash",
          "type": "bytes32"
        },
        {
          "internalType": "uint256",
          "name": "idInvestor",
          "type": "uint256"
        },
        {
          "internalType": "uint256",
          "name": "amount",
          "type": "uint256"
        },
        {
          "internalType": "bytes32",
          "name": "docHash",
          "type": "bytes32"
        }
      ],
      "name": "requestMint",
      "outputs": [],
      "stateMutability": "nonpayable",
      "type": "function"
    },
    {
      "inputs": [
        {
          "internalType": "address",
          "name": "specificTokenAddr",
          "type": "address"
        },
        {
          "internalType": "uint256",
          "name": "idInvestor",
          "type": "uint256"
        },
        {
          "internalType": "bytes32",
          "name": "specificHash",
          "type": "bytes32"
        },
        {
          "internalType": "uint256",
          "name": "amount",
          "type": "uint256"
        },
        {
          "internalType": "bytes32",
          "name": "docHash",
          "type": "bytes32"
        },
        {
          "internalType": "string[]",
          "name": "data",
          "type": "string[]"
        }
      ],
      "name": "mint",
      "outputs": [],
      "stateMutability": "nonpayable",
      "type": "function"
    },
    {
      "inputs": [
        {
          "internalType": "address",
          "name": "originalSender",
          "type": "address"
        },
        {
          "internalType": "bytes32",
          "name": "hashToBurn",
          "type": "bytes32"
        },
        {
          "internalType": "uint256",
          "name": "amount",
          "type": "uint256"
        },
        {
          "internalType": "bytes32",
          "name": "docHash",
          "type": "bytes32"
        }
      ],
      "name": "burnOwnTokenBySpecificTokens",
      "outputs": [],
      "stateMutability": "nonpayable",
      "type": "function"
    },
    {
      "inputs": [
        {
          "internalType": "address",
          "name": "specificTokenAddr",
          "type": "address"
        },
        {
          "internalType": "bytes32",
          "name": "hashToBurn",
          "type": "bytes32"
        },
        {
          "internalType": "uint256",
          "name": "amount",
          "type": "uint256"
        },
        {
          "internalType": "bytes32",
          "name": "docHash",
          "type": "bytes32"
        }
      ],
      "name": "burnOwnToken",
      "outputs": [],
      "stateMutability": "nonpayable",
      "type": "function"
    },
    {
      "inputs": [
        {
          "internalType": "address",
          "name": "specificTokenAddr",
          "type": "address"
        },
        {
          "internalType": "bytes32",
          "name": "fromHash",
          "type": "bytes32"
        },
        {
          "internalType": "uint256",
          "name": "toId",
          "type": "uint256"
        },
        {
          "internalType": "bytes32",
          "name": "toHash",
          "type": "bytes32"
        },
        {
          "internalType": "uint256",
          "name": "amount",
          "type": "uint256"
        },
        {
          "internalType": "bytes32",
          "name": "docHash",
          "type": "bytes32"
        },
        {
          "internalType": "string[]",
          "name": "data",
          "type": "string[]"
        }
      ],
      "name": "transfer",
      "outputs": [],
      "stateMutability": "nonpayable",
      "type": "function"
    },
    {
      "inputs": [
        {
          "internalType": "address",
          "name": "specificTokenAddr",
          "type": "address"
        },
        {
          "internalType": "bytes32",
          "name": "fromHash",
          "type": "bytes32"
        },
        {
          "internalType": "uint256",
          "name": "amount",
          "type": "uint256"
        },
        {
          "internalType": "bytes32",
          "name": "docHash",
          "type": "bytes32"
        },
        {
          "internalType": "string[]",
          "name": "data",
          "type": "string[]"
        }
      ],
      "name": "redeem",
      "outputs": [],
      "stateMutability": "nonpayable",
      "type": "function"
    },
    {
      "inputs": [
        {
          "internalType": "address",
          "name": "specificTokenAddr",
          "type": "address"
        },
        {
          "internalType": "bytes32",
          "name": "redemptionTransactionHash",
          "type": "bytes32"
        },
        {
          "internalType": "bytes32",
          "name": "docHash",
          "type": "bytes32"
        },
        {
          "internalType": "string[]",
          "name": "data",
          "type": "string[]"
        }
      ],
      "name": "notifyRedemptionSettlement",
      "outputs": [],
      "stateMutability": "nonpayable",
      "type": "function"
    },
    {
      "inputs": [],
      "name": "getDecimals",
      "outputs": [
        {
          "internalType": "uint8",
          "name": "",
          "type": "uint8"
        }
      ],
      "stateMutability": "view",
      "type": "function"
    },
    {
      "inputs": [],
      "name": "getBndesId",
      "outputs": [
        {
          "internalType": "uint256",
          "name": "",
          "type": "uint256"
        }
      ],
      "stateMutability": "view",
      "type": "function"
    },
    {
      "inputs": [
        {
          "internalType": "address",
          "name": "rs",
          "type": "address"
        }
      ],
      "name": "setResponsibleForInvestmentConfirmation",
      "outputs": [],
      "stateMutability": "nonpayable",
      "type": "function"
    },
    {
      "inputs": [
        {
          "internalType": "address",
          "name": "rs",
          "type": "address"
        }
      ],
      "name": "setResponsibleForSettlement",
      "outputs": [],
      "stateMutability": "nonpayable",
      "type": "function"
    }
  ],
  "bytecode": "0x608060405260028060146101000a81548160ff021916908360ff1602179055503480156200002c57600080fd5b5060405162003c6238038062003c6283398181016040528101906200005291906200027b565b60008060006101000a81548160ff02191690831515021790555060006200007e6200024560201b60201c565b905080600060016101000a81548173ffffffffffffffffffffffffffffffffffffffff021916908373ffffffffffffffffffffffffffffffffffffffff1602179055508073ffffffffffffffffffffffffffffffffffffffff16600073ffffffffffffffffffffffffffffffffffffffff167f8be0079c531659141344cd1fd0a4f28419497f9722a3daafe3b4186f6b6457e060405160405180910390a35082600260006101000a81548173ffffffffffffffffffffffffffffffffffffffff021916908373ffffffffffffffffffffffffffffffffffffffff16021790555081600160006101000a81548173ffffffffffffffffffffffffffffffffffffffff021916908373ffffffffffffffffffffffffffffffffffffffff16021790555080600260146101000a81548160ff021916908360ff16021790555033600360006101000a81548173ffffffffffffffffffffffffffffffffffffffff021916908373ffffffffffffffffffffffffffffffffffffffff16021790555033600460006101000a81548173ffffffffffffffffffffffffffffffffffffffff021916908373ffffffffffffffffffffffffffffffffffffffff16021790555050505062000346565b600033905090565b6000815190506200025e8162000312565b92915050565b60008151905062000275816200032c565b92915050565b6000806000606084860312156200029157600080fd5b6000620002a1868287016200024d565b9350506020620002b4868287016200024d565b9250506040620002c78682870162000264565b9150509250925092565b6000620002de82620002e5565b9050919050565b600073ffffffffffffffffffffffffffffffffffffffff82169050919050565b600060ff82169050919050565b6200031d81620002d1565b81146200032957600080fd5b50565b620003378162000305565b81146200034357600080fd5b50565b61390c80620003566000396000f3fe608060405234801561001057600080fd5b50600436106101425760003560e01c80637b103999116100b8578063b7404ff51161007c578063b7404ff514610319578063c4112eac14610335578063d9a428fe14610365578063e67b02a414610381578063f0141d841461039d578063f2fde38b146103bb57610142565b80637b103999146102855780638da5cb5b146102a35780639d23c4c7146102c1578063a1ccae97146102df578063a6a9ba88146102fb57610142565b8063313ce5671161010a578063313ce567146101e95780633d05817a146102075780634a47f599146102235780635c975abb146102415780635d09022c1461025f578063715018a61461027b57610142565b806304cc4d8e146101475780630bb91394146101635780630faf5eb21461017f578063214538001461019b57806330b49983146101b9575b600080fd5b610161600480360381019061015c91906127f5565b6103d7565b005b61017d60048036038101906101789190612583565b610621565b005b61019960048036038101906101949190612675565b610776565b005b6101a3610b9a565b6040516101b09190612f25565b60405180910390f35b6101d360048036038101906101ce91906128bd565b610bc0565b6040516101e0919061352a565b60405180910390f35b6101f1610bf2565b6040516101fe919061359f565b60405180910390f35b610221600480360381019061021c919061272b565b610c05565b005b61022b611082565b604051610238919061352a565b60405180910390f35b610249611140565b60405161025691906132fe565b60405180910390f35b610279600480360381019061027491906124df565b611156565b005b61028361140e565b005b61028d611565565b60405161029a9190613372565b60405180910390f35b6102ab61158b565b6040516102b89190612f25565b60405180910390f35b6102c96115b4565b6040516102d6919061338d565b60405180910390f35b6102f960048036038101906102f49190612583565b6115da565b005b610303611729565b6040516103109190612f25565b60405180910390f35b610333600480360381019061032e91906124df565b61174f565b005b61034f600480360381019061034a91906128bd565b611a07565b60405161035c919061352a565b60405180910390f35b61037f600480360381019061037a9190612508565b611a39565b005b61039b600480360381019061039691906125e6565b611c5a565b005b6103a5611ef9565b6040516103b2919061359f565b60405180910390f35b6103d560048036038101906103d091906124df565b611f10565b005b6000821161041a576040517f08c379a00000000000000000000000000000000000000000000000000000000081526004016104119061342a565b60405180910390fd5b6000339050600160009054906101000a900473ffffffffffffffffffffffffffffffffffffffff1673ffffffffffffffffffffffffffffffffffffffff1663d06d86eb826040518263ffffffff1660e01b815260040161047a9190612f25565b60006040518083038186803b15801561049257600080fd5b505afa1580156104a6573d6000803e3d6000fd5b505050506000600160009054906101000a900473ffffffffffffffffffffffffffffffffffffffff1673ffffffffffffffffffffffffffffffffffffffff166324370167836040518263ffffffff1660e01b81526004016105079190612f25565b60206040518083038186803b15801561051f57600080fd5b505afa158015610533573d6000803e3d6000fd5b505050506040513d601f19601f820116820180604052508101906105579190612858565b90506105a1846006600084815260200190815260200160002060008881526020019081526020016000206000898152602001908152602001600020546120d790919063ffffffff16565b6006600083815260200190815260200160002060008781526020019081526020016000206000888152602001908152602001600020819055507fb5d8f9b160e3756e6a72237700498d57cf4fc736169d86a72e2389a6d24a7df18287878787604051610611959493929190613259565b60405180910390a1505050505050565b6000339050600160009054906101000a900473ffffffffffffffffffffffffffffffffffffffff1673ffffffffffffffffffffffffffffffffffffffff1663d06d86eb826040518263ffffffff1660e01b81526004016106819190612f25565b60006040518083038186803b15801561069957600080fd5b505afa1580156106ad573d6000803e3d6000fd5b505050506000600160009054906101000a900473ffffffffffffffffffffffffffffffffffffffff1673ffffffffffffffffffffffffffffffffffffffff1663c2c7ea79836040518263ffffffff1660e01b815260040161070e9190612f25565b60206040518083038186803b15801561072657600080fd5b505afa15801561073a573d6000803e3d6000fd5b505050506040513d601f19601f8201168201806040525081019061075e9190612858565b905061076e82878388888861212c565b505050505050565b60008054906101000a900460ff16156107c4576040517f08c379a00000000000000000000000000000000000000000000000000000000081526004016107bb9061346a565b60405180910390fd5b6000600260009054906101000a900473ffffffffffffffffffffffffffffffffffffffff1673ffffffffffffffffffffffffffffffffffffffff166365f68c89336040518263ffffffff1660e01b81526004016108219190612f40565b60206040518083038186803b15801561083957600080fd5b505afa15801561084d573d6000803e3d6000fd5b505050506040513d601f19601f820116820180604052508101906108719190612858565b9050600160009054906101000a900473ffffffffffffffffffffffffffffffffffffffff1673ffffffffffffffffffffffffffffffffffffffff1663d06d86eb896040518263ffffffff1660e01b81526004016108ce9190612f25565b60006040518083038186803b1580156108e657600080fd5b505afa1580156108fa573d6000803e3d6000fd5b505050506000600160009054906101000a900473ffffffffffffffffffffffffffffffffffffffff1673ffffffffffffffffffffffffffffffffffffffff1663243701678a6040518263ffffffff1660e01b815260040161095b9190612f25565b60206040518083038186803b15801561097357600080fd5b505afa158015610987573d6000803e3d6000fd5b505050506040513d601f19601f820116820180604052508101906109ab9190612858565b905060008990508073ffffffffffffffffffffffffffffffffffffffff166341574b3b33858c8c8c8c8c8c6040518963ffffffff1660e01b81526004016109f9989796959493929190612fc3565b600060405180830381600087803b158015610a1357600080fd5b505af1158015610a27573d6000803e3d6000fd5b50505050610a8d8660405180606001604052806038815260200161389f6038913960056000868152602001908152602001600020600087815260200190815260200160002060008d81526020019081526020016000205461234b9092919063ffffffff16565b60056000848152602001908152602001600020600085815260200190815260200160002060008b815260200190815260200160002081905550610b0e866005600085815260200190815260200160002060008b815260200190815260200160002060008a8152602001908152602001600020546120d790919063ffffffff16565b6005600084815260200190815260200160002060008a81526020019081526020016000206000898152602001908152602001600020819055507fbdea818d4f1687df74b09fdbb5d86c436785fb62b1374ee6b3497ebe39e6f5258a33858c8c8c8c8c8c604051610b86999897969594939291906130be565b60405180910390a150505050505050505050565b600460009054906101000a900473ffffffffffffffffffffffffffffffffffffffff1681565b600560205282600052604060002060205281600052604060002060205280600052604060002060009250925050505481565b600260149054906101000a900460ff1681565b600160009054906101000a900473ffffffffffffffffffffffffffffffffffffffff1673ffffffffffffffffffffffffffffffffffffffff1663d06d86eb876040518263ffffffff1660e01b8152600401610c609190612f25565b60006040518083038186803b158015610c7857600080fd5b505afa158015610c8c573d6000803e3d6000fd5b505050503373ffffffffffffffffffffffffffffffffffffffff16600360009054906101000a900473ffffffffffffffffffffffffffffffffffffffff1673ffffffffffffffffffffffffffffffffffffffff1614610d20576040517f08c379a0000000000000000000000000000000000000000000000000000000008152600401610d179061344a565b60405180910390fd5b60008311610d63576040517f08c379a0000000000000000000000000000000000000000000000000000000008152600401610d5a9061350a565b60405180910390fd5b600080600160009054906101000a900473ffffffffffffffffffffffffffffffffffffffff1673ffffffffffffffffffffffffffffffffffffffff16638264f978896040518263ffffffff1660e01b8152600401610dc19190612f25565b604080518083038186803b158015610dd857600080fd5b505afa158015610dec573d6000803e3d6000fd5b505050506040513d601f19601f82011682018060405250810190610e109190612881565b91509150610e768560405180606001604052806029815260200161383b602991396006600086815260200190815260200160002060008b815260200190815260200160002060008a81526020019081526020016000205461234b9092919063ffffffff16565b600660008481526020019081526020016000206000898152602001908152602001600020600088815260200190815260200160002081905550600088905060008173ffffffffffffffffffffffffffffffffffffffff1663cd541b7a896040518263ffffffff1660e01b8152600401610eef9190613319565b602060405180830381600087803b158015610f0957600080fd5b505af1158015610f1d573d6000803e3d6000fd5b505050506040513d601f19601f82011682018060405250810190610f4191906127cc565b9050610f8b876005600087815260200190815260200160002060008681526020019081526020016000206000848152602001908152602001600020546120d790919063ffffffff16565b6005600086815260200190815260200160002060008581526020019081526020016000206000838152602001908152602001600020819055508173ffffffffffffffffffffffffffffffffffffffff16630990da738a8a8a8a8a6040518663ffffffff1660e01b8152600401611005959493929190613545565b600060405180830381600087803b15801561101f57600080fd5b505af1158015611033573d6000803e3d6000fd5b505050507f3f0f1f541f704191af92125dcf03aa5ef8ed27b996d6b2ba3c3c91e1351c5c0e8a8989898960405161106e9594939291906131ff565b60405180910390a150505050505050505050565b600080600260009054906101000a900473ffffffffffffffffffffffffffffffffffffffff1673ffffffffffffffffffffffffffffffffffffffff166365f68c896110cb61158b565b6040518263ffffffff1660e01b81526004016110e79190612f25565b60206040518083038186803b1580156110ff57600080fd5b505afa158015611113573d6000803e3d6000fd5b505050506040513d601f19601f820116820180604052508101906111379190612858565b90508091505090565b60008060009054906101000a900460ff16905090565b61115e6123a6565b73ffffffffffffffffffffffffffffffffffffffff16600060019054906101000a900473ffffffffffffffffffffffffffffffffffffffff1673ffffffffffffffffffffffffffffffffffffffff16146111ed576040517f08c379a00000000000000000000000000000000000000000000000000000000081526004016111e4906134ea565b60405180910390fd5b6000600260009054906101000a900473ffffffffffffffffffffffffffffffffffffffff1673ffffffffffffffffffffffffffffffffffffffff166365f68c89836040518263ffffffff1660e01b815260040161124a9190612f25565b60206040518083038186803b15801561126257600080fd5b505afa158015611276573d6000803e3d6000fd5b505050506040513d601f19601f8201168201806040525081019061129a9190612858565b9050600260009054906101000a900473ffffffffffffffffffffffffffffffffffffffff1673ffffffffffffffffffffffffffffffffffffffff166365f68c896112e261158b565b6040518263ffffffff1660e01b81526004016112fe9190612f25565b60206040518083038186803b15801561131657600080fd5b505afa15801561132a573d6000803e3d6000fd5b505050506040513d601f19601f8201168201806040525081019061134e9190612858565b811461138f576040517f08c379a0000000000000000000000000000000000000000000000000000000008152600401611386906133ca565b60405180910390fd5b81600360006101000a81548173ffffffffffffffffffffffffffffffffffffffff021916908373ffffffffffffffffffffffffffffffffffffffff1602179055507faf10d91531a8d27fc602286518b7fd48b5ea40e30a02f824746cd67a2ab488c88260016040516114029291906132ac565b60405180910390a15050565b6114166123a6565b73ffffffffffffffffffffffffffffffffffffffff16600060019054906101000a900473ffffffffffffffffffffffffffffffffffffffff1673ffffffffffffffffffffffffffffffffffffffff16146114a5576040517f08c379a000000000000000000000000000000000000000000000000000000000815260040161149c906134ea565b60405180910390fd5b600073ffffffffffffffffffffffffffffffffffffffff16600060019054906101000a900473ffffffffffffffffffffffffffffffffffffffff1673ffffffffffffffffffffffffffffffffffffffff167f8be0079c531659141344cd1fd0a4f28419497f9722a3daafe3b4186f6b6457e060405160405180910390a360008060016101000a81548173ffffffffffffffffffffffffffffffffffffffff021916908373ffffffffffffffffffffffffffffffffffffffff160217905550565b600260009054906101000a900473ffffffffffffffffffffffffffffffffffffffff1681565b60008060019054906101000a900473ffffffffffffffffffffffffffffffffffffffff16905090565b600160009054906101000a900473ffffffffffffffffffffffffffffffffffffffff1681565b600160009054906101000a900473ffffffffffffffffffffffffffffffffffffffff1673ffffffffffffffffffffffffffffffffffffffff1663d06d86eb856040518263ffffffff1660e01b81526004016116359190612f25565b60006040518083038186803b15801561164d57600080fd5b505afa158015611661573d6000803e3d6000fd5b505050506000600260009054906101000a900473ffffffffffffffffffffffffffffffffffffffff1673ffffffffffffffffffffffffffffffffffffffff166365f68c89336040518263ffffffff1660e01b81526004016116c29190612f40565b60206040518083038186803b1580156116da57600080fd5b505afa1580156116ee573d6000803e3d6000fd5b505050506040513d601f19601f820116820180604052508101906117129190612858565b905061172285338387878761212c565b5050505050565b600360009054906101000a900473ffffffffffffffffffffffffffffffffffffffff1681565b6117576123a6565b73ffffffffffffffffffffffffffffffffffffffff16600060019054906101000a900473ffffffffffffffffffffffffffffffffffffffff1673ffffffffffffffffffffffffffffffffffffffff16146117e6576040517f08c379a00000000000000000000000000000000000000000000000000000000081526004016117dd906134ea565b60405180910390fd5b6000600260009054906101000a900473ffffffffffffffffffffffffffffffffffffffff1673ffffffffffffffffffffffffffffffffffffffff166365f68c89836040518263ffffffff1660e01b81526004016118439190612f25565b60206040518083038186803b15801561185b57600080fd5b505afa15801561186f573d6000803e3d6000fd5b505050506040513d601f19601f820116820180604052508101906118939190612858565b9050600260009054906101000a900473ffffffffffffffffffffffffffffffffffffffff1673ffffffffffffffffffffffffffffffffffffffff166365f68c896118db61158b565b6040518263ffffffff1660e01b81526004016118f79190612f25565b60206040518083038186803b15801561190f57600080fd5b505afa158015611923573d6000803e3d6000fd5b505050506040513d601f19601f820116820180604052508101906119479190612858565b8114611988576040517f08c379a000000000000000000000000000000000000000000000000000000000815260040161197f9061348a565b60405180910390fd5b81600460006101000a81548173ffffffffffffffffffffffffffffffffffffffff021916908373ffffffffffffffffffffffffffffffffffffffff1602179055507faf10d91531a8d27fc602286518b7fd48b5ea40e30a02f824746cd67a2ab488c88260026040516119fb9291906132d5565b60405180910390a15050565b600660205282600052604060002060205281600052604060002060205280600052604060002060009250925050505481565b60008054906101000a900460ff1615611a87576040517f08c379a0000000000000000000000000000000000000000000000000000000008152600401611a7e9061346a565b60405180910390fd5b600160009054906101000a900473ffffffffffffffffffffffffffffffffffffffff1673ffffffffffffffffffffffffffffffffffffffff1663d06d86eb856040518263ffffffff1660e01b8152600401611ae29190612f25565b60006040518083038186803b158015611afa57600080fd5b505afa158015611b0e573d6000803e3d6000fd5b505050503373ffffffffffffffffffffffffffffffffffffffff16600460009054906101000a900473ffffffffffffffffffffffffffffffffffffffff1673ffffffffffffffffffffffffffffffffffffffff1614611ba2576040517f08c379a0000000000000000000000000000000000000000000000000000000008152600401611b99906134ca565b60405180910390fd5b60008490508073ffffffffffffffffffffffffffffffffffffffff1663a6ee26e18585856040518463ffffffff1660e01b8152600401611be493929190613334565b600060405180830381600087803b158015611bfe57600080fd5b505af1158015611c12573d6000803e3d6000fd5b505050507f6b9ae09d6ab882c931047d5687aa3a062d69d6b6caf4b04af6cb9df81245ab5185858585604051611c4b94939291906131b3565b60405180910390a15050505050565b60008054906101000a900460ff1615611ca8576040517f08c379a0000000000000000000000000000000000000000000000000000000008152600401611c9f9061346a565b60405180910390fd5b6000600260009054906101000a900473ffffffffffffffffffffffffffffffffffffffff1673ffffffffffffffffffffffffffffffffffffffff166365f68c89336040518263ffffffff1660e01b8152600401611d059190612f40565b60206040518083038186803b158015611d1d57600080fd5b505afa158015611d31573d6000803e3d6000fd5b505050506040513d601f19601f82011682018060405250810190611d559190612858565b9050600160009054906101000a900473ffffffffffffffffffffffffffffffffffffffff1673ffffffffffffffffffffffffffffffffffffffff1663d06d86eb876040518263ffffffff1660e01b8152600401611db29190612f25565b60006040518083038186803b158015611dca57600080fd5b505afa158015611dde573d6000803e3d6000fd5b5050505060008411611e25576040517f08c379a0000000000000000000000000000000000000000000000000000000008152600401611e1c906134aa565b60405180910390fd5b60008690508073ffffffffffffffffffffffffffffffffffffffff1663ba6ad8533384898989896040518763ffffffff1660e01b8152600401611e6d96959493929190612f5b565b600060405180830381600087803b158015611e8757600080fd5b505af1158015611e9b573d6000803e3d6000fd5b505050507f3115381baa8fda8997478031f1bd9f852965a6be640620b542c229a91e0302ab87338489898989604051611eda9796959493929190613048565b60405180910390a1611ef087338489898961212c565b50505050505050565b6000600260149054906101000a900460ff16905090565b611f186123a6565b73ffffffffffffffffffffffffffffffffffffffff16600060019054906101000a900473ffffffffffffffffffffffffffffffffffffffff1673ffffffffffffffffffffffffffffffffffffffff1614611fa7576040517f08c379a0000000000000000000000000000000000000000000000000000000008152600401611f9e906134ea565b60405180910390fd5b600073ffffffffffffffffffffffffffffffffffffffff168173ffffffffffffffffffffffffffffffffffffffff161415612017576040517f08c379a000000000000000000000000000000000000000000000000000000000815260040161200e906133ea565b60405180910390fd5b8073ffffffffffffffffffffffffffffffffffffffff16600060019054906101000a900473ffffffffffffffffffffffffffffffffffffffff1673ffffffffffffffffffffffffffffffffffffffff167f8be0079c531659141344cd1fd0a4f28419497f9722a3daafe3b4186f6b6457e060405160405180910390a380600060016101000a81548173ffffffffffffffffffffffffffffffffffffffff021916908373ffffffffffffffffffffffffffffffffffffffff16021790555050565b600080828401905083811015612122576040517f08c379a00000000000000000000000000000000000000000000000000000000081526004016121199061340a565b60405180910390fd5b8091505092915050565b600160009054906101000a900473ffffffffffffffffffffffffffffffffffffffff1673ffffffffffffffffffffffffffffffffffffffff1663d06d86eb876040518263ffffffff1660e01b81526004016121879190612f25565b60006040518083038186803b15801561219f57600080fd5b505afa1580156121b3573d6000803e3d6000fd5b505050506000600160009054906101000a900473ffffffffffffffffffffffffffffffffffffffff1673ffffffffffffffffffffffffffffffffffffffff166324370167886040518263ffffffff1660e01b81526004016122149190612f25565b60206040518083038186803b15801561222c57600080fd5b505afa158015612240573d6000803e3d6000fd5b505050506040513d601f19601f820116820180604052508101906122649190612858565b90506122c8836040518060600160405280603b8152602001613864603b913960056000858152602001908152602001600020600089815260200190815260200160002060008881526020019081526020016000205461234b9092919063ffffffff16565b6005600083815260200190815260200160002060008781526020019081526020016000206000868152602001908152602001600020819055507f92f02b400db4c2c442eac2df8de068b8e835d18b96ba11a431c69c468cd441c387878787878760405161233a96959493929190613152565b60405180910390a150505050505050565b6000838311158290612393576040517f08c379a000000000000000000000000000000000000000000000000000000000815260040161238a91906133a8565b60405180910390fd5b5060008385039050809150509392505050565b600033905090565b6000813590506123bd816137f5565b92915050565b600082601f8301126123d457600080fd5b81356123e76123e2826135e7565b6135ba565b9150818183526020840193506020810190508360005b8381101561242d57813586016124138882612461565b8452602084019350602083019250506001810190506123fd565b5050505092915050565b6000813590506124468161380c565b92915050565b60008151905061245b8161380c565b92915050565b600082601f83011261247257600080fd5b81356124856124808261360f565b6135ba565b915080825260208301602083018583830111156124a157600080fd5b6124ac8382846137a2565b50505092915050565b6000813590506124c481613823565b92915050565b6000815190506124d981613823565b92915050565b6000602082840312156124f157600080fd5b60006124ff848285016123ae565b91505092915050565b6000806000806080858703121561251e57600080fd5b600061252c878288016123ae565b945050602061253d87828801612437565b935050604061254e87828801612437565b925050606085013567ffffffffffffffff81111561256b57600080fd5b612577878288016123c3565b91505092959194509250565b6000806000806080858703121561259957600080fd5b60006125a7878288016123ae565b94505060206125b887828801612437565b93505060406125c9878288016124b5565b92505060606125da87828801612437565b91505092959194509250565b600080600080600060a086880312156125fe57600080fd5b600061260c888289016123ae565b955050602061261d88828901612437565b945050604061262e888289016124b5565b935050606061263f88828901612437565b925050608086013567ffffffffffffffff81111561265c57600080fd5b612668888289016123c3565b9150509295509295909350565b600080600080600080600060e0888a03121561269057600080fd5b600061269e8a828b016123ae565b97505060206126af8a828b01612437565b96505060406126c08a828b016124b5565b95505060606126d18a828b01612437565b94505060806126e28a828b016124b5565b93505060a06126f38a828b01612437565b92505060c088013567ffffffffffffffff81111561271057600080fd5b61271c8a828b016123c3565b91505092959891949750929550565b60008060008060008060c0878903121561274457600080fd5b600061275289828a016123ae565b965050602061276389828a016124b5565b955050604061277489828a01612437565b945050606061278589828a016124b5565b935050608061279689828a01612437565b92505060a087013567ffffffffffffffff8111156127b357600080fd5b6127bf89828a016123c3565b9150509295509295509295565b6000602082840312156127de57600080fd5b60006127ec8482850161244c565b91505092915050565b6000806000806080858703121561280b57600080fd5b600061281987828801612437565b945050602061282a878288016124b5565b935050604061283b878288016124b5565b925050606061284c87828801612437565b91505092959194509250565b60006020828403121561286a57600080fd5b6000612878848285016124ca565b91505092915050565b6000806040838503121561289457600080fd5b60006128a2858286016124ca565b92505060206128b3858286016124ca565b9150509250929050565b6000806000606084860312156128d257600080fd5b60006128e0868287016124b5565b93505060206128f1868287016124b5565b925050604061290286828701612437565b9150509250925092565b60006129188383612a0d565b905092915050565b61292981613700565b82525050565b612938816136a1565b82525050565b60006129498261364b565b612953818561366e565b9350836020820285016129658561363b565b8060005b858110156129a15784840389528151612982858261290c565b945061298d83613661565b925060208a01995050600181019050612969565b50829750879550505050505092915050565b6129bc816136b3565b82525050565b6129cb816136bf565b82525050565b6129da81613712565b82525050565b6129e981613736565b82525050565b6129f88161375a565b82525050565b612a078161376c565b82525050565b6000612a1882613656565b612a22818561367f565b9350612a328185602086016137b1565b612a3b816137e4565b840191505092915050565b6000612a5182613656565b612a5b8185613690565b9350612a6b8185602086016137b1565b612a74816137e4565b840191505092915050565b6000612a8c605683613690565b91507f4f20726573706f6e73c3a176656c2070656c6120636f6e6669726d61c3a7c3a360008301527f6f20646f20696e76657374696d656e746f20646576652073657220646f206d6560208301527f736d6f205242425f494420646f20636f6e747261746f000000000000000000006040830152606082019050919050565b6000612b18602683613690565b91507f4f776e61626c653a206e6577206f776e657220697320746865207a65726f206160008301527f64647265737300000000000000000000000000000000000000000000000000006020830152604082019050919050565b6000612b7e601b83613690565b91507f536166654d6174683a206164646974696f6e206f766572666c6f7700000000006000830152602082019050919050565b6000612bbe603583613690565b91507f56616c6f72206120736572207472616e736163696f6e61646f2064657665207360008301527f6572206d61696f7220646f20717565207a65726f2e00000000000000000000006020830152604082019050919050565b6000612c24605483613690565b91507f536f6d656e746520756d20726573706f6e73c3a176656c2070656c6120636f6e60008301527f6669726d61c3a7c3a36f20646520696e76657374696d656e746f20706f64652060208301527f656e766961722061207472616e7361c3a7c3a36f0000000000000000000000006040830152606082019050919050565b6000612cb0601083613690565b91507f5061757361626c653a20706175736564000000000000000000000000000000006000830152602082019050919050565b6000612cf0604583613690565b91507f4f20726573706f6e73c3a176656c2070656c61206c697175696461c3a7c3a36f60008301527f206465766520736572206461206d65736d6f205242425f494420646f20636f6e60208301527f747261746f0000000000000000000000000000000000000000000000000000006040830152606082019050919050565b6000612d7c602b83613690565b91507f56616c6f722061207265736761746172206465766520736572206d61696f722060008301527f646f20717565207a65726f0000000000000000000000000000000000000000006020830152604082019050919050565b6000612de2604383613690565b91507f536f6d656e746520756d20726573706f6e73c3a176656c2070656c61206c697160008301527f75696469c3a7c3a36f20706f646520656e766961722061207472616e7361c3a760208301527fc3a36f00000000000000000000000000000000000000000000000000000000006040830152606082019050919050565b6000612e6e602083613690565b91507f4f776e61626c653a2063616c6c6572206973206e6f7420746865206f776e65726000830152602082019050919050565b6000612eae602983613690565b91507f56616c6f722061206d696e746172206465766520736572206d61696f7220646f60008301527f20717565207a65726f00000000000000000000000000000000000000000000006020830152604082019050919050565b612f10816136e9565b82525050565b612f1f816136f3565b82525050565b6000602082019050612f3a600083018461292f565b92915050565b6000602082019050612f556000830184612920565b92915050565b600060c082019050612f706000830189612920565b612f7d6020830188612f07565b612f8a60408301876129c2565b612f976060830186612f07565b612fa460808301856129c2565b81810360a0830152612fb6818461293e565b9050979650505050505050565b600061010082019050612fd9600083018b612920565b612fe6602083018a612f07565b612ff360408301896129c2565b6130006060830188612f07565b61300d60808301876129c2565b61301a60a0830186612f07565b61302760c08301856129c2565b81810360e0830152613039818461293e565b90509998505050505050505050565b600060e08201905061305d600083018a61292f565b61306a6020830189612920565b6130776040830188612f07565b61308460608301876129c2565b6130916080830186612f07565b61309e60a08301856129c2565b81810360c08301526130b0818461293e565b905098975050505050505050565b6000610120820190506130d4600083018c61292f565b6130e1602083018b612920565b6130ee604083018a612f07565b6130fb60608301896129c2565b6131086080830188612f07565b61311560a08301876129c2565b61312260c0830186612f07565b61312f60e08301856129c2565b818103610100830152613142818461293e565b90509a9950505050505050505050565b600060c082019050613167600083018961292f565b613174602083018861292f565b6131816040830187612f07565b61318e60608301866129c2565b61319b6080830185612f07565b6131a860a08301846129c2565b979650505050505050565b60006080820190506131c8600083018761292f565b6131d560208301866129c2565b6131e260408301856129c2565b81810360608301526131f4818461293e565b905095945050505050565b600060a082019050613214600083018861292f565b61322160208301876129c2565b61322e6040830186612f07565b61323b60608301856129c2565b818103608083015261324d818461293e565b90509695505050505050565b600060a08201905061326e600083018861292f565b61327b60208301876129c2565b6132886040830186612f07565b6132956060830185612f07565b6132a260808301846129c2565b9695505050505050565b60006040820190506132c1600083018561292f565b6132ce60208301846129ef565b9392505050565b60006040820190506132ea600083018561292f565b6132f760208301846129fe565b9392505050565b600060208201905061331360008301846129b3565b92915050565b600060208201905061332e60008301846129c2565b92915050565b600060608201905061334960008301866129c2565b61335660208301856129c2565b8181036040830152613368818461293e565b9050949350505050565b600060208201905061338760008301846129d1565b92915050565b60006020820190506133a260008301846129e0565b92915050565b600060208201905081810360008301526133c28184612a46565b905092915050565b600060208201905081810360008301526133e381612a7f565b9050919050565b6000602082019050818103600083015261340381612b0b565b9050919050565b6000602082019050818103600083015261342381612b71565b9050919050565b6000602082019050818103600083015261344381612bb1565b9050919050565b6000602082019050818103600083015261346381612c17565b9050919050565b6000602082019050818103600083015261348381612ca3565b9050919050565b600060208201905081810360008301526134a381612ce3565b9050919050565b600060208201905081810360008301526134c381612d6f565b9050919050565b600060208201905081810360008301526134e381612dd5565b9050919050565b6000602082019050818103600083015261350381612e61565b9050919050565b6000602082019050818103600083015261352381612ea1565b9050919050565b600060208201905061353f6000830184612f07565b92915050565b600060a08201905061355a6000830188612f07565b61356760208301876129c2565b6135746040830186612f07565b61358160608301856129c2565b8181036080830152613593818461293e565b90509695505050505050565b60006020820190506135b46000830184612f16565b92915050565b6000604051905081810181811067ffffffffffffffff821117156135dd57600080fd5b8060405250919050565b600067ffffffffffffffff8211156135fe57600080fd5b602082029050602081019050919050565b600067ffffffffffffffff82111561362657600080fd5b601f19601f8301169050602081019050919050565b6000819050602082019050919050565b600081519050919050565b600081519050919050565b6000602082019050919050565b600082825260208201905092915050565b600082825260208201905092915050565b600082825260208201905092915050565b60006136ac826136c9565b9050919050565b60008115159050919050565b6000819050919050565b600073ffffffffffffffffffffffffffffffffffffffff82169050919050565b6000819050919050565b600060ff82169050919050565b600061370b8261377e565b9050919050565b600061371d82613724565b9050919050565b600061372f826136c9565b9050919050565b600061374182613748565b9050919050565b6000613753826136c9565b9050919050565b6000613765826136f3565b9050919050565b6000613777826136f3565b9050919050565b600061378982613790565b9050919050565b600061379b826136c9565b9050919050565b82818337600083830152505050565b60005b838110156137cf5780820151818401526020810190506137b4565b838111156137de576000848401525b50505050565b6000601f19601f8301169050919050565b6137fe816136a1565b811461380957600080fd5b50565b613815816136bf565b811461382057600080fd5b50565b61382c816136e9565b811461383757600080fd5b5056fe546f74616c20646520656d697373c3a36f206578636564652076616c6f7220736f6c6963697461646f546f74616c20646520746f6b656e73206120736572656d20717565696d61646f7320c3a9206d61696f7220646f20717565206f2062616c616e636553616c646f206461206f726967656d206ec3a36f20c3a920737566696369656e746520706172612061207472616e73666572c3aa6e636961a26469706673582212203d3312de16139c8687f365500d1d038c25ae762964172bb72b074aa54019bda864736f6c634300060c0033",
  "immutableReferences": {},
  "source": "pragma solidity ^0.6.0;\npragma experimental ABIEncoderV2;\n\nimport \"./RBBRegistry.sol\";\nimport \"./SpecificRBBToken.sol\";\nimport \"./SpecificRBBTokenRegistry.sol\";\nimport \"@openzeppelin/contracts/access/Ownable.sol\";\nimport \"@openzeppelin/contracts/utils/Pausable.sol\";\nimport \"@openzeppelin/contracts/math/SafeMath.sol\";\n\n\ncontract RBBToken is Pausable, Ownable {\n\n//TODO: avaliar se deveria ter um set para modificar esses atributos. Ideal seria mudar apenas pela governanca\n    SpecificRBBTokenRegistry public tokenRegistry;\n    RBBRegistry public registry;\n\n\n    using SafeMath for uint;\n\n    uint8 public decimals = 2;\n\n    address public responsibleForInvestmentConfirmation;\n    address public responsibleForSettlement;\n\n\n    //specificTokenId => (RBBid => (specificHash => amount)\n    mapping (uint => mapping (uint => mapping (bytes32 => uint))) public rbbBalances;\n\n    //specificTokenId => RBBId => (specificHash => amount)\n    mapping (uint => mapping (uint => mapping (bytes32 => uint))) public balanceRequestedTokens;\n\n    event RBBTokenMintRequested(address specificTokenAddr, bytes32 specificHash, uint idInvestor, \n            uint amount, bytes32 docHash);\n    event RBBTokenMint(address specificTokenAddr, bytes32 specificHash, uint amount, bytes32 docHash, string[] data);\n    event RBBTokenBurn(address specificTokenAddr, address originalSender, uint fromId, bytes32 fromHash, \n            uint amount, bytes32 docHash);\n    event RBBTokenTransfer (address specificTokenAddr, address originalSender, uint fromId, bytes32 fromHash, uint toId,\n            bytes32 toHash, uint amount, bytes32 docHash, string[] data);\n    event RBBTokenRedemptionRequested (address specificTokenAddr, address originalSender, uint fromId, bytes32 fromHash, \n            uint amount, bytes32 docHash, string[] data);\n    event RBBTokenRedemptionSettlement(address specificTokenAddr, bytes32 redemptionTransactionHash, \n            bytes32 docHash, string[] data);\n\n    event ManualIntervention_RoleOrAddress(address account, uint8 eventType);\n\n\n    constructor (address newRegistryAddr, address newSpecificRBBTokenAddr, uint8 _decimals) public {\n        registry = RBBRegistry(newRegistryAddr);\n        tokenRegistry = SpecificRBBTokenRegistry(newSpecificRBBTokenAddr);\n        decimals = _decimals;\n        responsibleForInvestmentConfirmation = msg.sender;\n        responsibleForSettlement = msg.sender;\n\n    }\n\n///******************************************************************* */\n\n    function requestMint(bytes32 specificInvestimentHash, uint idInvestor, uint amount, bytes32 docHash) \n        public {\n    \n        require (amount>0, \"Valor a ser transacionado deve ser maior do que zero.\");\n        address specificTokenAddr = msg.sender;\n\n        tokenRegistry.verifyTokenIsRegisteredAndActive(specificTokenAddr);\n        \n        uint specificTokenId = tokenRegistry.getSpecificRBBTokenId(specificTokenAddr);\n\n        balanceRequestedTokens[specificTokenId][idInvestor][specificInvestimentHash] = \n            balanceRequestedTokens[specificTokenId][idInvestor][specificInvestimentHash].add(amount);\n    \n        emit RBBTokenMintRequested(specificTokenAddr, specificInvestimentHash, idInvestor, amount, docHash);\n\n    }\n\n    function mint(address specificTokenAddr, uint idInvestor, bytes32 specificHash, uint amount, bytes32 docHash,\n        string[] memory data) public {\n\n        tokenRegistry.verifyTokenIsRegisteredAndActive(specificTokenAddr);\n\n        require (responsibleForInvestmentConfirmation == msg.sender, \n            \"Somente um responsvel pela confirmao de investimento pode enviar a transao\");\n\n        require(amount>0, \"Valor a mintar deve ser maior do que zero\");\n\n        (uint specificTokenId, uint specificTokenOwnerId) = \n                    tokenRegistry.getSpecificRBBTokenIdAndOwnerId(specificTokenAddr);\n\n        balanceRequestedTokens[specificTokenId][idInvestor][specificHash] \n            = balanceRequestedTokens[specificTokenId][idInvestor][specificHash].sub(amount, \"Total de emisso excede valor solicitado\");\n\n        SpecificRBBToken specificToken = SpecificRBBToken(specificTokenAddr);\n\n        //Retorna a conta de mint associada ao hash especifico. \n        bytes32 calcHash = specificToken.getHashToMintedAccount(specificHash);\n\n        rbbBalances[specificTokenId][specificTokenOwnerId][calcHash] = \n            rbbBalances[specificTokenId][specificTokenOwnerId][calcHash].add(amount);\n\n        specificToken.verifyAndActForMint(idInvestor, specificHash, amount, docHash, data);\n\n        emit RBBTokenMint(specificTokenAddr, specificHash, amount, docHash, data);\n    }\n\n\n    function burnOwnTokenBySpecificTokens (address originalSender, bytes32 hashToBurn, uint amount, \n        bytes32 docHash) public {\n\n        address specificTokenAddr = msg.sender;\n        tokenRegistry.verifyTokenIsRegisteredAndActive(specificTokenAddr);\n\n        uint specificTokenOwnerId = tokenRegistry.getSpecificOwnerId(specificTokenAddr);\n        \n        _burn(specificTokenAddr, originalSender, specificTokenOwnerId, hashToBurn, amount, docHash);\n\n    }\n\n\n    function burnOwnToken (address specificTokenAddr, bytes32 hashToBurn, uint amount, bytes32 docHash) \n        public {\n\n        tokenRegistry.verifyTokenIsRegisteredAndActive(specificTokenAddr);\n\n        uint idToBurn = registry.getId(msg.sender);\n\n        _burn(specificTokenAddr, msg.sender, idToBurn, hashToBurn, amount, docHash);\n\n    }\n\n    function _burn(address specificTokenAddr, address originalSender, uint fromId, bytes32 fromHash, \n        uint amount, bytes32 docHash) internal {\n        \n        tokenRegistry.verifyTokenIsRegisteredAndActive(specificTokenAddr);\n//        require(amount>0, \"Valor a queimar deve ser maior do que zero\");\n\n        uint specificTokenId = tokenRegistry.getSpecificRBBTokenId(specificTokenAddr);\n\n        rbbBalances[specificTokenId][fromId][fromHash] = \n            rbbBalances[specificTokenId][fromId][fromHash].sub(amount, \"Total de tokens a serem queimados  maior do que o balance\");\n\n        emit RBBTokenBurn(specificTokenAddr, originalSender, fromId, fromHash, amount, docHash);\n    }\n\n///******************************************************************* */\n\n\n    function transfer (address specificTokenAddr, bytes32 fromHash, uint toId, bytes32 toHash, \n            uint amount, bytes32 docHash, string[] memory data) public whenNotPaused {\n\n        uint fromId = registry.getId(msg.sender);\n\n        tokenRegistry.verifyTokenIsRegisteredAndActive(specificTokenAddr);\n\n//        require(registry.isRegistryOperational(fromId), \"Conta de origem precisa estar com cadastro validado\");\n//        require(registry.isRegistryOperational(toId), \"Conta de destino precisa estar com cadastro validado\");\n        uint specificTokenId = tokenRegistry.getSpecificRBBTokenId(specificTokenAddr);\n\n        SpecificRBBToken specificToken = SpecificRBBToken(specificTokenAddr);\n        specificToken.verifyAndActForTransfer(msg.sender, fromId, fromHash, toId, toHash, amount, docHash, data);\n\n        //altera valores de saldo\n        rbbBalances[specificTokenId][fromId][fromHash] =\n                rbbBalances[specificTokenId][fromId][fromHash].sub(amount, \"Saldo da origem no  suficiente para a transferncia\");\n        rbbBalances[specificTokenId][toId][toHash] = rbbBalances[specificTokenId][toId][toHash].add(amount);\n\n        emit RBBTokenTransfer (specificTokenAddr, msg.sender, fromId, fromHash, toId, toHash, amount, docHash, data);\n\n    }\n\n    function redeem (address specificTokenAddr, bytes32 fromHash, uint amount, \n        bytes32 docHash, string[] memory data) public whenNotPaused  {\n\n            uint fromId = registry.getId(msg.sender);\n\n            tokenRegistry.verifyTokenIsRegisteredAndActive(specificTokenAddr);\n\n//            require(registry.isRegistryOperational(fromId), \"Conta solicitante do redeem precisa estar com cadastro validado\");\n            require(amount>0, \"Valor a resgatar deve ser maior do que zero\");\n    \n            SpecificRBBToken specificToken = SpecificRBBToken(specificTokenAddr);\n            specificToken.verifyAndActForRedeem(msg.sender, fromId, fromHash, amount, docHash, data);\n\n            emit RBBTokenRedemptionRequested(specificTokenAddr, msg.sender, fromId, fromHash, amount, docHash, data);\n            _burn(specificTokenAddr, msg.sender, fromId, fromHash, amount, docHash);\n    }\n\n   /**\n    * Using this function, the Responsible for Settlement indicates that he has made the FIAT money transfer.\n    * @ param redemptionTransactionHash hash of the redeem transaction in which the FIAT money settlement occurred.\n    * @ param receiptHash hash that proof the FIAT money transfer\n    */ \n    function notifyRedemptionSettlement(address specificTokenAddr, bytes32 redemptionTransactionHash, \n        bytes32 docHash, string[] memory data) public whenNotPaused {\n\n        tokenRegistry.verifyTokenIsRegisteredAndActive(specificTokenAddr);\n\n        require (responsibleForSettlement == msg.sender, \n            \"Somente um responsvel pela liquidio pode enviar a transao\");\n\n        SpecificRBBToken specificToken = SpecificRBBToken(specificTokenAddr);\n        specificToken.verifyAndActForRedemptionSettlement(redemptionTransactionHash, docHash, data);\n\n        emit RBBTokenRedemptionSettlement(specificTokenAddr, redemptionTransactionHash, docHash, data);\n    }\n    \n\n///******************************************************************* */\n\n    function getDecimals() public view returns (uint8) {\n        return decimals;\n    }\n\n    function getBndesId() view public returns (uint) {\n        uint bndesId = registry.getId(owner());\n        return bndesId;\n    }\n\n    function setResponsibleForInvestmentConfirmation(address rs) onlyOwner public {\n        uint id = registry.getId(rs);\n        require(id==registry.getId(owner()), \"O responsvel pela confirmao do investimento deve ser do mesmo RBB_ID do contrato\");\n        responsibleForInvestmentConfirmation = rs;\n        emit ManualIntervention_RoleOrAddress(rs, 1);\n    }\n\n    function setResponsibleForSettlement(address rs) onlyOwner public {\n        uint id = registry.getId(rs);\n        require(id==registry.getId(owner()), \"O responsvel pela liquidao deve ser da mesmo RBB_ID do contrato\");\n        responsibleForSettlement = rs;\n        emit ManualIntervention_RoleOrAddress(rs, 2);\n    }\n\n\n}\n",
  "sourcePath": "/Users/suzana.moreno/workspace/rbb-token/Back-Blockchain/contracts/RBBToken.sol",
  "compiler": {
    "name": "solc",
    "version": "0.6.12+commit.27d51765.Emscripten.clang"
  },
  "schemaVersion": "3.2.5",
  "updatedAt": "2020-12-15T20:24:44.416Z",
  "devdoc": {
    "kind": "dev",
    "methods": {
      "owner()": {
        "details": "Returns the address of the current owner."
      },
      "paused()": {
        "details": "Returns true if the contract is paused, and false otherwise."
      },
      "renounceOwnership()": {
        "details": "Leaves the contract without owner. It will not be possible to call `onlyOwner` functions anymore. Can only be called by the current owner. NOTE: Renouncing ownership will leave the contract without an owner, thereby removing any functionality that is only available to the owner."
      },
      "transferOwnership(address)": {
        "details": "Transfers ownership of the contract to a new account (`newOwner`). Can only be called by the current owner."
      }
    },
    "version": 1
  },
  "userdoc": {
    "kind": "user",
    "methods": {
      "getDecimals()": {
        "notice": "******************************************************************* */"
      },
      "notifyRedemptionSettlement(address,bytes32,bytes32,string[])": {
        "notice": "Using this function, the Responsible for Settlement indicates that he has made the FIAT money transfer. param redemptionTransactionHash hash of the redeem transaction in which the FIAT money settlement occurred. param receiptHash hash that proof the FIAT money transfer"
      },
      "requestMint(bytes32,uint256,uint256,bytes32)": {
        "notice": "******************************************************************* */"
      },
      "transfer(address,bytes32,uint256,bytes32,uint256,bytes32,string[])": {
        "notice": "******************************************************************* */"
      }
    },
    "version": 1
  }
}