{
  "contractName": "RBBToken",
  "abi": [
    {
      "inputs": [
        {
          "internalType": "address",
          "name": "newRegistryAddr",
          "type": "address"
        },
        {
          "internalType": "uint8",
          "name": "_decimals",
          "type": "uint8"
        }
      ],
      "stateMutability": "nonpayable",
      "type": "constructor"
    },
    {
      "anonymous": false,
      "inputs": [
        {
          "indexed": false,
          "internalType": "uint256",
          "name": "id",
          "type": "uint256"
        },
        {
          "indexed": false,
          "internalType": "uint256",
          "name": "ownerId",
          "type": "uint256"
        },
        {
          "indexed": false,
          "internalType": "address",
          "name": "addr",
          "type": "address"
        }
      ],
      "name": "BusinessContractRegistration",
      "type": "event"
    },
    {
      "anonymous": false,
      "inputs": [
        {
          "indexed": false,
          "internalType": "uint256",
          "name": "id",
          "type": "uint256"
        },
        {
          "indexed": false,
          "internalType": "bool",
          "name": "state",
          "type": "bool"
        }
      ],
      "name": "BusinessContractStateChange",
      "type": "event"
    },
    {
      "anonymous": false,
      "inputs": [
        {
          "indexed": false,
          "internalType": "address",
          "name": "account",
          "type": "address"
        },
        {
          "indexed": false,
          "internalType": "uint8",
          "name": "eventType",
          "type": "uint8"
        }
      ],
      "name": "ManualIntervention_RoleOrAddress",
      "type": "event"
    },
    {
      "anonymous": false,
      "inputs": [
        {
          "indexed": true,
          "internalType": "address",
          "name": "previousOwner",
          "type": "address"
        },
        {
          "indexed": true,
          "internalType": "address",
          "name": "newOwner",
          "type": "address"
        }
      ],
      "name": "OwnershipTransferred",
      "type": "event"
    },
    {
      "anonymous": false,
      "inputs": [
        {
          "indexed": false,
          "internalType": "address",
          "name": "account",
          "type": "address"
        }
      ],
      "name": "Paused",
      "type": "event"
    },
    {
      "anonymous": false,
      "inputs": [
        {
          "indexed": true,
          "internalType": "address",
          "name": "account",
          "type": "address"
        }
      ],
      "name": "PauserAdded",
      "type": "event"
    },
    {
      "anonymous": false,
      "inputs": [
        {
          "indexed": true,
          "internalType": "address",
          "name": "account",
          "type": "address"
        }
      ],
      "name": "PauserRemoved",
      "type": "event"
    },
    {
      "anonymous": false,
      "inputs": [
        {
          "indexed": false,
          "internalType": "address",
          "name": "businessContractAddr",
          "type": "address"
        },
        {
          "indexed": false,
          "internalType": "address",
          "name": "originalSender",
          "type": "address"
        },
        {
          "indexed": false,
          "internalType": "uint256",
          "name": "fromId",
          "type": "uint256"
        },
        {
          "indexed": false,
          "internalType": "bytes32",
          "name": "fromHash",
          "type": "bytes32"
        },
        {
          "indexed": false,
          "internalType": "uint256",
          "name": "amount",
          "type": "uint256"
        },
        {
          "indexed": false,
          "internalType": "bytes32",
          "name": "docHash",
          "type": "bytes32"
        }
      ],
      "name": "RBBTokenBurn",
      "type": "event"
    },
    {
      "anonymous": false,
      "inputs": [
        {
          "indexed": false,
          "internalType": "address",
          "name": "businessContractAddr",
          "type": "address"
        },
        {
          "indexed": false,
          "internalType": "bytes32",
          "name": "specificHash",
          "type": "bytes32"
        },
        {
          "indexed": false,
          "internalType": "uint256",
          "name": "amount",
          "type": "uint256"
        },
        {
          "indexed": false,
          "internalType": "bytes32",
          "name": "docHash",
          "type": "bytes32"
        },
        {
          "indexed": false,
          "internalType": "string[]",
          "name": "data",
          "type": "string[]"
        }
      ],
      "name": "RBBTokenMint",
      "type": "event"
    },
    {
      "anonymous": false,
      "inputs": [
        {
          "indexed": false,
          "internalType": "address",
          "name": "businessContractAddr",
          "type": "address"
        },
        {
          "indexed": false,
          "internalType": "bytes32",
          "name": "specificHash",
          "type": "bytes32"
        },
        {
          "indexed": false,
          "internalType": "uint256",
          "name": "idInvestor",
          "type": "uint256"
        },
        {
          "indexed": false,
          "internalType": "uint256",
          "name": "amount",
          "type": "uint256"
        },
        {
          "indexed": false,
          "internalType": "bytes32",
          "name": "docHash",
          "type": "bytes32"
        }
      ],
      "name": "RBBTokenMintRequested",
      "type": "event"
    },
    {
      "anonymous": false,
      "inputs": [
        {
          "indexed": false,
          "internalType": "address",
          "name": "businessContractAddr",
          "type": "address"
        },
        {
          "indexed": false,
          "internalType": "address",
          "name": "originalSender",
          "type": "address"
        },
        {
          "indexed": false,
          "internalType": "uint256",
          "name": "fromId",
          "type": "uint256"
        },
        {
          "indexed": false,
          "internalType": "bytes32",
          "name": "fromHash",
          "type": "bytes32"
        },
        {
          "indexed": false,
          "internalType": "uint256",
          "name": "amount",
          "type": "uint256"
        },
        {
          "indexed": false,
          "internalType": "bytes32",
          "name": "docHash",
          "type": "bytes32"
        },
        {
          "indexed": false,
          "internalType": "string[]",
          "name": "data",
          "type": "string[]"
        }
      ],
      "name": "RBBTokenRedemptionRequested",
      "type": "event"
    },
    {
      "anonymous": false,
      "inputs": [
        {
          "indexed": false,
          "internalType": "address",
          "name": "businessContractAddr",
          "type": "address"
        },
        {
          "indexed": false,
          "internalType": "bytes32",
          "name": "redemptionTransactionHash",
          "type": "bytes32"
        },
        {
          "indexed": false,
          "internalType": "bytes32",
          "name": "docHash",
          "type": "bytes32"
        },
        {
          "indexed": false,
          "internalType": "string[]",
          "name": "data",
          "type": "string[]"
        }
      ],
      "name": "RBBTokenRedemptionSettlement",
      "type": "event"
    },
    {
      "anonymous": false,
      "inputs": [
        {
          "indexed": false,
          "internalType": "address",
          "name": "businessContractAddr",
          "type": "address"
        },
        {
          "indexed": false,
          "internalType": "address",
          "name": "originalSender",
          "type": "address"
        },
        {
          "indexed": false,
          "internalType": "uint256",
          "name": "fromId",
          "type": "uint256"
        },
        {
          "indexed": false,
          "internalType": "bytes32",
          "name": "fromHash",
          "type": "bytes32"
        },
        {
          "indexed": false,
          "internalType": "uint256",
          "name": "toId",
          "type": "uint256"
        },
        {
          "indexed": false,
          "internalType": "bytes32",
          "name": "toHash",
          "type": "bytes32"
        },
        {
          "indexed": false,
          "internalType": "uint256",
          "name": "amount",
          "type": "uint256"
        },
        {
          "indexed": false,
          "internalType": "bytes32",
          "name": "docHash",
          "type": "bytes32"
        },
        {
          "indexed": false,
          "internalType": "string[]",
          "name": "data",
          "type": "string[]"
        }
      ],
      "name": "RBBTokenTransfer",
      "type": "event"
    },
    {
      "anonymous": false,
      "inputs": [
        {
          "indexed": false,
          "internalType": "address",
          "name": "account",
          "type": "address"
        }
      ],
      "name": "Unpaused",
      "type": "event"
    },
    {
      "inputs": [
        {
          "internalType": "address",
          "name": "account",
          "type": "address"
        }
      ],
      "name": "addPauser",
      "outputs": [],
      "stateMutability": "nonpayable",
      "type": "function"
    },
    {
      "inputs": [
        {
          "internalType": "uint256",
          "name": "",
          "type": "uint256"
        },
        {
          "internalType": "bytes32",
          "name": "",
          "type": "bytes32"
        }
      ],
      "name": "balaceRequestedTokens",
      "outputs": [
        {
          "internalType": "uint256",
          "name": "",
          "type": "uint256"
        }
      ],
      "stateMutability": "view",
      "type": "function"
    },
    {
      "inputs": [
        {
          "internalType": "address",
          "name": "",
          "type": "address"
        }
      ],
      "name": "businessContractsRegistry",
      "outputs": [
        {
          "internalType": "uint256",
          "name": "id",
          "type": "uint256"
        },
        {
          "internalType": "bool",
          "name": "isActive",
          "type": "bool"
        }
      ],
      "stateMutability": "view",
      "type": "function"
    },
    {
      "inputs": [],
      "name": "decimals",
      "outputs": [
        {
          "internalType": "uint8",
          "name": "",
          "type": "uint8"
        }
      ],
      "stateMutability": "view",
      "type": "function"
    },
    {
      "inputs": [
        {
          "internalType": "address",
          "name": "addr",
          "type": "address"
        }
      ],
      "name": "getBusinessContractId",
      "outputs": [
        {
          "internalType": "uint256",
          "name": "",
          "type": "uint256"
        }
      ],
      "stateMutability": "view",
      "type": "function"
    },
    {
      "inputs": [
        {
          "internalType": "address",
          "name": "addr",
          "type": "address"
        }
      ],
      "name": "getBusinessContractIdAndOwnerId",
      "outputs": [
        {
          "internalType": "uint256",
          "name": "",
          "type": "uint256"
        },
        {
          "internalType": "uint256",
          "name": "",
          "type": "uint256"
        }
      ],
      "stateMutability": "view",
      "type": "function"
    },
    {
      "inputs": [],
      "name": "idCount",
      "outputs": [
        {
          "internalType": "uint256",
          "name": "",
          "type": "uint256"
        }
      ],
      "stateMutability": "view",
      "type": "function"
    },
    {
      "inputs": [
        {
          "internalType": "address",
          "name": "addr",
          "type": "address"
        }
      ],
      "name": "isBusinessContractActive",
      "outputs": [
        {
          "internalType": "bool",
          "name": "",
          "type": "bool"
        }
      ],
      "stateMutability": "view",
      "type": "function"
    },
    {
      "inputs": [],
      "name": "isOwner",
      "outputs": [
        {
          "internalType": "bool",
          "name": "",
          "type": "bool"
        }
      ],
      "stateMutability": "view",
      "type": "function"
    },
    {
      "inputs": [
        {
          "internalType": "address",
          "name": "account",
          "type": "address"
        }
      ],
      "name": "isPauser",
      "outputs": [
        {
          "internalType": "bool",
          "name": "",
          "type": "bool"
        }
      ],
      "stateMutability": "view",
      "type": "function"
    },
    {
      "inputs": [],
      "name": "owner",
      "outputs": [
        {
          "internalType": "address",
          "name": "",
          "type": "address"
        }
      ],
      "stateMutability": "view",
      "type": "function"
    },
    {
      "inputs": [],
      "name": "pause",
      "outputs": [],
      "stateMutability": "nonpayable",
      "type": "function"
    },
    {
      "inputs": [],
      "name": "paused",
      "outputs": [
        {
          "internalType": "bool",
          "name": "",
          "type": "bool"
        }
      ],
      "stateMutability": "view",
      "type": "function"
    },
    {
      "inputs": [
        {
          "internalType": "uint256",
          "name": "",
          "type": "uint256"
        },
        {
          "internalType": "uint256",
          "name": "",
          "type": "uint256"
        },
        {
          "internalType": "bytes32",
          "name": "",
          "type": "bytes32"
        }
      ],
      "name": "rbbBalances",
      "outputs": [
        {
          "internalType": "uint256",
          "name": "",
          "type": "uint256"
        }
      ],
      "stateMutability": "view",
      "type": "function"
    },
    {
      "inputs": [
        {
          "internalType": "address",
          "name": "businessContractAddr",
          "type": "address"
        }
      ],
      "name": "registerBusinessContract",
      "outputs": [
        {
          "internalType": "uint256",
          "name": "",
          "type": "uint256"
        }
      ],
      "stateMutability": "nonpayable",
      "type": "function"
    },
    {
      "inputs": [],
      "name": "registry",
      "outputs": [
        {
          "internalType": "contract RBBRegistry",
          "name": "",
          "type": "address"
        }
      ],
      "stateMutability": "view",
      "type": "function"
    },
    {
      "inputs": [],
      "name": "renounceOwnership",
      "outputs": [],
      "stateMutability": "nonpayable",
      "type": "function"
    },
    {
      "inputs": [],
      "name": "renouncePauser",
      "outputs": [],
      "stateMutability": "nonpayable",
      "type": "function"
    },
    {
      "inputs": [],
      "name": "responsibleForInvestmentConfirmation",
      "outputs": [
        {
          "internalType": "address",
          "name": "",
          "type": "address"
        }
      ],
      "stateMutability": "view",
      "type": "function"
    },
    {
      "inputs": [],
      "name": "responsibleForSettlement",
      "outputs": [
        {
          "internalType": "address",
          "name": "",
          "type": "address"
        }
      ],
      "stateMutability": "view",
      "type": "function"
    },
    {
      "inputs": [
        {
          "internalType": "address",
          "name": "addr",
          "type": "address"
        },
        {
          "internalType": "bool",
          "name": "status",
          "type": "bool"
        }
      ],
      "name": "setStatus",
      "outputs": [
        {
          "internalType": "bool",
          "name": "",
          "type": "bool"
        }
      ],
      "stateMutability": "nonpayable",
      "type": "function"
    },
    {
      "inputs": [
        {
          "internalType": "address",
          "name": "newOwner",
          "type": "address"
        }
      ],
      "name": "transferOwnership",
      "outputs": [],
      "stateMutability": "nonpayable",
      "type": "function"
    },
    {
      "inputs": [],
      "name": "unpause",
      "outputs": [],
      "stateMutability": "nonpayable",
      "type": "function"
    },
    {
      "inputs": [
        {
          "internalType": "address",
          "name": "addr",
          "type": "address"
        }
      ],
      "name": "verifyContractIsRegisteredAndActive",
      "outputs": [],
      "stateMutability": "nonpayable",
      "type": "function"
    },
    {
      "inputs": [
        {
          "internalType": "bytes32",
          "name": "specificInvestimentHash",
          "type": "bytes32"
        },
        {
          "internalType": "uint256",
          "name": "idInvestor",
          "type": "uint256"
        },
        {
          "internalType": "uint256",
          "name": "amount",
          "type": "uint256"
        },
        {
          "internalType": "bytes32",
          "name": "docHash",
          "type": "bytes32"
        }
      ],
      "name": "requestMint",
      "outputs": [],
      "stateMutability": "nonpayable",
      "type": "function"
    },
    {
      "inputs": [
        {
          "internalType": "address",
          "name": "businessContractAddr",
          "type": "address"
        },
        {
          "internalType": "bytes32",
          "name": "specificHash",
          "type": "bytes32"
        },
        {
          "internalType": "uint256",
          "name": "amount",
          "type": "uint256"
        },
        {
          "internalType": "bytes32",
          "name": "docHash",
          "type": "bytes32"
        },
        {
          "internalType": "string[]",
          "name": "data",
          "type": "string[]"
        }
      ],
      "name": "mint",
      "outputs": [],
      "stateMutability": "nonpayable",
      "type": "function"
    },
    {
      "inputs": [
        {
          "internalType": "address",
          "name": "originalSender",
          "type": "address"
        },
        {
          "internalType": "bytes32",
          "name": "hashToBurn",
          "type": "bytes32"
        },
        {
          "internalType": "uint256",
          "name": "amount",
          "type": "uint256"
        },
        {
          "internalType": "bytes32",
          "name": "docHash",
          "type": "bytes32"
        }
      ],
      "name": "burnOwnTokenBySpecificContracts",
      "outputs": [],
      "stateMutability": "nonpayable",
      "type": "function"
    },
    {
      "inputs": [
        {
          "internalType": "address",
          "name": "businessContractAddr",
          "type": "address"
        },
        {
          "internalType": "bytes32",
          "name": "hashToBurn",
          "type": "bytes32"
        },
        {
          "internalType": "uint256",
          "name": "amount",
          "type": "uint256"
        },
        {
          "internalType": "bytes32",
          "name": "docHash",
          "type": "bytes32"
        }
      ],
      "name": "burnOwnToken",
      "outputs": [],
      "stateMutability": "nonpayable",
      "type": "function"
    },
    {
      "inputs": [
        {
          "internalType": "address",
          "name": "businessContractAddr",
          "type": "address"
        },
        {
          "internalType": "bytes32",
          "name": "fromHash",
          "type": "bytes32"
        },
        {
          "internalType": "uint256",
          "name": "toId",
          "type": "uint256"
        },
        {
          "internalType": "bytes32",
          "name": "toHash",
          "type": "bytes32"
        },
        {
          "internalType": "uint256",
          "name": "amount",
          "type": "uint256"
        },
        {
          "internalType": "bytes32",
          "name": "docHash",
          "type": "bytes32"
        },
        {
          "internalType": "string[]",
          "name": "data",
          "type": "string[]"
        }
      ],
      "name": "transfer",
      "outputs": [],
      "stateMutability": "nonpayable",
      "type": "function"
    },
    {
      "inputs": [
        {
          "internalType": "address",
          "name": "businessContractAddr",
          "type": "address"
        },
        {
          "internalType": "bytes32",
          "name": "fromHash",
          "type": "bytes32"
        },
        {
          "internalType": "uint256",
          "name": "amount",
          "type": "uint256"
        },
        {
          "internalType": "bytes32",
          "name": "docHash",
          "type": "bytes32"
        },
        {
          "internalType": "string[]",
          "name": "data",
          "type": "string[]"
        }
      ],
      "name": "redeem",
      "outputs": [],
      "stateMutability": "nonpayable",
      "type": "function"
    },
    {
      "inputs": [
        {
          "internalType": "address",
          "name": "businessContractAddr",
          "type": "address"
        },
        {
          "internalType": "bytes32",
          "name": "redemptionTransactionHash",
          "type": "bytes32"
        },
        {
          "internalType": "bytes32",
          "name": "docHash",
          "type": "bytes32"
        },
        {
          "internalType": "string[]",
          "name": "data",
          "type": "string[]"
        }
      ],
      "name": "notifyRedemptionSettlement",
      "outputs": [],
      "stateMutability": "nonpayable",
      "type": "function"
    },
    {
      "inputs": [],
      "name": "getDecimals",
      "outputs": [
        {
          "internalType": "uint8",
          "name": "",
          "type": "uint8"
        }
      ],
      "stateMutability": "view",
      "type": "function"
    },
    {
      "inputs": [],
      "name": "getBndesId",
      "outputs": [
        {
          "internalType": "uint256",
          "name": "",
          "type": "uint256"
        }
      ],
      "stateMutability": "view",
      "type": "function"
    },
    {
      "inputs": [
        {
          "internalType": "address",
          "name": "rs",
          "type": "address"
        }
      ],
      "name": "setResponsibleForInvestmentConfirmation",
      "outputs": [],
      "stateMutability": "nonpayable",
      "type": "function"
    },
    {
      "inputs": [
        {
          "internalType": "address",
          "name": "rs",
          "type": "address"
        }
      ],
      "name": "setResponsibleForSettlement",
      "outputs": [],
      "stateMutability": "nonpayable",
      "type": "function"
    }
  ],
  "bytecode": "0x608060405260016003556002600560006101000a81548160ff021916908360ff1602179055503480156200003257600080fd5b506040516200513b3803806200513b83398181016040528101906200005891906200043e565b620000786200006c6200022960201b60201c565b6200023160201b60201c565b6000600160006101000a81548160ff0219169083151502179055506000620000a56200022960201b60201c565b9050806001806101000a81548173ffffffffffffffffffffffffffffffffffffffff021916908373ffffffffffffffffffffffffffffffffffffffff1602179055508073ffffffffffffffffffffffffffffffffffffffff16600073ffffffffffffffffffffffffffffffffffffffff167f8be0079c531659141344cd1fd0a4f28419497f9722a3daafe3b4186f6b6457e060405160405180910390a35081600260006101000a81548173ffffffffffffffffffffffffffffffffffffffff021916908373ffffffffffffffffffffffffffffffffffffffff16021790555080600560006101000a81548160ff021916908360ff16021790555033600560016101000a81548173ffffffffffffffffffffffffffffffffffffffff021916908373ffffffffffffffffffffffffffffffffffffffff16021790555033600660006101000a81548173ffffffffffffffffffffffffffffffffffffffff021916908373ffffffffffffffffffffffffffffffffffffffff1602179055505050620005f3565b600033905090565b6200024c8160006200029260201b6200291a1790919060201c565b8073ffffffffffffffffffffffffffffffffffffffff167f6719d08c1888103bea251a4ed56406bd0c3e69723c8a1686e017e7bbe159b6f860405160405180910390a250565b620002a482826200034560201b60201c565b15620002e7576040517f08c379a0000000000000000000000000000000000000000000000000000000008152600401620002de9062000529565b60405180910390fd5b60018260000160008373ffffffffffffffffffffffffffffffffffffffff1673ffffffffffffffffffffffffffffffffffffffff16815260200190815260200160002060006101000a81548160ff0219169083151502179055505050565b60008073ffffffffffffffffffffffffffffffffffffffff168273ffffffffffffffffffffffffffffffffffffffff161415620003b9576040517f08c379a0000000000000000000000000000000000000000000000000000000008152600401620003b0906200054b565b60405180910390fd5b8260000160008373ffffffffffffffffffffffffffffffffffffffff1673ffffffffffffffffffffffffffffffffffffffff16815260200190815260200160002060009054906101000a900460ff16905092915050565b6000815190506200042181620005bf565b92915050565b6000815190506200043881620005d9565b92915050565b600080604083850312156200045257600080fd5b6000620004628582860162000410565b9250506020620004758582860162000427565b9150509250929050565b60006200048e601f836200056d565b91507f526f6c65733a206163636f756e7420616c72656164792068617320726f6c65006000830152602082019050919050565b6000620004d06022836200056d565b91507f526f6c65733a206163636f756e7420697320746865207a65726f20616464726560008301527f73730000000000000000000000000000000000000000000000000000000000006020830152604082019050919050565b6000602082019050818103600083015262000544816200047f565b9050919050565b600060208201905081810360008301526200056681620004c1565b9050919050565b600082825260208201905092915050565b60006200058b8262000592565b9050919050565b600073ffffffffffffffffffffffffffffffffffffffff82169050919050565b600060ff82169050919050565b620005ca816200057e565b8114620005d657600080fd5b50565b620005e481620005b2565b8114620005f057600080fd5b50565b614b3880620006036000396000f3fe608060405234801561001057600080fd5b50600436106102115760003560e01c806382dc1ec411610125578063c5b2f6a9116100ad578063e0a08b731161007c578063e0a08b73146105c8578063e67b02a4146105f8578063e6e4623814610614578063f0141d8414610632578063f2fde38b1461065057610211565b8063c5b2f6a91461052f578063cf13a0b514610560578063d25748eb14610590578063d9a428fe146105ac57610211565b80638f32d59b116100f45780638f32d59b1461048b578063a1ccae97146104a9578063a6a9ba88146104c5578063b304f21c146104e3578063b7404ff51461051357610211565b806382dc1ec4146104165780638456cb59146104325780638b214c001461043c5780638da5cb5b1461046d57610211565b80634a47f599116101a85780635d09022c116101775780635d09022c146103ac57806369bd26b2146103c85780636ef8d66d146103e4578063715018a6146103ee5780637b103999146103f857610211565b80634a47f5991461032457806353d5f7cf146103425780635ac87709146103725780635c975abb1461038e57610211565b8063313ce567116101e4578063313ce5671461029c578063368ce3bd146102ba5780633f4ba83a146102ea57806346fbf68e146102f457610211565b806304cc4d8e146102165780630faf5eb214610232578063214538001461024e57806330b499831461026c575b600080fd5b610230600480360381019061022b91906133b8565b61066c565b005b61024c600480360381019061024791906132b0565b610779565b005b610256610c4f565b6040516102639190613f55565b60405180910390f35b61028660048036038101906102819190613480565b610c75565b6040516102939190614734565b60405180910390f35b6102a4610ca7565b6040516102b191906147d8565b60405180910390f35b6102d460048036038101906102cf91906130b5565b610cba565b6040516102e19190614734565b60405180910390f35b6102f2610fee565b005b61030e600480360381019061030991906130b5565b6110e7565b60405161031b9190614357565b60405180910390f35b61032c611104565b6040516103399190614734565b60405180910390f35b61035c600480360381019061035791906130b5565b6111c2565b6040516103699190614357565b60405180910390f35b61038c60048036038101906103879190613221565b611292565b005b6103966115c7565b6040516103a39190614357565b60405180910390f35b6103c660048036038101906103c191906130b5565b6115de565b005b6103e260048036038101906103dd91906131be565b611846565b005b6103ec61187b565b005b6103f661188d565b005b610400611992565b60405161040d9190614417565b60405180910390f35b610430600480360381019061042b91906130b5565b6119b8565b005b61043a611a13565b005b610456600480360381019061045191906130b5565b611b0c565b604051610464929190614778565b60405180910390f35b610475611d19565b6040516104829190613f55565b60405180910390f35b610493611d41565b6040516104a09190614357565b60405180910390f35b6104c360048036038101906104be91906131be565b611d9e565b005b6104cd611e74565b6040516104da9190613f55565b60405180910390f35b6104fd60048036038101906104f89190613107565b611e9a565b60405161050a9190614357565b60405180910390f35b61052d600480360381019061052891906130b5565b611fdf565b005b610549600480360381019061054491906130b5565b612247565b60405161055792919061474f565b60405180910390f35b61057a60048036038101906105759190613444565b612278565b6040516105879190614734565b60405180910390f35b6105aa60048036038101906105a591906130b5565b61229d565b005b6105c660048036038101906105c19190613143565b612330565b005b6105e260048036038101906105dd91906130b5565b6124d1565b6040516105ef9190614734565b60405180910390f35b610612600480360381019061060d9190613221565b6125a1565b005b61061c6128aa565b6040516106299190614734565b60405180910390f35b61063a6128b0565b60405161064791906147d8565b60405180910390f35b61066a600480360381019061066591906130b5565b6128c7565b005b6106753361229d565b600082116106b8576040517f08c379a00000000000000000000000000000000000000000000000000000000081526004016106af90614534565b60405180910390fd5b60003390506106c68161229d565b60006106d1826124d1565b905061070a84600860008481526020019081526020016000206000898152602001908152602001600020546129c290919063ffffffff16565b600860008381526020019081526020016000206000888152602001908152602001600020819055507fb5d8f9b160e3756e6a72237700498d57cf4fc736169d86a72e2389a6d24a7df182878787876040516107699594939291906142b2565b60405180910390a1505050505050565b600160009054906101000a900460ff16156107c9576040517f08c379a00000000000000000000000000000000000000000000000000000000081526004016107c090614594565b60405180910390fd5b6000600260009054906101000a900473ffffffffffffffffffffffffffffffffffffffff1673ffffffffffffffffffffffffffffffffffffffff166365f68c89336040518263ffffffff1660e01b81526004016108269190613f70565b60206040518083038186803b15801561083e57600080fd5b505afa158015610852573d6000803e3d6000fd5b505050506040513d601f19601f82011682018060405250810190610876919061341b565b90506108818861229d565b600260009054906101000a900473ffffffffffffffffffffffffffffffffffffffff1673ffffffffffffffffffffffffffffffffffffffff1663613a7896826040518263ffffffff1660e01b81526004016108dc9190614734565b60206040518083038186803b1580156108f457600080fd5b505afa158015610908573d6000803e3d6000fd5b505050506040513d601f19601f8201168201806040525081019061092c9190613366565b61096b576040517f08c379a0000000000000000000000000000000000000000000000000000000008152600401610962906146d4565b60405180910390fd5b600260009054906101000a900473ffffffffffffffffffffffffffffffffffffffff1673ffffffffffffffffffffffffffffffffffffffff1663613a7896876040518263ffffffff1660e01b81526004016109c69190614734565b60206040518083038186803b1580156109de57600080fd5b505afa1580156109f2573d6000803e3d6000fd5b505050506040513d601f19601f82011682018060405250810190610a169190613366565b610a55576040517f08c379a0000000000000000000000000000000000000000000000000000000008152600401610a4c90614714565b60405180910390fd5b6000610a60896124d1565b905060008990508073ffffffffffffffffffffffffffffffffffffffff166341574b3b33858c8c8c8c8c8c6040518963ffffffff1660e01b8152600401610aae989796959493929190613ff3565b600060405180830381600087803b158015610ac857600080fd5b505af1158015610adc573d6000803e3d6000fd5b50505050610b4286604051806060016040528060388152602001614acb6038913960076000868152602001908152602001600020600087815260200190815260200160002060008d815260200190815260200160002054612a179092919063ffffffff16565b60076000848152602001908152602001600020600085815260200190815260200160002060008b815260200190815260200160002081905550610bc3866007600085815260200190815260200160002060008b815260200190815260200160002060008a8152602001908152602001600020546129c290919063ffffffff16565b6007600084815260200190815260200160002060008a81526020019081526020016000206000898152602001908152602001600020819055507fbdea818d4f1687df74b09fdbb5d86c436785fb62b1374ee6b3497ebe39e6f5258a33858c8c8c8c8c8c604051610c3b99989796959493929190614117565b60405180910390a150505050505050505050565b600660009054906101000a900473ffffffffffffffffffffffffffffffffffffffff1681565b600760205282600052604060002060205281600052604060002060205280600052604060002060009250925050505481565b600560009054906101000a900460ff1681565b6000610cc4611d41565b610d03576040517f08c379a0000000000000000000000000000000000000000000000000000000008152600401610cfa90614634565b60405180910390fd5b610d0c82612a72565b15610d4c576040517f08c379a0000000000000000000000000000000000000000000000000000000008152600401610d43906144f4565b60405180910390fd5b60008290508073ffffffffffffffffffffffffffffffffffffffff16633dfdcfab600260009054906101000a900473ffffffffffffffffffffffffffffffffffffffff16306040518363ffffffff1660e01b8152600401610dae929190614078565b600060405180830381600087803b158015610dc857600080fd5b505af1158015610ddc573d6000803e3d6000fd5b5050505060008173ffffffffffffffffffffffffffffffffffffffff16638da5cb5b6040518163ffffffff1660e01b815260040160206040518083038186803b158015610e2857600080fd5b505afa158015610e3c573d6000803e3d6000fd5b505050506040513d601f19601f82011682018060405250810190610e6091906130de565b90506000600260009054906101000a900473ffffffffffffffffffffffffffffffffffffffff1673ffffffffffffffffffffffffffffffffffffffff166365f68c89836040518263ffffffff1660e01b8152600401610ebf9190613f55565b60206040518083038186803b158015610ed757600080fd5b505afa158015610eeb573d6000803e3d6000fd5b505050506040513d601f19601f82011682018060405250810190610f0f919061341b565b90506040518060400160405280600354815260200160011515815250600460008773ffffffffffffffffffffffffffffffffffffffff1673ffffffffffffffffffffffffffffffffffffffff1681526020019081526020016000206000820151816000015560208201518160010160006101000a81548160ff0219169083151502179055509050507f20837d6e0b7236235210e8dcb5168dc3712b7652ca9b5f328e9aaecdd6f386cd6003548287604051610fcc939291906147a1565b60405180910390a1600360008154809291906001019190505550505050919050565b610ffe610ff9612b0e565b6110e7565b61103d576040517f08c379a0000000000000000000000000000000000000000000000000000000008152600401611034906144b4565b60405180910390fd5b600160009054906101000a900460ff1661108c576040517f08c379a000000000000000000000000000000000000000000000000000000000815260040161108390614474565b60405180910390fd5b6000600160006101000a81548160ff0219169083151502179055507f5db9ee0a495bf2e6ff9c91a7834c1ba4fdd244a5e8aa4e537bd38aeae4b073aa6110d0612b0e565b6040516110dd9190613f70565b60405180910390a1565b60006110fd826000612b1690919063ffffffff16565b9050919050565b600080600260009054906101000a900473ffffffffffffffffffffffffffffffffffffffff1673ffffffffffffffffffffffffffffffffffffffff166365f68c8961114d611d19565b6040518263ffffffff1660e01b81526004016111699190613f55565b60206040518083038186803b15801561118157600080fd5b505afa158015611195573d6000803e3d6000fd5b505050506040513d601f19601f820116820180604052508101906111b9919061341b565b90508091505090565b60006111cd82612a72565b61120c576040517f08c379a000000000000000000000000000000000000000000000000000000000815260040161120390614574565b60405180910390fd5b611214612f29565b600460008473ffffffffffffffffffffffffffffffffffffffff1673ffffffffffffffffffffffffffffffffffffffff168152602001908152602001600020604051806040016040529081600082015481526020016001820160009054906101000a900460ff16151515158152505090508060200151915050919050565b61129b8561229d565b3373ffffffffffffffffffffffffffffffffffffffff16600560019054906101000a900473ffffffffffffffffffffffffffffffffffffffff1673ffffffffffffffffffffffffffffffffffffffff161461132b576040517f08c379a000000000000000000000000000000000000000000000000000000000815260040161132290614554565b60405180910390fd5b6000831161136e576040517f08c379a000000000000000000000000000000000000000000000000000000000815260040161136590614694565b60405180910390fd5b60008061137a87611b0c565b915091506113cf85604051806060016040528060298152602001614a67602991396008600086815260200190815260200160002060008a815260200190815260200160002054612a179092919063ffffffff16565b60086000848152602001908152602001600020600088815260200190815260200160002081905550600087905060008173ffffffffffffffffffffffffffffffffffffffff1663cd541b7a896040518263ffffffff1660e01b81526004016114379190614372565b602060405180830381600087803b15801561145157600080fd5b505af1158015611465573d6000803e3d6000fd5b505050506040513d601f19601f82011682018060405250810190611489919061338f565b90506114d3876007600087815260200190815260200160002060008681526020019081526020016000206000848152602001908152602001600020546129c290919063ffffffff16565b6007600086815260200190815260200160002060008581526020019081526020016000206000838152602001908152602001600020819055508173ffffffffffffffffffffffffffffffffffffffff1663f0ad17db898989896040518563ffffffff1660e01b815260040161154b94939291906143cb565b600060405180830381600087803b15801561156557600080fd5b505af1158015611579573d6000803e3d6000fd5b505050507f3f0f1f541f704191af92125dcf03aa5ef8ed27b996d6b2ba3c3c91e1351c5c0e89898989896040516115b4959493929190614258565b60405180910390a1505050505050505050565b6000600160009054906101000a900460ff16905090565b6115e6611d41565b611625576040517f08c379a000000000000000000000000000000000000000000000000000000000815260040161161c90614634565b60405180910390fd5b6000600260009054906101000a900473ffffffffffffffffffffffffffffffffffffffff1673ffffffffffffffffffffffffffffffffffffffff166365f68c89836040518263ffffffff1660e01b81526004016116829190613f55565b60206040518083038186803b15801561169a57600080fd5b505afa1580156116ae573d6000803e3d6000fd5b505050506040513d601f19601f820116820180604052508101906116d2919061341b565b9050600260009054906101000a900473ffffffffffffffffffffffffffffffffffffffff1673ffffffffffffffffffffffffffffffffffffffff166365f68c8961171a611d19565b6040518263ffffffff1660e01b81526004016117369190613f55565b60206040518083038186803b15801561174e57600080fd5b505afa158015611762573d6000803e3d6000fd5b505050506040513d601f19601f82011682018060405250810190611786919061341b565b81146117c7576040517f08c379a00000000000000000000000000000000000000000000000000000000081526004016117be90614454565b60405180910390fd5b81600560016101000a81548173ffffffffffffffffffffffffffffffffffffffff021916908373ffffffffffffffffffffffffffffffffffffffff1602179055507faf10d91531a8d27fc602286518b7fd48b5ea40e30a02f824746cd67a2ab488c882600160405161183a929190614305565b60405180910390a15050565b61184f3361229d565b600033905060008061186083611b0c565b91509150611872838883898989612bde565b50505050505050565b61188b611886612b0e565b612ca1565b565b611895611d41565b6118d4576040517f08c379a00000000000000000000000000000000000000000000000000000000081526004016118cb90614634565b60405180910390fd5b600073ffffffffffffffffffffffffffffffffffffffff1660018054906101000a900473ffffffffffffffffffffffffffffffffffffffff1673ffffffffffffffffffffffffffffffffffffffff167f8be0079c531659141344cd1fd0a4f28419497f9722a3daafe3b4186f6b6457e060405160405180910390a360006001806101000a81548173ffffffffffffffffffffffffffffffffffffffff021916908373ffffffffffffffffffffffffffffffffffffffff160217905550565b600260009054906101000a900473ffffffffffffffffffffffffffffffffffffffff1681565b6119c86119c3612b0e565b6110e7565b611a07576040517f08c379a00000000000000000000000000000000000000000000000000000000081526004016119fe906144b4565b60405180910390fd5b611a1081612cfb565b50565b611a23611a1e612b0e565b6110e7565b611a62576040517f08c379a0000000000000000000000000000000000000000000000000000000008152600401611a59906144b4565b60405180910390fd5b600160009054906101000a900460ff1615611ab2576040517f08c379a0000000000000000000000000000000000000000000000000000000008152600401611aa990614594565b60405180910390fd5b60018060006101000a81548160ff0219169083151502179055507f62e78cea01bee320cd4e420270b5ea74000d11b0c9f74754ebdbfc544b05a258611af5612b0e565b604051611b029190613f70565b60405180910390a1565b600080611b1883612a72565b611b57576040517f08c379a0000000000000000000000000000000000000000000000000000000008152600401611b4e90614574565b60405180910390fd5b611b5f612f29565b600460008573ffffffffffffffffffffffffffffffffffffffff1673ffffffffffffffffffffffffffffffffffffffff168152602001908152602001600020604051806040016040529081600082015481526020016001820160009054906101000a900460ff1615151515815250509050600084905060008173ffffffffffffffffffffffffffffffffffffffff16638da5cb5b6040518163ffffffff1660e01b815260040160206040518083038186803b158015611c1d57600080fd5b505afa158015611c31573d6000803e3d6000fd5b505050506040513d601f19601f82011682018060405250810190611c5591906130de565b90506000600260009054906101000a900473ffffffffffffffffffffffffffffffffffffffff1673ffffffffffffffffffffffffffffffffffffffff166365f68c89836040518263ffffffff1660e01b8152600401611cb49190613f55565b60206040518083038186803b158015611ccc57600080fd5b505afa158015611ce0573d6000803e3d6000fd5b505050506040513d601f19601f82011682018060405250810190611d04919061341b565b90508360000151819550955050505050915091565b600060018054906101000a900473ffffffffffffffffffffffffffffffffffffffff16905090565b600060018054906101000a900473ffffffffffffffffffffffffffffffffffffffff1673ffffffffffffffffffffffffffffffffffffffff16611d82612b0e565b73ffffffffffffffffffffffffffffffffffffffff1614905090565b611da73361229d565b611db08461229d565b6000600260009054906101000a900473ffffffffffffffffffffffffffffffffffffffff1673ffffffffffffffffffffffffffffffffffffffff166365f68c89336040518263ffffffff1660e01b8152600401611e0d9190613f70565b60206040518083038186803b158015611e2557600080fd5b505afa158015611e39573d6000803e3d6000fd5b505050506040513d601f19601f82011682018060405250810190611e5d919061341b565b9050611e6d853383878787612bde565b5050505050565b600560019054906101000a900473ffffffffffffffffffffffffffffffffffffffff1681565b6000611ea4611d41565b611ee3576040517f08c379a0000000000000000000000000000000000000000000000000000000008152600401611eda90614634565b60405180910390fd5b611eec83612a72565b611f2b576040517f08c379a0000000000000000000000000000000000000000000000000000000008152600401611f2290614574565b60405180910390fd5b6000600460008573ffffffffffffffffffffffffffffffffffffffff1673ffffffffffffffffffffffffffffffffffffffff1681526020019081526020016000209050828160010160006101000a81548160ff0219169083151502179055507f28a61818d188a7856821431ff0deb7650c2cc34ee4b7b97616a415fa0a3dfeff81600001548260010160009054906101000a900460ff16604051611fd092919061474f565b60405180910390a15092915050565b611fe7611d41565b612026576040517f08c379a000000000000000000000000000000000000000000000000000000000815260040161201d90614634565b60405180910390fd5b6000600260009054906101000a900473ffffffffffffffffffffffffffffffffffffffff1673ffffffffffffffffffffffffffffffffffffffff166365f68c89836040518263ffffffff1660e01b81526004016120839190613f55565b60206040518083038186803b15801561209b57600080fd5b505afa1580156120af573d6000803e3d6000fd5b505050506040513d601f19601f820116820180604052508101906120d3919061341b565b9050600260009054906101000a900473ffffffffffffffffffffffffffffffffffffffff1673ffffffffffffffffffffffffffffffffffffffff166365f68c8961211b611d19565b6040518263ffffffff1660e01b81526004016121379190613f55565b60206040518083038186803b15801561214f57600080fd5b505afa158015612163573d6000803e3d6000fd5b505050506040513d601f19601f82011682018060405250810190612187919061341b565b81146121c8576040517f08c379a00000000000000000000000000000000000000000000000000000000081526004016121bf906145b4565b60405180910390fd5b81600660006101000a81548173ffffffffffffffffffffffffffffffffffffffff021916908373ffffffffffffffffffffffffffffffffffffffff1602179055507faf10d91531a8d27fc602286518b7fd48b5ea40e30a02f824746cd67a2ab488c882600260405161223b92919061432e565b60405180910390a15050565b60046020528060005260406000206000915090508060000154908060010160009054906101000a900460ff16905082565b6008602052816000526040600020602052806000526040600020600091509150505481565b6122a681612a72565b6122e5576040517f08c379a00000000000000000000000000000000000000000000000000000000081526004016122dc90614654565b60405180910390fd5b6122ee816111c2565b61232d576040517f08c379a0000000000000000000000000000000000000000000000000000000008152600401612324906146b4565b60405180910390fd5b50565b600160009054906101000a900460ff1615612380576040517f08c379a000000000000000000000000000000000000000000000000000000000815260040161237790614594565b60405180910390fd5b6123898461229d565b3373ffffffffffffffffffffffffffffffffffffffff16600660009054906101000a900473ffffffffffffffffffffffffffffffffffffffff1673ffffffffffffffffffffffffffffffffffffffff1614612419576040517f08c379a000000000000000000000000000000000000000000000000000000000815260040161241090614614565b60405180910390fd5b60008490508073ffffffffffffffffffffffffffffffffffffffff1663a6ee26e18585856040518463ffffffff1660e01b815260040161245b9392919061438d565b600060405180830381600087803b15801561247557600080fd5b505af1158015612489573d6000803e3d6000fd5b505050507f6b9ae09d6ab882c931047d5687aa3a062d69d6b6caf4b04af6cb9df81245ab51858585856040516124c2949392919061420c565b60405180910390a15050505050565b60006124dc82612a72565b61251b576040517f08c379a000000000000000000000000000000000000000000000000000000000815260040161251290614574565b60405180910390fd5b612523612f29565b600460008473ffffffffffffffffffffffffffffffffffffffff1673ffffffffffffffffffffffffffffffffffffffff168152602001908152602001600020604051806040016040529081600082015481526020016001820160009054906101000a900460ff16151515158152505090508060000151915050919050565b600160009054906101000a900460ff16156125f1576040517f08c379a00000000000000000000000000000000000000000000000000000000081526004016125e890614594565b60405180910390fd5b6000600260009054906101000a900473ffffffffffffffffffffffffffffffffffffffff1673ffffffffffffffffffffffffffffffffffffffff166365f68c89336040518263ffffffff1660e01b815260040161264e9190613f70565b60206040518083038186803b15801561266657600080fd5b505afa15801561267a573d6000803e3d6000fd5b505050506040513d601f19601f8201168201806040525081019061269e919061341b565b90506126a98661229d565b600260009054906101000a900473ffffffffffffffffffffffffffffffffffffffff1673ffffffffffffffffffffffffffffffffffffffff1663613a7896826040518263ffffffff1660e01b81526004016127049190614734565b60206040518083038186803b15801561271c57600080fd5b505afa158015612730573d6000803e3d6000fd5b505050506040513d601f19601f820116820180604052508101906127549190613366565b612793576040517f08c379a000000000000000000000000000000000000000000000000000000000815260040161278a906146f4565b60405180910390fd5b600084116127d6576040517f08c379a00000000000000000000000000000000000000000000000000000000081526004016127cd906145d4565b60405180910390fd5b60008690508073ffffffffffffffffffffffffffffffffffffffff1663ba6ad8533384898989896040518763ffffffff1660e01b815260040161281e96959493929190613f8b565b600060405180830381600087803b15801561283857600080fd5b505af115801561284c573d6000803e3d6000fd5b505050507f3115381baa8fda8997478031f1bd9f852965a6be640620b542c229a91e0302ab8733848989898960405161288b97969594939291906140a1565b60405180910390a16128a1873384898989612bde565b50505050505050565b60035481565b6000600560009054906101000a900460ff16905090565b6128cf611d41565b61290e576040517f08c379a000000000000000000000000000000000000000000000000000000000815260040161290590614634565b60405180910390fd5b61291781612d55565b50565b6129248282612b16565b15612964576040517f08c379a000000000000000000000000000000000000000000000000000000000815260040161295b90614494565b60405180910390fd5b60018260000160008373ffffffffffffffffffffffffffffffffffffffff1673ffffffffffffffffffffffffffffffffffffffff16815260200190815260200160002060006101000a81548160ff0219169083151502179055505050565b600080828401905083811015612a0d576040517f08c379a0000000000000000000000000000000000000000000000000000000008152600401612a0490614514565b60405180910390fd5b8091505092915050565b6000838311158290612a5f576040517f08c379a0000000000000000000000000000000000000000000000000000000008152600401612a569190614432565b60405180910390fd5b5060008385039050809150509392505050565b6000612a7c612f29565b600460008473ffffffffffffffffffffffffffffffffffffffff1673ffffffffffffffffffffffffffffffffffffffff168152602001908152602001600020604051806040016040529081600082015481526020016001820160009054906101000a900460ff16151515158152505090506000816000015114612b03576001915050612b09565b60009150505b919050565b600033905090565b60008073ffffffffffffffffffffffffffffffffffffffff168273ffffffffffffffffffffffffffffffffffffffff161415612b87576040517f08c379a0000000000000000000000000000000000000000000000000000000008152600401612b7e90614674565b60405180910390fd5b8260000160008373ffffffffffffffffffffffffffffffffffffffff1673ffffffffffffffffffffffffffffffffffffffff16815260200190815260200160002060009054906101000a900460ff16905092915050565b612be78661229d565b6000612bf2876124d1565b9050612c56836040518060600160405280603b8152602001614a90603b9139600760008581526020019081526020016000206000898152602001908152602001600020600088815260200190815260200160002054612a179092919063ffffffff16565b507f92f02b400db4c2c442eac2df8de068b8e835d18b96ba11a431c69c468cd441c3878787878787604051612c90969594939291906141ab565b60405180910390a150505050505050565b612cb5816000612e8290919063ffffffff16565b8073ffffffffffffffffffffffffffffffffffffffff167fcd265ebaf09df2871cc7bd4133404a235ba12eff2041bb89d9c714a2621c7c7e60405160405180910390a250565b612d0f81600061291a90919063ffffffff16565b8073ffffffffffffffffffffffffffffffffffffffff167f6719d08c1888103bea251a4ed56406bd0c3e69723c8a1686e017e7bbe159b6f860405160405180910390a250565b600073ffffffffffffffffffffffffffffffffffffffff168173ffffffffffffffffffffffffffffffffffffffff161415612dc5576040517f08c379a0000000000000000000000000000000000000000000000000000000008152600401612dbc906144d4565b60405180910390fd5b8073ffffffffffffffffffffffffffffffffffffffff1660018054906101000a900473ffffffffffffffffffffffffffffffffffffffff1673ffffffffffffffffffffffffffffffffffffffff167f8be0079c531659141344cd1fd0a4f28419497f9722a3daafe3b4186f6b6457e060405160405180910390a3806001806101000a81548173ffffffffffffffffffffffffffffffffffffffff021916908373ffffffffffffffffffffffffffffffffffffffff16021790555050565b612e8c8282612b16565b612ecb576040517f08c379a0000000000000000000000000000000000000000000000000000000008152600401612ec2906145f4565b60405180910390fd5b60008260000160008373ffffffffffffffffffffffffffffffffffffffff1673ffffffffffffffffffffffffffffffffffffffff16815260200190815260200160002060006101000a81548160ff0219169083151502179055505050565b6040518060400160405280600081526020016000151581525090565b600081359050612f5481614a0a565b92915050565b600081519050612f6981614a0a565b92915050565b600082601f830112612f8057600080fd5b8135612f93612f8e82614820565b6147f3565b9150818183526020840193506020810190508360005b83811015612fd95781358601612fbf8882613037565b845260208401935060208301925050600181019050612fa9565b5050505092915050565b600081359050612ff281614a21565b92915050565b60008151905061300781614a21565b92915050565b60008135905061301c81614a38565b92915050565b60008151905061303181614a38565b92915050565b600082601f83011261304857600080fd5b813561305b61305682614848565b6147f3565b9150808252602083016020830185838301111561307757600080fd5b6130828382846149b7565b50505092915050565b60008135905061309a81614a4f565b92915050565b6000815190506130af81614a4f565b92915050565b6000602082840312156130c757600080fd5b60006130d584828501612f45565b91505092915050565b6000602082840312156130f057600080fd5b60006130fe84828501612f5a565b91505092915050565b6000806040838503121561311a57600080fd5b600061312885828601612f45565b925050602061313985828601612fe3565b9150509250929050565b6000806000806080858703121561315957600080fd5b600061316787828801612f45565b94505060206131788782880161300d565b93505060406131898782880161300d565b925050606085013567ffffffffffffffff8111156131a657600080fd5b6131b287828801612f6f565b91505092959194509250565b600080600080608085870312156131d457600080fd5b60006131e287828801612f45565b94505060206131f38782880161300d565b93505060406132048782880161308b565b92505060606132158782880161300d565b91505092959194509250565b600080600080600060a0868803121561323957600080fd5b600061324788828901612f45565b95505060206132588882890161300d565b94505060406132698882890161308b565b935050606061327a8882890161300d565b925050608086013567ffffffffffffffff81111561329757600080fd5b6132a388828901612f6f565b9150509295509295909350565b600080600080600080600060e0888a0312156132cb57600080fd5b60006132d98a828b01612f45565b97505060206132ea8a828b0161300d565b96505060406132fb8a828b0161308b565b955050606061330c8a828b0161300d565b945050608061331d8a828b0161308b565b93505060a061332e8a828b0161300d565b92505060c088013567ffffffffffffffff81111561334b57600080fd5b6133578a828b01612f6f565b91505092959891949750929550565b60006020828403121561337857600080fd5b600061338684828501612ff8565b91505092915050565b6000602082840312156133a157600080fd5b60006133af84828501613022565b91505092915050565b600080600080608085870312156133ce57600080fd5b60006133dc8782880161300d565b94505060206133ed8782880161308b565b93505060406133fe8782880161308b565b925050606061340f8782880161300d565b91505092959194509250565b60006020828403121561342d57600080fd5b600061343b848285016130a0565b91505092915050565b6000806040838503121561345757600080fd5b60006134658582860161308b565b92505060206134768582860161300d565b9150509250929050565b60008060006060848603121561349557600080fd5b60006134a38682870161308b565b93505060206134b48682870161308b565b92505060406134c58682870161300d565b9150509250925092565b60006134db83836135c1565b905092915050565b6134ec81614939565b82525050565b6134fb816148da565b82525050565b600061350c82614884565b61351681856148a7565b93508360208202850161352885614874565b8060005b85811015613564578484038952815161354585826134cf565b94506135508361489a565b925060208a0199505060018101905061352c565b50829750879550505050505092915050565b61357f816148ec565b82525050565b61358e816148f8565b82525050565b61359d8161494b565b82525050565b6135ac8161496f565b82525050565b6135bb81614981565b82525050565b60006135cc8261488f565b6135d681856148b8565b93506135e68185602086016149c6565b6135ef816149f9565b840191505092915050565b60006136058261488f565b61360f81856148c9565b935061361f8185602086016149c6565b613628816149f9565b840191505092915050565b60006136406056836148c9565b91507f4f20726573706f6e73c3a176656c2070656c6120636f6e6669726d61c3a7c3a360008301527f6f20646f20696e76657374696d656e746f20646576652073657220646f206d6560208301527f736d6f205242425f494420646f20636f6e747261746f000000000000000000006040830152606082019050919050565b60006136cc6014836148c9565b91507f5061757361626c653a206e6f74207061757365640000000000000000000000006000830152602082019050919050565b600061370c601f836148c9565b91507f526f6c65733a206163636f756e7420616c72656164792068617320726f6c65006000830152602082019050919050565b600061374c6030836148c9565b91507f506175736572526f6c653a2063616c6c657220646f6573206e6f74206861766560008301527f207468652050617573657220726f6c65000000000000000000000000000000006020830152604082019050919050565b60006137b26026836148c9565b91507f4f776e61626c653a206e6577206f776e657220697320746865207a65726f206160008301527f64647265737300000000000000000000000000000000000000000000000000006020830152604082019050919050565b60006138186017836148c9565b91507f436f6e747261746f206ac3a1207265676973747261646f0000000000000000006000830152602082019050919050565b6000613858601b836148c9565b91507f536166654d6174683a206164646974696f6e206f766572666c6f7700000000006000830152602082019050919050565b60006138986035836148c9565b91507f56616c6f72206120736572207472616e736163696f6e61646f2064657665207360008301527f6572206d61696f7220646f20717565207a65726f2e00000000000000000000006020830152604082019050919050565b60006138fe6054836148c9565b91507f536f6d656e746520756d20726573706f6e73c3a176656c2070656c6120636f6e60008301527f6669726d61c3a7c3a36f20646520696e76657374696d656e746f20706f64652060208301527f656e766961722061207472616e7361c3a7c3a36f0000000000000000000000006040830152606082019050919050565b600061398a6022836148c9565b91507f436f6e747261746f206465206e65676f63696f206e616f20726567697374726160008301527f646f0000000000000000000000000000000000000000000000000000000000006020830152604082019050919050565b60006139f06010836148c9565b91507f5061757361626c653a20706175736564000000000000000000000000000000006000830152602082019050919050565b6000613a306045836148c9565b91507f4f20726573706f6e73c3a176656c2070656c61206c697175696461c3a7c3a36f60008301527f206465766520736572206461206d65736d6f205242425f494420646f20636f6e60208301527f747261746f0000000000000000000000000000000000000000000000000000006040830152606082019050919050565b6000613abc602b836148c9565b91507f56616c6f722061207265736761746172206465766520736572206d61696f722060008301527f646f20717565207a65726f0000000000000000000000000000000000000000006020830152604082019050919050565b6000613b226021836148c9565b91507f526f6c65733a206163636f756e7420646f6573206e6f74206861766520726f6c60008301527f65000000000000000000000000000000000000000000000000000000000000006020830152604082019050919050565b6000613b886043836148c9565b91507f536f6d656e746520756d20726573706f6e73c3a176656c2070656c61206c697160008301527f75696469c3a7c3a36f20706f646520656e766961722061207472616e7361c3a760208301527fc3a36f00000000000000000000000000000000000000000000000000000000006040830152606082019050919050565b6000613c146020836148c9565b91507f4f776e61626c653a2063616c6c6572206973206e6f7420746865206f776e65726000830152602082019050919050565b6000613c54604c836148c9565b91507f4dc3a9746f646f2073c3b320706f646520736572206368616d61646f20706f7260008301527f20636f6e747261746f206465206e6567c3b363696f207072657669616d656e7460208301527f65206361646173747261646f00000000000000000000000000000000000000006040830152606082019050919050565b6000613ce06022836148c9565b91507f526f6c65733a206163636f756e7420697320746865207a65726f20616464726560008301527f73730000000000000000000000000000000000000000000000000000000000006020830152604082019050919050565b6000613d466029836148c9565b91507f56616c6f722061206d696e746172206465766520736572206d61696f7220646f60008301527f20717565207a65726f00000000000000000000000000000000000000000000006020830152604082019050919050565b6000613dac603b836148c9565b91507f4dc3a9746f646f2073c3b320706f646520736572206368616d61646f20706f7260008301527f20636f6e747261746f206465206e6567c3b363696f20617469766f00000000006020830152604082019050919050565b6000613e126033836148c9565b91507f436f6e7461206465206f726967656d207072656369736120657374617220636f60008301527f6d20636164617374726f2076616c696461646f000000000000000000000000006020830152604082019050919050565b6000613e78603f836148c9565b91507f436f6e746120736f6c69636974616e746520646f2072656465656d207072656360008301527f69736120657374617220636f6d20636164617374726f2076616c696461646f006020830152604082019050919050565b6000613ede6034836148c9565b91507f436f6e74612064652064657374696e6f2070726563697361206573746172206360008301527f6f6d20636164617374726f2076616c696461646f0000000000000000000000006020830152604082019050919050565b613f4081614922565b82525050565b613f4f8161492c565b82525050565b6000602082019050613f6a60008301846134f2565b92915050565b6000602082019050613f8560008301846134e3565b92915050565b600060c082019050613fa060008301896134e3565b613fad6020830188613f37565b613fba6040830187613585565b613fc76060830186613f37565b613fd46080830185613585565b81810360a0830152613fe68184613501565b9050979650505050505050565b600061010082019050614009600083018b6134e3565b614016602083018a613f37565b6140236040830189613585565b6140306060830188613f37565b61403d6080830187613585565b61404a60a0830186613f37565b61405760c0830185613585565b81810360e08301526140698184613501565b90509998505050505050505050565b600060408201905061408d60008301856134f2565b61409a60208301846134f2565b9392505050565b600060e0820190506140b6600083018a6134f2565b6140c360208301896134e3565b6140d06040830188613f37565b6140dd6060830187613585565b6140ea6080830186613f37565b6140f760a0830185613585565b81810360c08301526141098184613501565b905098975050505050505050565b60006101208201905061412d600083018c6134f2565b61413a602083018b6134e3565b614147604083018a613f37565b6141546060830189613585565b6141616080830188613f37565b61416e60a0830187613585565b61417b60c0830186613f37565b61418860e0830185613585565b81810361010083015261419b8184613501565b90509a9950505050505050505050565b600060c0820190506141c060008301896134f2565b6141cd60208301886134f2565b6141da6040830187613f37565b6141e76060830186613585565b6141f46080830185613f37565b61420160a0830184613585565b979650505050505050565b600060808201905061422160008301876134f2565b61422e6020830186613585565b61423b6040830185613585565b818103606083015261424d8184613501565b905095945050505050565b600060a08201905061426d60008301886134f2565b61427a6020830187613585565b6142876040830186613f37565b6142946060830185613585565b81810360808301526142a68184613501565b90509695505050505050565b600060a0820190506142c760008301886134f2565b6142d46020830187613585565b6142e16040830186613f37565b6142ee6060830185613f37565b6142fb6080830184613585565b9695505050505050565b600060408201905061431a60008301856134f2565b61432760208301846135a3565b9392505050565b600060408201905061434360008301856134f2565b61435060208301846135b2565b9392505050565b600060208201905061436c6000830184613576565b92915050565b60006020820190506143876000830184613585565b92915050565b60006060820190506143a26000830186613585565b6143af6020830185613585565b81810360408301526143c18184613501565b9050949350505050565b60006080820190506143e06000830187613585565b6143ed6020830186613f37565b6143fa6040830185613585565b818103606083015261440c8184613501565b905095945050505050565b600060208201905061442c6000830184613594565b92915050565b6000602082019050818103600083015261444c81846135fa565b905092915050565b6000602082019050818103600083015261446d81613633565b9050919050565b6000602082019050818103600083015261448d816136bf565b9050919050565b600060208201905081810360008301526144ad816136ff565b9050919050565b600060208201905081810360008301526144cd8161373f565b9050919050565b600060208201905081810360008301526144ed816137a5565b9050919050565b6000602082019050818103600083015261450d8161380b565b9050919050565b6000602082019050818103600083015261452d8161384b565b9050919050565b6000602082019050818103600083015261454d8161388b565b9050919050565b6000602082019050818103600083015261456d816138f1565b9050919050565b6000602082019050818103600083015261458d8161397d565b9050919050565b600060208201905081810360008301526145ad816139e3565b9050919050565b600060208201905081810360008301526145cd81613a23565b9050919050565b600060208201905081810360008301526145ed81613aaf565b9050919050565b6000602082019050818103600083015261460d81613b15565b9050919050565b6000602082019050818103600083015261462d81613b7b565b9050919050565b6000602082019050818103600083015261464d81613c07565b9050919050565b6000602082019050818103600083015261466d81613c47565b9050919050565b6000602082019050818103600083015261468d81613cd3565b9050919050565b600060208201905081810360008301526146ad81613d39565b9050919050565b600060208201905081810360008301526146cd81613d9f565b9050919050565b600060208201905081810360008301526146ed81613e05565b9050919050565b6000602082019050818103600083015261470d81613e6b565b9050919050565b6000602082019050818103600083015261472d81613ed1565b9050919050565b60006020820190506147496000830184613f37565b92915050565b60006040820190506147646000830185613f37565b6147716020830184613576565b9392505050565b600060408201905061478d6000830185613f37565b61479a6020830184613f37565b9392505050565b60006060820190506147b66000830186613f37565b6147c36020830185613f37565b6147d060408301846134f2565b949350505050565b60006020820190506147ed6000830184613f46565b92915050565b6000604051905081810181811067ffffffffffffffff8211171561481657600080fd5b8060405250919050565b600067ffffffffffffffff82111561483757600080fd5b602082029050602081019050919050565b600067ffffffffffffffff82111561485f57600080fd5b601f19601f8301169050602081019050919050565b6000819050602082019050919050565b600081519050919050565b600081519050919050565b6000602082019050919050565b600082825260208201905092915050565b600082825260208201905092915050565b600082825260208201905092915050565b60006148e582614902565b9050919050565b60008115159050919050565b6000819050919050565b600073ffffffffffffffffffffffffffffffffffffffff82169050919050565b6000819050919050565b600060ff82169050919050565b600061494482614993565b9050919050565b60006149568261495d565b9050919050565b600061496882614902565b9050919050565b600061497a8261492c565b9050919050565b600061498c8261492c565b9050919050565b600061499e826149a5565b9050919050565b60006149b082614902565b9050919050565b82818337600083830152505050565b60005b838110156149e45780820151818401526020810190506149c9565b838111156149f3576000848401525b50505050565b6000601f19601f8301169050919050565b614a13816148da565b8114614a1e57600080fd5b50565b614a2a816148ec565b8114614a3557600080fd5b50565b614a41816148f8565b8114614a4c57600080fd5b50565b614a5881614922565b8114614a6357600080fd5b5056fe546f74616c20646520656d697373c3a36f206578636564652076616c6f7220736f6c6963697461646f546f74616c20646520746f6b656e73206120736572656d20717565696d61646f7320c3a9206d61696f7220646f20717565206f2062616c616e636553616c646f206461206f726967656d206ec3a36f20c3a920737566696369656e746520706172612061207472616e73666572c3aa6e636961a26469706673582212209925e47be0f02fdea5c50226af2bb7ab2d0df403f1c8d01a7a4b0ae201b412d764736f6c634300060c0033",
  "immutableReferences": {},
  "source": "pragma solidity ^0.6.0;\npragma experimental ABIEncoderV2;\n\nimport \"./RBBLib.sol\";\nimport \"./RBBRegistry.sol\";\nimport \"./SpecificRBBToken.sol\";\nimport \"@openzeppelin/contracts/ownership/Ownable.sol\";\nimport \"@openzeppelin/contracts/lifecycle/Pausable.sol\";\nimport \"@openzeppelin/contracts/math/SafeMath.sol\";\n\n//TODO: framework de mudanca e como incluir um business contract com um id especfico\n//TODO: avaliar se precisa ter totalSupply de cada contrato ou outras info derivadas para aumentar programabilidade\ncontract BusinessContractRegistry is Ownable {\n\n\n    RBBRegistry public registry;\n\n    //It starts with 1, because 0 is the id value returned when the item is not found in the businessContractsRegistry\n    uint public idCount = 1;\n\n    struct BusinessContractInfo {\n        uint id;\n        bool isActive;\n    }\n\n    event BusinessContractRegistration (uint id, uint ownerId, address addr);\n    event BusinessContractStateChange (uint id, bool state);\n\n    //indexado pelo address pq serah a forma mais usada para consulta.\n    mapping (address => BusinessContractInfo) public businessContractsRegistry;\n\n    modifier onlyByRegisteredAndActiveContracts {\n        verifyContractIsRegisteredAndActive(msg.sender);\n        _;\n    }\n\n    function verifyContractIsRegisteredAndActive(address addr) public {\n        require(containsBusinessContract(addr), \"Mtodo s pode ser chamado por contrato de negcio previamente cadastrado\");\n        require(isBusinessContractActive(addr), \"Mtodo s pode ser chamado por contrato de negcio ativo\");\n    }\n\n    function registerBusinessContract (address businessContractAddr) public onlyOwner returns (uint)  {\n        require (!containsBusinessContract(businessContractAddr), \"Contrato j registrado\");\n\n        SpecificRBBToken specificContract = SpecificRBBToken(businessContractAddr);\n        specificContract.setInitializationDataDuringRegistration(address(registry), address(this));\n        address scOwnerAddr = specificContract.owner();\n        uint scOwnerId = registry.getId(scOwnerAddr);\n\n\n        businessContractsRegistry[businessContractAddr] = BusinessContractInfo(idCount, true);\n        emit BusinessContractRegistration (idCount, scOwnerId, businessContractAddr);\n        idCount++;\n    }\n\n    function getBusinessContractId (address addr) public view returns (uint) {\n        require (containsBusinessContract(addr), \"Contrato de negocio nao registrado\");\n        BusinessContractInfo memory info = businessContractsRegistry[addr];\n        return info.id;\n    }\n\n    function getBusinessContractIdAndOwnerId (address addr) public view returns (uint, uint) {\n        require (containsBusinessContract(addr), \"Contrato de negocio nao registrado\");\n        BusinessContractInfo memory info = businessContractsRegistry[addr];\n        SpecificRBBToken specificContract = SpecificRBBToken(addr);\n        address scOwnerAddr = specificContract.owner();\n        uint scOwnerId = registry.getId(scOwnerAddr);\n\n        return (info.id, scOwnerId);\n    }\n    \n    function containsBusinessContract(address addr) private view returns (bool) {\n        BusinessContractInfo memory info = businessContractsRegistry[addr];\n        if (info.id!=0) return true;\n        else return false;\n    }\n\n    function isBusinessContractActive(address addr) public view returns (bool) {\n        require (containsBusinessContract(addr), \"Contrato de negocio nao registrado\");\n        BusinessContractInfo memory info = businessContractsRegistry[addr];\n        return info.isActive;\n    }\n\n    function setStatus(address addr, bool status) public onlyOwner returns (bool) {\n        require (containsBusinessContract(addr), \"Contrato de negocio nao registrado\");\n        BusinessContractInfo storage info = businessContractsRegistry[addr];\n        info.isActive = status;\n        emit BusinessContractStateChange(info.id, info.isActive);\n    }\n}\n\ncontract RBBToken is Pausable, BusinessContractRegistry {\n\n    using SafeMath for uint;\n\n    uint8 public decimals = 2;\n\n    address public responsibleForInvestmentConfirmation;\n    address public responsibleForSettlement;\n\n\n    //businessContractId => (RBBid => (specificHash => amount)\n    mapping (uint => mapping (uint => mapping (bytes32 => uint))) public rbbBalances;\n\n    //businessContractId => (specificHash => amount)\n    mapping (uint => mapping (bytes32 => uint)) public balaceRequestedTokens;\n\n    event RBBTokenMintRequested(address businessContractAddr, bytes32 specificHash, uint idInvestor, \n            uint amount, bytes32 docHash);\n    event RBBTokenMint(address businessContractAddr, bytes32 specificHash, uint amount, bytes32 docHash, string[] data);\n    event RBBTokenBurn(address businessContractAddr, address originalSender, uint fromId, bytes32 fromHash, \n            uint amount, bytes32 docHash);\n    event RBBTokenTransfer (address businessContractAddr, address originalSender, uint fromId, bytes32 fromHash, uint toId,\n            bytes32 toHash, uint amount, bytes32 docHash, string[] data);\n    event RBBTokenRedemptionRequested (address businessContractAddr, address originalSender, uint fromId, bytes32 fromHash, \n            uint amount, bytes32 docHash, string[] data);\n    event RBBTokenRedemptionSettlement(address businessContractAddr, bytes32 redemptionTransactionHash, \n            bytes32 docHash, string[] data);\n\n    event ManualIntervention_RoleOrAddress(address account, uint8 eventType);\n\n\n    constructor (address newRegistryAddr, uint8 _decimals) public {\n        registry = RBBRegistry(newRegistryAddr);\n        decimals = _decimals;\n        responsibleForInvestmentConfirmation = msg.sender;\n        responsibleForSettlement = msg.sender;\n\n    }\n\n///******************************************************************* */\n\n    function requestMint(bytes32 specificInvestimentHash, uint idInvestor, uint amount, bytes32 docHash) \n        public onlyByRegisteredAndActiveContracts {\n    \n        require (amount>0, \"Valor a ser transacionado deve ser maior do que zero.\");\n        address businessContractAddr = msg.sender;\n\n        verifyContractIsRegisteredAndActive(businessContractAddr);\n        \n        uint businessContractId = getBusinessContractId(businessContractAddr);\n\n        balaceRequestedTokens[businessContractId][specificInvestimentHash] = \n            balaceRequestedTokens[businessContractId][specificInvestimentHash].add(amount);\n    \n        emit RBBTokenMintRequested(businessContractAddr, specificInvestimentHash, idInvestor, amount, docHash);\n\n    }\n\n    function mint(address businessContractAddr, bytes32 specificHash, uint amount, bytes32 docHash,\n        string[] memory data) public {\n\n        verifyContractIsRegisteredAndActive(businessContractAddr);\n\n        require (responsibleForInvestmentConfirmation == msg.sender, \n            \"Somente um responsvel pela confirmao de investimento pode enviar a transao\");\n\n        require(amount>0, \"Valor a mintar deve ser maior do que zero\");\n\n        (uint businessContractId, uint businessContractOwnerId) = \n                    getBusinessContractIdAndOwnerId(businessContractAddr);\n\n        balaceRequestedTokens[businessContractId][specificHash] \n            = balaceRequestedTokens[businessContractId][specificHash].sub(amount, \"Total de emisso excede valor solicitado\");\n\n        SpecificRBBToken specificContract = SpecificRBBToken(businessContractAddr);\n        bytes32 calcHash = specificContract.getHashToMintedAccount(specificHash);\n\n        rbbBalances[businessContractId][businessContractOwnerId][calcHash] = \n            rbbBalances[businessContractId][businessContractOwnerId][calcHash].add(amount);\n\n        specificContract.verifyAndActForMint(specificHash, amount, docHash, data);\n\n        emit RBBTokenMint(businessContractAddr, specificHash, amount, docHash, data);\n    }\n\n\n    function burnOwnTokenBySpecificContracts (address originalSender, bytes32 hashToBurn, uint amount, \n        bytes32 docHash) public onlyByRegisteredAndActiveContracts {\n\n        address businessContractAddr = msg.sender;\n        (uint businessContractId, uint businessContractOwnerId) = \n                    getBusinessContractIdAndOwnerId(businessContractAddr);\n        \n        _burn(businessContractAddr, originalSender, businessContractOwnerId, hashToBurn, amount, docHash);\n\n    }\n\n\n    function burnOwnToken (address businessContractAddr, bytes32 hashToBurn, uint amount, bytes32 docHash) \n        public onlyByRegisteredAndActiveContracts {\n\n        verifyContractIsRegisteredAndActive(businessContractAddr);\n\n        uint idToBurn = registry.getId(msg.sender);\n\n        _burn(businessContractAddr, msg.sender, idToBurn, hashToBurn, amount, docHash);\n\n    }\n\n    function _burn(address businessContractAddr, address originalSender, uint fromId, bytes32 fromHash, \n        uint amount, bytes32 docHash) internal {\n        \n        verifyContractIsRegisteredAndActive(businessContractAddr);\n//        require(amount>0, \"Valor a queimar deve ser maior do que zero\");\n\n        uint businessContractId = getBusinessContractId(businessContractAddr);\n\n        rbbBalances[businessContractId][fromId][fromHash].sub(amount, \"Total de tokens a serem queimados  maior do que o balance\");\n\n        emit RBBTokenBurn(businessContractAddr, originalSender, fromId, fromHash, amount, docHash);\n    }\n\n///******************************************************************* */\n\n\n    function transfer (address businessContractAddr, bytes32 fromHash, uint toId, bytes32 toHash, \n            uint amount, bytes32 docHash, string[] memory data) public whenNotPaused {\n\n        uint fromId = registry.getId(msg.sender);\n\n        verifyContractIsRegisteredAndActive(businessContractAddr);\n\n        require(registry.isValidatedId(fromId), \"Conta de origem precisa estar com cadastro validado\");\n        require(registry.isValidatedId(toId), \"Conta de destino precisa estar com cadastro validado\");\n        uint businessContractId = getBusinessContractId(businessContractAddr);\n\n        SpecificRBBToken specificContract = SpecificRBBToken(businessContractAddr);\n        specificContract.verifyAndActForTransfer(msg.sender, fromId, fromHash, toId, toHash, amount, docHash, data);\n\n        //altera valores de saldo\n        rbbBalances[businessContractId][fromId][fromHash] =\n                rbbBalances[businessContractId][fromId][fromHash].sub(amount, \"Saldo da origem no  suficiente para a transferncia\");\n        rbbBalances[businessContractId][toId][toHash] = rbbBalances[businessContractId][toId][toHash].add(amount);\n\n        emit RBBTokenTransfer (businessContractAddr, msg.sender, fromId, fromHash, toId, toHash, amount, docHash, data);\n\n    }\n\n    function redeem (address businessContractAddr, bytes32 fromHash, uint amount, \n        bytes32 docHash, string[] memory data) public whenNotPaused  {\n\n            uint fromId = registry.getId(msg.sender);\n\n            verifyContractIsRegisteredAndActive(businessContractAddr);\n            require(registry.isValidatedId(fromId), \"Conta solicitante do redeem precisa estar com cadastro validado\");\n            require(amount>0, \"Valor a resgatar deve ser maior do que zero\");\n    \n            SpecificRBBToken specificContract = SpecificRBBToken(businessContractAddr);\n            specificContract.verifyAndActForRedeem(msg.sender, fromId, fromHash, amount, docHash, data);\n\n            emit RBBTokenRedemptionRequested(businessContractAddr, msg.sender, fromId, fromHash, amount, docHash, data);\n            _burn(businessContractAddr, msg.sender, fromId, fromHash, amount, docHash);\n    }\n\n   /**\n    * Using this function, the Responsible for Settlement indicates that he has made the FIAT money transfer.\n    * @ param redemptionTransactionHash hash of the redeem transaction in which the FIAT money settlement occurred.\n    * @ param receiptHash hash that proof the FIAT money transfer\n    */ \n    function notifyRedemptionSettlement(address businessContractAddr, bytes32 redemptionTransactionHash, \n        bytes32 docHash, string[] memory data) public whenNotPaused {\n\n        verifyContractIsRegisteredAndActive(businessContractAddr);\n\n        require (responsibleForSettlement == msg.sender, \n            \"Somente um responsvel pela liquidio pode enviar a transao\");\n\n\n        SpecificRBBToken specificContract = SpecificRBBToken(businessContractAddr);\n        specificContract.verifyAndActForRedemptionSettlement(redemptionTransactionHash, docHash, data);\n\n        emit RBBTokenRedemptionSettlement(businessContractAddr, redemptionTransactionHash, docHash, data);\n    }\n    \n\n///******************************************************************* */\n\n    function getDecimals() public view returns (uint8) {\n        return decimals;\n    }\n\n    function getBndesId() view public returns (uint) {\n        uint bndesId = registry.getId(owner());\n        return bndesId;\n    }\n\n    function setResponsibleForInvestmentConfirmation(address rs) onlyOwner public {\n        uint id = registry.getId(rs);\n        require(id==registry.getId(owner()), \"O responsvel pela confirmao do investimento deve ser do mesmo RBB_ID do contrato\");\n        responsibleForInvestmentConfirmation = rs;\n        emit ManualIntervention_RoleOrAddress(rs, 1);\n    }\n\n    function setResponsibleForSettlement(address rs) onlyOwner public {\n        uint id = registry.getId(rs);\n        require(id==registry.getId(owner()), \"O responsvel pela liquidao deve ser da mesmo RBB_ID do contrato\");\n        responsibleForSettlement = rs;\n        emit ManualIntervention_RoleOrAddress(rs, 2);\n    }\n\n\n}",
  "sourcePath": "/Users/suzana.moreno/workspace/rbb-token/Back-Blockchain/contracts/RBBToken.sol",
  "compiler": {
    "name": "solc",
    "version": "0.6.12+commit.27d51765.Emscripten.clang"
  },
  "schemaVersion": "3.2.5",
  "updatedAt": "2020-09-24T20:22:36.890Z",
  "devdoc": {
    "kind": "dev",
    "methods": {
      "isOwner()": {
        "details": "Returns true if the caller is the current owner."
      },
      "owner()": {
        "details": "Returns the address of the current owner."
      },
      "pause()": {
        "details": "Called by a pauser to pause, triggers stopped state."
      },
      "paused()": {
        "details": "Returns true if the contract is paused, and false otherwise."
      },
      "renounceOwnership()": {
        "details": "Leaves the contract without owner. It will not be possible to call `onlyOwner` functions anymore. Can only be called by the current owner. NOTE: Renouncing ownership will leave the contract without an owner, thereby removing any functionality that is only available to the owner."
      },
      "transferOwnership(address)": {
        "details": "Transfers ownership of the contract to a new account (`newOwner`). Can only be called by the current owner."
      },
      "unpause()": {
        "details": "Called by a pauser to unpause, returns to normal state."
      }
    },
    "version": 1
  },
  "userdoc": {
    "kind": "user",
    "methods": {
      "getDecimals()": {
        "notice": "******************************************************************* */"
      },
      "notifyRedemptionSettlement(address,bytes32,bytes32,string[])": {
        "notice": "Using this function, the Responsible for Settlement indicates that he has made the FIAT money transfer. param redemptionTransactionHash hash of the redeem transaction in which the FIAT money settlement occurred. param receiptHash hash that proof the FIAT money transfer"
      },
      "requestMint(bytes32,uint256,uint256,bytes32)": {
        "notice": "******************************************************************* */"
      },
      "transfer(address,bytes32,uint256,bytes32,uint256,bytes32,string[])": {
        "notice": "******************************************************************* */"
      }
    },
    "version": 1
  }
}