{
  "contractName": "RBBToken",
  "abi": [
    {
      "inputs": [
        {
          "internalType": "address",
          "name": "newRegistryAddr",
          "type": "address"
        },
        {
          "internalType": "uint8",
          "name": "_decimals",
          "type": "uint8"
        }
      ],
      "stateMutability": "nonpayable",
      "type": "constructor"
    },
    {
      "anonymous": false,
      "inputs": [
        {
          "indexed": false,
          "internalType": "uint256",
          "name": "id",
          "type": "uint256"
        },
        {
          "indexed": false,
          "internalType": "uint256",
          "name": "ownerId",
          "type": "uint256"
        },
        {
          "indexed": false,
          "internalType": "address",
          "name": "addr",
          "type": "address"
        }
      ],
      "name": "BusinessContractRegistration",
      "type": "event"
    },
    {
      "anonymous": false,
      "inputs": [
        {
          "indexed": false,
          "internalType": "uint256",
          "name": "id",
          "type": "uint256"
        },
        {
          "indexed": false,
          "internalType": "bool",
          "name": "state",
          "type": "bool"
        }
      ],
      "name": "BusinessContractStateChange",
      "type": "event"
    },
    {
      "anonymous": false,
      "inputs": [
        {
          "indexed": false,
          "internalType": "address",
          "name": "account",
          "type": "address"
        },
        {
          "indexed": false,
          "internalType": "uint8",
          "name": "eventType",
          "type": "uint8"
        }
      ],
      "name": "ManualIntervention_RoleOrAddress",
      "type": "event"
    },
    {
      "anonymous": false,
      "inputs": [
        {
          "indexed": true,
          "internalType": "address",
          "name": "previousOwner",
          "type": "address"
        },
        {
          "indexed": true,
          "internalType": "address",
          "name": "newOwner",
          "type": "address"
        }
      ],
      "name": "OwnershipTransferred",
      "type": "event"
    },
    {
      "anonymous": false,
      "inputs": [
        {
          "indexed": false,
          "internalType": "address",
          "name": "account",
          "type": "address"
        }
      ],
      "name": "Paused",
      "type": "event"
    },
    {
      "anonymous": false,
      "inputs": [
        {
          "indexed": true,
          "internalType": "address",
          "name": "account",
          "type": "address"
        }
      ],
      "name": "PauserAdded",
      "type": "event"
    },
    {
      "anonymous": false,
      "inputs": [
        {
          "indexed": true,
          "internalType": "address",
          "name": "account",
          "type": "address"
        }
      ],
      "name": "PauserRemoved",
      "type": "event"
    },
    {
      "anonymous": false,
      "inputs": [
        {
          "indexed": false,
          "internalType": "address",
          "name": "businessContractAddr",
          "type": "address"
        },
        {
          "indexed": false,
          "internalType": "address",
          "name": "originalSender",
          "type": "address"
        },
        {
          "indexed": false,
          "internalType": "uint256",
          "name": "fromId",
          "type": "uint256"
        },
        {
          "indexed": false,
          "internalType": "bytes32",
          "name": "fromHash",
          "type": "bytes32"
        },
        {
          "indexed": false,
          "internalType": "uint256",
          "name": "amount",
          "type": "uint256"
        },
        {
          "indexed": false,
          "internalType": "bytes32",
          "name": "docHash",
          "type": "bytes32"
        }
      ],
      "name": "RBBTokenBurn",
      "type": "event"
    },
    {
      "anonymous": false,
      "inputs": [
        {
          "indexed": false,
          "internalType": "address",
          "name": "businessContractAddr",
          "type": "address"
        },
        {
          "indexed": false,
          "internalType": "bytes32",
          "name": "specificHash",
          "type": "bytes32"
        },
        {
          "indexed": false,
          "internalType": "uint256",
          "name": "amount",
          "type": "uint256"
        },
        {
          "indexed": false,
          "internalType": "bytes32",
          "name": "docHash",
          "type": "bytes32"
        },
        {
          "indexed": false,
          "internalType": "string[]",
          "name": "data",
          "type": "string[]"
        }
      ],
      "name": "RBBTokenMint",
      "type": "event"
    },
    {
      "anonymous": false,
      "inputs": [
        {
          "indexed": false,
          "internalType": "address",
          "name": "businessContractAddr",
          "type": "address"
        },
        {
          "indexed": false,
          "internalType": "bytes32",
          "name": "specificHash",
          "type": "bytes32"
        },
        {
          "indexed": false,
          "internalType": "uint256",
          "name": "idInvestor",
          "type": "uint256"
        },
        {
          "indexed": false,
          "internalType": "uint256",
          "name": "amount",
          "type": "uint256"
        },
        {
          "indexed": false,
          "internalType": "bytes32",
          "name": "docHash",
          "type": "bytes32"
        }
      ],
      "name": "RBBTokenMintRequested",
      "type": "event"
    },
    {
      "anonymous": false,
      "inputs": [
        {
          "indexed": false,
          "internalType": "address",
          "name": "businessContractAddr",
          "type": "address"
        },
        {
          "indexed": false,
          "internalType": "address",
          "name": "originalSender",
          "type": "address"
        },
        {
          "indexed": false,
          "internalType": "uint256",
          "name": "fromId",
          "type": "uint256"
        },
        {
          "indexed": false,
          "internalType": "bytes32",
          "name": "fromHash",
          "type": "bytes32"
        },
        {
          "indexed": false,
          "internalType": "uint256",
          "name": "amount",
          "type": "uint256"
        },
        {
          "indexed": false,
          "internalType": "bytes32",
          "name": "docHash",
          "type": "bytes32"
        },
        {
          "indexed": false,
          "internalType": "string[]",
          "name": "data",
          "type": "string[]"
        }
      ],
      "name": "RBBTokenRedemptionRequested",
      "type": "event"
    },
    {
      "anonymous": false,
      "inputs": [
        {
          "indexed": false,
          "internalType": "address",
          "name": "businessContractAddr",
          "type": "address"
        },
        {
          "indexed": false,
          "internalType": "bytes32",
          "name": "redemptionTransactionHash",
          "type": "bytes32"
        },
        {
          "indexed": false,
          "internalType": "bytes32",
          "name": "docHash",
          "type": "bytes32"
        },
        {
          "indexed": false,
          "internalType": "string[]",
          "name": "data",
          "type": "string[]"
        }
      ],
      "name": "RBBTokenRedemptionSettlement",
      "type": "event"
    },
    {
      "anonymous": false,
      "inputs": [
        {
          "indexed": false,
          "internalType": "address",
          "name": "businessContractAddr",
          "type": "address"
        },
        {
          "indexed": false,
          "internalType": "address",
          "name": "originalSender",
          "type": "address"
        },
        {
          "indexed": false,
          "internalType": "uint256",
          "name": "fromId",
          "type": "uint256"
        },
        {
          "indexed": false,
          "internalType": "bytes32",
          "name": "fromHash",
          "type": "bytes32"
        },
        {
          "indexed": false,
          "internalType": "uint256",
          "name": "toId",
          "type": "uint256"
        },
        {
          "indexed": false,
          "internalType": "bytes32",
          "name": "toHash",
          "type": "bytes32"
        },
        {
          "indexed": false,
          "internalType": "uint256",
          "name": "amount",
          "type": "uint256"
        },
        {
          "indexed": false,
          "internalType": "bytes32",
          "name": "docHash",
          "type": "bytes32"
        },
        {
          "indexed": false,
          "internalType": "string[]",
          "name": "data",
          "type": "string[]"
        }
      ],
      "name": "RBBTokenTransfer",
      "type": "event"
    },
    {
      "anonymous": false,
      "inputs": [
        {
          "indexed": false,
          "internalType": "address",
          "name": "account",
          "type": "address"
        }
      ],
      "name": "Unpaused",
      "type": "event"
    },
    {
      "inputs": [
        {
          "internalType": "address",
          "name": "account",
          "type": "address"
        }
      ],
      "name": "addPauser",
      "outputs": [],
      "stateMutability": "nonpayable",
      "type": "function"
    },
    {
      "inputs": [
        {
          "internalType": "uint256",
          "name": "",
          "type": "uint256"
        },
        {
          "internalType": "bytes32",
          "name": "",
          "type": "bytes32"
        }
      ],
      "name": "balaceRequestedTokens",
      "outputs": [
        {
          "internalType": "uint256",
          "name": "",
          "type": "uint256"
        }
      ],
      "stateMutability": "view",
      "type": "function"
    },
    {
      "inputs": [
        {
          "internalType": "address",
          "name": "",
          "type": "address"
        }
      ],
      "name": "businessContractsRegistry",
      "outputs": [
        {
          "internalType": "uint256",
          "name": "id",
          "type": "uint256"
        },
        {
          "internalType": "bool",
          "name": "isActive",
          "type": "bool"
        }
      ],
      "stateMutability": "view",
      "type": "function"
    },
    {
      "inputs": [],
      "name": "decimals",
      "outputs": [
        {
          "internalType": "uint8",
          "name": "",
          "type": "uint8"
        }
      ],
      "stateMutability": "view",
      "type": "function"
    },
    {
      "inputs": [
        {
          "internalType": "address",
          "name": "addr",
          "type": "address"
        }
      ],
      "name": "getBusinessContractId",
      "outputs": [
        {
          "internalType": "uint256",
          "name": "",
          "type": "uint256"
        }
      ],
      "stateMutability": "view",
      "type": "function"
    },
    {
      "inputs": [
        {
          "internalType": "address",
          "name": "addr",
          "type": "address"
        }
      ],
      "name": "getBusinessContractIdAndOwnerId",
      "outputs": [
        {
          "internalType": "uint256",
          "name": "",
          "type": "uint256"
        },
        {
          "internalType": "uint256",
          "name": "",
          "type": "uint256"
        }
      ],
      "stateMutability": "view",
      "type": "function"
    },
    {
      "inputs": [],
      "name": "idCount",
      "outputs": [
        {
          "internalType": "uint256",
          "name": "",
          "type": "uint256"
        }
      ],
      "stateMutability": "view",
      "type": "function"
    },
    {
      "inputs": [
        {
          "internalType": "address",
          "name": "addr",
          "type": "address"
        }
      ],
      "name": "isBusinessContractActive",
      "outputs": [
        {
          "internalType": "bool",
          "name": "",
          "type": "bool"
        }
      ],
      "stateMutability": "view",
      "type": "function"
    },
    {
      "inputs": [],
      "name": "isOwner",
      "outputs": [
        {
          "internalType": "bool",
          "name": "",
          "type": "bool"
        }
      ],
      "stateMutability": "view",
      "type": "function"
    },
    {
      "inputs": [
        {
          "internalType": "address",
          "name": "account",
          "type": "address"
        }
      ],
      "name": "isPauser",
      "outputs": [
        {
          "internalType": "bool",
          "name": "",
          "type": "bool"
        }
      ],
      "stateMutability": "view",
      "type": "function"
    },
    {
      "inputs": [],
      "name": "owner",
      "outputs": [
        {
          "internalType": "address",
          "name": "",
          "type": "address"
        }
      ],
      "stateMutability": "view",
      "type": "function"
    },
    {
      "inputs": [],
      "name": "pause",
      "outputs": [],
      "stateMutability": "nonpayable",
      "type": "function"
    },
    {
      "inputs": [],
      "name": "paused",
      "outputs": [
        {
          "internalType": "bool",
          "name": "",
          "type": "bool"
        }
      ],
      "stateMutability": "view",
      "type": "function"
    },
    {
      "inputs": [
        {
          "internalType": "uint256",
          "name": "",
          "type": "uint256"
        },
        {
          "internalType": "uint256",
          "name": "",
          "type": "uint256"
        },
        {
          "internalType": "bytes32",
          "name": "",
          "type": "bytes32"
        }
      ],
      "name": "rbbBalances",
      "outputs": [
        {
          "internalType": "uint256",
          "name": "",
          "type": "uint256"
        }
      ],
      "stateMutability": "view",
      "type": "function"
    },
    {
      "inputs": [
        {
          "internalType": "address",
          "name": "businessContractAddr",
          "type": "address"
        }
      ],
      "name": "registerBusinessContract",
      "outputs": [
        {
          "internalType": "uint256",
          "name": "",
          "type": "uint256"
        }
      ],
      "stateMutability": "nonpayable",
      "type": "function"
    },
    {
      "inputs": [],
      "name": "registry",
      "outputs": [
        {
          "internalType": "contract RBBRegistry",
          "name": "",
          "type": "address"
        }
      ],
      "stateMutability": "view",
      "type": "function"
    },
    {
      "inputs": [],
      "name": "renounceOwnership",
      "outputs": [],
      "stateMutability": "nonpayable",
      "type": "function"
    },
    {
      "inputs": [],
      "name": "renouncePauser",
      "outputs": [],
      "stateMutability": "nonpayable",
      "type": "function"
    },
    {
      "inputs": [],
      "name": "responsibleForInvestmentConfirmation",
      "outputs": [
        {
          "internalType": "address",
          "name": "",
          "type": "address"
        }
      ],
      "stateMutability": "view",
      "type": "function"
    },
    {
      "inputs": [],
      "name": "responsibleForSettlement",
      "outputs": [
        {
          "internalType": "address",
          "name": "",
          "type": "address"
        }
      ],
      "stateMutability": "view",
      "type": "function"
    },
    {
      "inputs": [
        {
          "internalType": "address",
          "name": "addr",
          "type": "address"
        },
        {
          "internalType": "bool",
          "name": "status",
          "type": "bool"
        }
      ],
      "name": "setStatus",
      "outputs": [
        {
          "internalType": "bool",
          "name": "",
          "type": "bool"
        }
      ],
      "stateMutability": "nonpayable",
      "type": "function"
    },
    {
      "inputs": [
        {
          "internalType": "address",
          "name": "newOwner",
          "type": "address"
        }
      ],
      "name": "transferOwnership",
      "outputs": [],
      "stateMutability": "nonpayable",
      "type": "function"
    },
    {
      "inputs": [],
      "name": "unpause",
      "outputs": [],
      "stateMutability": "nonpayable",
      "type": "function"
    },
    {
      "inputs": [
        {
          "internalType": "address",
          "name": "addr",
          "type": "address"
        }
      ],
      "name": "verifyContractIsRegisteredAndActive",
      "outputs": [],
      "stateMutability": "nonpayable",
      "type": "function"
    },
    {
      "inputs": [
        {
          "internalType": "bytes32",
          "name": "specificInvestimentHash",
          "type": "bytes32"
        },
        {
          "internalType": "uint256",
          "name": "idInvestor",
          "type": "uint256"
        },
        {
          "internalType": "uint256",
          "name": "amount",
          "type": "uint256"
        },
        {
          "internalType": "bytes32",
          "name": "docHash",
          "type": "bytes32"
        }
      ],
      "name": "requestMint",
      "outputs": [],
      "stateMutability": "nonpayable",
      "type": "function"
    },
    {
      "inputs": [
        {
          "internalType": "address",
          "name": "businessContractAddr",
          "type": "address"
        },
        {
          "internalType": "bytes32",
          "name": "specificHash",
          "type": "bytes32"
        },
        {
          "internalType": "uint256",
          "name": "amount",
          "type": "uint256"
        },
        {
          "internalType": "bytes32",
          "name": "docHash",
          "type": "bytes32"
        },
        {
          "internalType": "string[]",
          "name": "data",
          "type": "string[]"
        }
      ],
      "name": "mint",
      "outputs": [],
      "stateMutability": "nonpayable",
      "type": "function"
    },
    {
      "inputs": [
        {
          "internalType": "address",
          "name": "originalSender",
          "type": "address"
        },
        {
          "internalType": "bytes32",
          "name": "hashToBurn",
          "type": "bytes32"
        },
        {
          "internalType": "uint256",
          "name": "amount",
          "type": "uint256"
        },
        {
          "internalType": "bytes32",
          "name": "docHash",
          "type": "bytes32"
        }
      ],
      "name": "burnOwnTokenBySpecificContracts",
      "outputs": [],
      "stateMutability": "nonpayable",
      "type": "function"
    },
    {
      "inputs": [
        {
          "internalType": "address",
          "name": "businessContractAddr",
          "type": "address"
        },
        {
          "internalType": "bytes32",
          "name": "hashToBurn",
          "type": "bytes32"
        },
        {
          "internalType": "uint256",
          "name": "amount",
          "type": "uint256"
        },
        {
          "internalType": "bytes32",
          "name": "docHash",
          "type": "bytes32"
        }
      ],
      "name": "burnOwnToken",
      "outputs": [],
      "stateMutability": "nonpayable",
      "type": "function"
    },
    {
      "inputs": [
        {
          "internalType": "address",
          "name": "businessContractAddr",
          "type": "address"
        },
        {
          "internalType": "bytes32",
          "name": "fromHash",
          "type": "bytes32"
        },
        {
          "internalType": "uint256",
          "name": "toId",
          "type": "uint256"
        },
        {
          "internalType": "bytes32",
          "name": "toHash",
          "type": "bytes32"
        },
        {
          "internalType": "uint256",
          "name": "amount",
          "type": "uint256"
        },
        {
          "internalType": "bytes32",
          "name": "docHash",
          "type": "bytes32"
        },
        {
          "internalType": "string[]",
          "name": "data",
          "type": "string[]"
        }
      ],
      "name": "transfer",
      "outputs": [],
      "stateMutability": "nonpayable",
      "type": "function"
    },
    {
      "inputs": [
        {
          "internalType": "address",
          "name": "businessContractAddr",
          "type": "address"
        },
        {
          "internalType": "bytes32",
          "name": "fromHash",
          "type": "bytes32"
        },
        {
          "internalType": "uint256",
          "name": "amount",
          "type": "uint256"
        },
        {
          "internalType": "bytes32",
          "name": "docHash",
          "type": "bytes32"
        },
        {
          "internalType": "string[]",
          "name": "data",
          "type": "string[]"
        }
      ],
      "name": "redeem",
      "outputs": [],
      "stateMutability": "nonpayable",
      "type": "function"
    },
    {
      "inputs": [
        {
          "internalType": "address",
          "name": "businessContractAddr",
          "type": "address"
        },
        {
          "internalType": "bytes32",
          "name": "redemptionTransactionHash",
          "type": "bytes32"
        },
        {
          "internalType": "bytes32",
          "name": "docHash",
          "type": "bytes32"
        },
        {
          "internalType": "string[]",
          "name": "data",
          "type": "string[]"
        }
      ],
      "name": "notifyRedemptionSettlement",
      "outputs": [],
      "stateMutability": "nonpayable",
      "type": "function"
    },
    {
      "inputs": [],
      "name": "getDecimals",
      "outputs": [
        {
          "internalType": "uint8",
          "name": "",
          "type": "uint8"
        }
      ],
      "stateMutability": "view",
      "type": "function"
    },
    {
      "inputs": [],
      "name": "getBndesId",
      "outputs": [
        {
          "internalType": "uint256",
          "name": "",
          "type": "uint256"
        }
      ],
      "stateMutability": "view",
      "type": "function"
    },
    {
      "inputs": [
        {
          "internalType": "address",
          "name": "rs",
          "type": "address"
        }
      ],
      "name": "setResponsibleForInvestmentConfirmation",
      "outputs": [],
      "stateMutability": "nonpayable",
      "type": "function"
    },
    {
      "inputs": [
        {
          "internalType": "address",
          "name": "rs",
          "type": "address"
        }
      ],
      "name": "setResponsibleForSettlement",
      "outputs": [],
      "stateMutability": "nonpayable",
      "type": "function"
    }
  ],
  "bytecode": "0x608060405260016003556002600560006101000a81548160ff021916908360ff1602179055503480156200003257600080fd5b50604051620051103803806200511083398181016040528101906200005891906200043e565b620000786200006c6200022960201b60201c565b6200023160201b60201c565b6000600160006101000a81548160ff0219169083151502179055506000620000a56200022960201b60201c565b9050806001806101000a81548173ffffffffffffffffffffffffffffffffffffffff021916908373ffffffffffffffffffffffffffffffffffffffff1602179055508073ffffffffffffffffffffffffffffffffffffffff16600073ffffffffffffffffffffffffffffffffffffffff167f8be0079c531659141344cd1fd0a4f28419497f9722a3daafe3b4186f6b6457e060405160405180910390a35081600260006101000a81548173ffffffffffffffffffffffffffffffffffffffff021916908373ffffffffffffffffffffffffffffffffffffffff16021790555080600560006101000a81548160ff021916908360ff16021790555033600560016101000a81548173ffffffffffffffffffffffffffffffffffffffff021916908373ffffffffffffffffffffffffffffffffffffffff16021790555033600660006101000a81548173ffffffffffffffffffffffffffffffffffffffff021916908373ffffffffffffffffffffffffffffffffffffffff1602179055505050620005f3565b600033905090565b6200024c8160006200029260201b620029181790919060201c565b8073ffffffffffffffffffffffffffffffffffffffff167f6719d08c1888103bea251a4ed56406bd0c3e69723c8a1686e017e7bbe159b6f860405160405180910390a250565b620002a482826200034560201b60201c565b15620002e7576040517f08c379a0000000000000000000000000000000000000000000000000000000008152600401620002de9062000529565b60405180910390fd5b60018260000160008373ffffffffffffffffffffffffffffffffffffffff1673ffffffffffffffffffffffffffffffffffffffff16815260200190815260200160002060006101000a81548160ff0219169083151502179055505050565b60008073ffffffffffffffffffffffffffffffffffffffff168273ffffffffffffffffffffffffffffffffffffffff161415620003b9576040517f08c379a0000000000000000000000000000000000000000000000000000000008152600401620003b0906200054b565b60405180910390fd5b8260000160008373ffffffffffffffffffffffffffffffffffffffff1673ffffffffffffffffffffffffffffffffffffffff16815260200190815260200160002060009054906101000a900460ff16905092915050565b6000815190506200042181620005bf565b92915050565b6000815190506200043881620005d9565b92915050565b600080604083850312156200045257600080fd5b6000620004628582860162000410565b9250506020620004758582860162000427565b9150509250929050565b60006200048e601f836200056d565b91507f526f6c65733a206163636f756e7420616c72656164792068617320726f6c65006000830152602082019050919050565b6000620004d06022836200056d565b91507f526f6c65733a206163636f756e7420697320746865207a65726f20616464726560008301527f73730000000000000000000000000000000000000000000000000000000000006020830152604082019050919050565b6000602082019050818103600083015262000544816200047f565b9050919050565b600060208201905081810360008301526200056681620004c1565b9050919050565b600082825260208201905092915050565b60006200058b8262000592565b9050919050565b600073ffffffffffffffffffffffffffffffffffffffff82169050919050565b600060ff82169050919050565b620005ca816200057e565b8114620005d657600080fd5b50565b620005e481620005b2565b8114620005f057600080fd5b50565b614b0d80620006036000396000f3fe608060405234801561001057600080fd5b50600436106102115760003560e01c806382dc1ec411610125578063c5b2f6a9116100ad578063e0a08b731161007c578063e0a08b73146105c8578063e67b02a4146105f8578063e6e4623814610614578063f0141d8414610632578063f2fde38b1461065057610211565b8063c5b2f6a91461052f578063cf13a0b514610560578063d25748eb14610590578063d9a428fe146105ac57610211565b80638f32d59b116100f45780638f32d59b1461048b578063a1ccae97146104a9578063a6a9ba88146104c5578063b304f21c146104e3578063b7404ff51461051357610211565b806382dc1ec4146104165780638456cb59146104325780638b214c001461043c5780638da5cb5b1461046d57610211565b80634a47f599116101a85780635d09022c116101775780635d09022c146103ac57806369bd26b2146103c85780636ef8d66d146103e4578063715018a6146103ee5780637b103999146103f857610211565b80634a47f5991461032457806353d5f7cf146103425780635ac87709146103725780635c975abb1461038e57610211565b8063313ce567116101e4578063313ce5671461029c578063368ce3bd146102ba5780633f4ba83a146102ea57806346fbf68e146102f457610211565b806304cc4d8e146102165780630faf5eb214610232578063214538001461024e57806330b499831461026c575b600080fd5b610230600480360381019061022b91906133b6565b61066c565b005b61024c600480360381019061024791906132ae565b610779565b005b610256610c4f565b6040516102639190613f53565b60405180910390f35b6102866004803603810190610281919061347e565b610c75565b6040516102939190614709565b60405180910390f35b6102a4610ca7565b6040516102b191906147ad565b60405180910390f35b6102d460048036038101906102cf91906130b3565b610cba565b6040516102e19190614709565b60405180910390f35b6102f2610fec565b005b61030e600480360381019061030991906130b3565b6110e5565b60405161031b919061432c565b60405180910390f35b61032c611102565b6040516103399190614709565b60405180910390f35b61035c600480360381019061035791906130b3565b6111c0565b604051610369919061432c565b60405180910390f35b61038c6004803603810190610387919061321f565b611290565b005b6103966115c5565b6040516103a3919061432c565b60405180910390f35b6103c660048036038101906103c191906130b3565b6115dc565b005b6103e260048036038101906103dd91906131bc565b611844565b005b6103ec611879565b005b6103f661188b565b005b610400611990565b60405161040d91906143ec565b60405180910390f35b610430600480360381019061042b91906130b3565b6119b6565b005b61043a611a11565b005b610456600480360381019061045191906130b3565b611b0a565b60405161046492919061474d565b60405180910390f35b610475611d17565b6040516104829190613f53565b60405180910390f35b610493611d3f565b6040516104a0919061432c565b60405180910390f35b6104c360048036038101906104be91906131bc565b611d9c565b005b6104cd611e72565b6040516104da9190613f53565b60405180910390f35b6104fd60048036038101906104f89190613105565b611e98565b60405161050a919061432c565b60405180910390f35b61052d600480360381019061052891906130b3565b611fdd565b005b610549600480360381019061054491906130b3565b612245565b604051610557929190614724565b60405180910390f35b61057a60048036038101906105759190613442565b612276565b6040516105879190614709565b60405180910390f35b6105aa60048036038101906105a591906130b3565b61229b565b005b6105c660048036038101906105c19190613141565b61232e565b005b6105e260048036038101906105dd91906130b3565b6124cf565b6040516105ef9190614709565b60405180910390f35b610612600480360381019061060d919061321f565b61259f565b005b61061c6128a8565b6040516106299190614709565b60405180910390f35b61063a6128ae565b60405161064791906147ad565b60405180910390f35b61066a600480360381019061066591906130b3565b6128c5565b005b6106753361229b565b600082116106b8576040517f08c379a00000000000000000000000000000000000000000000000000000000081526004016106af90614509565b60405180910390fd5b60003390506106c68161229b565b60006106d1826124cf565b905061070a84600860008481526020019081526020016000206000898152602001908152602001600020546129c090919063ffffffff16565b600860008381526020019081526020016000206000888152602001908152602001600020819055507fb5d8f9b160e3756e6a72237700498d57cf4fc736169d86a72e2389a6d24a7df18287878787604051610769959493929190614287565b60405180910390a1505050505050565b600160009054906101000a900460ff16156107c9576040517f08c379a00000000000000000000000000000000000000000000000000000000081526004016107c090614569565b60405180910390fd5b6000600260009054906101000a900473ffffffffffffffffffffffffffffffffffffffff1673ffffffffffffffffffffffffffffffffffffffff166365f68c89336040518263ffffffff1660e01b81526004016108269190613f6e565b60206040518083038186803b15801561083e57600080fd5b505afa158015610852573d6000803e3d6000fd5b505050506040513d601f19601f820116820180604052508101906108769190613419565b90506108818861229b565b600260009054906101000a900473ffffffffffffffffffffffffffffffffffffffff1673ffffffffffffffffffffffffffffffffffffffff1663613a7896826040518263ffffffff1660e01b81526004016108dc9190614709565b60206040518083038186803b1580156108f457600080fd5b505afa158015610908573d6000803e3d6000fd5b505050506040513d601f19601f8201168201806040525081019061092c9190613364565b61096b576040517f08c379a0000000000000000000000000000000000000000000000000000000008152600401610962906146a9565b60405180910390fd5b600260009054906101000a900473ffffffffffffffffffffffffffffffffffffffff1673ffffffffffffffffffffffffffffffffffffffff1663613a7896876040518263ffffffff1660e01b81526004016109c69190614709565b60206040518083038186803b1580156109de57600080fd5b505afa1580156109f2573d6000803e3d6000fd5b505050506040513d601f19601f82011682018060405250810190610a169190613364565b610a55576040517f08c379a0000000000000000000000000000000000000000000000000000000008152600401610a4c906146e9565b60405180910390fd5b6000610a60896124cf565b905060008990508073ffffffffffffffffffffffffffffffffffffffff166341574b3b33858c8c8c8c8c8c6040518963ffffffff1660e01b8152600401610aae989796959493929190613ff1565b600060405180830381600087803b158015610ac857600080fd5b505af1158015610adc573d6000803e3d6000fd5b50505050610b4286604051806060016040528060388152602001614aa06038913960076000868152602001908152602001600020600087815260200190815260200160002060008d815260200190815260200160002054612a159092919063ffffffff16565b60076000848152602001908152602001600020600085815260200190815260200160002060008b815260200190815260200160002081905550610bc3866007600085815260200190815260200160002060008b815260200190815260200160002060008a8152602001908152602001600020546129c090919063ffffffff16565b6007600084815260200190815260200160002060008a81526020019081526020016000206000898152602001908152602001600020819055507fbdea818d4f1687df74b09fdbb5d86c436785fb62b1374ee6b3497ebe39e6f5258a33858c8c8c8c8c8c604051610c3b999897969594939291906140ec565b60405180910390a150505050505050505050565b600660009054906101000a900473ffffffffffffffffffffffffffffffffffffffff1681565b600760205282600052604060002060205281600052604060002060205280600052604060002060009250925050505481565b600560009054906101000a900460ff1681565b6000610cc4611d3f565b610d03576040517f08c379a0000000000000000000000000000000000000000000000000000000008152600401610cfa90614609565b60405180910390fd5b610d0c82612a70565b15610d4c576040517f08c379a0000000000000000000000000000000000000000000000000000000008152600401610d43906144c9565b60405180910390fd5b60008290508073ffffffffffffffffffffffffffffffffffffffff166355a2456e600260009054906101000a900473ffffffffffffffffffffffffffffffffffffffff166040518263ffffffff1660e01b8152600401610dac9190613f53565b600060405180830381600087803b158015610dc657600080fd5b505af1158015610dda573d6000803e3d6000fd5b5050505060008173ffffffffffffffffffffffffffffffffffffffff16638da5cb5b6040518163ffffffff1660e01b815260040160206040518083038186803b158015610e2657600080fd5b505afa158015610e3a573d6000803e3d6000fd5b505050506040513d601f19601f82011682018060405250810190610e5e91906130dc565b90506000600260009054906101000a900473ffffffffffffffffffffffffffffffffffffffff1673ffffffffffffffffffffffffffffffffffffffff166365f68c89836040518263ffffffff1660e01b8152600401610ebd9190613f53565b60206040518083038186803b158015610ed557600080fd5b505afa158015610ee9573d6000803e3d6000fd5b505050506040513d601f19601f82011682018060405250810190610f0d9190613419565b90506040518060400160405280600354815260200160011515815250600460008773ffffffffffffffffffffffffffffffffffffffff1673ffffffffffffffffffffffffffffffffffffffff1681526020019081526020016000206000820151816000015560208201518160010160006101000a81548160ff0219169083151502179055509050507f20837d6e0b7236235210e8dcb5168dc3712b7652ca9b5f328e9aaecdd6f386cd6003548287604051610fca93929190614776565b60405180910390a1600360008154809291906001019190505550505050919050565b610ffc610ff7612b0c565b6110e5565b61103b576040517f08c379a000000000000000000000000000000000000000000000000000000000815260040161103290614489565b60405180910390fd5b600160009054906101000a900460ff1661108a576040517f08c379a000000000000000000000000000000000000000000000000000000000815260040161108190614449565b60405180910390fd5b6000600160006101000a81548160ff0219169083151502179055507f5db9ee0a495bf2e6ff9c91a7834c1ba4fdd244a5e8aa4e537bd38aeae4b073aa6110ce612b0c565b6040516110db9190613f6e565b60405180910390a1565b60006110fb826000612b1490919063ffffffff16565b9050919050565b600080600260009054906101000a900473ffffffffffffffffffffffffffffffffffffffff1673ffffffffffffffffffffffffffffffffffffffff166365f68c8961114b611d17565b6040518263ffffffff1660e01b81526004016111679190613f53565b60206040518083038186803b15801561117f57600080fd5b505afa158015611193573d6000803e3d6000fd5b505050506040513d601f19601f820116820180604052508101906111b79190613419565b90508091505090565b60006111cb82612a70565b61120a576040517f08c379a000000000000000000000000000000000000000000000000000000000815260040161120190614549565b60405180910390fd5b611212612f27565b600460008473ffffffffffffffffffffffffffffffffffffffff1673ffffffffffffffffffffffffffffffffffffffff168152602001908152602001600020604051806040016040529081600082015481526020016001820160009054906101000a900460ff16151515158152505090508060200151915050919050565b6112998561229b565b3373ffffffffffffffffffffffffffffffffffffffff16600560019054906101000a900473ffffffffffffffffffffffffffffffffffffffff1673ffffffffffffffffffffffffffffffffffffffff1614611329576040517f08c379a000000000000000000000000000000000000000000000000000000000815260040161132090614529565b60405180910390fd5b6000831161136c576040517f08c379a000000000000000000000000000000000000000000000000000000000815260040161136390614669565b60405180910390fd5b60008061137887611b0a565b915091506113cd85604051806060016040528060298152602001614a3c602991396008600086815260200190815260200160002060008a815260200190815260200160002054612a159092919063ffffffff16565b60086000848152602001908152602001600020600088815260200190815260200160002081905550600087905060008173ffffffffffffffffffffffffffffffffffffffff1663cd541b7a896040518263ffffffff1660e01b81526004016114359190614347565b602060405180830381600087803b15801561144f57600080fd5b505af1158015611463573d6000803e3d6000fd5b505050506040513d601f19601f82011682018060405250810190611487919061338d565b90506114d1876007600087815260200190815260200160002060008681526020019081526020016000206000848152602001908152602001600020546129c090919063ffffffff16565b6007600086815260200190815260200160002060008581526020019081526020016000206000838152602001908152602001600020819055508173ffffffffffffffffffffffffffffffffffffffff1663f0ad17db898989896040518563ffffffff1660e01b815260040161154994939291906143a0565b600060405180830381600087803b15801561156357600080fd5b505af1158015611577573d6000803e3d6000fd5b505050507f3f0f1f541f704191af92125dcf03aa5ef8ed27b996d6b2ba3c3c91e1351c5c0e89898989896040516115b295949392919061422d565b60405180910390a1505050505050505050565b6000600160009054906101000a900460ff16905090565b6115e4611d3f565b611623576040517f08c379a000000000000000000000000000000000000000000000000000000000815260040161161a90614609565b60405180910390fd5b6000600260009054906101000a900473ffffffffffffffffffffffffffffffffffffffff1673ffffffffffffffffffffffffffffffffffffffff166365f68c89836040518263ffffffff1660e01b81526004016116809190613f53565b60206040518083038186803b15801561169857600080fd5b505afa1580156116ac573d6000803e3d6000fd5b505050506040513d601f19601f820116820180604052508101906116d09190613419565b9050600260009054906101000a900473ffffffffffffffffffffffffffffffffffffffff1673ffffffffffffffffffffffffffffffffffffffff166365f68c89611718611d17565b6040518263ffffffff1660e01b81526004016117349190613f53565b60206040518083038186803b15801561174c57600080fd5b505afa158015611760573d6000803e3d6000fd5b505050506040513d601f19601f820116820180604052508101906117849190613419565b81146117c5576040517f08c379a00000000000000000000000000000000000000000000000000000000081526004016117bc90614429565b60405180910390fd5b81600560016101000a81548173ffffffffffffffffffffffffffffffffffffffff021916908373ffffffffffffffffffffffffffffffffffffffff1602179055507faf10d91531a8d27fc602286518b7fd48b5ea40e30a02f824746cd67a2ab488c88260016040516118389291906142da565b60405180910390a15050565b61184d3361229b565b600033905060008061185e83611b0a565b91509150611870838883898989612bdc565b50505050505050565b611889611884612b0c565b612c9f565b565b611893611d3f565b6118d2576040517f08c379a00000000000000000000000000000000000000000000000000000000081526004016118c990614609565b60405180910390fd5b600073ffffffffffffffffffffffffffffffffffffffff1660018054906101000a900473ffffffffffffffffffffffffffffffffffffffff1673ffffffffffffffffffffffffffffffffffffffff167f8be0079c531659141344cd1fd0a4f28419497f9722a3daafe3b4186f6b6457e060405160405180910390a360006001806101000a81548173ffffffffffffffffffffffffffffffffffffffff021916908373ffffffffffffffffffffffffffffffffffffffff160217905550565b600260009054906101000a900473ffffffffffffffffffffffffffffffffffffffff1681565b6119c66119c1612b0c565b6110e5565b611a05576040517f08c379a00000000000000000000000000000000000000000000000000000000081526004016119fc90614489565b60405180910390fd5b611a0e81612cf9565b50565b611a21611a1c612b0c565b6110e5565b611a60576040517f08c379a0000000000000000000000000000000000000000000000000000000008152600401611a5790614489565b60405180910390fd5b600160009054906101000a900460ff1615611ab0576040517f08c379a0000000000000000000000000000000000000000000000000000000008152600401611aa790614569565b60405180910390fd5b60018060006101000a81548160ff0219169083151502179055507f62e78cea01bee320cd4e420270b5ea74000d11b0c9f74754ebdbfc544b05a258611af3612b0c565b604051611b009190613f6e565b60405180910390a1565b600080611b1683612a70565b611b55576040517f08c379a0000000000000000000000000000000000000000000000000000000008152600401611b4c90614549565b60405180910390fd5b611b5d612f27565b600460008573ffffffffffffffffffffffffffffffffffffffff1673ffffffffffffffffffffffffffffffffffffffff168152602001908152602001600020604051806040016040529081600082015481526020016001820160009054906101000a900460ff1615151515815250509050600084905060008173ffffffffffffffffffffffffffffffffffffffff16638da5cb5b6040518163ffffffff1660e01b815260040160206040518083038186803b158015611c1b57600080fd5b505afa158015611c2f573d6000803e3d6000fd5b505050506040513d601f19601f82011682018060405250810190611c5391906130dc565b90506000600260009054906101000a900473ffffffffffffffffffffffffffffffffffffffff1673ffffffffffffffffffffffffffffffffffffffff166365f68c89836040518263ffffffff1660e01b8152600401611cb29190613f53565b60206040518083038186803b158015611cca57600080fd5b505afa158015611cde573d6000803e3d6000fd5b505050506040513d601f19601f82011682018060405250810190611d029190613419565b90508360000151819550955050505050915091565b600060018054906101000a900473ffffffffffffffffffffffffffffffffffffffff16905090565b600060018054906101000a900473ffffffffffffffffffffffffffffffffffffffff1673ffffffffffffffffffffffffffffffffffffffff16611d80612b0c565b73ffffffffffffffffffffffffffffffffffffffff1614905090565b611da53361229b565b611dae8461229b565b6000600260009054906101000a900473ffffffffffffffffffffffffffffffffffffffff1673ffffffffffffffffffffffffffffffffffffffff166365f68c89336040518263ffffffff1660e01b8152600401611e0b9190613f6e565b60206040518083038186803b158015611e2357600080fd5b505afa158015611e37573d6000803e3d6000fd5b505050506040513d601f19601f82011682018060405250810190611e5b9190613419565b9050611e6b853383878787612bdc565b5050505050565b600560019054906101000a900473ffffffffffffffffffffffffffffffffffffffff1681565b6000611ea2611d3f565b611ee1576040517f08c379a0000000000000000000000000000000000000000000000000000000008152600401611ed890614609565b60405180910390fd5b611eea83612a70565b611f29576040517f08c379a0000000000000000000000000000000000000000000000000000000008152600401611f2090614549565b60405180910390fd5b6000600460008573ffffffffffffffffffffffffffffffffffffffff1673ffffffffffffffffffffffffffffffffffffffff1681526020019081526020016000209050828160010160006101000a81548160ff0219169083151502179055507f28a61818d188a7856821431ff0deb7650c2cc34ee4b7b97616a415fa0a3dfeff81600001548260010160009054906101000a900460ff16604051611fce929190614724565b60405180910390a15092915050565b611fe5611d3f565b612024576040517f08c379a000000000000000000000000000000000000000000000000000000000815260040161201b90614609565b60405180910390fd5b6000600260009054906101000a900473ffffffffffffffffffffffffffffffffffffffff1673ffffffffffffffffffffffffffffffffffffffff166365f68c89836040518263ffffffff1660e01b81526004016120819190613f53565b60206040518083038186803b15801561209957600080fd5b505afa1580156120ad573d6000803e3d6000fd5b505050506040513d601f19601f820116820180604052508101906120d19190613419565b9050600260009054906101000a900473ffffffffffffffffffffffffffffffffffffffff1673ffffffffffffffffffffffffffffffffffffffff166365f68c89612119611d17565b6040518263ffffffff1660e01b81526004016121359190613f53565b60206040518083038186803b15801561214d57600080fd5b505afa158015612161573d6000803e3d6000fd5b505050506040513d601f19601f820116820180604052508101906121859190613419565b81146121c6576040517f08c379a00000000000000000000000000000000000000000000000000000000081526004016121bd90614589565b60405180910390fd5b81600660006101000a81548173ffffffffffffffffffffffffffffffffffffffff021916908373ffffffffffffffffffffffffffffffffffffffff1602179055507faf10d91531a8d27fc602286518b7fd48b5ea40e30a02f824746cd67a2ab488c8826002604051612239929190614303565b60405180910390a15050565b60046020528060005260406000206000915090508060000154908060010160009054906101000a900460ff16905082565b6008602052816000526040600020602052806000526040600020600091509150505481565b6122a481612a70565b6122e3576040517f08c379a00000000000000000000000000000000000000000000000000000000081526004016122da90614629565b60405180910390fd5b6122ec816111c0565b61232b576040517f08c379a000000000000000000000000000000000000000000000000000000000815260040161232290614689565b60405180910390fd5b50565b600160009054906101000a900460ff161561237e576040517f08c379a000000000000000000000000000000000000000000000000000000000815260040161237590614569565b60405180910390fd5b6123878461229b565b3373ffffffffffffffffffffffffffffffffffffffff16600660009054906101000a900473ffffffffffffffffffffffffffffffffffffffff1673ffffffffffffffffffffffffffffffffffffffff1614612417576040517f08c379a000000000000000000000000000000000000000000000000000000000815260040161240e906145e9565b60405180910390fd5b60008490508073ffffffffffffffffffffffffffffffffffffffff1663a6ee26e18585856040518463ffffffff1660e01b815260040161245993929190614362565b600060405180830381600087803b15801561247357600080fd5b505af1158015612487573d6000803e3d6000fd5b505050507f6b9ae09d6ab882c931047d5687aa3a062d69d6b6caf4b04af6cb9df81245ab51858585856040516124c094939291906141e1565b60405180910390a15050505050565b60006124da82612a70565b612519576040517f08c379a000000000000000000000000000000000000000000000000000000000815260040161251090614549565b60405180910390fd5b612521612f27565b600460008473ffffffffffffffffffffffffffffffffffffffff1673ffffffffffffffffffffffffffffffffffffffff168152602001908152602001600020604051806040016040529081600082015481526020016001820160009054906101000a900460ff16151515158152505090508060000151915050919050565b600160009054906101000a900460ff16156125ef576040517f08c379a00000000000000000000000000000000000000000000000000000000081526004016125e690614569565b60405180910390fd5b6000600260009054906101000a900473ffffffffffffffffffffffffffffffffffffffff1673ffffffffffffffffffffffffffffffffffffffff166365f68c89336040518263ffffffff1660e01b815260040161264c9190613f6e565b60206040518083038186803b15801561266457600080fd5b505afa158015612678573d6000803e3d6000fd5b505050506040513d601f19601f8201168201806040525081019061269c9190613419565b90506126a78661229b565b600260009054906101000a900473ffffffffffffffffffffffffffffffffffffffff1673ffffffffffffffffffffffffffffffffffffffff1663613a7896826040518263ffffffff1660e01b81526004016127029190614709565b60206040518083038186803b15801561271a57600080fd5b505afa15801561272e573d6000803e3d6000fd5b505050506040513d601f19601f820116820180604052508101906127529190613364565b612791576040517f08c379a0000000000000000000000000000000000000000000000000000000008152600401612788906146c9565b60405180910390fd5b600084116127d4576040517f08c379a00000000000000000000000000000000000000000000000000000000081526004016127cb906145a9565b60405180910390fd5b60008690508073ffffffffffffffffffffffffffffffffffffffff1663ba6ad8533384898989896040518763ffffffff1660e01b815260040161281c96959493929190613f89565b600060405180830381600087803b15801561283657600080fd5b505af115801561284a573d6000803e3d6000fd5b505050507f3115381baa8fda8997478031f1bd9f852965a6be640620b542c229a91e0302ab873384898989896040516128899796959493929190614076565b60405180910390a161289f873384898989612bdc565b50505050505050565b60035481565b6000600560009054906101000a900460ff16905090565b6128cd611d3f565b61290c576040517f08c379a000000000000000000000000000000000000000000000000000000000815260040161290390614609565b60405180910390fd5b61291581612d53565b50565b6129228282612b14565b15612962576040517f08c379a000000000000000000000000000000000000000000000000000000000815260040161295990614469565b60405180910390fd5b60018260000160008373ffffffffffffffffffffffffffffffffffffffff1673ffffffffffffffffffffffffffffffffffffffff16815260200190815260200160002060006101000a81548160ff0219169083151502179055505050565b600080828401905083811015612a0b576040517f08c379a0000000000000000000000000000000000000000000000000000000008152600401612a02906144e9565b60405180910390fd5b8091505092915050565b6000838311158290612a5d576040517f08c379a0000000000000000000000000000000000000000000000000000000008152600401612a549190614407565b60405180910390fd5b5060008385039050809150509392505050565b6000612a7a612f27565b600460008473ffffffffffffffffffffffffffffffffffffffff1673ffffffffffffffffffffffffffffffffffffffff168152602001908152602001600020604051806040016040529081600082015481526020016001820160009054906101000a900460ff16151515158152505090506000816000015114612b01576001915050612b07565b60009150505b919050565b600033905090565b60008073ffffffffffffffffffffffffffffffffffffffff168273ffffffffffffffffffffffffffffffffffffffff161415612b85576040517f08c379a0000000000000000000000000000000000000000000000000000000008152600401612b7c90614649565b60405180910390fd5b8260000160008373ffffffffffffffffffffffffffffffffffffffff1673ffffffffffffffffffffffffffffffffffffffff16815260200190815260200160002060009054906101000a900460ff16905092915050565b612be58661229b565b6000612bf0876124cf565b9050612c54836040518060600160405280603b8152602001614a65603b9139600760008581526020019081526020016000206000898152602001908152602001600020600088815260200190815260200160002054612a159092919063ffffffff16565b507f92f02b400db4c2c442eac2df8de068b8e835d18b96ba11a431c69c468cd441c3878787878787604051612c8e96959493929190614180565b60405180910390a150505050505050565b612cb3816000612e8090919063ffffffff16565b8073ffffffffffffffffffffffffffffffffffffffff167fcd265ebaf09df2871cc7bd4133404a235ba12eff2041bb89d9c714a2621c7c7e60405160405180910390a250565b612d0d81600061291890919063ffffffff16565b8073ffffffffffffffffffffffffffffffffffffffff167f6719d08c1888103bea251a4ed56406bd0c3e69723c8a1686e017e7bbe159b6f860405160405180910390a250565b600073ffffffffffffffffffffffffffffffffffffffff168173ffffffffffffffffffffffffffffffffffffffff161415612dc3576040517f08c379a0000000000000000000000000000000000000000000000000000000008152600401612dba906144a9565b60405180910390fd5b8073ffffffffffffffffffffffffffffffffffffffff1660018054906101000a900473ffffffffffffffffffffffffffffffffffffffff1673ffffffffffffffffffffffffffffffffffffffff167f8be0079c531659141344cd1fd0a4f28419497f9722a3daafe3b4186f6b6457e060405160405180910390a3806001806101000a81548173ffffffffffffffffffffffffffffffffffffffff021916908373ffffffffffffffffffffffffffffffffffffffff16021790555050565b612e8a8282612b14565b612ec9576040517f08c379a0000000000000000000000000000000000000000000000000000000008152600401612ec0906145c9565b60405180910390fd5b60008260000160008373ffffffffffffffffffffffffffffffffffffffff1673ffffffffffffffffffffffffffffffffffffffff16815260200190815260200160002060006101000a81548160ff0219169083151502179055505050565b6040518060400160405280600081526020016000151581525090565b600081359050612f52816149df565b92915050565b600081519050612f67816149df565b92915050565b600082601f830112612f7e57600080fd5b8135612f91612f8c826147f5565b6147c8565b9150818183526020840193506020810190508360005b83811015612fd75781358601612fbd8882613035565b845260208401935060208301925050600181019050612fa7565b5050505092915050565b600081359050612ff0816149f6565b92915050565b600081519050613005816149f6565b92915050565b60008135905061301a81614a0d565b92915050565b60008151905061302f81614a0d565b92915050565b600082601f83011261304657600080fd5b81356130596130548261481d565b6147c8565b9150808252602083016020830185838301111561307557600080fd5b61308083828461498c565b50505092915050565b60008135905061309881614a24565b92915050565b6000815190506130ad81614a24565b92915050565b6000602082840312156130c557600080fd5b60006130d384828501612f43565b91505092915050565b6000602082840312156130ee57600080fd5b60006130fc84828501612f58565b91505092915050565b6000806040838503121561311857600080fd5b600061312685828601612f43565b925050602061313785828601612fe1565b9150509250929050565b6000806000806080858703121561315757600080fd5b600061316587828801612f43565b94505060206131768782880161300b565b93505060406131878782880161300b565b925050606085013567ffffffffffffffff8111156131a457600080fd5b6131b087828801612f6d565b91505092959194509250565b600080600080608085870312156131d257600080fd5b60006131e087828801612f43565b94505060206131f18782880161300b565b935050604061320287828801613089565b92505060606132138782880161300b565b91505092959194509250565b600080600080600060a0868803121561323757600080fd5b600061324588828901612f43565b95505060206132568882890161300b565b945050604061326788828901613089565b93505060606132788882890161300b565b925050608086013567ffffffffffffffff81111561329557600080fd5b6132a188828901612f6d565b9150509295509295909350565b600080600080600080600060e0888a0312156132c957600080fd5b60006132d78a828b01612f43565b97505060206132e88a828b0161300b565b96505060406132f98a828b01613089565b955050606061330a8a828b0161300b565b945050608061331b8a828b01613089565b93505060a061332c8a828b0161300b565b92505060c088013567ffffffffffffffff81111561334957600080fd5b6133558a828b01612f6d565b91505092959891949750929550565b60006020828403121561337657600080fd5b600061338484828501612ff6565b91505092915050565b60006020828403121561339f57600080fd5b60006133ad84828501613020565b91505092915050565b600080600080608085870312156133cc57600080fd5b60006133da8782880161300b565b94505060206133eb87828801613089565b93505060406133fc87828801613089565b925050606061340d8782880161300b565b91505092959194509250565b60006020828403121561342b57600080fd5b60006134398482850161309e565b91505092915050565b6000806040838503121561345557600080fd5b600061346385828601613089565b92505060206134748582860161300b565b9150509250929050565b60008060006060848603121561349357600080fd5b60006134a186828701613089565b93505060206134b286828701613089565b92505060406134c38682870161300b565b9150509250925092565b60006134d983836135bf565b905092915050565b6134ea8161490e565b82525050565b6134f9816148af565b82525050565b600061350a82614859565b613514818561487c565b93508360208202850161352685614849565b8060005b85811015613562578484038952815161354385826134cd565b945061354e8361486f565b925060208a0199505060018101905061352a565b50829750879550505050505092915050565b61357d816148c1565b82525050565b61358c816148cd565b82525050565b61359b81614920565b82525050565b6135aa81614944565b82525050565b6135b981614956565b82525050565b60006135ca82614864565b6135d4818561488d565b93506135e481856020860161499b565b6135ed816149ce565b840191505092915050565b600061360382614864565b61360d818561489e565b935061361d81856020860161499b565b613626816149ce565b840191505092915050565b600061363e60568361489e565b91507f4f20726573706f6e73c3a176656c2070656c6120636f6e6669726d61c3a7c3a360008301527f6f20646f20696e76657374696d656e746f20646576652073657220646f206d6560208301527f736d6f205242425f494420646f20636f6e747261746f000000000000000000006040830152606082019050919050565b60006136ca60148361489e565b91507f5061757361626c653a206e6f74207061757365640000000000000000000000006000830152602082019050919050565b600061370a601f8361489e565b91507f526f6c65733a206163636f756e7420616c72656164792068617320726f6c65006000830152602082019050919050565b600061374a60308361489e565b91507f506175736572526f6c653a2063616c6c657220646f6573206e6f74206861766560008301527f207468652050617573657220726f6c65000000000000000000000000000000006020830152604082019050919050565b60006137b060268361489e565b91507f4f776e61626c653a206e6577206f776e657220697320746865207a65726f206160008301527f64647265737300000000000000000000000000000000000000000000000000006020830152604082019050919050565b600061381660178361489e565b91507f436f6e747261746f206ac3a1207265676973747261646f0000000000000000006000830152602082019050919050565b6000613856601b8361489e565b91507f536166654d6174683a206164646974696f6e206f766572666c6f7700000000006000830152602082019050919050565b600061389660358361489e565b91507f56616c6f72206120736572207472616e736163696f6e61646f2064657665207360008301527f6572206d61696f7220646f20717565207a65726f2e00000000000000000000006020830152604082019050919050565b60006138fc60548361489e565b91507f536f6d656e746520756d20726573706f6e73c3a176656c2070656c6120636f6e60008301527f6669726d61c3a7c3a36f20646520696e76657374696d656e746f20706f64652060208301527f656e766961722061207472616e7361c3a7c3a36f0000000000000000000000006040830152606082019050919050565b600061398860228361489e565b91507f436f6e747261746f206465206e65676f63696f206e616f20726567697374726160008301527f646f0000000000000000000000000000000000000000000000000000000000006020830152604082019050919050565b60006139ee60108361489e565b91507f5061757361626c653a20706175736564000000000000000000000000000000006000830152602082019050919050565b6000613a2e60458361489e565b91507f4f20726573706f6e73c3a176656c2070656c61206c697175696461c3a7c3a36f60008301527f206465766520736572206461206d65736d6f205242425f494420646f20636f6e60208301527f747261746f0000000000000000000000000000000000000000000000000000006040830152606082019050919050565b6000613aba602b8361489e565b91507f56616c6f722061207265736761746172206465766520736572206d61696f722060008301527f646f20717565207a65726f0000000000000000000000000000000000000000006020830152604082019050919050565b6000613b2060218361489e565b91507f526f6c65733a206163636f756e7420646f6573206e6f74206861766520726f6c60008301527f65000000000000000000000000000000000000000000000000000000000000006020830152604082019050919050565b6000613b8660438361489e565b91507f536f6d656e746520756d20726573706f6e73c3a176656c2070656c61206c697160008301527f75696469c3a7c3a36f20706f646520656e766961722061207472616e7361c3a760208301527fc3a36f00000000000000000000000000000000000000000000000000000000006040830152606082019050919050565b6000613c1260208361489e565b91507f4f776e61626c653a2063616c6c6572206973206e6f7420746865206f776e65726000830152602082019050919050565b6000613c52604c8361489e565b91507f4dc3a9746f646f2073c3b320706f646520736572206368616d61646f20706f7260008301527f20636f6e747261746f206465206e6567c3b363696f207072657669616d656e7460208301527f65206361646173747261646f00000000000000000000000000000000000000006040830152606082019050919050565b6000613cde60228361489e565b91507f526f6c65733a206163636f756e7420697320746865207a65726f20616464726560008301527f73730000000000000000000000000000000000000000000000000000000000006020830152604082019050919050565b6000613d4460298361489e565b91507f56616c6f722061206d696e746172206465766520736572206d61696f7220646f60008301527f20717565207a65726f00000000000000000000000000000000000000000000006020830152604082019050919050565b6000613daa603b8361489e565b91507f4dc3a9746f646f2073c3b320706f646520736572206368616d61646f20706f7260008301527f20636f6e747261746f206465206e6567c3b363696f20617469766f00000000006020830152604082019050919050565b6000613e1060338361489e565b91507f436f6e7461206465206f726967656d207072656369736120657374617220636f60008301527f6d20636164617374726f2076616c696461646f000000000000000000000000006020830152604082019050919050565b6000613e76603f8361489e565b91507f436f6e746120736f6c69636974616e746520646f2072656465656d207072656360008301527f69736120657374617220636f6d20636164617374726f2076616c696461646f006020830152604082019050919050565b6000613edc60348361489e565b91507f436f6e74612064652064657374696e6f2070726563697361206573746172206360008301527f6f6d20636164617374726f2076616c696461646f0000000000000000000000006020830152604082019050919050565b613f3e816148f7565b82525050565b613f4d81614901565b82525050565b6000602082019050613f6860008301846134f0565b92915050565b6000602082019050613f8360008301846134e1565b92915050565b600060c082019050613f9e60008301896134e1565b613fab6020830188613f35565b613fb86040830187613583565b613fc56060830186613f35565b613fd26080830185613583565b81810360a0830152613fe481846134ff565b9050979650505050505050565b600061010082019050614007600083018b6134e1565b614014602083018a613f35565b6140216040830189613583565b61402e6060830188613f35565b61403b6080830187613583565b61404860a0830186613f35565b61405560c0830185613583565b81810360e083015261406781846134ff565b90509998505050505050505050565b600060e08201905061408b600083018a6134f0565b61409860208301896134e1565b6140a56040830188613f35565b6140b26060830187613583565b6140bf6080830186613f35565b6140cc60a0830185613583565b81810360c08301526140de81846134ff565b905098975050505050505050565b600061012082019050614102600083018c6134f0565b61410f602083018b6134e1565b61411c604083018a613f35565b6141296060830189613583565b6141366080830188613f35565b61414360a0830187613583565b61415060c0830186613f35565b61415d60e0830185613583565b81810361010083015261417081846134ff565b90509a9950505050505050505050565b600060c08201905061419560008301896134f0565b6141a260208301886134f0565b6141af6040830187613f35565b6141bc6060830186613583565b6141c96080830185613f35565b6141d660a0830184613583565b979650505050505050565b60006080820190506141f660008301876134f0565b6142036020830186613583565b6142106040830185613583565b818103606083015261422281846134ff565b905095945050505050565b600060a08201905061424260008301886134f0565b61424f6020830187613583565b61425c6040830186613f35565b6142696060830185613583565b818103608083015261427b81846134ff565b90509695505050505050565b600060a08201905061429c60008301886134f0565b6142a96020830187613583565b6142b66040830186613f35565b6142c36060830185613f35565b6142d06080830184613583565b9695505050505050565b60006040820190506142ef60008301856134f0565b6142fc60208301846135a1565b9392505050565b600060408201905061431860008301856134f0565b61432560208301846135b0565b9392505050565b60006020820190506143416000830184613574565b92915050565b600060208201905061435c6000830184613583565b92915050565b60006060820190506143776000830186613583565b6143846020830185613583565b818103604083015261439681846134ff565b9050949350505050565b60006080820190506143b56000830187613583565b6143c26020830186613f35565b6143cf6040830185613583565b81810360608301526143e181846134ff565b905095945050505050565b60006020820190506144016000830184613592565b92915050565b6000602082019050818103600083015261442181846135f8565b905092915050565b6000602082019050818103600083015261444281613631565b9050919050565b60006020820190508181036000830152614462816136bd565b9050919050565b60006020820190508181036000830152614482816136fd565b9050919050565b600060208201905081810360008301526144a28161373d565b9050919050565b600060208201905081810360008301526144c2816137a3565b9050919050565b600060208201905081810360008301526144e281613809565b9050919050565b6000602082019050818103600083015261450281613849565b9050919050565b6000602082019050818103600083015261452281613889565b9050919050565b60006020820190508181036000830152614542816138ef565b9050919050565b600060208201905081810360008301526145628161397b565b9050919050565b60006020820190508181036000830152614582816139e1565b9050919050565b600060208201905081810360008301526145a281613a21565b9050919050565b600060208201905081810360008301526145c281613aad565b9050919050565b600060208201905081810360008301526145e281613b13565b9050919050565b6000602082019050818103600083015261460281613b79565b9050919050565b6000602082019050818103600083015261462281613c05565b9050919050565b6000602082019050818103600083015261464281613c45565b9050919050565b6000602082019050818103600083015261466281613cd1565b9050919050565b6000602082019050818103600083015261468281613d37565b9050919050565b600060208201905081810360008301526146a281613d9d565b9050919050565b600060208201905081810360008301526146c281613e03565b9050919050565b600060208201905081810360008301526146e281613e69565b9050919050565b6000602082019050818103600083015261470281613ecf565b9050919050565b600060208201905061471e6000830184613f35565b92915050565b60006040820190506147396000830185613f35565b6147466020830184613574565b9392505050565b60006040820190506147626000830185613f35565b61476f6020830184613f35565b9392505050565b600060608201905061478b6000830186613f35565b6147986020830185613f35565b6147a560408301846134f0565b949350505050565b60006020820190506147c26000830184613f44565b92915050565b6000604051905081810181811067ffffffffffffffff821117156147eb57600080fd5b8060405250919050565b600067ffffffffffffffff82111561480c57600080fd5b602082029050602081019050919050565b600067ffffffffffffffff82111561483457600080fd5b601f19601f8301169050602081019050919050565b6000819050602082019050919050565b600081519050919050565b600081519050919050565b6000602082019050919050565b600082825260208201905092915050565b600082825260208201905092915050565b600082825260208201905092915050565b60006148ba826148d7565b9050919050565b60008115159050919050565b6000819050919050565b600073ffffffffffffffffffffffffffffffffffffffff82169050919050565b6000819050919050565b600060ff82169050919050565b600061491982614968565b9050919050565b600061492b82614932565b9050919050565b600061493d826148d7565b9050919050565b600061494f82614901565b9050919050565b600061496182614901565b9050919050565b60006149738261497a565b9050919050565b6000614985826148d7565b9050919050565b82818337600083830152505050565b60005b838110156149b957808201518184015260208101905061499e565b838111156149c8576000848401525b50505050565b6000601f19601f8301169050919050565b6149e8816148af565b81146149f357600080fd5b50565b6149ff816148c1565b8114614a0a57600080fd5b50565b614a16816148cd565b8114614a2157600080fd5b50565b614a2d816148f7565b8114614a3857600080fd5b5056fe546f74616c20646520656d697373c3a36f206578636564652076616c6f7220736f6c6963697461646f546f74616c20646520746f6b656e73206120736572656d20717565696d61646f7320c3a9206d61696f7220646f20717565206f2062616c616e636553616c646f206461206f726967656d206ec3a36f20c3a920737566696369656e746520706172612061207472616e73666572c3aa6e636961a264697066735822122021bb96811f5011994d99bff9c80a998f44d51b4b9a8b34847f159cb7272df38264736f6c634300060c0033",
  "immutableReferences": {},
  "source": "pragma solidity ^0.6.0;\npragma experimental ABIEncoderV2;\n\nimport \"./RBBLib.sol\";\nimport \"./RBBRegistry.sol\";\nimport \"./SpecificRBBToken.sol\";\nimport \"@openzeppelin/contracts/ownership/Ownable.sol\";\nimport \"@openzeppelin/contracts/lifecycle/Pausable.sol\";\nimport \"@openzeppelin/contracts/math/SafeMath.sol\";\n\n//TODO: framework de mudanca e como incluir um business contract com um id especfico\n//TODO: avaliar se precisa ter totalSupply de cada contrato ou outras info derivadas para aumentar programabilidade\ncontract BusinessContractRegistry is Ownable {\n\n\n    RBBRegistry public registry;\n\n    //It starts with 1, because 0 is the id value returned when the item is not found in the businessContractsRegistry\n    uint public idCount = 1;\n\n    struct BusinessContractInfo {\n        uint id;\n        bool isActive;\n    }\n\n    event BusinessContractRegistration (uint id, uint ownerId, address addr);\n    event BusinessContractStateChange (uint id, bool state);\n\n    //indexado pelo address pq serah a forma mais usada para consulta.\n    mapping (address => BusinessContractInfo) public businessContractsRegistry;\n\n    modifier onlyByRegisteredAndActiveContracts {\n        verifyContractIsRegisteredAndActive(msg.sender);\n        _;\n    }\n\n    function verifyContractIsRegisteredAndActive(address addr) public {\n        require(containsBusinessContract(addr), \"Mtodo s pode ser chamado por contrato de negcio previamente cadastrado\");\n        require(isBusinessContractActive(addr), \"Mtodo s pode ser chamado por contrato de negcio ativo\");\n    }\n\n    function registerBusinessContract (address businessContractAddr) public onlyOwner returns (uint)  {\n        require (!containsBusinessContract(businessContractAddr), \"Contrato j registrado\");\n\n        SpecificRBBToken specificContract = SpecificRBBToken(businessContractAddr);\n        specificContract.setInitializationDataDuringRegistration(address(registry));\n        address scOwnerAddr = specificContract.owner();\n        uint scOwnerId = registry.getId(scOwnerAddr);\n\n\n        businessContractsRegistry[businessContractAddr] = BusinessContractInfo(idCount, true);\n        emit BusinessContractRegistration (idCount, scOwnerId, businessContractAddr);\n        idCount++;\n    }\n\n    function getBusinessContractId (address addr) public view returns (uint) {\n        require (containsBusinessContract(addr), \"Contrato de negocio nao registrado\");\n        BusinessContractInfo memory info = businessContractsRegistry[addr];\n        return info.id;\n    }\n\n    function getBusinessContractIdAndOwnerId (address addr) public view returns (uint, uint) {\n        require (containsBusinessContract(addr), \"Contrato de negocio nao registrado\");\n        BusinessContractInfo memory info = businessContractsRegistry[addr];\n        SpecificRBBToken specificContract = SpecificRBBToken(addr);\n        address scOwnerAddr = specificContract.owner();\n        uint scOwnerId = registry.getId(scOwnerAddr);\n\n        return (info.id, scOwnerId);\n    }\n    \n    function containsBusinessContract(address addr) private view returns (bool) {\n        BusinessContractInfo memory info = businessContractsRegistry[addr];\n        if (info.id!=0) return true;\n        else return false;\n    }\n\n    function isBusinessContractActive(address addr) public view returns (bool) {\n        require (containsBusinessContract(addr), \"Contrato de negocio nao registrado\");\n        BusinessContractInfo memory info = businessContractsRegistry[addr];\n        return info.isActive;\n    }\n\n    function setStatus(address addr, bool status) public onlyOwner returns (bool) {\n        require (containsBusinessContract(addr), \"Contrato de negocio nao registrado\");\n        BusinessContractInfo storage info = businessContractsRegistry[addr];\n        info.isActive = status;\n        emit BusinessContractStateChange(info.id, info.isActive);\n    }\n}\n\ncontract RBBToken is Pausable, BusinessContractRegistry {\n\n    using SafeMath for uint;\n\n    uint8 public decimals = 2;\n\n    address public responsibleForInvestmentConfirmation;\n    address public responsibleForSettlement;\n\n\n    //businessContractId => (RBBid => (specificHash => amount)\n    mapping (uint => mapping (uint => mapping (bytes32 => uint))) public rbbBalances;\n\n    //businessContractId => (specificHash => amount)\n    mapping (uint => mapping (bytes32 => uint)) public balaceRequestedTokens;\n\n    event RBBTokenMintRequested(address businessContractAddr, bytes32 specificHash, uint idInvestor, \n            uint amount, bytes32 docHash);\n    event RBBTokenMint(address businessContractAddr, bytes32 specificHash, uint amount, bytes32 docHash, string[] data);\n    event RBBTokenBurn(address businessContractAddr, address originalSender, uint fromId, bytes32 fromHash, \n            uint amount, bytes32 docHash);\n    event RBBTokenTransfer (address businessContractAddr, address originalSender, uint fromId, bytes32 fromHash, uint toId,\n            bytes32 toHash, uint amount, bytes32 docHash, string[] data);\n    event RBBTokenRedemptionRequested (address businessContractAddr, address originalSender, uint fromId, bytes32 fromHash, \n            uint amount, bytes32 docHash, string[] data);\n    event RBBTokenRedemptionSettlement(address businessContractAddr, bytes32 redemptionTransactionHash, \n            bytes32 docHash, string[] data);\n\n    event ManualIntervention_RoleOrAddress(address account, uint8 eventType);\n\n\n    constructor (address newRegistryAddr, uint8 _decimals) public {\n        registry = RBBRegistry(newRegistryAddr);\n        decimals = _decimals;\n        responsibleForInvestmentConfirmation = msg.sender;\n        responsibleForSettlement = msg.sender;\n\n    }\n\n///******************************************************************* */\n\n    function requestMint(bytes32 specificInvestimentHash, uint idInvestor, uint amount, bytes32 docHash) \n        public onlyByRegisteredAndActiveContracts {\n    \n        require (amount>0, \"Valor a ser transacionado deve ser maior do que zero.\");\n        address businessContractAddr = msg.sender;\n\n        verifyContractIsRegisteredAndActive(businessContractAddr);\n        \n        uint businessContractId = getBusinessContractId(businessContractAddr);\n\n        balaceRequestedTokens[businessContractId][specificInvestimentHash] = \n            balaceRequestedTokens[businessContractId][specificInvestimentHash].add(amount);\n    \n        emit RBBTokenMintRequested(businessContractAddr, specificInvestimentHash, idInvestor, amount, docHash);\n\n    }\n\n    function mint(address businessContractAddr, bytes32 specificHash, uint amount, bytes32 docHash,\n        string[] memory data) public {\n\n        verifyContractIsRegisteredAndActive(businessContractAddr);\n\n        require (responsibleForInvestmentConfirmation == msg.sender, \n            \"Somente um responsvel pela confirmao de investimento pode enviar a transao\");\n\n        require(amount>0, \"Valor a mintar deve ser maior do que zero\");\n\n        (uint businessContractId, uint businessContractOwnerId) = \n                    getBusinessContractIdAndOwnerId(businessContractAddr);\n\n        balaceRequestedTokens[businessContractId][specificHash] \n            = balaceRequestedTokens[businessContractId][specificHash].sub(amount, \"Total de emisso excede valor solicitado\");\n\n        SpecificRBBToken specificContract = SpecificRBBToken(businessContractAddr);\n        bytes32 calcHash = specificContract.getHashToMintedAccount(specificHash);\n\n        rbbBalances[businessContractId][businessContractOwnerId][calcHash] = \n            rbbBalances[businessContractId][businessContractOwnerId][calcHash].add(amount);\n\n        specificContract.verifyAndActForMint(specificHash, amount, docHash, data);\n\n        emit RBBTokenMint(businessContractAddr, specificHash, amount, docHash, data);\n    }\n\n\n    function burnOwnTokenBySpecificContracts (address originalSender, bytes32 hashToBurn, uint amount, \n        bytes32 docHash) public onlyByRegisteredAndActiveContracts {\n\n        address businessContractAddr = msg.sender;\n        (uint businessContractId, uint businessContractOwnerId) = \n                    getBusinessContractIdAndOwnerId(businessContractAddr);\n        \n        _burn(businessContractAddr, originalSender, businessContractOwnerId, hashToBurn, amount, docHash);\n\n    }\n\n\n    function burnOwnToken (address businessContractAddr, bytes32 hashToBurn, uint amount, bytes32 docHash) \n        public onlyByRegisteredAndActiveContracts {\n\n        verifyContractIsRegisteredAndActive(businessContractAddr);\n\n        uint idToBurn = registry.getId(msg.sender);\n\n        _burn(businessContractAddr, msg.sender, idToBurn, hashToBurn, amount, docHash);\n\n    }\n\n    function _burn(address businessContractAddr, address originalSender, uint fromId, bytes32 fromHash, \n        uint amount, bytes32 docHash) internal {\n        \n        verifyContractIsRegisteredAndActive(businessContractAddr);\n//        require(amount>0, \"Valor a queimar deve ser maior do que zero\");\n\n        uint businessContractId = getBusinessContractId(businessContractAddr);\n\n        rbbBalances[businessContractId][fromId][fromHash].sub(amount, \"Total de tokens a serem queimados  maior do que o balance\");\n\n        emit RBBTokenBurn(businessContractAddr, originalSender, fromId, fromHash, amount, docHash);\n    }\n\n///******************************************************************* */\n\n\n    function transfer (address businessContractAddr, bytes32 fromHash, uint toId, bytes32 toHash, \n            uint amount, bytes32 docHash, string[] memory data) public whenNotPaused {\n\n        uint fromId = registry.getId(msg.sender);\n\n        verifyContractIsRegisteredAndActive(businessContractAddr);\n\n        require(registry.isValidatedId(fromId), \"Conta de origem precisa estar com cadastro validado\");\n        require(registry.isValidatedId(toId), \"Conta de destino precisa estar com cadastro validado\");\n        uint businessContractId = getBusinessContractId(businessContractAddr);\n\n        SpecificRBBToken specificContract = SpecificRBBToken(businessContractAddr);\n        specificContract.verifyAndActForTransfer(msg.sender, fromId, fromHash, toId, toHash, amount, docHash, data);\n\n        //altera valores de saldo\n        rbbBalances[businessContractId][fromId][fromHash] =\n                rbbBalances[businessContractId][fromId][fromHash].sub(amount, \"Saldo da origem no  suficiente para a transferncia\");\n        rbbBalances[businessContractId][toId][toHash] = rbbBalances[businessContractId][toId][toHash].add(amount);\n\n        emit RBBTokenTransfer (businessContractAddr, msg.sender, fromId, fromHash, toId, toHash, amount, docHash, data);\n\n    }\n\n    function redeem (address businessContractAddr, bytes32 fromHash, uint amount, \n        bytes32 docHash, string[] memory data) public whenNotPaused  {\n\n            uint fromId = registry.getId(msg.sender);\n\n            verifyContractIsRegisteredAndActive(businessContractAddr);\n            require(registry.isValidatedId(fromId), \"Conta solicitante do redeem precisa estar com cadastro validado\");\n            require(amount>0, \"Valor a resgatar deve ser maior do que zero\");\n    \n            SpecificRBBToken specificContract = SpecificRBBToken(businessContractAddr);\n            specificContract.verifyAndActForRedeem(msg.sender, fromId, fromHash, amount, docHash, data);\n\n            emit RBBTokenRedemptionRequested(businessContractAddr, msg.sender, fromId, fromHash, amount, docHash, data);\n            _burn(businessContractAddr, msg.sender, fromId, fromHash, amount, docHash);\n    }\n\n   /**\n    * Using this function, the Responsible for Settlement indicates that he has made the FIAT money transfer.\n    * @ param redemptionTransactionHash hash of the redeem transaction in which the FIAT money settlement occurred.\n    * @ param receiptHash hash that proof the FIAT money transfer\n    */ \n    function notifyRedemptionSettlement(address businessContractAddr, bytes32 redemptionTransactionHash, \n        bytes32 docHash, string[] memory data) public whenNotPaused {\n\n        verifyContractIsRegisteredAndActive(businessContractAddr);\n\n        require (responsibleForSettlement == msg.sender, \n            \"Somente um responsvel pela liquidio pode enviar a transao\");\n\n\n        SpecificRBBToken specificContract = SpecificRBBToken(businessContractAddr);\n        specificContract.verifyAndActForRedemptionSettlement(redemptionTransactionHash, docHash, data);\n\n        emit RBBTokenRedemptionSettlement(businessContractAddr, redemptionTransactionHash, docHash, data);\n    }\n    \n\n///******************************************************************* */\n\n    function getDecimals() public view returns (uint8) {\n        return decimals;\n    }\n\n    function getBndesId() view public returns (uint) {\n        uint bndesId = registry.getId(owner());\n        return bndesId;\n    }\n\n    function setResponsibleForInvestmentConfirmation(address rs) onlyOwner public {\n        uint id = registry.getId(rs);\n        require(id==registry.getId(owner()), \"O responsvel pela confirmao do investimento deve ser do mesmo RBB_ID do contrato\");\n        responsibleForInvestmentConfirmation = rs;\n        emit ManualIntervention_RoleOrAddress(rs, 1);\n    }\n\n    function setResponsibleForSettlement(address rs) onlyOwner public {\n        uint id = registry.getId(rs);\n        require(id==registry.getId(owner()), \"O responsvel pela liquidao deve ser da mesmo RBB_ID do contrato\");\n        responsibleForSettlement = rs;\n        emit ManualIntervention_RoleOrAddress(rs, 2);\n    }\n\n\n}",
  "sourcePath": "/Users/suzana.moreno/workspace/rbb-token/Back-Blockchain/contracts/RBBToken.sol",
  "compiler": {
    "name": "solc",
    "version": "0.6.12+commit.27d51765.Emscripten.clang"
  },
  "schemaVersion": "3.2.5",
  "updatedAt": "2020-09-25T20:39:39.597Z",
  "devdoc": {
    "kind": "dev",
    "methods": {
      "isOwner()": {
        "details": "Returns true if the caller is the current owner."
      },
      "owner()": {
        "details": "Returns the address of the current owner."
      },
      "pause()": {
        "details": "Called by a pauser to pause, triggers stopped state."
      },
      "paused()": {
        "details": "Returns true if the contract is paused, and false otherwise."
      },
      "renounceOwnership()": {
        "details": "Leaves the contract without owner. It will not be possible to call `onlyOwner` functions anymore. Can only be called by the current owner. NOTE: Renouncing ownership will leave the contract without an owner, thereby removing any functionality that is only available to the owner."
      },
      "transferOwnership(address)": {
        "details": "Transfers ownership of the contract to a new account (`newOwner`). Can only be called by the current owner."
      },
      "unpause()": {
        "details": "Called by a pauser to unpause, returns to normal state."
      }
    },
    "version": 1
  },
  "userdoc": {
    "kind": "user",
    "methods": {
      "getDecimals()": {
        "notice": "******************************************************************* */"
      },
      "notifyRedemptionSettlement(address,bytes32,bytes32,string[])": {
        "notice": "Using this function, the Responsible for Settlement indicates that he has made the FIAT money transfer. param redemptionTransactionHash hash of the redeem transaction in which the FIAT money settlement occurred. param receiptHash hash that proof the FIAT money transfer"
      },
      "requestMint(bytes32,uint256,uint256,bytes32)": {
        "notice": "******************************************************************* */"
      },
      "transfer(address,bytes32,uint256,bytes32,uint256,bytes32,string[])": {
        "notice": "******************************************************************* */"
      }
    },
    "version": 1
  }
}