{
  "contractName": "RBBToken",
  "abi": [
    {
      "inputs": [
        {
          "internalType": "address",
          "name": "newRegistryAddr",
          "type": "address"
        },
        {
          "internalType": "uint8",
          "name": "_decimals",
          "type": "uint8"
        }
      ],
      "payable": false,
      "stateMutability": "nonpayable",
      "type": "constructor"
    },
    {
      "anonymous": false,
      "inputs": [
        {
          "indexed": false,
          "internalType": "uint256",
          "name": "id",
          "type": "uint256"
        },
        {
          "indexed": false,
          "internalType": "uint256",
          "name": "ownerId",
          "type": "uint256"
        },
        {
          "indexed": false,
          "internalType": "address",
          "name": "addr",
          "type": "address"
        }
      ],
      "name": "BusinessContractRegistration",
      "type": "event"
    },
    {
      "anonymous": false,
      "inputs": [
        {
          "indexed": false,
          "internalType": "uint256",
          "name": "id",
          "type": "uint256"
        },
        {
          "indexed": false,
          "internalType": "bool",
          "name": "state",
          "type": "bool"
        }
      ],
      "name": "BusinessContractStateChange",
      "type": "event"
    },
    {
      "anonymous": false,
      "inputs": [
        {
          "indexed": true,
          "internalType": "address",
          "name": "previousOwner",
          "type": "address"
        },
        {
          "indexed": true,
          "internalType": "address",
          "name": "newOwner",
          "type": "address"
        }
      ],
      "name": "OwnershipTransferred",
      "type": "event"
    },
    {
      "anonymous": false,
      "inputs": [
        {
          "indexed": false,
          "internalType": "address",
          "name": "account",
          "type": "address"
        }
      ],
      "name": "Paused",
      "type": "event"
    },
    {
      "anonymous": false,
      "inputs": [
        {
          "indexed": true,
          "internalType": "address",
          "name": "account",
          "type": "address"
        }
      ],
      "name": "PauserAdded",
      "type": "event"
    },
    {
      "anonymous": false,
      "inputs": [
        {
          "indexed": true,
          "internalType": "address",
          "name": "account",
          "type": "address"
        }
      ],
      "name": "PauserRemoved",
      "type": "event"
    },
    {
      "anonymous": false,
      "inputs": [
        {
          "indexed": false,
          "internalType": "address",
          "name": "businessContractAddr",
          "type": "address"
        },
        {
          "indexed": false,
          "internalType": "uint256",
          "name": "amount",
          "type": "uint256"
        }
      ],
      "name": "RBBMintRequest",
      "type": "event"
    },
    {
      "anonymous": false,
      "inputs": [
        {
          "indexed": false,
          "internalType": "address",
          "name": "businessContractAddr",
          "type": "address"
        },
        {
          "indexed": false,
          "internalType": "uint256",
          "name": "fromId",
          "type": "uint256"
        },
        {
          "indexed": false,
          "internalType": "bytes32",
          "name": "fromHash",
          "type": "bytes32"
        },
        {
          "indexed": false,
          "internalType": "uint256",
          "name": "amount",
          "type": "uint256"
        }
      ],
      "name": "RBBRedemptionRequested",
      "type": "event"
    },
    {
      "anonymous": false,
      "inputs": [
        {
          "indexed": false,
          "internalType": "address",
          "name": "businessContractAddr",
          "type": "address"
        },
        {
          "indexed": false,
          "internalType": "string",
          "name": "redemptionTransactionHash",
          "type": "string"
        },
        {
          "indexed": false,
          "internalType": "string",
          "name": "receiptHash",
          "type": "string"
        }
      ],
      "name": "RBBRedemptionSettlement",
      "type": "event"
    },
    {
      "anonymous": false,
      "inputs": [
        {
          "indexed": false,
          "internalType": "address",
          "name": "businessContractAddr",
          "type": "address"
        },
        {
          "indexed": false,
          "internalType": "uint256",
          "name": "amount",
          "type": "uint256"
        }
      ],
      "name": "RBBTokenBurn",
      "type": "event"
    },
    {
      "anonymous": false,
      "inputs": [
        {
          "indexed": false,
          "internalType": "address",
          "name": "businessContractAddr",
          "type": "address"
        },
        {
          "indexed": false,
          "internalType": "uint256",
          "name": "amount",
          "type": "uint256"
        }
      ],
      "name": "RBBTokenMint",
      "type": "event"
    },
    {
      "anonymous": false,
      "inputs": [
        {
          "indexed": false,
          "internalType": "address",
          "name": "businessContractAddr",
          "type": "address"
        },
        {
          "indexed": false,
          "internalType": "uint256",
          "name": "fromId",
          "type": "uint256"
        },
        {
          "indexed": false,
          "internalType": "bytes32",
          "name": "fromHash",
          "type": "bytes32"
        },
        {
          "indexed": false,
          "internalType": "uint256",
          "name": "toId",
          "type": "uint256"
        },
        {
          "indexed": false,
          "internalType": "bytes32",
          "name": "toHash",
          "type": "bytes32"
        },
        {
          "indexed": false,
          "internalType": "uint256",
          "name": "amount",
          "type": "uint256"
        }
      ],
      "name": "RBBTokenTransfer",
      "type": "event"
    },
    {
      "anonymous": false,
      "inputs": [
        {
          "indexed": false,
          "internalType": "address",
          "name": "account",
          "type": "address"
        }
      ],
      "name": "Unpaused",
      "type": "event"
    },
    {
      "constant": true,
      "inputs": [],
      "name": "RESERVED_HASH_VALUE",
      "outputs": [
        {
          "internalType": "bytes32",
          "name": "",
          "type": "bytes32"
        }
      ],
      "payable": false,
      "stateMutability": "view",
      "type": "function"
    },
    {
      "constant": false,
      "inputs": [
        {
          "internalType": "address",
          "name": "account",
          "type": "address"
        }
      ],
      "name": "addPauser",
      "outputs": [],
      "payable": false,
      "stateMutability": "nonpayable",
      "type": "function"
    },
    {
      "constant": true,
      "inputs": [
        {
          "internalType": "uint256",
          "name": "",
          "type": "uint256"
        },
        {
          "internalType": "bytes32",
          "name": "",
          "type": "bytes32"
        }
      ],
      "name": "balanceTokensToMint",
      "outputs": [
        {
          "internalType": "uint256",
          "name": "",
          "type": "uint256"
        }
      ],
      "payable": false,
      "stateMutability": "view",
      "type": "function"
    },
    {
      "constant": true,
      "inputs": [
        {
          "internalType": "address",
          "name": "",
          "type": "address"
        }
      ],
      "name": "businessContractsRegistry",
      "outputs": [
        {
          "internalType": "uint256",
          "name": "id",
          "type": "uint256"
        },
        {
          "internalType": "uint256",
          "name": "ownerId",
          "type": "uint256"
        },
        {
          "internalType": "bool",
          "name": "isActive",
          "type": "bool"
        }
      ],
      "payable": false,
      "stateMutability": "view",
      "type": "function"
    },
    {
      "constant": true,
      "inputs": [
        {
          "internalType": "address",
          "name": "addr",
          "type": "address"
        }
      ],
      "name": "containsBusinessContract",
      "outputs": [
        {
          "internalType": "bool",
          "name": "",
          "type": "bool"
        }
      ],
      "payable": false,
      "stateMutability": "view",
      "type": "function"
    },
    {
      "constant": true,
      "inputs": [],
      "name": "decimals",
      "outputs": [
        {
          "internalType": "uint8",
          "name": "",
          "type": "uint8"
        }
      ],
      "payable": false,
      "stateMutability": "view",
      "type": "function"
    },
    {
      "constant": true,
      "inputs": [
        {
          "internalType": "address",
          "name": "addr",
          "type": "address"
        }
      ],
      "name": "getBusinessContractId",
      "outputs": [
        {
          "internalType": "uint256",
          "name": "",
          "type": "uint256"
        }
      ],
      "payable": false,
      "stateMutability": "view",
      "type": "function"
    },
    {
      "constant": true,
      "inputs": [
        {
          "internalType": "address",
          "name": "addr",
          "type": "address"
        }
      ],
      "name": "getBusinessContractIdAndOwnerId",
      "outputs": [
        {
          "internalType": "uint256",
          "name": "",
          "type": "uint256"
        },
        {
          "internalType": "uint256",
          "name": "",
          "type": "uint256"
        }
      ],
      "payable": false,
      "stateMutability": "view",
      "type": "function"
    },
    {
      "constant": true,
      "inputs": [],
      "name": "idCount",
      "outputs": [
        {
          "internalType": "uint256",
          "name": "",
          "type": "uint256"
        }
      ],
      "payable": false,
      "stateMutability": "view",
      "type": "function"
    },
    {
      "constant": true,
      "inputs": [
        {
          "internalType": "address",
          "name": "addr",
          "type": "address"
        }
      ],
      "name": "isBusinessContractActive",
      "outputs": [
        {
          "internalType": "bool",
          "name": "",
          "type": "bool"
        }
      ],
      "payable": false,
      "stateMutability": "view",
      "type": "function"
    },
    {
      "constant": true,
      "inputs": [],
      "name": "isOwner",
      "outputs": [
        {
          "internalType": "bool",
          "name": "",
          "type": "bool"
        }
      ],
      "payable": false,
      "stateMutability": "view",
      "type": "function"
    },
    {
      "constant": true,
      "inputs": [
        {
          "internalType": "address",
          "name": "account",
          "type": "address"
        }
      ],
      "name": "isPauser",
      "outputs": [
        {
          "internalType": "bool",
          "name": "",
          "type": "bool"
        }
      ],
      "payable": false,
      "stateMutability": "view",
      "type": "function"
    },
    {
      "constant": true,
      "inputs": [],
      "name": "owner",
      "outputs": [
        {
          "internalType": "address",
          "name": "",
          "type": "address"
        }
      ],
      "payable": false,
      "stateMutability": "view",
      "type": "function"
    },
    {
      "constant": false,
      "inputs": [],
      "name": "pause",
      "outputs": [],
      "payable": false,
      "stateMutability": "nonpayable",
      "type": "function"
    },
    {
      "constant": true,
      "inputs": [],
      "name": "paused",
      "outputs": [
        {
          "internalType": "bool",
          "name": "",
          "type": "bool"
        }
      ],
      "payable": false,
      "stateMutability": "view",
      "type": "function"
    },
    {
      "constant": true,
      "inputs": [
        {
          "internalType": "uint256",
          "name": "",
          "type": "uint256"
        },
        {
          "internalType": "uint256",
          "name": "",
          "type": "uint256"
        },
        {
          "internalType": "bytes32",
          "name": "",
          "type": "bytes32"
        }
      ],
      "name": "rbbBalances",
      "outputs": [
        {
          "internalType": "uint256",
          "name": "",
          "type": "uint256"
        }
      ],
      "payable": false,
      "stateMutability": "view",
      "type": "function"
    },
    {
      "constant": false,
      "inputs": [
        {
          "internalType": "address",
          "name": "businessContractAddr",
          "type": "address"
        },
        {
          "internalType": "uint256",
          "name": "ownerId",
          "type": "uint256"
        }
      ],
      "name": "registerBusinessContract",
      "outputs": [
        {
          "internalType": "uint256",
          "name": "",
          "type": "uint256"
        }
      ],
      "payable": false,
      "stateMutability": "nonpayable",
      "type": "function"
    },
    {
      "constant": true,
      "inputs": [],
      "name": "registry",
      "outputs": [
        {
          "internalType": "contract RBBRegistry",
          "name": "",
          "type": "address"
        }
      ],
      "payable": false,
      "stateMutability": "view",
      "type": "function"
    },
    {
      "constant": false,
      "inputs": [],
      "name": "renounceOwnership",
      "outputs": [],
      "payable": false,
      "stateMutability": "nonpayable",
      "type": "function"
    },
    {
      "constant": false,
      "inputs": [],
      "name": "renouncePauser",
      "outputs": [],
      "payable": false,
      "stateMutability": "nonpayable",
      "type": "function"
    },
    {
      "constant": false,
      "inputs": [
        {
          "internalType": "address",
          "name": "addr",
          "type": "address"
        },
        {
          "internalType": "bool",
          "name": "status",
          "type": "bool"
        }
      ],
      "name": "setStatus",
      "outputs": [
        {
          "internalType": "bool",
          "name": "",
          "type": "bool"
        }
      ],
      "payable": false,
      "stateMutability": "nonpayable",
      "type": "function"
    },
    {
      "constant": false,
      "inputs": [
        {
          "internalType": "address",
          "name": "newOwner",
          "type": "address"
        }
      ],
      "name": "transferOwnership",
      "outputs": [],
      "payable": false,
      "stateMutability": "nonpayable",
      "type": "function"
    },
    {
      "constant": false,
      "inputs": [],
      "name": "unpause",
      "outputs": [],
      "payable": false,
      "stateMutability": "nonpayable",
      "type": "function"
    },
    {
      "constant": true,
      "inputs": [],
      "name": "getBndesId",
      "outputs": [
        {
          "internalType": "uint256",
          "name": "",
          "type": "uint256"
        }
      ],
      "payable": false,
      "stateMutability": "view",
      "type": "function"
    },
    {
      "constant": false,
      "inputs": [
        {
          "internalType": "uint256",
          "name": "amount",
          "type": "uint256"
        },
        {
          "internalType": "bytes32",
          "name": "specificHash",
          "type": "bytes32"
        }
      ],
      "name": "requestMint",
      "outputs": [],
      "payable": false,
      "stateMutability": "nonpayable",
      "type": "function"
    },
    {
      "constant": false,
      "inputs": [
        {
          "internalType": "address",
          "name": "businessContractAddr",
          "type": "address"
        },
        {
          "internalType": "bytes32",
          "name": "specificHash",
          "type": "bytes32"
        },
        {
          "internalType": "uint256",
          "name": "amount",
          "type": "uint256"
        },
        {
          "internalType": "string[]",
          "name": "data",
          "type": "string[]"
        },
        {
          "internalType": "string",
          "name": "docHash",
          "type": "string"
        }
      ],
      "name": "mint",
      "outputs": [],
      "payable": false,
      "stateMutability": "nonpayable",
      "type": "function"
    },
    {
      "constant": false,
      "inputs": [
        {
          "internalType": "address",
          "name": "businessContractAddr",
          "type": "address"
        },
        {
          "internalType": "uint256",
          "name": "amount",
          "type": "uint256"
        }
      ],
      "name": "burn",
      "outputs": [],
      "payable": false,
      "stateMutability": "nonpayable",
      "type": "function"
    },
    {
      "constant": false,
      "inputs": [
        {
          "internalType": "address",
          "name": "businessContractAddr",
          "type": "address"
        },
        {
          "internalType": "bytes32",
          "name": "fromHash",
          "type": "bytes32"
        },
        {
          "internalType": "uint256",
          "name": "toId",
          "type": "uint256"
        },
        {
          "internalType": "bytes32",
          "name": "toHash",
          "type": "bytes32"
        },
        {
          "internalType": "uint256",
          "name": "amount",
          "type": "uint256"
        },
        {
          "internalType": "string[]",
          "name": "data",
          "type": "string[]"
        }
      ],
      "name": "transfer",
      "outputs": [],
      "payable": false,
      "stateMutability": "nonpayable",
      "type": "function"
    },
    {
      "constant": false,
      "inputs": [
        {
          "internalType": "address",
          "name": "businessContractAddr",
          "type": "address"
        },
        {
          "internalType": "uint256",
          "name": "toId",
          "type": "uint256"
        },
        {
          "internalType": "bytes32",
          "name": "toHash",
          "type": "bytes32"
        },
        {
          "internalType": "uint256",
          "name": "amount",
          "type": "uint256"
        },
        {
          "internalType": "string[]",
          "name": "data",
          "type": "string[]"
        }
      ],
      "name": "allocate",
      "outputs": [],
      "payable": false,
      "stateMutability": "nonpayable",
      "type": "function"
    },
    {
      "constant": false,
      "inputs": [
        {
          "internalType": "address",
          "name": "businessContractAddr",
          "type": "address"
        },
        {
          "internalType": "uint256",
          "name": "fromId",
          "type": "uint256"
        },
        {
          "internalType": "bytes32",
          "name": "fromHash",
          "type": "bytes32"
        },
        {
          "internalType": "uint256",
          "name": "amount",
          "type": "uint256"
        },
        {
          "internalType": "string[]",
          "name": "data",
          "type": "string[]"
        }
      ],
      "name": "redeem",
      "outputs": [],
      "payable": false,
      "stateMutability": "nonpayable",
      "type": "function"
    },
    {
      "constant": false,
      "inputs": [
        {
          "internalType": "address",
          "name": "businessContractAddr",
          "type": "address"
        },
        {
          "internalType": "string",
          "name": "redemptionTransactionHash",
          "type": "string"
        },
        {
          "internalType": "string",
          "name": "receiptHash",
          "type": "string"
        },
        {
          "internalType": "string[]",
          "name": "data",
          "type": "string[]"
        }
      ],
      "name": "notifyRedemptionSettlement",
      "outputs": [],
      "payable": false,
      "stateMutability": "nonpayable",
      "type": "function"
    },
    {
      "constant": true,
      "inputs": [
        {
          "internalType": "address",
          "name": "businessContractAddr",
          "type": "address"
        }
      ],
      "name": "getReservedBalanceByBusinessContract",
      "outputs": [
        {
          "internalType": "uint256",
          "name": "",
          "type": "uint256"
        }
      ],
      "payable": false,
      "stateMutability": "view",
      "type": "function"
    },
    {
      "constant": true,
      "inputs": [],
      "name": "getDecimals",
      "outputs": [
        {
          "internalType": "uint8",
          "name": "",
          "type": "uint8"
        }
      ],
      "payable": false,
      "stateMutability": "view",
      "type": "function"
    }
  ],
  "bytecode": "0x608060405260016003556002600560006101000a81548160ff021916908360ff1602179055506000801b6006553480156200003957600080fd5b5060405162004a7d38038062004a7d83398181016040526200005f9190810190620003c3565b6200007f62000073620001ae60201b60201c565b620001b660201b60201c565b6000600160006101000a81548160ff0219169083151502179055506000620000ac620001ae60201b60201c565b9050806001806101000a81548173ffffffffffffffffffffffffffffffffffffffff021916908373ffffffffffffffffffffffffffffffffffffffff1602179055508073ffffffffffffffffffffffffffffffffffffffff16600073ffffffffffffffffffffffffffffffffffffffff167f8be0079c531659141344cd1fd0a4f28419497f9722a3daafe3b4186f6b6457e060405160405180910390a35081600260006101000a81548173ffffffffffffffffffffffffffffffffffffffff021916908373ffffffffffffffffffffffffffffffffffffffff16021790555080600560006101000a81548160ff021916908360ff160217905550505062000578565b600033905090565b620001d18160006200021760201b62002a661790919060201c565b8073ffffffffffffffffffffffffffffffffffffffff167f6719d08c1888103bea251a4ed56406bd0c3e69723c8a1686e017e7bbe159b6f860405160405180910390a250565b620002298282620002ca60201b60201c565b156200026c576040517f08c379a00000000000000000000000000000000000000000000000000000000081526004016200026390620004ae565b60405180910390fd5b60018260000160008373ffffffffffffffffffffffffffffffffffffffff1673ffffffffffffffffffffffffffffffffffffffff16815260200190815260200160002060006101000a81548160ff0219169083151502179055505050565b60008073ffffffffffffffffffffffffffffffffffffffff168273ffffffffffffffffffffffffffffffffffffffff1614156200033e576040517f08c379a00000000000000000000000000000000000000000000000000000000081526004016200033590620004d0565b60405180910390fd5b8260000160008373ffffffffffffffffffffffffffffffffffffffff1673ffffffffffffffffffffffffffffffffffffffff16815260200190815260200160002060009054906101000a900460ff16905092915050565b600081519050620003a68162000544565b92915050565b600081519050620003bd816200055e565b92915050565b60008060408385031215620003d757600080fd5b6000620003e78582860162000395565b9250506020620003fa85828601620003ac565b9150509250929050565b600062000413601f83620004f2565b91507f526f6c65733a206163636f756e7420616c72656164792068617320726f6c65006000830152602082019050919050565b600062000455602283620004f2565b91507f526f6c65733a206163636f756e7420697320746865207a65726f20616464726560008301527f73730000000000000000000000000000000000000000000000000000000000006020830152604082019050919050565b60006020820190508181036000830152620004c98162000404565b9050919050565b60006020820190508181036000830152620004eb8162000446565b9050919050565b600082825260208201905092915050565b6000620005108262000517565b9050919050565b600073ffffffffffffffffffffffffffffffffffffffff82169050919050565b600060ff82169050919050565b6200054f8162000503565b81146200055b57600080fd5b50565b620005698162000537565b81146200057557600080fd5b50565b6144f580620005886000396000f3fe608060405234801561001057600080fd5b50600436106101fb5760003560e01c80638da5cb5b1161011a578063b987afcb116100ad578063e0a08b731161007c578063e0a08b731461058d578063e6e46238146105bd578063f0141d84146105db578063f2fde38b146105f9578063f777d2b914610615576101fb565b8063b987afcb146104f3578063c5b2f6a91461050f578063d508636d14610541578063debfb78214610571576101fb565b806396b7bb1c116100e957806396b7bb1c1461046d5780639ca0daed146104895780639dc29fac146104a7578063b304f21c146104c3576101fb565b80638da5cb5b146103f95780638f18ccdc146104175780638f32d59b14610433578063963a62cb14610451576101fb565b80636db5c8531161019257806382dc1ec41161016157806382dc1ec4146103725780638456cb591461038e57806388431f7a146103985780638b214c00146103c8576101fb565b80636db5c853146103245780636ef8d66d14610340578063715018a61461034a5780637b10399914610354576101fb565b806346fbf68e116101ce57806346fbf68e146102885780634a47f599146102b857806353d5f7cf146102d65780635c975abb14610306576101fb565b80631b0721181461020057806330b4998314610230578063313ce567146102605780633f4ba83a1461027e575b600080fd5b61021a60048036036102159190810190612ccb565b610645565b6040516102279190613fd5565b60405180910390f35b61024a6004803603610245919081019061307c565b610698565b6040516102579190613fd5565b60405180910390f35b6102686106ca565b6040516102759190614164565b60405180910390f35b6102866106dd565b005b6102a2600480360361029d9190810190612ccb565b6107d6565b6040516102af9190613be1565b60405180910390f35b6102c06107f3565b6040516102cd9190613fd5565b60405180910390f35b6102f060048036036102eb9190810190612ccb565b6108b1565b6040516102fd9190613be1565b60405180910390f35b61030e61098b565b60405161031b9190613be1565b60405180910390f35b61033e60048036036103399190810190613040565b6109a2565b005b610348610bb9565b005b610352610bcb565b005b61035c610cd1565b6040516103699190613c6a565b60405180910390f35b61038c60048036036103879190810190612ccb565b610cf7565b005b610396610d52565b005b6103b260048036036103ad9190810190612ccb565b610e4b565b6040516103bf9190613be1565b60405180910390f35b6103e260048036036103dd9190810190612ccb565b610ef1565b6040516103f09291906140cd565b60405180910390f35b610401610fd3565b60405161040e9190613a6e565b60405180910390f35b610431600480360361042c9190810190612dd7565b610ffc565b005b61043b61154e565b6040516104489190613be1565b60405180910390f35b61046b60048036036104669190810190612f5f565b6115ac565b005b61048760048036036104829190810190612f5f565b611717565b005b6104916119a8565b60405161049e9190613bfc565b60405180910390f35b6104c160048036036104bc9190810190612f23565b6119ae565b005b6104dd60048036036104d89190810190612cf4565b611a19565b6040516104ea9190613be1565b60405180910390f35b61050d60048036036105089190810190612e78565b611b5e565b005b61052960048036036105249190810190612ccb565b611e01565b6040516105389392919061412d565b60405180910390f35b61055b60048036036105569190810190612f23565b611e38565b6040516105689190613fd5565b60405180910390f35b61058b60048036036105869190810190612d30565b61204a565b005b6105a760048036036105a29190810190612ccb565b6123ae565b6040516105b49190613fd5565b60405180910390f35b6105c5612488565b6040516105d29190613fd5565b60405180910390f35b6105e361248e565b6040516105f09190614164565b60405180910390f35b610613600480360361060e9190810190612ccb565b6124a5565b005b61062f600480360361062a9190810190613040565b6124f8565b60405161063c9190613fd5565b60405180910390f35b600080600061065384610ef1565b91509150600760008381526020019081526020016000206000828152602001908152602001600020600060065481526020019081526020016000205492505050919050565b600760205282600052604060002060205281600052604060002060205280600052604060002060009250925050505481565b600560009054906101000a900460ff1681565b6106ed6106e861251d565b6107d6565b61072c576040517f08c379a000000000000000000000000000000000000000000000000000000000815260040161072390613d75565b60405180910390fd5b600160009054906101000a900460ff1661077b576040517f08c379a000000000000000000000000000000000000000000000000000000000815260040161077290613d15565b60405180910390fd5b6000600160006101000a81548160ff0219169083151502179055507f5db9ee0a495bf2e6ff9c91a7834c1ba4fdd244a5e8aa4e537bd38aeae4b073aa6107bf61251d565b6040516107cc9190613a89565b60405180910390a1565b60006107ec82600061252590919063ffffffff16565b9050919050565b600080600260009054906101000a900473ffffffffffffffffffffffffffffffffffffffff1673ffffffffffffffffffffffffffffffffffffffff166365f68c8961083c610fd3565b6040518263ffffffff1660e01b81526004016108589190613a6e565b60206040518083038186803b15801561087057600080fd5b505afa158015610884573d6000803e3d6000fd5b505050506040513d601f19601f820116820180604052506108a89190810190613017565b90508091505090565b60006108bc82610e4b565b6108fb576040517f08c379a00000000000000000000000000000000000000000000000000000000081526004016108f290613e15565b60405180910390fd5b610903612b0e565b600460008473ffffffffffffffffffffffffffffffffffffffff1673ffffffffffffffffffffffffffffffffffffffff16815260200190815260200160002060405180606001604052908160008201548152602001600182015481526020016002820160009054906101000a900460ff16151515158152505090508060400151915050919050565b6000600160009054906101000a900460ff16905090565b6109ab33610e4b565b6109ea576040517f08c379a00000000000000000000000000000000000000000000000000000000081526004016109e190613ed5565b60405180910390fd5b6109f3336108b1565b610a32576040517f08c379a0000000000000000000000000000000000000000000000000000000008152600401610a2990613f15565b60405180910390fd5b60008211610a75576040517f08c379a0000000000000000000000000000000000000000000000000000000008152600401610a6c90613df5565b60405180910390fd5b6000339050610a8381610e4b565b610ac2576040517f08c379a0000000000000000000000000000000000000000000000000000000008152600401610ab990613f35565b60405180910390fd5b610acb816108b1565b610b0a576040517f08c379a0000000000000000000000000000000000000000000000000000000008152600401610b0190613d55565b60405180910390fd5b600080610b1683610ef1565b91509150610b5185600860008581526020019081526020016000206000878152602001908152602001600020546125ed90919063ffffffff16565b600860008481526020019081526020016000206000868152602001908152602001600020819055507f758409a40cd738fca35b823ed8ee2a5d7f0aacbdfb99dea99a92c9d3a6f3288b8386604051610baa929190613b12565b60405180910390a15050505050565b610bc9610bc461251d565b612642565b565b610bd361154e565b610c12576040517f08c379a0000000000000000000000000000000000000000000000000000000008152600401610c0990613eb5565b60405180910390fd5b600073ffffffffffffffffffffffffffffffffffffffff166001809054906101000a900473ffffffffffffffffffffffffffffffffffffffff1673ffffffffffffffffffffffffffffffffffffffff167f8be0079c531659141344cd1fd0a4f28419497f9722a3daafe3b4186f6b6457e060405160405180910390a360006001806101000a81548173ffffffffffffffffffffffffffffffffffffffff021916908373ffffffffffffffffffffffffffffffffffffffff160217905550565b600260009054906101000a900473ffffffffffffffffffffffffffffffffffffffff1681565b610d07610d0261251d565b6107d6565b610d46576040517f08c379a0000000000000000000000000000000000000000000000000000000008152600401610d3d90613d75565b60405180910390fd5b610d4f8161269c565b50565b610d62610d5d61251d565b6107d6565b610da1576040517f08c379a0000000000000000000000000000000000000000000000000000000008152600401610d9890613d75565b60405180910390fd5b600160009054906101000a900460ff1615610df1576040517f08c379a0000000000000000000000000000000000000000000000000000000008152600401610de890613e55565b60405180910390fd5b60018060006101000a81548160ff0219169083151502179055507f62e78cea01bee320cd4e420270b5ea74000d11b0c9f74754ebdbfc544b05a258610e3461251d565b604051610e419190613a89565b60405180910390a1565b6000610e55612b0e565b600460008473ffffffffffffffffffffffffffffffffffffffff1673ffffffffffffffffffffffffffffffffffffffff16815260200190815260200160002060405180606001604052908160008201548152602001600182015481526020016002820160009054906101000a900460ff16151515158152505090506000816000015114610ee6576001915050610eec565b60009150505b919050565b600080610efd83610e4b565b610f3c576040517f08c379a0000000000000000000000000000000000000000000000000000000008152600401610f3390613e15565b60405180910390fd5b610f44612b0e565b600460008573ffffffffffffffffffffffffffffffffffffffff1673ffffffffffffffffffffffffffffffffffffffff16815260200190815260200160002060405180606001604052908160008201548152602001600182015481526020016002820160009054906101000a900460ff1615151515815250509050806000015181602001519250925050915091565b60006001809054906101000a900473ffffffffffffffffffffffffffffffffffffffff16905090565b600160009054906101000a900460ff161561104c576040517f08c379a000000000000000000000000000000000000000000000000000000000815260040161104390613e55565b60405180910390fd5b6000600260009054906101000a900473ffffffffffffffffffffffffffffffffffffffff1673ffffffffffffffffffffffffffffffffffffffff166365f68c89336040518263ffffffff1660e01b81526004016110a99190613a89565b60206040518083038186803b1580156110c157600080fd5b505afa1580156110d5573d6000803e3d6000fd5b505050506040513d601f19601f820116820180604052506110f99190810190613017565b905061110487610e4b565b611143576040517f08c379a000000000000000000000000000000000000000000000000000000000815260040161113a90613f35565b60405180910390fd5b61114c876108b1565b61118b576040517f08c379a000000000000000000000000000000000000000000000000000000000815260040161118290613d55565b60405180910390fd5b600260009054906101000a900473ffffffffffffffffffffffffffffffffffffffff1673ffffffffffffffffffffffffffffffffffffffff1663613a7896826040518263ffffffff1660e01b81526004016111e69190613fd5565b60206040518083038186803b1580156111fe57600080fd5b505afa158015611212573d6000803e3d6000fd5b505050506040513d601f19601f820116820180604052506112369190810190612fee565b611275576040517f08c379a000000000000000000000000000000000000000000000000000000000815260040161126c90613f55565b60405180910390fd5b600260009054906101000a900473ffffffffffffffffffffffffffffffffffffffff1673ffffffffffffffffffffffffffffffffffffffff1663613a7896866040518263ffffffff1660e01b81526004016112d09190613fd5565b60206040518083038186803b1580156112e857600080fd5b505afa1580156112fc573d6000803e3d6000fd5b505050506040513d601f19601f820116820180604052506113209190810190612fee565b61135f576040517f08c379a000000000000000000000000000000000000000000000000000000000815260040161135690613f95565b60405180910390fd5b600061136a886123ae565b905060008890508073ffffffffffffffffffffffffffffffffffffffff1663c596acc7848a8a8a8a8a6040518763ffffffff1660e01b81526004016113b496959493929190614065565b600060405180830381600087803b1580156113ce57600080fd5b505af11580156113e2573d6000803e3d6000fd5b505050506114488560405180606001604052806038815260200161447b6038913960076000868152602001908152602001600020600087815260200190815260200160002060008c8152602001908152602001600020546126f69092919063ffffffff16565b60076000848152602001908152602001600020600085815260200190815260200160002060008a8152602001908152602001600020819055506114c9856007600085815260200190815260200160002060008a81526020019081526020016000206000898152602001908152602001600020546125ed90919063ffffffff16565b6007600084815260200190815260200160002060008981526020019081526020016000206000888152602001908152602001600020819055507f1e4883fb9a1c3e23fd361abd4a0b4eaf05538367d6d79c9387417871b17b660889848a8a8a8a60405161153b96959493929190613b80565b60405180910390a1505050505050505050565b60006001809054906101000a900473ffffffffffffffffffffffffffffffffffffffff1673ffffffffffffffffffffffffffffffffffffffff1661159061251d565b73ffffffffffffffffffffffffffffffffffffffff1614905090565b600160009054906101000a900460ff16156115fc576040517f08c379a00000000000000000000000000000000000000000000000000000000081526004016115f390613e55565b60405180910390fd5b60008061160887610ef1565b915091506000600260009054906101000a900473ffffffffffffffffffffffffffffffffffffffff1673ffffffffffffffffffffffffffffffffffffffff166365f68c89336040518263ffffffff1660e01b81526004016116699190613a89565b60206040518083038186803b15801561168157600080fd5b505afa158015611695573d6000803e3d6000fd5b505050506040513d601f19601f820116820180604052506116b99190810190613017565b90508181146116fd576040517f08c379a00000000000000000000000000000000000000000000000000000000081526004016116f490613fb5565b60405180910390fd5b61170d8860065489898989610ffc565b5050505050505050565b600160009054906101000a900460ff1615611767576040517f08c379a000000000000000000000000000000000000000000000000000000000815260040161175e90613e55565b60405180910390fd5b61177085610e4b565b6117af576040517f08c379a00000000000000000000000000000000000000000000000000000000081526004016117a690613f35565b60405180910390fd5b6117b8856108b1565b6117f7576040517f08c379a00000000000000000000000000000000000000000000000000000000081526004016117ee90613e95565b60405180910390fd5b600260009054906101000a900473ffffffffffffffffffffffffffffffffffffffff1673ffffffffffffffffffffffffffffffffffffffff1663613a7896856040518263ffffffff1660e01b81526004016118529190613fd5565b60206040518083038186803b15801561186a57600080fd5b505afa15801561187e573d6000803e3d6000fd5b505050506040513d601f19601f820116820180604052506118a29190810190612fee565b6118e1576040517f08c379a00000000000000000000000000000000000000000000000000000000081526004016118d890613f75565b60405180910390fd5b60008590508073ffffffffffffffffffffffffffffffffffffffff1663c92f4eb0868686866040518563ffffffff1660e01b81526004016119259493929190614019565b600060405180830381600087803b15801561193f57600080fd5b505af1158015611953573d6000803e3d6000fd5b505050507fde46616d7a75dfda3dee1c69b73bc284982f0a5386046991389f4921c8ca53a38686868660405161198c9493929190613b3b565b60405180910390a16119a086868686612751565b505050505050565b60065481565b6119b661154e565b6119f5576040517f08c379a00000000000000000000000000000000000000000000000000000000081526004016119ec90613eb5565b60405180910390fd5b600080611a0184610ef1565b91509150611a13848260065486612751565b50505050565b6000611a2361154e565b611a62576040517f08c379a0000000000000000000000000000000000000000000000000000000008152600401611a5990613eb5565b60405180910390fd5b611a6b83610e4b565b611aaa576040517f08c379a0000000000000000000000000000000000000000000000000000000008152600401611aa190613e15565b60405180910390fd5b6000600460008573ffffffffffffffffffffffffffffffffffffffff1673ffffffffffffffffffffffffffffffffffffffff1681526020019081526020016000209050828160020160006101000a81548160ff0219169083151502179055507f28a61818d188a7856821431ff0deb7650c2cc34ee4b7b97616a415fa0a3dfeff81600001548260020160009054906101000a900460ff16604051611b4f929190613ff0565b60405180910390a15092915050565b600160009054906101000a900460ff1615611bae576040517f08c379a0000000000000000000000000000000000000000000000000000000008152600401611ba590613e55565b60405180910390fd5b611bb661154e565b611bf5576040517f08c379a0000000000000000000000000000000000000000000000000000000008152600401611bec90613eb5565b60405180910390fd5b611bfe84610e4b565b611c3d576040517f08c379a0000000000000000000000000000000000000000000000000000000008152600401611c3490613f35565b60405180910390fd5b611c46846108b1565b611c85576040517f08c379a0000000000000000000000000000000000000000000000000000000008152600401611c7c90613e95565b60405180910390fd5b73__RBBLib________________________________636edcb12f836040518263ffffffff1660e01b8152600401611cbc9190613ca7565b60206040518083038186803b158015611cd457600080fd5b505af4158015611ce8573d6000803e3d6000fd5b505050506040513d601f19601f82011682018060405250611d0c9190810190612fee565b611d4b576040517f08c379a0000000000000000000000000000000000000000000000000000000008152600401611d4290613e35565b60405180910390fd5b60008490508073ffffffffffffffffffffffffffffffffffffffff1663bc0077638585856040518463ffffffff1660e01b8152600401611d8d93929190613cc9565b600060405180830381600087803b158015611da757600080fd5b505af1158015611dbb573d6000803e3d6000fd5b505050507fbb044857baface794d30db16705eab4c8758338578ce37364c86e9a60e891bd2858585604051611df293929190613acd565b60405180910390a15050505050565b60046020528060005260406000206000915090508060000154908060010154908060020160009054906101000a900460ff16905083565b6000611e4261154e565b611e81576040517f08c379a0000000000000000000000000000000000000000000000000000000008152600401611e7890613eb5565b60405180910390fd5b611e8a83610e4b565b15611eca576040517f08c379a0000000000000000000000000000000000000000000000000000000008152600401611ec190613db5565b60405180910390fd5b60008390508073ffffffffffffffffffffffffffffffffffffffff16633dfdcfab600260009054906101000a900473ffffffffffffffffffffffffffffffffffffffff16306040518363ffffffff1660e01b8152600401611f2c929190613aa4565b600060405180830381600087803b158015611f4657600080fd5b505af1158015611f5a573d6000803e3d6000fd5b505050506040518060600160405280600354815260200184815260200160011515815250600460008673ffffffffffffffffffffffffffffffffffffffff1673ffffffffffffffffffffffffffffffffffffffff168152602001908152602001600020600082015181600001556020820151816001015560408201518160020160006101000a81548160ff0219169083151502179055509050507f20837d6e0b7236235210e8dcb5168dc3712b7652ca9b5f328e9aaecdd6f386cd6003548486604051612029939291906140f6565b60405180910390a16003600081548092919060010191905055505092915050565b61205261154e565b612091576040517f08c379a000000000000000000000000000000000000000000000000000000000815260040161208890613eb5565b60405180910390fd5b61209a85610e4b565b6120d9576040517f08c379a00000000000000000000000000000000000000000000000000000000081526004016120d090613f35565b60405180910390fd5b6120e2856108b1565b612121576040517f08c379a000000000000000000000000000000000000000000000000000000000815260040161211890613d55565b60405180910390fd5b73__RBBLib________________________________636edcb12f826040518263ffffffff1660e01b81526004016121589190613ca7565b60206040518083038186803b15801561217057600080fd5b505af4158015612184573d6000803e3d6000fd5b505050506040513d601f19601f820116820180604052506121a89190810190612fee565b6121e7576040517f08c379a00000000000000000000000000000000000000000000000000000000081526004016121de90613e35565b60405180910390fd5b6000806121f387610ef1565b9150915061224885604051806060016040528060298152602001614417602991396008600086815260200190815260200160002060008a8152602001908152602001600020546126f69092919063ffffffff16565b600860008481526020019081526020016000206000888152602001908152602001600020819055506122ba8560076000858152602001908152602001600020600084815260200190815260200160002060006006548152602001908152602001600020546125ed90919063ffffffff16565b600760008481526020019081526020016000206000838152602001908152602001600020600060065481526020019081526020016000208190555060008790508073ffffffffffffffffffffffffffffffffffffffff16636b4dd41f888888886040518563ffffffff1660e01b81526004016123399493929190613c17565b600060405180830381600087803b15801561235357600080fd5b505af1158015612367573d6000803e3d6000fd5b505050507f7024bd6ed1bb480dda5a99fd890504f3e8488be0da9e123eaae799a0e08a55b1888760405161239c929190613b12565b60405180910390a15050505050505050565b60006123b982610e4b565b6123f8576040517f08c379a00000000000000000000000000000000000000000000000000000000081526004016123ef90613e15565b60405180910390fd5b612400612b0e565b600460008473ffffffffffffffffffffffffffffffffffffffff1673ffffffffffffffffffffffffffffffffffffffff16815260200190815260200160002060405180606001604052908160008201548152602001600182015481526020016002820160009054906101000a900460ff16151515158152505090508060000151915050919050565b60035481565b6000600560009054906101000a900460ff16905090565b6124ad61154e565b6124ec576040517f08c379a00000000000000000000000000000000000000000000000000000000081526004016124e390613eb5565b60405180910390fd5b6124f581612891565b50565b6008602052816000526040600020602052806000526040600020600091509150505481565b600033905090565b60008073ffffffffffffffffffffffffffffffffffffffff168273ffffffffffffffffffffffffffffffffffffffff161415612596576040517f08c379a000000000000000000000000000000000000000000000000000000000815260040161258d90613ef5565b60405180910390fd5b8260000160008373ffffffffffffffffffffffffffffffffffffffff1673ffffffffffffffffffffffffffffffffffffffff16815260200190815260200160002060009054906101000a900460ff16905092915050565b600080828401905083811015612638576040517f08c379a000000000000000000000000000000000000000000000000000000000815260040161262f90613dd5565b60405180910390fd5b8091505092915050565b6126568160006129bf90919063ffffffff16565b8073ffffffffffffffffffffffffffffffffffffffff167fcd265ebaf09df2871cc7bd4133404a235ba12eff2041bb89d9c714a2621c7c7e60405160405180910390a250565b6126b0816000612a6690919063ffffffff16565b8073ffffffffffffffffffffffffffffffffffffffff167f6719d08c1888103bea251a4ed56406bd0c3e69723c8a1686e017e7bbe159b6f860405160405180910390a250565b600083831115829061273e576040517f08c379a00000000000000000000000000000000000000000000000000000000081526004016127359190613c85565b60405180910390fd5b5060008385039050809150509392505050565b61275a84610e4b565b612799576040517f08c379a000000000000000000000000000000000000000000000000000000000815260040161279090613f35565b60405180910390fd5b6127a2846108b1565b6127e1576040517f08c379a00000000000000000000000000000000000000000000000000000000081526004016127d890613e95565b60405180910390fd5b60006127ec856123ae565b9050612850826040518060600160405280603b8152602001614440603b91396007600085815260200190815260200160002060008881526020019081526020016000206000878152602001908152602001600020546126f69092919063ffffffff16565b507f7098974186624b12ad4b12c5ed305de24868251bf0d86c81baa4c904cc9b1a968583604051612882929190613b12565b60405180910390a15050505050565b600073ffffffffffffffffffffffffffffffffffffffff168173ffffffffffffffffffffffffffffffffffffffff161415612901576040517f08c379a00000000000000000000000000000000000000000000000000000000081526004016128f890613d95565b60405180910390fd5b8073ffffffffffffffffffffffffffffffffffffffff166001809054906101000a900473ffffffffffffffffffffffffffffffffffffffff1673ffffffffffffffffffffffffffffffffffffffff167f8be0079c531659141344cd1fd0a4f28419497f9722a3daafe3b4186f6b6457e060405160405180910390a3806001806101000a81548173ffffffffffffffffffffffffffffffffffffffff021916908373ffffffffffffffffffffffffffffffffffffffff16021790555050565b6129c98282612525565b612a08576040517f08c379a00000000000000000000000000000000000000000000000000000000081526004016129ff90613e75565b60405180910390fd5b60008260000160008373ffffffffffffffffffffffffffffffffffffffff1673ffffffffffffffffffffffffffffffffffffffff16815260200190815260200160002060006101000a81548160ff0219169083151502179055505050565b612a708282612525565b15612ab0576040517f08c379a0000000000000000000000000000000000000000000000000000000008152600401612aa790613d35565b60405180910390fd5b60018260000160008373ffffffffffffffffffffffffffffffffffffffff1673ffffffffffffffffffffffffffffffffffffffff16815260200190815260200160002060006101000a81548160ff0219169083151502179055505050565b604051806060016040528060008152602001600081526020016000151581525090565b600081359050612b40816143ba565b92915050565b600082601f830112612b5757600080fd5b8135612b6a612b65826141ac565b61417f565b9150818183526020840193506020810190508360005b83811015612bb05781358601612b968882612bf9565b845260208401935060208301925050600181019050612b80565b5050505092915050565b600081359050612bc9816143d1565b92915050565b600081519050612bde816143d1565b92915050565b600081359050612bf3816143e8565b92915050565b600082601f830112612c0a57600080fd5b8135612c1d612c18826141d4565b61417f565b91508082526020830160208301858383011115612c3957600080fd5b612c44838284614367565b50505092915050565b600082601f830112612c5e57600080fd5b8135612c71612c6c82614200565b61417f565b91508082526020830160208301858383011115612c8d57600080fd5b612c98838284614367565b50505092915050565b600081359050612cb0816143ff565b92915050565b600081519050612cc5816143ff565b92915050565b600060208284031215612cdd57600080fd5b6000612ceb84828501612b31565b91505092915050565b60008060408385031215612d0757600080fd5b6000612d1585828601612b31565b9250506020612d2685828601612bba565b9150509250929050565b600080600080600060a08688031215612d4857600080fd5b6000612d5688828901612b31565b9550506020612d6788828901612be4565b9450506040612d7888828901612ca1565b935050606086013567ffffffffffffffff811115612d9557600080fd5b612da188828901612b46565b925050608086013567ffffffffffffffff811115612dbe57600080fd5b612dca88828901612c4d565b9150509295509295909350565b60008060008060008060c08789031215612df057600080fd5b6000612dfe89828a01612b31565b9650506020612e0f89828a01612be4565b9550506040612e2089828a01612ca1565b9450506060612e3189828a01612be4565b9350506080612e4289828a01612ca1565b92505060a087013567ffffffffffffffff811115612e5f57600080fd5b612e6b89828a01612b46565b9150509295509295509295565b60008060008060808587031215612e8e57600080fd5b6000612e9c87828801612b31565b945050602085013567ffffffffffffffff811115612eb957600080fd5b612ec587828801612c4d565b935050604085013567ffffffffffffffff811115612ee257600080fd5b612eee87828801612c4d565b925050606085013567ffffffffffffffff811115612f0b57600080fd5b612f1787828801612b46565b91505092959194509250565b60008060408385031215612f3657600080fd5b6000612f4485828601612b31565b9250506020612f5585828601612ca1565b9150509250929050565b600080600080600060a08688031215612f7757600080fd5b6000612f8588828901612b31565b9550506020612f9688828901612ca1565b9450506040612fa788828901612be4565b9350506060612fb888828901612ca1565b925050608086013567ffffffffffffffff811115612fd557600080fd5b612fe188828901612b46565b9150509295509295909350565b60006020828403121561300057600080fd5b600061300e84828501612bcf565b91505092915050565b60006020828403121561302957600080fd5b600061303784828501612cb6565b91505092915050565b6000806040838503121561305357600080fd5b600061306185828601612ca1565b925050602061307285828601612be4565b9150509250929050565b60008060006060848603121561309157600080fd5b600061309f86828701612ca1565b93505060206130b086828701612ca1565b92505060406130c186828701612be4565b9150509250925092565b60006130d78383613211565b905092915050565b6130e88161430d565b82525050565b6130f7816142ae565b82525050565b60006131088261423c565b613112818561426a565b9350836020820285016131248561422c565b8060005b85811015613160578484038952815161314185826130cb565b945061314c8361425d565b925060208a01995050600181019050613128565b50829750879550505050505092915050565b61317b816142c0565b82525050565b61318a816142cc565b82525050565b6131998161431f565b82525050565b60006131aa82614252565b6131b4818561428c565b93506131c4818560208601614376565b6131cd816143a9565b840191505092915050565b60006131e382614252565b6131ed818561429d565b93506131fd818560208601614376565b613206816143a9565b840191505092915050565b600061321c82614247565b613226818561427b565b9350613236818560208601614376565b61323f816143a9565b840191505092915050565b600061325760148361428c565b91507f5061757361626c653a206e6f74207061757365640000000000000000000000006000830152602082019050919050565b6000613297601f8361428c565b91507f526f6c65733a206163636f756e7420616c72656164792068617320726f6c65006000830152602082019050919050565b60006132d760258361428c565b91507f436f6e747261746f206573706563c3ad6669636f206ec3a36f20657374c3a12060008301527f617469766f0000000000000000000000000000000000000000000000000000006020830152604082019050919050565b600061333d60308361428c565b91507f506175736572526f6c653a2063616c6c657220646f6573206e6f74206861766560008301527f207468652050617573657220726f6c65000000000000000000000000000000006020830152604082019050919050565b60006133a360268361428c565b91507f4f776e61626c653a206e6577206f776e657220697320746865207a65726f206160008301527f64647265737300000000000000000000000000000000000000000000000000006020830152604082019050919050565b600061340960178361428c565b91507f436f6e747261746f206ac3a1207265676973747261646f0000000000000000006000830152602082019050919050565b6000613449601b8361428c565b91507f536166654d6174683a206164646974696f6e206f766572666c6f7700000000006000830152602082019050919050565b600061348960358361428c565b91507f56616c6f72206120736572207472616e736163696f6e61646f2064657665207360008301527f6572206d61696f7220646f20717565207a65726f2e00000000000000000000006020830152604082019050919050565b60006134ef60228361428c565b91507f436f6e747261746f206465206e65676f63696f206e616f20726567697374726160008301527f646f0000000000000000000000000000000000000000000000000000000000006020830152604082019050919050565b600061355560248361428c565b91507f4f206861736820646120636f6d70726f7661c3a7c3a36f20c3a920696e76c3a160008301527f6c69646f000000000000000000000000000000000000000000000000000000006020830152604082019050919050565b60006135bb60108361428c565b91507f5061757361626c653a20706175736564000000000000000000000000000000006000830152602082019050919050565b60006135fb60218361428c565b91507f526f6c65733a206163636f756e7420646f6573206e6f74206861766520726f6c60008301527f65000000000000000000000000000000000000000000000000000000000000006020830152604082019050919050565b6000613661602c8361428c565b91507f436f6e747261746f207072656369736120657374617220617469766f2070617260008301527f61206861766572206275726e00000000000000000000000000000000000000006020830152604082019050919050565b60006136c760208361428c565b91507f4f776e61626c653a2063616c6c6572206973206e6f7420746865206f776e65726000830152602082019050919050565b6000613707604c8361428c565b91507f4dc3a9746f646f2073c3b320706f646520736572206368616d61646f20706f7260008301527f20636f6e747261746f206465206e6567c3b363696f207072657669616d656e7460208301527f65206361646173747261646f00000000000000000000000000000000000000006040830152606082019050919050565b600061379360228361428c565b91507f526f6c65733a206163636f756e7420697320746865207a65726f20616464726560008301527f73730000000000000000000000000000000000000000000000000000000000006020830152604082019050919050565b60006137f9603b8361428c565b91507f4dc3a9746f646f2073c3b320706f646520736572206368616d61646f20706f7260008301527f20636f6e747261746f206465206e6567c3b363696f20617469766f00000000006020830152604082019050919050565b600061385f602a8361428c565b91507f436f6e747261746f206573706563c3ad6669636f206ec3a36f20657374c3a12060008301527f7265676973747261646f000000000000000000000000000000000000000000006020830152604082019050919050565b60006138c560338361428c565b91507f436f6e7461206465206f726967656d207072656369736120657374617220636f60008301527f6d20636164617374726f2076616c696461646f000000000000000000000000006020830152604082019050919050565b600061392b603f8361428c565b91507f436f6e746120736f6c69636974616e746520646f2072656465656d207072656360008301527f69736120657374617220636f6d20636164617374726f2076616c696461646f006020830152604082019050919050565b600061399160348361428c565b91507f436f6e74612064652064657374696e6f2070726563697361206573746172206360008301527f6f6d20636164617374726f2076616c696461646f0000000000000000000000006020830152604082019050919050565b60006139f760408361428c565b91507f536f6d656e7465206f204f776e657220646f20636f6e747261746f206573706560008301527f63c3ad6669636f20706f6465206368616d61722065737365206dc3a9746f646f6020830152604082019050919050565b613a59816142f6565b82525050565b613a6881614300565b82525050565b6000602082019050613a8360008301846130ee565b92915050565b6000602082019050613a9e60008301846130df565b92915050565b6000604082019050613ab960008301856130ee565b613ac660208301846130ee565b9392505050565b6000606082019050613ae260008301866130ee565b8181036020830152613af4818561319f565b90508181036040830152613b08818461319f565b9050949350505050565b6000604082019050613b2760008301856130ee565b613b346020830184613a50565b9392505050565b6000608082019050613b5060008301876130ee565b613b5d6020830186613a50565b613b6a6040830185613181565b613b776060830184613a50565b95945050505050565b600060c082019050613b9560008301896130ee565b613ba26020830188613a50565b613baf6040830187613181565b613bbc6060830186613a50565b613bc96080830185613181565b613bd660a0830184613a50565b979650505050505050565b6000602082019050613bf66000830184613172565b92915050565b6000602082019050613c116000830184613181565b92915050565b6000608082019050613c2c6000830187613181565b613c396020830186613a50565b8181036040830152613c4b81856130fd565b90508181036060830152613c5f818461319f565b905095945050505050565b6000602082019050613c7f6000830184613190565b92915050565b60006020820190508181036000830152613c9f818461319f565b905092915050565b60006020820190508181036000830152613cc181846131d8565b905092915050565b60006060820190508181036000830152613ce3818661319f565b90508181036020830152613cf7818561319f565b90508181036040830152613d0b81846130fd565b9050949350505050565b60006020820190508181036000830152613d2e8161324a565b9050919050565b60006020820190508181036000830152613d4e8161328a565b9050919050565b60006020820190508181036000830152613d6e816132ca565b9050919050565b60006020820190508181036000830152613d8e81613330565b9050919050565b60006020820190508181036000830152613dae81613396565b9050919050565b60006020820190508181036000830152613dce816133fc565b9050919050565b60006020820190508181036000830152613dee8161343c565b9050919050565b60006020820190508181036000830152613e0e8161347c565b9050919050565b60006020820190508181036000830152613e2e816134e2565b9050919050565b60006020820190508181036000830152613e4e81613548565b9050919050565b60006020820190508181036000830152613e6e816135ae565b9050919050565b60006020820190508181036000830152613e8e816135ee565b9050919050565b60006020820190508181036000830152613eae81613654565b9050919050565b60006020820190508181036000830152613ece816136ba565b9050919050565b60006020820190508181036000830152613eee816136fa565b9050919050565b60006020820190508181036000830152613f0e81613786565b9050919050565b60006020820190508181036000830152613f2e816137ec565b9050919050565b60006020820190508181036000830152613f4e81613852565b9050919050565b60006020820190508181036000830152613f6e816138b8565b9050919050565b60006020820190508181036000830152613f8e8161391e565b9050919050565b60006020820190508181036000830152613fae81613984565b9050919050565b60006020820190508181036000830152613fce816139ea565b9050919050565b6000602082019050613fea6000830184613a50565b92915050565b60006040820190506140056000830185613a50565b6140126020830184613172565b9392505050565b600060808201905061402e6000830187613a50565b61403b6020830186613181565b6140486040830185613a50565b818103606083015261405a81846130fd565b905095945050505050565b600060c08201905061407a6000830189613a50565b6140876020830188613181565b6140946040830187613a50565b6140a16060830186613181565b6140ae6080830185613a50565b81810360a08301526140c081846130fd565b9050979650505050505050565b60006040820190506140e26000830185613a50565b6140ef6020830184613a50565b9392505050565b600060608201905061410b6000830186613a50565b6141186020830185613a50565b61412560408301846130ee565b949350505050565b60006060820190506141426000830186613a50565b61414f6020830185613a50565b61415c6040830184613172565b949350505050565b60006020820190506141796000830184613a5f565b92915050565b6000604051905081810181811067ffffffffffffffff821117156141a257600080fd5b8060405250919050565b600067ffffffffffffffff8211156141c357600080fd5b602082029050602081019050919050565b600067ffffffffffffffff8211156141eb57600080fd5b601f19601f8301169050602081019050919050565b600067ffffffffffffffff82111561421757600080fd5b601f19601f8301169050602081019050919050565b6000819050602082019050919050565b600081519050919050565b600081519050919050565b600081519050919050565b6000602082019050919050565b600082825260208201905092915050565b600082825260208201905092915050565b600082825260208201905092915050565b600082825260208201905092915050565b60006142b9826142d6565b9050919050565b60008115159050919050565b6000819050919050565b600073ffffffffffffffffffffffffffffffffffffffff82169050919050565b6000819050919050565b600060ff82169050919050565b600061431882614343565b9050919050565b600061432a82614331565b9050919050565b600061433c826142d6565b9050919050565b600061434e82614355565b9050919050565b6000614360826142d6565b9050919050565b82818337600083830152505050565b60005b83811015614394578082015181840152602081019050614379565b838111156143a3576000848401525b50505050565b6000601f19601f8301169050919050565b6143c3816142ae565b81146143ce57600080fd5b50565b6143da816142c0565b81146143e557600080fd5b50565b6143f1816142cc565b81146143fc57600080fd5b50565b614408816142f6565b811461441357600080fd5b5056fe546f74616c20646520656d697373c3a36f206578636564652076616c6f7220736f6c6963697461646f546f74616c20646520746f6b656e73206120736572656d20717565696d61646f7320c3a9206d61696f7220646f20717565206f2062616c616e636553616c646f206461206f726967656d206ec3a36f20c3a920737566696369656e746520706172612061207472616e73666572c3aa6e636961a365627a7a72315820dfa2b4a8abb77136a20f984dabb5c1f78f3714bc2b2efe39ac1345ff96621f366c6578706572696d656e74616cf564736f6c63430005100040",
  "source": "pragma solidity ^0.5.0;\npragma experimental ABIEncoderV2;\n\n\nimport \"./RBBLib.sol\";\nimport \"./RBBRegistry.sol\";\nimport \"./SpecificRBBToken.sol\";\nimport \"@openzeppelin/contracts/ownership/Ownable.sol\";\nimport \"@openzeppelin/contracts/lifecycle/Pausable.sol\";\nimport \"@openzeppelin/contracts/math/SafeMath.sol\";\n\n//TODO: framework de mudanca e gestao descentralizada de mints e burns\ncontract BusinessContractRegistry is Ownable {\n\n    RBBRegistry public registry;\n\n    //It starts with 1, because 0 is the id value returned when the item is not found in the businessContractsRegistry\n    uint public idCount = 1;\n\n    struct BusinessContractInfo {\n        uint id;\n        uint ownerId;\n        bool isActive;\n    }\n\n    event BusinessContractRegistration (uint id, uint ownerId, address addr);\n    event BusinessContractStateChange (uint id, bool state);\n\n    //indexado pelo address pq serah a forma mais usada para consulta.\n    mapping (address => BusinessContractInfo) public businessContractsRegistry;\n\n    modifier onlyByRegisteredAndActiveContracts {\n        require(containsBusinessContract(msg.sender), \"Mtodo s pode ser chamado por contrato de negcio previamente cadastrado\");\n        require(isBusinessContractActive(msg.sender), \"Mtodo s pode ser chamado por contrato de negcio ativo\");\n        _;\n    }\n\n//TODO: adicionar como ponto positivo do contrato genrico no PPT. nao eh possivel mudar o uint do owner sem mudar o contrato\n    function registerBusinessContract (address businessContractAddr, uint ownerId) public onlyOwner returns (uint)  {\n        require (!containsBusinessContract(businessContractAddr), \"Contrato j registrado\");\n\n        SpecificRBBToken specificContract = SpecificRBBToken(businessContractAddr);\n        specificContract.setInitializationDataDuringRegistration(address(registry), address(this));\n\n\n        businessContractsRegistry[businessContractAddr] = BusinessContractInfo(idCount, ownerId, true);\n        emit BusinessContractRegistration (idCount, ownerId, businessContractAddr);\n        idCount++;\n    }\n\n    function getBusinessContractId (address addr) public view returns (uint) {\n        require (containsBusinessContract(addr), \"Contrato de negocio nao registrado\");\n        BusinessContractInfo memory info = businessContractsRegistry[addr];\n        return info.id;\n    }\n\n    function getBusinessContractIdAndOwnerId (address addr) public view returns (uint, uint) {\n        require (containsBusinessContract(addr), \"Contrato de negocio nao registrado\");\n        BusinessContractInfo memory info = businessContractsRegistry[addr];\n        return (info.id, info.ownerId);\n    }\n    \n    function containsBusinessContract(address addr) public view returns (bool) {\n        BusinessContractInfo memory info = businessContractsRegistry[addr];\n        if (info.id!=0) return true;\n        else return false;\n    }\n\n    function isBusinessContractActive(address addr) public view returns (bool) {\n        require (containsBusinessContract(addr), \"Contrato de negocio nao registrado\");\n        BusinessContractInfo memory info = businessContractsRegistry[addr];\n        return info.isActive;\n    }\n\n    function setStatus(address addr, bool status) public onlyOwner returns (bool) {\n        require (containsBusinessContract(addr), \"Contrato de negocio nao registrado\");\n        BusinessContractInfo storage info = businessContractsRegistry[addr];\n        info.isActive = status;\n        emit BusinessContractStateChange(info.id, info.isActive);\n    }\n}\n\n//TODO: pensar - se precisasse fazer upgrade de um contrato, seria somente registrar um contrato com id do anterior. Criar um metodo para facilitar isso para facilitar o cdigo de mudanas?\ncontract RBBToken is Pausable, BusinessContractRegistry {\n\n    using SafeMath for uint;\n\n    uint8 public decimals = 2;\n    bytes32 public RESERVED_HASH_VALUE = 0x0000000000000000000000000000000000000000000000000000000000000000;\n\n    //businessContractId => (RBBid => (specificHash => amount)\n    mapping (uint => mapping (uint => mapping (bytes32 => uint))) public rbbBalances;\n\n    //businessContractId => (specificHash => amount)\n    mapping (uint => mapping (bytes32 => uint)) public balanceTokensToMint;\n\n//TODO: incluir parametro de data nos eventos de transfer e redeem? -- AVALIAR\n    event RBBMintRequest(address businessContractAddr, uint amount);\n    event RBBTokenMint(address businessContractAddr, uint amount);\n    event RBBTokenBurn(address businessContractAddr, uint amount);\n    event RBBRedemptionRequested (address businessContractAddr, uint fromId, bytes32 fromHash, uint amount);\n\n    event RBBTokenTransfer (address businessContractAddr, uint fromId, bytes32 fromHash, uint toId,\n                            bytes32 toHash, uint amount);\n    event RBBRedemptionSettlement(address businessContractAddr, string redemptionTransactionHash, string receiptHash);\n\n\n    constructor (address newRegistryAddr, uint8 _decimals) public {\n        registry = RBBRegistry(newRegistryAddr);\n        decimals = _decimals;\n    }\n\n//TODO: AVALIAR como identifica BNDES\n    function getBndesId() view public returns (uint) {\n        uint bndesId = registry.getId(owner());\n        return bndesId;\n    }\n\n///******************************************************************* */\n\n    function requestMint(uint amount, bytes32 specificHash) public onlyByRegisteredAndActiveContracts {\n    \n        require (amount>0, \"Valor a ser transacionado deve ser maior do que zero.\");\n        address businessContractAddr = msg.sender;\n\n        require(containsBusinessContract(businessContractAddr), \"Contrato especfico no est registrado\");\n        require(isBusinessContractActive(businessContractAddr), \"Contrato especfico no est ativo\");\n//        require(amount>0, \"Valor a queimar deve ser maior do que zero\");\n\n        (uint businessContractId, uint businessContractOwnerId) = \n                    getBusinessContractIdAndOwnerId(businessContractAddr);\n\n        balanceTokensToMint[businessContractId][specificHash] = \n            balanceTokensToMint[businessContractId][specificHash].add(amount);\n    \n        emit RBBMintRequest(businessContractAddr, amount);\n\n    }\n\n    function mint(address businessContractAddr, bytes32 specificHash, uint amount, string[] memory data, \n        string memory docHash) public onlyOwner {\n\n        require(containsBusinessContract(businessContractAddr), \"Contrato especfico no est registrado\");\n        require(isBusinessContractActive(businessContractAddr), \"Contrato especfico no est ativo\");\n//        require(amount>0, \"Valor a queimar deve ser maior do que zero\");\n\n        require (RBBLib.isValidHash(docHash), \"O hash da comprovao  invlido\");\n\n        (uint businessContractId, uint businessContractOwnerId) = \n                    getBusinessContractIdAndOwnerId(businessContractAddr);\n\n        balanceTokensToMint[businessContractId][specificHash] \n            = balanceTokensToMint[businessContractId][specificHash].sub(amount, \"Total de emisso excede valor solicitado\");\n\n        rbbBalances[businessContractId][businessContractOwnerId][RESERVED_HASH_VALUE] = \n            rbbBalances[businessContractId][businessContractOwnerId][RESERVED_HASH_VALUE].add(amount);\n\n        SpecificRBBToken specificContract = SpecificRBBToken(businessContractAddr);\n        specificContract.verifyAndActForMint(specificHash, amount, data, docHash);\n\n        emit RBBTokenMint(businessContractAddr, amount);\n    }\n\n    function burn (address businessContractAddr, uint amount) public onlyOwner {\n\n        (uint businessContractId, uint businessContractOwnerId) = \n                    getBusinessContractIdAndOwnerId(businessContractAddr);\n        _burn(businessContractAddr, businessContractOwnerId, RESERVED_HASH_VALUE, amount);\n\n    }\n\n    function _burn(address businessContractAddr, uint fromId, bytes32 fromHash, uint amount) internal {\n        \n        require(containsBusinessContract(businessContractAddr), \"Contrato especfico no est registrado\");\n        require(isBusinessContractActive(businessContractAddr), \"Contrato precisa estar ativo para haver burn\");\n//        require(amount>0, \"Valor a queimar deve ser maior do que zero\");\n\n        uint businessContractId = getBusinessContractId(businessContractAddr);\n\n        rbbBalances[businessContractId][fromId][fromHash].sub(amount, \"Total de tokens a serem queimados  maior do que o balance\");\n\n        emit RBBTokenBurn(businessContractAddr, amount);\n    }\n\n///******************************************************************* */\n\n\n//chamados de interveno manual tambm seriam feitos pelo transfer, com verificao de intervencao manual\n\n//TODO: incluir hash de registro um objeto genrico para registrar informacoes\n    function transfer (address businessContractAddr, bytes32 fromHash, uint toId, bytes32 toHash, \n            uint amount, string[] memory data) public whenNotPaused {\n\n        uint fromId = registry.getId(msg.sender);\n\n        require(containsBusinessContract(businessContractAddr), \"Contrato especfico no est registrado\");\n        require(isBusinessContractActive(businessContractAddr), \"Contrato especfico no est ativo\");\n\n        require(registry.isValidatedId(fromId), \"Conta de origem precisa estar com cadastro validado\");\n        require(registry.isValidatedId(toId), \"Conta de destino precisa estar com cadastro validado\");\n        uint businessContractId = getBusinessContractId(businessContractAddr);\n\n        SpecificRBBToken specificContract = SpecificRBBToken(businessContractAddr);\n        specificContract.verifyAndActForTransfer(fromId, fromHash, toId, toHash, amount, data);\n\n        //altera valores de saldo\n        rbbBalances[businessContractId][fromId][fromHash] =\n                rbbBalances[businessContractId][fromId][fromHash].sub(amount, \"Saldo da origem no  suficiente para a transferncia\");\n        rbbBalances[businessContractId][toId][toHash] = rbbBalances[businessContractId][toId][toHash].add(amount);\n\n        emit RBBTokenTransfer (businessContractAddr, fromId, fromHash, toId, toHash, amount);\n\n    }\n\n    function allocate (address businessContractAddr, uint toId, bytes32 toHash, uint amount, string[] memory data) public \n        whenNotPaused {\n\n\n            (uint businessContractId, uint businessContractOwnerId) = \n                    getBusinessContractIdAndOwnerId(businessContractAddr);\n            uint fromId = registry.getId(msg.sender);\n            require (fromId==businessContractOwnerId, \"Somente o Owner do contrato especfico pode chamar esse mtodo\");\n\n            transfer(businessContractAddr, RESERVED_HASH_VALUE, toId, toHash, amount, data);\n    }\n\n    function redeem (address businessContractAddr, uint fromId, bytes32 fromHash, uint amount, string[] memory data) public \n        whenNotPaused  {\n\n            require(containsBusinessContract(businessContractAddr), \"Contrato especfico no est registrado\");\n            require(isBusinessContractActive(businessContractAddr), \"Contrato precisa estar ativo para haver burn\");\n            require(registry.isValidatedId(fromId), \"Conta solicitante do redeem precisa estar com cadastro validado\");\n//        require(amount>0, \"Valor a queimar deve ser maior do que zero\");\n    \n            SpecificRBBToken specificContract = SpecificRBBToken(businessContractAddr);\n            specificContract.verifyAndActForRedeem(fromId, fromHash, amount, data);\n\n            emit RBBRedemptionRequested(businessContractAddr, fromId, fromHash, amount);\n            _burn(businessContractAddr, fromId, fromHash, amount);\n    }\n\n   /**\n    * Using this function, the Responsible for Settlement indicates that he has made the FIAT money transfer.\n    * @ param redemptionTransactionHash hash of the redeem transaction in which the FIAT money settlement occurred.\n    * @ param receiptHash hash that proof the FIAT money transfer\n    */ \n    function notifyRedemptionSettlement(address businessContractAddr, string memory redemptionTransactionHash, \n        string memory receiptHash, string[] memory data)\n        public whenNotPaused onlyOwner {\n\n        require(containsBusinessContract(businessContractAddr), \"Contrato especfico no est registrado\");\n        require(isBusinessContractActive(businessContractAddr), \"Contrato precisa estar ativo para haver burn\");\n        require (RBBLib.isValidHash(receiptHash), \"O hash da comprovao  invlido\");\n\n        SpecificRBBToken specificContract = SpecificRBBToken(businessContractAddr);\n        specificContract.verifyAndActForRedemptionSettlement(redemptionTransactionHash, receiptHash, data);\n\n        emit RBBRedemptionSettlement(businessContractAddr, redemptionTransactionHash, receiptHash);\n    }\n    \n\n///******************************************************************* */\n\n    function getReservedBalanceByBusinessContract(address businessContractAddr) view public returns (uint) {\n\n        (uint businessContractId, uint businessContractOwnerId) = \n                getBusinessContractIdAndOwnerId(businessContractAddr);\n        return rbbBalances[businessContractId][businessContractOwnerId][RESERVED_HASH_VALUE];\n    }\n\n    function getDecimals() public view returns (uint8) {\n        return decimals;\n    }\n\n}",
  "sourcePath": "/Users/suzana.moreno/workspace/rbb-token/Back-Blockchain/contracts/RBBToken.sol",
  "compiler": {
    "name": "solc",
    "version": "0.5.16+commit.9c3226ce.Emscripten.clang"
  },
  "schemaVersion": "3.0.23",
  "updatedAt": "2020-09-16T19:32:44.150Z",
  "devdoc": {
    "methods": {
      "isOwner()": {
        "details": "Returns true if the caller is the current owner."
      },
      "owner()": {
        "details": "Returns the address of the current owner."
      },
      "pause()": {
        "details": "Called by a pauser to pause, triggers stopped state."
      },
      "paused()": {
        "details": "Returns true if the contract is paused, and false otherwise."
      },
      "renounceOwnership()": {
        "details": "Leaves the contract without owner. It will not be possible to call `onlyOwner` functions anymore. Can only be called by the current owner.     * NOTE: Renouncing ownership will leave the contract without an owner, thereby removing any functionality that is only available to the owner."
      },
      "transferOwnership(address)": {
        "details": "Transfers ownership of the contract to a new account (`newOwner`). Can only be called by the current owner."
      },
      "unpause()": {
        "details": "Called by a pauser to unpause, returns to normal state."
      }
    }
  },
  "userdoc": {
    "methods": {
      "getReservedBalanceByBusinessContract(address)": {
        "notice": "******************************************************************* */"
      },
      "notifyRedemptionSettlement(address,string,string,string[])": {
        "notice": "Using this function, the Responsible for Settlement indicates that he has made the FIAT money transfer. param redemptionTransactionHash hash of the redeem transaction in which the FIAT money settlement occurred. param receiptHash hash that proof the FIAT money transfer"
      },
      "requestMint(uint256,bytes32)": {
        "notice": "******************************************************************* */"
      },
      "transfer(address,bytes32,uint256,bytes32,uint256,string[])": {
        "notice": "******************************************************************* */"
      }
    }
  }
}