{
  "contractName": "RBBToken",
  "abi": [
    {
      "inputs": [
        {
          "internalType": "address",
          "name": "newRegistryAddr",
          "type": "address"
        },
        {
          "internalType": "uint8",
          "name": "_decimals",
          "type": "uint8"
        }
      ],
      "payable": false,
      "stateMutability": "nonpayable",
      "type": "constructor"
    },
    {
      "anonymous": false,
      "inputs": [
        {
          "indexed": false,
          "internalType": "uint256",
          "name": "id",
          "type": "uint256"
        },
        {
          "indexed": false,
          "internalType": "uint256",
          "name": "ownerId",
          "type": "uint256"
        },
        {
          "indexed": false,
          "internalType": "address",
          "name": "addr",
          "type": "address"
        }
      ],
      "name": "BusinessContractRegistration",
      "type": "event"
    },
    {
      "anonymous": false,
      "inputs": [
        {
          "indexed": false,
          "internalType": "uint256",
          "name": "id",
          "type": "uint256"
        },
        {
          "indexed": false,
          "internalType": "bool",
          "name": "state",
          "type": "bool"
        }
      ],
      "name": "BusinessContractStateChange",
      "type": "event"
    },
    {
      "anonymous": false,
      "inputs": [
        {
          "indexed": true,
          "internalType": "address",
          "name": "previousOwner",
          "type": "address"
        },
        {
          "indexed": true,
          "internalType": "address",
          "name": "newOwner",
          "type": "address"
        }
      ],
      "name": "OwnershipTransferred",
      "type": "event"
    },
    {
      "anonymous": false,
      "inputs": [
        {
          "indexed": false,
          "internalType": "address",
          "name": "account",
          "type": "address"
        }
      ],
      "name": "Paused",
      "type": "event"
    },
    {
      "anonymous": false,
      "inputs": [
        {
          "indexed": true,
          "internalType": "address",
          "name": "account",
          "type": "address"
        }
      ],
      "name": "PauserAdded",
      "type": "event"
    },
    {
      "anonymous": false,
      "inputs": [
        {
          "indexed": true,
          "internalType": "address",
          "name": "account",
          "type": "address"
        }
      ],
      "name": "PauserRemoved",
      "type": "event"
    },
    {
      "anonymous": false,
      "inputs": [
        {
          "indexed": false,
          "internalType": "address",
          "name": "businessContractAddr",
          "type": "address"
        },
        {
          "indexed": false,
          "internalType": "uint256",
          "name": "amount",
          "type": "uint256"
        }
      ],
      "name": "RBBMintRequest",
      "type": "event"
    },
    {
      "anonymous": false,
      "inputs": [
        {
          "indexed": false,
          "internalType": "address",
          "name": "businessContractAddr",
          "type": "address"
        },
        {
          "indexed": false,
          "internalType": "uint256",
          "name": "fromId",
          "type": "uint256"
        },
        {
          "indexed": false,
          "internalType": "bytes32",
          "name": "fromHash",
          "type": "bytes32"
        },
        {
          "indexed": false,
          "internalType": "uint256",
          "name": "amount",
          "type": "uint256"
        }
      ],
      "name": "RBBRedemptionRequested",
      "type": "event"
    },
    {
      "anonymous": false,
      "inputs": [
        {
          "indexed": false,
          "internalType": "address",
          "name": "businessContractAddr",
          "type": "address"
        },
        {
          "indexed": false,
          "internalType": "uint256",
          "name": "amount",
          "type": "uint256"
        }
      ],
      "name": "RBBTokenBurn",
      "type": "event"
    },
    {
      "anonymous": false,
      "inputs": [
        {
          "indexed": false,
          "internalType": "address",
          "name": "businessContractAddr",
          "type": "address"
        },
        {
          "indexed": false,
          "internalType": "uint256",
          "name": "amount",
          "type": "uint256"
        }
      ],
      "name": "RBBTokenMint",
      "type": "event"
    },
    {
      "anonymous": false,
      "inputs": [
        {
          "indexed": false,
          "internalType": "address",
          "name": "businessContractAddr",
          "type": "address"
        },
        {
          "indexed": false,
          "internalType": "uint256",
          "name": "fromId",
          "type": "uint256"
        },
        {
          "indexed": false,
          "internalType": "bytes32",
          "name": "fromHash",
          "type": "bytes32"
        },
        {
          "indexed": false,
          "internalType": "uint256",
          "name": "toId",
          "type": "uint256"
        },
        {
          "indexed": false,
          "internalType": "bytes32",
          "name": "toHash",
          "type": "bytes32"
        },
        {
          "indexed": false,
          "internalType": "uint256",
          "name": "amount",
          "type": "uint256"
        }
      ],
      "name": "RBBTokenTransfer",
      "type": "event"
    },
    {
      "anonymous": false,
      "inputs": [
        {
          "indexed": false,
          "internalType": "address",
          "name": "account",
          "type": "address"
        }
      ],
      "name": "Unpaused",
      "type": "event"
    },
    {
      "constant": true,
      "inputs": [],
      "name": "RESERVED_HASH_VALUE",
      "outputs": [
        {
          "internalType": "bytes32",
          "name": "",
          "type": "bytes32"
        }
      ],
      "payable": false,
      "stateMutability": "view",
      "type": "function"
    },
    {
      "constant": false,
      "inputs": [
        {
          "internalType": "address",
          "name": "account",
          "type": "address"
        }
      ],
      "name": "addPauser",
      "outputs": [],
      "payable": false,
      "stateMutability": "nonpayable",
      "type": "function"
    },
    {
      "constant": true,
      "inputs": [
        {
          "internalType": "address",
          "name": "",
          "type": "address"
        }
      ],
      "name": "businessContractsRegistry",
      "outputs": [
        {
          "internalType": "uint256",
          "name": "id",
          "type": "uint256"
        },
        {
          "internalType": "uint256",
          "name": "ownerId",
          "type": "uint256"
        },
        {
          "internalType": "bool",
          "name": "isActive",
          "type": "bool"
        }
      ],
      "payable": false,
      "stateMutability": "view",
      "type": "function"
    },
    {
      "constant": true,
      "inputs": [
        {
          "internalType": "address",
          "name": "addr",
          "type": "address"
        }
      ],
      "name": "containsBusinessContract",
      "outputs": [
        {
          "internalType": "bool",
          "name": "",
          "type": "bool"
        }
      ],
      "payable": false,
      "stateMutability": "view",
      "type": "function"
    },
    {
      "constant": true,
      "inputs": [],
      "name": "decimals",
      "outputs": [
        {
          "internalType": "uint8",
          "name": "",
          "type": "uint8"
        }
      ],
      "payable": false,
      "stateMutability": "view",
      "type": "function"
    },
    {
      "constant": true,
      "inputs": [
        {
          "internalType": "address",
          "name": "addr",
          "type": "address"
        }
      ],
      "name": "getBusinessContractId",
      "outputs": [
        {
          "internalType": "uint256",
          "name": "",
          "type": "uint256"
        }
      ],
      "payable": false,
      "stateMutability": "view",
      "type": "function"
    },
    {
      "constant": true,
      "inputs": [
        {
          "internalType": "address",
          "name": "addr",
          "type": "address"
        }
      ],
      "name": "getBusinessContractIdAndOwnerId",
      "outputs": [
        {
          "internalType": "uint256",
          "name": "",
          "type": "uint256"
        },
        {
          "internalType": "uint256",
          "name": "",
          "type": "uint256"
        }
      ],
      "payable": false,
      "stateMutability": "view",
      "type": "function"
    },
    {
      "constant": true,
      "inputs": [],
      "name": "idCount",
      "outputs": [
        {
          "internalType": "uint256",
          "name": "",
          "type": "uint256"
        }
      ],
      "payable": false,
      "stateMutability": "view",
      "type": "function"
    },
    {
      "constant": true,
      "inputs": [
        {
          "internalType": "address",
          "name": "addr",
          "type": "address"
        }
      ],
      "name": "isBusinessContractActive",
      "outputs": [
        {
          "internalType": "bool",
          "name": "",
          "type": "bool"
        }
      ],
      "payable": false,
      "stateMutability": "view",
      "type": "function"
    },
    {
      "constant": true,
      "inputs": [],
      "name": "isOwner",
      "outputs": [
        {
          "internalType": "bool",
          "name": "",
          "type": "bool"
        }
      ],
      "payable": false,
      "stateMutability": "view",
      "type": "function"
    },
    {
      "constant": true,
      "inputs": [
        {
          "internalType": "address",
          "name": "account",
          "type": "address"
        }
      ],
      "name": "isPauser",
      "outputs": [
        {
          "internalType": "bool",
          "name": "",
          "type": "bool"
        }
      ],
      "payable": false,
      "stateMutability": "view",
      "type": "function"
    },
    {
      "constant": true,
      "inputs": [],
      "name": "owner",
      "outputs": [
        {
          "internalType": "address",
          "name": "",
          "type": "address"
        }
      ],
      "payable": false,
      "stateMutability": "view",
      "type": "function"
    },
    {
      "constant": false,
      "inputs": [],
      "name": "pause",
      "outputs": [],
      "payable": false,
      "stateMutability": "nonpayable",
      "type": "function"
    },
    {
      "constant": true,
      "inputs": [],
      "name": "paused",
      "outputs": [
        {
          "internalType": "bool",
          "name": "",
          "type": "bool"
        }
      ],
      "payable": false,
      "stateMutability": "view",
      "type": "function"
    },
    {
      "constant": true,
      "inputs": [
        {
          "internalType": "uint256",
          "name": "",
          "type": "uint256"
        },
        {
          "internalType": "uint256",
          "name": "",
          "type": "uint256"
        },
        {
          "internalType": "bytes32",
          "name": "",
          "type": "bytes32"
        }
      ],
      "name": "rbbBalances",
      "outputs": [
        {
          "internalType": "uint256",
          "name": "",
          "type": "uint256"
        }
      ],
      "payable": false,
      "stateMutability": "view",
      "type": "function"
    },
    {
      "constant": false,
      "inputs": [
        {
          "internalType": "address",
          "name": "addr",
          "type": "address"
        },
        {
          "internalType": "uint256",
          "name": "ownerId",
          "type": "uint256"
        }
      ],
      "name": "registerBusinessContract",
      "outputs": [
        {
          "internalType": "uint256",
          "name": "",
          "type": "uint256"
        }
      ],
      "payable": false,
      "stateMutability": "nonpayable",
      "type": "function"
    },
    {
      "constant": true,
      "inputs": [],
      "name": "registry",
      "outputs": [
        {
          "internalType": "contract RBBRegistry",
          "name": "",
          "type": "address"
        }
      ],
      "payable": false,
      "stateMutability": "view",
      "type": "function"
    },
    {
      "constant": false,
      "inputs": [],
      "name": "renounceOwnership",
      "outputs": [],
      "payable": false,
      "stateMutability": "nonpayable",
      "type": "function"
    },
    {
      "constant": false,
      "inputs": [],
      "name": "renouncePauser",
      "outputs": [],
      "payable": false,
      "stateMutability": "nonpayable",
      "type": "function"
    },
    {
      "constant": false,
      "inputs": [
        {
          "internalType": "address",
          "name": "addr",
          "type": "address"
        },
        {
          "internalType": "bool",
          "name": "status",
          "type": "bool"
        }
      ],
      "name": "setStatus",
      "outputs": [
        {
          "internalType": "bool",
          "name": "",
          "type": "bool"
        }
      ],
      "payable": false,
      "stateMutability": "nonpayable",
      "type": "function"
    },
    {
      "constant": false,
      "inputs": [
        {
          "internalType": "address",
          "name": "newOwner",
          "type": "address"
        }
      ],
      "name": "transferOwnership",
      "outputs": [],
      "payable": false,
      "stateMutability": "nonpayable",
      "type": "function"
    },
    {
      "constant": false,
      "inputs": [],
      "name": "unpause",
      "outputs": [],
      "payable": false,
      "stateMutability": "nonpayable",
      "type": "function"
    },
    {
      "constant": true,
      "inputs": [],
      "name": "getBndesId",
      "outputs": [
        {
          "internalType": "uint256",
          "name": "",
          "type": "uint256"
        }
      ],
      "payable": false,
      "stateMutability": "view",
      "type": "function"
    },
    {
      "constant": false,
      "inputs": [
        {
          "internalType": "uint256",
          "name": "amount",
          "type": "uint256"
        }
      ],
      "name": "requestMint",
      "outputs": [],
      "payable": false,
      "stateMutability": "nonpayable",
      "type": "function"
    },
    {
      "constant": false,
      "inputs": [
        {
          "internalType": "address",
          "name": "businessContractAddr",
          "type": "address"
        },
        {
          "internalType": "uint256",
          "name": "amount",
          "type": "uint256"
        }
      ],
      "name": "mint",
      "outputs": [],
      "payable": false,
      "stateMutability": "nonpayable",
      "type": "function"
    },
    {
      "constant": false,
      "inputs": [
        {
          "internalType": "address",
          "name": "businessContractAddr",
          "type": "address"
        },
        {
          "internalType": "uint256",
          "name": "amount",
          "type": "uint256"
        }
      ],
      "name": "burn",
      "outputs": [],
      "payable": false,
      "stateMutability": "nonpayable",
      "type": "function"
    },
    {
      "constant": false,
      "inputs": [
        {
          "internalType": "address",
          "name": "businessContractAddr",
          "type": "address"
        },
        {
          "internalType": "uint256",
          "name": "fromId",
          "type": "uint256"
        },
        {
          "internalType": "bytes32",
          "name": "fromHash",
          "type": "bytes32"
        },
        {
          "internalType": "uint256",
          "name": "toId",
          "type": "uint256"
        },
        {
          "internalType": "bytes32",
          "name": "toHash",
          "type": "bytes32"
        },
        {
          "internalType": "uint256",
          "name": "amount",
          "type": "uint256"
        },
        {
          "internalType": "string[]",
          "name": "data",
          "type": "string[]"
        }
      ],
      "name": "transfer",
      "outputs": [],
      "payable": false,
      "stateMutability": "nonpayable",
      "type": "function"
    },
    {
      "constant": false,
      "inputs": [
        {
          "internalType": "address",
          "name": "businessContractAddr",
          "type": "address"
        },
        {
          "internalType": "uint256",
          "name": "toId",
          "type": "uint256"
        },
        {
          "internalType": "bytes32",
          "name": "toHash",
          "type": "bytes32"
        },
        {
          "internalType": "uint256",
          "name": "amount",
          "type": "uint256"
        },
        {
          "internalType": "string[]",
          "name": "data",
          "type": "string[]"
        }
      ],
      "name": "allocate",
      "outputs": [],
      "payable": false,
      "stateMutability": "nonpayable",
      "type": "function"
    },
    {
      "constant": false,
      "inputs": [
        {
          "internalType": "address",
          "name": "businessContractAddr",
          "type": "address"
        },
        {
          "internalType": "uint256",
          "name": "fromId",
          "type": "uint256"
        },
        {
          "internalType": "bytes32",
          "name": "fromHash",
          "type": "bytes32"
        },
        {
          "internalType": "uint256",
          "name": "amount",
          "type": "uint256"
        },
        {
          "internalType": "string[]",
          "name": "data",
          "type": "string[]"
        }
      ],
      "name": "redeem",
      "outputs": [],
      "payable": false,
      "stateMutability": "nonpayable",
      "type": "function"
    },
    {
      "constant": true,
      "inputs": [],
      "name": "getDecimals",
      "outputs": [
        {
          "internalType": "uint8",
          "name": "",
          "type": "uint8"
        }
      ],
      "payable": false,
      "stateMutability": "view",
      "type": "function"
    }
  ],
  "bytecode": "0x608060405260016002556002600460146101000a81548160ff021916908360ff1602179055506000801b6005553480156200003957600080fd5b5060405162003e6438038062003e6483398181016040526200005f9190810190620003c3565b6200007f62000073620001ae60201b60201c565b620001b660201b60201c565b6000600160006101000a81548160ff0219169083151502179055506000620000ac620001ae60201b60201c565b9050806001806101000a81548173ffffffffffffffffffffffffffffffffffffffff021916908373ffffffffffffffffffffffffffffffffffffffff1602179055508073ffffffffffffffffffffffffffffffffffffffff16600073ffffffffffffffffffffffffffffffffffffffff167f8be0079c531659141344cd1fd0a4f28419497f9722a3daafe3b4186f6b6457e060405160405180910390a35081600460006101000a81548173ffffffffffffffffffffffffffffffffffffffff021916908373ffffffffffffffffffffffffffffffffffffffff16021790555080600460146101000a81548160ff021916908360ff160217905550505062000578565b600033905090565b620001d18160006200021760201b620021fa1790919060201c565b8073ffffffffffffffffffffffffffffffffffffffff167f6719d08c1888103bea251a4ed56406bd0c3e69723c8a1686e017e7bbe159b6f860405160405180910390a250565b620002298282620002ca60201b60201c565b156200026c576040517f08c379a00000000000000000000000000000000000000000000000000000000081526004016200026390620004ae565b60405180910390fd5b60018260000160008373ffffffffffffffffffffffffffffffffffffffff1673ffffffffffffffffffffffffffffffffffffffff16815260200190815260200160002060006101000a81548160ff0219169083151502179055505050565b60008073ffffffffffffffffffffffffffffffffffffffff168273ffffffffffffffffffffffffffffffffffffffff1614156200033e576040517f08c379a00000000000000000000000000000000000000000000000000000000081526004016200033590620004d0565b60405180910390fd5b8260000160008373ffffffffffffffffffffffffffffffffffffffff1673ffffffffffffffffffffffffffffffffffffffff16815260200190815260200160002060009054906101000a900460ff16905092915050565b600081519050620003a68162000544565b92915050565b600081519050620003bd816200055e565b92915050565b60008060408385031215620003d757600080fd5b6000620003e78582860162000395565b9250506020620003fa85828601620003ac565b9150509250929050565b600062000413601f83620004f2565b91507f526f6c65733a206163636f756e7420616c72656164792068617320726f6c65006000830152602082019050919050565b600062000455602283620004f2565b91507f526f6c65733a206163636f756e7420697320746865207a65726f20616464726560008301527f73730000000000000000000000000000000000000000000000000000000000006020830152604082019050919050565b60006020820190508181036000830152620004c98162000404565b9050919050565b60006020820190508181036000830152620004eb8162000446565b9050919050565b600082825260208201905092915050565b6000620005108262000517565b9050919050565b600073ffffffffffffffffffffffffffffffffffffffff82169050919050565b600060ff82169050919050565b6200054f8162000503565b81146200055b57600080fd5b50565b620005698162000537565b81146200057557600080fd5b50565b6138dc80620005886000396000f3fe608060405234801561001057600080fd5b50600436106101da5760003560e01c806388431f7a116101045780639dc29fac116100a2578063e0a08b7311610071578063e0a08b7314610520578063e6e4623814610550578063f0141d841461056e578063f2fde38b1461058c576101da565b80639dc29fac14610472578063b304f21c1461048e578063c5b2f6a9146104be578063d508636d146104f0576101da565b80638f32d59b116100de5780638f32d59b146103fe578063963a62cb1461041c57806396b7bb1c146104385780639ca0daed14610454576101da565b806388431f7a1461037f5780638b214c00146103af5780638da5cb5b146103e0576101da565b806353d5f7cf1161017c5780637b1039991161014b5780637b1039991461031f5780638136b72a1461033d57806382dc1ec4146103595780638456cb5914610375576101da565b806353d5f7cf146102bd5780635c975abb146102ed5780636ef8d66d1461030b578063715018a614610315576101da565b806340c10f19116101b857806340c10f191461023757806346fbf68e1461025357806349733d04146102835780634a47f5991461029f576101da565b806330b49983146101df578063313ce5671461020f5780633f4ba83a1461022d575b600080fd5b6101f960048036036101f4919081019061266c565b6105a8565b604051610206919061345d565b60405180910390f35b6102176105da565b60405161022491906135ec565b60405180910390f35b6102356105ed565b005b610251600480360361024c9190810190612470565b6106e6565b005b61026d6004803603610268919081019061240b565b610849565b60405161027a919061312a565b60405180910390f35b61029d6004803603610298919081019061261a565b610866565b005b6102a761097b565b6040516102b4919061345d565b60405180910390f35b6102d760048036036102d2919081019061240b565b610a39565b6040516102e4919061312a565b60405180910390f35b6102f5610b13565b604051610302919061312a565b60405180910390f35b610313610b2a565b005b61031d610b3c565b005b610327610c42565b6040516103349190613160565b60405180910390f35b6103576004803603610352919081019061253b565b610c68565b005b610373600480360361036e919081019061240b565b61110b565b005b61037d611166565b005b6103996004803603610394919081019061240b565b61125f565b6040516103a6919061312a565b60405180910390f35b6103c960048036036103c4919081019061240b565b611305565b6040516103d7929190613555565b60405180910390f35b6103e86113e7565b6040516103f59190613025565b60405180910390f35b610406611410565b604051610413919061312a565b60405180910390f35b610436600480360361043191908101906124ac565b61146e565b005b610452600480360361044d91908101906124ac565b6115d2565b005b61045c6117e5565b6040516104699190613145565b60405180910390f35b61048c60048036036104879190810190612470565b6117eb565b005b6104a860048036036104a39190810190612434565b611856565b6040516104b5919061312a565b60405180910390f35b6104d860048036036104d3919081019061240b565b61199b565b6040516104e7939291906135b5565b60405180910390f35b61050a60048036036105059190810190612470565b6119d2565b604051610517919061345d565b60405180910390f35b61053a6004803603610535919081019061240b565b611b4f565b604051610547919061345d565b60405180910390f35b610558611c29565b604051610565919061345d565b60405180910390f35b610576611c2f565b60405161058391906135ec565b60405180910390f35b6105a660048036036105a1919081019061240b565b611c46565b005b600660205282600052604060002060205281600052604060002060205280600052604060002060009250925050505481565b600460149054906101000a900460ff1681565b6105fd6105f8611c99565b610849565b61063c576040517f08c379a00000000000000000000000000000000000000000000000000000000081526004016106339061321d565b60405180910390fd5b600160009054906101000a900460ff1661068b576040517f08c379a00000000000000000000000000000000000000000000000000000000081526004016106829061319d565b60405180910390fd5b6000600160006101000a81548160ff0219169083151502179055507f5db9ee0a495bf2e6ff9c91a7834c1ba4fdd244a5e8aa4e537bd38aeae4b073aa6106cf611c99565b6040516106dc9190613040565b60405180910390a1565b6106ee611410565b61072d576040517f08c379a00000000000000000000000000000000000000000000000000000000081526004016107249061333d565b60405180910390fd5b61073682610a39565b610775576040517f08c379a000000000000000000000000000000000000000000000000000000000815260040161076c906131fd565b60405180910390fd5b60008061078184611305565b915091506107cf836006600085815260200190815260200160002060008481526020019081526020016000206000600554815260200190815260200160002054611ca190919063ffffffff16565b60066000848152602001908152602001600020600083815260200190815260200160002060006005548152602001908152602001600020819055507f7024bd6ed1bb480dda5a99fd890504f3e8488be0da9e123eaae799a0e08a55b1848460405161083b92919061305b565b60405180910390a150505050565b600061085f826000611cf690919063ffffffff16565b9050919050565b61086f3361125f565b6108ae576040517f08c379a00000000000000000000000000000000000000000000000000000000081526004016108a59061335d565b60405180910390fd5b6108b733610a39565b6108f6576040517f08c379a00000000000000000000000000000000000000000000000000000000081526004016108ed906133bd565b60405180910390fd5b60008111610939576040517f08c379a00000000000000000000000000000000000000000000000000000000081526004016109309061329d565b60405180910390fd5b60003390507f758409a40cd738fca35b823ed8ee2a5d7f0aacbdfb99dea99a92c9d3a6f3288b818360405161096f92919061305b565b60405180910390a15050565b600080600460009054906101000a900473ffffffffffffffffffffffffffffffffffffffff1673ffffffffffffffffffffffffffffffffffffffff166365f68c896109c46113e7565b6040518263ffffffff1660e01b81526004016109e09190613025565b60206040518083038186803b1580156109f857600080fd5b505afa158015610a0c573d6000803e3d6000fd5b505050506040513d601f19601f82011682018060405250610a309190810190612643565b90508091505090565b6000610a448261125f565b610a83576040517f08c379a0000000000000000000000000000000000000000000000000000000008152600401610a7a906132bd565b60405180910390fd5b610a8b6122a2565b600360008473ffffffffffffffffffffffffffffffffffffffff1673ffffffffffffffffffffffffffffffffffffffff16815260200190815260200160002060405180606001604052908160008201548152602001600182015481526020016002820160009054906101000a900460ff16151515158152505090508060400151915050919050565b6000600160009054906101000a900460ff16905090565b610b3a610b35611c99565b611dbe565b565b610b44611410565b610b83576040517f08c379a0000000000000000000000000000000000000000000000000000000008152600401610b7a9061333d565b60405180910390fd5b600073ffffffffffffffffffffffffffffffffffffffff166001809054906101000a900473ffffffffffffffffffffffffffffffffffffffff1673ffffffffffffffffffffffffffffffffffffffff167f8be0079c531659141344cd1fd0a4f28419497f9722a3daafe3b4186f6b6457e060405160405180910390a360006001806101000a81548173ffffffffffffffffffffffffffffffffffffffff021916908373ffffffffffffffffffffffffffffffffffffffff160217905550565b600460009054906101000a900473ffffffffffffffffffffffffffffffffffffffff1681565b600160009054906101000a900460ff1615610cb8576040517f08c379a0000000000000000000000000000000000000000000000000000000008152600401610caf906132dd565b60405180910390fd5b610cc18761125f565b610d00576040517f08c379a0000000000000000000000000000000000000000000000000000000008152600401610cf7906133fd565b60405180910390fd5b610d0987610a39565b610d48576040517f08c379a0000000000000000000000000000000000000000000000000000000008152600401610d3f906131dd565b60405180910390fd5b600460009054906101000a900473ffffffffffffffffffffffffffffffffffffffff1673ffffffffffffffffffffffffffffffffffffffff1663613a7896876040518263ffffffff1660e01b8152600401610da3919061345d565b60206040518083038186803b158015610dbb57600080fd5b505afa158015610dcf573d6000803e3d6000fd5b505050506040513d601f19601f82011682018060405250610df391908101906125f1565b610e32576040517f08c379a0000000000000000000000000000000000000000000000000000000008152600401610e299061341d565b60405180910390fd5b600460009054906101000a900473ffffffffffffffffffffffffffffffffffffffff1673ffffffffffffffffffffffffffffffffffffffff1663613a7896856040518263ffffffff1660e01b8152600401610e8d919061345d565b60206040518083038186803b158015610ea557600080fd5b505afa158015610eb9573d6000803e3d6000fd5b505050506040513d601f19601f82011682018060405250610edd91908101906125f1565b610f1c576040517f08c379a0000000000000000000000000000000000000000000000000000000008152600401610f139061343d565b60405180910390fd5b6000610f2788611b4f565b905060008890508073ffffffffffffffffffffffffffffffffffffffff1663c596acc78989898989896040518763ffffffff1660e01b8152600401610f71969594939291906134ed565b600060405180830381600087803b158015610f8b57600080fd5b505af1158015610f9f573d6000803e3d6000fd5b5050505061100584604051806060016040528060388152602001613862603891396006600086815260200190815260200160002060008c815260200190815260200160002060008b815260200190815260200160002054611e189092919063ffffffff16565b6006600084815260200190815260200160002060008a815260200190815260200160002060008981526020019081526020016000208190555061108684600660008581526020019081526020016000206000898152602001908152602001600020600088815260200190815260200160002054611ca190919063ffffffff16565b6006600084815260200190815260200160002060008881526020019081526020016000206000878152602001908152602001600020819055507f1e4883fb9a1c3e23fd361abd4a0b4eaf05538367d6d79c9387417871b17b66088989898989896040516110f8969594939291906130c9565b60405180910390a1505050505050505050565b61111b611116611c99565b610849565b61115a576040517f08c379a00000000000000000000000000000000000000000000000000000000081526004016111519061321d565b60405180910390fd5b61116381611e73565b50565b611176611171611c99565b610849565b6111b5576040517f08c379a00000000000000000000000000000000000000000000000000000000081526004016111ac9061321d565b60405180910390fd5b600160009054906101000a900460ff1615611205576040517f08c379a00000000000000000000000000000000000000000000000000000000081526004016111fc906132dd565b60405180910390fd5b60018060006101000a81548160ff0219169083151502179055507f62e78cea01bee320cd4e420270b5ea74000d11b0c9f74754ebdbfc544b05a258611248611c99565b6040516112559190613040565b60405180910390a1565b60006112696122a2565b600360008473ffffffffffffffffffffffffffffffffffffffff1673ffffffffffffffffffffffffffffffffffffffff16815260200190815260200160002060405180606001604052908160008201548152602001600182015481526020016002820160009054906101000a900460ff161515151581525050905060008160000151146112fa576001915050611300565b60009150505b919050565b6000806113118361125f565b611350576040517f08c379a0000000000000000000000000000000000000000000000000000000008152600401611347906132bd565b60405180910390fd5b6113586122a2565b600360008573ffffffffffffffffffffffffffffffffffffffff1673ffffffffffffffffffffffffffffffffffffffff16815260200190815260200160002060405180606001604052908160008201548152602001600182015481526020016002820160009054906101000a900460ff1615151515815250509050806000015181602001519250925050915091565b60006001809054906101000a900473ffffffffffffffffffffffffffffffffffffffff16905090565b60006001809054906101000a900473ffffffffffffffffffffffffffffffffffffffff1673ffffffffffffffffffffffffffffffffffffffff16611452611c99565b73ffffffffffffffffffffffffffffffffffffffff1614905090565b600160009054906101000a900460ff16156114be576040517f08c379a00000000000000000000000000000000000000000000000000000000081526004016114b5906132dd565b60405180910390fd5b6000806114ca87611305565b91509150600460009054906101000a900473ffffffffffffffffffffffffffffffffffffffff1673ffffffffffffffffffffffffffffffffffffffff1663613a7896826040518263ffffffff1660e01b8152600401611529919061345d565b60206040518083038186803b15801561154157600080fd5b505afa158015611555573d6000803e3d6000fd5b505050506040513d601f19601f8201168201806040525061157991908101906125f1565b6115b8576040517f08c379a00000000000000000000000000000000000000000000000000000000081526004016115af9061339d565b60405180910390fd5b6115c9878260055489898989610c68565b50505050505050565b600160009054906101000a900460ff1615611622576040517f08c379a0000000000000000000000000000000000000000000000000000000008152600401611619906132dd565b60405180910390fd5b60008061162e87611305565b91509150600460009054906101000a900473ffffffffffffffffffffffffffffffffffffffff1673ffffffffffffffffffffffffffffffffffffffff1663613a7896826040518263ffffffff1660e01b815260040161168d919061345d565b60206040518083038186803b1580156116a557600080fd5b505afa1580156116b9573d6000803e3d6000fd5b505050506040513d601f19601f820116820180604052506116dd91908101906125f1565b61171c576040517f08c379a00000000000000000000000000000000000000000000000000000000081526004016117139061339d565b60405180910390fd5b60008790508073ffffffffffffffffffffffffffffffffffffffff1663c92f4eb0888888886040518563ffffffff1660e01b815260040161176094939291906134a1565b600060405180830381600087803b15801561177a57600080fd5b505af115801561178e573d6000803e3d6000fd5b505050507fde46616d7a75dfda3dee1c69b73bc284982f0a5386046991389f4921c8ca53a3888888886040516117c79493929190613084565b60405180910390a16117db88888888611ecd565b5050505050505050565b60055481565b6117f3611410565b611832576040517f08c379a00000000000000000000000000000000000000000000000000000000081526004016118299061333d565b60405180910390fd5b60008061183e84611305565b91509150611850848260055486611ecd565b50505050565b6000611860611410565b61189f576040517f08c379a00000000000000000000000000000000000000000000000000000000081526004016118969061333d565b60405180910390fd5b6118a88361125f565b6118e7576040517f08c379a00000000000000000000000000000000000000000000000000000000081526004016118de906132bd565b60405180910390fd5b6000600360008573ffffffffffffffffffffffffffffffffffffffff1673ffffffffffffffffffffffffffffffffffffffff1681526020019081526020016000209050828160020160006101000a81548160ff0219169083151502179055507f28a61818d188a7856821431ff0deb7650c2cc34ee4b7b97616a415fa0a3dfeff81600001548260020160009054906101000a900460ff1660405161198c929190613478565b60405180910390a15092915050565b60036020528060005260406000206000915090508060000154908060010154908060020160009054906101000a900460ff16905083565b60006119dc611410565b611a1b576040517f08c379a0000000000000000000000000000000000000000000000000000000008152600401611a129061333d565b60405180910390fd5b611a248361125f565b15611a64576040517f08c379a0000000000000000000000000000000000000000000000000000000008152600401611a5b9061325d565b60405180910390fd5b6040518060600160405280600254815260200183815260200160011515815250600360008573ffffffffffffffffffffffffffffffffffffffff1673ffffffffffffffffffffffffffffffffffffffff168152602001908152602001600020600082015181600001556020820151816001015560408201518160020160006101000a81548160ff0219169083151502179055509050507f20837d6e0b7236235210e8dcb5168dc3712b7652ca9b5f328e9aaecdd6f386cd6002548385604051611b2f9392919061357e565b60405180910390a160026000815480929190600101919050555092915050565b6000611b5a8261125f565b611b99576040517f08c379a0000000000000000000000000000000000000000000000000000000008152600401611b90906132bd565b60405180910390fd5b611ba16122a2565b600360008473ffffffffffffffffffffffffffffffffffffffff1673ffffffffffffffffffffffffffffffffffffffff16815260200190815260200160002060405180606001604052908160008201548152602001600182015481526020016002820160009054906101000a900460ff16151515158152505090508060000151915050919050565b60025481565b6000600460149054906101000a900460ff16905090565b611c4e611410565b611c8d576040517f08c379a0000000000000000000000000000000000000000000000000000000008152600401611c849061333d565b60405180910390fd5b611c9681612025565b50565b600033905090565b600080828401905083811015611cec576040517f08c379a0000000000000000000000000000000000000000000000000000000008152600401611ce39061327d565b60405180910390fd5b8091505092915050565b60008073ffffffffffffffffffffffffffffffffffffffff168273ffffffffffffffffffffffffffffffffffffffff161415611d67576040517f08c379a0000000000000000000000000000000000000000000000000000000008152600401611d5e9061337d565b60405180910390fd5b8260000160008373ffffffffffffffffffffffffffffffffffffffff1673ffffffffffffffffffffffffffffffffffffffff16815260200190815260200160002060009054906101000a900460ff16905092915050565b611dd281600061215390919063ffffffff16565b8073ffffffffffffffffffffffffffffffffffffffff167fcd265ebaf09df2871cc7bd4133404a235ba12eff2041bb89d9c714a2621c7c7e60405160405180910390a250565b6000838311158290611e60576040517f08c379a0000000000000000000000000000000000000000000000000000000008152600401611e57919061317b565b60405180910390fd5b5060008385039050809150509392505050565b611e878160006121fa90919063ffffffff16565b8073ffffffffffffffffffffffffffffffffffffffff167f6719d08c1888103bea251a4ed56406bd0c3e69723c8a1686e017e7bbe159b6f860405160405180910390a250565b611ed684610a39565b611f15576040517f08c379a0000000000000000000000000000000000000000000000000000000008152600401611f0c9061331d565b60405180910390fd5b60008111611f58576040517f08c379a0000000000000000000000000000000000000000000000000000000008152600401611f4f906133dd565b60405180910390fd5b6000611f6385611b4f565b9050611fe4826040518060400160405280601b81526020017f4275726e20616d6f756e7420657863656564732062616c616e63650000000000815250600660008581526020019081526020016000206000888152602001908152602001600020600087815260200190815260200160002054611e189092919063ffffffff16565b507f7098974186624b12ad4b12c5ed305de24868251bf0d86c81baa4c904cc9b1a96858360405161201692919061305b565b60405180910390a15050505050565b600073ffffffffffffffffffffffffffffffffffffffff168173ffffffffffffffffffffffffffffffffffffffff161415612095576040517f08c379a000000000000000000000000000000000000000000000000000000000815260040161208c9061323d565b60405180910390fd5b8073ffffffffffffffffffffffffffffffffffffffff166001809054906101000a900473ffffffffffffffffffffffffffffffffffffffff1673ffffffffffffffffffffffffffffffffffffffff167f8be0079c531659141344cd1fd0a4f28419497f9722a3daafe3b4186f6b6457e060405160405180910390a3806001806101000a81548173ffffffffffffffffffffffffffffffffffffffff021916908373ffffffffffffffffffffffffffffffffffffffff16021790555050565b61215d8282611cf6565b61219c576040517f08c379a0000000000000000000000000000000000000000000000000000000008152600401612193906132fd565b60405180910390fd5b60008260000160008373ffffffffffffffffffffffffffffffffffffffff1673ffffffffffffffffffffffffffffffffffffffff16815260200190815260200160002060006101000a81548160ff0219169083151502179055505050565b6122048282611cf6565b15612244576040517f08c379a000000000000000000000000000000000000000000000000000000000815260040161223b906131bd565b60405180910390fd5b60018260000160008373ffffffffffffffffffffffffffffffffffffffff1673ffffffffffffffffffffffffffffffffffffffff16815260200190815260200160002060006101000a81548160ff0219169083151502179055505050565b604051806060016040528060008152602001600081526020016000151581525090565b6000813590506122d481613805565b92915050565b600082601f8301126122eb57600080fd5b81356122fe6122f982613634565b613607565b9150818183526020840193506020810190508360005b83811015612344578135860161232a888261238d565b845260208401935060208301925050600181019050612314565b5050505092915050565b60008135905061235d8161381c565b92915050565b6000815190506123728161381c565b92915050565b60008135905061238781613833565b92915050565b600082601f83011261239e57600080fd5b81356123b16123ac8261365c565b613607565b915080825260208301602083018583830111156123cd57600080fd5b6123d88382846137b2565b50505092915050565b6000813590506123f08161384a565b92915050565b6000815190506124058161384a565b92915050565b60006020828403121561241d57600080fd5b600061242b848285016122c5565b91505092915050565b6000806040838503121561244757600080fd5b6000612455858286016122c5565b92505060206124668582860161234e565b9150509250929050565b6000806040838503121561248357600080fd5b6000612491858286016122c5565b92505060206124a2858286016123e1565b9150509250929050565b600080600080600060a086880312156124c457600080fd5b60006124d2888289016122c5565b95505060206124e3888289016123e1565b94505060406124f488828901612378565b9350506060612505888289016123e1565b925050608086013567ffffffffffffffff81111561252257600080fd5b61252e888289016122da565b9150509295509295909350565b600080600080600080600060e0888a03121561255657600080fd5b60006125648a828b016122c5565b97505060206125758a828b016123e1565b96505060406125868a828b01612378565b95505060606125978a828b016123e1565b94505060806125a88a828b01612378565b93505060a06125b98a828b016123e1565b92505060c088013567ffffffffffffffff8111156125d657600080fd5b6125e28a828b016122da565b91505092959891949750929550565b60006020828403121561260357600080fd5b600061261184828501612363565b91505092915050565b60006020828403121561262c57600080fd5b600061263a848285016123e1565b91505092915050565b60006020828403121561265557600080fd5b6000612663848285016123f6565b91505092915050565b60008060006060848603121561268157600080fd5b600061268f868287016123e1565b93505060206126a0868287016123e1565b92505060406126b186828701612378565b9150509250925092565b60006126c783836127c8565b905092915050565b6126d881613758565b82525050565b6126e7816136f9565b82525050565b60006126f882613698565b61270281856136c6565b93508360208202850161271485613688565b8060005b85811015612750578484038952815161273185826126bb565b945061273c836136b9565b925060208a01995050600181019050612718565b50829750879550505050505092915050565b61276b8161370b565b82525050565b61277a81613717565b82525050565b6127898161376a565b82525050565b600061279a826136ae565b6127a481856136e8565b93506127b48185602086016137c1565b6127bd816137f4565b840191505092915050565b60006127d3826136a3565b6127dd81856136d7565b93506127ed8185602086016137c1565b6127f6816137f4565b840191505092915050565b600061280e6014836136e8565b91507f5061757361626c653a206e6f74207061757365640000000000000000000000006000830152602082019050919050565b600061284e601f836136e8565b91507f526f6c65733a206163636f756e7420616c72656164792068617320726f6c65006000830152602082019050919050565b600061288e6025836136e8565b91507f436f6e747261746f206573706563c3ad6669636f206ec3a36f20657374c3a12060008301527f617469766f0000000000000000000000000000000000000000000000000000006020830152604082019050919050565b60006128f4601c836136e8565b91507f436f6e747261746f207072656369736120657374617220617469766f000000006000830152602082019050919050565b60006129346030836136e8565b91507f506175736572526f6c653a2063616c6c657220646f6573206e6f74206861766560008301527f207468652050617573657220726f6c65000000000000000000000000000000006020830152604082019050919050565b600061299a6026836136e8565b91507f4f776e61626c653a206e6577206f776e657220697320746865207a65726f206160008301527f64647265737300000000000000000000000000000000000000000000000000006020830152604082019050919050565b6000612a006017836136e8565b91507f436f6e747261746f206ac3a1207265676973747261646f0000000000000000006000830152602082019050919050565b6000612a40601b836136e8565b91507f536166654d6174683a206164646974696f6e206f766572666c6f7700000000006000830152602082019050919050565b6000612a806035836136e8565b91507f56616c6f72206120736572207472616e736163696f6e61646f2064657665207360008301527f6572206d61696f7220646f20717565207a65726f2e00000000000000000000006020830152604082019050919050565b6000612ae66022836136e8565b91507f436f6e747261746f206465206e65676f63696f206e616f20726567697374726160008301527f646f0000000000000000000000000000000000000000000000000000000000006020830152604082019050919050565b6000612b4c6010836136e8565b91507f5061757361626c653a20706175736564000000000000000000000000000000006000830152602082019050919050565b6000612b8c6021836136e8565b91507f526f6c65733a206163636f756e7420646f6573206e6f74206861766520726f6c60008301527f65000000000000000000000000000000000000000000000000000000000000006020830152604082019050919050565b6000612bf2602c836136e8565b91507f436f6e747261746f207072656369736120657374617220617469766f2070617260008301527f61206861766572206275726e00000000000000000000000000000000000000006020830152604082019050919050565b6000612c586020836136e8565b91507f4f776e61626c653a2063616c6c6572206973206e6f7420746865206f776e65726000830152602082019050919050565b6000612c98604c836136e8565b91507f4dc3a9746f646f2073c3b320706f646520736572206368616d61646f20706f7260008301527f20636f6e747261746f206465206e6567c3b363696f207072657669616d656e7460208301527f65206361646173747261646f00000000000000000000000000000000000000006040830152606082019050919050565b6000612d246022836136e8565b91507f526f6c65733a206163636f756e7420697320746865207a65726f20616464726560008301527f73730000000000000000000000000000000000000000000000000000000000006020830152604082019050919050565b6000612d8a604a836136e8565b91507f436f6e746120646f206f776e657220646f20636f6e747261746f20657370656360008301527fc3ad6669636f207072656369736120657374617220636f6d206361646173747260208301527f6f2076616c696461646f000000000000000000000000000000000000000000006040830152606082019050919050565b6000612e16603b836136e8565b91507f4dc3a9746f646f2073c3b320706f646520736572206368616d61646f20706f7260008301527f20636f6e747261746f206465206e6567c3b363696f20617469766f00000000006020830152604082019050919050565b6000612e7c602a836136e8565b91507f56616c6f72206120717565696d6172206465766520736572206d61696f72206460008301527f6f20717565207a65726f000000000000000000000000000000000000000000006020830152604082019050919050565b6000612ee26037836136e8565b91507f436f6e747261746f206573706563c3ad6669636f20657370656369666963616460008301527f6f206ec3a36f20657374c3a1207265676973747261646f0000000000000000006020830152604082019050919050565b6000612f486033836136e8565b91507f436f6e7461206465206f726967656d207072656369736120657374617220636f60008301527f6d20636164617374726f2076616c696461646f000000000000000000000000006020830152604082019050919050565b6000612fae6034836136e8565b91507f436f6e74612064652064657374696e6f2070726563697361206573746172206360008301527f6f6d20636164617374726f2076616c696461646f0000000000000000000000006020830152604082019050919050565b61301081613741565b82525050565b61301f8161374b565b82525050565b600060208201905061303a60008301846126de565b92915050565b600060208201905061305560008301846126cf565b92915050565b600060408201905061307060008301856126de565b61307d6020830184613007565b9392505050565b600060808201905061309960008301876126de565b6130a66020830186613007565b6130b36040830185612771565b6130c06060830184613007565b95945050505050565b600060c0820190506130de60008301896126de565b6130eb6020830188613007565b6130f86040830187612771565b6131056060830186613007565b6131126080830185612771565b61311f60a0830184613007565b979650505050505050565b600060208201905061313f6000830184612762565b92915050565b600060208201905061315a6000830184612771565b92915050565b60006020820190506131756000830184612780565b92915050565b60006020820190508181036000830152613195818461278f565b905092915050565b600060208201905081810360008301526131b681612801565b9050919050565b600060208201905081810360008301526131d681612841565b9050919050565b600060208201905081810360008301526131f681612881565b9050919050565b60006020820190508181036000830152613216816128e7565b9050919050565b6000602082019050818103600083015261323681612927565b9050919050565b600060208201905081810360008301526132568161298d565b9050919050565b60006020820190508181036000830152613276816129f3565b9050919050565b6000602082019050818103600083015261329681612a33565b9050919050565b600060208201905081810360008301526132b681612a73565b9050919050565b600060208201905081810360008301526132d681612ad9565b9050919050565b600060208201905081810360008301526132f681612b3f565b9050919050565b6000602082019050818103600083015261331681612b7f565b9050919050565b6000602082019050818103600083015261333681612be5565b9050919050565b6000602082019050818103600083015261335681612c4b565b9050919050565b6000602082019050818103600083015261337681612c8b565b9050919050565b6000602082019050818103600083015261339681612d17565b9050919050565b600060208201905081810360008301526133b681612d7d565b9050919050565b600060208201905081810360008301526133d681612e09565b9050919050565b600060208201905081810360008301526133f681612e6f565b9050919050565b6000602082019050818103600083015261341681612ed5565b9050919050565b6000602082019050818103600083015261343681612f3b565b9050919050565b6000602082019050818103600083015261345681612fa1565b9050919050565b60006020820190506134726000830184613007565b92915050565b600060408201905061348d6000830185613007565b61349a6020830184612762565b9392505050565b60006080820190506134b66000830187613007565b6134c36020830186612771565b6134d06040830185613007565b81810360608301526134e281846126ed565b905095945050505050565b600060c0820190506135026000830189613007565b61350f6020830188612771565b61351c6040830187613007565b6135296060830186612771565b6135366080830185613007565b81810360a083015261354881846126ed565b9050979650505050505050565b600060408201905061356a6000830185613007565b6135776020830184613007565b9392505050565b60006060820190506135936000830186613007565b6135a06020830185613007565b6135ad60408301846126de565b949350505050565b60006060820190506135ca6000830186613007565b6135d76020830185613007565b6135e46040830184612762565b949350505050565b60006020820190506136016000830184613016565b92915050565b6000604051905081810181811067ffffffffffffffff8211171561362a57600080fd5b8060405250919050565b600067ffffffffffffffff82111561364b57600080fd5b602082029050602081019050919050565b600067ffffffffffffffff82111561367357600080fd5b601f19601f8301169050602081019050919050565b6000819050602082019050919050565b600081519050919050565b600081519050919050565b600081519050919050565b6000602082019050919050565b600082825260208201905092915050565b600082825260208201905092915050565b600082825260208201905092915050565b600061370482613721565b9050919050565b60008115159050919050565b6000819050919050565b600073ffffffffffffffffffffffffffffffffffffffff82169050919050565b6000819050919050565b600060ff82169050919050565b60006137638261378e565b9050919050565b60006137758261377c565b9050919050565b600061378782613721565b9050919050565b6000613799826137a0565b9050919050565b60006137ab82613721565b9050919050565b82818337600083830152505050565b60005b838110156137df5780820151818401526020810190506137c4565b838111156137ee576000848401525b50505050565b6000601f19601f8301169050919050565b61380e816136f9565b811461381957600080fd5b50565b6138258161370b565b811461383057600080fd5b50565b61383c81613717565b811461384757600080fd5b50565b61385381613741565b811461385e57600080fd5b5056fe53616c646f206461206f726967656d206ec3a36f20c3a920737566696369656e746520706172612061207472616e73666572c3aa6e636961a365627a7a72315820f629453a17caf09f4abfaebfb3aff95f55a48a3d1057c3870f4abaebd7ff1fa26c6578706572696d656e74616cf564736f6c63430005100040",
  "source": "pragma solidity ^0.5.0;\npragma experimental ABIEncoderV2;\n\n\nimport \"./RBBLib.sol\";\nimport \"./RBBRegistry.sol\";\nimport \"./SpecificRBBToken.sol\";\nimport \"@openzeppelin/contracts/ownership/Ownable.sol\";\nimport \"@openzeppelin/contracts/lifecycle/Pausable.sol\";\nimport \"@openzeppelin/contracts/math/SafeMath.sol\";\n\n//todo: decidir usar id or addr para os contratos especificos\n//TODO: framework de mudanca e gestao descentralizada de mints e burns\ncontract BusinessContractRegistry is Ownable {\n\n    //It starts with 1, because 0 is the id value returned when the item is not found in the businessContractsRegistry\n    uint public idCount = 1;\n\n    struct BusinessContractInfo {\n        uint id;\n        uint ownerId;\n        bool isActive;\n    }\n\n    event BusinessContractRegistration (uint id, uint ownerId, address addr);\n    event BusinessContractStateChange (uint id, bool state);\n\n    //indexado pelo address pq serah a forma mais usada para consulta.\n    mapping (address => BusinessContractInfo) public businessContractsRegistry;\n\n    modifier onlyByRegisteredAndActiveContracts {\n        require(containsBusinessContract(msg.sender), \"Mtodo s pode ser chamado por contrato de negcio previamente cadastrado\");\n        require(isBusinessContractActive(msg.sender), \"Mtodo s pode ser chamado por contrato de negcio ativo\");\n        _;\n    }\n\n//TODO: adicionar como ponto positivo do contrato genrico no PPT. nao eh possivel mudar o uint do owner sem mudar o contrato\n    function registerBusinessContract (address addr, uint ownerId) public onlyOwner returns (uint)  {\n        require (!containsBusinessContract(addr), \"Contrato j registrado\");\n        businessContractsRegistry[addr] = BusinessContractInfo(idCount, ownerId, true);\n        emit BusinessContractRegistration (idCount, ownerId, addr);\n        idCount++;\n    }\n\n    function getBusinessContractId (address addr) public view returns (uint) {\n        require (containsBusinessContract(addr), \"Contrato de negocio nao registrado\");\n        BusinessContractInfo memory info = businessContractsRegistry[addr];\n        return info.id;\n    }\n\n    function getBusinessContractIdAndOwnerId (address addr) public view returns (uint, uint) {\n        require (containsBusinessContract(addr), \"Contrato de negocio nao registrado\");\n        BusinessContractInfo memory info = businessContractsRegistry[addr];\n        return (info.id, info.ownerId);\n    }\n    \n    function containsBusinessContract(address addr) public view returns (bool) {\n        BusinessContractInfo memory info = businessContractsRegistry[addr];\n        if (info.id!=0) return true;\n        else return false;\n    }\n\n    function isBusinessContractActive(address addr) public view returns (bool) {\n        require (containsBusinessContract(addr), \"Contrato de negocio nao registrado\");\n        BusinessContractInfo memory info = businessContractsRegistry[addr];\n        return info.isActive;\n    }\n\n    function setStatus(address addr, bool status) public onlyOwner returns (bool) {\n        require (containsBusinessContract(addr), \"Contrato de negocio nao registrado\");\n        BusinessContractInfo storage info = businessContractsRegistry[addr];\n        info.isActive = status;\n        emit BusinessContractStateChange(info.id, info.isActive);\n    }\n}\n\n//TODO: pensar - se precisasse fazer upgrade de um contrato, seria somente registrar um contrato com id do anterior. Criar um metodo para facilitar isso para facilitar o cdigo de mudanas?\ncontract RBBToken is Pausable, BusinessContractRegistry {\n\n    using SafeMath for uint;\n\n    RBBRegistry public registry;\n\n    uint8 public decimals = 2;\n    bytes32 public RESERVED_HASH_VALUE = 0x0000000000000000000000000000000000000000000000000000000000000000;\n\n    //businessContractId => (RBBid => (specificHash => amount)\n    mapping (uint => mapping (uint => mapping (bytes32 => uint))) public rbbBalances;\n\n//todo: incluir parametro de data nos eventos de transfer e redeem\n    event RBBMintRequest(address businessContractAddr, uint amount);\n    event RBBTokenMint(address businessContractAddr, uint amount);\n    event RBBTokenBurn(address businessContractAddr, uint amount);\n    event RBBRedemptionRequested (address businessContractAddr, uint fromId, bytes32 fromHash, uint amount);\n\n    event RBBTokenTransfer (address businessContractAddr, uint fromId, bytes32 fromHash, uint toId,\n                            bytes32 toHash, uint amount);\n\n\n    constructor (address newRegistryAddr, uint8 _decimals) public {\n        registry = RBBRegistry(newRegistryAddr);\n        decimals = _decimals;\n    }\n\n//AVALIAR\n    function getBndesId() view public returns (uint) {\n        uint bndesId = registry.getId(owner());\n        return bndesId;\n    }\n\n///******************************************************************* */\n\n    function requestMint(uint amount) public onlyByRegisteredAndActiveContracts {\n    \n        require (amount>0, \"Valor a ser transacionado deve ser maior do que zero.\");\n        address businessContractAddr = msg.sender;\n    \n    //TODO: precisa guardar em uma estrutuda de dados?\n        emit RBBMintRequest(businessContractAddr, amount);\n\n    }\n\n    function mint(address businessContractAddr, uint amount) public onlyOwner {\n\n        require(isBusinessContractActive(businessContractAddr), \"Contrato precisa estar ativo\");\n        \n        (uint businessContractId, uint businessContractOwnerId) = \n                    getBusinessContractIdAndOwnerId(businessContractAddr);\n        \n        rbbBalances[businessContractId][businessContractOwnerId][RESERVED_HASH_VALUE] = \n            rbbBalances[businessContractId][businessContractOwnerId][RESERVED_HASH_VALUE].add(amount);\n\n        emit RBBTokenMint(businessContractAddr, amount);\n    }\n\n    function burn (address businessContractAddr, uint amount) public onlyOwner {\n\n        (uint businessContractId, uint businessContractOwnerId) = \n                    getBusinessContractIdAndOwnerId(businessContractAddr);\n//TODO: confirmar que no contrato precisa ter cadastro validado para ter esse burn\n        _burn(businessContractAddr, businessContractOwnerId, RESERVED_HASH_VALUE, amount);\n\n    }\n\n    function _burn(address businessContractAddr, uint fromId, bytes32 fromHash, uint amount) internal {\n        \n        require(isBusinessContractActive(businessContractAddr), \"Contrato precisa estar ativo para haver burn\");\n        require(amount>0, \"Valor a queimar deve ser maior do que zero\");\n        \n        uint businessContractId = getBusinessContractId(businessContractAddr);\n\n        rbbBalances[businessContractId][fromId][fromHash].sub(amount, \"Burn amount exceeds balance\");\n\n        emit RBBTokenBurn(businessContractAddr, amount);\n    }\n\n///******************************************************************* */\n\n\n//chamados de interveno manual tambm seriam feitos pelo transfer, com verificao de intervencao manual\n\n//TODO: incluir hash de registro um objeto genrico para registrar informacoes\n    function transfer (address businessContractAddr, uint fromId, bytes32 fromHash, uint toId, bytes32 toHash, \n            uint amount, string[] memory data) public whenNotPaused {\n\n        require(containsBusinessContract(businessContractAddr), \"Contrato especfico especificado no est registrado\");\n        require(isBusinessContractActive(businessContractAddr), \"Contrato especfico no est ativo\");\n        require(registry.isValidatedId(fromId), \"Conta de origem precisa estar com cadastro validado\");\n        require(registry.isValidatedId(toId), \"Conta de destino precisa estar com cadastro validado\");\n        uint businessContractId = getBusinessContractId(businessContractAddr);\n\n        SpecificRBBToken specificContract = SpecificRBBToken(businessContractAddr);\n        specificContract.verifyAndActForTransfer(fromId, fromHash, toId, toHash, amount, data);\n\n        //altera valores de saldo\n        rbbBalances[businessContractId][fromId][fromHash] =\n                rbbBalances[businessContractId][fromId][fromHash].sub(amount, \"Saldo da origem no  suficiente para a transferncia\");\n        rbbBalances[businessContractId][toId][toHash] = rbbBalances[businessContractId][toId][toHash].add(amount);\n\n        emit RBBTokenTransfer (businessContractAddr, fromId, fromHash, toId, toHash, amount);\n\n    }\n\n    function allocate (address businessContractAddr, uint toId, bytes32 toHash, uint amount, string[] memory data) public \n        whenNotPaused {\n\n            (uint businessContractId, uint businessContractOwnerId) = \n                    getBusinessContractIdAndOwnerId(businessContractAddr);\n\n            require(registry.isValidatedId(businessContractOwnerId), \"Conta do owner do contrato especfico precisa estar com cadastro validado\");\n            transfer(businessContractAddr, businessContractOwnerId, RESERVED_HASH_VALUE, toId, toHash, amount, data);\n    }\n\n    function redeem (address businessContractAddr, uint fromId, bytes32 fromHash, uint amount, string[] memory data) public \n        whenNotPaused  {\n\n            (uint businessContractId, uint businessContractOwnerId) = \n                    getBusinessContractIdAndOwnerId(businessContractAddr);\n\n            require(registry.isValidatedId(businessContractOwnerId), \"Conta do owner do contrato especfico precisa estar com cadastro validado\");\n\n            SpecificRBBToken specificContract = SpecificRBBToken(businessContractAddr);\n            specificContract.verifyAndActForRedeem(fromId, fromHash, amount, data);\n\n            emit RBBRedemptionRequested(businessContractAddr, fromId, fromHash, amount);\n            _burn(businessContractAddr, fromId, fromHash, amount);\n    }\n\n///******************************************************************* */\n\n\n/*    \n    function getReservedBalanceByBusinessContract(address businessContractAddr) view public returns (uint) {\n        uint businessContractId = getBusinessContractId(businessContractAddr);\n        return rbbBalances[businessContractId][RESERVED_ID_VALUE][RESERVED_HASH_VALUE];\n    }\n*/\n\n    function getDecimals() public view returns (uint8) {\n        return decimals;\n    }\n\n}",
  "sourcePath": "/Users/suzana.moreno/workspace/rbb-token/Back-Blockchain/contracts/RBBToken.sol",
  "compiler": {
    "name": "solc",
    "version": "0.5.16+commit.9c3226ce.Emscripten.clang"
  },
  "schemaVersion": "3.0.23",
  "updatedAt": "2020-09-15T18:29:38.422Z",
  "devdoc": {
    "methods": {
      "isOwner()": {
        "details": "Returns true if the caller is the current owner."
      },
      "owner()": {
        "details": "Returns the address of the current owner."
      },
      "pause()": {
        "details": "Called by a pauser to pause, triggers stopped state."
      },
      "paused()": {
        "details": "Returns true if the contract is paused, and false otherwise."
      },
      "renounceOwnership()": {
        "details": "Leaves the contract without owner. It will not be possible to call `onlyOwner` functions anymore. Can only be called by the current owner.     * NOTE: Renouncing ownership will leave the contract without an owner, thereby removing any functionality that is only available to the owner."
      },
      "transferOwnership(address)": {
        "details": "Transfers ownership of the contract to a new account (`newOwner`). Can only be called by the current owner."
      },
      "unpause()": {
        "details": "Called by a pauser to unpause, returns to normal state."
      }
    }
  },
  "userdoc": {
    "methods": {
      "getDecimals()": {
        "notice": "******************************************************************* */"
      },
      "requestMint(uint256)": {
        "notice": "******************************************************************* */"
      },
      "transfer(address,uint256,bytes32,uint256,bytes32,uint256,string[])": {
        "notice": "******************************************************************* */"
      }
    }
  }
}