{
  "contractName": "RBBToken",
  "abi": [
    {
      "inputs": [
        {
          "internalType": "address",
          "name": "newRegistryAddr",
          "type": "address"
        },
        {
          "internalType": "uint8",
          "name": "_decimals",
          "type": "uint8"
        }
      ],
      "stateMutability": "nonpayable",
      "type": "constructor"
    },
    {
      "anonymous": false,
      "inputs": [
        {
          "indexed": false,
          "internalType": "uint256",
          "name": "id",
          "type": "uint256"
        },
        {
          "indexed": false,
          "internalType": "uint256",
          "name": "ownerId",
          "type": "uint256"
        },
        {
          "indexed": false,
          "internalType": "address",
          "name": "addr",
          "type": "address"
        }
      ],
      "name": "BusinessContractRegistration",
      "type": "event"
    },
    {
      "anonymous": false,
      "inputs": [
        {
          "indexed": false,
          "internalType": "uint256",
          "name": "id",
          "type": "uint256"
        },
        {
          "indexed": false,
          "internalType": "bool",
          "name": "state",
          "type": "bool"
        }
      ],
      "name": "BusinessContractStateChange",
      "type": "event"
    },
    {
      "anonymous": false,
      "inputs": [
        {
          "indexed": true,
          "internalType": "address",
          "name": "previousOwner",
          "type": "address"
        },
        {
          "indexed": true,
          "internalType": "address",
          "name": "newOwner",
          "type": "address"
        }
      ],
      "name": "OwnershipTransferred",
      "type": "event"
    },
    {
      "anonymous": false,
      "inputs": [
        {
          "indexed": false,
          "internalType": "address",
          "name": "account",
          "type": "address"
        }
      ],
      "name": "Paused",
      "type": "event"
    },
    {
      "anonymous": false,
      "inputs": [
        {
          "indexed": true,
          "internalType": "address",
          "name": "account",
          "type": "address"
        }
      ],
      "name": "PauserAdded",
      "type": "event"
    },
    {
      "anonymous": false,
      "inputs": [
        {
          "indexed": true,
          "internalType": "address",
          "name": "account",
          "type": "address"
        }
      ],
      "name": "PauserRemoved",
      "type": "event"
    },
    {
      "anonymous": false,
      "inputs": [
        {
          "indexed": false,
          "internalType": "address",
          "name": "businessContractAddr",
          "type": "address"
        },
        {
          "indexed": false,
          "internalType": "uint256",
          "name": "fromId",
          "type": "uint256"
        },
        {
          "indexed": false,
          "internalType": "bytes32",
          "name": "fromHash",
          "type": "bytes32"
        },
        {
          "indexed": false,
          "internalType": "uint256",
          "name": "amount",
          "type": "uint256"
        }
      ],
      "name": "RBBTokenBurn",
      "type": "event"
    },
    {
      "anonymous": false,
      "inputs": [
        {
          "indexed": false,
          "internalType": "address",
          "name": "businessContractAddr",
          "type": "address"
        },
        {
          "indexed": false,
          "internalType": "bytes32",
          "name": "specificHash",
          "type": "bytes32"
        },
        {
          "indexed": false,
          "internalType": "uint256",
          "name": "amount",
          "type": "uint256"
        },
        {
          "indexed": false,
          "internalType": "string",
          "name": "docHash",
          "type": "string"
        },
        {
          "indexed": false,
          "internalType": "string[]",
          "name": "data",
          "type": "string[]"
        }
      ],
      "name": "RBBTokenMint",
      "type": "event"
    },
    {
      "anonymous": false,
      "inputs": [
        {
          "indexed": false,
          "internalType": "address",
          "name": "businessContractAddr",
          "type": "address"
        },
        {
          "indexed": false,
          "internalType": "bytes32",
          "name": "specificHash",
          "type": "bytes32"
        },
        {
          "indexed": false,
          "internalType": "uint256",
          "name": "idInvestor",
          "type": "uint256"
        },
        {
          "indexed": false,
          "internalType": "uint256",
          "name": "amount",
          "type": "uint256"
        }
      ],
      "name": "RBBTokenMintRequest",
      "type": "event"
    },
    {
      "anonymous": false,
      "inputs": [
        {
          "indexed": false,
          "internalType": "address",
          "name": "businessContractAddr",
          "type": "address"
        },
        {
          "indexed": false,
          "internalType": "uint256",
          "name": "fromId",
          "type": "uint256"
        },
        {
          "indexed": false,
          "internalType": "bytes32",
          "name": "fromHash",
          "type": "bytes32"
        },
        {
          "indexed": false,
          "internalType": "uint256",
          "name": "amount",
          "type": "uint256"
        },
        {
          "indexed": false,
          "internalType": "string[]",
          "name": "data",
          "type": "string[]"
        }
      ],
      "name": "RBBTokenRedemptionRequested",
      "type": "event"
    },
    {
      "anonymous": false,
      "inputs": [
        {
          "indexed": false,
          "internalType": "address",
          "name": "businessContractAddr",
          "type": "address"
        },
        {
          "indexed": false,
          "internalType": "string",
          "name": "redemptionTransactionHash",
          "type": "string"
        },
        {
          "indexed": false,
          "internalType": "string",
          "name": "receiptHash",
          "type": "string"
        },
        {
          "indexed": false,
          "internalType": "string[]",
          "name": "data",
          "type": "string[]"
        }
      ],
      "name": "RBBTokenRedemptionSettlement",
      "type": "event"
    },
    {
      "anonymous": false,
      "inputs": [
        {
          "indexed": false,
          "internalType": "address",
          "name": "businessContractAddr",
          "type": "address"
        },
        {
          "indexed": false,
          "internalType": "uint256",
          "name": "fromId",
          "type": "uint256"
        },
        {
          "indexed": false,
          "internalType": "bytes32",
          "name": "fromHash",
          "type": "bytes32"
        },
        {
          "indexed": false,
          "internalType": "uint256",
          "name": "toId",
          "type": "uint256"
        },
        {
          "indexed": false,
          "internalType": "bytes32",
          "name": "toHash",
          "type": "bytes32"
        },
        {
          "indexed": false,
          "internalType": "uint256",
          "name": "amount",
          "type": "uint256"
        },
        {
          "indexed": false,
          "internalType": "string[]",
          "name": "data",
          "type": "string[]"
        }
      ],
      "name": "RBBTokenTransfer",
      "type": "event"
    },
    {
      "anonymous": false,
      "inputs": [
        {
          "indexed": false,
          "internalType": "address",
          "name": "account",
          "type": "address"
        }
      ],
      "name": "Unpaused",
      "type": "event"
    },
    {
      "inputs": [],
      "name": "RESERVED_HASH_VALUE",
      "outputs": [
        {
          "internalType": "bytes32",
          "name": "",
          "type": "bytes32"
        }
      ],
      "stateMutability": "view",
      "type": "function"
    },
    {
      "inputs": [
        {
          "internalType": "address",
          "name": "account",
          "type": "address"
        }
      ],
      "name": "addPauser",
      "outputs": [],
      "stateMutability": "nonpayable",
      "type": "function"
    },
    {
      "inputs": [
        {
          "internalType": "uint256",
          "name": "",
          "type": "uint256"
        },
        {
          "internalType": "bytes32",
          "name": "",
          "type": "bytes32"
        }
      ],
      "name": "balaceRequestedTokens",
      "outputs": [
        {
          "internalType": "uint256",
          "name": "",
          "type": "uint256"
        }
      ],
      "stateMutability": "view",
      "type": "function"
    },
    {
      "inputs": [
        {
          "internalType": "address",
          "name": "",
          "type": "address"
        }
      ],
      "name": "businessContractsRegistry",
      "outputs": [
        {
          "internalType": "uint256",
          "name": "id",
          "type": "uint256"
        },
        {
          "internalType": "bool",
          "name": "isActive",
          "type": "bool"
        }
      ],
      "stateMutability": "view",
      "type": "function"
    },
    {
      "inputs": [
        {
          "internalType": "address",
          "name": "addr",
          "type": "address"
        }
      ],
      "name": "containsBusinessContract",
      "outputs": [
        {
          "internalType": "bool",
          "name": "",
          "type": "bool"
        }
      ],
      "stateMutability": "view",
      "type": "function"
    },
    {
      "inputs": [],
      "name": "decimals",
      "outputs": [
        {
          "internalType": "uint8",
          "name": "",
          "type": "uint8"
        }
      ],
      "stateMutability": "view",
      "type": "function"
    },
    {
      "inputs": [
        {
          "internalType": "address",
          "name": "addr",
          "type": "address"
        }
      ],
      "name": "getBusinessContractId",
      "outputs": [
        {
          "internalType": "uint256",
          "name": "",
          "type": "uint256"
        }
      ],
      "stateMutability": "view",
      "type": "function"
    },
    {
      "inputs": [
        {
          "internalType": "address",
          "name": "addr",
          "type": "address"
        }
      ],
      "name": "getBusinessContractIdAndOwnerId",
      "outputs": [
        {
          "internalType": "uint256",
          "name": "",
          "type": "uint256"
        },
        {
          "internalType": "uint256",
          "name": "",
          "type": "uint256"
        }
      ],
      "stateMutability": "view",
      "type": "function"
    },
    {
      "inputs": [],
      "name": "idCount",
      "outputs": [
        {
          "internalType": "uint256",
          "name": "",
          "type": "uint256"
        }
      ],
      "stateMutability": "view",
      "type": "function"
    },
    {
      "inputs": [
        {
          "internalType": "address",
          "name": "addr",
          "type": "address"
        }
      ],
      "name": "isBusinessContractActive",
      "outputs": [
        {
          "internalType": "bool",
          "name": "",
          "type": "bool"
        }
      ],
      "stateMutability": "view",
      "type": "function"
    },
    {
      "inputs": [],
      "name": "isOwner",
      "outputs": [
        {
          "internalType": "bool",
          "name": "",
          "type": "bool"
        }
      ],
      "stateMutability": "view",
      "type": "function"
    },
    {
      "inputs": [
        {
          "internalType": "address",
          "name": "account",
          "type": "address"
        }
      ],
      "name": "isPauser",
      "outputs": [
        {
          "internalType": "bool",
          "name": "",
          "type": "bool"
        }
      ],
      "stateMutability": "view",
      "type": "function"
    },
    {
      "inputs": [],
      "name": "owner",
      "outputs": [
        {
          "internalType": "address",
          "name": "",
          "type": "address"
        }
      ],
      "stateMutability": "view",
      "type": "function"
    },
    {
      "inputs": [],
      "name": "pause",
      "outputs": [],
      "stateMutability": "nonpayable",
      "type": "function"
    },
    {
      "inputs": [],
      "name": "paused",
      "outputs": [
        {
          "internalType": "bool",
          "name": "",
          "type": "bool"
        }
      ],
      "stateMutability": "view",
      "type": "function"
    },
    {
      "inputs": [
        {
          "internalType": "uint256",
          "name": "",
          "type": "uint256"
        },
        {
          "internalType": "uint256",
          "name": "",
          "type": "uint256"
        },
        {
          "internalType": "bytes32",
          "name": "",
          "type": "bytes32"
        }
      ],
      "name": "rbbBalances",
      "outputs": [
        {
          "internalType": "uint256",
          "name": "",
          "type": "uint256"
        }
      ],
      "stateMutability": "view",
      "type": "function"
    },
    {
      "inputs": [
        {
          "internalType": "address",
          "name": "businessContractAddr",
          "type": "address"
        }
      ],
      "name": "registerBusinessContract",
      "outputs": [
        {
          "internalType": "uint256",
          "name": "",
          "type": "uint256"
        }
      ],
      "stateMutability": "nonpayable",
      "type": "function"
    },
    {
      "inputs": [],
      "name": "registry",
      "outputs": [
        {
          "internalType": "contract RBBRegistry",
          "name": "",
          "type": "address"
        }
      ],
      "stateMutability": "view",
      "type": "function"
    },
    {
      "inputs": [],
      "name": "renounceOwnership",
      "outputs": [],
      "stateMutability": "nonpayable",
      "type": "function"
    },
    {
      "inputs": [],
      "name": "renouncePauser",
      "outputs": [],
      "stateMutability": "nonpayable",
      "type": "function"
    },
    {
      "inputs": [
        {
          "internalType": "address",
          "name": "addr",
          "type": "address"
        },
        {
          "internalType": "bool",
          "name": "status",
          "type": "bool"
        }
      ],
      "name": "setStatus",
      "outputs": [
        {
          "internalType": "bool",
          "name": "",
          "type": "bool"
        }
      ],
      "stateMutability": "nonpayable",
      "type": "function"
    },
    {
      "inputs": [
        {
          "internalType": "address",
          "name": "newOwner",
          "type": "address"
        }
      ],
      "name": "transferOwnership",
      "outputs": [],
      "stateMutability": "nonpayable",
      "type": "function"
    },
    {
      "inputs": [],
      "name": "unpause",
      "outputs": [],
      "stateMutability": "nonpayable",
      "type": "function"
    },
    {
      "inputs": [
        {
          "internalType": "bytes32",
          "name": "specificHash",
          "type": "bytes32"
        },
        {
          "internalType": "uint256",
          "name": "idInvestor",
          "type": "uint256"
        },
        {
          "internalType": "uint256",
          "name": "amount",
          "type": "uint256"
        }
      ],
      "name": "requestMint",
      "outputs": [],
      "stateMutability": "nonpayable",
      "type": "function"
    },
    {
      "inputs": [
        {
          "internalType": "address",
          "name": "businessContractAddr",
          "type": "address"
        },
        {
          "internalType": "bytes32",
          "name": "specificHash",
          "type": "bytes32"
        },
        {
          "internalType": "uint256",
          "name": "amount",
          "type": "uint256"
        },
        {
          "internalType": "string",
          "name": "docHash",
          "type": "string"
        },
        {
          "internalType": "string[]",
          "name": "data",
          "type": "string[]"
        }
      ],
      "name": "mint",
      "outputs": [],
      "stateMutability": "nonpayable",
      "type": "function"
    },
    {
      "inputs": [
        {
          "internalType": "uint256",
          "name": "amount",
          "type": "uint256"
        }
      ],
      "name": "burn",
      "outputs": [],
      "stateMutability": "nonpayable",
      "type": "function"
    },
    {
      "inputs": [
        {
          "internalType": "address",
          "name": "businessContractAddr",
          "type": "address"
        },
        {
          "internalType": "uint256",
          "name": "amount",
          "type": "uint256"
        }
      ],
      "name": "burn",
      "outputs": [],
      "stateMutability": "nonpayable",
      "type": "function"
    },
    {
      "inputs": [
        {
          "internalType": "address",
          "name": "businessContractAddr",
          "type": "address"
        },
        {
          "internalType": "bytes32",
          "name": "fromHash",
          "type": "bytes32"
        },
        {
          "internalType": "uint256",
          "name": "toId",
          "type": "uint256"
        },
        {
          "internalType": "bytes32",
          "name": "toHash",
          "type": "bytes32"
        },
        {
          "internalType": "uint256",
          "name": "amount",
          "type": "uint256"
        },
        {
          "internalType": "string[]",
          "name": "data",
          "type": "string[]"
        }
      ],
      "name": "transfer",
      "outputs": [],
      "stateMutability": "nonpayable",
      "type": "function"
    },
    {
      "inputs": [
        {
          "internalType": "address",
          "name": "businessContractAddr",
          "type": "address"
        },
        {
          "internalType": "uint256",
          "name": "fromId",
          "type": "uint256"
        },
        {
          "internalType": "bytes32",
          "name": "fromHash",
          "type": "bytes32"
        },
        {
          "internalType": "uint256",
          "name": "amount",
          "type": "uint256"
        },
        {
          "internalType": "string[]",
          "name": "data",
          "type": "string[]"
        }
      ],
      "name": "redeem",
      "outputs": [],
      "stateMutability": "nonpayable",
      "type": "function"
    },
    {
      "inputs": [
        {
          "internalType": "address",
          "name": "businessContractAddr",
          "type": "address"
        },
        {
          "internalType": "string",
          "name": "redemptionTransactionHash",
          "type": "string"
        },
        {
          "internalType": "string",
          "name": "receiptHash",
          "type": "string"
        },
        {
          "internalType": "string[]",
          "name": "data",
          "type": "string[]"
        }
      ],
      "name": "notifyRedemptionSettlement",
      "outputs": [],
      "stateMutability": "nonpayable",
      "type": "function"
    },
    {
      "inputs": [
        {
          "internalType": "address",
          "name": "businessContractAddr",
          "type": "address"
        }
      ],
      "name": "getReservedBalanceByBusinessContract",
      "outputs": [
        {
          "internalType": "uint256",
          "name": "",
          "type": "uint256"
        }
      ],
      "stateMutability": "view",
      "type": "function"
    },
    {
      "inputs": [],
      "name": "getDecimals",
      "outputs": [
        {
          "internalType": "uint8",
          "name": "",
          "type": "uint8"
        }
      ],
      "stateMutability": "view",
      "type": "function"
    }
  ],
  "bytecode": "0x608060405260016003556002600560006101000a81548160ff021916908360ff1602179055506000801b6006553480156200003957600080fd5b5060405162004b7438038062004b7483398181016040528101906200005f9190620003c3565b6200007f62000073620001ae60201b60201c565b620001b660201b60201c565b6000600160006101000a81548160ff0219169083151502179055506000620000ac620001ae60201b60201c565b9050806001806101000a81548173ffffffffffffffffffffffffffffffffffffffff021916908373ffffffffffffffffffffffffffffffffffffffff1602179055508073ffffffffffffffffffffffffffffffffffffffff16600073ffffffffffffffffffffffffffffffffffffffff167f8be0079c531659141344cd1fd0a4f28419497f9722a3daafe3b4186f6b6457e060405160405180910390a35081600260006101000a81548173ffffffffffffffffffffffffffffffffffffffff021916908373ffffffffffffffffffffffffffffffffffffffff16021790555080600560006101000a81548160ff021916908360ff160217905550505062000578565b600033905090565b620001d18160006200021760201b620025b61790919060201c565b8073ffffffffffffffffffffffffffffffffffffffff167f6719d08c1888103bea251a4ed56406bd0c3e69723c8a1686e017e7bbe159b6f860405160405180910390a250565b620002298282620002ca60201b60201c565b156200026c576040517f08c379a00000000000000000000000000000000000000000000000000000000081526004016200026390620004ae565b60405180910390fd5b60018260000160008373ffffffffffffffffffffffffffffffffffffffff1673ffffffffffffffffffffffffffffffffffffffff16815260200190815260200160002060006101000a81548160ff0219169083151502179055505050565b60008073ffffffffffffffffffffffffffffffffffffffff168273ffffffffffffffffffffffffffffffffffffffff1614156200033e576040517f08c379a00000000000000000000000000000000000000000000000000000000081526004016200033590620004d0565b60405180910390fd5b8260000160008373ffffffffffffffffffffffffffffffffffffffff1673ffffffffffffffffffffffffffffffffffffffff16815260200190815260200160002060009054906101000a900460ff16905092915050565b600081519050620003a68162000544565b92915050565b600081519050620003bd816200055e565b92915050565b60008060408385031215620003d757600080fd5b6000620003e78582860162000395565b9250506020620003fa85828601620003ac565b9150509250929050565b600062000413601f83620004f2565b91507f526f6c65733a206163636f756e7420616c72656164792068617320726f6c65006000830152602082019050919050565b600062000455602283620004f2565b91507f526f6c65733a206163636f756e7420697320746865207a65726f20616464726560008301527f73730000000000000000000000000000000000000000000000000000000000006020830152604082019050919050565b60006020820190508181036000830152620004c98162000404565b9050919050565b60006020820190508181036000830152620004eb8162000446565b9050919050565b600082825260208201905092915050565b6000620005108262000517565b9050919050565b600073ffffffffffffffffffffffffffffffffffffffff82169050919050565b600060ff82169050919050565b6200054f8162000503565b81146200055b57600080fd5b50565b620005698162000537565b81146200057557600080fd5b50565b6145ec80620005886000396000f3fe608060405234801561001057600080fd5b50600436106101f05760003560e01c80638b214c001161010f578063b987afcb116100a2578063e0ef4a6a11610071578063e0ef4a6a146105a7578063e6e46238146105c3578063f0141d84146105e1578063f2fde38b146105ff576101f0565b8063b987afcb146104fa578063c5b2f6a914610516578063cf13a0b514610547578063e0a08b7314610577576101f0565b806396b7bb1c116100de57806396b7bb1c146104745780639ca0daed146104905780639dc29fac146104ae578063b304f21c146104ca576101f0565b80638b214c00146103eb5780638da5cb5b1461041c5780638f18ccdc1461043a5780638f32d59b14610456576101f0565b806353d5f7cf116101875780637b103999116101565780637b1039991461037757806382dc1ec4146103955780638456cb59146103b157806388431f7a146103bb576101f0565b806353d5f7cf146103155780635c975abb146103455780636ef8d66d14610363578063715018a61461036d576101f0565b8063368ce3bd116101c3578063368ce3bd1461028f5780633f4ba83a146102bf57806342966c68146102c957806346fbf68e146102e5576101f0565b8063173d34a8146101f55780631b0721181461021157806330b4998314610241578063313ce56714610271575b600080fd5b61020f600480360381019061020a9190613096565b61061b565b005b61022b60048036038101906102269190612d21565b610833565b6040516102389190614147565b60405180910390f35b61025b60048036038101906102569190613173565b610886565b6040516102689190614147565b60405180910390f35b6102796108b8565b604051610286919061429f565b60405180910390f35b6102a960048036038101906102a49190612d21565b6108cb565b6040516102b69190614147565b60405180910390f35b6102c7610bff565b005b6102e360048036038101906102de91906130e5565b610cf8565b005b6102ff60048036038101906102fa9190612d21565b610db1565b60405161030c9190613d73565b60405180910390f35b61032f600480360381019061032a9190612d21565b610dce565b60405161033c9190613d73565b60405180910390f35b61034d610e9e565b60405161035a9190613d73565b60405180910390f35b61036b610eb5565b005b610375610ec7565b005b61037f610fcc565b60405161038c9190613dfc565b60405180910390f35b6103af60048036038101906103aa9190612d21565b610ff2565b005b6103b961104d565b005b6103d560048036038101906103d09190612d21565b611146565b6040516103e29190613d73565b60405180910390f35b61040560048036038101906104009190612d21565b6111e2565b60405161041392919061423f565b60405180910390f35b6104246113ef565b6040516104319190613aff565b60405180910390f35b610454600480360381019061044f9190612daf565b611417565b005b61045e61196b565b60405161046b9190613d73565b60405180910390f35b61048e60048036038101906104899190612fde565b6119c8565b005b610498611c5b565b6040516104a59190613d8e565b60405180910390f35b6104c860048036038101906104c39190612fa2565b611c61565b005b6104e460048036038101906104df9190612d73565b611ccc565b6040516104f19190613d73565b60405180910390f35b610514600480360381019061050f9190612ef7565b611e11565b005b610530600480360381019061052b9190612d21565b6120b6565b60405161053e929190614162565b60405180910390f35b610561600480360381019061055c9190613137565b6120e7565b60405161056e9190614147565b60405180910390f35b610591600480360381019061058c9190612d21565b61210c565b60405161059e9190614147565b60405180910390f35b6105c160048036038101906105bc9190612e50565b6121dc565b005b6105cb612546565b6040516105d89190614147565b60405180910390f35b6105e961254c565b6040516105f6919061429f565b60405180910390f35b61061960048036038101906106149190612d21565b612563565b005b61062433611146565b610663576040517f08c379a000000000000000000000000000000000000000000000000000000000815260040161065a90614067565b60405180910390fd5b61066c33610dce565b6106ab576040517f08c379a00000000000000000000000000000000000000000000000000000000081526004016106a2906140a7565b60405180910390fd5b600081116106ee576040517f08c379a00000000000000000000000000000000000000000000000000000000081526004016106e590613f87565b60405180910390fd5b60003390506106fc81611146565b61073b576040517f08c379a0000000000000000000000000000000000000000000000000000000008152600401610732906140c7565b60405180910390fd5b61074481610dce565b610783576040517f08c379a000000000000000000000000000000000000000000000000000000000815260040161077a90613ee7565b60405180910390fd5b600061078e8261210c565b90506107c7836008600084815260200190815260200160002060008881526020019081526020016000205461265e90919063ffffffff16565b600860008381526020019081526020016000206000878152602001908152602001600020819055507f20e5c426031bbf4a72750a5a2e7ba9ac82d5a16e1d5ccb393e054ca494975485828686866040516108249493929190613bbf565b60405180910390a15050505050565b6000806000610841846111e2565b91509150600760008381526020019081526020016000206000828152602001908152602001600020600060065481526020019081526020016000205492505050919050565b600760205282600052604060002060205281600052604060002060205280600052604060002060009250925050505481565b600560009054906101000a900460ff1681565b60006108d561196b565b610914576040517f08c379a000000000000000000000000000000000000000000000000000000000815260040161090b90614047565b60405180910390fd5b61091d82611146565b1561095d576040517f08c379a000000000000000000000000000000000000000000000000000000000815260040161095490613f47565b60405180910390fd5b60008290508073ffffffffffffffffffffffffffffffffffffffff16633dfdcfab600260009054906101000a900473ffffffffffffffffffffffffffffffffffffffff16306040518363ffffffff1660e01b81526004016109bf929190613b35565b600060405180830381600087803b1580156109d957600080fd5b505af11580156109ed573d6000803e3d6000fd5b5050505060008173ffffffffffffffffffffffffffffffffffffffff16638da5cb5b6040518163ffffffff1660e01b815260040160206040518083038186803b158015610a3957600080fd5b505afa158015610a4d573d6000803e3d6000fd5b505050506040513d601f19601f82011682018060405250810190610a719190612d4a565b90506000600260009054906101000a900473ffffffffffffffffffffffffffffffffffffffff1673ffffffffffffffffffffffffffffffffffffffff166365f68c89836040518263ffffffff1660e01b8152600401610ad09190613aff565b60206040518083038186803b158015610ae857600080fd5b505afa158015610afc573d6000803e3d6000fd5b505050506040513d601f19601f82011682018060405250810190610b20919061310e565b90506040518060400160405280600354815260200160011515815250600460008773ffffffffffffffffffffffffffffffffffffffff1673ffffffffffffffffffffffffffffffffffffffff1681526020019081526020016000206000820151816000015560208201518160010160006101000a81548160ff0219169083151502179055509050507f20837d6e0b7236235210e8dcb5168dc3712b7652ca9b5f328e9aaecdd6f386cd6003548287604051610bdd93929190614268565b60405180910390a1600360008154809291906001019190505550505050919050565b610c0f610c0a6126b3565b610db1565b610c4e576040517f08c379a0000000000000000000000000000000000000000000000000000000008152600401610c4590613f07565b60405180910390fd5b600160009054906101000a900460ff16610c9d576040517f08c379a0000000000000000000000000000000000000000000000000000000008152600401610c9490613ea7565b60405180910390fd5b6000600160006101000a81548160ff0219169083151502179055507f5db9ee0a495bf2e6ff9c91a7834c1ba4fdd244a5e8aa4e537bd38aeae4b073aa610ce16126b3565b604051610cee9190613b1a565b60405180910390a1565b610d0133611146565b610d40576040517f08c379a0000000000000000000000000000000000000000000000000000000008152600401610d3790614067565b60405180910390fd5b610d4933610dce565b610d88576040517f08c379a0000000000000000000000000000000000000000000000000000000008152600401610d7f906140a7565b60405180910390fd5b6000339050600080610d99836111e2565b91509150610dab8382600654876126bb565b50505050565b6000610dc78260006127ff90919063ffffffff16565b9050919050565b6000610dd982611146565b610e18576040517f08c379a0000000000000000000000000000000000000000000000000000000008152600401610e0f90613fa7565b60405180910390fd5b610e20612baa565b600460008473ffffffffffffffffffffffffffffffffffffffff1673ffffffffffffffffffffffffffffffffffffffff168152602001908152602001600020604051806040016040529081600082015481526020016001820160009054906101000a900460ff16151515158152505090508060200151915050919050565b6000600160009054906101000a900460ff16905090565b610ec5610ec06126b3565b6128c7565b565b610ecf61196b565b610f0e576040517f08c379a0000000000000000000000000000000000000000000000000000000008152600401610f0590614047565b60405180910390fd5b600073ffffffffffffffffffffffffffffffffffffffff1660018054906101000a900473ffffffffffffffffffffffffffffffffffffffff1673ffffffffffffffffffffffffffffffffffffffff167f8be0079c531659141344cd1fd0a4f28419497f9722a3daafe3b4186f6b6457e060405160405180910390a360006001806101000a81548173ffffffffffffffffffffffffffffffffffffffff021916908373ffffffffffffffffffffffffffffffffffffffff160217905550565b600260009054906101000a900473ffffffffffffffffffffffffffffffffffffffff1681565b611002610ffd6126b3565b610db1565b611041576040517f08c379a000000000000000000000000000000000000000000000000000000000815260040161103890613f07565b60405180910390fd5b61104a81612921565b50565b61105d6110586126b3565b610db1565b61109c576040517f08c379a000000000000000000000000000000000000000000000000000000000815260040161109390613f07565b60405180910390fd5b600160009054906101000a900460ff16156110ec576040517f08c379a00000000000000000000000000000000000000000000000000000000081526004016110e390613fe7565b60405180910390fd5b60018060006101000a81548160ff0219169083151502179055507f62e78cea01bee320cd4e420270b5ea74000d11b0c9f74754ebdbfc544b05a25861112f6126b3565b60405161113c9190613b1a565b60405180910390a1565b6000611150612baa565b600460008473ffffffffffffffffffffffffffffffffffffffff1673ffffffffffffffffffffffffffffffffffffffff168152602001908152602001600020604051806040016040529081600082015481526020016001820160009054906101000a900460ff161515151581525050905060008160000151146111d75760019150506111dd565b60009150505b919050565b6000806111ee83611146565b61122d576040517f08c379a000000000000000000000000000000000000000000000000000000000815260040161122490613fa7565b60405180910390fd5b611235612baa565b600460008573ffffffffffffffffffffffffffffffffffffffff1673ffffffffffffffffffffffffffffffffffffffff168152602001908152602001600020604051806040016040529081600082015481526020016001820160009054906101000a900460ff1615151515815250509050600084905060008173ffffffffffffffffffffffffffffffffffffffff16638da5cb5b6040518163ffffffff1660e01b815260040160206040518083038186803b1580156112f357600080fd5b505afa158015611307573d6000803e3d6000fd5b505050506040513d601f19601f8201168201806040525081019061132b9190612d4a565b90506000600260009054906101000a900473ffffffffffffffffffffffffffffffffffffffff1673ffffffffffffffffffffffffffffffffffffffff166365f68c89836040518263ffffffff1660e01b815260040161138a9190613aff565b60206040518083038186803b1580156113a257600080fd5b505afa1580156113b6573d6000803e3d6000fd5b505050506040513d601f19601f820116820180604052508101906113da919061310e565b90508360000151819550955050505050915091565b600060018054906101000a900473ffffffffffffffffffffffffffffffffffffffff16905090565b600160009054906101000a900460ff1615611467576040517f08c379a000000000000000000000000000000000000000000000000000000000815260040161145e90613fe7565b60405180910390fd5b6000600260009054906101000a900473ffffffffffffffffffffffffffffffffffffffff1673ffffffffffffffffffffffffffffffffffffffff166365f68c89336040518263ffffffff1660e01b81526004016114c49190613b1a565b60206040518083038186803b1580156114dc57600080fd5b505afa1580156114f0573d6000803e3d6000fd5b505050506040513d601f19601f82011682018060405250810190611514919061310e565b905061151f87611146565b61155e576040517f08c379a0000000000000000000000000000000000000000000000000000000008152600401611555906140c7565b60405180910390fd5b61156787610dce565b6115a6576040517f08c379a000000000000000000000000000000000000000000000000000000000815260040161159d90613ee7565b60405180910390fd5b600260009054906101000a900473ffffffffffffffffffffffffffffffffffffffff1673ffffffffffffffffffffffffffffffffffffffff1663613a7896826040518263ffffffff1660e01b81526004016116019190614147565b60206040518083038186803b15801561161957600080fd5b505afa15801561162d573d6000803e3d6000fd5b505050506040513d601f19601f82011682018060405250810190611651919061306d565b611690576040517f08c379a0000000000000000000000000000000000000000000000000000000008152600401611687906140e7565b60405180910390fd5b600260009054906101000a900473ffffffffffffffffffffffffffffffffffffffff1673ffffffffffffffffffffffffffffffffffffffff1663613a7896866040518263ffffffff1660e01b81526004016116eb9190614147565b60206040518083038186803b15801561170357600080fd5b505afa158015611717573d6000803e3d6000fd5b505050506040513d601f19601f8201168201806040525081019061173b919061306d565b61177a576040517f08c379a000000000000000000000000000000000000000000000000000000000815260040161177190614127565b60405180910390fd5b60006117858861210c565b905060008890508073ffffffffffffffffffffffffffffffffffffffff1663c596acc7848a8a8a8a8a6040518763ffffffff1660e01b81526004016117cf969594939291906141d7565b600060405180830381600087803b1580156117e957600080fd5b505af11580156117fd573d6000803e3d6000fd5b505050506118638560405180606001604052806038815260200161457f6038913960076000868152602001908152602001600020600087815260200190815260200160002060008c81526020019081526020016000205461297b9092919063ffffffff16565b60076000848152602001908152602001600020600085815260200190815260200160002060008a8152602001908152602001600020819055506118e4856007600085815260200190815260200160002060008a815260200190815260200160002060008981526020019081526020016000205461265e90919063ffffffff16565b6007600084815260200190815260200160002060008981526020019081526020016000206000888152602001908152602001600020819055507f9fbb7cb56ecba529d9d3d69bf53e20211dc815c9b635ee45c263dd4101f0cbdd89848a8a8a8a8a6040516119589796959493929190613cfd565b60405180910390a1505050505050505050565b600060018054906101000a900473ffffffffffffffffffffffffffffffffffffffff1673ffffffffffffffffffffffffffffffffffffffff166119ac6126b3565b73ffffffffffffffffffffffffffffffffffffffff1614905090565b600160009054906101000a900460ff1615611a18576040517f08c379a0000000000000000000000000000000000000000000000000000000008152600401611a0f90613fe7565b60405180910390fd5b611a2185611146565b611a60576040517f08c379a0000000000000000000000000000000000000000000000000000000008152600401611a57906140c7565b60405180910390fd5b611a6985610dce565b611aa8576040517f08c379a0000000000000000000000000000000000000000000000000000000008152600401611a9f90614027565b60405180910390fd5b600260009054906101000a900473ffffffffffffffffffffffffffffffffffffffff1673ffffffffffffffffffffffffffffffffffffffff1663613a7896856040518263ffffffff1660e01b8152600401611b039190614147565b60206040518083038186803b158015611b1b57600080fd5b505afa158015611b2f573d6000803e3d6000fd5b505050506040513d601f19601f82011682018060405250810190611b53919061306d565b611b92576040517f08c379a0000000000000000000000000000000000000000000000000000000008152600401611b8990614107565b60405180910390fd5b60008590508073ffffffffffffffffffffffffffffffffffffffff1663c92f4eb0868686866040518563ffffffff1660e01b8152600401611bd6949392919061418b565b600060405180830381600087803b158015611bf057600080fd5b505af1158015611c04573d6000803e3d6000fd5b505050507f6e812c2818181269bc8b7b868519e62a203a792b53f99e06c8b2357d01e86d9c8686868686604051611c3f959493929190613ca3565b60405180910390a1611c53868686866126bb565b505050505050565b60065481565b611c6961196b565b611ca8576040517f08c379a0000000000000000000000000000000000000000000000000000000008152600401611c9f90614047565b60405180910390fd5b600080611cb4846111e2565b91509150611cc68482600654866126bb565b50505050565b6000611cd661196b565b611d15576040517f08c379a0000000000000000000000000000000000000000000000000000000008152600401611d0c90614047565b60405180910390fd5b611d1e83611146565b611d5d576040517f08c379a0000000000000000000000000000000000000000000000000000000008152600401611d5490613fa7565b60405180910390fd5b6000600460008573ffffffffffffffffffffffffffffffffffffffff1673ffffffffffffffffffffffffffffffffffffffff1681526020019081526020016000209050828160010160006101000a81548160ff0219169083151502179055507f28a61818d188a7856821431ff0deb7650c2cc34ee4b7b97616a415fa0a3dfeff81600001548260010160009054906101000a900460ff16604051611e02929190614162565b60405180910390a15092915050565b600160009054906101000a900460ff1615611e61576040517f08c379a0000000000000000000000000000000000000000000000000000000008152600401611e5890613fe7565b60405180910390fd5b611e6961196b565b611ea8576040517f08c379a0000000000000000000000000000000000000000000000000000000008152600401611e9f90614047565b60405180910390fd5b611eb184611146565b611ef0576040517f08c379a0000000000000000000000000000000000000000000000000000000008152600401611ee7906140c7565b60405180910390fd5b611ef984610dce565b611f38576040517f08c379a0000000000000000000000000000000000000000000000000000000008152600401611f2f90614027565b60405180910390fd5b73__RBBLib________________________________636edcb12f836040518263ffffffff1660e01b8152600401611f6f9190613e17565b60206040518083038186803b158015611f8757600080fd5b505af4158015611f9b573d6000803e3d6000fd5b505050506040513d601f19601f82011682018060405250810190611fbf919061306d565b611ffe576040517f08c379a0000000000000000000000000000000000000000000000000000000008152600401611ff590613fc7565b60405180910390fd5b60008490508073ffffffffffffffffffffffffffffffffffffffff1663bc0077638585856040518463ffffffff1660e01b815260040161204093929190613e5b565b600060405180830381600087803b15801561205a57600080fd5b505af115801561206e573d6000803e3d6000fd5b505050507f2f2fd572c80ae93bda9f55fe54d703939c0eebc4bc2c5d24a4a1e3dcf23f469f858585856040516120a79493929190613c04565b60405180910390a15050505050565b60046020528060005260406000206000915090508060000154908060010160009054906101000a900460ff16905082565b6008602052816000526040600020602052806000526040600020600091509150505481565b600061211782611146565b612156576040517f08c379a000000000000000000000000000000000000000000000000000000000815260040161214d90613fa7565b60405180910390fd5b61215e612baa565b600460008473ffffffffffffffffffffffffffffffffffffffff1673ffffffffffffffffffffffffffffffffffffffff168152602001908152602001600020604051806040016040529081600082015481526020016001820160009054906101000a900460ff16151515158152505090508060000151915050919050565b6121e461196b565b612223576040517f08c379a000000000000000000000000000000000000000000000000000000000815260040161221a90614047565b60405180910390fd5b61222c85611146565b61226b576040517f08c379a0000000000000000000000000000000000000000000000000000000008152600401612262906140c7565b60405180910390fd5b61227485610dce565b6122b3576040517f08c379a00000000000000000000000000000000000000000000000000000000081526004016122aa90613ee7565b60405180910390fd5b73__RBBLib________________________________636edcb12f836040518263ffffffff1660e01b81526004016122ea9190613e17565b60206040518083038186803b15801561230257600080fd5b505af4158015612316573d6000803e3d6000fd5b505050506040513d601f19601f8201168201806040525081019061233a919061306d565b612379576040517f08c379a000000000000000000000000000000000000000000000000000000000815260040161237090613fc7565b60405180910390fd5b600080612385876111e2565b915091506123da8560405180606001604052806029815260200161451b602991396008600086815260200190815260200160002060008a81526020019081526020016000205461297b9092919063ffffffff16565b6008600084815260200190815260200160002060008881526020019081526020016000208190555061244c85600760008581526020019081526020016000206000848152602001908152602001600020600060065481526020019081526020016000205461265e90919063ffffffff16565b600760008481526020019081526020016000206000838152602001908152602001600020600060065481526020019081526020016000208190555060008790508073ffffffffffffffffffffffffffffffffffffffff16636b4dd41f888887896040518563ffffffff1660e01b81526004016124cb9493929190613da9565b600060405180830381600087803b1580156124e557600080fd5b505af11580156124f9573d6000803e3d6000fd5b505050507fef1c42fc8b3e4dbc907ef5506ed8fbfd24e2102fb73b3e66bccf15def6bb4fd88888888888604051612534959493929190613b5e565b60405180910390a15050505050505050565b60035481565b6000600560009054906101000a900460ff16905090565b61256b61196b565b6125aa576040517f08c379a00000000000000000000000000000000000000000000000000000000081526004016125a190614047565b60405180910390fd5b6125b3816129d6565b50565b6125c082826127ff565b15612600576040517f08c379a00000000000000000000000000000000000000000000000000000000081526004016125f790613ec7565b60405180910390fd5b60018260000160008373ffffffffffffffffffffffffffffffffffffffff1673ffffffffffffffffffffffffffffffffffffffff16815260200190815260200160002060006101000a81548160ff0219169083151502179055505050565b6000808284019050838110156126a9576040517f08c379a00000000000000000000000000000000000000000000000000000000081526004016126a090613f67565b60405180910390fd5b8091505092915050565b600033905090565b6126c484611146565b612703576040517f08c379a00000000000000000000000000000000000000000000000000000000081526004016126fa906140c7565b60405180910390fd5b61270c84610dce565b61274b576040517f08c379a000000000000000000000000000000000000000000000000000000000815260040161274290614027565b60405180910390fd5b60006127568561210c565b90506127ba826040518060600160405280603b8152602001614544603b913960076000858152602001908152602001600020600088815260200190815260200160002060008781526020019081526020016000205461297b9092919063ffffffff16565b507fbb1ad37219830377dfb06065e971d1cb26d7099497b73445398977b1ccc99c86858585856040516127f09493929190613c5e565b60405180910390a15050505050565b60008073ffffffffffffffffffffffffffffffffffffffff168273ffffffffffffffffffffffffffffffffffffffff161415612870576040517f08c379a000000000000000000000000000000000000000000000000000000000815260040161286790614087565b60405180910390fd5b8260000160008373ffffffffffffffffffffffffffffffffffffffff1673ffffffffffffffffffffffffffffffffffffffff16815260200190815260200160002060009054906101000a900460ff16905092915050565b6128db816000612b0390919063ffffffff16565b8073ffffffffffffffffffffffffffffffffffffffff167fcd265ebaf09df2871cc7bd4133404a235ba12eff2041bb89d9c714a2621c7c7e60405160405180910390a250565b6129358160006125b690919063ffffffff16565b8073ffffffffffffffffffffffffffffffffffffffff167f6719d08c1888103bea251a4ed56406bd0c3e69723c8a1686e017e7bbe159b6f860405160405180910390a250565b60008383111582906129c3576040517f08c379a00000000000000000000000000000000000000000000000000000000081526004016129ba9190613e39565b60405180910390fd5b5060008385039050809150509392505050565b600073ffffffffffffffffffffffffffffffffffffffff168173ffffffffffffffffffffffffffffffffffffffff161415612a46576040517f08c379a0000000000000000000000000000000000000000000000000000000008152600401612a3d90613f27565b60405180910390fd5b8073ffffffffffffffffffffffffffffffffffffffff1660018054906101000a900473ffffffffffffffffffffffffffffffffffffffff1673ffffffffffffffffffffffffffffffffffffffff167f8be0079c531659141344cd1fd0a4f28419497f9722a3daafe3b4186f6b6457e060405160405180910390a3806001806101000a81548173ffffffffffffffffffffffffffffffffffffffff021916908373ffffffffffffffffffffffffffffffffffffffff16021790555050565b612b0d82826127ff565b612b4c576040517f08c379a0000000000000000000000000000000000000000000000000000000008152600401612b4390614007565b60405180910390fd5b60008260000160008373ffffffffffffffffffffffffffffffffffffffff1673ffffffffffffffffffffffffffffffffffffffff16815260200190815260200160002060006101000a81548160ff0219169083151502179055505050565b6040518060400160405280600081526020016000151581525090565b600081359050612bd5816144be565b92915050565b600081519050612bea816144be565b92915050565b600082601f830112612c0157600080fd5b8135612c14612c0f826142e7565b6142ba565b9150818183526020840193506020810190508360005b83811015612c5a5781358601612c408882612ca3565b845260208401935060208301925050600181019050612c2a565b5050505092915050565b600081359050612c73816144d5565b92915050565b600081519050612c88816144d5565b92915050565b600081359050612c9d816144ec565b92915050565b600082601f830112612cb457600080fd5b8135612cc7612cc28261430f565b6142ba565b91508082526020830160208301858383011115612ce357600080fd5b612cee83828461446b565b50505092915050565b600081359050612d0681614503565b92915050565b600081519050612d1b81614503565b92915050565b600060208284031215612d3357600080fd5b6000612d4184828501612bc6565b91505092915050565b600060208284031215612d5c57600080fd5b6000612d6a84828501612bdb565b91505092915050565b60008060408385031215612d8657600080fd5b6000612d9485828601612bc6565b9250506020612da585828601612c64565b9150509250929050565b60008060008060008060c08789031215612dc857600080fd5b6000612dd689828a01612bc6565b9650506020612de789828a01612c8e565b9550506040612df889828a01612cf7565b9450506060612e0989828a01612c8e565b9350506080612e1a89828a01612cf7565b92505060a087013567ffffffffffffffff811115612e3757600080fd5b612e4389828a01612bf0565b9150509295509295509295565b600080600080600060a08688031215612e6857600080fd5b6000612e7688828901612bc6565b9550506020612e8788828901612c8e565b9450506040612e9888828901612cf7565b935050606086013567ffffffffffffffff811115612eb557600080fd5b612ec188828901612ca3565b925050608086013567ffffffffffffffff811115612ede57600080fd5b612eea88828901612bf0565b9150509295509295909350565b60008060008060808587031215612f0d57600080fd5b6000612f1b87828801612bc6565b945050602085013567ffffffffffffffff811115612f3857600080fd5b612f4487828801612ca3565b935050604085013567ffffffffffffffff811115612f6157600080fd5b612f6d87828801612ca3565b925050606085013567ffffffffffffffff811115612f8a57600080fd5b612f9687828801612bf0565b91505092959194509250565b60008060408385031215612fb557600080fd5b6000612fc385828601612bc6565b9250506020612fd485828601612cf7565b9150509250929050565b600080600080600060a08688031215612ff657600080fd5b600061300488828901612bc6565b955050602061301588828901612cf7565b945050604061302688828901612c8e565b935050606061303788828901612cf7565b925050608086013567ffffffffffffffff81111561305457600080fd5b61306088828901612bf0565b9150509295509295909350565b60006020828403121561307f57600080fd5b600061308d84828501612c79565b91505092915050565b6000806000606084860312156130ab57600080fd5b60006130b986828701612c8e565b93505060206130ca86828701612cf7565b92505060406130db86828701612cf7565b9150509250925092565b6000602082840312156130f757600080fd5b600061310584828501612cf7565b91505092915050565b60006020828403121561312057600080fd5b600061312e84828501612d0c565b91505092915050565b6000806040838503121561314a57600080fd5b600061315885828601612cf7565b925050602061316985828601612c8e565b9150509250929050565b60008060006060848603121561318857600080fd5b600061319686828701612cf7565b93505060206131a786828701612cf7565b92505060406131b886828701612c8e565b9150509250925092565b60006131ce8383613296565b905092915050565b6131df81614411565b82525050565b6131ee816143b2565b82525050565b60006131ff8261434b565b613209818561436e565b93508360208202850161321b8561433b565b8060005b85811015613257578484038952815161323885826131c2565b945061324383614361565b925060208a0199505060018101905061321f565b50829750879550505050505092915050565b613272816143c4565b82525050565b613281816143d0565b82525050565b61329081614423565b82525050565b60006132a182614356565b6132ab818561437f565b93506132bb81856020860161447a565b6132c4816144ad565b840191505092915050565b60006132da82614356565b6132e48185614390565b93506132f481856020860161447a565b6132fd816144ad565b840191505092915050565b600061331382614356565b61331d81856143a1565b935061332d81856020860161447a565b613336816144ad565b840191505092915050565b600061334e601483614390565b91507f5061757361626c653a206e6f74207061757365640000000000000000000000006000830152602082019050919050565b600061338e601f83614390565b91507f526f6c65733a206163636f756e7420616c72656164792068617320726f6c65006000830152602082019050919050565b60006133ce602583614390565b91507f436f6e747261746f206573706563c3ad6669636f206ec3a36f20657374c3a12060008301527f617469766f0000000000000000000000000000000000000000000000000000006020830152604082019050919050565b6000613434603083614390565b91507f506175736572526f6c653a2063616c6c657220646f6573206e6f74206861766560008301527f207468652050617573657220726f6c65000000000000000000000000000000006020830152604082019050919050565b600061349a602683614390565b91507f4f776e61626c653a206e6577206f776e657220697320746865207a65726f206160008301527f64647265737300000000000000000000000000000000000000000000000000006020830152604082019050919050565b6000613500601783614390565b91507f436f6e747261746f206ac3a1207265676973747261646f0000000000000000006000830152602082019050919050565b6000613540601b83614390565b91507f536166654d6174683a206164646974696f6e206f766572666c6f7700000000006000830152602082019050919050565b6000613580603583614390565b91507f56616c6f72206120736572207472616e736163696f6e61646f2064657665207360008301527f6572206d61696f7220646f20717565207a65726f2e00000000000000000000006020830152604082019050919050565b60006135e6602283614390565b91507f436f6e747261746f206465206e65676f63696f206e616f20726567697374726160008301527f646f0000000000000000000000000000000000000000000000000000000000006020830152604082019050919050565b600061364c602483614390565b91507f4f206861736820646120636f6d70726f7661c3a7c3a36f20c3a920696e76c3a160008301527f6c69646f000000000000000000000000000000000000000000000000000000006020830152604082019050919050565b60006136b2601083614390565b91507f5061757361626c653a20706175736564000000000000000000000000000000006000830152602082019050919050565b60006136f2602183614390565b91507f526f6c65733a206163636f756e7420646f6573206e6f74206861766520726f6c60008301527f65000000000000000000000000000000000000000000000000000000000000006020830152604082019050919050565b6000613758602c83614390565b91507f436f6e747261746f207072656369736120657374617220617469766f2070617260008301527f61206861766572206275726e00000000000000000000000000000000000000006020830152604082019050919050565b60006137be602083614390565b91507f4f776e61626c653a2063616c6c6572206973206e6f7420746865206f776e65726000830152602082019050919050565b60006137fe604c83614390565b91507f4dc3a9746f646f2073c3b320706f646520736572206368616d61646f20706f7260008301527f20636f6e747261746f206465206e6567c3b363696f207072657669616d656e7460208301527f65206361646173747261646f00000000000000000000000000000000000000006040830152606082019050919050565b600061388a602283614390565b91507f526f6c65733a206163636f756e7420697320746865207a65726f20616464726560008301527f73730000000000000000000000000000000000000000000000000000000000006020830152604082019050919050565b60006138f0603b83614390565b91507f4dc3a9746f646f2073c3b320706f646520736572206368616d61646f20706f7260008301527f20636f6e747261746f206465206e6567c3b363696f20617469766f00000000006020830152604082019050919050565b6000613956602a83614390565b91507f436f6e747261746f206573706563c3ad6669636f206ec3a36f20657374c3a12060008301527f7265676973747261646f000000000000000000000000000000000000000000006020830152604082019050919050565b60006139bc603383614390565b91507f436f6e7461206465206f726967656d207072656369736120657374617220636f60008301527f6d20636164617374726f2076616c696461646f000000000000000000000000006020830152604082019050919050565b6000613a22603f83614390565b91507f436f6e746120736f6c69636974616e746520646f2072656465656d207072656360008301527f69736120657374617220636f6d20636164617374726f2076616c696461646f006020830152604082019050919050565b6000613a88603483614390565b91507f436f6e74612064652064657374696e6f2070726563697361206573746172206360008301527f6f6d20636164617374726f2076616c696461646f0000000000000000000000006020830152604082019050919050565b613aea816143fa565b82525050565b613af981614404565b82525050565b6000602082019050613b1460008301846131e5565b92915050565b6000602082019050613b2f60008301846131d6565b92915050565b6000604082019050613b4a60008301856131e5565b613b5760208301846131e5565b9392505050565b600060a082019050613b7360008301886131e5565b613b806020830187613278565b613b8d6040830186613ae1565b8181036060830152613b9f81856132cf565b90508181036080830152613bb381846131f4565b90509695505050505050565b6000608082019050613bd460008301876131e5565b613be16020830186613278565b613bee6040830185613ae1565b613bfb6060830184613ae1565b95945050505050565b6000608082019050613c1960008301876131e5565b8181036020830152613c2b81866132cf565b90508181036040830152613c3f81856132cf565b90508181036060830152613c5381846131f4565b905095945050505050565b6000608082019050613c7360008301876131e5565b613c806020830186613ae1565b613c8d6040830185613278565b613c9a6060830184613ae1565b95945050505050565b600060a082019050613cb860008301886131e5565b613cc56020830187613ae1565b613cd26040830186613278565b613cdf6060830185613ae1565b8181036080830152613cf181846131f4565b90509695505050505050565b600060e082019050613d12600083018a6131e5565b613d1f6020830189613ae1565b613d2c6040830188613278565b613d396060830187613ae1565b613d466080830186613278565b613d5360a0830185613ae1565b81810360c0830152613d6581846131f4565b905098975050505050505050565b6000602082019050613d886000830184613269565b92915050565b6000602082019050613da36000830184613278565b92915050565b6000608082019050613dbe6000830187613278565b613dcb6020830186613ae1565b8181036040830152613ddd81856131f4565b90508181036060830152613df181846132cf565b905095945050505050565b6000602082019050613e116000830184613287565b92915050565b60006020820190508181036000830152613e318184613308565b905092915050565b60006020820190508181036000830152613e5381846132cf565b905092915050565b60006060820190508181036000830152613e7581866132cf565b90508181036020830152613e8981856132cf565b90508181036040830152613e9d81846131f4565b9050949350505050565b60006020820190508181036000830152613ec081613341565b9050919050565b60006020820190508181036000830152613ee081613381565b9050919050565b60006020820190508181036000830152613f00816133c1565b9050919050565b60006020820190508181036000830152613f2081613427565b9050919050565b60006020820190508181036000830152613f408161348d565b9050919050565b60006020820190508181036000830152613f60816134f3565b9050919050565b60006020820190508181036000830152613f8081613533565b9050919050565b60006020820190508181036000830152613fa081613573565b9050919050565b60006020820190508181036000830152613fc0816135d9565b9050919050565b60006020820190508181036000830152613fe08161363f565b9050919050565b60006020820190508181036000830152614000816136a5565b9050919050565b60006020820190508181036000830152614020816136e5565b9050919050565b600060208201905081810360008301526140408161374b565b9050919050565b60006020820190508181036000830152614060816137b1565b9050919050565b60006020820190508181036000830152614080816137f1565b9050919050565b600060208201905081810360008301526140a08161387d565b9050919050565b600060208201905081810360008301526140c0816138e3565b9050919050565b600060208201905081810360008301526140e081613949565b9050919050565b60006020820190508181036000830152614100816139af565b9050919050565b6000602082019050818103600083015261412081613a15565b9050919050565b6000602082019050818103600083015261414081613a7b565b9050919050565b600060208201905061415c6000830184613ae1565b92915050565b60006040820190506141776000830185613ae1565b6141846020830184613269565b9392505050565b60006080820190506141a06000830187613ae1565b6141ad6020830186613278565b6141ba6040830185613ae1565b81810360608301526141cc81846131f4565b905095945050505050565b600060c0820190506141ec6000830189613ae1565b6141f96020830188613278565b6142066040830187613ae1565b6142136060830186613278565b6142206080830185613ae1565b81810360a083015261423281846131f4565b9050979650505050505050565b60006040820190506142546000830185613ae1565b6142616020830184613ae1565b9392505050565b600060608201905061427d6000830186613ae1565b61428a6020830185613ae1565b61429760408301846131e5565b949350505050565b60006020820190506142b46000830184613af0565b92915050565b6000604051905081810181811067ffffffffffffffff821117156142dd57600080fd5b8060405250919050565b600067ffffffffffffffff8211156142fe57600080fd5b602082029050602081019050919050565b600067ffffffffffffffff82111561432657600080fd5b601f19601f8301169050602081019050919050565b6000819050602082019050919050565b600081519050919050565b600081519050919050565b6000602082019050919050565b600082825260208201905092915050565b600082825260208201905092915050565b600082825260208201905092915050565b600082825260208201905092915050565b60006143bd826143da565b9050919050565b60008115159050919050565b6000819050919050565b600073ffffffffffffffffffffffffffffffffffffffff82169050919050565b6000819050919050565b600060ff82169050919050565b600061441c82614447565b9050919050565b600061442e82614435565b9050919050565b6000614440826143da565b9050919050565b600061445282614459565b9050919050565b6000614464826143da565b9050919050565b82818337600083830152505050565b60005b8381101561449857808201518184015260208101905061447d565b838111156144a7576000848401525b50505050565b6000601f19601f8301169050919050565b6144c7816143b2565b81146144d257600080fd5b50565b6144de816143c4565b81146144e957600080fd5b50565b6144f5816143d0565b811461450057600080fd5b50565b61450c816143fa565b811461451757600080fd5b5056fe546f74616c20646520656d697373c3a36f206578636564652076616c6f7220736f6c6963697461646f546f74616c20646520746f6b656e73206120736572656d20717565696d61646f7320c3a9206d61696f7220646f20717565206f2062616c616e636553616c646f206461206f726967656d206ec3a36f20c3a920737566696369656e746520706172612061207472616e73666572c3aa6e636961a26469706673582212206887025d6529e5aca75e608a2353cc700f385f46b9824d3439a8c5cdc555cf0f64736f6c634300060c0033",
  "immutableReferences": {},
  "source": "pragma solidity ^0.6.0;\npragma experimental ABIEncoderV2;\n\n\nimport \"./RBBLib.sol\";\nimport \"./RBBRegistry.sol\";\nimport \"./SpecificRBBToken.sol\";\nimport \"@openzeppelin/contracts/ownership/Ownable.sol\";\nimport \"@openzeppelin/contracts/lifecycle/Pausable.sol\";\nimport \"@openzeppelin/contracts/math/SafeMath.sol\";\n\n//TODO: framework de mudanca e como incluir um business contract com um id especfico\n//TODO: avaliar se precisa ter totalSupply de cada contrato ou outras info derivadas para aumentar programabilidade\ncontract BusinessContractRegistry is Ownable {\n\n    RBBRegistry public registry;\n\n    //It starts with 1, because 0 is the id value returned when the item is not found in the businessContractsRegistry\n    uint public idCount = 1;\n\n    struct BusinessContractInfo {\n        uint id;\n\n        bool isActive;\n    }\n\n    event BusinessContractRegistration (uint id, uint ownerId, address addr);\n    event BusinessContractStateChange (uint id, bool state);\n\n    //indexado pelo address pq serah a forma mais usada para consulta.\n    mapping (address => BusinessContractInfo) public businessContractsRegistry;\n\n    modifier onlyByRegisteredAndActiveContracts {\n        require(containsBusinessContract(msg.sender), \"Mtodo s pode ser chamado por contrato de negcio previamente cadastrado\");\n        require(isBusinessContractActive(msg.sender), \"Mtodo s pode ser chamado por contrato de negcio ativo\");\n        _;\n    }\n\n//TODO: adicionar como ponto positivo do contrato genrico no PPT. nao eh possivel mudar o uint do owner sem mudar o contrato\n    function registerBusinessContract (address businessContractAddr) public onlyOwner returns (uint)  {\n        require (!containsBusinessContract(businessContractAddr), \"Contrato j registrado\");\n\n        SpecificRBBToken specificContract = SpecificRBBToken(businessContractAddr);\n        specificContract.setInitializationDataDuringRegistration(address(registry), address(this));\n        address scOwnerAddr = specificContract.owner();\n        uint scOwnerId = registry.getId(scOwnerAddr);\n\n\n        businessContractsRegistry[businessContractAddr] = BusinessContractInfo(idCount, true);\n        emit BusinessContractRegistration (idCount, scOwnerId, businessContractAddr);\n        idCount++;\n    }\n\n    function getBusinessContractId (address addr) public view returns (uint) {\n        require (containsBusinessContract(addr), \"Contrato de negocio nao registrado\");\n        BusinessContractInfo memory info = businessContractsRegistry[addr];\n        return info.id;\n    }\n\n    function getBusinessContractIdAndOwnerId (address addr) public view returns (uint, uint) {\n        require (containsBusinessContract(addr), \"Contrato de negocio nao registrado\");\n        BusinessContractInfo memory info = businessContractsRegistry[addr];\n        SpecificRBBToken specificContract = SpecificRBBToken(addr);\n        address scOwnerAddr = specificContract.owner();\n        uint scOwnerId = registry.getId(scOwnerAddr);\n\n        return (info.id, scOwnerId);\n    }\n    \n    function containsBusinessContract(address addr) public view returns (bool) {\n        BusinessContractInfo memory info = businessContractsRegistry[addr];\n        if (info.id!=0) return true;\n        else return false;\n    }\n\n    function isBusinessContractActive(address addr) public view returns (bool) {\n        require (containsBusinessContract(addr), \"Contrato de negocio nao registrado\");\n        BusinessContractInfo memory info = businessContractsRegistry[addr];\n        return info.isActive;\n    }\n\n    function setStatus(address addr, bool status) public onlyOwner returns (bool) {\n        require (containsBusinessContract(addr), \"Contrato de negocio nao registrado\");\n        BusinessContractInfo storage info = businessContractsRegistry[addr];\n        info.isActive = status;\n        emit BusinessContractStateChange(info.id, info.isActive);\n    }\n}\n\ncontract RBBToken is Pausable, BusinessContractRegistry {\n\n    using SafeMath for uint;\n\n    uint8 public decimals = 2;\n    bytes32 public RESERVED_HASH_VALUE = 0x0000000000000000000000000000000000000000000000000000000000000000;\n\n    //businessContractId => (RBBid => (specificHash => amount)\n    mapping (uint => mapping (uint => mapping (bytes32 => uint))) public rbbBalances;\n\n    //businessContractId => (specificHash => amount)\n    mapping (uint => mapping (bytes32 => uint)) public balaceRequestedTokens;\n\n    event RBBTokenMintRequest(address businessContractAddr, bytes32 specificHash, uint idInvestor, uint amount);\n    event RBBTokenMint(address businessContractAddr, bytes32 specificHash, uint amount, string docHash, string[] data);\n    event RBBTokenBurn(address businessContractAddr, uint fromId, bytes32 fromHash, uint amount);\n    event RBBTokenTransfer (address businessContractAddr, uint fromId, bytes32 fromHash, uint toId,\n                            bytes32 toHash, uint amount, string[] data);\n    event RBBTokenRedemptionRequested (address businessContractAddr, uint fromId, bytes32 fromHash, \n                            uint amount, string[] data);\n    event RBBTokenRedemptionSettlement(address businessContractAddr, string redemptionTransactionHash, \n                            string receiptHash, string[] data);\n\n\n    constructor (address newRegistryAddr, uint8 _decimals) public {\n        registry = RBBRegistry(newRegistryAddr);\n        decimals = _decimals;\n    }\n\n\n\n///******************************************************************* */\n\n//TODO: incluir novo hash aqui?\n    function requestMint(bytes32 specificHash, uint idInvestor, uint amount) public onlyByRegisteredAndActiveContracts {\n    \n        require (amount>0, \"Valor a ser transacionado deve ser maior do que zero.\");\n        address businessContractAddr = msg.sender;\n\n        require(containsBusinessContract(businessContractAddr), \"Contrato especfico no est registrado\");\n        require(isBusinessContractActive(businessContractAddr), \"Contrato especfico no est ativo\");\n\n        uint businessContractId = getBusinessContractId(businessContractAddr);\n\n        balaceRequestedTokens[businessContractId][specificHash] = \n            balaceRequestedTokens[businessContractId][specificHash].add(amount);\n    \n        emit RBBTokenMintRequest(businessContractAddr, specificHash, idInvestor, amount);\n\n    }\n\n    function mint(address businessContractAddr, bytes32 specificHash, uint amount, string memory docHash,\n        string[] memory data) public onlyOwner {\n\n        require(containsBusinessContract(businessContractAddr), \"Contrato especfico no est registrado\");\n        require(isBusinessContractActive(businessContractAddr), \"Contrato especfico no est ativo\");\n//        require(amount>0, \"Valor a queimar deve ser maior do que zero\");\n\n        require (RBBLib.isValidHash(docHash), \"O hash da comprovao  invlido\");\n\n        (uint businessContractId, uint businessContractOwnerId) = \n                    getBusinessContractIdAndOwnerId(businessContractAddr);\n\n        balaceRequestedTokens[businessContractId][specificHash] \n            = balaceRequestedTokens[businessContractId][specificHash].sub(amount, \"Total de emisso excede valor solicitado\");\n\n        rbbBalances[businessContractId][businessContractOwnerId][RESERVED_HASH_VALUE] = \n            rbbBalances[businessContractId][businessContractOwnerId][RESERVED_HASH_VALUE].add(amount);\n\n        SpecificRBBToken specificContract = SpecificRBBToken(businessContractAddr);\n        specificContract.verifyAndActForMint(specificHash, amount, data, docHash);\n\n        emit RBBTokenMint(businessContractAddr, specificHash, amount, docHash, data);\n    }\n\n    function burn (address businessContractAddr, uint amount) public onlyOwner {\n\n        (uint businessContractId, uint businessContractOwnerId) = \n                    getBusinessContractIdAndOwnerId(businessContractAddr);\n        \n        _burn(businessContractAddr, businessContractOwnerId, RESERVED_HASH_VALUE, amount);\n\n    }\n\n//TODO: avaliar se qq um poderia queimar o seu dinheiro (e nao apenas contratos)\n    function burn (uint amount) public onlyByRegisteredAndActiveContracts {\n\n        address businessContractAddr = msg.sender;\n        (uint businessContractId, uint businessContractOwnerId) = \n                    getBusinessContractIdAndOwnerId(businessContractAddr);\n        \n        _burn(businessContractAddr, businessContractOwnerId, RESERVED_HASH_VALUE, amount);\n\n    }\n\n    function _burn(address businessContractAddr, uint fromId, bytes32 fromHash, uint amount) internal {\n        \n        require(containsBusinessContract(businessContractAddr), \"Contrato especfico no est registrado\");\n        require(isBusinessContractActive(businessContractAddr), \"Contrato precisa estar ativo para haver burn\");\n//        require(amount>0, \"Valor a queimar deve ser maior do que zero\");\n\n        uint businessContractId = getBusinessContractId(businessContractAddr);\n\n        rbbBalances[businessContractId][fromId][fromHash].sub(amount, \"Total de tokens a serem queimados  maior do que o balance\");\n\n        emit RBBTokenBurn(businessContractAddr, fromId, fromHash, amount);\n    }\n\n///******************************************************************* */\n\n\n//TODO: incluir hash de registro um objeto genrico para registrar informacoes\n    function transfer (address businessContractAddr, bytes32 fromHash, uint toId, bytes32 toHash, \n            uint amount, string[] memory data) public whenNotPaused {\n\n        uint fromId = registry.getId(msg.sender);\n\n        require(containsBusinessContract(businessContractAddr), \"Contrato especfico no est registrado\");\n        require(isBusinessContractActive(businessContractAddr), \"Contrato especfico no est ativo\");\n\n        require(registry.isValidatedId(fromId), \"Conta de origem precisa estar com cadastro validado\");\n        require(registry.isValidatedId(toId), \"Conta de destino precisa estar com cadastro validado\");\n        uint businessContractId = getBusinessContractId(businessContractAddr);\n\n        SpecificRBBToken specificContract = SpecificRBBToken(businessContractAddr);\n        specificContract.verifyAndActForTransfer(fromId, fromHash, toId, toHash, amount, data);\n\n        //altera valores de saldo\n        rbbBalances[businessContractId][fromId][fromHash] =\n                rbbBalances[businessContractId][fromId][fromHash].sub(amount, \"Saldo da origem no  suficiente para a transferncia\");\n        rbbBalances[businessContractId][toId][toHash] = rbbBalances[businessContractId][toId][toHash].add(amount);\n\n        emit RBBTokenTransfer (businessContractAddr, fromId, fromHash, toId, toHash, amount, data);\n\n    }\n\n    function redeem (address businessContractAddr, uint fromId, bytes32 fromHash, uint amount, string[] memory data) public \n        whenNotPaused  {\n\n            require(containsBusinessContract(businessContractAddr), \"Contrato especfico no est registrado\");\n            require(isBusinessContractActive(businessContractAddr), \"Contrato precisa estar ativo para haver burn\");\n            require(registry.isValidatedId(fromId), \"Conta solicitante do redeem precisa estar com cadastro validado\");\n//        require(amount>0, \"Valor a queimar deve ser maior do que zero\");\n    \n            SpecificRBBToken specificContract = SpecificRBBToken(businessContractAddr);\n            specificContract.verifyAndActForRedeem(fromId, fromHash, amount, data);\n\n            emit RBBTokenRedemptionRequested(businessContractAddr, fromId, fromHash, amount, data);\n            _burn(businessContractAddr, fromId, fromHash, amount);\n    }\n\n   /**\n    * Using this function, the Responsible for Settlement indicates that he has made the FIAT money transfer.\n    * @ param redemptionTransactionHash hash of the redeem transaction in which the FIAT money settlement occurred.\n    * @ param receiptHash hash that proof the FIAT money transfer\n    */ \n    function notifyRedemptionSettlement(address businessContractAddr, string memory redemptionTransactionHash, \n        string memory receiptHash, string[] memory data)\n        public whenNotPaused onlyOwner {\n\n        require(containsBusinessContract(businessContractAddr), \"Contrato especfico no est registrado\");\n        require(isBusinessContractActive(businessContractAddr), \"Contrato precisa estar ativo para haver burn\");\n        require (RBBLib.isValidHash(receiptHash), \"O hash da comprovao  invlido\");\n\n        SpecificRBBToken specificContract = SpecificRBBToken(businessContractAddr);\n        specificContract.verifyAndActForRedemptionSettlement(redemptionTransactionHash, receiptHash, data);\n\n        emit RBBTokenRedemptionSettlement(businessContractAddr, redemptionTransactionHash, receiptHash, data);\n    }\n    \n\n///******************************************************************* */\n\n    function getReservedBalanceByBusinessContract(address businessContractAddr) view public returns (uint) {\n\n        (uint businessContractId, uint businessContractOwnerId) = \n                getBusinessContractIdAndOwnerId(businessContractAddr);\n        return rbbBalances[businessContractId][businessContractOwnerId][RESERVED_HASH_VALUE];\n    }\n\n    function getDecimals() public view returns (uint8) {\n        return decimals;\n    }\n\n/*\n    function getBndesId() view public returns (uint) {\n        uint bndesId = registry.getId(owner());\n        return bndesId;\n    }\n*/\n\n}",
  "sourcePath": "/Users/suzana.moreno/workspace/rbb-token/Back-Blockchain/contracts/RBBToken.sol",
  "compiler": {
    "name": "solc",
    "version": "0.6.12+commit.27d51765.Emscripten.clang"
  },
  "schemaVersion": "3.2.5",
  "updatedAt": "2020-09-22T22:28:45.078Z",
  "devdoc": {
    "kind": "dev",
    "methods": {
      "isOwner()": {
        "details": "Returns true if the caller is the current owner."
      },
      "owner()": {
        "details": "Returns the address of the current owner."
      },
      "pause()": {
        "details": "Called by a pauser to pause, triggers stopped state."
      },
      "paused()": {
        "details": "Returns true if the contract is paused, and false otherwise."
      },
      "renounceOwnership()": {
        "details": "Leaves the contract without owner. It will not be possible to call `onlyOwner` functions anymore. Can only be called by the current owner. NOTE: Renouncing ownership will leave the contract without an owner, thereby removing any functionality that is only available to the owner."
      },
      "transferOwnership(address)": {
        "details": "Transfers ownership of the contract to a new account (`newOwner`). Can only be called by the current owner."
      },
      "unpause()": {
        "details": "Called by a pauser to unpause, returns to normal state."
      }
    },
    "version": 1
  },
  "userdoc": {
    "kind": "user",
    "methods": {
      "getReservedBalanceByBusinessContract(address)": {
        "notice": "******************************************************************* */"
      },
      "notifyRedemptionSettlement(address,string,string,string[])": {
        "notice": "Using this function, the Responsible for Settlement indicates that he has made the FIAT money transfer. param redemptionTransactionHash hash of the redeem transaction in which the FIAT money settlement occurred. param receiptHash hash that proof the FIAT money transfer"
      },
      "requestMint(bytes32,uint256,uint256)": {
        "notice": "******************************************************************* */"
      },
      "transfer(address,bytes32,uint256,bytes32,uint256,string[])": {
        "notice": "******************************************************************* */"
      }
    },
    "version": 1
  }
}