{
  "contractName": "RBBToken",
  "abi": [
    {
      "inputs": [
        {
          "internalType": "address",
          "name": "newRegistryAddr",
          "type": "address"
        },
        {
          "internalType": "address",
          "name": "newSpecificRBBTokenAddr",
          "type": "address"
        },
        {
          "internalType": "uint8",
          "name": "_decimals",
          "type": "uint8"
        }
      ],
      "stateMutability": "nonpayable",
      "type": "constructor"
    },
    {
      "anonymous": false,
      "inputs": [
        {
          "indexed": false,
          "internalType": "address",
          "name": "account",
          "type": "address"
        },
        {
          "indexed": false,
          "internalType": "uint8",
          "name": "eventType",
          "type": "uint8"
        }
      ],
      "name": "ManualIntervention_RoleOrAddress",
      "type": "event"
    },
    {
      "anonymous": false,
      "inputs": [
        {
          "indexed": true,
          "internalType": "address",
          "name": "previousOwner",
          "type": "address"
        },
        {
          "indexed": true,
          "internalType": "address",
          "name": "newOwner",
          "type": "address"
        }
      ],
      "name": "OwnershipTransferred",
      "type": "event"
    },
    {
      "anonymous": false,
      "inputs": [
        {
          "indexed": false,
          "internalType": "address",
          "name": "account",
          "type": "address"
        }
      ],
      "name": "Paused",
      "type": "event"
    },
    {
      "anonymous": false,
      "inputs": [
        {
          "indexed": true,
          "internalType": "address",
          "name": "account",
          "type": "address"
        }
      ],
      "name": "PauserAdded",
      "type": "event"
    },
    {
      "anonymous": false,
      "inputs": [
        {
          "indexed": true,
          "internalType": "address",
          "name": "account",
          "type": "address"
        }
      ],
      "name": "PauserRemoved",
      "type": "event"
    },
    {
      "anonymous": false,
      "inputs": [
        {
          "indexed": false,
          "internalType": "address",
          "name": "specificTokenAddr",
          "type": "address"
        },
        {
          "indexed": false,
          "internalType": "address",
          "name": "originalSender",
          "type": "address"
        },
        {
          "indexed": false,
          "internalType": "uint256",
          "name": "fromId",
          "type": "uint256"
        },
        {
          "indexed": false,
          "internalType": "bytes32",
          "name": "fromHash",
          "type": "bytes32"
        },
        {
          "indexed": false,
          "internalType": "uint256",
          "name": "amount",
          "type": "uint256"
        },
        {
          "indexed": false,
          "internalType": "bytes32",
          "name": "docHash",
          "type": "bytes32"
        }
      ],
      "name": "RBBTokenBurn",
      "type": "event"
    },
    {
      "anonymous": false,
      "inputs": [
        {
          "indexed": false,
          "internalType": "address",
          "name": "specificTokenAddr",
          "type": "address"
        },
        {
          "indexed": false,
          "internalType": "bytes32",
          "name": "specificHash",
          "type": "bytes32"
        },
        {
          "indexed": false,
          "internalType": "uint256",
          "name": "amount",
          "type": "uint256"
        },
        {
          "indexed": false,
          "internalType": "bytes32",
          "name": "docHash",
          "type": "bytes32"
        },
        {
          "indexed": false,
          "internalType": "string[]",
          "name": "data",
          "type": "string[]"
        }
      ],
      "name": "RBBTokenMint",
      "type": "event"
    },
    {
      "anonymous": false,
      "inputs": [
        {
          "indexed": false,
          "internalType": "address",
          "name": "specificTokenAddr",
          "type": "address"
        },
        {
          "indexed": false,
          "internalType": "bytes32",
          "name": "specificHash",
          "type": "bytes32"
        },
        {
          "indexed": false,
          "internalType": "uint256",
          "name": "idInvestor",
          "type": "uint256"
        },
        {
          "indexed": false,
          "internalType": "uint256",
          "name": "amount",
          "type": "uint256"
        },
        {
          "indexed": false,
          "internalType": "bytes32",
          "name": "docHash",
          "type": "bytes32"
        }
      ],
      "name": "RBBTokenMintRequested",
      "type": "event"
    },
    {
      "anonymous": false,
      "inputs": [
        {
          "indexed": false,
          "internalType": "address",
          "name": "specificTokenAddr",
          "type": "address"
        },
        {
          "indexed": false,
          "internalType": "address",
          "name": "originalSender",
          "type": "address"
        },
        {
          "indexed": false,
          "internalType": "uint256",
          "name": "fromId",
          "type": "uint256"
        },
        {
          "indexed": false,
          "internalType": "bytes32",
          "name": "fromHash",
          "type": "bytes32"
        },
        {
          "indexed": false,
          "internalType": "uint256",
          "name": "amount",
          "type": "uint256"
        },
        {
          "indexed": false,
          "internalType": "bytes32",
          "name": "docHash",
          "type": "bytes32"
        },
        {
          "indexed": false,
          "internalType": "string[]",
          "name": "data",
          "type": "string[]"
        }
      ],
      "name": "RBBTokenRedemptionRequested",
      "type": "event"
    },
    {
      "anonymous": false,
      "inputs": [
        {
          "indexed": false,
          "internalType": "address",
          "name": "specificTokenAddr",
          "type": "address"
        },
        {
          "indexed": false,
          "internalType": "bytes32",
          "name": "redemptionTransactionHash",
          "type": "bytes32"
        },
        {
          "indexed": false,
          "internalType": "bytes32",
          "name": "docHash",
          "type": "bytes32"
        },
        {
          "indexed": false,
          "internalType": "string[]",
          "name": "data",
          "type": "string[]"
        }
      ],
      "name": "RBBTokenRedemptionSettlement",
      "type": "event"
    },
    {
      "anonymous": false,
      "inputs": [
        {
          "indexed": false,
          "internalType": "address",
          "name": "specificTokenAddr",
          "type": "address"
        },
        {
          "indexed": false,
          "internalType": "address",
          "name": "originalSender",
          "type": "address"
        },
        {
          "indexed": false,
          "internalType": "uint256",
          "name": "fromId",
          "type": "uint256"
        },
        {
          "indexed": false,
          "internalType": "bytes32",
          "name": "fromHash",
          "type": "bytes32"
        },
        {
          "indexed": false,
          "internalType": "uint256",
          "name": "toId",
          "type": "uint256"
        },
        {
          "indexed": false,
          "internalType": "bytes32",
          "name": "toHash",
          "type": "bytes32"
        },
        {
          "indexed": false,
          "internalType": "uint256",
          "name": "amount",
          "type": "uint256"
        },
        {
          "indexed": false,
          "internalType": "bytes32",
          "name": "docHash",
          "type": "bytes32"
        },
        {
          "indexed": false,
          "internalType": "string[]",
          "name": "data",
          "type": "string[]"
        }
      ],
      "name": "RBBTokenTransfer",
      "type": "event"
    },
    {
      "anonymous": false,
      "inputs": [
        {
          "indexed": false,
          "internalType": "address",
          "name": "account",
          "type": "address"
        }
      ],
      "name": "Unpaused",
      "type": "event"
    },
    {
      "inputs": [
        {
          "internalType": "address",
          "name": "account",
          "type": "address"
        }
      ],
      "name": "addPauser",
      "outputs": [],
      "stateMutability": "nonpayable",
      "type": "function"
    },
    {
      "inputs": [
        {
          "internalType": "uint256",
          "name": "",
          "type": "uint256"
        },
        {
          "internalType": "bytes32",
          "name": "",
          "type": "bytes32"
        }
      ],
      "name": "balanceRequestedTokens",
      "outputs": [
        {
          "internalType": "uint256",
          "name": "",
          "type": "uint256"
        }
      ],
      "stateMutability": "view",
      "type": "function"
    },
    {
      "inputs": [],
      "name": "decimals",
      "outputs": [
        {
          "internalType": "uint8",
          "name": "",
          "type": "uint8"
        }
      ],
      "stateMutability": "view",
      "type": "function"
    },
    {
      "inputs": [],
      "name": "isOwner",
      "outputs": [
        {
          "internalType": "bool",
          "name": "",
          "type": "bool"
        }
      ],
      "stateMutability": "view",
      "type": "function"
    },
    {
      "inputs": [
        {
          "internalType": "address",
          "name": "account",
          "type": "address"
        }
      ],
      "name": "isPauser",
      "outputs": [
        {
          "internalType": "bool",
          "name": "",
          "type": "bool"
        }
      ],
      "stateMutability": "view",
      "type": "function"
    },
    {
      "inputs": [],
      "name": "owner",
      "outputs": [
        {
          "internalType": "address",
          "name": "",
          "type": "address"
        }
      ],
      "stateMutability": "view",
      "type": "function"
    },
    {
      "inputs": [],
      "name": "pause",
      "outputs": [],
      "stateMutability": "nonpayable",
      "type": "function"
    },
    {
      "inputs": [],
      "name": "paused",
      "outputs": [
        {
          "internalType": "bool",
          "name": "",
          "type": "bool"
        }
      ],
      "stateMutability": "view",
      "type": "function"
    },
    {
      "inputs": [
        {
          "internalType": "uint256",
          "name": "",
          "type": "uint256"
        },
        {
          "internalType": "uint256",
          "name": "",
          "type": "uint256"
        },
        {
          "internalType": "bytes32",
          "name": "",
          "type": "bytes32"
        }
      ],
      "name": "rbbBalances",
      "outputs": [
        {
          "internalType": "uint256",
          "name": "",
          "type": "uint256"
        }
      ],
      "stateMutability": "view",
      "type": "function"
    },
    {
      "inputs": [],
      "name": "registry",
      "outputs": [
        {
          "internalType": "contract RBBRegistry",
          "name": "",
          "type": "address"
        }
      ],
      "stateMutability": "view",
      "type": "function"
    },
    {
      "inputs": [],
      "name": "renounceOwnership",
      "outputs": [],
      "stateMutability": "nonpayable",
      "type": "function"
    },
    {
      "inputs": [],
      "name": "renouncePauser",
      "outputs": [],
      "stateMutability": "nonpayable",
      "type": "function"
    },
    {
      "inputs": [],
      "name": "responsibleForInvestmentConfirmation",
      "outputs": [
        {
          "internalType": "address",
          "name": "",
          "type": "address"
        }
      ],
      "stateMutability": "view",
      "type": "function"
    },
    {
      "inputs": [],
      "name": "responsibleForSettlement",
      "outputs": [
        {
          "internalType": "address",
          "name": "",
          "type": "address"
        }
      ],
      "stateMutability": "view",
      "type": "function"
    },
    {
      "inputs": [],
      "name": "tokenRegistry",
      "outputs": [
        {
          "internalType": "contract SpecificRBBTokenRegistry",
          "name": "",
          "type": "address"
        }
      ],
      "stateMutability": "view",
      "type": "function"
    },
    {
      "inputs": [
        {
          "internalType": "address",
          "name": "newOwner",
          "type": "address"
        }
      ],
      "name": "transferOwnership",
      "outputs": [],
      "stateMutability": "nonpayable",
      "type": "function"
    },
    {
      "inputs": [],
      "name": "unpause",
      "outputs": [],
      "stateMutability": "nonpayable",
      "type": "function"
    },
    {
      "inputs": [
        {
          "internalType": "bytes32",
          "name": "specificInvestimentHash",
          "type": "bytes32"
        },
        {
          "internalType": "uint256",
          "name": "idInvestor",
          "type": "uint256"
        },
        {
          "internalType": "uint256",
          "name": "amount",
          "type": "uint256"
        },
        {
          "internalType": "bytes32",
          "name": "docHash",
          "type": "bytes32"
        }
      ],
      "name": "requestMint",
      "outputs": [],
      "stateMutability": "nonpayable",
      "type": "function"
    },
    {
      "inputs": [
        {
          "internalType": "address",
          "name": "specificTokenAddr",
          "type": "address"
        },
        {
          "internalType": "uint256",
          "name": "idInvestor",
          "type": "uint256"
        },
        {
          "internalType": "bytes32",
          "name": "specificHash",
          "type": "bytes32"
        },
        {
          "internalType": "uint256",
          "name": "amount",
          "type": "uint256"
        },
        {
          "internalType": "bytes32",
          "name": "docHash",
          "type": "bytes32"
        },
        {
          "internalType": "string[]",
          "name": "data",
          "type": "string[]"
        }
      ],
      "name": "mint",
      "outputs": [],
      "stateMutability": "nonpayable",
      "type": "function"
    },
    {
      "inputs": [
        {
          "internalType": "address",
          "name": "originalSender",
          "type": "address"
        },
        {
          "internalType": "bytes32",
          "name": "hashToBurn",
          "type": "bytes32"
        },
        {
          "internalType": "uint256",
          "name": "amount",
          "type": "uint256"
        },
        {
          "internalType": "bytes32",
          "name": "docHash",
          "type": "bytes32"
        }
      ],
      "name": "burnOwnTokenBySpecificTokens",
      "outputs": [],
      "stateMutability": "nonpayable",
      "type": "function"
    },
    {
      "inputs": [
        {
          "internalType": "address",
          "name": "specificTokenAddr",
          "type": "address"
        },
        {
          "internalType": "bytes32",
          "name": "hashToBurn",
          "type": "bytes32"
        },
        {
          "internalType": "uint256",
          "name": "amount",
          "type": "uint256"
        },
        {
          "internalType": "bytes32",
          "name": "docHash",
          "type": "bytes32"
        }
      ],
      "name": "burnOwnToken",
      "outputs": [],
      "stateMutability": "nonpayable",
      "type": "function"
    },
    {
      "inputs": [
        {
          "internalType": "address",
          "name": "specificTokenAddr",
          "type": "address"
        },
        {
          "internalType": "bytes32",
          "name": "fromHash",
          "type": "bytes32"
        },
        {
          "internalType": "uint256",
          "name": "toId",
          "type": "uint256"
        },
        {
          "internalType": "bytes32",
          "name": "toHash",
          "type": "bytes32"
        },
        {
          "internalType": "uint256",
          "name": "amount",
          "type": "uint256"
        },
        {
          "internalType": "bytes32",
          "name": "docHash",
          "type": "bytes32"
        },
        {
          "internalType": "string[]",
          "name": "data",
          "type": "string[]"
        }
      ],
      "name": "transfer",
      "outputs": [],
      "stateMutability": "nonpayable",
      "type": "function"
    },
    {
      "inputs": [
        {
          "internalType": "address",
          "name": "specificTokenAddr",
          "type": "address"
        },
        {
          "internalType": "bytes32",
          "name": "fromHash",
          "type": "bytes32"
        },
        {
          "internalType": "uint256",
          "name": "amount",
          "type": "uint256"
        },
        {
          "internalType": "bytes32",
          "name": "docHash",
          "type": "bytes32"
        },
        {
          "internalType": "string[]",
          "name": "data",
          "type": "string[]"
        }
      ],
      "name": "redeem",
      "outputs": [],
      "stateMutability": "nonpayable",
      "type": "function"
    },
    {
      "inputs": [
        {
          "internalType": "address",
          "name": "specificTokenAddr",
          "type": "address"
        },
        {
          "internalType": "bytes32",
          "name": "redemptionTransactionHash",
          "type": "bytes32"
        },
        {
          "internalType": "bytes32",
          "name": "docHash",
          "type": "bytes32"
        },
        {
          "internalType": "string[]",
          "name": "data",
          "type": "string[]"
        }
      ],
      "name": "notifyRedemptionSettlement",
      "outputs": [],
      "stateMutability": "nonpayable",
      "type": "function"
    },
    {
      "inputs": [],
      "name": "getDecimals",
      "outputs": [
        {
          "internalType": "uint8",
          "name": "",
          "type": "uint8"
        }
      ],
      "stateMutability": "view",
      "type": "function"
    },
    {
      "inputs": [],
      "name": "getBndesId",
      "outputs": [
        {
          "internalType": "uint256",
          "name": "",
          "type": "uint256"
        }
      ],
      "stateMutability": "view",
      "type": "function"
    },
    {
      "inputs": [
        {
          "internalType": "address",
          "name": "rs",
          "type": "address"
        }
      ],
      "name": "setResponsibleForInvestmentConfirmation",
      "outputs": [],
      "stateMutability": "nonpayable",
      "type": "function"
    },
    {
      "inputs": [
        {
          "internalType": "address",
          "name": "rs",
          "type": "address"
        }
      ],
      "name": "setResponsibleForSettlement",
      "outputs": [],
      "stateMutability": "nonpayable",
      "type": "function"
    }
  ],
  "bytecode": "0x60806040526002600360146101000a81548160ff021916908360ff1602179055503480156200002d57600080fd5b50604051620047193803806200471983398181016040528101906200005391906200047b565b62000073620000676200026660201b60201c565b6200026e60201b60201c565b6000600160006101000a81548160ff0219169083151502179055506000620000a06200026660201b60201c565b9050806001806101000a81548173ffffffffffffffffffffffffffffffffffffffff021916908373ffffffffffffffffffffffffffffffffffffffff1602179055508073ffffffffffffffffffffffffffffffffffffffff16600073ffffffffffffffffffffffffffffffffffffffff167f8be0079c531659141344cd1fd0a4f28419497f9722a3daafe3b4186f6b6457e060405160405180910390a35082600360006101000a81548173ffffffffffffffffffffffffffffffffffffffff021916908373ffffffffffffffffffffffffffffffffffffffff16021790555081600260006101000a81548173ffffffffffffffffffffffffffffffffffffffff021916908373ffffffffffffffffffffffffffffffffffffffff16021790555080600360146101000a81548160ff021916908360ff16021790555033600460006101000a81548173ffffffffffffffffffffffffffffffffffffffff021916908373ffffffffffffffffffffffffffffffffffffffff16021790555033600560006101000a81548173ffffffffffffffffffffffffffffffffffffffff021916908373ffffffffffffffffffffffffffffffffffffffff16021790555050505062000645565b600033905090565b62000289816000620002cf60201b620022091790919060201c565b8073ffffffffffffffffffffffffffffffffffffffff167f6719d08c1888103bea251a4ed56406bd0c3e69723c8a1686e017e7bbe159b6f860405160405180910390a250565b620002e182826200038260201b60201c565b1562000324576040517f08c379a00000000000000000000000000000000000000000000000000000000081526004016200031b906200057b565b60405180910390fd5b60018260000160008373ffffffffffffffffffffffffffffffffffffffff1673ffffffffffffffffffffffffffffffffffffffff16815260200190815260200160002060006101000a81548160ff0219169083151502179055505050565b60008073ffffffffffffffffffffffffffffffffffffffff168273ffffffffffffffffffffffffffffffffffffffff161415620003f6576040517f08c379a0000000000000000000000000000000000000000000000000000000008152600401620003ed906200059d565b60405180910390fd5b8260000160008373ffffffffffffffffffffffffffffffffffffffff1673ffffffffffffffffffffffffffffffffffffffff16815260200190815260200160002060009054906101000a900460ff16905092915050565b6000815190506200045e8162000611565b92915050565b60008151905062000475816200062b565b92915050565b6000806000606084860312156200049157600080fd5b6000620004a1868287016200044d565b9350506020620004b4868287016200044d565b9250506040620004c78682870162000464565b9150509250925092565b6000620004e0601f83620005bf565b91507f526f6c65733a206163636f756e7420616c72656164792068617320726f6c65006000830152602082019050919050565b600062000522602283620005bf565b91507f526f6c65733a206163636f756e7420697320746865207a65726f20616464726560008301527f73730000000000000000000000000000000000000000000000000000000000006020830152604082019050919050565b600060208201905081810360008301526200059681620004d1565b9050919050565b60006020820190508181036000830152620005b88162000513565b9050919050565b600082825260208201905092915050565b6000620005dd82620005e4565b9050919050565b600073ffffffffffffffffffffffffffffffffffffffff82169050919050565b600060ff82169050919050565b6200061c81620005d0565b81146200062857600080fd5b50565b620006368162000604565b81146200064257600080fd5b50565b6140c480620006556000396000f3fe608060405234801561001057600080fd5b50600436106101c45760003560e01c8063715018a6116100f9578063a1ccae9711610097578063d9a428fe11610071578063d9a428fe1461046f578063e67b02a41461048b578063f0141d84146104a7578063f2fde38b146104c5576101c4565b8063a1ccae9714610419578063a6a9ba8814610435578063b7404ff514610453576101c4565b80638456cb59116100d35780638456cb59146103b55780638da5cb5b146103bf5780638f32d59b146103dd5780639d23c4c7146103fb576101c4565b8063715018a6146103715780637b1039991461037b57806382dc1ec414610399576101c4565b80633f4ba83a116101665780635c975abb116101405780635c975abb146102fd5780635d09022c1461031b5780636b569193146103375780636ef8d66d14610367576101c4565b80633f4ba83a146102a557806346fbf68e146102af5780634a47f599146102df576101c4565b806321453800116101a2578063214538001461021d57806330b499831461023b578063313ce5671461026b5780633d05817a14610289576101c4565b806304cc4d8e146101c95780630bb91394146101e55780630faf5eb214610201575b600080fd5b6101e360048036038101906101de9190612d1f565b6104e1565b005b6101ff60048036038101906101fa9190612aad565b610709565b005b61021b60048036038101906102169190612b9f565b61085e565b005b610225610c84565b604051610232919061363d565b60405180910390f35b61025560048036038101906102509190612e23565b610caa565b6040516102629190613ce2565b60405180910390f35b610273610cdc565b6040516102809190613d57565b60405180910390f35b6102a3600480360381019061029e9190612c55565b610cef565b005b6102ad61114a565b005b6102c960048036038101906102c49190612a09565b611243565b6040516102d69190613a16565b60405180910390f35b6102e7611260565b6040516102f49190613ce2565b60405180910390f35b61030561131e565b6040516103129190613a16565b60405180910390f35b61033560048036038101906103309190612a09565b611335565b005b610351600480360381019061034c9190612dab565b61159d565b60405161035e9190613ce2565b60405180910390f35b61036f6115c2565b005b6103796115d4565b005b6103836116d9565b6040516103909190613a8a565b60405180910390f35b6103b360048036038101906103ae9190612a09565b6116ff565b005b6103bd61175a565b005b6103c7611853565b6040516103d4919061363d565b60405180910390f35b6103e561187b565b6040516103f29190613a16565b60405180910390f35b6104036118d8565b6040516104109190613aa5565b60405180910390f35b610433600480360381019061042e9190612aad565b6118fe565b005b61043d611a4d565b60405161044a919061363d565b60405180910390f35b61046d60048036038101906104689190612a09565b611a73565b005b61048960048036038101906104849190612a32565b611cdb565b005b6104a560048036038101906104a09190612b10565b611efe565b005b6104af61219f565b6040516104bc9190613d57565b60405180910390f35b6104df60048036038101906104da9190612a09565b6121b6565b005b60008211610524576040517f08c379a000000000000000000000000000000000000000000000000000000000815260040161051b90613ba2565b60405180910390fd5b6000339050600260009054906101000a900473ffffffffffffffffffffffffffffffffffffffff1673ffffffffffffffffffffffffffffffffffffffff1663d06d86eb826040518263ffffffff1660e01b8152600401610584919061363d565b60006040518083038186803b15801561059c57600080fd5b505afa1580156105b0573d6000803e3d6000fd5b505050506000600260009054906101000a900473ffffffffffffffffffffffffffffffffffffffff1673ffffffffffffffffffffffffffffffffffffffff166324370167836040518263ffffffff1660e01b8152600401610611919061363d565b60206040518083038186803b15801561062957600080fd5b505afa15801561063d573d6000803e3d6000fd5b505050506040513d601f19601f820116820180604052508101906106619190612d82565b905061069a84600760008481526020019081526020016000206000898152602001908152602001600020546122b190919063ffffffff16565b600760008381526020019081526020016000206000888152602001908152602001600020819055507fb5d8f9b160e3756e6a72237700498d57cf4fc736169d86a72e2389a6d24a7df182878787876040516106f9959493929190613971565b60405180910390a1505050505050565b6000339050600260009054906101000a900473ffffffffffffffffffffffffffffffffffffffff1673ffffffffffffffffffffffffffffffffffffffff1663d06d86eb826040518263ffffffff1660e01b8152600401610769919061363d565b60006040518083038186803b15801561078157600080fd5b505afa158015610795573d6000803e3d6000fd5b505050506000600260009054906101000a900473ffffffffffffffffffffffffffffffffffffffff1673ffffffffffffffffffffffffffffffffffffffff1663c2c7ea79836040518263ffffffff1660e01b81526004016107f6919061363d565b60206040518083038186803b15801561080e57600080fd5b505afa158015610822573d6000803e3d6000fd5b505050506040513d601f19601f820116820180604052508101906108469190612d82565b9050610856828783888888612306565b505050505050565b600160009054906101000a900460ff16156108ae576040517f08c379a00000000000000000000000000000000000000000000000000000000081526004016108a590613be2565b60405180910390fd5b6000600360009054906101000a900473ffffffffffffffffffffffffffffffffffffffff1673ffffffffffffffffffffffffffffffffffffffff166365f68c89336040518263ffffffff1660e01b815260040161090b9190613658565b60206040518083038186803b15801561092357600080fd5b505afa158015610937573d6000803e3d6000fd5b505050506040513d601f19601f8201168201806040525081019061095b9190612d82565b9050600260009054906101000a900473ffffffffffffffffffffffffffffffffffffffff1673ffffffffffffffffffffffffffffffffffffffff1663d06d86eb896040518263ffffffff1660e01b81526004016109b8919061363d565b60006040518083038186803b1580156109d057600080fd5b505afa1580156109e4573d6000803e3d6000fd5b505050506000600260009054906101000a900473ffffffffffffffffffffffffffffffffffffffff1673ffffffffffffffffffffffffffffffffffffffff1663243701678a6040518263ffffffff1660e01b8152600401610a45919061363d565b60206040518083038186803b158015610a5d57600080fd5b505afa158015610a71573d6000803e3d6000fd5b505050506040513d601f19601f82011682018060405250810190610a959190612d82565b905060008990508073ffffffffffffffffffffffffffffffffffffffff166341574b3b33858c8c8c8c8c8c6040518963ffffffff1660e01b8152600401610ae39897969594939291906136db565b600060405180830381600087803b158015610afd57600080fd5b505af1158015610b11573d6000803e3d6000fd5b50505050610b77866040518060600160405280603881526020016140576038913960066000868152602001908152602001600020600087815260200190815260200160002060008d8152602001908152602001600020546125259092919063ffffffff16565b60066000848152602001908152602001600020600085815260200190815260200160002060008b815260200190815260200160002081905550610bf8866006600085815260200190815260200160002060008b815260200190815260200160002060008a8152602001908152602001600020546122b190919063ffffffff16565b6006600084815260200190815260200160002060008a81526020019081526020016000206000898152602001908152602001600020819055507fbdea818d4f1687df74b09fdbb5d86c436785fb62b1374ee6b3497ebe39e6f5258a33858c8c8c8c8c8c604051610c70999897969594939291906137d6565b60405180910390a150505050505050505050565b600560009054906101000a900473ffffffffffffffffffffffffffffffffffffffff1681565b600660205282600052604060002060205281600052604060002060205280600052604060002060009250925050505481565b600360149054906101000a900460ff1681565b600260009054906101000a900473ffffffffffffffffffffffffffffffffffffffff1673ffffffffffffffffffffffffffffffffffffffff1663d06d86eb876040518263ffffffff1660e01b8152600401610d4a919061363d565b60006040518083038186803b158015610d6257600080fd5b505afa158015610d76573d6000803e3d6000fd5b505050503373ffffffffffffffffffffffffffffffffffffffff16600460009054906101000a900473ffffffffffffffffffffffffffffffffffffffff1673ffffffffffffffffffffffffffffffffffffffff1614610e0a576040517f08c379a0000000000000000000000000000000000000000000000000000000008152600401610e0190613bc2565b60405180910390fd5b60008311610e4d576040517f08c379a0000000000000000000000000000000000000000000000000000000008152600401610e4490613cc2565b60405180910390fd5b600080600260009054906101000a900473ffffffffffffffffffffffffffffffffffffffff1673ffffffffffffffffffffffffffffffffffffffff16638264f978896040518263ffffffff1660e01b8152600401610eab919061363d565b604080518083038186803b158015610ec257600080fd5b505afa158015610ed6573d6000803e3d6000fd5b505050506040513d601f19601f82011682018060405250810190610efa9190612de7565b91509150610f4f85604051806060016040528060298152602001613ff3602991396007600086815260200190815260200160002060008a8152602001908152602001600020546125259092919063ffffffff16565b60076000848152602001908152602001600020600088815260200190815260200160002081905550600088905060008173ffffffffffffffffffffffffffffffffffffffff1663cd541b7a896040518263ffffffff1660e01b8152600401610fb79190613a31565b602060405180830381600087803b158015610fd157600080fd5b505af1158015610fe5573d6000803e3d6000fd5b505050506040513d601f19601f820116820180604052508101906110099190612cf6565b9050611053876006600087815260200190815260200160002060008681526020019081526020016000206000848152602001908152602001600020546122b190919063ffffffff16565b6006600086815260200190815260200160002060008581526020019081526020016000206000838152602001908152602001600020819055508173ffffffffffffffffffffffffffffffffffffffff16630990da738a8a8a8a8a6040518663ffffffff1660e01b81526004016110cd959493929190613cfd565b600060405180830381600087803b1580156110e757600080fd5b505af11580156110fb573d6000803e3d6000fd5b505050507f3f0f1f541f704191af92125dcf03aa5ef8ed27b996d6b2ba3c3c91e1351c5c0e8a89898989604051611136959493929190613917565b60405180910390a150505050505050505050565b61115a611155612580565b611243565b611199576040517f08c379a000000000000000000000000000000000000000000000000000000000815260040161119090613b42565b60405180910390fd5b600160009054906101000a900460ff166111e8576040517f08c379a00000000000000000000000000000000000000000000000000000000081526004016111df90613b02565b60405180910390fd5b6000600160006101000a81548160ff0219169083151502179055507f5db9ee0a495bf2e6ff9c91a7834c1ba4fdd244a5e8aa4e537bd38aeae4b073aa61122c612580565b6040516112399190613658565b60405180910390a1565b600061125982600061258890919063ffffffff16565b9050919050565b600080600360009054906101000a900473ffffffffffffffffffffffffffffffffffffffff1673ffffffffffffffffffffffffffffffffffffffff166365f68c896112a9611853565b6040518263ffffffff1660e01b81526004016112c5919061363d565b60206040518083038186803b1580156112dd57600080fd5b505afa1580156112f1573d6000803e3d6000fd5b505050506040513d601f19601f820116820180604052508101906113159190612d82565b90508091505090565b6000600160009054906101000a900460ff16905090565b61133d61187b565b61137c576040517f08c379a000000000000000000000000000000000000000000000000000000000815260040161137390613c82565b60405180910390fd5b6000600360009054906101000a900473ffffffffffffffffffffffffffffffffffffffff1673ffffffffffffffffffffffffffffffffffffffff166365f68c89836040518263ffffffff1660e01b81526004016113d9919061363d565b60206040518083038186803b1580156113f157600080fd5b505afa158015611405573d6000803e3d6000fd5b505050506040513d601f19601f820116820180604052508101906114299190612d82565b9050600360009054906101000a900473ffffffffffffffffffffffffffffffffffffffff1673ffffffffffffffffffffffffffffffffffffffff166365f68c89611471611853565b6040518263ffffffff1660e01b815260040161148d919061363d565b60206040518083038186803b1580156114a557600080fd5b505afa1580156114b9573d6000803e3d6000fd5b505050506040513d601f19601f820116820180604052508101906114dd9190612d82565b811461151e576040517f08c379a000000000000000000000000000000000000000000000000000000000815260040161151590613ae2565b60405180910390fd5b81600460006101000a81548173ffffffffffffffffffffffffffffffffffffffff021916908373ffffffffffffffffffffffffffffffffffffffff1602179055507faf10d91531a8d27fc602286518b7fd48b5ea40e30a02f824746cd67a2ab488c88260016040516115919291906139c4565b60405180910390a15050565b6007602052816000526040600020602052806000526040600020600091509150505481565b6115d26115cd612580565b612650565b565b6115dc61187b565b61161b576040517f08c379a000000000000000000000000000000000000000000000000000000000815260040161161290613c82565b60405180910390fd5b600073ffffffffffffffffffffffffffffffffffffffff1660018054906101000a900473ffffffffffffffffffffffffffffffffffffffff1673ffffffffffffffffffffffffffffffffffffffff167f8be0079c531659141344cd1fd0a4f28419497f9722a3daafe3b4186f6b6457e060405160405180910390a360006001806101000a81548173ffffffffffffffffffffffffffffffffffffffff021916908373ffffffffffffffffffffffffffffffffffffffff160217905550565b600360009054906101000a900473ffffffffffffffffffffffffffffffffffffffff1681565b61170f61170a612580565b611243565b61174e576040517f08c379a000000000000000000000000000000000000000000000000000000000815260040161174590613b42565b60405180910390fd5b611757816126aa565b50565b61176a611765612580565b611243565b6117a9576040517f08c379a00000000000000000000000000000000000000000000000000000000081526004016117a090613b42565b60405180910390fd5b600160009054906101000a900460ff16156117f9576040517f08c379a00000000000000000000000000000000000000000000000000000000081526004016117f090613be2565b60405180910390fd5b60018060006101000a81548160ff0219169083151502179055507f62e78cea01bee320cd4e420270b5ea74000d11b0c9f74754ebdbfc544b05a25861183c612580565b6040516118499190613658565b60405180910390a1565b600060018054906101000a900473ffffffffffffffffffffffffffffffffffffffff16905090565b600060018054906101000a900473ffffffffffffffffffffffffffffffffffffffff1673ffffffffffffffffffffffffffffffffffffffff166118bc612580565b73ffffffffffffffffffffffffffffffffffffffff1614905090565b600260009054906101000a900473ffffffffffffffffffffffffffffffffffffffff1681565b600260009054906101000a900473ffffffffffffffffffffffffffffffffffffffff1673ffffffffffffffffffffffffffffffffffffffff1663d06d86eb856040518263ffffffff1660e01b8152600401611959919061363d565b60006040518083038186803b15801561197157600080fd5b505afa158015611985573d6000803e3d6000fd5b505050506000600360009054906101000a900473ffffffffffffffffffffffffffffffffffffffff1673ffffffffffffffffffffffffffffffffffffffff166365f68c89336040518263ffffffff1660e01b81526004016119e69190613658565b60206040518083038186803b1580156119fe57600080fd5b505afa158015611a12573d6000803e3d6000fd5b505050506040513d601f19601f82011682018060405250810190611a369190612d82565b9050611a46853383878787612306565b5050505050565b600460009054906101000a900473ffffffffffffffffffffffffffffffffffffffff1681565b611a7b61187b565b611aba576040517f08c379a0000000000000000000000000000000000000000000000000000000008152600401611ab190613c82565b60405180910390fd5b6000600360009054906101000a900473ffffffffffffffffffffffffffffffffffffffff1673ffffffffffffffffffffffffffffffffffffffff166365f68c89836040518263ffffffff1660e01b8152600401611b17919061363d565b60206040518083038186803b158015611b2f57600080fd5b505afa158015611b43573d6000803e3d6000fd5b505050506040513d601f19601f82011682018060405250810190611b679190612d82565b9050600360009054906101000a900473ffffffffffffffffffffffffffffffffffffffff1673ffffffffffffffffffffffffffffffffffffffff166365f68c89611baf611853565b6040518263ffffffff1660e01b8152600401611bcb919061363d565b60206040518083038186803b158015611be357600080fd5b505afa158015611bf7573d6000803e3d6000fd5b505050506040513d601f19601f82011682018060405250810190611c1b9190612d82565b8114611c5c576040517f08c379a0000000000000000000000000000000000000000000000000000000008152600401611c5390613c02565b60405180910390fd5b81600560006101000a81548173ffffffffffffffffffffffffffffffffffffffff021916908373ffffffffffffffffffffffffffffffffffffffff1602179055507faf10d91531a8d27fc602286518b7fd48b5ea40e30a02f824746cd67a2ab488c8826002604051611ccf9291906139ed565b60405180910390a15050565b600160009054906101000a900460ff1615611d2b576040517f08c379a0000000000000000000000000000000000000000000000000000000008152600401611d2290613be2565b60405180910390fd5b600260009054906101000a900473ffffffffffffffffffffffffffffffffffffffff1673ffffffffffffffffffffffffffffffffffffffff1663d06d86eb856040518263ffffffff1660e01b8152600401611d86919061363d565b60006040518083038186803b158015611d9e57600080fd5b505afa158015611db2573d6000803e3d6000fd5b505050503373ffffffffffffffffffffffffffffffffffffffff16600560009054906101000a900473ffffffffffffffffffffffffffffffffffffffff1673ffffffffffffffffffffffffffffffffffffffff1614611e46576040517f08c379a0000000000000000000000000000000000000000000000000000000008152600401611e3d90613c62565b60405180910390fd5b60008490508073ffffffffffffffffffffffffffffffffffffffff1663a6ee26e18585856040518463ffffffff1660e01b8152600401611e8893929190613a4c565b600060405180830381600087803b158015611ea257600080fd5b505af1158015611eb6573d6000803e3d6000fd5b505050507f6b9ae09d6ab882c931047d5687aa3a062d69d6b6caf4b04af6cb9df81245ab5185858585604051611eef94939291906138cb565b60405180910390a15050505050565b600160009054906101000a900460ff1615611f4e576040517f08c379a0000000000000000000000000000000000000000000000000000000008152600401611f4590613be2565b60405180910390fd5b6000600360009054906101000a900473ffffffffffffffffffffffffffffffffffffffff1673ffffffffffffffffffffffffffffffffffffffff166365f68c89336040518263ffffffff1660e01b8152600401611fab9190613658565b60206040518083038186803b158015611fc357600080fd5b505afa158015611fd7573d6000803e3d6000fd5b505050506040513d601f19601f82011682018060405250810190611ffb9190612d82565b9050600260009054906101000a900473ffffffffffffffffffffffffffffffffffffffff1673ffffffffffffffffffffffffffffffffffffffff1663d06d86eb876040518263ffffffff1660e01b8152600401612058919061363d565b60006040518083038186803b15801561207057600080fd5b505afa158015612084573d6000803e3d6000fd5b50505050600084116120cb576040517f08c379a00000000000000000000000000000000000000000000000000000000081526004016120c290613c22565b60405180910390fd5b60008690508073ffffffffffffffffffffffffffffffffffffffff1663ba6ad8533384898989896040518763ffffffff1660e01b815260040161211396959493929190613673565b600060405180830381600087803b15801561212d57600080fd5b505af1158015612141573d6000803e3d6000fd5b505050507f3115381baa8fda8997478031f1bd9f852965a6be640620b542c229a91e0302ab873384898989896040516121809796959493929190613760565b60405180910390a1612196873384898989612306565b50505050505050565b6000600360149054906101000a900460ff16905090565b6121be61187b565b6121fd576040517f08c379a00000000000000000000000000000000000000000000000000000000081526004016121f490613c82565b60405180910390fd5b61220681612704565b50565b6122138282612588565b15612253576040517f08c379a000000000000000000000000000000000000000000000000000000000815260040161224a90613b22565b60405180910390fd5b60018260000160008373ffffffffffffffffffffffffffffffffffffffff1673ffffffffffffffffffffffffffffffffffffffff16815260200190815260200160002060006101000a81548160ff0219169083151502179055505050565b6000808284019050838110156122fc576040517f08c379a00000000000000000000000000000000000000000000000000000000081526004016122f390613b82565b60405180910390fd5b8091505092915050565b600260009054906101000a900473ffffffffffffffffffffffffffffffffffffffff1673ffffffffffffffffffffffffffffffffffffffff1663d06d86eb876040518263ffffffff1660e01b8152600401612361919061363d565b60006040518083038186803b15801561237957600080fd5b505afa15801561238d573d6000803e3d6000fd5b505050506000600260009054906101000a900473ffffffffffffffffffffffffffffffffffffffff1673ffffffffffffffffffffffffffffffffffffffff166324370167886040518263ffffffff1660e01b81526004016123ee919061363d565b60206040518083038186803b15801561240657600080fd5b505afa15801561241a573d6000803e3d6000fd5b505050506040513d601f19601f8201168201806040525081019061243e9190612d82565b90506124a2836040518060600160405280603b815260200161401c603b91396006600085815260200190815260200160002060008981526020019081526020016000206000888152602001908152602001600020546125259092919063ffffffff16565b6006600083815260200190815260200160002060008781526020019081526020016000206000868152602001908152602001600020819055507f92f02b400db4c2c442eac2df8de068b8e835d18b96ba11a431c69c468cd441c38787878787876040516125149695949392919061386a565b60405180910390a150505050505050565b600083831115829061256d576040517f08c379a00000000000000000000000000000000000000000000000000000000081526004016125649190613ac0565b60405180910390fd5b5060008385039050809150509392505050565b600033905090565b60008073ffffffffffffffffffffffffffffffffffffffff168273ffffffffffffffffffffffffffffffffffffffff1614156125f9576040517f08c379a00000000000000000000000000000000000000000000000000000000081526004016125f090613ca2565b60405180910390fd5b8260000160008373ffffffffffffffffffffffffffffffffffffffff1673ffffffffffffffffffffffffffffffffffffffff16815260200190815260200160002060009054906101000a900460ff16905092915050565b61266481600061283190919063ffffffff16565b8073ffffffffffffffffffffffffffffffffffffffff167fcd265ebaf09df2871cc7bd4133404a235ba12eff2041bb89d9c714a2621c7c7e60405160405180910390a250565b6126be81600061220990919063ffffffff16565b8073ffffffffffffffffffffffffffffffffffffffff167f6719d08c1888103bea251a4ed56406bd0c3e69723c8a1686e017e7bbe159b6f860405160405180910390a250565b600073ffffffffffffffffffffffffffffffffffffffff168173ffffffffffffffffffffffffffffffffffffffff161415612774576040517f08c379a000000000000000000000000000000000000000000000000000000000815260040161276b90613b62565b60405180910390fd5b8073ffffffffffffffffffffffffffffffffffffffff1660018054906101000a900473ffffffffffffffffffffffffffffffffffffffff1673ffffffffffffffffffffffffffffffffffffffff167f8be0079c531659141344cd1fd0a4f28419497f9722a3daafe3b4186f6b6457e060405160405180910390a3806001806101000a81548173ffffffffffffffffffffffffffffffffffffffff021916908373ffffffffffffffffffffffffffffffffffffffff16021790555050565b61283b8282612588565b61287a576040517f08c379a000000000000000000000000000000000000000000000000000000000815260040161287190613c42565b60405180910390fd5b60008260000160008373ffffffffffffffffffffffffffffffffffffffff1673ffffffffffffffffffffffffffffffffffffffff16815260200190815260200160002060006101000a81548160ff0219169083151502179055505050565b6000813590506128e781613fad565b92915050565b600082601f8301126128fe57600080fd5b813561291161290c82613d9f565b613d72565b9150818183526020840193506020810190508360005b83811015612957578135860161293d888261298b565b845260208401935060208301925050600181019050612927565b5050505092915050565b60008135905061297081613fc4565b92915050565b60008151905061298581613fc4565b92915050565b600082601f83011261299c57600080fd5b81356129af6129aa82613dc7565b613d72565b915080825260208301602083018583830111156129cb57600080fd5b6129d6838284613f5a565b50505092915050565b6000813590506129ee81613fdb565b92915050565b600081519050612a0381613fdb565b92915050565b600060208284031215612a1b57600080fd5b6000612a29848285016128d8565b91505092915050565b60008060008060808587031215612a4857600080fd5b6000612a56878288016128d8565b9450506020612a6787828801612961565b9350506040612a7887828801612961565b925050606085013567ffffffffffffffff811115612a9557600080fd5b612aa1878288016128ed565b91505092959194509250565b60008060008060808587031215612ac357600080fd5b6000612ad1878288016128d8565b9450506020612ae287828801612961565b9350506040612af3878288016129df565b9250506060612b0487828801612961565b91505092959194509250565b600080600080600060a08688031215612b2857600080fd5b6000612b36888289016128d8565b9550506020612b4788828901612961565b9450506040612b58888289016129df565b9350506060612b6988828901612961565b925050608086013567ffffffffffffffff811115612b8657600080fd5b612b92888289016128ed565b9150509295509295909350565b600080600080600080600060e0888a031215612bba57600080fd5b6000612bc88a828b016128d8565b9750506020612bd98a828b01612961565b9650506040612bea8a828b016129df565b9550506060612bfb8a828b01612961565b9450506080612c0c8a828b016129df565b93505060a0612c1d8a828b01612961565b92505060c088013567ffffffffffffffff811115612c3a57600080fd5b612c468a828b016128ed565b91505092959891949750929550565b60008060008060008060c08789031215612c6e57600080fd5b6000612c7c89828a016128d8565b9650506020612c8d89828a016129df565b9550506040612c9e89828a01612961565b9450506060612caf89828a016129df565b9350506080612cc089828a01612961565b92505060a087013567ffffffffffffffff811115612cdd57600080fd5b612ce989828a016128ed565b9150509295509295509295565b600060208284031215612d0857600080fd5b6000612d1684828501612976565b91505092915050565b60008060008060808587031215612d3557600080fd5b6000612d4387828801612961565b9450506020612d54878288016129df565b9350506040612d65878288016129df565b9250506060612d7687828801612961565b91505092959194509250565b600060208284031215612d9457600080fd5b6000612da2848285016129f4565b91505092915050565b60008060408385031215612dbe57600080fd5b6000612dcc858286016129df565b9250506020612ddd85828601612961565b9150509250929050565b60008060408385031215612dfa57600080fd5b6000612e08858286016129f4565b9250506020612e19858286016129f4565b9150509250929050565b600080600060608486031215612e3857600080fd5b6000612e46868287016129df565b9350506020612e57868287016129df565b9250506040612e6886828701612961565b9150509250925092565b6000612e7e8383612f73565b905092915050565b612e8f81613eb8565b82525050565b612e9e81613e59565b82525050565b6000612eaf82613e03565b612eb98185613e26565b935083602082028501612ecb85613df3565b8060005b85811015612f075784840389528151612ee88582612e72565b9450612ef383613e19565b925060208a01995050600181019050612ecf565b50829750879550505050505092915050565b612f2281613e6b565b82525050565b612f3181613e77565b82525050565b612f4081613eca565b82525050565b612f4f81613eee565b82525050565b612f5e81613f12565b82525050565b612f6d81613f24565b82525050565b6000612f7e82613e0e565b612f888185613e37565b9350612f98818560208601613f69565b612fa181613f9c565b840191505092915050565b6000612fb782613e0e565b612fc18185613e48565b9350612fd1818560208601613f69565b612fda81613f9c565b840191505092915050565b6000612ff2605683613e48565b91507f4f20726573706f6e73c3a176656c2070656c6120636f6e6669726d61c3a7c3a360008301527f6f20646f20696e76657374696d656e746f20646576652073657220646f206d6560208301527f736d6f205242425f494420646f20636f6e747261746f000000000000000000006040830152606082019050919050565b600061307e601483613e48565b91507f5061757361626c653a206e6f74207061757365640000000000000000000000006000830152602082019050919050565b60006130be601f83613e48565b91507f526f6c65733a206163636f756e7420616c72656164792068617320726f6c65006000830152602082019050919050565b60006130fe603083613e48565b91507f506175736572526f6c653a2063616c6c657220646f6573206e6f74206861766560008301527f207468652050617573657220726f6c65000000000000000000000000000000006020830152604082019050919050565b6000613164602683613e48565b91507f4f776e61626c653a206e6577206f776e657220697320746865207a65726f206160008301527f64647265737300000000000000000000000000000000000000000000000000006020830152604082019050919050565b60006131ca601b83613e48565b91507f536166654d6174683a206164646974696f6e206f766572666c6f7700000000006000830152602082019050919050565b600061320a603583613e48565b91507f56616c6f72206120736572207472616e736163696f6e61646f2064657665207360008301527f6572206d61696f7220646f20717565207a65726f2e00000000000000000000006020830152604082019050919050565b6000613270605483613e48565b91507f536f6d656e746520756d20726573706f6e73c3a176656c2070656c6120636f6e60008301527f6669726d61c3a7c3a36f20646520696e76657374696d656e746f20706f64652060208301527f656e766961722061207472616e7361c3a7c3a36f0000000000000000000000006040830152606082019050919050565b60006132fc601083613e48565b91507f5061757361626c653a20706175736564000000000000000000000000000000006000830152602082019050919050565b600061333c604583613e48565b91507f4f20726573706f6e73c3a176656c2070656c61206c697175696461c3a7c3a36f60008301527f206465766520736572206461206d65736d6f205242425f494420646f20636f6e60208301527f747261746f0000000000000000000000000000000000000000000000000000006040830152606082019050919050565b60006133c8602b83613e48565b91507f56616c6f722061207265736761746172206465766520736572206d61696f722060008301527f646f20717565207a65726f0000000000000000000000000000000000000000006020830152604082019050919050565b600061342e602183613e48565b91507f526f6c65733a206163636f756e7420646f6573206e6f74206861766520726f6c60008301527f65000000000000000000000000000000000000000000000000000000000000006020830152604082019050919050565b6000613494604383613e48565b91507f536f6d656e746520756d20726573706f6e73c3a176656c2070656c61206c697160008301527f75696469c3a7c3a36f20706f646520656e766961722061207472616e7361c3a760208301527fc3a36f00000000000000000000000000000000000000000000000000000000006040830152606082019050919050565b6000613520602083613e48565b91507f4f776e61626c653a2063616c6c6572206973206e6f7420746865206f776e65726000830152602082019050919050565b6000613560602283613e48565b91507f526f6c65733a206163636f756e7420697320746865207a65726f20616464726560008301527f73730000000000000000000000000000000000000000000000000000000000006020830152604082019050919050565b60006135c6602983613e48565b91507f56616c6f722061206d696e746172206465766520736572206d61696f7220646f60008301527f20717565207a65726f00000000000000000000000000000000000000000000006020830152604082019050919050565b61362881613ea1565b82525050565b61363781613eab565b82525050565b60006020820190506136526000830184612e95565b92915050565b600060208201905061366d6000830184612e86565b92915050565b600060c0820190506136886000830189612e86565b613695602083018861361f565b6136a26040830187612f28565b6136af606083018661361f565b6136bc6080830185612f28565b81810360a08301526136ce8184612ea4565b9050979650505050505050565b6000610100820190506136f1600083018b612e86565b6136fe602083018a61361f565b61370b6040830189612f28565b613718606083018861361f565b6137256080830187612f28565b61373260a083018661361f565b61373f60c0830185612f28565b81810360e08301526137518184612ea4565b90509998505050505050505050565b600060e082019050613775600083018a612e95565b6137826020830189612e86565b61378f604083018861361f565b61379c6060830187612f28565b6137a9608083018661361f565b6137b660a0830185612f28565b81810360c08301526137c88184612ea4565b905098975050505050505050565b6000610120820190506137ec600083018c612e95565b6137f9602083018b612e86565b613806604083018a61361f565b6138136060830189612f28565b613820608083018861361f565b61382d60a0830187612f28565b61383a60c083018661361f565b61384760e0830185612f28565b81810361010083015261385a8184612ea4565b90509a9950505050505050505050565b600060c08201905061387f6000830189612e95565b61388c6020830188612e95565b613899604083018761361f565b6138a66060830186612f28565b6138b3608083018561361f565b6138c060a0830184612f28565b979650505050505050565b60006080820190506138e06000830187612e95565b6138ed6020830186612f28565b6138fa6040830185612f28565b818103606083015261390c8184612ea4565b905095945050505050565b600060a08201905061392c6000830188612e95565b6139396020830187612f28565b613946604083018661361f565b6139536060830185612f28565b81810360808301526139658184612ea4565b90509695505050505050565b600060a0820190506139866000830188612e95565b6139936020830187612f28565b6139a0604083018661361f565b6139ad606083018561361f565b6139ba6080830184612f28565b9695505050505050565b60006040820190506139d96000830185612e95565b6139e66020830184612f55565b9392505050565b6000604082019050613a026000830185612e95565b613a0f6020830184612f64565b9392505050565b6000602082019050613a2b6000830184612f19565b92915050565b6000602082019050613a466000830184612f28565b92915050565b6000606082019050613a616000830186612f28565b613a6e6020830185612f28565b8181036040830152613a808184612ea4565b9050949350505050565b6000602082019050613a9f6000830184612f37565b92915050565b6000602082019050613aba6000830184612f46565b92915050565b60006020820190508181036000830152613ada8184612fac565b905092915050565b60006020820190508181036000830152613afb81612fe5565b9050919050565b60006020820190508181036000830152613b1b81613071565b9050919050565b60006020820190508181036000830152613b3b816130b1565b9050919050565b60006020820190508181036000830152613b5b816130f1565b9050919050565b60006020820190508181036000830152613b7b81613157565b9050919050565b60006020820190508181036000830152613b9b816131bd565b9050919050565b60006020820190508181036000830152613bbb816131fd565b9050919050565b60006020820190508181036000830152613bdb81613263565b9050919050565b60006020820190508181036000830152613bfb816132ef565b9050919050565b60006020820190508181036000830152613c1b8161332f565b9050919050565b60006020820190508181036000830152613c3b816133bb565b9050919050565b60006020820190508181036000830152613c5b81613421565b9050919050565b60006020820190508181036000830152613c7b81613487565b9050919050565b60006020820190508181036000830152613c9b81613513565b9050919050565b60006020820190508181036000830152613cbb81613553565b9050919050565b60006020820190508181036000830152613cdb816135b9565b9050919050565b6000602082019050613cf7600083018461361f565b92915050565b600060a082019050613d12600083018861361f565b613d1f6020830187612f28565b613d2c604083018661361f565b613d396060830185612f28565b8181036080830152613d4b8184612ea4565b90509695505050505050565b6000602082019050613d6c600083018461362e565b92915050565b6000604051905081810181811067ffffffffffffffff82111715613d9557600080fd5b8060405250919050565b600067ffffffffffffffff821115613db657600080fd5b602082029050602081019050919050565b600067ffffffffffffffff821115613dde57600080fd5b601f19601f8301169050602081019050919050565b6000819050602082019050919050565b600081519050919050565b600081519050919050565b6000602082019050919050565b600082825260208201905092915050565b600082825260208201905092915050565b600082825260208201905092915050565b6000613e6482613e81565b9050919050565b60008115159050919050565b6000819050919050565b600073ffffffffffffffffffffffffffffffffffffffff82169050919050565b6000819050919050565b600060ff82169050919050565b6000613ec382613f36565b9050919050565b6000613ed582613edc565b9050919050565b6000613ee782613e81565b9050919050565b6000613ef982613f00565b9050919050565b6000613f0b82613e81565b9050919050565b6000613f1d82613eab565b9050919050565b6000613f2f82613eab565b9050919050565b6000613f4182613f48565b9050919050565b6000613f5382613e81565b9050919050565b82818337600083830152505050565b60005b83811015613f87578082015181840152602081019050613f6c565b83811115613f96576000848401525b50505050565b6000601f19601f8301169050919050565b613fb681613e59565b8114613fc157600080fd5b50565b613fcd81613e77565b8114613fd857600080fd5b50565b613fe481613ea1565b8114613fef57600080fd5b5056fe546f74616c20646520656d697373c3a36f206578636564652076616c6f7220736f6c6963697461646f546f74616c20646520746f6b656e73206120736572656d20717565696d61646f7320c3a9206d61696f7220646f20717565206f2062616c616e636553616c646f206461206f726967656d206ec3a36f20c3a920737566696369656e746520706172612061207472616e73666572c3aa6e636961a26469706673582212207febee6b46e4c689174925dce45a9c6afcd92bbdc573610d0dbf943a6860476664736f6c634300060c0033",
  "immutableReferences": {},
  "source": "pragma solidity ^0.6.0;\npragma experimental ABIEncoderV2;\n\nimport \"./RBBRegistry.sol\";\nimport \"./SpecificRBBToken.sol\";\nimport \"./SpecificRBBTokenRegistry.sol\";\nimport \"@openzeppelin/contracts/ownership/Ownable.sol\";\nimport \"@openzeppelin/contracts/lifecycle/Pausable.sol\";\nimport \"@openzeppelin/contracts/math/SafeMath.sol\";\n\n\ncontract RBBToken is Pausable, Ownable {\n\n//TODO: avaliar se deveria ter um set para modificar esses atributos. Ideal seria mudar apenas pela governanca\n    SpecificRBBTokenRegistry public tokenRegistry;\n    RBBRegistry public registry;\n\n\n    using SafeMath for uint;\n\n    uint8 public decimals = 2;\n\n    address public responsibleForInvestmentConfirmation;\n    address public responsibleForSettlement;\n\n\n    //specificTokenId => (RBBid => (specificHash => amount)\n    mapping (uint => mapping (uint => mapping (bytes32 => uint))) public rbbBalances;\n\n    //specificTokenId => (specificHash => amount)\n    mapping (uint => mapping (bytes32 => uint)) public balanceRequestedTokens;\n\n    event RBBTokenMintRequested(address specificTokenAddr, bytes32 specificHash, uint idInvestor, \n            uint amount, bytes32 docHash);\n    event RBBTokenMint(address specificTokenAddr, bytes32 specificHash, uint amount, bytes32 docHash, string[] data);\n    event RBBTokenBurn(address specificTokenAddr, address originalSender, uint fromId, bytes32 fromHash, \n            uint amount, bytes32 docHash);\n    event RBBTokenTransfer (address specificTokenAddr, address originalSender, uint fromId, bytes32 fromHash, uint toId,\n            bytes32 toHash, uint amount, bytes32 docHash, string[] data);\n    event RBBTokenRedemptionRequested (address specificTokenAddr, address originalSender, uint fromId, bytes32 fromHash, \n            uint amount, bytes32 docHash, string[] data);\n    event RBBTokenRedemptionSettlement(address specificTokenAddr, bytes32 redemptionTransactionHash, \n            bytes32 docHash, string[] data);\n\n    event ManualIntervention_RoleOrAddress(address account, uint8 eventType);\n\n\n    constructor (address newRegistryAddr, address newSpecificRBBTokenAddr, uint8 _decimals) public {\n        registry = RBBRegistry(newRegistryAddr);\n        tokenRegistry = SpecificRBBTokenRegistry(newSpecificRBBTokenAddr);\n        decimals = _decimals;\n        responsibleForInvestmentConfirmation = msg.sender;\n        responsibleForSettlement = msg.sender;\n\n    }\n\n///******************************************************************* */\n\n    function requestMint(bytes32 specificInvestimentHash, uint idInvestor, uint amount, bytes32 docHash) \n        public {\n    \n        require (amount>0, \"Valor a ser transacionado deve ser maior do que zero.\");\n        address specificTokenAddr = msg.sender;\n\n        tokenRegistry.verifyTokenIsRegisteredAndActive(specificTokenAddr);\n        \n        uint specificTokenId = tokenRegistry.getSpecificRBBTokenId(specificTokenAddr);\n\n        balanceRequestedTokens[specificTokenId][specificInvestimentHash] = \n            balanceRequestedTokens[specificTokenId][specificInvestimentHash].add(amount);\n    \n        emit RBBTokenMintRequested(specificTokenAddr, specificInvestimentHash, idInvestor, amount, docHash);\n\n    }\n\n    function mint(address specificTokenAddr, uint idInvestor, bytes32 specificHash, uint amount, bytes32 docHash,\n        string[] memory data) public {\n\n        tokenRegistry.verifyTokenIsRegisteredAndActive(specificTokenAddr);\n\n        require (responsibleForInvestmentConfirmation == msg.sender, \n            \"Somente um responsvel pela confirmao de investimento pode enviar a transao\");\n\n        require(amount>0, \"Valor a mintar deve ser maior do que zero\");\n\n        (uint specificTokenId, uint specificTokenOwnerId) = \n                    tokenRegistry.getSpecificRBBTokenIdAndOwnerId(specificTokenAddr);\n\n        balanceRequestedTokens[specificTokenId][specificHash] \n            = balanceRequestedTokens[specificTokenId][specificHash].sub(amount, \"Total de emisso excede valor solicitado\");\n\n        SpecificRBBToken specificToken = SpecificRBBToken(specificTokenAddr);\n\n        //Retorna a conta de mint associada ao hash especifico. \n        bytes32 calcHash = specificToken.getHashToMintedAccount(specificHash);\n\n        rbbBalances[specificTokenId][specificTokenOwnerId][calcHash] = \n            rbbBalances[specificTokenId][specificTokenOwnerId][calcHash].add(amount);\n\n        specificToken.verifyAndActForMint(idInvestor, specificHash, amount, docHash, data);\n\n        emit RBBTokenMint(specificTokenAddr, specificHash, amount, docHash, data);\n    }\n\n\n    function burnOwnTokenBySpecificTokens (address originalSender, bytes32 hashToBurn, uint amount, \n        bytes32 docHash) public {\n\n        address specificTokenAddr = msg.sender;\n        tokenRegistry.verifyTokenIsRegisteredAndActive(specificTokenAddr);\n\n        uint specificTokenOwnerId = tokenRegistry.getSpecificOwnerId(specificTokenAddr);\n        \n        _burn(specificTokenAddr, originalSender, specificTokenOwnerId, hashToBurn, amount, docHash);\n\n    }\n\n\n    function burnOwnToken (address specificTokenAddr, bytes32 hashToBurn, uint amount, bytes32 docHash) \n        public {\n\n        tokenRegistry.verifyTokenIsRegisteredAndActive(specificTokenAddr);\n\n        uint idToBurn = registry.getId(msg.sender);\n\n        _burn(specificTokenAddr, msg.sender, idToBurn, hashToBurn, amount, docHash);\n\n    }\n\n    function _burn(address specificTokenAddr, address originalSender, uint fromId, bytes32 fromHash, \n        uint amount, bytes32 docHash) internal {\n        \n        tokenRegistry.verifyTokenIsRegisteredAndActive(specificTokenAddr);\n//        require(amount>0, \"Valor a queimar deve ser maior do que zero\");\n\n        uint specificTokenId = tokenRegistry.getSpecificRBBTokenId(specificTokenAddr);\n\n        rbbBalances[specificTokenId][fromId][fromHash] = \n            rbbBalances[specificTokenId][fromId][fromHash].sub(amount, \"Total de tokens a serem queimados  maior do que o balance\");\n\n        emit RBBTokenBurn(specificTokenAddr, originalSender, fromId, fromHash, amount, docHash);\n    }\n\n///******************************************************************* */\n\n\n    function transfer (address specificTokenAddr, bytes32 fromHash, uint toId, bytes32 toHash, \n            uint amount, bytes32 docHash, string[] memory data) public whenNotPaused {\n\n        uint fromId = registry.getId(msg.sender);\n\n        tokenRegistry.verifyTokenIsRegisteredAndActive(specificTokenAddr);\n\n//        require(registry.isRegistryOperational(fromId), \"Conta de origem precisa estar com cadastro validado\");\n//        require(registry.isRegistryOperational(toId), \"Conta de destino precisa estar com cadastro validado\");\n        uint specificTokenId = tokenRegistry.getSpecificRBBTokenId(specificTokenAddr);\n\n        SpecificRBBToken specificToken = SpecificRBBToken(specificTokenAddr);\n        specificToken.verifyAndActForTransfer(msg.sender, fromId, fromHash, toId, toHash, amount, docHash, data);\n\n        //altera valores de saldo\n        rbbBalances[specificTokenId][fromId][fromHash] =\n                rbbBalances[specificTokenId][fromId][fromHash].sub(amount, \"Saldo da origem no  suficiente para a transferncia\");\n        rbbBalances[specificTokenId][toId][toHash] = rbbBalances[specificTokenId][toId][toHash].add(amount);\n\n        emit RBBTokenTransfer (specificTokenAddr, msg.sender, fromId, fromHash, toId, toHash, amount, docHash, data);\n\n    }\n\n    function redeem (address specificTokenAddr, bytes32 fromHash, uint amount, \n        bytes32 docHash, string[] memory data) public whenNotPaused  {\n\n            uint fromId = registry.getId(msg.sender);\n\n            tokenRegistry.verifyTokenIsRegisteredAndActive(specificTokenAddr);\n\n//            require(registry.isRegistryOperational(fromId), \"Conta solicitante do redeem precisa estar com cadastro validado\");\n            require(amount>0, \"Valor a resgatar deve ser maior do que zero\");\n    \n            SpecificRBBToken specificToken = SpecificRBBToken(specificTokenAddr);\n            specificToken.verifyAndActForRedeem(msg.sender, fromId, fromHash, amount, docHash, data);\n\n            emit RBBTokenRedemptionRequested(specificTokenAddr, msg.sender, fromId, fromHash, amount, docHash, data);\n            _burn(specificTokenAddr, msg.sender, fromId, fromHash, amount, docHash);\n    }\n\n   /**\n    * Using this function, the Responsible for Settlement indicates that he has made the FIAT money transfer.\n    * @ param redemptionTransactionHash hash of the redeem transaction in which the FIAT money settlement occurred.\n    * @ param receiptHash hash that proof the FIAT money transfer\n    */ \n    function notifyRedemptionSettlement(address specificTokenAddr, bytes32 redemptionTransactionHash, \n        bytes32 docHash, string[] memory data) public whenNotPaused {\n\n        tokenRegistry.verifyTokenIsRegisteredAndActive(specificTokenAddr);\n\n        require (responsibleForSettlement == msg.sender, \n            \"Somente um responsvel pela liquidio pode enviar a transao\");\n\n        SpecificRBBToken specificToken = SpecificRBBToken(specificTokenAddr);\n        specificToken.verifyAndActForRedemptionSettlement(redemptionTransactionHash, docHash, data);\n\n        emit RBBTokenRedemptionSettlement(specificTokenAddr, redemptionTransactionHash, docHash, data);\n    }\n    \n\n///******************************************************************* */\n\n    function getDecimals() public view returns (uint8) {\n        return decimals;\n    }\n\n    function getBndesId() view public returns (uint) {\n        uint bndesId = registry.getId(owner());\n        return bndesId;\n    }\n\n    function setResponsibleForInvestmentConfirmation(address rs) onlyOwner public {\n        uint id = registry.getId(rs);\n        require(id==registry.getId(owner()), \"O responsvel pela confirmao do investimento deve ser do mesmo RBB_ID do contrato\");\n        responsibleForInvestmentConfirmation = rs;\n        emit ManualIntervention_RoleOrAddress(rs, 1);\n    }\n\n    function setResponsibleForSettlement(address rs) onlyOwner public {\n        uint id = registry.getId(rs);\n        require(id==registry.getId(owner()), \"O responsvel pela liquidao deve ser da mesmo RBB_ID do contrato\");\n        responsibleForSettlement = rs;\n        emit ManualIntervention_RoleOrAddress(rs, 2);\n    }\n\n\n}",
  "sourcePath": "/Users/suzana.moreno/workspace/rbb-token/Back-Blockchain/contracts/RBBToken.sol",
  "compiler": {
    "name": "solc",
    "version": "0.6.12+commit.27d51765.Emscripten.clang"
  },
  "schemaVersion": "3.2.5",
  "updatedAt": "2020-11-03T18:25:16.679Z",
  "devdoc": {
    "kind": "dev",
    "methods": {
      "isOwner()": {
        "details": "Returns true if the caller is the current owner."
      },
      "owner()": {
        "details": "Returns the address of the current owner."
      },
      "pause()": {
        "details": "Called by a pauser to pause, triggers stopped state."
      },
      "paused()": {
        "details": "Returns true if the contract is paused, and false otherwise."
      },
      "renounceOwnership()": {
        "details": "Leaves the contract without owner. It will not be possible to call `onlyOwner` functions anymore. Can only be called by the current owner. NOTE: Renouncing ownership will leave the contract without an owner, thereby removing any functionality that is only available to the owner."
      },
      "transferOwnership(address)": {
        "details": "Transfers ownership of the contract to a new account (`newOwner`). Can only be called by the current owner."
      },
      "unpause()": {
        "details": "Called by a pauser to unpause, returns to normal state."
      }
    },
    "version": 1
  },
  "userdoc": {
    "kind": "user",
    "methods": {
      "getDecimals()": {
        "notice": "******************************************************************* */"
      },
      "notifyRedemptionSettlement(address,bytes32,bytes32,string[])": {
        "notice": "Using this function, the Responsible for Settlement indicates that he has made the FIAT money transfer. param redemptionTransactionHash hash of the redeem transaction in which the FIAT money settlement occurred. param receiptHash hash that proof the FIAT money transfer"
      },
      "requestMint(bytes32,uint256,uint256,bytes32)": {
        "notice": "******************************************************************* */"
      },
      "transfer(address,bytes32,uint256,bytes32,uint256,bytes32,string[])": {
        "notice": "******************************************************************* */"
      }
    },
    "version": 1
  }
}