{
  "contractName": "SpecificRBBTokenRegistry",
  "abi": [
    {
      "inputs": [
        {
          "internalType": "address",
          "name": "newRegistryAddr",
          "type": "address"
        }
      ],
      "stateMutability": "nonpayable",
      "type": "constructor"
    },
    {
      "anonymous": false,
      "inputs": [
        {
          "indexed": true,
          "internalType": "address",
          "name": "previousOwner",
          "type": "address"
        },
        {
          "indexed": true,
          "internalType": "address",
          "name": "newOwner",
          "type": "address"
        }
      ],
      "name": "OwnershipTransferred",
      "type": "event"
    },
    {
      "anonymous": false,
      "inputs": [
        {
          "indexed": false,
          "internalType": "uint256",
          "name": "id",
          "type": "uint256"
        },
        {
          "indexed": false,
          "internalType": "uint256",
          "name": "ownerId",
          "type": "uint256"
        },
        {
          "indexed": false,
          "internalType": "address",
          "name": "addr",
          "type": "address"
        }
      ],
      "name": "SpecificRBBTokenRegistration",
      "type": "event"
    },
    {
      "anonymous": false,
      "inputs": [
        {
          "indexed": false,
          "internalType": "uint256",
          "name": "id",
          "type": "uint256"
        },
        {
          "indexed": false,
          "internalType": "bool",
          "name": "state",
          "type": "bool"
        }
      ],
      "name": "SpecificRBBTokenStateChange",
      "type": "event"
    },
    {
      "inputs": [],
      "name": "idCount",
      "outputs": [
        {
          "internalType": "uint256",
          "name": "",
          "type": "uint256"
        }
      ],
      "stateMutability": "view",
      "type": "function",
      "constant": true
    },
    {
      "inputs": [],
      "name": "isOwner",
      "outputs": [
        {
          "internalType": "bool",
          "name": "",
          "type": "bool"
        }
      ],
      "stateMutability": "view",
      "type": "function",
      "constant": true
    },
    {
      "inputs": [],
      "name": "owner",
      "outputs": [
        {
          "internalType": "address",
          "name": "",
          "type": "address"
        }
      ],
      "stateMutability": "view",
      "type": "function",
      "constant": true
    },
    {
      "inputs": [],
      "name": "registry",
      "outputs": [
        {
          "internalType": "contract RBBRegistry",
          "name": "",
          "type": "address"
        }
      ],
      "stateMutability": "view",
      "type": "function",
      "constant": true
    },
    {
      "inputs": [],
      "name": "renounceOwnership",
      "outputs": [],
      "stateMutability": "nonpayable",
      "type": "function"
    },
    {
      "inputs": [
        {
          "internalType": "address",
          "name": "",
          "type": "address"
        }
      ],
      "name": "specificRBBTokensRegistry",
      "outputs": [
        {
          "internalType": "uint256",
          "name": "id",
          "type": "uint256"
        },
        {
          "internalType": "bool",
          "name": "isActive",
          "type": "bool"
        }
      ],
      "stateMutability": "view",
      "type": "function",
      "constant": true
    },
    {
      "inputs": [
        {
          "internalType": "address",
          "name": "newOwner",
          "type": "address"
        }
      ],
      "name": "transferOwnership",
      "outputs": [],
      "stateMutability": "nonpayable",
      "type": "function"
    },
    {
      "inputs": [
        {
          "internalType": "address",
          "name": "addr",
          "type": "address"
        }
      ],
      "name": "verifyTokenIsRegisteredAndActive",
      "outputs": [],
      "stateMutability": "view",
      "type": "function",
      "constant": true
    },
    {
      "inputs": [
        {
          "internalType": "address",
          "name": "specificRBBTokenAddr",
          "type": "address"
        }
      ],
      "name": "registerSpecificRBBToken",
      "outputs": [
        {
          "internalType": "uint256",
          "name": "",
          "type": "uint256"
        }
      ],
      "stateMutability": "nonpayable",
      "type": "function"
    },
    {
      "inputs": [
        {
          "internalType": "address",
          "name": "addr",
          "type": "address"
        }
      ],
      "name": "getSpecificRBBTokenId",
      "outputs": [
        {
          "internalType": "uint256",
          "name": "",
          "type": "uint256"
        }
      ],
      "stateMutability": "view",
      "type": "function",
      "constant": true
    },
    {
      "inputs": [
        {
          "internalType": "address",
          "name": "addr",
          "type": "address"
        }
      ],
      "name": "getSpecificRBBTokenIdAndOwnerId",
      "outputs": [
        {
          "internalType": "uint256",
          "name": "",
          "type": "uint256"
        },
        {
          "internalType": "uint256",
          "name": "",
          "type": "uint256"
        }
      ],
      "stateMutability": "view",
      "type": "function",
      "constant": true
    },
    {
      "inputs": [
        {
          "internalType": "address",
          "name": "addr",
          "type": "address"
        }
      ],
      "name": "isSpecificRBBTokenActive",
      "outputs": [
        {
          "internalType": "bool",
          "name": "",
          "type": "bool"
        }
      ],
      "stateMutability": "view",
      "type": "function",
      "constant": true
    },
    {
      "inputs": [
        {
          "internalType": "address",
          "name": "addr",
          "type": "address"
        },
        {
          "internalType": "bool",
          "name": "status",
          "type": "bool"
        }
      ],
      "name": "setStatus",
      "outputs": [
        {
          "internalType": "bool",
          "name": "",
          "type": "bool"
        }
      ],
      "stateMutability": "nonpayable",
      "type": "function"
    }
  ],
  "bytecode": "0x6080604052600160025534801561001557600080fd5b506040516115d33803806115d38339818101604052602081101561003857600080fd5b8101908080519060200190929190505050600061005961013e60201b60201c565b9050806000806101000a81548173ffffffffffffffffffffffffffffffffffffffff021916908373ffffffffffffffffffffffffffffffffffffffff1602179055508073ffffffffffffffffffffffffffffffffffffffff16600073ffffffffffffffffffffffffffffffffffffffff167f8be0079c531659141344cd1fd0a4f28419497f9722a3daafe3b4186f6b6457e060405160405180910390a35080600160006101000a81548173ffffffffffffffffffffffffffffffffffffffff021916908373ffffffffffffffffffffffffffffffffffffffff16021790555050610146565b600033905090565b61147e806101556000396000f3fe608060405234801561001057600080fd5b50600436106100cf5760003560e01c80638da5cb5b1161008c578063b304f21c11610066578063b304f21c14610330578063d06d86eb14610396578063e6e46238146103da578063f2fde38b146103f8576100cf565b80638da5cb5b1461027b5780638f32d59b146102af5780639251b1c9146102cf576100cf565b806324370167146100d4578063281cbc8d1461012c578063715018a61461018657806372a0a334146101905780637b103999146101e85780638264f9781461021c575b600080fd5b610116600480360360208110156100ea57600080fd5b81019080803573ffffffffffffffffffffffffffffffffffffffff16906020019092919050505061043c565b6040518082815260200191505060405180910390f35b61016e6004803603602081101561014257600080fd5b81019080803573ffffffffffffffffffffffffffffffffffffffff16906020019092919050505061053f565b60405180821515815260200191505060405180910390f35b61018e610642565b005b6101d2600480360360208110156101a657600080fd5b81019080803573ffffffffffffffffffffffffffffffffffffffff16906020019092919050505061077a565b6040518082815260200191505060405180910390f35b6101f0610b66565b604051808273ffffffffffffffffffffffffffffffffffffffff16815260200191505060405180910390f35b61025e6004803603602081101561023257600080fd5b81019080803573ffffffffffffffffffffffffffffffffffffffff169060200190929190505050610b8c565b604051808381526020018281526020019250505060405180910390f35b610283610de8565b604051808273ffffffffffffffffffffffffffffffffffffffff16815260200191505060405180910390f35b6102b7610e11565b60405180821515815260200191505060405180910390f35b610311600480360360208110156102e557600080fd5b81019080803573ffffffffffffffffffffffffffffffffffffffff169060200190929190505050610e6f565b6040518083815260200182151581526020019250505060405180910390f35b61037e6004803603604081101561034657600080fd5b81019080803573ffffffffffffffffffffffffffffffffffffffff169060200190929190803515159060200190929190505050610ea0565b60405180821515815260200191505060405180910390f35b6103d8600480360360208110156103ac57600080fd5b81019080803573ffffffffffffffffffffffffffffffffffffffff169060200190929190505050611053565b005b6103e2611112565b6040518082815260200191505060405180910390f35b61043a6004803603602081101561040e57600080fd5b81019080803573ffffffffffffffffffffffffffffffffffffffff169060200190929190505050611118565b005b60006104478261119e565b6104b9576040517f08c379a00000000000000000000000000000000000000000000000000000000081526004018080602001828103825260208152602001807f546f6b656e206573706563c3ad6669636f206e616f207265676973747261646f81525060200191505060405180910390fd5b6104c1611385565b600360008473ffffffffffffffffffffffffffffffffffffffff1673ffffffffffffffffffffffffffffffffffffffff168152602001908152602001600020604051806040016040529081600082015481526020016001820160009054906101000a900460ff16151515158152505090508060000151915050919050565b600061054a8261119e565b6105bc576040517f08c379a00000000000000000000000000000000000000000000000000000000081526004018080602001828103825260208152602001807f546f6b656e206573706563c3ad6669636f206e616f207265676973747261646f81525060200191505060405180910390fd5b6105c4611385565b600360008473ffffffffffffffffffffffffffffffffffffffff1673ffffffffffffffffffffffffffffffffffffffff168152602001908152602001600020604051806040016040529081600082015481526020016001820160009054906101000a900460ff16151515158152505090508060200151915050919050565b61064a610e11565b6106bc576040517f08c379a00000000000000000000000000000000000000000000000000000000081526004018080602001828103825260208152602001807f4f776e61626c653a2063616c6c6572206973206e6f7420746865206f776e657281525060200191505060405180910390fd5b600073ffffffffffffffffffffffffffffffffffffffff1660008054906101000a900473ffffffffffffffffffffffffffffffffffffffff1673ffffffffffffffffffffffffffffffffffffffff167f8be0079c531659141344cd1fd0a4f28419497f9722a3daafe3b4186f6b6457e060405160405180910390a360008060006101000a81548173ffffffffffffffffffffffffffffffffffffffff021916908373ffffffffffffffffffffffffffffffffffffffff160217905550565b6000610784610e11565b6107f6576040517f08c379a00000000000000000000000000000000000000000000000000000000081526004018080602001828103825260208152602001807f4f776e61626c653a2063616c6c6572206973206e6f7420746865206f776e657281525060200191505060405180910390fd5b6107ff8261119e565b15610872576040517f08c379a00000000000000000000000000000000000000000000000000000000081526004018080602001828103825260208152602001807f546f6b656e206573706563c3ad6669636f206ac3a1207265676973747261646f81525060200191505060405180910390fd5b60008290508073ffffffffffffffffffffffffffffffffffffffff166355a2456e600160009054906101000a900473ffffffffffffffffffffffffffffffffffffffff166040518263ffffffff1660e01b8152600401808273ffffffffffffffffffffffffffffffffffffffff168152602001915050600060405180830381600087803b15801561090257600080fd5b505af1158015610916573d6000803e3d6000fd5b5050505060008173ffffffffffffffffffffffffffffffffffffffff16638da5cb5b6040518163ffffffff1660e01b815260040160206040518083038186803b15801561096257600080fd5b505afa158015610976573d6000803e3d6000fd5b505050506040513d602081101561098c57600080fd5b810190808051906020019092919050505090506000600160009054906101000a900473ffffffffffffffffffffffffffffffffffffffff1673ffffffffffffffffffffffffffffffffffffffff166365f68c89836040518263ffffffff1660e01b8152600401808273ffffffffffffffffffffffffffffffffffffffff16815260200191505060206040518083038186803b158015610a2a57600080fd5b505afa158015610a3e573d6000803e3d6000fd5b505050506040513d6020811015610a5457600080fd5b810190808051906020019092919050505090506040518060400160405280600254815260200160011515815250600360008773ffffffffffffffffffffffffffffffffffffffff1673ffffffffffffffffffffffffffffffffffffffff1681526020019081526020016000206000820151816000015560208201518160010160006101000a81548160ff0219169083151502179055509050507f23dfb3bc2ba09af9f8dd4199aec4505f20182295dcf13fe361839b1458b4547a6002548287604051808481526020018381526020018273ffffffffffffffffffffffffffffffffffffffff168152602001935050505060405180910390a1600260008154809291906001019190505550505050919050565b600160009054906101000a900473ffffffffffffffffffffffffffffffffffffffff1681565b600080610b988361119e565b610c0a576040517f08c379a00000000000000000000000000000000000000000000000000000000081526004018080602001828103825260208152602001807f546f6b656e206573706563c3ad6669636f206e616f207265676973747261646f81525060200191505060405180910390fd5b610c12611385565b600360008573ffffffffffffffffffffffffffffffffffffffff1673ffffffffffffffffffffffffffffffffffffffff168152602001908152602001600020604051806040016040529081600082015481526020016001820160009054906101000a900460ff1615151515815250509050600084905060008173ffffffffffffffffffffffffffffffffffffffff16638da5cb5b6040518163ffffffff1660e01b815260040160206040518083038186803b158015610cd057600080fd5b505afa158015610ce4573d6000803e3d6000fd5b505050506040513d6020811015610cfa57600080fd5b810190808051906020019092919050505090506000600160009054906101000a900473ffffffffffffffffffffffffffffffffffffffff1673ffffffffffffffffffffffffffffffffffffffff166365f68c89836040518263ffffffff1660e01b8152600401808273ffffffffffffffffffffffffffffffffffffffff16815260200191505060206040518083038186803b158015610d9857600080fd5b505afa158015610dac573d6000803e3d6000fd5b505050506040513d6020811015610dc257600080fd5b810190808051906020019092919050505090508360000151819550955050505050915091565b60008060009054906101000a900473ffffffffffffffffffffffffffffffffffffffff16905090565b60008060009054906101000a900473ffffffffffffffffffffffffffffffffffffffff1673ffffffffffffffffffffffffffffffffffffffff16610e5361123a565b73ffffffffffffffffffffffffffffffffffffffff1614905090565b60036020528060005260406000206000915090508060000154908060010160009054906101000a900460ff16905082565b6000610eaa610e11565b610f1c576040517f08c379a00000000000000000000000000000000000000000000000000000000081526004018080602001828103825260208152602001807f4f776e61626c653a2063616c6c6572206973206e6f7420746865206f776e657281525060200191505060405180910390fd5b610f258361119e565b610f97576040517f08c379a00000000000000000000000000000000000000000000000000000000081526004018080602001828103825260208152602001807f546f6b656e206573706563c3ad6669636f206e616f207265676973747261646f81525060200191505060405180910390fd5b6000600360008573ffffffffffffffffffffffffffffffffffffffff1673ffffffffffffffffffffffffffffffffffffffff1681526020019081526020016000209050828160010160006101000a81548160ff0219169083151502179055507f240fdc91eba6293eb092f416a125adf932df543fa8bfbc6ace2c36710834345c81600001548260010160009054906101000a900460ff166040518083815260200182151581526020019250505060405180910390a15092915050565b61105c8161119e565b6110b1576040517f08c379a00000000000000000000000000000000000000000000000000000000081526004018080602001828103825260498152602001806114006049913960600191505060405180910390fd5b6110ba8161053f565b61110f576040517f08c379a00000000000000000000000000000000000000000000000000000000081526004018080602001828103825260388152602001806113c86038913960400191505060405180910390fd5b50565b60025481565b611120610e11565b611192576040517f08c379a00000000000000000000000000000000000000000000000000000000081526004018080602001828103825260208152602001807f4f776e61626c653a2063616c6c6572206973206e6f7420746865206f776e657281525060200191505060405180910390fd5b61119b81611242565b50565b60006111a8611385565b600360008473ffffffffffffffffffffffffffffffffffffffff1673ffffffffffffffffffffffffffffffffffffffff168152602001908152602001600020604051806040016040529081600082015481526020016001820160009054906101000a900460ff1615151515815250509050600081600001511461122f576001915050611235565b60009150505b919050565b600033905090565b600073ffffffffffffffffffffffffffffffffffffffff168173ffffffffffffffffffffffffffffffffffffffff1614156112c8576040517f08c379a00000000000000000000000000000000000000000000000000000000081526004018080602001828103825260268152602001806113a26026913960400191505060405180910390fd5b8073ffffffffffffffffffffffffffffffffffffffff1660008054906101000a900473ffffffffffffffffffffffffffffffffffffffff1673ffffffffffffffffffffffffffffffffffffffff167f8be0079c531659141344cd1fd0a4f28419497f9722a3daafe3b4186f6b6457e060405160405180910390a3806000806101000a81548173ffffffffffffffffffffffffffffffffffffffff021916908373ffffffffffffffffffffffffffffffffffffffff16021790555050565b604051806040016040528060008152602001600015158152509056fe4f776e61626c653a206e6577206f776e657220697320746865207a65726f20616464726573734dc3a9746f646f2073c3b320706f646520736572206368616d61646f20706f7220746f6b656e206573706563c3ad6669636f20617469766f4dc3a9746f646f2073c3b320706f646520736572206368616d61646f20706f7220746f6b656e206573706563c3ad6669636f207072657669616d656e7465206361646173747261646fa2646970667358221220dcb1ad5112045a71525e61cbb6745ca57f48725c3028619792041e4739e0ef0d64736f6c634300060c0033",
  "immutableReferences": {},
  "source": "pragma solidity ^0.6.0;\n\nimport \"@openzeppelin/contracts/ownership/Ownable.sol\";\nimport \"./RBBRegistry.sol\";\nimport \"./SpecificRBBToken.sol\";\n\n\ncontract SpecificRBBTokenRegistry is Ownable {\n\n    RBBRegistry public registry;\n\n    //It starts with 1, because 0 is the id value returned when the item is not found in the Registry\n    uint public idCount = 1;\n\n    struct SpecificRBBTokenInfo {\n        uint id;\n        bool isActive;\n    }\n\n    constructor (address newRegistryAddr) public {\n        registry = RBBRegistry(newRegistryAddr);\n    }\n\n    event SpecificRBBTokenRegistration (uint id, uint ownerId, address addr);\n    event SpecificRBBTokenStateChange (uint id, bool state);\n\n    //indexado pelo address pq serah a forma mais usada para consulta.\n    mapping (address => SpecificRBBTokenInfo) public specificRBBTokensRegistry;\n\n\n    function verifyTokenIsRegisteredAndActive(address addr) view public {\n        require(containsSpecificRBBToken(addr), \"Método só pode ser chamado por token específico previamente cadastrado\");\n        require(isSpecificRBBTokenActive(addr), \"Método só pode ser chamado por token específico ativo\");\n    }\n\n    function registerSpecificRBBToken (address specificRBBTokenAddr) public onlyOwner returns (uint)  {\n        require (!containsSpecificRBBToken(specificRBBTokenAddr), \"Token específico já registrado\");\n\n        SpecificRBBToken specificToken = SpecificRBBToken(specificRBBTokenAddr);\n        specificToken.setInitializationDataDuringRegistration(address(registry));\n        address scOwnerAddr = specificToken.owner();\n        uint scOwnerId = registry.getId(scOwnerAddr);\n\n\n        specificRBBTokensRegistry[specificRBBTokenAddr] = SpecificRBBTokenInfo(idCount, true);\n        emit SpecificRBBTokenRegistration (idCount, scOwnerId, specificRBBTokenAddr);\n        idCount++;\n    }\n\n    function getSpecificRBBTokenId (address addr) public view returns (uint) {\n        require (containsSpecificRBBToken(addr), \"Token específico nao registrado\");\n        SpecificRBBTokenInfo memory info = specificRBBTokensRegistry[addr];\n        return info.id;\n    }\n\n    function getSpecificRBBTokenIdAndOwnerId (address addr) public view returns (uint, uint) {\n        require (containsSpecificRBBToken(addr), \"Token específico nao registrado\");\n        SpecificRBBTokenInfo memory info = specificRBBTokensRegistry[addr];\n        SpecificRBBToken specificToken = SpecificRBBToken(addr);\n        address scOwnerAddr = specificToken.owner();\n        uint scOwnerId = registry.getId(scOwnerAddr);\n\n        return (info.id, scOwnerId);\n    }\n    \n    function containsSpecificRBBToken(address addr) private view returns (bool) {\n        SpecificRBBTokenInfo memory info = specificRBBTokensRegistry[addr];\n        if (info.id!=0) return true;\n        else return false;\n    }\n\n    function isSpecificRBBTokenActive(address addr) public view returns (bool) {\n        require (containsSpecificRBBToken(addr), \"Token específico nao registrado\");\n        SpecificRBBTokenInfo memory info = specificRBBTokensRegistry[addr];\n        return info.isActive;\n    }\n\n    function setStatus(address addr, bool status) public onlyOwner returns (bool) {\n        require (containsSpecificRBBToken(addr), \"Token específico nao registrado\");\n        SpecificRBBTokenInfo storage info = specificRBBTokensRegistry[addr];\n        info.isActive = status;\n        emit SpecificRBBTokenStateChange(info.id, info.isActive);\n    }\n}",
  "sourcePath": "/Users/suzana.moreno/workspace/rbb-token/Back-Blockchain/contracts/SpecificRBBTokenRegistry.sol",
  "compiler": {
    "name": "solc",
    "version": "0.6.12+commit.27d51765.Emscripten.clang"
  },
  "schemaVersion": "3.2.5",
  "updatedAt": "2020-09-30T16:52:09.623Z",
  "networkType": "ethereum",
  "devdoc": {
    "kind": "dev",
    "methods": {
      "isOwner()": {
        "details": "Returns true if the caller is the current owner."
      },
      "owner()": {
        "details": "Returns the address of the current owner."
      },
      "renounceOwnership()": {
        "details": "Leaves the contract without owner. It will not be possible to call `onlyOwner` functions anymore. Can only be called by the current owner. NOTE: Renouncing ownership will leave the contract without an owner, thereby removing any functionality that is only available to the owner."
      },
      "transferOwnership(address)": {
        "details": "Transfers ownership of the contract to a new account (`newOwner`). Can only be called by the current owner."
      }
    },
    "version": 1
  },
  "userdoc": {
    "kind": "user",
    "methods": {},
    "version": 1
  }
}